:0200000400807A
:105F8800FFFF000000500E8438FC745F3B4412147D
:085F9800090000710200000085
:045FBC0000000010D1
:020000040100F9
:10000000FEFFFFFF01015048434D00000000740057
:1000100004000100000200010002000100200300B2
:1000200000000000000000000000000000000000D0
:1000300000000000000000000000000000000000C0
:1000400000000000000000000000000000000000B0
:1000500000000000000000000000000000000000A0
:100060000000000000000000000000000000000090
:100070000000000000000000000000000000000080
:100080000000000000000000000000000000000070
:100090000000000000000000000000000000000060
:1000A0000000000000000000000000000000000050
:1000B0000000000000000000000000000000000040
:1000C0000000000000000000000000000000000030
:1000D0000000000000000000000000000000000020
:1000E0000000000000000000000000000000000010
:1000F0000000000000000000000000000000000000
:1001000000000000000000000000000000000000EF
:1001100000000000000000000000000000000000DF
:1001200000000000000000000000000000000000CF
:1001300000000000000000000000000000000000BF
:1001400000000000000000000000000000000000AF
:10015000000000000000000000000000000000009F
:10016000000000000000000000000000000000008F
:10017000000000000000000000000000000000007F
:10018000000000000000000000000000000000006F
:10019000000000000000000000000000000000005F
:1001A000000000000000000000000000000000004F
:1001B000000000000000000000000000000000003F
:1001C000000000000000000000000000000000002F
:1001D000000000000000000000000000000000001F
:1001E000000000000000000000000000000000000F
:1001F00000000000000000000000000000000000FF
:10020000F87F0120D5A502014DF9020153F9020141
:100210005FF9020165F902016BF9020100000000BB
:10022000000000000000000000000000D9FD0001F7
:1002300059F9020100000000F5FE000157FF00011E
:100240004D2A0101557D0101E309010155310101EB
:10025000E3090101E3090101299F0001E30901010B
:10026000E3090101E3090101E3090101E3090101D6
:10027000D1850001E3090101E3090101E30901015D
:10028000E3090101E3090101E3090101E3090101B6
:10029000E3090101E3090101E3090101E3090101A6
:1002A000E3090101E3090101E3090101E309010196
:1002B000E3090101E3090101E3090101D981020117
:1002C00031240201E3090101E3090101E30901010C
:1002D000E3090101E3090101B1F80001E3090101AA
:1002E000E3090101000000007989020100203200C9
:1002F00090300120000000000000000001203200CA
:1003000090300120000000000000000002203200B8
:1003100090300120000000000000000003203200A7
:100320009030012000000000000000000420320096
:100330009030012000000000000000000520320085
:100340009030012000000000000000000620320074
:100350009030012000000000000000000720320063
:100360009030012000000000000000000820200064
:10037000C43001200000000000000000092020001F
:10038000C430012000000000000000000A2020000E
:10039000C430012000000000000000000B202000FD
:1003A000C430012000000000000000000C202000EC
:1003B000C430012000000000000000000D202000DB
:1003C000C430012000000000000000000E202000CA
:1003D000C430012000000000000000000F202000B9
:1003E000C43001200000000000000000F8B500BF8C
:1003F000F8BC08BC9E467047BDC00201F8B500BFFE
:10040000F8BC08BC9E46704799C002011642010024
:100410000100000080B58CB004AFF860B9603B60AB
:100420001346FB80FB889B0018460FF0B5FE7861F1
:100430007B69002B0ED054200FF0AEFEF861FB69F3
:10044000002B03D0FB697A691A6305E078690FF025
:1004500043FF01E00023FB61FB69002B13D0FA8806
:1004600000230393FB690293FB6A0193BB6A009329
:100470003B68B968F86800F00EF8F86900F08EF88B
:100480000123BB6102E04FF0FF33BB61BB6918463B
:100490002037BD4680BD80B586B000AFF860B9603A
:1004A0007A603B60BB6A186B7B689B001A46A5218B
:1004B00031F0DCF8BB6A1A6B7B6803F18043013BC7
:1004C0009B0013443B613B6923F007033B61BB681E
:1004D000002B1FD000237B6112E0BA687B691344B4
:1004E0001978BA6A7B69134434330A461A70BA68B9
:1004F0007B6913441B78002B06D07B6901337B6139
:100500007B690F2BE9D900E000BFBB6A002283F8AA
:10051000432003E0BB6A002283F834203B6A042BAB
:1005200001D904233B62BB6A3A6ADA62BB6A3A6A5F
:100530005A64BB6A00229A64BB6A043318461AF0F4
:100540009DFDBB6A183318461AF098FDBB6ABA6A5B
:100550001A613B6AC3F10502BB6A9A61BB6ABA6A57
:100560005A62BB6A0022DA64BB6A002283F8502018
:10057000BB6A002283F851203A68F96838690FF0A5
:10058000DFFB0246BB6A1A607B6A002B02D07B6AE3
:10059000BA6A1A6000BF1837BD4680BD80B582B008
:1005A00000AF78600FF073FC2A4B1B680133294AB7
:1005B0001360294B1B68002B09D1274A7B68136005
:1005C000244B1B68012B10D101F05AF80DE0234B8E
:1005D0001B68002B09D1204B1B68DA6A7B68DB6A39
:1005E0009A4202D81C4A7B6813601D4B1B6801337A
:1005F0001B4A13607B68DB6A01229A40194B1B6817
:100600001343184A13607B68DA6A13469B0013444D
:100610009B00154A1A447B680433194610461AF0A9
:100620003AFD0FF04DFC0D4B1B68002B0ED00A4B12
:100630001B68DA6A7B68DB6A9A4207D20B4B4FF081
:1006400080521A60BFF34F8FBFF36F8F00BF083720
:10065000BD4680BD602C0120882B01206C2C012020
:100660007C2C0120682C01208C2B012004ED00E063
:1006700080B584B000AF78600FF009FC7B68002B78
:1006800002D1314B1B6800E07B68FB60FB680433E0
:1006900018461AF05DFD0346002B15D1FB68DA6A97
:1006A0002A4913469B0013449B000B441B68002BF4
:1006B0000AD1FB68DB6A012202FA03F3DA43244B16
:1006C0001B681340224A1360FB689B6A002B04D00E
:1006D000FB68183318461AF03BFD1E4B1B680133AC
:1006E0001C4A1360184B1B68FA689A420BD1FB68CE
:1006F0000433194618481AF0CEFC184B1B68013316
:10070000164A136009E0164B1B68013B144A13603C
:10071000F86801F021F801F02FF80FF0D1FB114B30
:100720001B68002B0CD0084B1B68FA689A4207D153
:100730000D4B4FF080521A60BFF34F8FBFF36F8F96
:1007400000BF1037BD4680BD882B01208C2B0120B7
:10075000682C01207C2C0120342C0120482C012005
:10076000602C01206C2C012004ED00E080B586B0E7
:1007700000AF7860396000237B6100F0F1FA214B13
:100780001B683B617B681B683A681344FB607B68AD
:100790001B683A699A420BD27B681B68FA689A42D6
:1007A00011D2FA683B699A420DD901237B610AE0B4
:1007B0007B681B68FA689A4203D3FA683B699A42DD
:1007C00001D901237B617B68FA681A607B69002B81
:1007D00006D0FA683B69D31A0021184601F01EFCC6
:1007E00000F006FBB860BB68002B07D1064B4FF04A
:1007F00080521A60BFF34F8FBFF36F8F00BF18375F
:10080000BD4680BD642C012004ED00E080B584B0BD
:1008100000AF78600023FB607B68002B08D000F0FD
:100820009FFA0021786801F0F9FB00F0E1FAF86026
:10083000FB68002B07D1064B4FF080521A60BFF3C4
:100840004F8FBFF36F8F00BF1037BD4680BD00BF15
:1008500004ED00E080B588B000AF78607B68BB61D4
:10086000234B1B68BA699A4202D10023FB773AE016
:100870000FF00DFBBB695B697B611E4B1B683B6125
:100880001D4B1B68FB600FF01BFB7A693B699A42AA
:1008900003D07A69FB689A4202D10223FB7722E0F7
:1008A0007B69164A934212D1BB699B6A002B0BD11C
:1008B000BB6993F85030DBB2012B02D10223FB77E6
:1008C00011E00323FB770EE00223FB770BE07B694B
:1008D0000B4A934202D07B69002B02D10423FB77A1
:1008E00001E00123FB77FB7F18462037BD4680BD22
:1008F000882B0120182C01201C2C01204C2C0120BD
:10090000342C012080B584B000AF78600FF0BFFABE
:100910007B68002B02D1074B1B6800E07B68FB6003
:10092000FB68DB6ABB600FF0CBFABB681846103778
:10093000BD4680BD882B012080B489B000AF7860AF
:10094000EFF311824FF0200383F31188BFF36F8F11
:10095000BFF34F8F3A61FB603B69FB617B68002B03
:1009600002D10A4B1B6800E07B68BB61BB69DB6A94
:100970007B61FB69BB60BB6883F311887B691846A8
:100980002437BD465DF8047B704700BF882B0120EB
:1009900080B586B000AF7860396000237B613B682A
:1009A000042B01D904233B600FF071FA7B68002B04
:1009B00002D1414B1B6800E07B683B613B695B6C8B
:1009C000FB60FA683B689A426FD03A68FB689A42CB
:1009D0000DD9394B1B683A699A420FD0364B1B68C8
:1009E000DB6A3A689A4209D301237B6106E0324B05
:1009F0001B683A699A4201D101237B613B69DB6A3A
:100A0000BB603B695A6C3B69DB6A9A4202D13B6925
:100A10003A68DA623B693A685A643B699B69002B21
:100A200004DB3B68C3F105023B699A613B69596984
:100A3000BA6813469B0013449B00204A1344994212
:100A400028D13B69043318461AF082FB0346002B79
:100A500009D10122BB6802FA03F3DA43184B1B6881
:100A60001340174A13603B69DB6A01229A40144B1A
:100A70001B681343124A13603B69DA6A13469B00F2
:100A800013449B000D4A1A443B690433194610462F
:100A90001AF001FB7B69002B07D00A4B4FF0805204
:100AA0001A60BFF34F8FBFF36F8F0FF009FA00BFCB
:100AB0001837BD4680BD00BF882B01208C2B01203C
:100AC000682C012004ED00E080B584B000AF7860B0
:100AD0000FF0DDF97B68002B02D1354B1B6800E07D
:100AE0007B68FB60FB68043318461AF031FB034651
:100AF000002B15D1FB68DA6A2E4913469B0013447C
:100B00009B000B441B68002B0AD1FB68DB6A0122A7
:100B100002FA03F3DA43284B1B681340264A13609A
:100B2000FB689B6A002B04D0FB68183318461AF048
:100B30000FFBFB680433194620481AF0ACFAFB6837
:100B400093F85030DBB2012B03D1FB68002283F80D
:100B500050200FF0B5F91A4B1B68002B05D00FF091
:100B600096F900F009FE0FF0ABF9114B1B68FA681B
:100B70009A4218D1124B1B68002B08D0114B4FF032
:100B800080521A60BFF34F8FBFF36F8F0BE00B4B98
:100B90001A680D4B1B689A4203D1054B00221A605C
:100BA00001E000F02BFB00BF1037BD4680BD00BF49
:100BB000882B01208C2B0120682C01204C2C01203B
:100BC0006C2C012004ED00E0602C012080B485B085
:100BD00000AF78600023FB607B68BB60BB685B692B
:100BE0000A4A93420AD1BB689B6A094A934205D0DC
:100BF000BB689B6A002B01D10123FB60FB68184690
:100C00001437BD465DF8047B704700BF4C2C0120B3
:100C1000202C012080B584B000AF78607B68FB6039
:100C2000204B1B68FA689A4237D0FB68002B34D0FF
:100C30000FF02DF9F868FFF7C9FF0346002B2AD003
:100C4000FB68043318461AF083FAFB68DB6A01225A
:100C50009A40154B1B681343134A1360FB68DA6A0A
:100C600013469B0013449B00104A1A44FB6804334C
:100C7000194610461AF00FFAFB68DA6A094B1B682E
:100C8000DB6A9A4207D30A4B4FF080521A60BFF3D7
:100C90004F8FBFF36F8F0FF013F900BF1037BD46B2
:100CA00080BD00BF882B0120682C01208C2B0120E7
:100CB00004ED00E080B584B002AF174B0193002330
:100CC000009300234FF4807214491548FFF7A2FBEC
:100CD00078607B68012B02D108F0F4F978607B68BA
:100CE000012B14D14FF0200383F31188BFF36F8FD2
:100CF000BFF34F8F3B600B4B4FF0FF321A600A4B34
:100D000001221A60094B00221A600FF08EF800BF12
:100D10000837BD4680BD00BF842C0120841A030122
:100D2000CD150001802C01206C2C0120642C0120A9
:100D300080B582B000AF4FF0200383F31188BFF37A
:100D40006F8FBFF34F8F7B60044B00221A600FF050
:100D500097F800BF0837BD4680BD00BF6C2C01204E
:100D600080B400AF044B1B680133034A136000BF1B
:100D7000BD465DF8047B7047882C012080B485B0A7
:100D800000AF0023BB6001237B60144B1B687A68B3
:100D90009A4201D20123BB60114B1B68DB6A002B16
:100DA00002D00023FB6012E00E4B1B68012B02D91E
:100DB0000023FB600BE0BB68002B02D00023FB602C
:100DC00005E0094B1A68094B1B68D31AFB60FB68E6
:100DD00018461437BD465DF8047B7047682C012027
:100DE000882B01208C2B0120802C0120642C0120D9
:100DF00080B584B000AF0023FB600023BB600FF020
:100E000046F8394B1B68013B374A1360364B1B6869
:100E1000002B61D1354B1B68002B5DD02EE0344B8D
:100E2000DB68DB68FB60FB68183318461AF090F942
:100E3000FB68043318461AF08BF9FB68DB6A012261
:100E40009A402C4B1B6813432A4A1360FB68DA6AEA
:100E500013469B0013449B00274A1A44FB68043343
:100E6000194610461AF017F9FB68DA6A234B1B681B
:100E7000DB6A9A4202D3224B01221A601C4B1B6888
:100E8000002BCCD1FB68002B01D000F075FC1D4B72
:100E90001B687B607B68002B10D000F0FFF80346D6
:100EA000002B02D0164B01221A607B68013B7B604D
:100EB0007B68002BF1D1134B00221A60104B1B688A
:100EC000002B09D00123BB600F4B4FF080521A60FA
:100ED000BFF34F8FBFF36F8F0EF0F2FFBB68184662
:100EE0001037BD4680BD00BF882C0120602C01203A
:100EF000202C0120682C01208C2B0120882B012024
:100F0000742C0120702C012004ED00E080B483B02B
:100F100000AF054B1B687B607B6818460C37BD46ED
:100F20005DF8047B704700BF642C012080B483B05F
:100F300000AF00237B60054B1B683B603B68184695
:100F40000C37BD465DF8047B704700BF642C012060
:100F500080B400AF034B1B681846BD465DF8047BA8
:100F6000704700BF602C012080B485B000AF78606E
:100F70007B68002B02D1064B1B6800E07B68FB609E
:100F8000FB68343318461437BD465DF8047B704760
:100F9000882B012080B483B000AF7860054B1A68BD
:100FA0007B681344034A136000BF0C37BD465DF8ED
:100FB000047B7047642C012080B584B000AF78605A
:100FC0000023FB60FFF7CCFE064B1A687B681344D6
:100FD000044A1360FFF70CFFF860FB6818461037EF
:100FE000BD4680BD702C012080B584B000AF786014
:100FF0007B68BB60FFF7B4FE7868FFF72BFC034605
:10100000022B39D10123FB60BB68043318461AF068
:101010009FF80EF03CFFBB689B6A002B08D0BB68B2
:10102000183318461AF094F8BB68012283F851204F
:101030000EF046FFBB68DB6A01229A40134B1B6827
:101040001343124A1360BB68DA6A13469B001344C9
:101050009B000F4A1A44BB680433194610461AF025
:101060001AF8BB68DA6A0B4B1B68DB6A9A4205D92F
:10107000094B01221A6001E00023FB60FFF7B8FE74
:10108000FB6818461037BD4680BD00BF682C0120A4
:101090008C2B0120882B0120742C012080B586B078
:1010A00000AF00237B614A4B1B68002B40F084801B
:1010B000484B1B6801333B61464A3B6913603B69FF
:1010C000002B10D1444B1B68FB60444B1B68424A09
:1010D0001360424AFB681360414B1B680133404A6E
:1010E000136000F049FB3F4B1B683A699A4248D3B2
:1010F000394B1B681B68002B04D13A4B4FF0FF3271
:101100001A603EE0344B1B68DB68DB68BB60BB6881
:101110005B687B603A697B689A4203D2314A7B689C
:1011200013602EE0BB68043318461AF011F8BB6850
:101130009B6A002B04D0BB68183318461AF008F8D5
:10114000BB68DB6A01229A40274B1B681343264A7F
:101150001360BB68DA6A13469B0013449B00234A62
:101160001A44BB6804331946104619F094FFBB6853
:10117000DA6A1F4B1B68DB6A9A42B9D301237B6191
:10118000B6E71B4B1B68DA6A184913469B001344E9
:101190009B000B441B68012B01D901237B61154B7C
:1011A0001B68002B01D125F02BFB134B1B68002B78
:1011B00009D001237B6106E00E4B1B6801330D4A09
:1011C000136025F01DFB7B6918461837BD4680BDAE
:1011D000882C0120642C0120182C01201C2C0120BB
:1011E000782C0120802C0120682C01208C2B0120E0
:1011F000882B0120702C0120742C012080B586B032
:1012000000AF2F4B1B68002B03D02E4B01221A601E
:1012100051E02C4B00221A602B4B1B681B6B7B612F
:101220004FF0A5333B617B691B683A699A4211D143
:101230007B6904331B683A699A420BD17B69083396
:101240001B683A699A4205D17B690C331B683A697D
:101250009A4208D01C4B1A681B4B1B683433194642
:10126000104625F0ABFA194B1B687B607B68B3FA1C
:1012700083F3FB70FB78C3F11F03FB60FA6813462E
:101280009B0013449B00124A1344BB60BB685B681D
:101290005A68BB685A60BB685A68BB6808339A4290
:1012A00004D1BB685B685A68BB685A60BB685B68FE
:1012B000DB68054A136000BF1837BD4680BD00BF1C
:1012C000882C0120742C0120882B0120682C0120FF
:1012D0008C2B012080B582B000AF78603960074B5D
:1012E0001B6818331946786819F0F9FE012138682F
:1012F00000F094FE00BF0837BD4680BD882B01205A
:1013000080B584B000AFF860B9607A600A4B1B68A2
:10131000BA6842F000429A61074B1B6818331946BD
:10132000F86819F0B8FE0121786800F077FE00BF78
:101330001037BD4680BD00BF882B012080B584B02A
:1013400000AFF860B9607A600A4B1B681833194621
:10135000F86819F0A0FE7B68002B02D04FF0FF3335
:10136000BB607968B86800F059FE00BF1037BD4611
:1013700080BD00BF882B012080B584B000AF7860AD
:101380007B68DB68DB68BB60BB681833184619F004
:10139000DFFE1E4B1B68002B1ED1BB6804331846B2
:1013A00019F0D6FEBB68DB6A01229A40184B1B6815
:1013B0001343174A1360BB68DA6A13469B00134451
:1013C0009B00144A1A44BB6804331946104619F0AE
:1013D00062FE00F0D1F905E0BB68183319460E48EB
:1013E00019F059FEBB68DA6A0C4B1B68DB6A9A423B
:1013F00005D90123FB600A4B01221A6001E000239A
:10140000FB60FB6818461037BD4680BD882C012064
:10141000682C01208C2B0120202C0120882B0120FE
:10142000742C012080B584B000AF786039603B68CF
:1014300043F000427B681A607B68DB68FB60786879
:1014400019F086FE00F098F9FB680433184619F08D
:101450007FFEFB68DB6A01229A40104B1B68134336
:101460000E4A1360FB68DA6A13469B0013449B0024
:101470000B4A1A44FB6804331946104619F00BFE58
:10148000FB68DA6A074B1B68DB6A9A4202D9064B93
:1014900001221A6000BF1037BD4680BD682C0120B4
:1014A0008C2B0120882B0120742C012080B582B068
:1014B00000AF78600EF0EBFC064B1A687B681A6090
:1014C000054B1A687B685A600EF0FAFC00BF0837BB
:1014D000BD4680BD782C0120642C012080B483B0EF
:1014E00000AF7860064B1A687B681A60054B1A6873
:1014F0007B685A6000BF0C37BD465DF8047B7047BF
:10150000782C0120642C012080B586B000AF786073
:1015100039600EF0BCFC244B1B683B617B685B6848
:101520003A69D31AFB60214B1B6893F85130002BAA
:1015300007D01E4B1B68002283F8512001237B61DA
:101540002BE03B681B68B3F1FF3F02D100237B61B6
:1015500023E07B681A68164B1B689A4207D07B68A9
:101560005B683A699A4202D301237B6115E03B68CC
:101570001B68FA689A420BD23B681A68FB68D21A59
:101580003B681A607868FFF7A9FF00237B6104E0DD
:101590003B6800221A6001237B610EF091FC7B699D
:1015A00018461837BD4680BD642C0120882B0120C9
:1015B000782C012080B400AF034B01221A6000BFD9
:1015C000BD465DF8047B7047742C012080B584B063
:1015D00000AF786000F094F8104B1B68012B07D91E
:1015E0000F4B4FF080521A60BFF34F8FBFF36F8FD6
:1015F00025F000F9FFF7C2FBF860FB68042BE9D97E
:10160000FFF7AEFBFFF7BAFBF860FB68042B02D9CB
:10161000F8680EF0C1FCFFF7EBFBDBE78C2B012039
:1016200004ED00E080B483B000AF01233B600123F0
:10163000FB710F4B1B68002B02D00023FB7110E0E5
:101640000C4B1B68002B02D00023FB7109E00A4BF6
:101650001A680A4B19683B68CB1A9A4201D10223D7
:10166000FB71FB7918460C37BD465DF8047B70476B
:10167000202C0120742C01204C2C0120602C0120F6
:1016800080B582B000AF00237B600CE07A6813461F
:101690009B0013449B00124A1344184619F0CEFCD9
:1016A0007B6801337B607B68042BEFD90D4819F010
:1016B000C5FC0D4819F0C2FC0C4819F0BFFC0C48E1
:1016C00019F0BCFC0B4819F0B9FC0B4B054A1A6029
:1016D0000A4B054A1A6000BF0837BD4680BD00BFEF
:1016E0008C2B0120F02B0120042C0120202C012028
:1016F000342C01204C2C0120182C01201C2C012002
:1017000080B582B000AF19E00EF0C1FB0F4BDB6873
:10171000DB687B607B680433184619F019FD0C4BBD
:101720001B68013B0A4A13600A4B1B68013B094ACC
:1017300013600EF0C5FB786800F00EF8054B1B68CF
:10174000002BE1D100BF0837BD4680BD342C0120FD
:10175000602C0120482C012080B582B000AF786059
:101760007B681B6B18460EF0B7FD78680EF0B4FD71
:1017700000BF0837BD4680BD80B483B000AF0C4BBE
:101780001B681B68002B04D10A4B4FF0FF321A6014
:1017900008E0074B1B68DB68DB687B607B685B6885
:1017A000044A136000BF0C37BD465DF8047B7047E8
:1017B000182C0120802C012080B483B000AF054B91
:1017C0001B687B607B6818460C37BD465DF8047B60
:1017D000704700BF882B012080B483B000AF0B4B53
:1017E0001B68002B02D101237B6008E0084B1B68BB
:1017F000002B02D102237B6001E000237B607B6829
:1018000018460C37BD465DF8047B70476C2C0120F0
:10181000882C012080B584B000AF78607B68BB6005
:101820000023FB607B68002B5ED0BB68DA6A314B1B
:101830001B68DB6A9A424ED2BB689B69002B06DBB1
:101840002C4B1B68DB6AC3F10502BB689A61BB685D
:101850005969BB68DA6A13469B0013449B00264A09
:10186000134499422FD1BB680433184619F070FC19
:101870000346002B0AD1BB68DB6A012202FA03F39C
:10188000DA431E4B1B6813401C4A1360194B1B683C
:10189000DA6ABB68DA62BB68DB6A01229A40174BDE
:1018A0001B681343154A1360BB68DA6A13469B0032
:1018B00013449B00104A1A44BB680433194610466F
:1018C00019F0E9FB04E00B4B1B68DA6ABB68DA62CB
:1018D0000123FB6008E0BB685A6C064B1B68DB6A9F
:1018E0009A4201D20123FB60FB6818461037BD46BF
:1018F00080BD00BF882B01208C2B0120682C01208B
:1019000080B584B000AF78607B68BB600023FB606B
:101910007B68002B4FD0BB689B6C5A1EBB689A64D7
:10192000BB68DA6ABB685B6C9A4244D0BB689B6C4C
:10193000002B40D1BB680433184619F009FC03465C
:10194000002B15D1BB68DA6A1D4913469B0013446E
:101950009B000B441B68002B0AD1BB68DB6A012289
:1019600002FA03F3DA43174B1B681340154A13605E
:10197000BB685A6CBB68DA62BB68DB6AC3F10502FC
:10198000BB689A61BB68DB6A01229A400D4B1B68F9
:1019900013430C4A1360BB68DA6A13469B00134476
:1019A0009B00074A1A44BB6804331946104619F0D5
:1019B00072FB0123FB60FB6818461037BD4680BDF3
:1019C0008C2B0120682C012080B586B000AF786098
:1019D00039607B683B610123FB607B68002B58D03A
:1019E0003B695B6C3A689A4202D93B687B6102E0D2
:1019F0003B695B6C7B613B69DB6A7A699A4248D0E0
:101A00003B699B6CFA689A4243D13B69DB6ABB60D5
:101A10003B697A69DA623B699B69002B04DB7B696D
:101A2000C3F105023B699A613B695969BA6813467B
:101A30009B0013449B00194A1344994229D13B69E6
:101A40000433184619F084FB0346002B0AD13B6986
:101A5000DB6A012202FA03F3DA43114B1B681340DD
:101A60000F4A13603B69DB6A01229A400C4B1B68EA
:101A700013430B4A13603B69DA6A13469B00134415
:101A80009B00064A1A443B6904331946104619F074
:101A900002FB00BF1837BD4680BD00BF8C2B012064
:101AA000682C012080B483B000AF094B1B689B6990
:101AB0007B60074B1B68DA6A054B1B68C2F10502A5
:101AC0009A617B6818460C37BD465DF8047B704709
:101AD000882B012080B400AF074B1B68002B04D07B
:101AE000054B1B689A6C01329A64034B1B681846BD
:101AF000BD465DF8047B7047882B012080B584B01B
:101B000000AF786039600EF0C2F91E4B1B68DB6CC9
:101B1000002B13D11B4B1B68012283F850203B681C
:101B2000002B0BD00121386800F078FA164B4FF0EB
:101B300080521A60BFF34F8FBFF36F8F0EF0C0F962
:101B40000EF0A5F90F4B1B68DB6CFB60FB68002BEC
:101B50000CD07B68002B04D00A4B1B680022DA648F
:101B600004E0084B1B68FA68013ADA64054B1B680D
:101B7000002283F850200EF0A3F9FB6818461037B6
:101B8000BD4680BD882B012004ED00E080B586B005
:101B900000AFF860B9607A603B600EF078F9264BD0
:101BA0001B6893F85030DBB2022B1AD0224B1B6813
:101BB000D96CFA68D2430A40DA641F4B1B680122D1
:101BC00083F850203B68002B0BD00121386800F0CF
:101BD00025FA1A4B4FF080521A60BFF34F8FBFF3B4
:101BE0006F8F0EF06DF90EF052F97B68002B04D068
:101BF000114B1B68DA6C7B681A600F4B1B6893F8FB
:101C00005030DBB2022B02D000237B6108E00A4B8C
:101C10001B68D96CBA68D2430A40DA6401237B613D
:101C2000054B1B68002283F850200EF049F97B69B0
:101C300018461837BD4680BD882B012004ED00E012
:101C400080B588B000AFF860B9603B601346FB71A7
:101C50000123FB61FB68BB610EF019F93B68002BA7
:101C600003D0BB69DA6C3B681A60BB6993F85030EB
:101C7000FB75BB69022283F85020FB79042B28D81E
:101C800001A252F823F000BFD31C00019D1C0001EB
:101C9000AB1C0001B71C0001BF1C0001BB69DA6C62
:101CA000BB681A43BB69DA6414E0BB69DB6C5A1C7D
:101CB000BB69DA640EE0BB69BA68DA640AE0FB7DEE
:101CC000022B03D0BB69BA68DA6403E00023FB612E
:101CD00000E000BFFB7D012B2CD1BB69043318460B
:101CE00019F036FABB69DB6A01229A40154B1B6872
:101CF0001343144A1360BB69DA6A13469B0013440A
:101D00009B00114A1A44BB6904331946104619F066
:101D1000C2F9FFF731FDBB69DA6A0C4B1B68DB6A5D
:101D20009A4207D90A4B4FF080521A60BFF34F8F87
:101D3000BFF36F8F0EF0C4F8FB6918462037BD461D
:101D400080BD00BF682C01208C2B0120882B012036
:101D500004ED00E080B58CB000AFF860B9603B6086
:101D60001346FB710123FB62FB68BB62EFF3118238
:101D70004FF0200383F31188BFF36F8FBFF34F8FB2
:101D8000FA61BB61FB697B623B68002B03D0BB6AD5
:101D9000DA6C3B681A60BB6A93F8503087F82330DE
:101DA000BB6A022283F85020FB79042B28D801A2B9
:101DB00052F823F0011E0001C91D0001D71D0001CA
:101DC000E31D0001EB1D0001BB6ADA6CBB681A431E
:101DD000BB6ADA6415E0BB6ADB6C5A1CBB6ADA6466
:101DE0000FE0BB6ABA68DA640BE097F82330022B85
:101DF00003D0BB6ABA68DA6403E00023FB6200E048
:101E000000BF97F82330012B36D1204B1B68002BE5
:101E10001CD1BB6A0433184619F09AF9BB6ADB6A15
:101E200001229A401A4B1B681343194A1360BB6A7C
:101E3000DA6A13469B0013449B00164A1A44BB6A95
:101E400004331946104619F026F905E0BB6A183329
:101E50001946114819F01FF9BB6ADA6A0F4B1B6863
:101E6000DB6A9A4208D9BB6B002B02D0BB6B012204
:101E70001A600B4B01221A607B6A7B617B6983F3DA
:101E80001188FB6A18463037BD4680BD882C01207A
:101E9000682C01208C2B0120202C0120882B012074
:101EA000742C012080B588B000AF786039607B6801
:101EB000FB61EFF311824FF0200383F31188BFF32E
:101EC0006F8FBFF34F8F3A61FB603B69BB61FB696A
:101ED00093F85030FB75FB69022283F85020FB69B0
:101EE000DB6C5A1CFB69DA64FB7D012B36D1204B7D
:101EF0001B68002B1CD1FB690433184619F028F924
:101F0000FB69DB6A01229A401A4B1B681343194A8A
:101F10001360FB69DA6A13469B0013449B00164A60
:101F20001A44FB6904331946104619F0B4F805E069
:101F3000FB6918331946114819F0ADF8FB69DA6AE4
:101F40000F4B1B68DB6A9A4208D93B68002B02D012
:101F50003B6801221A600B4B01221A60BB69BB600F
:101F6000BB6883F3118800BF2037BD4680BD00BF2A
:101F7000882C0120682C01208C2B0120202C012092
:101F8000882B0120742C012080B584B000AF7860CC
:101F90007B68002B02D10E4B1B6800E07B68BB60A6
:101FA0000DF075FFBB6893F85030DBB2022B06D101
:101FB000BB68002283F850200123FB6001E000236E
:101FC000FB600DF07DFFFB6818461037BD4680BDF5
:101FD000882B012080B584B000AF786039607B68C1
:101FE000002B02D10C4B1B6800E07B68FB600DF0FE
:101FF0004EFF094B1B68DB6CBB60FB68DA6C3B680F
:10200000DB431A40FB68DA640DF05AFFBB681846E0
:102010001037BD4680BD00BF882B012080B584B03D
:1020200000AF786039602B4B1B68FB602A4B1B6844
:10203000002283F85120284B1B680433184619F0FE
:1020400087F80346002B0BD1234B1B68DB6A012268
:1020500002FA03F3DA43214B1B6813401F4A136053
:102060007B68B3F1FF3F0AD13B68002B07D01A4BC6
:102070001B68043319461A4819F00DF826E0FA686F
:102080007B681344BB60144B1B68BA685A60BA681B
:10209000FB689A4209D2134B1A680F4B1B68043332
:1020A0001946104619F01BF810E00F4B1A680A4B3E
:1020B0001B6804331946104619F011F80B4B1B68C6
:1020C000BA689A4202D2094ABB68136000BF10374F
:1020D000BD4680BD642C0120882B0120682C012086
:1020E0004C2C01201C2C0120182C0120802C0120BC
:1020F00080B483B000AF0023FB800D23FB80FB88FE
:102100000533FB80FB8818460C37BD465DF8047B21
:10211000704780B485B000AF0346FB800023FB739B
:102120000FE0FB7B0C4A1B0113441B88FA889A4280
:1021300004D1FB7B1B01084A134406E0FB7B0133FF
:10214000FB73FB7B052BECD9002318461437BD46E7
:102150005DF8047B704700BFBC2D012080B400AF48
:10216000094B1B78012B05D9074B1B78072B01D88E
:10217000012300E0002303F00103DBB21846BD4653
:102180005DF8047B704700BF6C2D012080B483B0E4
:1021900000AF0346FB80FB88052B17D801A252F83D
:1021A00023F000BFBD210001C1210001C1210001B8
:1021B000C5210001CD210001C9210001002306E055
:1021C000032304E0042302E0012300E00323184674
:1021D0000C37BD465DF8047B704780B500AF134BEC
:1021E0001B68002B07D0114B1B68184611F02FFC01
:1021F0000E4B00221A600E4B1B68002B07D00C4BB5
:102200001B68184611F023FC094B00221A60094B89
:102210001B68002B07D0074B1B68184611F017FCF2
:10222000044B00221A6000BF80BD00BF702D01204A
:10223000942D0120B42D012080B400AF074B002263
:102240001A70074B00221A70064B4FF6FF721A8065
:1022500000BFBD465DF8047B704700BF6C2D0120B8
:10226000982D0120B02D012080B582B000AF78609C
:102270007B685B68002B07D07B685B68184611F0B1
:10228000E6FB7B6800225A607B689B68002B07D0C6
:102290007B689B68184611F0DAFB7B6800229A6025
:1022A0007B6800221A7300BF0837BD4680BD80B529
:1022B0008AB000AF03463960FB711346BB710C4B0B
:1022C0001B68002B0FD0FB793B73BA7907F10C0325
:1022D0000433396818462EF0F7FF054B1B6807F1E9
:1022E0000C021046984700BF2837BD4680BD00BF8E
:1022F000682D012080B584B000AF78600B46FB707C
:102300001346BB700223FB81FA2011F094FB0246B6
:102310007B685A607B685B68002B32D07B685B68A7
:102320004FF482721A807B685B6803225A807B6854
:102330005B6801221A717B685B68FA785A717B6866
:102340005B68BA789A717B685B681B2283F8F82017
:10235000BB78002B01D0FFF740FF7B681A887B68B1
:102360005B68194610462AF08FFF0346FB81FB8904
:10237000002B03D17868FFF777FF02E07B68042227
:102380001A73FB8918461037BD4680BD80B584B0EE
:1023900000AF78600B46FB700223FB81FA2011F03E
:1023A0004AFB02467B685A607B685B68002B2AD038
:1023B0007B685B6840F207121A807B685B680122C9
:1023C0005A807B685B68FA781A717B685B681B22AD
:1023D00083F8F820FB78002B01D0FFF7FEFE0C4BB2
:1023E0001A887B685B68194610462AF04DFF034641
:1023F000FB81FB89002B03D17868FFF735FF02E0F2
:102400007B6804221A73FB8918461037BD4680BDCD
:10241000B02D012080B586B000AFF8600B467A6021
:10242000FB720223FB82FA2011F005FB0246FB68D7
:102430005A60FB685B68002B6CD0FB685B684FF4EC
:1024400082721A80FB685B680D225A80FB685B68A9
:1024500001221A71FB685B6802225A71FB685B6893
:10246000FA7A9A71FB7A002B33D1FB685B68002201
:10247000DA71FB685B680733013304221A70FB686A
:102480005B6809330422002118462FF0EFF87B68BF
:102490001A68FB685B68D2B25A737B681B681A0AB9
:1024A000FB685B680D330133D2B21A707B681B681E
:1024B0001A0CFB685B680D330233D2B21A707B686A
:1024C0001B681A0EFB685B680D330333D2B21A70B7
:1024D00007E0FB685B6807330A22002118462FF0EB
:1024E000C5F8FB685B681B2283F8F820FB681A8834
:1024F000FB685B68194610462AF0C6FE0346FB825D
:10250000FB8A002B03D1F868FFF7AEFE02E0FB6800
:1025100004221A73FB8A18461837BD4680BD90B551
:1025200087B000AF0346FB802E4B1B78022B01D1F6
:10253000002353E00023FB820023BB8247E0FA889C
:10254000BB8AD31AB3F5007FA8BF4FF400737B8218
:10255000254B1B78002B0AD1244B1868244B1A6892
:10256000BB8A13447A8A19462EF0AEFE0DE0214B49
:1025700018681E4B1C681E4B1A68BB8A1344798A64
:10258000224616F0E6F90346FB82FB8A002B0ED1A9
:10259000164B1B68FB60184B1B78012B09D17B8AFB
:1025A000F96818460AF0F8FD0346FB8202E000BF16
:1025B00000E000BFFB8A002B0ED1BA8A7B8A13444D
:1025C000BB827A8A0D4B1B6813440C4A1360BA8A8B
:1025D000FB889A42B3D300E000BFFB8A18461C3741
:1025E000BD4690BDB92D0120B82D0120942D0120AC
:1025F000702D0120B42D0120992D01209C2D01204A
:1026000090B58DB000AF78603960FFF7A7FD034645
:10261000002B05D0002201217868FFF7FBFEF0E0D7
:102620003B689B895C1EFFF763FD03469C4203D118
:10263000012387F82F300DE03B689B890E2B03D1D7
:10264000002387F82F3005E0002202217868FFF789
:10265000E1FED6E03B680E330133BB62BB6A1B78F8
:102660001A46BB6A01331B781B021A44BB6A023349
:102670001B781B041A44BB6A03331B781B061344E4
:102680003B62BB6A0433BB62BB6A1B781A46BB6AF7
:1026900001331B781B021A44BB6A02331B781B04EC
:1026A0001A44BB6A03331B781B0613443B61BB6AA5
:1026B0000433BB62BB6A1B781A46BB6A01331B78C2
:1026C0001B021A44BB6A02331B781B041A44BB6A00
:1026D00003331B781B0613447B61BB6A0433BB6264
:1026E000BB6A1A78484B1A70BB6A0133BB6297F811
:1026F0002F30002B25D0BB6A1B789AB2BB6A0133FE
:102700001B789BB21B029BB213449BB23B83BB6AF8
:102710000233BB62BB6A1A783C4B1A70BB6A013346
:10272000BB62BB6A1B789AB2BB6A01331B789BB24F
:102730001B029BB213449BB27B83BB6A0233BB6216
:1027400006E000233B83314B01221A7000237B8378
:102750002D4B1B78012B03D82C4B1B78032B05D951
:10276000002202217868FFF755FE4AE0274B1B78CC
:10277000022B12D0254B1B7887F8243007F1200359
:1027800018460AF0BFFC0346BB85BB8D1846FFF711
:10279000FDFC034687F82E3002E0002387F82E3038
:1027A00097F82E30002B23D13B689B883B813B6AF6
:1027B000FB6097F82F30002B03D0144B1B783B772E
:1027C00001E0FF233B773B6A114A13600F4B1B78F4
:1027D000022B02D10C4B00221A700E4B02221A70EF
:1027E00007F10803182219460020FFF760FD08E0F2
:1027F00097F82E30002219467868FFF70BFE034643
:10280000BB853437BD4690BDB82D0120B92D0120C0
:10281000AC2D01206C2D012080B584B000AF786014
:1028200039600223FB73504B1B78032B05D0012228
:1028300003217868FFF75EFD92E03B689B89022BDD
:1028400005D0022203217868FFF754FD88E03B6839
:10285000DA7B464B1A70454B1B78012B15D1444B44
:102860001B78022B02D10023FB7309E00AF080FCE5
:102870000346BB81BB891846FFF788FC0346FB7300
:102880003C4B1B683C4A136000E000BFFB7B002B05
:102890005ED14FF4806011F0CEF80246374B1A60DB
:1028A000334B1B78022B06D04FF4007011F0C3F8A5
:1028B0000246334B1A60334B1B78012B05D1E820BD
:1028C00011F0B9F80246304B1A602C4B1B68002BF4
:1028D0000FD0274B1B78022B03D0294B1B68002BF2
:1028E00007D0284B1B78012B06D1274B1B68002BE8
:1028F00002D10323FB732BE01C4B1B783B721A4B5A
:1029000004221A70214B00221A60214B00221A80E7
:10291000204B00221A601B4B1B78012B0ED11A4B47
:102920001B681D4A1D49184615F0E0FF0346BB8190
:10293000BB891846FFF72AFC0346FB73FB7B002B81
:1029400006D107F10803012219460120FFF7AFFC69
:10295000FB7B1A4603217868FFF7CCFC0346BB815A
:102960001037BD4680BD00BF6C2D0120992D012080
:10297000B92D0120AC2D0120A82D0120702D0120A2
:10298000942D0120B82D0120B42D01209C2D012073
:10299000A02D0120A42D0120742D0120842D0120C3
:1029A00080B584B000AF786039603B689B7B023BA8
:1029B000032B49D801A252F823F000BFCD29000112
:1029C000D7290001E12900013D2A00013968786812
:1029D000FFF716FE39E039687868FFF71DFF34E02D
:1029E0001B4B1B78082B05D1012204217868FFF7C7
:1029F00081FC2AE0164B1B78032B0BD9154B1A6868
:102A0000154B1B689A4205D300233B73104B0722DA
:102A10001A700BE0FFF7E1FB01233B730022042156
:102A20007868FFF767FC0A4B08221A7007F10C035D
:102A3000012219460420FFF73AFC06E0002200219B
:102A40000520FFF734FC00E000BF1037BD4680BD15
:102A50006C2D0120A42D0120A82D012080B588B067
:102A600000AF78603960624B1B78042B04D00121E1
:102A70007868FFF78BFCB8E03B680E33BB613B68BE
:102A80009B89BB830023BB8138E05A4B1B88C3F56D
:102A90008063FB82584B1B68564A12881344FA8A9B
:102AA000B96918462EF010FC524B00221A80FB8A9E
:102AB000BA691344BB614FF48060FFF730FD0346F1
:102AC000BB82BB8A1846FFF761FB0346FB77FB7F9F
:102AD000002B0AD0464B05221A70FB7F19467868F6
:102AE000FFF754FC0346BB827FE0BB8903F580639C
:102AF0009BB2BB81BA8BFB8AD31ABB83BB8B3D4A8B
:102B000012881344B3F5806FBFDABB8B002B10D053
:102B1000394B1B68374A12881344BA8BB969184677
:102B20002EF0D2FB334B1A88BB8B13449AB2314B35
:102B30001A803B689B891A46304B1B681A44304BFD
:102B40001B689A4224D32B4B1B88002B20D0294B87
:102B50001B881846FFF7E3FC0346BB82BB8A184676
:102B6000FFF714FB0346FB77FB7F002B0AD0204BBB
:102B700005221A70FB7F19467868FFF707FC0346A9
:102B8000BB8232E0BA891B4B1B8813449BB2BB81CA
:102B9000BB89002B21D01B4B1B78022B0DD1164B70
:102BA0001B683B61124B06221A7007F10C030822C6
:102BB00019460320FFF77BFB0FE000233B6107F181
:102BC0000C03082219460220FFF771FBFB7F194610
:102BD0007868FFF7DBFB0346BB823B689B891A469C
:102BE000064B1B681344054A13602037BD4680BD61
:102BF0006C2D0120A02D0120702D0120A42D01207D
:102C0000A82D0120B92D012080B500AF044B1B7801
:102C1000002B03D0FFF710FBFFF7DFFA00BF80BDEA
:102C20006C2D012080B584B000AF78607B681B7884
:102C3000012B1BD0092B32D0002B40F0AF807B68DA
:102C40009B78002B40F0AC800020FFF762FAF86020
:102C5000FB68002B05D1002200210620FFF727FB8F
:102C6000A1E07B689A88FB681A8099E07B685A88A3
:102C70004E4B1B889A4201D1FFF7C6FF7B685B88E9
:102C80001846FFF746FAF860FB68002B00F08A80D0
:102C9000F868FFF7E9FAFB6800221A8082E07B6897
:102CA0005B881846FFF735FAF860FB68002B69D09F
:102CB000FB685B68002B65D0FB681B7B013B032B2B
:102CC00062D801A252F823F0D92C0001F72C0001A0
:102CD000152D0001672D0001FB681A88FB685B68F1
:102CE000194610462AF008FB0346002B4ED1F8681F
:102CF000FFF7BAFA4AE0FB681A88FB685B68194676
:102D000010462AF015FB0346002B41D1F868FFF767
:102D1000ABFA3DE0FB681A88FB685B681946104611
:102D20002AF022FB0346002B34D1FB685B6818466F
:102D300010F08DFEFB6800225A60FB6800221A73B7
:102D4000FB689B68002B25D0FB689B681946F868D8
:102D5000FFF726FEFB689B68184610F078FEFB68BC
:102D600000229A6016E0FB681A88FB685B681946C7
:102D700010462AF089FA0346002B0DD1F868FFF7B8
:102D800073FA09E000BF0EE000BF0CE000BF0AE0EC
:102D900000BF08E000BF06E000BF04E000BF02E0A3
:102DA00000BF00E000BF1037BD4680BDB02D012040
:102DB00080B586B000AF78607B681B780A2B00F086
:102DC0004A810B2B40F0D4810023FB757B689B88E4
:102DD0001846FFF79EF938613B69002B00F0D1815E
:102DE0003B695B68002B40F0CC817B68DB8840F25C
:102DF000071293420BD17B689A88A54B1B889A4295
:102E000040F0B88179683869FFF728FEB2E17B6845
:102E1000DB8840F2051293420AD07B68DB88B3F569
:102E2000827F05D07B68DB88B3F5847F40F0A48186
:102E3000984B1B68002B02D18023FB7505E07B6853
:102E40001B7A122B01D00623FB75FB7D002B40F073
:102E50008B807B68DB8840F20512934204D07B684C
:102E6000DB88B3F5847F5ED17B689B7B9AB27B68FD
:102E7000DB7B9BB21B029BB213449BB2BB81BB8921
:102E8000012B20D17B68DB8840F20512934207D1E9
:102E9000814B1B7843F00103DAB27F4B1A7006E0D6
:102EA0007D4B1B7843F00203DAB27B4B1A707A4BEE
:102EB0001B7803F00103002B02D0784B01221A701B
:102EC0000023FB7550E0BB89002B29D1704B1B8878
:102ED0004FF6FF72934205D07B689A886C4B1B8833
:102EE0009A421AD17B68DB8840F20512934207D1DF
:102EF000694B1B7823F00103DAB2674B1A7006E0C6
:102F0000654B1B7823F00203DAB2634B1A70634BF4
:102F100000221A700023FB7526E00323FB7523E0D3
:102F20008023FB7520E07B68DB88B3F5827F1BD1B3
:102F30005A4B1B78002B15D0554B1B884FF6FF7250
:102F4000934205D07B689A88514B1B889A4209D1DD
:102F50004F4B1B884FF6FF72934205D17B689B7BDA
:102F6000022B01D00323FB75FB7D002B47D1FA20F8
:102F700010F061FD02463B695A603B695B68002BBB
:102F800000F0FC803B695B6813221A707B689A88AA
:102F90003B695B68194610462AF0E6F90346002BA8
:102FA0000DD13869FFF760F97B68DB88B3F5827F64
:102FB00040F0E48079683869FFF7F2FCDEE07B6876
:102FC000DB88B3F5827F40F0D9807B689B890E3324
:102FD000FB81FB89184610F02EFD02463B699A6082
:102FE0003B699B68002B06D03B699B68FA8979682E
:102FF00018462EF069F93B6903221A73BEE00420DB
:1030000010F019FD02463B695A603B695B68002B72
:1030100000F0B4803B695B687A68127A1A703B6989
:103020005B687A68D2885A803B695B68FA7D5A701F
:103030007B689A883B695B68194610462AF05CF900
:103040000346002B03D13869FFF70EF996E03B6980
:1030500001221A7392E07B68DB88B3F5817F40F030
:103060008F800023BB757B689B881846FFF751F85B
:1030700038613B69002B00F084803B695B68002B62
:103080007FD1044B1B68002B0AD18023BB7514E051
:10309000B02D0120682D0120982D01206C2D0120DC
:1030A000394B1B78002B02D10223BB7505E07B68EE
:1030B0001B7A0A2B01D00623BB75BB7D002B2CD1BC
:1030C000FA2010F0B8FC02463B695A603B695B6825
:1030D000002B55D03B695B6802221A803B695B6814
:1030E0000B229A703B695B680122DA703B695B686E
:1030F00001221A717B689A883B695B681946104601
:103100002AF016F90346002B03D13869FFF7ACF813
:1031100036E03B6902221A7332E0042010F08BFC87
:1031200002463B695A603B695B68002B28D03B69CB
:103130005B687A68127A1A703B695B687A68D28831
:103140005A803B695B68BA7D5A707B689A883B6994
:103150005B68194610462AF0CFF80346002B03D1CE
:103160003869FFF781F80BE03B6901221A7307E029
:1031700000BF06E000BF04E000BF02E000BF00E0C7
:1031800000BF1837BD4680BD6C2D012080B500AF53
:103190000F4B00221A600F4B00221A600E4B0022C8
:1031A0001A600E4B00221A600D4B00221A700D4B54
:1031B0004FF6FF721A800C4B00221A706022002119
:1031C0000A482EF053FA2DF061FC0346184680BDE4
:1031D000682D0120702D0120942D0120B42D012097
:1031E0006C2D0120B02D0120982D0120BC2D012037
:1031F00080B483B000AF7860044A7B68136000BF7E
:103200000C37BD465DF8047B704700BF682D012078
:1032100080B500AFFEF7A2FF0346002B04D0044B9D
:1032200001221A70FEF7D9FF0023184680BD00BFA7
:103230006C2D012090B583B000AF78603960FEF747
:103240008DFF0346002B01D0052310E00A4A7B685E
:103250001446186859689A68DB680FC4074A3B68C7
:103260001446186859689A68DB680FC4002318462A
:103270000C37BD4690BD00BF742D0120842D012068
:1032800080B584B000AF03463A60FB800B467B718B
:10329000FB881846FEF73DFFF860FB68002B01D164
:1032A000032323E0134B1B78022B03D1FB685B68DD
:1032B000002B01D0052319E07B79002B05D00D4BA5
:1032C00003221A700C4AFB8813807B79002B01D0F3
:1032D000002300E002233A681946F868FFF79AF8DD
:1032E00003467B81F868FEF7BFFF7B8918461037DD
:1032F000BD4680BD6C2D0120B02D012080B584B06D
:1033000000AF0346FB71154B1B881846FEF701FF03
:10331000F860134B1B78062B06D1FB68002B03D0FB
:10332000FB685B68002B01D0052312E00C4B0422E4
:103330001A70FB79002B01D0002300E0032319460B
:10334000F868FFF723F803467B81F868FEF78CFFE7
:103350007B8918461037BD4680BD00BFB02D0120C7
:103360006C2D012080B584B000AF0346FB71154B76
:103370001B881846FEF7CDFEF860134B1B78072B11
:1033800006D1FB68002B03D0FB685B68002B01D0E3
:10339000052313E00C4B08221A70FB79002B01D097
:1033A000002300E003231A460421F868FEF7A2FF79
:1033B00003467B81F868FEF757FF7B891846103774
:1033C000BD4680BDB02D01206C2D012080B582B09E
:1033D00000AF78607B681B78012B02D0042B06D0ED
:1033E0000BE07B685B681846FFF71CFC05E07B6818
:1033F0005B681846FFF7DCFC00BF00BF0837BD461E
:1034000080BD00BF80B483B000AF0346FB7197F965
:103410000730002B0BDBFB7903F01F02074997F9FC
:1034200007305B09012000FA02F241F8232000BFB7
:103430000C37BD465DF8047B704700BF00E100E03B
:1034400080B483B000AF0346FB7197F90730002BBF
:103450000CDBFB7903F01F02074997F907305B0982
:10346000012000FA02F2603341F8232000BF0C373C
:10347000BD465DF8047B704700E100E080B483B096
:1034800000AF03463960FB7197F90730002B0ADB68
:103490003B68DAB20C4997F907305201D2B20B44BB
:1034A00083F800230AE03B68DAB20849FB7903F0AD
:1034B0000F03043B5201D2B20B441A7600BF0C3703
:1034C000BD465DF8047B704700E100E000ED00E0E0
:1034D00080B582B000AF78607B681B0903F5880374
:1034E0002A3318027B6803F00F03012202FA03F368
:1034F000194618F081FB00BF0837BD4680BD80B576
:1035000082B000AF78607B681B0903F588032A331B
:1035100018027B6803F00F03012202FA03F3194635
:1035200018F086FB00BF0837BD4680BD80B582B06D
:1035300000AF78607B681B0903F588032A33180203
:103540007B6803F00F03012202FA03F3194618F017
:103550007DFB00BF0837BD4680BD80B483B000AF9F
:103560000023FB71074BD3F8083103F04043002BD5
:1035700001D00123FB71FB7918460C37BD465DF87D
:10358000047B70470024004480B485B000AF03463C
:103590000A46FB801346BB80314B1B689968FA884A
:1035A00013465B0013445B000B445B88BA889A4265
:1035B00002D100237B734CE0294B1B689968FA8881
:1035C00013465B0013445B000B445B88BA889A4245
:1035D0000DD9234B1B689968FA8813465B00134486
:1035E0005B000B445B88BA88D31AFB810CE01C4B50
:1035F0001B689968FA8813465B0013445B000B4410
:103600005A88BB88D31AFB81FB895B08FB81FB8945
:10361000B3F58A7F02D301237B731AE0FB890A2B5F
:1036200002D800237B7314E00D4B1B681B68DB780A
:103630001B09DBB203F003033B733B7B094A32F8FF
:103640001330FA899A4202D800237B7301E00123E8
:103650007B737B7B18461437BD465DF8047B70474F
:10366000940000204C01030180B485B000AF786065
:103670000B467B800023BB730023FB737B68002B0E
:1036800002D10B23FB7342E07B681B681B887A889E
:103690009A4202D30223FB7339E07B681B689B7854
:1036A000BB73BB7B402B0AD17B6899687A88134631
:1036B0005B0013445B000B4400229A8012E0BB7B4A
:1036C000802B02D0BB7B812B0AD17B6899687A88DA
:1036D00013465B0013445B000B4400229A8001E018
:1036E0000223FB737B6899687A8813465B00134456
:1036F0005B000B4419787B6898687A8813465B00F6
:1037000013445B00034441F00202D2B21A70FB7B07
:1037100018461437BD465DF8047B704780B586B007
:1037200000AF78600023FB7500233B610023FB6042
:1037300000237B817B68002B02D10B23FB753AE0D1
:1037400000237B811AE07B6859687A8913465B0005
:1037500013449B000B441B683A6913433B617B682D
:1037600059687A8913465B0013449B000B445B68DD
:10377000FA681343FB607B8901337B817B681B689C
:103780001B887A899A42DED3FB68002B02D1022380
:10379000FB7510E00A4B1B78002B02D1084B01226D
:1037A0001A70084A0021F86800F060FA064A002101
:1037B000386900F05BFAFB7D18461837BD4680BDBE
:1037C0003F3401203C0103013401030190B589B06D
:1037D00000AF0346FB710023FB7600237B770023B9
:1037E000BB7600237B760023FB82AB4B1A68FB7908
:1037F0009B0013441B683B61A84B1B689968FA79CE
:1038000013465B0013445B000B441B789B08DBB240
:1038100003F00703FB73A14B1B685968FA79134641
:103820005B0013449B000B44DB7ABB76FB7B042BD1
:1038300000F2E98101A252F823F000BF51380001E3
:10384000C3380001093C0001073C0001A13A000116
:10385000924B1B685968FA7913465B0013449B002E
:103860000B449B7A03F00F037B76BA7E7B7E9A42F1
:1038700004D9BA7E7B7ED31A3B7701E000233B77E5
:10388000864B1B685968FA7913465B0013449B000A
:103890000B449B7A1B09DBB23A7FD31ADBB20233AB
:1038A0003B773B7F3A6922FA03F07C4B1B689968AF
:1038B000FA7913465B0013445B000B4482B25A80D2
:1038C000A3E1BB7E3B773B7F3A6922FA03F39BB2CD
:1038D0003B61724B1B689968FA7913465B0013448D
:1038E0005B000B443A6992B25A806C4B1B68996832
:1038F000FA7913465B0013445B000B449B88FB8200
:103900003B69B3F5805F07D33B699BB2A3F6FF73B6
:10391000FB8301237B7707E03B699BB2C3F57F63A1
:103920000F33FB8300237B77FB8B5B08FB835B4BB5
:103930001B681B689B78402B07D17B7F002B02D133
:1039400001237B7701E000237B777B7F012B10D164
:10395000FB8A072B1AD10023FB83504B1B68996805
:10396000FA7913465B0013445B000B4401221A7082
:103970000CE00023FB83494B1B689968FA791346D6
:103980005B0013445B000B4401221A70FB8B4A2B33
:1039900070D8424B1B681B68DB7803F00303BB73D2
:1039A0003E4B1B689968FA7913465B0013445B0031
:1039B0000B441B7803F04003002B0BD0374B1B68E4
:1039C0009968FA7913465B0013445B000B440122AB
:1039D0001A7040E0314B1B689968FA7913465B0016
:1039E00013445B000B441B785BB2002B33DBBB7BC7
:1039F000032B16D1294B1B685968FA7913465B00D3
:103A000013449B000B447F221A72244B1B68996855
:103A1000FA7913465B0013445B000B4411221A70C1
:103A200019E0BB7B022B0BD11C4B1B689968FA7900
:103A300013465B0013445B000B4401221A700AE03A
:103A4000164B1B689968FA7913465B0013445B00B8
:103A50000B4401221A70114B1B689968FA791346BE
:103A60005B0013445B000B44FA8A02F0070292B237
:103A70009A80CAE0FB8A0133FB82084B1B68996875
:103A8000FA7913465B0013445B000B44FA8A02F098
:103A9000070292B29A80B8E09800002094000020BB
:103AA000BB7E3B773B7F3A6922FA03F33B61594B7C
:103AB0001B685968FA7913465B0013449B000B445A
:103AC0001B7A7F2B23D1534B1B689968FA791346D5
:103AD0005B0013445B000B443A6992B25A804D4B31
:103AE0001B685968FA7913465B0013449B000B442A
:103AF000197A484B1B685868FA7913465B001344DF
:103B00009B00034421F04002D2B21A727DE00023F0
:103B10003B771BE03F4B1B685968FA7913465B0003
:103B200013449B000B441B7A1A463B7F22FA03F393
:103B300003F00103002B04D13B7F7B7707233B7706
:103B400001E000237B773B7F01333B773B7F062BF4
:103B5000E0D9FB799BB23A6992B211461846FFF759
:103B600013FD03467B737B7B002B1BD0294B1B680B
:103B70005968FA7913465B0013449B000B44187A8A
:103B80007B7F012202FA03F3D9B2224B1B685C68E7
:103B9000FA7913465B0013449B00234440EA010278
:103BA000D2B21A727B7F002B21D07B7F013B7B77C7
:103BB000184B1B685968FA7913465B0013449B0045
:103BC0000B441A7A7B7F012101FA03F3DBB2DB435A
:103BD000DBB213403B770F4B1B685968FA791346E9
:103BE0005B0013449B000B443A7F1A720DE0094BB3
:103BF0001B689968FA7913465B0013445B000B4419
:103C000001221A7001E0FEE700BFFB7E1846243750
:103C1000BD4690BD9400002080B582B000AF002367
:103C2000FB71104B1B78002B02D10323FB7114E0B6
:103C30000023BB8007E0BB88DBB21846FFF7C6FD58
:103C4000BB880133BB80084B1B681B681B88BA8884
:103C50009A42F0D3034B02221A70FB7918460837B8
:103C6000BD4680BD3F3401209400002080B586B061
:103C700000AFF8600B467A60FB720023FB750023EF
:103C8000FB7523E0FB7DFA6822FA03F303F00103DE
:103C9000002B18D0FB7A002B07D0FB7D7A681344E9
:103CA0001B781846FFF72BFC0DE0FB7D7A68134468
:103CB0001B781846FFF73AFCFB7D7A6813441B78A3
:103CC0001846FFF705FCFB7D0133FB75FB7D1F2BC1
:103CD000D8D900BF1837BD4680BD80B483B000AFCF
:103CE0000223FB71184B1B88BB80184B1B681B6899
:103CF0001B88BA889A4217D2144B1B689968BA88F5
:103D000013465B0013445B000B441B7803F0010374
:103D1000002B03D1BB880133BB800AE00023FB7179
:103D2000094ABB88138004E00123FB71064B002283
:103D30001A80FB79022BD8D0FB7918460C37BD4688
:103D40005DF8047B704700BF3C34012094000020E4
:103D500080B485B000AF78600023FB737B68002BD4
:103D600002D10B23FB7302E0044A7B681360FB7BE8
:103D700018461437BD465DF8047B70479800002054
:103D800080B485B000AF114B1A69104B5B69D31A30
:103D9000FB600F4B1B685A680E4B1B8819460B467D
:103DA0005B000B449B001344DB7A1A4640F6FF731A
:103DB0009340BB60FB68BA6813447B607B6818461D
:103DC0001437BD465DF8047B704700BF00240044F3
:103DD000940000203C34012080B485B000AF7860AE
:103DE0000023FB732B4B4FF000621A60294B00221B
:103DF000C3F80821284B1B681B689B78402B05D112
:103E0000244B4FF08072C3F8082119E0224B1B6845
:103E10001B689B78802B05D11E4B4FF00072C3F8B6
:103E200008210DE01C4B1B681B689B78812B05D17A
:103E3000184B4FF04072C3F8082101E00223FB73D6
:103E4000FB7B002B1AD1134B0B225A60114BD3F87A
:103E50000831104A43F00063C2F808310E4B1B686A
:103E60001B681B790F2B06D80B4B1B681B681A7934
:103E70000A4B1A7002E0094B00221A70054B054AE2
:103E80001B681360FB7B18461437BD465DF8047B46
:103E9000704700BF00240044940000203E340120FD
:103EA00080B584B000AF0346FB800023FB73974BC3
:103EB000D3F80831BB60954B1B68944A43F000630C
:103EC000136000237B7300233B730023BB73904B71
:103ED0001B685968FA8813465B0013449B000B4427
:103EE0005B688C4A01211846FFF7C0FE0023FB7374
:103EF0001FE0874B1B685968FA8813465B00134420
:103F00009B000B445A68FB7B012101FA03F3134029
:103F1000002B0BD0BB7B5A1CBA731A467E4B53F84E
:103F20002230FA7B1A703B7B01333B73FB7B0133FE
:103F3000FB73FB7B072BDCD90023BB730023FB73D4
:103F40001FE0734B1B685968FA8813465B001344E3
:103F50009B000B441A68FB7B012101FA03F3134019
:103F6000002B0BD0BB7B5A1CBA731A466B4B53F811
:103F70002230FA7B1A707B7B01337B73FB7B01332E
:103F8000FB73FB7B072BDCD97B7B002B01D101234F
:103F90007B733B7B013B1B0203F47C527B7B013B2D
:103FA0001B0603F07C531A433B7B9B01DBB21A4395
:103FB0007B7B9B0503F4400354491343C1F8043150
:103FC000524B1B68514A43F400231360504B1B684B
:103FD0009968FA8813465B0013445B000B449B8886
:103FE0001B0403F4E022BB68134343F0006343F473
:103FF0000023BB60464B1B689968FA8813465B0038
:1040000013445B000B441B7803F00203002B0AD01F
:104010003F4B1B689968FA8813465B0013445B00AA
:104020000B4405221A703A4B1B685968FA881346EC
:104030005B0013449B000B441B7AFB73FB7B7E2BC2
:104040000BD8FB7B03F07F02FB7B1B0203F4FE43D8
:104050001343BA681343BB600CE0FB7B7F3303F070
:104060007F02FB7B7F331B0203F4FE431343BA68DA
:104070001343BB60264B1B685968FA8813465B00E4
:1040800013449B000B44DB7A1A46254B9B5C03F0E0
:104090007F031E4A43F07843C2F800311B4B214A8C
:1040A000C3F80C21194BD3F80C211F4B1B789B0034
:1040B000143303F07F0315491343C1F80C31BB6877
:1040C00043F08063BB60114ABB68C2F808310F4BF4
:1040D000D3F808310D4A43F08043C2F808310B4B46
:1040E0001B680A4A43F400231360084B1B68074A05
:1040F00043F000431360054B1B68044A43F0807390
:10410000136000BF1037BD4680BD00BF00240044CF
:10411000940000203C010301AC3B0120C83B01207E
:1041200044010301000101003E34012080B584B048
:1041300000AF786039600023FB730023BB733B68DA
:10414000002B02D10B23FB735CE07B68002B02D1B8
:104150000B23FB7356E02E4B1B78002B02D103235D
:10416000FB734FE02A4B1B78042B02D10123FB7316
:1041700048E0FFF7F2F90346002B02D00123FB735E
:1041800040E07B681B685B79002B02D10223FB7344
:1041900038E07B681B685B79072B02D90223FB732D
:1041A00030E02620FFF74CF91A4B1B681B685B793F
:1041B00019462620FFF762F92620FFF723F9154A52
:1041C0007B681360144A3B681360124B1B681846E7
:1041D000FFF702FE114B00221A80FFF77EFD034617
:1041E000BB73BB7B002B08D1094B04221A700B4B0D
:1041F0001B881846FFF754FE04E00223FB73044BB0
:1042000002221A70FB7B18461037BD4680BD00BFE6
:104210003F34012094000020403401203C34012030
:1042200090B583B000AF234B1A68234B1B889B00CB
:10423000D418FFF7A5FD03462360204B1B681F4AD7
:1042400023F0004313601E4B1B685A681A4B1B88EF
:1042500019460B465B000B449B0013445B68194AEC
:1042600000211846FFF702FD174B1B78012B02D0E7
:10427000022B1AD01AE0104B1B8801339AB20E4B56
:104280001A80FFF72AFD0346FB71FB79002B08D14A
:10429000094B1B881846FFF703FE0C4B04221A70CB
:1042A00004E00B4B1B68984700E000BF00BF0C37D1
:1042B000BD4690BD980000203C34012000240044FD
:1042C000940000203C010301E43B01203F34012025
:1042D0004034012080B485B000AF78600B467B800D
:1042E0000023FB737B68002B02D10B23FB7312E0CE
:1042F0007B681B681B887A889A4202D30223FB736F
:1043000009E07B6899687A8813465B0013445B0078
:104310000B4401221A70FB7B18461437BD465DF82A
:10432000047B704780B483B000AF0023FB71074B60
:104330009B6803F00203002B01D00123FB71FB7982
:1043400018460C37BD465DF8047B704700240044D6
:1043500080B500AF2620FFF773F800BF80BD80B4A2
:1043600000AF074B00221A70064B1B68054A23F06A
:104370000043136000BFBD465DF8047B704700BF7B
:104380003F3401200024004480B400AF3E2318468F
:10439000BD465DF8047B704780B400AF112318461A
:1043A000BD465DF8047B704780B584B000AF78608F
:1043B00039607B68FB600BF06AFDFB681A68FB687C
:1043C000DB6BF968096C01FB03F31A44FB689A6024
:1043D000FB6800229A63FB681A68FB685A60FB68F6
:1043E0001A68FB68DB6B013BF968096C01FB03F39E
:1043F0001A44FB68DA60FB68FF2283F84420FB68FC
:10440000FF2283F845203B68002B14D1FB681B6911
:10441000002B1AD0FB6810331846FCF7ADFF03469B
:10442000002B12D00C4B4FF080521A60BFF34F8F0D
:10443000BFF36F8F09E0FB681033184616F0FEFDDE
:10444000FB682433184616F0F9FD0BF039FD012303
:1044500018461037BD4680BD04ED00E080B58AB037
:1044600002AFF860B9601346FB71FB68BA6802FBE3
:1044700003F3FB61FB694C3318460BF08DFEB8610A
:10448000BB69002B0DD0BB697B617B694C337B61C1
:10449000FA79BB69009313467A69B968F86800F045
:1044A00005F8BB6918462037BD4680BD80B584B08D
:1044B00000AFF860B9607A60FB70BB68002B03D175
:1044C000BB69BA691A6002E0BB697A681A60BB69A5
:1044D000FA68DA63BB69BA681A640121B869FFF740
:1044E00063FFBB6900229A6400BF1037BD4680BDE0
:1044F00080B582B000AF78607B68002B0ED07B68FF
:1045000000229A607B6800221A607B680022DA60D1
:10451000002300220021786800F032F800BF08373D
:10452000BD4680BD80B586B000AF0346FB71012358
:104530007B6100233B61FB791A4639697869FFF793
:104540008DFFF860F868FFF7D3FFFB68184618374F
:10455000BD4680BD80B584B000AF7860396002226E
:1045600000217868FFF77AFFF860FB68002B02D023
:10457000FB683A689A63FB6818461037BD4680BDF1
:1045800080B58AB000AFF860B9607A603B60002304
:104590007B62FB683B620BF07AFC3B6A9A6B3B6A7E
:1045A000DB6B9A4202D33B68022B45D13B6A9B6B83
:1045B000FB613A68B968386A00F070FCB8613B6A20
:1045C0009B6C002B14D03B68022B02D1FB69002BA3
:1045D0002ED1386A00F05AFE0346002B28D04A4BF1
:1045E0004FF080521A60BFF34F8FBFF36F8F1FE001
:1045F0003B6A5B6A002B10D03B6A24331846FCF7F9
:10460000BBFE0346002B13D03F4B4FF080521A6085
:10461000BFF34F8FBFF36F8F0AE0BB69002B07D04A
:10462000394B4FF080521A60BFF34F8FBFF36F8F3B
:104630000BF046FC012363E07B68002B03D10BF0F9
:104640003FFC00235CE07B6A002B06D107F11003DE
:104650001846FCF743FF01237B620BF031FCFCF7AB
:104660007FFB0BF014FC3B6A93F844305BB2B3F170
:10467000FF3F03D13B6A002283F844203B6A93F852
:1046800045305BB2B3F1FF3F03D13B6A002283F8B0
:1046900045200BF015FC3A1D07F110031146184692
:1046A000FCF732FF0346002B24D1386A00F011FDDD
:1046B0000346002B18D03B6A10337A68114618461F
:1046C000FCF708FE386A00F079FCFCF791FB034622
:1046D000002B7FF460AF0C4B4FF080521A60BFF399
:1046E0004F8FBFF36F8F56E7386A00F067FCFCF717
:1046F0007FFB50E7386A00F061FCFCF779FB002390
:1047000018462837BD4680BD04ED00E080B58CB06A
:1047100000AFF860B9607A603B60FB68BB62EFF3A2
:1047200011824FF0200383F31188BFF36F8FBFF323
:104730004F8FBA617B61BB697B62BB6A9A6BBB6A54
:10474000DB6B9A4202D33B68022B46D1BB6A93F8DB
:10475000453087F82330BB6A9B6BFB613A68B968C8
:10476000B86A00F09BFB97F92330B3F1FF3F29D1E2
:10477000BB6A9B6C002B12D03B68022B02D1FB69F9
:10478000002B27D1B86A00F081FD0346002B21D011
:104790007B68002B1ED07B6801221A601AE0BB6A7E
:1047A0005B6A002B16D0BB6A24331846FCF7E4FD85
:1047B0000346002B0ED07B68002B0BD07B680122B8
:1047C0001A6007E097F823300133DBB25AB2BB6AB4
:1047D00083F845200123FB6201E00023FB627B6A32
:1047E0003B613B6983F31188FB6A18463037BD464D
:1047F00080BD80B58AB000AF786039607B683B626D
:10480000EFF311824FF0200383F31188BFF36F8F12
:10481000BFF34F8F3A61FB603B69FB613B6A9B6B67
:10482000BB613B6ADB6BBA699A423AD23B6A93F846
:104830004530FB75BB695A1C3B6A9A6397F9173080
:10484000B3F1FF3F23D13B6A9B6C002B0CD0386A3D
:1048500000F01CFD0346002B20D03B68002B1DD030
:104860003B6801221A6019E03B6A5B6A002B15D095
:104870003B6A24331846FCF77FFD0346002B0DD01E
:104880003B68002B0AD03B6801221A6006E0FB7DE2
:104890000133DBB25AB23B6A83F8452001237B62C5
:1048A00001E000237B62FB69BB60BB6883F3118876
:1048B0007B6A18462837BD4680BD80B58AB000AFF8
:1048C000F860B9607A6000237B62FB683B620BF0A2
:1048D000DEFA3B6A9B6BFB61FB69002B1FD0B9685A
:1048E000386A00F045FBFB695A1E3B6A9A633B6AD3
:1048F0001B69002B0FD03B6A10331846FCF73CFDB8
:104900000346002B07D03D4B4FF080521A60BFF397
:104910004F8FBFF36F8F0BF0D3FA012369E07B68F1
:10492000002B03D10BF0CCFA002362E07B6A002B52
:1049300006D107F114031846FCF7D0FD01237B6272
:104940000BF0BEFAFCF70CFA0BF0A1FA3B6A93F8F5
:1049500044305BB2B3F1FF3F03D13B6A002283F8DE
:1049600044203B6A93F845305BB2B3F1FF3F03D17B
:104970003B6A002283F845200BF0A2FA3A1D07F1AA
:10498000140311461846FCF7BFFD0346002B23D144
:10499000386A00F072FB0346002B17D03B6A2433C1
:1049A0007A6811461846FCF795FC386A00F006FB59
:1049B000FCF71EFA0346002B89D1104B4FF08052B2
:1049C0001A60BFF34F8FBFF36F8F80E7386A00F034
:1049D000F5FAFCF70DFA7AE7386A00F0EFFAFCF71F
:1049E00007FA386A00F049FB0346002B3FF46FAF2B
:1049F000002318462837BD4680BD00BF04ED00E007
:104A000080B58AB000AF7860396000237B627B6834
:104A1000FB6100233B620BF03AFAFB699B6BBB61C5
:104A2000BB69002B24D0BB695A1EFB699A63FB69E2
:104A30001B68002B04D1FDF74DF80246FB699A6014
:104A4000FB691B69002B0FD0FB6910331846FCF77C
:104A500093FC0346002B07D04C4B4FF080521A605A
:104A6000BFF34F8FBFF36F8F0BF02AFA012389E05A
:104A70003B68002B03D10BF023FA002382E07B6A12
:104A8000002B06D107F10C031846FCF727FD012384
:104A90007B620BF015FAFCF763F90BF0F8F9FB6990
:104AA00093F844305BB2B3F1FF3F03D1FB690022BE
:104AB00083F84420FB6993F845305BB2B3F1FF3FC4
:104AC00003D1FB69002283F845200BF0F9F93A463F
:104AD00007F10C0311461846FCF716FD0346002BA0
:104AE00032D1F86900F0C9FA0346002B26D0FB69E1
:104AF0001B68002B09D10BF0CAF9FB699B681846AB
:104B0000FCF788FE38620BF0DBF9FB6924333A6866
:104B100011461846FCF7DEFBF86900F04FFAFCF787
:104B200067F90346002B7FF476AF184B4FF08052A5
:104B30001A60BFF34F8FBFF36F8F6CE7F86900F017
:104B40003DFAFCF755F966E7F86900F037FAFCF72B
:104B50004FF9F86900F091FA0346002B3FF45BAF80
:104B60003B6A002B0DD00BF092F9F86900F07EF94A
:104B70007861FB699B6879691846FCF725FF0BF0A3
:104B80009FF9002318462837BD4680BD04ED00E09C
:104B900080B58AB000AFF860B9607A6000237B62AC
:104BA000FB683B620BF073F93B6A9B6BFB61FB6933
:104BB000002B21D03B6ADB68BB61B968386A00F022
:104BC000D7F93B6ABA69DA603B6A5B6A002B0FD09F
:104BD0003B6A24331846FCF7CFFB0346002B07D073
:104BE0003C4B4FF080521A60BFF34F8FBFF36F8F73
:104BF0000BF066F9012369E07B68002B03D10BF011
:104C00005FF9002362E07B6A002B06D107F11003F5
:104C10001846FCF763FC01237B620BF051F9FCF7AB
:104C20009FF80BF034F93B6A93F844305BB2B3F170
:104C3000FF3F03D13B6A002283F844203B6A93F88C
:104C400045305BB2B3F1FF3F03D13B6A002283F8EA
:104C500045200BF035F93A1D07F1100311461846AF
:104C6000FCF752FC0346002B23D1386A00F005FA0A
:104C70000346002B17D03B6A24337A681146184646
:104C8000FCF728FB386A00F099F9FCF7B1F8034605
:104C9000002B87D10F4B4FF080521A60BFF34F8F1C
:104CA000BFF36F8F7EE7386A00F088F9FCF7A0F851
:104CB00078E7386A00F082F9FCF79AF8386A00F071
:104CC000DCF90346002B3FF46DAF0023184628376C
:104CD000BD4680BD04ED00E080B58CB000AFF8604B
:104CE000B9607A60FB68BB62EFF311824FF020037A
:104CF00083F31188BFF36F8FBFF34F8FBA617B616E
:104D0000BB697B62BB6A9B6B3B623B6A002B2DD00D
:104D1000BB6A93F84430FB77B968B86A00F028F9A9
:104D20003B6A5A1EBB6A9A6397F91F30B3F1FF3F83
:104D300012D1BB6A1B69002B15D0BB6A1033184611
:104D4000FCF71AFB0346002B0DD07B68002B0AD022
:104D50007B6801221A6006E0FB7F0133DBB25AB2A6
:104D6000BB6A83F844200123FB6201E00023FB625D
:104D70007B6A3B613B6983F31188FB6A18463037D5
:104D8000BD4680BD80B58AB000AF786039607B6871
:104D90003B62EFF311824FF0200383F31188BFF3DE
:104DA0006F8FBFF34F8F7A613B617B69FB613B6A19
:104DB0009B6B002B0CD03B6ADB68BB613968386A9F
:104DC00000F0D6F83B6ABA69DA6001237B6201E041
:104DD00000237B62FB69FB60FB6883F311887B6ABD
:104DE00018462837BD4680BD80B584B000AF7860D6
:104DF0000BF04DF87B689B6BFB600BF061F8FB6878
:104E000018461037BD4680BD80B584B000AF7860CD
:104E10007B68FB600BF03BF8FB68DA6BFB689B6B15
:104E2000D31ABB600BF04CF8BB6818461037BD4670
:104E300080BD80B485B000AF78607B68FB60FB68A4
:104E40009B6BBB60BB6818461437BD465DF8047B9E
:104E5000704780B584B000AF78607B68FB60F8680D
:104E60000BF03AFA00BF1037BD4680BD80B485B064
:104E700000AF78607B685B6A002B06D07B681B6B99
:104E80001B68C3F10503FB6001E00023FB60FB68C6
:104E900018461437BD465DF8047B704780B586B070
:104EA00000AFF860B9607A6000237B61FB689B6BA0
:104EB0003B61FB681B6C002B0DD1FB681B68002B52
:104EC0004DD1FB689B681846FCF71AFD7861FB68BA
:104ED00000229A6043E07B68002B19D1FB68586878
:104EE000FB681B6C1A46B9682CF0EEF9FB685A682F
:104EF000FB681B6C1A44FB685A60FB685A68FB68C5
:104F00009B689A422BD3FB681A68FB685A6026E0BC
:104F1000FB68D868FB681B6C1A46B9682CF0D4F99A
:104F2000FB68DA68FB681B6C5B421A44FB68DA605A
:104F3000FB68DA68FB681B689A4207D2FB689A68CC
:104F4000FB681B6C5B421A44FB68DA607B68022BCF
:104F500005D13B69002B02D03B69013B3B613B69BA
:104F60005A1CFB689A637B6918461837BD4680BD9A
:104F700080B582B000AF786039607B681B6C002B15
:104F800018D07B68DA687B681B6C1A447B68DA602F
:104F90007B68DA687B689B689A4203D37B681A68EF
:104FA0007B68DA607B68D9687B681B6C1A46386856
:104FB0002CF08AF900BF0837BD4680BD80B584B0AB
:104FC00000AF78600AF063FF7B6893F84530FB73AD
:104FD0001EE07B689B6C002B08D0786800F056F9C7
:104FE0000346002B10D0FCF7E5FA0DE07B685B6A06
:104FF000002B12D07B6824331846FCF7BDF903461A
:10500000002B01D0FCF7D6FAFB7B013BDBB2FB7334
:1050100097F90F30002BDCDC00E000BF7B68FF223B
:1050200083F845200AF04CFF0AF031FF7B6893F8C3
:105030004430BB7311E07B681B69002B12D07B6886
:1050400010331846FCF798F90346002B01D0FCF703
:10505000B1FABB7B013BDBB2BB7397F90E30002B7F
:10506000E9DC00E000BF7B68FF2283F844200AF0FF
:1050700027FF00BF1037BD4680BD80B584B000AFAC
:1050800078600AF004FF7B689B6B002B02D1012340
:10509000FB6001E00023FB600AF012FFFB6818468A
:1050A0001037BD4680BD80B485B000AF78607B68A6
:1050B000BB60BB689B6B002B02D10123FB6001E04E
:1050C0000023FB60FB6818461437BD465DF8047B7F
:1050D000704780B584B000AF78600AF0D8FE7B6876
:1050E0009A6B7B68DB6B9A4202D10123FB6001E083
:1050F0000023FB600AF0E4FEFB6818461037BD464B
:1051000080BD80B485B000AF78607B68BB60BB6851
:105110009A6BBB68DB6B9A4202D10123FB6001E012
:105120000023FB60FB6818461437BD465DF8047B1E
:10513000704780B586B000AFF860B9607A60FB68F0
:105140007B610AF0A4FE7B6993F844305BB2B3F153
:10515000FF3F03D17B69002283F844207B6993F8E9
:1051600045305BB2B3F1FF3F03D17B69002283F886
:1051700045200AF0A5FE7B699B6B002B06D17B695D
:1051800024337A68B9681846FCF7D8F87869FFF7CD
:1051900015FF00BF1837BD4680BD80B584B000AF95
:1051A0007860002204217868FFF758F9F860FB68FE
:1051B00018461037BD4680BD80B584B000AF78601A
:1051C00039600AF064FE7B689B6C002B02D00023E0
:1051D000FB600BE07B689B6B002B02D00023FB6025
:1051E00004E07B683A689A640123FB600AF068FE79
:1051F000FB6818461037BD4680BD80B584B000AF4F
:10520000786039607B68BB60BB689B6C3A689A4287
:1052100002D00023FB600FE0BB689B6B002B02D029
:105220000023FB6008E00AF032FEBB6800229A64AB
:105230000AF046FE0123FB60FB6818461037BD46A6
:1052400080BD80B584B000AF786039600023FB601A
:1052500007F10C033A6819467868FFF72EFBFB68E4
:1052600018461037BD4680BD80B584B000AF786069
:105270000023FB6007F10C03002219467868FFF752
:105280002BFDFB6818461037BD4680BD80B586B043
:1052900000AF78607B689B6C3B6100237B613B695E
:1052A0009A6B3B69DB6B9A4225D23B6993F8453098
:1052B000FB733B1D002219463869FFF7EFFD78614B
:1052C00097F90F30B3F1FF3F0ED13B695B6A002BBA
:1052D00011D03B6924331846FCF74EF80346002BE7
:1052E00009D001237B6106E0FB7B0133DBB25AB2BC
:1052F0003B6983F845207B6918461837BD4680BD59
:1053000008B5044B186818B1804780F00100C0B29E
:1053100008BD00BFAC22012009B91046704780B11A
:10532000037883EA122383EA131343EA022282EA10
:10533000033282EA431292B200B10130013989B2DC
:10534000EAE7FF23EDE72DE9F04F85B081460E9E99
:105350008A46904606B11E4443449CB24746554691
:10536000A74203D1012005B0BDE8F08F95B36A468E
:105370001023294648460EF023FDBDF80420944230
:1053800008D9BDF8063013449BB29F4202D29C421A
:1053900003D91F46BDF80A50E8E79742A4EB020183
:1053A00028BFE31B89B234BF0B469BB2A4EB0304B6
:1053B00032BFBDF80AB04746D346A4B246B1103555
:1053C0002944F61AC91A324689B248460EF0F8FC4A
:1053D0005D46C5E72846C6E72DE9F74FD48896888D
:1053E000DFF8588082468B4644F307254FF6FF7757
:1053F000002D03DA384603B0BDE8F08F1AD0A4F5CB
:1054000080741FFA84F94FF48074CDF8008023462D
:10541000324659465046FFF796FF38B13A46214684
:105420004046FFF779FF2644B6B20746013D6DB20C
:105430004C46DDE7002CDDD0A146E6E7B022012096
:1054400010B5094C94F804010EF058FD4FF40052C9
:10545000002194F804010EF07BFD18B14FF4807325
:10546000A4F8063110BD00BFAC2201202DE9F041A7
:10547000094C05460E46174613460A46014694F85F
:1054800004010EF0D3FC3B463246294694F8040151
:10549000BDE8F0410EF0AABDAC22012003292CD8B2
:1054A000DFE801F002091B23184BB3F80621104472
:1054B000A3F806017047154AB2F80631184480B2C5
:1054C000C11C4FF6FC730B40984203D90430A2F87C
:1054D00006017047A2F8063170470C4AB2F806314F
:1054E0000F33184420F00F00F1E7084AB2F80631F4
:1054F0003F33184420F03F00E9E74FF0200383F3E7
:105500001188BFF36F8FBFF34F8FFEE7AC220120EE
:105510004FF0200383F31188BFF36F8FBFF34F8FDA
:10552000FEE770B50C4A92F808410023D9B28C42CC
:1055300001D800200BE05D1C9B00D118B1F8096177
:10554000864207D1B1F80B2112B10448184470BD4E
:10555000FFF7DEFF2B46E9E7AC220120B52301204F
:1055600008B5FFF7DEFF00B1408808BD10B504465E
:10557000FFF7D7FF40B14FF0200383F31188BFF34B
:105580006F8FBFF34F8FFEE7094B93F808010206B8
:1055900001D5FFF7BDFF421C83F8082103EB800211
:1055A00003F20913A2F8094103EB800010BD00BF0C
:1055B000AC22012008B5FFF7B4FF08B9FFF7A8FF38
:1055C000064A92F80831013BDBB282F8083102EB5F
:1055D0008303D3F80931036008BD00BFAC2201206A
:1055E0002DE9F041244CB4F80A33B4F80C630344B9
:1055F0009BB204F20E37FF2B0546A4F80A3307EBE3
:10560000060004F104080AD82A46414635442BF026
:105610005BFE0126A4F80C533046BDE8F081C6F5C8
:10562000807241462BF050FE4FF480723946B4F838
:105630000601FFF71BFF06460028EDD000214FF4BE
:105640008070FFF72BFFB4F80A53B4F80C13A5F5DC
:1056500080750023ADB2A4F80C33A4F80A53002DD2
:10566000DAD0C1F580712A4618FA81F138462BF05C
:105670002BFEA4F80C53CFE7AC2201207FB545F2F6
:105680004143ADF806300D4BCDE902300C4BC04321
:10569000B3F80E3404904FF6FF7210210DF106009E
:1056A000ADF81430FFF738FE1222ADF8040001A95E
:1056B0000020FFF7DBFE07B05DF804FB534E7632A7
:1056C000AC2201202DE9F04F724C94F804710025B2
:1056D0008FB0122309AA29463846A4F81054A4F81A
:1056E0001254A4F80C53A4F80A530EF069FB0B9B58
:1056F000039394F804310133DBB2012B94BF84F897
:10570000043184F8045194F80431BB4208D14FF0BD
:10571000200383F31188BFF36F8FBFF34F8FFEE732
:10572000FFF78EFE0028E4D04FF0000ADFF870810A
:1057300080E004EB8A091023B9F80BB105AA594699
:1057400038460EF03DFB0026BDF81C50ADF81A504F
:1057500005AA59463846ADF81860ADF81E60ADF898
:105760002060FFF739FE4FF6FF72ADF814000E21EE
:1057700005A8FFF7D1FDF022ADF82200FF21464831
:105780002BF074FF05AB03CB1035C8F80000C8F848
:105790000410B4F80C2303CBB4F80631C8F80800A1
:1057A000ADB21344B5F5807FC8F80C10A9F80B31E1
:1057B00019D8394B00933246BDF81C30594638464B
:1057C000FFF7C1FD50B1B4F80631B4F80C2313440F
:1057D000A9F80B312846FFF703FF38BB0024204609
:1057E0000FB0BDE8F08F1023B5F5807F2A4628BFA3
:1057F0004FF48072A2EB03091FFA89F94344029225
:10580000009332464B4659463846FFF79CFD002828
:10581000E4D00298FFF7E4FE0028DFD0029BED1AE7
:105820004E44ADB2B6B20023002DDDD10AF1010322
:105830005FFA83FA94F8083153453FF67AAFB4F82B
:105840000A23FAB9B4F80A030021FFF727FEB4F8D7
:105850000631A4F80E34039B581EFFF70FFF0446D1
:105860000028BBD002210020FFF718FE1222FF21E2
:1058700009A82BF0FBFE122309AA002138460EF0DE
:10588000D5FAACE70549B4F80601FFF7EFFD0028AB
:10589000D8D1A3E7AC220120C0220120BA250120E3
:1058A000B022012008B50A4BB3F80631C3F5005306
:1058B0009BB283420BD2FFF705FF40B94FF02003A4
:1058C00083F31188BFF36F8FBFF34F8FFEE708BDDF
:1058D000AC2201202DE9F84F344E0446351D89468F
:1058E0004FF48072FF2128462BF0C0FEE1884FF66E
:1058F000FF724846FFF710FD4FF6FF7220800E2121
:105900002046FFF709FD2346E08103CB7060696004
:1059100003CBA860E960E28802F11007BFB2B9F1D9
:10592000000F07D0B7F5807F17D8494606F114005D
:105930002BF0CAFCE2881E49B6F80601F02A28BFFF
:10594000F022103292B2FFF791FD8046E0881030CD
:10595000022180B2FFF7A2FD25E04FF0000B1020DE
:10596000B7F5807F3C4628BF4FF48074A4EB000A53
:10597000524609EB0B0128442BF0A6FC22460C49A9
:10598000B6F80601FFF772FD804660B1204602219D
:105990003F1BFFF783FDBFB20BEB0A031FFA83FB2C
:1059A0000020002FDCD14046BDE8F88FAC2201205A
:1059B000B02201202DE9F041674C00258EB084F81B
:1059C00008514FF0FF38FF27122304AA0021284670
:1059D0000EF0F6F9DDE906637340013326D19DF838
:1059E0001230412B22D19DF81330542B1ED19DF83B
:1059F0001430532B1AD19DF815304E2B16D19DF82B
:105A00001630762B12D19DF81730322B0ED14FF66F
:105A1000FF7210210DF11200FFF77EFCBDF810306F
:105A2000834203D146453CBFB0462F46E5B1FF2F28
:105A30002CD1002384F804314FF6FF766FF0010576
:105A4000FFF7FEFC90B994F804310133DBB2012B6F
:105A500084F80431F4D94FF0200383F31188BFF3A5
:105A60006F8FBFF34F8FFEE70125ADE72846A4F8FF
:105A70000E64FFF703FE0028E5D0002384F8083108
:105A8000012384F814340EB0BDE8F0814FF4807324
:105A9000A4F806313846122309AA002184F80471BB
:105AA0000EF08EF94FF6FF77B4F80631B3F5005FCC
