:0200000400807A
:105F8800FFFF000000500E8438FC745F3B4412147D
:085F9800090000710200000085
:045FBC0000000010D1
:020000040100F9
:10000000FEFFFFFF01015048434D00000000740057
:1000100004000100000200010002000100300300A2
:1000200000000000000000000000000000000000D0
:1000300000000000000000000000000000000000C0
:1000400000000000000000000000000000000000B0
:1000500000000000000000000000000000000000A0
:100060000000000000000000000000000000000090
:100070000000000000000000000000000000000080
:100080000000000000000000000000000000000070
:100090000000000000000000000000000000000060
:1000A0000000000000000000000000000000000050
:1000B0000000000000000000000000000000000040
:1000C0000000000000000000000000000000000030
:1000D0000000000000000000000000000000000020
:1000E0000000000000000000000000000000000010
:1000F0000000000000000000000000000000000000
:1001000000000000000000000000000000000000EF
:1001100000000000000000000000000000000000DF
:1001200000000000000000000000000000000000CF
:1001300000000000000000000000000000000000BF
:1001400000000000000000000000000000000000AF
:10015000000000000000000000000000000000009F
:10016000000000000000000000000000000000008F
:10017000000000000000000000000000000000007F
:10018000000000000000000000000000000000006F
:10019000000000000000000000000000000000005F
:1001A000000000000000000000000000000000004F
:1001B000000000000000000000000000000000003F
:1001C000000000000000000000000000000000002F
:1001D000000000000000000000000000000000001F
:1001E000000000000000000000000000000000000F
:1001F00000000000000000000000000000000000FF
:10020000F07F012035B002010D090301130903013C
:100210001F090301250903012B0903010000000048
:10022000000000000000000000000000D90A0101E9
:100230001909030100000000F90B0101670C01011D
:100240003D3301012D860101CB120101F936010177
:10025000CB120101CB12010135A70001CB12010124
:10026000CB120101CB120101CB120101CB12010112
:100270004D820001CB120101CB120101CB12010111
:10028000CB120101CB120101CB120101CB120101F2
:10029000CB120101CB120101CB120101CB120101E2
:1002A000CB120101CB120101CB120101CB120101D2
:1002B000CB120101CB120101CB120101898B02018A
:1002C0007D2B0201CB120101CB120101CB120101E6
:1002D000CB120101CB120101A5FC0001CB120101DF
:1002E000CB120101000000005592020100203200F3
:1002F000C031012000000000000000000120320099
:10030000C031012000000000000000000220320087
:10031000C031012000000000000000000320320076
:10032000C031012000000000000000000420320065
:10033000C031012000000000000000000520320054
:10034000C031012000000000000000000620320043
:10035000C031012000000000000000000720320032
:10036000C031012000000000000000000820200033
:10037000F4310120000000000000000009202000EE
:10038000F431012000000000000000000A202000DD
:10039000F431012000000000000000000B202000CC
:1003A000F431012000000000000000000C202000BB
:1003B000F431012000000000000000000D202000AA
:1003C000F431012000000000000000000E20200099
:1003D000F431012000000000000000000F20200088
:1003E000F43101200000000000000000F8B500BF5B
:1003F000F8BC08BC9E4670470DCC0201F8B500BFA2
:10040000F8BC08BC9E467047E9CB0201B44A010023
:100410000100000080B58CB004AFF860B9603B60AB
:100420001346FB80FB889B0018460FF08BFE78611B
:100430007B69002B13D054200FF084FEF861FB6918
:10044000002B08D054220021F86932F0A5F8FB698E
:100450007A691A6305E078690FF012FF01E0002362
:10046000FB61FB69002B13D0FA8800230393FB691F
:100470000293FB6A0193BB6A00933B68B968F86812
:1004800000F00EF8F86900F07BF80123BB6102E090
:100490004FF0FF33BB61BB6918462037BD4680BDB6
:1004A00080B586B000AFF860B9607A603B60BB6A27
:1004B000186B7B689B001A46A52132F06DF8BB6A69
:1004C0001A6B7B6803F18043013B9B0013443B6143
:1004D0003B6923F007033B61BB68002B1ED0002360
:1004E0007B6112E0BA687B6913441978BA6A7B6948
:1004F000134434330A461A70BA687B6913441B7874
:10050000002B06D07B6901337B617B690F2BE9D916
:1005100000E000BFBB6A002283F843203B6A042B43
:1005200001D904233B62BB6A3A6ADA62BB6A3A6A5F
:100530005A64BB6A043318461BF038F9BB6A183397
:1005400018461BF033F9BB6ABA6A1A613B6AC3F1F9
:100550000502BB6A9A61BB6ABA6A5A623A68F9686C
:10056000386910F06DFA0246BB6A1A607B6A002B8C
:1005700002D07B6ABA6A1A6000BF1837BD4680BDD8
:1005800080B584B000AF786010F003FB3E4B1B6871
:1005900001333D4A13603D4B1B68002B09D13B4A98
:1005A0007B681360384B1B68012B10D101F004FBF2
:1005B0000DE0374B1B68002B09D1344B1B68DA6AFE
:1005C0007B68DB6A9A4202D8304A7B681360314B01
:1005D0001B6801332F4A13607B68DB6A01229A4053
:1005E0002D4B1B6813432C4A13607B68DA6A2B4936
:1005F00013469B0013449B000B4404331B68FB60B1
:100600007B68FA689A60FB689A687B68DA60FB68C6
:100610009B687A6804325A607B681A1DFB689A608E
:100620007B68DA6A13469B0013449B001B4A1A44FA
:100630007B685A617B68DA6A184913469B00134449
:100640009B000B441B68591C144813469B00134421
:100650009B000344196010F0B5FA0D4B1B68002B8A
:100660000ED00A4B1B68DA6A7B68DB6A9A4207D2B3
:100670000B4B4FF080521A60BFF34F8FBFF36F8F59
:1006800000BF1037BD4680BD442D01206C2C0120D9
:10069000502D0120602D01204C2D0120702C0120B7
:1006A00004ED00E080B584B000AF786010F071FA1E
:1006B0007B68002B02D1344B1B6800E07B68FB6039
:1006C000FB68043318461BF0DBF80346002B15D1FA
:1006D000FB68DA6A2D4913469B0013449B000B44C8
:1006E0001B68002B0AD1FB68DB6A012202FA03F3C4
:1006F000DA43274B1B681340254A1360FB689B6A4B
:10070000002B04D0FB68183318461BF0B9F8214BB6
:100710001B6801331F4A13601B4B1B68FA689A421F
:100720000BD1FB68043319461B481BF04CF81B4BDC
:100730001B680133194A136006E0194B1B68013B23
:10074000174A136001F0B4FA10F03CFA0E4B1B6824
:10075000FA689A4202D0F86801F09AFA114B1B68C5
:10076000002B0CD0084B1B68FA689A4207D10E4B3D
:100770004FF080521A60BFF34F8FBFF36F8F00BFEF
:100780001037BD4680BD00BF6C2C0120702C0120AD
:100790004C2D0120602D0120182D01202C2D012031
:1007A000442D0120502D012004ED00E080B586B0DD
:1007B00000AF7860396000237B6100F05FFB224B63
:1007C0001B683B617B681B683A681344FB607B686D
:1007D0001B683A699A420BD27B681B68FA689A4296
:1007E00011D2FA683B699A420DD901237B610AE074
:1007F0007B681B68FA689A4203D3FA683B699A429D
:1008000001D901237B617B68FA681A607B69002B40
:1008100006D0FA683B69D31A0021184602F08EF818
:1008200000F074FBB860BB68002B07D1074B4FF09A
:1008300080521A60BFF34F8FBFF36F8F7B691846EA
:100840001837BD4680BD00BF482D012004ED00E0F3
:1008500080B584B000AF78600023FB607B68002B1C
:1008600008D000F00BFB0021786802F067F800F078
:100870004DFBF860FB68002B07D1064B4FF0805210
:100880001A60BFF34F8FBFF36F8F00BF1037BD46A5
:1008900080BD00BF04ED00E080B588B000AF786097
:1008A0007B687B61294B1B687A699A4202D10023DD
:1008B000FB7745E010F06DF97B695B693B61244B88
:1008C0001B68FB60234B1B68BB6010F07BF93A6927
:1008D000FB689A4203D03A69BB689A4202D102236C
:1008E000FB772DE03B691C4A93421DD17B699B6AD3
:1008F000002B16D10323FB770023BB610DE07A693F
:10090000BB69134450331B78DBB2012B02D10223A5
:10091000FB7715E0BB690133BB61BB69002BEEDDE2
:100920000EE00223FB770BE03B690C4A934202D0B6
:100930003B69002B02D10423FB7701E00123FB7705
:10094000FB7F18462037BD4680BD00BF6C2C0120C0
:10095000FC2C0120002D0120302D0120182D01201C
:1009600080B584B000AF786010F013F97B68002B7D
:1009700002D1074B1B6800E07B68FB60FB68DB6A09
:10098000BB6010F01FF9BB6818461037BD4680BD2C
:100990006C2C012080B489B000AF7860EFF3118235
:1009A0004FF0200383F31188BFF36F8FBFF34F8F96
:1009B0003A61FB603B69FB617B68002B02D10A4B0B
:1009C0001B6800E07B68BB61BB69DB6A7B61FB691C
:1009D000BB60BB6883F311887B6918462437BD462A
:1009E0005DF8047B704700BF6C2C012080B588B097
:1009F00000AF786039600023FB613B68042B01D9AC
:100A000004233B6010F0C5F87B68002B02D1554BE6
:100A10001B6800E07B68BB61BB695B6C7B617A69CA
:100A20003B689A4200F098803A687B699A420DD9F7
:100A30004C4B1B68BA699A420FD04A4B1B68DB6A61
:100A40003A689A4209D30123FB6106E0454B1B68D3
:100A5000BA699A4201D10123FB61BB69DB6A3B6140
:100A6000BB695A6CBB69DB6A9A4202D1BB693A68BE
:100A7000DA62BB693A685A64BB699B69002B04DB84
:100A80003B68C3F10502BB699A61BB6959693A6960
:100A900013469B0013449B00334A1344994250D1A0
:100AA000BB69043318461AF0EBFE0346002B09D14C
:100AB00001223B6902FA03F3DA432C4B1B68134013
:100AC0002A4A1360BB69DB6A01229A40274B1B68E4
:100AD0001343264A1360BB69DA6A234913469B0015
:100AE00013449B000B4404331B68FB60BB69FA682A
:100AF0009A60FB689A68BB69DA60FB689B68BA69B0
:100B000004325A60BB691A1DFB689A60BB69DA6AD5
:100B100013469B0013449B00134A1A44BB695A6155
:100B2000BB69DA6A104913469B0013449B000B44CF
:100B30001B68591C0C4813469B0013449B0003443C
:100B40001960FB69002B07D0094B4FF080521A60E7
:100B5000BFF34F8FBFF36F8F10F034F800BF203713
:100B6000BD4680BD6C2C0120702C01204C2D012035
:100B700004ED00E080B584B000AF786010F009F8B3
:100B80007B68002B02D13B4B1B6800E07B68BB609D
:100B9000BB68043318461AF073FE0346002B15D1C8
:100BA000BB68DA6A344913469B0013449B000B442C
:100BB0001B68002B0AD1BB68DB6A012202FA03F32F
:100BC000DA432E4B1B6813402C4A1360BB689B6AA8
:100BD000002B04D0BB68183318461AF051FEBB68CE
:100BE0000433194626481AF0EEFD0023FB6010E09E
:100BF000BA68FB68134450331B78DBB2012B05D174
:100C0000BA68FB681344503300221A70FB68013342
:100C1000FB60FB68002BEBDD0FF0D4FF194B1B686A
:100C2000002B05D00FF0B5FF01F042F80FF0CAFF1E
:100C3000104B1B68BA689A4218D1124B1B68002BE4
:100C400008D0114B4FF080521A60BFF34F8FBFF3A3
:100C50006F8F0BE00A4B1A680C4B1B689A4203D14A
:100C6000044B00221A6001E000F052FC00BF103774
:100C7000BD4680BD6C2C0120702C01204C2D012024
:100C8000302D0120502D012004ED00E0442D0120E5
:100C900080B485B000AF78600023FB607B68BB60E8
:100CA000BB685B690A4A93420AD1BB689B6A094ADE
:100CB000934205D0BB689B6A002B01D10123FB60E6
:100CC000FB6818461437BD465DF8047B704700BFCB
:100CD000302D0120042D012080B584B000AF786054
:100CE0007B68FB60344B1B68FA689A425FD0FB68F4
:100CF000002B5CD00FF04DFFF868FFF7C9FF0346EB
:100D0000002B52D0FB68043318461AF0B9FDFB687B
:100D1000DB6A01229A40294B1B681343274A136060
:100D2000FB68DA6A264913469B0013449B000B4478
:100D300004331B68BB60FB68BA689A60BB689A683A
:100D4000FB68DA60BB689B68FA6804325A60FB682B
:100D50001A1DBB689A60FB68DA6A13469B0013444D
:100D60009B00174A1A44FB685A61FB68DA6A144907
:100D700013469B0013449B000B441B68591C1048EE
:100D800013469B0013449B0003441960FB68DA6A16
:100D9000094B1B68DB6A9A4207D30A4B4FF080521B
:100DA0001A60BFF34F8FBFF36F8F0FF00BFF00BFC1
:100DB0001037BD4680BD00BF6C2C01204C2D01209A
:100DC000702C012004ED00E080B584B002AF184B18
:100DD00001930023009300234FF4807215491648B5
:100DE000FFF718FB78607B68012B02D108F082FDC9
:100DF00078607B68012B14D14FF0200383F31188B6
:100E0000BFF36F8FBFF34F8F3B600C4B4FF0FF3240
:100E10001A600B4B01221A600A4B00221A600FF075
:100E200086FE094B1B6800BF0837BD4680BD00BF6A
:100E3000682D0120E42E0301F11A0001642D012028
:100E4000502D0120482D0120383E012080B582B070
:100E500000AF4FF0200383F31188BFF36F8FBFF310
:100E60004F8F7B60044B00221A600FF08BFE00BF97
:100E70000837BD4680BD00BF502D012080B400AFB3
:100E8000044B1B680133034A136000BFBD465DF885
:100E9000047B70476C2D012080B485B000AF002327
:100EA000BB6001237B60144B1B687A689A4201D2B5
:100EB0000123BB60114B1B68DB6A002B02D00023AF
:100EC000FB6012E00E4B1B68012B02D90023FB6074
:100ED0000BE0BB68002B02D00023FB6005E0094B50
:100EE0001A68094B1B68D31AFB60FB681846143755
:100EF000BD465DF8047B70474C2D01206C2C012011
:100F0000702C0120642D0120482D012080B586B071
:100F100000AF00237B6100233B610FF03AFE684B7A
:100F20001B68013B664A1360654B1B68002B40F051
:100F3000C080644B1B68002B00F0BB808AE0624BD2
:100F4000DB68DB687B617B699B6ABB607B69DB6913
:100F50007A69126A9A607B691B6A7A69D2695A60F7
:100F6000BB685A687B6918339A4203D17B691A6A55
:100F7000BB685A607B6900229A62BB681B685A1E74
:100F8000BB681A607B695B697B607B699B687A6977
:100F9000D2689A607B69DB687A6992685A607B687C
:100FA0005A687B6904339A4203D17B69DA687B68AB
:100FB0005A607B6900225A617B681B685A1E7B68F5
:100FC0001A607B69DB6A01229A40404B1B6813431D
:100FD0003E4A13607B69DA6A3D4913469B0013441D
:100FE0009B000B4404331B683B607B693A689A6042
:100FF0003B689A687B69DA603B689B687A6904326F
:101000005A607B691A1D3B689A607B69DA6A1346ED
:101010009B0013449B002E4A1A447B695A617B69EA
:10102000DA6A2B4913469B0013449B000B441B6850
:10103000591C274813469B0013449B000344196026
:101040007B69DA6A234B1B68DB6A9A4202D3224B24
:1010500001221A601C4B1B68002B7FF470AF7B6968
:10106000002B01D000F024FE1C4B1B68FB60FB68CA
:10107000002B10D000F03EF90346002B02D0164B97
:1010800001221A60FB68013BFB60FB68002BF1D179
:10109000124B00221A60104B1B68002B09D0012351
:1010A0003B610F4B4FF080521A60BFF34F8FBFF37D
:1010B0006F8F0FF087FD3B6918461837BD4680BD1E
:1010C0006C2D0120442D0120042D01204C2D0120E8
:1010D000702C01206C2C0120582D0120542D012052
:1010E00004ED00E080B483B000AF054B1B687B606B
:1010F0007B6818460C37BD465DF8047B704700BF1F
:10110000482D012080B483B000AF00237B60054BE5
:101110001B683B603B6818460C37BD465DF8047B96
:10112000704700BF482D012080B400AF034B1B68FF
:101130001846BD465DF8047B704700BF442D012072
:1011400080B485B000AF78607B68002B02D1064B7D
:101150001B6800E07B68FB60FB683433184614377B
:10116000BD465DF8047B70476C2C012080B582B0D1
:1011700000AF78600E4B1A687B681A440D4B1B68F1
:101180009A420BD10FF005FD0B4B1B6801330A4A45
:1011900013600FF017FD7B68013B7B60044B1A68FE
:1011A0007B681344024A136000BF0837BD4680BD08
:1011B000482D0120642D0120542D012080B584B0DC
:1011C00000AF7860FFF75AFE0FF0E3FC074B1A6898
:1011D0007B681344054A13600FF0F4FCFFF796FE9A
:1011E000F860FB6818461037BD4680BD542D0120BD
:1011F00080B586B000AF78607B683B61FFF73EFE4C
:101200007868FFF749FB0346022B61D101237B611C
:101210003B69043318461AF033FB0FF0BAFC3B6904
:101220009B6A002B08D03B69183318461AF028FB3C
:101230003B69012283F851200FF0C4FC3B69DB6A53
:1012400001229A40274B1B681343264A13603B69CF
:10125000DA6A254913469B0013449B000B44043370
:101260001B68FB603B69FA689A60FB689A683B6997
:10127000DA60FB689B683A6904325A603B691A1D60
:10128000FB689A603B69DA6A13469B0013449B0033
:10129000154A1A443B695A613B69DA6A1249134696
:1012A0009B0013449B000B441B68591C0E481346BB
:1012B0009B0013449B00034419603B69DA6A0B4BA3
:1012C0001B68DB6A9A4205D9094B01221A6001E0CA
:1012D00000237B61FFF71AFE7B6918461837BD466D
:1012E00080BD00BF4C2D0120702C01206C2C0120F2
:1012F000582D012080B588B000AF0023FB61794BE9
:101300001B68002B40F0E280774B1B680133BB6108
:10131000754ABB691360BB69002B10D1734B1B6806
:101320007B61734B1B68714A1360714A7B69136060
:10133000704B1B6801336F4A136000F0B9FC6E4BB1
:101340001B68BA699A42C0F0A680684B1B681B688C
:10135000002B04D1684B4FF0FF321A609BE0634BC7
:101360001B68DB68DB683B613B695B68FB60BA69F3
:10137000FB689A4203D2604AFB6813608BE03B69CA
:101380005B69BB603B699B683A69D2689A603B695C
:10139000DB683A6992685A60BB685A683B690433F3
:1013A0009A4203D13B69DA68BB685A603B69002204
:1013B0005A61BB681B685A1EBB681A603B699B6A0E
:1013C000002B1ED03B699B6A7B603B69DB693A69F5
:1013D000126A9A603B691B6A3A69D2695A607B68F3
:1013E0005A683B6918339A4203D13B691A6A7B6891
:1013F0005A603B6900229A627B681B685A1E7B68B0
:101400001A603B69DB6A01229A403C4B1B6813431C
:101410003A4A13603B69DA6A394913469B00134420
:101420009B000B4404331B683B603B693A689A603D
:101430003B689A683B69DA603B689B683A690432AA
:101440005A603B691A1D3B689A603B69DA6A134629
:101450009B0013449B002A4A1A443B695A613B692A
:10146000DA6A274913469B0013449B000B441B6810
:10147000591C234813469B0013449B0003441960E6
:101480003B69DA6A1F4B1B68DB6A9A427FF65DAFE5
:101490000123FB6159E71B4B1B68DA6A18491346A5
:1014A0009B0013449B000B441B68012B01D90123B3
:1014B000FB61154B1B68002B01D125F089FE134BF6
:1014C0001B68002B09D00123FB6106E00E4B1B6853
:1014D00001330D4A136025F07BFEFB691846203767
:1014E000BD4680BD6C2D0120482D0120FC2C012023
:1014F000002D01205C2D0120642D01204C2D0120A8
:10150000702C01206C2C0120542D0120582D01201D
:1015100080B586B000AF2F4B1B68002B03D02E4B3D
:1015200001221A6051E02C4B00221A602B4B1B68E1
:101530001B6B7B614FF0A5333B617B691B683A698C
:101540009A4211D17B6904331B683A699A420BD1E4
:101550007B6908331B683A699A4205D17B690C3371
:101560001B683A699A4208D01C4B1A681B4B1B68CF
:1015700034331946104625F009FE194B1B687B6071
:101580007B68B3FA83F3FB70FB78C3F11F03FB6046
:10159000FA6813469B0013449B00124A1344BB6035
:1015A000BB685B685A68BB685A60BB685A68BB68AE
:1015B00008339A4204D1BB685B685A68BB685A60BA
:1015C000BB685B68DB68054A136000BF1837BD461F
:1015D00080BD00BF6C2D0120582D01206C2C0120F6
:1015E0004C2D0120702C012080B582B000AF7860B6
:1015F0003960074B1B681833194678681AF007F9E9
:101600000121386801F09AF900BF0837BD4680BD56
:101610006C2C012080B586B000AFF860B9607A60AC
:10162000174B1B68BA6842F000429A61FB685B681E
:101630007B61134B1B687A69DA61114B1B687A690D
:1016400092681A620E4B1A687B699B6818325A605E
:101650000B4B1B6803F118027B699A60084B1B68EF
:10166000FA689A62FB681B685A1CFB681A600121C1
:10167000786801F063F900BF1837BD4680BD00BF30
:101680006C2C012080B586B000AFF860B9607A603C
:10169000FB685B687B61164B1B687A69DA61144BE7
:1016A0001B687A6992681A62114B1A687B699B6899
:1016B00018325A600E4B1B6803F118027B699A605E
:1016C0000B4B1B68FA689A62FB681B685A1CFB6824
:1016D0001A607B68002B02D04FF0FF33BB60796843
:1016E000B86801F02BF900BF1837BD4680BD00BFB8
:1016F0006C2C012080B588B000AF78607B68DB6817
:10170000DB68BB61BB699B6A7B61BB69DB69BA69EA
:10171000126A9A60BB691B6ABA69D2695A607B69AE
:101720005A68BB6918339A4203D1BB691A6A7B694C
:101730005A60BB6900229A627B691B685A1E7B69EA
:101740001A604A4B1B68002B60D1BB695B693B6127
:10175000BB699B68BA69D2689A60BB69DB68BA6981
:1017600092685A603B695A68BB6904339A4203D154
:10177000BB69DA683B695A60BB6900225A613B6900
:101780001B685A1E3B691A60BB69DB6A01229A40DA
:10179000374B1B681343364A1360BB69DA6A354915
:1017A00013469B0013449B000B4404331B68FB60EF
:1017B000BB69FA689A60FB689A68BB69DA60FB6883
:1017C0009B68BA6904325A60BB691A1DFB689A604B
:1017D000BB69DA6A13469B0013449B00254A1A44EE
:1017E000BB695A61BB69DA6A224913469B001344FC
:1017F0009B000B441B68591C1E4813469B00134456
:101800009B000344196000F053FA1BE01A4B5B681D
:10181000BB60BB69BA68DA61BB689A68BB691A6267
:10182000BB689B68BA6918325A60BB6903F1180239
:10183000BB689A60BB69104A9A620F4B1B68013300
:101840000D4A1360BB69DA6A0C4B1B68DB6A9A426B
:1018500005D90123FB610A4B01221A6001E0002334
:10186000FB61FB6918462037BD4680BD6C2D012009
:101870004C2D0120702C0120042D01206C2C012006
:10188000582D012080B586B000AF786039603B6884
:1018900043F000427B681A607B68DB687B617B6891
:1018A0001B693B617B685B687A6892689A607B68B9
:1018B0009B687A6852685A603B695B687A689A42AA
:1018C00003D17B689A683B695A607B6800221A6181
:1018D0003B691B685A1E3B691A6000F0E9F97B6995
:1018E0005B69FB607B699B687A69D2689A607B69F7
:1018F000DB687A6992685A60FB685A687B690433CE
:101900009A4203D17B69DA68FB685A607B690022DE
:101910005A61FB681B685A1EFB681A607B69DB6AA8
:1019200001229A40244B1B681343234A13607B69AE
:10193000DA6A224913469B0013449B000B4404338C
:101940001B68BB607B69BA689A60BB689A687B69F0
:10195000DA60BB689B687A6904325A607B691A1D39
:10196000BB689A607B69DA6A13469B0013449B004C
:10197000124A1A447B695A617B69DA6A0F49134635
:101980009B0013449B000B441B68591C0B481346D7
:101990009B0013449B00034419607B69DA6A084B7F
:1019A0001B68DB6A9A4202D9064B01221A6000BF0B
:1019B0001837BD4680BD00BF4C2D0120702C012082
:1019C0006C2C0120582D012080B582B000AF7860CA
:1019D0000FF0DFF8064B1A687B681A60054B1A682F
:1019E0007B685A600FF0EEF800BF0837BD4680BD37
:1019F0005C2D0120482D012080B483B000AF7860B9
:101A0000064B1A687B681A60054B1A687B685A6037
:101A100000BF0C37BD465DF8047B70475C2D01208C
:101A2000482D012080B586B000AF786039600FF096
:101A3000B0F8264B1B683B617B685B683A69D31A38
:101A4000FB60234B1B6893F85130002B07D0204BD1
:101A50001B68002283F8512001237B612EE03B6844
:101A60001B68B3F1FF3F02D100237B6126E07B6856
:101A70001A68184B1B689A420AD07B685B683A69FF
:101A80009A4205D301237B613B6800221A6015E06E
:101A90003B681B68FA689A420BD23B681A68FB687D
:101AA000D21A3B681A607868FFF7A6FF00237B61B3
:101AB00004E03B6800221A6001237B610FF082F88A
:101AC0007B6918461837BD4680BD00BF482D0120F0
:101AD0006C2C01205C2D012080B400AF034B01224F
:101AE0001A6000BFBD465DF8047B7047582D012089
:101AF00080B584B000AF786000F09EF8104B1B6892
:101B0000012B07D90F4B4FF080521A60BFF34F8F54
:101B1000BFF36F8F25F056FBFFF7BEF9F860FB6847
:101B2000042BE9D9FFF7AAF9FFF7B6F9F860FB68CB
:101B3000042B02D9F8680FF0B7F8FFF7E7F9DBE7F5
:101B4000702C012004ED00E080B483B000AF0123CD
:101B50003B600123FB71134B1B68002B02D0002359
:101B6000FB7117E0104B1B68002B02D00023FB71A8
:101B700010E00E4B1B68002B02D00023FB7109E024
:101B80000B4B1A680B4B19683B68CB1A9A4201D170
:101B90000223FB71FB7918460C37BD465DF8047BC8
:101BA000704700BF042D0120582D0120542D012025
:101BB000302D0120442D012080B582B000AF0023DC
:101BC0007B600CE07A6813469B0013449B00124A2A
:101BD0001344184619F0CAFD7B6801337B607B68AB
:101BE000042BEFD90D4819F0C1FD0D4819F0BEFDC9
:101BF0000C4819F0BBFD0C4819F0B8FD0B4819F062
:101C0000B5FD0B4B054A1A600A4B054A1A6000BF26
:101C10000837BD4680BD00BF702C0120D42C0120A8
:101C2000E82C0120042D0120182D0120302D012049
:101C3000FC2C0120002D012080B582B000AF19E0FE
:101C40000EF0A7FF0F4BDB68DB687B607B6804331B
:101C5000184619F015FE0C4B1B68013B0A4A13602D
:101C60000A4B1B68013B094A13600EF0ABFF786812
:101C700000F00EF8054B1B68002BE1D100BF0837C0
:101C8000BD4680BD182D0120442D01202C2D0120A2
:101C900080B582B000AF78607B681B6B18460EF091
:101CA000EFFA78680EF0ECFA00BF0837BD4680BD49
:101CB00080B400AF0A4B1B681B68002B04D1094B92
:101CC0004FF0FF321A6005E0054B1B68DB681B68AC
:101CD000044A136000BFBD465DF8047B704700BF37
:101CE000FC2C0120642D012080B483B000AF054B93
:101CF0001B687B607B6818460C37BD465DF8047B2B
:101D0000704700BF6C2C012080B483B000AF0B4B38
:101D10001B68002B02D101237B6008E0084B1B6885
:101D2000002B02D102237B6001E000237B607B68F3
:101D300018460C37BD465DF8047B7047502D0120D6
:101D40006C2D012080B586B000AF78607B683B6168
:101D500000237B617B68002B00F087803B69DA6A97
:101D6000444B1B68DB6A9A4276D23B699B69002B25
:101D700006DB404B1B68DB6AC3F105023B699A61D5
:101D80003B6959693B69DA6A13469B0013449B001F
:101D9000394A1344994257D13B690433184619F024
:101DA0006FFD0346002B0AD13B69DB6A012202FA70
:101DB00003F3DA43314B1B681340304A13602D4B59
:101DC0001B68DA6A3B69DA623B69DB6A01229A4086
:101DD0002A4B1B681343294A13603B69DA6A264978
:101DE00013469B0013449B000B4404331B68FB60A9
:101DF0003B69FA689A60FB689A683B69DA60FB683D
:101E00009B683A6904325A603B691A1DFB689A6004
:101E10003B69DA6A13469B0013449B00164A1A4436
:101E20003B695A613B69DA6A134913469B001344C4
:101E30009B000B441B68591C0F4813469B0013441E
:101E40009B000344196004E00A4B1B68DA6A3B6993
:101E5000DA6201237B6108E03B695A6C054B1B6821
:101E6000DB6A9A4201D201237B617B6918461837ED
:101E7000BD4680BD6C2C0120702C01204C2D012012
:101E800080B586B000AF78607B683B6100237B61E2
:101E90007B68002B6CD03B699B6C5A1E3B699A6433
:101EA0003B69DA6A3B695B6C9A4261D03B699B6C27
:101EB000002B5DD13B690433184619F0E1FC034661
:101EC000002B0AD13B69DB6A012202FA03F3DA43F1
:101ED0002A4B1B681340294A13603B695A6C3B69C3
:101EE000DA623B69DB6AC3F105023B699A613B69CF
:101EF000DB6A01229A40214B1B6813431F4A13607F
:101F00003B69DA6A1E4913469B0013449B000B444D
:101F100004331B68FB603B69FA689A60FB689A6847
:101F20003B69DA60FB689B683A6904325A603B6936
:101F30001A1DFB689A603B69DA6A13469B001344DA
:101F40009B000F4A1A443B695A613B69DA6A0C49A3
:101F500013469B0013449B000B441B68591C084804
:101F600013469B0013449B000344196001237B61CB
:101F70007B6918461837BD4680BD00BF4C2D012037
:101F8000702C012080B588B000AF786039607B6824
:101F9000BB6101237B617B68002B00F08180BB6902
:101FA0005B6C3A689A4202D93B68FB6102E0BB690C
:101FB0005B6CFB61BB69DB6AFA699A4270D0BB69F2
:101FC0009B6C7A699A426BD1BB69DB6A3B61BB69E6
:101FD000FA69DA62BB699B69002B04DBFB69C3F118
:101FE0000502BB699A61BB6959693A6913469B004E
:101FF00013449B002C4A1344994251D1BB690433CA
:10200000184619F03DFC0346002B0AD1BB69DB6A78
:10201000012202FA03F3DA43244B1B681340234ADC
:102020001360BB69DB6A01229A40204B1B68134393
:102030001E4A1360BB69DA6A1B4913469B001344AE
:102040009B000B4404331B68FB60BB69FA689A6011
:10205000FB689A68BB69DA60FB689B68BA690432FE
:102060005A60BB691A1DFB689A60BB69DA6A13463D
:102070009B0013449B000C4A1A44BB695A61BB691C
:10208000DA6A094913469B0013449B000B441B6802
:10209000591C054813469B0013449B0003441960D8
:1020A00000BF2037BD4680BD702C01204C2D012083
:1020B00080B483B000AF094B1B689B697B60074B02
:1020C0001B68DA6A054B1B68C2F105029A617B68DE
:1020D00018460C37BD465DF8047B70476C2C012018
:1020E00080B400AF074B1B68002B04D0054B1B6866
:1020F0009A6C01329A64034B1B681846BD465DF822
:10210000047B70476C2C012080B586B000AFF8606E
:10211000B9607A600EF03DFD284B1A68FB681233F7
:102120009B0013445B68002B15D1244B1A68FB6895
:102130001344503301221A707B68002B0BD001210D
:10214000786800F0FBFB1E4B4FF080521A60BFF323
:102150004F8FBFF36F8F0EF035FD0EF01AFD174B4A
:102160001A68FB6812339B0013445B687B617B69D0
:10217000002B14D0BB68002B08D0104B1A68FB68EA
:1021800012339B00134400225A6008E00B4B19687D
:102190007B695A1EFB6812339B000B445A60074B45
:1021A0001A68FB681344503300221A700EF00AFDBF
:1021B0007B6918461837BD4680BD00BF6C2C0120D6
:1021C00004ED00E080B586B000AFF860B9607A60D9
:1021D0003B600EF0DEFC344B1A68FB68134450334E
:1021E0001B78DBB2022B24D02F4B1A68FB6812330A
:1021F0009B0013445968BB68DB431940FB681233EA
:102200009B0013445960284B1A68FB6813445033F1
:1022100001221A703B6A002B0BD00121386A00F0B2
:102220008DFB224B4FF080521A60BFF34F8FBFF3EC
:102230006F8F0EF0C7FC0EF0ACFC3B68002B08D093
:10224000194B1A68FB6812339B0013445A683B68A9
:102250001A60154B1A68FB68134450331B78DBB2C5
:10226000022B02D000237B6110E00F4B1A68FB6841
:1022700012339B00134459687B68DB431940FB68A9
:1022800012339B001344596001237B61064B1A688B
:10229000FB681344503300221A700EF093FC7B69E4
:1022A00018461837BD4680BD6C2C012004ED00E0B7
:1022B00080B58AB000AFF860B9607A60FB70012326
:1022C0007B62FB683B620EF064FC3B6B002B07D02B
:1022D0003A6ABB6812339B0013445A683B6B1A601E
:1022E0003A6ABB68134450331B78FB773A6ABB6881
:1022F0001344503302221A70FB78042B3FD801A2FA
:1023000052F823F07F230001192300013723000135
:1023100053230001632300013A6ABB6812339B0018
:1023200013445A687B681A43396ABB6812339B00AE
:102330000B445A6024E03A6ABB6812339B00134492
:102340005B685A1C396ABB6812339B000B445A60A5
:1023500016E03A6ABB6812339B0013447A685A60ED
:102360000EE0FB7F022B07D03A6ABB6812339B005A
:1023700013447A685A6003E000237B6200E000BFE8
:10238000FB7F012B6ED13B6A5B69BB613B6A9B683B
:102390003A6AD2689A603B6ADB683A6A92685A6025
:1023A000BB695A683B6A04339A4203D13B6ADA68D4
:1023B000BB695A603B6A00225A61BB691B685A1E9E
:1023C000BB691A603B6ADB6A01229A40294B1B6891
:1023D0001343284A13603B6ADA6A274913469B0075
:1023E00013449B000B4404331B687B613B6A7A698E
:1023F0009A607B699A683B6ADA607B699B683A6A93
:1024000004325A603B6A1A1D7B699A603B6ADA6A39
:1024100013469B0013449B00174A1A443B6A5A61B7
:102420003B6ADA6A144913469B0013449B000B4431
:102430001B68591C104813469B0013449B0003441F
:102440001960FFF735FC3B6ADA6A0C4B1B68DB6AE4
:102450009A4207D90A4B4FF080521A60BFF34F8F50
:10246000BFF36F8F0EF0AEFB7B6A18462837BD4670
:1024700080BD00BF4C2D0120702C01206C2C012050
:1024800004ED00E080B48FB000AFF860B9607A600E
:10249000FB7001237B63FB683B63EFF311824FF01A
:1024A000200383F31188BFF36F8FBFF34F8FBA619F
:1024B0007B61BB69FB623B6C002B07D03A6BBB684E
:1024C00012339B0013445A683B6C1A603A6BBB682A
:1024D000134450331B7887F82B303A6BBB68134496
:1024E000503302221A70FB78042B41D801A252F813
:1024F00023F000BF712500010925000127250001F7
:1025000043250001532500013A6BBB6812339B0041
:1025100013445A687B681A43396BBB6812339B00BB
:102520000B445A6025E03A6BBB6812339B0013449E
:102530005B685A1C396BBB6812339B000B445A60B2
:1025400017E03A6BBB6812339B0013447A685A60F9
:102550000FE097F82B30022B07D03A6BBB68123391
:102560009B0013447A685A6003E000237B6300E019
:1025700000BF97F82B30012B40F08F804D4B1B682C
:10258000002B5ED13B6B5B697B623B6B9B683A6B5C
:10259000D2689A603B6BDB683A6B92685A607B6AE0
:1025A0005A683B6B04339A4203D13B6BDA687B6A0F
:1025B0005A603B6B00225A617B6A1B685A1E7B6A19
:1025C0001A603B6BDB6A01229A403B4B1B6813434A
:1025D000394A13603B6BDA6A384913469B0013444F
:1025E0009B000B4404331B683B623B6B3A6A9A6066
:1025F0003B6A9A683B6BDA603B6A9B683A6B0432D1
:102600005A603B6B1A1D3B6A9A603B6BDA6A134651
:102610009B0013449B00294A1A443B6B5A613B6B55
:10262000DA6A264913469B0013449B000B441B683F
:10263000591C224813469B0013449B000344196015
:102640001BE01F4B5B68FB613B6BFA69DA61FB695E
:102650009A683B6B1A62FB699B683A6B18325A6046
:102660003B6B03F11802FB699A603B6B144A9A6258
:10267000134B1B680133124A13603B6BDA6A114B30
:102680001B68DB6A9A4208D97B6C002B02D07B6CFA
:1026900001221A600C4B01221A60FB6A3B613B6904
:1026A00083F311887B6B18463C37BD465DF8047B8D
:1026B000704700BF6C2D01204C2D0120702C012093
:1026C000042D01206C2C0120582D012080B48FB0E6
:1026D00000AFF860B9607A60FB687B63EFF311824A
:1026E0004FF0200383F31188BFF36F8FBFF34F8F39
:1026F000FA61BB61FB693B637A6BBB68134450337F
:102700001B7887F82F307A6BBB6813445033022252
:102710001A707A6BBB6812339B0013445B685A1CB7
:10272000796BBB6812339B000B445A6097F82F30CB
:10273000012B40F08F804D4B1B68002B5ED17B6BD3
:102740005B69BB627B6B9B687A6BD2689A607B6BC0
:10275000DB687A6B92685A60BB6A5A687B6B043399
:102760009A4203D17B6BDA68BB6A5A607B6B0022AA
:102770005A61BB6A1B685A1EBB6A1A607B6BDB6AB4
:1027800001229A403A4B1B681343394A13607B6B12
:10279000DA6A384913469B0013449B000B44043308
:1027A0001B687B627B6B7A6A9A607B6A9A687B6B38
:1027B000DA607B6A9B687A6B04325A607B6B1A1D05
:1027C0007B6A9A607B6BDA6A13469B0013449B001A
:1027D000284A1A447B6B5A617B6BDA6A2549134697
:1027E0009B0013449B000B441B68591C2148134653
:1027F0009B0013449B00034419601BE01E4B5B6865
:102800003B627B6B3A6ADA613B6A9A687B6B1A625D
:102810003B6A9B687A6B18325A607B6B03F1180233
:102820003B6A9A607B6B144A9A62134B1B680133B4
:10283000114A13607B6BDA6A104B1B68DB6A9A42A1
:1028400008D97B68002B02D07B6801221A600C4BF0
:1028500001221A603B6B7B617B6983F3118800BFA7
:102860003C37BD465DF8047B704700BF6C2D0120EE
:102870004C2D0120702C0120042D01206C2C0120F6
:10288000582D012080B584B000AF786039607B6836
:10289000002B02D1104B1B6800E07B68BB600EF080
:1028A00078F9BA683B68134450331B78DBB2022BCB
:1028B00008D1BA683B681344503300221A700123D0
:1028C000FB6001E00023FB600EF07CF9FB6818461A
:1028D0001037BD4680BD00BF6C2C012080B586B08E
:1028E00000AFF860B9607A60FB68002B02D1124B30
:1028F0001B6800E0FB687B610EF04BF97A69BB68EE
:1029000012339B0013445B683B617A69BB681233E6
:102910009B0013445A687B68DB431A407969BB68A3
:1029200012339B000B445A600EF04CF93B69184679
:102930001837BD4680BD00BF6C2C012080B586B025
:1029400000AF78603960384B1B687B61374B1B6880
:10295000002283F85120354B1B680433184618F0C9
:102960008FFF0346002B0BD1304B1B68DB6A012223
:1029700002FA03F3DA432E4B1B6813402C4A136010
:102980007B68B3F1FF3F24D13B68002B21D0294B5A
:102990005B683B61254B1B683A699A60234B1B6857
:1029A0003A699268DA60214B1A683B699B68043285
:1029B0005A601E4B1B681A1D3B699A601B4B1B68B3
:1029C0001C4A5A611B4B1B6801331A4A136000BF33
:1029D00026E07A697B681344FB60144B1B68FA6835
:1029E0005A60FA687B699A4209D2134B1A680F4BF6
:1029F0001B6804331946104618F009FF10E00F4B0E
:102A00001A680A4B1B6804331946104618F0FFFE7B
:102A10000B4B1B68FA689A4202D2094AFB681360A2
:102A200000BF1837BD4680BD482D01206C2C012009
:102A30004C2D0120302D0120002D0120FC2C0120E7
:102A4000642D012080B483B000AF0023FB800123FC
:102A50007B717B7903F00103002B0BD001233B71C9
:102A60000D23FB803B7903F00103002B02D0FB8890
:102A70000533FB80FB8818460C37BD465DF8047BA8
:102A8000704780B485B000AF0346FB800023FB7322
:102A90000FE0FB7B0C4A1B0113441B88FA889A4207
:102AA00004D1FB7B1B01084A134406E0FB7B013386
:102AB000FB73FB7B072BECD9002318461437BD466C
:102AC0005DF8047B704700BFA02E012080B400AFEA
:102AD000094B1B78012B05D9074B1B78072B01D815
:102AE000012300E0002303F00103DBB21846BD46DA
:102AF0005DF8047B704700BF502E012080B485B084
:102B000000AF0346FB80FB88052B1BD801A252F8BF
:102B100023F000BF2D2B0001332B0001332B0001CC
:102B2000392B0001452B00013F2B00010023FB73D3
:102B30000BE00323FB7308E00423FB7305E0012390
:102B4000FB7302E00323FB7300BFFB7B18461437C3
:102B5000BD465DF8047B704780B500AF124B1B6823
:102B6000002B07D0104B1B68184611F0BCF80E4B19
:102B700000221A600D4B1B68002B07D00B4B1B6803
:102B8000184611F0B0F8094B00221A60084B1B6878
:102B9000002B07D0064B1B68184611F0A4F8044B15
:102BA00000221A6000BF80BD542E0120782E012023
:102BB000982E012080B400AF074B00221A70074BFB
:102BC00000221A70064B4FF6FF721A8000BFBD46F6
:102BD0005DF8047B704700BF502E01207C2E012041
:102BE000942E012080B582B000AF78607B685B686E
:102BF000002B07D07B685B68184611F074F87B687F
:102C000000225A607B689B68002B07D07B689B681A
:102C1000184611F068F87B6800229A607B680022F1
:102C20001A7300BF0837BD4680BD80B58AB000AFBB
:102C300003463960FB711346BB710C4B1B68002BBC
:102C40000FD0FB793B73BA7907F10C030433396871
:102C500018462EF05DFF054B1B6807F10C0210466D
:102C6000984700BF2837BD4680BD00BF4C2E0120CD
:102C700080B584B000AF78600B46FB701346BB7024
:102C80000223FB81FA2011F022F802467B685A6089
:102C90007B685B68002B32D07B685B684FF4827284
:102CA0001A807B685B6803225A807B685B6801221C
:102CB0001A717B685B68FA785A717B685B68BA78CE
:102CC0009A717B685B681B2283F8F820BB78002B25
:102CD00001D0FFF741FF7B681A887B685B68194663
:102CE00010462BF0EFF80346FB81FB89002B03D144
:102CF0007868FFF777FF02E07B6804221A73FB898C
:102D000018461037BD4680BD80B584B000AF7860EE
:102D10000B46FB700223FB81FA2010F0D8FF02461D
:102D20007B685A607B685B68002B2AD07B685B6895
:102D300040F207121A807B685B6801225A807B6828
:102D40005B68FA781A717B685B681B2283F8F8204D
:102D5000FB78002B01D0FFF7FFFE0C4B1A887B6835
:102D60005B68194610462BF0ADF80346FB81FB89E2
:102D7000002B03D17868FFF735FF02E07B6804225F
:102D80001A73FB8918461037BD4680BD942E01206A
:102D900080B586B000AFF8600B467A60FB72022304
:102DA000FB82FA2010F093FF0246FB685A60FB6832
:102DB0005B68002B6CD0FB685B684FF482721A80F2
:102DC000FB685B680D225A80FB685B6801221A7100
:102DD000FB685B6802225A71FB685B68FA7A9A7139
:102DE000FB7A002B33D1FB685B680022DA71FB6849
:102DF0005B680733013304221A70FB685B68093390
:102E00000422002118462FF0C7FB7B681A68FB6874
:102E10005B68D2B25A737B681B681A0AFB685B68EE
:102E20000D330133D2B21A707B681B681A0CFB6831
:102E30005B680D330233D2B21A707B681B681A0EBE
:102E4000FB685B680D330333D2B21A7007E0FB688E
:102E50005B6807330A22002118462FF09DFBFB68B0
:102E60005B681B2283F8F820FB681A88FB685B68A4
:102E7000194610462BF026F80346FB82FB8A002BEE
:102E800003D1F868FFF7AEFE02E0FB6804221A7374
:102E9000FB8A18461837BD4680BD90B587B000AF95
:102EA0000346FB802E4B1B78022B01D1002353E0FD
:102EB0000023FB820023BB8247E0FA88BB8AD31A37
:102EC000B3F5007F28BF4FF400737B82254B1B783E
:102ED000002B0AD1244B1868244B1A68BB8A134470
:102EE0007A8A19462EF014FE0DE0214B18681E4B0D
:102EF0001C681E4B1A68BB8A1344798A224616F056
:102F000090F90346FB82FB8A002B0ED1164B1B68FF
:102F1000FB60184B1B78012B09D17B8AF968184696
:102F20000AF060FD0346FB8202E000BF00E000BF44
:102F3000FB8A002B0ED1BA8A7B8A1344BB827A8A21
:102F40000D4B1B6813440C4A1360BA8AFB889A42E3
:102F5000B3D300E000BFFB8A18461C37BD4690BDC6
:102F60009D2E01209C2E0120782E0120542E012020
:102F7000982E01207D2E0120802E012090B58DB04D
:102F800000AF78603960FFF7A1FD0346002B05D044
:102F9000002201217868FFF7FBFEF0E03B689B8987
:102FA0005C1EFFF74FFD03469C4203D1012387F8C7
:102FB0002F300DE03B689B890E2B03D1002387F84F
:102FC0002F3005E0002202217868FFF7E1FED6E00D
:102FD0003B680E330133BB62BB6A1B781A46BB6A7F
:102FE00001331B781B021A44BB6A02331B781B0493
:102FF0001A44BB6A03331B781B0613443B62BB6A4B
:103000000433BB62BB6A1B781A46BB6A01331B7868
:103010001B021A44BB6A02331B781B041A44BB6AA6
:1030200003331B781B0613443B61BB6A0433BB624A
:10303000BB6A1B781A46BB6A01331B781B021A4411
:10304000BB6A02331B781B041A44BB6A03331B7828
:103050001B0613447B61BB6A0433BB62BB6A1A78EC
:10306000484B1A70BB6A0133BB6297F82F30002BB4
:1030700025D0BB6A1B789AB2BB6A01331B789BB21E
:103080001B029BB213449BB23B83BB6A0233BB62FD
:10309000BB6A1A783C4B1A70BB6A0133BB62BB6ACD
:1030A0001B789AB2BB6A01331B789BB21B029BB29E
:1030B00013449BB27B83BB6A0233BB6206E00023EE
:1030C0003B83314B01221A7000237B832D4B1B78ED
:1030D000012B03D82C4B1B78032B05D9002202218E
:1030E0007868FFF755FE4AE0274B1B78022B12D079
:1030F000254B1B7887F8243007F1200318460AF087
:1031000027FC0346BB85BB8D1846FFF7F7FC03463B
:1031100087F82E3002E0002387F82E3097F82E3003
:10312000002B23D13B689B883B813B6AFB6097F86F
:103130002F30002B03D0144B1B783B7701E0FF238B
:103140003B773B6A114A13600F4B1B78022B02D16D
:103150000C4B00221A700E4B02221A7007F1080362
:10316000182219460020FFF760FD08E097F82E307E
:10317000002219467868FFF70BFE0346BB853437FB
:10318000BD4690BD9C2E01209D2E0120902E012039
:10319000502E012080B584B000AF786039600223E2
:1031A000FB73504B1B78032B05D001220321786859
:1031B000FFF75EFD92E03B689B89022B05D002225F
:1031C00003217868FFF754FD88E03B68DA7B464BC3
:1031D0001A70454B1B78012B15D1444B1B78022BE1
:1031E00002D10023FB7309E00AF0E8FB0346BB8130
:1031F000BB891846FFF782FC0346FB733C4B1B68F8
:103200003C4A136000E000BFFB7B002B5ED14FF413
:10321000806010F05CFD0246374B1A60334B1B7820
:10322000022B06D04FF4007010F051FD0246334BD4
:103230001A60334B1B78012B05D1E82010F047FDB5
:103240000246304B1A602C4B1B68002B0FD0274BCB
:103250001B78022B03D0294B1B68002B07D0284B6F
:103260001B78012B06D1274B1B68002B02D10323AF
:10327000FB732BE01C4B1B783B721A4B04221A7019
:10328000214B00221A60214B00221A80204B002281
:103290001A601B4B1B78012B0ED11A4B1B681D4A61
:1032A0001D49184615F08AFF0346BB81BB891846A5
:1032B000FFF724FC0346FB73FB7B002B06D107F1D1
:1032C0000803012219460120FFF7AFFCFB7B1A46D9
:1032D00003217868FFF7CCFC0346BB811037BD465D
:1032E00080BD00BF502E01207D2E01209D2E01208B
:1032F000902E01208C2E0120542E0120782E0120AA
:103300009C2E0120982E0120802E0120842E012049
:10331000882E0120582E0120682E012080B584B00F
:1033200000AF786039603B689B7B023B032B49D838
:1033300001A252F823F000BF4933000153330001CA
:103340005D330001B933000139687868FFF716FE74
:1033500039E039687868FFF71DFF34E01B4B1B78B4
:10336000082B05D1012204217868FFF781FC2AE0AF
:10337000164B1B78032B0BD9154B1A68154B1B6882
:103380009A4205D300233B73104B07221A700BE0BF
:10339000FFF7E2FB01233B73002204217868FFF76B
:1033A00067FC0A4B08221A7007F10C030122194628
:1033B0000420FFF73AFC06E0002200210520FFF779
:1033C00034FC00E000BF1037BD4680BD502E012008
:1033D000882E01208C2E012080B586B000AF786049
:1033E0003960484B1B78042B04D001217868FFF723
:1033F0008BFC84E03B689B891A46434B1B88134433
:10340000B3F5806F04D903217868FFF77DFC76E07F
:103410000023BB813D4B1B683B4A128898183B68D0
:1034200003F10E013B689B891A462EF071FB3B6845
:103430009A89354B1B8813449AB2334B1A803B68E8
:103440009B891A46324B1B681A44324B1B689A42BE
:1034500004D22D4B1B88B3F5806F23D12A4B1B88D8
:103460001846FFF71AFD0346BB82BB8A1846FFF7D2
:1034700045FB0346FB75FB7D002B0AD0214B052243
:103480001A70FB7D19467868FFF73EFC0346BB8245
:1034900035E0BA891C4B1B8813449BB2BB811A4B85
:1034A00000221A80BB89002B21D01B4B1B78022BDA
:1034B0000DD1164B1B683B61124B06221A7007F1A7
:1034C0000C03082219460320FFF7AFFB0FE000238F
:1034D0003B6107F10C03082219460220FFF7A5FB08
:1034E000FB7D19467868FFF70FFC0346BB823B68FB
:1034F0009B891A46064B1B681344054A136018370C
:10350000BD4680BD502E0120842E0120542E012066
:10351000882E01208C2E01209D2E012080B500AF29
:10352000FFF748FBFFF718FB00BF80BD80B584B0F4
:1035300000AF78607B681B78012B1BD0092B32D041
:10354000002B40F0AF807B689B78002B40F0AC8074
:103550000020FFF796FAF860FB68002B05D10022E7
:1035600000210620FFF761FBA1E07B689A88FB68D9
:103570001A8099E07B685A884E4B1B889A4201D189
:10358000FFF7CCFF7B685B881846FFF77AFAF86094
:10359000FB68002B00F08A80F868FFF723FBFB68CC
:1035A00000221A8082E07B685B881846FFF769FA80
:1035B000F860FB68002B69D0FB685B68002B65D066
:1035C000FB681B7B013B032B62D801A252F823F05E
:1035D000E1350001FF3500011D3600016F360001A5
:1035E000FB681A88FB685B68194610462AF0A2FC43
:1035F0000346002B4ED1F868FFF7F4FA4AE0FB6867
:103600001A88FB685B68194610462AF0AFFC03462F
:10361000002B41D1F868FFF7E5FA3DE0FB681A8816
:10362000FB685B68194610462AF0BCFC0346002B79
:1036300034D1FB685B68184610F055FBFB6800222C
:103640005A60FB6800221A73FB689B68002B25D028
:10365000FB689B681946F868FFF760FEFB689B688B
:10366000184610F040FBFB6800229A6016E0FB68E9
:103670001A88FB685B68194610462AF023FC03464B
:10368000002B0DD1F868FFF7ADFA09E000BF0EE09E
:1036900000BF0CE000BF0AE000BF08E000BF06E08A
:1036A00000BF04E000BF02E000BF00E000BF103731
:1036B000BD4680BD942E012080B586B000AF7860F5
:1036C0007B681B780A2B00F04A810B2B40F0D481D9
:1036D0000023FB757B689B881846FFF7D2F9386199
:1036E0003B69002B00F0D1813B695B68002B40F007
:1036F000CC817B68DB8840F2071293420BD17B6858
:103700009A88A54B1B889A4240F0B881796838693D
:10371000FFF762FEB2E17B68DB8840F2051293425C
:103720000AD07B68DB88B3F5827F05D07B68DB88B5
:10373000B3F5847F40F0A481984B1B68002B02D125
:103740008023FB7505E07B681B7A122B01D00623D2
:10375000FB75FB7D002B40F08B807B68DB8840F2A3
:103760000512934204D07B68DB88B3F5847F5ED179
:103770007B689B7B9AB27B68DB7B9BB21B029BB214
:1037800013449BB2BB81BB89012B20D17B68DB88B2
:1037900040F20512934207D1814B1B7843F001039D
:1037A000DAB27F4B1A7006E07D4B1B7843F00203C0
:1037B000DAB27B4B1A707A4B1B7803F00103002BB3
:1037C00002D0784B01221A700023FB7550E0BB89B0
:1037D000002B29D1704B1B884FF6FF72934205D006
:1037E0007B689A886C4B1B889A421AD17B68DB886D
:1037F00040F20512934207D1694B1B7823F0010375
:10380000DAB2674B1A7006E0654B1B7823F00203AF
:10381000DAB2634B1A70634B00221A700023FB75F7
:1038200026E00323FB7523E08023FB7520E07B6803
:10383000DB88B3F5827F1BD15A4B1B78002B15D048
:10384000554B1B884FF6FF72934205D07B689A88D0
:10385000514B1B889A4209D14F4B1B884FF6FF7280
:10386000934205D17B689B7B022B01D00323FB7520
:10387000FB7D002B47D1FA2010F029FA02463B6964
:103880005A603B695B68002B00F0FC803B695B6819
:1038900013221A707B689A883B695B681946104648
:1038A0002AF080FB0346002B0DD13869FFF79AF907
:1038B0007B68DB88B3F5827F40F0E4807968386903
:1038C000FFF72CFDDEE07B68DB88B3F5827F40F0FC
:1038D000D9807B689B890E33FB81FB89184610F0E9
:1038E000F6F902463B699A603B699B68002B06D05B
:1038F0003B699B68FA89796818462EF009F93B699B
:1039000003221A73BEE0042010F0E1F902463B697D
:103910005A603B695B68002B00F0B4803B695B68D0
:103920007A68127A1A703B695B687A68D2885A8022
:103930003B695B68FA7D5A707B689A883B695B6873
:10394000194610462AF0F6FA0346002B03D13869CF
:10395000FFF748F996E03B6901221A7392E07B6811
:10396000DB88B3F5817F40F08F800023BB757B68D7
:103970009B881846FFF785F838613B69002B00F0FB
:1039800084803B695B68002B7FD1044B1B68002B54
:103990000AD18023BB7514E0942E01204C2E012007
:1039A0007C2E0120502E0120394B1B78002B02D198
:1039B0000223BB7505E07B681B7A0A2B01D0062326
:1039C000BB75BB7D002B2CD1FA2010F080F902468C
:1039D0003B695A603B695B68002B55D03B695B686B
:1039E00002221A803B695B680B229A703B695B6814
:1039F0000122DA703B695B6801221A717B689A8840
:103A00003B695B68194610462AF0B0FA0346002B62
:103A100003D13869FFF7E6F836E03B6902221A73F2
:103A200032E0042010F053F902463B695A603B69CA
:103A30005B68002B28D03B695B687A68127A1A7041
:103A40003B695B687A68D2885A803B695B68BA7D5B
:103A50005A707B689A883B695B68194610462AF061
:103A600069FA0346002B03D13869FFF7BBF80BE076
:103A70003B6901221A7307E000BF06E000BF04E0C3
:103A800000BF02E000BF00E000BF1837BD4680BDA8
:103A9000502E012080B500AF0F4B00221A600F4B53
:103AA00000221A600E4B00221A600E4B00221A6090
:103AB0000D4B00221A700D4B4FF6FF721A800C4B03
:103AC00000221A70802200210A482EF065FD2EF097
:103AD0001BF90346184680BD4C2E0120542E0120B0
:103AE000782E0120982E0120502E0120942E0120A6
:103AF0007C2E0120A02E012080B483B000AF78601E
:103B0000044A7B68136000BF0C37BD465DF8047B38
:103B1000704700BF4C2E012080B500AFFEF7D6FFE6
:103B20000346002B04D0044B01221A70FFF714F84F
:103B30000023184680BD00BF502E012090B583B0F1
:103B400000AF78603960FEF7C1FF0346002B01D05B
:103B5000052310E00A4A7B681446186859689A6879
:103B6000DB680FC4074A3B681446186859689A68AE
:103B7000DB680FC4002318460C37BD4690BD00BF5C
:103B8000582E0120682E012080B584B000AF034676
:103B90003A60FB800B467B71FB881846FEF771FF8D
:103BA000F860FB68002B01D1032323E0134B1B7843
:103BB000022B03D1FB685B68002B01D0052319E0C1
:103BC0007B79002B05D00D4B03221A700C4AFB8821
:103BD00013807B79002B01D0002300E002233A6898
:103BE0001946F868FFF7D4F803467B81F868FEF7BA
:103BF000F9FF7B8918461037BD4680BD502E012045
:103C0000942E012080B584B000AF0346FB71154BA4
:103C10001B881846FEF735FFF860134B1B78062B00
:103C200006D1FB68002B03D0FB685B68002B01D03A
:103C3000052312E00C4B04221A70FB79002B01D0F3
:103C4000002300E003231946F868FFF75DF80346F8
:103C50007B81F868FEF7C6FF7B8918461037BD46A2
:103C600080BD00BF942E0120502E012080B584B06D
:103C700000AF0346FB71154B1B881846FEF701FF8A
:103C8000F860134B1B78072B06D1FB68002B03D081
:103C9000FB685B68002B01D0052313E00C4B082266
:103CA0001A70FB79002B01D0002300E003231A4691
:103CB0000421F868FEF7DCFF03467B81F868FEF715
:103CC00091FF7B8918461037BD4680BD942E012098
:103CD000502E012080B582B000AF78607B681B78E1
:103CE000012B02D0042B06D00BE07B685B681846E2
:103CF000FFF71CFC05E07B685B681846FFF7DCFCFF
:103D000000BF00BF0837BD4680BD00BF80B584B08E
:103D100000AF786039600123FB607B68BB60BB68E3
:103D2000002B5DD0BB68DB6B002B59D0BB681A6CD5
:103D3000BB68DB6B0021A3FB0223002B00D0012119
:103D40000B46002B4CD10CF024FFBB681A68BB68F3
:103D5000DB6BB968096C01FB03F31A44BB689A601A
:103D6000BB6800229A63BB681A68BB685A60BB686C
:103D70001A68BB68DB6B013BB968096C01FB03F394
:103D80001A44BB68DA60BB68FF2283F84420BB6832
:103D9000FF2283F845203B68002B14D1BB681B69C8
:103DA000002B1AD0BB6810331846FDF7A3FC03465E
:103DB000002B12D00E4B4FF080521A60BFF34F8F82
:103DC000BFF36F8F09E0BB681033184617F0CEFCC5
:103DD000BB682433184617F0C9FC0CF0F3FE01E071
:103DE0000023FB60FB6818461037BD4680BD00BF4E
:103DF00004ED00E080B58AB002AFF860B960134608
:103E0000FB710023FB61FB68002B2DD00021BA68F9
:103E1000FB68A3FB0223002B00D001210B46002BE3
:103E200022D1FB68BA6802FB03F313F14D0F1BD8D4
:103E3000FB68BA6802FB03F3BB61BB694C331846ED
:103E40000CF080F9F861FB69002B0DD0FB697B61F8
:103E50007B694C337B61FA79FB69009313467A697D
:103E6000B968F86800F005F8FB6918462037BD46C8
:103E700080BD80B584B000AFF860B9607A60FB7037
:103E8000BB68002B03D1BB69BA691A6002E0BB6949
:103E90007A681A60BB69FA68DA63BB69BA681A643F
:103EA0000121B869FFF732FFBB6900229A6400BFA5
:103EB0001037BD4680BD80B582B000AF78607B68AA
:103EC000002B0ED07B6800229A607B6800221A606B
:103ED0007B680022DA60002300220021786800F06D
:103EE0003BF800BF0837BD4680BD80B586B000AF47
:103EF0000346FB7101237B6100233B61FB791A467A
:103F000039697869FFF776FFF860F868FFF7D3FF43
:103F1000FB6818461837BD4680BD80B584B000AF39
:103F2000786039600023FB607B68002B0FD03A6813
:103F30007B689A420BD8022200217868FFF75AFF6B
:103F4000F860FB68002B02D0FB683A689A63FB6854
:103F500018461037BD4680BD80B58AB000AFF86006
:103F6000B9607A603B6000237B62FB683B620CF0C7
:103F700010FE3B6A9A6B3B6ADB6B9A4202D33B684A
:103F8000022B45D13B6A9B6BFB613A68B968386A82
:103F900000F08AFCB8613B6A9B6C002B14D03B6834
:103FA000022B02D1FB69002B2ED1386A00F074FE7F
:103FB0000346002B28D04A4B4FF080521A60BFF3C3
:103FC0004F8FBFF36F8F1FE03B6A5B6A002B10D0EF
:103FD0003B6A24331846FDF78DFB0346002B13D0B4
:103FE0003F4B4FF080521A60BFF34F8FBFF36F8F7C
:103FF0000AE0BB69002B07D0394B4FF080521A60A2
:10400000BFF34F8FBFF36F8F0CF0DCFD012363E034
:104010007B68002B03D10CF0D5FD00235CE07B6AAC
:10402000002B06D107F110031846FDF7E5FC01232C
:104030007B620CF0C7FDFCF721FF0CF0AAFD3B6A88
:1040400093F844305BB2B3F1FF3F03D13B6A0022E7
:1040500083F844203B6A93F845305BB2B3F1FF3FED
:1040600003D13B6A002283F845200CF0ABFD3A1DDA
:1040700007F1100311461846FDF7D4FC0346002B48
:1040800024D1386A00F02BFD0346002B18D03B6A80
:1040900010337A6811461846FDF7A6FA386A00F020
:1040A00093FCFCF733FF0346002B7FF460AF0C4B0F
:1040B0004FF080521A60BFF34F8FBFF36F8F56E7F8
:1040C000386A00F081FCFCF721FF50E7386A00F005
:1040D0007BFCFCF71BFF002318462837BD4680BD3C
:1040E00004ED00E080B58EB000AFF860B9607A6092
:1040F0003B60FB683B63EFF311824FF0200383F3D7
:104100001188BFF36F8FBFF34F8FFA61BB61FB69FB
:10411000FB623B6B9A6B3B6BDB6B9A4202D33B6857
:10412000022B4ED13B6B93F8453087F82B303B6B1D
:104130009B6B7B623A68B968386B00F0B5FB97F906
:104140002B30B3F1FF3F29D13B6B9B6C002B12D07E
:104150003B68022B02D17B6A002B2FD1386B00F019
:104160009BFD0346002B29D07B68002B26D07B6863
:1041700001221A6022E03B6B5B6A002B1ED03B6B76
:1041800024331846FDF7B6FA0346002B16D07B6899
:10419000002B13D07B6801221A600FE0FCF7C4FFEC
:1041A000386297F92B303A6A9A4207D997F82B3040
:1041B0000133DBB25AB23B6B83F8452001237B63AA
:1041C00001E000237B63FB6A7B617B6983F31188D9
:1041D0007B6B18463837BD4680BD80B58CB000AFCC
:1041E000786039607B68BB62EFF311824FF0200387
:1041F00083F31188BFF36F8FBFF34F8F7A613B61F9
:104200007B697B62BB6A9B6B3B62BB6ADB6B3A6A16
:104210009A4242D2BB6A93F84530FB773B6A5A1CFC
:10422000BB6A9A6397F91F30B3F1FF3F23D1BB6A92
:104230009B6C002B0CD0B86A00F02EFD0346002BBF
:1042400028D03B68002B25D03B6801221A6021E072
:10425000BB6A5B6A002B1DD0BB6A24331846FDF78E
:1042600049FA0346002B15D03B68002B12D03B685F
:1042700001221A600EE0FCF757FFB86197F91F3072
:10428000BA699A4206D9FB7F0133DBB25AB2BB6AE4
:1042900083F845200123FB6201E00023FB627B6A77
:1042A000FB60FB6883F31188FB6A18463037BD4614
:1042B00080BD80B58AB000AFF860B9607A60002335
:1042C0007B62FB683B620CF064FC3B6A9B6BFB61AE
:1042D000FB69002B1FD0B968386A00F04FFBFB69FF
:1042E0005A1E3B6A9A633B6A1B69002B0FD03B6ADC
:1042F00010331846FDF7FEF90346002B07D03D4B5F
:104300004FF080521A60BFF34F8FBFF36F8F0CF0E6
:1043100059FC012369E07B68002B03D10CF052FCAF
:10432000002362E07B6A002B06D107F114031846D4
:10433000FDF762FB01237B620CF044FCFCF79EFD61
:104340000CF027FC3B6A93F844305BB2B3F1FF3FBB
:1043500003D13B6A002283F844203B6A93F845303E
:104360005BB2B3F1FF3F03D13B6A002283F84520E3
:104370000CF028FC3A1D07F1140311461846FDF70E
:1043800051FB0346002B23D1386A00F07CFB034627
:10439000002B17D03B6A24337A6811461846FDF784
:1043A00023F9386A00F010FBFCF7B0FD0346002B40
:1043B00089D1104B4FF080521A60BFF34F8FBFF37B
:1043C0006F8F80E7386A00F0FFFAFCF79FFD7AE70D
:1043D000386A00F0F9FAFCF799FD386A00F053FBEF
:1043E0000346002B3FF46FAF002318462837BD4625
:1043F00080BD00BF04ED00E080B58AB000AF7860FA
:10440000396000237B627B68FB6100233B620CF018
:10441000C0FBFB699B6BBB61BB69002B24D0BB69F4
:104420005A1EFB699A63FB691B68002B04D1FDF7D8
:1044300057FE0246FB699A60FB691B69002B0FD08F
:10444000FB6910331846FDF755F90346002B07D0DA
:104450004C4B4FF080521A60BFF34F8FBFF36F8FFA
:104460000CF0B0FB012389E03B68002B03D10CF07A
:10447000A9FB002382E07B6A002B06D107F10C0325
:104480001846FDF7B9FA01237B620CF09BFBFCF7A1
:10449000F5FC0CF07EFBFB6993F844305BB2B3F1A2
:1044A000FF3F03D1FB69002283F84420FB6993F8A6
:1044B00045305BB2B3F1FF3F03D1FB69002283F8C3
:1044C00045200CF07FFB3A4607F10C0311461846D5
:1044D000FDF7A8FA0346002B32D1F86900F0D3FAB1
:1044E0000346002B26D0FB691B68002B09D10CF07A
:1044F00050FBFB699B681846FDF724FC38620CF002
:1045000061FBFB6924333A6811461846FDF76CF8E5
:10451000F86900F059FAFCF7F9FC0346002B7FF428
:1045200076AF184B4FF080521A60BFF34F8FBFF336
:104530006F8F6CE7F86900F047FAFCF7E7FC66E775
:10454000F86900F041FAFCF7E1FCF86900F09BFA29
:104550000346002B3FF45BAF3B6A002B0DD00CF001
:1045600018FBF86900F088F97861FB699B68796944
:104570001846FDF707FD0CF025FB002318462837E9
:10458000BD4680BD04ED00E080B58AB000AFF860A4
:10459000B9607A6000237B62FB683B620CF0F9FA39
:1045A0003B6A9B6BFB61FB69002B21D03B6ADB689C
:1045B000BB61B968386A00F0E1F93B6ABA69DA6050
:1045C0003B6A5B6A002B0FD03B6A24331846FDF729
:1045D00091F80346002B07D03C4B4FF080521A60F5
:1045E000BFF34F8FBFF36F8F0CF0ECFA012369E03C
:1045F0007B68002B03D10CF0E5FA002362E07B6AB4
:10460000002B06D107F110031846FDF7F5F9012339
:104610007B620CF0D7FAFCF731FC0CF0BAFA3B6A7B
:1046200093F844305BB2B3F1FF3F03D13B6A002201
:1046300083F844203B6A93F845305BB2B3F1FF3F07
:1046400003D13B6A002283F845200CF0BBFA3A1DE7
:1046500007F1100311461846FDF7E4F90346002B55
:1046600023D1386A00F00FFA0346002B17D03B6ABB
:1046700024337A6811461846FCF7B6FF386A00F012
:10468000A3F9FCF743FC0346002B87D10F4B4FF0F7
:1046900080521A60BFF34F8FBFF36F8F7EE7386A87
:1046A00000F092F9FCF732FC78E7386A00F08CF9F8
:1046B000FCF72CFC386A00F0E6F90346002B3FF4C7
:1046C0006DAF002318462837BD4680BD04ED00E0DD
:1046D00080B58EB000AFF860B9607A60FB683B636C
:1046E000EFF311824FF0200383F31188BFF36F8F34
:1046F000BFF34F8FFA61BB61FB69FB623B6B9B6B46
:10470000BB62BB6A002B37D03B6B93F8443087F811
:104710002730B968386B00F031F9BB6A5A1E3B6B21
:104720009A6397F92730B3F1FF3F12D13B6B1B69B6
:10473000002B1ED03B6B10331846FCF7DBFF034603
:10474000002B16D07B68002B13D07B6801221A60E7
:104750000FE0FCF7E9FC386297F927303A6A9A4291
:1047600007D997F827300133DBB25AB23B6B83F895
:10477000442001237B6301E000237B63FB6A7B61B0
:104780007B6983F311887B6B18463837BD4680BD43
:1047900080B58AB000AF786039607B683B62EFF328
:1047A00011824FF0200383F31188BFF36F8FBFF3A3
:1047B0004F8F7A613B617B69FB613B6A9B6B002B8E
:1047C0000CD03B6ADB68BB613968386A00F0D6F808
:1047D0003B6ABA69DA6001237B6201E000237B62F5
:1047E000FB69FB60FB6883F311887B6A18462837F6
:1047F000BD4680BD80B584B000AF78600CF0C9F9CB
:104800007B689B6BFB600CF0DDF9FB68184610378A
:10481000BD4680BD80B584B000AF78607B68FB602A
:104820000CF0B7F9FB68DA6BFB689B6BD31ABB60C3
:104830000CF0C8F9BB6818461037BD4680BD80B47F
:1048400085B000AF78607B68FB60FB689B6BBB60EA
:10485000BB6818461437BD465DF8047B704780B5C9
:1048600084B000AF78607B68FB60F8680BF008FDEF
:1048700000BF1037BD4680BD80B485B000AF786002
:104880007B685B6A002B06D07B681B6B1B68C3F1DF
:104890000503FB6001E00023FB60FB68184614374A
:1048A000BD465DF8047B704780B586B000AFF86008
:1048B000B9607A6000237B61FB689B6B3B61FB689E
:1048C0001B6C002B0DD1FB681B68002B4DD1FB68C6
:1048D0009B681846FDF7D4FA7861FB6800229A605D
:1048E00043E07B68002B19D1FB685868FB681B6CA0
:1048F0001A46B9682DF00CF9FB685A68FB681B6C06
:104900001A44FB685A60FB685A68FB689B689A42C5
:104910002BD3FB681A68FB685A6026E0FB68D868EE
:10492000FB681B6C1A46B9682DF0F2F8FB68DA6870
:10493000FB681B6C5B421A44FB68DA60FB68DA6850
:10494000FB681B689A4207D2FB689A68FB681B6C7D
:104950005B421A44FB68DA607B68022B05D13B6935
:10496000002B02D03B69013B3B613B695A1CFB6851
:104970009A637B6918461837BD4680BD80B582B002
:1049800000AF786039607B681B6C002B18D07B68A7
:10499000DA687B681B6C1A447B68DA607B68DA68CB
:1049A0007B689B689A4203D37B681A687B68DA60ED
:1049B0007B68D9687B681B6C1A4638682DF0A8F8AC
:1049C00000BF0837BD4680BD80B584B000AF7860B9
:1049D0000CF0DFF87B6893F84530FB731EE07B68D2
:1049E0009B6C002B08D0786800F056F90346002B2A
:1049F00010D0FDF771F80DE07B685B6A002B12D0D8
:104A00007B6824331846FCF775FE0346002B01D063
:104A1000FDF762F8FB7B013BDBB2FB7397F90F30CC
:104A2000002BDCDC00E000BF7B68FF2283F8452020
:104A30000CF0C8F80CF0ADF87B6893F84430BB7309
:104A400011E07B681B69002B12D07B68103318467D
:104A5000FCF750FE0346002B01D0FDF73DF8BB7B71
:104A6000013BDBB2BB7397F90E30002BE9DC00E0B1
:104A700000BF7B68FF2283F844200CF0A3F800BF3E
:104A80001037BD4680BD80B584B000AF78600CF0B3
:104A900080F87B689B6B002B02D10123FB6001E057
:104AA0000023FB600CF08EF8FB6818461037BD46FB
:104AB00080BD80B485B000AF78607B68BB60BB68A8
:104AC0009B6B002B02D10123FB6001E00023FB6004
:104AD000FB6818461437BD465DF8047B704780B507
:104AE00084B000AF78600CF054F87B689A6B7B68F8
:104AF000DB6B9A4202D10123FB6001E00023FB60E3
:104B00000CF060F8FB6818461037BD4680BD80B4D5
:104B100085B000AF78607B68BB60BB689A6BBB6890
:104B2000DB6B9A4202D10123FB6001E00023FB60B2
:104B3000FB6818461437BD465DF8047B704780B5A6
:104B400086B000AFF860B9607A60FB687B610CF0FA
:104B500020F87B6993F844305BB2B3F1FF3F03D197
:104B60007B69002283F844207B6993F845305BB26F
:104B7000B3F1FF3F03D17B69002283F845200CF09D
:104B800021F87B699B6B002B06D17B6924337A6803
:104B9000B9681846FCF776FD7869FFF715FF00BF86
:104BA0001837BD4680BD80B584B000AF7860002264
:104BB00004217868FFF71EF9F860FB681846103783
:104BC000BD4680BD80B584B000AF786039600BF021
:104BD000E0FF7B689B6C002B02D00023FB600BE0A6
:104BE0007B689B6B002B02D00023FB6004E07B689A
:104BF0003A689A640123FB600BF0E4FFFB681846F7
:104C00001037BD4680BD80B584B000AF7860396094
:104C10007B68BB60BB689B6C3A689A4202D00023F9
:104C2000FB600FE0BB689B6B002B02D00023FB6096
:104C300008E00BF0AEFFBB6800229A640BF0C2FFE5
:104C40000123FB60FB6818461037BD4680BD80B568
:104C500084B000AF786039600023FB6007F10C037B
:104C60003A6819467868FFF724FBFB681846103746
:104C7000BD4680BD80B584B000AF78600023FB6086
:104C800007F10C03002219467868FFF721FDFB6845
:104C900018461037BD4680BD80B586B000AF78603D
:104CA0007B689B6C3B6100237B613B699A6B3B6932
:104CB000DB6B9A422DD23B6993F84530FB733B1D69
:104CC000002219463869FFF7EFFD786197F90F3038
:104CD000B3F1FF3F0ED13B695B6A002B19D03B69F2
:104CE00024331846FCF706FD0346002B11D00123A0
:104CF0007B610EE0FCF718FAB86097F90F30BA68DC
:104D00009A4206D9FB7B0133DBB25AB23B6983F886
:104D100045207B6918461837BD4680BD80B483B0F6
:104D200000AF0346FB7197F90730002B0BDBFB79D3
:104D300003F01F02074997F907305B09012000FAC9
:104D400002F241F8232000BF0C37BD465DF8047B1A
:104D5000704700BF00E100E080B483B000AF0346BD
:104D6000FB7197F90730002B0CDBFB7903F01F0276
:104D7000074997F907305B09012000FA02F2603316
:104D800041F8232000BF0C37BD465DF8047B704717
:104D900000E100E080B483B000AF03463960FB71EE
:104DA00097F90730002B0ADB3B68DAB20C4997F918
:104DB00007305201D2B20B4483F800230AE03B686B
:104DC000DAB20849FB7903F00F03043B5201D2B277
:104DD0000B441A7600BF0C37BD465DF8047B704764
:104DE00000E100E000ED00E080B582B000AF786047
:104DF0007B681B0903F588032A3318027B6803F0DC
:104E00000F03012202FA03F3194617F09BFE00BFBD
:104E10000837BD4680BD80B582B000AF78607B6842
:104E20001B0903F588032A3318027B6803F00F037C
:104E3000012202FA03F3194617F0A0FE00BF08375B
:104E4000BD4680BD80B582B000AF78607B681B092D
:104E500003F588032A3318027B6803F00F0301224D
:104E600002FA03F3194617F097FE00BF0837BD4654
:104E700080BD80B483B000AF0023FB71074BD3F833
:104E8000083103F04043002B01D00123FB71FB7973
:104E900018460C37BD465DF8047B7047002400447B
:104EA00080B485B000AF03460A46FB801346BB8042
:104EB000314B1B689968FA8813465B0013445B000A
:104EC0000B445B88BA889A4202D100237B734CE082
:104ED000294B1B689968FA8813465B0013445B00F2
:104EE0000B445B88BA889A420DD9234B1B6899689A
:104EF000FA8813465B0013445B000B445B88BA8856
:104F0000D31AFB810CE01C4B1B689968FA88134686
:104F10005B0013445B000B445A88BB88D31AFB81A7
:104F2000FB895B08FB81FB89B3F58A7F02D30123F0
:104F30007B731AE0FB890A2B02D800237B7314E0F1
:104F40000D4B1B681B68DB781B09DBB203F0030306
:104F50003B733B7B094A32F81330FA899A4202D8F4
:104F600000237B7301E001237B737B7B184614379E
:104F7000BD465DF8047B70470C00002088120301D9
:104F800080B485B000AF78600B467B800023BB7394
:104F90000023FB737B68002B02D10B23FB7342E0E1
:104FA0007B681B681B887A889A4202D30223FB73B2
:104FB00039E07B681B689B78BB73BB7B402B0AD1B5
:104FC0007B6899687A8813465B0013445B000B4446
:104FD00000229A8012E0BB7B802B02D0BB7B812B0E
:104FE0000AD17B6899687A8813465B0013445B009A
:104FF0000B4400229A8001E00223FB737B689968CE
:105000007A8813465B0013445B000B4419787B6875
:1050100098687A8813465B0013445B00034441F0B0
:105020000202D2B21A70FB7B18461437BD465DF8F7
:10503000047B704780B586B000AF78600023FB75B5
:1050400000233B610023FB6000237B817B68002BF6
:1050500002D10B23FB753AE000237B811AE07B68C9
:1050600059687A8913465B0013449B000B441B6804
:105070003A6913433B617B6859687A8913465B0040
:1050800013449B000B445B68FA681343FB607B8905
:1050900001337B817B681B681B887A899A42DED347
:1050A000FB68002B02D10223FB7510E00A4B1B7832
:1050B000002B02D1084B01221A70084A0021F8681F
:1050C00000F060FA064A0021386900F05BFAFB7DC7
:1050D00018461837BD4680BDBB3501207812030144
:1050E0007012030190B589B000AF0346FB71002335
:1050F000FB7600237B770023BB7600237B7600239F
:10510000FB82AB4B1A68FB799B0013441B683B6125
:10511000A84B1B689968FA7913465B0013445B003F
:105120000B441B789B08DBB203F00703FB73A14B16
:105130001B685968FA7913465B0013449B000B44C3
:10514000DB7ABB76FB7B042B00F2E98101A252F8EB
:1051500023F000BF69510001DB510001215500011E
:105160001F550001B9530001924B1B685968FA7929
:1051700013465B0013449B000B449B7A03F00F0320
:105180007B76BA7E7B7E9A4204D9BA7E7B7ED31A26
:105190003B7701E000233B77864B1B685968FA791F
:1051A00013465B0013449B000B449B7A1B09DBB244
:1051B0003A7FD31ADBB202333B773B7F3A6922FA5C
:1051C00003F07C4B1B689968FA7913465B00134423
:1051D0005B000B4482B25A80A3E1BB7E3B773B7FEE
:1051E0003A6922FA03F39BB23B61724B1B689968E0
:1051F000FA7913465B0013445B000B443A6992B2A0
:105200005A806C4B1B689968FA7913465B0013440B
:105210005B000B449B88FB823B69B3F5805F07D33F
:105220003B699BB2A3F6FF73FB8301237B7707E007
:105230003B699BB2C3F57F630F33FB8300237B770E
:10524000FB8B5B08FB835B4B1B681B689B78402BCD
:1052500007D17B7F002B02D101237B7701E0002364
:105260007B777B7F012B10D1FB8A072B1AD1002380
:10527000FB83504B1B689968FA7913465B00134413
:105280005B000B4401221A700CE00023FB83494BA6
:105290001B689968FA7913465B0013445B000B4462
:1052A00001221A70FB8B4A2B70D8424B1B681B687B
:1052B000DB7803F00303BB733E4B1B689968FA79F4
:1052C00013465B0013445B000B441B7803F0400360
:1052D000002B0BD0374B1B689968FA7913465B009B
:1052E00013445B000B4401221A7040E0314B1B68F1
:1052F0009968FA7913465B0013445B000B441B78F2
:105300005BB2002B33DBBB7B032B16D1294B1B6815
:105310005968FA7913465B0013449B000B447F22C3
:105320001A72244B1B689968FA7913465B00134480
:105330005B000B4411221A7019E0BB7B022B0BD1CE
:105340001C4B1B689968FA7913465B0013445B0099
:105350000B4401221A700AE0164B1B689968FA790F
:1053600013465B0013445B000B4401221A70114B7F
:105370001B689968FA7913465B0013445B000B4481
:10538000FA8A02F0070292B29A80CAE0FB8A0133DD
:10539000FB82084B1B689968FA7913465B0013443B
:1053A0005B000B44FA8A02F0070292B29A80B8E0DE
:1053B000100000200C000020BB7E3B773B7F3A6949
:1053C00022FA03F33B61594B1B685968FA7913467B
:1053D0005B0013449B000B441B7A7F2B23D1534B60
:1053E0001B689968FA7913465B0013445B000B4411
:1053F0003A6992B25A804D4B1B685968FA79134644
:105400005B0013449B000B44197A484B1B68586897
:10541000FA7913465B0013449B00034421F04002D9
:10542000D2B21A727DE000233B771BE03F4B1B6832
:105430005968FA7913465B0013449B000B441B7AAE
:105440001A463B7F22FA03F303F00103002B04D139
:105450003B7F7B7707233B7701E000237B773B7F14
:1054600001333B773B7F062BE0D9FB799BB23A694E
:1054700092B211461846FFF713FD03467B737B7B00
:10548000002B1BD0294B1B685968FA7913465B0027
:1054900013449B000B44187A7B7F012202FA03F32A
:1054A000D9B2224B1B685C68FA7913465B0013443F
:1054B0009B00234440EA0102D2B21A727B7F002B88
:1054C00021D07B7F013B7B77184B1B685968FA79A9
:1054D00013465B0013449B000B441A7A7B7F012127
:1054E00001FA03F3DBB2DB43DBB213403B770F4B34
:1054F0001B685968FA7913465B0013449B000B4400
:105500003A7F1A720DE0094B1B689968FA791346C5
:105510005B0013445B000B4401221A7001E0FEE7BC
:1055200000BFFB7E18462437BD4690BD0C0000200E
:1055300080B582B000AF0023FB71104B1B78002BAD
:1055400002D10323FB7114E00023BB8007E0BB887A
:10555000DBB21846FFF7C6FDBB880133BB80084BA2
:105560001B681B681B88BA889A42F0D3034B02223F
:105570001A70FB7918460837BD4680BDBB3501203F
:105580000C00002080B586B000AFF8600B467A6052
:10559000FB720023FB750023FB7523E0FB7DFA689B
:1055A00022FA03F303F00103002B18D0FB7A002B3F
:1055B00007D0FB7D7A6813441B781846FFF72BFC55
:1055C0000DE0FB7D7A6813441B781846FFF73AFC20
:1055D000FB7D7A6813441B781846FFF705FCFB7DBA
:1055E0000133FB75FB7D1F2BD8D900BF1837BD4693
:1055F00080BD80B483B000AF0223FB71184B1B88C1
:10560000BB80184B1B681B681B88BA889A4217D24C
:10561000144B1B689968BA8813465B0013445B00FF
:105620000B441B7803F00103002B03D1BB8801332B
:10563000BB800AE00023FB71094ABB88138004E0A9
:105640000123FB71064B00221A80FB79022BD8D074
:10565000FB7918460C37BD465DF8047B704700BFE8
:10566000B83501200C00002080B485B000AF786010
:105670000023FB737B68002B02D10B23FB7302E03A
:10568000044A7B681360FB7B18461437BD465DF8FF
:10569000047B70471000002080B485B000AF114B30
:1056A0001A69104B5B69D31AFB600F4B1B685A6871
:1056B0000E4B1B8819460B465B000B449B001344A2
:1056C000DB7A1A4640F6FF739340BB60FB68BA680A
:1056D00013447B607B6818461437BD465DF8047B35
:1056E000704700BF002400440C000020B8350120A2
:1056F00080B485B000AF78600023FB732B4B4FF074
:1057000000621A60294B0022C3F80821284B1B684D
:105710001B689B78402B05D1244B4FF08072C3F857
:10572000082119E0224B1B681B689B78802B05D150
:105730001E4B4FF00072C3F808210DE01C4B1B6894
:105740001B689B78812B05D1184B4FF04072C3F832
:10575000082101E00223FB73FB7B002B1AD1134BC2
:105760000B225A60114BD3F80831104A43F0006302
:10577000C2F808310E4B1B681B681B790F2B06D82B
:105780000B4B1B681B681A790A4B1A7002E0094B15
:1057900000221A70054B054A1B681360FB7B1846F4
:1057A0001437BD465DF8047B704700BF00240044F9
:1057B0000C000020BA35012080B584B000AF03464C
:1057C000FB800023FB73974BD3F80831BB60954BEC
:1057D0001B68944A43F00063136000237B7300232B
:1057E0003B730023BB73904B1B685968FA881346C0
:1057F0005B0013449B000B445B688C4A01211846F4
:10580000FFF7C0FE0023FB731FE0874B1B6859683E
:10581000FA8813465B0013449B000B445A68FB7BD9
:10582000012101FA03F31340002B0BD0BB7B5A1C60
:10583000BA731A467E4B53F82230FA7B1A703B7BC0
:1058400001333B73FB7B0133FB73FB7B072BDCD901
:105850000023BB730023FB731FE0734B1B68596865
:10586000FA8813465B0013449B000B441A68FB7BC9
:10587000012101FA03F31340002B0BD0BB7B5A1C10
:10588000BA731A466B4B53F82230FA7B1A707B7B43
:1058900001337B73FB7B0133FB73FB7B072BDCD971
:1058A0007B7B002B01D101237B733B7B013B1B02E4
:1058B00003F47C527B7B013B1B0603F07C531A43B1
:1058C0003B7B9B01DBB21A437B7B9B0503F44003CC
:1058D00054491343C1F80431524B1B68514A43F4F5
:1058E00000231360504B1B689968FA8813465B00CD
:1058F00013445B000B449B881B0403F4E022BB6849
:10590000134343F0006343F40023BB60464B1B6822
:105910009968FA8813465B0013445B000B441B78BC
:1059200003F00203002B0AD03F4B1B689968FA88EA
:1059300013465B0013445B000B4405221A703A4B7C
:105940001B685968FA8813465B0013449B000B449C
:105950001B7AFB73FB7B7E2B0BD8FB7B03F07F0258
:10596000FB7B1B0203F4FE431343BA681343BB6083
:105970000CE0FB7B7F3303F07F02FB7B7F331B025A
:1059800003F4FE431343BA681343BB60264B1B6802
:105990005968FA8813465B0013449B000B44DB7A7A
:1059A0001A46254B9B5C03F07F031E4A43F0784365
:1059B000C2F800311B4B214AC3F80C21194BD3F814
:1059C0000C211F4B1B789B00143303F07F031549F8
:1059D0001343C1F80C31BB6843F08063BB60114ACC
:1059E000BB68C2F808310F4BD3F808310D4A43F0B9
:1059F0008043C2F808310B4B1B680A4A43F400236A
:105A00001360084B1B68074A43F000431360054BC3
:105A10001B68044A43F08073136000BF1037BD4613
:105A200080BD00BF002400440C0000207812030158
:105A30003C3D0120583D012080120301000101007E
:105A4000BA35012080B584B000AF7860396000239A
:105A5000FB730023BB733B68002B02D10B23FB734A
:105A60005CE07B68002B02D10B23FB7356E02E4BCE
:105A70001B78002B02D10323FB734FE02A4B1B78CA
:105A8000042B02D10123FB7348E0FFF7F2F9034630
:105A9000002B02D00123FB7340E07B681B685B791D
:105AA000002B02D10223FB7338E07B681B685B7913
:105AB000072B02D90223FB7330E02620FFF74CF9B5
:105AC0001A4B1B681B685B7919462620FFF762F9A1
:105AD0002620FFF723F9154A7B681360144A3B68B8
:105AE0001360124B1B681846FFF702FE114B002291
:105AF0001A80FFF77EFD0346BB73BB7B002B08D1EA
:105B0000094B04221A700B4B1B881846FFF754FEF2
:105B100004E00223FB73044B02221A70FB7B18463D
:105B20001037BD4680BD00BFBB3501200C000020F2
:105B3000BC350120B835012090B583B000AF234BB0
:105B40001A68234B1B889B00D418FFF7A5FD03465A
:105B50002360204B1B681F4A23F0004313601E4B39
:105B60001B685A681A4B1B8819460B465B000B448E
:105B70009B0013445B68194A00211846FFF702FD99
:105B8000174B1B78012B02D0022B1AD01AE0104BB6
:105B90001B8801339AB20E4B1A80FFF72AFD034689
:105BA000FB71FB79002B08D1094B1B881846FFF7C6
:105BB00003FE0C4B04221A7004E00B4B1B68984741
:105BC00000E000BF00BF0C37BD4690BD10000020B4
:105BD000B8350120002400440C0000207812030195
:105BE000743D0120BB350120BC35012080B485B057
:105BF00000AF78600B467B800023FB737B68002B33
:105C000002D10B23FB7312E07B681B681B887A8828
:105C10009A4202D30223FB7309E07B6899687A8871
:105C200013465B0013445B000B4401221A70FB7B9C
:105C300018461437BD465DF8047B704780B483B0C6
:105C400000AF0023FB71074B9B6803F00203002B9E
:105C500001D00123FB71FB7918460C37BD465DF876
:105C6000047B70470024004480B500AF2620FFF776
:105C700073F800BF80BD80B400AF074B00221A70DC
:105C8000064B1B68054A23F00043136000BFBD4666
:105C90005DF8047B704700BFBB3501200024004441
:105CA00080B400AF3E231846BD465DF8047B7047C4
:105CB00080B400AF11231846BD465DF8047B7047E1
:105CC00008B5044B186818B1804780F00100C0B2D5
:105CD00008BD00BF1427012009B91046704780B1E4
:105CE000037883EA122383EA131343EA022282EA47
:105CF000033282EA431292B200B10130013989B213
:105D0000EAE7FF23EDE72DE9F04F85B081460E9ECF
:105D10008A46904606B11E4443449CB247465546C7
:105D2000A74203D1012005B0BDE8F08F95B36A46C4
:105D30001023294648460EF097FCBDF804209442F3
:105D400008D9BDF8063013449BB29F4202D29C4250
:105D500003D91F46BDF80A50E8E79742A4EB0201B9
:105D600028BFE31B89B234BF0B469BB2A4EB0304EC
:105D700032BFBDF80AB04746D346A4B246B110358B
:105D80002944F61AC91A324689B248460EF06CFC0C
:105D90005D46C5E72846C6E72DE9F74FD4889688C3
:105DA000DFF8588082468B4644F307254FF6FF778D
:105DB000002D03DA384603B0BDE8F08F1AD0A4F501
:105DC00080741FFA84F94FF48074CDF80080234664
:105DD000324659465046FFF796FF38B13A462146BB
:105DE0004046FFF779FF2644B6B20746013D6DB243
:105DF0004C46DDE7002CDDD0A146E6E71827012060
:105E000010B5094C94F804010EF0CCFC4FF400528C
:105E1000002194F804010EF0EFFC18B14FF48073E8
:105E2000A4F8063110BD00BF142701202DE9F04170
:105E3000094C05460E46174613460A46014694F895
:105E400004010EF047FC3B463246294694F8040113
:105E5000BDE8F0410EF01EBD1427012003292CD807
:105E6000DFE801F002091B23184BB3F806211044A8
:105E7000A3F806017047154AB2F80631184480B2FB
:105E8000C11C4FF6FC730B40984203D90430A2F8B2
:105E900006017047A2F8063170470C4AB2F8063185
:105EA0000F33184420F00F00F1E7084AB2F806312A
:105EB0003F33184420F03F00E9E74FF0200383F31D
:105EC0001188BFF36F8FBFF34F8FFEE714270120B8
:105ED0004FF0200383F31188BFF36F8FBFF34F8F11
:105EE000FEE770B50C4A92F808410023D9B28C4203
:105EF00001D800200BE05D1C9B00D118B1F80961AE
:105F0000864207D1B1F80B2112B10448184470BD84
:105F1000FFF7DEFF2B46E9E7142701201D280120AB
:105F200008B5FFF7DEFF00B1408808BD10B5044694
:105F3000FFF7D7FF40B14FF0200383F31188BFF381
:105F40006F8FBFF34F8FFEE7094B93F808010206EE
:105F500001D5FFF7BDFF421C83F8082103EB800247
:105F600003F20913A2F8094103EB800010BD00BF42
:105F70001427012008B5FFF7B4FF08B9FFF7A8FF01
:105F8000064A92F80831013BDBB282F8083102EB95
:105F90008303D3F80931036008BD00BF1427012033
:105FA0002DE9F041244CB4F80A33B4F80C630344EF
:105FB0009BB204F20E37FF2B0546A4F80A3307EB19
:105FC000060004F104080AD82A46414635442BF05D
:105FD0009FFD0126A4F80C533046BDE8F081C6F5BC
:105FE000807241462BF094FD4FF480723946B4F82C
:105FF0000601FFF71BFF06460028EDD000214FF4F5
:106000008070FFF72BFFB4F80A53B4F80C13A5F512
:1060100080750023ADB2A4F80C33A4F80A53002D08
:10602000DAD0C1F580712A4618FA81F138462BF092
:106030006FFDA4F80C53CFE7142701207FB545F27C
:106040004143ADF806300D4BCDE902300C4BC04357
:10605000B3F80E3404904FF6FF7210210DF10600D4
:10606000ADF81430FFF738FE1222ADF8040001A994
:106070000020FFF7DBFE07B05DF804FB534E7632DD
:10608000142701202DE9F04F724C94F8047100257B
:106090008FB0122309AA29463846A4F81054A4F850
:1060A0001254A4F80C53A4F80A530EF0DDFA0B9B1B
:1060B000039394F804310133DBB2012B94BF84F8CD
:1060C000043184F8045194F80431BB4208D14FF0F4
:1060D000200383F31188BFF36F8FBFF34F8FFEE769
:1060E000FFF78EFE0028E4D04FF0000ADFF8708141
:1060F00080E004EB8A091023B9F80BB105AA5946D0
:1061000038460EF0B1FA0026BDF81C50ADF81A5012
:1061100005AA59463846ADF81860ADF81E60ADF8CE
:106120002060FFF739FE4FF6FF72ADF814000E2124
:1061300005A8FFF7D1FDF022ADF82200FF21464867
:106140002CF02AFA05AB03CB1035C8F80000C8F8CC
:106150000410B4F80C2303CBB4F80631C8F80800D7
:10616000ADB21344B5F5807FC8F80C10A9F80B3117
:1061700019D8394B00933246BDF81C305946384681
:10618000FFF7C1FD50B1B4F80631B4F80C23134445
:10619000A9F80B312846FFF703FF38BB002420463F
:1061A0000FB0BDE8F08F1023B5F5807F2A4628BFD9
:1061B0004FF48072A2EB03091FFA89F9434402925B
:1061C000009332464B4659463846FFF79CFD00285F
:1061D000E4D00298FFF7E4FE0028DFD0029BED1A1E
:1061E0004E44ADB2B6B20023002DDDD10AF1010359
:1061F0005FFA83FA94F8083153453FF67AAFB4F862
:106200000A23FAB9B4F80A030021FFF727FEB4F80D
:106210000631A4F80E34039B581EFFF70FFF044607
:106220000028BBD002210020FFF718FE1222FF2118
:1062300009A82CF0B1F9122309AA002138460EF062
:1062400049FAACE70549B4F80601FFF7EFFD00286D
:10625000D8D1A3E71427012028270120222A0120D2
:106260001827012008B50A4BB3F80631C3F50053CF
:106270009BB283420BD2FFF705FF40B94FF02003DA
:1062800083F31188BFF36F8FBFF34F8FFEE708BD15
:10629000142701202DE9F84F344E0446351D894658
:1062A0004FF48072FF2128462CF076F9E1884FF6F2
:1062B000FF724846FFF710FD4FF6FF7220800E2157
:1062C0002046FFF709FD2346E08103CB706069603B
:1062D00003CBA860E960E28802F11007BFB2B9F110
:1062E000000F07D0B7F5807F17D8494606F1140094
:1062F0002BF00EFCE2881E49B6F80601F02A28BFF2
:10630000F022103292B2FFF791FD8046E088103003
:10631000022180B2FFF7A2FD25E04FF0000B102014
:10632000B7F5807F3C4628BF4FF48074A4EB000A89
:10633000524609EB0B0128442BF0EAFB22460C499C
:10634000B6F80601FFF772FD804660B120460221D3
:106350003F1BFFF783FDBFB20BEB0A031FFA83FB62
:106360000020002FDCD14046BDE8F88F1427012023
:10637000182701202DE9F041674C00258EB084F8E4
:1063800008514FF0FF38FF27122304AA00212846A6
:106390000EF06AF9DDE906637340013326D19DF8FA
:1063A0001230412B22D19DF81330542B1ED19DF871
:1063B0001430532B1AD19DF815304E2B16D19DF861
:1063C0001630762B12D19DF81730322B0ED14FF6A6
:1063D000FF7210210DF11200FFF77EFCBDF81030A6
:1063E000834203D146453CBFB0462F46E5B1FF2F5F
:1063F0002CD1002384F804314FF6FF766FF00105AD
:10640000FFF7FEFC90B994F804310133DBB2012BA5
:1064100084F80431F4D94FF0200383F31188BFF3DB
:106420006F8FBFF34F8FFEE70125ADE72846A4F835
:106430000E64FFF703FE0028E5D0002384F808313E
:10644000012384F814340EB0BDE8F0814FF480735A
:10645000A4F806313846122309AA002184F80471F1
:106460000EF002F94FF6FF77B4F80631B3F5005F8E
:10647000E6D2BDF83420BA4201D09A4217D80221A0
:106480000020FFF7EBFC022510236A46B4F8061142
:1064900094F804010EF0E8F86A46102312F8011B84
:1064A000FF291ED1013B9BB2002BF7D1C8E7002585
:1064B000EAE729461020FFF7D1FCD5E7BDF80260D6
:1064C0003046FFF70EFD10B93046FFF72FFDB4F848
:1064D00006314380BDF80830BBB93046FFF74AFDAE
:1064E00013E03A460E216846FFF7F6FBBDF80E6052
:1064F0008642DED16A46B4F8061194F80401FFF72B
:106500004BFCBDF800308342D8D0BDF806001030F7
:10651000294680B2CFE700BF14270120034B93F830
:1065200014340BB9FFF726BF704700BF14270120B2
:106530002DE9FF478A4616469846054630B12BB1ED
:10654000FFF7BEFB044650B1052045E04FF02003A5
:1065500083F31188BFF36F8FBFF34F8FFEE706F110
:10656000100080B2FFF77EFE2846FFF7BAFC074610
:10657000A8B3B0F802901D4D10236A46494695F81D
:1065800004010EF071F8BDF808300AEB06029A42D9
:1065900027D8B34218BFBDF80C40ADF804A01CBF0B
:1065A0000134A4B241466846ADF80C40ADF806602F
:1065B000ADF80A90B5F80641FFF76CFE98B1BDF84A
:1065C0000C307C80642B4FF0000005D9BDF8023000
:1065D000A5F81034A5F8120404B0BDE8F087032034
:1065E000FAE70420F8E70120F6E700BF14270120AE
:1065F00073B50C4615461E46C0B1BBB1FFF790FC03
:1066000080B16319B3F5803F09D201460C4800966A
:106610002B46224690F80401FFF775FB20B90420B1
:1066200002B070BD0320FBE70020F9E74FF0200324
:1066300083F31188BFF36F8FBFF34F8FFEE700BF67
:10664000142701201FB540B94FF0200383F31188B0
:10665000BFF36F8FBFF34F8FFEE7FFF761FC48B1C9
:1066600001460648102390F804016A460DF0FCFF2D
:10667000BDF8080005B05DF804FB00BF1427012039
:106680002DE9F04F431E14469BB24FF6FD72934224
:106690008BB080460E461DD8B1F5006F1AD8FFF7B3
:1066A0003FFC00BBFFF70CFB054648BB06F11000A2
:1066B00080B2FFF7D7FD8D4B93F90821002A80F2B5
:1066C000F7804FF0200383F31188BFF36F8FBFF380
:1066D0004F8FFEE74FF0200383F31188BFF36F8FD6
:1066E000BFF34F8FFEE74046FFF7ACFF86420FD067
:1066F0007E4DA5F81084A5F81264FFF7E1FA08B101
:1067000005200EE0B5F8120470B9B5F810347BB965
:10671000002C00F0E6802346324600214046FFF779
:1067200067FF0BB0BDE8F08F103080B2FFF79AFD25
:10673000B5F81004FFF7D5FB81460028E8D0B0F883
:1067400002B095F80401102306AA59460DF08CFFFB
:10675000B5F81234EBB9BDF82000103080B2FFF765
:1067600081FDB5F81004FFF7BCFB814640B94FF03E
:10677000200383F31188BFF36F8FBFF34F8FFEE7C2
:10678000B0F802B095F80401102306AA59460DF09E
:106790006BFFB5F81224B5F806310493BDF820302C
:1067A00022B19342ADF8202028BF13460022BDF845
:1067B0002010ADF81C20ADF81E10ADF82220ADF869
:1067C00024200DF1180CBCE80300DFF824A1686058
:1067D00003F11007CAF80410BCE80300BFB2B7F514
:1067E000807FCAF80800CAF80C1030D80AF11001EE
:1067F000009195F804015946FFF785FA002872D0F8
:1068000006AB03CBBDF81E206860CAF8041003CBAA
:106810001032CAF80800CAF80C1092B25146B5F806
:106820000601FFF703FB00283FF472AFBDF81E001E
:106830001030022180B2FFF711FB2C4B0022A3F88D
:106840001024A3F81224049BA9F8023060E715462F
:106850001023CDF814A0B7F5807FBA4628BF4FF4B7
:10686000807AAAEB030292B20392059A1F4813445E
:1068700000932A46039B90F804015946FFF743FA18
:1068800088B31B495246B1F80201FFF7CFFA00283E
:106890003FF43EAF02215046FFF7E0FA039BA7EB1F
:1068A0000A072B44BFB29DB20023002FD3D1C4E707
:1068B000214606A8B3F80671ADF81A80ADF81C5051
:1068C000ADF81E60ADF82060ADF82250ADF8245050
:1068D000FFF7E0FC38B14046FFF728FB4780022075
:1068E0001FE720461DE701201BE700BF14270120FA
:1068F00018270120F0B5074685B040B94FF02003B6
:1069000083F31188BFF36F8FBFF34F8FFEE7FFF75D
:1069100007FB00283FD0FFF7D3F9044600283CD1FD
:106920001020FFF79FFC4FF6FF720E216846ADF86E
:106930000020ADF80270CDE90144ADF80C40FFF73E
:10694000CBF96B46ADF80E0003CB154D6860A9601E
:1069500003CB2E1DE860296110223146B5F80601EF
:10696000FFF764FA68B91022B5F8061195F804012A
:106970000DF042FF18B902211020FFF76FFA012035
:1069800007E002211020FFF769FA3846FFF7F2FA14
:10699000204605B0F0BD0320FBE70520F9E700BF66
:1069A00014270120F8B50446FFF78AF9054668BBAD
:1069B00064B10DF0F7FE01200DF0F4FE4FF400720B
:1069C000294613482BF0E8FD002020E0114D95F8F2
:1069D0000871E3B29F420CD8FFF754FB0028F3D1B3
:1069E0004FF0200383F31188BFF36F8FBFF34F8FF6
:1069F000FEE705EB8403B3F80961304605F0BAFA07
:106A000010B93046FFF7B6FA0134E2E70520F8BDC9
:106A10001D28012014270120014B1860704700BF7A
:106A20001427012008B5FFF77BFA003018BF0120BA
:106A300008BD08B5FFF726FB40B94FF0200383F3EC
:106A40001188BFF36F8FBFF34F8FFEE708BD00BF04
:106A500080B582B000AF78609422002178682BF076
:106A60009BFD7B6817229A8000BF0837BD4680BD1A
:106A700080B485B000AF0346FB800023FB731EE0AB
:106A8000FB7B144A942101FB03F3134401331B786D
:106A9000012B11D1FB7B0F4A942101FB03F313441B
:106AA00002331B88FA889A4206D1FB7B942202FBB0
:106AB00003F3084A134406E0FB7B0133FB73FB7BC3
:106AC000072BDDD9002318461437BD465DF8047B3B
:106AD000704700BF6C22012080B483B000AF002358
:106AE000FB711CE0FB79134A942101FB03F313446F
:106AF00001331B78002B0FD1FB790E4A942101FB47
:106B000003F31344013301221A70FB79942202FB30
:106B100003F3084A134406E0FB790133FB71FB7968
:106B2000072BDFD9002318460C37BD465DF8047BE0
:106B3000704700BF6C22012080B5C2B000AF3B1D82
:106B400018603B1D1B68DB79002B5DD01B2387F889
:106B50000431A723BB810523FB8107F1080307F15B
:106B60000C0204321A6007F108031B6800221A7035
:106B700007F108031B685A1C07F108031A6007F1A4
:106B800008031B6814221A7007F108031B685A1CBB
:106B900007F108031A603B1D1B689B881B0A9AB209
:106BA00007F108031B68D2B21A703B1D1B689A8854
:106BB00007F108031B680133D2B21A7007F108030A
:106BC0001B689A1C07F108031A6007F108031B6889
:106BD0003A1D1268D2791A7007F108031B685A1C13
:106BE00007F108031A603B1D1B685B8807F10C0264
:106BF0001146184627F066F90346002B05D13B1DC8
:106C00001B680022DA7100E000BF07F58477BD46FB
:106C100080BD80B588B000AFF8607B600B46FB722A
:106C200013463B81FB681B7C0F2B5FD80023FB6165
:106C300007F110030C22002118462BF0ADFC3B8914
:106C400018460DF044F8F861FB69002B0CD10823BD
:106C50003B74284B1B68002B47D0264B1B6807F161
:106C600010021046984741E03B891A467968F86956
:106C70002AF04EFFFB685B7CFA680233DB001344AA
:106C8000FA7A1A71FB685B7CFA680233DB00134402
:106C90003A89DA80FB685B7CFA680233DB001344D4
:106CA000FA699A60FB685B7C0133DAB2FB685A745C
:106CB000FB685B7C0F2B02D9FB6800225A74FB68CF
:106CC0001B7C0133DAB2FB681A7405233B74FB6842
:106CD0005B88BB82074B1B68002B07D0054B1B68EA
:106CE00007F110021046984700E000BF2037BD466C
:106CF00080BD00BF6822012080B582B000AF7860FF
:106D00007B68DB68002B0AD07B68DB6818460CF0D8
:106D1000EAFF7B680022DA607B6800225A7200BFBB
:106D20000837BD4680BD80B483B000AF0023FB713F
:106D300024E0FB79164A942101FB03F31344013349
:106D40001B78012B0BD1FB79114A942101FB03F332
:106D5000134407331B780C2B01D9012312E0FB7974
:106D60000B4A942101FB03F313440C331B68002BE3
:106D700001D0012306E0FB790133FB71FB79072B7E
:106D8000D7D9002318460C37BD465DF8047B704701
:106D90006C22012080B588B000AF0346FB80FB88E1
:106DA0001846FFF765FEF861FB69002B0CD107233D
:106DB0003B73254B1B68002B42D0234B1B6807F10C
:106DC0000C02104698473BE0FB69DB68002B2CD097
:106DD000FB695B7A012B10D1FB695A88FB69DB6880
:106DE0001946104627F0DEF803467B837B8B002B89
:106DF0001BD1F869FFF780FF17E0FB695B7A022B74
:106E000010D1FB695A88FB69DB681946104627F0E8
:106E100091F803467B837B8B002B06D1F869FFF743
:106E20006BFF02E0F869FFF767FFFB695B78012BF6
:106E300006D1FB69DB790C2B02D9F869FFF77CFEE0
:106E40002037BD4680BD00BF6822012080B483B0DA
:106E500000AF7860044A7B68136000BF0C37BD4602
:106E60005DF8047B704700BF6822012080B582B0C6
:106E700000AF082200210E482BF08EFB0023FB718F
:106E80000BE0FB79942202FB03F30A4A13441846F1
:106E9000FFF7DEFDFB790133FB71FB79072BF0D99E
:106EA00021F054F8034618460837BD4680BD00BFA0
:106EB0000C2701206C22012080B586B000AF3B601A
:106EC0000346FB800B467B7113463B71FB881846DB
:106ED000FFF7CEFD78617B69002B01D1012338E0FB
:106EE0007B791F2B01D8032333E03A797B699B8898
:106EF000043B9A4201D903232BE0FA200CF0E7FE71
:106F000038613B69002B23D03B69A7221A803B796B
:106F10009BB201339AB23B695A803B697A791A7104
:106F20003B6905333A79396818462AF0F1FD3B6927
:106F30001B2283F8F8207B695B883969184626F0A4
:106F4000C1FF0346FB8138690CF0CDFEFB8900E0F0
:106F5000022318461837BD4680BD80B5C2B000AFC9
:106F60003B461A60BB1D02461A803B1D0A461A802A
:106F7000BB1D1B881846FFF77BFDC7F80401D7F837
:106F80000431002B01D1012360E0D7F804311B78D4
:106F9000012B01D0052359E0D7F804319B7903F088
:106FA0000103002B06D0D7F804311B7A002B01D146
:106FB00004234BE0FFF7B7FE0346002B01D0042368
:106FC00044E03B1D1A88D7F804319B88033B9A4262
:106FD00001D901233AE007F10803A2221A8007F140
:106FE00008033A1D12885A8007F108035B88194686
:106FF0003B4607F10802101D0A4619682AF088FD71
:1070000007F108031B2283F8F820D7F804315B88C6
:1070100007F108021146184626F054FF0346A7F868
:107020000231B7F80231002B0ED1D7F804319B7929
:1070300003F00103002B07D0D7F804311B7A013B82
:10704000DAB2D7F804311A72B7F80231184607F5E8
:107050008477BD4680BD80B584B000AF03463960FB
:10706000FB800023FB60FB881846FFF701FDF860FA
:10707000FB68002B11D0FB681B7C002B09D0FB6840
:107080009B7CFA680233DB001344DA883B681A8081
:1070900006E03B6800221A8002E03B6800221A806A
:1070A00000BF1037BD4680BD80B584B000AF034639
:1070B0003960FB800023FB600023FB72FB881846CD
:1070C000FFF7D6FCF860FB68002B65D0FB681B7CE3
:1070D000002B5FD0FB689B7CFA680233DB00134413
:1070E0009B68002B23D0FB689B7CFA680233DB0093
:1070F00013449968FB689B7CFA680233DB001344F5
:10710000DB881A4638682AF003FDFB689B7CFA6826
:107110000233DB0013449B6818460CF0E4FDFB6867
:107120009B7CFA680233DB00134400229A60FB6800
:107130009B7CFA680233DB0013441B79FB72FB680B
:107140009B7C0133DAB2FB689A74FB689B7C0F2B43
:1071500002D9FB6800229A74FB681B7C013BDAB2FF
:10716000FB681A74FB689B7903F00203002B0FD0B5
:10717000FB7A522B0CD1FB68DB790133DAB2FB6866
:10718000DA71FB68DB790C2B02D9F868FFF7D4FCC5
:10719000002302E0012300E0012318461037BD461A
:1071A00080BD80B586B000AF7860396007F1080314
:1071B0000C22002118462BF0EFF93B681B789AB29D
:1071C0003B6801331B789BB21B029BB213449BB2FA
:1071D000FB82FB8A012B03D17B6801221A7008E035
:1071E000FB8A002B03D17B6800221A7001E0802308
:1071F00012E002233B727B685B88BB817B681B7853
:10720000BB73074B1B68002B05D0054B1B6807F1B0
:10721000080210469847002318461837BD4680BD1F
:107220006822012080B584B000AFF8607B600B4617
:10723000FB7213463B813A89F97A7B68F868FFF75D
:10724000E8FC00BF1037BD4680BD80B588B000AFF8
:10725000F8600B467A607B8107F114030C22002151
:1072600018462BF099F97B681B78142B02D0152B4C
:107270001DD03CE0FB689B7943F00203DAB2FB6867
:107280009A71FB681022DA71F868FFF755FC284BF9
:107290001B68002B43D003233B75FB685B883B8353
:1072A000234B1B6807F114021046984737E0FB6830
:1072B0009B7943F00103DAB2FB689A71FB681A7A92
:1072C0007B6801331B781344DAB2FB681A72184BDF
:1072D0001B68002B25D004233B75FB685B883B8330
:1072E000134B1B6807F114021046984719E07B689E
:1072F0001B781F2B17D90E4B1B68002B13D00623AE
:107300003B75FB685B883B837B897B837B68FB6188
:10731000074B1B6807F114021046984703E000BFB3
:1073200002E000BF00E000BF00BF2037BD4680BDC7
:107330006822012080B586B000AF7860396007F11F
:1073400008030C22002118462BF026F93B681B7815
:107350009AB23B6801331B789BB21B029BB2134469
:107360009BB2FB82FB8A002B04D0FB8A012B01D04D
:10737000802317E00D4B1B68002B12D001233B72BA
:107380007B685B88BB81FB8A012B02D10123BB7325
:1073900001E00023BB73054B1B6807F10802104690
:1073A0009847002318461837BD4680BD6822012043
:1073B00080B590B000AF7860002387F83F3000239D
:1073C000BB6300237B6300233B637B68DB88A02BCC
:1073D00040F2DF807B68DB88A82B00F2DA807B68D4
:1073E0009B881846FFF744FBB863BB6B002B02D1A8
:1073F000802387F83F307B681B7A162B02D1062347
:1074000087F83F3097F83F30002B3AD17B68DB8814
:10741000A33B052B37D801A252F823F035740001A5
:107420008774000149740001877400015D740001D4
:107430006F7400017B680E331946B86BFFF7B1FE1D
:10744000034687F83F301FE07B68197A7B689A898A
:107450007B680E33B86BFFF7E5FE15E07B68998912
:107460007B680E331A46B86BFFF7EFFE0CE07B68C3
:107470000E331946B86BFFF75DFF034687F83F30C0
:1074800002E000BF00E000BF7B681B7A122B03D034
:107490007B681B7A162B7DD1BB6BDB68002B0DD074
:1074A000072387F820303D4B1B68002B72D03B4BE5
:1074B0001B6807F12002104698476BE097F83F30B1
:1074C000002B2ED1FA200CF002FC0246BB6BDA60D6
:1074D000BB6BDB68002B0CD108233B752F4B1B6863
:1074E000002B57D02D4B1B6807F11402104698470C
:1074F00050E0BB6BDB687B637B6B13221A70BB6B4A
:1075000001225A727B689B88796B184626F04AFDE7
:107510000346FB85FB8D002B3CD1B86BFFF7ECFBE2
:1075200038E004200CF0D3FB0246BB6BDA60BB6B87
:10753000DB68002B0CD108233B72184B1B68002B17
:1075400028D0164B1B6807F108021046984721E027
:10755000BB6BDB683B637B681A7A3B6B1A707B689A
:10756000DA883B6B5A803B6B97F83F205A70BB6BB5
:1075700002225A727B689B88396B184626F0DAFC27
:107580000346FB85FB8D002B04D1B86BFFF7B4FBE2
:1075900000E000BF4037BD4680BD00BF682201202B
:1075A00080B584B000AF78600023FB607B681B78F7
:1075B0000D2B16D00E2B02D00B2B0ED014E07B68B7
:1075C0009B881846FFF754FAF860FB68002B0AD036
:1075D0007B68DA88FB689A8006E07868FFF7E8FE47
:1075E00002E000BF00E000BF00BF1037BD4680BD15
:1075F00080B588B000AF78607B681B78012B1FD006
:10760000092B64D0002B68D17B689B78002B66D156
:10761000FFF762FAF861FB69002B0CD107233B737B
:10762000324B1B68002B5DD0304B1B6807F10C02FE
:107630001046984756E07B689A88FB695A804EE06E
:107640007B685B881846FFF713FAB861BB69002BAB
:1076500047D02DE0BB699B7CBA690233DB00134441
:107660009B68002B11D0BB699B7CBA690233DB009D
:1076700013449B6818460CF036FBBB699B7CBA69C7
:107680000233DB00134400229A60BB699B7C013308
:10769000DAB2BB699A74BB699B7C0F2B02D9BB69B8
:1076A00000229A74BB691B7C013BDAB2BB691A7475
:1076B000BB691B7C002BCDD1BB69DB68002B02D0E2
:1076C000B869FFF719FBB869FFF7C2F909E07B68F1
:1076D0005B881846FFF75EFB04E000BF02E000BFD6
:1076E00000E000BF2037BD4680BD00BF68220120FA
:1076F00080B582B000AF78607B681B78012B02D028
:10770000042B06D00BE07B685B681846FFF770FF20
:1077100005E07B685B681846FFF742FF00BF00BFCB
:107720000837BD4680BD00BF80B400AF304B314A42
:107730001A602F4B4FF6A0029A812D4B4FF4403226
:107740005A6000BF2A4BDB69002BFBD1284B1B681A
:10775000274A43F00203136000BF254BDB69002B6F
:10776000FBD1254B00221A62234B00229A62224B46
:107770000022DA62204B002283F834201E4B0022C4
:1077800083F83C201C4B00229A631B4B0022DA87B3
:10779000194B00221A60184B00229A60164B0022E7
:1077A000DA60154B00221A75134B00221A77124B20
:1077B00000229A610E4B5B6803F00703012B06D091
:1077C0000D4B80221A630C4B80221A6105E00A4B94
:1077D00040221A63084B40221A61054B80229A7599
:1077E000034B04229A7500BFBD465DF8047B7047C9
:1077F000000C0040040110402C2B012080B400AF8D
:10780000024B1846BD465DF8047B70470090D003DC
:10781000F0B587B000AF786039600023FB750023B6
:107820003B610023FB607B68002B00F0EE807B68EF
:107830001B68002B00F0E9803B68002B02D1FFF7AA
:10784000DDFF38607B681B681B013A689A421AD3D7
:107850007B681B684FF000044FF000004FF0000100
:10786000210541EA133118053B684FF000041A4620
:10787000234627F079FF03460C46C3F580333B616E
:107880000023FB6051E07B681B68DB003A689A428A
:107890001AD37B681B684FF000044FF000004FF0D4
:1078A0000001E10441EA5331D8043B684FF0000481
:1078B0001A46234627F058FF03460C46C3F580338B
:1078C0003B610223FB6030E07B681A6813465B0073
:1078D00013443A689A4228D37B681B6819464FF0D4
:1078E00000020B461446DD1844EB04062B463446D2
:1078F0005B1842EB04044FF000014FF00002220439
:1079000042EA134219040B461446184621463B68C6
:107910004FF000041A46234627F026FF03460C4684
:10792000C3F580333B610423FB603A4B1B68394A43
:1079300023F00203136000BF364BDB69002BFBD141
:10794000344B3A6992B29A817B685B68022B18D1FA
:10795000304B1B6823F0706323F46043FA685203D2
:1079600092B22C4913430B602A4B5B6823F0470209
:107970007B6899687B68DB680B43264913434B603F
:107980001EE0244B1B6823F0706323F46043FA6805
:10799000520392B213431F4A43F0807313601D4B8E
:1079A0005B6823F4015323F007037A6892681A4353
:1079B0007B68DB681A437B685B68164913434B603E
:1079C00000BF144BDB69002BFBD1124B1B68114A23
:1079D00043F00203136000BF0E4BDB69002BFBD1A9
:1079E0000C4B5B6803F00703012B06D00A4B802287
:1079F0001A63094B80221A6105E0074B40221A6383
:107A0000054B40221A610123FB75FB7D18461C378C
:107A1000BD46F0BD000C00402C2B012080B400AF0F
:107A20000A4B1B6803F00203002B0AD1074B1B68AB
:107A3000064A43F00203136000BF044BDB69002BCE
:107A4000FBD100BFBD465DF8047B7047000C0040D1
:107A500080B400AF0A4B1B6803F00203002B0AD06E
:107A6000074B1B68064A23F00203136000BF044B58
:107A7000DB69002BFBD100BFBD465DF8047B70477E
:107A8000000C004080B483B000AF0023FB800B4BA0
:107A900080221A76094B07225A8302E0074B9B6A21
:107AA000FB80064B1B7EDBB203F00403042BF5D0F6
:107AB00000BF0C37BD465DF8047B7047000C0040EA
:107AC00080B483B000AF064BDB8FFB80044B0022F9
:107AD000DA87FB8818460C37BD465DF8047B704793
:107AE0002C2B012080B586B000AF0346FB8000231D
:107AF000FB742D4B9B6A01337B612B4B1B6B7A69AB
:107B00009A4201D300237B61274BDB6A7A699A4250
:107B100016D1254B1B6A002B12D0234B5B6AFB60EE
:107B2000214B1B6AF968012098471F4B9B6A013360
:107B30007B611D4B1B6B7A699A4201D300237B61E9
:107B4000194BDB6A7A699A4228D0184B5B6803F0BC
:107B50000703012B0AD0144B9B6ABB60FB88D9B288
:107B6000134ABB6813440A461A7012E00E4B9B6A14
:107B70005B00BB60FB88D9B20D4ABB6813440A4660
:107B80001A70FB881B0A9AB2BB680133D1B2084A4B
:107B9000D154054A7B6993620123FB74FB7C184630
:107BA0001837BD4680BD00BF2C2B0120000C0040C3
:107BB0006C2B012080B582B000AF174B93F83430A6
:107BC000DBB2002B24D000F08DF87860124B1B6ADA
:107BD000002B1DD0104B5B6A3B600F4B93F83C3081
:107BE000DBB2002B0AD00C4B9B6B7A689A420FD306
:107BF000094B1B6A39680020984709E0064B9B6BCC
:107C00007A689A4204D1044B1B6A3968002098476D
:107C100000BF0837BD4680BD2C2B012080B489B041
:107C200000AF786039600023FB612B4BDB6ABB61DE
:107C3000294B9B6A7B613FE0BA697B699A4240D0DD
:107C4000264B5B6803F00703012B0FD07A68FB69B2
:107C500013442349BA690A441278D2B21A70FB69F4
:107C60000133FB61BB690133BB611EE0BB695B0093
:107C70003B61FB695B00FB607A68FB681344184951
:107C80003A690A441278D2B21A703B695A1CFB68EE
:107C9000013379680B4412498A5CD2B21A70BB690D
:107CA0000133BB61FB690133FB610B4B1B6BBA6991
:107CB0009A4201D30023BB61FA693B689A42BBD365
:107CC00000E000BF044ABB69D362FB691846243751
:107CD000BD465DF8047B70472C2B0120000C004052
:107CE0006C2B012080B485B000AF0E4BDB6ABB600B
:107CF0000C4B9B6A7B607A68BB689A4204D37A68B3
:107D0000BB68D31AFB6006E0064B1A6BBB68D31A3C
:107D10007A681344FB60FB6818461437BD465DF86B
:107D2000047B70472C2B012098B500AF044B1C6BD3
:107D3000FFF7D8FF0346E31A013B184698BD00BF82
:107D40002C2B012080B400AF034B1B6B013B18466A
:107D5000BD465DF8047B70472C2B012080B485B0B4
:107D600000AF03460A46FB711346BB71094B93F8FB
:107D70003430FB73074AFB7982F83430054ABB790B
:107D800082F83C30FB7B18461437BD465DF8047B17
:107D9000704700BF2C2B012080B483B000AF786007
:107DA0007B68002B02D0044A7B68936300BF0C37CA
:107DB000BD465DF8047B70472C2B012080B483B056
:107DC00000AF78603960064A7B681362044A3B68FA
:107DD000536200BF0C37BD465DF8047B704700BF9F
:107DE0002C2B012080B483B000AF0023FB71084B23
:107DF0001B7EDBB203F00203022B01D10123FB71D6
:107E0000FB7918460C37BD465DF8047B704700BF10
:107E1000000C004080B489B000AF78600023FB778D
:107E2000224B9B687B61214BDB68BB617B683B61BC
:107E3000BA697B699A4231D01D4B5B6803F0070336
:107E4000012B0AD01B4ABB6913441B78DAB23B6989
:107E50001A70BB690133BB6114E0BB695B00FB6056
:107E6000144AFB6813441B78DAB23B691A70FB684A
:107E70005A1C3B6901330F498A5CD2B21A70BB6944
:107E80000133BB61094B1B69BA699A4201D30023D4
:107E9000BB61064ABB69D3600123FB77FB7F1846B1
:107EA0002437BD465DF8047B704700BF2C2B0120B2
:107EB000000C0040EC2B012080B489B000AF0346D9
:107EC000FB80234B9B687B61214BDB683B6100237C
:107ED000FB767B690133FB611D4B1B69FA699A4292
:107EE00001D30023FB61FA693B699A4228D0194B00
:107EF0005B6803F00703012B07D0FB88D9B2164A51
:107F00007B6913440A461A7015E07B695B00FB60CD
:107F1000FB88D9B2104AFB6813440A461A70FB6802
:107F20000133FB60FB881B0A9BB2D9B20A4AFB688B
:107F300013440A461A70064AFB6993600123FB76D4
:107F4000FB7E18462437BD465DF8047B704700BFB2
:107F50002C2B0120000C0040EC2B012080B582B0BE
:107F600000AF164B1B7DDBB2002B23D000F0A6F830
:107F70007860124B1B68002B1CD0104B5B683B6079
:107F80000E4B1B7FDBB2002B0AD00C4B9B697A682F
:107F90009A420FD3094B1B6839680320984709E0C0
:107FA000064B9B697A689A4204D1044B1B68396876
:107FB0000320984700BF0837BD4680BD2C2B012009
:107FC00080B485B000AF0E4B9B68BB600C4BDB6888
:107FD0007B60BA687B689A4204D3BA687B68D31A1C
:107FE000FB6006E0064B1A697B68D31ABA68134433
:107FF000FB60FB6818461437BD465DF8047B70478C
:108000002C2B012080B582B000AFFFF7D9FF78603C
:108010007B6818460837BD4680BD80B584B000AF88
:10802000786039600023FB6031E0234B5B6803F02C
:108030000703012B0ED07A68FB6813441B789BB2B0
:108040001846FFF739FF0346002B25D0FB680133A4
:10805000FB601CE0FB685B0001337A6813441B780B
:108060007B817B891B027B81FB685B007A68134400
:108070001B789AB27B8913437B817B891846FFF773
:108080001BFF0346002B09D0FB680133FB60FA6835
:108090003B689A42C9D302E000BF00E000BFFFF78F
:1080A0008FFF0346002B02D0034B01229A75FB6819
:1080B00018461037BD4680BD000C004098B500AF93
:1080C000044B1C69FFF79EFF0346E31A013B184669
:1080D00098BD00BF2C2B012080B400AF034B1B695F
:1080E000013B1846BD465DF8047B70472C2B0120F0
:1080F00080B485B000AF03460A46FB711346BB71DE
:10810000074B1B7DFB73064AFB791375044ABB7949
:108110001377FB7B18461437BD465DF8047B704728
:108120002C2B012080B483B000AF78607B68002BDB
:1081300002D0044A7B68936100BF0C37BD465DF8EE
:10814000047B70472C2B012080B483B000AF786093
:108150003960064A7B681360044A3B68536000BF7D
:108160000C37BD465DF8047B704700BF2C2B012007
:1081700080B582B000AF0F4B5B8B9BB203F007035F
:10818000FB80FB88002B10D00B4AFB88D387FFF7BE
:1081900079FC094B1B6A002B07D0074B5B6A3B60DD
:1081A000054B1B6A39680220984700BF0837BD4657
:1081B00080BD00BF000C00402C2B012080B500AF1B
:1081C0000AE00A4B9B6A9BB21846FFF78BFC0346FA
:1081D000002B01D0FFF7EEFC044B1B7EDBB203F05B
:1081E0000403042BEDD000BF80BD00BF000C004095
:1081F00080B582B000AF1BE0BB1D1846FFF70AFE3A
:108200000346002B10D0104B5B6803F00703012BD3
:1082100004D0FB88DAB20C4B9A6202E0FA880A4B6F
:108220009A62FFF79BFE03E0074B01221A7506E0F6
:10823000054B1B7EDBB203F00103012BDCD000BF3A
:108240000837BD4680BD00BF000C004080B582B03D
:1082500000AF0023FB71364B9B7DDBB2002B62D05D
:10826000334B1B7EDBB203F08003802B0CBF01235A
:108270000023FB712E4B9B7DDBB203F08003802B30
:1082800004D1FB79002B01D0012300E00023FB7116
:10829000FB7903F00103FB71FB79002B01D0FFF7A1
:1082A00067FF234B1B7EDBB203F00103012B0CBFE6
:1082B00001230023FB711E4B9B7DDBB203F0010306
:1082C000012B04D1FB79002B01D0012300E0002316
:1082D000FB71FB7903F00103FB71FB79002B01D0EB
:1082E000FFF786FF124B1B7EDBB203F00403002B6B
:1082F00014BF01230023FB710D4B9B7DDBB203F008
:108300000403002B04D0FB79002B01D0012300E0F3
:108310000023FB71FB7903F00103FB71FB79002B58
:1083200001D0FFF74BFF00BF0837BD4680BD00BF3F
:10833000000C0040883401201C00000000000000F8
:108340005C3101200400000000000000D83301204F
:108350002800000000000000292B0120010000007F
:1083600000000000C03101205800000000000000A3
:10837000000000200C000000000000000C3601206E
:108380000800000000000000C034012018000000B8
:10839000000000004C2E0120D4000000000000006E
:1083A00068220120AC04000000000000043E01200F
:1083B0001E000000010000004D4348500000050071
:1083C00057425A333531000007000000302E312E5D
:1083D000302E3300080000005430012085000000DA
:1083E00000000000303A0120AC0000000100000055
:1083F00001000100010000005E8C0101D841020172
:10840000E8410201100000011E790101EC41020166
:10841000004202011300000104420201183501204C
:10842000303A0120010006091E79010114420201BF
:1084300028420201130000012C4202011C350120D8
:10844000323A0120F7000D90726E010120350120B3
:108450003C420201020021991E79010140420201C1
:108460005442020113000001584202012435012048
:10847000343A0120F7000D90726E01012835012079
:10848000684202010200219900000000383A0120F0
:108490006C420201000108010200000018350120B1
:1084A0001200000000000000483801202C010000EC
:1084B0000100000055E405D2AF9FA98FE54A7DFE7B
:1084C0004353534918A20016962447C62361BAD9CC
:1084D0004B4D1E435353490016962447C62361BA99
:1084E000D94B4D1E43535349010000000CA500B366
:1084F0009B7234BEECD4A8F44341884353534900E3
:10850000B39B7234BEECD4A8F4434188435353491F
:10851000010000001CA7007E3B07FF1C51492FB340
:10852000398A4C43535349007E3B07FF1C51492F66
:10853000B3398A4C43535349010000005E8C01015A
:1085400048380120EC210301100000011E790101CF
:1085500058380120EE210301130000016C3801207E
:108560002C3501207C380120F7000D10726E0101BE
:1085700030350120F0210301020021111E79010193
:1085800080380120F22103011300000194380120FA
:1085900034350120A4380120F7000D101E790101A7
:1085A000A8380120F421030113000001BC38012088
:1085B00038350120CC380120F7000D10726E010112
:1085C0003C350120F62103010200211100000000CA
:1085D000D0380120F8210301A000A800020000000B
:1085E0002C35012012000000000000006031012045
:1085F000600000000000000078330120300000001F
:1086000000000000B035012008000000000000005C
:10861000803501200C000000000000002C2B012000
:1086200040010000000000008C3501200C0000001B
:1086300000000000702D0120DC00000000000000A0
:108640003C3D01203900000001000000802400446E
:108650008124004482240044832400448424004470
:108660008524004486240044C0240044C1240044DE
:10867000C2240044C3240044C4240044C52400444C
:10868000C624004401000000B835012008000000A5
:10869000000000000C0000200800000000000000A6
:1086A00074390120BC00000001000000040081308A
:1086B0000001000010000000010000001E00000486
:1086C00010000000400000001E0000041000000028
:1086D000200000001E000004100000000200000046
:1086E0001E000004743901207C3901201400002090
:1086F000000102000400030078390120B83901208C
:108700000119060000000000D032012014000020F2
:10871000E8320120CC390120BC39012004000400DA
:1087200005001405140100000F01000F01010F01E5
:10873000010F0101EC320120E43901203800002052
:10874000F039012038000020010000000000010085
:108750000380080014000000F43201200C3A0120CC
:108760002C000020143A0120B832012044000000FF
:108770000000000014000020A40000000000000021
:10878000343E01200400000001000000AAAAAAAAA9
:10879000983501200C000000000000004C02002071
:1087A0001C20010000000000383E012004000000F1
:1087B00001000000040000006C2C012004010000F6
:1087C000000000003C3301203C00000000000000DD
:1087D000783D012031000000010000000AD7233F4E
:1087E000C3F5A83E00005842000000009A99993E47
:1087F0009A99193F00003643000000009A99193EEB
:108800008FC2753D3333934100000000010000002A
:108810002A3501200200000000000000B8000020FE
:108820000700000000000000C00000200800000059
:1088300000000000FC3201204000000000000000A9
:10884000803B01205A00000001000000000155FF9C
:10885000FF000000000048C2000048C210200000D5
:1088600000000009C50001112101803B012000002A
:1088700000001222000000000079C500011323034C
:10888000823B012000000000142401813B012000F4
:10889000000000004001803B01204102853B012097
:1088A0004203823B01200000A43501200C0000009F
:1088B0000000000040350120100000000000000012
:1088C000D93001200100000000000000202F01200D
:1088D000A400000000000000A43401201C000000DF
:1088E0000000000014360120080000000000000015
:1088F000142701201504000000000000DA3B0120CD
:108900000200000001000000F80E00000036012007
:108910000500000000000000C80000200100000069
:1089200000000000323E01200100000001000000B4
:10893000FF000000D00000202C000000000000001C
:108940003E3501200200000000000000C03501207B
:1089500008000000000000001C3601200400000098
:1089600000000000FC0000200400000000000000E7
:10897000C8350120080000000000000000010020B0
:108980000C00000000000000FE3501200200000085
:1089900000000000C43601200100000000000000BB
:1089A00005360120050000000000000028340120E9
:1089B00020000000000000000A3601200200000034
:1089C00000000000C42F0120900000000000000003
:1089D000D03501200800000000000000F034012024
:1089E0001400000000000000333E012001000000E0
:1089F0000100000001000000A93D01200500000069
:108A000001000000020700A62A0000002036012015
:108A100004000000000000000C0100200400000021
:108A200000000000243601200800000000000000C3
:108A30001001002026000000000000002C3601205C
:108A40000C00000000000000D835012008000000E4
:108A50000000000038360120100000000000000077
:108A6000380100201800000000000000C536012079
:108A70000100000000000000E035012008000000B7
:108A80000000000048340120200000000000000029
:108A9000C636012001000000000000004836012019
:108AA0000800000000000000C7360120010000009F
:108AB0000000000050360120080000000000000007
:108AC000C8360120010000000000000058360120D7
:108AD0000400000000000000C9360120030000006F
:108AE000000000002A2B012002000000000000000E
:108AF000DA3001200200000000000000BC36012036
:108B000002000000000000007C3C0120C0000000CA
:108B100001000000BB500201BB500201BB5002012A
:108B2000BB500201BB500201BB500201BB5002010D
:108B3000BB500201BB500201BB500201BB500201FD
:108B4000BB500201BB500201BB500201BB500201ED
:108B5000BB500201BB500201BB500201BB500201DD
:108B6000BB500201BB500201BB500201BB500201CD
:108B7000BB500201BB500201BB500201BB500201BD
:108B8000BB500201BB500201BB500201BB500201AD
:108B9000BB500201BB500201BB500201BB5002019D
:108BA000BB500201BB500201BB500201BB5002018D
:108BB000BB500201BB500201BB500201BB5002017D
:108BC000BB500201BB500201BB500201BB5002016D
:108BD000BB500201503501202000000000000000C1
:108BE000CC3601200100000000000000E835012023
:108BF00008000000000000005001002008000000F4
:108C000000000000580100200800000000000000E3
:108C1000CD36012001000000000000005C3601207C
:108C20000C00000000000000BE360120040000001F
:108C30000000000018320120500000000000000079
:108C4000CE3601200100000000000000600100207D
:108C50004E000000000000006836012010000000F7
:108C600000000000B001002004000000000000002F
:108C70007836012004000000000000006834012064
:108C80002000000000000000B401002029000000C6
:108C900000000000DC3A0120A400000001000000F8
:108CA00020200001FFFFFFFFFFFFFFFFFFFFFFFF8F
:108CB00000000000000000000000000001000000B3
:108CC000FFFFFFFF512563FCC2CAB9F3849E17A7BB
:108CD000ADFAE6BCFFFFFFFFFFFFFFFF0000000053
:108CE000FFFFFFFF96C298D84539A1F4A033EB2DC2
:108CF000817D0377F240A463E5E6BCF847422CE1AE
:108D0000F2D1176BF551BF376840B6CBCE5E316BF1
:108D10005733CE2B169E0F7C4AEBE78E9B7F1AFEB5
:108D2000E242E34F4B60D2273E3CCE3BF6B053CC01
:108D3000B0061D65BC86987655BDEBB3E7933AAA9D
:108D4000D835C65AE00100200C00000000000000E9
:108D50007C3601200400000000000000AE3D012030
:108D6000020000000100000070000000EC01002083
:108D70001000000000000000F03501200800000095
:108D80000000000080360120040000000000000008
:108D9000FC0100200400000000000000CF3601208C
:108DA00001000000000000007035012010000000EC
:108DB00000000000C2360120020000000000000098
:108DC000DC3001208000000000000000043501209C
:108DD00014000000000000008436012004000000A0
:108DE000000000000002002004000000000000005D
:108DF000E03D012024000000010000002423222186
:108E0000201F1E1D1C1B1A191817161514131211DA
:108E1000100F0E0D0C0B0A090807060504030201CA
:108E20000402002016000000000000008836012027
:108E30001C000000000000001C0200200D000000CB
:108E400000000000D83401201800000000000000DD
:108E50003C3E0120080000000100000053300301E7
:108E6000533003012902002001000000000000002F
:108E7000003401202800000000000000A833012079
:108E80003000000000000000F8350120060000005E
:108E9000000000002C020020110000000000000073
:108EA000A43601200C000000000000003D0200205C
:108EB0000C00000000000000B03601200800000097
:108EC0000000000068320120500000000000000097
:108ED000B83601200400000000000000000000007F
:108EE0000000000029F004BA80B582B000AF03464C
:108EF0000A46FB8013467B71FB881B0A9BB2DAB2E1
:108F0000064B1A70064A7B791370064B00221A70C2
:108F100000F028F800BF0837BD4680BDBE00002025
:108F2000BA0000202B35012080B582B000AF034687
:108F3000FB710B46BB7113467B71074AFB791370BB
:108F4000064ABB791370064A7B79137000F00AF861
:108F500000BF0837BD4680BDBE000020BA0000201B
:108F60002A35012090B587B002AF104B1B78184608
:108F70000F4B1B7819460F4B1B781C4607F10C0250
:108F80003B1D019307F1080300931346224600F0AE
:108F900013F8FB689BB2BA6891B27A6892B218462D
:108FA00000F024F900BF1437BD4690BDBE0000207C
:108FB000BA0000202A35012080B491B000AFF860DB
:108FC000B9607A603B60FB6807EE903AB8EE677A6A
:108FD000DFED716AC7EE267AC7ED0B7ABB6807EE44
:108FE000903AB8EE677ADFED6C6AC7EE267AC7ED85
:108FF0000A7A7B6807EE903AB8EE677ADFED666A28
:10900000C7EE267AC7ED097ABB68002B06D17B6ACA
:10901000BB637B6A7B637B6A3B6393E0D7ED0B7A30
:10902000B1EE087A67EE877AC7ED0F7AD7ED0F7A3F
:10903000B1EE087AF4EE477AF1EE10FA02D14FF071
:109040000003FB63D7ED0F7AFCEEE77A17EE903A58
:109050003B62B7EE007AD7ED0A7A77EE677A97ED42
:10906000097A67EE277AC7ED077A3B6A07EE903AEE
:10907000F8EE677A97ED0F7A37EE677AD7ED0A7ACE
:1090800067EE277AB7EE007A77EE677A97ED097A7E
:1090900067EE277AC7ED067A3B6A07EE903AF8EE5C
:1090A000677A97ED0F7A77EE677AB7EE007A37EE48
:1090B000677AD7ED0A7A67EE277AB7EE007A77EE0D
:1090C000677A97ED097A67EE277AC7ED057A3B6AEA
:1090D000042B30D801A252F823F000BFF190000118
:1090E000FF9000010D9100011B91000129910001E9
:1090F0007B6ABB637B697B63FB693B6322E0BB6983
:10910000BB637B6A7B63FB693B631BE0FB69BB63FF
:109110007B6A7B637B693B6314E0FB69BB63BB6970
:109120007B637B6A3B630DE07B69BB63FB697B63AD
:109130007B6A3B6306E07B6ABB63FB697B63BB695D
:109140003B6300BFD7ED0E7A9FED147A67EE877A06
:10915000FCEEE77A17EE902A3B681A60D7ED0D7A9D
:109160009FED0E7A67EE877AFCEEE77A17EE902A8B
:10917000BB6C1A60D7ED0C7A9FED087A67EE877AA0
:10918000FCEEE77A17EE902AFB6C1A6000BF4437BA
:10919000BD465DF8047B704700007F4300FF7F47BA
:1091A00080B500AF0DF002F9024B01221A7000BF2A
:1091B00080BD00BFA83D012080B582B000AF03464E
:1091C000FB71084AFB791370074B1B78002B02D008
:1091D00000F052F801E0FFF7C5FE00BF0837BD46BA
:1091E00080BD00BF2A3501202B35012080B582B01B
:1091F00000AF0346FB800B46BB8013467B800E4BC3
:109200001B78002B04D00DF0BBF80B4B00221A701A
:10921000FB88194601200DF063F9BB88194603202D
:109220000DF05EF97B88194605200DF059F900BF55
:109230000837BD4680BD00BFA83D012080B582B083
:1092400000AF03460A46FB801346BB80074AFB88F3
:109250001380074ABB881380064B01221A7000F066
:109260000BF800BF0837BD4680BD00BFBC00002022
:10927000B80000202B35012090B587B002AF104B0D
:109280001B8818460F4B1B8819460F4B1B781C4632
:1092900007F10C023B1D019307F1080300931346ED
:1092A000224600F03FFAFB689BB2BA6891B27A6836
:1092B00092B21846FFF79AFF00BF1437BD4690BD23
:1092C000BC000020B80000202A35012090B58FB0E6
:1092D00000AF87ED030AC7ED020A87ED011A4FF0D0
:1092E00000037B634FF000033B63D34B93ED007AA5
:1092F000D7ED037A77EE677AC7ED0A7ACE4B93ED16
:10930000017AD7ED027A77EE677AC7ED097ACA4B10
:1093100093ED047AD7ED037A77EE677AC7ED087A92
:10932000C54B93ED057AD7ED027A77EE677AC7EDF4
:10933000077AC14B93ED087AD7ED037A77EE677A17
:10934000C7ED067ABC4B93ED097AD7ED027A77EE3A
:10935000677AC7ED057AB84B93ED057AD7ED0A6ABF
:10936000D7ED057A66EEA76A97ED066AD7ED097A1A
:1093700066EE277A76EEE77A67EE277AC7ED0B7A04
:10938000D7ED0B7AF5EE407AF1EE10FA6CD0AA4BDD
:10939000D3ED017AB1EE677AD7ED086AD7ED057A99
:1093A00066EEA76A97ED066AD7ED077A66EE277A2A
:1093B00076EEE77A67EE276A97ED0B7AC6EE877A44
:1093C000C7ED0D7A9C4B93ED057AD7ED066AD7ED84
:1093D000097A66EEA76A97ED0A6AD7ED057A66EE16
:1093E000277A76EEE77A67EE277AC7ED0B7AD7ED24
:1093F0000B7AF5EE407AF1EE10FA35D08E4BD3EDC4
:10940000097AB1EE677AD7ED086AD7ED097A66EE88
:10941000A76A97ED0A6AD7ED077A66EE277A76EEA5
:10942000E77A67EE276A97ED0B7AC6EE877AC7ED83
:109430000C7AD7ED0D7AB7EE007A77EE877A97ED52
:109440000C7A77EE277AC7ED0B7AD7ED0B7AF5EE2B
:10945000407AF1EE10FA07D0D7ED016A97ED0B7A5A
:10946000C6EE877AC7ED0B7A734BD3ED027AF5EE31
:10947000407AF1EE10FA16D097ED0B7AD7ED0D7A0F
:1094800067EE276A6C4B93ED027AC6EE877AC7EDDA
:10949000047AD7ED047AF5EEC07AF1EE10FA02DD27
:1094A000654A3B69D360644BD3ED067AF5EE407AAA
:1094B000F1EE10FA12D0604B93ED067AD7ED0B6AFD
:1094C000C6EE877AC7ED047AD7ED047AF5EEC07A56
:1094D000F1EE10FA02DD584A3B69D361564BD3EDE9
:1094E0000A7AF5EE407AF1EE10FA16D097ED0B7A83
:1094F000D7ED0C7A67EE276A4F4B93ED0A7AC6EEEA
:10950000877AC7ED047AD7ED047AF5EEC07AF1EEEA
:1095100010FA02DD484A3B69D362474BDB681846C4
:1095200025F01AFC3AA3D3E9002325F02FF80346CF
:10953000002B26D0404BDB68184625F00DFC034677
:109540000C469FED351B44EC103B06F0B5FB51EC8F
:10955000100B33A3D3E9002313F07CFF03460C4622
:109560001846214630A3D3E9002329F0FBFC03462B
:109570000C461846214622F0B5FA02462E4BDA6018
:1095800012E02D4BDB68184625F0E6FB28A3D3E953
:10959000002313F05FFF03460C461846214622F0D5
:1095A000A1FA0246244BDA60234BDB69184625F00A
:1095B000D3FB17A3D3E9002324F0E8FF0346002BD5
:1095C0003CD01D4BDB69184625F0C6FB03460C4614
:1095D0009FED111B44EC103B06F06EFB51EC100BA1
:1095E0000FA3D3E9002313F035FF03460C461846BA
:1095F00021460DA3D3E9002329F0B4FC03460C4611
:109600001846214622F06EFA02460B4BDA6128E03A
:1096100019B78773C3A5693FABAAAAAAAAAADA3F5A
:10962000E17A14AE47E1F03F295C8FC2F528AC3FE8
:10963000D7A3703D0AD72940783D0120384BDB691C
:10964000184625F089FB2CA3D3E9002313F002FF71
:1096500003460C461846214622F044FA0246304B97
:10966000DA612F4BDB6A184625F076FB24A3D3E999
:10967000002324F08BFF0346002B26D0284BDB6A07
:10968000184625F069FB03460C469FED1F1B44EC72
:10969000103B06F011FB51EC100B1DA3D3E9002386
:1096A00013F0D8FE03460C46184621461AA3D3E908
:1096B000002329F057FC03460C461846214622F0A9
:1096C00011FA0246164BDA6212E0154BDB6A1846B5
:1096D00025F042FB08A3D3E9002313F0BBFE0346A9
:1096E0000C461846214622F0FDF902460C4BDA6280
:1096F00000BF3C37BD4690BDD7A3703D0AD7294077
:1097000019B78773C3A5693FABAAAAAAAAAADA3F69
:10971000E17A14AE47E1F03F295C8FC2F528AC3FF7
:10972000783D012080B58EB000AFF860B9607A60F6
:109730003B604FF07E53FB62FB6807EE903AB8EE59
:10974000677ADFED6A6AC7EE267AC7ED0A7ABB68E8
:1097500007EE903AB8EE677ADFED646AC7EE267AD4
:10976000C7ED097A7B6807EE903AF8EEE77AC7ED25
:10977000087A00237B630AE05D4A7B6B1B0113447C
:109780000C334FF000021A607B6B01337B637B6B01
:10979000022BF1D9D7ED0A7AF5EE407AF1EE10FA04
:1097A0006DD0D7ED097AF5EE407AF1EE10FA66D079
:1097B000D7ED087AF5EE407AF1EE10FA5FD097ED2A
:1097C000081AD7ED090A97ED0A0AFFF77FFD484B03
:1097D000DB683B63464BD3ED077A97ED0C7AB4EE2A
:1097E000E77AF1EE10FA02D5414BDB693B63404B5F
:1097F000D3ED0B7A97ED0C7AB4EEE77AF1EE10FA2E
:1098000002D53B4BDB6A3B63D7ED0C7AB7EE007AAF
:10981000F4EEC77AF1EE10FA08DDD7ED0B6A97ED9A
:109820000C7AC6EE877AC7ED0C7A01E0FB6A3B63DF
:10983000D7ED0C7AB7EE007AF4EE477AF1EE10FA33
:109840001DD02B4B93ED037AD7ED0C7A67EE277A78
:10985000274BC3ED037A264B93ED077AD7ED0C7AAD
:1098600067EE277A224BC3ED077A214B93ED0B7AF3
:10987000D7ED0C7A67EE277A1D4BC3ED0B7A1C4BA4
:10988000D3ED037A9FED197A67EE877AC7ED077AF1
:10989000174BD3ED077A9FED157A67EE877AC7ED00
:1098A000067A134BD3ED0B7A9FED107A67EE877A29
:1098B000C7ED057AD7ED077AFCEEE77A17EE902A26
:1098C0003B681A60D7ED067AFCEEE77A17EE902A2D
:1098D0003B6C1A60D7ED057AFCEEE77A17EE902A1A
:1098E0007B6C1A6000BF3837BD4680BD00FF7F47E4
:1098F000783D012080B584B002AF00237B6000F08A
:1099000037FB0A4B1B68002B0BD0094B0193032339
:10991000009300234FF4807206490748F6F77AFD5A
:1099200078607B6818460837BD4680BD6C330120DF
:1099300070330120EC2E0301F99B000180B588B043
:1099400002AFF860B9607A603B60282006F0FAFB4D
:1099500078617B69002B0DD07B69002283F824207D
:109960007B6901933B6A00933B687A68B968F86841
:1099700000F005F87B6918461837BD4680BD80B5F4
:1099800084B000AFF860B9607A603B6000F0F0FA34
:10999000FB69FA681A60FB69BA689A61FB693A6800
:1099A000DA61FB69BA691A62FB690433184611F07F
:1099B000FDFE7B68002B08D0FB6993F8243043F050
:1099C0000403DAB2FB6983F8242000BF1037BD46D8
:1099D00080BD80B588B000AFF860B9607A603B6048
:1099E0000023FB61194B1B68002B2AD0BB683B612D
:1099F0007B687B61FB68BB61BB68052B18DCF8F7F3
:109A000083F90346022B09D1104B186807F11001A6
:109A10000023BA6AFAF7A0FAF86112E00B4B186853
:109A200007F1100100230022FAF796FAF86108E026
:109A3000064B186807F1100100233A68FAF752FB49
:109A4000F861FB6918462037BD4680BD6C330120A4
:109A500080B400AF034B1B681846BD465DF8047B1D
:109A6000704700BF7033012080B485B000AF7860CC
:109A70007B68FB60FB689B6918461437BD465DF840
:109A8000047B704780B584B000AF786039607B6834
:109A9000FB6007F07EF83B68002B09D0FB6893F869
:109AA000243043F00403DAB2FB6883F8242008E092
:109AB000FB6893F8243023F00403DAB2FB6883F8E0
:109AC000242007F07FF800BF1037BD4680BD80B569
:109AD00084B000AF78607B68BB6007F05AF8BB6861
:109AE00093F8243003F00403002B02D10023FB6021
:109AF00001E00123FB6007F065F8FB6818461037AA
:109B0000BD4680BD80B582B000AF78607868FFF751
:109B1000DEFF034618460837BD4680BD80B485B0D9
:109B200000AF78607B68FB60FB685B68BB60BB680C
:109B300018461437BD465DF8047B704780B485B085
:109B400000AF78607B68FB60FB681B6818461437C1
:109B5000BD465DF8047B704780B584B000AFF86007
:109B6000B9607A6008E0FB689B69BA681344BB601F
:109B7000FB681B6AF8689847FB689A69BB68D1184C
:109B8000BB687A68F86800F0DDF80346002BEAD17C
:109B900000BF1037BD4680BD80B584B000AF78608F
:109BA0003960144B1B68DB68DB68FB60FB680433BF
:109BB000184611F065FEFB6893F8243003F00403A7
:109BC000002B05D03A687968F868FFF7C5FF08E010
:109BD000FB6893F8243023F00103DAB2FB6883F8C2
:109BE0002420FB681B6AF868984700BF1037BD4601
:109BF00080BD00BF6433012080B584B000AF7860C1
:109C000009F064F807F10803184600F057F8F86007
:109C1000BB681946F86800F003F800F0D5F8F1E7E2
:109C200080B584B000AF78603960F7F727F907F1A5
:109C30000803184600F066F8F860BB68002B30D1C6
:109C40003B68002B0AD17A68FB689A4206D8F7F77E
:109C50005DF9F9687868FFF79FFF24E03B68002B07
:109C600008D0134B1B681B68002B01D1012300E0B7
:109C700000233B600F4B18687A68FB68D31A3A6878
:109C80001946FAF75CFFF7F741F90346002B0AD1B2
:109C9000094B4FF080521A60BFF34F8FBFF36F8FA5
:109CA00001E0F7F733F900BF1037BD4680BD00BFB4
:109CB000683301206C33012004ED00E080B485B0EE
:109CC00000AF78600E4B1B681B68002B01D101228E
:109CD00000E000227B681A607B681B68002B05D1BE
:109CE000074B1B68DB681B68FB6001E00023FB601F
:109CF000FB6818461437BD465DF8047B704700BF0B
:109D00006433012080B584B000AF7860F7F7EAF9DA
:109D1000F8600B4B1B68FA689A4205D200F002F912
:109D20007B6801221A6002E07B6800221A60044A04
:109D3000FB681360FB6818461037BD4680BD00BF46
:109D40007433012080B586B000AFF860B9607A60E6
:109D50003B6000237B61FB68BA685A60FB68FA6865
:109D60001A61BA687B689A4212D87A683B68D21A3C
:109D7000FB689B699A4202D301237B611BE0104B75
:109D80001A68FB6804331946104611F040FD12E0D2
:109D90007A683B689A4206D2BA683B689A4202D314
:109DA00001237B6107E0074B1A68FB6804331946FF
:109DB000104611F02CFD7B6918461837BD4680BD52
:109DC000683301206433012080B586B000AF97E08E
:109DD0007B68002BC0F29380FB687B617B695B69C9
:109DE000002B04D07B690433184611F049FD3B4633
:109DF0001846FFF787FF38617B68013B082B7FD847
:109E000001A252F823F000BF2D9E00012D9E0001FB
:109E1000959E0001A99E0001D59E00012D9E000186
:109E20002D9E0001959E0001A99E00017B6993F87B
:109E3000243043F00103DAB27B6983F82420BA6846
:109E40007B699B69D118BB683A697869FFF77AFF2B
:109E50000346002B54D07B6993F8243003F00403AD
:109E6000002B09D0BA687B699B6913443A6919468B
:109E70007869FFF771FE08E07B6993F8243023F0DE
:109E80000103DAB27B6983F824207B691B6A786955
:109E9000984735E07B6993F8243023F00103DAB268
:109EA0007B6983F824202BE07B6993F8243043F00E
:109EB0000103DAB27B6983F82420BA687B699A616E
:109EC0007B699A693B69D1183B693A697869FFF700
:109ED00039FF15E07B6993F8243003F00203002B6F
:109EE00003D1786906F0CCF90AE07B6993F8243055
:109EF00023F00103DAB27B6983F8242000E000BF7D
:109F0000074B1B68391D00221846FAF7D2F90346A1
:109F1000002B7FF45DAF00BF1837BD4680BD00BF8A
:109F20006C33012080B582B000AF09E00E4B1B6896
:109F3000DB681B687B604FF0FF317868FFF72CFE11
:109F4000094B1B681B68002BF0D1074B1B683B605B
:109F5000064B1B68044A1360044A3B68136000BF49
:109F60000837BD4680BD00BF64330120683301203F
:109F700080B500AF06F00DFE0D4B1B68002B13D112
:109F80000C4811F0F3FB0C4811F0F0FB0B4B094AA5
:109F90001A600B4B084A1A6000220C210A20F9F7BC
:109FA00029FF0246024B1A6006F00CFE00BF80BD7E
:109FB0006C3301203C3301205033012064330120F5
:109FC0006833012080B584B000AF78607B68BB60E7
:109FD00006F0DFFDBB6893F8243003F00103002B8B
:109FE00002D10023FB6001E00123FB6006F0EAFDE3
:109FF000FB6818461037BD4680BD80B584B000AF01
:10A0000078607B68FB6006F0C4FDFB68DB69BB60C1
:10A0100006F0D8FDBB6818461037BD4680BD80B538
:10A0200084B000AF786039607B68FB6006F0B1FDFA
:10A03000FB683A68DA6106F0C5FD00BF1037BD461F
:10A0400080BD00BF80B483B000AF2B4B7B6000238A
:10A050003B6000233B6011E07B6800221A707B6844
:10A0600000225A607B6800229A607B6800221A7383
:10A070007B6810337B603B6801333B603B68012B9E
:10A08000EAD91E4B1E4A5A631C4B1E4A9A631B4B4D
:10A090005B691A4A43F081335361184B1A4A1A64B8
:10A0A000174B40F209421A80144B002283F84520D6
:10A0B000114B01221A70114B032283F84D200F4BD4
:10A0C000124A1A650E4B40F209421A820B4B0022CB
:10A0D00083F85520084B01221A74084B032283F899
:10A0E0005D20064B40F602721A8000BF0C37BD4659
:10A0F0005DF8047B704700BFA031012000400041A3
:10A1000080310120603101204005200040072000FF
:10A1100080B489B000AFF860B9607A603B6000231A
:10A12000BB770023FB77514AFB681B0113440C33B8
:10A130001B787B77BB68BB617B687B614C4AFB68A3
:10A140001B0113444E331B78DBB203F00303002BD7
:10A1500005D17B7F83F00103DBB2002B7FD0444A23
:10A16000FB681B0113444E3303221A703F4AFB68FD
:10A170001B0113440C3301221A70FB681B013D4A7A
:10A1800013443B613B691B889BB203F48063002B43
:10A1900005D0BA693B681A443B695A6002E0BA6963
:10A1A0003B695A603B691B889BB203F40063002B38
:10A1B00005D07A693B681A443B699A600EE02C4BE3
:10A1C0005B889BB203F44043002B03D17A693B695F
:10A1D0009A6003E07B691A683B699A603B691B8857
:10A1E0009BB21B12DBB203F00303BB773B689BB24D
:10A1F0001A46BB7F42FA03F39AB23B695A801C4A63
:10A20000FB6804331B0113441B68194943F0020225
:10A21000FB6804331B010B441A60154AFB680433C6
:10A220001B0113441B681B0A03F07F03002B14D18E
:10A230000F4AFB6804331B01134406331B78DBB25F
:10A2400003F04003402B08D0094B1A690121FB6839
:10A2500001FA03F3064913430B610123FB77FB7FEC
:10A2600018462437BD465DF8047B7047A0310120B5
:10A27000004000418031012080B485B000AF78609B
:10A280000023FB730E4A7B681B0113440C331B78BD
:10A29000BB730C4A7B681B0113444E331B78DBB243
:10A2A00003F00303002B04D1BB7B002B01D001235F
:10A2B000FB73FB7B18461437BD465DF8047B704783
:10A2C000A03101200040004180B485B000AF78602B
:10A2D0000023BB600023FB730E4A7B681B01134401
:10A2E0004E331B78DBB2BB60BB6803F00203002B6C
:10A2F00001D00123FB73BB6803F00103002B01D0E5
:10A300000223FB73FB7B18461437BD465DF8047BC4
:10A31000704700BF0040004180B483B000AF786058
:10A32000124A7B6804331B0113441B680F4923F056
:10A3300002027B6804331B010B441A6000BF0B4A06
:10A340007B6804331B0113441B6803F00203002BDA
:10A35000F5D1074A7B681B0113440C3300221A70A5
:10A3600000BF0C37BD465DF8047B704700400041DC
:10A37000A031012080B485B000AF78600B4A7B68C3
:10A380001B01134402331B88FB81094A7B681B01B4
:10A39000134402331B889BB2FA89D31AFB81FB89D1
:10A3A00018461437BD465DF8047B704780310120A4
:10A3B0006031012080B485B000AFF860B9607A6088
:10A3C000094AFB681B0113440433BA681A60064A41
:10A3D000FB681B01134408337A681A6000BF143706
:10A3E000BD465DF8047B7047A031012080B485B084
:10A3F00000AF7860064BFB607B681B01FA68134472
:10A400001B889BB218461437BD465DF8047B704725
:10A410008031012080B485B000AF78603960144B82
:10A42000FB60144A7B6804331B0113441B68114909
:10A4300023F002027B6804331B010B441A6000BF47
:10A440000C4A7B6804331B0113441B6803F00203AE
:10A45000002BF5D17B681B01FA6813443A6892B26D
:10A460001A80012318461437BD465DF8047B7047F7
:10A47000803101200040004180B483B000AF78609B
:10A480000E4A7B6804331B01134404331B78DBB290
:10A490005BB223F003035BB243F001035BB2074AF4
:10A4A000D9B27B6804331B01134404330A461A7083
:10A4B00000BF0C37BD465DF8047B7047004000418B
:10A4C00080B483B000AF78600E4A7B6804331B0110
:10A4D000134404331B78DBB25BB223F003035BB29B
:10A4E00043F002035BB2074AD9B27B6804331B0115
:10A4F000134404330A461A7000BF0C37BD465DF89A
:10A50000047B70470040004180B400AF034B002241
:10A510005A8000BFBD465DF8047B70470040004193
:10A5200080B584B000AFF8603B1D83E80600FFF7FC
:10A53000EBFF7B79002B02D10F4ABB6893603B791C
:10A540009B001BB203F00C031AB27B799B031BB276
:10A5500013431AB2FB689BB220339BB21B021BB29F
:10A5600003F47C531BB213431AB2034B92B25A80CA
:10A5700000BF1037BD4680BD0040004180B400AF31
:10A58000034B9B681846BD465DF8047B704700BFCF
:10A590000040004180B58AB000AFF860B96039462C
:10A5A00081E80C00002387F8273000233B62FB681A
:10A5B000FB61FB68BB61FB687B61BB6803F0030365
:10A5C000002B06D1022387F82730BB689B08BB60AD
:10A5D0000AE0BB6803F00103002B05D1012387F8D3
:10A5E0002730BB685B08BB60FFF78EFF294A7B689A
:10A5F00093603B789B001BB203F00C031AB297F8F0
:10A6000027301BB203F003031BB213431BB243F406
:10A6100080731AB21F4B92B25A8000233B622FE024
:10A6200097F82730002B06D1FA693B6A13441A7851
:10A63000184B5A6016E097F82730012B07D13B6A78
:10A640005B00BA6913441A88124B5A600AE097F803
:10A650002730022B06D13B6A9B007A6913440D4ACE
:10A660001B68536000BF0B4B1B7BDBB203F0010385
:10A67000002BF8D0074B01221A733B6A01333B626F
:10A680003A6ABB689A42CBD3024B9B68184628377C
:10A69000BD4680BD0040004180B586B000AF034696
:10A6A000FB710023BB600223FB75FB791B011F4A72
:10A6B00013443B611E4AFB791B0113444E331B7844
:10A6C000DBB2BB60BB6803F00203002B0BD0184A5F
:10A6D000FB791B0113444E3302221A700123FB75D0
:10A6E0003B6900221A73BB6803F00103002B0BD0F7
:10A6F0000F4AFB791B0113444E3301221A700223C7
:10A70000FB753B6900221A733B695B68002B08D01C
:10A710003B699B68FB603B695B68FA7DF9681046A2
:10A72000984700BF1837BD4680BD00BFA03101204B
:10A730000040004180B582B000AF0023FB710023D0
:10A74000FB710FE00B4B5A6AFB7922FA03F303F01B
:10A750000103002B03D0FB791846FFF79DFFFB791F
:10A760000133FB71FB79032BECD900BF0837BD46E1
:10A7700080BD00BF00400041044B5A6842F4800293
:10A780005A605A6822F400625A60704700400141E2
:10A79000174B184A1A60184A1A61184A5A61184A1F
:10A7A0009A61184A5A624FF414029A62164ADA629F
:10A7B000164A174B174913605160174991601749A2
:10A7C000D160174911611749174A0A6043F64240A0
:10A7D00048600020C860154848618A61144A1549DC
:10A7E00011605360144B154A1A60154A5A6070473D
:10A7F00000600141212200800A14260610320D1249
:10A800001C28402006421E3E0600030E3060014117
:10A8100054760C0E1A270038F7FF4C463832D44EC7
:10A820003240003044600141544E4C46514B383266
:10A8300060600141383256CE686001411A27544E9B
:10A840004C463832C82300BF00BF00BF00BF00BF66
:10A8500000BF00BF00BF00BF00BF00BF00BF00BF00
:10A8600000BF00BF00BF00BF00BF00BF00BF00BFF0
:10A8700000BF013B13F0FF03E5D1704708B541F27B
:10A880004401032012F096F943F6FF41522012F0E2
:10A8900091F947F20801542012F08CF948F24E5118
:10A8A0005E2012F087F947F28241602012F082F9AF
:10A8B0004CF61701612012F07DF94CF61701632068
:10A8C00012F078F941F20731652012F073F949F27C
:10A8D0000721672012F06EF947F28241682012F0DA
:10A8E00069F94BF21561692012F064F94BF21561B8
:10A8F0006B2012F05FF941F205316D2012F05AF928
:10A9000049F205216F2012F055F948F2070177202E
:10A9100012F050F949F61E61E92012F04BF94FF69A
:10A920000171EF2012F046F940F68321F920BDE8CD
:10A93000084012F03FB970472DE9F7430222114653
:10A940000123332012F064F90C221146012319204F
:10A9500012F05EF9002211460123152012F058F979
:10A960000822104600230A2112F052F9072211464C
:10A970000123092012F04CF901231A461946092037
:10A9800012F046F900231A461946092012F040F940
:10A990000F2211460123002021F070FD00230D221B
:10A9A0001146184621F06AFD0122114600234C2071
:10A9B00021F064FD0322114600234C2021F05EFDAE
:10A9C0000422114601234C2021F058FD4FF400735E
:10A9D00000220C21262012F01BF9142012F054F949
:10A9E000042400250022012311464C2021F046FDBD
:10A9F000002211464C2021F054FD02460028F7D1D8
:10AA00000F214E2021F04DFD013C14F0FF040544C0
:10AA1000E8D1284627F08AF80022534B12F01AFD9D
:10AA20000022524B04460D4623F0B0FD00220028C0
:10AA300000F089804E4B2046294628F093FA4D4B72
:10AA4000002212F007FD42A3D3E9002312F002FD19
:10AA50000022494B494C0CF057FED4E9042306462A
:10AA60000F463DA1D1E900010CF04EFED4E90223CE
:10AA7000804689463046394628F074FA02460B462D
:10AA80004046494612F0E6FCD4E9002328F06AFA71
:10AA900033A3D3E900230CF037FE21F023F8002381
:10AAA00001901A460C21262012F0B2F8022211461B
:10AAB0000023332012F0ACF80C2211460023192099
:10AAC00012F0A6F800231A461946152012F0A0F835
:10AAD0000822104605230A2112F09AF8072211468F
:10AAE0000023092012F094F80122114600230920C6
:10AAF00012F08EF800231A461946092012F088F841
:10AB000000230F221146184621F0B8FC0D221146F1
:10AB10000123002021F0B2FC0122114600234C2029
:10AB200021F0ACFC0322114600234C2021F0A6FCAE
:10AB30000422002311464C2021F0A0FC9DED010AC7
:10AB400003B0BDE8F0830B4B2046294679E700BFF0
:10AB5000666666666666E63F3D0AD7A3703DDA3FE5
:10AB6000BC5983F755B9603F0000D03F0000E0407A
:10AB70000000F0400000503F0000F83FD8000020E7
:10AB800070B5A4B0044674220E4607A8002127F031
:10AB900003FD5F4B06930A935E4B0C935E4B5F4A3B
:10ABA0005F486049604D0E93129303F14643CDE92F
:10ABB0000420CDE9081003F60D730138CDE91050DB
:10ABC0000D90149359485A4B20925A4A5A4D1C9151
:10ABD000CDE9150359495A481A93CDE92123594A19
:10ABE000CDE91D13CDE91850516810686B4603C3B9
:10ABF0009068D168272C03C36BDC0A2C75DA14F13A
:10AC00000B0F74DC1934B4BF002001204E4B1A78AE
:10AC100082427AD01870050124AB002E69D15C19EC
:10AC20000B2214F8803C0F21E52011F0F1FF14F8FD
:10AC30007F3C0B220F21E72011F0EAFF24AB1D44DB
:10AC4000072215F87E3C0821FC2011F0E1FF15F8E1
:10AC50007D3C04220521E12011F0DAFF15F87C3C4F
:10AC600006220721E12011F0D3FF15F87B3C0222D8
:10AC70000321E52011F0CCFF15F87A3C00220321D6
:10AC8000E72011F0C5FF15F8793C04220721E720E1
:10AC900011F0BEFF15F8783C01220321E22011F0EB
:10ACA000B7FF15F8773C032204210A2011F0B0FF0A
:10ACB00015F8763C0E220F21512011F0A9FF15F84E
:10ACC000753C08220E21522024B0BDE8704011F0DE
:10ACD0009FBF4F2C04DC3B2CCCBF0520042095E704
:10ACE000632CCCBF0720062090E703208EE70220CC
:10ACF0008CE703EB40040B2214F8903C0F21E52075
:10AD000011F086FF14F88F3C93E724B070BD00BFAC
:10AD10000603033C121202020502023C1414030350
:10AD20000301010A13130303111102020201030BB1
:10AD3000050202460301070E131203030301060D69
:10AD40000301050C24270301323E012047F6FF735F
:10AD5000984207D000F307039BB2002207215A2034
:10AD600011F056BF70477047094A41F62863D3581F
:10AD7000084A12689B1A084A23F07043934205D888
:10AD8000064B1878003018BF01207047002070472C
:10AD900000200141F8000020FEFFFF07D000002046
:10ADA00010B5FFF7C9FDBDEEC00A10EE103A1CB297
:10ADB0002046FFF7CBFF094B1978204601F001012F
:10ADC000FFF7DEFE064A41F62863D358054A03F52D
:10ADD000403323F07043136010BD00BFF00000202B
:10ADE00000200141F800002037B5204A11780023E7
:10ADF00063F3000111701E4A8DF80730137004468A
:10AE000028B1FFF73BFDFFF7B7FCFFF7C1FC224677
:10AE10000DF10701072002F0FDFF1CB3154D284678
:10AE200010F088F9D5E900010022002324F0A8F8E9
:10AE3000114BB0FA80F040091870104B4FF44032BB
:10AE40001A604FF088430E4A1A650E4B40F2714269
:10AE5000012C9A600CBFFF227F229A6113221A6094
:10AE60004022DA6010F07CF903B030BDF000002021
:10AE7000C8000020D8000020D0000020F8000020EA
:10AE80004C0040E00010014142F27801272011F00F
:10AE900091BE0021122011F08DBE00BFB0B582B06E
:10AEA00000AF0023FB7129E0184B1B68FA7953F8B7
:10AEB0002230002B1FD1154B1C68FD79202008F093
:10AEC00006FF034644F82530104B1B68FA7953F807
:10AED0002230002B09D00D4B1B68FA7953F8223031
:10AEE00020220021184627F057FB084B1B68FA79EF
:10AEF00053F8223006E0FB790133FB71FB79072B15
:10AF0000D2D9002318460837BD46B0BD0C36012003
:10AF100080B485B000AF0346FB800023FB7320E0C4
:10AF2000154B1B68FA7B53F82230002B16D0124BBE
:10AF30001B68FA7B53F82230DB78012B0ED10E4BC5
:10AF40001B68FA7B53F822301B88FA889A4205D195
:10AF5000094B1B68FA7B53F8223006E0FB7B013378
:10AF6000FB73FB7B072BDBD9002318461437BD4648
:10AF70005DF8047B704700BF0C36012080B584B0BB
:10AF800000AF78607B68002B1BD00023FB7314E0BC
:10AF90000E4B1B68FA7B53F822307A689A4209D12B
:10AFA000786808F0A0FE094B1B68FA7B002143F883
:10AFB000221007E0FB7B0133FB73FB7B072BE7D9F8
:10AFC00000E000BF1037BD4680BD00BF0C36012039
:10AFD00080B582B000AF164B1B68002B0BD12C2024
:10AFE00008F075FE0246124B1A60114B1B68002BCD
:10AFF00012D1002318E00023FB710AE00C4B1B6800
:10B00000FA7953F822301846FFF7B8FFFB7901337D
:10B01000FB71FB79072BF1D9054B1B682C22002112
:10B02000184627F0B9FA012318460837BD4680BDF7
:10B030000C36012080B59EB000AF78607B681B782D
:10B04000012B40F0B6807B685B683B673B6F1B78E9
:10B05000002B6FD13B6F9B78002B40F0AC80FFF74B
:10B060001DFFF866FB6E002B00F0A5803B6F9A88F1
:10B07000FB6E1A803B6F9A79FB6E9A70FB6E3A6F8B
:10B0800004330732116819609188927999809A7116
:10B09000FB6E0122DA70FB6E0433184603F095FB59
:10B0A00003461A46FB6E9A77FB6E9B7F082B34D0C3
:10B0B00007F10C034C220021184627F06DFAFB6EB5
:10B0C0009B7F07F10C021146184603F0ADFA0346C8
:10B0D000002B22D197F85430C3F30003DAB297F86B
:10B0E000603062F3410387F8603097F85430C3F35F
:10B0F0004003DAB297F8603062F3000387F86030FB
:10B10000FB6E188897F85430C3F38503DBB21946F9
:10B1100007F160031A4623F052FE3B6F9B88A7F8A5
:10B120006630012387F8643007F1640318460AF09B
:10B13000BDFF40E03B6F1B78012B3CD1002387F81B
:10B1400058303B6F5B88A7F85A303B6F5B881846D6
:10B15000FFF7DEFEF866FB6E002B07D0FB6E9B7FD1
:10B1600087F85C30F86EFFF709FF02E0082387F8E4
:10B170005C30002387F8773014E097F87730104A76
:10B1800052F82330002B08D097F877300C4A52F849
:10B19000233007F158021046984797F8773001336B
:10B1A00087F87730074B1B7897F877209A42E4D3DB
:10B1B00001E000BF00E000BF00BF7837BD4680BDA2
:10B1C000040000200000002080B5A4B000AF0346BA
:10B1D0003960FB713B68002B02D0FB79002B12D148
:10B1E0000021002022F08EFD0346A7F88C30B7F82E
:10B1F0008C30002B04D1344B1B68002283F82020B4
:10B20000B7F88C305CE0FB79082B01D9032357E0B9
:10B21000002387F88F3033E097F88F303A68134473
:10B220001B7807F108021146184603F0FDF90346A2
:10B23000A7F88C30B7F88C30002B02D0B7F88C30E0
:10B240003EE03B7A002B04D03B7A012B01D0032354
:10B2500036E097F88F201346DB009B1A07F1900227
:10B2600013443C3B1A4607F108031868106099889C
:10B270009B799180937197F88F30013387F88F30E5
:10B2800097F88F20FB799A42C6D307F15402FB79D5
:10B290001146184622F036FD0346A7F88C300A4BBB
:10B2A0001B68213397F88F203968184626F030FC48
:10B2B000054B1B6897F88F2083F82020B7F88C3057
:10B2C00018469037BD4680BD0C36012080B596B03B
:10B2D00000AF78603960002387F8573026E01D4BB7
:10B2E0001A6897F85730134493F8213007F1080291
:10B2F0001146184603F098F90346002B01D00123AC
:10B3000023E097F857201346DB009B1A3A68134452
:10B310001A4607F108031868106099889B79918094
:10B32000937197F85730013387F85730094B1B68F2
:10B3300093F8203097F857209A42D0D3054B1B68DA
:10B3400093F820207B681A70002318465837BD46B2
:10B3500080BD00BF0C360120B0B5A0B000AF0346E1
:10B36000B9607A60FB730023A7F87E30BB68002BBE
:10B3700005D0FB7B002B02D07B68002B09D100217C
:10B38000002022F0DBFC0346A7F87E30B7F87E30C1
:10B39000DAE0FB7B082B01D90323D5E0FA7B1346C7
:10B3A0009B001344DB00184608F091FCB867BB6FA4
:10B3B000002B01D10223C7E007F1600207F17703F8
:10B3C0001146184624F0CAFE002387F87D30A2E01B
:10B3D00007F114034C220021184627F0DDF897F8F6
:10B3E0007D30BA6813441B7807F1140211461846E1
:10B3F00003F01AF90346A7F87E30B7F87E30002B29
:10B4000040F090803B7D002B02D03B7D012B06D18C
:10B4100097F87D307A6813441B78012B04D90323F5
:10B42000A7F87E3000BF7EE097F83230002B21D1A4
:10B4300007F114031E33013307F1140202F11E0059
:10B440000F22194626F056FB0346002B12D197F81F
:10B450007D2013469B001344DB001A46BB6F134448
:10B4600017331D4607F164040FCC28606960AA6099
:10B47000EB6014E097F87D2013469B001344DB003B
:10B480001A46BB6F134417331A4607F132031C6880
:10B4900058689968DB68146050609160D36097F8D1
:10B4A0007D2013469B001344DB001A46BB6F1344F8
:10B4B00007331A4607F11B031C6858689968DB6854
:10B4C000146050609160D36097F87D2013469B0014
:10B4D0001344DB001A46BB6F13441A4607F11403EA
:10B4E0001868106099889B799180937197F87D30E6
:10B4F0007A68D11897F87D2013469B001344DB002F
:10B500001A46BB6F13440A7883F8272097F87D30DA
:10B51000013387F87D3097F87D20FB7B9A42FFF45A
:10B5200057AF00E000BFB7F87E30002B07D1FB7BA0
:10B53000B96F184622F002FC0346A7F87E30B86FB8
:10B5400008F0D1FBB7F87E3018468037BD46B0BD55
:10B5500080B485B000AF03463960FB710123BB8125
:10B560000023FB731DE0144B1B68FA7B53F8223059
:10B57000002B13D0104B1B68FA7B53F822309B7FB3
:10B58000FA799A420AD10C4B1B68FA7B53F82230A5
:10B590001A883B681A800023BB8105E0FB7B0133DE
:10B5A000FB73FB7B072BDED9BB8918461437BD46DE
:10B5B0005DF8047B704700BF0C36012080B584B075
:10B5C00000AF03460A46FB8013467B7102233B72A1
:10B5D000FB887B817B797B7307F1080318460AF0AF
:10B5E00065FD00BF1037BD4680BD80B584B000AF9B
:10B5F0000346FB800B467B7113463B7103233B7272
:10B60000FB887B817B797B733B79BB7307F10803F4
:10B6100018460AF04BFD00BF1037BD4680BD90B5FF
:10B6200085B000AF0446084611461A462346FB8003
:10B6300003467B710B463B711346FB7004233B7240
:10B64000FB887B817B797B733B79BB73FB78FB73D6
:10B6500007F1080318460AF029FD00BF1437BD465C
:10B6600090BD90B5A1B000AF78607B681B78062BC9
:10B6700000F2A78101A252F823F000BF8FB70001AA
:10B6800099B60001C3B90001C3B90001C3B90001F3
:10B69000FFB700013FB700019D4B1B78002B00F066
:10B6A00092817B689B881846FFF732FCB867BB6FB6
:10B6B000002B00F08A81BB6F9B78002B40F08381C8
:10B6C000BB6F9B7F07F108021146184602F0ACFFE2
:10B6D0000346002B1FD1BB6F188807F1080303F145
:10B6E000380407F1080303F1360207F1080303F1F8
:10B6F0002E01234620F06AFB0346A7F87630B7F800
:10B700007630002B40F05F81BB6F1B88012118460B
:10B71000FFF754FF57E1BB6F1B88184623F0C6F8AC
:10B720000346A7F87630B7F87630002B40F04B810F
:10B73000BB6F1B8800211846FFF740FF43E1744BA5
:10B740001B78002B00F043817B689B881846FFF72D
:10B75000DFFB38673B6F002B00F03B813B6F9B7832
:10B76000012B40F034817B689B88184623F0B8F8A1
:10B770000346A7F86E30B7F86E30002B40F02781F3
:10B780007B689B8800211846FFF718FF1FE17B6844
:10B790009B79002B29D17B689B881846FFF7B8FB63
:10B7A000B866BB6E002B00F016817B6898887B68BA
:10B7B0001B7A1A460021FFF718FFBB6E0122DA72CE
:10B7C000BB6E03F10C007B6809331022194626F08A
:10B7D0009FF9BB6E9B78002B40F0FF80BB6E1B88EF
:10B7E00001211846FFF7EAFEF7E07B6898887B683E
:10B7F0009A797B68DB790021FFF711FFEDE07B6828
:10B800009B881846FFF784FB78667B6E002B00F060
:10B81000E6804C2008F05BFA38663B6E002B00F0A7
:10B82000E0807B680833FB653B6EFA6D703292E80E
:10B83000030018600433198002330A0C1A703B6E3F
:10B84000184602F0C2FF034687F87F3097F87F3032
:10B85000082B24D102F098FF034687F87F3097F831
:10B860007F30082B1BD1052387F854307B6E1B8853
:10B87000A7F85630082387F8593007F154031846C3
:10B880000AF014FC02F080FF034687F87F3097F837
:10B890007F30082B03D1386E08F025FAA2E07B6ECA
:10B8A00097F87F209A777B6E9B78002B32D1FB6DC7
:10B8B0009B7E03F00103DBB2002B07D03B6E3833D5
:10B8C000F96D1022184626F023F918E03B6E03F1BB
:10B8D0003800FB6D44331022194626F019F93B6EEF
:10B8E00003F12E00FB6D56330822194626F010F99D
:10B8F0003B6E3633FA6D5432128892B21A803B6E28
:10B90000D81DFB6D60331022194626F001F917E0AF
:10B91000292B01203B6E3833F96D1022184626F092
:10B92000F7F87B6E0C33F96D1022184626F0F0F80C
:10B930003B6ED81DFB6D60331022194626F0E8F8E7
:10B94000FB6D9B7EC3F38503D9B23A6E92F8483003
:10B9500061F3870382F84830FB6D9B7EC3F340039D
:10B96000D9B23A6E92F8483061F3410382F8483018
:10B97000FB6D9B7EC3F30003D9B23A6E92F8483058
:10B9800061F3000382F848303B6E03F11E00FB6D4B
:10B990001C331022194626F0BBF83B6EFA6D1733A4
:10B9A0002C32106818609188927999809A7197F872
:10B9B0007F30396E184602F0A1FE386E08F093F918
:10B9C00010E000BF0EE000BF0CE000BF0AE000BFC7
:10B9D00008E000BF06E000BF04E000BF02E000BFD7
:10B9E00000E000BF8437BD4690BD80B598B000AF81
:10B9F00078607B681B78032B05D17B685B681846F1
:10BA0000FFF72FFE78E07B681B78012B74D17B68F1
:10BA10005B68FB65FB6D1B78052B54D1FB6D5B8868
:10BA20001846FFF775FAB865BB6D002B63D0BB6D88
:10BA30001B8801211846FFF7C1FDBB6DDB7A83F03F
:10BA40000103DBB2002B2BD0BB6D9B7F07F10C02F7
:10BA50001146184602F0E8FD0346002B13D1BB6DDA
:10BA60001A8807F10C0338331946104622F0F6F80D
:10BA70000346002B40D0FB6D588800230022012193
:10BA8000FFF7CDFD38E0BB6D1B88184622F0A6FEFF
:10BA9000FB6D5888002300220121FFF7C0FD2BE039
:10BAA000BB6D1A88BB6D0C331946104622F0D6F8D0
:10BAB0000346002B20D0FB6D588800230022012173
:10BAC000FFF7ADFD18E0FB6D1B78032B14D1FB6D68
:10BAD0001B79002B07D1FB6D5B88002201211846E2
:10BAE000FFF783FD08E0FB6D588800230022012149
:10BAF000FFF795FD00E000BF6037BD4680BD80B414
:10BB000083B000AF0346FB71044AFB791370002336
:10BB100018460C37BD465DF8047B7047292B012081
:10BB200090B599B000AF03460A46FB8013467B717F
:10BB3000FB881846FFF7ECF9B865BB6D002B01D107
:10BB4000032349E0BB6D9B78002B40D17B7983F0C8
:10BB50000103DBB2002B27D0BB6D9B7F07F10C02EA
:10BB60001146184602F060FD0346002B1CD107F178
:10BB70000C0303F1380407F10C0303F1360207F15B
:10BB80000C0303F12E01F888234620F01FF9034629
:10BB9000A7F85E30B7F85E30002B15D1FB88012185
:10BBA0001846FFF70BFD0FE0FB88184622F07EFEDB
:10BBB0000346A7F85E30B7F85E30002B04D1FB884F
:10BBC00000211846FFF7FAFCB7F85E3004E0FB8866
:10BBD000184622F06BFE034618466437BD4690BDFA
:10BBE00080B400AF034B01221A7000BFBD465DF860
:10BBF000047B7047292B012080B586B000AF034637
:10BC0000FB7107F10E02FB7911461846FFF7A0FC05
:10BC10000346002B08D106233B74FB897B8207F186
:10BC2000100318460AF042FA00BF1837BD4680BD1F
:10BC300080B588B000AFB96011461A460346FB8153
:10BC40000B46BB811346FB80FB893B82BB687B6153
:10BC5000BB893B83FB887B830E4B1B68FB6110E039
:10BC6000FB691B6807F1100210469847034683F0F2
:10BC70000103DBB2002B01D0002306E0FB695B6807
:10BC8000FB61FB69002BEBD1012318462037BD4631
:10BC900080BD00BFA43401201FB50446694600885A
:10BCA00000F0ACF968B3BDF80230ABB1019B9BB1B9
:10BCB000029BD3B9A2882088CAB1A368BBB16188AE
:10BCC000FAF736FCD0B14FF0200383F31188BFF3AD
:10BCD0006F8FBFF34F8FFEE74FF0200383F3118880
:10BCE000BFF36F8FBFF34F8FFEE79847E2E7019BEB
:10BCF000BDF802200021FAF71BFCE3E7208800F0E2
:10BD0000C4F904B010BD7FB56946054600F076F968
:10BD100010B9002004B070BDBDF80230A3B1019B82
:10BD200093B1029BCBB92846FAF78CFC019ABDF877
:10BD3000021006462846FAF7A3FC022804460ED154
:10BD4000B4FA84F04009E5E74FF0200383F311884B
:10BD5000BFF36F8FBFF34F8FFEE79847E3E740B124
:10BD60004FF0200383F31188BFF36F8FBFF34F8F22
:10BD7000FEE73346BDF8022001992846FFF758FF39
:10BD80000028DDD1C5E71FB504466946008800F0EC
:10BD900035F910B9002004B010BDBDF8023093B1E0
:10BDA000019B83B1029B83B96188A288BDF80230F0
:10BDB00088189842EEDCA3682088FAF719FCB0FADC
:10BDC00080F04009E7E700F029F89847ECE773B501
:10BDD000104ADFF844C005460E4600236C46BCF806
:10BDE0000210994201D800200DE092E8030084E897
:10BDF0000300D1888D4208D1ADF8065094E80300C5
:10BE000086E80300012002B070BD013308329BB206
:10BE1000E5E700BFEC030001A83401204FF0200348
:10BE200083F31188BFF36F8FBFF34F8FFEE72DE9C8
:10BE30007F431B4D80462868F8F7DCFC00248146D0
:10BE40002646A14509D836BB3246414614480DF076
:10BE500033F901281FD0FFF7E1FF002201A928468E
:10BE60000DF074F901280DD1019AD8F8003001A91C
:10BE70009A4208BF01262846002201340DF01CF921
:10BE8000E4B2DEE74FF0200383F31188BFF36F8F36
:10BE9000BFF34F8FFEE7012004B0BDE8708300BF01
:10BEA0001436012010B5044688B1082004F04AF980
:10BEB00040B94FF0200383F31188BFF36F8FBFF3B6
:10BEC0004F8FFEE7024B04601A694260186110BD93
:10BED000A834012010B5044688B1082004F032F9D6
:10BEE00040B94FF0200383F31188BFF36F8FBFF386
:10BEF0004F8FFEE7024B04601A684260186010BD65
:10BF0000A434012010B50446082004F01BF928B120
:10BF1000034B04805A6942605861012010BD00BF84
:10BF2000A834012000F44063B3F5406F13B514D179
:10BF30006946FFF74CFF70B9002002B010BD009BAE
:10BF400033F81400FAF7D6FC0134E4B2BDF804303B
:10BF5000A342F4D8F0E70024F8E7FAF7CBFCEBE7CC
:10BF6000034B00229880181DDA801A81DA605EE7A0
:10BF7000A8340120054B5B690BB9184670471A8835
:10BF8000824201D05B68F7E701207047A8340120A6
:10BF90007FB5184B184D5E6904464EB90120FAF77B
:10BFA00001FD31462868F7F7B1FE002004B070BDEE
:10BFB000FAF7F8FC24B100212868F7F7A7FEF4E7A8
:10BFC0002868F8F717FC0646A642EED9002201A918
:10BFD00028460DF0BBF8012809D1BDF80400FFF791
:10BFE000C9FF20B1002201A928460DF065F80134EF
:10BFF000E4B2E9E7A8340120143601202DE97041AC
:10C00000DFF848C0DFF8488085B086460E46002538
:10C010006C46BCF80030AB4201D8002010E008EBC1
:10C0200005130FCB84E80F00BDF8003073450AD12B
:10C03000234603CB3060716003CBB060F160012018
:10C0400005B0BDE870810135E3E700BFA8340120E9
:10C05000EC0200011FB50446008800F44063B3F50C
:10C06000406F02D1002004B010BD6946FFF7C6FF43
:10C070000028F7D0A28863881344BDF802209342B9
:10C08000F0DC2046FFF7D3FEEDE738B5044B1C6922
:10C09000054604B938BD2368284698476468F8E720
:10C0A000A834012030B585B0044669460088FFF702
:10C0B000A5FF002845D0BDF80230D3B1019BC3B124
:10C0C000029BFBB92088FAF7ADFC2588E0B9019AFC
:10C0D000BDF802102846FAF7D3FA10F0FD0F2DD064
:10C0E0004FF0200383F31188BFF36F8FBFF34F8F9F
:10C0F000FEE74FF0200383F31188BFF36F8FBFF388
:10C100004F8FFEE79847DDE7A2887AB1A3686BB14D
:10C1100061882846FAF70CFA80B14FF0200383F3C8
:10C120001188BFF36F8FBFF34F8FFEE7019BBDF800
:10C13000022000212846FAF7FBF9EDE72088FFF7F7
:10C14000A4FF05B030BD08B5024B1868F8F752FBE4
:10C15000C0B208BD1436012030B5184D89B0002298
:10C1600002A928460CF0F2FF012801D009B030BD29
:10C17000BDF8080000F44063B3F5406F19D169467B
:10C18000FFF725FE0028EAD00024ADF81640ADF8F0
:10C1900018400794BDF80430A342E0D9009B05A8DD
:10C1A00033F81430ADF814300134FFF77BFFE4B2FC
:10C1B000F0E702A8FFF776FFD1E700BF14360120B1
:10C1C00030B50446008800F44063B3F5406F85B095
:10C1D00003D10025284605B030BD6946FFF70EFFA4
:10C1E00005460028F5D0A28863881344BDF80220D4
:10C1F0009342EEDC2046FFF755FFEBE700F4406387
:10C20000B3F5406F37B518D16946FFF7E0FD054635
:10C2100088B900250CE0009B33F81400FAF702FC03
:10C220000028F6D00134E4B2BDF80430A342F2D8BD
:10C23000284603B030BD0024F6E7FAF7F3FB0546C5
:10C24000F6E700F44063B3F5406F13B516D16946C5
:10C25000FFF7BDFD80B9012002B010BD009B33F88F
:10C260001400FFF750FD0028F6D00134E4B2BDF809
:10C270000430A342F2D8EEE70024F8E7FFF743FDCD
:10C28000EAE7038803F44063B3F5406F00D07AE532
:10C290000020704780B500AF002003F07FFC03460C
:10C2A00023F07F03DAB27D4B1A707C4B1B78002B96
:10C2B00002D07B4B01221A70784B1B78002B2ED1B9
:10C2C000774B1B78002B2AD0754B00221A70754BC8
:10C2D0001B78002B0ED1734B01221A70714B1B7906
:10C2E0001A46FF215520FCF71FFE6F49002001F080
:10C2F0008BF808E0FCF754FF6A4B00221A706B4978
:10C30000002001F081F805F09BFB0346032B04D1CC
:10C3100040218A2004F0CAFA01E006F014FC002053
:10C3200003F094FC03461A46614B1A70002003F098
:10C33000A3FC03461A465F4B1A805D4B1B78002B0B
:10C3400018D05D4B01221A70564B55229A70554BEE
:10C35000FF22DA70574B1B88DAB2524B1A71514BDD
:10C360001B78012B06D14F4B1B791A46FF21552014
:10C37000FCF7DAFD4E4B1B78002B0FD14E4B1B7890
:10C38000002B0BD04C4B00221A7005F059FB0346D2
:10C39000032B03D142218A2004F088FA414B1B78F9
:10C3A000012B57D14FF40051444810F0CBFB4FF410
:10C3B0008071424810F0B8FB4FF480613F4810F0A4
:10C3C000B3FB80213D4810F0AFFB4FF400713B48B8
:10C3D00010F0AAFB4FF48041384810F0A5FB4FF451
:10C3E0008061374810F0A0FB2E4B1B79002B04D046
:10C3F0004FF48071314810F0A5FB2A4B1B792B2B91
:10C4000004D94FF480612D4810F09CFB254B1B791B
:10C41000552B03D98021294810F094FB214B1B791F
:10C42000782B04D94FF40071244810F08BFB1D4B7E
:10C430001B79A52B04D94FF48041204810F082FBD2
:10C44000184B1B79D52B27D94FF480611C4810F06D
:10C4500079FB21E04FF40051184810F065FB4FF4D0
:10C460008071164810F060FB4FF48061134810F0A3
:10C470005BFB8021114810F057FB4FF400710F480F
:10C4800010F052FB4FF480410C4810F04DFB4FF47C
:10C4900080610B4810F048FB00BF80BDA93501202A
:10C4A000AE350120803B01201C9B02012C9B020128
:10C4B000AA350120AC350120AF350120002A004407
:10C4C000002B004480B500AF03F022FA0C4B1B7820
:10C4D000DBB2012B12D10A4B00221A70FFF7DAFEF1
:10C4E000084B1B680133074A1360064B1B68192B66
:10C4F00004D1044B00221A6000F0C4F800BF80BDD4
:10C50000BA320120A435012080B582B000AF786036
:10C510007B6803331B78002B09D1FCF741FE134BDA
:10C5200000221A701249002000F06EFF18E07B68AC
:10C5300003331B78012B13D10C4B1B78002B08D134
:10C540000A4B9878094BD978084B1B791A46FCF7A7
:10C55000EBFC064B01221A700649002000F054FF44
:10C56000002318460837BD4680BD00BF803B012030
:10C570002C9B02011C9B020180B582B000AF786049
:10C580007B68DA780F4B9A707B681A790D4BDA70FA
:10C590007B685A790B4B1A710A4B1B78012B0CD113
:10C5A000084B9878074BD978064B1B791A46FCF74D
:10C5B000BBFC0549002000F027FF00231846083780
:10C5C000BD4680BD803B01203C9B020180B5C4B0CC
:10C5D00000AF3B1D18600C4B1B7883F00103DBB2EE
:10C5E000002B0CD007F10C0306221A7007F10C0384
:10C5F000194606480CF084FD034B01221A7000BF57
:10C6000007F58877BD4680BDA8350120C40000200D
:10C6100080B500AF174B00221A70174B1B78002B08
:10C6200010D1154B9878144BD978134B1B791A46B7
:10C63000FCF77AFC104B01221A701049002000F020
:10C64000E3FE08E0FCF7ACFD0B4B00221A700C492E
:10C65000002000F0D9FE05F0F3F90346032B04D1C6
:10C6600040218A2004F022F901E006F06CFA00BFB4
:10C6700080BD00BFA8350120803B01201C9B02012A
:10C680002C9B020190B585B000AF4FF00003BB605A
:10C690000023FB8110F078FFF0EE407AC7ED027ABC
:10C6A000C7ED017AD7ED027AF5EEC07AF1EE10FA15
:10C6B00022D5BB68184622F04FFB03460C461846AD
:10C6C00021461FF00FFA034607EE903AF1EE677A23
:10C6D000C7ED027AD7ED027AB2EE047A67EE877A76
:10C6E000FCEEE77A17EE903AFB81FB896FEA434351
:10C6F0006FEA5343FB810AE0D7ED027AB2EE047A87
:10C7000067EE877AFCEEE77A17EE903AFB81FB89B9
:10C71000DAB2344B9A71FB891B0A9BB2DAB2314B05
:10C720005A7105F08DF90346032B34D12E4BD3ED0E
:10C73000007AB7EE007A37EE877AD7ED017AB4EE59
:10C74000E77AF1EE10FA0ED4274BD3ED007AB7EE6C
:10C75000007A37EEC77AD7ED017AB4EEE77AF1EED8
:10C7600010FA00DC39E041218A2004F09FF80346EA
:10C77000002B32D17B681C4A13601B4B1B68184688
:10C7800022F0EAFA03460C461A46234617490020CF
:10C7900000F0DEFD21E0164BD3ED007AB7EE007A13
:10C7A00037EE877AD7ED017AB4EEE77AF1EE10FA38
:10C7B0000ED40F4BD3ED007AB7EE007A37EEC77A7E
:10C7C000D7ED017AB4EEE77AF1EE10FA00DC04E07E
:10C7D00006F0B9F97B68064A136000BF1437BD46FE
:10C7E00090BD00BF803B0120883B0120509B02018F
:10C7F0008C3B012080B582B002AF03230093052358
:10C80000094A0A498A2003F067FF01224FF47A712E
:10C81000012006F019FB0022054901200BF0D6FE8D
:10C8200000BFBD4680BD00BFC83B0120903B01203A
:10C83000CDC5000180B400AF034B044A1A6000BFAD
:10C84000BD465DF8047B7047883B0120000048C26C
:10C8500080B485B000AF78600023FB73FB7B5A1C6B
:10C86000FA731A467B681344FF221A70FB7B5A1C2A
:10C87000FA731A467B68134402221A70FB7B5A1C17
:10C88000FA731A467B68134440221A70FB7B5A1CC9
:10C89000FA731A467B681344114A12781A70FB7BAC
:10C8A0005A1CFA731A467B68134441221A70FB7BA8
:10C8B0005A1CFA731A467B681344094A52791A7053
:10C8C000FB7B5A1CFA731A467B681344044A92791C
:10C8D0001A7000BF1437BD465DF8047B704700BF77
:10C8E000803B012080B582B000AF78600422002137
:10C8F000786825F051FE00BF0837BD4680BD80B482
:10C9000083B000AF0023FB7117E0114B1A68FB796D
:10C910009B0013449B78002B0CD10D4B1A68FB79BC
:10C920009B00134401229A70094B1A68FB799B0003
:10C93000134406E0FB790133FB71FB79072BE4D943
:10C94000002318460C37BD465DF8047B704700BFD6
:10C950001036012080B485B000AF0346FB80002371
:10C96000FB7318E0114B1A68FB7B9B0013449B7808
:10C97000012B0DD10D4B1B68FA7B33F82230FA885E
:10C980009A4205D1094B1A68FB7B9B00134406E0D1
:10C99000FB7B0133FB73FB7B072BE3D9002318469A
:10C9A0001437BD465DF8047B704700BF1036012088
:10C9B00080B582B000AF164B1B68002B0BD12C202A
:10C9C00007F085F90246124B1A60114B1B68002BC9
:10C9D00001D1002318E00E4B1B682C2200211846C1
:10C9E00025F0DAFD0023FB710AE0094B1A68FB7998
:10C9F0009B0013441846FFF775FFFB790133FB7169
:10CA0000FB79072BF1D9012318460837BD4680BDB5
:10CA10001036012080B584B000AF78607B689B78C9
:10CA2000002B09D1FFF76BFFF860FB68002B03D0E8
:10CA30007B689A88FB681A8000BF1037BD4680BDAE
:10CA400080B584B000AF78607B685B881846FFF7DC
:10CA500081FFF860FB68002B02D0F868FFF742FF07
:10CA600000BF1037BD4680BD80B586B000AF78608E
:10CA70007B685B881846FFF76DFF78617B69002B48
:10CA800017D07B69DB78002B13D07B681B79002BD8
:10CA900002D107233B7301E008233B737B685B886B
:10CAA000FB8107F10C03184609F000FB7B690022AB
:10CAB000DA7000BF1837BD4680BD90B484B000AFB7
:10CAC0000446084611461A462346FB800346BB80AF
:10CAD0000B467B8013463B80FB88052B19D9FB88CE
:10CAE000B3F5486F15D8BB88052B12D9BB88B3F5B1
:10CAF000486F0ED87B88B3F5FA7F0AD23B88092BA2
:10CB000007D93B88B3F5486F03D8FA88BB889A42A7
:10CB100001D900232AE07B8801339BB2BA8812FB3B
:10CB200003F39BB25B00FB813B88DA00FB899A42EE
:10CB300001D200231AE0104B1B685B8CFA889A42E2
:10CB400011D80D4B1B681B8CBA889A420BD30A4B29
:10CB50001B68DB8C7A889A4205D8074B1B689B8C34
:10CB60007A889A4201D2002300E001231846103748
:10CB7000BD4690BC704700BF1036012080B586B01E
:10CB800000AF7860194B1B6893F82A30002B29D02E
:10CB90007B6898887B68D9887B681A897B685B8901
:10CBA000FFF78BFF0346FB75FB7D002B14D07B68E2
:10CBB0009B88BB817B68DB88FB817B681B893B8210
:10CBC0007B685B897B827B685B8807F10C0211467E
:10CBD000184621F00BF805E07B685B883B2118467E
:10CBE00021F020F800BF1837BD4680BD1036012067
:10CBF00080B582B000AF78607B681B78062B21D8A7
:10CC000001A252F823F000BF25CC00012DCC000179
:10CC100035CC000145CC000145CC000145CC0001DC
:10CC20003DCC00017868FFF7F5FE0CE07868FFF76F
:10CC300007FF08E07868FFF717FF04E07868FFF760
:10CC40009DFF00E000BF00BF0837BD4680BD80B536
:10CC500086B000AF78607B685B881846FFF77AFE85
:10CC600078617B69002B35D01C4B1B6893F82A3008
:10CC7000002B2FD07B6898887B68D9887B681A89BD
:10CC80007B685B89FFF719FF0346FB74FB7C002B75
:10CC90001AD07B685B880021184621F0BFF87B68BA
:10CCA0009B883B817B68DB887B817B681B89BB81A0
:10CCB0007B685B89FB817B685B8807F10802114612
:10CCC000184620F077FF05E07B685B880121184655
:10CCD00021F0A4F800BF1837BD4680BD10360120F2
:10CCE00080B586B000AF78607B685B881846FFF738
:10CCF00031FE78617B69002B14D07B689B88002B08
:10CD000010D07B69DB78002B0CD008233B737B6849
:10CD10005B88FB8107F10C03184609F0C7F97B69B2
:10CD20000022DA7000BF1837BD4680BD80B582B0E2
:10CD300000AF78607B681B78002B02D0012B04D0F9
:10CD400007E07868FFF783FF03E07868FFF7C8FF24
:10CD500000BF00BF0837BD4680BD80B582B000AFC0
:10CD600078607B681B78012B02D0022B06D00BE089
:10CD70007B685B681846FFF73BFF05E07B685B68F4
:10CD80001846FFF7D3FF00BF00BF0837BD4680BD80
:10CD900080B483B000AF78607B681B7A002B41D0F1
:10CDA0007B685A887B681B889A4213D37B68DA8831
:10CDB0007B689B889A420DD37B681B88052B09D919
:10CDC0007B685B88B3F5486F04D87B68DB88B3F574
:10CDD000FA7F06D3194B1B68002283F82A2003230D
:10CDE00026E0164B1B68012283F82A20134B1B6890
:10CDF0007A6812881A84114B1B687A6852885A84A0
:10CE00000E4B1B687A6892889A840C4B1B687A6870
:10CE1000D288DA84094B1B687A68127A83F8282052
:10CE2000002305E0054B1B68002283F82A2000231D
:10CE300018460C37BD465DF8047B7047103601205C
:10CE400090B58BB002AF03463960FB80FB88184673
:10CE5000FFF780FDB861FB881846FEF759F8786146
:10CE6000BB69002B35D07B69002B32D03B681B8817
:10CE7000BB813B685B88FB813B689B883B823B684E
:10CE8000DB887B8207F10C02FB881146184620F0F4
:10CE900091FE0346FB83FB8BB3F58D7F12D17B693B
:10CEA0009B78012B0ED13B6819883B685A883B68F8
:10CEB0009C883B68DB88F888009323461EF00AF9BB
:10CEC0000346FB83FB8B002B06D1BB690122DA7082
:10CED00002E00323FB8300E000BFFB8B18462437EE
:10CEE000BD4690BD80B584B000AF03463960FB807D
:10CEF0003B68FB60224B1B7883F00103DBB2002B05
:10CF00000BD0204806F07FFE0346012B02D04FF0E5
:10CF1000FF3330E01A4B01221A70FB88002B02D13C
:10CF20003B68002B02D14FF0FF3324E0FA88134610
:10CF30005B0013449B00144A1344BB60BB6893F925
:10CF40000030002B15D1FB689A68BB689A60FB68BB
:10CF50005A68BB685A60BB6802221A70BB685B687B
:10CF60005B68BA689068FA68126811469847FB884F
:10CF700001E04FF0FF3318461037BD4680BD00BFBB
:10CF8000442E0120482E0120702D012080B586B04E
:10CF900000AF7860FF23FB757B68BB82BB8A002BE8
:10CFA00002D04FF0FF3334E0BA8A13465B001344DB
:10CFB0009B001A4A13443B613B695B68002B01D11B
:10CFC000002326E03B695B685B6A3A699268104619
:10CFD00098470346FB73FB7B032B17D801A252F83B
:10CFE00023F000BFF5CF0001FBCF000101D000010D
:10CFF00007D000010023FB7509E00223FB7506E062
:10D000000123FB7503E0FF23FB7500E000BF97F9E8
:10D01000173018461837BD4680BD00BF702D01205F
:10D0200080B485B000AF0346FB80FB88002B07D19E
:10D03000FA8813465B0013449B00094A134400E03E
:10D040000023FB60FB68002B01D0FB8801E04FF060
:10D05000FF3318461437BD465DF8047B704700BFA8
:10D06000702D012080B485B000AF78607B68002B04
:10D0700007D17A6813465B0013449B000B4A1344A4
:10D0800000E00023FB60FB68002B07D0FB685B68B7
:10D09000002B03D0FB685B681B7800E00223184676
:10D0A0001437BD465DF8047B704700BF702D01202A
:10D0B00080B584B000AF78607A6813465B00134493
:10D0C0009B000A4A1344FB60FB685B68002B08D096
:10D0D000FB685B681B6AFA68926879681046984733
:10D0E00000E000BF1037BD4680BD00BF702D01209D
:10D0F00080B586B000AFF860B9607A60FB68002B3D
:10D1000007D1FA6813465B0013449B00114A13448D
:10D1100000E000237B617B69002B15D07B6993F9CC
:10D120000030002B03D07B695B68002B02D14FF0ED
:10D13000FF330BE07B695B689B687A6990687A686B
:10D14000B9689847034601E04FF0FF331846183797
:10D15000BD4680BD702D012080B584B000AF7860E1
:10D160007B68002B07D17A6813465B0013449B0051
:10D17000114A134400E00023FB60FB68002B14D02D
:10D18000FB6893F90030002B03D0FB685B68002B31
:10D1900002D14FF0FF330AE0FB685B681B69FA6855
:10D1A000926810469847034601E04FF0FF33184657
:10D1B0001037BD4680BD00BF702D012080B584B002
:10D1C00000AF78607B68002B07D17A6813465B005C
:10D1D00013449B00114A134400E00023FB60FB68EA
:10D1E000002B14D0FB6893F90030002B03D0FB68B0
:10D1F0005B68002B02D14FF0FF330AE0FB685B68ED
:10D20000DB68FA68926810469847034601E04FF0E1
:10D21000FF3318461037BD4680BD00BF702D01207A
:10D2200080B586B000AFF860B9607A60FB68002B0B
:10D2300007D1FA6813465B0013449B00114A13445C
:10D2400000E000237B617B69002B15D07B6993F99B
:10D250000030002B03D07B695B68002B02D14FF0BC
:10D26000FF330BE07B695B685B697A6990687A6879
:10D27000B9689847034601E04FF0FF331846183766
:10D28000BD4680BD702D012080B584B000AF7860B0
:10D290007B68002B07D17A6813465B0013449B0020
:10D2A000114A134400E00023FB60FB68002B14D0FC
:10D2B000FB6893F90030002B03D0FB685B68002B00
:10D2C00002D14FF0FF330AE0FB685B68DB69FA6864
:10D2D000926810469847034601E04FF0FF33184626
:10D2E0001037BD4680BD00BF702D012080B584B0D1
:10D2F00000AF78607B68002B07D17A6813465B002B
:10D3000013449B00114A134400E00023FB60FB68B8
:10D31000002B14D0FB6893F90030002B03D0FB687E
:10D320005B68002B02D14FF0FF330AE0FB685B68BB
:10D330009B69FA68926810469847034601E04FF0EF
:10D34000FF3318461037BD4680BD00BF702D012049
:10D350000EB480B587B000AF786000237B617B6836
:10D36000002B07D17A6813465B0013449B00234AC5
:10D37000134400E000233B613B69002B32D03B6942
:10D3800093F90030002B2FD03B695B68002B2BD02A
:10D390004FF6FF711A4806F062FC0346002B25D0B9
:10D3A00007F12803FB60FB687A6AC82115481CF066
:10D3B00055FB03467B617B69002B0FD07B69C72B34
:10D3C0000CD8104A7B69134400221A703B695B68D1
:10D3D0005B693A6990687A690A499847084806F093
:10D3E00061FC04E000BF02E000BF00E000BF1C37AA
:10D3F000BD46BDE8804003B0704700BF702D0120DE
:10D40000482E01207C2D0120B0B584B000AF78609B
:10D4100039607B68002B07D17A6813465B001344A0
:10D420009B00124A134400E00023FB60FB68002BC2
:10D4300016D0FB6893F90030002B13D0FB685B68B3
:10D44000002B0FD0FB685B685C69FB689D683868DF
:10D4500024F0CEFD03461A4639682846A04702E06C
:10D4600000BF00E000BF1037BD46B0BD702D0120E9
:10D4700080B584B000AF78607B68002B07D17A68F4
:10D4800013465B0013449B00104A134400E0002342
:10D49000FB60FB68002B13D0FB6893F90030002B76
:10D4A00003D0FB685B68002B01D1002309E0FB6817
:10D4B0005B689B6AFA68926810469847034600E0EA
:10D4C000002318461037BD4680BD00BF702D0120D7
:10D4D00080B400AF064B4FF082721A60054B0222F7
:10D4E0001A7000231846BD465DF8047B704700BFE4
:10D4F000C8340120C034012080B586B000AF034697
:10D500003960FB80FA88A04B1B681A449F4B1B684C
:10D5100003F182739A420BD8FB88B3F5806F07D86A
:10D52000FB8803F00F03002B02D1FB88002B01D1F5
:10D53000032325E100BF06F0C5F90346002BFAD10D
:10D54000914B1B68C3F30B03002B10D08E4B1B6851
:10D5500023F47F6222F00F02F9888B4B1B680B4487
:10D56000013B23F47F6323F00F039A4220D2FA8811
:10D57000854B1B681344013B23F47F6323F00F03A7
:10D58000184606F085F9034683F00103DBB2002B51
:10D5900001D00123F4E000BF06F094F90346002B0C
:10D5A000FAD106F082F90346002B01D00123E7E00F
:10D5B000754B1B68764A934200F28D803B680633B8
:10D5C0001B68744A934207D10023BB731423FB7377
:10D5D000714B01221A700FE03B6808331B686D4ADB
:10D5E000934207D11C23BB732C23FB736A4B00228D
:10D5F0001A7001E00323C3E0BB7B03F18272624B2C
:10D600001B689A423BD3FA885F4B1B681A44BB7B6A
:10D6100003F182739A4232D95F4B1B78002B21D0E1
:10D6200000BF06F04FF90346002BFAD107F10803BB
:10D630004FF080720421184606F0C4F8034683F0C8
:10D640000103DBB2002B01D0012399E0BB68013B51
:10D65000BB604D4B1B68C3F182733A681344BA68D0
:10D660001A6002E04FF0FF33BB60BA7B464B1B6889
:10D67000D31A03F182733A681344BA681A60FB7BC9
:10D6800003F18272404B1B689A4224D3FA883E4BC6
:10D690001B681A44FB7B03F182739A421BD93F4BF0
:10D6A0001B6803F44043B3F5404F0AD1FA7B364B75
:10D6B0001B68D31A03F182733A681344384A1A601C
:10D6C00009E0FA7B304B1B68D31A03F182733A6886
:10D6D0001344344A1A603B687B612B4B1B683B61E7
:10D6E000294B1B68B3F1827F3CD12F4B1B68002B69
:10D6F0000BD1102006F0EBFA02462B4B1A602A4B96
:10D700001B68002B01D102233AE0274B1B68102233
:10D710007969184624F0FCF93B6910333B617B6959
:10D7200010337B611EE03969786906F071F80346B1
:10D7300083F00103DBB2002B01D0012320E000BF06
:10D7400006F0C0F80346002BFAD106F0AEF8034607
:10D75000002B01D0012313E07B6910337B613B690F
:10D7600010333B61FA88084B1B6813443A699A42AC
:10D77000D9D3054A3B6913600C4B03221A7000236E
:10D7800018461837BD4680BDC8340120C434012076
:10D790002C0004015048434DD03401204004004483
:10D7A0000002000100020401CC340120C034012039
:10D7B00080B588B000AF0346FB800023FB600023E8
:10D7C000BB60334B1B78002B0DD01023BB77142389
:10D7D000FB7707F108031A4604211C2000F08AF8A1
:10D7E0000346BB610CE02023BB772C23FB7707F1BA
:10D7F00008031A460421342000F07CF80346BB617C
:10D80000BB6803F50073BB60BB68B3F5802F02D81B
:10D81000BB69002B01D0012336E000233B740023B9
:10D820007B744FF6FF737B61BB7F03F182731846F5
:10D83000FA7FBB7FD31A194607F110030CCBFCF714
:10D84000A9FE03467B6107F10C0007F110030CCB26
:10D850000421FCF79FFE03467B61FB7F03F182738B
:10D8600004331846BA68FB7FD31A191F07F1100357
:10D870000CCBFCF78FFE03467B617A69FB889A42EA
:10D8800001D0012300E0002318462037BD4680BDAB
:10D89000D034012080B500AF144B1B684FF082716B
:10D8A000184605F0B5FF034683F00103DBB2002BF9
:10D8B00001D0012318E000BF06F004F80346002B56
:10D8C000FAD105F0F2FF0346002B01D001230BE053
:10D8D000064B1B68184606F006FA044B00221A6035
:10D8E000034B01221A700023184680BDCC3401205E
:10D8F000C034012080B584B000AFF8600B467A6078
:10D900007B817A89FB681344B3F5802F03D87B8928
:10D91000B3F5806F01D9032316E000BF05F0D2FFF5
:10D920000346002BFAD17989FB6803F182731A460A
:10D93000786805F047FF034683F00103DBB2002B54
:10D9400001D0012300E0002318461037BD4680BDFA
:10D9500080B483B000AF78607B681B68002B05D073
:10D960007B681B6803F00F03002B01D0032317E033
:10D970007B681B79012B12D17B681B68B3F5802F64
:10D9800001D903230CE0094B094A1A607B681B6824
:10D99000084A1360084B01221A70002300E0032399
:10D9A00018460C37BD465DF8047B7047D43401201F
:10D9B000D8210301C4340120C034012080B500AF58
:10D9C000064B1B78002B01D1052304E0044B1B6898
:10D9D0001B6898470346184680BD00BFC03401202D
:10D9E000D434012080B582B000AF03463960FB809B
:10D9F0000A4B1B78022B05D0084B1B78032B01D058
:10DA0000052307E0064B1B685B68FA8839681046F7
:10DA10009847034618460837BD4680BDC0340120EC
:10DA2000D434012080B582B000AF0346FB80054BA3
:10DA30001B689B68FA8810469847034618460837C3
:10DA4000BD4680BDD434012080B500AF064B1B78A5
:10DA5000032B01D0052304E0044B1B68DB689847C7
:10DA60000346184680BD00BFC0340120D4340120D5
:10DA700080B584B000AFF8600B467A607B81094BBB
:10DA80001B78012B01D8052307E0074B1B681B6996
:10DA900079897A68F8689847034618461037BD4672
:10DAA00080BD00BFC0340120D4340120704770B560
:10DAB000E9B101444FF6FF7348F2084589B210F806
:10DAC000014B082284EA030616F0010F4FEA5303C4
:10DAD00002F1FF3214BF6B409BB212F0FF024FEA1B
:10DAE0005404EFD182B28A42E9D1DB4399B20846AD
:10DAF00070BD10B51378ED2B144611D15378032B5C
:10DB00000ED1937853B1012B0AD1FFF7D0FF2279C0
:10DB1000E37803EB02231B1A18BF0123184610BD3C
:10DB20000123FBE7F0B5034640780622B0FBF2F193
:10DB300002FB110212F0FF001FD1114E114FDFF84E
:10DB400048C0CDB20146A94200D1F0BDDC789A7838
:10DB500093F804E002EB042202F1824404F59034CD
:10DB6000013184F800E05C7994559C79D455DC79D6
:10DB700002F80C40C9B20633E5E70120E5E700BF33
:10DB80000120014102200141032001412DE9F04320
:10DB900043780622B3FBF2F602FB163212F0FF02C4
:10DBA00037D102391C4FDFF874C0DFF874E0F6B2E9
:10DBB00003461546C9B2B54202D11046BDE8F0830E
:10DBC000DC789878012900EB042080B212D800F1AB
:10DBD000824404F5803893F8049088F8009004F1AA
:10DBE000011493F8058084F800809C79C455DC7991
:10DBF00000F80C40A42808D1187900F01F00C406D2
:10DC000048BF60F01F008EF800000135EDB206330A
:10DC1000D1E70122D1E700BF020001410300014129
:10DC2000C80000204078023818BF012070474378B0
:10DC3000042B05D1034BD0F802201A6001221A717F
:10DC40000020704700360120F8B50F460446002634
:10DC5000A1F10805A54202D84FF0FF3406E0237871
:10DC6000FF2B13D1230703D144F07F442046F8BD96
:10DC700024F003031C1DA742EED95A68013205D1D6
:10DC80005B69013302D114F00C0FEDD02378012B26
:10DC90000AD16378012B07D1A178621D0A44E01CE8
:10DCA000FFF727FF0028E1D00EB1D3E70434A542E7
:10DCB000D0D923680133CDD0234613F8012BEF2AA6
:10DCC0000BD16378002BF1D1A378ED2BEED1E37863
:10DCD000032BEBD107340126BCE71C46E7E72DE90F
:10DCE000F04785789DF8206004460F469046994697
:10DCF00003354FF0010A2378434508BF89F800A097
:10DD00002378092B47D010D8072B2ED033D8022BDD
:10DD100024D00020A74226D96378023DED1A2DB207
:10DD20000233002D1C44E6DC1DE00D2B27D006D865
:10DD30000A2BEED131462046FFF728FF11E01A2BBF
:10DD400023D0552BE5D1A4F50003A3F5C043B3F5CB
:10DD5000776FDED22046FFF76AFF02E02046FFF72A
:10DD600061FF0128D6D1BDE8F087002ED1D0204632
:10DD70000DF0A3F9F5E720460DF060F9F1E7002E6C
:10DD8000C7D020460DF080F9EBE7002EC1D0204629
:10DD90000DF0C6F9E5E7002EBBD02046FFF7C2FE26
:10DDA000DFE72DE9F7430F469046994630B3164B0F
:10DDB0001A7932B3186800F5776600250BE0434600
:10DDC000CDF800903A463146FFF789FF0546A07826
:10DDD00004F10A031844B0420CD23146FFF734FF75
:10DDE00010F07F4F0446EAD0084B20F07F449C425D
:10DDF00008BF0125284603B0BDE8F083044E034860
:10DE0000DBE78525F6E700BF0036012000608000D3
:10DE1000706F800013B5134614460A460146002071
:10DE2000FFF7BFFF054B1B7933B123460DF1070206
:10DE300000210120FFF7B5FF02B010BD0036012020
:10DE40002DE9F0478678089D9DF824A08946044670
:10DE5000174698460336002123786278FF2FDBB2FD
:10DE600008D1013BDBB2FD2B2ED828880232214697
:10DE700040440AE0BB4227D1BAF1000FF5D0062F8B
:10DE80000CD1072A1CD1A11C404623F041FE2B884F
:10DE90009A1C637813442B80012115E00B2F01D1CC
:10DEA000042AEFE70C2F01D1012AEBE7102F01D153
:10DEB000182AE7E7152F01D1082AE3E7182FEFD03A
:10DEC0002B8802331A442A806378023EF61A36B24F
:10DED0000233002E1C4401DD4C45BDD3012914BF83
:10DEE00080200020BDE8F0872DE9FF470746002489
:10DEF0001448154D154EADF80E4088464FF00109F7
:10DF00002946FFF7A1FE10F07F4F824613D10DF195
:10DF10000E030093CDF8049043463A462946FFF796
:10DF20008FFF00289AF802000AF10A03184408BF7C
:10DF30000124B042E4D9012C14BF8020002004B099
:10DF4000BDE8F08700608000706F80006F6F800018
:10DF5000014608B50620FFF7C7FFB0FA80F0400978
:10DF600008BD014608B51520FFF7BEFFB0FA80F0E6
:10DF7000400908BD024B93F900300370012070473F
:10DF8000C800002013B5044601A90B20FFF7ACFF21
:10DF900028B9BDF804302380012002B010BD002054
:10DFA000FBE713B5044601A90B20FFF79DFF28B935
:10DFB000BDF806302380012002B010BD0020FBE731
:10DFC00013B504460DF107010C20FFF78DFF28B9AA
:10DFD0009DF807302370012002B010BD0020FBE740
:10DFE000014B1879704700BF00360120014B1871B2
:10DFF000704700BF00360120014B1868704700BF12
:10E000000036012070B50378C4B004461F2B3AD8FF
:10E01000DFE813F020004B000E0239003900390010
:10E0200039006E0039004001390039006F016C027F
:10E030003900390039009C01E701910015023900CF
:10E040003900390039003900390039001D02480211
:10E050003900C701C588284620F0F6FF0246A8B956
:10E06000B74B0093CDE9015004231021EE2011F0AD
:10E07000CDFF0022043401920094062305214FF4C1
:10E08000827021F07BFD012044B070BD20F08CFB3C
:10E09000E388ADF81230237A8DF8143004A80123F8
:10E0A0008DF810301CF0EEFFE3E7C588284620F01D
:10E0B000CBFF024680B90123CDE90153A04B009369
:10E0C00010210423EE2011F0A1FF0022043401925C
:10E0D000009406230821D2E703238DF8103004A80A
:10E0E0002379ADF812508DF814301CF0CBFFECE71B
:10E0F000C588284620F0A8FF024680B90723CDE94D
:10E1000001538F4B009310210423EE2011F07EFF6A
:10E11000002204340192009404233021AFE703234A
:10E120008DF8103004A82379ADF812508DF8143012
:10E130001CF0A8FFECE7037A824D012B60D1286820
:10E1400000F5DA7011F006FE2A681378002123F03A
:10E1500001031370084621F0A3FC1EF0B1F92379E6
:10E16000002B40F08480E388002861D12278CDE93B
:10E170000132754B0093024604231121EE2011F069
:10E1800045FF23798DF8123004F10A06E388ADF8D3
:10E1900014303146237A607A8DF8163021F0CAFFA8
:10E1A000E389ADF81C30637D8DF8170003F0C003E0
:10E1B000D4F80A000690402B5ED1234653F8102F66
:10E1C000CDF81E209B88ADF822302346002553F859
:10E1D000160F09909B88ADF82830A38BADF82A3034
:10E1E00004A8D4F81E300B9304348DF810501CF0A2
:10E1F00049FF0195009420232A464FF49F713EE782
:10E200002A68137823F0040313700221002021F000
:10E2100047FC2B6803F5087203F5107352F8040BE2
:10E2200010B1C17801299AD09342F7D1002096E726
:10E2300003800223C370237A8370A38B8381E38BD3
:10E24000C381238C03822B6893F821200271627DA5
:10E2500002F0C002402A0ABF234653F8221F53F897
:10E26000101FC0F80510421D9B88938089E7002885
:10E2700087D020F099FA84E72B6893F82120022AAE
:10E2800002D153F8222F9BE70023CDF81E30ADF8C2
:10E2900022309AE7C588284620F0D6FE024688B983
:10E2A0000923CDE90153264B009310210423EE20CE
:10E2B00011F0ACFE00220434019200940A2340F2D3
:10E2C0003E31DCE60023837402238DF81030E388AE
:10E2D000ADF8123023798DF814302389ADF816305B
:10E2E000A268A389069204A8ADF81C301CF0CAFEEF
:10E2F000E0E78588284620F0A7FE024688B90C236F
:10E30000CDE901530E4B009310210423EE2011F0B0
:10E310007DFE00220434019200940A2340F23E6103
:10E32000ADE606238DF81030D4F80630059304A826
:10E33000D4F80A30ADF8125006931CF0A3FEE8E7BB
:10E34000608E0201FC000020948E0201C5882846E0
:10E3500020F07AFE90B91123CDE90153674B009369
:10E36000024604231021EE2011F050FE0022043456
:10E37000019200940C2340F23E4180E62379002B69
:10E38000F4D1237A9B0605D540F64802FB2100888C
:10E390001BF080FF172304A88DF810301CF072FECC
:10E3A000E4E78588284620F04FFE024680B91F2307
:10E3B000CDE90153514B009310210423EE2011F0BD
:10E3C00025FE00220434019200940223572156E6D0
:10E3D0000B2304A88DF81030ADF812501CF052FE3B
:10E3E000EFE7C588284620F02FFE024688B91223A1
:10E3F000CDE90153414B009310210423EE2011F08D
:10E4000005FE0022043401920094062340F63E41AA
:10E4100035E60C238DF8103023798DF8143004A8DC
:10E420002389ADF81250ADF815301CF02BFEE8E74B
:10E4300000220434019200940A230C211FE60022DA
:10E44000043401920094042341F23E4117E6C5884A
:10E45000284620F0F9FD024688B91C23CDE9015376
:10E46000274B009311210423EE2011F0CFFD002251
:10E470000434019200940A2342F23E11FFE5142372
:10E480008DF8103023798DF81230A26894F90C3091
:10E49000ADF8145004A8CDF816208DF81A301CF0F1
:10E4A000F1FDE4E78588284620F0CEFD024688B9D4
:10E4B0001D23CDE90153124B009311210423EE20BB
:10E4C00011F0A4FD0022043401920094042342F2CE
:10E4D0003E01D4E516238DF8103004A8E388ADF88A
:10E4E0001250ADF814301CF0CDFDEBE700220434DF
:10E4F000019200940A2340F23E71C0E5608E020151
:10E50000948E020180B5C6B000AF3B1D18603B463B
:10E510001960002387F8173113E097F81731C3F11A
:10E520000F033A1D12681A4497F81731127807F54D
:10E530008C710B4403F8242C97F81731013387F8BA
:10E54000173197F817310F2BE7D907F1F40207F1CC
:10E550000C03114618460AF0A6FE0346002B01D014
:10E5600000235CE007F582730D220021184624F099
:10E5700013F8002387F8173114E097F81731C3F127
:10E5800005033A4612681A4497F817310D3312788A
:10E5900007F58C710B4403F8142C97F817310133ED
:10E5A00087F8173197F81731022BE6D907F58273F0
:10E5B00007F1F40207F10C0010210AF0A5FE034652
:10E5C000002B01D000232AE0002387F8173113E045
:10E5D00097F81731C3F102033A4612681A4497F8C4
:10E5E0001731127807F58C710B4403F8142C97F847
:10E5F0001731013387F8173197F81731022BE7D914
:10E6000007F1F4030D3307F582710322184623F056
:10E6100071FA0346002B0CBF01230023DBB218461E
:10E6200007F58C77BD4680BD80B582B000AF03464C
:10E630003960FB71FB79072B0DD8FB799BB203F591
:10E6400000539BB21846FDF7D9FD034683F0010342
:10E65000DBB2002B01D0032346E0FB799BB203F52C
:10E6600000539BB21846FDF7ECFD0346002B3AD051
:10E67000FB799BB203F5005308339BB21846FDF7B4
:10E68000BDFD0346002B18D0FB799BB203F5005368
:10E6900008339BB21846FDF7D4FD034683F001030F
:10E6A000DBB2002B01D001231EE03B681733172299
:10E6B0000F49184623F02CFA06E03B68173317225F
:10E6C0000021184623F068FF3B68172209491846C5
:10E6D00023F01EFA3B682E331B220749184623F00D
:10E6E00017FA002300E0012318460837BD4680BD15
:10E6F000F4310120C0310120D731012080B582B032
:10E7000000AF03463960FB71FB79072B01D9032366
:10E710002FE03B68173317221946184823F0F8F901
:10E72000FB799BB203F5005308339BB21846FDF703
:10E7300017FC0346002B1BD03B68172219461048D4
:10E7400023F0E6F93B682E331B2219460D4823F0CF
:10E75000DFF9FB799BB203F500539BB21846FDF736
:10E76000FFFB0346002B01D0002302E0012300E061
:10E77000012318460837BD4680BD00BFF431012093
:10E78000C0310120D731012080B582B000AF002315
:10E79000FB7110E0FB799BB203F500539BB2184666
:10E7A000FDF72CFD034683F00103DBB2002B06D1FD
:10E7B000FB790133FB71FB79072BEBD900E000BF3C
:10E7C000FB7918460837BD4680BD80B586B000AFDE
:10E7D00078607B681B78032B01D108236BE007F17D
:10E7E0000C03184620F048F80346BB82BB8A002B76
:10E7F00001D008235FE00023FB7556E0FB7D9BB250
:10E8000003F500539BB21846FDF7F8FC0346002BB6
:10E8100048D0FB7D9BB203F500539BB21846FDF731
:10E8200010FD0346002B3DD0FB7D9BB203F500534A
:10E8300008339BB21846FDF7E1FC0346002B15D0C8
:10E84000FB7D9BB203F5005308339BB21846FDF7DE
:10E85000F8FC0346002B22D007F10C0307221946CF
:10E86000174823F047F90346002B1AD17B681B7821
:10E87000022B09D17B68013319461248FFF742FE8B
:10E880000346002B0ED015E07B68013306220E49AB
:10E89000184623F02FF90346002B0AD002E000BFF0
:10E8A00000E000BFFB7D0133FB75FB7D072BA5D985
:10E8B00000E000BFFB7D18461837BD4680BD00BF95
:10E8C000F4310120C7310120C131012080B582B06F
:10E8D00000AF0346FB71FB79072B01D903230DE041
:10E8E000FB799BB203F500539BB21846FDF71AFB68
:10E8F0000346002B01D1002300E00123184608370E
:10E90000BD4680BD80B582B000AF0023FB710FE033
:10E91000FB799BB203F500539BB21846FDF702FB4F
:10E920000346002B01D0012306E0FB790133FB7184
:10E93000FB79072BECD9002318460837BD4680BD6C
:10E9400080B582B000AF0346FB71FB799BB203F543
:10E9500000539BB21846FDF751FC03461846083792
:10E96000BD4680BD80B582B000AF0346FB80FB880A
:10E97000B3F5005F0ED3FB8842F20702934209D839
:10E98000064B1B68002B05D0044B1B68FA88D2B2DB
:10E990001046984700BF0837BD4680BD143201209D
:10E9A00080B582B000AF7860044A7B681360044889
:10E9B000FDF778FA00BF0837BD4680BD143201204C
:10E9C00065E900012DE9F04F054685B0002800F00B
:10E9D0005582D0F804A04FF00008C146C346032278
:10E9E000CDF80880BAF800300193BDF80810019BFB
:10E9F00099421AD32A68137819060AD500214FF0D4
:10EA00000C0E019C88B2844200F20C8103F07F035B
:10EA10001370BBF1000F40F017811378B9F1000FAC
:10EA200000F0658143F0010363E1029B0C20AF68B5
:10EA300000FB03F6BC196068037813F01E0E1CBFC0
:10EA40000123BB55BB5D042B7CD00AD8022B32D0EE
:10EA500044D8012B25D0029B08F10308013302930F
:10EA6000C3E7852B00F09280862B00F0B480072B43
:10EA7000F1D121894388994269D9C91AEB689AF87A
:10EA800005E089B213F8083043FA0EF3DBB28B428B
:10EA90005DD86378002B77D14FF00103BB5502702E
:10EAA000D9E7BEF1000F03D10221B95508216170E9
:10EAB0004FF0010BCFE7617871B1042903D9438886
:10EAC00023810139F3E7238940888342F9D08CBF41
:10EAD00003F1FF330133F3E7BA55BCE72389B0F8FC
:10EAE00002E07345B7D0E86813D910F80810A3EB1B
:10EAF0000E039AF805009BB20141C9B29942AAD807
:10EB00009AF80430002BA6D04FF00701B955637076
:10EB1000CEE7AEEB030300EB080C10F808009BB245
:10EB2000984298D89CF8023033B12846039218F0E6
:10EB300069FB039A00288ED14FF00403BB559AF865
:10EB40000230E4E7B4F808E043889E4504D9BA559A
:10EB50004FF0000363707EE7E868A3EB0E0300EB61
:10EB6000080C9BB210F808009842F0D29CF80230D2
:10EB70003BB12846039218F045FB039A00287FF426
:10EB80006AAF6378002B42D0013BC0E72B689AF84C
:10EB9000081019712389B0F802E0734508D96FF0A5
:10EBA0007903BB559AF8023063704FF001097FE793
:10EBB000E968AEEB030301EB08009BB211F8081003
:10EBC0004078013041FA00F0091AC9B29942E6D200
:10EBD0004FF001093FE72389B0F802E0734506D9F9
:10EBE00063780BB9BA55F3E7013B6370F0E7E96866
:10EBF000AEEB030301EB08009BB211F8081040785C
:10EC0000013041FA00F0091AC9B2994205D26FF0F9
:10EC10007A03BB559AF80330E7E76378002BE1D01D
:10EC2000013BC1E70EFB01F6AF68B81944682078D4
:10EC300010F0010F06D1BE5D16F0F70F1CBF40F0BB
:10EC4000010020700131DCE69AF8091000293FF438
:10EC5000E4AE1378012963F07F0313707FF4DDAE17
:10EC600000210C27019B1FFA81FE73457FF6D5AE6C
:10EC700007FB01F3AC6804EB030CE35C13F0F70F44
:10EC800027D0852B01D0032B2BD1D5F80C8001EB9D
:10EC90004103434493F802A0BAF1000F19D00020B9
:10ECA00003469E450FD007FB03F6A65D042E01D058
:10ECB000862E08D103EB43064644B6785645019E9E
:10ECC00004BF012033460133019E9BB29E42E8D827
:10ECD00038B9DCF80400037823F001030370013134
:10ECE000C0E7DCF80400037843F00103F6E723F003
:10ECF00001031370624B51881B8801F1C8029342D3
:10ED000054D95B1A9AB20C2401260327C82A4FD97A
:10ED10002B68C83A92B25988C831598019790029AC
:10ED200040F08680597909B101395971997909B151
:10ED300001399971D5F804E09EF80690B9F1000FF9
:10ED400008D0597931B9BEF800A088B250453DD3FA
:10ED500083F805909EF807C0BCF1000F08D09979A0
:10ED600031B9BEF8008088B2404548D383F806C068
:10ED70006B68D9780029C9D0B3F800C0002104FB22
:10ED80000CF88BB26345C1D204FB01F9AB6803EB0D
:10ED9000090E13F80900852806D19EF80100002805
:10EDA00049D001388EF801000131EAE78B4203D3E4
:10EDB000002005B0BDE8F08F03F57F42FF32521A04
:10EDC000C82AF5D95A1E521A92B29CE704FB01F0E8
:10EDD000D5F808C00CEB00081CF80000032801D08F
:10EDE00008280AD1D8F80400B8F808C0408860455F
:10EDF00084BF0CF1010CA8F808C00131A5E704FBA1
:10EE000001F0D5F808E00EEB00091EF80000032819
:10EE100001D008280AD1D9F80400B9F808E04088E0
:10EE200070453CBF0EF1FF3EA9F808E001319AE7BA
:10EE3000013919719CE703F80960DEF8040001EB61
:10EE4000410E0770E86886449EF80290B9F1000F01
:10EE5000AAD003EB080A9A45A6D090F802E0CE4566
:10EE600009D1D3F804E09EF800B01BF0010F1CBFDD
:10EE70001E708EF800700C330330ECE70B2098E71F
:10EE80003E3501201FF06EB92DE9F04F2DED028BBC
:10EE9000D2E9008997B0CDE90C138B6808930B6910
:10EEA0000F90D1E900B61493CD68002200234046AC
:10EEB00049461FF087FB40B91BF0040F32D11BF00D
:10EEC0000803059330D0202303E089F000439946DE
:10EED0002D232B70089B03F1FF3A012305934C4926
:10EEE00029F0004300208B4208BF80451FD10D9BB5
:10EEF000413B192B059B94BF464947492B44184673
:10EF000023F084FF284623F073F8CDF800B00246C2
:10EF1000089B0F98294617F049FB17B0BDEC028BF0
:10EF2000BDE8F08F2B23D4E7DDF820A0D7E7994286
:10EF300008BF404509D20D9B413B192B059B94BF4F
:10EF4000364937492B441846DAE700220023404669
:10EF5000494620F015F89FED2C7B8DED027B48B3E0
:10EF600000240D9823F017FE002EC3B20993C0F2BF
:10EF7000D781672B5AD1002E08BF0126231D02DB43
:10EF8000B442C0F2C681652761E09DED067B8DED40
:10EF9000027B01340022234BDDE902010EF05AFA14
:10EFA00042464B46CDE906011FF0F0FA0028ECD0AE
:10EFB00000271FE00446EDE714F5967F11DA87B9C4
:10EFC0000022194B404649460EF044FA0022804682
:10EFD0008946154BDDE902010EF03CFACDE902014C
:10EFE0000127DDE9020100220E4B08F08DFBCDE97F
:10EFF0000201013CDDE90223404649461FF0E2FAE6
:10F000000028D9D1ADE700BF000000000000F03FAC
:10F010000000F07FA42A0301A82A0301AC2A0301FF
:10F02000B02A03010000244000005043099F662FCE
:10F0300006F101060BD1002C04DA9FEDBD7B8DEDAE
:10F04000027B0024099B672B18BF361966279DEDAC
:10F05000027BCDE906898DED0A7B00230E93DDE965
:10F060000A23DDE9060108F04FFB41EC100B12F01A
:10F07000ABFB51EC100BB0EE408AF0EE608A1CF056
:10F0800080FEB0EE480AF0EE680A069B1093079BDC
:10F09000159083F0004311939DED0A1B9DED102BFD
:10F0A00020F024FF53EC102B83F000430793DDE99D
:10F0B0000A01A34B8DED060A002208F025FB0E9BEA
:10F0C00001339E42CDE90A010E93C8D100229D4B27
:10F0D0000EF0C0F9CDE90A0102460B46DDE9060152
:10F0E0001FF070FA002840F08180DDE90A23DDE995
:10F0F00006011FF045FF10B1159BDA0776D5DDE953
:10F100000A234046494607F095FD0022CDE9060155
:10F110008B4BDDE902010EF09DF9DDE90623CDE917
:10F120000A011EF007FC002865D0662F04F10104D7
:10F1300065D10136A146A9EB06034FF00008059EF4
:10F140001093CDF80880109B994540F08180029B78
:10F15000002B00F0C880A8190022652F027029D169
:10F16000149B1499013B9442EA54C1F1030EBCBFB5
:10F17000644201220A21002C40F0BC800EEB030CFB
:10F18000BCF1000F00F3B680002A03F1FF3114BF79
:10F190002D222B226A540D9A023B413A192A05EB83
:10F1A000030198BF45279E420F70AAF1020A01DAB7
:10F1B00023F02CFE0BF00303022B7FF4A3AEBAF175
:10F1C000000F7FF79FAE284622F012FF05EB0A03DF
:10F1D000059A824240F39980059B2B44184652467B
:10F1E000302123F0D9F9002308938BE69FED527B61
:10F1F0008DED0A7B83E79DED027B8DED0A7B652F0C
:10F2000014BFA1464FF0000995E7029A52B9B9F12F
:10F21000000F07DA0E992E226A54012201360AF1F4
:10F22000FF3A029205EB0801AA193144302001E0AF
:10F2300002F8010B9142FBD108EB06023033AAEB36
:10F24000080808F1FF3A561CAB544FF0000828E0BC
:10F250000C9B0E961B69053BB3427FF678AFDDE948
:10F260000A23DDE9060108F04FFA41EC100B12F019
:10F27000ABFA51EC100BB0EE408AF0EE608A1CF055
:10F2800080FD0BF0100209280346A8BF09230243A2
:10F29000BBD1099A672AB8D1B9F1000FC2DA08F1D7
:10F2A0000108069B1293079BB0EE480AF0EE680A2D
:10F2B00083F0004313939DED0A1B9DED122B20F06C
:10F2C00015FE53EC102B83F000430793DDE90A0190
:10F2D00000221B4B8DED060A08F016FA09F1FF39E2
:10F2E000CDE90A012FE71BF0100F1EBF2E23AB55EF
:10F2F000013630E7B4FBF1FC013B01FB1C44303428
:10F30000EC540AF1FF3A644635E72A5C1A54013896
:10F310005EE7002CBFF69AAE662788E606262DE645
:10F32000099B672BFAD01F46062680E6AFF30080C4
:10F33000000000000000F03F00000000000000009E
:10F3400000002440000014402DE9F04F95B0CDE9B5
:10F3500012030B68089392ED007B4B680A938B684D
:10F3600009930B690D93CC680022002351EC170B15
:10F370008DED047B1FF026F940B9089B580734D463
:10F38000089B13F0080732D0202306E0DDE90421B2
:10F3900081F00043CDE904232D232370099B01272D
:10F3A0005A1EDDE90403DFF8F8B223F000414FF004
:10F3B000000A594508BF50451BD1139B413B192BEF
:10F3C00004EB070094BFB049B04923F01FFDAF48DC
:10F3D00022F00EFE089B00930246099B12982146DC
:10F3E00017F0E4F815B0BDE8F08F2B23D5E7099AA4
:10F3F000D7E7139B8B45A3F1410308BF82450B93CD
:10F4000009D2192B04EB070094BFA149A14923F0AD
:10F41000FDFCA048DCE73021E1550B997B1C1A2943
:10F4200034BF58217821E154931E07930022002312
:10F43000DDE9040102371FF0A3FD002800F07B8105
:10F440009FED8F7B8DED027B00250A9BDDE9028914
:10F45000002BDDE904ABB8BF18230E93002642460B
:10F460004B465046594608F04FF941EC100B12F04C
:10F47000ABF942464B4651EC100B8DED100B0DF0E5
:10F48000E9FF02460B465046594623F06BFD824B7E
:10F4900082468B464046494600220DF0DBFF731C36
:10F4A0000C930A9B002B8046894606DA0022002333
:10F4B000504659461FF064FD28B90E9BB34200F335
:10F4C000408101330C930022744B404649460DF0B5
:10F4D000C1FF8046894602460B46504659461FF0FA
:10F4E00071F8002840F02F8142464B46504659465D
:10F4F0001FF046FD30B1DDE910011CF042FCC107F0
:10F5000040F1218142464B46DDE9040107F092FBC0
:10F51000CDE90401DDE9042121F000436049002028
:10F520008B4208BF82423FF448AF4FF000083E468E
:10F53000C246C1460D9B053BB342B34633D9DDE914
:10F540000223DDE9040108F0DFF841EC100B12F0B2
:10F550003BF951EC100B8DED0E0B1CF012FC00284A
:10F5600040F0F680B9F1000F00F0F28008F10108D8
:10F57000DDE90223DDE90E010DF06CFF02460B46CA
:10F58000DDE9040123F0EEFC434BCDE90401002248
:10F59000DDE902010DF05EFF0C9B09F101094B450D
:10F5A000CDE90201C6D1BAF1000F1ED1B8F1000FAA
:10F5B00000F015810A9B002B40F31181089BDA07AC
:10F5C00000F10D81A3192E221A7008EB06022244C5
:10F5D000302100BF03F8011F9A42FBD1079B46442C
:10F5E0006FEA08084344013607930D9B0D990022EA
:10F5F000A019013B95420270B8BF6D42E254C1F1BF
:10F60000020EB8BF01224FF00A08002D40F0D7804B
:10F610000EEB030CBCF1010F00F0D180002A03F1C6
:10F62000FF3114BF2D222B2262540B9A023B1A2A5F
:10F6300004EB030134BF502270229E420A7001DAAB
:10F6400023F0E4FB089B03F00303022B14D1079B78
:10F65000A3F10208B8F1000F0EDD204622F0C8FC2D
:10F6600004EB0803B84280F2B68042463021E0192C
:10F6700022F092FF002309932046A9E6AFF3008011
:10F68000000000000000F03F942A0301982A0301C3
:10F690009C2A0301A02A03010000B03F0000204083
:10F6A0000000F07FCDE902890135DDE90223104633
:10F6B000194607F0BFFA8046894602460B46DDE947
:10F6C00004011EF07FFF0028ECD0DFF82CB1DFF83A
:10F6D0002C914FF0000A4FF00008DDE90223DDE92C
:10F6E00004011EF06FFF00283FF4AFAE52465B46A8
:10F6F000DDE902010DF0AEFE002200231FF040FC08
:10F7000078B142464B46DDE902010DF0A3FE4246C8
:10F71000CDE902014B46DDE904010DF09BFECDE988
:10F720000401DDE9020152465B460DF093FE013D06
:10F73000CDE90201D1E79FED2E7B05468DED027BE1
:10F74000B3E70C9E8BE64FF000084FF00009D9E6B6
:10F75000BAF1000F0BD1B9F1000F08D02E2304F835
:10F760000B30079B013B013607934FF0010A04EB76
:10F770000803A2193344302102E000BF02F8011B44
:10F780009A42FBD1079B06EB080BA3EB08080B9BE7
:10F790000928D4BF30305730192B06D840F0200349
:10F7A000613B192B01D823F0FDF908F1FF330BF170
:10F7B000010604F80B0007934FF00008D8E60799FC
:10F7C000B5FBF8FC013B08FB1C5530350139E5540D
:10F7D0000791654619E7225C1A54013842E7089BF5
:10F7E000DB067FF502AF2E23A3550136FDE600BFF1
:10F7F000000000000000F03F0000E03F0000504328
:10F8000080B582B000AF00237B712148F5F712FC70
:10F8100003467B711F48F5F727FF03467B710023E2
:10F82000FB8010E0FB8819461948F6F7DFF903461C
:10F830007B71FB8819461648F5F7A2FB03467B71DE
:10F84000FB880133FB80FB88032BEBD90023FB8073
:10F8500011E0FB88D9B2FA8813465B0013445B00C1
:10F860000D4A13441A460D4822F001F803467B71F5
:10F87000FB880133FB80FB88032BEAD908481CF086
:10F880007DF903467B717B7918460837BD4680BDFC
:10F89000AC390120C032012014000020FC390120C5
:10F8A000203A012080B5C2B000AF094B01221A7086
:10F8B000084B01221A703B1D07221A703B1D194686
:10F8C000054809F01DFC00BF07F58477BD4680BDE3
:10F8D000B9320120BB320120C400002080B483B0C3
:10F8E00000AF0346FB71FB790133DAB2034B1A70A8
:10F8F00000BF0C37BD465DF8047B7047BC32012069
:10F9000080B500AF00F097F8FFF77AFF00BF80BD29
:10F9100080B582B000AF2C4B1B78DBB2012B0ED12F
:10F920002A492B48F6F78EF80346FB71FB79002B2A
:10F9300005D1254B00221A70264B00221A70264B47
:10F940001B78DBB2012B3BD1234B00221A70F5F759
:10F95000EFFD0346FB71FB79002B21D11F4809F015
:10F9600093F80346FB71FB79002B02D00120FFF7CF
:10F97000B5FF1B48FFF726F80346FB71FB79002B08
:10F9800002D00220FFF7AAFF164801F093FA0346BF
:10F99000FB71FB79002B06D00320FFF79FFF02E0ED
:10F9A0000020FFF79BFF0E4B1B681B785BB2002B00
:10F9B00003DA054B01221A7002E00B4B01221A7088
:10F9C00000BF0837BD4680BDB8320120A5F8000150
:10F9D000AC390120BB320120B9320120DC390120D1
:10F9E000FC390120203A0120BA32012080B5C2B092
:10F9F00000AF094B01221A70142022F09BFE3B1D20
:10FA000007221A703B1D1946044809F079FB00BF14
:10FA100007F58477BD4680BDB8320120C4000020C0
:10FA200080B582B000AF78603960FFF7DFFF00BFBC
:10FA30000837BD4680BD80B500AF0D4B1B68194629
:10FA40000C4803F067FC03F059FB03F0FCFB024693
:10FA5000094BA3FB02239B099BB21A469200134455
:10FA60009B009BB2184603F08FFB00BF80BD00BF18
:10FA7000F832012021FA0001D34D621080B483B026
:10FA800000AF0346FB80FA88064913465B00134427
:10FA90005B000B4402331B8818460C37BD465DF8EB
:10FAA000047B70471400002080B483B000AF03468D
:10FAB0000A46FB801346BB80FA88074913465B0061
:10FAC00013445B000B440233BA881A8000BF0C3722
:10FAD000BD465DF8047B70471400002080B483B0FD
:10FAE00000AF0346FB80FA88064913465B001344C7
:10FAF0009B000B4408331B8818460C37BD465DF845
:10FB0000047B70473800002080B483B000AF034608
:10FB10000A46FB801346BB80FA88074913465B0000
:10FB200013449B000B440833BA881A8000BF0C377B
:10FB3000BD465DF8047B70473800002080B483B078
:10FB400000AF0346FB80FA88064913465B00134466
:10FB50005B000B4404331B8818460C37BD465DF828
:10FB6000047B70471400002080B483B000AF0346CC
:10FB70000A46FB801346BB80FA88074913465B00A0
:10FB800013445B000B440433BA881A8000BF0C375F
:10FB9000BD465DF8047B70471400002080B483B03C
:10FBA00000AF0346FB80074B9968FA8813465B0059
:10FBB00013449B000B441B7818460C37BD465DF878
:10FBC000047B7047FC39012080B483B000AF03464A
:10FBD0000A46FB8013467B71074B9968FA881346E7
:10FBE0005B0013449B000B447A791A7000BF0C37FA
:10FBF000BD465DF8047B7047FC39012080B584B0B8
:10FC000000AF0346FB800023FB73FB8819460C48BA
:10FC1000F5F7B6F90346FB73FB88D9B2FA881346A9
:10FC20005B0013445B00074A13441A46064821F060
:10FC30001EFE0346FB7300BF1037BD4680BD00BFEC
:10FC4000AC39012014000020FC39012080B483B0BD
:10FC500000AF0346FB80074B9968FA8813469B0068
:10FC600013445B000B441B7818460C37BD465DF807
:10FC7000047B7047203A012080B483B000AF034674
:10FC8000FB80074B9968FA8813469B0013445B007E
:10FC90000B44DB8818460C37BD465DF8047B704783
:10FCA000203A012080B500AFF5F7DEFFF5F744FFFD
:10FCB00000BF80BD19F06ABA2DE9F04FCA4B2DED97
:10FCC000048B59EC108B002299458FB008BF9045EA
:10FCD0008DED021B00F0D480DDE90267B3190093BB
:10FCE00047EB07030193DDE90001C04B4FF0FF3202
:10FCF0008B4208BF824280F0008118EB080A49EB72
:10FD0000090B5B4508BF524510EE104A4D4633D2F1
:10FD10006FF400134FF0FF325B4508BF524532D2FB
:10FD2000C5F30A53013B40F2FD72934200F2AB80EF
:10FD3000C7F30A53013B934200F2A580DDE90201BB
:10FD40001CF01FF8824621F050FA8F4208BF86420D
:10FD500068D040464946002200231EF033FC0028AC
:10FD60004AD09FED9B8BB0EE480AF0EE680A0FB0C8
:10FD7000BDEC048BBDE8F08F002E77F1000302DAB2
:10FD80009B4B22221A60002C75F10003C8DADDE9D2
:10FD900000016FF400134FF0FF328B4208BF824224
:10FDA000BED3C7F30A5EAEF2FF33332B049340F2A7
:10FDB000A780B3F5806F40F2508100988D4B8A4A3E
:10FDC0000021091A019963EB010302EAE37207F0CB
:10FDD000004342EA03010020CDE9060102460B463A
:10FDE000DDE902011FF0CCF8002899D1804B2122D7
:10FDF0001A609FED778BB6E7224625F0004343EC6F
:10FE0000102B08F099F8DDE9020153EC102B0DF0EE
:10FE100021FB41EC100B07F047F9B0EE408AF0EE01
:10FE2000608AA0E7BAF1004F93D0BAF1000FC0F298
:10FE30000D8118BF002460D09FED678B1AF0010F71
:10FE400007D051EC180B42464B460DF003FB41EC3A
:10FE5000180B5FEA5A0A42464B46404649460AD1C9
:10FE6000002C80D053EC182B00205F4907F04CFC8D
:10FE700041EC180B77E70DF0EDFA80468946DDE797
:10FE800049EC188B6FE75C4B00225B4508BF52457D
:10FE9000F6D3DDE900018B4208BF8242C0F0DA8070
:10FEA000BBF5001F08BFBAF1000FC0F0AF80534B85
:10FEB00000229D4208BF944200F0FF80504B002278
:10FEC0009D4208BF944200F0FE809F4208BF9642C8
:10FED00000F0DF804B4925F000434FF0FF3099429E
:10FEE00008BFA04280F0E680474B00229D4208BF39
:10FEF000944202D09FED3A8B35E79FED378B32E786
:10FF0000C3F1340C4FF0FF32ACF1200002FA00F0E4
:10FF100002FA0CF3CCF1200122FA01F1034302FAB8
:10FF20000CF243EA01009118049B0B920C9047F4E9
:10FF30008012404122EA000202FA03F0C3F12003DA
:10FF40000993CCF1200326EA01010A93AEF21F4E79
:10FF5000099B01FA0EFE40EA0E0021FA03FE049B03
:10FF6000CDF824E001FA03F30D930A9B02FA03FE95
:10FF7000099BCDF810E018430D9BDB180D93049BF3
:10FF800021FA0CF1ACF1200E41EA030122FA0EF342
:10FF900022FA0CF20992099A41EA030140410D9BB1
:10FFA00010430B43C0F3140105910C980B99049373
:10FFB00006EA010207EA0003DDE90401B1F5801F4A
:10FFC00008BF012850D2CDE9062309E7AFF300802E
:10FFD000000000000000F87F000000000000F03F7B
:10FFE000000000000000F07F0000F03FFFFF1F0056
:10FFF000B43601200000C07F0000E0FF0000F07F69
:020000040101F8
:100000000000F0FFFFFFEF3F0000F0BFDDE902015D
:100010001BF0B7FE824621F0E8F88F4208BF864207
:100020007FF497AE002E77F1000368DB9FED3A8BEB
:10003000002108461AF0010F3FF495AE05F0004488
:100040000A4684EA000343EC182B8CE6CAF1000A46
:100050000124F1E69DED028B85E69DED027B8DEDA1
:10006000067B53EC172BBBE6012101FA0EF00A992F
:100070004FF0010E2EFA01FE012101FA0CF1891850
:1000800040EA0E0040EB030306910793DDE90623E7
:10009000A6E6294B00229D4208BF94423FF42DAFB3
:1000A000264925F000434FF0FF30994208BFA04297
:1000B000BFF420AF9FED188B55E6002E77F10003BB
:1000C000BFF618AFF6E7002E77F100031CDB9FEDBB
:1000D000149B9FED158BDDE902011BF052FE0446D7
:1000E00021F083F88F4208BF86427FF43CAEE307DD
:1000F0007FF539AEB0EE498AF0EE698A33E69FEDBE
:100100000A8B0F48002195E79FED099B9FED028B1D
:10011000E1E700BFAFF30080000000000000000036
:10012000000000000000F0FF000000000000F07F71
:1001300000000000000000800000F0BFFFFFEF3F64
:100140000000F07F80B588B000AF786000237B614D
:10015000F0F794FE454B1B68002B01D100F01DF910
:100160007B68002B12D008227B6803F00703D31AA8
:1001700008333B613B69DB437A689A4204D87A686A
:100180003B6913447B6001E000237B607B68002BAC
:1001900060DB7B68002B5DD0354B1B687A689A4228
:1001A00058D8344BBB61334B1B68FB6104E0FB69DF
:1001B000BB61FB691B68FB61FB695B687A689A42FB
:1001C00003D9FB691B68002BF1D1284B1B68FA6926
:1001D0009A423FD0BB691B68082213447B61FB69CC
:1001E0001A68BB691A60FB695A687B68D21A0823CF
:1001F0005B009A420FD9FA697B681344FB60FB6984
:100200005A687B68D21AFB685A60FB697A685A6040
:10021000F86800F01FF9164B1A68FB695B68D31A7F
:10022000134A1360124B1A68134B1B689A4203D28D
:100230000F4B1B68104A1360FB695B6843F0004278
:10024000FB695A60FB6900221A600C4B1B68013382
:100250000A4A1360F0F75AFE7B69002B01D116F0B1
:10026000A4FF7B6918462037BD4680BD542201207B
:10027000582201204C2201205C2201206022012012
:1002800080B584B000AF78607B68FB607B68002B32
:100290002BD008235B42FA681344FB60FB68BB6009
:1002A000BB685B68DB0F03F00103DBB2002B1CD0E3
:1002B000BB681B68002B18D1BB685B6823F0004249
:1002C000BB685A60F0F7DAFDBB685A68094B1B68D7
:1002D0001344084A1360B86800F0BCF8064B1B686A
:1002E0000133054A1360F0F711FE00BF1037BD4619
:1002F00080BD00BF582201206422012080B400AFDD
:10030000034B1B681846BD465DF8047B704700BF71
:100310005822012080B400AF034B1B681846BD462D
:100320005DF8047B704700BF5C22012080B400AF01
:1003300000BFBD465DF8047B704780B584B000AF58
:10034000786039600023FB607B68002B09D04FF098
:10035000FF327B68B2FBF3F33A689A4201D901237A
:1003600000E00023002B13D17B683A6802FB03F303
:100370001846FFF7E7FEF860FB68002B08D07B68A3
:100380003A6802FB03F31A460021F86822F004F9E8
:10039000FB6818461037BD4680BD80B485B000AFFD
:1003A0004FF49033BB60264BFB60FB6803F0070300
:1003B000002B0CD0FB680733FB60FB6823F00703BE
:1003C000FB60BA68FB68D31A1D4A1344BB60FB6824
:1003D0007B601C4A7B6813601A4B00225A607B6862
:1003E000BA681344FB600822FB689B1AFB60FB6839
:1003F00023F00703FB60FB68134A1360124B1B6872
:1004000000225A60104B1B6800221A607B683B6018
:100410003B68FA68D21A3B685A600B4B1A683B6813
:100420001A603B685B68094A13603B685B68084A6E
:10043000136000BF1437BD465DF8047B704700BFF2
:100440004C0200204C220120542201205C22012079
:100450005822012080B485B000AF7860284BFB6043
:1004600002E0FB681B68FB60FB681B687A689A42C5
:10047000F7D8FB68BB60FB685B68BA6813447A68AE
:100480009A4208D1FB685A687B685B681A44FB682B
:100490005A60FB687B607B68BB607B685B68BA689E
:1004A0001A44FB681B689A4218D1FB681A68154BFE
:1004B0001B689A420DD07B685A68FB681B685B68B2
:1004C0001A447B685A60FB681B681A687B681A606C
:1004D00008E00C4B1A687B681A6003E0FB681A6836
:1004E0007B681A60FA687B689A4202D0FB687A6877
:1004F0001A6000BF1437BD465DF8047B704700BF2B
:100500004C2201205422012080B586B000AF7860D3
:1005100000233B610023FB604FF0FF33BB60F0F72B
:10052000ADFC224B1B687B617B69002B1BD015E067
:100530003B6901333B617B695B68FA689A4202D28E
:100540007B695B68FB607B695B68BA689A4202D929
:100550007B695B68BB607B691B687B61144B1B68B4
:100560007A699A42E4D1F0F7D1FC7B68FA685A6064
:100570007B68BA689A607B683A69DA6000F009FBC8
:100580000C4B1A687B681A600B4B1A687B685A61BF
:100590000A4B1A687B689A61094B1A687B681A6172
:1005A00000F010FB00BF1837BD4680BD4C22012073
:1005B00054220120582201206022012064220120BF
:1005C0005C22012080B584B000AF0346FB7100239C
:1005D000FB7322E0FA7B144913465B0013449B0033
:1005E0000B441B78FA799A4214D1FA7B13465B00CC
:1005F00013449B000C4A13440C220021184621F09E
:10060000CBFFFA7B084913465B0013449B000B4465
:1006100000221A70FB7B0133FB73FB7B002BD9D0CC
:1006200000BF1037BD4680BD4435012080B483B083
:1006300000AF0023FB7114E0FA790F4913465B0009
:1006400013449B000B441B78002B07D1FA79134607
:100650005B0013449B00084A134406E0FB79013316
:10066000FB71FB79002BE7D0002318460C37BD4601
:100670005DF8047B704700BF4435012080B485B02D
:1006800000AF0346FB710023FB7318E0FA7B1149AE
:1006900013465B0013449B000B441B78FA799A4283
:1006A0000AD1FB79002B07D0FA7B13465B00134479
:1006B0009B00084A134406E0FB7B0133FB73FB7B82
:1006C000002BE3D0002318461437BD465DF8047BA9
:1006D000704700BF4435012080B586B000AFB960D7
:1006E0007A601A460346FB731346BB7300237B6193
:1006F000FFF79CFF78617B69002B11D07B69BA689A
:100700005A607B697A689A607B69FA7B1A707B69A8
:10071000BA7B5A707B6997F820209A70002300E01A
:10072000012318461837BD4680BD80B582B000AFA2
:100730000346FB71FB791846FFF744FF00BF0837FB
:10074000BD4680BD80B483B000AF786000BF0C3779
:10075000BD465DF8047B704780B483B000AF0346AC
:10076000FB80074B1B88FA889A4202D1044B002277
:100770001A8000BF0C37BD465DF8047B704700BF90
:100780004035012080B586B000AF78600023FB754E
:100790000023BB7500237B757B689B683B6100234E
:1007A000FB607B681B78012B02D0062B05D076E01E
:1007B0007B689A883C4B1A8071E03B691B7818462D
:1007C000FFF75CFFF860384B1A887B689B889A4279
:1007D0005CD1FB68002B59D07B689A88324B1A8019
:1007E0000023FB7513E0FB685968FA7D13469B00F4
:1007F00013445B0013440B441A783B699B789A427C
:1008000002D101237B7507E0FB7D0133FB75FB689B
:100810005B78FA7D9A42E6D37B7D002B2DD0FB6876
:100820005968FA7D13469B0013445B0013440B4444
:10083000D3F80730002B10D0FB685968FA7D1346B7
:100840009B0013445B0013440B44D3F807307A68D1
:100850009268104698470346BB75FB685968FA7D55
:1008600013469B0013445B001344C818FB681B78B5
:10087000BA7D194600F05AF810E0FB6818783B6919
:100880009B780222194600F087F807E03B691B7845
:1008900001220021184600F07FF8FFE700BF00BFEB
:1008A0001837BD4680BD00BF4035012080B584B0FB
:1008B00000AF03460A46FB711346BB710123FB815F
:1008C0000023BB60FB791846FFF7D8FEB860BB6811
:1008D000002B26D000237B731EE0BB6899687A7BCF
:1008E00013465B0013445B000B441B78BA799A42B1
:1008F0000FD1BB6899687A7B13465B0013445B0099
:100900000B44FA791146184600F068F80346FB815B
:1009100007E07B7B01337B73BB689B787A7B9A42D1
:10092000DBD3FB8918461037BD4680BD80B588B043
:1009300000AF78600B46FB701346BB707B689B78FA
:100940000233DBB23B727B685B787B72BB78BB7235
:100950007B689B78002B0BD07B68D3F803107B68F7
:100960009B781A4607F108030333184621F0D0F8A4
:10097000084B18883B7A0133DAB207F10803F9789B
:10098000F6F79AFA0346FB83FB8B18462037BD46E1
:1009900080BD00BF4035012080B584B000AF034664
:1009A000FB710B46BB7113467B7102233B72BB7913
:1009B0007B727B79BB72084B18883B7A0133DAB2C1
:1009C00007F10803F979F6F777FA0346FB81FB890B
:1009D00018461037BD4680BD4035012080B588B02F
:1009E00000AF78600B46FB707B685B780133DBB24D
:1009F0003B727B681B787B727B685B78002B0BD02B
:100A00007B68D3F802107B685B781A4607F108030D
:100A10000233184621F07CF8084B18883B7A0133E2
:100A2000DAB207F10803F978F6F746FA0346FB83D2
:100A3000FB8B18462037BD4680BD00BF40350120E6
:100A400080B485B000AFF860B9607A60FB68043BA1
:100A5000FB60FB684FF080721A60FB68043BFB6030
:100A6000BB6823F00102FB681A60FB68043BFB6073
:100A70000C4AFB681A60FB68143BFB607A68FB68F1
:100A80001A60FB68043BFB60FB686FF002021A60AF
:100A9000FB68203BFB60FB6818461437BD465DF8D9
:100AA000047B7047A90A010180B483B000AF002322
:100AB0003B604FF0200383F31188BFF36F8FBFF3C8
:100AC0004F8F7B6000BF3B68002BFCD000BF0C3712
:100AD000BD465DF8047B7047094B19680868B0E8AB
:100AE000F04F80F30988BFF36F8F4FF0000080F361
:100AF00011887047AFF30080AFF30080AFF3008040
:100B00006C2C012000BF08480068006880F308884A
:100B10004FF0000080F3148862B661B6BFF34F8FC8
:100B2000BFF36F8F00DF00BF08ED00E000BF80B5AE
:100B300000AF114B1B68104A43F4600313600E4B67
:100B40001B680D4A43F06043136000F077F90B4BCC
:100B500000221A6000F0A2F9094B1B68084A43F012
:100B600040431360FFF7CFFFF0F7D2FCFFF79CFF85
:100B70000023184680BD00BF20ED00E0343E012078
:100B800034EF00E080B400AF00BFBD465DF8047BE9
:100B9000704780B483B000AF4FF0200383F3118817
:100BA000BFF36F8FBFF34F8F7B60054B1B68013323
:100BB000034A136000BF0C37BD465DF8047B7047E5
:100BC000343E012080B483B000AF0A4B1B68013B68
:100BD000084A1360074B1B68002B04D100237B607D
:100BE0007B6883F3118800BF0C37BD465DF8047B3A
:100BF000704700BF343E0120EFF30980BFF36F8FD1
:100C0000174B1A681EF0100F08BF20ED108A20E95C
:100C1000F04F10602DE909004FF0200080F311889B
:100C2000BFF34F8FBFF36F8FF0F772FC4FF00000F0
:100C300080F3118809BC19680868B0E8F04F1EF00D
:100C4000100F08BFB0EC108A80F30988BFF36F8FD4
:100C5000704700BFAFF30080AFF30080AFF30080B8
:100C60006C2C012000BF80B582B000AF4FF0200394
:100C700083F31188BFF36F8FBFF34F8F7B60F0F763
:100C800039FB0346002B03D0064B4FF080521A600D
:100C900000233B603B6883F3118800BF0837BD46E3
:100CA00080BD00BF04ED00E080B588B000AF786083
:100CB0005B4B1B687A689A4202D9594B1B687B6070
:100CC00072B6BFF34F8FBFF36F8FF0F73DFF034650
:100CD000002B01D162B69EE0524B06221A60524BA5
:100CE0001B687B617B69002B02D1504B1B687B61C9
:100CF0007B68013B4D4A126802FB03F37A69134497
:100D0000FB614B4B1B6803F08063002B08D0484B02
:100D10004FF000721A60454B1B68FA69D31AFB61E9
:100D2000444B1B68FA699A4204D9424B1B68FA6922
:100D3000D31AFB61404AFB6913603B4B00221A60E7
:100D4000384B1B68374A43F0010313607B68FB6034
:100D5000FB68002B04D0BFF34F8F30BFBFF36F8F02
:100D600062B6BFF34F8FBFF36F8F72B6BFF34F8F73
:100D7000BFF36F8F2B4B06221A602A4B1B6803F4BC
:100D80008033002B1DD0294B1A68274B1968FB694B
:100D9000CB1A1344013B3B61264B1B683A699A42CC
:100DA00004D9224B1B683A699A4203D91F4B1B682E
:100DB000013B3B61204A3B6913607B68013BBB619F
:100DC0001AE0194B1B687B61184B1B687A6802FBA1
:100DD00003F27B69D31ABB60144B1B68BA68B2FB81
:100DE000F3F3BB61BB690133104A126802FB03F2E3
:100DF0001149BB68D31A0B600B4B00221A60094BD8
:100E000007221A60094B1B680B4A013B1360B86943
:100E1000F0F7ACF962B600BF2037BD4680BD00BF19
:100E20009C35012010E000E018E000E0983501203A
:100E300004ED00E0A035012014E000E080B400AF34
:100E4000104B4FF47A421A600E4B1B686FF07F42D2
:100E5000B2FBF3F30C4A13600C4B5E221A600C4B8E
:100E600000221A600B4B00221A600B4B4FF6FF1248
:100E70001A60074B07221A6000BFBD465DF8047B6D
:100E8000704700BF983501209C350120A035012016
:100E900010E000E018E000E014E000E0DFF80C00F3
:100EA000016841F4700101607047000088ED00E0C6
:100EB00000BF00BF2DE9F04F8BB085680390002D77
:100EC00000F0F381C668002E00F0EF814368D3F88C
:100ED00000B0BBF1000F00F0E8811B790A220C275B
:100EE00002FB03530993002301930493099BAB4234
:100EF00008D1039B9DF810201B681A7001980BB055
:100F0000BDE8F08F337900227088029300EB030C68
:100F1000BDF80830C1180593034689B263452EDB3E
:100F200000240146A6468C4536DC002C2B7808BFF1
:100F3000002213F0010308936FD02B89002C18BFF7
:100F4000224603EB43037344C3F38D032B8196F8CE
:100F50000080B8F1010F00F2A48196F80590B9F174
:100F6000CF0F00F29E81002A5AD12A81049B0A36B3
:100F700005F80A2B02F0810213430493B6E707FB3E
:100F800003F41BF80440852C08BF0B4603F1010352
:100F900008BF01229BB2C1E707FB01F90BEB090A6D
:100FA000DAF80430B3F80280BAF80830A8EB030886
:100FB0001FFA88F80FFA88F3002BD8BF4FF000080B
:100FC000814222D13378012B25D1029B03EB010909
:100FD00007FB09B9A9F10C09D9F804305B88B9F805
:100FE0000890A3EB09031BB2002B14DD9BB29844BD
:100FF00033891FFA88F8434504D8C6454FF00104E9
:1010000038BFC646013189B28DE7A9F10C09D94430
:10101000D9F80430E2E70023E9E7A5F808E096E70D
:101020004FEA19130693002301461C468C4500F332
:10103000EA80A04240F0FA80B8F1010F40F0008150
:1010400007FB0CBE5EF8082C51883EF8042C00FB10
:10105000077E891A09B2DE44DEF80420BEF808E0F3
:101060005288A2EB0E0212B222EAE272914200F31F
:10107000EB8021EAE1714FF0000E0CF1FF3C64457A
:1010800040F0E480B8F1010F40F0E48007FB00BCC1
:10109000DCF80420BCF808C05288A2EB0C0212B2A3
:1010A00022EAE27C029A102A36BF002204224FF084
:1010B0000C0A079228BF4FF0080ABEF1000F00F09B
:1010C000CC80029A02FA0AF489B21FFA8CF2914299
:1010D000A4B29BB2C0F0C5809B1A98B2821A114488
:1010E000524689B219F0E6FA012303FA0AFAA0EB94
:1010F0000A0080B2029B2044022B80B20CD9B8F1C6
:10110000010F15BF059B079A03F1FF3105991CBF1D
:10111000079A89B219F0CEFAB0F5805F28BF4FF474
:10112000805080B2B8F1000F13D119F00F0110D028
:1011300001EB81010C22C900814298BF401A4FEA9D
:101140004101C1F580518CBF404680B289B219F08F
:10115000B1FA069B069AC3F10C0318410123934090
:101160009AB2013B9842089B88BF02F1FF3080B2DF
:10117000002B00F08680A988B8F1010FA0EB0104D4
:10118000A4B223B20AD1002B4FEA520E72DACEF18A
:10119000000E9E4540F3958013191BB2012B0CD015
:1011A0005C1C0AD0002B69DA5B42C3F34E035B423E
:1011B0001BB21944013A89B21140B5F806C0A880A3
:1011C000A1EB0C00327896F806E080B2012A74791F
:1011D00003B20CD12409002B02FA04F292B24FEAB6
:1011E000520450DA64429C4203DD13181BB2002BF8
:1011F0005EDA5B42AA781BB2934248DC002262F0BE
:101200007E02D2B2B2E607FB01BEDEF80420BEF8D1
:1012100008E05288A2EB0E0212B2002A03DD9A42C5
:10122000C4BF13460C46013189B2FFE607FB04BE7A
:101230005EF8082C51883EF8042C891A09B218E788
:101240004FF0000E714618E7C64616E704FB077C10
:10125000DC441DE74FF0000C24E7241A04FA0AF4DA
:1012600032E7521A591A90B25246014489B219F023
:1012700021FA3FE7734591DDA31A8EE7C3F34E03CE
:1012800097E7014699E7A34212DD831AAEE74FF0D4
:10129000000385F801E0AB706145AFD0E980022220
:1012A000ADE702230022019360E60B23019325E6BC
:1012B0006A789342A2DD4FF0000385F802E06B707C
:1012C000EAE75C1C7FF470AF77E7FEE72DE9F041B9
:1012D00086B0B34B019006460093022201231321EE
:1012E000EC200EF093FE012E09D9AE4F3868F021A4
:1012F000043021F019FD044630B90C250FE021F02F
:10130000C1FA0028F1D0F8E7002E40F05F8190F894
:101310006031012B12D112F0BFFE68B90725A24B34
:101320000093019501230022FF21EC200EF06EFEB8
:10133000284606B0BDE8F08113F0A6FA3868F0211F
:10134000043021F0F1FC0446032E00F20F81DFE8A7
:1013500016F04B005800B50014011E255DE1012E6A
:1013600000F2658168E155B9294604A81FF0F0FF35
:101370009DF81030002B00F06A811225CFE7AB1EDC
:10138000012B00F2648194F822209DF8103062F362
:1013900000038DF8103023464FF0000853F8232F38
:1013A000CDF811209B888DF80E800DF10E0104A858
:1013B000ADF815301AF046F8002800F04881022DEB
:1013C00040F03F8141460DF10F001FF0C1FF9DF835
:1013D0000F30CFE794F86031002BAFD11EF038FA10
:1013E000054600289BD1A9E794F86021012A03D182
:1013F0000021204617F00EF8012021F033FA0025D5
:1014000096E794F86051002DF6D10121084614F0BA
:1014100039FE94F8731020460BF0ACFD4FF4807346
:10142000A4F88C3194F87330E269257413F1FF331A
:1014300018BF012384F88E31042384F88F3103F21E
:101440006D235343C4F8A43142F21073C4F8A83199
:10145000012384F8603120F06BFDC4F8EC0112F038
:101460001BFED4F8EC31A2681A62D4F8EC314F4A72
:101470005A62D4F8EC314E4A9A62D4F8EC314D4AB3
:10148000DA62D4F8EC314C4A1A63D4F8EC314B4AA6
:101490005A6306462946D4F8EC010DF06DF8D4F8ED
:1014A000EC311D60D4F8EC3172685A60D4F8EC313C
:1014B00013603046736021F0D3FC9DE794F87310FD
:1014C00020460BF057FD012384F86031002323747C
:1014D000E56921F0DFF94FF4C8635843B0FBF5F03C
:1014E000374D21F027FC20F04FFA94F873202A7032
:1014F00094F820206A7094F82920AA70B4F821206A
:10150000A5F80320224652F8231FC5F8051092883B
:10151000A5F80920B4F800212AB1D4F8FC1005F18F
:101520000C0020F0F5FAB4F81021B4F80031EB7299
:1015300022B1D4F80C11234820F0EAFAB4F81031A3
:1015400085F82B3094F8F43085F84B3019F052FFC1
:1015500018F0F4F914F054FDA3680493E3680093C1
:10156000042204AB1849022019F0FAF8002021F0F7
:1015700079F9002021F07EF941E7012384F86031F8
:10158000002323741FF02AFB08B120F0FDF994F822
:10159000731020460BF0EEFCDEE71E25BFE600BF11
:1015A0007F1B030154010020C4060301EDF3010178
:1015B0004530030139F70201455E010171790201ED
:1015C000DC3B0120083C01200B000100032E7FF4CE
:1015D000C6AE404B1A7884F873209A7884F8292094
:1015E000FF2284F82E201A46597852F8050F84F805
:1015F00020109288A4F82720B3F80320C4F8230011
:10160000A4F8212093F84B3084F8F43000293FF4FB
:10161000A4AE002B0CBF1E25002519F0C3FE16F04A
:10162000E5FD13F045FB284310F0FF0FB5D194F80A
:101630007330012B3FF461AE94F82150012D7FF4FB
:1016400092AE204621F0F6F800283FF496AE94F8CA
:101650006031002B3BD1204609F076FB054600287F
:101660007FF45DAE012E3FF4B5AE042017F058FABA
:10167000E06000283FF452AE01201CF0A7F80028DB
:101680003FF43BAE032E7FF459AE124DE87A48B1D9
:101690000FF066FFC4F8FC0020B1EA7A05F10C01F6
:1016A00020F036FA95F82B00EB7AA4F8003148B117
:1016B0000FF056FFC4F80C0120B195F82B20064915
:1016C00020F026FA95F82B30A4F8103136E6012EDA
:1016D000CBD133E6DC3B0120083C012080B584B04F
:1016E00000AF0346FB800023FB7323E0FA7B154920
:1016F00013469B0013449B000B4404331B88FA8859
:101700009A4214D1FA7B13469B0013449B000D4A66
:10171000134414220021184620F03EFFFA7B0949A9
:1017200013469B0013449B000B4400221A70FB7B62
:101730000133FB73FB7B072BD8D900BF1037BD46A5
:1017400080BD00BF202F012080B483B000AF0023F4
:10175000FB7115E0FA790F4913469B0013449B0077
:101760000B4404331B88002B07D1FA7913469B00E6
:1017700013449B00074A134406E0FB790133FB71D5
:10178000FB79072BE6D9002318460C37BD465DF8D8
:10179000047B7047202F012080B485B000AF034642
:1017A000FB800023FB7316E0FA7B104913469B0075
:1017B00013449B000B4404331B88FA889A4207D1D8
:1017C000FA7B13469B0013449B00084A134406E02F
:1017D000FB7B0133FB73FB7B072BE5D9002318460A
:1017E0001437BD465DF8047B704700BF202F0120F1
:1017F00080B483B000AF0346FB71FB79072B1ED882
:10180000FA79134913469B0013449B000B4404339D
:101810001B88002B13D0FA790D4913469B00134403
:101820009B000B441B78002B09D0FA79084913461A
:101830009B0013449B000B4404331B8801E04FF6CC
:10184000FF7318460C37BD465DF8047B704700BF38
:10185000202F012080B584B000AF78600023BB60EA
:101860007B681B78132B00F2D38001A252F823F07F
:10187000C118010175190101B3190101EF19010125
:10188000111A0101111A0101111A0101111A0101A4
:10189000111A0101111A0101111A0101111A010194
:1018A000111A0101111A0101111A0101111A010184
:1018B000111A0101111A0101111A0101111A010174
:1018C000FFF742FFB860BB68002B00F0A3807B6885
:1018D00098880023002200211AF09CFABB6803229A
:1018E0001A707B689A79BB689A707B689A88BB6823
:1018F0009A807B685A8BBB68DA817B689A8BBB685D
:101900001A827B68DA8BBB685A827B68DA79BB689B
:101910009A71BB68D81D7B6808330622194620F0EF
:10192000F7F841490020FBF76FFD0523FB730FE03B
:1019300097F90F30BA681344DB791A463B49002007
:10194000FBF706FD97F90F30DBB2013BDBB2FB730F
:1019500097F90F30002BEBDABB689B881A463449A5
:101960000020FBF7F5FC002001F016FB314B802234
:101970005A634FE07B685B88184605F09FFD7B68E3
:101980005B881846FFF7AAFE7B685B881A462A49DF
:101990000020FBF7DDFC7B685B881846FEF7DCFE69
:1019A000FAF748FF01F0B3F824490020FBF72CFDBB
:1019B00035E07B681B79002B2ED17B685B8818464D
:1019C000FFF7EAFEB860BB68002B25D07B685A8819
:1019D000BB689A807B68DA88BB68DA817B685A8941
:1019E000BB681A827B689A89BB685A8214E07B685C
:1019F0005B881846FFF7D0FEB8607B681B79002B28
:101A00000CD07B685B88132118461CF0B7F805E002
:101A100000BF04E000BF02E000BF00E000BF00BF65
:101A20001037BD4680BD00BFCC550201F055020104
:101A3000F8550201002B00441856020138560201E5
:101A400080B400AF034B1B681B781846BD465DF899
:101A5000047B7047C02F012080B483B000AF0346E1
:101A6000FB71054B1B68FA791A7000BF0C37BD4635
:101A70005DF8047B704700BFC02F012080B582B0A5
:101A800000AF124B124A1A600023FB7117E0FA797B
:101A900013469B0013449B000D4A1344142200215B
:101AA000184620F079FDFA79094913469B00134442
:101AB0009B000B4400221A70FB790133FB71FB7908
:101AC000072BE4D900BF0837BD4680BDC02F0120D9
:101AD000202F012080B582B000AF78607B6808338A
:101AE0004FF6FF71184602F0BAF80346002B01D1F9
:101AF000002300E0012318460837BD4680BD80B5AD
:101B000082B000AF78607B680833184602F0CAF8EC
:101B100000BF0837BD4680BD80B584B000AF786097
:101B200039607B68002B07D17A6813465B00134449
:101B30009B00104A134400E00023FB603B68BB603D
:101B4000FB68002B0FD0FB680833184602F05BF8E7
:101B50000346012B09D1BB681A68FB681A60FB6851
:101B600001221A7102E000BF00E000BF1037BD463D
:101B700080BD00BF8C35012080B586B000AFF86015
:101B8000B9607A6000237B61FB68002B07D1FA689B
:101B900013465B0013449B00134A134400E00023E8
:101BA0003B613B69002B02D14FF0FF3317E03869EE
:101BB000FFF790FF034683F00103DBB2002B02D056
:101BC0004FF0FF330BE03B691B681B687968B8680E
:101BD000984703467B613869FFF791FF7B69184698
