:020000040000fa
:0200000400807a
:045f8800ffff000017
:020000040000fa
:0200000400807a
:045f8c0000400e843f
:020000040000fa
:0200000400807a
:045f900038fc745f06
:020000040000fa
:0200000400807a
:045f94003b44101466
:020000040000fa
:0200000400807a
:045f98000b00007189
:020000040000fa
:0200000400807a
:045f9c000000000001
:020000040000fa
:0200000400807a
:045fbc0000000010d1
:020000040000fa
:020000040100f9
:10020000f87f01208d2e01012d840101318401012f
:10021000398401013d840101418401010000000095
:100220000000000000000000000000005172010109
:100230003584010100000000e1420101c96c0101a7
:10024000ebd60001ebd60001ebd60001697d010180
:10025000ebd60001ebd60001ebd60001ebd6000196
:10026000ebd60001ebd60001ebd60001ebd6000186
:1002700075420101ebd60001ebd60001ebd600017f
:10028000ebd600014d6f0101ebd60001ebd600016a
:10029000ebd60001ebd60001ebd60001ebd6000156
:1002a000ebd60001ebd60001ebd60001ebd6000146
:1002b000ebd60001ebd60001e9da0001ebd6000134
:1002c000ebd60001b97b0101ebd60001ebd60001b2
:1002d000ebd60001ebd60001ebd60001ebd6000116
:0c02e000ebd6000100000000ebd600018e
:020000040000fa
:020000040100f9
:1002ec0000080001e80000200000000000000000f1
:1002fc000b080e00f90300200000000000000000b5
:10030c000a080a00ef0300200000000000000000b3
:10031c00040813001c030020000000000000000073
:10032c000608040053030020000000000000000039
:10033c0002082800e8020020000000000000000075
:10034c0003080c0010030020000000000000000057
:10035c0001080001e801002000000000000000007e
:10036c00050824002f0300200000000000000000fe
:10037c0008081400d7030020000000000000000053
:10038c000708800057030020000000000000000058
:10039c0009080400eb03002000000000000000002e
:1003ac0008b10181b0b000840000000008b10181e7
:1003bc00b0b000840000000008b10181b0b000842e
:1003cc000000000008b10181b0b000840000000002
:1003dc0008b10181b0b000840000000084020181ea
:1003ec00b00fb1000000000084020181b00cb1001c
:1003fc0000000000a8020181b0b00eb100000000a6
:10040c0084020181b00cb1000000000008b1018130
:10041c00b0b000840000000008b10181b0b00084cd
:10042c000000000021aa0000b0b0a800ffff0100ee
:10043c0015aa0000a908b100ffff010c1004000070
:10044c001a0e30003604000008b10181b0b00084ef
:10045c000000000008b10181b0b000840000000071
:10046c0008b10181b0b000840000000008b1018126
:10047c00b0b0008400000000cda90000ac3f21000a
:10048c00ffff010f100400004c9e01fe01008402ce
:10049c000400000008b10181b0b00084000000002d
:1004ac0008b10181b0b000840000000008b10181e6
:1004bc00b0b0008400000000a81a0181b0b00eb1e9
:1004cc000000000008b10181b0b000840000000001
:1004dc0008b10181b0b000840000000008b10181b6
:1004ec00b0b00084000000005da90000b0af1000a7
:1004fc00ff101901111ecc040000fe04048205013a
:10050c009e058001000001000000000039a90000d8
:10051c00a908b100ffff01002da900008408b1015a
:10052c00b0b0b000ff1019010c020608010c041049
:10053c00051c0a000001007f00007d000000000087
:10054c000000000008b10181b0b000840000000080
:10055c0008b10181b0b0008400000000e9a80000df
:10056c00b0af0200ff101d0114222226017a0a846a
:10057c0001008c01040000a2012484010001000090
:10058c000000000008b10181b0b000840000000040
:10059c0008b10181b0b0008400000000f8b500bfc4
:1005ac00f8bc08bc9e467047155c0101dd7001016a
:1005bc00f8b500bff8bc08bc9e467047f15b010162
:020000040000fa
:020000040100f9
:1005cc0060150000010000005c1500000100000037
:1005dc005c15000001000000c0150000ab08b180e4
:1005ec00c816000001000000cc160000010000003d
:1005fc00cc16000001000000d8160000010000001d
:10060c00d816000001000000e416000001000000f4
:10061c00f016000001000000f4160000ad08b180d7
:10062c006c170000010000007817000001000000aa
:10063c0088170000ad08b1804818000001000000c8
:10064c004c180000b0b0ae8028190000a908b18089
:10065c0058190000b0ad0280e8190000ab08b18059
:10066c00841a000001000000801a0000b0af048062
:10067c005c1b000001000000601b0000b0b0a880f3
:10068c00bc1b000001000000b81b0000ab08b180cf
:10069c00e01b0000b0af0680e81c00000100000069
:1006ac00e81c0000b0a902806c1d0000b0b0a8804e
:1006bc007c1d0000b0b0a8808c1d0000b0a9028089
:1006cc00d41d0000b0b0a880ec1d0000b0a80180c3
:1006dc00241e0000b0a801803c1e0000b0b0a88011
:1006ec004c1e0000b0a80180641e0000b0b0a880b1
:1006fc00741e0000b0a801808c1e0000b0b0a88051
:10070c009c1e000001000000a81e0000b0a9028081
:10071c00001f0000b0ab0480601f0000b0b0a880c8
:10072c00701f0000b0b0a880801f0000ab08b18023
:10073c00a81f0000b0aa0180fc1f000001000000ef
:10074c00fc1f0000b0a80180102000000100000078
:10075c00142000000100000018200000b0b0a88098
:10076c0044200000b0a90280c0200000b0b0ac80d2
:10077c0020210000b0ab02807c210000b0a80180d9
:10078c0094210000b0a80180ac2100000100000001
:10079c00b0210000b0b0a880c8210000010000000a
:1007ac00c821000001000000c8210000b0b0a880e2
:1007bc001c220000b0b0a8802c2200000100000018
:1007cc002c220000010000002c220000010000007f
:1007dc002c2200000100000028220000b0a801809b
:1007ec003c220000010000003c220000010000003f
:1007fc0040220000b0aa0180d0220000b0b0a88036
:10080c00f4220000b0ab04807c230000b0ab02806b
:10081c00f0230000b0a9028038240000b0aa0180a7
:10082c00fc240000b0b0aa8038250000b0b0a8802d
:10083c0048250000b0b0a88058250000b0b0a880b2
:10084c00bc250000b0a80180e8250000b0a80180fc
:10085c0008260000b0a8018034260000b0a8018052
:10086c0054260000b0a8018080260000b0a80180aa
:10087c00a0260000b0a90280d4260000b0a80180f8
:10088c0000270000b0a8018018270000010000001c
:10089c00142700000100000010270000b0b0a88051
:1008ac002c270000b0ab02806c2700000100000078
:1008bc0074270000b0b0a88084270000b0b0a880d6
:1008cc009427000001000000b02700000100000088
:1008dc00f8270000b0ad02805c2a00000100000087
:1008ec005c2a0000010000006c2a000001000000de
:1008fc007c2a0000010000008c2a0000010000008e
:10090c00942a000001000000c42a0000010000002d
:10091c00d42a000001000000e82a000001000000b9
:10092c00f02a000001000000f82a0000010000007d
:10093c00242b0000b0b0a880642b00000100000044
:10094c00c42b000001000000e42b0000010000009b
:10095c00f82b0000010000005c2c0000a908b180fd
:10096c00942c000001000000a42c000001000000e9
:10097c00c82c000001000000e02c00000100000069
:10098c00002d000001000000982d00000100000067
:10099c00a42d000001000000b82d00000100000093
:1009ac00cc2d000001000000e42d0000010000002f
:1009bc00fc2d000001000000142e000001000000be
:1009cc00302e000001000000402e0000010000004d
:1009dc007c2e000001000000ac2e00000100000085
:1009ec00dc2e000001000000102f000001000000b0
:1009fc00582f000001000000b82f0000010000007b
:100a0c00d82f000001000000fc2f000001000000a6
:100a1c0030300000010000004030000001000000f8
:100a2c006030000001000000803000000100000078
:100a3c00a030000001000000ac30000001000000fc
:100a4c00b830000001000000c030000001000000c0
:100a5c000c31000001000000503100001cfaff7f37
:100a6c0050320000010000008c320000b0af10804a
:100a7c004834000001000000d4410000a908b180f6
:100a8c00e441000001000000e04100000100000012
:100a9c00e8410000a908b18038420000b0b0aa803b
:100aac008c420000010000008c420000010000009c
:100abc009042000001000000944200000100000080
:100acc00a042000001000000b04200000100000044
:100adc00c4420000b0b0a880ec420000b0b0a880c6
:100aec0010430000b0b0a88034430000b0b0a88020
:100afc0048430000b0b0aa80a4430000b0a9028013
:100b0c0018440000a908b1805c440000b0b0a88073
:100b1c00b8440000a908b18044450000a908b18080
:100b2c0064450000a908b18094450000b0aa01807a
:100b3c000c460000b0ac0380b84700000100000078
:100b4c00bc47000001000000c0470000b0b0aa8004
:100b5c0038480000b0b0a8809048000001000000a8
:100b6c0098480000b0b0a880d448000001000000f4
:100b7c00d848000001000000e84800000100000017
:100b8c00f048000001000000f848000001000000df
:100b9c0000490000010000000849000001000000ad
:100bac0018490000010000001c490000b0ac038093
:100bbc0084490000010000008c4900000100000085
:100bcc00c449000001000000d049000001000000f1
:100bdc00dc49000001000000e049000001000000b9
:100bec00e8490000010000002c4a00000100000050
:100bfc00604a000001000000604a00000100000093
:100c0c00604a000001000000904a00000100000052
:100c1c00c84a000001000000d44a00000100000096
:100c2c00e44a000001000000684b000001000000d5
:100c3c006c4b000001000000144c0000010000008f
:100c4c00b44c0000010000002c4d0000a908b1803c
:100c5c00584d000001000000544d00000100000040
:100c6c005c4d000001000000704d00000100000010
:100c7c00744d000001000000f04d00000100000068
:100c8c00104e000001000000444e00000100000066
:100c9c00504e000001000000584e00000100000002
:100cac00944e000001000000e04e00000100000026
:100cbc00f04e000001000000344f00000100000065
:100ccc00804f000001000000984f00000100000060
:100cdc00b44f000001000000e84f000001000000cc
:100cec0024500000b0b0ae80c850000001000000dd
:100cfc007851000001000000a0510000010000002c
:100d0c00a0510000010000009c51000001000000f7
:100d1c00a651000001000000fe510000010000007f
:100d2c001c520000b0a90280a8520000b0b0a880ec
:100d3c00ee52000001000000e8520000b0b0aa80a2
:100d4c001a530000ae71b280ba53000001000000cb
:100d5c00b6530000aa3f3780fa5300000100000090
:100d6c0006540000b0b0aa803e5400000100000000
:100d7c0044540000010000003e540000010000003b
:100d8c004254000001000000645400000100000007
:100d9c007454000001000000965400000100000093
:100dac00a6540000aa0db280fe540000b0af06801d
:100dbc0058570000010000005457000001000000cb
:100dcc0050570000010000004c570000ac3f018060
:100ddc0080590000ab08b180f05900000100000000
:100dec00f059000001000000f0590000ab08b18080
:100dfc00105b0000b0ae0180d45b0000b0b0ac80e2
:100e0c00f85b0000ab08b1802c5c0000b0b0aa808d
:100e1c004c5c0000010000005c5c0000a908b18083
:100e2c00785c000001000000785c0000b0b0a88085
:100e3c00885c000001000000945c0000b0b0a88049
:100e4c00a85c0000b0b0a880cc5c0000b0aa018007
:100e5c001c5d0000b0aa01806c5d0000b0a8018090
:100e6c00845d0000b0a801809c5d0000b0a80180ea
:100e7c00b45d0000b0a80180d05d0000b0a8018076
:100e8c00045e0000b0a801801c5e0000b0a80180c8
:100e9c00345e0000b0ab0480545f0000a908b18040
:100eac00b05f0000b0a906803c600000b0a90280d1
:100ebc001484000001000000848400000100000084
:100ecc00a484000001000000bc84000001000000ac
:100edc00fc840000010000000485000001000000fb
:100eec00188500000100000044850000010000008e
:100efc0060850000010000006c850000010000000e
:100f0c00ac85000001000000f48500000100000029
:100f1c0008860000010000001c8600000100000093
:100f2c0024860000010000002c8600000100000057
:100f3c003086000001000000348600000100000033
:100f4c00388600000100000040860000010000000f
:100f5c0068860000010000006c86000001000000a3
:100f6c0078860000010000007c8600000100000073
:100f7c00b486000001000000cc86000001000000d7
:100f8c00f086000001000000148700000100000042
:100f9c007887000001000000848700000100000039
:100fac00d487000001000000d88700000100000079
:100fbc00e887000001000000f0870000010000003d
:100fcc001c880000010000003c88000001000000ab
:100fdc00588800000100000080880000010000001b
:100fec00a088000001000000d08800000100000073
:100ffc00e0880000010000003c89000001000000b6
:10100c0050890000b0a902807c890000010000001a
:10101c009c89000001000000cc8900000100000048
:10102c00fc89000001000000248a0000010000007f
:10103c004c8a000001000000708a0000a908b180f1
:10104c00a48a000001000000d08a0000010000000a
:10105c00048b000001000000488b00000100000020
:10106c00708b000001000000748b00000100000078
:10107c00988f000000840480a88f0000b0a8038023
:10108c00bc8f0000b0b0ae8054910000b0b0ac800a
:10109c00d8910000b0b0ae80f4920000a908b180e5
:1010ac003493000001000000449a0000b0b0a88006
:1010bc00509a0000a908b180689a0000a908b18074
:1010cc009c9a0000b0b0aa80049b0000b0a80180dc
:1010dc001c9b0000b0b0aa80509b0000a908b180f6
:1010ec00789b0000a908b180a49b0000b0b0aa8036
:1010fc00bc9b0000a908b180e49b0000b0b0a880a4
:10110c00209c0000b0aa01806c9c0000b0b0a880ac
:10111c00889c0000b0b0a8809c9c0000b0b0a88057
:10112c00b09c000094f3ff7fe89c0000b0a81780ef
:10113c000c9d0000010000000c9d0000acf3ff7f33
:10114c003ca00000010000004ca00000ab08b180e6
:10115c00c8a00000b0b0a880e0a000000100000012
:10116c00f0a00000b0b0ac80c4a1000058f3ff7f29
:10117c00cca100005cf3ff7ff0a100000100000097
:10118c0004a20000a908b1801ca20000010000000c
:10119c0020a20000b0ab2080b4a20000b0b0aa80a6
:1011ac00e0a2000001000000e4a500000100000026
:1011bc0004a60000b0ad04808ca600000084028060
:1011cc0098a6000001000000a4a600000100000089
:1011dc00b0a6000001000000bca600000100000049
:1011ec00b8a6000001000000bca60000b0a9048055
:1011fc00d8a60000b0a90480f4a60000a908b1800c
:10120c000ca700000100000008a70000010000006e
:10121c0014a700000100000018a700000100000046
:10122c0028a70000010000002ca700000084028009
:10123c0050a700000084028064a700000100000099
:10124c0060a700000084028070a70000010000006d
:10125c006ca70000b0ab028028a8000001000000c1
:10126c0024ab0000010000004aab000000840480a5
:10127c005aab00000100000056ab0000b0ad04807a
:10128c0092ad0000b0a80380b4ad0000f8f2ff7f6f
:10129c00b6ad0000fcf2ff7fc0ad00000100000005
:1012ac00bead00000100000084b00000b0b0a8800a
:1012bc0094b000000100000098b000000100000094
:1012cc00b4b0000001000000c4b000000100000038
:1012dc00d4b00000b0b0aa8000b100000100000042
:1012ec0018b10000b0b0aa8048b1000001000000a5
:1012fc0054b10000b0b0ac80c8b1000001000000d7
:10130c00d8b1000001000000ecb10000a908b180c8
:10131c0010b200000100000034b200000100000017
:10132c0050b20000010000005cb20000b0b0aa8016
:10133c008cb200000100000098b20000b0b0a88090
:10134c00b0b200000100000064b50000b0ad2a800e
:10135c00d8b50000acf0ff7fecb50000b0ac01805c
:10136c0080b70000b0ab1680b4b70000b0b0ac8052
:10137c0070ba00000100000070ba0000010000000b
:10138c008cba00000100000004bb0000010000004a
:10139c0050bb000001000000acbb000001000000cd
:1013ac00b4bb000001000000b4bb00000100000051
:1013bc00b4bb0000b0b0ac80f8ca0000b0b0ac80d8
:1013cc0028cb00000100000038cb0000a908b18038
:1013dc0050cb0000a908b18064cb000001000000d4
:1013ec006ccb000064f0ff7f78cb000068f0ff7fcf
:1013fc0084cb00006cf0ff7f90cb0000010000005c
:10140c0098cb000001000000a0cb0000a908b1801f
:10141c00b4cb0000a908b180c4cb0000a908b180ee
:10142c00d8cb0000b0b0a880eccb0000b0ab0e80e5
:10143c004ccc000038f0ff7f58cc000001000000bd
:10144c005ccc0000010000007ccc0000010000001e
:10145c009ccc000001000000bccc0000010000008e
:10146c00dccc000001000000fccc000001000000fe
:10147c001ccd0000b0b0a88064cd000001000000bd
:10148c0070cd00000100000074cd000001000000d0
:10149c00b4cd00000100000094cf0000010000005a
:1014ac00accf0000b0a90280f8cf00000100000012
:1014bc0004d00000010000000cd00000010000006e
:1014cc001cd000000100000030d000000100000022
:1014dc0058d000000100000080d000000100000086
:1014ec00a4d0000001000000ccd0000001000000de
:1014fc00a4d7000001000000a4d7000001000000e8
:10150c00a8d7000001000000a8d7000001000000cf
:10151c00a8d7000001000000acd7000084eeff7fcc
:10152c00bcd7000001000000c8d70000010000007b
:10153c00c8d7000001000000c4d700000100000063
:10154c00c4d7000001000000c8d700000100000053
:10155c00c8d7000001000000c8d7000050eeff7f84
:10156c00d8d7000001000000e4d700000100000003
:10157c00ecd7000001000000f8d7000001000000cb
:10158c0004d8000034eeff7f14d8000038eeff7f43
:10159c0024d800000100000024d800000100000045
:1015ac0024d800000100000024d800000100000035
:1015bc0020d80000010000001cd800000100000031
:1015cc0018d800000100000018d80000010000002d
:1015dc0014d800000100000014d800000100000025
:1015ec0010d800000100000010d80000010000001d
:1015fc000cd800000100000008d80000d4edff7fdb
:10160c0014d800000100000010d8000001000000f8
:10161c0074d800000100000010d900000100000087
:10162c005aec00000100000074ed0000b0b0a8807e
:10163c0080ed0000a908b18098ed000001000000c9
:10164c00b8ed0000a908b180f8ed00000100000021
:10165c00f8ed000001000000f8ed000001000000b2
:10166c00fced000001000000f8ed0000010000009e
:10167c00f4ed000001000000f8ed00000100000096
:10168c0008ee00000100000018ee00000100000050
:10169c0018ee00000100000094f30000b0aa0f80c7
:1016ac0040f400000084028058f4000001000000a7
:1016bc005cf400000084028074f40000010000005f
:1016cc0094f800000100000090f8000010edff7f7e
:1016dc00acf8000001000000acf8000001000000b4
:1016ec00acf8000001000000acf8000001000000a4
:1016fc00acf8000000840280c0f80000010000007b
:10170c00bcf8000001000000b8f800000100000067
:10171c00b4f8000001000000b0f80000b0ab068087
:10172c00e4f80000c4ecff7ff8f80000c8ecff7f81
:10173c001cf9000001000000c8fc000001000000c2
:10174c0028fd00000100000038fd00000100000031
:10175c0048fd00000100000058fd000001000000e1
:10176c0068fd00000100000070fd0000f0edff7f3f
:10177c00b000010001000000b800010001000000f1
:10178c00c000010001000000d000010001000000b9
:10179c00d800010001000000e00001000100000081
:1017ac00dc00010001000000dc000100e8ecff7f20
:1017bc00dc00010001000000d80001000100000065
:1017cc00d400010001000000d00001000100000065
:1017dc00cc000100ccecff7fcc000100010000002c
:1017ec00d0000100c8ecff7fd00001000100000018
:1017fc00cc00010001000000c80001000100000045
:10180c00c400010001000000c00001000100000044
:10181c00bc00010001000000b80001000100000044
:10182c00b400010001000000b00001000100000044
:10183c00ac00010001000000a80001000100000044
:10184c0050040100b0ac018024070100e4ebff7fe1
:10185c0058070100b0b0a88070070100010000001b
:10186c0070070100010000006c070100b0b0a880f7
:10187c007c070100010000007c070100b0b0a880cb
:10188c0098170100b0ab02809c22010001000000ff
:10189c007a23010001000000742301000100000004
:1018ac009023010001000000a4230100b0b0aa8025
:1018bc00fc250100b0b0a8804829010001000000ff
:1018cc00b82c0100b0aa0180f0300100010000002a
:1018dc003436010038ecff7f3c3e01000100000073
:1018ec007c3e0100f8ebff7f443f0100b0b0a880c4
:1018fc00583f010018ebff7f5c3f01001cebff7fa2
:10190c00603f010020ebff7f10420100b0b0a880c7
:10191c00e44801000100000016490100010000002c
:10192c0048490100010000007a4901000100000053
:10193c00ac49010001000000f84a01000100000060
:10194c00284b010001000000684c01000100000060
:10195c00644c010001000000684c01000100000013
:10196c00644c010001000000604c0100010000000b
:10197c00644c010001000000684c010001000000f3
:10198c00644c010001000000684c010001000000e3
:10199c006c4c010001000000704c010001000000c3
:1019ac00744c010001000000dc4d0100010000003e
:1019bc00084e0100b0b0aa80344e0100b0aa0380da
:1019cc00604e010001000000b84f01000100000052
:1019dc001450010001000000105001000100000033
:1019ec0010500100010000000c500100010000002b
:1019fc00085001000100000004500100010000002b
:101a0c000050010001000000005001000100000026
:101a1c0004500100b0b0a88014500100b0b0a880f0
:101a2c0020500100010000009c5301000100000047
:101a3c0018540100b0b0ac803a5401000100000011
:101a4c009056010001000000d8560100cceaff7f3f
:101a5c00cc580100010000008c5b0100010000006b
:101a6c00a45b0100b0b0aa80fc5b01000100000087
:101a7c00745f0100010000004c61010000840480cf
:101a8c005c61010001000000ec630100010000003a
:101a9c00f863010001000000046401000100000073
:101aac001064010001000000b46501000100000099
:101abc00bc65010001000000f2650100010000009e
:101acc006066010001000000a86701000100000031
:101adc00da67010001000000dc67010074eaff7f97
:101aec005068010060eaff7f5068010001000000af
:101afc005068010001000000506801000100000066
:101b0c0050690100010000004c6901000100000057
:101b1c004869010001000000446901000100000057
:020000040000fa
:020000040100f9
:101b2c000020704701b1fee7006870471c2830d8d0
:101b3c00dfe800f00f1113152f17191b2f2f2f2f64
:101b4c001d1f21232f2f2f252f2f2f27292f2f2bf1
:101b5c002d0000207047012070470e2070470b208d
:101b6c0070470c20704709207047032070470220f3
:101b7c0070470420704711207047122070471620c0
:101b8c007047142070471320704717207047182097
:101b9c00704700f580407047f8b50646044646f895
:101bac00041b4ff4006200f1d101304603f00cfd30
:101bbc000025266504f1540304f17402c3e90055b1
:101bcc0008339a42fad1a4f87450c4e91e5504f1b2
:101bdc00800007f0cffd2f4a2f4b12682f49c4f815
:101bec00cc20c820c4f8a030c4f8a40004f51763b6
:101bfc000020c4f8ac104ff6ff770021042284f8c3
:101c0c009850c4f89c50c4e92c5584f8d050a4f8d2
:101c1c00d258a4f84c59c4f84f59c4f85859c4f8c0
:101c2c005c59c4f86059c4f8645984f86859c4f80c
:101c3c006c59a4f8a870c4e92e01c4e9300184f8e9
:101c4c00c820c3e90001236813b3154b15491c6068
:101c5c003046224603f000fd7822002104f6d40021
:101c6c0016f03af97722002104f1b80084f85359a0
:101c7c0084f8555984f8547984f84e5984f8d1581d
:101c8c000df0caf804f1ac0011f0c0ff2046f8bd0d
:101c9c00fee700bfd083010100f8ff07d921000146
:101cac001cbe002049220001014b1868704700bf80
:101cbc001cbe002090f85209704700bf0023c0f8ea
:101ccc005839c0f85c39c0f86039c0f864397047cd
:101cdc00043003f069be00bf90f8c830042b1abf63
:101cec0090f8980080f001000020704790f8c83000
:101cfc00012b06bf90f8980080f00100002070477f
:101d0c00d0f858390133c0f8583970472de9f843e9
:101d1c000d1e90f8501908bf7025d9b900f1b806fe
:101d2c00044629463046174698460df0fdf888b90a
:101d3c0094f8d22894f8d3389a420ed030460b221d
:101d4c0000210df069f804f1ac0011f05fff0320e5
:101d5c00bde8f8830d20bde8f88304f150092b464b
:101d6c0048460622802108f05fff30b91ffa88f23e
:101d7c003946206d03f086ff18b10328ded0bde88c
:101d8c00f883484608f0f6fff7e700bf013804284f
:101d9c009abf024b185c0020704700bf7c2d0101dc
:101dac000138c0b216289dbf024b03eb800080683f
:101dbc00002070477c2d01012de9f84390f8504923
:101dcc000cb1bde8f88300f1b8080d460446742147
:101ddc0040461f4616460df0a7f80028f1d194f89e
:101dec00d22894f8d3389a420ad040460b220021cc
:101dfc000df012f804f1ac00bde8f84311f006bf89
:101e0c0004f15009802148467423062208f00cff87
:101e1c00014678bb3946484608f048ff014648bba6
:101e2c00013d042d98bf154b206d98bf595d03f0f3
:101e3c0017ff0146f0b9721ed2b2162a03d80f4b07
:101e4c0003eb82029168484608f0c0fe014688b94f
:101e5c0004f51763d3e9006712f0dafe321847f184
:101e6c000003484608f07afe014618b9484608f0c7
:101e7c0081ff01460329a4d1b7e700bf7c2d0101e6
:101e8c0001e00f38c0b20e28fbd870472de9f0479f
:101e9c0011f00f075cd090f8d36890f8d258741bef
:101eac000e2cb6465cdc4fea211c0cf0030800eb50
:101ebc00080494f8d148bc421bd0ae428a4617d9cc
:101ecc000e2d2c4603d90f3ce4b20e2cfbd804f596
:101edc008d7400ebc40494f8049019f0400f03d0f7
:101eec0009f00301884529d00135edb2ae42e7d89f
:101efc0051460e2e05d934460f3ce4b20e2cfbd8bd
:101f0c00a6460ef58d7400ebc4040136257994f8c1
:101f1c0005e0a7686cf3010561f3850563f317070a
:101f2c0045f0400562f3010ea760257184f805e0c9
:101f3c00002780f8d3683846bde8f087c9f38301e1
:101f4c00b942d1d16ff38619514684f80490d0e789
:101f5c00022af0d11a46b83039460cf05dffeae798
:101f6c00b8300e2200210cf057ff0327e3e700bf27
:101f7c0038b511f0300f00f1500408bfc0f89c20a8
:101f8c00154620460023062208f04efe00b138bd4f
:101f9c002946204608f01afe0028f8d12046bde854
:101fac00384008f0e7be00bf2de9f04383b004468b
:101fbc00884668461146164699460ff055fadde9f3
:101fcc0000578db104f1500933464146484606226c
:101fdc0008f02afe28b9fb0704eb670012d4a847c7
:101fec00a8b103b0bde8f083fa0716d504f1500987
:101ffc00334641464846062208f016fe0028f0d12a
:10200c0004eb670003685d59a8470028e9d14846ee
:10201c0003b0bde8f04308f0adbeb9f1000f07d135
:10202c004a464146204603b0bde8f043fff7a0bf47
:10203c00414620460d2203b0bde8f043fff798bfa0
:10204c00f8b590f8d23890f8d328044600259a4277
:10205c003fd000bf03f58d7004ebc0001e46017924
:10206c004f061bd543798268c1f30107c1f3830185
:10207c0041ea071103f0030361f07f01022bc9b29f
:10208c00c2f3170227d0b3fa83f35b092046fff79c
:10209c008bfff8b994f8d23894f8d32806f58d76de
:1020ac0004ebc60601333179dbb26ff386110f2bcb
:1020bc00317184f8d238cad10e2a84f8d25803d997
:1020cc000f3ad2b20e2afbd800239a4284f8d328b6
:1020dc00c0d10020f8bd2046fff74aff0028d9d018
:1020ec00f8bd00bface700bf2de9f04fd0e92e23bf
:1020fc00134385b0064605d1012386f8683905b02f
:10210c00bde8f08fb8300cf085fe83460028f3d084
:10211c00dff8b4a0002424e05af8082c772a45d024
:10212c0080213046fff724ff0028e5d1d6e92e01a7
:10213c00012303fa05f523fa07f7a34020ea03036a
:10214c003d43009321ea05030193dde90023c6e931
:10215c002e231343d0d00134e3b25b450af10c0ab1
:10216c00cad2d6e92e01c4f1200701fa07f220faef
:10217c0004f3a4f12005134321fa05f2134303f0f1
:10218c0001084ff0000958ea0903e4d05af80c2c66
:10219c00002ac1d096f86839002bc9d001238021c0
:1021ac003046fff701ff0028c0d0a5e73068039246
:1021bc0014f09afa0828039ab2d8024b03eb800069
:1021cc00426eade77c2d010104f10001014b186852
:1021dc00fff78abf1cbe002010b590f8983004465b
:1021ec0033b1d0f8cc308b4204bf002380f8983048
:1021fc002046fff725ff98b994f8d01059b1012368
:10220c000c222046fff7d0fe50b994f8c83084f861
:10221c00d000042b05d12046bde81040fff764bf69
:10222c0010bd201d03f0c0fb0123c4f8cc0084f8c2
:10223c0098302046bde81040fff756bffff7ccbfe3
:10224c00f8b500f1500504462846069ebdf81c70f2
:10225c0008f0eafc00b1f8bd3a463146206d03f0b7
:10226c0011fd0028f7d12846bde8f84008f082bde2
:10227c002de9f04f042b87b004460f46914662d0ef
:10228c00052b36d1114604a80ff012f9dde90465cf
:10229c004ff0080a05f0010b66b304f180084046c4
:1022ac0007f096fc0df10a0203a9404607f01afc50
:1022bc00404607f093fc002304eb650084f850398a
:1022cc00bbf1000f2bd1b0470123054684f85039e0
:1022dc0070bbbdf80a300399019300914b465246ee
:1022ec0039462046fff7acff002839d107b0bde8ce
:1022fc00f08ffee7bbf1000f3bd004f180084046a5
:10230c0007f066fc0df10a0203a9404607f0eafb50
:10231c00404607f063fc84f8506904eb65000368e1
:10232c009e59b0470123054684f850390028d0d077
:10233c00fff7fcfb3946034602222046fff7a6fdb9
:10234c0007b0bde8f08f114604a80ff0a5f8dde941
:10235c0004654ff0070a05f0010b002e9dd1c9e76b
:10236c002b46394620460222fff790fd07b0bde808
:10237c00f08f394620460d230222fff787fdb5e783
:10238c0000230222fff782bd30b5b0f88620b0f8ea
:10239c00883083b002219a4204468df807102dd163
:1023ac00006814f02bfb94f85229224400234ff6ba
:1023bc000071a2f8531982f84e3982f8553904f19c
:1023cc005000c4f85839c4f85c39c4f86039c4f802
:1023dc00643908f033fd204670228021fff7c8fdd8
:1023ec0048b1fee79df807302068022bd9d014f0d5
:1023fc0003fb074b1d60002003b030bd0df107013e
:10240c00803007f0ebf905460028ebd0fee700bf63
:10241c001cbe002010b5044600680cf03ffc0146c1
:10242c00206dbde8104003f01bbc00bf10b5044686
:10243c0000680cf0cffc0146206dbde8104003f0a5
:10244c000fbc00bf30b583b00023054601a9803016
:10245c00019307f07dfa044610b1204603b030bd5d
:10246c009df8041028680cf0b7fc04460028f4d141
:10247c0028680cf013fc0028efd095f852392b4447
:10248c0093f84e39002be8d028680cf031fc044648
:10249c00e3e700bf10b5044600680cf00dfc002803
:1024ac0018bf0221206d08bf0021bde8104003f0c9
:1024bc00d7bb00bf10b582b00446002380300df1ad
:1024cc0007018df8073007f089f940b99df80730fe
:1024dc0053b1022b05d8206801210cf0f3fb02b09c
:1024ec0010bd072002b010bd014620680cf0eafbbd
:1024fc0002b010bd10b582b004460df1070180305a
:10250c0007f052f920b920689df807100cf078fc00
:10251c0002b010bd10b5044654f8500b0cf060fc22
:10252c0001462046bde8104008f0eaba10b582b06a
:10253c0004460df10601803007f076f920b92068c9
:10254c00bdf806100cf04efc02b010bd10b50446e0
:10255c0000680cf04bfc08220146206dbde81040d1
:10256c0003f090bb10b582b004460822803001a95c
:10257c0007f008fa18b9206801990cf039fc02b080
:10258c0010bd00bf10b5044654f8500b0cf034fcd1
:10259c0001462046bde8104008f0b2ba90f8522926
:1025ac0003461344006d93f84e1903f059bb00bf5a
:1025bc0030b583b0002304460df1070180308df84f
:1025cc00073007f0f1f8054610b1284603b030bdce
:1025dc0020680cf063fb30b19df80730206863b1c4
:1025ec000cf086fb054694f852299df807301444ec
:1025fc0084f84e39284603b030bd0cf06ffb94f8cc
:10260c0052299df807301444054684f84e39f1e7f9
:10261c00f0b500f1800485b0054602a9204607f00c
:10262c0057f908b105b0f0bd01a9204607f028f90b
:10263c000028f7d120460df1030107f0cff8002850
:10264c00f0d1286815f0ccfedde90223994208bfd1
:10265c0090420fd2161a63eb0107002f08bfb6f198
:10266c00ff3f07d232462868019b9df803100ff0fc
:10267c0035f9d7e70720d5e710b50446006815f003
:10268c0067fd0146206dbde8104003f0e9ba00bfbc
:10269c0010b50446006815f0a5fe0146206dbde896
:1026ac00104003f0ddba00bff8b507460e46002413
:1026bc00012501e0202c0cd005fa04f33342e1b2e1
:1026cc0004f10104f6d0386d03f0cafa0028f1d0f9
:1026dc00f8bd0020f8bd00bf70b5b0f88620b0f88a
:1026ec00883000249a4282b00c601dd00d460446fe
:1026fc0000f180060ee09df807201f2a03fa02f372
:10270c0015d82a68b4f88600b4f8881013438842a8
:10271c002b6009d00df10701304607f05ff801235b
:10272c000028e8d002b070bd002002b070bd0720b8
:10273c0002b070bdd0f8a010fff7b6bf10b582b0d4
:10274c00002301a901930446fff7c6ff10b9019bb2
:10275c00c4f8a03002b010bd03465030b3f8a4103a
:10276c0008f0ceb900f1a401803007f05db800bfcd
:10277c0010b5044600680cf091fa68b194f852391f
:10278c00206d2344bde8104093f9543901330cbf3c
:10279c000021022103f064ba0146206dbde810400f
:1027ac0003f05eba30b583b0002305460df1070186
:1027bc0080308df8073007f011f8044628b99df8e1
:1027cc00073013b1022b03d00c24204603b030bdcc
:1027dc0028680cf063fa0028f7d095f852292a449f
:1027ec0092f95439013319d1d5f8a030a3b1591e3f
:1027fc00194211d15b0813d001345b08e4b2fbd150
:10280c0063b282f854392146b5f8a4202868054be8
:10281c000cf082fa0446d8e70724d6e70d24d4e757
:10282c002346eee7816a00012de9f0410546b830f8
:10283c000cf0f0fa30b38046002403e00134e3b22c
:10284c0043451fd2d5e93030c4f12001e34000faf2
:10285c0001f1a4f120020b4320fa02f2134303f01e
:10286c000106002756ea0703e8d004eb4403074aa5
:10287c0005f1500052f8231008f0a8f90028ddd01b
:10288c00bde8f0810020bde8f08100bff8f0000148
:10289c00f0b5b0f88620b0f88830002400259a42b4
:1028ac0083b0c0e9304521d0044600f1800600f128
:1028bc00b80709e0019938460cf0e4fab4f8862020
:1028cc00b4f888309a4211d001a9304607f040f88c
:1028dc00012205460028edd02046012341f20802d2
:1028ec008021fff761fb284603b0f0bd0025284688
:1028fc0003b0f0bd10b582b0044601a9803007f0da
:10290c0027f828b904f1b800012201990cf0bafaa1
:10291c0002b010bd10b582b0044601a9803007f09a
:10292c0017f828b90246019904f1b8000cf0aafa7c
:10293c0002b010bd03465030d3f89c1008f046b9d5
:10294c0010b500f150042046042108f03ff900b105
:10295c0010bd20460321bde8104008f037b900bf78
:10296c005030032108f032b95030002108f02eb954
:10297c0010b500f150042046052108f027f900b1ec
:10298c0010bd0c21204608f021f90028f8d118219f
:10299c00204608f01bf90028f2d12221204608f02d
:1029ac0015f90028ecd140f20121204608f00ef96f
:1029bc000028e5d14021204608f008f90028dfd195
:1029cc0020464121bde8104008f000b910b504467e
:1029dc0014f016f8014604f15000bde8104008f060
:1029ec0065b900bf006d012103f03ab9006d0021fb
:1029fc0003f036b9006d042103f032b90c20704796
:102a0c0010b5044682b0694600680cf0f7f96946c7
:102a1c00206d082203f036f902b010bd50300221af
:102a2c0008f01ab990f8c810006d03f019b900bf7e
:102a3c0070b582b004460e4680300df1070106f0e9
:102a4c00cdfe70bb9df80730042b1fd9032384f8ef
:102a5c00c830002384f8d0300c22012331462046a4
:102a6c00fff7a2fa94f8c830042b054607d018b328
:102a7c00144b1b68c4f8cc30012384f8983015b182
:102a8c0084f8d0600025284602b070bd012101faff
:102a9c0003f212f01b0fdad15307d7d584f8c81004
:102aac00d7e7fff743f8314602462046fff760fab6
:102abc000546284602b070bd201d02f075ffc4f813
:102acc00cc00d9e7d08301010c2a10b51c460ad0e2
:102adc00712a05d104f08af901222070104610bd2c
:102aec000022104610bdfff7a3ff012220701046f4
:102afc0010bd00bff0b585b004460f460025114649
:102b0c0002a816468df807500ef0bafcdde9023229
:102b1c00ebb104eb6200d20784f850591dd49847ee
:102b2c0001228df8070084f8502948b1fef7feff0a
:102b3c003946034602222046fff7a8f905b0f0bd3e
:102b4c00334639462046fff7a1f905b0f0bdd10751
:102b5c0006d584f8503904eb62000268d358dee7de
:102b6c0032460df1070339462046fff7adff10b191
:102b7c009df80700e2e7394620460d230222fff7b5
:102b8c0085f9dbe7f0b583b004460f4600258030ad
:102b9c0001a91646019506f0dbfe38b90146b01eb8
:102bac0003280cd8dfe800f018220e0efef7beff4b
:102bbc003946034602222046fff768f901460846cb
:102bcc0003b0f0bd394633462046019afff750fb5f
:102bdc000146084603b0f0bd39462046019b002251
:102bec00fff754f90146084603b0f0bd39462046bc
:102bfc00019afff77fff0146084603b0f0bd00bf06
:102c0c0030b583b004460d46803001a906f0a0fe15
:102c1c0068b9019a29462046052a04d8dfe802f053
:102c2c000d130909090905230222fff72ff903b037
:102c3c0030bdfff7a7ff03b030bd00230222fff722
:102c4c0025f903b030bdfff79ffb03b030bd00bfcb
:102c5c0070b5012382b000f18006044680f850392b
:102c6c00002530468df8075006f08afd04233046c7
:102c7c0084f8985084f8c8300df1070106f0aefdc9
:102c8c0080bb9df807100b062cd5d4f85c29c1f33a
:102c9c0001130132c4f85c2984f85239abbb2368a8
:102cac009bb32046fff7acff28bb94f8d22894f8ce
:102cbc00d3389a421bd194f852299df807302244fc
:102ccc0003f00f0392f8d11831b18b4204d0d4f831
:102cdc0060190131c4f860190f2b14bf01330123a3
:102cec0082f8d138002384f8503902b070bd2046e8
:102cfc00fff7a6f9dfe79df80710fef717ff022292
:102d0c0003462046fff7c2f8cfe706222046fff71e
:102d1c002ff9002384f8503902b070bd70b5064607
:102d2c00b8300cf077f8b0b1451eedb201350b4c54
:102d3c0005eb4505503604eb850502e00c34ac423e
:102d4c0009d0237a002bf9d02168304607f03effda
:102d5c000028f3d070bd002070bd00bff8f000015a
:102d6c0010b50446006813f055f9c1b2206dbde8ea
:102d7c00104002f075bf00bf10b50446006815f096
:102d8c002dfbc1b2206dbde8104002f069bf00bf41
:102d9c0010b5044600680cf01df878b10a2814d858
:102dac004ff4fa6101fb00f101f55c2104f15000d4
:102dbc0001f53461bde8104007f0b2be04f15000db
:102dcc000c49bde8104007f0abbe19280ad80a49d7
:102ddc0041f2883303fb001104f15000bde81040b0
:102dec0007f09ebe04f150000021bde8104007f032
:102dfc0097be00bfcc3f0d00b0db230010b582b0f6
:102e0c0004460df10701006815f0e4fa30b9206da5
:102e1c009df8071002f024ff02b010bdfef786feed
:102e2c00014604f1500007f017ff02b010bd00bfbf
:102e3c0010b582b00446002380300df107018df8e7
:102e4c00073006f0dffc20b920689df9071015f05b
:102e5c00c3fa02b010bd00bf10b582b004460df12c
:102e6c000701006813f026fc30b9206d9df807109f
:102e7c0002f0f6fe02b010bdfef758fe014604f15a
:102e8c00500007f0e9fe02b010bd00bf10b582b0d3
:102e9c000446002380300df107018df8073006f051
:102eac00b1fc20b920689df9071014f071f902b03b
:102ebc0010bd00bf10b582b004460df107010068cb
:102ecc000ef002fd30b9206d9df8071002f0c8fe1f
:102edc0002b010bdfef72afe014604f1500007f0c7
:102eec00bbfe02b010bd00bf10b582b0044600237b
:102efc0080300df107018df8073006f083fc20b906
:102f0c0020689df907100ef0e1fc02b010bd00bf67
:102f1c0030b500f1800483b005460df10601204662
:102f2c0006f05cfc08b103b030bd20460df1070182
:102f3c0006f068fc0028f6d128689df907209df85a
:102f4c0006100ef0c5fc03b030bd00bf10b5044632
:102f5c0082b00df1060154f8500b0ef0bdfc30b9e7
:102f6c002046bdf8061007f0cbfd02b010bdfef7f1
:102f7c00ddfd0146204607f06ffe02b010bd00bf1c
:102f8c0010b582b004460df10601803006f04cfc01
:102f9c0020b92068bdf806100ef09cfc02b010bde4
:102fac00fee700bffee700bf10b504460df0d2fff0
:102fbc000138042896bf044b0021195c206dbde834
:102fcc00104002f04dbe00bf7c2d0101f0b5002277
:102fdc0083b000230546cde9002311f019fe6946a4
:102fec00044605f1800006f073fc70b9dde900675a
:102ffc0023460024a74208bf9e4208d3f21a67eb6f
:10300c000403c5f87029c5f8743903b0f0bd072066
:10301c0003b0f0bd00f51763d3e90023503007f07f
:10302c009dbd00bf10b5044600680ef027fc01469c
:10303c002046bde81040fff737bb00bf10b5044673
:10304c0000680ef01ffc01462046bde81040fff75b
:10305c002bbb00bf074b10b41c683cb113460a468f
:10306c00014620465df8044bfef750be0d205df87e
:08307c00044b70471cbe00204c
:020000040000fa
:020000040100f9
:10308400124b1840b0f5004f1ed00dd9b0f5404f8b
:103094001ad013d94cf24003984215d04cf6404351
:1030a400c01a18bf01207047b0f5046f0cd0b0f5fa
:1030b400446f09d0003018bf0120704748f2400324
:1030c400c01a18bf012070470020704740ccffff92
:1030d4002de9f04304468846217b05884088012970
:1030e40083b045ea000300f0ec80022901d143f4e7
:1030f4004043a27d012a00f0d680022a6ed14ff40b
:103104004066012a43ea060300f0d480022d18bf6a
:1031140043f02003a57f002d14bf08250025b0f53a
:10312400805f45ea030500f09280b0f5005f00f08f
:10313400ad80002800f08b8094f82130d8f800107e
:10314400de0740f192806e46304645f480757f225a
:103154000af0a2ff294630460af0e0ff05f4405386
:10316400b3f5005f04f10e0762d015f4406f40f030
:10317400d580394630460bf00df815f4404f02d097
:10318400690640f1bc80211d30460bf003f8bdf800
:103194000430a8f80430a77f1fbb0227aa052388a0
:1031a4000ed5032b03d094f821309b070bd40221b6
:1031b40030460bf017f800227f2114f017fc238807
:1031c400032b00f09680394630460bf00bf8bdf81f
:1031d4000430a8f8043003b0bde8f083002a99d085
:1031e40094e7e37f1f43394630460af05bff4ff014
:1031f400010907f0070309fa03f9002b00f099808d
:1032040007f01807102f00f09280182f6cd10d21b1
:1032140030460af0e7ff19f0880f40f0848019f077
:10322400440f40f0828019f0220fb6d00627b5e78c
:103234002846fff725ff002851d1394630460af0c9
:10324400a9ff05f44c43b3f54c4f96d19be731b13c
:103254002ab1228b638b9a4208bf45f0400594f84b
:103264002130df0730d4d8f800106e4630467f2274
:103274000af012ff294630460af050ffe8053ff5f0
:103284006daf012130460af0adff67e7eab10029ce
:103294003fd002293bd0228b638b9a427ff44caf00
:1032a40045f0400548e74ff40066012a43ea060367
:1032b4007ff42cafe7894ff6ff76b7427ff426af51
:1032c40028e743f4004314e7fee7637fe1b1002bf2
:1032d4007ff432af237f002b7ff42eafe0e7618bc6
:1032e40030460af01bffa8e7002f0cbf042105217c
:1032f4008ee794f8201030460af0d4fe63e7218b61
:1033040030460af00bff3ee7002bc9d114e7022a2e
:10331400c1d1637f002b7ff40fafc1e7618b3046cf
:103324000af0fcfe25e7122738e70a2736e70921c9
:103334006ee7fe2130460af055ff70e703681980f6
:10334400704700bf0268138819b143f0200313804b
:10335400704723f020039bb21380704702681388e0
:1033640019b143f010031380704723f010039bb28c
:10337400138070470268138819b143f400731380f3
:10338400704723f400739bb21380704703681b8853
:1033940013f4807f14bf02200320704708b503682c
:1033a4001a8802f44053b3f5005f0bd012f4406f57
:1033b40014bf0120002050b112f4807f14bf0220fa
:1033c400032008bd1046fff75bfe0028f4d1ff2060
:1033d40008bd00bf00f44052b2f5005f05d010f400
:1033e400406f14bf01200020704749e610b5044621
:1033f400fff7d4ffff2804d023681b5a0b8000205a
:1034040010bd062010bd00bf03681a88d20500d580
:10341400fee79878704700bf03681a88d20500d584
:10342400fee79970704700bf08b50368188810f468
:10343400807f00f4405314bf02220322b3f5005fdf
:1034440009d010f4406f14bf0120002008b10232eb
:10345400d2b2104608bdfff713fef7e710b50c46cd
:103464000146fff7e1ffff2819d009680b88c3f371
:103474008123022b0dd0032b02d00020207210bd1b
:103484000144012220460cf0a7ff022323720020ee
:1034940010bd0b5a238001232372002010bd062087
:1034a40010bd00bf08b50368188800f44053b3f595
:1034b400005f1cd010f4404f1ed041061cd410f401
:1034c400807f14bf02220322b3f5005f00f4406141
:1034d40015d0081c18bf012008b10232d2b28b12d9
:1034e400022b0fd0032b08d10832d2b205e000f42e
:1034f4004c42b2f54c4fddd1ff22104608bdfff718
:10350400bffde9e70232d2b2f7e700bf00f440534f
:10351400b3f5005f07d010f4404309d080f04000b9
:10352400c0f38010704700f44c43b3f54c4ff2d114
:103534000020704738b50c460546fff7b3ffff2857
:1035440004d02b681b5a2380002038bd062038bdc8
:1035540038b50368198811f4807f01f4405514bf0d
:1035640002220322b5f5005f01f440641fd0201c41
:1035740018bf012008b10232d2b2a312022b1ad012
:10358400032b01d10832d2b2b5f5005f08d011f493
:10359400404f03d04b065cbf0232d2b2104638bd56
:1035a40001f44c43b3f54c4ff1d1104638bd0846f5
:1035b400fff766fddee70232d2b2e5e738b505462d
:1035c4000c46fff7c5ff2968ff280b8805d09b0b25
:1035d400022b04d0032b08d023b1062038bd0b5a8c
:1035e400238001232372002038bd01440122204698
:1035f4000cf0f2fe02232372002038bd00f0180004
:10360400102804d018280cbf08200020704704207c
:10361400704700bf00f00700012303fa00f010f028
:10362400880f08d110f0440f07d110f0220f14bff7
:10363400042000207047102070470820704700bf06
:10364400037a012b07d0022b03d10320884080b2d8
:103654007047002070470220884080b2704700bf46
:1036640043070ed000f01800102808d0182804d002
:1036740000280cbf0520062070470e2070470a2042
:103684007047ff20704700bf38b500f4405580f400
:103694008072b5f5005f0446c2f3002200f4406175
:1036a40031d0081c18bf012048b98912022902f13f
:1036b400020009d003292bd041b1ff2038bd891263
:1036c400022902f10400f5d10230c0b2b5f5005f61
:1036d40004f440430dd0002bf0d062065cbf0230ee
:1036e400c0b29b13022b1bd0032b08d10830c0b2ed
:1036f40038bd04f44c42b2f54c4fecd1f1e7002b49
:1037040018bfff2038bdfff7bbfc0028d7d1cce79a
:103714000830b5f5005fc0b204f44043dbd1e8e7fc
:103724000230c0b238bd00bf8388032b03d90368bd
:103734001888fff7a9bfff20704700bf8388022bba
:1037440007d902681088020703d5032b01d0fff7bd
:103754009bbfff20704700bf38b50c460546fff7f6
:10376400edffff2804d02b681b5c2370002038bdbc
:10377400062038bd38b50c460546fff7dfffff28a5
:1037840006d02b681b5c03f007032370002038bdb0
:10379400062038bd38b50c460546fff7cfffff2895
:1037a40006d02b681b5c03f018032370002038bd7f
:1037b400062038bd38b50c460546fff7bfffff2885
:1037c40006d001302b68c0b21b582360002038bdde
:1037d400062038bd38b50d460446fff7afffff2875
:1037e40008d0431cdbb22268d550237f43f0010389
:1037f400237738bdfee700bf10b50446fff79efff0
:10380400ff2803d023680530184410bdfee700bf2d
:1038140038b50d460446fff791ffff2819d02468f8
:10382400235c03f01803102b0bd0182b00f10500b8
:10383400204429460cbf08220022bde8384014f079
:103844003db80530204429460422bde8384014f030
:1038540035b8fee738b50c460546fff76fffff287d
:1038640011d02b681a5c02f01802102a09d0182a09
:103874000cbf082200220344134400205b79237008
:1038840038bd0422f7e7062038bd00bf38b50c4622
:103894000546fff753ffff2812d02b681a5c02f08d
:1038a4001802102a07d0182a0cbf08220022034449
:1038b40013445c7138bd0422034413445c7138bd65
:1038c400fee700bf10b50446fff738ffff2815d008
:1038d40023681a5c012302f00702934013f0880f57
:1038e40008d113f0440f07d113f0220f14bf0620a0
:1038f400022010bd122010bd0a2010bd022010bdf0
:1039040070b58488032c1dd9066835882846fff7ce
:10391400bbfeff2815d0290713d5a04212da335c69
:103924005a070fd003f01803102b0fd0182b0bd00d
:10393400002b0cbf052306231844c0b28442b8bf31
:10394400ff2070bdff2070bd0e23f5e70a23f3e7c7
:10395400f8b50746fff7d4ff84b2ff2c1ed03d68ac
:103964002e88b3051cd53846fff7acffb9880ee0a6
:103974002a5d02f07f0213449cb2221891420ddbaf
:103984003b88c3f3c7137f2b0ad0914208d0a31cf2
:103994009bb21a188a4205eb0407e9ddff20f8bd43
:1039a40006f44053b3f5005f04d006f00706032e77
:1039b40008bf0134e0b2f8bd38b50546fff7c8ffcb
:1039c400ff280ad004462846fff77cffab88204432
:1039d4009842ccbf0620002038bd062038bd00bf69
:1039e40038b50c460546fff7b3ffff280cd02a680c
:1039f400138803f44053b3f5005f18bf00f1ff30a0
:103a0400135c2370002038bd062038bd03681b7882
:103a140003f00703032b01d00020704700b583b0e7
:103a24000df10701fff7dcff48b99df80700a0f18d
:103a34000400b0fa80f0400903b05df804fb0020f4
:103a440003b05df804fb00bf10b50446fff780ff28
:103a54002368ff2814bfc0180020c01ac0b210bdcc
:103a640070b50546fff774ff2e68ff2818bf341899
:103a7400284608bf0024fff725ffa31bdbb2c0f1d3
:103a84007f00c01a80b270bdf8b50646fff760ff2c
:103a94003768b588ff2818bf3c18304608bf002493
:103aa400fff710ffe31b281adbb2c01a80b2f8bd7f
:103ab400f8b505460e46fff74bff2f68ff2818bfe1
:103ac4003c18284608bf0024fff7fcfee31b3044e3
:103ad40050fa83f3ab80f8bd10b50446fff738ff06
:103ae400ff2816bf23680020c01810bd10b5044677
:103af400fff7e8fea3882268181a104410bd00bf1f
:103b040003681b889b0501d5fff7fabeff207047a9
:103b140070b506460d46fff7f3ff04463046fff73f
:103b240017ffff2c1bd0ff2819d0844217d8366802
:103b34003219a9b21388c3f3c7138b4205d10fe01e
:103b44001388c3f3c7138b420ad0137803f07f039f
:103b540002332344dcb2a04206eb0402f0d200227a
:103b6400104670bd2de9f04104460068e5680b1d60
:103b7400221d80468c46a64601f124061c6859681d
:103b84009f68d868d0601033b34214605160976066
:103b940002f11002f2d11b6813604046cef80c50bb
:103ba400bcf80420dcf80010bde8f04113f086be38
:103bb4002de9f0410446e2b0002308a803930e4621
:103bc40011f038fe25682b881b070bd52046fff71c
:103bd400b5fdff28034605d003a92046ed5cfff799
:103be400e9fd28b108a811f03ffe62b0bde8f081fc
:103bf40004af05f00702039930463b4606f0eefb9e
:103c0400a16808a806f010fa2046fff75bfe861e9e
:103c14002046fff79dfed4f80080ff2818bf08eb6c
:103c24000005204608bf0025fff72efff6b2a5ebde
:103c340008010d250246c9b200973346019508a82c
:103c440006f000fa2046fff783fe2168ff2814bf20
:103c540040180020421ad2b208a806f0c3fa20463f
:103c6400fff776feff281cbf25682d18204608bfe5
:103c74000025fff709ff00220346009229462a4641
:103c840008a806f0f5fa2046fff71cfea388216871
:103c9400181a014408a806f07dfb237f43f01003a3
:103ca400237708a811f0e0fd62b0bde8f08108a810
:103cb40011f0dafd14f0cefaf8b50e460968b379be
:103cc4000c8883711746054620220830002104f42d
:103cd400405414f005f977b944f002042b681c80b1
:103ce40033681a88d20500d5fee72a689b7893705a
:103cf4000523ab80f8bd44f01204efe72de9f04f43
:103d040091b00c4600920546222207a800219a464b
:103d14009df8687014f0e4f8002223688df81820e8
:103d24001b8803f44052b2f5005f68d1990666d54a
:103d340004a92046fff792fb0646002860d19df8af
:103d44001830002b5bd0012b53d00df12a012046f3
:103d5400fff734fc0646002852d19df83230002b80
:103d64004dd0d4f80080b8f800301a074cd48346fc
:103d7400814603f44052b2f5005f7ad013f4404f09
:103d840001d05a067fd513f4406f14bf01200020e0
:103d940048b12046fff702fbff2830d038f8001066
:103da4000da80cf055fba379ab712022002105f17d
:103db400080014f095f8414b0793294607a88df89d
:103dc4003a908df83bb0fff783f92a68009913887d
:103dd40000294ad043f0100313802a681388002f67
:103de4003fd043f40073138022681388d8051cd590
:103df400fee7bdf810204ff6ff739a42a5d10626c0
:103e0400304611b0bde8f08f20460193fff796fcd1
:103e1400ff28f4d018f8002002f00709b9f1050fc3
:103e2400edd102f0180b019ba3e72b681988c90593
:103e340000d5fee792789a7023681b8818072cd463
:103e4400a7b3baf1000f30d02846fff759fe2b680c
:103e54003a461844514613f031fdab881f44af80f5
:103e6400cee723f400739bb2bde723f010039bb2ab
:103e7400b2e703f44c42b2f54c4f0ad013f4404f6e
:103e840007d0590605d42046fff70cfbff2885d13f
:103e9400b5e71846fff7f4f87ae720460df10f016d
:103ea400fff7d8fc20b10646aae7fee73e46a7e79f
:103eb4009df80f102846fff7e9fcc1e70200002037
:043ec4000020704723
:020000040000fa
:020000040100f9
:103ec80008b5044b186818b1804780f00100c0b2eb
:103ed80008bd00bf48d7002009b91046704780b117
:103ee800037883ea122383ea131343ea022282ea5d
:103ef800033282ea431292b200b10130013989b229
:103f0800eae7ff23ede72de9f04f85b081460e9ee5
:103f18008a46904606b11e4443449cb247465546dd
:103f2800a74203d1012005b0bde8f08f95b36a46da
:103f380010232946484607f0cffdbdf804209442d7
:103f480008d9bdf8063013449bb29f4202d29c4266
:103f580003d91f46bdf80a50e8e79742a4eb0201cf
:103f680028bfe31b89b234bf0b469bb2a4eb030402
:103f780032bfbdf80ab04746d346a4b246b11035a1
:103f88002944f61ac91a324689b2484607f0a4fdf0
:103f98005d46c5e72846c6e72de9f74fd4889688d9
:103fa800dff8588082468b4644f307254ff6ff77a3
:103fb800002d03da384603b0bde8f08f1ad0a4f517
:103fc80080741ffa84f94ff48074cdf8008023467a
:103fd800324659465046fff796ff38b13a462146d1
:103fe8004046fff779ff2644b6b20746013d6db259
:103ff8004c46dde7002cddd0a146e6e74cd7002093
:1040080010b5094c94f8040107f004fe4ff400526f
:10401800002194f8040107f027fe18b14ff48073cb
:10402800a4f8063110bd00bf48d700202de9f041a3
:10403800094c05460e46174613460a46014694f8ab
:10404800040107f07ffd3b463246294694f80401f7
:10405800bde8f04107f056be48d7002003292cd808
:10406800dfe801f002091b23184bb3f806211044be
:10407800a3f806017047154ab2f80631184480b211
:10408800c11c4ff6fc730b40984203d90430a2f8c8
:1040980006017047a2f8063170470c4ab2f806319b
:1040a8000f33184420f00f00f1e7084ab2f8063140
:1040b8003f33184420f03f00e9e74ff0200383f333
:1040c8001188bff36f8fbff34f8ffee748d70020eb
:1040d8004ff0200383f31188bff36f8fbff34f8f27
:1040e800fee770b50c4a92f808410023d9b28c4219
:1040f80001d800200be05d1c9b00d118b1f80961c4
:10410800864207d1b1f80b2112b10448184470bd9a
:10411800fff7deff2b46e9e748d7002051d80020fb
:1041280008b5fff7deff00b1408808bd10b50446aa
:10413800fff7d7ff40b14ff0200383f31188bff397
:104148006f8fbff34f8ffee7094b93f80801020604
:1041580001d5fff7bdff421c83f8082103eb80025d
:1041680003f20913a2f8094103eb800010bd00bf58
:1041780048d7002008b5fff7b4ff08b9fff7a8ff34
:10418800064a92f80831013bdbb282f8083102ebab
:104198008303d3f80931036008bd00bf48d7002066
:1041a8002de9f041244cb4f80a33b4f80c63034405
:1041b8009bb204f20e37ff2b0546a4f80a3307eb2f
:1041c800060004f104080ad82a464146354413f08b
:1041d80073fb0126a4f80c533046bde8f081c6f500
:1041e8008072414613f068fb4ff480723946b4f888
:1041f8000601fff71bff06460028edd000214ff40b
:104208008070fff72bffb4f80a53b4f80c13a5f528
:1042180080750023adb2a4f80c33a4f80a53002d1e
:10422800dad0c1f580712a4618fa81f1384613f0c0
:1042380043fba4f80c53cfe748d700207fb545f2dd
:104248004143adf806300d4bcde902300c4bc0436d
:10425800b3f80e3404904ff6ff7210210df10600ea
:10426800adf81430fff738fe1222adf8040001a9aa
:104278000020fff7dbfe07b05df804fb534e7632f3
:1042880048d700202de9f04f724c94f804710025ae
:104298008fb0122309aa29463846a4f81054a4f866
:1042a8001254a4f80c53a4f80a5307f015fc0b9bfe
:1042b800039394f804310133dbb2012b94bf84f8e3
:1042c800043184f8045194f80431bb4208d14ff00a
:1042d800200383f31188bff36f8fbff34f8ffee77f
:1042e800fff78efe0028e4d04ff0000adff8708157
:1042f80080e004eb8a091023b9f80bb105aa5946e6
:10430800384607f0e9fb0026bdf81c50adf81a50f6
:1043180005aa59463846adf81860adf81e60adf8e4
:104328002060fff739fe4ff6ff72adf814000e213a
:1043380005a8fff7d1fdf022adf82200ff2146487d
:1043480013f0ccfd05ab03cb1035c8f80000c8f856
:104358000410b4f80c2303cbb4f80631c8f80800ed
:10436800adb21344b5f5807fc8f80c10a9f80b312d
:1043780019d8394b00933246bdf81c305946384697
:10438800fff7c1fd50b1b4f80631b4f80c2313445b
:10439800a9f80b312846fff703ff38bb0024204655
:1043a8000fb0bde8f08f1023b5f5807f2a4628bfef
:1043b8004ff48072a2eb03091ffa89f94344029271
:1043c800009332464b4659463846fff79cfd002875
:1043d800e4d00298fff7e4fe0028dfd0029bed1a34
:1043e8004e44adb2b6b20023002dddd10af101036f
:1043f8005ffa83fa94f8083153453ff67aafb4f878
:104408000a23fab9b4f80a030021fff727feb4f823
:104418000631a4f80e34039b581efff70fff04461d
:104428000028bbd002210020fff718fe1222ff212e
:1044380009a813f053fd122309aa0021384607f0f2
:1044480081fbace70549b4f80601fff7effd00284a
:10445800d8d1a3e748d700205cd7002056da00203f
:104468004cd7002008b50a4bb3f80631c3f5005302
:104478009bb283420bd2fff705ff40b94ff02003f0
:1044880083f31188bff36f8fbff34f8ffee708bd2b
:1044980048d700202de9f84f344e0446351d89468b
:1044a8004ff48072ff21284613f018fde1884ff67b
:1044b800ff724846fff710fd4ff6ff7220800e216d
:1044c8002046fff709fd2346e08103cb7060696051
:1044d80003cba860e960e28802f11007bfb2b9f126
:1044e800000f07d0b7f5807f17d8494606f11400aa
:1044f80013f0e2f9e2881e49b6f80601f02a28bf4f
:10450800f022103292b2fff791fd8046e088103019
:10451800022180b2fff7a2fd25e04ff0000b10202a
:10452800b7f5807f3c4628bf4ff48074a4eb000a9f
:10453800524609eb0b01284413f0bef922460c49f8
:10454800b6f80601fff772fd804660b120460221e9
:104558003f1bfff783fdbfb20beb0a031ffa83fb78
:104568000020002fdcd14046bde8f88f48d7002056
:104578004cd700202de9f041674c00258eb084f817
:1045880008514ff0ff38ff27122304aa00212846bc
:1045980007f0a2fadde906637340013326d19df8de
:1045a8001230412b22d19df81330542b1ed19df887
:1045b8001430532b1ad19df815304e2b16d19df877
:1045c8001630762b12d19df81730322b0ed14ff6bc
:1045d800ff7210210df11200fff77efcbdf81030bc
:1045e800834203d146453cbfb0462f46e5b1ff2f75
:1045f8002cd1002384f804314ff6ff766ff00105c3
:10460800fff7fefc90b994f804310133dbb2012bbb
:1046180084f80431f4d94ff0200383f31188bff3f1
:104628006f8fbff34f8ffee70125ade72846a4f84b
:104638000e64fff703fe0028e5d0002384f8083154
:10464800012384f814340eb0bde8f0814ff4807370
:10465800a4f806313846122309aa002184f8047107
:1046680007f03afa4ff6ff77b4f80631b3f5005f72
:10467800e6d2bdf83420ba4201d09a4217d80221b6
:104688000020fff7ebfc022510236a46b4f8061158
:1046980094f8040107f020fa6a46102312f8011b67
:1046a800ff291ed1013b9bb2002bf7d1c8e700259b
:1046b800eae729461020fff7d1fcd5e7bdf80260ec
:1046c8003046fff70efd10b93046fff72ffdb4f85e
:1046d80006314380bdf80830bbb93046fff74afdc4
:1046e80013e03a460e216846fff7f6fbbdf80e6068
:1046f8008642ded16a46b4f8061194f80401fff741
:104708004bfcbdf800308342d8d0bdf8060010300d
:10471800294680b2cfe700bf48d70020034b93f863
:1047280014340bb9fff726bf704700bf48d70020e5
:104738002de9ff478a4616469846054630b12bb103
:10474800fff7befb044650b1052045e04ff02003bb
:1047580083f31188bff36f8fbff34f8ffee706f126
:10476800100080b2fff77efe2846fff7bafc074626
:10477800a8b3b0f802901d4d10236a46494695f833
:10478800040107f0a9f9bdf808300aeb06029a42bd
:1047980027d8b34218bfbdf80c40adf804a01cbf21
:1047a8000134a4b241466846adf80c40adf8066045
:1047b800adf80a90b5f80641fff76cfe98b1bdf860
:1047c8000c307c80642b4ff0000005d9bdf8023016
:1047d800a5f81034a5f8120404b0bde8f08703204a
:1047e800fae70420f8e70120f6e700bf48d70020e1
:1047f80073b50c4615461e46c0b1bbb1fff790fc19
:1048080080b16319b3f5803f09d201460c48009680
:104818002b46224690f80401fff775fb20b90420c7
:1048280002b070bd0320fbe70020f9e74ff020033a
:1048380083f31188bff36f8fbff34f8ffee700bf7d
:1048480048d700201fb540b94ff0200383f31188e3
:10485800bff36f8fbff34f8ffee7fff761fc48b1df
:1048680001460648102390f804016a4607f034f917
:10487800bdf8080005b05df804fb00bf48d700206c
:104888002de9f04f431e14469bb24ff6fd7293423a
:104898008bb080460e461dd8b1f5006f1ad8fff7c9
:1048a8003ffc00bbfff70cfb054648bb06f11000b8
:1048b80080b2fff7d7fd8d4b93f90821002a80f2cb
:1048c800f7804ff0200383f31188bff36f8fbff396
:1048d8004f8ffee74ff0200383f31188bff36f8fec
:1048e800bff34f8ffee74046fff7acff86420fd07d
:1048f8007e4da5f81084a5f81264fff7e1fa08b117
:1049080005200ee0b5f8120470b9b5f810347bb97b
:10491800002c00f0e6802346324600214046fff78f
:1049280067ff0bb0bde8f08f103080b2fff79afd3b
:10493800b5f81004fff7d5fb81460028e8d0b0f899
:1049480002b095f80401102306aa594607f0c4f8e6
:10495800b5f81234ebb9bdf82000103080b2fff77b
:1049680081fdb5f81004fff7bcfb814640b94ff054
:10497800200383f31188bff36f8fbff34f8ffee7d8
:10498800b0f802b095f80401102306aa594607f0ba
:10499800a3f8b5f81224b5f806310493bdf8203011
:1049a80022b19342adf8202028bf13460022bdf85b
:1049b8002010adf81c20adf81e10adf82220adf87f
:1049c80024200df1180cbce80300dff824a168606e
:1049d80003f11007caf80410bce80300bfb2b7f52a
:1049e800807fcaf80800caf80c1030d80af1100104
:1049f800009195f804015946fff785fa002872d00e
:104a080006ab03cbbdf81e206860caf8041003cbc0
:104a18001032caf80800caf80c1092b25146b5f81c
:104a28000601fff703fb00283ff472afbdf81e0034
:104a38001030022180b2fff711fb2c4b0022a3f8a3
:104a48001024a3f81224049ba9f8023060e7154645
:104a58001023cdf814a0b7f5807fba4628bf4ff4cd
:104a6800807aaaeb030292b20392059a1f48134474
:104a780000932a46039b90f804015946fff743fa2e
:104a880088b31b495246b1f80201fff7cffa002854
:104a98003ff43eaf02215046fff7e0fa039ba7eb35
:104aa8000a072b44bfb29db20023002fd3d1c4e71d
:104ab800214606a8b3f80671adf81a80adf81c5067
:104ac800adf81e60adf82060adf82250adf8245066
:104ad800fff7e0fc38b14046fff728fb478002208b
:104ae8001fe720461de701201be700bf48d700202d
:104af8004cd70020f0b5074685b040b94ff02003e9
:104b080083f31188bff36f8fbff34f8ffee7fff773
:104b180007fb00283fd0fff7d3f9044600283cd113
:104b28001020fff79ffc4ff6ff720e216846adf884
:104b38000020adf80270cde90144adf80c40fff754
:104b4800cbf96b46adf80e0003cb154d6860a96034
:104b580003cb2e1de860296110223146b5f8060105
:104b6800fff764fa68b91022b5f8061195f8040140
:104b780007f07af818b902211020fff76ffa012020
:104b880007e002211020fff769fa3846fff7f2fa2a
:104b9800204605b0f0bd0320fbe70520f9e700bf7c
:104ba80048d70020f8b50446fff78af9054668bbe0
:104bb80064b107f02ff8012007f02cf84ff40072c9
:104bc8002946134813f08af9002020e0114d95f882
:104bd8000871e3b29f420cd8fff754fb0028f3d1c9
:104be8004ff0200383f31188bff36f8fbff34f8f0c
:104bf800fee705eb8403b3f80961304602f03cff99
:104c080010b93046fff7b6fa0134e2e70520f8bddf
:104c180051d8002048d70020014b1860704700bfca
:104c280048d7002008b5fff77bfa003018bf0120ed
:104c380008bd08b5fff726fb40b94ff0200383f302
:104c48001188bff36f8fbff34f8ffee708bd00bf1a
:020000040000fa
:020000040100f9
:104c580038b505461c300c4611f0c4fcab6d9c42bf
:104c680024bf0134ac6538bd01207047024b586938
:104c7800b0fa80f04009704798e1002038b5438abf
:104c880003f0fe0343f4fe43002543f001036ff0f5
:104c9800011204464382c0f8062045800571c0f819
:104ca8000a50c0f80e50456180f85d5028300bf06e
:104cb800dbfb04f138000bf0d7fb04f148000bf0e4
:104cc800d3fba56584f85c5004f16000bde838406a
:104cd80007f0b0bb70b5144d044628460e4613f0d5
:104ce80079fb2080284613f0f5fa3146a06104f1db
:104cf8001c0011f05ffc224600230c4da362c4e99e
:104d08000833e36223636363a363e3632364636435
:104d1800a364e3642365636542f8605f2046a26686
:104d2800fff7acff204670bd98e100202d810101fe
:104d3800008840f07000704701480ff017bf00bfaf
:104d480098e10020c18001480bf0dcbea5e10020fd
:104d580002898a4203d0018101480cf08fbd704757
:104d680098e100200a684b68c0f80e30c0f80a20a5
:104d780001480bf0b7be00bfa5e10020837c028884
:104d880061f300038374d30500d4704701480cf025
:104d9800a9bd00bf98e1002083780bb100207047bf
:104da80010b50446074811f039fc50b9054811f010
:104db80015f930b9a378012b01d00123a370002085
:104dc80010bdfee798e1002010b50446603007f0fa
:104dd80031fb074811f002f900b110bd044811f089
:104de80037fc0028f9d1a378002bf6d0a07010bdad
:104df80098e1002010b5837cda07044602d40388c2
:104e0800db0504d4054811f0e9f800b110bda3781a
:104e1800012b01d00123a370002010bd98e10020d0
:104e280010b50446044811f02dfc20b9a378022bd4
:104e38001cbf0223a37010bd98e10020036a70b55f
:104e480004460d461646dbb191b11ab9426a31469d
:104e58002846984723889b0602d4fff705ff38b9f0
:104e6800eb7d9a0704d52a7d94f85c309a4211d0dc
:104e78003246294604f11c00bde8704011f09cbb85
:104e88000388990603d4fff7effe0028f0d1002d20
:104e9800e6d1ede729692046fff7dafee8e700bf2b
:104ea80083691a681288110702d51a7fd20600d5bd
:104eb800704730b583b004460df107011846fef778
:104ec80067fcc8b9a069037fd90717d523889a0654
:104ed80012d4fff7c9fe78b19df80730082b0bd123
:104ee800a36904f138029a60a069037fdb070ad539
:104ef80004f10a01fef75afe03b030bd94f85c10c5
:104f0800fef7c2fce2e7a56d2946fef761fc2046e4
:104f18002946fff79dfea069eae700bf38b50123df
:104f2800054603fa01f1002009f018fbab7c00eb01
:104f38008000db074fea80140ed5ab6908489979e1
:104f480011f0a0fb0749a1fb043105f160008909b4
:104f5800bde8384007f0d0ba014811f03ff8f1e752
:104f680098e10020d34d6210837803f0fb03032bf4
:104f780000d0704710b503888169db06044608d560
:104f88000423a3700f480bf0d3fd0d2808d030b9c7
:104f980010bd89790c4811f075fb70b1fee7fee78a
:104fa800a2695369002bfad000235361a26905480e
:104fb8001361a1690bf0bcfde9e7a378a169042b93
:104fc800e0d0dde7a5e1002098e1002038b583694d
:104fd800827859690446c1b9032a1cbf032282702a
:104fe8001b7fc1785b071ad5038803f00c03b3b99c
:104ff800fff73cfe98b10331c9b20529204628bf06
:105008000521bde83840fff789bf072a1cbf0722e2
:1050180082700288520602d4fff726fe20b9204685
:10502800bde83840fff7a0bf0b481d6913f0daf957
:10503800a3695b692b44a3f5a473c21a002aeedaac
:1050480006491b1aa1fb033104f160008909bde878
:10505800384007f051ba00bf98e10020d34d6210e4
:1050680038b58378052b0cd004460025fff718ffc8
:10507800204684f85d50a4f80350fff7a7ff2846a0
:1050880038bd0d2038bd00bf38b5036a04460d464b
:105098001bb1426a0121284698472388da0706d4bb
:1050a800fff7e4fd18b12b681b889b0600d438bdb8
:1050b80004f160001021bde8384007f01dba00bfb8
:1050c80070b503880c46990682b0054602d4fff7ee
:1050d800cbfd30b923681b881a0702d5237fdb076d
:1050e80001d402b070bd154b0df1020120465e6976
:1050f800fef74efb10b1002ef3d1fee79df802300b
:10510800082beed101a92046fef752fb10b1002e64
:10511800e7d1fee720460df10301fef799fb10b138
:10512800002eded1fee79df8032095f85c309a4208
:10513800d7d128460199fff78bfdd2e798e10020e7
:105148002de9f041044684b01f4660300d46904674
:1051580007f070f90f2f00f29680dfe807f06694e9
:105168009494949494949494942a949466082b7f99
:10517800590700f1898029462046fff7a1ffa36956
:105188001b7fc3f3800313f0ff0f00f09b8022887e
:1051980002f00c033bb9fff769fd20b1e378297ee3
:1051a800994200f29c8004f11c0600212379e170e9
:1051b80009e029462046fff783ff0023e370228891
:1051c800237904f11c0612f004026fd10393fff750
:1051d8004dfd039b00287bd0697e994267d9012247
:1051e800009230463a46294611f0eef92379013308
:1051f80023712b7f0e2f43f002032b7771d1a378f5
:1052080094f85d10062b1cbf0623a3702046fff7f9
:1052180085fe94f85d300133dbb2052b28bf0523ea
:1052280084f85d3004b0bde8f0812b7f5a0704f1a3
:105238001c0604d5aa790121304611f0c3f9294684
:105248002046fff73dff0023e3702379002f3dd16f
:1052580000973a462946304611f0b6f9a378022b52
:105268001cbf0223a370a97eab798b4202d0a37c1a
:10527800d80723d43b4642462946304604b0bde809
:10528800f04111f0a3b9fee704f11c063046aa79f3
:10529800002111f097f929462046fff711ffa3696d
:1052a8001b7f5b073ff573af22887ee700220092e1
:1052b80029463a46304611f087f9cfe70c4811f0f5
:1052c800e1f9d7e7e370237904f11c0622887ae72d
:1052d80000903a462946304611f076f9bee7013388
:1052e800e370204604b0bde8f041fff76fbe00bf91
:1052f80098e10020014810f08fbe00bf98e100201f
:10530800014813f06db800bf98e1002070b58478ab
:10531800072c04d80123a34013f0f90f1ed10388ea
:105328009b07164604460bd4fff7a0fc10b90c25c2
:10533800284670bd144811f0a5f9054688b1fee766
:10534800114810f0b9faa378052b04d005230025dd
:10535800a370284670bd0025284670bd0d25284637
:1053680070bda378052b1cbf0523a3707f23e374ae
:105378000ff050fc30446061002104f1600007f038
:10538800bbf8284670bd00bf98e1002003889b0742
:1053980000d5fee710b50446134810f03dfe7f28ff
:1053a80005d094f913307f2b14d0834212db0ff011
:1053b80031fc6369c31a002b0edba37894f9131030
:1053c800022b1cbf0223a37004f11c00bde810408f
:1053d80011f002b9e074eae7616e04f1600001229d
:1053e800bde8104007f07ab898e100208378022bd6
:1053f8001cbf022383701c3011f0eeb88378033b86
:10540800042b19d8dfe803f0030716050300fff79c
:10541800abbdfff7dbbd10b5836904469979074832
:1054280011f030f9a16920460e230022bde8104092
:10543800fff786befff7aabf704700bf98e10020bc
:1054480003889b0600d40fe40020704783691b7f04
:105458005b0704d5038803f00c0303b906e40020b6
:10546800704700bf0388db0701d4fff7ffbb0020ac
:10547800704700bf03885b0701d4fff7f7bb002024
:10548800704700bf03889b0701d4fff7efbb0020dc
:10549800704700bf03885b0601d4fff7e5bb002017
:1054a800704700bf837c13f0010304d1038883f4a1
:1054b8008073c3f300231846704700bf83788b427c
:1054c80018bf8170704700bf2de9f041082984b0ea
:1054d8000e46054694461c46dde90a7803d0102995
:1054e80014d099b1fee780f85c200fcb05f1280ea7
:1054f8008ee80f0097e80f0005f1380e8ee80f00d0
:1055080098e80f0005f1480e8ee80f0028888006fd
:1055180023466246314602d4fff7a6fb30b9002085
:105528000290cde90078034810f0f8fe04b0bde819
:10553800f08100bf98e1002090f85c30934200d0e1
:105548007047fff785bb00bf08b5038803f0200349
:105558005ab1826d8a4212d313b9fff785fb80b91d
:105568000848bde8084011f027be816513b9fff768
:105578007bfb30b90348bde8084012f0e5bd816502
:10558800eae708bd98e10020034ba3fb0131603036
:10559800890906f0b1bf00bfd34d6210034ba3fbce
:1055a80002326030920906f099bf00bfd34d6210f5
:0c55b800014b53f820007047f073010114
:020000040000fa
:020000040100f9
:1055c400c36b426a9b1a18bf012380f834307047ba
:1055d40070b40025c0e90355c0e905558c184b1e6d
:1055e40044600160028101621c461444a142fcd85b
:1055f4004462094c81630025c0e90a11c0e90c54d6
:105604000226067713449942fcd8c0e90f31c0e959
:10561400111170bc704700bf0000ffff01680162f8
:1056240070b44b1e04891a4622449142fcd842624b
:10563400084a81630025c0e90a11c0e90c52022618
:10564400067723449942fcd8c0e90f31c0e911110f
:1056540070bc70470000ffffc0e90312704700bf31
:10566400c0e90512704700bf5bb1012b07d1036885
:10567400891a994203d2028911449942fcd30846fb
:10568400704710b444681144a14204d303895b42b7
:105694001944a142fcd208465df8044b704700bf90
:1056a40043b1012b04d18a4213d8891a88b27047b6
:1056b400002070478a4202d3511a88b2704710b44e
:1056c400d0e90043581a111b014488b25df8044b19
:1056d4007047d0e900039a1a081a104480b2704740
:1056e40010b5144612120a700122fff7bdff0470b0
:1056f40010bd00bf10b5134601220c78fff7b4ffac
:1057040000782402204480b210bd00bf2de9f84384
:10571400077fd0e90a6357b1012f05d19e4234d3e4
:10572400f51aadb2012d0cd8c662bde8f8839e42cd
:1057340029d9d0e90025ad1b9b1a1d44adb2012d1a
:10574400f2d988463b46012231460446fff78cffd6
:1057540096f80090ab1e0578c3f30d034fea0929b0
:10576400a94448ea030545ea0905adb22a123b46b5
:105774003270314601222046fff776ff0570e36a56
:10578400a362bde8f8839d1bd8e7d0e90052d31a81
:10579400751b1d44d2e700bf007f401ab0fa80f0a9
:1057a40040097047f8b5077f022f36d01446866a41
:1057b4004a68b2421dd105460968c06a27b3012f61
:1057c40019d0002002461a44824212dc7bb15e1ecc
:1057d400b6b20136264400bf14f8013b0b702b7f90
:1057e40001222846fff740ffb4420146f4d10020cd
:1057f400f8bd0720f8bd864225d3301a8e4280b208
:105804001ad3721a92b2dee786420fd8801b8e42f8
:1058140080b204d88a1b92b2d5e70d20f8bdd5e931
:105824000027be1b8a1a324492b2cce7d5e9007233
:10583400921bc01b1044eae7d5e900277f1ab21a6d
:105844003a4492b2bfe7d5e900273f1ab01a384468
:10585400d4e700bf037f022b1ad070b4826a4c686d
:10586400944202d0002070bc70470c68c16a8bb1ae
:10587400012bf7d18a4227d3531aa2429bb21dd3dc
:10588400121b92b29342edd9a14231d8601a12e0b0
:10589400002070478a4223d88b1aa2429bb219d89f
:1058a400a21a92b29342ddd9a1421fd2d0e90002da
:1058b400141b081a204480b270bc7047d0e900560b
:1058c400361b521b3244dce7d0e900535e1a531beb
:1058d4003344d2e7d0e90056b61a621b3244e0e7fb
:1058e400d0e900539e1a4b1b3344d6e7081be2e76a
:1058f400d0e90002511a201a0844dce7027f022a88
:1059040022d030b4836a4c689c4212d10c68c16abc
:1059140092b1012a0dd18b422ad3591aa34289b2da
:1059240020d31b1b9bb28b4203d2c462002030bc29
:105934007047072030bc70478b420dd8c91aa34268
:1059440089b203d8e31aede70d207047d0e90025aa
:10595400ed1aa31a2b44e5e7d0e90052d21a491be9
:105964001144ece7d0e900252d1b9b1a2b44d9e701
:10597400d0e900256d1a991a2944cfe738b5037f79
:10598400022b13d004460021fff7c0fe227fa06a39
:1059940004eb8203196a21631862e56815b1234692
:1059a4002069a84702232377002038bd0d2038bd85
:1059b400006b704700eb8101886b0b6ac01a18bf3b
:1059c40001207047c26b436a9a4201d0002070479d
:1059d400836b006a181ab0fa80f04009704700bf60
:1059e40090f8353003b9ebe5704700bf2de9f84373
:1059f40090f83470456c00eb87090646d9f820808e
:105a040021e0fff731fe2c78027824021444a4b27a
:105a1400c4f30d02240429463b46304602f1020237
:105a240003d5d9f83840ac4215d1fff71dfe2946fd
:105a3400044670643b4602223046fff715fe84425a
:105a4400b0640ed12546a84529463b464ff00102d5
:105a540030463564d5d1032386f835301720bde8a8
:105a6400f883012386f835300020bde8f88300bfb1
:105a740038b5816c90f834300d7804460122fff774
:105a8400f3fd636ca064984201d0284638bd2046db
:105a9400fff7acff284638bd08b5c26b436a9a428b
:105aa40011d090f8353001460bb9fff789fd91f814
:105ab40034300e33084651f82330c1e91033bde8c1
:105ac4000840fff793bf826b036a9a42e9d117201b
:105ad40008bd00bf90f8350003281abfb0fa80f063
:105ae40040090120704700bf90f83530012b01d0e8
:105af40000207047bce700bff8b5c1b190f835305d
:105b0400032b14d09bb10f460646551e0024012bcf
:105b140010d000200134a4b2a74205f8010f07d029
:105b240096f83530032b03d0002bf0d100e000248d
:105b34002046f8bd3046fff79bffebe7c26b416a96
:105b4400836b914212d0016a994200d07047037f5f
:105b5400002bfbd04168531c8b4204d30289524270
:105b640013448b42fcd2036283637047017f012993
:105b74000ad00268013b934203d201890b44934249
:105b8400fcd34362c3637047016a9942e2d0704711
:105b9400037f022b06d00833022250f82330027709
:105ba400c0e90a33fff7cabff8b5057fc66a2b46ba
:105bb4000f46012231460446fff756fdb5fa85f338
:105bc4005b09083354f82330834204d0024637700b
:105bd4000020e262f8bd022d06d00835022254f8f6
:105be40025302277c4e90a332046fff7a7ff0320b4
