:0200000400807A
:100000000300000001015048434D0000000074004F
:10001000000000010002800000028000004000009B
:1000200000000000000000000000000000000000D0
:1000300000000000000000000000000000000000C0
:1000400000000000000000000000000000000000B0
:1000500000000000000000000000000000000000A0
:100060000000000000000000000000000000000090
:100070000000000000000000000000000000000080
:100080000000000000000000000000000000000070
:100090000000000000000000000000000000000060
:1000A0000000000000000000000000000000000050
:1000B0000000000000000000000000000000000040
:1000C0000000000000000000000000000000000030
:1000D0000000000000000000000000000000000020
:1000E0000000000000000000000000000000000010
:1000F0000000000000000000000000000000000000
:1001000000000000000000000000000000000000EF
:1001100000000000000000000000000000000000DF
:1001200000000000000000000000000000000000CF
:1001300000000000000000000000000000000000BF
:1001400000000000000000000000000000000000AF
:10015000000000000000000000000000000000009F
:10016000000000000000000000000000000000008F
:10017000000000000000000000000000000000007F
:10018000000000000000000000000000000000006F
:10019000000000000000000000000000000000005F
:1001A000000000000000000000000000000000004F
:1001B000000000000000000000000000000000003F
:1001C000000000000000000000000000000000002F
:1001D000000000000000000000000000000000001F
:1001E000000000000000000000000000000000000F
:1001F00000000000000000000000000000000000FF
:10020000F0FF002039238000533280002733800024
:10021000693580006B3580006D358000000000007E
:100220000000000000000000000000006F358000AA
:100230009F348000000000006F3580006F35800023
:100240006F3580006F3580006F3580005D33800032
:100250006F3580006F3580006F3580006F3580000E
:100260006F3580006F3580006F3580006F358000FE
:100270002D1380006F3580006F3580006F35800052
:100280006F3580006F3580006F3580006F358000DE
:100290006F3580006F3580006F3580006F358000CE
:1002A0006F3580006F3580006F3580006F358000BE
:1002B0006F3580006F3580006F3580006F358000AE
:1002C0006F3580006F3580006F3580006F3580009E
:1002D0006F3580006F3580006F3580006F3580008E
:1002E0006F358000000000006F358000F0FF0020B7
:1002F0003923800053328000273380006935800025
:100300006B3580006D3580000000000000000000AB
:100310000000000000000000713580009F34800064
:100320000000000071358000713580006F3580005D
:100330006F3580006F358000713580006F3580002B
:100340006F3580006F3580006F3580006F3580001D
:100350006F3580006F3580006F3580006F3580000D
:100360006F3580006F3580006F3580006F358000FD
:100370006F3580006F3580006F3580006F358000ED
:100380006F3580006F3580006F3580006F358000DD
:100390006F3580006F3580006F3580006F358000CD
:1003A0006F3580006F3580006F3580006F358000BD
:1003B0006F3580006F3580006F3580006F358000AD
:1003C0006F3580006F3580006F3580006F3580009D
:1003D000000000006F358000F8B500BFF8BC08BC15
:1003E0009E467047D92E8000F8B500BFF8BC08BC07
:1003F0009E467047B52E80002DE9F04FADF2547D3A
:1004000006460C4690461F4600238DF84F378DF860
:10041000A73402F075FCA37A94F820209A4240F0A9
:10042000BD810DF1570525F03F058146E17A94F82D
:100430002120914240F0B881002B00F0B781002FBD
:1004400040F0818000238DF8A734FF238DF83037EA
:1004500055238DF81C37AA238DF84B37E37AA27AFF
:100460000DF21C710DF24F7002F022FCE37AA27AB9
:1004700015210DF2A74002F0FBFCE37AA27AA3213A
:100480000DF2A74002F0F4FCB94B99450CD003F1F2
:100490009D4303F5181303F50663994504D09DF8B1
:1004A000A734B72B00F08481A37A9DF84F270DF273
:1004B0001C710DF2EC6001F07BF90346002800F09E
:1004C0006E810DF2EC630DF21C722146284601F09C
:1004D000D5FD0346002800F0628140220021284615
:1004E00003F013F84FF4117200210DF5956003F03D
:1004F0000CF8A37A022B0CBF4FF2BC034FF2C003DF
:100500001B684FF411710DF595609847002840F075
:100510005181B8F1000F00F08480E369C3F34F2BE1
:10052000C3F308031BB10BF101031FFA83FBBBF1FB
:10053000000F00F0EE8006F500764FF000080BF19A
:10054000FF3A059521E01022DDF8781725A802F082
:100550008BFF77E7E569C5F308030BB11D4619E08A
:100560004FF4007516E033462A4629A981480068F1
:1005700002F0FCFC034648BB11E108F1010806F556
:1005800000761FFA88F39B4549D9C146C245E1D0A0
:100590004FF40075002FE6D033462A46A9A97548C6
:1005A000006802F0E3FC25AB2A4629A9A9A801F0BE
:1005B0004FFF0346002800F0F28010220DF5EA6399
:1005C0005919A1F2BC4125A802F04EFF4FF2900349
:1005D0001B682A4629A90DF595609847002840F028
:1005E000EB80CA45C9DD4FF298031B680DF5956095
:1005F0009847002840F0E2804FF2A0031B680DF5F9
:1006000095609847002840F0DB804FF294031B6808
:100610000DF5956098470028AFD00023BFE0059DF9
:1006200077E0002F6AD0E369C3F34F2BC3F30803CD
:100630001BB10BF101031FFA83FBBBF1000F68D064
:1006400006F500764FF000090BF1FF3A059510E032
:10065000E569C5F308030BB11D460FE04FF40075C3
:100660000CE009F1010906F500761FFA89F39B45B4
:1006700042D94F46CA45EBD04FF400752A46314661
:10068000A9A802F0F1FE25AB2A4629A9A9A801F0E4
:10069000DFFE0346002800F08280A5F11001102241
:1006A000A9AB194425A802F0DFFE4FF290031B68A6
:1006B0002A4629A90DF595609847002840F08280C8
:1006C000BA45CEDD4FF298031B680DF5956098474B
:1006D000002879D14FF2A0031B680DF5956098476B
:1006E000002873D14FF294031B680DF5956098476D
:1006F0000028B6D0434652E0059D0AE04FF2900331
:100700001B68E26906F500710DF5956098470028B1
:100710005ED14FF29C031B6829460DF59560984702
:10072000002857D14FF2A40633680DF5956098471D
:10073000B0F1FF3FF8D000284ED194F82030022BC2
:100740001AD0029304F154030193243400940DF25F
:10075000EC630DF21C723021284600F077FF03464F
:10076000E8B102F0D9F9B0FA80F35B0917E000BFF5
:10077000A1A0D3ECD8520020029304F144030193CA
:10078000243400940DF2EC630DF21C7220212846F3
:1007900000F05CFF03460028E3D100E00023184688
:1007A0000DF2547DBDE8F08F0023F8E70123F6E752
:1007B0000123F4E70023F2E70023F0E70023EEE74C
:1007C0000023ECE74346EAE74346E8E74346E6E72B
:1007D0003B46E4E70023E2E70023E0E72DE9F04FA2
:1007E00085B00090019102F06FFDAF4CDFF8CCB204
:1007F00004F11003039380E1D4F80480AB4BC3F8F9
:100800000480019B009A4146404602F069FC814603
:10081000002800F06981ADB2038803FB05854368B9
:10082000426913449D4280F05F818369002B00F090
:10083000B5811A68002A00F0A3819047D9F82830C2
:1008400048EA0303D9F82C001840D9F81830002BD7
:1008500000F01D81DB68002B00F01B8139469847B2
:1008600085B20AE16068914B5860019B009A01468D
:1008700002F036FC0546002800F036814269008807
:10088000B2FBF0F76B68B9B200FB01311A44914238
:1008900000F22A81AA69002A00F0808111680029EB
:1008A00000F0628188476B68A86A0343E86A1840D1
:1008B000AB69002B00F0EF80DB68002B00F0ED80CF
:1008C000B9B2984785B2D8E0D4F80480774BC3F822
:1008D0000480D4F80890C3F80890E568DD60039AB6
:1008E0001A61019B009A08EB0901404602F0F8FBEF
:1008F0008246002800F0F880836A48EA0308C36A49
:1009000008EA0308836973B11A681AB19047DAF8E4
:10091000183043B15B6833B14A4641466448984752
:10092000002840F0BC80012F07D0022F30D00026D5
:10093000B54214BF022500259FE0DAF8183023B332
:100940009B680293B9F1000F4FD00026DFF870A129
:100950004F46DAF80020BA4228BF3A469146029B39
:100960005449404602F060FCC844A7EB0907B9F1BE
:10097000000F07D04F4B09EB030213F8011B0E4485
:100980009342FAD1002FE4D1D2E700230293D9E7B2
:10099000DAF8183033B39B6802934FF6FF7002F019
:1009A0003DF8B9F1000F19D0DFF814A1414F4B46C3
:1009B000A9461D46DAF80060AE4228BF2E46029BCB
:1009C00032463946404602F02FFCB044AD1B31465A
:1009D000384602F0E7FA002DECD14D4602F0A8FDB2
:1009E0000646A5E700230293D7E74E46A0E76068D6
:1009F0002E4B5860A1689960019B009A014402F057
:100A00006FFB804600286FD0836913B11B6803B168
:100A10009847264B5F68D8F828201743D8F82C2031
:100A20001740D3F80890D8F83050B9F1000F38D0FB
:100A3000DFF88CA0DAF800604E4528BF4E46D8F8A3
:100A4000183093B19B6832461A49384602F0ECFBE5
:100A5000374426F00301174B1944994207D053F845
:100A6000042B9542F9D0022507E00023EBE7B9EB10
:100A70000609DFD1002500E003250C4B1E88072E58
:100A800020D145F4E0250C4B1D60042132E0002507
:100A9000F3E70025F1E70025EFE70025EDE7022564
:100AA000EBE70025E9E700BF3C020020280000201A
:100AB0004C0200201C7B00200C00002024000020A1
:100AC000709B00200A2E07D03604042D28BF022573
:100AD0000CE00125D5E7002545F42025314B1D60AC
:100AE00000225A60082105E03604022535432D4BCB
:100AF0001D6004212B4802F027FD42F2107641F2DE
:100B0000100532462946204601F0B2FF0028F8D0F1
:100B10002568CBF800502E0CB3B2234A1380AFB235
:100B20005780043B0D2BA7D801A252F823F000BF39
:100B300065088000F9078000EF098000D30A800073
:100B4000790A8000790A8000D70A8000790A80003B
:100B5000790A8000790A8000790A8000790A800089
:100B6000790A8000C9088000A86A0343E86A18402F
:100B7000D368002B7FF4A4AE0B4B1E880025A3E79F
:100B8000806A48EA0000D9F82C201040DB68002B6E
:100B90007FF464AE044B1E88002595E7024B1E8847
:100BA000002591E70C000020280000202DE9F04FDF
:100BB000ADF2046D0746884604929DF828260392FC
:100BC000019343BB00294BD04FF4007239460DEB23
:100BD000020002F049FC1022FCA97CA802F044FCAF
:100BE000AA4B4FF400720DF580610DEB020001F08D
:100BF0002FFC029050B1E4220DF5806143A802F071
:100C000033FC43A802F012F9029080BB02980DF267
:100C1000046DBDE8F08F03219D4B188801F0F8FAB0
:100C20009C4B1860B0F1FF3F00F06481B8F1000FF9
:100C30000CD03B464FF400720DEB02019548006862
:100C400002F094F902900028C5D1DFE73B46E42288
:100C50000DF5806102F08AF902900028CBD1D5E72A
:100C6000E42239460DF5806002F0FEFBC3E702F096
:100C700073FC894BD3F80090E42249460AA802F09D
:100C8000F3FB0AA802F0D2F838B30A9B05934A9BFB
:100C900003F50073C3F30F31C3F30B030BB1013141
:100CA00089B2484602F0CEF9002840F026814A9BDE
:100CB000C3F34F2AC3F308031BB10AF1010A1FFA59
:100CC0008AFABAF1000F63D007F5007500260AF121
:100CD000FF3B4346B8461F463BE04FF0FF330593CA
:100CE000D5E74FF40074002F3CD0019B63B12B4635
:100CF000224680A96748006802F038F948B9029096
:100D000084E74FF40074EEE72246294680A802F0FB
:100D1000ABFB7CAB22460DF5806180A801F098FB0F
:100D2000002800F0ED801022FCA97CA802F09CFBBA
:100D3000A9EB0801224629440DF5806001F03FFF30
:100D4000002840F0DF80013605F50075B3B29A4502
:100D50001DD9B345C5DC4A9CC4F30803002BD0D091
:100D60001C46C0E7019B5BB12B4622460DF5806116
:100D70004848006802F0FAF80028D9D1029045E707
:100D8000224629460DF5806002F06EFBD0E747460B
:100D900009F500744894059B5D1E43954FF400725D
:100DA00000210DF5806002F0B0FBE42243A90DF5AF
:100DB000806002F059FB4FF4007249460DF58060E7
:100DC00001F0FDFE039B53BB019BB3B10022114612
:100DD000484602F0AEF8049B83424DD129212F48AA
:100DE00001F0C2F9019B002B79D02A4D286802F04E
:100DF000A9FA4FF0FF332B6030E00022114638464D
:100E000002F097F8054600221146484602F091F894
:100E1000854231D12D21224801F0A6F9E2E70022D6
:100E20001146484602F085F8049B834224D1019B79
:100E3000002B6AD12D211A4801F096F927F0FF07FF
:100E40001022394606A802F00FFB089510223946F9
:100E500006A801F0B4FE019B002BC6D1214643A891
:100E600001F0B2FB002840D10D210E4801F07CF9C1
:100E7000204601F0F5FEC9E6064C206802F062FA51
:100E80004FF0FF33236000230293BFE6609B0020F6
:100E900008000020D8520020781C8000A01180009B
:100EA00070118000601180000895214D3B46F022B2
:100EB0000DF58261286802F059F8102206A90DF597
:100EC000806002F0D1FA32460DF58061286801F0A9
:100ED0009FFE286801F088FF0028FAD0BBE70121B7
:100EE00027F0FF0002F0AEF8B8E71421114801F036
:100EF0003BF9B9E70023029388E60023029385E6D5
:100F0000029083E60023029380E629210A4801F03B
:100F10002BF927F0FF063346102206A90448006883
:100F200002F024F803460028BED102936EE600BF0B
:100F3000D852002048118000A01180002DE9F04116
:100F4000ADF5A06D04460F461D460023CDF8FC34D8
:100F500000F106081646C2B9002D44D01022014601
:100F600086A802F081FA734B102206A986A801F028
:100F70006FFA8046002800F0D88004220DF11E018F
:100F80000DF2FC4002F070FA33E003216A4B18883E
:100F900001F03EF9694B1860B0F1FF3F00F0C080EE
:100FA000D5B12346102286A901F0E0FF8046002833
:100FB00000F0BB805F4B102206A986A801F048FA1A
:100FC0008046002800F0B18004220DF11E010DF2D0
:100FD000FC4002F049FA0CE0434604220DF2FC41C9
:100FE00001F0C4FF05E0012241460DF2FC4002F091
:100FF000F1F9DDF8FC34190CC3F3072242EA0322AD
:101000000B0243EA11239BB243EA0243CDF8FC34BE
:10101000042239460DF2FC4002F048F8002840F066
:101020008280002E4FD0F5B123464FF4007286A97E
:101030004248006801F09AFF10220DF5816102A874
:1010400002F012FA3B4B4FF4007206A986A801F099
:10105000FFF98046002868D0E42206A90DF58360D8
:1010600002F002FA07E02346E4220DF583613348DB
:10107000006801F07BFF0DF5836000F085FF80467E
:10108000002852D002AB00932B4632460DF5836107
:101090002046FFF7B1F98046002846D1002E36D011
:1010A000264D24F47F6121F00F01286802F0B4F985
:1010B0004FF4403002F05FF8286802F043F94FF037
:1010C000FF332B6031E0DDB14FF40072214686A87A
:1010D00002F0CAF910220DF5816102A802F0C4F9EC
:1010E000144B4FF4007206A986A801F0B1F98046AE
:1010F000D8B1E42206A90DF5836002F0B5F9BAE78C
:10110000E42221460DF5836002F0AEF9B3E7012138
:1011100024F47F6020F00F0001F094FFB04604E05B
:101120004FF0000801E04FF0000840460DF5A06DBB
:10113000BDE8F081609B002008000020D85200200C
:101140004D434850000000005361766564205365AC
:10115000637572656420486173680D0A00000000C1
:101160004A756D7020746F204170700D0A00000088
:10117000436F7069656420496D6167652066726FB1
:101180006D20496E7465726E616C20536C6F7420B3
:101190003120746F20536C6F7420300D0A000000F2
:1011A000436F7069656420496D6167652066726F81
:1011B0006D2045787420746F20496E7465726E617D
:1011C0006C20466C6173680D0A000000466F756EF6
:1011D0006420556E617574686F72697A6564204920
:1011E0006D6167650D0A0000496D61676520417595
:1011F0007468656E7469636174696F6E20466169B5
:101200006C65640D0A00000041757468656E746950
:10121000636174656420496D6167650D0A000000B3
:10122000466F756E6420556E61757468656E74697D
:10123000636174656420496D61676520696E20454E
:10124000787420466C6173680D0A0000496D61670F
:10125000652041757468656E7469636174696F6E49
:10126000206661696C656420696E2045787420464B
:101270006C6173680D0A000041757468656E74696D
:10128000636174656420496D61676520696E2045FE
:10129000787420466C6173680D0A0000466F756EA5
:1012A00064206E65772045786563757461626C654E
:1012B00020496D61676520696E20496E7465726EA4
:1012C000616C20466C6173680D0A00004E6F2056F9
:1012D000616C696420496D61676520466F756E6455
:1012E0000D0A00004D6174636820686173682C20EA
:1012F0004A756D7020746F204170700D0A000000F7
:1013000052656372656174656420686173682C203E
:101310004A756D7020746F204170700D0A000000D6
:101320005374617274204446550D0A00F8B5674B3A
:101330009B7D002B00F0C880644A137EDBB2927D57
:1013400012F0800F3FD1614A137EDBB2927D12F022
:10135000010F00F0AC8013F0010F00F0A8805B4D8E
:101360005B4C5C4E2B7E13F0010F00F0A080A36855
:10137000E268934200F098806B6803F00703012B4A
:1013800002F1010314BFB25C36F8122021699942C0
:1013900098BF0023E3606B6803F00703012B18BFBD
:1013A000D2B2AA62237D002BDCD002F053F823686E
:1013B000002BD7D0227F42B3A2699042D2D361687A
:1013C00003209847CEE713F0800FBCD03F4B5B8BD8
:1013D00013F00703B7D03E4AD3873C4B80221A76DE
:1013E00007225A831B7E13F0040F05D0374B9A6AED
:1013F0001A7E12F0040FFAD1354B1B6A002BA2D0D3
:10140000334A516A022098479DE7A2699042A9D1C8
:10141000616803209847A5E7226A002A32D0616AF2
:1014200038469047A36A0133226B934228BF0023BA
:1014300028E0A16A284A22F811602EE001F0A6FFF8
:10144000236A002B2ED094F83C2032B1A26B90423C
:1014500028D3616A0020984724E0A26B904221D1F2
:10146000616A002098471DE02B7E13F0040F2BD0FB
:10147000AE6AA36A0133226B934228BF0023E26A5B
:101480009A42C9D0E26A9A42EED06A6802F0070234
:10149000012ACED0A26A10498E54A36294F8343047
:1014A000002BCBD10127DFE7084B01221A75074A31
:1014B000137EDBB2927D12F0040F05D013F0040FFF
:1014C00002D0024D024CEDE7F8BD00BF000C004019
:1014D000DC5200201C5300201C670020F0B5EBB04C
:1014E0000DF1470424F03F04E422524B196830A860
:1014F00001F0BAFF30A800F047FD18B1309BB3F1FE
:10150000FF3F58D0E4224B4B196930A801F0ACFFE3
:1015100030A800F039FD28B1309BB3F1FF3F08BF80
:10152000012749D00DF2A71001F09AF99DF8A731D3
:10153000012B68D81B013F4AD558E422294630A820
:1015400001F092FF05F500762246314630A800F002
:10155000D7F9379901F50071294411F00F0F1CBF1D
:1015600021F00F0110319DF8CA30022B0CBF20274B
:1015700030273A4620A801F077FF3A46214620A8B6
:1015800001F094FD002846D000231A462A49284637
:10159000FFF7D4FC0446002846D0314630A801F0BD
:1015A00013F80446A0B31D21244800F0DDFD3046A9
:1015B00001F056FB2CE000271F4D2E2105F5AE70E3
:1015C00000F0D2FD3B011B4AD65800231A4629469B
:1015D0003046FFF7B3FC88B1359A369B9A42A1D0CA
:1015E000002F9FD01521164800F0BEFD002100916C
:1015F0000B460A463046FFF7D9FA93E701213046F9
:1016000001F020FD8EE716210E4800F0ADFD00240C
:1016100020466BB0F0BD19210B4800F0A5FD304607
:1016200001F01EFB0124F3E70121284601F00AFD29
:10163000EEE700BF781C800040118000001380009E
:1016400008128000CC128000E412800070B59CB0BB
:10165000544900248C60CC60534D0D6144F2640504
:101660004D618C61CC6119921793209B1593219B3E
:1016700013931B909DF88830022B71D03023189360
:101680001693149312931A9341F2190200214648BB
:1016900001F0F4FE4FF218131B68444898470146C6
:1016A00000285BD04FF270131B68684698470DAD59
:1016B0006C460FCC0FC523682B604FF278231A6855
:1016C0004FF220131B681268119906A89847079CCF
:1016D000002C3ED1069D4FF234131C6808AB00224B
:1016E0000DA92846A0470446002832D14FF23013F6
:1016F0001B682846984704464FF2F816336802469E
:10170000089918A8984733682246099916A8984757
:10171000336822460A9914A89847336822460B99E1
:1017200012A89847336822460C991AA898474FF296
:101730003C131B68284698474FF244131B68284601
:10174000984704464FF258131B6828469847154B94
:101750001D60144B5C60B4FA84F040091CB070BD8D
:10176000202318931693149312931A9341F219029B
:1017700021460D4801F082FE4FF218131B680B48FA
:101780009847014658B14FF26C131B68684698475A
:101790000DAD6C460FCC0FC523682B608DE720463E
:1017A000DCE700BF50120020741200205812002005
:1017B0002DE9F0419AB00546884616461F4600249A
:1017C000139414941794189419944C48159044F257
:1017D00064021692214601F098FECDF8488030222E
:1017E0002146284601F091FE1095022F19D0302392
:1017F0000F9311934FF218131B6813A89847804654
:10180000002878D0032F17D14FF270131B680146C0
:10181000684698470AAD6C460FCC0FC523682B600D
:1018200016E020230F9311934FF218131B6813A88F
:101830009847804600285CD04FF26C131B684146E5
:10184000684698470AAD6C460FCC0FC523682B60DD
:101850004FF28C231A684FF220131B6812680E99FE
:1018600008A89847099C002C38D1089D72074FF2B0
:1018700034131C6807AB02F000520AA92846A0479F
:10188000044658BB4FF230163368284698474FF24B
:10189000F8131B680246079911A898474FF23C13AA
:1018A0001B68284698474FF244131B682846984700
:1018B00004464FF254131B6828469847074633687E
:1018C000284698474FF210231B680FAA0146386834
:1018D00098474FF258131B68284698474FF21C133D
:1018E0001B6840469847B4FA84F040091AB0BDE836
:1018F000F0812046FAE70020F8E700BF74120020CC
:101900002DE9F041ADF5367D17460DF29F2424F008
:101910003F04837A022B6FD00D46C6694022002116
:10192000204601F0F2FD4FF41172002107A801F0EA
:10193000ECFD4FF2C0031B684FF4117107A89847E4
:101940004FF03008002852D14FF290031B68324606
:10195000294607A89847002849D14FF29C031B68E5
:10196000214607A89847002841D14FF2A4052B68CB
:1019700007A89847B0F1FF3FF9D0002835D14022A1
:101980000021384601F0C1FD04AD6E464FF2D4038C
:101990001B6800213046984796E8070085E8070055
:1019A0004FF240031B68294607A89847B8B94FF281
:1019B00060031D683B464246214607A8A84780B9F8
:1019C0004FF264031B6807A8984760B94FF2700391
:1019D0001B6807A89847B0FA80F0400908E000208B
:1019E00006E0002004E0002002E0002000E00020EB
:1019F0000DF5367DBDE8F0810D46C6694022002117
:101A0000204601F082FD4FF41172002107A801F079
:101A10007CFD4FF2BC031B684FF4117107A8984777
:101A20004FF020088EE77047349B00201C00000018
:101A3000000000000C9B00202800000000000000B7
:101A4000000000200800000000000000DC52002020
:101A50004028000000000000869B002001000000DC
:101A6000000000000800002004000000000000004A
:101A7000849B00200200000000000000709B0020FA
:101A800008000000010000000010000000000BA092
:101A90001C7B0020A01F0000000000000C000020A4
:101AA0004012000000000000879B002001000000A1
:101AB00000000000789B00200400000001000000EE
:101AC000FFFFFFFF4C12002001000000000000009B
:101AD000509B00201000000001000000AABBCCDDDC
:101AE000EEFF00112233445566778899609B0020F1
:101AF0001000000000000000501200208C40000088
:101B000000000000889B0020010000000000000091
:101B10007C9B00200400000000000000BC9A002014
:101B20005000000000000000809B00200400000026
:101B3000000000000000000000000000222222221D
:101B4000222222222222222270B586B00321404B7B
:101B5000188800F05DFB3F4B1860B0F1FF3F74D078
:101B60000023102202A901F001FA044608B302A8DA
:101B700000F046FE18B1049BB3F1FF3F1CD04FF4B8
:101B80000023102202A93348006801F0EFF904464F
:101B900078B102A800F034FE18B1049BB3F1FF3F06
:101BA0003DD02C4C206801F0CDFB4FF0FF3323607B
:101BB0000024204606B070BD0025264C206801F0A8
:101BC000C1FB4FF0FF332360234C2B2104F1E000D5
:101BD00000F0CAFAED0405F110069DF80D3000334F
:101BE00018BF0123012221463046FFF7A7F904461A
:101BF000B8B12221194800F0B7FA164C206801F05C
:101C0000A1FB4FF0FF33236001230093BDF81420A4
:101C10009DF80D103046FEF7C9FF0446C9E70125BF
:101C2000CBE72A210E4800F09FFA0A4E2946306879
:101C300001F0F2FB4FF4403001F09DFA306801F002
:101C400081FB4FF0FF333360B3E70024B1E700BFFF
:101C500008000020D8520020401180007812800037
:101C60004C1280007D32800029278000793080006E
:101C7000C52A8000E9328000000000010000040055
:101C80000000080001000000000004010000040042
:101C9000000000000100000000000000000008003B
:101CA0000000000000000000000008000000080024
:101CB000000000000000000000100004000000010F
:101CC000FFFF070002000000781C8000FFFF0700F4
:101CD000681D8000000000000000000000000000FF
:101CE00000000001FFFF0701FFFFFFFF00100001E0
:101CF00000000000FFFF7F0002000000981C800031
:101D0000FFFF7F00641C8000000000000000000056
:101D10000000000000000000FFFF7F00FFFFFFFF4A
:101D2000030200000000000003000000201D8000EE
:101D300001000000241D800001000000231D800020
:101D400001000000241D800003000000201D800011
:101D500001000000241D800001000000231D800000
:101D600001000000241D800059358000BF2B800039
:101D7000EF348000453080006135800030B5ADF231
:101D8000145D3F4B1D69102229460DF5A06001F03E
:101D90006BFB0DF5A06000F033FD044600286BD00E
:101DA000DDF80835B3F1FF3F65D110359DF80535F5
:101DB0009BB9E42229460DF21C4001F055FB0DF2BF
:101DC0001C4001F033F80446002855D0DDF81C34DF
:101DD000B3F1FF3F1DD000244EE04FF400722946BE
:101DE00007A801F041FB102283A903A801F03CFBE6
:101DF000244B4FF4007287A907A800F029FB044682
:101E0000002839D0E42287A90DF21C4001F02CFBF8
:101E1000D5E71D4C1A2104F18C0000F0A5F901F062
:101E20009BFB4FF0864302221A609DF80535003374
:101E300018BF0123002221462846FFF77FF80446F9
:101E400078B11521114800F08FF901230093002388
:101E5000BDF80C259DF805152846FEF7A7FE04469B
:101E60000AE01D210A4800F07FF90121044B18699E
:101E700001F0E8F800E0002420460DF2145D30BDCA
:101E8000781C8000609B00204011800008128000B8
:101E9000E81180004FF08842D2F8003113F4007F3F
:101EA000FAD0324A536823F4704343F4005353602A
:101EB000536A13F0010FFBD02D4AB2F8BA3423F065
:101EC00002031B041B0CA2F8BA3402F50052D368BB
:101ED00023F07E0343F02003D3604FF088430022B9
:101EE000C3F8B020234AC3F8B02002F12B42A2F578
:101EF0004B12A2F6AB42C3F8B02003F520631E4A92
:101F00001A621A4A536A03F00303032BFAD11B4BDC
:101F10001B4A1A6001229A601A46136813F0010FD7
:101F2000FBD1164B48F20902C3F8502140F20122BE
:101F30001A674FF400429A674FF08843114A1A66B5
:101F400000221A67C3F880204FF01062C3F8902077
:101F50004FF03332C3F8B020044B5A6842F01002FD
:101F60005A601A6842F080721A607047004001415E
:101F700000200141556699AA280001C0000A0044CA
:101F800007012000009000090379012B66D1036846
:101F9000002B66D0374B1A6803691B0ED2B29A42E7
:101FA00061D8344A1268D243D2B293425DD810B598
:101FB0000446314B827A1978586801F0AAF8034632
:101FC000002849D02C4BE27A197AD86801F0A1F8A0
:101FD0000346002840D0284B227B197C586901F029
:101FE00098F80346002837D0234B627B197ED869C6
:101FF00001F08FF8034678B31F4B94F8202093F834
:102000002010586A01F085F8034628B31A4B94F85B
:10201000212093F82810D86A01F07BF80346D8B144
:10202000154B94F8222093F83010586B01F071F89A
:10203000034688B1104B94F8232093F83810D86BDE
:1020400001F067F8034638B1E389742B0FD1637947
:10205000012B14BF00230123184610BD002318468E
:1020600070470023FBE70023F9E70023F7E700238D
:10207000F2E700BF042C0044281D80002DE9F04742
:10208000ADF5167D07460C4690469946D1F814A04A
:102090008E7A00250D754D758D75CD7540222946BA
:1020A00001F033FA4FF41172294605A801F02DFA18
:1020B000022E0CBF4FF2BC034FF2C0031B684FF45B
:1020C000117105A89847002842D14FF290031B6870
:1020D000742204F1100105A8984700283ED14FF260
:1020E0009C031B68394605A89847002838D14FF251
:1020F000A4052B6805A89847B0F1FF3FF9D088BB2D
:10210000022E13D0A37A029304F1B403019304F1D5
:10211000840300934B46424630213846FFF796FA37
:102120000346B0B1C4F814A0012312E0A37A0293CD
:1021300004F1A403019304F1840300934B46424647
:1021400020213846FFF782FA03460028EAD100E052
:10215000002318460DF5167DBDE8F0870023F8E74B
:102160000023F6E70023F4E72DE9F041002946D0EB
:102170008C46244B1F69002423491A46DFF88CE063
:102180000FE010F804804E6806F00706012E14BF19
:102190000EF805802EF815809360631C01346345AA
:1021A0002BD24B6803F00703012B10D09568D6683B
:1021B0006B1CBB4228BF00239E42E2D101F0DAF83B
:1021C00010B1114B01229A752046BDE8F081956847
:1021D000D6686B1CBB4228BF00239E42EED030F86D
:1021E00014804E6806F00706012E14BF0EF8058015
:1021F0002EF815809360631CD0E71C46DEE70C4682
:10220000DCE700BFDC520020000C00401C53002023
:1022100038B5244B93F90A30022B34D1214BDB68BB
:10222000002B33D10D4604461E48002101608180F9
:102230006623037043691B68984750B31948992374
:1022400003700021417043691B68984720B315480B
:102250000021016081803823037043691B6898471F
:10226000E8B115F0020F06D10E4BDA680132DA60E0
:10227000DD72204609E0204600F0CAFE0028F3D1B6
:102280004FF0FF3001E04FF0FF3038BD4FF0FF302E
:10229000FBE74FF0FF30F8E74FF0FF30F5E74FF086
:1022A000FF30F2E70C9B0020204A136843F0010343
:1022B0001360136813F0010FFBD11C4B1C4A1A600A
:1022C0004CF204529A814FF440325A601A46D36954
:1022D000002BFCD1154A136843F002031360D36945
:1022E000002BFCD1134B00221A629A62DA6283F847
:1022F000342083F83C209A63DA871A609A60DA60A7
:102300001A751A779A61094B5B6803F00703012B72
:10231000084B14BF4FF4A0524FF420621A631A61A5
:10232000024B80229A7504229A757047000C004077
:1023300004011040DC5200201A4B03B198471A4B9D
:1023400003B19847EFF31083B3FA83F35B0901936A
:1023500072B6BFF35F8F154B00221A700199144AB1
:10236000136843F470031360BFF34F8FBFF36F8F95
:1023700029B10E4B01221A70BFF35F8F62B600F0D5
:1023800023F80C4B23F07F030B4A93600B4B9847C9
:102390000B4B03B198470B4B03B1984701F0AEF8D4
:1023A000FEE700BF0000000000000000889B002046
:1023B00088ED00E00002800000ED00E0BD28800014
:1023C00000000000000000001E4B1F4A9342F0B4C2
:1023D00038BF002103D203F8011B9342FBD11B4AF3
:1023E000D2E9000150EA01034FF0000610D09468D2
:1023F000034602F10C076CB921B1014403F8016BEB
:102400009942FBD13A46D2E9000150EA0103EED1EC
:10241000F0BC704759B101F10C030C38801A1A4412
:102420003B461C1813F8015B25709342F9D111F05B
:10243000030318BF012303EB910107EB81073A4621
:10244000E1E700BF00000020DC520020281A8000D5
:102450002DE9F041BEB005460F46164698464FF0AE
:10246000864302221A606C464FF2D0031B68174A5B
:102470001021204698473BAB94E8070083E807000B
:102480004FF24C0214684246194604A8A04700B116
:10249000FEE74FF260031C683B463246294604A81B
:1024A000A04700B1FEE74FF264031B6804A89847F9
:1024B00050B94FF270031B6804A89847B0FA80F037
:1024C00040093EB0BDE8F0810020FAE7509B0020B3
:1024D000F8B50F4616461C461A46012100F046FB89
:1024E0000546D0B144F0806106F00302032E16D8F1
:1024F0001ABB4FF08443DA69BFF34F8FBFF36F8F7E
:10250000114A1A601A46D36913F4806FFBD04FF05A
:102510008442D36943F48063D3612846F8BDB00890
:1025200001383C46A1EB070C54F80C3044F8043B4E
:102530000138B0F1FF3FF7D1DAE726F0030001449C
:10254000384400F07DFFD4E702000001F8B50F46E3
:1025500016461C461A46032100F008FB0546C8B182
:1025600044F0806006F00302032E15D812BBBFF3BF
:102570004F8FBFF36F8F4FF08443124A1A601A4691
:10258000D36913F4806FFBD04FF08442D36943F4D6
:102590008063D3612846F8BDB408013C3946A0EBFE
:1025A000070C0B6841F80C300431013CB4F1FF3FDB
:1025B000F7D1DBE726F00306B919304400F040FFFD
:1025C000D5E700BF0200000170B5ADF5835D86B0B0
:1025D00004460E460DF13F0525F03F052A46FFF75C
:1025E0008FF90346F8B1E469344414F00F0F1CBFAF
:1025F00024F00F04103424F47F6626F00F064FF405
:10260000805231461EA800F02FFFC4F30B00402279
:1026100029461EAB184400F027FF0121304600F088
:1026200011FD28B1002318460DF5835D06B070BD7D
:102630004FF4805231461EA800F0C1FAB0FA80F380
:102640005B09F0E72DE9F041194CE36AA46A49B34C
:102650000D46A34229D0164A176B0246154EC0F10B
:10266000010EDFF854C0C0F10008716801F00701E5
:1026700001290EEB020019BF1CF8031011703CF881
:10268000131028F8121001339F4298BF0023A8426C
:1026900003D20132A342E8D100E01C46044BDC62C5
:1026A000BDE8F0811C460846F8E70020F6E700BFC9
:1026B000DC520020000C00401C67002008B5FFF72A
:1026C000E9FB154B186820F49F7020F001004FF2D1
:1026D000D0231B6840F01200984700F0EAFB00F09E
:1026E000E1FDFFF7A0F90D49002000F087FD0C4B3C
:1026F00018604FF088431B6913F4003F07D14FF077
:1027000088434FF400329A61064B01221A70FFF79A
:10271000CBFD00F001F908BD00240144BC3380006A
:1027200008000020869B00202DE9704F21F0FF015A
:1027300012F0FF0F07D05442D3B2E4B258BF634245
:10274000D21A02F58072164602EB010900EB02086C
:102750000F4DA9EB060AA8EB060B002E0EDD28682C
:1027600000F042FB04460128F9D152465946286838
:1027700000F04EFA48B1A6F58076EAE7044C2068EE
:1027800000F032FB0028FAD000242046BDE8708F0C
:10279000789B002008B5164B1B7813B1012B04D091
:1027A00008BD134B01221A70FAE7124B1B6A13F093
:1027B000100F06D10B211048FFF7D6FC00F0A4FD46
:1027C000FEE74FF0864302221A60FFF7BDF9FFF7DC
:1027D000D5FAFEF783FE0028F2D1084B1B78002BB8
:1027E000EED04FF088434FF400325A61E8E700BF63
:1027F0004C120020002A004420138000869B0020F9
:1028000030B583B0044603680193042213490DEBED
:10281000020000F04BFCC0B92379012B18D1A37939
:10282000012B17D8A568BDB1A060631E04F10D018E
:1028300013F8012F104480B28B42F9D1A560E389CF
:10284000834214BF0020012000E0002003B030BD0F
:102850000020FBE70020F9E70020F7E740118000A7
:1028600030B5BBB00546FF230370E422124B196854
:1028700001A800F0F9FD01A800F0D8FA30B1019CE0
:10288000B4F1FF3F04D000232B7001E04FF0FF3480
:10289000E422094B196901A800F0E6FD01A800F047
:1028A000C5FA28B1019BA34202D201222A701C461C
:1028B00020463BB030BD00BF781C80000E4A38B5C2
:1028C000002313600D4A0E4C13600E4A0E4D136028
:1028D0000E4A13600E4A13600E4A536213610123BD
:1028E000936000F046FE00F044FEAC4200D338BDD9
:1028F00054F8043B9847F8E7809B0020C89A0020D2
:10290000E4038000C49A0020E8038000BC9A002001
:10291000C09A0020CC9A0020144BDA6822F4E062BE
:102920001204120C42F0BF6242F40032DA60BFF3CC
:102930005F8F62B6E02283F82320596A41F4802138
:102940005962596941F010015961596A41F40031E5
:102950005962A3F5406383F803230821196083F8C3
:102960000C234FF480521A60704700BF00ED00E066
:10297000114B9B5C2BB902B170470370FF230B70A6
:1029800070470E4A12780270D2430A709A1ED2B271
:10299000012BF1D030B40A4DAD1A0A4B02781C78E5
:1029A0002243027013F801490A7822EA04020A70ED
:1029B0009D42F3D130BC704764358000552C0044F3
:1029C000532C0044542C004438B50D4603784FF086
:1029D0008444636383781B0403F4F81341780B4346
:1029E00043F09003A363A36B4FF08061284600F08F
:1029F00027FDBFF34F8FBFF36F8F074B2360224636
:102A0000D36913F4806FFBD04FF08442D36943F451
:102A10008063D361012038BD02000001F0B4124B85
:102A20001880124800F580670022164641F2210501
:102A300006E040F8043F02F5807292B2B84210D02E
:102A400011460824334683EA010C1CF4004F14BFDE
:102A500085EA43035B009BB2490089B2013CF2D195
:102A6000E7E7F0BC704700BF849B002038000020DF
:102A70002DE9F04780460F46914600F019FD3E468D
:102A8000D7B100260E4C4D464FF0010A09E04B45E8
:102A900012D85146FFF7D6FD002323700136B74206
:102AA0000AD008EB06002378002BF2D101332278FC
:102AB000002AECD1AB42F9D93046BDE8F08700BF1F
:102AC000879B00202DE97841C1B104464E1EB3B268
:102AD00000F5805606EB03360E4D4FF4403828685B
:102AE00000F082F92146286800F096FC78B104F5E0
:102AF0008054404600F03FFBB442F0D1054C2068C2
:102B000000F072F90028FAD00020BDE87881012099
:102B1000FBE700BF789B002010B54FF240131B6805
:102B2000104A10689847044670B1032817D04FF236
:102B300058131B680B4A106898474FF21C131B6808
:102B40000948984702240AE04FF258131B68054AC7
:102B5000106898474FF21C131B680348984720469B
:102B600010BD00BF501200207412002010B44FF0AE
:102B7000844422634278037843EA024363638378A0
:102B80008288134382791AB10289134343F04003C8
:102B9000827A0AB143F48043090301F44051194396
:102BA000C37A1B0403F4F813194341F0B0014FF04A
:102BB000844399639B6B01205DF8044B70472DE9BA
:102BC000704321F00F0112F00F0F08D0544202F0B1
:102BD0000F0304F00F0458BF6342D21A1032144698
:102BE00056188518A6EB0409A5EB0408002C0ADD8D
:102BF00000F056FC0028FBD14946404600F02AFB75
:102C000020B1103CEEE70020BDE870830120FBE717
:102C1000B0F1FF3F1FD02DE9F0411646884600F085
:102C200083FB034610B91846BDE8F0810B4C04F154
:102C30001C000023E361436083600227277706239B
:102C4000A37763691D6933464FF480724146A847F4
:102C500003462774E7E70023184670470C9B0020C3
:102C600038B5046845684FF4403000F084FA0E4AE5
:102C7000136823F0020313600C4B1B7823B14FF051
:102C800088434FF400325A61074AD369002BFCD1C4
:102C90004FF0864300221A60B4F1FF3F02D084F364
:102CA0000888284738BD00BF000C0040869B0020E4
:102CB000032A00D9FEE770B50C4605460D4B9E5C15
:102CC00030220021204600F020FC731EDBB256B1FA
:102CD00001332344224608492144881A007802F827
:102CE000010B9A42F9D1054B1B68C3F300432B70CB
:102CF00070BD00BF64358000552C0044002C00449A
:102D00000F4B1B684FF08242907800F00100C3F334
:102D10008113013B022B0BD8A2F1B062A2F5CA22AB
:102D2000A2F2FF62074B002814BF104618467047F6
:102D3000054A064B002814BF10461846704700BFCE
:102D4000002C0044A1A0D3EC4A68A55ABF29BC8E30
:102D500010B4EFF3108472B60E4B18634FF4804238
:102D60005A600F205860014099609A6000221A62F0
:102D7000094A1A6202F12B42A2F54B12A2F6AB42AB
:102D80001A624FF400429A6084F310885DF8044B95
:102D9000704700BF00060044556699AA10B5037835
:102DA0004FF084446363437843F4025343F01003C9
:102DB000A363A36B4FF0806000F042FBBFF34F8F23
:102DC000BFF36F8F074B23602246D36913F4806FE4
:102DD000FBD04FF08442D36943F48063D361012078
:102DE00010BD00BF0200000100B583B000238DF8C4
:102DF0000730B0F1FF3F13D00B4B1B7C012B0BD0E6
:102E000001220DF1070100F0E3F958B19DF80730F8
:102E100083F0010303F00103184603B05DF804FBDF
:102E20000223F9E70223F7E70C9B002010B582B0DC
:102E30000446D0F80630190CC3F3072242EA0322F5
:102E40000B0243EA11239BB243EA0243019304229B
:102E500006490DEB020000F029F910B1002002B084
:102E600010BD2046FFF790F8F9E700BF4011800041
:102E700030B583B005460C4600218DF807108DF85B
:102E800006100DF106010DF10700FFF771FD9DF829
:102E900007109DF80620CB43DBB2934200D0FEE73B
:102EA00009B9FF2A01D003B030BD2B781C432C7028
:102EB000F9E7704710B5054C227832B9044B13B1CD
:102EC0000448AFF300800123237010BD349B002021
:102ED000000000000000000008B5034B1BB10349CF
:102EE0000348AFF3008008BD00000000389B0020BD
:102EF00000000000837833B14FF084431963838866
:102F000043F0200100E0002103784FF08442536336
:102F100043780B4343F010039363D36913F4806F3A
:102F2000FBD04FF08442D36943F48063D361012026
:102F3000704730B5ADF5017D04464FF4007201468F
:102F4000684600F091FA079D002305934FF6FF7243
:102F50004FF4F87104A800F0F5F80246294604F58C
:102F6000007000F0EFF80DF5017D30BDB0F1FF3FCE
:102F700013D038B50A4C04F11C000025E56145600A
:102F800085600B2525770625A57784F82750656988
:102F9000ED68A8470123237438BD0020704700BFA7
:102FA0000C9B0020A1B110B40A4B1B8841180A4C9D
:102FB00010F8012B82EA132254F8222082EA03231C
:102FC0009BB28842F4D1034A13805DF8044B7047EA
:102FD000704700BF849B00203C00002070B506466F
:102FE0000D4600F0A1F9034668B1084C267006238F
:102FF00063700123A37063691B68294620469847C4
:10300000034603222274184670BD00BF0C9B0020AB
:1030100008B5B0F1FF3F10D000F086F9034668B163
:1030200007480021C0F8021098230370062343705C
:1030300043691B689847034600E00023184608BD13
:103040000C9B002038B505460C46C0F30B037BB93A
:1030500064B100F025FA0028FBD1284600F040FAC0
:1030600040B1013CA4B205F58055F1E7002000E035
:10307000022038BD0120FCE72DE978410D4690463D
:103080001E46094C2068FFF7AFFE0028FAD04346E1
:103090003246294604480068FFF768FF80F00100C7
:1030A000C0B2BDE8788100BF789B0020B2B130B4D7
:1030B000154604780A7894420AD103462844013818
:1030C000834209D013F8014F11F8012F9442F7D031
:1030D000121BD0B230BC70470020FBE700207047C5
:1030E000ABB1F0B405461E46043A002402E00134B8
:1030F000B44209D052F8040F4368AB42F7D847698D
:103100003B448B42F3D300E00020F0BC704700202A
:10311000704799B110B40C46034613F8011B914255
:103120000ED02044984205D013F8014B9442F9D1B7
:10313000012000E000205DF8044B7047002070473C
:103140000120F8E7A9B110B4411810F8013B83EA57
:10315000122383EA13139CB243EA022383EA043363
:1031600083EA44139AB28142EFD110465DF8044BD2
:1031700070471046704780B485B000AF7860002378
:10318000FB6005E0FB68013BFB60FB680233FB6012
:10319000FA687B689A42F5D300BF1437BD465DF8E4
:1031A000047B7047B0F1FF3F0DD008B50748AF234F
:1031B0000376062343760223837643695B68032202
:1031C0001830984708BD0020704700BF0C9B0020B6
:1031D000B0F1FF3F0DD008B507480523037606235D
:1031E00043760223837643695B68D2B218309847EE
:1031F00008BD0020704700BF0C9B0020094B1B7AC4
:103200006BB910B4074B00229A7201241C72DA6069
:103210000A685A6102229A725DF8044B70474FF0B7
:10322000FF3070470C9B002093B1F8B51F4616463F
:103230000D4604460021284600F04AF9334622464E
:1032400029460020B84700280CBF28460020F8BDBA
:103250007047FEE708B5024608461168064B196438
:103260005168196591681966D2681A6744F20201BB
:10327000FFF76EFD012008BD0006004408B5074BAE
:103280001B68B3F1FF3F00D008BD0321044B188831
:10329000FEF7BEFF014B1860F6E700BF789B0020E9
:1032A000080000204FF0844301221A6040F20162BE
:1032B0005A604FF480729A6002221A601A46136AAA
:1032C00013F0020FFBD0704708B50121084600F04B
:1032D00069F8012000F020F90021024800F022F9ED
:1032E00008BD00BFC134800000B583B001A9054B03
:1032F0001868FFF757FF18B9002003B05DF804FB0A
:103300000198FAE7789B002000B58DB0684600F080
:103310006DF8009B23B19DF82C10684600F00EF963
:103320000DB05DF804FBFEE708B505480021C0F8C4
:10333000021006230370437043691B68984708BD59
:103340000C9B0020B0F1FF3F05D0034BDB6813B1AD
:10335000013B014AD36070470C9B002008B5034B2A
:103360001B6813B1024A1068984708BD000000208E
:1033700004000020044A9368D06883423EBF024A9A
:1033800012699B18181A7047DC520020044BD86A47
:103390009B6A984282BF024A126B9B18181A7047A8
:1033A000DC520020044B93F8342083F8340083F877
:1033B0003C101046704700BFDC520020C033800034
:1033C000F52E8000C92980009D2D8000D124800029
:1033D0004D258000531E42B1043851F8042B40F8AB
:1033E000042F013BB3F1FF3FF7D1704710B50446FE
:1033F00000F0AEF8206034306060022384F82C3096
:1034000010BD10B5431E0A44914200D110BD11F801
:10341000014B03F8014FF7E7B0F1FF3F04D008B5C7
:103420002020FFF7DBFD08BD0020704708B5034BE7
:10343000186B0021FFF78CFC08BD00BF000600449C
:103440003AB10139821811F8013F00F8013B90426E
:10345000F9D1704710B5034B1C69FFF78BFF013C96
:10346000201A10BDDC5200203AB101388A1811F838
:10347000013B00F8013F9142F9D17047531E2AB138
:1034800040F8041B013BB3F1FF3FF9D1704708B589
:1034900013460A461946FFF7B4FF012008BDFEE7B0
:1034A000024B1868C0F3C030704700BF00060044EC
:1034B000024BD88F0022DA87704700BFDC52002011
:1034C00010B9024B01221A70704700BF879B002081
:1034D00002440346934200D1704703F8011BF9E709
:1034E00008B544F20401FFF733FC012008BD08B51C
:1034F00008461946FFF7CBFF002008BD08B500209D
:10350000FFF7DCF8FFF746F9FCE722B1821800F874
:10351000011B8242FBD1704708B1014A906370479A
:10352000DC520020014B186259627047DC520020C7
:10353000014B1888704700BF849B002008B511B16B
:1035400008B1FDF74BF9FEE708B5FEF70DFE08BD23
:1035500000487047B81C800008B5FFF767FF08BD3A
:103560000020704700002030FEE7FEE7FEE7FEE7A0
:04357000FEE77047BB
:00000001FF
