:0200000400807A
:105F8800FFFF000000400E8438FC745F3B4412148D
:085F98000B0000710200000083
:045FBC0000000010D1
:020000040100F9
:10000000FEFFFFFF01015048434D00000000740057
:1000100000000001000200010002000100B0020027
:1000200000000000000000000000000000000000D0
:1000300000000000000000000000000000000000C0
:1000400000000000000000000000000000000000B0
:1000500000000000000000000000000000000000A0
:100060000000000000000000000000000000000090
:100070000000000000000000000000000000000080
:100080000000000000000000000000000000000070
:100090000000000000000000000000000000000060
:1000A0000000000000000000000000000000000050
:1000B0000000000000000000000000000000000040
:1000C0000000000000000000000000000000000030
:1000D0000000000000000000000000000000000020
:1000E0000000000000000000000000000000000010
:1000F0000000000000000000000000000000000000
:1001000000000000000000000000000000000000EF
:1001100000000000000000000000000000000000DF
:1001200000000000000000000000000000000000CF
:1001300000000000000000000000000000000000BF
:1001400000000000000000000000000000000000AF
:10015000000000000000000000000000000000009F
:10016000000000000000000000000000000000008F
:10017000000000000000000000000000000000007F
:10018000000000000000000000000000000000006F
:10019000000000000000000000000000000000005F
:1001A000000000000000000000000000000000004F
:1001B000000000000000000000000000000000003F
:1001C000000000000000000000000000000000002F
:1001D000000000000000000000000000000000001F
:1001E000000000000000000000000000000000000F
:1001F00000000000000000000000000000000000FF
:10020000F07F0120352502012F8202013582020193
:1002100041820201478202014D820201000000007A
:1002200000000000000000000000000039AC0001E8
:100230003B8202010000000059AD0001C7AD000182
:10024000DBDD0001DBDD0001DBDD0001CDB60001FF
:10025000DBDD0001DBDD0001DBDD0001DBDD0001BA
:10026000DBDD0001DBDD0001DBDD0001DBDD0001AA
:10027000256E0001DBDD0001DBDD0001DBDD0001BF
:10028000DBDD0001DBDD0001DBDD0001DBDD00018A
:10029000DBDD0001DBDD0001DBDD0001DBDD00017A
:1002A000DBDD0001DBDD0001DBDD0001DBDD00016A
:1002B000DBDD0001DBDD0001DBDD0001B10002015F
:1002C000F9960101DBDD0001DBDD0001DBDD000172
:1002D000DBDD0001DBDD0001DBDD0001DBDD00013A
:1002E000DBDD0001000000004D08020100203200AB
:1002F000C0F70020000000000000000001203200D4
:10030000C0F70020000000000000000002203200C2
:10031000C0F70020000000000000000003203200B1
:10032000C0F70020000000000000000004203200A0
:10033000C0F700200000000000000000052032008F
:10034000C0F700200000000000000000062032007E
:10035000C0F700200000000000000000072032006D
:10036000C0F700200000000000000000082020006E
:10037000F4F7002000000000000000000920200029
:10038000F4F7002000000000000000000A20200018
:10039000F4F7002000000000000000000B20200007
:1003A000F4F7002000000000000000000C202000F6
:1003B000F4F7002000000000000000000D202000E5
:1003C000F4F7002000000000000000000E202000D4
:1003D000F4F7002000000000000000000F202000C3
:1003E000F4F700200000000000000000F8B500BF96
:1003F000F8BC08BC9E4670474D430201F8B500BFEB
:10040000F8BC08BC9E46704729430201A0BE00000C
:100410000100000080B58CB004AFF860B9603B60AB
:100420001346FB80FB889B0018460AF073F978613D
:100430007B69002B13D054200AF06CF9F861FB693A
:10044000002B08D054220021F86929F015FDFB6922
:100450007A691A6305E078690AF0FAF901E0002385
:10046000FB61FB69002B13D0FA8800230393FB691F
:100470000293FB6A0193BB6A00933B68B968F86812
:1004800000F00EF8F86900F07BF80123BB6102E090
:100490004FF0FF33BB61BB6918462037BD4680BDB6
:1004A00080B586B000AFF860B9607A603B60BB6A27
:1004B000186B7B689B001A46A52129F0DDFCBB6AFE
:1004C0001A6B7B6803F18043013B9B0013443B6143
:1004D0003B6923F007033B61BB68002B1ED0002360
:1004E0007B6112E0BA687B6913441978BA6A7B6948
:1004F000134434330A461A70BA687B6913441B7874
:10050000002B06D07B6901337B617B690F2BE9D916
:1005100000E000BFBB6A002283F843203B6A042B43
:1005200001D904233B62BB6A3A6ADA62BB6A3A6A5F
:100530005A64BB6A0433184611F050FABB6A183388
:10054000184611F04BFABB6ABA6A1A613B6AC3F1EA
:100550000502BB6A9A61BB6ABA6A5A623A68F9686C
:1005600038690AF01DFB0246BB6A1A607B6A002BE1
:1005700002D07B6ABA6A1A6000BF1837BD4680BDD8
:1005800080B584B000AF78600AF0B3FB3E4B1B68C7
:1005900001333D4A13603D4B1B68002B09D13B4A98
:1005A0007B681360384B1B68012B10D101F0D0F928
:1005B0000DE0374B1B68002B09D1344B1B68DA6AFE
:1005C0007B68DB6A9A4202D8304A7B681360314B01
:1005D0001B6801332F4A13607B68DB6A01229A4053
:1005E0002D4B1B6813432C4A13607B68DA6A2B4936
:1005F00013469B0013449B000B4404331B68FB60B1
:100600007B68FA689A60FB689A687B68DA60FB68C6
:100610009B687A6804325A607B681A1DFB689A608E
:100620007B68DA6A13469B0013449B001B4A1A44FA
:100630007B685A617B68DA6A184913469B00134449
:100640009B000B441B68591C144813469B00134421
:100650009B00034419600AF065FB0D4B1B68002BDF
:100660000ED00A4B1B68DA6A7B68DB6A9A4207D2B3
:100670000B4B4FF080521A60BFF34F8FBFF36F8F59
:1006800000BF1037BD4680BD20F6002048F5002091
:100690002CF600203CF6002028F600204CF5002027
:1006A00004ED00E080B584B000AF78600AF021FB73
:1006B0007B68002B02D1344B1B6800E07B68FB6039
:1006C000FB680433184611F0F3F90346002B15D1EB
:1006D000FB68DA6A2D4913469B0013449B000B44C8
:1006E0001B68002B0AD1FB68DB6A012202FA03F3C4
:1006F000DA43274B1B681340254A1360FB689B6A4B
:10070000002B04D0FB681833184611F0D1F9214BA7
:100710001B6801331F4A13601B4B1B68FA689A421F
:100720000BD1FB68043319461B4811F064F91B4BCD
:100730001B680133194A136006E0194B1B68013B23
:10074000174A136001F080F90AF0ECFA0E4B1B68AF
:10075000FA689A4202D0F86801F066F9114B1B68FA
:10076000002B0CD0084B1B68FA689A4207D10E4B3D
:100770004FF080521A60BFF34F8FBFF36F8F00BFEF
:100780001037BD4680BD00BF48F500204CF5002065
:1007900028F600203CF60020F4F5002008F60020A2
:1007A00020F600202CF6002004ED00E080B586B095
:1007B00000AF7860396000237B6100F0F5FA224BCE
:1007C0001B683B617B681B683A681344FB607B686D
:1007D0001B683A699A420BD27B681B68FA689A4296
:1007E00011D2FA683B699A420DD901237B610AE074
:1007F0007B681B68FA689A4203D3FA683B699A429D
:1008000001D901237B617B68FA681A607B69002B40
:1008100006D0FA683B69D31A0021184601F03CFF64
:1008200000F00AFBB860BB68002B07D1074B4FF004
:1008300080521A60BFF34F8FBFF36F8F7B691846EA
:100840001837BD4680BD00BF24F6002004ED00E04F
:1008500080B584B000AF78600023FB607B68002B1C
:1008600008D000F0A1FA0021786801F015FF00F02F
:10087000E3FAF860FB68002B07D1064B4FF080527B
:100880001A60BFF34F8FBFF36F8F00BF1037BD46A5
:1008900080BD00BF04ED00E080B584B000AF78609B
:1008A0000AF027FA7B68002B02D1074B1B6800E097
:1008B0007B68FB60FB68DB6ABB600AF033FABB68ED
:1008C00018461037BD4680BD48F5002080B489B079
:1008D00000AF7860EFF311824FF0200383F31188AB
:1008E000BFF36F8FBFF34F8F3A61FB603B69FB61D2
:1008F0007B68002B02D10A4B1B6800E07B68BB6160
:10090000BB69DB6A7B61FB69BB60BB6883F31188F1
:100910007B6918462437BD465DF8047B704700BFED
:1009200048F5002080B588B000AF786039600023BA
:10093000FB613B68042B01D904233B600AF0D9F921
:100940007B68002B02D1554B1B6800E07B68BB61C4
:10095000BB695B6C7B617A693B689A4200F0988066
:100960003A687B699A420DD94C4B1B68BA699A4226
:100970000FD04A4B1B68DB6A3A689A4209D30123BD
:10098000FB6106E0454B1B68BA699A4201D101231D
:10099000FB61BB69DB6A3B61BB695A6CBB69DB6AA3
:1009A0009A4202D1BB693A68DA62BB693A685A6412
:1009B000BB699B69002B04DB3B68C3F10502BB6983
:1009C0009A61BB6959693A6913469B0013449B00BD
:1009D000334A1344994250D1BB690433184611F08D
:1009E00067F80346002B09D101223B6902FA03F3A1
:1009F000DA432C4B1B6813402A4A1360BB69DB6A3D
:100A000001229A40274B1B681343264A1360BB6997
:100A1000DA6A234913469B0013449B000B440433BA
:100A20001B68FB60BB69FA689A60FB689A68BB69DF
:100A3000DA60FB689B68BA6904325A60BB691A1DA8
:100A4000FB689A60BB69DA6A13469B0013449B00FB
:100A5000134A1A44BB695A61BB69DA6A10491346E2
:100A60009B0013449B000B441B68591C0C48134605
:100A70009B0013449B0003441960FB69002B07D0C3
:100A8000094B4FF080521A60BFF34F8FBFF36F8F47
:100A90000AF048F900BF2037BD4680BD48F5002068
:100AA0004CF5002028F6002004ED00E080B584B06D
:100AB00000AF78600AF01DF97B68002B02D13B4B38
:100AC0001B6800E07B68BB60BB680433184610F00D
:100AD000EFFF0346002B15D1BB68DA6A3449134691
:100AE0009B0013449B000B441B68002B0AD1BB687E
:100AF000DB6A012202FA03F3DA432E4B1B68134030
:100B00002C4A1360BB689B6A002B04D0BB68183367
:100B1000184610F0CDFFBB6804331946264810F084
:100B20006AFF0023FB6010E0BA68FB68134450338F
:100B30001B78DBB2012B05D1BA68FB681344503334
:100B400000221A70FB680133FB60FB68002BEBDDB1
:100B50000AF0E8F8194B1B68002B05D00AF0C9F819
:100B600000F072FF0AF0DEF8104B1B68BA689A4278
:100B700018D1124B1B68002B08D0114B4FF080523C
:100B80001A60BFF34F8FBFF36F8F0BE00A4B1A68E9
:100B90000C4B1B689A4203D1044B00221A6001E0FF
:100BA00000F0CAFB00BF1037BD4680BD48F50020ED
:100BB0004CF5002028F600200CF600202CF6002032
:100BC00004ED00E020F6002080B485B000AF78602E
:100BD0000023FB607B68BB60BB685B690A4A934289
:100BE0000AD1BB689B6A094A934205D0BB689B6ADD
:100BF000002B01D10123FB60FB6818461437BD466A
:100C00005DF8047B704700BF0CF60020E0F5002083
:100C100080B584B000AF78607B68FB60344B1B68A4
:100C2000FA689A425FD0FB68002B5CD00AF061F84A
:100C3000F868FFF7C9FF0346002B52D0FB68043366
:100C4000184610F035FFFB68DB6A01229A40294BF9
:100C50001B681343274A1360FB68DA6A2649134668
:100C60009B0013449B000B4404331B68BB60FB6870
:100C7000BA689A60BB689A68FB68DA60BB689B6870
:100C8000FA6804325A60FB681A1DBB689A60FB68F8
:100C9000DA6A13469B0013449B00174A1A44FB6808
:100CA0005A61FB68DA6A144913469B0013449B009F
:100CB0000B441B68591C104813469B0013449B00AF
:100CC00003441960FB68DA6A094B1B68DB6A9A42C5
:100CD00007D30A4B4FF080521A60BFF34F8FBFF318
:100CE0006F8F0AF01FF800BF1037BD4680BD00BFF0
:100CF00048F5002028F600204CF5002004ED00E027
:100D000080B584B002AF154B0193002300930023FC
:100D10004FF4807212491348FFF77CFB78607B68C0
:100D2000012B14D14FF0200383F31188BFF36F8F91
:100D3000BFF34F8F3B600C4B4FF0FF321A600B4BF1
:100D400001221A600A4B00221A6009F0A0FF094B29
:100D50001B6800BF0837BD4680BD00BF44F60020B9
:100D600060A702018918000140F600202CF600203F
:100D700024F60020CCFD002080B582B000AF4FF0FB
:100D8000200383F31188BFF36F8FBFF34F8F7B6016
:100D9000044B00221A6009F0A5FF00BF0837BD46CA
:100DA00080BD00BF2CF6002080B400AF044B1B6850
:100DB0000133034A136000BFBD465DF8047B7047F2
:100DC00048F6002080B485B000AF0023BB6001234B
:100DD0007B60144B1B687A689A4201D20123BB6086
:100DE000114B1B68DB6A002B02D00023FB6012E072
:100DF0000E4B1B68012B02D90023FB600BE0BB6884
:100E0000002B02D00023FB6005E0094B1A68094B58
:100E10001B68D31AFB60FB6818461437BD465DF8A3
:100E2000047B704728F6002048F500204CF5002090
:100E300040F6002024F6002080B586B000AF0023E5
:100E40007B6100233B6109F054FF684B1B68013B49
:100E5000664A1360654B1B68002B40F0C080644BF2
:100E60001B68002B00F0BB808AE0624BDB68DB680C
:100E70007B617B699B6ABB607B69DB697A69126A0B
:100E80009A607B691B6A7A69D2695A60BB685A6842
:100E90007B6918339A4203D17B691A6ABB685A602E
:100EA0007B6900229A62BB681B685A1EBB681A6085
:100EB0007B695B697B607B699B687A69D2689A60B1
:100EC0007B69DB687A6992685A607B685A687B69DB
:100ED00004339A4203D17B69DA687B685A607B6984
:100EE00000225A617B681B685A1E7B681A607B6906
:100EF000DB6A01229A40404B1B6813433E4A136051
:100F00007B69DA6A3D4913469B0013449B000B44FE
:100F100004331B683B607B693A689A603B689A6857
:100F20007B69DA603B689B687A6904325A607B6946
:100F30001A1D3B689A607B69DA6A13469B0013446A
:100F40009B002E4A1A447B695A617B69DA6A2B49F5
:100F500013469B0013449B000B441B68591C2748F5
:100F600013469B0013449B00034419607B69DA6AB3
:100F7000234B1B68DB6A9A4202D3224B01221A6080
:100F80001C4B1B68002B7FF470AF7B69002B01D0DA
:100F900000F05AFD1C4B1B68FB60FB68002B10D057
:100FA00000F0BCF80346002B02D0164B01221A6059
:100FB000FB68013BFB60FB68002BF1D1124B002268
:100FC0001A60104B1B68002B09D001233B610F4BAB
:100FD0004FF080521A60BFF34F8FBFF36F8F09F04D
:100FE000A1FE3B6918461837BD4680BD48F6002073
:100FF00020F60020E0F5002028F600204CF5002027
:1010000048F5002034F6002030F6002004ED00E022
:1010100080B483B000AF054B1B687B607B681846CB
:101020000C37BD465DF8047B704700BF24F60020F6
:1010300080B483B000AF00237B60054B1B683B602E
:101040003B6818460C37BD465DF8047B704700BF0F
:1010500024F6002080B400AF034B1B681846BD4641
:101060005DF8047B704700BF20F6002080B485B097
:1010700000AF78607B68002B02D1064B1B6800E054
:101080007B68FB60FB68343318461437BD465DF857
:10109000047B704748F5002080B582B000AF7860CF
:1010A0000E4B1A687B681A440D4B1B689A420BD191
:1010B00009F01FFE0B4B1B6801330A4A136009F04D
:1010C00031FE7B68013B7B60044B1A687B681344EC
:1010D000024A136000BF0837BD4680BD24F60020D9
:1010E00040F6002030F6002080B584B000AF786074
:1010F000FFF75AFE09F0FDFD074B1A687B681344A1
:10110000054A136009F00EFEFFF796FEF860FB68D3
:1011100018461037BD4680BD30F6002080B588B037
:1011200000AF0023FB61794B1B68002B40F0E2808D
:10113000774B1B680133BB61754ABB691360BB69A0
:10114000002B10D1734B1B687B61734B1B68714A7A
:101150001360714A7B691360704B1B6801336F4ADF
:10116000136000F071FC6E4B1B68BA699A42C0F0C4
:10117000A680684B1B681B68002B04D1684B4FF09E
:10118000FF321A609BE0634B1B68DB68DB683B61E6
:101190003B695B68FB60BA69FB689A4203D2604AAC
:1011A000FB6813608BE03B695B69BB603B699B68D4
:1011B0003A69D2689A603B69DB683A6992685A601A
:1011C000BB685A683B6904339A4203D13B69DA68C9
:1011D000BB685A603B6900225A61BB681B685A1E93
:1011E000BB681A603B699B6A002B1ED03B699B6AF7
:1011F0007B603B69DB693A69126A9A603B691B6AEA
:101200003A69D2695A607B685A683B6918339A42D6
:1012100003D13B691A6A7B685A603B6900229A6273
:101220007B681B685A1E7B681A603B69DB6A012277
:101230009A403C4B1B6813433A4A13603B69DA6A95
:10124000394913469B0013449B000B4404331B682D
:101250003B603B693A689A603B689A683B69DA6030
:101260003B689B683A6904325A603B691A1D3B68C7
:101270009A603B69DA6A13469B0013449B002A4A32
:101280001A443B695A613B69DA6A274913469B0055
:1012900013449B000B441B68591C234813469B00B6
:1012A00013449B00034419603B69DA6A1F4B1B68B7
:1012B000DB6A9A427FF65DAF0123FB6159E71B4B66
:1012C0001B68DA6A184913469B0013449B000B44C1
:1012D0001B68012B01D90123FB61154B1B68002BF7
:1012E00001D11DF039FA134B1B68002B09D00123E3
:1012F000FB6106E00E4B1B6801330D4A13601DF0C5
:101300002BFAFB6918462037BD4680BD48F6002001
:1013100024F60020D8F50020DCF5002038F6002067
:1013200040F6002028F600204CF5002048F500206B
:1013300030F6002034F6002080B586B000AF2F4B89
:101340001B68002B03D02E4B01221A6051E02C4B5E
:1013500000221A602B4B1B681B6B7B614FF0A5337F
:101360003B617B691B683A699A4211D17B690433FE
:101370001B683A699A420BD17B6908331B683A694A
:101380009A4205D17B690C331B683A699A4208D0AE
:101390001C4B1A681B4B1B683433194610461DF052
:1013A000B9F9194B1B687B607B68B3FA83F3FB7058
:1013B000FB78C3F11F03FB60FA6813469B001344DC
:1013C0009B00124A1344BB60BB685B685A68BB68E9
:1013D0005A60BB685A68BB6808339A4204D1BB683C
:1013E0005B685A68BB685A60BB685B68DB68054A23
:1013F000136000BF1837BD4680BD00BF48F600200F
:1014000034F6002048F5002028F600204CF5002096
:1014100080B582B000AF78603960074B1B68183325
:101420001946786810F00BFB0121386801F034F997
:1014300000BF0837BD4680BD48F5002080B586B0A6
:1014400000AFF860B9607A60174B1B68BA6842F069
:1014500000429A61FB685B687B61134B1B687A6989
:10146000DA61114B1B687A6992681A620E4B1A682E
:101470007B699B6818325A600B4B1B6803F118029A
:101480007B699A60084B1B68FA689A62FB681B6864
:101490005A1CFB681A600121786801F0FDF800BF52
:1014A0001837BD4680BD00BF48F5002080B588B024
:1014B00000AF78607B68DB68DB68BB61BB699B6AF7
:1014C0007B61BB69DB69BA69126A9A60BB691B6A96
:1014D000BA69D2695A607B695A68BB6918339A4203
:1014E00003D1BB691A6A7B695A60BB6900229A62A0
:1014F0007B691B685A1E7B691A604A4B1B68002B6C
:1015000060D1BB695B693B61BB699B68BA69D268A2
:101510009A60BB69DB68BA6992685A603B695A682D
:10152000BB6904339A4203D1BB69DA683B695A60EC
:10153000BB6900225A613B691B685A1E3B691A60ED
:10154000BB69DB6A01229A40374B1B681343364A5A
:101550001360BB69DA6A354913469B0013449B004C
:101560000B4404331B68FB60BB69FA689A60FB6834
:101570009A68BB69DA60FB689B68BA6904325A6092
:10158000BB691A1DFB689A60BB69DA6A13469B0047
:1015900013449B00254A1A44BB695A61BB69DA6A45
:1015A000224913469B0013449B000B441B68591CA3
:1015B0001E4813469B0013449B000344196000F02F
:1015C00043FA1BE01A4B5B68BB60BB69BA68DA611F
:1015D000BB689A68BB691A62BB689B68BA691832B3
:1015E0005A60BB6903F11802BB689A60BB69104A74
:1015F0009A620F4B1B6801330D4A1360BB69DA6AAC
:101600000C4B1B68DB6A9A4205D90123FB610A4B2C
:1016100001221A6001E00023FB61FB6918462037B4
:10162000BD4680BD48F6002028F600204CF500207D
:10163000E0F5002048F5002034F6002080B586B0A3
:1016400000AF786039603B6843F000427B681A6005
:101650007B68DB687B617B681B693B617B685B68DF
:101660007A6892689A607B689B687A6852685A6068
:101670003B695B687A689A4203D17B689A683B69E8
:101680005A607B6800221A613B691B685A1E3B69DD
:101690001A6000F0D9F97B695B69FB607B699B6824
:1016A0007A69D2689A607B69DB687A6992685A6065
:1016B000FB685A687B6904339A4203D17B69DA6814
:1016C000FB685A607B6900225A61FB681B685A1EDE
:1016D000FB681A607B69DB6A01229A40244B1B6815
:1016E0001343234A13607B69DA6A224913469B003D
:1016F00013449B000B4404331B68BB607B69BA68CE
:101700009A60BB689A687B69DA60BB689B687A6993
:1017100004325A607B691A1DBB689A607B69DA6A79
:1017200013469B0013449B00124A1A447B695A617A
:101730007B69DA6A0F4913469B0013449B000B44F4
:101740001B68591C0B4813469B0013449B00034421
:1017500019607B69DA6A084B1B68DB6A9A4202D916
:10176000064B01221A6000BF1837BD4680BD00BF7E
:1017700028F600204CF5002048F5002034F6002023
:1017800080B582B000AF786009F0B3FA064B1A68F2
:101790007B681A60054B1A687B685A6009F0C2FAC8
:1017A00000BF0837BD4680BD38F6002024F6002073
:1017B00080B483B000AF7860064B1A687B681A600B
:1017C000054B1A687B685A6000BF0C37BD465DF850
:1017D000047B704738F6002024F6002080B586B0E0
:1017E00000AF7860396009F084FA1F4B1B683B61D9
:1017F0007B685B683A69D31AFB603B681B68B3F18E
:10180000FF3F02D100237B6126E07B681A68174BFB
:101810001B689A420AD07B685B683A699A4205D392
:1018200001237B613B6800221A6015E03B681B685E
:10183000FA689A420BD23B681A68FB68D21A3B6876
:101840001A607868FFF7B4FF00237B6104E03B680F
:1018500000221A6001237B6109F064FA7B69184653
:101860001837BD4680BD00BF24F6002038F60020A2
:1018700080B400AF034B01221A6000BFBD465DF883
:10188000047B704734F6002080B584B000AF7860E8
:1018900000F09EF8104B1B68012B07D90F4B4FF03F
:1018A00080521A60BFF34F8FBFF36F8F1CF04EFF53
:1018B000FFF788FAF860FB68042BE9D9FFF774FAA0
:1018C000FFF780FAF860FB68042B02D9F86809F08A
:1018D0009BFAFFF7B1FADBE74CF5002004ED00E0DE
:1018E00080B483B000AF01233B600123FB71134B35
:1018F0001B68002B02D00023FB7117E0104B1B6804
:10190000002B02D00023FB7110E00E4B1B68002B54
:1019100002D00023FB7109E00B4B1A680B4B1968CE
:101920003B68CB1A9A4201D10223FB71FB7918461E
:101930000C37BD465DF8047B704700BFE0F5002022
:1019400034F6002030F600200CF6002020F60020AF
:1019500080B582B000AF00237B600CE07A6813464C
:101960009B0013449B00124A1344184610F016F8CB
:101970007B6801337B607B68042BEFD90D4810F046
:101980000DF80D4810F00AF80C4810F007F80C4854
:1019900010F004F80B4810F001F80B4B054A1A60E0
:1019A0000A4B054A1A6000BF0837BD4680BD00BF1C
:1019B0004CF50020B0F50020C4F50020E0F5002033
:1019C000F4F500200CF60020D8F50020DCF500200E
:1019D00080B582B000AF19E009F08BF90F4BDB68DE
:1019E000DB687B607B680433184610F061F80C4BB1
:1019F0001B68013B0A4A13600A4B1B68013B094AFA
:101A0000136009F08FF9786800F00EF8054B1B6839
:101A1000002BE1D100BF0837BD4680BDF4F50020A2
:101A200020F6002008F6002080B582B000AF786074
:101A30007B681B6B184608F00BFF786808F008FFFE
:101A400000BF0837BD4680BD80B400AF0A4B1B689D
:101A50001B68002B04D1094B4FF0FF321A6005E0E0
:101A6000054B1B68DB681B68044A136000BFBD465A
:101A70005DF8047B704700BFD8F5002040F60020D9
:101A800080B483B000AF054B1B687B607B68184651
:101A90000C37BD465DF8047B704700BF48F5002059
:101AA00080B586B000AF78607B683B6100237B61C6
:101AB0007B68002B00F087803B69DA6A444B1B6827
:101AC000DB6A9A4276D23B699B69002B06DB404B6E
:101AD0001B68DB6AC3F105023B699A613B6959697E
:101AE0003B69DA6A13469B0013449B00394A13444E
:101AF000994257D13B69043318460FF0D9FF03468A
:101B0000002B0AD13B69DB6A012202FA03F3DA43B4
:101B1000314B1B681340304A13602D4B1B68DA6A47
:101B20003B69DA623B69DB6A01229A402A4B1B68F7
:101B30001343294A13603B69DA6A264913469B001E
:101B400013449B000B4404331B68FB603B69FA6839
:101B50009A60FB689A683B69DA60FB689B683A693F
:101B600004325A603B691A1DFB689A603B69DA6A65
:101B700013469B0013449B00164A1A443B695A6162
:101B80003B69DA6A134913469B0013449B000B44DC
:101B90001B68591C0F4813469B0013449B000344C9
:101BA000196004E00A4B1B68DA6A3B69DA620123B8
:101BB0007B6108E03B695A6C054B1B68DB6A9A4203
:101BC00001D201237B617B6918461837BD4680BD71
:101BD00048F500204CF5002028F6002080B586B09E
:101BE00000AF78607B683B6100237B617B68002BE2
:101BF0006CD03B699B6C5A1E3B699A643B69DA6AFC
:101C00003B695B6C9A4261D03B699B6C002B5DD158
:101C10003B69043318460FF04BFF0346002B0AD1F3
:101C20003B69DB6A012202FA03F3DA432A4B1B68A1
:101C30001340294A13603B695A6C3B69DA623B697D
:101C4000DB6AC3F105023B699A613B69DB6A0122E9
:101C50009A40214B1B6813431F4A13603B69DA6AA1
:101C60001E4913469B0013449B000B4404331B681E
:101C7000FB603B69FA689A60FB689A683B69DA60C6
:101C8000FB689B683A6904325A603B691A1DFB681D
:101C90009A603B69DA6A13469B0013449B000F4A23
:101CA0001A443B695A613B69DA6A0C4913469B0046
:101CB00013449B000B441B68591C084813469B00A7
:101CC00013449B000344196001237B617B69184620
:101CD0001837BD4680BD00BF28F600204CF5002017
:101CE00080B588B000AF786039607B68BB61012344
:101CF0007B617B68002B00F08180BB695B6C3A687C
:101D00009A4202D93B68FB6102E0BB695B6CFB61F4
:101D1000BB69DB6AFA699A4270D0BB699B6C7A69CD
:101D20009A426BD1BB69DB6A3B61BB69FA69DA62D3
:101D3000BB699B69002B04DBFB69C3F10502BB692E
:101D40009A61BB6959693A6913469B0013449B0029
:101D50002C4A1344994251D1BB69043318460FF001
:101D6000A7FE0346002B0AD1BB69DB6A012202FAF7
:101D700003F3DA43244B1B681340234A1360BB6907
:101D8000DB6A01229A40204B1B6813431E4A1360F2
:101D9000BB69DA6A1B4913469B0013449B000B4442
:101DA00004331B68FB60BB69FA689A60FB689A6839
:101DB000BB69DA60FB689B68BA6904325A60BB6928
:101DC0001A1DFB689A60BB69DA6A13469B001344CC
:101DD0009B000C4A1A44BB695A61BB69DA6A09491B
:101DE00013469B0013449B000B441B68591C054879
:101DF00013469B0013449B000344196000BF203727
:101E0000BD4680BD4CF5002028F6002080B483B08C
:101E100000AF094B1B689B697B60074B1B68DA6A44
:101E2000054B1B68C2F105029A617B6818460C37A6
:101E3000BD465DF8047B704748F5002080B400AFD4
:101E4000074B1B68002B04D0054B1B689A6C0132B2
:101E50009A64034B1B681846BD465DF8047B7047C7
:101E600048F5002080B586B000AFF860B9607A60B0
:101E700008F03FFF284B1A68FB6812339B0013449D
:101E80005B68002B15D1244B1A68FB681344503350
:101E900001221A707B68002B0BD00121786800F0BA
:101EA000FBFB1E4B4FF080521A60BFF34F8FBFF306
:101EB0006F8F08F037FF08F01CFF174B1A68FB689C
:101EC00012339B0013445B687B617B69002B14D049
:101ED000BB68002B08D0104B1A68FB6812339B00BC
:101EE000134400225A6008E00B4B19687B695A1EA4
:101EF000FB6812339B000B445A60074B1A68FB685F
:101F00001344503300221A7008F00CFF7B69184606
:101F10001837BD4680BD00BF48F5002004ED00E045
:101F200080B586B000AFF860B9607A603B6008F0B9
:101F3000E0FE344B1A68FB68134450331B78DBB265
:101F4000022B24D02F4B1A68FB6812339B001344DA
:101F50005968BB68DB431940FB6812339B0013448C
:101F60005960284B1A68FB681344503301221A70D9
:101F70003B6A002B0BD00121386A00F08DFB224B0D
:101F80004FF080521A60BFF34F8FBFF36F8F08F08E
:101F9000C9FE08F0AEFE3B68002B08D0194B1A684A
:101FA000FB6812339B0013445A683B681A60154B58
:101FB0001A68FB68134450331B78DBB2022B02D043
:101FC00000237B6110E00F4B1A68FB6812339B0003
:101FD000134459687B68DB431940FB6812339B004C
:101FE0001344596001237B61064B1A68FB68134454
:101FF000503300221A7008F095FE7B691846183796
:10200000BD4680BD48F5002004ED00E080B58AB0F3
:1020100000AFF860B9607A60FB7001237B62FB68F7
:102020003B6208F066FE3B6B002B07D03A6ABB6848
:1020300012339B0013445A683B6B1A603A6ABB68C0
:10204000134450331B78FB773A6ABB681344503310
:1020500002221A70FB78042B3FD801A252F823F019
:10206000DB2000017520000193200001AF2000015A
:10207000BF2000013A6ABB6812339B0013445A68C0
:102080007B681A43396ABB6812339B000B445A6061
:1020900024E03A6ABB6812339B0013445B685A1C05
:1020A000396ABB6812339B000B445A6016E03A6AE7
:1020B000BB6812339B0013447A685A600EE0FB7FC2
:1020C000022B07D03A6ABB6812339B0013447A682C
:1020D0005A6003E000237B6200E000BFFB7F012B1E
:1020E0006ED13B6A5B69BB613B6A9B683A6AD268A6
:1020F0009A603B6ADB683A6A92685A60BB695A68C0
:102100003B6A04339A4203D13B6ADA68BB695A607E
:102110003B6A00225A61BB691B685A1EBB691A6080
:102120003B6ADB6A01229A40294B1B681343284A09
:1021300013603B6ADA6A274913469B0013449B00ED
:102140000B4404331B687B613B6A7A699A607B6944
:102150009A683B6ADA607B699B683A6A04325A6023
:102160003B6A1A1D7B699A603B6ADA6A13469B00D8
:1021700013449B00174A1A443B6A5A613B6ADA6A65
:10218000144913469B0013449B000B441B68591CC5
:10219000104813469B0013449B0003441960FFF74B
:1021A00053FC3B6ADA6A0C4B1B68DB6A9A4207D91C
:1021B0000A4B4FF080521A60BFF34F8FBFF36F8FFF
:1021C00008F0B0FD7B6A18462837BD4680BD00BFC9
:1021D00028F600204CF5002048F5002004ED00E032
:1021E00080B48FB000AFF860B9607A60FB700123F3
:1021F0007B63FB683B63EFF311824FF0200383F3B3
:102200001188BFF36F8FBFF34F8FBA617B61BB69DA
:10221000FB623B6C002B07D03A6BBB6812339B0010
:1022200013445A683B6C1A603A6BBB6813445033D2
:102230001B7887F82B303A6BBB681344503302226B
:102240001A70FB78042B41D801A252F823F000BF8A
:10225000CD22000165220001832200019F2200019E
:10226000AF2200013A6BBB6812339B0013445A68DB
:102270007B681A43396BBB6812339B000B445A606E
:1022800025E03A6BBB6812339B0013445B685A1C11
:10229000396BBB6812339B000B445A6017E03A6BF2
:1022A000BB6812339B0013447A685A600FE097F8BA
:1022B0002B30022B07D03A6BBB6812339B001344C0
:1022C0007A685A6003E000237B6300E000BF97F860
:1022D0002B30012B40F08F804D4B1B68002B5ED1C3
:1022E0003B6B5B697B623B6B9B683A6BD2689A6025
:1022F0003B6BDB683A6B92685A607B6A5A683B6B4F
:1023000004339A4203D13B6BDA687B6A5A603B6BB9
:1023100000225A617B6A1B685A1E7B6A1A603B6BFB
:10232000DB6A01229A403B4B1B681343394A136016
:102330003B6BDA6A384913469B0013449B000B44FD
:1023400004331B683B623B6B3A6A9A603B6A9A684B
:102350003B6BDA603B6A9B683A6B04325A603B6BBA
:102360001A1D3B6A9A603B6BDA6A13469B00134462
:102370009B00294A1A443B6B5A613B6BDA6A264937
:1023800013469B0013449B000B441B68591C2248B6
:1023900013469B0013449B00034419601BE01F4B32
:1023A0005B68FB613B6BFA69DA61FB699A683B6BBE
:1023B0001A62FB699B683A6B18325A603B6B03F1F7
:1023C0001802FB699A603B6B144A9A62134B1B68B4
:1023D0000133124A13603B6BDA6A114B1B68DB6AEC
:1023E0009A4208D97B6C002B02D07B6C01221A60C8
:1023F0000C4B01221A60FB6A3B613B6983F3118835
:102400007B6B18463C37BD465DF8047B704700BFC8
:1024100048F6002028F600204CF50020E0F50020CA
:1024200048F5002034F6002080B48FB000AFF8608B
:10243000B9607A60FB687B63EFF311824FF0200391
:1024400083F31188BFF36F8FBFF34F8FFA61BB61C6
:10245000FB693B637A6BBB68134450331B7887F886
:102460002F307A6BBB681344503302221A707A6B98
:10247000BB6812339B0013445B685A1C796BBB68C2
:1024800012339B000B445A6097F82F30012B40F019
:102490008F804D4B1B68002B5ED17B6B5B69BB62F1
:1024A0007B6B9B687A6BD2689A607B6BDB687A6B1C
:1024B00092685A60BB6A5A687B6B04339A4203D1B4
:1024C0007B6BDA68BB6A5A607B6B00225A61BB6A1D
:1024D0001B685A1EBB6A1A607B6BDB6A01229A403A
:1024E0003A4B1B681343394A13607B6BDA6A3849ED
:1024F00013469B0013449B000B4404331B687B6210
:102500007B6B7A6A9A607B6A9A687B6BDA607B6A1B
:102510009B687A6B04325A607B6B1A1D7B6A9A60E7
:102520007B6BDA6A13469B0013449B00284A1A44CB
:102530007B6B5A617B6BDA6A254913469B00134417
:102540009B000B441B68591C214813469B001344F5
:102550009B00034419601BE01E4B5B683B627B6B76
:102560003A6ADA613B6A9A687B6B1A623B6A9B68DB
:102570007A6B18325A607B6B03F118023B6A9A60DF
:102580007B6B144A9A62134B1B680133114A136028
:102590007B6BDA6A104B1B68DB6A9A4208D97B684E
:1025A000002B02D07B6801221A600C4B01221A60BA
:1025B0003B6B7B617B6983F3118800BF3C37BD4671
:1025C0005DF8047B704700BF48F6002028F6002025
:1025D0004CF50020E0F5002048F5002034F60020FE
:1025E00080B584B000AF786039607B68002B02D181
:1025F000104B1B6800E07B68BB6008F07AFBBA6890
:102600003B68134450331B78DBB2022B08D1BA6805
:102610003B681344503300221A700123FB6001E031
:102620000023FB6008F07EFBFB6818461037BD46B0
:1026300080BD00BF48F5002080B586B000AFF860CF
:10264000B9607A60FB68002B02D1124B1B6800E076
:10265000FB687B6108F04DFB7A69BB6812339B0015
:1026600013445B683B617A69BB6812339B00134477
:102670005A687B68DB431A407969BB6812339B0058
:102680000B445A6008F04EFB3B6918461837BD46AC
:1026900080BD00BF48F5002080B586B000AF7860EF
:1026A0003960364B1B687B61354B1B680433184619
:1026B0000FF0FEF90346002B0BD1314B1B68DB6A90
:1026C000012202FA03F3DA432E4B1B6813402D4A12
:1026D00013607B68B3F1FF3F24D13B68002B21D00E
:1026E000294B5B683B61264B1B683A699A60244B17
:1026F0001B683A699268DA60214B1A683B699B68EB
:1027000004325A601E4B1B681A1D3B699A601C4BB1
:102710001B681D4A5A611C4B1B6801331A4A13601F
:1027200000BF26E07A697B681344FB60144B1B688A
:10273000FA685A60FA687B699A4209D2134B1A68A0
:102740000F4B1B680433194610460FF078F910E060
:102750000F4B1A680A4B1B680433194610460FF0DA
:102760006EF90C4B1B68FA689A4202D2094AFB6860
:10277000136000BF1837BD4680BD00BF24F600209F
:1027800048F5002028F600200CF60020DCF500209B
:10279000D8F5002040F6002080B582B000AF786008
:1027A00094220021786827F067FB7B6817229A80C3
:1027B00000BF0837BD4680BD80B485B000AF03467A
:1027C000FB800023FB731EE0FB7B144A942101FB7A
:1027D00003F3134492331B78012B11D1FB7B0F4A77
:1027E000942101FB03F3134402331B88FA889A42B5
:1027F00006D1FB7B942202FB03F3084A134406E054
:10280000FB7B0133FB73FB7B072BDDD900231846D1
:102810001437BD465DF8047B704700BF20EA0020F6
:1028200080B483B000AF0023FB7125E0FB79174A29
:10283000942101FB03F3134492331B78002B18D12E
:10284000FB79124A942101FB03F3134492330122D2
:102850001A70FB790D4A942101FB03F313440133F1
:10286000FA791A70FB79942202FB03F3074A1344A6
:1028700006E0FB790133FB71FB79072BD6D90023E6
:1028800018460C37BD465DF8047B704720EA0020EF
:1028900080B485B000AF78600B46FB707B68002287
:1028A0001A80FA7813461B019B1A5B00194A1A44D6
:1028B0007B685A600023FB7323E0F978FB7B1548A3
:1028C0001A4652001A4453001A460B461B015B1A63
:1028D0005B001344034400221A80F978FB7B0D4807
:1028E0001A4652001A4453001A460B461B015B1A43
:1028F0005B0013440344023300221A70FB7B013354
:10290000FB73FB7B042BD8D900BF1437BD465DF8A1
:10291000047B7047C0EE002080B584B000AF7860C3
:10292000FE2009F0BAF9F860FB68002B3BD07B6809
:102930005B7819461E4A0B461B015B1A5B00134469
:1029400018331A88FB681A80FB6802225A80FB68D9
:1029500001221A71FB6800225A71FB68122283F867
:10296000F820FB680022A3F8FA20FB68002283F815
:10297000FC207B685B88F968184622F0CDFD034691
:102980007B817B89002B07D17B680222DA717B680F
:10299000002283F8902003E07B68012283F89020D6
:1029A000F86809F086F900BF1037BD4680BD00BF4A
:1029B000C0EE002080B584B000AF7860FE2009F042
:1029C0006CF9F860FB68002B38D07B685B7819469F
:1029D0001C4A0B461B015B1A5B00134412331A8816
:1029E000FB681A80FB6801225A80FB6814221A7166
:1029F000FB68122283F8F820FB680022A3F8FA2073
:102A0000FB68002283F8FC207B685B88F968184625
:102A100022F082FD03467B817B89002B07D17B68F6
:102A20000322DA717B68002283F8902003E07B6840
:102A3000022283F89020F86809F03BF900BF1037B4
:102A4000BD4680BDC0EE002080B584B000AF786088
:102A5000FE2009F022F9F860FB68002B33D07B6878
:102A60005B7819461A4A0B461B015B1A5B0013443C
:102A700012331A88FB681A80FB6802225A80FB68AE
:102A800015221A717B685A7AFB685A71FB68122208
:102A900083F8F820FB680022A3F8FA20FB680022E4
:102AA00083F8FC207B685B88F968184622F034FDC7
:102AB00003467B817B89002B02D17B6800225A72FE
:102AC000F86809F0F6F800BF1037BD4680BD00BFBA
:102AD000C0EE002080B584B000AF78600B467B80EC
:102AE000FE2009F0DAF8F860FB68002B46D07B681E
:102AF0005B781946234A0B461B015B1A5B001344A3
:102B000006331A88FB681A80FB6802225A807B8889
:102B1000DAB2FB681A717B881B0A9BB2DAB2FB68D7
:102B20005A71FB68122283F8F820FB680022A3F890
:102B3000FA20FB68002283F8FC207B685B88F96838
:102B4000184622F0E9FC03467B817B89002B0ED1DD
:102B50007B88012B03D17B680422DA7102E07B6859
:102B60000522DA717B68002283F8902003E07B68FD
:102B7000032283F89020F86809F09BF800BF103713
:102B8000BD4680BDC0EE002080B584B000AF0346D6
:102B90000A46FB8013467B71FB881846FFF70CFE44
:102BA000F860FB68002B21D0FB689A797B7913438E
:102BB000DAB2FB689A71FB689B7903F00103002B82
:102BC00003D0F868FFF7A8FE10E0FB681B7843F01D
:102BD0001003DAB2FB681A70FB689B7903F00203FA
:102BE000002B03D00121F868FFF774FF00BF1037F6
:102BF000BD4680BD80B588B000AFF8600B467A60F6
:102C00007B81FB681B7B0F2B57D80023FB6107F1EF
:102C100010030C220021184627F02EF97B89184654
:102C200009F03BF8F861FB69002B0CD107233B74DA
:102C3000234B1B68002B3FD0214B1B6807F1100270
:102C40001046984739E07B891A467968F86926F07A
:102C5000F5FBFB685B7BFA680133DB0013447A8980
:102C60001A81FB685B7BFA680133DB001344FA6965
:102C7000DA60FB685B7B0133DAB2FB685A73FB688E
:102C80005B7B0F2B02D9FB6800225A73FB681B7B0E
:102C90000133DAB2FB681A7303233B74FB685B8869
:102CA000BB82074B1B68002B07D0054B1B6807F145
:102CB00010021046984700E000BF2037BD4680BD97
:102CC0001CEA002080B586B000AF786007F10C03E5
:102CD0000C220021184627F0CFF87B68DB79013BF6
:102CE000042B6ED801A252F823F000BF012D000181
:102CF000092D0001252D0001412D0001852D000128
:102D00007868FFF709FE78E07B680022DA717B685B
:102D10001B7863F07F03DAB27B681A707868FFF77C
:102D200049FE6AE07B680022DA717B689B7903F0D8
:102D30000203002B5CD001217868FFF7CBFE57E03F
:102D40007B680022DA717B681B7843F00103DAB2FA
:102D50007B681A707B6810225A727868FFF774FEDD
:102D6000284B1B68002B45D001233B737B685B8895
:102D70003B820123BB74234B1B6807F10C021046F6
:102D8000984737E07B680022DA717B681B7823F074
:102D90000103DAB27B681A701A4B1B68002B0CD047
:102DA00001233B737B685B883B820023BB74154B1C
:102DB0001B6807F10C02104698477B6800225A7284
:102DC0001BE07B689B7A002B16D07B6800229A72EE
:102DD0000C4B1B68002B0FD005233B737B685B8873
:102DE0003B82084B1B6807F10C021046984703E032
:102DF00000BF02E000BF00E000BF00BF1837BD46C3
:102E000080BD00BF1CEA002080B588B000AFF8602C
:102E1000B9601346FB8007F114030C220021184609
:102E200027F02AF8FB685B7819463C4A0B461B01E1
:102E30005B1A5B0013441B88FA889A4208D1BB686E
:102E40009988BB6806331A46F868FFF7D3FE61E03D
:102E5000FB685B781946314A0B461B015B1A5B0025
:102E6000134412331B88FA889A4253D1BB689B796A
:102E7000002B35D1BB68DB79142B4BD1FB681B7859
:102E800043F02003DAB2FB681A70BB681B7A9BB26E
:102E90001B029AB2BB68083301331B789BB2134400
:102EA0009AB2FB689A80FB681A7ABB689B7A1344D3
:102EB000DAB2FB681A721A4B1B68002B2AD0022365
:102EC0003B75FB685B883B832023BB76FB681B7AE2
:102ED000FB76134B1B6807F114021046984719E064
:102EE000BB689B791F2B15D90D4B1B68002B11D08C
:102EF00004233B75FB685B883B83BB689B88DBB224
:102F0000BB76BB680633FB61054B1B6807F11402F7
:102F10001046984700BF2037BD4680BDC0EE002058
:102F20001CEA002080B584B000AF78600023FB600D
:102F30007B681B78132B00F2F28001A252F823F079
:102F4000AF2F00011F3100011F3100011F310001AF
:102F50001F3100011F3100011F3100010930000144
:102F6000B93000011F3100011F3100011F31000184
:102F70001F3100011F310001912F00011F3100019D
:102F80001F3100011F3100011F310001DD30000140
:102F90007B689B881846FFF70FFCF860FB68002BE6
:102FA00000F0BF807B68DA88FB689A80B9E07B68B4
:102FB0009B881846FFF700FCF860FB68002B00F0C8
:102FC000B2807B689B79122B40F0AD807B689B7A46
:102FD000052B04D07B689B7A0F2B40F0A4807B6884
:102FE0001A89FB685B781846554903461B011B1A72
:102FF0005B000B4418331B889A4240F09480FB68B6
:10300000012283F891208EE07B689B881846FFF7A9
:10301000D3FBF860FB68002B00F087807B681A897F
:10302000FB685B781846464903461B011B1A5B0088
:103030000B441B889A423BD07B681A89FB685B78FB
:1030400018463F4903461B011B1A5B000B4406331D
:103050001B889A422CD07B681A89FB685B781846DB
:10306000374903461B011B1A5B000B440C331B88BA
:103070009A421DD07B681A89FB685B7818463049F4
:1030800003461B011B1A5B000B4412331B889A4238
:103090000ED07B681A89FB685B781846284903467E
:1030A0001B011B1A5B000B4418331B889A423ED14C
:1030B000F868FFF707FE38E07B689B881846FFF743
:1030C0007BFBF860FB68002B33D07B68191D7B68A5
:1030D000DB881A46F868FFF797FE2AE07B689B8832
:1030E0001846FFF769FBF860FB68002B11D0FB68FE
:1030F00093F89030002B0CD0FB6893F89020FB687D
:10310000DA71FB68002283F89020F868FFF7DAFD97
:1031100011E0FB68002B0ED000F040F80BE000BF80
:103120000AE000BF08E000BF06E000BF04E000BF07
:1031300002E000BF00E000BF00BF1037BD4680BD09
:10314000C0EE002080B483B000AF0023FB7118E014
:10315000FB79114A942101FB03F3134492331B784A
:10316000012B0BD1FB790C4A942101FB03F313448F
:1031700009331B780C2B01D9012306E0FB790133BD
:10318000FB71FB79072BE3D9002318460C37BD46AA
:103190005DF8047B704700BF20EA002080B582B054
:1031A00000AF0023FB711FE0FB79134A942101FB60
:1031B00003F3134492331B78012B12D1FB790E4A8F
:1031C000942101FB03F3134409331B780C2B08D91A
:1031D000FB79942202FB03F3074A13441846FFF7D6
:1031E00033FCFB790133FB71FB79072BDCD900BF82
:1031F0000837BD4680BD00BF20EA002080B584B0FE
:1032000000AF78600023FB607B681B78092B73D8C4
:1032100001A252F823F000BF413200015F320001E9
:10322000F9320001E5320001F9320001F932000102
:10323000F9320001F9320001F9320001DF320001F8
:103240007B689B78002B59D1FFF7EAFAF860FB689E
:10325000002B53D07B689A88FB685A804EE07B68CD
:103260005B881846FFF7A8FAF860FB68002B47D088
:103270002DE0FB689B7BFA680133DB001344DB68BD
:10328000002B11D0FB689B7BFA680133DB001344F1
:10329000DB68184608F00DFDFB689B7BFA6801337C
:1032A000DB0013440022DA60FB689B7B0133DAB257
:1032B000FB689A73FB689B7B0F2B02D9FB6800228B
:1032C0009A73FB681B7B013BDAB2FB681A73FB68DD
:1032D0001B7B002BCDD1F868FFF75EFA10E0FFF7FB
:1032E0005DFF10E07B681B79002B0BD17B685B884E
:1032F000184600F00CF805E000BF04E000BF02E053
:1033000000BF00E000BF00BF1037BD4680BD80B5E4
:1033100084B000AF0346FB80FB881846FFF74CFAE9
:10332000B8600023FB7320E0FB7B144A32F8333093
:10333000FA889A4216D1FB7B104ADB0013445B6883
:1033400012331B88002B14D0BB68002B11D0BB6834
:1033500093F89130012B0CD1FB8803211846FFF71D
:1033600013FC06E0FB7B0133FB73FB7B072BDBD9F4
:1033700000E000BF00BF1037BD4680BDB0EF0020A9
:1033800080B483B000AF7860044A7B68136000BFEC
:103390000C37BD465DF8047B704700BF1CEA002077
:1033A00090B58BB000AF002387F8273019E097F86D
:1033B0002730942202FB03F3184A13441846FFF700
:1033C000EBF997F82730DB00154A134497F82720CC
:1033D00011461846FFF75CFA97F82730013387F853
:1033E000273097F82730072BE1D910233B740D4B7A
:1033F0003C460FCB84E80F0000237B610A4BBB6186
:10340000074BFB61052387F820303B46184602F046
:1034100033F8034618462C37BD4690BD20EA0020FD
:10342000B0EF00202CED010178FD002080B586B0C2
:1034300000AF3B600346FB800B467B7113463B713C
:10344000FB881846FFF7B8F978617B69002B01D13A
:10345000012357E07B691B785BB2002B01DB012362
:1034600050E07B791F2B01D803234BE03A797B692D
:103470009B88043B9A4201D9032343E0FE2008F0D5
:103480000CFC38613B69002B3BD07B695B781946AB
:103490001E4A0B461B015B1A5B00134412331A8849
:1034A0003B691A803B799BB201339AB23B695A80DF
:1034B0003B697A791A713B6905333A79396818465C
:1034C00025F0BCFF3B69122283F8F8203B690022FB
:1034D000A3F8FA203B69002283F8FC207B695B8813
:1034E0003969184622F018F80346FB81FB89002B46
:1034F00002D17B6901229A72386908F0DAFBFB89F4
:1035000000E0022318461837BD4680BDC0EE0020FB
:1035100080B586B000AF03463A60FB800B46BB80A7
:10352000FB881846FFF748F978617B69002B01D1C9
:10353000012377E07B691B7803F02003002B05D083
:103540007B691B7A002B01D104236BE0FFF7FAFDA6
:103550000346002B01D0042364E0BA887B699B8872
:10356000033B9A4201D901235CE0FE2008F095FB61
:1035700038613B69002B01D1022353E07B691B7842
:1035800003F02003002B04D03B69522283F8F8207B
:103590000FE07B691B7803F01003002B04D03B691C
:1035A000122283F8F82004E0386908F082FB052332
:1035B00038E07B695B7819461C4A0B461B015B1A95
:1035C0005B0013440C331A883B691A803B69BA8844
:1035D0005A803B690433BA883968184625F02EFFB3
:1035E0003B690022A3F8FA203B69002283F8FC2003
:1035F000FB883969184621F08FFF0346FB81386943
:1036000008F057FBFB89002B0BD17B691B7803F07B
:103610002003002B05D07B691B7A013BDAB27B6962
:103620001A72FB8918461837BD4680BDC0EE0020CF
:1036300080B584B000AF03463960FB800023FB6097
:10364000FB881846FFF7B8F8F860FB68002B11D02C
:10365000FB681B7B002B09D0FB689B7BFA6801335E
:10366000DB0013441A893B681A8006E03B6800229D
:103670001A8002E03B6800221A8000BF1037BD4666
:1036800080BD80B584B000AF03463960FB80002365
:10369000FB60FB881846FFF78FF8F860FB68002B8B
:1036A0005AD0FB681B7B002B54D0FB689B7BFA68CD
:1036B0000133DB001344DB68002B23D0FB689B7BCA
:1036C000FA680133DB001344D968FB689B7BFA6816
:1036D0000133DB0013441B891A46386825F0AEFE1F
:1036E000FB689B7BFA680133DB001344DB681846F8
:1036F00008F0DFFAFB689B7BFA680133DB001344B8
:103700000022DA60FB689B7B0133DAB2FB689A73B4
:10371000FB689B7B0F2B02D9FB6800229A73FB6826
:103720001B7B013BDAB2FB681A73FB681B7803F062
:103730000103002B0CD0FB685B7A0133DAB2FB6823
:103740005A72FB685B7A0C2B02D9F868FFF77CF998
:10375000002302E0012300E0012318461037BD4694
:1037600080BD80B582B000AF78607B681B78012B8C
:1037700002D0042B06D00BE07B685B681846FFF78D
:103780003DFD05E07B685B681846FFF7CBFB00BF9B
:1037900000BF0837BD4680BD80B588B000AF7860F7
:1037A0007B681B78002B3DD10023FB7736E0FB7F45
:1037B0001F4A32F833207B685B889A422BD1FB7F0B
:1037C0001B4ADB0013445B6812331B88002B22D09A
:1037D000184B1B68002B0AD006233B737B685B8861
:1037E0003B82144B1B6807F10C02104698477B681C
:1037F0005B881846FEF7E0FFB861BB69002B0AD072
:10380000BB6993F89130002B05D17B685B8803215D
:103810001846FFF7B9F9FB7F0133FB77FB7F072BD6
:10382000C5D900E000BF00BF2037BD4680BD00BF46
:10383000B0EF00201CEA002080B584B000AF7860B3
:1038400039600123FB607B68BB60BB68002B5DD0E7
:10385000BB68DB6B002B59D0BB681A6CBB68DB6B99
:103860000021A3FB0223002B00D001210B46002BDB
:103870004CD107F03EFABB681A68BB68DB6BB968CD
:10388000096C01FB03F31A44BB689A60BB68002211
:103890009A63BB681A68BB685A60BB681A68BB68E1
:1038A000DB6B013BB968096C01FB03F31A44BB688D
:1038B000DA60BB68FF2283F84420BB68FF2283F8EC
:1038C00045203B68002B14D1BB681B69002B1AD024
:1038D000BB6810331846FDF7E9FD0346002B12D0F4
:1038E0000E4B4FF080521A60BFF34F8FBFF36F8FB4
:1038F00009E0BB68103318460EF050F8BB6824335B
:1039000018460EF04BF807F00DFA01E00023FB60BB
:10391000FB6818461037BD4680BD00BF04ED00E0CF
:1039200080B58AB002AFF860B9601346FB7100231E
:10393000FB61FB68002B2DD00021BA68FB68A3FB5C
:103940000223002B00D001210B46002B22D1FB6863
:10395000BA6802FB03F313F14D0F1BD8FB68BA687A
:1039600002FB03F3BB61BB694C33184606F0D2FE81
:10397000F861FB69002B0DD0FB697B617B694C33DF
:103980007B61FA79FB69009313467A69B968F86834
:1039900000F005F8FB6918462037BD4680BD80B5AC
:1039A00084B000AFF860B9607A60FB70BB68002B30
:1039B00003D1BB69BA691A6002E0BB697A681A6010
:1039C000BB69FA68DA63BB69BA681A640121B8692D
:1039D000FFF732FFBB6900229A6400BF1037BD4673
:1039E00080BD80B582B000AF78607B68002B0ED0C0
:1039F0007B6800229A607B6800221A607B68002244
:103A0000DA60002300220021786800F03BF800BF54
:103A10000837BD4680BD80B586B000AF0346FB7158
:103A200001237B6100233B61FB791A463969786980
:103A3000FFF776FFF860F868FFF7D3FFFB681846DA
:103A40001837BD4680BD80B584B000AF786039605E
:103A50000023FB607B68002B0FD03A687B689A429A
:103A60000BD8022200217868FFF75AFFF860FB6844
:103A7000002B02D0FB683A689A63FB68184610373F
:103A8000BD4680BD80B58AB000AFF860B9607A608D
:103A90003B6000237B62FB683B6207F02AF93B6ACC
:103AA0009A6B3B6ADB6B9A4202D33B68022B45D18F
:103AB0003B6A9B6BFB613A68B968386A00F08AFC24
:103AC000B8613B6A9B6C002B14D03B68022B02D17F
:103AD000FB69002B2ED1386A00F040FE0346002B14
:103AE00028D04A4B4FF080521A60BFF34F8FBFF37C
:103AF0006F8F1FE03B6A5B6A002B10D03B6A243358
:103B00001846FDF7D3FC0346002B13D03F4B4FF074
:103B100080521A60BFF34F8FBFF36F8F0AE0BB690B
:103B2000002B07D0394B4FF080521A60BFF34F8FF4
:103B3000BFF36F8F07F0F6F8012363E07B68002B7B
:103B400003D107F0EFF800235CE07B6A002B06D17D
:103B500007F110031846FDF72BFE01237B6207F0E7
:103B6000E1F8FDF721F907F0C4F83B6A93F8443017
:103B70005BB2B3F1FF3F03D13B6A002283F84420DC
:103B80003B6A93F845305BB2B3F1FF3F03D13B6A28
:103B9000002283F8452007F0C5F83A1D07F110030D
:103BA00011461846FDF71AFE0346002B24D1386A49
:103BB00000F02BFD0346002B18D03B6A10337A68C7
:103BC00011461846FDF724FC386A00F093FCFDF717
:103BD00033F90346002B7FF460AF0C4B4FF080525B
:103BE0001A60BFF34F8FBFF36F8F56E7386A00F04C
:103BF00081FCFDF721F950E7386A00F07BFCFDF706
:103C00001BF9002318462837BD4680BD04ED00E0AF
:103C100080B58EB000AFF860B9607A603B60FB6839
:103C20003B63EFF311824FF0200383F31188BFF35E
:103C30006F8FBFF34F8FFA61BB61FB69FB623B6B18
:103C40009A6B3B6BDB6B9A4202D33B68022B4ED1E3
:103C50003B6B93F8453087F82B303B6B9B6B7B625B
:103C60003A68B968386B00F0B5FB97F92B30B3F1BF
:103C7000FF3F29D13B6B9B6C002B12D03B68022B82
:103C800002D17B6A002B2FD1386B00F067FD034611
:103C9000002B29D07B68002B26D07B6801221A607C
:103CA00022E03B6B5B6A002B1ED03B6B2433184633
:103CB000FDF7FCFB0346002B16D07B68002B13D0CE
:103CC0007B6801221A600FE0FDF7C4F9386297F9AA
:103CD0002B303A6A9A4207D997F82B300133DBB27E
:103CE0005AB23B6B83F8452001237B6301E000233C
:103CF0007B63FB6A7B617B6983F311887B6B18466E
:103D00003837BD4680BD80B58CB000AF7860396073
:103D10007B68BB62EFF311824FF0200383F31188BD
:103D2000BFF36F8FBFF34F8F7A613B617B697B621B
:103D3000BB6A9B6B3B62BB6ADB6B3A6A9A4242D2BC
:103D4000BB6A93F84530FB773B6A5A1CBB6A9A639F
:103D500097F91F30B3F1FF3F23D1BB6A9B6C002B57
:103D60000CD0B86A00F0FAFC0346002B28D03B6860
:103D7000002B25D03B6801221A6021E0BB6A5B6AF8
:103D8000002B1DD0BB6A24331846FDF78FFB03467A
:103D9000002B15D03B68002B12D03B6801221A6023
:103DA0000EE0FDF757F9B86197F91F30BA699A42EA
:103DB00006D9FB7F0133DBB25AB2BB6A83F84520D8
:103DC0000123FB6201E00023FB627B6AFB60FB686E
:103DD00083F31188FB6A18463037BD4680BD80B535
:103DE0008AB000AFF860B9607A6000237B62FB683C
:103DF0003B6206F07EFF3B6A9B6BFB61FB69002B1D
:103E00001FD0B968386A00F04FFBFB695A1E3B6A45
:103E10009A633B6A1B69002B0FD03B6A103318462C
:103E2000FDF744FB0346002B07D03D4B4FF080527B
:103E30001A60BFF34F8FBFF36F8F06F073FF01233C
:103E400069E07B68002B03D106F06CFF002362E081
:103E50007B6A002B06D107F114031846FDF7A8FC76
:103E600001237B6206F05EFFFCF79EFF06F041FF38
:103E70003B6A93F844305BB2B3F1FF3F03D13B6A36
:103E8000002283F844203B6A93F845305BB2B3F1DB
:103E9000FF3F03D13B6A002283F8452006F042FF32
:103EA0003A1D07F1140311461846FDF797FC034627
:103EB000002B23D1386A00F07CFB0346002B17D07F
:103EC0003B6A24337A6811461846FDF7A1FA386A2E
:103ED00000F010FBFCF7B0FF0346002B89D1104B1C
:103EE0004FF080521A60BFF34F8FBFF36F8F80E7A0
:103EF000386A00F0FFFAFCF79FFF7AE7386A00F0B3
:103F0000F9FAFCF799FF386A00F053FB0346002BDF
:103F10003FF46FAF002318462837BD4680BD00BF71
:103F200004ED00E080B58AB000AF7860396000230E
:103F30007B627B68FB6100233B6206F0DAFEFB6973
:103F40009B6BBB61BB69002B24D0BB695A1EFB690C
:103F50009A63FB691B68002B04D1FDF76FFF0246D3
:103F6000FB699A60FB691B69002B0FD0FB6910335A
:103F70001846FDF79BFA0346002B07D04C4B4FF039
:103F800080521A60BFF34F8FBFF36F8F06F0CAFEE7
:103F9000012389E03B68002B03D106F0C3FE002318
:103FA00082E07B6A002B06D107F10C031846FDF76F
:103FB000FFFB01237B6206F0B5FEFCF7F5FE06F081
:103FC00098FEFB6993F844305BB2B3F1FF3F03D135
:103FD000FB69002283F84420FB6993F845305BB20B
:103FE000B3F1FF3F03D1FB69002283F8452006F0BF
:103FF00099FE3A4607F10C0311461846FDF7EEFB11
:104000000346002B32D1F86900F0D3FA0346002BA7
:1040100026D0FB691B68002B09D106F06AFEFB69FC
:104020009B681846FDF73CFD386206F07BFEFB6995
:1040300024333A6811461846FDF7EAF9F86900F0AA
:1040400059FAFCF7F9FE0346002B7FF476AF184BC4
:104050004FF080521A60BFF34F8FBFF36F8F6CE742
:10406000F86900F047FAFCF7E7FE66E7F86900F048
:1040700041FAFCF7E1FEF86900F09BFA0346002BD9
:104080003FF45BAF3B6A002B0DD006F032FEF869BF
:1040900000F088F97861FB699B6879691846FDF73B
:1040A0001FFE06F03FFE002318462837BD4680BDA0
:1040B00004ED00E080B58AB000AFF860B9607A60C6
:1040C00000237B62FB683B6206F013FE3B6A9B6B3E
:1040D000FB61FB69002B21D03B6ADB68BB61B968DF
:1040E000386A00F0E1F93B6ABA69DA603B6A5B6AF8
:1040F000002B0FD03B6A24331846FDF7D7F903464F
:10410000002B07D03C4B4FF080521A60BFF34F8F0B
:10411000BFF36F8F06F006FE012369E07B68002B7A
:1041200003D106F0FFFD002362E07B6A002B06D17D
:1041300007F110031846FDF73BFB01237B6206F0F5
:10414000F1FDFCF731FE06F0D4FD3B6A93F84430F4
:104150005BB2B3F1FF3F03D13B6A002283F84420F6
:104160003B6A93F845305BB2B3F1FF3F03D13B6A42
:10417000002283F8452006F0D5FD3A1D07F1100313
:1041800011461846FDF72AFB0346002B23D1386A57
:1041900000F00FFA0346002B17D03B6A24337A68ED
:1041A00011461846FDF734F9386A00F0A3F9FCF718
:1041B00043FE0346002B87D10F4B4FF080521A600D
:1041C000BFF34F8FBFF36F8F7EE7386A00F092F92D
:1041D000FCF732FE78E7386A00F08CF9FCF72CFE29
:1041E000386A00F0E6F90346002B3FF46DAF002378
:1041F00018462837BD4680BD04ED00E080B58EB07E
:1042000000AFF860B9607A60FB683B63EFF311823E
:104210004FF0200383F31188BFF36F8FBFF34F8FED
:10422000FA61BB61FB69FB623B6B9B6BBB62BB6A68
:10423000002B37D03B6B93F8443087F82730B968B0
:10424000386B00F031F9BB6A5A1E3B6B9A6397F9E1
:104250002730B3F1FF3F12D13B6B1B69002B1ED0FF
:104260003B6B10331846FDF721F90346002B16D09F
:104270007B68002B13D07B6801221A600FE0FCF7EB
:10428000E9FE386297F927303A6A9A4207D997F8D7
:1042900027300133DBB25AB23B6B83F84420012351
:1042A0007B6301E000237B63FB6A7B617B6983F3B3
:1042B00011887B6B18463837BD4680BD80B58AB003
:1042C00000AF786039607B683B62EFF311824FF09A
:1042D000200383F31188BFF36F8FBFF34F8F7A6191
:1042E0003B617B69FB613B6A9B6B002B0CD03B6A9B
:1042F000DB68BB613968386A00F0D6F83B6ABA6996
:10430000DA6001237B6201E000237B62FB69FB60D2
:10431000FB6883F311887B6A18462837BD4680BD49
:1043200080B584B000AF786006F0E3FC7B689B6BDF
:10433000FB6006F0F7FCFB6818461037BD4680BDF1
:1043400080B584B000AF78607B68FB6006F0D1FC7C
:10435000FB68DA6BFB689B6BD31ABB6006F0E2FC70
:10436000BB6818461037BD4680BD80B485B000AF2D
:1043700078607B68FB60FB689B6BBB60BB68184622
:104380001437BD465DF8047B704780B584B000AF3C
:1043900078607B68FB60F86806F05AFA00BF103757
:1043A000BD4680BD80B485B000AF78607B685B6A35
:1043B000002B06D07B681B6B1B68C3F10503FB60F9
:1043C00001E00023FB60FB6818461437BD465DF82A
:1043D000047B704780B586B000AFF860B9607A6042
:1043E00000237B61FB689B6B3B61FB681B6C002BB4
:1043F0000DD1FB681B68002B4DD1FB689B681846EC
:10440000FDF7ECFB7861FB6800229A6043E07B6873
:10441000002B19D1FB685868FB681B6C1A46B968F9
:1044200025F00CF8FB685A68FB681B6C1A44FB68A3
:104430005A60FB685A68FB689B689A422BD3FB68FA
:104440001A68FB685A6026E0FB68D868FB681B6C3A
:104450001A46B96824F0F2FFFB68DA68FB681B6C47
:104460005B421A44FB68DA60FB68DA68FB681B6829
:104470009A4207D2FB689A68FB681B6C5B421A443D
:10448000FB68DA607B68022B05D13B69002B02D008
:104490003B69013B3B613B695A1CFB689A637B6942
:1044A00018461837BD4680BD80B582B000AF786031
:1044B00039607B681B6C002B18D07B68DA687B68DE
:1044C0001B6C1A447B68DA607B68DA687B689B68DF
:1044D0009A4203D37B681A687B68DA607B68D96884
:1044E0007B681B6C1A46386824F0A8FF00BF0837A9
:1044F000BD4680BD80B584B000AF786006F0F9FBA2
:104500007B6893F84530FB731EE07B689B6C002B47
:1045100008D0786800F022F90346002B10D0FDF790
:10452000A7F90DE07B685B6A002B12D07B6824330F
:104530001846FCF7BBFF0346002B01D0FDF798F9A6
:10454000FB7B013BDBB2FB7397F90F30002BDCDC0C
:1045500000E000BF7B68FF2283F8452006F0E2FB05
:1045600006F0C7FB7B6893F84430BB7311E07B68AF
:104570001B69002B12D07B6810331846FCF796FF9E
:104580000346002B01D0FDF773F9BB7B013BDBB287
:10459000BB7397F90E30002BE9DC00E000BF7B68AD
:1045A000FF2283F8442006F0BDFB00BF1037BD4654
:1045B00080BD80B584B000AF786006F09AFB7B6860
:1045C0009B6B002B02D10123FB6001E00023FB6009
:1045D00006F0A8FBFB6818461037BD4680BD80B4C6
:1045E00085B000AF78607B68BB60BB689B6B002BBD
:1045F00002D10123FB6001E00023FB60FB68184649
:104600001437BD465DF8047B704780B584B000AFB9
:10461000786006F06EFB7B689A6B7B68DB6B9A4276
:1046200002D10123FB6001E00023FB6006F07AFB6E
:10463000FB6818461037BD4680BD80B485B000AF1A
:1046400078607B68BB60BB689A6BBB68DB6B9A4227
:1046500002D10123FB6001E00023FB60FB681846E8
:104660001437BD465DF8047B704780B584B000AF59
:104670007860002204217868FFF752F9F860FB683F
:1046800018461037BD4680BD80B584B000AF786055
:10469000396006F02EFB7B689B6C002B02D0002358
:1046A000FB600BE07B689B6B002B02D00023FB6060
:1046B00004E07B683A689A640123FB6006F032FBF1
:1046C000FB6818461037BD4680BD80B584B000AF8A
:1046D000786039607B68BB60BB689B6C3A689A42C3
:1046E00002D00023FB600FE0BB689B6B002B02D065
:1046F0000023FB6008E006F0FCFABB6800229A6425
:1047000006F010FB0123FB60FB6818461037BD461E
:1047100080BD80B584B000AF786039600023FB6055
:1047200007F10C033A6819467868FFF758FBFB68F5
:1047300018461037BD4680BD80B584B000AF7860A4
:104740000023FB6007F10C03002219467868FFF78D
:1047500055FDFB6818461037BD4680BD80B586B054
:1047600000AF78607B689B6C3B6100237B613B6999
:104770009A6B3B69DB6B9A422DD23B6993F84530CB
:10478000FB733B1D002219463869FFF723FE786151
:1047900097F90F30B3F1FF3F0ED13B695B6A002BF5
:1047A00019D03B6924331846FCF780FE0346002BE2
:1047B00011D001237B610EE0FCF74CFCB86097F947
:1047C0000F30BA689A4206D9FB7B0133DBB25AB28A
:1047D0003B6983F845207B6918461837BD4680BD84
:1047E00080B584B000AF78607B681B68002B04D074
:1047F0007B681B68184607F05CFA0023FB7319E01E
:10480000104B1B68FA7B53F822307A689A420ED11B
:104810000C4B1B68FA7B53F82230184607F049FA14
:10482000084B1B68FA7B002143F8221005E0FB7B54
:104830000133FB73FB7B072BE2D900BF1037BD466A
:1048400080BD00BF58FA0020B0B582B000AF002391
:10485000FB7130E01C4B1B68FA7953F82230002BB7
:1048600026D1194B1C68FD79102007F016FA034673
:1048700044F82530144B1B68FA7953F82230002B8A
:1048800010D0114B1B68FA7953F822301022002106
:10489000184625F0F1FA0C4B1B68FA7953F82230D0
:1048A000FA799A72084B1B68FA7953F8223006E0BD
:1048B000FB790133FB71FB79072BCBD90023184619
:1048C0000837BD46B0BD00BF58FA002080B485B09F
:1048D00000AF0346FB800023FB731FE0144B1B68F3
:1048E000FA7B53F82230002B15D0114B1B68FA7B52
:1048F00053F822301B89FA889A420CD10C4B1B6862
:10490000FA7B53F82230FA7B9A72094B1B68FA7BC8
:1049100053F8223006E0FB7B0133FB73FB7B072B54
:10492000DCD9002318461437BD465DF8047B704778
:1049300058FA002080B584B000AF7860094B1B683E
:10494000002B0AD000233B737B681B89FB81054B3E
:104950001B6807F10C021046984700BF1037BD4690
:1049600080BD00BF54FA002080B588B000AF7860E9
:104970003A4B1A687B681B7B19460B46DB000B44DD
:104980009B0013443C331A687B689B7ADB0013441A
:104990005A687B685A607B685868304B1A687B6835
:1049A0001B7B19460B46DB000B449B001344403332
:1049B0001B781A4613465B0013445B001A4600211D
:1049C00025F05AFA7B681B6808220021184625F05A
:1049D00053FA01233B814FF6FF737B811F4B1A680B
:1049E0007B681B7B19460B46DB000B449B00134482
:1049F00030331B783B73194B1A687B681B7B194655
:104A00000B46DB000B449B002033D018134B1A6875
:104A10007B681B7B19460B46DB000B449B00134451
:104A200030331B781A4607F1080305330146184650
:104A300024F004FD7B681B8907F108021146184623
:104A400020F04EFD0346072B03D17B681B6806222E
:104A50005A7100BF2037BD4680BD00BF58FA002004
:104A600080B582B000AF78607B681B7B0133DAB21F
:104A70007B681A737B681A7B094B1B6893F8F830C4
:104A80009A4203D27868FFF76FFF05E07B68002247
:104A90005A737868FFF74EFF00BF0837BD4680BDE8
:104AA00058FA002080B584B000AF786000237B8185
:104AB000224B1A687B681B7B19460B46DB000B44B4
:104AC0009B00134438331B68FB6000237B7221E09A
:104AD000FB681B681B7903F00103002B14D07B6873
:104AE00018897B681B6819887B681B685B881A4675
:104AF0001FF086F80346072B03D17B681B6804224E
:104B00005A7101237B8114E07B7A01337B72FB684D
:104B10000433FB60094B1A687B681B7B19460B4604
:104B2000DB000B449B00134440331B787A7A9A4293
:104B3000CED37B8918461037BD4680BD58FA002079
:104B400090B587B000AF7860396000237B823B6806
:104B50009B79152B02D110237B748FE002237B7489
:104B60008CE07B8A05333A6813440A33FB600023E8
:104B70003B74474B1A687B681B7B19460B46DB006E
:104B80000B449B00134438331B687B6161E07B69F5
:104B90001B681B7903F00103002B54D17B691B6850
:104BA0001B681B7C7A7C9A424DD17B691B681B6811
:104BB00018467B7C1A46F96824F032FC0346002B29
:104BC00041D17B8A3A6813449B7A98B27B8A3A68CF
:104BD00013440A3301331B789BB21B0299B27B68E2
:104BE0005C683A7C13465B0013445B002344421824
:104BF00092B29A807B8A03333A6813449B7A98B2C4
:104C00007B8A03333A6813440A3301331B789BB21F
:104C10001B0299B27B685C683A7C13465B001344C4
:104C20005B002344421892B21A807B8A991C7B68ED
:104C300058683A7C13465B0013445B0003443A68AF
:104C40000A44927A9A703B7C01333B747B6904334B
:104C50007B610F4B1A687B681B7B19460B46DB0098
:104C60000B449B00134440331B783A7C9A428ED30A
:104C70003B689B799AB27B8A13447B823B681B8991
:104C80007A8A9A42FFF46DAF00BF1C37BD4690BDD3
:104C900058FA002090B587B000AF786039600023E3
:104CA0007B820223FB8171E07B8A02333A681344E2
:104CB0000A33BB6000233B82394B1A687B681B7B3D
:104CC00019460B46DB000B449B00134438331B682A
:104CD0007B6145E07B691B681B7903F00103002BB6
:104CE00038D07B6859683A8A13465B0013445B00EE
:104CF0000B441B88002B2DD17B691B681B681B7C18
:104D00009BB2FA899A4225D17B691B681B681846B9
:104D1000FB891A46B96824F083FB0346002B19D19E
:104D20007B8A3A6813449B7A98B27B8A3A68134428
:104D30000A3301331B789BB21B0299B27B685C6813
:104D40003A8A13465B0013445B002344421892B234
:104D50001A8015E03B8A01333B827B6904337B6117
:104D60000F4B1A687B681B7B19460B46DB000B4414
:104D70009B00134440331B789BB23A8A9A42A9D3D2
:104D80007A8AFB8913449BB202337B823B681B897E
:104D90007A8A9A4288D300BF1C37BD4690BD00BFB7
:104DA00058FA002080B588B000AF786039603B6861
:104DB0001B78012B00F08B80032B00F0A180002BCF
:104DC00040F028813B689B78002B40F02581FFF75D
:104DD0003BFDB861BB69002B00F01E813B689A88DF
:104DE000BB691A81BB6900221A733B689A79BB6957
:104DF000DA72082006F051FF0246BB691A600023F0
:104E0000FB7713E0894B1968FA7F1346DB001344E4
:104E10009B000B443C331A68BB699B7ADB0013444C
:104E20003A6892881A80FB7F0133FB777F4B1B68BF
:104E300093F8F830FA7F9A42E4D3BB691B68002BE1
:104E400039D0BB691B6808220021184625F014F8E8
:104E50007B681B7803F00803DBB2002B23D17B684F
:104E60001B7803F00203DBB2002B03D0BB69DB7AB3
:104E7000002B0AD07B681B7803F00403DBB2002B05
:104E800019D0BB69DB7A012B15D17B681B7803F045
:104E90000103DBB2002B0ED1BB6901225A73B86942
:104EA000FFF762FD07E07A6813786FF3C3031370AE
:104EB000BB6901229A7302233B73BB691B89FB8187
:104EC0005B4B1B6807F10C0210469847A4E03B6857
:104ED0005B881846FFF7FAFC78617B69002B00F0CD
:104EE0009D807869FFF77CFC03233B723B685B88FD
:104EF0007B814F4B1B6807F10802104698478DE0F5
:104F00003B681B79002B40F08B803B685B88184620
:104F1000FFF7DCFC38613B69002B00F081803B69C6
:104F20001B68002B41D03B691B689B79002B3CD050
:104F30003B691B689B79062B03D13869FFF714FD89
:104F40002EE03B691B689B79082B12D13B691889BD
:104F50003B691B6819883B691B685B881A461EF011
:104F60002DFE0346072B1BD13B691B6808225A7193
:104F700016E03B691B689B79042B11D13B691889AA
:104F80003B691B6819883B691B685B881A461EF0E1
:104F900037FE0346072B03D13B691B6804225A7175
:104FA0003B691B6800229A713AE07B681B7803F02A
:104FB0000103DBB2002B33D01C4B1B6893F8F83095
:104FC000002B2DD03B691B68002B29D03B699B7BB4
:104FD00083F00103DBB2002B22D07B681B7803F047
:104FE0000203DBB2002B03D03B69DB7A002B0AD033
:104FF0007B681B7803F00403DBB2002B10D03B6905
:10500000DB7A012B0CD13B6901225A733869FFF717
:10501000ABFC05E000BF04E000BF02E000BF00E021
:1050200000BF00BF2037BD4680BD00BF58FA00203A
:1050300054FA002080B58AB000AF78607B681B7896
:10504000132B00F2B58101A252F823F09D5000010C
:10505000B1530001735100016B520001BD520001B8
:10506000B1530001B1530001B1530001B15300012C
:10507000B1530001B1530001B1530001B15300011C
:10508000B1530001B1530001B1530001B15300010C
:10509000B1530001B1530001FF5200017B689B88AE
:1050A0001846FFF713FC78627B6A002B00F08281C0
:1050B0007B6A5B7B83F00103DBB2002B40F07C81D9
:1050C0007B689B7A0F2B03D07B689B7A052B15D1CD
:1050D0007B6A1B687A6892799A71A54B1B68002BD2
:1050E00000F06C8101233B727B6A1B897B81A04BA2
:1050F0001B6807F10802104698475FE17B689B79BF
:10510000062B1CD17B6A1B681B79002B13D07B6A92
:1051100018897B6A1B6819887B6A1B685B881A463A
:105120001EF04CFD0346072B40F044817B6A1B6850
:1051300008225A713EE1786AFFF792FC3AE17B68F7
:105140009B79082B0CD1786AFFF7ACFC03467B8473
:105150007B8C002B40F02E81786AFFF781FC29E1DF
:105160007B689B79042B40F02581786AFFF778FCF7
:1051700020E17B689B881846FFF7A8FBF861FB6974
:105180005B7B83F00103DBB2002B40F01981FB69EC
:10519000002B00F017817B681B7A99B27B6808337B
:1051A00001331B789BB21B029AB2FB691B680A444D
:1051B00092B21A807B689B7A99B27B680A3301337A
:1051C0001B789BB21B029AB2FB691B680A4492B21D
:1051D0005A80684B1A68FB691B7B19460B46DB003B
:1051E0000B449B00134434331B68002B1FD0FB6916
:1051F0001A68604B1968FB691B7B18460346DB0085
:1052000003449B000B4434331B6812881A80FB69EB
:105210001A68584B1968FB691B7B18460346DB006C
:1052200003449B000B4434331B6852885A80FB694B
:105230001B6801221A717B6893F8FE30012B40F045
:10524000C180FB691889FB691B681988FB691B68A9
:105250005B881A461EF0B2FC0346072B40F0B28072
:10526000FB691B6808225A71ACE07B689B88184672
:10527000FFF72CFBB861BB695B7B83F00103DBB2FA
:10528000002B40F0A180BB69002B00F09F80796863
:10529000B869FFF755FC7B6893F8FF30012B40F0AD
:1052A0009580B869FFF7FEFB0346FB82FB8A002B63
:1052B00040F08C80B869FFF7D3FB87E07B689B8860
:1052C0001846FFF703FB38613B695B7B83F0010302
:1052D000DBB2002B7CD13B69002B7BD07B681B8928
:1052E000002B03D079683869FFF7D4FC7B6893F80A
:1052F000FF30012B6ED13869FFF7B2FB6AE07B68A3
:105300009B881846FFF7E2FAF860FB685B7B83F046
:105310000103DBB2002B5FD1FB68002B5ED0FB6882
:105320001B685B79062B07D1FB681B6800225A714A
:10533000F868FFF719FB51E0FB681B685B79082BE5
:105340001AD1FB681B6800225A71FB681889FB6838
:105350001B681988FB681B685B881A461EF02EFCC8
:105360000346072B3AD1FB681B6808225A7135E0C7
:1053700054FA002058FA0020FB681B685B79042B64
:105380002CD1FB681B6800225A71FB681889FB68E6
:105390001B681988FB681B685B881A461EF030FC86
:1053A0000346072B1AD1FB681B6804225A7115E0CB
:1053B00000BF14E000BF12E000BF10E000BF0EE02D
:1053C00000BF0CE000BF0AE000BF08E000BF06E03D
:1053D00000BF04E000BF02E000BF00E000BF2837CC
:1053E000BD4680BD80B582B000AF1A4B1B68002B54
:1053F0000BD1FC2006F051FC0246164B1A60154BEF
:105400001B68002B19D100231FE00023FB7111E062
:10541000104B1B68FA7953F82230002B07D00D4B44
:105420001B68FA7953F822301846FFF7D9F9FB794F
:105430000133FB71FB79072BEAD9064B1B68FC2271
:105440000021184624F018FD012318460837BD46F0
:1054500080BD00BF58FA002080B483B000AF7860F0
:10546000044A7B68136000BF0C37BD465DF8047BBF
:10547000704700BF54FA002080B582B000AF78605A
:10548000144B1B6893F8F830052B1DD8114B1A6884
:10549000104B1B6893F8F83019460B46DB000B44A1
:1054A0009B002033134424227968184623F0C6FF5A
:1054B000084B1B6893F8F820064B1B680132D2B2E8
:1054C00083F8F820002300E0012318460837BD4682
:1054D00080BD00BF58FA002080B582B000AF786070
:1054E00039603B681B78012B02D0042B0AD010E0F6
:1054F0007B68002B0CD03B685B6819467868FFF727
:1055000051FC05E03B685B681846FFF793FD00E03F
:1055100000BF00BF0837BD4680BD80B584B000AF76
:105520000346FB80FB881846FFF7D0F9F860FB685C
:10553000002B17D0FB681B68002B11D0FB681B6881
:1055400008220021184624F097FCFB6800221A73F9
:10555000FB6801225A73F868FFF706FA002302E09D
:10556000022300E0032318461037BD4680BD00BF6C
:1055700008B5044B186818B1804780F00100C0B22C
:1055800008BD00BFF0EF002009B91046704780B198
:10559000037883EA122383EA131343EA022282EA9E
:1055A000033282EA431292B200B10130013989B26A
:1055B000EAE7FF23EDE72DE9F04F85B081460E9E27
:1055C0008A46904606B11E4443449CB2474655461F
:1055D000A74203D1012005B0BDE8F08F95B36A461C
:1055E00010232946484606F09BFBBDF80420944250
:1055F00008D9BDF8063013449BB29F4202D29C42A8
:1056000003D91F46BDF80A50E8E79742A4EB020110
:1056100028BFE31B89B234BF0B469BB2A4EB030443
:1056200032BFBDF80AB04746D346A4B246B11035E2
:105630002944F61AC91A324689B2484606F070FB68
:105640005D46C5E72846C6E72DE9F74FD48896881A
:10565000DFF8588082468B4644F307254FF6FF77E4
:10566000002D03DA384603B0BDE8F08F1AD0A4F558
:1056700080741FFA84F94FF48074CDF800802346BB
:10568000324659465046FFF796FF38B13A46214612
:105690004046FFF779FF2644B6B20746013D6DB29A
:1056A0004C46DDE7002CDDD0A146E6E7F4EF002014
:1056B00010B5094C94F8040106F0D0FB4FF40052E9
:1056C000002194F8040106F0F3FB18B14FF4807345
:1056D000A4F8063110BD00BFF0EF00202DE9F04125
:1056E000094C05460E46174613460A46014694F8ED
:1056F000040106F04BFB3B463246294694F8040170
:10570000BDE8F04106F022BCF0EF002003292CD8C0
:10571000DFE801F002091B23184BB3F806211044FF
:10572000A3F806017047154AB2F80631184480B252
:10573000C11C4FF6FC730B40984203D90430A2F809
:1057400006017047A2F8063170470C4AB2F80631DC
:105750000F33184420F00F00F1E7084AB2F8063181
:105760003F33184420F03F00E9E74FF0200383F374
:105770001188BFF36F8FBFF34F8FFEE7F0EF00206C
:105780004FF0200383F31188BFF36F8FBFF34F8F68
:10579000FEE770B50C4A92F808410023D9B28C425A
:1057A00001D800200BE05D1C9B00D118B1F8096105
:1057B000864207D1B1F80B2112B10448184470BDDC
:1057C000FFF7DEFF2B46E9E7F0EF0020F9F00020BD
:1057D00008B5FFF7DEFF00B1408808BD10B50446EC
:1057E000FFF7D7FF40B14FF0200383F31188BFF3D9
:1057F0006F8FBFF34F8FFEE7094B93F80801020646
:1058000001D5FFF7BDFF421C83F8082103EB80029E
:1058100003F20913A2F8094103EB800010BD00BF99
:10582000F0EF002008B5FFF7B4FF08B9FFF7A8FFB5
:10583000064A92F80831013BDBB282F8083102EBEC
:105840008303D3F80931036008BD00BFF0EF0020E7
:105850002DE9F041244CB4F80A33B4F80C63034446
:105860009BB204F20E37FF2B0546A4F80A3307EB70
:10587000060004F104080AD82A464146354423F0BC
:10588000DDFD0126A4F80C533046BDE8F081C6F5D5
:105890008072414623F0D2FD4FF480723946B4F84D
:1058A0000601FFF71BFF06460028EDD000214FF44C
:1058B0008070FFF72BFFB4F80A53B4F80C13A5F56A
:1058C00080750023ADB2A4F80C33A4F80A53002D60
:1058D000DAD0C1F580712A4618FA81F1384623F0F2
:1058E000ADFDA4F80C53CFE7F0EF00207FB545F2F3
:1058F0004143ADF806300D4BCDE902300C4BC043AF
:10590000B3F80E3404904FF6FF7210210DF106002B
:10591000ADF81430FFF738FE1222ADF8040001A9EB
:105920000020FFF7DBFE07B05DF804FB534E763234
:10593000F0EF00202DE9F04F724C94F8047100252F
:105940008FB0122309AA29463846A4F81054A4F8A7
:105950001254A4F80C53A4F80A5306F0E1F90B9B77
:10596000039394F804310133DBB2012B94BF84F824
:10597000043184F8045194F80431BB4208D14FF04B
:10598000200383F31188BFF36F8FBFF34F8FFEE7C0
:10599000FFF78EFE0028E4D04FF0000ADFF8708198
:1059A00080E004EB8A091023B9F80BB105AA594627
:1059B000384606F0B5F90026BDF81C50ADF81A506F
:1059C00005AA59463846ADF81860ADF81E60ADF826
:1059D0002060FFF739FE4FF6FF72ADF814000E217C
:1059E00005A8FFF7D1FDF022ADF82200FF214648BF
:1059F00024F042FA05AB03CB1035C8F80000C8F814
:105A00000410B4F80C2303CBB4F80631C8F808002E
:105A1000ADB21344B5F5807FC8F80C10A9F80B316E
:105A200019D8394B00933246BDF81C3059463846D8
:105A3000FFF7C1FD50B1B4F80631B4F80C2313449C
:105A4000A9F80B312846FFF703FF38BB0024204696
:105A50000FB0BDE8F08F1023B5F5807F2A4628BF30
:105A60004FF48072A2EB03091FFA89F943440292B2
:105A7000009332464B4659463846FFF79CFD0028B6
:105A8000E4D00298FFF7E4FE0028DFD0029BED1A75
:105A90004E44ADB2B6B20023002DDDD10AF10103B0
:105AA0005FFA83FA94F8083153453FF67AAFB4F8B9
