:0200000400807A
:105F8800FFFF000000400E8438FC745F3B4412148D
:085F98000B0000710200000083
:045FBC0000000010D1
:020000040100F9
:10000000FEFFFFFF01015048434D00000000740057
:1000100000000001000200010002000100B0020027
:1000200000000000000000000000000000000000D0
:1000300000000000000000000000000000000000C0
:1000400000000000000000000000000000000000B0
:1000500000000000000000000000000000000000A0
:100060000000000000000000000000000000000090
:100070000000000000000000000000000000000080
:100080000000000000000000000000000000000070
:100090000000000000000000000000000000000060
:1000A0000000000000000000000000000000000050
:1000B0000000000000000000000000000000000040
:1000C0000000000000000000000000000000000030
:1000D0000000000000000000000000000000000020
:1000E0000000000000000000000000000000000010
:1000F0000000000000000000000000000000000000
:1001000000000000000000000000000000000000EF
:1001100000000000000000000000000000000000DF
:1001200000000000000000000000000000000000CF
:1001300000000000000000000000000000000000BF
:1001400000000000000000000000000000000000AF
:10015000000000000000000000000000000000009F
:10016000000000000000000000000000000000008F
:10017000000000000000000000000000000000007F
:10018000000000000000000000000000000000006F
:10019000000000000000000000000000000000005F
:1001A000000000000000000000000000000000004F
:1001B000000000000000000000000000000000003F
:1001C000000000000000000000000000000000002F
:1001D000000000000000000000000000000000001F
:1001E000000000000000000000000000000000000F
:1001F00000000000000000000000000000000000FF
:10020000F07F0120352502012F8202013582020193
:1002100041820201478202014D820201000000007A
:1002200000000000000000000000000039AC0001E8
:100230003B8202010000000059AD0001C7AD000182
:10024000DBDD0001DBDD0001DBDD0001CDB60001FF
:10025000DBDD0001DBDD0001DBDD0001DBDD0001BA
:10026000DBDD0001DBDD0001DBDD0001DBDD0001AA
:10027000256E0001DBDD0001DBDD0001DBDD0001BF
:10028000DBDD0001DBDD0001DBDD0001DBDD00018A
:10029000DBDD0001DBDD0001DBDD0001DBDD00017A
:1002A000DBDD0001DBDD0001DBDD0001DBDD00016A
:1002B000DBDD0001DBDD0001DBDD0001B10002015F
:1002C000F9960101DBDD0001DBDD0001DBDD000172
:1002D000DBDD0001DBDD0001DBDD0001DBDD00013A
:1002E000DBDD0001000000004D08020100203200AB
:1002F000C0F70020000000000000000001203200D4
:10030000C0F70020000000000000000002203200C2
:10031000C0F70020000000000000000003203200B1
:10032000C0F70020000000000000000004203200A0
:10033000C0F700200000000000000000052032008F
:10034000C0F700200000000000000000062032007E
:10035000C0F700200000000000000000072032006D
:10036000C0F700200000000000000000082020006E
:10037000F4F7002000000000000000000920200029
:10038000F4F7002000000000000000000A20200018
:10039000F4F7002000000000000000000B20200007
:1003A000F4F7002000000000000000000C202000F6
:1003B000F4F7002000000000000000000D202000E5
:1003C000F4F7002000000000000000000E202000D4
:1003D000F4F7002000000000000000000F202000C3
:1003E000F4F700200000000000000000F8B500BF96
:1003F000F8BC08BC9E4670474D430201F8B500BFEB
:10040000F8BC08BC9E46704729430201A0BE00000C
:100410000100000080B58CB004AFF860B9603B60AB
:100420001346FB80FB889B0018460AF073F978613D
:100430007B69002B13D054200AF06CF9F861FB693A
:10044000002B08D054220021F86929F015FDFB6922
:100450007A691A6305E078690AF0FAF901E0002385
:10046000FB61FB69002B13D0FA8800230393FB691F
:100470000293FB6A0193BB6A00933B68B968F86812
:1004800000F00EF8F86900F07BF80123BB6102E090
:100490004FF0FF33BB61BB6918462037BD4680BDB6
:1004A00080B586B000AFF860B9607A603B60BB6A27
:1004B000186B7B689B001A46A52129F0DDFCBB6AFE
:1004C0001A6B7B6803F18043013B9B0013443B6143
:1004D0003B6923F007033B61BB68002B1ED0002360
:1004E0007B6112E0BA687B6913441978BA6A7B6948
:1004F000134434330A461A70BA687B6913441B7874
:10050000002B06D07B6901337B617B690F2BE9D916
:1005100000E000BFBB6A002283F843203B6A042B43
:1005200001D904233B62BB6A3A6ADA62BB6A3A6A5F
:100530005A64BB6A0433184611F050FABB6A183388
:10054000184611F04BFABB6ABA6A1A613B6AC3F1EA
:100550000502BB6A9A61BB6ABA6A5A623A68F9686C
:1005600038690AF01DFB0246BB6A1A607B6A002BE1
:1005700002D07B6ABA6A1A6000BF1837BD4680BDD8
:1005800080B584B000AF78600AF0B3FB3E4B1B68C7
:1005900001333D4A13603D4B1B68002B09D13B4A98
:1005A0007B681360384B1B68012B10D101F0D0F928
:1005B0000DE0374B1B68002B09D1344B1B68DA6AFE
:1005C0007B68DB6A9A4202D8304A7B681360314B01
:1005D0001B6801332F4A13607B68DB6A01229A4053
:1005E0002D4B1B6813432C4A13607B68DA6A2B4936
:1005F00013469B0013449B000B4404331B68FB60B1
:100600007B68FA689A60FB689A687B68DA60FB68C6
:100610009B687A6804325A607B681A1DFB689A608E
:100620007B68DA6A13469B0013449B001B4A1A44FA
:100630007B685A617B68DA6A184913469B00134449
:100640009B000B441B68591C144813469B00134421
:100650009B00034419600AF065FB0D4B1B68002BDF
:100660000ED00A4B1B68DA6A7B68DB6A9A4207D2B3
:100670000B4B4FF080521A60BFF34F8FBFF36F8F59
:1006800000BF1037BD4680BD20F6002048F5002091
:100690002CF600203CF6002028F600204CF5002027
:1006A00004ED00E080B584B000AF78600AF021FB73
:1006B0007B68002B02D1344B1B6800E07B68FB6039
:1006C000FB680433184611F0F3F90346002B15D1EB
:1006D000FB68DA6A2D4913469B0013449B000B44C8
:1006E0001B68002B0AD1FB68DB6A012202FA03F3C4
:1006F000DA43274B1B681340254A1360FB689B6A4B
:10070000002B04D0FB681833184611F0D1F9214BA7
:100710001B6801331F4A13601B4B1B68FA689A421F
:100720000BD1FB68043319461B4811F064F91B4BCD
:100730001B680133194A136006E0194B1B68013B23
:10074000174A136001F080F90AF0ECFA0E4B1B68AF
:10075000FA689A4202D0F86801F066F9114B1B68FA
:10076000002B0CD0084B1B68FA689A4207D10E4B3D
:100770004FF080521A60BFF34F8FBFF36F8F00BFEF
:100780001037BD4680BD00BF48F500204CF5002065
:1007900028F600203CF60020F4F5002008F60020A2
:1007A00020F600202CF6002004ED00E080B586B095
:1007B00000AF7860396000237B6100F0F5FA224BCE
:1007C0001B683B617B681B683A681344FB607B686D
:1007D0001B683A699A420BD27B681B68FA689A4296
:1007E00011D2FA683B699A420DD901237B610AE074
:1007F0007B681B68FA689A4203D3FA683B699A429D
:1008000001D901237B617B68FA681A607B69002B40
:1008100006D0FA683B69D31A0021184601F03CFF64
:1008200000F00AFBB860BB68002B07D1074B4FF004
:1008300080521A60BFF34F8FBFF36F8F7B691846EA
:100840001837BD4680BD00BF24F6002004ED00E04F
:1008500080B584B000AF78600023FB607B68002B1C
:1008600008D000F0A1FA0021786801F015FF00F02F
:10087000E3FAF860FB68002B07D1064B4FF080527B
:100880001A60BFF34F8FBFF36F8F00BF1037BD46A5
:1008900080BD00BF04ED00E080B584B000AF78609B
:1008A0000AF027FA7B68002B02D1074B1B6800E097
:1008B0007B68FB60FB68DB6ABB600AF033FABB68ED
:1008C00018461037BD4680BD48F5002080B489B079
:1008D00000AF7860EFF311824FF0200383F31188AB
:1008E000BFF36F8FBFF34F8F3A61FB603B69FB61D2
:1008F0007B68002B02D10A4B1B6800E07B68BB6160
:10090000BB69DB6A7B61FB69BB60BB6883F31188F1
:100910007B6918462437BD465DF8047B704700BFED
:1009200048F5002080B588B000AF786039600023BA
:10093000FB613B68042B01D904233B600AF0D9F921
:100940007B68002B02D1554B1B6800E07B68BB61C4
:10095000BB695B6C7B617A693B689A4200F0988066
:100960003A687B699A420DD94C4B1B68BA699A4226
:100970000FD04A4B1B68DB6A3A689A4209D30123BD
:10098000FB6106E0454B1B68BA699A4201D101231D
:10099000FB61BB69DB6A3B61BB695A6CBB69DB6AA3
:1009A0009A4202D1BB693A68DA62BB693A685A6412
:1009B000BB699B69002B04DB3B68C3F10502BB6983
:1009C0009A61BB6959693A6913469B0013449B00BD
:1009D000334A1344994250D1BB690433184611F08D
:1009E00067F80346002B09D101223B6902FA03F3A1
:1009F000DA432C4B1B6813402A4A1360BB69DB6A3D
:100A000001229A40274B1B681343264A1360BB6997
:100A1000DA6A234913469B0013449B000B440433BA
:100A20001B68FB60BB69FA689A60FB689A68BB69DF
:100A3000DA60FB689B68BA6904325A60BB691A1DA8
:100A4000FB689A60BB69DA6A13469B0013449B00FB
:100A5000134A1A44BB695A61BB69DA6A10491346E2
:100A60009B0013449B000B441B68591C0C48134605
:100A70009B0013449B0003441960FB69002B07D0C3
:100A8000094B4FF080521A60BFF34F8FBFF36F8F47
:100A90000AF048F900BF2037BD4680BD48F5002068
:100AA0004CF5002028F6002004ED00E080B584B06D
:100AB00000AF78600AF01DF97B68002B02D13B4B38
:100AC0001B6800E07B68BB60BB680433184610F00D
:100AD000EFFF0346002B15D1BB68DA6A3449134691
:100AE0009B0013449B000B441B68002B0AD1BB687E
:100AF000DB6A012202FA03F3DA432E4B1B68134030
:100B00002C4A1360BB689B6A002B04D0BB68183367
:100B1000184610F0CDFFBB6804331946264810F084
:100B20006AFF0023FB6010E0BA68FB68134450338F
:100B30001B78DBB2012B05D1BA68FB681344503334
:100B400000221A70FB680133FB60FB68002BEBDDB1
:100B50000AF0E8F8194B1B68002B05D00AF0C9F819
:100B600000F072FF0AF0DEF8104B1B68BA689A4278
:100B700018D1124B1B68002B08D0114B4FF080523C
:100B80001A60BFF34F8FBFF36F8F0BE00A4B1A68E9
:100B90000C4B1B689A4203D1044B00221A6001E0FF
:100BA00000F0CAFB00BF1037BD4680BD48F50020ED
:100BB0004CF5002028F600200CF600202CF6002032
:100BC00004ED00E020F6002080B485B000AF78602E
:100BD0000023FB607B68BB60BB685B690A4A934289
:100BE0000AD1BB689B6A094A934205D0BB689B6ADD
:100BF000002B01D10123FB60FB6818461437BD466A
:100C00005DF8047B704700BF0CF60020E0F5002083
:100C100080B584B000AF78607B68FB60344B1B68A4
:100C2000FA689A425FD0FB68002B5CD00AF061F84A
:100C3000F868FFF7C9FF0346002B52D0FB68043366
:100C4000184610F035FFFB68DB6A01229A40294BF9
:100C50001B681343274A1360FB68DA6A2649134668
:100C60009B0013449B000B4404331B68BB60FB6870
:100C7000BA689A60BB689A68FB68DA60BB689B6870
:100C8000FA6804325A60FB681A1DBB689A60FB68F8
:100C9000DA6A13469B0013449B00174A1A44FB6808
:100CA0005A61FB68DA6A144913469B0013449B009F
:100CB0000B441B68591C104813469B0013449B00AF
:100CC00003441960FB68DA6A094B1B68DB6A9A42C5
:100CD00007D30A4B4FF080521A60BFF34F8FBFF318
:100CE0006F8F0AF01FF800BF1037BD4680BD00BFF0
:100CF00048F5002028F600204CF5002004ED00E027
:100D000080B584B002AF154B0193002300930023FC
:100D10004FF4807212491348FFF77CFB78607B68C0
:100D2000012B14D14FF0200383F31188BFF36F8F91
:100D3000BFF34F8F3B600C4B4FF0FF321A600B4BF1
:100D400001221A600A4B00221A6009F0A0FF094B29
:100D50001B6800BF0837BD4680BD00BF44F60020B9
:100D600060A702018918000140F600202CF600203F
:100D700024F60020CCFD002080B582B000AF4FF0FB
:100D8000200383F31188BFF36F8FBFF34F8F7B6016
:100D9000044B00221A6009F0A5FF00BF0837BD46CA
:100DA00080BD00BF2CF6002080B400AF044B1B6850
:100DB0000133034A136000BFBD465DF8047B7047F2
:100DC00048F6002080B485B000AF0023BB6001234B
:100DD0007B60144B1B687A689A4201D20123BB6086
:100DE000114B1B68DB6A002B02D00023FB6012E072
:100DF0000E4B1B68012B02D90023FB600BE0BB6884
:100E0000002B02D00023FB6005E0094B1A68094B58
:100E10001B68D31AFB60FB6818461437BD465DF8A3
:100E2000047B704728F6002048F500204CF5002090
:100E300040F6002024F6002080B586B000AF0023E5
:100E40007B6100233B6109F054FF684B1B68013B49
:100E5000664A1360654B1B68002B40F0C080644BF2
:100E60001B68002B00F0BB808AE0624BDB68DB680C
:100E70007B617B699B6ABB607B69DB697A69126A0B
:100E80009A607B691B6A7A69D2695A60BB685A6842
:100E90007B6918339A4203D17B691A6ABB685A602E
:100EA0007B6900229A62BB681B685A1EBB681A6085
:100EB0007B695B697B607B699B687A69D2689A60B1
:100EC0007B69DB687A6992685A607B685A687B69DB
:100ED00004339A4203D17B69DA687B685A607B6984
:100EE00000225A617B681B685A1E7B681A607B6906
:100EF000DB6A01229A40404B1B6813433E4A136051
:100F00007B69DA6A3D4913469B0013449B000B44FE
:100F100004331B683B607B693A689A603B689A6857
:100F20007B69DA603B689B687A6904325A607B6946
:100F30001A1D3B689A607B69DA6A13469B0013446A
:100F40009B002E4A1A447B695A617B69DA6A2B49F5
:100F500013469B0013449B000B441B68591C2748F5
:100F600013469B0013449B00034419607B69DA6AB3
:100F7000234B1B68DB6A9A4202D3224B01221A6080
:100F80001C4B1B68002B7FF470AF7B69002B01D0DA
:100F900000F05AFD1C4B1B68FB60FB68002B10D057
:100FA00000F0BCF80346002B02D0164B01221A6059
:100FB000FB68013BFB60FB68002BF1D1124B002268
:100FC0001A60104B1B68002B09D001233B610F4BAB
:100FD0004FF080521A60BFF34F8FBFF36F8F09F04D
:100FE000A1FE3B6918461837BD4680BD48F6002073
:100FF00020F60020E0F5002028F600204CF5002027
:1010000048F5002034F6002030F6002004ED00E022
:1010100080B483B000AF054B1B687B607B681846CB
:101020000C37BD465DF8047B704700BF24F60020F6
:1010300080B483B000AF00237B60054B1B683B602E
:101040003B6818460C37BD465DF8047B704700BF0F
:1010500024F6002080B400AF034B1B681846BD4641
:101060005DF8047B704700BF20F6002080B485B097
:1010700000AF78607B68002B02D1064B1B6800E054
:101080007B68FB60FB68343318461437BD465DF857
:10109000047B704748F5002080B582B000AF7860CF
:1010A0000E4B1A687B681A440D4B1B689A420BD191
:1010B00009F01FFE0B4B1B6801330A4A136009F04D
:1010C00031FE7B68013B7B60044B1A687B681344EC
:1010D000024A136000BF0837BD4680BD24F60020D9
:1010E00040F6002030F6002080B584B000AF786074
:1010F000FFF75AFE09F0FDFD074B1A687B681344A1
:10110000054A136009F00EFEFFF796FEF860FB68D3
:1011100018461037BD4680BD30F6002080B588B037
:1011200000AF0023FB61794B1B68002B40F0E2808D
:10113000774B1B680133BB61754ABB691360BB69A0
:10114000002B10D1734B1B687B61734B1B68714A7A
:101150001360714A7B691360704B1B6801336F4ADF
:10116000136000F071FC6E4B1B68BA699A42C0F0C4
:10117000A680684B1B681B68002B04D1684B4FF09E
:10118000FF321A609BE0634B1B68DB68DB683B61E6
:101190003B695B68FB60BA69FB689A4203D2604AAC
:1011A000FB6813608BE03B695B69BB603B699B68D4
:1011B0003A69D2689A603B69DB683A6992685A601A
:1011C000BB685A683B6904339A4203D13B69DA68C9
:1011D000BB685A603B6900225A61BB681B685A1E93
:1011E000BB681A603B699B6A002B1ED03B699B6AF7
:1011F0007B603B69DB693A69126A9A603B691B6AEA
:101200003A69D2695A607B685A683B6918339A42D6
:1012100003D13B691A6A7B685A603B6900229A6273
:101220007B681B685A1E7B681A603B69DB6A012277
:101230009A403C4B1B6813433A4A13603B69DA6A95
:10124000394913469B0013449B000B4404331B682D
:101250003B603B693A689A603B689A683B69DA6030
:101260003B689B683A6904325A603B691A1D3B68C7
:101270009A603B69DA6A13469B0013449B002A4A32
:101280001A443B695A613B69DA6A274913469B0055
:1012900013449B000B441B68591C234813469B00B6
:1012A00013449B00034419603B69DA6A1F4B1B68B7
:1012B000DB6A9A427FF65DAF0123FB6159E71B4B66
:1012C0001B68DA6A184913469B0013449B000B44C1
:1012D0001B68012B01D90123FB61154B1B68002BF7
:1012E00001D11DF039FA134B1B68002B09D00123E3
:1012F000FB6106E00E4B1B6801330D4A13601DF0C5
:101300002BFAFB6918462037BD4680BD48F6002001
:1013100024F60020D8F50020DCF5002038F6002067
:1013200040F6002028F600204CF5002048F500206B
:1013300030F6002034F6002080B586B000AF2F4B89
:101340001B68002B03D02E4B01221A6051E02C4B5E
:1013500000221A602B4B1B681B6B7B614FF0A5337F
:101360003B617B691B683A699A4211D17B690433FE
:101370001B683A699A420BD17B6908331B683A694A
:101380009A4205D17B690C331B683A699A4208D0AE
:101390001C4B1A681B4B1B683433194610461DF052
:1013A000B9F9194B1B687B607B68B3FA83F3FB7058
:1013B000FB78C3F11F03FB60FA6813469B001344DC
:1013C0009B00124A1344BB60BB685B685A68BB68E9
:1013D0005A60BB685A68BB6808339A4204D1BB683C
:1013E0005B685A68BB685A60BB685B68DB68054A23
:1013F000136000BF1837BD4680BD00BF48F600200F
:1014000034F6002048F5002028F600204CF5002096
:1014100080B582B000AF78603960074B1B68183325
:101420001946786810F00BFB0121386801F034F997
:1014300000BF0837BD4680BD48F5002080B586B0A6
:1014400000AFF860B9607A60174B1B68BA6842F069
:1014500000429A61FB685B687B61134B1B687A6989
:10146000DA61114B1B687A6992681A620E4B1A682E
:101470007B699B6818325A600B4B1B6803F118029A
:101480007B699A60084B1B68FA689A62FB681B6864
:101490005A1CFB681A600121786801F0FDF800BF52
:1014A0001837BD4680BD00BF48F5002080B588B024
:1014B00000AF78607B68DB68DB68BB61BB699B6AF7
:1014C0007B61BB69DB69BA69126A9A60BB691B6A96
:1014D000BA69D2695A607B695A68BB6918339A4203
:1014E00003D1BB691A6A7B695A60BB6900229A62A0
:1014F0007B691B685A1E7B691A604A4B1B68002B6C
:1015000060D1BB695B693B61BB699B68BA69D268A2
:101510009A60BB69DB68BA6992685A603B695A682D
:10152000BB6904339A4203D1BB69DA683B695A60EC
:10153000BB6900225A613B691B685A1E3B691A60ED
:10154000BB69DB6A01229A40374B1B681343364A5A
:101550001360BB69DA6A354913469B0013449B004C
:101560000B4404331B68FB60BB69FA689A60FB6834
:101570009A68BB69DA60FB689B68BA6904325A6092
:10158000BB691A1DFB689A60BB69DA6A13469B0047
:1015900013449B00254A1A44BB695A61BB69DA6A45
:1015A000224913469B0013449B000B441B68591CA3
:1015B0001E4813469B0013449B000344196000F02F
:1015C00043FA1BE01A4B5B68BB60BB69BA68DA611F
:1015D000BB689A68BB691A62BB689B68BA691832B3
:1015E0005A60BB6903F11802BB689A60BB69104A74
:1015F0009A620F4B1B6801330D4A1360BB69DA6AAC
:101600000C4B1B68DB6A9A4205D90123FB610A4B2C
:1016100001221A6001E00023FB61FB6918462037B4
:10162000BD4680BD48F6002028F600204CF500207D
:10163000E0F5002048F5002034F6002080B586B0A3
:1016400000AF786039603B6843F000427B681A6005
:101650007B68DB687B617B681B693B617B685B68DF
:101660007A6892689A607B689B687A6852685A6068
:101670003B695B687A689A4203D17B689A683B69E8
:101680005A607B6800221A613B691B685A1E3B69DD
:101690001A6000F0D9F97B695B69FB607B699B6824
:1016A0007A69D2689A607B69DB687A6992685A6065
:1016B000FB685A687B6904339A4203D17B69DA6814
:1016C000FB685A607B6900225A61FB681B685A1EDE
:1016D000FB681A607B69DB6A01229A40244B1B6815
:1016E0001343234A13607B69DA6A224913469B003D
:1016F00013449B000B4404331B68BB607B69BA68CE
:101700009A60BB689A687B69DA60BB689B687A6993
:1017100004325A607B691A1DBB689A607B69DA6A79
:1017200013469B0013449B00124A1A447B695A617A
:101730007B69DA6A0F4913469B0013449B000B44F4
:101740001B68591C0B4813469B0013449B00034421
:1017500019607B69DA6A084B1B68DB6A9A4202D916
:10176000064B01221A6000BF1837BD4680BD00BF7E
:1017700028F600204CF5002048F5002034F6002023
:1017800080B582B000AF786009F0B3FA064B1A68F2
:101790007B681A60054B1A687B685A6009F0C2FAC8
:1017A00000BF0837BD4680BD38F6002024F6002073
:1017B00080B483B000AF7860064B1A687B681A600B
:1017C000054B1A687B685A6000BF0C37BD465DF850
:1017D000047B704738F6002024F6002080B586B0E0
:1017E00000AF7860396009F084FA1F4B1B683B61D9
:1017F0007B685B683A69D31AFB603B681B68B3F18E
:10180000FF3F02D100237B6126E07B681A68174BFB
:101810001B689A420AD07B685B683A699A4205D392
:1018200001237B613B6800221A6015E03B681B685E
:10183000FA689A420BD23B681A68FB68D21A3B6876
:101840001A607868FFF7B4FF00237B6104E03B680F
:1018500000221A6001237B6109F064FA7B69184653
:101860001837BD4680BD00BF24F6002038F60020A2
:1018700080B400AF034B01221A6000BFBD465DF883
:10188000047B704734F6002080B584B000AF7860E8
:1018900000F09EF8104B1B68012B07D90F4B4FF03F
:1018A00080521A60BFF34F8FBFF36F8F1CF04EFF53
:1018B000FFF788FAF860FB68042BE9D9FFF774FAA0
:1018C000FFF780FAF860FB68042B02D9F86809F08A
:1018D0009BFAFFF7B1FADBE74CF5002004ED00E0DE
:1018E00080B483B000AF01233B600123FB71134B35
:1018F0001B68002B02D00023FB7117E0104B1B6804
:10190000002B02D00023FB7110E00E4B1B68002B54
:1019100002D00023FB7109E00B4B1A680B4B1968CE
:101920003B68CB1A9A4201D10223FB71FB7918461E
:101930000C37BD465DF8047B704700BFE0F5002022
:1019400034F6002030F600200CF6002020F60020AF
:1019500080B582B000AF00237B600CE07A6813464C
:101960009B0013449B00124A1344184610F016F8CB
:101970007B6801337B607B68042BEFD90D4810F046
:101980000DF80D4810F00AF80C4810F007F80C4854
:1019900010F004F80B4810F001F80B4B054A1A60E0
:1019A0000A4B054A1A6000BF0837BD4680BD00BF1C
:1019B0004CF50020B0F50020C4F50020E0F5002033
:1019C000F4F500200CF60020D8F50020DCF500200E
:1019D00080B582B000AF19E009F08BF90F4BDB68DE
:1019E000DB687B607B680433184610F061F80C4BB1
:1019F0001B68013B0A4A13600A4B1B68013B094AFA
:101A0000136009F08FF9786800F00EF8054B1B6839
:101A1000002BE1D100BF0837BD4680BDF4F50020A2
:101A200020F6002008F6002080B582B000AF786074
:101A30007B681B6B184608F00BFF786808F008FFFE
:101A400000BF0837BD4680BD80B400AF0A4B1B689D
:101A50001B68002B04D1094B4FF0FF321A6005E0E0
:101A6000054B1B68DB681B68044A136000BFBD465A
:101A70005DF8047B704700BFD8F5002040F60020D9
:101A800080B483B000AF054B1B687B607B68184651
:101A90000C37BD465DF8047B704700BF48F5002059
:101AA00080B586B000AF78607B683B6100237B61C6
:101AB0007B68002B00F087803B69DA6A444B1B6827
:101AC000DB6A9A4276D23B699B69002B06DB404B6E
:101AD0001B68DB6AC3F105023B699A613B6959697E
:101AE0003B69DA6A13469B0013449B00394A13444E
:101AF000994257D13B69043318460FF0D9FF03468A
:101B0000002B0AD13B69DB6A012202FA03F3DA43B4
:101B1000314B1B681340304A13602D4B1B68DA6A47
:101B20003B69DA623B69DB6A01229A402A4B1B68F7
:101B30001343294A13603B69DA6A264913469B001E
:101B400013449B000B4404331B68FB603B69FA6839
:101B50009A60FB689A683B69DA60FB689B683A693F
:101B600004325A603B691A1DFB689A603B69DA6A65
:101B700013469B0013449B00164A1A443B695A6162
:101B80003B69DA6A134913469B0013449B000B44DC
:101B90001B68591C0F4813469B0013449B000344C9
:101BA000196004E00A4B1B68DA6A3B69DA620123B8
:101BB0007B6108E03B695A6C054B1B68DB6A9A4203
:101BC00001D201237B617B6918461837BD4680BD71
:101BD00048F500204CF5002028F6002080B586B09E
:101BE00000AF78607B683B6100237B617B68002BE2
:101BF0006CD03B699B6C5A1E3B699A643B69DA6AFC
:101C00003B695B6C9A4261D03B699B6C002B5DD158
:101C10003B69043318460FF04BFF0346002B0AD1F3
:101C20003B69DB6A012202FA03F3DA432A4B1B68A1
:101C30001340294A13603B695A6C3B69DA623B697D
:101C4000DB6AC3F105023B699A613B69DB6A0122E9
:101C50009A40214B1B6813431F4A13603B69DA6AA1
:101C60001E4913469B0013449B000B4404331B681E
:101C7000FB603B69FA689A60FB689A683B69DA60C6
:101C8000FB689B683A6904325A603B691A1DFB681D
:101C90009A603B69DA6A13469B0013449B000F4A23
:101CA0001A443B695A613B69DA6A0C4913469B0046
:101CB00013449B000B441B68591C084813469B00A7
:101CC00013449B000344196001237B617B69184620
:101CD0001837BD4680BD00BF28F600204CF5002017
:101CE00080B588B000AF786039607B68BB61012344
:101CF0007B617B68002B00F08180BB695B6C3A687C
:101D00009A4202D93B68FB6102E0BB695B6CFB61F4
:101D1000BB69DB6AFA699A4270D0BB699B6C7A69CD
:101D20009A426BD1BB69DB6A3B61BB69FA69DA62D3
:101D3000BB699B69002B04DBFB69C3F10502BB692E
:101D40009A61BB6959693A6913469B0013449B0029
:101D50002C4A1344994251D1BB69043318460FF001
:101D6000A7FE0346002B0AD1BB69DB6A012202FAF7
:101D700003F3DA43244B1B681340234A1360BB6907
:101D8000DB6A01229A40204B1B6813431E4A1360F2
:101D9000BB69DA6A1B4913469B0013449B000B4442
:101DA00004331B68FB60BB69FA689A60FB689A6839
:101DB000BB69DA60FB689B68BA6904325A60BB6928
:101DC0001A1DFB689A60BB69DA6A13469B001344CC
:101DD0009B000C4A1A44BB695A61BB69DA6A09491B
:101DE00013469B0013449B000B441B68591C054879
:101DF00013469B0013449B000344196000BF203727
:101E0000BD4680BD4CF5002028F6002080B483B08C
:101E100000AF094B1B689B697B60074B1B68DA6A44
:101E2000054B1B68C2F105029A617B6818460C37A6
:101E3000BD465DF8047B704748F5002080B400AFD4
:101E4000074B1B68002B04D0054B1B689A6C0132B2
:101E50009A64034B1B681846BD465DF8047B7047C7
:101E600048F5002080B586B000AFF860B9607A60B0
:101E700008F03FFF284B1A68FB6812339B0013449D
:101E80005B68002B15D1244B1A68FB681344503350
:101E900001221A707B68002B0BD00121786800F0BA
:101EA000FBFB1E4B4FF080521A60BFF34F8FBFF306
:101EB0006F8F08F037FF08F01CFF174B1A68FB689C
:101EC00012339B0013445B687B617B69002B14D049
:101ED000BB68002B08D0104B1A68FB6812339B00BC
:101EE000134400225A6008E00B4B19687B695A1EA4
:101EF000FB6812339B000B445A60074B1A68FB685F
:101F00001344503300221A7008F00CFF7B69184606
:101F10001837BD4680BD00BF48F5002004ED00E045
:101F200080B586B000AFF860B9607A603B6008F0B9
:101F3000E0FE344B1A68FB68134450331B78DBB265
:101F4000022B24D02F4B1A68FB6812339B001344DA
:101F50005968BB68DB431940FB6812339B0013448C
:101F60005960284B1A68FB681344503301221A70D9
:101F70003B6A002B0BD00121386A00F08DFB224B0D
:101F80004FF080521A60BFF34F8FBFF36F8F08F08E
:101F9000C9FE08F0AEFE3B68002B08D0194B1A684A
:101FA000FB6812339B0013445A683B681A60154B58
:101FB0001A68FB68134450331B78DBB2022B02D043
:101FC00000237B6110E00F4B1A68FB6812339B0003
:101FD000134459687B68DB431940FB6812339B004C
:101FE0001344596001237B61064B1A68FB68134454
:101FF000503300221A7008F095FE7B691846183796
:10200000BD4680BD48F5002004ED00E080B58AB0F3
:1020100000AFF860B9607A60FB7001237B62FB68F7
:102020003B6208F066FE3B6B002B07D03A6ABB6848
:1020300012339B0013445A683B6B1A603A6ABB68C0
:10204000134450331B78FB773A6ABB681344503310
:1020500002221A70FB78042B3FD801A252F823F019
:10206000DB2000017520000193200001AF2000015A
:10207000BF2000013A6ABB6812339B0013445A68C0
:102080007B681A43396ABB6812339B000B445A6061
:1020900024E03A6ABB6812339B0013445B685A1C05
:1020A000396ABB6812339B000B445A6016E03A6AE7
:1020B000BB6812339B0013447A685A600EE0FB7FC2
:1020C000022B07D03A6ABB6812339B0013447A682C
:1020D0005A6003E000237B6200E000BFFB7F012B1E
:1020E0006ED13B6A5B69BB613B6A9B683A6AD268A6
:1020F0009A603B6ADB683A6A92685A60BB695A68C0
:102100003B6A04339A4203D13B6ADA68BB695A607E
:102110003B6A00225A61BB691B685A1EBB691A6080
:102120003B6ADB6A01229A40294B1B681343284A09
:1021300013603B6ADA6A274913469B0013449B00ED
:102140000B4404331B687B613B6A7A699A607B6944
:102150009A683B6ADA607B699B683A6A04325A6023
:102160003B6A1A1D7B699A603B6ADA6A13469B00D8
:1021700013449B00174A1A443B6A5A613B6ADA6A65
:10218000144913469B0013449B000B441B68591CC5
:10219000104813469B0013449B0003441960FFF74B
:1021A00053FC3B6ADA6A0C4B1B68DB6A9A4207D91C
:1021B0000A4B4FF080521A60BFF34F8FBFF36F8FFF
:1021C00008F0B0FD7B6A18462837BD4680BD00BFC9
:1021D00028F600204CF5002048F5002004ED00E032
:1021E00080B48FB000AFF860B9607A60FB700123F3
:1021F0007B63FB683B63EFF311824FF0200383F3B3
:102200001188BFF36F8FBFF34F8FBA617B61BB69DA
:10221000FB623B6C002B07D03A6BBB6812339B0010
:1022200013445A683B6C1A603A6BBB6813445033D2
:102230001B7887F82B303A6BBB681344503302226B
:102240001A70FB78042B41D801A252F823F000BF8A
:10225000CD22000165220001832200019F2200019E
:10226000AF2200013A6BBB6812339B0013445A68DB
:102270007B681A43396BBB6812339B000B445A606E
:1022800025E03A6BBB6812339B0013445B685A1C11
:10229000396BBB6812339B000B445A6017E03A6BF2
:1022A000BB6812339B0013447A685A600FE097F8BA
:1022B0002B30022B07D03A6BBB6812339B001344C0
:1022C0007A685A6003E000237B6300E000BF97F860
:1022D0002B30012B40F08F804D4B1B68002B5ED1C3
:1022E0003B6B5B697B623B6B9B683A6BD2689A6025
:1022F0003B6BDB683A6B92685A607B6A5A683B6B4F
:1023000004339A4203D13B6BDA687B6A5A603B6BB9
:1023100000225A617B6A1B685A1E7B6A1A603B6BFB
:10232000DB6A01229A403B4B1B681343394A136016
:102330003B6BDA6A384913469B0013449B000B44FD
:1023400004331B683B623B6B3A6A9A603B6A9A684B
:102350003B6BDA603B6A9B683A6B04325A603B6BBA
:102360001A1D3B6A9A603B6BDA6A13469B00134462
:102370009B00294A1A443B6B5A613B6BDA6A264937
:1023800013469B0013449B000B441B68591C2248B6
:1023900013469B0013449B00034419601BE01F4B32
:1023A0005B68FB613B6BFA69DA61FB699A683B6BBE
:1023B0001A62FB699B683A6B18325A603B6B03F1F7
:1023C0001802FB699A603B6B144A9A62134B1B68B4
:1023D0000133124A13603B6BDA6A114B1B68DB6AEC
:1023E0009A4208D97B6C002B02D07B6C01221A60C8
:1023F0000C4B01221A60FB6A3B613B6983F3118835
:102400007B6B18463C37BD465DF8047B704700BFC8
:1024100048F6002028F600204CF50020E0F50020CA
:1024200048F5002034F6002080B48FB000AFF8608B
:10243000B9607A60FB687B63EFF311824FF0200391
:1024400083F31188BFF36F8FBFF34F8FFA61BB61C6
:10245000FB693B637A6BBB68134450331B7887F886
:102460002F307A6BBB681344503302221A707A6B98
:10247000BB6812339B0013445B685A1C796BBB68C2
:1024800012339B000B445A6097F82F30012B40F019
:102490008F804D4B1B68002B5ED17B6B5B69BB62F1
:1024A0007B6B9B687A6BD2689A607B6BDB687A6B1C
:1024B00092685A60BB6A5A687B6B04339A4203D1B4
:1024C0007B6BDA68BB6A5A607B6B00225A61BB6A1D
:1024D0001B685A1EBB6A1A607B6BDB6A01229A403A
:1024E0003A4B1B681343394A13607B6BDA6A3849ED
:1024F00013469B0013449B000B4404331B687B6210
:102500007B6B7A6A9A607B6A9A687B6BDA607B6A1B
:102510009B687A6B04325A607B6B1A1D7B6A9A60E7
:102520007B6BDA6A13469B0013449B00284A1A44CB
:102530007B6B5A617B6BDA6A254913469B00134417
:102540009B000B441B68591C214813469B001344F5
:102550009B00034419601BE01E4B5B683B627B6B76
:102560003A6ADA613B6A9A687B6B1A623B6A9B68DB
:102570007A6B18325A607B6B03F118023B6A9A60DF
:102580007B6B144A9A62134B1B680133114A136028
:102590007B6BDA6A104B1B68DB6A9A4208D97B684E
:1025A000002B02D07B6801221A600C4B01221A60BA
:1025B0003B6B7B617B6983F3118800BF3C37BD4671
:1025C0005DF8047B704700BF48F6002028F6002025
:1025D0004CF50020E0F5002048F5002034F60020FE
:1025E00080B584B000AF786039607B68002B02D181
:1025F000104B1B6800E07B68BB6008F07AFBBA6890
:102600003B68134450331B78DBB2022B08D1BA6805
:102610003B681344503300221A700123FB6001E031
:102620000023FB6008F07EFBFB6818461037BD46B0
:1026300080BD00BF48F5002080B586B000AFF860CF
:10264000B9607A60FB68002B02D1124B1B6800E076
:10265000FB687B6108F04DFB7A69BB6812339B0015
:1026600013445B683B617A69BB6812339B00134477
:102670005A687B68DB431A407969BB6812339B0058
:102680000B445A6008F04EFB3B6918461837BD46AC
:1026900080BD00BF48F5002080B586B000AF7860EF
:1026A0003960364B1B687B61354B1B680433184619
:1026B0000FF0FEF90346002B0BD1314B1B68DB6A90
:1026C000012202FA03F3DA432E4B1B6813402D4A12
:1026D00013607B68B3F1FF3F24D13B68002B21D00E
:1026E000294B5B683B61264B1B683A699A60244B17
:1026F0001B683A699268DA60214B1A683B699B68EB
:1027000004325A601E4B1B681A1D3B699A601C4BB1
:102710001B681D4A5A611C4B1B6801331A4A13601F
:1027200000BF26E07A697B681344FB60144B1B688A
:10273000FA685A60FA687B699A4209D2134B1A68A0
:102740000F4B1B680433194610460FF078F910E060
:102750000F4B1A680A4B1B680433194610460FF0DA
:102760006EF90C4B1B68FA689A4202D2094AFB6860
:10277000136000BF1837BD4680BD00BF24F600209F
:1027800048F5002028F600200CF60020DCF500209B
:10279000D8F5002040F6002080B582B000AF786008
:1027A00094220021786827F067FB7B6817229A80C3
:1027B00000BF0837BD4680BD80B485B000AF03467A
:1027C000FB800023FB731EE0FB7B144A942101FB7A
:1027D00003F3134492331B78012B11D1FB7B0F4A77
:1027E000942101FB03F3134402331B88FA889A42B5
:1027F00006D1FB7B942202FB03F3084A134406E054
:10280000FB7B0133FB73FB7B072BDDD900231846D1
:102810001437BD465DF8047B704700BF20EA0020F6
:1028200080B483B000AF0023FB7125E0FB79174A29
:10283000942101FB03F3134492331B78002B18D12E
:10284000FB79124A942101FB03F3134492330122D2
:102850001A70FB790D4A942101FB03F313440133F1
:10286000FA791A70FB79942202FB03F3074A1344A6
:1028700006E0FB790133FB71FB79072BD6D90023E6
:1028800018460C37BD465DF8047B704720EA0020EF
:1028900080B485B000AF78600B46FB707B68002287
:1028A0001A80FA7813461B019B1A5B00194A1A44D6
:1028B0007B685A600023FB7323E0F978FB7B1548A3
:1028C0001A4652001A4453001A460B461B015B1A63
:1028D0005B001344034400221A80F978FB7B0D4807
:1028E0001A4652001A4453001A460B461B015B1A43
:1028F0005B0013440344023300221A70FB7B013354
:10290000FB73FB7B042BD8D900BF1437BD465DF8A1
:10291000047B7047C0EE002080B584B000AF7860C3
:10292000FE2009F0BAF9F860FB68002B3BD07B6809
:102930005B7819461E4A0B461B015B1A5B00134469
:1029400018331A88FB681A80FB6802225A80FB68D9
:1029500001221A71FB6800225A71FB68122283F867
:10296000F820FB680022A3F8FA20FB68002283F815
:10297000FC207B685B88F968184622F0CDFD034691
:102980007B817B89002B07D17B680222DA717B680F
:10299000002283F8902003E07B68012283F89020D6
:1029A000F86809F086F900BF1037BD4680BD00BF4A
:1029B000C0EE002080B584B000AF7860FE2009F042
:1029C0006CF9F860FB68002B38D07B685B7819469F
:1029D0001C4A0B461B015B1A5B00134412331A8816
:1029E000FB681A80FB6801225A80FB6814221A7166
:1029F000FB68122283F8F820FB680022A3F8FA2073
:102A0000FB68002283F8FC207B685B88F968184625
:102A100022F082FD03467B817B89002B07D17B68F6
:102A20000322DA717B68002283F8902003E07B6840
:102A3000022283F89020F86809F03BF900BF1037B4
:102A4000BD4680BDC0EE002080B584B000AF786088
:102A5000FE2009F022F9F860FB68002B33D07B6878
:102A60005B7819461A4A0B461B015B1A5B0013443C
:102A700012331A88FB681A80FB6802225A80FB68AE
:102A800015221A717B685A7AFB685A71FB68122208
:102A900083F8F820FB680022A3F8FA20FB680022E4
:102AA00083F8FC207B685B88F968184622F034FDC7
:102AB00003467B817B89002B02D17B6800225A72FE
:102AC000F86809F0F6F800BF1037BD4680BD00BFBA
:102AD000C0EE002080B584B000AF78600B467B80EC
:102AE000FE2009F0DAF8F860FB68002B46D07B681E
:102AF0005B781946234A0B461B015B1A5B001344A3
:102B000006331A88FB681A80FB6802225A807B8889
:102B1000DAB2FB681A717B881B0A9BB2DAB2FB68D7
:102B20005A71FB68122283F8F820FB680022A3F890
:102B3000FA20FB68002283F8FC207B685B88F96838
:102B4000184622F0E9FC03467B817B89002B0ED1DD
:102B50007B88012B03D17B680422DA7102E07B6859
:102B60000522DA717B68002283F8902003E07B68FD
:102B7000032283F89020F86809F09BF800BF103713
:102B8000BD4680BDC0EE002080B584B000AF0346D6
:102B90000A46FB8013467B71FB881846FFF70CFE44
:102BA000F860FB68002B21D0FB689A797B7913438E
:102BB000DAB2FB689A71FB689B7903F00103002B82
:102BC00003D0F868FFF7A8FE10E0FB681B7843F01D
:102BD0001003DAB2FB681A70FB689B7903F00203FA
:102BE000002B03D00121F868FFF774FF00BF1037F6
:102BF000BD4680BD80B588B000AFF8600B467A60F6
:102C00007B81FB681B7B0F2B57D80023FB6107F1EF
:102C100010030C220021184627F02EF97B89184654
:102C200009F03BF8F861FB69002B0CD107233B74DA
:102C3000234B1B68002B3FD0214B1B6807F1100270
:102C40001046984739E07B891A467968F86926F07A
:102C5000F5FBFB685B7BFA680133DB0013447A8980
:102C60001A81FB685B7BFA680133DB001344FA6965
:102C7000DA60FB685B7B0133DAB2FB685A73FB688E
:102C80005B7B0F2B02D9FB6800225A73FB681B7B0E
:102C90000133DAB2FB681A7303233B74FB685B8869
:102CA000BB82074B1B68002B07D0054B1B6807F145
:102CB00010021046984700E000BF2037BD4680BD97
:102CC0001CEA002080B586B000AF786007F10C03E5
:102CD0000C220021184627F0CFF87B68DB79013BF6
:102CE000042B6ED801A252F823F000BF012D000181
:102CF000092D0001252D0001412D0001852D000128
:102D00007868FFF709FE78E07B680022DA717B685B
:102D10001B7863F07F03DAB27B681A707868FFF77C
:102D200049FE6AE07B680022DA717B689B7903F0D8
:102D30000203002B5CD001217868FFF7CBFE57E03F
:102D40007B680022DA717B681B7843F00103DAB2FA
:102D50007B681A707B6810225A727868FFF774FEDD
:102D6000284B1B68002B45D001233B737B685B8895
:102D70003B820123BB74234B1B6807F10C021046F6
:102D8000984737E07B680022DA717B681B7823F074
:102D90000103DAB27B681A701A4B1B68002B0CD047
:102DA00001233B737B685B883B820023BB74154B1C
:102DB0001B6807F10C02104698477B6800225A7284
:102DC0001BE07B689B7A002B16D07B6800229A72EE
:102DD0000C4B1B68002B0FD005233B737B685B8873
:102DE0003B82084B1B6807F10C021046984703E032
:102DF00000BF02E000BF00E000BF00BF1837BD46C3
:102E000080BD00BF1CEA002080B588B000AFF8602C
:102E1000B9601346FB8007F114030C220021184609
:102E200027F02AF8FB685B7819463C4A0B461B01E1
:102E30005B1A5B0013441B88FA889A4208D1BB686E
:102E40009988BB6806331A46F868FFF7D3FE61E03D
:102E5000FB685B781946314A0B461B015B1A5B0025
:102E6000134412331B88FA889A4253D1BB689B796A
:102E7000002B35D1BB68DB79142B4BD1FB681B7859
:102E800043F02003DAB2FB681A70BB681B7A9BB26E
:102E90001B029AB2BB68083301331B789BB2134400
:102EA0009AB2FB689A80FB681A7ABB689B7A1344D3
:102EB000DAB2FB681A721A4B1B68002B2AD0022365
:102EC0003B75FB685B883B832023BB76FB681B7AE2
:102ED000FB76134B1B6807F114021046984719E064
:102EE000BB689B791F2B15D90D4B1B68002B11D08C
:102EF00004233B75FB685B883B83BB689B88DBB224
:102F0000BB76BB680633FB61054B1B6807F11402F7
:102F10001046984700BF2037BD4680BDC0EE002058
:102F20001CEA002080B584B000AF78600023FB600D
:102F30007B681B78132B00F2F28001A252F823F079
:102F4000AF2F00011F3100011F3100011F310001AF
:102F50001F3100011F3100011F3100010930000144
:102F6000B93000011F3100011F3100011F31000184
:102F70001F3100011F310001912F00011F3100019D
:102F80001F3100011F3100011F310001DD30000140
:102F90007B689B881846FFF70FFCF860FB68002BE6
:102FA00000F0BF807B68DA88FB689A80B9E07B68B4
:102FB0009B881846FFF700FCF860FB68002B00F0C8
:102FC000B2807B689B79122B40F0AD807B689B7A46
:102FD000052B04D07B689B7A0F2B40F0A4807B6884
:102FE0001A89FB685B781846554903461B011B1A72
:102FF0005B000B4418331B889A4240F09480FB68B6
:10300000012283F891208EE07B689B881846FFF7A9
:10301000D3FBF860FB68002B00F087807B681A897F
:10302000FB685B781846464903461B011B1A5B0088
:103030000B441B889A423BD07B681A89FB685B78FB
:1030400018463F4903461B011B1A5B000B4406331D
:103050001B889A422CD07B681A89FB685B781846DB
:10306000374903461B011B1A5B000B440C331B88BA
:103070009A421DD07B681A89FB685B7818463049F4
:1030800003461B011B1A5B000B4412331B889A4238
:103090000ED07B681A89FB685B781846284903467E
:1030A0001B011B1A5B000B4418331B889A423ED14C
:1030B000F868FFF707FE38E07B689B881846FFF743
:1030C0007BFBF860FB68002B33D07B68191D7B68A5
:1030D000DB881A46F868FFF797FE2AE07B689B8832
:1030E0001846FFF769FBF860FB68002B11D0FB68FE
:1030F00093F89030002B0CD0FB6893F89020FB687D
:10310000DA71FB68002283F89020F868FFF7DAFD97
:1031100011E0FB68002B0ED000F040F80BE000BF80
:103120000AE000BF08E000BF06E000BF04E000BF07
:1031300002E000BF00E000BF00BF1037BD4680BD09
:10314000C0EE002080B483B000AF0023FB7118E014
:10315000FB79114A942101FB03F3134492331B784A
:10316000012B0BD1FB790C4A942101FB03F313448F
:1031700009331B780C2B01D9012306E0FB790133BD
:10318000FB71FB79072BE3D9002318460C37BD46AA
:103190005DF8047B704700BF20EA002080B582B054
:1031A00000AF0023FB711FE0FB79134A942101FB60
:1031B00003F3134492331B78012B12D1FB790E4A8F
:1031C000942101FB03F3134409331B780C2B08D91A
:1031D000FB79942202FB03F3074A13441846FFF7D6
:1031E00033FCFB790133FB71FB79072BDCD900BF82
:1031F0000837BD4680BD00BF20EA002080B584B0FE
:1032000000AF78600023FB607B681B78092B73D8C4
:1032100001A252F823F000BF413200015F320001E9
:10322000F9320001E5320001F9320001F932000102
:10323000F9320001F9320001F9320001DF320001F8
:103240007B689B78002B59D1FFF7EAFAF860FB689E
:10325000002B53D07B689A88FB685A804EE07B68CD
:103260005B881846FFF7A8FAF860FB68002B47D088
:103270002DE0FB689B7BFA680133DB001344DB68BD
:10328000002B11D0FB689B7BFA680133DB001344F1
:10329000DB68184608F00DFDFB689B7BFA6801337C
:1032A000DB0013440022DA60FB689B7B0133DAB257
:1032B000FB689A73FB689B7B0F2B02D9FB6800228B
:1032C0009A73FB681B7B013BDAB2FB681A73FB68DD
:1032D0001B7B002BCDD1F868FFF75EFA10E0FFF7FB
:1032E0005DFF10E07B681B79002B0BD17B685B884E
:1032F000184600F00CF805E000BF04E000BF02E053
:1033000000BF00E000BF00BF1037BD4680BD80B5E4
:1033100084B000AF0346FB80FB881846FFF74CFAE9
:10332000B8600023FB7320E0FB7B144A32F8333093
:10333000FA889A4216D1FB7B104ADB0013445B6883
:1033400012331B88002B14D0BB68002B11D0BB6834
:1033500093F89130012B0CD1FB8803211846FFF71D
:1033600013FC06E0FB7B0133FB73FB7B072BDBD9F4
:1033700000E000BF00BF1037BD4680BDB0EF0020A9
:1033800080B483B000AF7860044A7B68136000BFEC
:103390000C37BD465DF8047B704700BF1CEA002077
:1033A00090B58BB000AF002387F8273019E097F86D
:1033B0002730942202FB03F3184A13441846FFF700
:1033C000EBF997F82730DB00154A134497F82720CC
:1033D00011461846FFF75CFA97F82730013387F853
:1033E000273097F82730072BE1D910233B740D4B7A
:1033F0003C460FCB84E80F0000237B610A4BBB6186
:10340000074BFB61052387F820303B46184602F046
:1034100033F8034618462C37BD4690BD20EA0020FD
:10342000B0EF00202CED010178FD002080B586B0C2
:1034300000AF3B600346FB800B467B7113463B713C
:10344000FB881846FFF7B8F978617B69002B01D13A
:10345000012357E07B691B785BB2002B01DB012362
:1034600050E07B791F2B01D803234BE03A797B692D
:103470009B88043B9A4201D9032343E0FE2008F0D5
:103480000CFC38613B69002B3BD07B695B781946AB
:103490001E4A0B461B015B1A5B00134412331A8849
:1034A0003B691A803B799BB201339AB23B695A80DF
:1034B0003B697A791A713B6905333A79396818465C
:1034C00025F0BCFF3B69122283F8F8203B690022FB
:1034D000A3F8FA203B69002283F8FC207B695B8813
:1034E0003969184622F018F80346FB81FB89002B46
:1034F00002D17B6901229A72386908F0DAFBFB89F4
:1035000000E0022318461837BD4680BDC0EE0020FB
:1035100080B586B000AF03463A60FB800B46BB80A7
:10352000FB881846FFF748F978617B69002B01D1C9
:10353000012377E07B691B7803F02003002B05D083
:103540007B691B7A002B01D104236BE0FFF7FAFDA6
:103550000346002B01D0042364E0BA887B699B8872
:10356000033B9A4201D901235CE0FE2008F095FB61
:1035700038613B69002B01D1022353E07B691B7842
:1035800003F02003002B04D03B69522283F8F8207B
:103590000FE07B691B7803F01003002B04D03B691C
:1035A000122283F8F82004E0386908F082FB052332
:1035B00038E07B695B7819461C4A0B461B015B1A95
:1035C0005B0013440C331A883B691A803B69BA8844
:1035D0005A803B690433BA883968184625F02EFFB3
:1035E0003B690022A3F8FA203B69002283F8FC2003
:1035F000FB883969184621F08FFF0346FB81386943
:1036000008F057FBFB89002B0BD17B691B7803F07B
:103610002003002B05D07B691B7A013BDAB27B6962
:103620001A72FB8918461837BD4680BDC0EE0020CF
:1036300080B584B000AF03463960FB800023FB6097
:10364000FB881846FFF7B8F8F860FB68002B11D02C
:10365000FB681B7B002B09D0FB689B7BFA6801335E
:10366000DB0013441A893B681A8006E03B6800229D
:103670001A8002E03B6800221A8000BF1037BD4666
:1036800080BD80B584B000AF03463960FB80002365
:10369000FB60FB881846FFF78FF8F860FB68002B8B
:1036A0005AD0FB681B7B002B54D0FB689B7BFA68CD
:1036B0000133DB001344DB68002B23D0FB689B7BCA
:1036C000FA680133DB001344D968FB689B7BFA6816
:1036D0000133DB0013441B891A46386825F0AEFE1F
:1036E000FB689B7BFA680133DB001344DB681846F8
:1036F00008F0DFFAFB689B7BFA680133DB001344B8
:103700000022DA60FB689B7B0133DAB2FB689A73B4
:10371000FB689B7B0F2B02D9FB6800229A73FB6826
:103720001B7B013BDAB2FB681A73FB681B7803F062
:103730000103002B0CD0FB685B7A0133DAB2FB6823
:103740005A72FB685B7A0C2B02D9F868FFF77CF998
:10375000002302E0012300E0012318461037BD4694
:1037600080BD80B582B000AF78607B681B78012B8C
:1037700002D0042B06D00BE07B685B681846FFF78D
:103780003DFD05E07B685B681846FFF7CBFB00BF9B
:1037900000BF0837BD4680BD80B588B000AF7860F7
:1037A0007B681B78002B3DD10023FB7736E0FB7F45
:1037B0001F4A32F833207B685B889A422BD1FB7F0B
:1037C0001B4ADB0013445B6812331B88002B22D09A
:1037D000184B1B68002B0AD006233B737B685B8861
:1037E0003B82144B1B6807F10C02104698477B681C
:1037F0005B881846FEF7E0FFB861BB69002B0AD072
:10380000BB6993F89130002B05D17B685B8803215D
:103810001846FFF7B9F9FB7F0133FB77FB7F072BD6
:10382000C5D900E000BF00BF2037BD4680BD00BF46
:10383000B0EF00201CEA002080B584B000AF7860B3
:1038400039600123FB607B68BB60BB68002B5DD0E7
:10385000BB68DB6B002B59D0BB681A6CBB68DB6B99
:103860000021A3FB0223002B00D001210B46002BDB
:103870004CD107F03EFABB681A68BB68DB6BB968CD
:10388000096C01FB03F31A44BB689A60BB68002211
:103890009A63BB681A68BB685A60BB681A68BB68E1
:1038A000DB6B013BB968096C01FB03F31A44BB688D
:1038B000DA60BB68FF2283F84420BB68FF2283F8EC
:1038C00045203B68002B14D1BB681B69002B1AD024
:1038D000BB6810331846FDF7E9FD0346002B12D0F4
:1038E0000E4B4FF080521A60BFF34F8FBFF36F8FB4
:1038F00009E0BB68103318460EF050F8BB6824335B
:1039000018460EF04BF807F00DFA01E00023FB60BB
:10391000FB6818461037BD4680BD00BF04ED00E0CF
:1039200080B58AB002AFF860B9601346FB7100231E
:10393000FB61FB68002B2DD00021BA68FB68A3FB5C
:103940000223002B00D001210B46002B22D1FB6863
:10395000BA6802FB03F313F14D0F1BD8FB68BA687A
:1039600002FB03F3BB61BB694C33184606F0D2FE81
:10397000F861FB69002B0DD0FB697B617B694C33DF
:103980007B61FA79FB69009313467A69B968F86834
:1039900000F005F8FB6918462037BD4680BD80B5AC
:1039A00084B000AFF860B9607A60FB70BB68002B30
:1039B00003D1BB69BA691A6002E0BB697A681A6010
:1039C000BB69FA68DA63BB69BA681A640121B8692D
:1039D000FFF732FFBB6900229A6400BF1037BD4673
:1039E00080BD80B582B000AF78607B68002B0ED0C0
:1039F0007B6800229A607B6800221A607B68002244
:103A0000DA60002300220021786800F03BF800BF54
:103A10000837BD4680BD80B586B000AF0346FB7158
:103A200001237B6100233B61FB791A463969786980
:103A3000FFF776FFF860F868FFF7D3FFFB681846DA
:103A40001837BD4680BD80B584B000AF786039605E
:103A50000023FB607B68002B0FD03A687B689A429A
:103A60000BD8022200217868FFF75AFFF860FB6844
:103A7000002B02D0FB683A689A63FB68184610373F
:103A8000BD4680BD80B58AB000AFF860B9607A608D
:103A90003B6000237B62FB683B6207F02AF93B6ACC
:103AA0009A6B3B6ADB6B9A4202D33B68022B45D18F
:103AB0003B6A9B6BFB613A68B968386A00F08AFC24
:103AC000B8613B6A9B6C002B14D03B68022B02D17F
:103AD000FB69002B2ED1386A00F040FE0346002B14
:103AE00028D04A4B4FF080521A60BFF34F8FBFF37C
:103AF0006F8F1FE03B6A5B6A002B10D03B6A243358
:103B00001846FDF7D3FC0346002B13D03F4B4FF074
:103B100080521A60BFF34F8FBFF36F8F0AE0BB690B
:103B2000002B07D0394B4FF080521A60BFF34F8FF4
:103B3000BFF36F8F07F0F6F8012363E07B68002B7B
:103B400003D107F0EFF800235CE07B6A002B06D17D
:103B500007F110031846FDF72BFE01237B6207F0E7
:103B6000E1F8FDF721F907F0C4F83B6A93F8443017
:103B70005BB2B3F1FF3F03D13B6A002283F84420DC
:103B80003B6A93F845305BB2B3F1FF3F03D13B6A28
:103B9000002283F8452007F0C5F83A1D07F110030D
:103BA00011461846FDF71AFE0346002B24D1386A49
:103BB00000F02BFD0346002B18D03B6A10337A68C7
:103BC00011461846FDF724FC386A00F093FCFDF717
:103BD00033F90346002B7FF460AF0C4B4FF080525B
:103BE0001A60BFF34F8FBFF36F8F56E7386A00F04C
:103BF00081FCFDF721F950E7386A00F07BFCFDF706
:103C00001BF9002318462837BD4680BD04ED00E0AF
:103C100080B58EB000AFF860B9607A603B60FB6839
:103C20003B63EFF311824FF0200383F31188BFF35E
:103C30006F8FBFF34F8FFA61BB61FB69FB623B6B18
:103C40009A6B3B6BDB6B9A4202D33B68022B4ED1E3
:103C50003B6B93F8453087F82B303B6B9B6B7B625B
:103C60003A68B968386B00F0B5FB97F92B30B3F1BF
:103C7000FF3F29D13B6B9B6C002B12D03B68022B82
:103C800002D17B6A002B2FD1386B00F067FD034611
:103C9000002B29D07B68002B26D07B6801221A607C
:103CA00022E03B6B5B6A002B1ED03B6B2433184633
:103CB000FDF7FCFB0346002B16D07B68002B13D0CE
:103CC0007B6801221A600FE0FDF7C4F9386297F9AA
:103CD0002B303A6A9A4207D997F82B300133DBB27E
:103CE0005AB23B6B83F8452001237B6301E000233C
:103CF0007B63FB6A7B617B6983F311887B6B18466E
:103D00003837BD4680BD80B58CB000AF7860396073
:103D10007B68BB62EFF311824FF0200383F31188BD
:103D2000BFF36F8FBFF34F8F7A613B617B697B621B
:103D3000BB6A9B6B3B62BB6ADB6B3A6A9A4242D2BC
:103D4000BB6A93F84530FB773B6A5A1CBB6A9A639F
:103D500097F91F30B3F1FF3F23D1BB6A9B6C002B57
:103D60000CD0B86A00F0FAFC0346002B28D03B6860
:103D7000002B25D03B6801221A6021E0BB6A5B6AF8
:103D8000002B1DD0BB6A24331846FDF78FFB03467A
:103D9000002B15D03B68002B12D03B6801221A6023
:103DA0000EE0FDF757F9B86197F91F30BA699A42EA
:103DB00006D9FB7F0133DBB25AB2BB6A83F84520D8
:103DC0000123FB6201E00023FB627B6AFB60FB686E
:103DD00083F31188FB6A18463037BD4680BD80B535
:103DE0008AB000AFF860B9607A6000237B62FB683C
:103DF0003B6206F07EFF3B6A9B6BFB61FB69002B1D
:103E00001FD0B968386A00F04FFBFB695A1E3B6A45
:103E10009A633B6A1B69002B0FD03B6A103318462C
:103E2000FDF744FB0346002B07D03D4B4FF080527B
:103E30001A60BFF34F8FBFF36F8F06F073FF01233C
:103E400069E07B68002B03D106F06CFF002362E081
:103E50007B6A002B06D107F114031846FDF7A8FC76
:103E600001237B6206F05EFFFCF79EFF06F041FF38
:103E70003B6A93F844305BB2B3F1FF3F03D13B6A36
:103E8000002283F844203B6A93F845305BB2B3F1DB
:103E9000FF3F03D13B6A002283F8452006F042FF32
:103EA0003A1D07F1140311461846FDF797FC034627
:103EB000002B23D1386A00F07CFB0346002B17D07F
:103EC0003B6A24337A6811461846FDF7A1FA386A2E
:103ED00000F010FBFCF7B0FF0346002B89D1104B1C
:103EE0004FF080521A60BFF34F8FBFF36F8F80E7A0
:103EF000386A00F0FFFAFCF79FFF7AE7386A00F0B3
:103F0000F9FAFCF799FF386A00F053FB0346002BDF
:103F10003FF46FAF002318462837BD4680BD00BF71
:103F200004ED00E080B58AB000AF7860396000230E
:103F30007B627B68FB6100233B6206F0DAFEFB6973
:103F40009B6BBB61BB69002B24D0BB695A1EFB690C
:103F50009A63FB691B68002B04D1FDF76FFF0246D3
:103F6000FB699A60FB691B69002B0FD0FB6910335A
:103F70001846FDF79BFA0346002B07D04C4B4FF039
:103F800080521A60BFF34F8FBFF36F8F06F0CAFEE7
:103F9000012389E03B68002B03D106F0C3FE002318
:103FA00082E07B6A002B06D107F10C031846FDF76F
:103FB000FFFB01237B6206F0B5FEFCF7F5FE06F081
:103FC00098FEFB6993F844305BB2B3F1FF3F03D135
:103FD000FB69002283F84420FB6993F845305BB20B
:103FE000B3F1FF3F03D1FB69002283F8452006F0BF
:103FF00099FE3A4607F10C0311461846FDF7EEFB11
:104000000346002B32D1F86900F0D3FA0346002BA7
:1040100026D0FB691B68002B09D106F06AFEFB69FC
:104020009B681846FDF73CFD386206F07BFEFB6995
:1040300024333A6811461846FDF7EAF9F86900F0AA
:1040400059FAFCF7F9FE0346002B7FF476AF184BC4
:104050004FF080521A60BFF34F8FBFF36F8F6CE742
:10406000F86900F047FAFCF7E7FE66E7F86900F048
:1040700041FAFCF7E1FEF86900F09BFA0346002BD9
:104080003FF45BAF3B6A002B0DD006F032FEF869BF
:1040900000F088F97861FB699B6879691846FDF73B
:1040A0001FFE06F03FFE002318462837BD4680BDA0
:1040B00004ED00E080B58AB000AFF860B9607A60C6
:1040C00000237B62FB683B6206F013FE3B6A9B6B3E
:1040D000FB61FB69002B21D03B6ADB68BB61B968DF
:1040E000386A00F0E1F93B6ABA69DA603B6A5B6AF8
:1040F000002B0FD03B6A24331846FDF7D7F903464F
:10410000002B07D03C4B4FF080521A60BFF34F8F0B
:10411000BFF36F8F06F006FE012369E07B68002B7A
:1041200003D106F0FFFD002362E07B6A002B06D17D
:1041300007F110031846FDF73BFB01237B6206F0F5
:10414000F1FDFCF731FE06F0D4FD3B6A93F84430F4
:104150005BB2B3F1FF3F03D13B6A002283F84420F6
:104160003B6A93F845305BB2B3F1FF3F03D13B6A42
:10417000002283F8452006F0D5FD3A1D07F1100313
:1041800011461846FDF72AFB0346002B23D1386A57
:1041900000F00FFA0346002B17D03B6A24337A68ED
:1041A00011461846FDF734F9386A00F0A3F9FCF718
:1041B00043FE0346002B87D10F4B4FF080521A600D
:1041C000BFF34F8FBFF36F8F7EE7386A00F092F92D
:1041D000FCF732FE78E7386A00F08CF9FCF72CFE29
:1041E000386A00F0E6F90346002B3FF46DAF002378
:1041F00018462837BD4680BD04ED00E080B58EB07E
:1042000000AFF860B9607A60FB683B63EFF311823E
:104210004FF0200383F31188BFF36F8FBFF34F8FED
:10422000FA61BB61FB69FB623B6B9B6BBB62BB6A68
:10423000002B37D03B6B93F8443087F82730B968B0
:10424000386B00F031F9BB6A5A1E3B6B9A6397F9E1
:104250002730B3F1FF3F12D13B6B1B69002B1ED0FF
:104260003B6B10331846FDF721F90346002B16D09F
:104270007B68002B13D07B6801221A600FE0FCF7EB
:10428000E9FE386297F927303A6A9A4207D997F8D7
:1042900027300133DBB25AB23B6B83F84420012351
:1042A0007B6301E000237B63FB6A7B617B6983F3B3
:1042B00011887B6B18463837BD4680BD80B58AB003
:1042C00000AF786039607B683B62EFF311824FF09A
:1042D000200383F31188BFF36F8FBFF34F8F7A6191
:1042E0003B617B69FB613B6A9B6B002B0CD03B6A9B
:1042F000DB68BB613968386A00F0D6F83B6ABA6996
:10430000DA6001237B6201E000237B62FB69FB60D2
:10431000FB6883F311887B6A18462837BD4680BD49
:1043200080B584B000AF786006F0E3FC7B689B6BDF
:10433000FB6006F0F7FCFB6818461037BD4680BDF1
:1043400080B584B000AF78607B68FB6006F0D1FC7C
:10435000FB68DA6BFB689B6BD31ABB6006F0E2FC70
:10436000BB6818461037BD4680BD80B485B000AF2D
:1043700078607B68FB60FB689B6BBB60BB68184622
:104380001437BD465DF8047B704780B584B000AF3C
:1043900078607B68FB60F86806F05AFA00BF103757
:1043A000BD4680BD80B485B000AF78607B685B6A35
:1043B000002B06D07B681B6B1B68C3F10503FB60F9
:1043C00001E00023FB60FB6818461437BD465DF82A
:1043D000047B704780B586B000AFF860B9607A6042
:1043E00000237B61FB689B6B3B61FB681B6C002BB4
:1043F0000DD1FB681B68002B4DD1FB689B681846EC
:10440000FDF7ECFB7861FB6800229A6043E07B6873
:10441000002B19D1FB685868FB681B6C1A46B968F9
:1044200025F00CF8FB685A68FB681B6C1A44FB68A3
:104430005A60FB685A68FB689B689A422BD3FB68FA
:104440001A68FB685A6026E0FB68D868FB681B6C3A
:104450001A46B96824F0F2FFFB68DA68FB681B6C47
:104460005B421A44FB68DA60FB68DA68FB681B6829
:104470009A4207D2FB689A68FB681B6C5B421A443D
:10448000FB68DA607B68022B05D13B69002B02D008
:104490003B69013B3B613B695A1CFB689A637B6942
:1044A00018461837BD4680BD80B582B000AF786031
:1044B00039607B681B6C002B18D07B68DA687B68DE
:1044C0001B6C1A447B68DA607B68DA687B689B68DF
:1044D0009A4203D37B681A687B68DA607B68D96884
:1044E0007B681B6C1A46386824F0A8FF00BF0837A9
:1044F000BD4680BD80B584B000AF786006F0F9FBA2
:104500007B6893F84530FB731EE07B689B6C002B47
:1045100008D0786800F022F90346002B10D0FDF790
:10452000A7F90DE07B685B6A002B12D07B6824330F
:104530001846FCF7BBFF0346002B01D0FDF798F9A6
:10454000FB7B013BDBB2FB7397F90F30002BDCDC0C
:1045500000E000BF7B68FF2283F8452006F0E2FB05
:1045600006F0C7FB7B6893F84430BB7311E07B68AF
:104570001B69002B12D07B6810331846FCF796FF9E
:104580000346002B01D0FDF773F9BB7B013BDBB287
:10459000BB7397F90E30002BE9DC00E000BF7B68AD
:1045A000FF2283F8442006F0BDFB00BF1037BD4654
:1045B00080BD80B584B000AF786006F09AFB7B6860
:1045C0009B6B002B02D10123FB6001E00023FB6009
:1045D00006F0A8FBFB6818461037BD4680BD80B4C6
:1045E00085B000AF78607B68BB60BB689B6B002BBD
:1045F00002D10123FB6001E00023FB60FB68184649
:104600001437BD465DF8047B704780B584B000AFB9
:10461000786006F06EFB7B689A6B7B68DB6B9A4276
:1046200002D10123FB6001E00023FB6006F07AFB6E
:10463000FB6818461037BD4680BD80B485B000AF1A
:1046400078607B68BB60BB689A6BBB68DB6B9A4227
:1046500002D10123FB6001E00023FB60FB681846E8
:104660001437BD465DF8047B704780B584B000AF59
:104670007860002204217868FFF752F9F860FB683F
:1046800018461037BD4680BD80B584B000AF786055
:10469000396006F02EFB7B689B6C002B02D0002358
:1046A000FB600BE07B689B6B002B02D00023FB6060
:1046B00004E07B683A689A640123FB6006F032FBF1
:1046C000FB6818461037BD4680BD80B584B000AF8A
:1046D000786039607B68BB60BB689B6C3A689A42C3
:1046E00002D00023FB600FE0BB689B6B002B02D065
:1046F0000023FB6008E006F0FCFABB6800229A6425
:1047000006F010FB0123FB60FB6818461037BD461E
:1047100080BD80B584B000AF786039600023FB6055
:1047200007F10C033A6819467868FFF758FBFB68F5
:1047300018461037BD4680BD80B584B000AF7860A4
:104740000023FB6007F10C03002219467868FFF78D
:1047500055FDFB6818461037BD4680BD80B586B054
:1047600000AF78607B689B6C3B6100237B613B6999
:104770009A6B3B69DB6B9A422DD23B6993F84530CB
:10478000FB733B1D002219463869FFF723FE786151
:1047900097F90F30B3F1FF3F0ED13B695B6A002BF5
:1047A00019D03B6924331846FCF780FE0346002BE2
:1047B00011D001237B610EE0FCF74CFCB86097F947
:1047C0000F30BA689A4206D9FB7B0133DBB25AB28A
:1047D0003B6983F845207B6918461837BD4680BD84
:1047E00080B584B000AF78607B681B68002B04D074
:1047F0007B681B68184607F05CFA0023FB7319E01E
:10480000104B1B68FA7B53F822307A689A420ED11B
:104810000C4B1B68FA7B53F82230184607F049FA14
:10482000084B1B68FA7B002143F8221005E0FB7B54
:104830000133FB73FB7B072BE2D900BF1037BD466A
:1048400080BD00BF58FA0020B0B582B000AF002391
:10485000FB7130E01C4B1B68FA7953F82230002BB7
:1048600026D1194B1C68FD79102007F016FA034673
:1048700044F82530144B1B68FA7953F82230002B8A
:1048800010D0114B1B68FA7953F822301022002106
:10489000184625F0F1FA0C4B1B68FA7953F82230D0
:1048A000FA799A72084B1B68FA7953F8223006E0BD
:1048B000FB790133FB71FB79072BCBD90023184619
:1048C0000837BD46B0BD00BF58FA002080B485B09F
:1048D00000AF0346FB800023FB731FE0144B1B68F3
:1048E000FA7B53F82230002B15D0114B1B68FA7B52
:1048F00053F822301B89FA889A420CD10C4B1B6862
:10490000FA7B53F82230FA7B9A72094B1B68FA7BC8
:1049100053F8223006E0FB7B0133FB73FB7B072B54
:10492000DCD9002318461437BD465DF8047B704778
:1049300058FA002080B584B000AF7860094B1B683E
:10494000002B0AD000233B737B681B89FB81054B3E
:104950001B6807F10C021046984700BF1037BD4690
:1049600080BD00BF54FA002080B588B000AF7860E9
:104970003A4B1A687B681B7B19460B46DB000B44DD
:104980009B0013443C331A687B689B7ADB0013441A
:104990005A687B685A607B685868304B1A687B6835
:1049A0001B7B19460B46DB000B449B001344403332
:1049B0001B781A4613465B0013445B001A4600211D
:1049C00025F05AFA7B681B6808220021184625F05A
:1049D00053FA01233B814FF6FF737B811F4B1A680B
:1049E0007B681B7B19460B46DB000B449B00134482
:1049F00030331B783B73194B1A687B681B7B194655
:104A00000B46DB000B449B002033D018134B1A6875
:104A10007B681B7B19460B46DB000B449B00134451
:104A200030331B781A4607F1080305330146184650
:104A300024F004FD7B681B8907F108021146184623
:104A400020F04EFD0346072B03D17B681B6806222E
:104A50005A7100BF2037BD4680BD00BF58FA002004
:104A600080B582B000AF78607B681B7B0133DAB21F
:104A70007B681A737B681A7B094B1B6893F8F830C4
:104A80009A4203D27868FFF76FFF05E07B68002247
:104A90005A737868FFF74EFF00BF0837BD4680BDE8
:104AA00058FA002080B584B000AF786000237B8185
:104AB000224B1A687B681B7B19460B46DB000B44B4
:104AC0009B00134438331B68FB6000237B7221E09A
:104AD000FB681B681B7903F00103002B14D07B6873
:104AE00018897B681B6819887B681B685B881A4675
:104AF0001FF086F80346072B03D17B681B6804224E
:104B00005A7101237B8114E07B7A01337B72FB684D
:104B10000433FB60094B1A687B681B7B19460B4604
:104B2000DB000B449B00134440331B787A7A9A4293
:104B3000CED37B8918461037BD4680BD58FA002079
:104B400090B587B000AF7860396000237B823B6806
:104B50009B79152B02D110237B748FE002237B7489
:104B60008CE07B8A05333A6813440A33FB600023E8
:104B70003B74474B1A687B681B7B19460B46DB006E
:104B80000B449B00134438331B687B6161E07B69F5
:104B90001B681B7903F00103002B54D17B691B6850
:104BA0001B681B7C7A7C9A424DD17B691B681B6811
:104BB00018467B7C1A46F96824F032FC0346002B29
:104BC00041D17B8A3A6813449B7A98B27B8A3A68CF
:104BD00013440A3301331B789BB21B0299B27B68E2
:104BE0005C683A7C13465B0013445B002344421824
:104BF00092B29A807B8A03333A6813449B7A98B2C4
:104C00007B8A03333A6813440A3301331B789BB21F
:104C10001B0299B27B685C683A7C13465B001344C4
:104C20005B002344421892B21A807B8A991C7B68ED
:104C300058683A7C13465B0013445B0003443A68AF
:104C40000A44927A9A703B7C01333B747B6904334B
:104C50007B610F4B1A687B681B7B19460B46DB0098
:104C60000B449B00134440331B783A7C9A428ED30A
:104C70003B689B799AB27B8A13447B823B681B8991
:104C80007A8A9A42FFF46DAF00BF1C37BD4690BDD3
:104C900058FA002090B587B000AF786039600023E3
:104CA0007B820223FB8171E07B8A02333A681344E2
:104CB0000A33BB6000233B82394B1A687B681B7B3D
:104CC00019460B46DB000B449B00134438331B682A
:104CD0007B6145E07B691B681B7903F00103002BB6
:104CE00038D07B6859683A8A13465B0013445B00EE
:104CF0000B441B88002B2DD17B691B681B681B7C18
:104D00009BB2FA899A4225D17B691B681B681846B9
:104D1000FB891A46B96824F083FB0346002B19D19E
:104D20007B8A3A6813449B7A98B27B8A3A68134428
:104D30000A3301331B789BB21B0299B27B685C6813
:104D40003A8A13465B0013445B002344421892B234
:104D50001A8015E03B8A01333B827B6904337B6117
:104D60000F4B1A687B681B7B19460B46DB000B4414
:104D70009B00134440331B789BB23A8A9A42A9D3D2
:104D80007A8AFB8913449BB202337B823B681B897E
:104D90007A8A9A4288D300BF1C37BD4690BD00BFB7
:104DA00058FA002080B588B000AF786039603B6861
:104DB0001B78012B00F08B80032B00F0A180002BCF
:104DC00040F028813B689B78002B40F02581FFF75D
:104DD0003BFDB861BB69002B00F01E813B689A88DF
:104DE000BB691A81BB6900221A733B689A79BB6957
:104DF000DA72082006F051FF0246BB691A600023F0
:104E0000FB7713E0894B1968FA7F1346DB001344E4
:104E10009B000B443C331A68BB699B7ADB0013444C
:104E20003A6892881A80FB7F0133FB777F4B1B68BF
:104E300093F8F830FA7F9A42E4D3BB691B68002BE1
:104E400039D0BB691B6808220021184625F014F8E8
:104E50007B681B7803F00803DBB2002B23D17B684F
:104E60001B7803F00203DBB2002B03D0BB69DB7AB3
:104E7000002B0AD07B681B7803F00403DBB2002B05
:104E800019D0BB69DB7A012B15D17B681B7803F045
:104E90000103DBB2002B0ED1BB6901225A73B86942
:104EA000FFF762FD07E07A6813786FF3C3031370AE
:104EB000BB6901229A7302233B73BB691B89FB8187
:104EC0005B4B1B6807F10C0210469847A4E03B6857
:104ED0005B881846FFF7FAFC78617B69002B00F0CD
:104EE0009D807869FFF77CFC03233B723B685B88FD
:104EF0007B814F4B1B6807F10802104698478DE0F5
:104F00003B681B79002B40F08B803B685B88184620
:104F1000FFF7DCFC38613B69002B00F081803B69C6
:104F20001B68002B41D03B691B689B79002B3CD050
:104F30003B691B689B79062B03D13869FFF714FD89
:104F40002EE03B691B689B79082B12D13B691889BD
:104F50003B691B6819883B691B685B881A461EF011
:104F60002DFE0346072B1BD13B691B6808225A7193
:104F700016E03B691B689B79042B11D13B691889AA
:104F80003B691B6819883B691B685B881A461EF0E1
:104F900037FE0346072B03D13B691B6804225A7175
:104FA0003B691B6800229A713AE07B681B7803F02A
:104FB0000103DBB2002B33D01C4B1B6893F8F83095
:104FC000002B2DD03B691B68002B29D03B699B7BB4
:104FD00083F00103DBB2002B22D07B681B7803F047
:104FE0000203DBB2002B03D03B69DB7A002B0AD033
:104FF0007B681B7803F00403DBB2002B10D03B6905
:10500000DB7A012B0CD13B6901225A733869FFF717
:10501000ABFC05E000BF04E000BF02E000BF00E021
:1050200000BF00BF2037BD4680BD00BF58FA00203A
:1050300054FA002080B58AB000AF78607B681B7896
:10504000132B00F2B58101A252F823F09D5000010C
:10505000B1530001735100016B520001BD520001B8
:10506000B1530001B1530001B1530001B15300012C
:10507000B1530001B1530001B1530001B15300011C
:10508000B1530001B1530001B1530001B15300010C
:10509000B1530001B1530001FF5200017B689B88AE
:1050A0001846FFF713FC78627B6A002B00F08281C0
:1050B0007B6A5B7B83F00103DBB2002B40F07C81D9
:1050C0007B689B7A0F2B03D07B689B7A052B15D1CD
:1050D0007B6A1B687A6892799A71A54B1B68002BD2
:1050E00000F06C8101233B727B6A1B897B81A04BA2
:1050F0001B6807F10802104698475FE17B689B79BF
:10510000062B1CD17B6A1B681B79002B13D07B6A92
:1051100018897B6A1B6819887B6A1B685B881A463A
:105120001EF04CFD0346072B40F044817B6A1B6850
:1051300008225A713EE1786AFFF792FC3AE17B68F7
:105140009B79082B0CD1786AFFF7ACFC03467B8473
:105150007B8C002B40F02E81786AFFF781FC29E1DF
:105160007B689B79042B40F02581786AFFF778FCF7
:1051700020E17B689B881846FFF7A8FBF861FB6974
:105180005B7B83F00103DBB2002B40F01981FB69EC
:10519000002B00F017817B681B7A99B27B6808337B
:1051A00001331B789BB21B029AB2FB691B680A444D
:1051B00092B21A807B689B7A99B27B680A3301337A
:1051C0001B789BB21B029AB2FB691B680A4492B21D
:1051D0005A80684B1A68FB691B7B19460B46DB003B
:1051E0000B449B00134434331B68002B1FD0FB6916
:1051F0001A68604B1968FB691B7B18460346DB0085
:1052000003449B000B4434331B6812881A80FB69EB
:105210001A68584B1968FB691B7B18460346DB006C
:1052200003449B000B4434331B6852885A80FB694B
:105230001B6801221A717B6893F8FE30012B40F045
:10524000C180FB691889FB691B681988FB691B68A9
:105250005B881A461EF0B2FC0346072B40F0B28072
:10526000FB691B6808225A71ACE07B689B88184672
:10527000FFF72CFBB861BB695B7B83F00103DBB2FA
:10528000002B40F0A180BB69002B00F09F80796863
:10529000B869FFF755FC7B6893F8FF30012B40F0AD
:1052A0009580B869FFF7FEFB0346FB82FB8A002B63
:1052B00040F08C80B869FFF7D3FB87E07B689B8860
:1052C0001846FFF703FB38613B695B7B83F0010302
:1052D000DBB2002B7CD13B69002B7BD07B681B8928
:1052E000002B03D079683869FFF7D4FC7B6893F80A
:1052F000FF30012B6ED13869FFF7B2FB6AE07B68A3
:105300009B881846FFF7E2FAF860FB685B7B83F046
:105310000103DBB2002B5FD1FB68002B5ED0FB6882
:105320001B685B79062B07D1FB681B6800225A714A
:10533000F868FFF719FB51E0FB681B685B79082BE5
:105340001AD1FB681B6800225A71FB681889FB6838
:105350001B681988FB681B685B881A461EF02EFCC8
:105360000346072B3AD1FB681B6808225A7135E0C7
:1053700054FA002058FA0020FB681B685B79042B64
:105380002CD1FB681B6800225A71FB681889FB68E6
:105390001B681988FB681B685B881A461EF030FC86
:1053A0000346072B1AD1FB681B6804225A7115E0CB
:1053B00000BF14E000BF12E000BF10E000BF0EE02D
:1053C00000BF0CE000BF0AE000BF08E000BF06E03D
:1053D00000BF04E000BF02E000BF00E000BF2837CC
:1053E000BD4680BD80B582B000AF1A4B1B68002B54
:1053F0000BD1FC2006F051FC0246164B1A60154BEF
:105400001B68002B19D100231FE00023FB7111E062
:10541000104B1B68FA7953F82230002B07D00D4B44
:105420001B68FA7953F822301846FFF7D9F9FB794F
:105430000133FB71FB79072BEAD9064B1B68FC2271
:105440000021184624F018FD012318460837BD46F0
:1054500080BD00BF58FA002080B483B000AF7860F0
:10546000044A7B68136000BF0C37BD465DF8047BBF
:10547000704700BF54FA002080B582B000AF78605A
:10548000144B1B6893F8F830052B1DD8114B1A6884
:10549000104B1B6893F8F83019460B46DB000B44A1
:1054A0009B002033134424227968184623F0C6FF5A
:1054B000084B1B6893F8F820064B1B680132D2B2E8
:1054C00083F8F820002300E0012318460837BD4682
:1054D00080BD00BF58FA002080B582B000AF786070
:1054E00039603B681B78012B02D0042B0AD010E0F6
:1054F0007B68002B0CD03B685B6819467868FFF727
:1055000051FC05E03B685B681846FFF793FD00E03F
:1055100000BF00BF0837BD4680BD80B584B000AF76
:105520000346FB80FB881846FFF7D0F9F860FB685C
:10553000002B17D0FB681B68002B11D0FB681B6881
:1055400008220021184624F097FCFB6800221A73F9
:10555000FB6801225A73F868FFF706FA002302E09D
:10556000022300E0032318461037BD4680BD00BF6C
:1055700008B5044B186818B1804780F00100C0B22C
:1055800008BD00BFF0EF002009B91046704780B198
:10559000037883EA122383EA131343EA022282EA9E
:1055A000033282EA431292B200B10130013989B26A
:1055B000EAE7FF23EDE72DE9F04F85B081460E9E27
:1055C0008A46904606B11E4443449CB2474655461F
:1055D000A74203D1012005B0BDE8F08F95B36A461C
:1055E00010232946484606F09BFBBDF80420944250
:1055F00008D9BDF8063013449BB29F4202D29C42A8
:1056000003D91F46BDF80A50E8E79742A4EB020110
:1056100028BFE31B89B234BF0B469BB2A4EB030443
:1056200032BFBDF80AB04746D346A4B246B11035E2
:105630002944F61AC91A324689B2484606F070FB68
:105640005D46C5E72846C6E72DE9F74FD48896881A
:10565000DFF8588082468B4644F307254FF6FF77E4
:10566000002D03DA384603B0BDE8F08F1AD0A4F558
:1056700080741FFA84F94FF48074CDF800802346BB
:10568000324659465046FFF796FF38B13A46214612
:105690004046FFF779FF2644B6B20746013D6DB29A
:1056A0004C46DDE7002CDDD0A146E6E7F4EF002014
:1056B00010B5094C94F8040106F0D0FB4FF40052E9
:1056C000002194F8040106F0F3FB18B14FF4807345
:1056D000A4F8063110BD00BFF0EF00202DE9F04125
:1056E000094C05460E46174613460A46014694F8ED
:1056F000040106F04BFB3B463246294694F8040170
:10570000BDE8F04106F022BCF0EF002003292CD8C0
:10571000DFE801F002091B23184BB3F806211044FF
:10572000A3F806017047154AB2F80631184480B252
:10573000C11C4FF6FC730B40984203D90430A2F809
:1057400006017047A2F8063170470C4AB2F80631DC
:105750000F33184420F00F00F1E7084AB2F8063181
:105760003F33184420F03F00E9E74FF0200383F374
:105770001188BFF36F8FBFF34F8FFEE7F0EF00206C
:105780004FF0200383F31188BFF36F8FBFF34F8F68
:10579000FEE770B50C4A92F808410023D9B28C425A
:1057A00001D800200BE05D1C9B00D118B1F8096105
:1057B000864207D1B1F80B2112B10448184470BDDC
:1057C000FFF7DEFF2B46E9E7F0EF0020F9F00020BD
:1057D00008B5FFF7DEFF00B1408808BD10B50446EC
:1057E000FFF7D7FF40B14FF0200383F31188BFF3D9
:1057F0006F8FBFF34F8FFEE7094B93F80801020646
:1058000001D5FFF7BDFF421C83F8082103EB80029E
:1058100003F20913A2F8094103EB800010BD00BF99
:10582000F0EF002008B5FFF7B4FF08B9FFF7A8FFB5
:10583000064A92F80831013BDBB282F8083102EBEC
:105840008303D3F80931036008BD00BFF0EF0020E7
:105850002DE9F041244CB4F80A33B4F80C63034446
:105860009BB204F20E37FF2B0546A4F80A3307EB70
:10587000060004F104080AD82A464146354423F0BC
:10588000DDFD0126A4F80C533046BDE8F081C6F5D5
:105890008072414623F0D2FD4FF480723946B4F84D
:1058A0000601FFF71BFF06460028EDD000214FF44C
:1058B0008070FFF72BFFB4F80A53B4F80C13A5F56A
:1058C00080750023ADB2A4F80C33A4F80A53002D60
:1058D000DAD0C1F580712A4618FA81F1384623F0F2
:1058E000ADFDA4F80C53CFE7F0EF00207FB545F2F3
:1058F0004143ADF806300D4BCDE902300C4BC043AF
:10590000B3F80E3404904FF6FF7210210DF106002B
:10591000ADF81430FFF738FE1222ADF8040001A9EB
:105920000020FFF7DBFE07B05DF804FB534E763234
:10593000F0EF00202DE9F04F724C94F8047100252F
:105940008FB0122309AA29463846A4F81054A4F8A7
:105950001254A4F80C53A4F80A5306F0E1F90B9B77
:10596000039394F804310133DBB2012B94BF84F824
:10597000043184F8045194F80431BB4208D14FF04B
:10598000200383F31188BFF36F8FBFF34F8FFEE7C0
:10599000FFF78EFE0028E4D04FF0000ADFF8708198
:1059A00080E004EB8A091023B9F80BB105AA594627
:1059B000384606F0B5F90026BDF81C50ADF81A506F
:1059C00005AA59463846ADF81860ADF81E60ADF826
:1059D0002060FFF739FE4FF6FF72ADF814000E217C
:1059E00005A8FFF7D1FDF022ADF82200FF214648BF
:1059F00024F042FA05AB03CB1035C8F80000C8F814
:105A00000410B4F80C2303CBB4F80631C8F808002E
:105A1000ADB21344B5F5807FC8F80C10A9F80B316E
:105A200019D8394B00933246BDF81C3059463846D8
:105A3000FFF7C1FD50B1B4F80631B4F80C2313449C
:105A4000A9F80B312846FFF703FF38BB0024204696
:105A50000FB0BDE8F08F1023B5F5807F2A4628BF30
:105A60004FF48072A2EB03091FFA89F943440292B2
:105A7000009332464B4659463846FFF79CFD0028B6
:105A8000E4D00298FFF7E4FE0028DFD0029BED1A75
:105A90004E44ADB2B6B20023002DDDD10AF10103B0
:105AA0005FFA83FA94F8083153453FF67AAFB4F8B9
:105AB0000A23FAB9B4F80A030021FFF727FEB4F865
:105AC0000631A4F80E34039B581EFFF70FFF04465F
:105AD0000028BBD002210020FFF718FE1222FF2170
:105AE00009A824F0C9F9122309AA0021384606F0B2
:105AF0004DF9ACE70549B4F80601FFF7EFFD0028C2
:105B0000D8D1A3E7F0EF002004F00020FEF200203F
:105B1000F4EF002008B50A4BB3F80631C3F5005383
:105B20009BB283420BD2FFF705FF40B94FF0200331
:105B300083F31188BFF36F8FBFF34F8FFEE708BD6C
:105B4000F0EF00202DE9F84F344E0446351D89460C
:105B50004FF48072FF21284624F08EF9E1884FF639
:105B6000FF724846FFF710FD4FF6FF7220800E21AE
:105B70002046FFF709FD2346E08103CB7060696092
:105B800003CBA860E960E28802F11007BFB2B9F167
:105B9000000F07D0B7F5807F17D8494606F11400EB
:105BA00023F04CFCE2881E49B6F80601F02A28BF13
:105BB000F022103292B2FFF791FD8046E08810305B
:105BC000022180B2FFF7A2FD25E04FF0000B10206C
:105BD000B7F5807F3C4628BF4FF48074A4EB000AE1
:105BE000524609EB0B01284423F028FC22460C49BD
:105BF000B6F80601FFF772FD804660B1204602212B
:105C00003F1BFFF783FDBFB20BEB0A031FFA83FBB9
:105C10000020002FDCD14046BDE8F88FF0EF0020D7
:105C2000F4EF00202DE9F041674C00258EB084F898
:105C300008514FF0FF38FF27122304AA00212846FD
:105C400006F06EF8DDE906637340013326D19DF856
:105C50001230412B22D19DF81330542B1ED19DF8C8
:105C60001430532B1AD19DF815304E2B16D19DF8B8
:105C70001630762B12D19DF81730322B0ED14FF6FD
:105C8000FF7210210DF11200FFF77EFCBDF81030FD
:105C9000834203D146453CBFB0462F46E5B1FF2FB6
:105CA0002CD1002384F804314FF6FF766FF0010504
:105CB000FFF7FEFC90B994F804310133DBB2012BFD
:105CC00084F80431F4D94FF0200383F31188BFF333
:105CD0006F8FBFF34F8FFEE70125ADE72846A4F88D
:105CE0000E64FFF703FE0028E5D0002384F8083196
:105CF000012384F814340EB0BDE8F0814FF48073B2
:105D0000A4F806313846122309AA002184F8047148
:105D100006F006F84FF6FF77B4F80631B3F5005FEA
:105D2000E6D2BDF83420BA4201D09A4217D80221F7
:105D30000020FFF7EBFC022510236A46B4F8061199
:105D400094F8040105F0ECFF6A46102312F8011BD9
:105D5000FF291ED1013B9BB2002BF7D1C8E70025DC
:105D6000EAE729461020FFF7D1FCD5E7BDF802602D
:105D70003046FFF70EFD10B93046FFF72FFDB4F89F
:105D800006314380BDF80830BBB93046FFF74AFD05
:105D900013E03A460E216846FFF7F6FBBDF80E60A9
:105DA0008642DED16A46B4F8061194F80401FFF782
:105DB0004BFCBDF800308342D8D0BDF8060010304F
:105DC000294680B2CFE700BFF0EF0020034B93F8E5
:105DD00014340BB9FFF726BF704700BFF0EF002067
:105DE0002DE9FF478A4616469846054630B12BB145
:105DF000FFF7BEFB044650B1052045E04FF02003FD
:105E000083F31188BFF36F8FBFF34F8FFEE706F167
:105E1000100080B2FFF77EFE2846FFF7BAFC074667
:105E2000A8B3B0F802901D4D10236A46494695F874
:105E3000040105F075FFBDF808300AEB06029A422E
:105E400027D8B34218BFBDF80C40ADF804A01CBF62
:105E50000134A4B241466846ADF80C40ADF8066086
:105E6000ADF80A90B5F80641FFF76CFE98B1BDF8A1
:105E70000C307C80642B4FF0000005D9BDF8023057
:105E8000A5F81034A5F8120404B0BDE8F08703208B
:105E9000FAE70420F8E70120F6E700BFF0EF002062
:105EA00073B50C4615461E46C0B1BBB1FFF790FC5A
:105EB00080B16319B3F5803F09D201460C480096C2
:105EC0002B46224690F80401FFF775FB20B9042009
:105ED00002B070BD0320FBE70020F9E74FF020037C
:105EE00083F31188BFF36F8FBFF34F8FFEE700BFBF
:105EF000F0EF00201FB540B94FF0200383F3118865
:105F0000BFF36F8FBFF34F8FFEE7FFF761FC48B120
:105F100001460648102390F804016A4605F000FF88
:105F2000BDF8080005B05DF804FB00BFF0EF0020ED
:105F30002DE9F04F431E14469BB24FF6FD7293427B
:105F40008BB080460E461DD8B1F5006F1AD8FFF70A
:105F50003FFC00BBFFF70CFB054648BB06F11000F9
:105F600080B2FFF7D7FD8D4B93F90821002A80F20C
:105F7000F7804FF0200383F31188BFF36F8FBFF3D7
:105F80004F8FFEE74FF0200383F31188BFF36F8F2D
:105F9000BFF34F8FFEE74046FFF7ACFF86420FD0BE
:105FA0007E4DA5F81084A5F81264FFF7E1FA08B158
:105FB00005200EE0B5F8120470B9B5F810347BB9BD
:105FC000002C00F0E6802346324600214046FFF7D1
:105FD00067FF0BB0BDE8F08F103080B2FFF79AFD7D
:105FE000B5F81004FFF7D5FB81460028E8D0B0F8DB
:105FF00002B095F80401102306AA594605F090FE58
:10600000B5F81234EBB9BDF82000103080B2FFF7BC
:1060100081FDB5F81004FFF7BCFB814640B94FF095
:10602000200383F31188BFF36F8FBFF34F8FFEE719
:10603000B0F802B095F80401102306AA594605F0FD
:106040006FFEB5F81224B5F806310493BDF8203080
:1060500022B19342ADF8202028BF13460022BDF89C
:106060002010ADF81C20ADF81E10ADF82220ADF8C0
:1060700024200DF1180CBCE80300DFF824A16860AF
:1060800003F11007CAF80410BCE80300BFB2B7F56B
:10609000807FCAF80800CAF80C1030D80AF1100145
:1060A000009195F804015946FFF785FA002872D04F
:1060B00006AB03CBBDF81E206860CAF8041003CB02
:1060C0001032CAF80800CAF80C1092B25146B5F85E
:1060D0000601FFF703FB00283FF472AFBDF81E0076
:1060E0001030022180B2FFF711FB2C4B0022A3F8E5
:1060F0001024A3F81224049BA9F8023060E7154687
:106100001023CDF814A0B7F5807FBA4628BF4FF40E
:10611000807AAAEB030292B20392059A1F481344B5
:1061200000932A46039B90F804015946FFF743FA6F
:1061300088B31B495246B1F80201FFF7CFFA002895
:106140003FF43EAF02215046FFF7E0FA039BA7EB76
:106150000A072B44BFB29DB20023002FD3D1C4E75E
:10616000214606A8B3F80671ADF81A80ADF81C50A8
:10617000ADF81E60ADF82060ADF82250ADF82450A7
:10618000FFF7E0FC38B14046FFF728FB47800220CC
:106190001FE720461DE701201BE700BFF0EF0020AE
:1061A000F4EF0020F0B5074685B040B94FF020036A
:1061B00083F31188BFF36F8FBFF34F8FFEE7FFF7B5
:1061C00007FB00283FD0FFF7D3F9044600283CD155
:1061D0001020FFF79FFC4FF6FF720E216846ADF8C6
:1061E0000020ADF80270CDE90144ADF80C40FFF796
:1061F000CBF96B46ADF80E0003CB154D6860A96076
:1062000003CB2E1DE860296110223146B5F8060146
:10621000FFF764FA68B91022B5F8061195F8040181
:1062200005F046FE18B902211020FFF76FFA012091
:1062300007E002211020FFF769FA3846FFF7F2FA6B
:10624000204605B0F0BD0320FBE70520F9E700BFBD
:10625000F0EF0020F8B50446FFF78AF9054668BB61
:1062600064B105F0FBFD012005F0F8FD4FF400726C
:106270002946134823F000FE002020E0114D95F838
:106280000871E3B29F420CD8FFF754FB0028F3D10A
:106290004FF0200383F31188BFF36F8FBFF34F8F4D
:1062A000FEE705EB8403B3F80961304602F016FE01
:1062B00010B93046FFF7B6FA0134E2E70520F8BD21
:1062C000F9F00020F0EF0020014B1860704700BF8C
:1062D000F0EF002008B5FFF77BFA003018BF01206F
:1062E00008BD08B5FFF726FB40B94FF0200383F344
:1062F0001188BFF36F8FBFF34F8FFEE708BD00BF5C
:1063000080B400AF304B314A1A602F4B4FF6A002D9
:106310009A812D4B4FF440325A6000BF2A4BDB6903
:10632000002BFBD1284B1B68274A43F00203136064
:1063300000BF254BDB69002BFBD1254B00221A62E5
:10634000234B00229A62224B0022DA62204B002269
:1063500083F834201E4B002283F83C201C4B002283
:106360009A631B4B0022DA87194B00221A60184BE4
:1063700000229A60164B0022DA60154B00221A7533
:10638000134B00221A77124B00229A610E4B5B6866
:1063900003F00703012B06D00D4B80221A630C4B30
:1063A00080221A6105E00A4B40221A63084B402202
:1063B0001A61054B80229A75034B04229A7500BF1F
:1063C000BD465DF8047B7047000C0040840110401E
:1063D00008F4002080B400AF024B1846BD465DF8BB
:1063E000047B70470090D003F0B587B000AF7860B1
:1063F00039600023FB7500233B610023FB607B6851
:10640000002B00F0EE807B681B68002B00F0E98019
:106410003B68002B02D1FFF7DDFF38607B681B680B
:106420001B013A689A421AD37B681B684FF000043C
:106430004FF000004FF00001210541EA133118052B
:106440003B684FF000041A46234620F0C5FD034682
:106450000C46C3F580333B610023FB6051E07B6851
:106460001B68DB003A689A421AD37B681B684FF0BE
:1064700000044FF000004FF00001E10441EA533105
:10648000D8043B684FF000041A46234620F0A4FDD0
:1064900003460C46C3F580333B610223FB6030E0CA
:1064A0007B681A6813465B0013443A689A4228D303
:1064B0007B681B6819464FF000020B461446DD1836
:1064C00044EB04062B4634465B1842EB04044FF0C1
:1064D00000014FF00002220442EA134219040B4665
:1064E0001446184621463B684FF000041A462346DE
:1064F00020F072FD03460C46C3F580333B61042354
:10650000FB603A4B1B68394A23F00203136000BF5B
:10651000364BDB69002BFBD1344B3A6992B29A813E
:106520007B685B68022B18D1304B1B6823F07063CB
:1065300023F46043FA68520392B22C4913430B6070
:106540002A4B5B6823F047027B6899687B68DB68AD
:106550000B43264913434B601EE0244B1B6823F07A
:10656000706323F46043FA68520392B213431F4AE4
:1065700043F0807313601D4B5B6823F4015323F0D9
:1065800007037A6892681A437B68DB681A437B6862
:106590005B68164913434B6000BF144BDB69002B4B
:1065A000FBD1124B1B68114A43F00203136000BF7A
:1065B0000E4BDB69002BFBD10C4B5B6803F0070330
:1065C000012B06D00A4B80221A63094B80221A61E4
:1065D00005E0074B40221A63054B40221A61012354
:1065E000FB75FB7D18461C37BD46F0BD000C004016
:1065F00008F4002080B400AF0A4B1B6803F00203CC
:10660000002B0AD1074B1B68064A43F002031360B4
:1066100000BF044BDB69002BFBD100BFBD465DF81A
:10662000047B7047000C004080B400AF0A4B1B682D
:1066300003F00203002B0AD0074B1B68064A23F025
:106640000203136000BF044BDB69002BFBD100BFCA
:10665000BD465DF8047B7047000C004080B483B0F9
:1066600000AF0023FB800B4B80221A76094B0722D8
:106670005A8302E0074B9B6AFB80064B1B7EDBB212
:1066800003F00403042BF5D000BF0C37BD465DF8C2
:10669000047B7047000C004080B483B000AF064B11
:1066A000DB8FFB80044B0022DA87FB8818460C370F
:1066B000BD465DF8047B704708F4002080B586B0C5
:1066C00000AF0346FB800023FB742D4B9B6A013314
:1066D0007B612B4B1B6B7A699A4201D300237B6150
:1066E000274BDB6A7A699A4216D1254B1B6A002B2D
:1066F00012D0234B5B6AFB60214B1B6AF9680120B7
:1067000098471F4B9B6A01337B611D4B1B6B7A695A
:106710009A4201D300237B61194BDB6A7A699A4262
:1067200028D0184B5B6803F00703012B0AD0144BE9
:106730009B6ABB60FB88D9B2134ABB6813440A4604
:106740001A7012E00E4B9B6A5B00BB60FB88D9B2EB
:106750000D4ABB6813440A461A70FB881B0A9AB29A
:10676000BB680133D1B2084AD154054A7B699362B0
:106770000123FB74FB7C18461837BD4680BD00BF63
:1067800008F40020000C004048F4002080B582B0DE
:1067900000AF174B93F83430DBB2002B24D000F05D
:1067A0008DF87860124B1B6A002B1DD0104B5B6A72
:1067B0003B600F4B93F83C30DBB2002B0AD00C4B04
:1067C0009B6B7A689A420FD3094B1B6A3968002089
:1067D000984709E0064B9B6B7A689A4204D1044BB8
:1067E0001B6A39680020984700BF0837BD4680BD46
:1067F00008F4002080B489B000AF786039600023CD
:10680000FB612B4BDB6ABB61294B9B6A7B613FE0E1
:10681000BA697B699A4240D0264B5B6803F0070354
:10682000012B0FD07A68FB6913442349BA690A44E3
:106830001278D2B21A70FB690133FB61BB69013374
:10684000BB611EE0BB695B003B61FB695B00FB60F9
:106850007A68FB68134418493A690A441278D2B23C
:106860001A703B695A1CFB68013379680B44124962
:106870008A5CD2B21A70BB690133BB61FB69013318
:10688000FB610B4B1B6BBA699A4201D30023BB61BE
:10689000FA693B689A42BBD300E000BF044ABB6977
:1068A000D362FB6918462437BD465DF8047B704708
:1068B00008F40020000C004048F4002080B485B0AB
:1068C00000AF0E4BDB6ABB600C4B9B6A7B607A6847
:1068D000BB689A4204D37A68BB68D31AFB6006E0AF
:1068E000064B1A6BBB68D31A7A681344FB60FB68CB
:1068F00018461437BD465DF8047B704708F4002045
:1069000098B500AF044B1C6BFFF7D8FF0346E31AA2
:10691000013B184698BD00BF08F4002080B400AFCA
:10692000034B1B6B013B1846BD465DF8047B70476B
:1069300008F4002080B485B000AF03460A46FB711E
:106940001346BB71094B93F83430FB73074AFB794C
:1069500082F83430054ABB7982F83C30FB7B18461C
:106960001437BD465DF8047B704700BF08F4002073
:1069700080B483B000AF78607B68002B02D0044AFB
:106980007B68936300BF0C37BD465DF8047B70479E
:1069900008F4002080B483B000AF78603960064A04
:1069A0007B681362044A3B68536200BF0C37BD46E4
:1069B0005DF8047B704700BF08F4002080B483B00A
:1069C00000AF0023FB71084B1B7EDBB203F0020318
:1069D000022B01D10123FB71FB7918460C37BD4610
:1069E0005DF8047B704700BF000C004080B489B0A4
:1069F00000AF78600023FB77224B9B687B61214BC3
:106A0000DB68BB617B683B61BA697B699A4231D0C4
:106A10001D4B5B6803F00703012B0AD01B4ABB69BF
:106A200013441B78DAB23B691A70BB690133BB614E
:106A300014E0BB695B00FB60144AFB6813441B78DD
:106A4000DAB23B691A70FB685A1C3B6901330F4983
:106A50008A5CD2B21A70BB690133BB61094B1B69F6
:106A6000BA699A4201D30023BB61064ABB69D3606D
:106A70000123FB77FB7F18462437BD465DF8047B76
:106A8000704700BF08F40020000C0040C8F400204C
:106A900080B489B000AF0346FB80234B9B687B61C9
:106AA000214BDB683B610023FB767B690133FB6193
:106AB0001D4B1B69FA699A4201D30023FB61FA69F5
:106AC0003B699A4228D0194B5B6803F00703012BFE
:106AD00007D0FB88D9B2164A7B6913440A461A705C
:106AE00015E07B695B00FB60FB88D9B2104AFB684C
:106AF00013440A461A70FB680133FB60FB881B0ACB
:106B00009BB2D9B20A4AFB6813440A461A70064A75
:106B1000FB6993600123FB76FB7E18462437BD4654
:106B20005DF8047B704700BF08F40020000C0040B3
:106B3000C8F4002080B582B000AF164B1B7DDBB2DD
:106B4000002B23D000F0A6F87860124B1B68002BB6
:106B50001CD0104B5B683B600E4B1B7FDBB2002BE5
:106B60000AD00C4B9B697A689A420FD3094B1B6879
:106B700039680320984709E0064B9B697A689A4276
:106B800004D1044B1B6839680320984700BF0837BD
:106B9000BD4680BD08F4002080B485B000AF0E4B28
:106BA0009B68BB600C4BDB687B60BA687B689A4271
:106BB00004D3BA687B68D31AFB6006E0064B1A69F7
:106BC0007B68D31ABA681344FB60FB681846143715
:106BD000BD465DF8047B704708F4002080B582B0A4
:106BE00000AFFFF7D9FF78607B6818460837BD46CD
:106BF00080BD80B584B000AF786039600023FB6051
:106C000031E0234B5B6803F00703012B0ED07A6859
:106C1000FB6813441B789BB21846FFF739FF034605
:106C2000002B25D0FB680133FB601CE0FB685B0098
:106C300001337A6813441B787B817B891B027B813B
:106C4000FB685B007A6813441B789AB27B89134314
:106C50007B817B891846FFF71BFF0346002B09D079
:106C6000FB680133FB60FA683B689A42C9D302E0D3
:106C700000BF00E000BFFFF78FFF0346002B02D0EC
:106C8000034B01229A75FB6818461037BD4680BD3C
:106C9000000C004098B500AF044B1C69FFF79EFF45
:106CA0000346E31A013B184698BD00BF08F40020D4
:106CB00080B400AF034B1B69013B1846BD465DF82D
:106CC000047B704708F4002080B485B000AF034611
:106CD0000A46FB711346BB71074B1B7DFB73064ACB
:106CE000FB791375044ABB791377FB7B184614377D
:106CF000BD465DF8047B704708F4002080B483B083
:106D000000AF78607B68002B02D0044A7B689361F7
:106D100000BF0C37BD465DF8047B704708F40020C7
:106D200080B483B000AF78603960064A7B68136036
:106D3000044A3B68536000BF0C37BD465DF8047BD6
:106D4000704700BF08F4002080B582B000AF0F4B41
:106D50005B8B9BB203F00703FB80FB88002B10D0FA
:106D60000B4AFB88D387FFF779FC094B1B6A002B82
:106D700007D0074B5B6A3B60054B1B6A39680220F2
:106D8000984700BF0837BD4680BD00BF000C0040DB
:106D900008F4002080B500AF0AE00A4B9B6A9BB262
:106DA0001846FFF78BFC0346002B01D0FFF7EEFCE3
:106DB000044B1B7EDBB203F00403042BEDD000BFB9
:106DC00080BD00BF000C004080B582B000AF1BE06A
:106DD000BB1D1846FFF70AFE0346002B10D0104BD0
:106DE0005B6803F00703012B04D0FB88DAB20C4B7D
:106DF0009A6202E0FA880A4B9A62FFF79BFE03E070
:106E0000074B01221A7506E0054B1B7EDBB203F02F
:106E10000103012BDCD000BF0837BD4680BD00BF99
:106E2000000C004080B582B000AF0023FB71364BF0
:106E30009B7DDBB2002B62D0334B1B7EDBB203F0B9
:106E40008003802B0CBF01230023FB712E4B9B7D05
:106E5000DBB203F08003802B04D1FB79002B01D03F
:106E6000012300E00023FB71FB7903F00103FB71B8
:106E7000FB79002B01D0FFF767FF234B1B7EDBB2B2
:106E800003F00103012B0CBF01230023FB711E4BF8
:106E90009B7DDBB203F00103012B04D1FB79002BB6
:106EA00001D0012300E00023FB71FB7903F0010313
:106EB000FB71FB79002B01D0FFF786FF124B1B7E85
:106EC000DBB203F00403002B14BF01230023FB718A
:106ED0000D4B9B7DDBB203F00403002B04D0FB7948
:106EE000002B01D0012300E00023FB71FB7903F0AC
:106EF0000103FB71FB79002B01D0FFF74BFF00BFB3
:106F00000837BD4680BD00BF000C004094F900204A
:106F10001C00000000000000000000200400000031
:106F200000000000C4FA002008000000000000007B
:106F3000C0F70020580000000000000004000020FE
:106F40000C0000000000000005F40020010000001B
:106F50000000000054FA00200800000000000000BB
:106F600050FD00203C000000010000003CED01014C
:106F70000000000050ED01010100000064ED01017E
:106F80000000000078ED0101000000008CED01011F
:106F90000100000050FD002058FD002060FD002091
:106FA00068FD002070FD00201CEA0020D4050000D0
:106FB000000000005CFA0020080000000000000053
:106FC00008F4002040010000000000001000002034
:106FD0005000000000000000C8FD00200400000078
:106FE00001000000AAAAAAAA3CFA00200C00000096
:106FF00000000000000200201CE80000000000006B
:10700000CCFD00200400000001000000040000008E
:1070100048F500200401000000000000600000208E
:107020000C00000000000000C5FD00200200000070
:1070300001000000F80E0000B8FA00200500000072
:10704000000000006C0000200100000000000000B3
:10705000C7FD00200100000001000000FF0000004B
:10706000700000202C00000000000000B0F900209B
:107070001C00000000000000CCFA00200800000006
:1070800000000000F0EF00201504000000000000E8
:10709000D4FA002004000000000000009C00002042
:1070A00004000000000000008AFB00200100000036
:1070B0000000000064FA0020100000000000000042
:1070C000A00000201000000000000000B6FA002020
:1070D00002000000000000008BFB00200100000007
:1070E00000000000BDFA00200500000000000000C4
:1070F00034F900202000000000000000C2FA002047
:1071000002000000000000004CF60020900000008B
:107110000000000074FA00200800000000000000D9
:10712000E4F900201400000000000000DAFD002057
:10713000010000000100000001000000C0FD00206F
:107140000500000001000000020700A62A00000060
:10715000D8FA00200400000000000000B000002069
:107160000400000000000000DCFA0020080000001D
:1071700000000000B4000020260000000000000015
:10718000E4FA00200C000000000000007CFA00205F
:107190000800000000000000F0FA002010000000CD
:1071A00000000000DC0000201800000000000000CB
:1071B0008CFB0020010000000000000084FA002089
:1071C000080000000000000054F90020200000002A
:1071D000000000008DFB0020010000000000000006
:1071E00000FB002008000000000000008EFB0020D3
:1071F000010000000000000008FB00200800000063
:10720000000000008FFB00200100000000000000D3
:1072100010FB0020040000000000000090FB002094
:10722000030000000000000006F40020020000003F
:107230000000000080FB00200400000000000000AF
:1072400090FC0020C000000001000000C3DB010131
:10725000C3DB0101C3DB0101C3DB0101C3DB0101AE
:10726000C3DB0101C3DB0101C3DB0101C3DB01019E
:10727000C3DB0101C3DB0101C3DB0101C3DB01018E
:10728000C3DB0101C3DB0101C3DB0101C3DB01017E
:10729000C3DB0101C3DB0101C3DB0101C3DB01016E
:1072A000C3DB0101C3DB0101C3DB0101C3DB01015E
:1072B000C3DB0101C3DB0101C3DB0101C3DB01014E
:1072C000C3DB0101C3DB0101C3DB0101C3DB01013E
:1072D000C3DB0101C3DB0101C3DB0101C3DB01012E
:1072E000C3DB0101C3DB0101C3DB0101C3DB01011E
:1072F000C3DB0101C3DB0101C3DB0101C3DB01010E
:10730000C3DB0101C3DB0101C3DB01010CFA002077
:10731000200000000000000093FB0020010000009E
:10732000000000008CFA00200800000000000000AF
:10733000F4000020080000000000000094FB002082
:10734000010000000000000014FB00200C00000001
:107350000000000084FB002004000000000000008A
:1073600018F80020500000000000000095FB0020ED
:107370000100000000000000FC0000204E000000A2
:107380000000000094FA0020080000000000000047
:1073900020FB0020040000000000000048FA00204C
:1073A0000C000000000000004C0100200C00000058
:1073B0000000000024FB002010000000000000007E
:1073C00058010020040000000000000034FB0020F1
:1073D000040000000000000074F9002020000000FC
:1073E0000000000096FB00200100000000000000EB
:1073F00010F90020240000000000000038FB0020ED
:1074000004000000000000005C01002039000000C2
:10741000000000009CFB0020A40000000100000010
:1074200020200001FFFFFFFFFFFFFFFFFFFFFFFF27
:10743000000000000000000000000000010000004B
:10744000FFFFFFFF512563FCC2CAB9F3849E17A753
:10745000ADFAE6BCFFFFFFFFFFFFFFFF00000000EB
:10746000FFFFFFFF96C298D84539A1F4A033EB2D5A
:10747000817D0377F240A463E5E6BCF847422CE146
:10748000F2D1176BF551BF376840B6CBCE5E316B8A
:107490005733CE2B169E0F7C4AEBE78E9B7F1AFE4E
:1074A000E242E34F4B60D2273E3CCE3BF6B053CC9A
:1074B000B0061D65BC86987655BDEBB3E7933AAA36
:1074C000D835C65A980100200C00000000000000CA
:1074D0003CFB00200400000000000000D8FD00205C
:1074E000020000000100000070000000A401002064
:1074F00010000000000000009CFA002008000000BE
:107500000000000040FB002004000000000000001C
:10751000B4010020040000000000000097FB0020E0
:1075200001000000000000002CFA00201000000004
:107530000000000088FB00200200000000000000A6
:10754000DCF600208000000000000000F8F90020B8
:10755000140000000000000044FB002004000000B4
:1075600000000000B801002004000000000000003E
:107570008CFD0020240000000100000024232221B3
:10758000201F1E1D1C1B1A19181716151413121173
:10759000100F0E0D0C0B0A09080706050403020163
:1075A000BC010020160000000000000048FB002085
:1075B0001000000000000000CCF9002018000000BE
:1075C00000000000D0FD00200800000001000000C5
:1075D000EBA80201EBA80201D2010020010000008B
:1075E0000000000058FB0020100000000000000018
:1075F000A4FA0020060000000000000098FB002014
:107600000100000000000000D40100200400000080
:1076100000000000E8F80020280000000000000042
:1076200099FB0020010000000000000068FB002022
:107630000C000000000000009AFB00200100000088
:107640000000000074FB00200400000000000000A7
:10765000AAFA002006000000000000005CF70020ED
:1076600064000000000000009BFB002001000000FF
:1076700000000000D8010020080000000000000009
:10768000B8F800203000000000000000B0FA002030
:107690000600000000000000E001002011000000D2
:1076A00000000000F20100200B00000000000000BC
:1076B00078FB0020040000000000000068F80020B3
:1076C00050000000000000007CFB002004000000CF
:1076D00000000000000000000000000022F06EBA70
:1076E000044B5A6842F480025A605A6822F40062DD
:1076F0005A60704700400141174B184A1A60184AF7
:107700001A61184A5A61184A9A61184A5A624FF423
:1077100014029A62164ADA62164A174B1749136026
:107720005160174991601749D16017491161174994
:10773000174A0A6043F6424048600020C860154876
:1077400048618A61144A154911605360144B154A07
:107750001A60154A5A60704700600141212200807A
:107760000A14260610320D121C28402006421E3E26
:107770000600030E3060014154760C0E1A270038C3
:10778000F7FF4C463832D44E32400030446001415D
:10779000544E4C46514B383260600141383256CE1F
:1077A000686001411A27544E4C463832C82300BF46
:1077B00000BF00BF00BF00BF00BF00BF00BF00BFD1
:1077C00000BF00BF00BF00BF00BF00BF00BF00BFC1
:1077D00000BF00BF00BF00BF00BF013B13F0FF03AD
:1077E000E5D1704708B541F2440103200BF064FC79
:1077F00043F6FF4152200BF05FFC47F20801542092
:107800000BF05AFC48F24E515E200BF055FC47F24B
:10781000824160200BF050FC4CF6170161200BF008
:107820004BFC4CF6170163200BF046FC41F207318C
:1078300065200BF041FC49F2072167200BF03CFC6E
:1078400047F2824168200BF037FC4BF2156169204A
:107850000BF032FC4BF215616B200BF02DFC41F26A
:1078600005316D200BF028FC49F205216F200BF04B
:1078700023FC48F2070177200BF01EFC49F61E613D
:10788000E9200BF019FC4FF60171EF200BF014FC0E
:1078900040F68321F920BDE808400BF00DBC70478D
:1078A0002DE9F74302221146012333200BF032FC6D
:1078B0000C221146012319200BF02CFC002211464A
:1078C000012315200BF026FC0822104600230A2174
:1078D0000BF020FC07221146012309200BF01AFCB3
:1078E00001231A46194609200BF014FC00231A46FE
:1078F000194609200BF00EFC0F221146012300202F
:107900001CF0D4F800230D22114618461CF0CEF8C6
:107910000122114600234C201CF0C8F80322114616
:1079200000234C201CF0C2F80422114601234C20F5
:107930001CF0BCF84FF4007300220C2126200BF041
:10794000E9FB14200BF022FC042400250022012373
:1079500011464C201CF0AAF8002211464C201CF0C5
:10796000B8F802460028F7D10F214E201CF0B1F8DC
:10797000013C14F0FF040544E8D1284621F06CFDD9
:107980000022534B0BF0DCFF0022524B04460D4605
:107990001EF00AF90022002800F089804E4B204694
:1079A000294622F019FF4D4B00220BF0C9FF42A3DC
:1079B000D3E900230BF0C4FF0022494B494C06F0E9
:1079C00033FCD4E9042306460F463DA1D1E900016A
:1079D00006F02AFCD4E9022380468946304639461F
:1079E00022F0FAFE02460B46404649460BF0A8FF3D
:1079F000D4E9002322F0F0FE33A3D3E9002306F0FC
:107A000013FC1BF065FB002301901A460C21262075
:107A10000BF080FB02221146002333200BF07AFB8F
:107A20000C221146002319200BF074FB00231A4688
:107A3000194615200BF06EFB0822104605230A217B
:107A40000BF068FB07221146002309200BF062FBB4
:107A500001221146002309200BF05CFB00231A468B
:107A6000194609200BF056FB00230F221146184639
:107A70001CF01CF80D221146012300201CF016F802
:107A80000122114600234C201CF010F8032211465D
:107A900000234C201CF00AF80422002311464C203D
:107AA0001CF004F89DED010A03B0BDE8F0830B4B18
:107AB0002046294679E700BF666666666666E63F49
:107AC0003D0AD7A3703DDA3FBC5983F755B9603FF3
:107AD0000000D03F0000E0400000F0400000503FB8
:107AE0000000F83F7800002070B5A4B0044674226E
:107AF0000E4607A8002122F0BFF95F4B06930A93B8
:107B00005E4B0C935E4B5F4A5F486049604D0E933D
:107B1000129303F14643CDE90420CDE9081003F6A2
:107B20000D730138CDE910500D90149359485A4BFC
:107B300020925A4A5A4D1C91CDE9150359495A4889
:107B40001A93CDE92123594ACDE91D13CDE91850E7
:107B5000516810686B4603C39068D168272C03C333
:107B60006BDC0A2C75DA14F10B0F74DC1934B4BF1A
:107B7000002001204E4B1A7882427AD018700501FD
:107B800024AB002E69D15C190B2214F8803C0F2124
:107B9000E5200BF0BFFA14F87F3C0B220F21E72001
:107BA0000BF0B8FA24AB1D44072215F87E3C0821DF
:107BB000FC200BF0AFFA15F87D3C04220521E120F2
:107BC0000BF0A8FA15F87C3C06220721E1200BF007
:107BD000A1FA15F87B3C02220321E5200BF09AFA6A
:107BE00015F87A3C00220321E7200BF093FA15F8F0
:107BF000793C04220721E7200BF08CFA15F8783C39
:107C000001220321E2200BF085FA15F8773C0322CC
:107C100004210A200BF07EFA15F8763C0E220F2183
:107C200051200BF077FA15F8753C08220E215220EE
:107C300024B0BDE870400BF06DBA4F2C04DC3B2C37
:107C4000CCBF0520042095E7632CCCBF072006207D
:107C500090E703208EE702208CE703EB40040B2221
:107C600014F8903C0F21E5200BF054FA14F88F3CE7
:107C700093E724B070BD00BF0603033C121202025A
:107C80000502023C141403030301010A1313030346
:107C9000111102020201030B050202460301070E45
:107CA000131203030301060D0301050CF89F0201E3
:107CB000C7FD002047F6FF73984207D000F3070383
:107CC0009BB2002207215A200BF024BA704770475C
:107CD000094A41F62863D358084A12689B1A084A91
:107CE00023F07043934205D8064B1878003018BF34
:107CF00001207047002070470020014198000020BB
:107D0000FEFFFF077000002010B5FFF7C9FDBDEEB4
:107D1000C00A10EE103A1CB22046FFF7CBFF094B09
:107D20001978204601F00101FFF7DEFE064A41F610
:107D30002863D358054A03F5403323F0704313609A
:107D400010BD00BF900000200020014198000020DD
:107D500037B5204A1178002363F3000111701E4AE1
:107D60008DF807301370044628B1FFF73BFDFFF78D
:107D7000B7FCFFF7C1FC22460DF10701072001F017
:107D8000F1FE1CB3154D284609F0A2FBD5E9000110
:107D9000002200231EF06DFC114BB0FA80F0400968
:107DA0001870104B4FF440321A604FF088430E4A5F
:107DB0001A650E4B40F27142012C9A600CBFFF22F3
:107DC0007F229A6113221A604022DA6009F096FB42
:107DD00003B030BD900000206C000020780000202F
:107DE00070000020980000204C0040E0001001418D
:107DF00042F2780127200BF05FB9002112200BF02E
:107E00005BB900BFB0B582B000AF0023FB7129E0C1
:107E1000184B1B68FA7953F82230002B1FD1154BF1
:107E20001C68FD79202003F038FF034644F8253014
:107E3000104B1B68FA7953F82230002B09D00D4BF8
:107E40001B68FA7953F8223020220021184622F0CC
:107E500013F8084B1B68FA7953F8223006E0FB79D7
:107E60000133FB71FB79072BD2D900231846083761
:107E7000BD46B0BDC4FA002080B485B000AF034653
:107E8000FB800023FB7320E0154B1B68FA7B53F843
:107E90002230002B16D0124B1B68FA7B53F822308D
:107EA000DB78012B0ED10E4B1B68FA7B53F8223086
:107EB0001B88FA889A4205D1094B1B68FA7B53F854
:107EC000223006E0FB7B0133FB73FB7B072BDBD906
:107ED000002318461437BD465DF8047B704700BF89
:107EE000C4FA002080B584B000AF78607B68002BB6
:107EF0001BD00023FB7314E00E4B1B68FA7B53F876
:107F000022307A689A4209D1786803F0D2FE094B90
:107F10001B68FA7B002143F8221007E0FB7B01334A
:107F2000FB73FB7B072BE7D900E000BF1037BD4692
:107F300080BD00BFC4FA002080B582B000AF164BF0
:107F40001B68002B0BD12C2003F0A7FE0246124B1E
:107F50001A60114B1B68002B12D1002318E000237C
:107F6000FB710AE00C4B1B68FA7953F82230184673
:107F7000FFF7B8FFFB790133FB71FB79072BF1D9D0
:107F8000054B1B682C220021184621F075FF0123A8
:107F900018460837BD4680BDC4FA002080B59EB0A3
:107FA00000AF78607B681B78012B40F0B6807B685F
:107FB0005B683B673B6F1B78002B6FD13B6F9B78F7
:107FC000002B40F0AC80FFF71DFFF866FB6E002B26
:107FD00000F0A5803B6F9A88FB6E1A803B6F9A7900
:107FE000FB6E9A70FB6E3A6F0433073211681960AA
:107FF0009188927999809A71FB6E0122DA70FB6EFA
:108000000433184602F089FA03461A46FB6E9A7743
:10801000FB6E9B7F082B34D007F10C034C22002110
:10802000184621F029FFFB6E9B7F07F10C021146D9
:10803000184602F0A1F90346002B22D197F85430DC
:10804000C3F30003DAB297F8603062F3410387F8B4
:10805000603097F85430C3F34003DAB297F86030D9
:1080600062F3000387F86030FB6E188897F854308D
:10807000C3F38503DBB2194607F160031A461EF00D
:1080800030FA3B6F9B88A7F86630012387F864308D
:1080900007F16403184605F00BFA40E03B6F1B78CC
:1080A000012B3CD1002387F858303B6F5B88A7F841
:1080B0005A303B6F5B881846FFF7DEFEF866FB6EB2
:1080C000002B07D0FB6E9B7F87F85C30F86EFFF7C4
:1080D00009FF02E0082387F85C30002387F8773037
:1080E00014E097F87730104A52F82330002B08D06C
:1080F00097F877300C4A52F8233007F158021046AF
:10810000984797F87730013387F87730074B1B781B
:1081100097F877209A42E4D301E000BF00E000BF67
:1081200000BF7837BD4680BD080000200400002055
:1081300080B5A4B000AF03463960FB713B68002BEB
:1081400002D0FB79002B12D1002100201DF004F990
:108150000346A7F88C30B7F88C30002B04D1344B91
:108160001B68002283F82020B7F88C305CE0FB7994
:10817000082B01D9032357E0002387F88F3033E021
:1081800097F88F303A6813441B7807F108021146BC
:10819000184602F0F1F80346A7F88C30B7F88C3097
:1081A000002B02D0B7F88C303EE03B7A002B04D095
:1081B0003B7A012B01D0032336E097F88F2013463A
:1081C000DB009B1A07F1900213443C3B1A4607F16F
:1081D00008031868106099889B799180937197F8CB
:1081E0008F30013387F88F3097F88F20FB799A42D0
:1081F000C6D307F15402FB79114618461DF0ACF8BE
:108200000346A7F88C300A4B1B68213397F88F2060
:108210003968184621F012F9054B1B6897F88F2032
:1082200083F82020B7F88C3018469037BD4680BDC3
:10823000C4FA002080B596B000AF786039600023A2
:1082400087F8573026E01D4B1A6897F857301344CB
:1082500093F8213007F108021146184602F08CF815
:108260000346002B01D0012323E097F85720134643
:10827000DB009B1A3A6813441A4607F10803186892
:10828000106099889B799180937197F857300133EA
:1082900087F85730094B1B6893F8203097F8572020
:1082A0009A42D0D3054B1B6893F820207B681A7044
:1082B000002318465837BD4680BD00BFC4FA0020D1
:1082C000B0B5A0B000AF0346B9607A60FB7300237D
:1082D000A7F87E30BB68002B05D0FB7B002B02D0BB
:1082E0007B68002B09D1002100201DF051F80346C6
:1082F000A7F87E30B7F87E30DAE0FB7B082B01D997
:108300000323D5E0FA7B13469B001344DB00184699
:1083100003F0C3FCB867BB6F002B01D10223C7E099
:1083200007F1600207F17703114618461FF082FB40
:10833000002387F87D30A2E007F114034C220021CE
:10834000184621F099FD97F87D30BA6813441B78E0
:1083500007F114021146184602F00EF80346A7F87A
:108360007E30B7F87E30002B40F090803B7D002BB4
:1083700002D03B7D012B06D197F87D307A681344FB
:108380001B78012B04D90323A7F87E3000BF7EE0C1
:1083900097F83230002B21D107F114031E3301333B
:1083A00007F1140202F11E000F22194621F038F8DD
:1083B0000346002B12D197F87D2013469B001344EF
:1083C000DB001A46BB6F134417331D4607F16404E4
:1083D0000FCC28606960AA60EB6014E097F87D20FC
:1083E00013469B001344DB001A46BB6F134417333C
:1083F0001A4607F132031C6858689968DB681460F4
:1084000050609160D36097F87D2013469B00134421
:10841000DB001A46BB6F134407331A4607F11B03F0
:108420001C6858689968DB68146050609160D3607C
:1084300097F87D2013469B001344DB001A46BB6F60
:1084400013441A4607F114031868106099889B7941
:108450009180937197F87D307A68D11897F87D20D4
:1084600013469B001344DB001A46BB6F13440A7883
:1084700083F8272097F87D30013387F87D3097F80F
:108480007D20FB7B9A42FFF457AF00E000BFB7F8B6
:108490007E30002B07D1FB7BB96F18461CF078FFAC
:1084A0000346A7F87E30B86F03F003FCB7F87E30C0
:1084B00018468037BD46B0BD80B485B000AF0346D6
:1084C0003960FB710123BB810023FB731DE0144B5A
:1084D0001B68FA7B53F82230002B13D0104B1B681B
:1084E000FA7B53F822309B7FFA799A420AD10C4BDF
:1084F0001B68FA7B53F822301A883B681A800023E5
:10850000BB8105E0FB7B0133FB73FB7B072BDED9D3
:10851000BB8918461437BD465DF8047B704700BF21
:10852000C4FA002080B584B000AF03460A46FB8041
:1085300013467B7102233B72FB887B817B797B73C3
:1085400007F10803184604F0B3FF00BF1037BD461B
:1085500080BD80B584B000AF0346FB800B467B71C5
:1085600013463B7103233B72FB887B817B797B73D2
:108570003B79BB7307F10803184604F099FF00BF6D
:108580001037BD4680BD90B585B000AF04460846A3
:1085900011461A462346FB8003467B710B463B710E
:1085A0001346FB7004233B72FB887B817B797B73D2
:1085B0003B79BB73FB78FB7307F10803184604F0A3
:1085C00077FF00BF1437BD4690BD90B5A1B000AF96
:1085D00078607B681B78062B00F2A78101A252F815
:1085E00023F000BFF7860001018600012B890001FE
:1085F0002B8900012B89000167870001A7860001F4
:108600009D4B1B78002B00F092817B689B8818465D
:10861000FFF732FCB867BB6F002B00F08A81BB6F9D
:108620009B78002B40F08381BB6F9B7F07F1080292
:108630001146184601F0A0FE0346002B1FD1BB6F68
:10864000188807F1080303F1380407F1080303F160
:10865000360207F1080303F12E0123461AF062FEE9
:108660000346A7F87630B7F87630002B40F05F81EC
:10867000BB6F1B8801211846FFF754FF57E1BB6F02
:108680001B8818461DF070FC0346A7F87630B7F833
:108690007630002B40F04B81BB6F1B8800211846C1
:1086A000FFF740FF43E1744B1B78002B00F0438140
:1086B0007B689B881846FFF7DFFB38673B6F002B12
:1086C00000F03B813B6F9B78012B40F034817B684D
:1086D0009B8818461DF062FC0346A7F86E30B7F879
:1086E0006E30002B40F027817B689B880021184664
:1086F000FFF718FF1FE17B689B79002B29D17B686E
:108700009B881846FFF7B8FBB866BB6E002B00F0DD
:1087100016817B6898887B681B7A1A460021FFF7D0
:1087200018FFBB6E0122DA72BB6E03F10C007B688E
:1087300009331022194620F081FEBB6E9B78002B76
:1087400040F0FF80BB6E1B8801211846FFF7EAFE50
:10875000F7E07B6898887B689A797B68DB790021F1
:10876000FFF711FFEDE07B689B881846FFF784FB5D
:1087700078667B6E002B00F0E6804C2003F08DFACB
:1087800038663B6E002B00F0E0807B680833FB65A9
:108790003B6EFA6D703292E8030018600433198062
:1087A00002330A0C1A703B6E184601F0B6FE0346FF
:1087B00087F87F3097F87F30082B24D101F08CFEAA
:1087C000034687F87F3097F87F30082B1BD10523AD
:1087D00087F854307B6E1B88A7F85630082387F83B
:1087E000593007F15403184604F062FE01F074FE9C
:1087F000034687F87F3097F87F30082B03D1386E17
:1088000003F057FAA2E07B6E97F87F209A777B6E91
:108810009B78002B32D1FB6D9B7E03F00103DBB212
:10882000002B07D03B6E3833F96D1022184620F02C
:1088300005FE18E03B6E03F13800FB6D4433102257
:10884000194620F0FBFD3B6E03F12E00FB6D563305
:108850000822194620F0F2FD3B6E3633FA6D543291
:10886000128892B21A803B6ED81DFB6D60331022C5
:10887000194620F0E3FD17E005F400203B6E383385
:10888000F96D1022184620F0D9FD7B6E0C33F96D7E
:108890001022184620F0D2FD3B6ED81DFB6D6033D0
:1088A0001022194620F0CAFDFB6D9B7EC3F38503A1
:1088B000D9B23A6E92F8483061F3870382F84830B3
:1088C000FB6D9B7EC3F34003D9B23A6E92F84830F9
:1088D00061F3410382F84830FB6D9B7EC3F30003D4
:1088E000D9B23A6E92F8483061F3000382F848300A
:1088F0003B6E03F11E00FB6D1C331022194620F065
:108900009DFD3B6EFA6D17332C321068186091880C
:10891000927999809A7197F87F30396E184601F0F4
:1089200095FD386E03F0C5F910E000BF0EE000BF02
:108930000CE000BF0AE000BF08E000BF06E000BF97
:1089400004E000BF02E000BF00E000BF8437BD4686
:1089500090BD80B598B000AF78607B681B78032B22
:1089600005D17B685B681846FFF72FFE78E07B68CF
:108970001B78012B74D17B685B68FB65FB6D1B78F2
:10898000052B54D1FB6D5B881846FFF775FAB86567
:10899000BB6D002B63D0BB6D1B8801211846FFF710
:1089A000C1FDBB6DDB7A83F00103DBB2002B2BD062
:1089B000BB6D9B7F07F10C021146184601F0DCFCF1
:1089C0000346002B13D1BB6D1A8807F10C03383313
:1089D000194610461CF088FC0346002B40D0FB6D66
:1089E0005888002300220121FFF7CDFD38E0BB6D40
:1089F0001B8818461DF036FAFB6D588800230022AC
:108A00000121FFF7C0FD2BE0BB6D1A88BB6D0C3355
:108A1000194610461CF068FC0346002B20D0FB6D65
:108A20005888002300220121FFF7ADFD18E0FB6DFF
:108A30001B78032B14D1FB6D1B79002B07D1FB6D29
:108A40005B88002201211846FFF783FD08E0FB6DDB
:108A50005888002300220121FFF795FD00E000BFA8
:108A60006037BD4680BD80B483B000AF0346FB7164
:108A7000044AFB791370002318460C37BD465DF895
:108A8000047B704705F4002090B599B000AF034611
:108A90000A46FB8013467B71FB881846FFF7ECF90A
:108AA000B865BB6D002B01D1032349E0BB6D9B78FA
:108AB000002B40D17B7983F00103DBB2002B27D060
:108AC000BB6D9B7F07F10C021146184601F054FC68
:108AD0000346002B1CD107F10C0303F1380407F106
:108AE0000C0303F1360207F10C0303F12E01F888A1
:108AF00023461AF017FC0346A7F85E30B7F85E303D
:108B0000002B15D1FB8801211846FFF70BFD0FE064
:108B1000FB8818461DF028FA0346A7F85E30B7F820
:108B20005E30002B04D1FB8800211846FFF7FAFCC9
:108B3000B7F85E3004E0FB8818461DF015FA0346CE
:108B400018466437BD4690BD80B400AF034B012288
:108B50001A7000BFBD465DF8047B704705F4002025
:108B600080B586B000AF0346FB7107F10E02FB79BA
:108B700011461846FFF7A0FC0346002B08D1062338
:108B80003B74FB897B8207F11003184604F090FCCC
:108B900000BF1837BD4680BD80B588B000AFB96052
:108BA00011461A460346FB810B46BB811346FB80E8
:108BB000FB893B82BB687B61BB893B83FB887B83F2
:108BC0000E4B1B68FB6110E0FB691B6807F110028C
:108BD00010469847034683F00103DBB2002B01D017
:108BE000002306E0FB695B68FB61FB69002BEBD1AE
:108BF000012318462037BD4680BD00BFB0F90020D4
:108C00001FB504466946008800F0ACF968B3BDF8AA
:108C10000230ABB1019B9BB1029BD3B9A2882088E3
:108C2000CAB1A368BBB16188FDF7DAF8D0B14FF0E3
:108C3000200383F31188BFF36F8FBFF34F8FFEE7DD
:108C40004FF0200383F31188BFF36F8FBFF34F8F73
:108C5000FEE79847E2E7019BBDF802200021FDF7FF
:108C6000BFF8E3E7208800F0C4F904B010BD7FB579
:108C70006946054600F076F910B9002004B070BDD1
:108C8000BDF80230A3B1019B93B1029BCBB928463A
:108C9000FDF730F9019ABDF8021006462846FDF7A7
:108CA00047F9022804460ED1B4FA84F04009E5E7FA
:108CB0004FF0200383F31188BFF36F8FBFF34F8F03
:108CC000FEE79847E3E740B14FF0200383F31188B4
:108CD000BFF36F8FBFF34F8FFEE73346BDF802201F
:108CE00001992846FFF758FF0028DDD1C5E71FB5D9
:108CF00004466946008800F035F910B9002004B038
:108D000010BDBDF8023093B1019B83B1029B83B9C2
:108D10006188A288BDF8023088189842EEDCA3680A
:108D20002088FDF7BDF8B0FA80F04009E7E700F0D1
:108D300029F89847ECE773B5104ADFF844C00546B8
:108D40000E4600236C46BCF80210994201D8002060
:108D50000DE092E8030084E80300D1888D4208D139
:108D6000ADF8065094E8030086E80300012002B045
:108D700070BD013308329BB2E5E700BFEC03000190
:108D8000B4F900204FF0200383F31188BFF36F8FF5
:108D9000BFF34F8FFEE72DE97F431B4D80462868C8
:108DA000FBF7BEFA002481462646A14509D836BB0A
:108DB00032464146144806F021FC01281FD0FFF737
:108DC000E1FF002201A9284606F062FC01280DD12E
:108DD000019AD8F8003001A99A4208BF0126284616
:108DE0000022013406F00AFCE4B2DEE74FF0200373
:108DF00083F31188BFF36F8FBFF34F8FFEE701201E
:108E000004B0BDE8708300BFCCFA002010B5044662
:108E100088B1082001F07EFC40B94FF0200383F3B5
:108E20001188BFF36F8FBFF34F8FFEE7024B0460D3
:108E30001A694260186110BDB4F9002010B50446EB
:108E400088B1082001F066FC40B94FF0200383F39D
:108E50001188BFF36F8FBFF34F8FFEE7024B0460A3
:108E60001A684260186010BDB0F9002010B50446C1
:108E7000082001F04FFC28B1034B04805A6942607E
:108E80005861012010BD00BFB4F9002000F4406318
:108E9000B3F5406F13B514D16946FFF74CFF70B9B5
:108EA000002002B010BD009B33F81400FDF77AF9E2
:108EB0000134E4B2BDF80430A342F4D8F0E7002452
:108EC000F8E7FDF76FF9EBE7034B00229880181DD8
:108ED000DA801A81DA605EE7B4F90020054B5B693D
:108EE0000BB9184670471A88824201D05B68F7E7D1
:108EF00001207047B4F900207FB5184B184D5E690A
:108F000004464EB90120FDF7A5F931462868FAF765
:108F100093FC002004B070BDFDF79CF924B1002142
:108F20002868FAF789FCF4E72868FBF7F9F90646A0
:108F3000A642EED9002201A9284606F0A9FB012885
:108F400009D1BDF80400FFF7C9FF20B1002201A933
:108F5000284606F053FB0134E4B2E9E7B4F90020F7
:108F6000CCFA00202DE97041DFF848C0DFF84880D6
:108F700085B086460E4600256C46BCF80030AB42F4
:108F800001D8002010E008EB05130FCB84E80F0098
:108F9000BDF8003073450AD1234603CB30607160C1
:108FA00003CBB060F160012005B0BDE870810135F0
:108FB000E3E700BFB4F90020EC0200011FB504464E
:108FC000008800F44063B3F5406F02D1002004B084
:108FD00010BD6946FFF7C6FF0028F7D0A288638856
:108FE0001344BDF802209342F0DC2046FFF7D3FE85
:108FF000EDE738B5044B1C69054604B938BD236854
:10900000284698476468F8E7B4F9002030B585B081
:10901000044669460088FFF7A5FF002845D0BDF843
:109020000230D3B1019BC3B1029BFBB92088FDF78D
:1090300051F92588E0B9019ABDF802102846FCF7DD
:1090400077FF10F0FD0F2DD04FF0200383F3118830
:10905000BFF36F8FBFF34F8FFEE74FF0200383F313
:109060001188BFF36F8FBFF34F8FFEE79847DDE79F
:10907000A2887AB1A3686BB161882846FCF7B0FE7C
:1090800080B14FF0200383F31188BFF36F8FBFF3DC
:109090004F8FFEE7019BBDF8022000212846FCF718
:1090A0009FFEEDE72088FFF7A4FF05B030BD08B5AF
:1090B000024B1868FBF734F9C0B208BDCCFA0020A7
:1090C00030B5184D89B0002202A9284606F0E0FA12
:1090D000012801D009B030BDBDF8080000F440639C
:1090E000B3F5406F19D16946FFF725FE0028EAD095
:1090F0000024ADF81640ADF818400794BDF80430D0
:10910000A342E0D9009B05A833F81430ADF8143021
:109110000134FFF77BFFE4B2F0E702A8FFF776FF28
:10912000D1E700BFCCFA002030B50446008800F437
:109130004063B3F5406F85B003D10025284605B0E4
:1091400030BD6946FFF70EFF05460028F5D0A2881E
:1091500063881344BDF802209342EEDC2046FFF7FB
:1091600055FFEBE700F44063B3F5406F37B518D116
:109170006946FFF7E0FD054688B900250CE0009B35
:1091800033F81400FDF7A6F80028F6D00134E4B255
:10919000BDF80430A342F2D8284603B030BD002405
:1091A000F6E7FDF797F80546F6E700F44063B3F5F8
:1091B000406F13B516D16946FFF7BDFD80B9012098
:1091C00002B010BD009B33F81400FFF750FD0028DB
:1091D000F6D00134E4B2BDF80430A342F2D8EEE791
:1091E0000024F8E7FFF743FDEAE7038803F4406350
:1091F000B3F5406F00D07AE50020704780B582B0AB
:1092000000AF786004220021786820F035FE00BFAE
:109210000837BD4680BD80B483B000AF0023FB712A
:1092200017E0114B1A68FB799B0013449B78002BC5
:109230000CD10D4B1A68FB799B00134401229A70E4
:10924000094B1A68FB799B00134406E0FB79013354
:10925000FB71FB79072BE4D9002318460C37BD4678
:109260005DF8047B704700BFC8FA002080B485B069
:1092700000AF0346FB800023FB7318E0114B1A6814
:10928000FB7B9B0013449B78012B0DD10D4B1B687E
:10929000FA7B33F82230FA889A4205D1094B1A68D2
:1092A000FB7B9B00134406E0FB7B0133FB73FB7BE2
:1092B000072BE3D9002318461437BD465DF8047B1D
:1092C000704700BFC8FA002080B582B000AF164BCF
:1092D0001B68002B0BD12C2002F0DFFC0246124B46
:1092E0001A60114B1B68002B01D1002318E00E4BB4
:1092F0001B682C220021184620F0BEFD0023FB71C4
:109300000AE0094B1A68FB799B0013441846FFF7E3
:1093100075FFFB790133FB71FB79072BF1D9012331
:1093200018460837BD4680BDC8FA002080B584B015
:1093300000AF78607B689B78002B09D1FFF76BFF4B
:10934000F860FB68002B03D07B689A88FB681A8062
:1093500000BF1037BD4680BD80B584B000AF7860D7
:109360007B685B881846FFF781FFF860FB68002B7D
:1093700002D0F868FFF742FF00BF1037BD4680BD3E
:1093800080B586B000AF78607B685B881846FFF7D1
:109390006DFF78617B69002B17D07B69DB78002B30
:1093A00013D07B681B79002B02D107233B7301E0AC
:1093B00008233B737B685B88FB8107F10C0318462D
:1093C00004F076F87B690022DA7000BF1837BD46DA
:1093D00080BD90B484B000AF0446084611461A46DA
:1093E0002346FB800346BB800B467B8013463B80B5
:1093F000FB88052B19D9FB88B3F5486F15D8BB88B6
:10940000052B12D9BB88B3F5486F0ED87B88B3F50E
:10941000FA7F0AD23B88092B07D93B88B3F5486FFE
:1094200003D8FA88BB889A4201D900232AE07B88B6
:1094300001339BB2BA8812FB03F39BB25B00FB8142
:109440003B88DA00FB899A4201D200231AE0104BD4
:109450001B685B8CFA889A4211D80D4B1B681B8CD9
:10946000BA889A420BD30A4B1B68DB8C7A889A42E3
:1094700005D8074B1B689B8C7A889A4201D200233F
:1094800000E0012318461037BD4690BC704700BF6E
:10949000C8FA002080B586B000AF7860194B1B6811
:1094A00093F82A30002B29D07B6898887B68D9886C
:1094B0007B681A897B685B89FFF78BFF0346FB7526
:1094C000FB7D002B14D07B689B88BB817B68DB888D
:1094D000FB817B681B893B827B685B897B827B6825
:1094E0005B8807F10C02114618461BF0C5FE05E02B
:1094F0007B685B883B2118461BF0DAFE00BF1837FB
:10950000BD4680BDC8FA002080B582B000AF78604B
:109510007B681B78062B21D801A252F823F000BFEC
:109520003D950001459500014D9500015D950001B7
:109530005D9500015D950001559500017868FFF784
:10954000F5FE0CE07868FFF707FF08E07868FFF7A2
:1095500017FF04E07868FFF79DFF00E000BF00BF41
:109560000837BD4680BD80B586B000AF78607B68A7
:109570005B881846FFF77AFE78617B69002B35D04F
:109580001C4B1B6893F82A30002B2FD07B689888DF
:109590007B68D9887B681A897B685B89FFF719FF2C
:1095A0000346FB74FB7C002B1AD07B685B88002190
:1095B00018461BF041FF7B689B883B817B68DB88FA
:1095C0007B817B681B89BB817B685B89FB817B68B6
:1095D0005B8807F10802114618461BF031FE05E0D2
:1095E0007B685B88012118461BF026FF00BF1837F7
:1095F000BD4680BDC8FA002080B586B000AF786057
:109600007B685B881846FFF731FE78617B69002B29
:1096100014D07B689B88002B10D07B69DB78002BF3
:109620000CD008233B737B685B88FB8107F10C033C
:10963000184603F03DFF7B690022DA7000BF18373F
:10964000BD4680BD80B582B000AF78607B681B7876
:10965000002B02D0012B04D007E07868FFF783FFCE
:1096600003E07868FFF7C8FF00BF00BF0837BD46BA
:1096700080BD80B582B000AF78607B681B78012B1D
:1096800002D0022B06D00BE07B685B681846FFF720
:109690003BFF05E07B685B681846FFF7D3FF00BF20
:1096A00000BF0837BD4680BD80B483B000AF78608E
:1096B0007B681B7A002B41D07B685A887B681B88AB
:1096C0009A4213D37B68DA887B689B889A420DD3D1
:1096D0007B681B88052B09D97B685B88B3F5486FCD
:1096E00004D87B68DB88B3F5FA7F06D3194B1B6877
:1096F000002283F82A20032326E0164B1B68012250
:1097000083F82A20134B1B687A6812881A84114B3D
:109710001B687A6852885A840E4B1B687A68928854
:109720009A840C4B1B687A68D288DA84094B1B68D0
:109730007A68127A83F82820002305E0054B1B681D
:10974000002283F82A20002318460C37BD465DF816
:10975000047B7047C8FA002090B58BB002AF034677
:109760003960FB80FB881846FFF780FDB861FB88F5
:109770001846FEF781FB7861BB69002B35D07B6909
:10978000002B32D03B681B88BB813B685B88FB8128
:109790003B689B883B823B68DB887B8207F10C023D
:1097A000FB88114618461BF04BFD0346FB83FB8BE1
:1097B000B3F58D7F12D17B699B78012B0ED13B686D
:1097C00019883B685A883B689C883B68DB88F88826
:1097D0000093234618F0FEFE0346FB83FB8B002B11
:1097E00006D1BB690122DA7002E00323FB8300E0AB
:1097F00000BFFB8B18462437BD4690BD704770B53F
:10980000E9B101444FF6FF7348F2084589B210F8F8
:10981000014B082284EA030616F0010F4FEA5303B6
:1098200002F1FF3214BF6B409BB212F0FF024FEA0D
:109830005404EFD182B28A42E9D1DB4399B208469F
:1098400070BD10B51378ED2B144611D15378032B4E
:109850000ED1937853B1012B0AD1FFF7D0FF2279B3
:10986000E37803EB02231B1A18BF0123184610BD2F
:109870000123FBE7F0B5034640780622B0FBF2F186
:1098800002FB110212F0FF001FD1114E114FDFF841
:1098900048C0CDB20146A94200D1F0BDDC789A782B
:1098A00093F804E002EB042202F1824404F59034C0
:1098B000013184F800E05C7994559C79D455DC79C9
:1098C00002F80C40C9B20633E5E70120E5E700BF26
:1098D0000120014102200141032001412DE9F04313
:1098E00043780622B3FBF2F602FB163212F0FF02B7
:1098F00037D102391C4FDFF874C0DFF874E0F6B2DC
:1099000003461546C9B2B54202D11046BDE8F08300
:10991000DC789878012900EB042080B212D800F19D
:10992000824404F5803893F8049088F8009004F19C
:10993000011493F8058084F800809C79C455DC7983
:1099400000F80C40A42808D1187900F01F00C406C4
:1099500048BF60F01F008EF800000135EDB20633FD
:10996000D1E70122D1E700BF02000141030001411C
:109970006C0000204078023818BF012070474378FF
:10998000042B05D1034BD0F802201A6001221A7172
:1099900000207047B8FA0020F8B50F4604460026AC
:1099A000A1F10805A54202D84FF0FF3406E0237864
:1099B000FF2B13D1230703D144F07F442046F8BD89
:1099C00024F003031C1DA742EED95A68013205D1C9
:1099D0005B69013302D114F00C0FEDD02378012B19
:1099E0000AD16378012B07D1A178621D0A44E01CDB
:1099F000FFF727FF0028E1D00EB1D3E70434A542DA
:109A0000D0D923680133CDD0234613F8012BEF2A98
:109A10000BD16378002BF1D1A378ED2BEED1E37855
:109A2000032BEBD107340126BCE71C46E7E72DE901
:109A3000F04785789DF8206004460F469046994689
:109A400003354FF0010A2378434508BF89F800A089
:109A50002378092B47D010D8072B2ED033D8022BD0
:109A600024D00020A74226D96378023DED1A2DB2FA
:109A70000233002D1C44E6DC1DE00D2B27D006D858
:109A80000A2BEED131462046FFF728FF11E01A2BB2
:109A900023D0552BE5D1A4F50003A3F5C043B3F5BE
:109AA000776FDED22046FFF76AFF02E02046FFF71D
:109AB00061FF0128D6D1BDE8F087002ED1D0204625
:109AC00007F0C9FCF5E7204607F086FCF1E7002E19
:109AD000C7D0204607F0A6FCEBE7002EC1D02046F9
:109AE00007F0ECFCE5E7002EBBD02046FFF7C2FEF6
:109AF000DFE72DE9F7430F469046994630B3164B02
:109B00001A7932B3186800F5776600250BE04346F2
:109B1000CDF800903A463146FFF789FF0546A07818
:109B200004F10A031844B0420CD23146FFF734FF67
:109B300010F07F4F0446EAD0084B20F07F449C424F
:109B400008BF0125284603B0BDE8F083044E034852
:109B5000DBE78525F6E700BFB8FA0020006080004B
:109B6000706F800013B5134614460A460146002064
:109B7000FFF7BFFF054B1B7933B123460DF10702F9
:109B800000210120FFF7B5FF02B010BDB8FA002098
:109B90002DE9F0478678089D9DF824A08946044663
:109BA000174698460336002123786278FF2FDBB2F0
:109BB00008D1013BDBB2FD2B2ED82888023221468A
:109BC00040440AE0BB4227D1BAF1000FF5D0062F7E
:109BD0000CD1072A1CD1A11C40461FF02FFC2B885A
:109BE0009A1C637813442B80012115E00B2F01D1BF
:109BF000042AEFE70C2F01D1012AEBE7102F01D146
:109C0000182AE7E7152F01D1082AE3E7182FEFD02C
:109C10002B8802331A442A806378023EF61A36B241
:109C20000233002E1C4401DD4C45BDD3012914BF75
:109C300080200020BDE8F0872DE9FF47074600247B
:109C40001448154D154EADF80E4088464FF00109E9
:109C50002946FFF7A1FE10F07F4F824613D10DF188
:109C60000E030093CDF8049043463A462946FFF789
:109C70008FFF00289AF802000AF10A03184408BF6F
:109C80000124B042E4D9012C14BF8020002004B08C
:109C9000BDE8F08700608000706F80006F6F80000B
:109CA000014608B50620FFF7C7FFB0FA80F040096B
:109CB00008BD014608B51520FFF7BEFFB0FA80F0D9
:109CC000400908BD024B93F9003003700120704732
:109CD0006C00002013B5044601A90B20FFF7ACFF70
:109CE00028B9BDF804302380012002B010BD002047
:109CF000FBE713B5044601A90B20FFF79DFF28B928
:109D0000BDF806302380012002B010BD0020FBE723
:109D100013B504460DF107010C20FFF78DFF28B99C
:109D20009DF807302370012002B010BD0020FBE732
:109D3000014B1879704700BFB8FA0020014B187129
:109D4000704700BFB8FA0020014B1868704700BF89
:109D5000B8FA002070B50378C4B004461F2B3AD877
:109D6000DFE813F020004B000E0239003900390003
:109D700039006E0039004001390039006F016C0272
:109D80003900390039009C01E701910015023900C2
:109D90003900390039003900390039001D02480204
:109DA0003900C701C58828461CF0C6FC0246A8B980
:109DB000B74B0093CDE9015004231021EE200CF0A5
:109DC000D3FE0022043401920094062305214FF4AF
:109DD00082701DF04FFB012044B070BD1CF00EF8E6
:109DE000E388ADF81230237A8DF8143004A80123EB
:109DF0008DF8103018F0C6FBE3E7C58828461CF044
:109E00009BFC024680B90123CDE90153A04B00938E
:109E100010210423EE200CF0A7FE0022043401924E
:109E2000009406230821D2E703238DF8103004A8FC
:109E30002379ADF812508DF8143018F0A3FBECE73D
:109E4000C58828461CF078FC024680B90723CDE976
:109E500001538F4B009310210423EE200CF084FE5D
:109E6000002204340192009404233021AFE703233D
:109E70008DF8103004A82379ADF812508DF8143005
:109E800018F080FBECE7037A824D012B60D1286843
:109E900000F5DA700CF0B0FB2A681378002123F08B
:109EA0000103137008461DF061FA19F021FE2379B1
:109EB000002B40F08480E388002861D12278CDE92E
:109EC0000132754B0093024604231121EE200CF061
:109ED0004BFE23798DF8123004F10A06E388ADF8C1
:109EE00014303146237A607A8DF816301DF08DFDDE
:109EF000E389ADF81C30637D8DF8170003F0C003D3
:109F0000D4F80A000690402B5ED1234653F8102F58
:109F1000CDF81E209B88ADF822302346002553F84B
:109F2000160F09909B88ADF82830A38BADF82A3026
:109F300004A8D4F81E300B9304348DF8105018F098
:109F400021FB0195009420232A464FF49F713EE7A0
:109F50002A68137823F004031370022100201DF0F7
:109F600005FA2B6803F5087203F5107352F8040B19
:109F700010B1C17801299AD09342F7D1002096E719
:109F800003800223C370237A8370A38B8381E38BC6
:109F9000C381238C03822B6893F821200271627D98
:109FA00002F0C002402A0ABF234653F8221F53F88A
:109FB000101FC0F80510421D9B88938089E7002878
:109FC00087D01BF01BFF84E72B6893F82120022A1F
:109FD00002D153F8222F9BE70023CDF81E30ADF8B5
:109FE00022309AE7C58828461CF0A6FB024688B9AD
:109FF0000923CDE90153264B009310210423EE20C1
:10A000000CF0B2FD00220434019200940A2340F2C5
:10A010003E31DCE60023837402238DF81030E388A0
:10A02000ADF8123023798DF814302389ADF816304D
:10A03000A268A389069204A8ADF81C3018F0A2FA11
:10A04000E0E7858828461CF077FB024688B90C2398
:10A05000CDE901530E4B009310210423EE200CF0A8
:10A0600083FD00220434019200940A2340F23E61F1
:10A07000ADE606238DF81030D4F80630059304A819
:10A08000D4F80A30ADF81250069318F07BFAE8E7DE
:10A09000580402019C0000208C040201C588284657
:10A0A0001CF04AFB90B91123CDE90153674B009393
:10A0B000024604231021EE200CF056FD0022043449
:10A0C000019200940C2340F23E4180E62379002B5C
:10A0D000F4D1237A9B0605D540F64802FB2100887F
:10A0E00017F002FC172304A88DF8103018F04AFA74
:10A0F000E4E7858828461CF01FFB024680B91F2331
:10A10000CDE90153514B009310210423EE200CF0B4
:10A110002BFD00220434019200940223572156E6BD
:10A120000B2304A88DF81030ADF8125018F02AFA5D
:10A13000EFE7C58828461CF0FFFA024688B91223CB
:10A14000CDE90153414B009310210423EE200CF084
:10A150000BFD0022043401920094062340F63E4198
:10A1600035E60C238DF8103023798DF8143004A8CF
:10A170002389ADF81250ADF8153018F003FAE8E76E
:10A1800000220434019200940A230C211FE60022CD
:10A19000043401920094042341F23E4117E6C5883D
:10A1A00028461CF0C9FA024688B91C23CDE90153A0
:10A1B000274B009311210423EE200CF0D5FC002244
:10A1C0000434019200940A2342F23E11FFE5142365
:10A1D0008DF8103023798DF81230A26894F90C3084
:10A1E000ADF8145004A8CDF816208DF81A3018F0E8
:10A1F000C9F9E4E7858828461CF09EFA024688B92A
:10A200001D23CDE90153124B009311210423EE20AD
:10A210000CF0AAFC0022043401920094042342F2C0
:10A220003E01D4E516238DF8103004A8E388ADF87C
:10A230001250ADF8143018F0A5F9EBE70022043401
:10A24000019200940A2340F23E71C0E558040201D5
:10A250008C04020180B5C6B000AF3B1D18603B46C0
:10A260001960002387F8173113E097F81731C3F10D
:10A270000F033A1D12681A4497F81731127807F540
:10A280008C710B4403F8242C97F81731013387F8AD
:10A29000173197F817310F2BE7D907F1F40207F1BF
:10A2A0000C031146184605F09EFA0346002B01D018
:10A2B00000235CE007F582730D22002118461FF091
:10A2C000DBFD002387F8173114E097F81731C3F14D
:10A2D00005033A4612681A4497F817310D3312787D
:10A2E00007F58C710B4403F8142C97F817310133E0
:10A2F00087F8173197F81731022BE6D907F58273E3
:10A3000007F1F40207F10C00102105F09DFA034655
:10A31000002B01D000232AE0002387F8173113E037
:10A3200097F81731C3F102033A4612681A4497F8B6
:10A330001731127807F58C710B4403F8142C97F839
:10A340001731013387F8173197F81731022BE7D906
:10A3500007F1F4030D3307F58271032218461FF04D
:10A360005FF80346002B0CBF01230023DBB2184625
:10A3700007F58C77BD4680BD80B582B000AF03463F
:10A380003960FB71FB79072B0DD8FB799BB203F584
:10A3900000539BB21846FEF7E5FE034683F0010327
:10A3A000DBB2002B01D0032346E0FB799BB203F51F
:10A3B00000539BB21846FEF7F8FE0346002B3AD036
:10A3C000FB799BB203F5005308339BB21846FEF7A6
:10A3D000C9FE0346002B18D0FB799BB203F500534E
:10A3E00008339BB21846FEF7E0FE034683F00103F4
:10A3F000DBB2002B01D001231EE03B68173317228C
:10A400000F4918461FF01AF806E03B681733172269
:10A41000002118461FF030FD3B68172209491846F5
:10A420001FF00CF83B682E331B22074918461FF01B
:10A4300005F8002300E0012318460837BD4680BD1B
:10A44000F4F70020C0F70020D7F7002080B582B0D5
:10A4500000AF03463960FB71FB79072B01D9032359
:10A460002FE03B6817331722194618481EF0E6FF05
:10A47000FB799BB203F5005308339BB21846FEF7F5
:10A4800023FD0346002B1BD03B68172219461048BA
:10A490001EF0D4FF3B682E331B2219460D481EF0D8
:10A4A000CDFFFB799BB203F500539BB21846FEF734
:10A4B0000BFD0346002B01D0002302E0012300E046
:10A4C000012318460837BD4680BD00BFF4F70020C1
:10A4D000C0F70020D7F7002080B582B000AF00237E
:10A4E000FB7110E0FB799BB203F500539BB2184659
:10A4F000FEF738FE034683F00103DBB2002B06D1E2
:10A50000FB790133FB71FB79072BEBD900E000BF2E
:10A51000FB7918460837BD4680BD80B586B000AFD0
:10A5200078607B681B78032B01D108236BE007F16F
:10A530000C0318461BF0E4FC0346BB82BB8A002BCD
:10A5400001D008235FE00023FB7556E0FB7D9BB242
:10A5500003F500539BB21846FEF704FE0346002B9A
:10A5600048D0FB7D9BB203F500539BB21846FEF723
:10A570001CFE0346002B3DD0FB7D9BB203F5005330
:10A5800008339BB21846FEF7EDFD0346002B15D0AD
:10A59000FB7D9BB203F5005308339BB21846FEF7D0
:10A5A00004FE0346002B22D007F10C0307221946B4
:10A5B00017481EF035FF0346002B1AD17B681B7825
:10A5C000022B09D17B68013319461248FFF742FE7E
:10A5D0000346002B0ED015E07B68013306220E499E
:10A5E00018461EF01DFF0346002B0AD002E000BFF4
:10A5F00000E000BFFB7D0133FB75FB7D072BA5D978
:10A6000000E000BFFB7D18461837BD4680BD00BF87
:10A61000F4F70020C7F70020C1F7002080B582B012
:10A6200000AF0346FB71FB79072B01D903230DE033
:10A63000FB799BB203F500539BB21846FEF726FC4C
:10A640000346002B01D1002300E001231846083700
:10A65000BD4680BD80B582B000AF0023FB710FE026
:10A66000FB799BB203F500539BB21846FEF70EFC34
:10A670000346002B01D0012306E0FB790133FB7177
:10A68000FB79072BECD9002318460837BD4680BD5F
:10A6900080B582B000AF0346FB71FB799BB203F536
:10A6A00000539BB21846FEF75DFD03461846083777
:10A6B000BD4680BD80B582B000AF0346FB80FB88FD
:10A6C000B3F5005F0ED3FB8842F20702934209D82C
:10A6D000064B1B68002B05D0044B1B68FA88D2B2CE
:10A6E0001046984700BF0837BD4680BD14F80020CB
:10A6F00080B582B000AF7860044A7B68136004487C
:10A70000FEF784FB00BF0837BD4680BD14F800206B
:10A71000B5A6000180B588B000AF786000237B61EA
:10A72000F6F742FB454B1B68002B01D100F01DF9E9
:10A730007B68002B12D008227B6803F00703D31A32
:10A7400008333B613B69DB437A689A4204D87A68F4
:10A750003B6913447B6001E000237B607B68002B36
:10A7600060DB7B68002B5DD0354B1B687A689A42B2
:10A7700058D8344BBB61334B1B68FB6104E0FB6969
:10A78000BB61FB691B68FB61FB695B687A689A4285
:10A7900003D9FB691B68002BF1D1284B1B68FA69B0
:10A7A0009A423FD0BB691B68082213447B61FB6956
:10A7B0001A68BB691A60FB695A687B68D21A082359
:10A7C0005B009A420FD9FA697B681344FB60FB690E
:10A7D0005A687B68D21AFB685A60FB697A685A60CB
:10A7E000F86800F01FF9164B1A68FB695B68D31A0A
:10A7F000134A1360124B1A68134B1B689A4203D218
:10A800000F4B1B68104A1360FB695B6843F0004202
:10A81000FB695A60FB6900221A600C4B1B6801330C
:10A820000A4A1360F6F708FB7B69002B01D113F08D
:10A8300080FF7B6918462037BD4680BD08EA0020AE
:10A840000CEA002000EA002010EA002014EA0020B0
:10A8500080B584B000AF78607B68FB607B68002BBC
:10A860002BD008235B42FA681344FB60FB68BB6093
:10A87000BB685B68DB0F03F00103DBB2002B1CD06D
:10A88000BB681B68002B18D1BB685B6823F00042D3
:10A89000BB685A60F6F788FABB685A68094B1B68B0
:10A8A0001344084A1360B86800F0BCF8064B1B68F4
:10A8B0000133054A1360F6F7BFFA00BF1037BD46F3
:10A8C00080BD00BF0CEA002018EA002080B400AF71
:10A8D000034B1B681846BD465DF8047B704700BFFC
:10A8E0000CEA002080B400AF034B1B681846BD463D
:10A8F0005DF8047B704700BF10EA002080B400AF11
:10A9000000BFBD465DF8047B704780B584B000AFE2
:10A91000786039600023FB607B68002B09D04FF022
:10A92000FF327B68B2FBF3F33A689A4201D9012304
:10A9300000E00023002B13D17B683A6802FB03F38D
:10A940001846FFF7E7FEF860FB68002B08D07B682D
:10A950003A6802FB03F31A460021F8681FF08CFAEC
:10A96000FB6818461037BD4680BD80B485B000AF87
:10A970004FF46843BB60264BFB60FB6803F00703A2
:10A98000002B0CD0FB680733FB60FB6823F0070348
:10A99000FB60BA68FB68D31A1D4A1344BB60FB68AE
:10A9A0007B601C4A7B6813601A4B00225A607B68EC
:10A9B000BA681344FB600822FB689B1AFB60FB68C3
:10A9C00023F00703FB60FB68134A1360124B1B68FC
:10A9D00000225A60104B1B6800221A607B683B60A3
:10A9E0003B68FA68D21A3B685A600B4B1A683B689E
:10A9F0001A603B685B68094A13603B685B68084AF9
:10AA0000136000BF1437BD465DF8047B704700BF7C
:10AA10000002002000EA002008EA002010EA0020DE
:10AA20000CEA002080B485B000AF7860284BFB6052
:10AA300002E0FB681B68FB60FB681B687A689A424F
:10AA4000F7D8FB68BB60FB685B68BA6813447A6838
:10AA50009A4208D1FB685A687B685B681A44FB68B5
:10AA60005A60FB687B607B68BB607B685B68BA6828
:10AA70001A44FB681B689A4218D1FB681A68154B88
:10AA80001B689A420DD07B685A68FB681B685B683C
:10AA90001A447B685A60FB681B681A687B681A60F6
:10AAA00008E00C4B1A687B681A6003E0FB681A68C0
:10AAB0007B681A60FA687B689A4202D0FB687A6801
:10AAC0001A6000BF1437BD465DF8047B704700BFB5
:10AAD00000EA002008EA002080B586B000AF786068
:10AAE00000233B610023FB604FF0FF33BB60F6F7B0
:10AAF0005BF9224B1B687B617B69002B1BD015E047
:10AB00003B6901333B617B695B68FA689A4202D218
:10AB10007B695B68FB607B695B68BA689A4202D9B3
:10AB20007B695B68BB607B691B687B61144B1B683E
:10AB30007A699A42E4D1F6F77FF97B68FA685A603D
:10AB40007B68BA689A607B683A69DA6000F0D1F88D
:10AB50000C4B1A687B681A600B4B1A687B685A6149
:10AB60000A4B1A687B689A61094B1A687B681A61FC
:10AB700000F0D8F800BF1837BD4680BD00EA0020BD
:10AB800008EA00200CEA002014EA002018EA00205D
:10AB900010EA00204D6963726F636869700000BF3E
:10ABA00080B485B000AFF860B9607A60FB68043BA0
:10ABB000FB60FB684FF080721A60FB68043BFB602F
:10ABC000BB6823F00102FB681A60FB68043BFB6072
:10ABD0000C4AFB681A60FB68143BFB607A68FB68F0
:10ABE0001A60FB68043BFB60FB686FF002021A60AE
:10ABF000FB68203BFB60FB6818461437BD465DF8D8
:10AC0000047B704709AC000180B483B000AF00231F
:10AC10003B604FF0200383F31188BFF36F8FBFF3C6
:10AC20004F8F7B6000BF3B68002BFCD000BF0C3710
:10AC3000BD465DF8047B7047094B19680868B0E8A9
:10AC4000F04F80F30988BFF36F8F4FF0000080F35F
:10AC500011887047AFF30080AFF30080AFF300803E
:10AC600048F5002000BF08480068006880F30888A5
:10AC70004FF0000080F3148862B661B6BFF34F8FC7
:10AC8000BFF36F8F00DF00BF08ED00E000BF80B5AD
:10AC900000AF114B1B68104A43F4600313600E4B66
:10ACA0001B680D4A43F06043136000F077F90B4BCB
:10ACB00000221A6000F0A2F9094B1B68084A43F011
:10ACC00040431360FFF7CFFFF6F736FBFFF79CFF1B
:10ACD0000023184680BD00BF20ED00E0C8FD002025
:10ACE00034EF00E080B400AF00BFBD465DF8047BE8
:10ACF000704780B483B000AF4FF0200383F3118816
:10AD0000BFF36F8FBFF34F8F7B60054B1B68013321
:10AD1000034A136000BF0C37BD465DF8047B7047E3
:10AD2000C8FD002080B483B000AF0A4B1B68013B14
:10AD3000084A1360074B1B68002B04D100237B607B
:10AD40007B6883F3118800BF0C37BD465DF8047B38
:10AD5000704700BFC8FD0020EFF30980BFF36F8F7D
:10AD6000174B1A681EF0100F08BF20ED108A20E95B
:10AD7000F04F10602DE909004FF0200080F311889A
:10AD8000BFF34F8FBFF36F8FF6F7D6FA4FF0000087
:10AD900080F3118809BC19680868B0E8F04F1EF00C
:10ADA000100F08BFB0EC108A80F30988BFF36F8FD3
:10ADB000704700BFAFF30080AFF30080AFF30080B7
:10ADC00048F5002000BF80B582B000AF4FF02003EF
:10ADD00083F31188BFF36F8FBFF34F8F7B60F6F75C
:10ADE0009DF90346002B03D0064B4FF080521A60AA
:10ADF00000233B603B6883F3118800BF0837BD46E2
:10AE000080BD00BF04ED00E080B588B000AF786081
:10AE10005B4B1B687A689A4202D9594B1B687B606E
:10AE200072B6BFF34F8FBFF36F8FF6F759FD03462E
:10AE3000002B01D162B69EE0524B06221A60524BA3
:10AE40001B687B617B69002B02D1504B1B687B61C7
:10AE50007B68013B4D4A126802FB03F37A69134495
:10AE6000FB614B4B1B6803F08063002B08D0484B01
:10AE70004FF000721A60454B1B68FA69D31AFB61E8
:10AE8000444B1B68FA699A4204D9424B1B68FA6921
:10AE9000D31AFB61404AFB6913603B4B00221A60E6
:10AEA000384B1B68374A43F0010313607B68FB6033
:10AEB000FB68002B04D0BFF34F8F30BFBFF36F8F01
:10AEC00062B6BFF34F8FBFF36F8F72B6BFF34F8F72
:10AED000BFF36F8F2B4B06221A602A4B1B6803F4BB
:10AEE0008033002B1DD0294B1A68274B1968FB694A
:10AEF000CB1A1344013B3B61264B1B683A699A42CB
:10AF000004D9224B1B683A699A4203D91F4B1B682C
:10AF1000013B3B61204A3B6913607B68013BBB619D
:10AF20001AE0194B1B687B61184B1B687A6802FB9F
:10AF300003F27B69D31ABB60144B1B68BA68B2FB7F
:10AF4000F3F3BB61BB690133104A126802FB03F2E1
:10AF50001149BB68D31A0B600B4B00221A60094BD6
:10AF600007221A60094B1B680B4A013B1360B86942
:10AF7000F6F792F862B600BF2037BD4680BD00BF2D
:10AF800040FA002010E000E018E000E03CFA002069
:10AF900004ED00E044FA002014E000E080B400AFCB
:10AFA000104B4FF47A421A600E4B1B686FF07F42D1
:10AFB000B2FBF3F30C4A13600C4B5E221A600C4B8D
:10AFC00000221A600B4B00221A600B4B4FF6FF1247
:10AFD0001A60074B07221A6000BFBD465DF8047B6C
:10AFE000704700BF3CFA002040FA002044FA0020DD
:10AFF00010E000E018E000E014E000E0DFF80C00F2
:10B00000016841F4700101607047000088ED00E0C4
:10B0100000BF00BF80B5C8B000AF3B1D18603B1D2E
:10B0200007F58670082219681EF008FA3B1D1B6898
:10B030005B88184600F031FE0346C7F81031D7F898
:10B040001031002B5DD0D7F810013B1D1B685968EB
:10B050003B1D1B685B881A461EF0F0F9D7F81031CB
:10B06000C7F810313B1D1B681B78042B26D1D7F87D
:10B070001031C7F81C31D7F81C311B78122B1DD1A9
:10B08000D7F81C319B7A9B00184600F006FEC7F8E3
:10B090001801D7F81831002B10D0D7F81C31596897
:10B0A000D7F81C319B7A9B001A46D7F818011EF07E
:10B0B000C5F9D7F81C31D7F818215A6007F10803F1
:10B0C00000221A7007F1080301333A1D1268127842
:10B0D0001A7007F1080301333A1D126852885A802A
:10B0E00007F108030133D7F810215A6007F108036C
:10B0F000C7F814310022D7F81411044804F07EFA7E
:10B1000000E000BF07F59077BD4680BD68000020D5
:10B1100080B582B000AF78607B681B78013B032B61
:10B1200022D801A252F823F039B1000145B1000143
:10B1300051B100015DB100017B685B68184601F008
:10B14000BFFC12E07B685B68184601F059FD0CE01B
:10B150007B685B68184601F0B4FD06E07B685B68BD
:10B16000184601F06EFD00E000BF786802F00EFAAC
:10B1700079680748FAF7B0F97868F8F7F2FA7B6867
:10B180005B68184600F095FD00BF0837BD4680BDDE
:10B190000000002080B483B000AF786000BF0C379F
:10B1A000BD465DF8047B704780B582B000AF786023
:10B1B0007868F8F7F1FA00BF0837BD4680BD80B463
:10B1C00000AF00BFBD465DF8047B704780B590B00E
:10B1D00000AF3C4A07F1340307CA03C31A8007F1E2
:10B1E000340319460A201AF09BF800233B7200230F
:10B1F0007B8100233B7307F1080318461AF066FEB3
:10B20000002387F82430A023FB8420233B850023E0
:10B2100087F82A30002387F82B3007F124031846DB
:10B220001AF088FEFB1D19460E201AF0CDF807F122
:10B230002C030522002118461EF01EFE032387F86A
:10B240002C3097F82D3043F00103DBB287F82D3016
:10B2500097F82D3043F00803DBB287F82D3007F163
:10B260002C0318461AF004F9012387F82230012331
:10B2700087F8203006233B834FF448637B83002309
:10B28000BB8340F2F313FB8307F11803184602F067
:10B290008EF90D4A13786FF3000313700A4A13787E
:10B2A00043F002031370084A13786FF3820313709C
:10B2B000054A13786FF3C303137000BF4037BD46D0
:10B2C00080BD00BF94AB00010000002080B500AF3E
:10B2D0000CF014FC00BF80BD80B582B000AF00232D
:10B2E000FB800023BB8014481FF0EAF818F03EF8FA
:10B2F0001DF04EFC10F0CCFFFB8818461EF036FC0B
:10B30000BB88184615F032FF0EF04EFF02F004F92C
:10B310000A4802F019F9FAF765F80948FAF79CF8B3
:10B32000F8F73EF80748F8F72BF8FFF74FFF00BF94
:10B330000837BD4680BD00BF15B0000113CD000128
:10B34000A9B10001C5DB010180B500AFFFF7BEFF69
:10B35000FFF735FFFFF7C0FF00BF80BDF7B50468FA
:10B3600000260546ADF8006018F07CFD26751CF03F
:10B3700001FC236EDA0505D513F08EF912F002F800
:10B38000AFF30080B4F898300133A4F8983094F803
:10B390006430012B64D1236EDB0105D5D4F87831FC
:10B3A000198FD86B1DF060F9D4F88831DF0109D509
:10B3B00020461BF099FD28B1D4F87831198FD86B4D
:10B3C0001DF052F9206EE36E10F0007700F0C3809C
:10B3D0009B0040334FF6FC711940D4F87801276F79
:10B3E000A66F1BF051FDD4E91B2140F272234B43A1
:10B3F00003EB42032033E36700236367013ED4F885
:10B400007831F61B1E6694F86430012B28D1E3686E
:10B410001BB9236E23F480532366236E13F4505F0D
:10B4200000F0F48018021BD50FF058FD226E031EA9
:10B4300022F4000214BF00210721226681B9D4F84A
:10B4400078211160D4F8782159685160D4F87821B6
:10B450000A605A601B68002B00F00B811CF052FC44
:10B4600018F000FD236E23F03C5323F44C63236655
:10B47000D4F8883123F08073C4F888311CF07AFB4B
:10B48000236E9B0715D518F0EDFC236E23F0020305
:10B4900043F0040323661CF06DFBD4F87821A36D00
:10B4A000126E1344A36528461DF066FF0123C4F8FD
:10B4B0007C31236E9F0214D518F0D4FC236E23F444
:10B4C000001323661CF056FB204617F079FBD4F8D6
:10B4D0007831C2B25A61D4F87831400000F4FF707C
:10B4E0005866236E9E0540F1C780B4F84C30002B9F
:10B4F00000F0D280B4F80A33002B00F0CD80013B7D
:10B50000A4F80A33002384F89C3118F0ABFC236EB6
:10B51000DA0554BF23F4844323F4864323661CF0E6
:10B5200029FB94F89D304BB101AB04225C49019595
:10B53000012015F05EF8002384F89D3094F89E32C7
:10B54000D4F8780143F0400384F89E3269461FF036
:10B55000ADF903B0F0BD10F0010035D0E66F226FF9
:10B56000203640F2722106EB430601FB0266617D44
:10B5700059B10322B1FBF2F202EB42028A1A12F035
:10B58000FF0F04BF06F272260746B6F5004FBFF460
:10B590003AAFB4F84A1040F271224A43963A9642C2
:10B5A000BFF431AF9B0040334FF6FC711940D4F823
:10B5B00078011BF069FCD4F87821E667136E216FDF
:10B5C0005B1ADB1B13661EE7626FD4F878019B00E1
:10B5D00003F598734FF6FC71022A01EA030194BF48
:10B5E000002601261BF050FCE26FE16E236F7A32D9
:10B5F000334402EB410240F2722101FB0322D4F8F2
:10B600007811E2670A6ED31A0B66FCE699067FF59D
:10B6100027AFE27D012A7FF423AFB4F84C20002A43
:10B620003FF41EAF1A023FF51BAF0FF057FC226E1E
:10B63000031E42F40002226618BF0021B4F84C2019
:10B64000A4F80A2308BF072100297FF409AFD4F822
:10B6500078211160D4F8782159685160D4F87821A4
:10B660000A605A601B6823B1B4F84C101DF040FB0F
:10B67000F6E610F017F9F3E658040DD5190405D5D0
:10B6800020461BF019FC8DF800003BE7D4F8783118
:10B690009B7A8DF8003035E720461EF0F5FDF2E785
:10B6A000A204010180B483B000AF78603960064A1B
:10B6B0007B681360044A3B68536000BF0C37BD468B
:10B6C0005DF8047B704700BF5CFA002080B582B053
:10B6D00000AF074B1B68002B06D0054B5B687B60F7
:10B6E000034B1B687868984700BF0837BD4680BD8C
:10B6F0005CFA002080B400AF064B00221A62054BB2
:10B70000054A1A62034B054A1A6200BFBD465DF83E
:10B71000047B704700060044556699AAAA996655AD
:10B7200080B586B000AF78600B46FB70EFF31083F6
:10B73000FB60FB687B6172B6104A7B6813630F4B3A
:10B740004FF480425A600D4B0F225A60FB780B4A2F
:10B7500003F00F039360094B4FF480429A60FFF7A8
:10B76000C9FF064B4FF400429A607B693B613B691D
:10B7700083F3108800BF1837BD4680BD0006004423
:10B7800080B500AF034B1B6B00211846FFF7C8FFC5
:10B7900000BF80BD0006004480B586B000AFF860F1
:10B7A000B9607A607B687B61BA687969F8681DF076
:10B7B00045FE012318461837BD4680BD80B582B0CE
:10B7C00000AF78603960064A7B68136401213868ED
:10B7D000FFF7A6FF012318460837BD4680BD00BF0E
:10B7E0000006004480B582B000AF78603960124A2C
:10B7F0007B681B6813647B6804337B600E4A7B683C
:10B800001B6813657B6804337B600B4A7B681B688D
:10B8100013667B6804337B60074A7B681B68136789
:10B820007B6804337B6002213868FFF779FF0123CE
:10B8300018460837BD4680BD0006004480B582B07A
:10B8400000AF78603960064A7B68C2F8C0300321D7
:10B850003868FFF765FF012318460837BD4680BDED
:10B860000006004480B582B000AF7860042178689B
:10B87000FFF756FF012318460837BD4680BD80B448
:10B8800000AF044B1B6803F440531846BD465DF8F7
:10B89000047B70470006004480B400AF064B1B6871
:10B8A00003F40043002B14BF01230023DBB218462E
:10B8B000BD465DF8047B70470006004480B586B045
:10B8C00000AF78603960EFF31083FB60FB687B6149
:10B8D00072B6FFF70FFF114B4FF00042C3F8D020B4
:10B8E0000E4B4FF00042C3F8E8207B6823F07F4303
:10B8F0000A4A43F00043C2F8D0303B6823F07F434C
:10B90000064A43F00043C2F8E0307B693B613B6983
:10B9100083F3108800BF1837BD4680BD0006004481
:10B9200080B584B000AFEFF310837B607B68FB6071
:10B9300072B6FFF7DFFE094B4FF00042C3F8D42088
:10B94000064B4FF00042C3F8E420FB68BB60BB68C5
:10B9500083F3108800BF1037BD4680BD0006004449
:10B9600080B586B000AF7860EFF31083FB60FB68B2
:10B970007B6172B6FFF7BEFE074A7B6823F07F4308
:10B98000C2F8F4307B693B613B6983F3108800BFE8
:10B990001837BD4680BD00BF0006004480B586B0A4
:10B9A00000AF7860EFF31083FB60FB687B6172B6D9
:10B9B000FFF7A0FE074A7B6823F07F43C2F8F83008
:10B9C0007B693B613B6983F3108800BF1837BD4634
:10B9D00080BD00BF0006004480B582B000AF0346C2
:10B9E000FB71FB79002B02D0012B03D005E0F5F7AA
:10B9F000DBF902E0FFF77DF900BF002318460837A6
:10BA0000BD4680BD80B582B000AF03463960FB7192
:10BA1000FB79002B02D0012B03D005E0F5F70CFADF
:10BA200002E0FFF77FF900BF00BF0837BD4680BDC9
:10BA300080B582B000AF7860084611461A460346CA
:10BA4000FB700B46BB7013467B70FB78002B02D05B
:10BA5000012B22D02BE07B78012B1CD80322002164
:10BA60000120F7F75DFF02467B681A607B681B6860
:10BA7000002B22D07B78012B1FD17B681868002314
:10BA800000220021F7F7FEFF0346012B01D101231D
:10BA90001BE0002319E0002317E0BB787A781146F9
:10BAA0001846F7F7D0FF02467B681A6006E07B680D
:10BAB00000221A604FF0FF3307E000BF7B681B686D
:10BAC000002B01D1002300E0012318460837BD46B2
:10BAD00080BD80B582B000AF78607B681B68184677
:10BAE000F8F753FC7B6800221A60012318460837D8
:10BAF000BD4680BD80B584B000AF7860396000235A
:10BB0000FB603B68B3F1FF3F03D14FF0FF33FB60B5
:10BB100001E03B68FB607B681B68F9681846F8F732
:10BB200001FA0346012B01D1012300E0002318464E
:10BB30001037BD4680BD80B582B000AF78607B68AD
:10BB40001868002300220021F7F79CFF0346012B11
:10BB500001D1012300E0002318460837BD4680BD0F
:10BB600080B584B000AF78600023FB607B681B6801
:10BB700007F10C0211461846F8F7C5F80346002BEA
:10BB80000CD0FB68002B07D0074B4FF080521A6097
:10BB9000BFF34F8FBFF36F8F012300E000231846E0
:10BBA0001037BD4680BD00BF04ED00E080B584B015
:10BBB00000AF78607B681B681846F8F7B1FBF86047
:10BBC000FB68FF2B01D9FF23FB60FB68DBB2184643
:10BBD0001037BD4680BD80B582B000AF78607B680D
:10BBE0001B68002B01D0002306E00120F7F713FFAC
:10BBF00002467B681A60012318460837BD4680BD9F
:10BC000080B582B000AF78607B681B68002B01D1E3
:10BC1000002308E07B681B681846F8F7B6FB7B68D2
:10BC200000221A60012318460837BD4680BD80B542
:10BC300084B000AF786039600023FB603B68B3F1EB
:10BC4000FF3F03D14FF0FF33FB6001E03B68FB6037
:10BC50007B681B68F9681846F8F764F90346012BFE
:10BC600001D1012300E0002318461037BD4680BDF6
:10BC700080B582B000AF78607B681868002300222E
:10BC80000021F7F7FFFE0346012B01D1012300E05D
:10BC9000002318460837BD4680BD80B582B000AF8E
:10BCA00078607868FEF736FD034618460837BD46CB
:10BCB00080BD80B582B000AF78607868FEF7C8FDBF
:10BCC00000BF0837BD4680BD80B400AF01231846D1
:10BCD000BD465DF8047B70470C4B13F0FF0F08D096
:10BCE0004FF0200383F31188BFF36F8FBFF34F8FA3
:10BCF000FEE7074A934208D04FF0200383F31188F0
:10BD0000BFF36F8FBFF34F8FFEE7704700C007018F
:10BD100000C00701014B1860704700BFD0FA002037
:10BD200030B4184C1546184A0C4404EB4030541EED
:10BD3000844208D24FF0200383F31188BFF36F8F42
:10BD4000BFF34F8FFEE71C18A24208D24FF020032A
:10BD500083F31188BFF36F8FBFF34F8FFEE7194452
:10BD6000B1F5005F08DD4FF0200383F31188BFF3C6
:10BD70006F8FBFF34F8FFEE701461A46284630BC4F
:10BD80001DF05CBB00C0070100000801F8B5304D94
:10BD90000D4405EB403517462A071C4608D04FF0E6
:10BDA000200383F31188BFF36F8FBFF34F8FFEE73C
:10BDB00043B94FF0200383F31188BFF36F8FBFF3B4
:10BDC0004F8FFEE7234B5A1EAA4208D24FF02003A2
:10BDD00083F31188BFF36F8FBFF34F8FFEE76219B4
:10BDE000934208D24FF0200383F31188BFF36F8F83
:10BDF000BFF34F8FFEE72144B1F5005F08DD4FF040
:10BE0000200383F31188BFF36F8FBFF34F8FFEE7DB
:10BE1000114B1B6803B1984723071EBF24F00F0383
:10BE200010339CB24FF6F0732340FE18ED1BBE4258
:10BE300004D1FFF731FD0028FBD1F8BDFFF72CFD41
:10BE40000028FBD179193846FFF7CCFC1037EEE714
:10BE500000C0070100000801D0FA002010B5124C04
:10BE6000124B04EB4034A34214D3FFF715FD002816
:10BE7000FBD12046FFF7F6FC04F58054FFF70CFDDC
:10BE80000028FBD12046FFF7EDFCFFF705FD002859
:10BE9000FBD110BD4FF0200383F31188BFF36F8FE8
:10BEA000BFF34F8FFEE700BF00C00701FFFF070190
:10BEB00037B542B94FF0200383F31188BFF36F8F7A
:10BEC000BFF34F8FFEE71F4C0C4404EB40341E4879
:10BED000431EA34208D24FF0200383F31188BFF31F
:10BEE0006F8FBFF34F8FFEE71319984208D24FF0C0
:10BEF000200383F31188BFF36F8FBFF34F8FFEE7EB
:10BF00001144B1F5005F08DD4FF0200383F3118881
:10BF1000BFF36F8FBFF34F8FFEE74FF0FF320192F9
:10BF20009DB204220DEB020120461DF079FA30B9D2
:10BF30000434A3B29D42F4D1012003B030BD0020EF
:10BF4000FBE700BF00C007010000080138B5154637
:10BF500043B94FF0200383F31188BFF36F8FBFF312
:10BF60004F8FFEE7184C194A0C4404EB4030541E26
:10BF7000844208D24FF0200383F31188BFF36F8F00
:10BF8000BFF34F8FFEE71C18A24208D24FF02003E8
:10BF900083F31188BFF36F8FBFF34F8FFEE7CA188B
:10BFA000B2F5005F08DD4FF0200383F31188BFF383
:10BFB0006F8FBFF34F8FFEE71A4629461DF030FA08
:10BFC000B0FA80F0400938BD00C007010000080148
:10BFD0002DE9F04F89B00023074601930E4629B999
:10BFE0004FF00008404609B0BDE8F08FD0F844900B
:10BFF0004C6CA1458BBFB9FBF4F3B4FBF9F304FB24
:10C00000139309FB13438BB1214648461DF0B6FA42
:10C01000B0FBF9F3DBB2092B019304D9B0FBF4F0C8
:10C02000C0B20928DCD84FF0020801E04FF0010847
:10C03000FB7AD7F860B0356E726EB6F87010012BCF
:10C0400002BFFB6BABEB0303C3F3160AF37A18BF13
:10C05000DA46012B08BFF06BB6F8763004BF2D1A14
:10C06000C5F31605B8F1010F67D1AAEB050046022A
:10C070001ED520468B4C0093CDE901211BF002FB1D
:10C080002668DFF824C2348976890299344440F264
:10C090003916B4FBF6F4A5EB0A06E443044406EAB9
:10C0A0000C06B442DDE900329CBF2D1A05EA0C05EE
:10C0B00040F2391CB3FBFCF47B6EDFF8EC91B7F86F
:10C0C0007660B6FBFCF62A44534402EA090203EA0E
:10C0D00009030134013614441E44B1FBFCF2B7F8E5
:10C0E0007000B0FBFCF00132013004EA090406EAFA
:10C0F0000906AA1AAAEB0000234602EA0902314601
:10C1000000EA09001DF031FF00283FF469AF331B3E
:10C110005D024CBFA4EB0A0AA6EB0A0A0BF103046A
:10C1200097F84F300AEA0909A144C9F3160443F00D
:10C1300002033C6687F84F3054E75B48AC1840F286
:10C14000391C0440B3FBFCF3013323440340039345
:10C15000544BB1FBFCF101311B680093691A01409B
:10C1600012234FF0000802910493C246019B5345ED
:10C170007FF638AF049B013B13F0FF0304933FF4B9
:10C180002FAF3B6E059309FB0AF01BF07BFA059B72
:10C19000B7F870101844444B40F2391200EA030B10
:10C1A000B1FBF2F1786E0131ABEB0101194058445B
:10C1B00006911840B7F87610B1FBF2F10131014455
:10C1C000194000BFA4EB0B0040020FD50098B0F857
:10C1D0000AC0B0F808E00EEB0C00ABEB040CB0FBAF
:10C1E000F2F00CEA030C0130604535D3DDE902239F
:10C1F00006981DF0BAFE00284ED0009B009A1B89BD
:10C200005289059840F239111344274AB3FBF1F3E0
:10C21000013323441340A3EB0B03134000F1030B42
:10C220005B443B66356EB6F87030746EB3FBF1F369
:10C230000133EB1A13402C4402931440B6F87630C5
:10C24000B3FBF1F10131214401EA020303934FF002
:10C25000000A4FF0010889E7706C07911BF012FA91
:10C26000114B746E05441D4040F23912B6F870004F
:10C27000B0FBF2F00130281A2C4400EA03011C4004
:10C28000B6F87600B0FBF2F001302044029100EAEB
:10C2900003010391079995E70AF1010A5FFA8AFA07
:10C2A00064E700BF9C010020FFFF7F002DE9F04FF5
:10C2B000099F154604468E461E46002B40F0CC8052
:10C2C0008A42B2FA82FC4CD9BCF1000F0BD0CCF1FF
:10C2D000200801FA0CFE20FA08F802FA0CF548EAE8
:10C2E0000E0E00FA0CF44FEA15491FFA85F8BEFB52
:10C2F000F9FA210C09FB1AE30AFB08FB41EA0343A4
:10C300009B452AD9EB180AF1FF3004D29B4502D98C
:10C31000AAF102002B44A3EB0B03A4B2B3FBF9F286
:10C3200009FB123302FB08F844EA0344A04516D97E
:10C330002C1902F1FF3303D2A04501D9931E2C44DE
:10C34000A4EB080443EA004027B124FA0CF40023CC
:10C350003C607B603146BDE8F08F5046DBE713461A
:10C36000EEE702B9FFDEBCF1000F2ED18B1A0126D9
:10C370004FEA154EAAB2B3FBFEF8210C0EFB1833A0
:10C3800008FB02F941EA0343994561D9EB1808F12A
:10C39000FF3004D2994502D9A8F102002B44A3EB47
:10C3A0000903A4B2B3FBFEF10EFB11334A4344EA86
:10C3B0000344A2424ED92C1901F1FF3303D2A24209
:10C3C00001D98B1E2C44A41ABCE7CCF1200E02FA32
:10C3D0000CF521FA0EF901FA0CF320FA0EFE4EEAE2
:10C3E00003034FEA154800FA0CF4B9FBF8F11FFA01
:10C3F00085FE08FB1192180C01FB0EF640EA024282
:10C40000964221D9AA1801F1FF3003D2964201D9F0
:10C41000881E2A44921B9BB2B2FBF8F908FB192232
:10C4200009FB0EFE43EA02439E450FD9EB1809F1C2
:10C43000FF3604D29E4502D9A9F102062B44A3EB94
:10C440000E0346EA004693E70846E3E74E46F6E762
:10C450004046A4E70B46B6E78B4206D9002F7ED0B4
:10C460000026C7E90001304674E7B3FA83FCBCF14B
:10C47000000F0FD18B4201D3824209D8841A61EB9D
:10C48000030E0120002F6DD0C7E9004E002661E7A2
:10C490006046F7E7CCF1200E03FA0CF322FA0EF512
:10C4A00021FA0EF41D4301FA0CF320FA0EF10B43AE
:10C4B0004FEA154A00FA0CF6B4FBFAF91FFA85F8B0
:10C4C0000AFB19401C0C09FB08F144EA0044A14294
:10C4D00002FA0CF23FD92C1909F1FF3004D2A14223
:10C4E00002D9A9F102002C44641A9BB2B4FBFAF9F8
:10C4F0000AFB194409FB08F843EA044188452CD992
:10C50000691809F1FF3304D2884502D9A9F1020361
:10C51000294443EA0040A1EB0801A0FB02894945F8
:10C52000C2464C4602D306D1464504D2B8EB020AB5
:10C5300069EB05040138AFB1B6EB0A0361EB040601
:10C5400006FA0EFE23FA0CF34EEA030326FA0CF663
:10C55000C7E900369AE74846C6E74B46D9E73E4664
:10C560003846F7E63E46F5E62DE9F04F054685B03C
:10C5700041208B4690461EF07DF9044650B9A54BEC
:10C58000009302460423C221EE200AF0EDFA05B022
:10C59000BDE8F08FEB78C21D05F1040A039205F1A6
:10C5A0000B0900F1110600F12107002B40F0B280C9
:10C5B000DAF800300360BAF8043083809AF8063065
:10C5C0008371D9F80030C0F80730B9F8043093808F
:10C5D00099F806309371904B1B681A7882735A79D8
:10C5E000C2735B780374BBF1000F00F08D80DBF841
:10C5F0000030C0F81130DBF804307360DBF808302D
:10C60000B360DBF80C30F360AA6D02F5C07204F180
:10C61000310B1368C4F8213053687B609368BB60AA
:10C62000D368FB60AA6D02F5E07221461368C4F876
:10C6300031305368CBF804309368CBF80830D368B6
:10C64000CBF80C30A86D412200F5E873063002F0FB
:10C65000E5FAD9F800302360B9F80430A38099F8DE
:10C660000630A371DAF80030C4F80730BAF80430A5
:10C67000A4F80B30E21D9AF806309371AB6D93F875
:10C68000E430A373AB6D93F8E530E373AB6D93F8CF
:10C69000E6302374B8F1000F00F0B580D8F8003010
:10C6A000C4F81130D8F804307360D8F80830B3609B
:10C6B000D8F80C30F360AA6D02F5E07221461368D9
:10C6C000C4F8213053687B609368BB60D368FB601B
:10C6D000AA6D02F5C0721368C4F831305368CBF804
:10C6E00004309368CBF80830D368CBF80C30A86DD1
:10C6F000412200F5C873063002F090FA204605B0DA
:10C70000BDE8F04F1EF0B8B81022594630461DF073
:10C71000B3FB79E7D9F800300360B9F804308380BF
:10C7200099F806308371DAF80030C0F80730BAF8AB
:10C730000430A0F80B30C21D9AF806309371AB6D2F
:10C7400093F8E4308373AB6D93F8E530C373AB6D4E
:10C7500093F8E6300374BBF1000F4ED0DBF80030E5
:10C76000C0F81130DBF804307360DBF80830B360D8
:10C77000DBF80C30F360AA6D02F5C07204F1310BE6
:10C780001368C4F8213053687B609368BB60D3683A
:10C79000FB60AA6D02F5E07221461368C4F83130DF
:10C7A0005368CBF804309368CBF80830D368CBF8E3
:10C7B0000C30A86D412200F5E873063002F02EFA25
:10C7C000DAF800302360BAF80430A3809AF8063013
:10C7D000A371D9F80030C4F80730B9F80430A4F8D0
:10C7E0000B30E21D99F8063093710B4B1B681A78D9
:10C7F000A2735A79E2735B784BE7102259463046B0
:10C800001DF03AFBB7E71022414630461DF034FBDD
:10C8100051E700BFB09D0201B001002080B485B097
:10C8200000AF78607B6803F00703FB600C4BDB68AC
:10C83000BB60BA684FF6FF031340BB60FB681A0287
:10C84000BB68134343F0BF6343F40033BB60044A47
:10C85000BB68D36000BF1437BD465DF8047B7047EA
:10C8600000ED00E080B483B000AF0346FB7197F9A0
:10C870000730002B0BDBFB7903F01F02074997F908
:10C8800007305B09012000FA02F241F8232000BFC3
:10C890000C37BD465DF8047B704700BF00E100E047
:10C8A00080B483B000AF0346FB7197F90730002BCB
:10C8B0000DDB0A4A97F907305B0952F82320FB7910
:10C8C00003F01F0322FA03F303F0010300E0002347
:10C8D00018460C37BD465DF8047B704700E100E068
:10C8E00080B483B000AF0346FB7197F90730002B8B
:10C8F00010DBFB7903F01F02094997F907305B0948
:10C90000012000FA02F2203341F82320BFF34F8FB9
:10C91000BFF36F8F00BF0C37BD465DF8047B7047D7
:10C9200000E100E080B483B000AF03463960FB71E2
:10C9300097F90730002B0ADB3B68DAB20C4997F90C
:10C9400007305201D2B20B4483F800230AE03B685F
:10C95000DAB20849FB7903F00F03043B5201D2B26B
:10C960000B441A7600BF0C37BD465DF8047B704758
:10C9700000E100E000ED00E080B500AF0020FFF72F
:10C980004DFFBFF35F8F62B607214FF0FF30FFF717
:10C99000C9FF07210320FFF7C5FF0320FFF762FF50
:10C9A00007210C20FFF7BEFF0C20FFF75BFF0D4BAC
:10C9B0005B6A0C4A43F4802353620A4B5B69094A61
:10C9C00043F010035361074B5B6A064A43F400339C
:10C9D0005362044B5B6A034A43F48033536200BFE3
:10C9E00080BD00BF00ED00E080B400AFBFF35F8FFB
:10C9F00062B600BFBD465DF8047B704780B483B06B
:10CA000000AFEFF310833B603B68002B0CBF0123AA
:10CA10000023FB7172B6BFF35F8FFB7918460C37AA
:10CA2000BD465DF8047B704780B483B000AF034619
:10CA3000FB71FB79002B03D0BFF35F8F62B602E07E
:10CA400072B6BFF35F8F00BF0C37BD465DF8047B45
:10CA5000704780B584B000AF0346FB71FFF7CEFF8F
:10CA60000346FB7397F907301846FFF719FF034693
:10CA7000002B14BF01230023BB7397F9073018461E
:10CA8000FFF72EFFFB7B1846FFF7CEFFBB7B184658
:10CA90001037BD4680BD80B582B000AF03460A4660
:10CAA000FB711346BB71BB79002B05D097F907309A
:10CAB0001846FFF7D7FE00BF00BF0837BD4680BD50
:10CAC00080B588B000AF78607B681B78162B00F2C9
:10CAD000838001A252F823F035CB000147CB00013F
:10CAE000D9CB0001D9CB000151CB0001D9CB00013A
:10CAF000D9CB0001D9CB0001D9CB0001D9CB0001A2
:10CB0000D9CB0001D9CB0001D9CB0001D9CB000191
:10CB1000D9CB0001D9CB0001D9CB0001D9CB000181
:10CB2000D9CB0001CFCB0001D9CB0001D9CB00017B
:10CB3000D9CB00010C212C48FAF75BF87B689A8866
:10CB40002A4B1A804BE00F212948FAF752F846E0A9
:10CB50007B681B79A12B03D17B685B79A22B0FD05B
:10CB60007B681B79B12B03D17B685B79B22B07D033
:10CB70007B681B79C12B31D17B685B79C22B2DD1AE
:10CB800011211C48FAF735F83C23BB811E23FB8199
:10CB900000233B747B68DB787B747B681A1D07F18C
:10CBA00012031168196092889A8010233B83102326
:10CBB0007B830023BB834823FB8317210E48FAF7AE
:10CBC00018F807F10C03184619F032F906E01121A4
:10CBD0000A48FAF70EF802E000BF00E000BF00BF0D
:10CBE0002037BD4680BD00BFF40C0201600000206C
:10CBF000040D0201140D0201280D0201400D020175
:10CC000080B483B000AF78607B681B78062B11D8A6
:10CC100001A252F823F000BF35CC000135CC000151
:10CC200035CC000135CC000135CC000135CC0001FC
:10CC300035CC000100BF00BF0C37BD465DF8047B5A
:10CC4000704780B582B000AF78607B681B78142B8A
:10CC500032D801A252F823F0B9CC0001B9CC0001BE
:10CC6000B9CC0001B9CC0001B9CC0001B9CC0001AC
:10CC7000B9CC0001B9CC0001B9CC0001B9CC00019C
:10CC8000B9CC0001B9CC0001B9CC0001B9CC00018C
:10CC9000B9CC0001B9CC0001B9CC0001B9CC00017C
:10CCA000ADCC0001B9CC0001B9CC00017B685B6858
:10CCB0001846FEF7FEFF00E000BF00BF0837BD4684
:10CCC00080BD80B483B000AF78607B681B780A2B8E
:10CCD00018D801A252F823F005CD000105CD0001BE
:10CCE00005CD000105CD000105CD000105CD0001F8
:10CCF00005CD000105CD000105CD000105CD0001E8
:10CD000005CD000100BF00BF0C37BD465DF8047BB8
:10CD1000704780B483B000AF78607B681B78082BC5
:10CD200014D801A252F823F04DCD00014DCD0001E1
:10CD30004DCD00014DCD00014DCD00014DCD000187
:10CD40004DCD00014DCD00014DCD000100BF00BF14
:10CD50000C37BD465DF8047B704700BF2DE9F84FE6
:10CD60009F4E9046336800F1A6020D4653F82220EC
:10CD70003AB192F84D20022A03D1BDE8F84F1CF0D9
:10CD80005EB9002840F08F8093F894327BB1DFF8D1
:10CD900054820C27336803EBC703D3F8C43143B97B
:10CDA000336893F8943213B117F1FF37F2D2BDE82C
:10CDB000F88F9C68D3F80090637AD8F80020012B94
:10CDC00013684FD143F002031360A37B5BB1D8F823
:10CDD0000020136823F0040313605DBB2046BDE808
:10CDE000F84F03F0E1BC236CA3421BD1204610F0A6
:10CDF00033F9A37B002BEAD1D8F80020136843F065
:10CE000004031360A36C33B194F85030DB07204661
:10CE100022D511F057F8336893F89432002BC6D01E
:10CE20004B46BCE794F85030DA07E5D5204603F0CE
:10CE300087FDDEE7AC42D1D095F84D30012BCDD146
:10CE4000284611F03FF8AB6A13B128461AF0D9F919
:10CE500028460DF09DF8C1E711F034F820460DF09A
:10CE600097F8D8E743F480431360E36D33F47F43CE
:10CE70000AD0204611F026F8A36A13B120461AF012
:10CE8000C0F920460DF084F894F85C30002BC2D134
:10CE9000B4F85E30013B9BB2A4F85E30002BBAD1EF
:10CEA00001236372B7E793F89532002B3FF47FAF0D
:10CEB0000C27336803EBC703D3F82C324BB9336824
:10CEC00093F89532002B3FF472AF17F1FF37F0D291
:10CED0006DE79C68D3F80090637A012B5AD194F8DF
:10CEE0004F30580714D4DFF8FCA0DAF8002053685C
:10CEF00043F002035360236CA342D34612D1A36CC8
:10CF00000BB1637F53B9414620460AF01FFD09E08B
:10CF10001DF0E8FA0028E6D04B46CFE794F85030F1
:10CF2000D907F0D4A37BC3B1DBF80020536823F00A
:10CF300004035360002D3FF451AFA5423FF44EAFC0
:10CF400095F84D30012B7FF449AF95F85030DA0752
:10CF50007FF576AF0023AB7340E7DAF80020536823
:10CF600043F004035360A36C73B194F85030DB07B3
:10CF70000AD4204610F0A6FFA36A13B120461AF087
:10CF800040F920460DF004F8336893F89532002BF1
:10CF9000C2D10CE7134B1A68536843F480435360C3
:10CFA000E36D33F47F430AD0204610F08BFFA36A71
:10CFB00013B120461AF025F920460CF0E9FF94F849
:10CFC0005C30002BE0D1B4F85E30002BDCD0013BAC
:10CFD0009BB2A4F85E30002BD6D101236372D3E755
:10CFE000A00100209C0100202DE9F04F8FB000250A
:10CFF000072906468DF80B5001D0152942D1013280
:10D00000A1F1050903A804A904921FFA89F91CF0EB
:10D01000A2FC04A90DF10E001CF09DFC4A4604A9D7
:10D020000AA81CF01BFEBDF80C40002C00F0F58097
:10D03000BDF80E30A342C0F0F480747AE00739D412
:10D0400006AB01935FFA89F905AB00934A460AAB38
:10D05000BDF80E10BDF80C000FF030FC044600289F
:10D0600000F0E280059B3088DA7B01210DF0AAFBFD
:10D070001FFA80F8B8F1000F4CD0ADF80C40002436
:10D08000254604E0ADF80C502C464FF004089DF8FE
:10D090000B3063B9B8F1000F40F0D0802A4621462A
:10D0A00030461BF0DBFF10B128461DF0D3FB0FB05C
:10D0B000BDE8F08FB37AD907C2D514F00C0F10D0A9
:10D0C000002474724FF482701DF0D4FB0028B7D096
:10D0D0001022027032888280847104211AF076FE58
:10D0E000AEE75B4BB9F1020F1B88ADF81C3009D1DC
:10D0F0004A4607A90AA81CF093F918B944F0080495
:10D1000074729DE744F00404002574724FF0120815
:10D110002C46BCE7059B9A7B920769D49DF80B309F
:10D12000002BACD1B0881DF06BFB054600287FD0EA
:10D13000059B9B68B3F800B00BF1020A00F11003E5
:10D14000092104A81FFA8AFA04931DF007FA5FFA6E
:10D150008AF104A81DF002FA214604A81DF004FA81
:10D16000059B9A685968128804A81CF081FD0BF190
:10D17000040B2746069AD1894FF6FF7291421FFA97
:10D180008BF484D0B28804EB0A0B93453FF77FAF52
:10D1900006AB781C019305AB80B200934A460AABFC
:10D1A000BDF80E10ADF80C000FF088FB0746002804
:10D1B00042D0059A917B8B073FF569AF916809884A
:10D1C000023151457FF463AFD27B308801210DF0ED
:10D1D000F9FA00287FF45BAF394604A81DF0C4F9C2
:10D1E00005998A684968128804A81CF041FDC1E7C6
:10D1F00007933388ADF820300DF10B01082307A801
:10D20000ADF82240ADF824808DF8263012F080FE73
:10D21000002883D04446804632E725464FF0010877
:10D2200035E700252C46F9E705464FF00A082EE7BA
:10D2300004464FF011082AE7804628E75FFA88F392
:10D24000BDF80C20082130460EF05AF92FE700BF38
:10D25000A64F010170B5046894F86520132A0546AD
:10D2600040D002D8122A0ED070BD403A022AFBD814
:10D27000102901D01229F7D1D4F878010021BDE896
:10D2800070401DF013BB112937D01BD81029EBD1EA
:10D290000026204684F82C601DF05CFA28461BF01E
:10D2A0000AFF20461CF0C5FB3146204601F0CEF9AE
:10D2B00020461CF075FE28460FF09AFF132384F8D1
:10D2C0006530D1E7122908D08129CDD100228121F2
:10D2D0002846BDE870400EF0FFBE2846BDE870400D
:10D2E0000BF0B8BE212900F0CC8016D81229F4D05A
:10D2F00009D8102946D01129B6D128460121BDE808
:10D30000704017F06DBB1629AED31729E5D9202937
:10D31000AAD1BDE8704013F03DBE242900F0B180D1
:10D3200010D8222958D023299ED120461AF0B2FDC8
:10D3300028461AF043FF002896D12846BDE87040E1
:10D3400019F034B88129C1D0822900F0AC80252998
:10D350008AD116F087FD236E23F0400323661AF06E
:10D3600009FC284616F0D6F9204619F075FD68B379
:10D3700016F078FD236E23F480332366BDE87040F9
:10D380001AF0F8BB494B002684F82C601A6866F343
:10D390009A621A601A6866F359621A6020461DF094
:10D3A000D9F928460DF0EAFD28461BF084FE2046F8
:10D3B00015F040FB3146204601F048F920461CF0AC
:10D3C000EFFD2846BDE870400FF012BF16F04AFD91
:10D3D000236E43F48033D0E7236E13F0100203D0A2
:10D3E000D4F8FC22812174E784F808231A0709D5B0
:10D3F00016F038FD236E23F4005323F00803236650
:10D400001AF0B8FBD4E9BF21284605F05DF894F87E
:10D41000AC31032B284626D1E37D23BB1AF0CEFE88
:10D4200000287FF421AF237D1BB994F8092302B1B2
:10D43000E382284618F0BAFF236E5B067FF514AF2F
:10D440000021204615F0CEFA80B116F00BFD236EB8
:10D4500023F0400323661AF08DFB2846FDF77EFF7C
:10D460000023E38200E71BF01DFBDCE716F0FAFC6B
:10D47000236E23F4F81323F4006323661AF07AFB77
:10D48000EEE716F0EFFC236E43F4806323661AF098
:10D4900071FB28461AF092FE00287FF4E5AE204684
:10D4A0001AF0F8FC49E7002213E700BF30340141CD
:10D4B00080B584B000AF78607B685B881846FAF767
:10D4C000DBFCB860BB68002B04D0BB689A7F7B682C
:10D4D0001A7102E07B6808221A710023FB730EE0C8
:10D4E000FB7B0B4A52F82330002B05D0FB7B084A0C
:10D4F00052F8233078689847FB7B0133FB73054B68
:10D500001B78FA7B9A42EBD300BF1037BD4680BD33
:10D51000080000200400002080B500AF0948FDF796
:10D52000E7F8FBF711FBFAF707FD034683F0010369
:10D53000DBB2002B01D0002302E0FBF7C5FE03465F
:10D54000184680BD618B000180B483B000AF786065
:10D550000C4B1B78012B01D904230DE0094B1B78E0
:10D560001946094A7B6842F82130064B1B78013383
:10D57000DAB2044B1A70002318460C37BD465DF82A
:10D58000047B7047040000200800002080B582B0B2
:10D5900000AF78607868FAF701FD7868FBF7D9F991
:10D5A0007868FCF766F800BF0837BD4680BD80B5D7
:10D5B00084B000AF78607B689B7A1846FBF753FA1B
:10D5C0000346FB81FB89002B01D0FB8904E07B68CB
:10D5D0001846FCF769F8034618461037BD4680BD6B
:10D5E00080B582B000AF03460A46FB8013467B71CC
:10D5F0007A79FB8811461846FBF746FA0346184627
:10D600000837BD4680BD80B582B000AF03463960A3
:10D61000FB71FB7939681846FAF78AFD034618460C
:10D620000837BD4680BD80B582B000AF78603960F4
:10D6300039687868FAF7FEFD034618460837BD4694
:10D6400080BD80B584B000AF0346B9607A60FB73DB
:10D65000FB7B7A68B9681846FAF732FE034618462B
:10D660001037BD4680BD80B582B000AF0346FB7168
:10D67000FB791846FCF7D2FF034618460837BD462B
:10D6800080BD80B582B000AF03463960FB71FB7985
:10D6900039681846FCF770FE034618460837BD4641
:10D6A00080BD80B500AFFCF7D5FF0346184680BDAE
:10D6B00080B584B000AF786039603B6800221A7092
:10D6C0000023FB7316E0FB7B1846FCF7E1FF0346E3
:10D6D000002B0CD03B681B781A467B681344FA7BFE
:10D6E0001A703B681B780133DAB23B681A70FB7B17
:10D6F0000133FB73FB7B072BE5D900BF1037BD4619
:10D7000080BD00BF2DE9F04F0D4689B008210446C9
:10D71000914618F0FFFE8046002875D104F15400B0
:10D7200008F06AFF032D6FD999F80170023DADB280
:10D730001FFA87FBAB4567D894F84430F02B09F10A
:10D74000020919D120461BF059FF4FF482701DF0D9
:10D7500091F80646002857D005230370238883805C
:10D76000877105812A4649460A301BF067FE04216D
:10D7700030461AF02BFB47E0F52B40F09C80B5FBC0
:10D78000F7F64FF6FF7307FB1656ADF80630002E7E
:10D7900040F0898028461DF06DF88046002840F052
:10D7A0008080E28FBDF806309A4211D84FF4827023
:10D7B0001DF060F860B1228882800F220270002282
:10D7C00082710281012280F8FF2004211AF0FEFA02
:10D7D000B8F1000F61D1BDF80630E28F9A4266D9E8
:10D7E00001339BB2A387ADF8083042F60301022350
:10D7F0000DF10D00ADF80A208DF80C301DF03EF84B
:10D8000002A920460EF08CFD09B0BDE8F08FABF107
:10D8100005020AF1050192B2494402A81DF032F84E
:10D820000AF1030149440DF106001CF091FE7A1F34
:10D83000216C02A81BF0F4FD40B908EB06003A4643
:10D8400009EB0A011BF0FAFD5E44B6B2DA441FFA96
:10D850008AFA0AEB07039D42D9DA002EA1D04FF4D1
:10D8600082701DF007F80546B8B1238883800F2326
:10D87000037087710681324641460A301BF0DEFD97
:10D88000E38FBDF8062093428CBF0023012385F867
:10D89000FF30042128461AF099FA40461CF0ECFFAC
:10D8A00099E7B246D5E7E38FADF8063079E7204631
:10D8B0001BF0A4FEA8E7F12BA6D1B5FBF7F307FBFD
:10D8C0001353002B38D1E91B49440DF106001CF01D
:10D8D0003FFEE28FBDF80630511E8B4232D201333B
:10D8E0009BB2A387ADF8083042F6030102230DF185
:10D8F0000D00ADF80A208DF80C301CF0BFFF02A916
:10D9000020460EF00DFD4FF000084FF482701CF021
:10D91000B1FF064600283FF477AF03230370238846
:10D9200083808771058125B12A4649460A301BF05C
:10D9300085FD86F8FF801AE7E38FADF8063045468F
:10D940004746C6E70023E36384F844304FF00108FC
:10D95000DBE700BF2DE9F0430446C3788E4A806DB3
:10D96000617CA57A95B004AE002B63D112688DF866
:10D970002010012192F8009092F80580B2F801E0A1
:10D98000B0F8E470B0F82CC0D0F8E6208DF8221082
:10D9900002218DF82150ADF82A708DF823908DF872
:10D9A0002480ADF825E0ADF827C08DF829100B9242
:10D9B00000F5C07708ADFA5C595D4A40F254013376
:10D9C000102BF8D10CAA31466F300BF09BF8E178A0
:10D9D000231D04F10B02002940F08A8018689B88FF
:10D9E000ADF824301368CDF826309388ADF82A308E
:10D9F0000B9108900CAB08A910251A7811F8010BAF
:10DA0000013D424015F0FF0503F8012BF5D1A06D53
:10DA100010AA0CA96F300BF075F8A76D102207F54E
:10DA2000B87110A81BF0FCFC90B3042120460EF046
:10DA3000DFFD5AE013688DF82110012193F800E012
:10DA400093F805C0B3F80120D0F8E470838DB0F8E6
:10DA5000E8808DF8221002218DF82050CDF8237037
:10DA6000ADF82E30ADF827808DF829108DF82AE01A
:10DA70008DF82BC0ADF82C20002300F5E07708AD21
:10DA8000FA5C595D4A40F2540133102BF8D199E702
:10DA900007F5E072334610685168ADF8045007F599
:10DAA000C07203C31068516806AB03C307F17F025D
:10DAB000314607F16F00CDE902550BF023F8A16D57
:10DAC00020467F3116F09AFA204607F051F8A36DF0
:10DAD00020887F3301AA02A919F0ADFAA36D2A4666
:10DAE0007F33294620460DF0BDFC15B0BDE8F0831C
:10DAF00010689288ADF824201A689B88ADF82A3007
:10DB00000023CDF826200B9308900CAA08AB102513
:10DB1000117813F8010B013D414015F0FF0502F8A3
:10DB2000011BF5D1A06D10AA0CA96F300AF0EAFF15
:10DB3000A76D102207F5D87110A81BF071FC002802
:10DB40007FF473AF07F5E07233461068516807F54C
:10DB5000C07203C31068516806AB03C307F17F02AC
:10DB6000314607F16F000AF0CDFFA16D20467F31ED
:10DB700016F044FAA36D2A467F33294620460DF05D
:10DB800071FCA16D204601F5C07113F0FBFD20462C
:10DB900006F0EEFFA9E700BFB001002030B591EA22
:10DBA000030F00F18280841A71EB030C05D2121965
:10DBB00053EB0C03001B71EB0C0140F2000CCFF691
:10DBC000E07C1CEA430F52D0BCEB410F5FD90C0D37
:10DBD000A4EB135E5FF0010C6CF31F516CF31F5349
:10DBE000DEF1200C2AD303FA0CF5401941F10001B3
:10DBF00022FA0EF5401923FA0EF5694112FA0CF2D9
:10DC0000CD0208D349085FEA30005FEA320228BF3C
:10DC100042F001020134013C5FEA500C72F1004213
:10DC200050F1000051EB04514FF4001313EB410F7E
:10DC300038BF30BD6FF31301002030BDBEF1200EA0
:10DC4000BEF1200F1ED223FA0EF5401941F100015A
:10DC5000CEF1200C124218BF012203FA0CF52A4320
:10DC6000CEE711EA5C0F04BF0020002130BD1CEAA2
:10DC7000410F04BF01F00041002030BD01F0004120
:10DC8000002030BD21F4801101EB045130BD004271
:10DC900018BF41F00101BCEB410F08BF30BD4FF090
:10DCA000FE4141F47801002030BD83F00043841A26
:10DCB00071EB030E07D28EF0004E001B71EB0E01CC
:10DCC000121953EB0E0340F2000CCFF6E07C1CEA75
:10DCD000430FC6D0BCEB410F72D90C0DA4EB135E01
:10DCE000C90241EA5051C00241F00041DB0243EA5F
:10DCF0005253D20243F00043DEF1200C41D312FA1A
:10DD00000CF522FA0EF203FA0CF542EA050218BFEE
:10DD100042F0010223FA0EF3801A9941E30AC4F398
:10DD20000A0411F0404F03D418D0013C400049418F
:10DD3000013C23D44205C00A40EA4150C90A51EAD5
:10DD4000C3715FEA500C72F1004250F1000051EBD8
:10DD5000045130BD01002FD00020203C0029F9D013
:10DD6000B1FA81FCDCF1200E11FA0CF130FA0EF55B
:10DD700010FA0CF02943A4EB0C04D9E70020D907D2
:10DD800030BDAEF1200EBEF1200F0DD2CEF1200C31
:10DD900003FA0CF533FA0EF32A4318BF43F00103DC
:10DDA000C01A61F10001B9E721F00041C00A40EA60
:10DDB0004150C90A01EB045130BD0020002130BDA3
:10DDC000004218BF41F00101BCEB410F7FF467AF87
:10DDD000BCEB430F3FF463AF30BDFEE72DE9F04FDE
:10DDE00005468FB00F460026BB5DAB550136202E91
:10DDF000FAD13C464FF0000854F82C0FCDF82080A3
:10DE0000616809ABCDE9068803C3A068E16803C374
:10DE100006AA2069186011463346104619F078FDAD
:10DE200006AA83462946284619F072FDBA4683445D
:10DE30005AF8300FDAF8041009AB03C3DAF8080017
:10DE4000DAF80C1006AA03C3334611461046CDF883
:10DE5000348019F05DFD5FFA8BFB834406AA2946E6
:10DE6000284619F055FD3B465FFA8BFB834453F877
:10DE7000200F01935968CDF82C800DF11809A9E8FD
:10DE800003003A469868C9F8000052F8380F049227
:10DE900051680CABCDE9098806AA03C3334629466D
:10DEA000284619F035FD5FFA8BFB3A465844C3B259
:10DEB00052F8240F059351680292BB4606AB03C388
:10DEC0009068C9F800005BF8340FDBF8041009AB68
:10DED00003C3DBF80800186003937B6B0C933B6A69
:10DEE0000D9306AA33462946284619F011FD059BD5
:10DEF0006168CDF82C801844C3B22068059306AB46
:10DF000003C33B6AA0680C93BB6AC9F800000D9379
:10DF100006AA334629462846CDE9098819F05AF958
:10DF2000059BDAF80410181AC4B2DAF8000006AB40
:10DF300003C3DAF80800DAF80C1003C37B6A0C9309
:10DF4000FB6A0D9306AA334629462846CDE90A887E
:10DF500019F040F9DBF80410019A241ADBF80000EC
:10DF600006AB03C3DBF808005168C9F8000010686D
:10DF700009AB03C3039B906818603B6B0D9306AA23
:10DF8000334629462846CDF8308019F023F9049A03
:10DF9000E4B25168241A1068029A06AB03C31068F1
:10DFA0005168C9F8008009AB03C3039B90681860EF
:10DFB0007B6B0D9306AA334629462846CDF8308060
:10DFC00019F008F9E4B2241A64B244450F4E10DB8C
:10DFD00034B92022294630461AF0B7F8012812D069
:10DFE000202332462946284619F0F4F8241A64B250
:10DFF000EEE7202332462946284619F089FC0444DE
:10E0000064B2002CF5DB0FB0BDE8F08FA0FB002060
:10E010002DE9FF470478012C054600F0A0802CB1C3
:10E02000032C00F0E48004B0BDE8F0878478002C75
:10E03000F9D1794ED6F800A00AF1100353F82470F4
:10E040005FFA84F977BB88201CF014FC04F1040803
:10E050004AF82800336853F82800B0B188223946BE
:10E060001BF00AFF3368A400234417211A6991802A
:10E070001B6983F8029033681C440122236983F8EA
:10E0800085202369DF6423691F65336853F82840BE
:10E0900064B9624B0093002204239221EE2008F021
:10E0A00063FDC0E70134082CC8D1F2E7AB882380B8
:10E0B000AA79E378002A31D143F02103584FE37065
:10E0C0003A68D2F80080E37AB8F1000F29D19800BD
:10E0D00043B11CF0CFFBE06020B13B6819684746B4
:10E0E00000293AD1B4F85C30A178216640F20142AF
:10E0F00003F0F8031343A4F85C30B4F87430A1675C
:10E1000003F0F8031A433368A4F87420DB68002B8B
:10E1100089D0284604B0BDE8F047184743F0110302
:10E12000CCE798F810201344E372D8F80080CAE7CF
:10E1300088689B0030F822C0E06820F803C0E068DF
:10E14000034401325F80D2B2087C02EB08039042A4
:10E15000DBB2EDD809689846C2E70022F4E74588AB
:10E16000284618F001FE064650B9CDE901542D4B62
:10E170000093024604239321EE2008F0F5FC52E7B9
:10E1800000881CF03FF960B34FF482701CF072FB02
:10E1900040B11122027032888280B27A82710421E9
:10E1A00019F014FE4FF482701CF064FB0446C0B1F9
:10E1B000F07A80001CF05EFB054690B112232370BC
:10E1C00033882381F37AA3726060F27AF168920057
:10E1D0001BF034F92046042119F0F8FD28461CF004
:10E1E0004BFBB07804B0BDE8F0470DF0A7BB037956
:10E1F000002B7FF418AF4588284618F0B5FD02467D
:10E2000028B9084B0093CDE901540423B3E7012357
:10E2100080F8843007E700BFB40100201C31020100
:10E22000AC00002036310201F0B581EA030E0EF099
:10E23000004E40F20007CFF6E07717EA41051EBF17
:10E2400095EA070F17EA430494EA070F00F0C58028
:10E250006D0DA5EB545707F580674FF0004646EA71
:10E26000C12444EA5054C00246EAC32343EA52534D
:10E27000D202801A9C4104D20018644180185C418B
:10E28000013F5B084FEA32020025002140F0010007
:10E290004FF0070604E0801A9C4136D340416441A8
:10E2A000801A9C4136D340416441801A9C4136D348
:10E2B00040416441801A9C4136D340416441801AF8
:10E2C0009C4136D340416441013E17D0801A9C41A5
:10E2D00036D340416441801A9C4136D34041644169
:10E2E000801A9C4136D340416441090201EB15611B
:10E2F00090EA052520F0FF004540CCE7801A9C41BC
:10E3000056D335E080185C41C8D2001864418018AB
:10E310005C41C8D20018644180185C41C8D2001822
:10E32000644180185C41C8D20018644180185C4187
:10E33000C8D200186441013E17D080185C41C8D291
:10E340000018644180185C41C8D2001864418018EC
:10E350005C41C8D200186441090201EB156190EAE2
:10E36000052520F0FF004540CCE780185C411FD315
:10E37000420918BF44F00104490101EBD56100F0E6
:10E380001F0000EB451021F4801141EA0E0101301D
:10E3900041F10001244208BF20F00100B7F5006FF1
:10E3A0003EDA013F49DD01EB0751BDE8F04070471F
:10E3B000490101EBD56100F01F0000EB451021F48D
:10E3C000801141EA0E01B7F5006F29DA013F34DD13
:10E3D00001EB0751BDE8F0407047004218BF41F023
:10E3E0000101124218BF43F00103B7EB410F2CBFEC
:10E3F000B7EB430F1CE0B7EB410F04BFB7EB430F84
:10E4000016E017EA410F04BF17EA430F10E017EABE
:10E41000410F12D017EA430F02D0B7EB430F0CD0D5
:10E420004EF0FE4141F470010020BDE8F04070471D
:10E430004FF0FE4141F47801F6E77146F4E7022916
:10E440002DE9F04FBBB0DFF800A2069212680192EE
:10E450008A6E1344019A12FA83F9031F029300F1A2
:10E460002C038B4609930026029B53F8047F0293EA
:10E47000002F64D07B6E0593FB7AD7F86080BBF8E1
:10E480007620B7F87040B7F87650012B04BFFB6BCD
:10E49000A8EB030840F23913B2FBF3F2B4FBF3F438
:10E4A00002F1010204F1010414440392B5FBF3F5F7
:10E4B000BBF87020B2FBF3F205F1010502F1010295
:10E4C00015440492059A08BF08EA0A08424402EA81
:10E4D0000A021544BA6CA8EB040404EA0A0405EA2B
:10E4E0000A05002A61D13A6C97425ED1786C19F026
:10E4F000C9F840F239130890079300BFA4EB090351
:10E500005B020BD484EA090313EA0A0F06D0182E23
:10E5100014D0099B029A9342A6D110E04B46019A6F
:10E52000294620461BF021FDE0B13AAB03EBC603C0
:10E530000136F6B2182E43E9304513D11826449B14
:10E54000721E1E700AA8002119F0C8FB00230A9849
:10E550001A4644990978914237D8459A13703BB0CE
:10E56000BDE8F08F7B7F002BD1D0089BB7F87040BF
:10E57000B7F876509844079BB4FBF3F4039B01343F
:10E580001C44079BB5FBF3F5049B01351D44059B1B
:10E5900008EA0A08434403EA0A03A8EB04041D44FA
:10E5A00004EA0A0405EA0A05A8E74B46019A294647
:10E5B00020461BF0DAFC0028A9D03AAB03EBC603D7
:10E5C000013643E93045F6B2A1E75AB906990C681D
:10E5D000211A4D0206D5469901EBC301C1E900405D
:10E5E0000133DBB24499097801398A4202F101040E
:10E5F00013DA3AA901EBC20151F8BC6C3AA901EB5C
:10E60000C40151F8C05C711B490206D5469901EB63
:10E61000C301C1E900650133DBB2449909780139CE
:10E620008A420FD13AA901EBC20252F8BC1CA1EBFD
:10E630000902520206D5469A02EBC302C2E900194A
:10E640000133DBB2E2B284E7FFFF7F00F8B5037E5F
:10E650007E4D022B044621D11BF0E9FED4F8A030F8
:10E660007BB92376236E23F0805323664FF000039B
:10E67000A4F829302B6923634FF48073A4F8233066
:10E6800011E094F8A8214AB11B7903F03003102B54
:10E6900004D100232376C4F8A030E3E7217E0029CB
:10E6A000E0D002295BD0204610F08CFA94F8671075
:10E6B00084F82B0094F82A0016F016F8D4F8883065
:10E6C000D4F87811D4F894201844C4F8880094F849
:10E6D0006430D1F8B010012B40F2712303FB01F339
:10E6E00040F09F809A4238BF9B1AD4F88C2028BFF4
:10E6F00000239042226E80F09180984280F08E80BC
:10E70000D10040F18680012384F8293042F0400294
:10E71000226615F0A7FB216BE86817F02DFEEB6869
:10E7200094F82B205A7094F8253094F82910EA6850
:10E73000DB0043EA011394F824100B4394F82610ED
:10E7400043EA8103137019F015FA236E13F02002C7
:10E7500003D143F02003E27523660020F8BDD4F80E
:10E76000A02013895689F61A236E23F0805323665E
:10E77000002384F82930137903F03000102829D1C0
:10E7800012891ABB03F00303012B1FD084F8241055
:10E79000D4F8A020B4F89E1113890C331344B1426D
:10E7A00023631ED310681BF0DFFCD4F8A0301B7964
:10E7B00003F03003102B07461ED160681BF0D4FC19
:10E7C00027B3236E43F0805323660FE0012384F8C0
:10E7D0002430DDE7032384F8243020460DF092F93D
:10E7E000D6E7236E43F0805323660E4684F82A60F2
:10E7F00020461BF015FE56E7A0681BF0B5FC94F808
:10E80000A831002BDCD0002FDBD1EFE70028D8D1D6
:10E81000ECE794F82130002B7FF478AF22F040022F
:10E8200076E79A4238BF9B1AD4F8902028BF00237D
:10E830009042BFF46EAF9842BFF46BAF236EDB0023
:10E8400044BF012384F8293063E700BFCCF90020DE
:10E85000F7B54388042B044605D0082120460DF067
:10E86000C7FE03B0F0BD806D0191E43001A91BF03B
:10E870009FFDA06D01A9E5301BF09AFDA06D01A9D7
:10E88000E6301BF095FDA06D01A9E7301BF090FD6F
:10E89000A06D01A9E8301BF08BFDA06D01A9E93046
:10E8A0001BF086FDA36D93F8E72084F8522093F8BF
:10E8B000E620D00704D55D4A12685278D10701D40A
:10E8C00001225A71A26D92F8E730073B092B01D95A
:10E8D0000621C3E792F8E630544D13F0080F2B6879
:10E8E00003D19B7923B10321B8E75B78C3F3C0035D
:10E8F00084F8553020460EF0DBFF04F15C0715F07C
:10E90000B2F84B49384605F0DFFDA66D737813F178
:10E91000FF3218BF012284F8542094F85520002AB1
:10E920004DD0012B07D096F8E7300F2B03D838468F
:10E9300007F062FECCE794F8533083B9022018F058
:10E94000F9FE002837D12B68DA789AB1394940228C
:10E9500004F112001AF072FD022384F853302046AD
:10E9600012F078FB04F11201204615F059F80B2340
:10E97000A37076E77278032A06D1996821B191F8DD
:10E9800050300BB14022E3E72B481BF05DFC0646FC
:10E9900000287FF462AF2868022384F853301030D7
:10E9A00007F02AFE2B6883F828609B680BB183F878
:10E9B00050600A23DCE7012384F85330F9E720464E
:10E9C00012F048FBA36D93F8E920D2075CBF012247
:10E9D0005A71A16D4B78012B0AD120466F3102F09C
:10E9E00027FFA16D204601F5D87112F029F838E70C
:10E9F000022B13D12B681B78022B03D1204614F075
:10EA000041FE2EE7042B05D191F8E430022B01D012
:10EA1000042BF3D120461AF001F822E7032B7FF4F0
:10EA200020AF20461AF00BF81BE700BFB001002012
:10EA3000A064D101A8460201C94002012DE9FF41AD
:10EA400000230293ADF80430C37A012B044601A9D8
:10EA500002A82DD118F084FE029AE36B218F1A448C
:10EA6000BDF804300B449BB240F2E1418B42C2F34B
:10EA70001602029285BFA3F2E2430132ADF80430E0
:10EA8000ADF8043088BF0292A37B029E002B55D1C3
:10EA9000276CBC423D6E43D0DFF87C81AB1B5B0230
:10EAA00009D5786C18F0EEFD054405EA0805F5E790
:10EAB00018F056FEE8E7606C18F0E4FD284400EA20
:10EAC0000800801B40F27125C0F31600BDF8043029
:10EAD0006843B4F8705005EB9305237A012B4C4B37
:10EAE0001A680BBF5368136843F4005343F4005390
:10EAF0000CBF53601360C5EB5005C4F88440294631
:10EB000004F1780005F0E0FC424B1B68B3F82013D9
:10EB1000A94239D2691A04F1900005F0D5FC33E01E
:10EB2000606C18F0AFFD237A2844012BC0F3160067
:10EB3000C7D1A36C002BC4D02066C2E7206E801B17
:10EB400040F27123C0F316005843012888BFBDF876
:10EB500004304FEA500588BFA5EB9305B4F8703038
:10EB600003F27122AA4212D9636D2BB193F84F20A0
:10EB700042F0080283F84F20204619F02DFF0022B2
:10EB80002146207A0DF0ECFC04B0BDE8F081ED1ACE
:10EB9000E37AC4F88440012B0DF1060103A833D1B8
:10EBA00018F0DEFD039AE36B218F1A44BDF806309E
:10EBB0000B449BB240F2E1418B42C2F31602039236
:10EBC00085BFA3F2E2430132ADF80630ADF806305E
:10EBD00088BF0392DDE902239A4204D1BDF80630D2
:10EBE000B3F5966F01D3A5F59C75237A012B084BDD
:10EBF0001A680BBF5368136843F4005343F400537F
:10EC00000CBF536013607AE718F0AAFDE2E700BF7B
:10EC10009C010020A0010020FFFF7F002DE9F04FA4
:10EC20001646A1B0102281460C460DEB02000021D1
:10EC300098461BF021F930461BF01CFE07460028C1
:10EC40007ED0A319421EA3427DD118AD102200210F
:10EC500028461BF011F90DF1500A102200211CA8C2
:10EC60001BF00AF987231022002150468DF87F30CF
:10EC70001BF002F910AA5146484609F043FF0CACBC
:10EC800010AA0023D17B19550133102B02F1FF325A
:10EC9000F8D19DF93030002B5ADB04A920461AF038
:10ECA0007DFA9DF91030002B5CDB08A904A81AF04E
:10ECB00075FA06F10F00000906F00F065CD01FFA86
:10ECC00080FB002E5AD100F18050013810AA04A90F
:10ECD00007EB00101AF090FF1022002168461BF08D
:10ECE000CBF800260BF1FF339E42224665D310A9D4
:10ECF00068461AF081FF0023E27BEA540133102BAF
:10ED000004F1FF34F8D11CAA2946484609F0FAFE5E
:10ED10001CAB0022D97B0DF802100132102A03F13E
:10ED2000FF33F7D10DF10F02002300BF12F80119D4
:10ED300008F803100133102BF8D138461BF09CFD66
:10ED400021B0BDE8F08F13F8011D02F8011F7AE72A
:10ED5000294620461AF022FA04AA1CA928461AF0CD
:10ED60004BFF9EE7294604A81AF018FA08AA1CA926
:10ED700028461AF041FF9CE74FF0010B0BF180533E
:10ED8000013B1A010023B6B2194680201FFA83FC0A
:10ED900066450CD907EB020C1CF803C00AF803C047
:10EDA0000133102BF2D110AA08A9504692E70CBFEC
:10EDB0000AF803000AF80310F2E707EB06116846A9
:10EDC0001AF01AFF0023D17BE9540133102B02F112
:10EDD000FF32F8D11CAA2946484609F093FE1CAA26
:10EDE0000023D17B0DF803100133102B02F1FF3209
:10EDF000F7D10136B6B275E7F0B5612885B00D469A
:10EE000017460E6850D013D841282DD006D8A0F14F
:10EE10001303012B40F2988000246DE0542834D075
:10EE2000602845D05228F7D1084610F05FFEF3E77E
:10EE3000A02800F09E8007D8802811D08128EBD12F
:10EE400008461AF0F1F9E7E7A22800F0A380C0F025
:10EE50009D80F128E0D1304618F060F904464BE07F
:10EE6000304612F062FCD7E713685B89029333885F
:10EE70000193544B0093022201233E21EC2007F022
:10EE800073FE30461AF039FBC6E7D6F8843113F02A
:10EE9000010431D023F00103C6F8843196F8B31190
:10EEA00028461BF023F8B7E708461AF067FCB3E7DB
:10EEB00013681E68937A032B21D153681B78029341
:10EEC00033880193404B0093022201233F21EC2021
:10EED00007F04AFE384610F0D3FD044660B97B685F
:10EEE0001B78022B02BFD6F8843143F00103C6F829
:10EEF0008431284610F0FAFD204605B0F0BD537A63
:10EF0000029333880193314B009302220123402165
:10EF1000EC2007F029FE38460FF0B0FC044600282C
:10EF2000EAD196F8A93163B1294B186819F0B0FEFF
:10EF3000336E43F0100333663D2128461AF0D6FFA6
:10EF4000DAE70DF035FAD7E796F86530403B022B4B
:10EF500007D8A0F1130359425941284612F0A0FDE9
:10EF60005AE7346E14F00404C6D008460AF066FB73
:10EF700052E708461BF01CFC044600B30146284635
:10EF800002F0C0FD20461AF0D2FA45E730880DF0B5
:10EF900067FD41E796F8AC31112B3FF43DAF96F891
:10EFA000AE31112B3FF438AFD6F8EC321BB11B79E0
:10EFB000012B3FF431AF284613F022F82CE7072449
:10EFC0009AE700BFA6F90101CAF90101F1F90101AF
:10EFD0000801002080B58AB000AF7860F8F708FF1C
:10EFE00003F02CFD4FF2D0231B681A46594B1B68C7
:10EFF00023F49F7323F0010343F012031846904754
:10F0000006F05EFCF7F77CF91BF0B6F9FCF7B8FBED
:10F010000120F8F79DFE504B504A1A604E4B504A63
:10F020005A604D4B4F4A9A604B4B4F4ADA604A4BFD
:10F030004E4A1A61484B4E4A5A61474B4D4A9A61B3
:10F04000454B4D4ADA61444B4C4A1A62424B4C4A9A
:10F050005A62414B4B4A9A623F4B4B4ADA623E4BF3
:10F060004A4A1A633C4B4A4A5A633B4B494A9A63A1
:10F07000394B494ADA63384B484A1A640021102058
:10F080000DF01EFF04222021454800F057FA07F139
:10F090001C030C22002118461AF0EEFE07F11C0397
:10F0A00002331846FAF7FCFD03461A467B7F62F3EB
:10F0B00000037B7707F11C0309331846FAF702FEB9
:10F0C00003461A467B7F62F341037B7707F11C03FB
:10F0D0001846FAF71DFE034683F00103DBB2002B4E
:10F0E00001D003233B7707F11C0303F10B0207F167
:10F0F0001C030A331146184602F0F7F903461A4674
:10F100007B7F62F382037B7707F1080314220021DF
:10F1100018461AF0B1FE3B7D6FF300033B754FF4C8
:10F12000E043BB60BB681846FCF7B7FD0346FB60D5
:10F130000023BB6107F11C0307F1080206491848C8
:10F1400004F05CF803F010F9FDF716FC00BF283757
:10F15000BD4680BD002401441C000020D9B9000137
:10F1600005BA000131BA0001F5BA000137BB000150
:10F1700061BB0001ADBB00013DF50001FDF50001E3
:10F1800043F6000191F60001D7F600016FF500018A
:10F190009BF50001C9F500019BBC0001B3BC000157
:10F1A00014000020F7B590F84D3004460E4633B9F0
:10F1B00019B10B78837280F8523003B0F0BD032B85
:10F1C000FBD1684D2B68D3F8303303B1984794F8DE
:10F1D0005220A27294F851302A68237202EB830302
:10F1E000614FD3F89812A14204BF0021C3F89812CE
:10F1F000D2F8A032A34204BF0023C2F8A032237A7F
:10F200003A68012B15BF1368536843F4806343F4D5
:10F21000806314BF13605360042384F84D300023CF
:10F220008DF807305EB13378A372337884F85230AA
:10F23000737823B10DF1070120460FF073F92B68A5
:10F240000022C3F8A422637F13B1204619F0E8FE20
:10F250002A68D2F898320BB9D2F89C32C2F8A032A0
:10F26000002B5ED093F84D30022B5AD119F0E7FEF7
:10F2700094F85030DE0748BF23F0010343F0020347
:10F2800084F8503094F84F30D8070ED523F001039E
:10F29000002684F84F302046667210F06DFA33462F
:10F2A00032463249012011F0A4F9637F03B9A373F8
:10F2B0003A68B4F87000118988420DD0A4F8701033
:10F2C0002968B1F82203A4F87200B1F82413A4F855
:10F2D00074105289A4F876204BB194F84E30D907B7
:10F2E00005D4204619F08AF92046FFF7A7FB94F8C9
:10F2F0004E30DA070FD523F0010384F84E30A36DAA
:10F300004BB9204610F038FAA36D23B91A461849B4
:10F31000012011F06EF9296816F0F6FA81F834032D
:10F320004BE792F8943223B1002211461046FDF7C4
:10F3300015FD2B6893F89532002B99D0237A3A6803
:10F34000012B0BBF5368136843F4805343F480537D
:10F350000CBF536013600022114601200DF000F92C
:10F3600086E700BFA00100209C0100200B010001E6
:10F370000901000170B5856D86B00446002D00F0CE
:10F38000DB8095F82E30DE0722D511201BF038FAED
:10F390000646E8B100F11003062104A804931BF00F
:10F3A000DDF82B46049953F8A02F0A605A684A608A
:10F3B0009A688A60DA68CA6006230093324600239E
:10F3C0001121208817F074F810B130461BF042FA72
:10F3D000A56D95F82E30980721D50B201BF010FA5B
:10F3E0000646E0B100F11003072104A804931BF0C6
:10F3F000B5F8049BB5F8B0201A80049A55F8B23FCE
:10F4000013606B68536006230093324600230B2180
:10F41000208817F04DF810B130461BF01BFAA56D8F
:10F4200095F82E30590722D511201BF0E9F9064630
:10F43000E8B100F11003082104A804931BF08EF832
:10F440002B46049953F8BC2F0A605A684A609A68A0
:10F450008A60DA68CA6006230093324600231121CD
:10F46000208817F025F810B130461BF0F3F9A36D92
:10F4700093F82E301A0728D508201BF0C1F905464D
:10F4800018B300F11003092103A803931BF066F8D9
:10F490000DF1110104A819F0CBFB9DF8101003A881
:10F4A0001BF05CF8039BDDF811201A60BDF81520F5
:10F4B0009A80062300932A4600230821208816F00C
:10F4C000F7FF10B128461BF0C5F9A56D95F82E3051
:10F4D000DB0622D511201BF093F90646E8B100F1B6
:10F4E00010030A2104A804931BF038F82B46049952
:10F4F00053F8D32F0A605A684A609A688A60DA68BB
:10F50000CA6006230093324600231121208816F09A
:10F51000CFFF10B130461BF09DF9A36D93F8EA20A0
:10F5200052B95B7913B920460BF09EFAA06D18B161
:10F530001BF0A2F90023A36506B070BD80B584B0AE
:10F5400000AFF860B9607A6000227968B868F4F7B3
:10F55000E7F90246FB681A60FB681B68002B01D1C3
:10F56000002300E0012318461037BD4680BD80B55A
:10F5700082B000AF786039603868F5F776F80246F7
:10F580007B681A607B681B68002B01D1002300E0B8
:10F59000012318460837BD4680BD80B582B000AF54
:10F5A000786039607B681A683B681B6819461046AA
:10F5B000F5F76AF80346012B01D1012300E000238F
:10F5C00018460837BD4680BD80B584B000AFF860EE
:10F5D000B9607A60BB681B6879681846F5F799F8D6
:10F5E0000246FB681A60FB681B68002B01D10023F0
:10F5F00000E0012318461037BD4680BD80B586B0B7
:10F6000000AFF860B9607A6000237B617B68B3F17A
:10F61000FF3F03D14FF0FF337B6101E07B687B61EB
:10F62000FB68186800237A69B968F4F72BFA034677
:10F63000012B01D1012300E0002318461837BD46F5
:10F6400080BD80B584B000AF786039600023FB6076
:10F650007B68186807F10C0200233968F4F7D8FAC0
:10F660000346012B0CD1FB68002B07D0074B4FF052
:10F6700080521A60BFF34F8FBFF36F8F012300E0FA
:10F68000002318461037BD4680BD00BF04ED00E0E2
:10F6900080B586B000AFF860B9607A6000237B6106
:10F6A0007B68B3F1FF3F03D14FF0FF337B6101E093
:10F6B0007B687B61FB681B687A69B9681846F4F758
:10F6C0008EFB0346012B01D1012300E000231846E5
:10F6D0001837BD4680BD80B582B000AF78607B68CA
:10F6E0001B681846F4F7A9FF0346012B01D101233B
:10F6F00000E0002318460837BD4680BD90B58BB0AA
:10F7000000AFF861B9617A614FF0864302221A6056
:10F710004FF2D0031B68FC693846BA69102198473C
:10F7200004F1DC033A4607CA83E807004FF24C03B2
:10F730001B681C46F869FB69DC337A691946A047E7
:10F740000346002B02D00123FB8401E00023FB844D
:10F750004FF0864300221A60FB8C18462C37BD46BA
:10F7600090BD90B587B000AFF8607A603B600B4603
:10F770007B814FF0864302221A604FF260031B68C0
:10F780001C46F8687A897B683968A04778617B698C
:10F79000002B06D14FF26C031B68FA68104698479D
:10F7A00078617B69002B06D14FF270031B68FA6801
:10F7B0001046984778617B69002B06D14FF26803A9
:10F7C0001B68FA681046984778614FF0864300221C
:10F7D0001A607B69002B01D0012300E0002318464A
:10F7E0001C37BD4690BD90B589B000AF78613961D6
:10F7F0004FF0864302221A604FF2D0031B687C69E7
:10F8000038463A691021984704F1DC033A4607CAA2
:10F8100083E807004FF240031B681A4678697B694A
:10F82000DC33194690470346002B02D00123FB83AB
:10F8300001E00023FB834FF0864300221A60FB8B1C
:10F8400018462437BD4690BD90B587B000AFF8602C
:10F850007A603B600B467B814FF0864302221A6040
:10F860004FF260031B681C46F8687A897B68396828
:10F87000A04778617B69002B06D14FF264031B68B7
:10F88000FA681046984778617B69002B06D14FF2E1
:10F8900070031B68FA681046984778614FF08643FA
:10F8A00000221A607B69002B01D0012300E00023B5
:10F8B00018461C37BD4690BD2DE9F047C388172B6D
:10F8C0008CB0074640F0BD80837A0C2B07D003F044
:10F8D000FD03082B03D080200CB0BDE8F0874FF467
:10F8E00040701AF0C7FF80460028F4D01022002193
:10F8F00008A81AF0C1FA5E4BCDF808801B681C6896
:10F9000000250CBB28461AF0B5FF0646002800F07B
:10F9100094802A4641461AF097F940461AF0ACFF07
:10F9200004AB2A46314608A8FFF778F930461AF0AA
:10F93000A3FF3B685A6804AB03CB1060516003CB54
:10F940009060D1600020C7E7A689E389B34201D265
:10F950002468D6E7B4F80C906368A6EB090903EBBA
:10F96000091999F80E305B074FD4D9F8001001A897
:10F970001AF0EEFDBDF80430A3F52052032A02D997
:10F98000B3F5245F44D1D9F8083093F800A055446A
:10F990001FFA85FA0AF10405ADB2B5F5407F4CD8DF
:10F9A000314602A81AF0E0FDBDF8041002A81AF0D2
:10F9B000DBFDD9F80830D9F804101A7802A81AF03B
:10F9C00057F9BDF8042042F602039A421DD1D9F836
:10F9D00008301B88042B18D1D9F804100DF106004B
:10F9E0001AF0B6FD03AA04A9BDF8060016F004FF3C
:10F9F00058B10AF11405ADB2B5F5407F1DD8049B8E
:10FA00001022596802A81AF033F90136B6B29CE701
:10FA100003F55643FF339BB2042BF6D80435ADB241
:10FA2000B5F5407F09D8314602A81AF09DFDBDF812
:10FA3000041002A81AF098FDE7E740461AF01CFFF0
:10FA400049E7152B7FF447AF837A0C2B04D003F0E2
:10FA5000FD03082B7FF43FAFB88817F085F9002825
:10FA60003FF439AF3B68827A5B681A706AE700BF7F
:10FA7000AC0000202DE9F04F002311F0010A87B0FF
:10FA8000CDE904331FBF654B1B68D3F8A83204933C
:10FA900011F01003044601930CD006AA0AF10103E9
:10FAA00002EB8A0A5D4A1268D2F8B0224AF8082CA2
:10FAB0005FFA83FA4FF0000B0DF110094FF0FF329F
:10FAC000CDF800B040F23913DA4500F09980DFF844
:10FAD000508157E086680168C9F80010B44251D0DF
:10FAE000B17B012930464DD1019919B1B57AA17A7E
:10FAF0008D4247D9E17A276E356E012904BFE16B4B
:10FB00007F1AF17A08BF07EA0807012902BFF16BE3
:10FB10006D1A05EA0805E91B49023ED5B4F87010D4
:10FB2000B6F876C0B1FBF3F1BCFBF3FC614401F124
:10FB3000020C716E294401EA0801614401EA0801DE
:10FB4000791A490242D4B6F87010B4F87600B1FBC5
:10FB5000F3F1B0FBF3F001440231681A00EA080047
:10FB6000A0EB070C1CF4800F35D1391A490203D4DD
:10FB7000474017EA080F05D10CEA08018A4284BF02
:10FB80000A460096D9F800000028A3D10BF1010B1A
:10FB90005FFA8BFB09F1040996E7D4F864C0B6F864
:10FBA0007010B4F876E0B1FBF3F1BEFBF3FE7144E4
:10FBB0000CEB070E02310EEA080E714401EA08014F
:10FBC000691A4902BFD5C4F86CC001E0636EE366F0
:10FBD00007B0BDE8F08F96F81DE0BEF1000FC4D06D
:10FBE000706CCDE9022117F04DFD0399029A05448E
:10FBF00005EA0805681A00EA080040F23913AFE781
:10FC0000636E934202D9E3660098E1E7A36E9342E4
:10FC10008CBFE266E3660020DAE700BFA0010020A7
:10FC2000FFFF7F0038B5684B1A68052060F31F722C
:10FC30001A601AF08AFD03F57E7140F23B100A88C3
:10FC400060F30F020A8003F20C4240F2E244108893
:10FC500040F001001080088864F30F0008801188CC
:10FC600041F002011180A3F5DC724FF43470116889
:10FC700060F31A41116003F502723430118860F3A9
:10FC80000F011180A3F2A4521420116860F31741F0
:10FC9000116003F50471A4F5DB74088864F30F00A8
:10FCA00008804FF088411546096C484803F50672F4
:10FCB00001F44051B1F5005F11880CBF24240C24DD
:10FCC00064F30701118042490A886FF307020A8032
:10FCD0001A686FF307021A600A4652F81C3F6FF366
:10FCE0000003136013686FF34103136013686FF32D
:10FCF0000413136013686FF34513136013686FF3F5
:10FD0000861313600B4633F8244F6FF300041C80F6
:10FD10001C886FF341041C801C886FF304141C8042
:10FD20001C886FF345141C801C886FF386141C809C
:10FD3000146844F004041460146844F00804146067
:10FD40001A8842F004021A801A8842F008021A80C7
:10FD50002B685C2262F30F232B60B0F85031A12294
:10FD600062F30F23A0F85031B0F850318C2262F3C7
:10FD70000703A0F85031D0F8143102F26F1262F389
:10FD8000184301F2FC42C0F81431136843F00053E9
:10FD90001360A1F541731A686FF39E721A60A1F5A2
:10FDA0005573A1F5F2711A686FF310421A60B0F83A
:10FDB000083C122262F34913A0F8083C0B8843F078
:10FDC00003030B8038BD00BF0C3A01410024014100
:10FDD000043A01412DE9F04F07298DB0074601D0C3
:10FDE00015293FD1053901328CB204A805A9059225
:10FDF00019F0B1FD05A90DF1120019F0ACFD08A82C
:10FE0000224605A919F02AFF384613F07DFD68BB8C
:10FE10002246594908A819F003FB002840F0A380A6
:10FE2000BDF81000002800F0A080BDF81210884234
:10FE300000F29B80E4B207AD06AE0195009608ABD8
:10FE400022460CF03BFD8346002800F09280069B82
:10FE50003888DA7B01210AF0B5FC80B270B1ADF8C8
:10FE600010B003E00023ADF810300420C3B2BDF899
:10FE70001020102138460BF043FB41E0B8881AF0FF
:10FE8000BFFC8246002872D0069B9B68B3F80080B6
:10FE900008F1040900F11003112105A81FFA89F9DE
:10FEA00005931AF05BFB5FFA89F105A81AF056FB7F
:10FEB000594605A81AF058FB079B05A8D9891AF0DE
:10FEC00053FB069B9A685968128805A819F0D0FE62
:10FED00008F106081FFA88F8079BD8894FF6FF73C8
:10FEE000984204D0BB8808EB090B9B450BDD5246BA
:10FEF0004146384619F0B2F810B150461AF0AAFC43
:10FF00000DB0BDE8F08F013080B2CDE9006508ABDF
:10FF10002246BDF81210ADF810000CF0CFFC039093
:10FF20000028E4D006998A68128804324A45DED156
:10FF3000CA7B388801210AF045FC0028D7D1039BF1
:10FF400005A819461AF010FB079B05A8D9891AF0D5
:10FF50000BFB069B9A685968128805A819F088FE61
:10FF60001FFA8BF8B8E7102080E701207EE7112008
:10FF70007CE70A207AE700BFE22801012DE9FF476C
:10FF80000025044689461F46057001F1FF381378A5
:10FF90000BB145450BD3624B1B7803B92370454524
:10FFA00088BF09F10105284604B0BDE8F087252B7C
:10FFB00007D05B49097811B904F8013B01350132DA
:10FFC000E5E75378252B37D0561C3378302B4FF08C
:10FFD00000001AD101464FF00A0C725CA2F1300306
:10FFE000DBB2092B0ED922F0200EAEF1410EA2F1A8
:10FFF0006103BEF1050FDBB206D8052B26D8A2F1AE
:020000040101F8
:100000005703DBB2092B29D90E4433786C2B08BF78
:1000100001363378702B5FD027D8632B39D0642B0F
:1000200051D0582B3AD13E4B3A681B780392043793
:10003000002B68D1019058E039490978961C0029B5
:10004000C3D104F8013B01353246A0E7A2F14103D8
:10005000052B02D8A2F13703D3E7002301310CFBB3
:100060000030735C002BB8D1CEE7752B18D0782BFD
:10007000D9D0732B12D13B680437013B5A1C0DD0E9
:1000800013F8012F52B1454508D204F8012B013570
:10009000F4E73B6804F8013B04370135721C76E74E
:1000A0001F4B3A681B78039204370BBB01900093F7
:1000B0000A23A8EB050120460DF044FE5FFA80FA02
:1000C00054445544EAE7164B3A681B7803920437C8
:1000D00073B901900123EAE7114B3A681B78039248
:1000E00004372BB904230193012300931023E0E785
:1000F000002808BF04205FFA80FA524603A9204670
:1001000019F09CF9DCE740B1C107C0F3470AF4D508
:100110000AF1010A5FFA8AFAEFE74FF0010AECE709
:100120008FFB00202DE9F74F054600891AF08EFB62
:10013000002800F0C2802889EC6816F015FE0546FC
:10014000002800F0BC8083886788033B9F4200F250
:10015000B68094F8F860122E37D190F84630002B14
:1001600040F0A78007F103091FFA89F94846B4F85F
:1001700000A01AF045FB8046002800F09C8000F1AA
:100180001003314601A801931AF0E8F9514601A87D
:100190001AF0EAF9211D3A46019819F04FF9424642
:1001A0004946284618F05AFF0446A0BB85F8466029
:1001B000A5F848A0A5F85E00424905F1540004F0F6
:1001C00083F9204603B0BDE8F08F522E27D107F106
:1001D00003091FFA89F9484634F804AB1AF010FBFA
:1001E0008046002867D000F11003314601A8019332
:1001F0001AF0B4F9514601A81AF0B6F921463A4668
:10020000019819F01BF942464946284618F026FF86
:1002100004460028D5D040461AF01CFBD1E7162E24
:100220001DD190F84630002B43D107F105091FFA84
:1002300089F94846B4F800A0B4F8FAB01AF0E0FA28
:100240008046C0B300F11003314601A801931AF0B3
:1002500085F9514601A81AF087F9594697E7182EF3
:100260002DD194F8FC70012F29D890F8463003BBAB
:100270000220B4F800801AF0C3FA0646D8B100F1A3
:100280001003182101A801931AF068F9394601A852
:100290001AF064F932460221284618F0DFFE0446BF
:1002A00028B9182385F84630A5F8488082E73046FB
:1002B000B2E7072485E7022483E7042481E70324C7
:1002C0007FE700BFA064D1012DE9F7430546352043
:1002D0001AF0D0FA044610201AF0CCFA0646102084
:1002E0001AF0C8FA07460CB106B150B95C4B00933E
:1002F00000220423C321EE2006F036FC03B0BDE843
:10030000F083584A136803605368436093688360BE
:10031000D368C360A96D334620222F31FEF77EFCDF
:1003200095F8038050484FF4807904F1020E2B1D9C
:1003300004F1090C05F10B0104F11002A4F800907E
:10034000B8F1000F4ED1D3F80090C4F80290B3F882
:100350000490AEF804909B798EF806300B68C4F8D0
:1003600009308B88ACF804308B798CF80630A96D95
:1003700001F5C0710B6823614B6853608B68936013
:10038000CB68D360AA6D02F5E07221461368236240
:10039000536863629368A362D368E36201232063B6
:1003A00084F83430AB6D3522A0333046FEF736FC8E
:1003B000A96D2846A03113F021FE84F83480AB6D7E
:1003C0003522063321463046FEF728FC20461AF037
:1003D00053FA30461AF050FA384603B0BDE8F043FD
:1003E0001AF04ABAD1F80080C4F80280B1F804804B
:1003F000AEF8048089798EF806101968C4F80910DF
:100400009988ACF804109B798CF80630A96D01F539
:10041000C0710B6823614B6853608B689360CB6835
:10042000D360AA6D02F5E072214613682362536817
:1004300063629368A362D368E3620123206384F854
:100440003430AB6D3522A0333046FEF7E7FBA96DA3
:100450002846A03113F0D2FD002384F83430AEE7F3
:100460009C9D020158A20201656C7462F7B50D787B
:10047000FF2D04460E4600F08480342303FB050361
:1004800093F88020012A40F0A58093F85E10594A25
:1004900041B193F85C1029B9D2F81C11C1F3C30122
:1004A00083F85D10544B1968342303FB0543C1F3F3
:1004B000411183F86010D2F84411A3F86210D2F809
:1004C0004411C1F30F41A3F86410D2F84811C1F3ED
:1004D0000801A3F86610D2F84811C1F30F41A3F840
:1004E0006810D2F84C11A3F86A10D2F84C21C2F36C
:1004F0000842A3F86C20414B1B68002B5AD10027FF
:100500003F4B1B6863B129462046984740B12A46B5
:100510000221204605F0CEFAB37843F04003B370D1
:100520003A462946204614F00FFD3423002855D0C2
:1005300003FB054393F85D30072B4DD0217B2A4602
:1005400001B10121204605F0B5FA637C012B03D1EE
:100550002946204605F036F9342303FB054393F87A
:100560008030012B07D1274B1A686FF3DB621A60CA
:1005700000200DF021FA342303FB0545002385F804
:100580008030A3680093B6F801301F495BBAADF81C
:100590000430F3788DF8063033788DF80730082270
:1005A0006B46012010F025F83146204613F058FE26
:1005B00003B0F0BD294620469847074600289ED044
:1005C0002A460321204605F075FAB37863F07F03CD
:1005D000B37095E70027A3E72A46B2E77278012AAD
:1005E000B3D103FB054393F88920002AADD083F8EB
:1005F0008900AAE700240141C03401416CFB0020BE
:1006000070FB00200C3A01410401010137B542881A
:1006100040F201139A4204460D4605D008212046B7
:100620000BF0E6FF03B030BD09F0EAFA0028F5D17F
:10063000A06D019501A9E43019F0BAFEA06D01A9E1
:10064000E53019F0B5FEA06D01A9E63019F0B0FE55
:10065000A06D01A9E73019F0ABFEA06D01A9E8304B
:1006600019F0A6FEA06D01A9E93019F0A1FEA36D55
:1006700093F8E72084F85220A27A83F85821234681
:10068000A26D53F8041FC2F859119B88A2F85D317E
:10069000A36D93F8E620D50704D5414A1268527835
:1006A000D00701D401225A71A26D92F8E730073BBE
:1006B000092B01D90621B2E792F8E630384D13F044
:1006C000080F2B6803D19B7923B10321A7E75B783F
:1006D000C3F3C00384F8553020460DF0E9F82B68C9
:1006E000DA7932B15B78590703D5A36D5B78012BBA
:1006F000EBD0204613F0B7F9A36D5A7812F1FF3111
:1007000018BF012184F8541094F85510002940D0E6
:10071000012A03D093F8E7200F2ACBD993F8E820D9
:1007200022F0090283F8E820A26D92F8E93023F064
:10073000090382F8E930A26D92F82C3092F8E810A3
:100740000B4023F0040382F82C30A26D92F82D3078
:1007500092F8E9100B4023F0040382F82D300223B5
:100760001049A37004F15C0003F0AEFE08201AF0FB
:1007700081F8014600283FF455AF06230370238813
:100780008380A36D93F8E6308371082019F0D3FFBE
:1007900048E793F8E920D2075CBF01225A71CAE703
:1007A000B0010020A064D10173B50023ADF8023080
:1007B00090F85030604E044623F0020380F8503029
:1007C0000DF1020101A816F0CBFF237A3268012B4C
:1007D0000BBF5368136843F0100343F010030CBFC2
:1007E00053601360E37A012B17D1019AE36BBDF8D4
:1007F00002101A44238F0B449BB240F2E1418B421A
:10080000C2F31602019285BFA3F2E2430132ADF8B2
:100810000230ADF8023088BF0192019DB4F8723009
:10082000BDF802202946204615F00AFD40B3237A80
:100830003268012B0BBF5368136843F0200343F069
:1008400020030CBF53601360237A2BB1012B14D10A
:10085000A36C93B1637F83B120460DF033FBA36A91
:1008600013B1204616F0CDFC204609F091FB002282
:10087000114601200BF074FE14E00022A273F7E78A
:10088000226EB4F87030521BC2F3160203F27123C9
:1008900040F23911B3FBF1F30133934204D92046FE
:1008A0000AF08EF802B070BD237A3168012B0BBFBD
:1008B0004B680B6843F0800343F080030CBF4B6030
:1008C0000B6040F271256A43BDF80230B4F87050F5
:1008D000019905EB9305C5EB52052A4620460DF01C
:1008E000F1FB0028DED12946C4F8844004F17800E9
:1008F00003F0EAFD114B1B68B3F8201301F59C735C
:10090000AB4204D2691A04F1900003F0DDFD2046E9
:100910000DF0D8FA0423204684F84D3016F0ACF9D7
:10092000207A012804D1626D002ABBD11146A1E7CB
:100930000022114610469DE79C010020A0010020E6
:100940002DE9F04390F80E80BBB00446B8F1000FDB
:1009500040F0A280037AD0F84090012B40F08E80C6
:10096000484540F09980237A002B40F0A180226C0A
:10097000A24209BF40F2012242F20523ADF818203D
:1009800098461CBFADF818304FF00108A06C16F067
:1009900079FEB4F8683087B2DD19ADB2B5F5487F9D
:1009A00088BFC3F54877D9F86030079384BFBFB2DA
:1009B0004FF4487518F0BCF9444B45491B681E8933
:1009C0005B891E4440F23913B6FBF3F6E37A013635
:1009D0000644012B06EA010604D1236EE26B9B1A42
:1009E0000B400793B4F8700000F2712016F04AFE35
:1009F000D9F8683000EB0309606C16F043FE4845F7
:100A000003D2B8F1000F18BF4846079B304A034491
:100A10001340A3EB060818F48008F8D1013D1D44EB
:100A20000793154000238DF81630079BCDE9083554
:100A30000DF1170301930DF120090DF1160306A81E
:100A40000093CDF808903B4607AA214610F808000D
:100A500001268DF8176003F035F9079B00939DF888
:100A600017209DF816104B46204602F0DDF938B3EA
:100A7000236EEB1A5B0223D4A6730DE018F058F92D
:100A8000236CA3420FD099F80E302BB1D9F8603007
:100A9000C01A42023FF567AFA07B003018BF0120AB
:100AA0003BB0BDE8F0832369C3F3160323665AE71E
:100AB00040F61113ADF8183068E74FF00108B1E7C0
:100AC000B8F1010FF9D10023A373E5E79C010020E1
:100AD000FFFF7F002DE9F04186B003790393C378CF
:100AE00002930388019305465A4B00930222012387
:100AF0005121EC2006F038F8288817F0A3FD0746AE
:100B0000002800F0A48017F00DFB002800F0918071
:100B1000012138463C6817F0A5F800210646384602
:100B200017F0A0F8AA78032A804612D0EB78B342D7
:100B30001DD1297981421AD1042E0AD1EB88012BCB
:100B400008BF84F86830EB88022B02D1002384F8B8
:100B50006830304619F0F7F90446404619F0F3F9C9
:100B6000002302462146384614F0A4F84EE012F065
:100B7000010F18BF072384F86332AB789B0754BF7B
:100B80002B79072384F86432EB88A4F86C325A1E60
:100B9000012A09D8012B08BF84F86830EB88022BA2
:100BA00004BF002384F8683094F8C63143F0020390
:100BB00084F8C63194F98032002B23DA2B79042B88
:100BC00004D1EA88D2B994F86820CAB9002684F81A
:100BD0008B3284F88C62E87819F0A4F80146384624
:100BE00018F014FE012384F88D0284F8813238460F
:100BF00018F0E8FD304606B0BDE8F081022AE5D0E5
:100C00000823E3E7384619F095F908B10026F1E723
:100C100094F8C63160F3410384F8C63107260E4BC1
:100C20000093019601230022FF21EC2005F09CFF98
:100C3000E0E72868696804AB03C3082204AB042119
:100C4000384615F054F806460028E8D1DEE70226BB
:100C5000E5E700BF147C0201067C020137B55D4D5B
:100C60002B68D3F898420CB9D3F89C42C3F8A04241
:100C700019F04AFC20B9584BD3F8AC30590616D5B8
:100C8000237A012B554B1A680CD1536843F4004367
:100C90005360A36A13B1204616F0B3FA204609F058
:100CA00077F955E0136843F400431360F1E7002C33
:100CB0004ED094F84D30022B4AD1ADF802000DF120
:100CC000020101A816F04CFDE37A012B17D1019A1D
:100CD000E36BBDF802101A44238F0B449BB240F221
:100CE000E1418B42C2F31602019285BFA3F2E243B7
:100CF0000132ADF80230ADF8023088BF0192B4F88D
:100D00007430BDF802200199204615F099FA94F844
:100D10004F305A0725D51B0723D5304BA56D1A68D0
:100D2000536843F480335360A36A13B1204616F02E
:100D300068FA204609F02CF995F84D30022B0AD1BB
:100D400018F07DF994F84F3023F0080384F84F3001
:100D5000002003B030BD2246002101200BF000FC32
:100D6000F0E72B68D3F8A422002A2BD100282BD13E
:100D7000C3F8A442204618F0C7FA194B226A1A6039
:100D8000032384F84D30204617F026FC237A012BEC
:100D9000124B1A6815BF1368536843F4007343F489
:100DA000007314BF136053602B68D3F82C332BB13E
:100DB000A07A032894BF002001209847204616F00F
:100DC000B5FFC5E70028C3D0044B1A68136843F485
:100DD00080736AE7A0010020002401419C010020EB
:100DE000AC0100202DE9FF47054630B1022800F094
:100DF0009A80002004B0BDE8F087544B1B780BB1FB
:100E000016F058FF524C2168D1E93423CDE9002374
:100E1000002300228B70C1E93423236803F10B0205
:100E200003F1330012F8011B0D448242ADB2F9D137
:100E3000ED0893F803C0DFF81881DFF82491C5F1BD
:100E40002505EDB2AC4538BFAC460020D8F80030DF
:100E50009B79834248D901224FF0000E0C2AD3B26D
:100E60003CD00B2B94BF02F1FF3AA2F1020A4FF0E3
:100E7000010194BFA2F12103A2F12203CAF12005CE
:100E800021FA05F501FA03F32B43D9F8005001FAD2
:100E90000AF1D5E902A501EA0A0603EA050756EABE
:100EA00007051BD0D4F800A00AEB0205ED7A8542B5
:100EB00014D1DAF8D4500395DAF8D0502943039DC1
:100EC0002B43CAE934139AF8023001338AF802300E
:100ED00023689B78634528BF4FF0010E0132272A13
:100EE000BCD1BEF1000F1BD024682822002104F1E0
:100EF0000B0018F0C1FFD4E93423DDE900018B4277
:100F000008BF82423FF475AF124B1B6813B104F166
:100F1000D00098470E4B1868D03010F0C5FA68E73B
:100F20000130C0B292E70A4B1B680021B3F8C82019
:100F300008460AF0FBF918B9044B01221A7058E769
:100F4000054B0648196803F0BFFA52E794010020E8
:100F5000E4010020700100209001002078010020B1
:100F6000F80000202DE9FF470C4615F0FDFE054670
:100F700020B90324204604B0BDE8F087208801385A
:100F800080B24FF6FD739842F3D8AB886288033B7A
:100F90009A42EED802AA01A915F02EFC0028E8D04A
:100FA000019E4E493068022218F03AFA0028E0D13A
:100FB00094F8F82073681B2A1B784CD113F0100F9B
:100FC000D7D02088013002AA01A980B215F014FC04
:100FD0000028CED022880199013292B2284616F01C
:100FE00007FA0028C5D1019B0DF10200596819F0DC
:100FF000AFFA94F8F8601B2E32D1BDF80230DA0750
:10100000B7D5B4F8029034F804AB09F103081FFA1D
:1010100088F8404619F0F4FB074600285BD000F141
:101020001003314603A8039319F098FA514603A818
:1010300019F09AFA21464A46039818F0FFF93A4601
:101040004146284618F00AF80446002892D038464F
:1010500019F000FC8EE71D2AB3D113F0200FAFE783
:101060001D2E86D1BDF802309B0782D523882B82A6
:10107000AB7C73BBB4F80290B4F800A009F103088C
:101080001FFA88F8404619F0BBFB074618B300F179
:101090001003314603A8039319F060FA514603A8E0
:1010A00019F062FA211D4A46039818F0C7F93A462A
:1010B0004146284617F0D2FF04460028C7D1012335
:1010C000AE74A5F87630064905F16C0003F0FCF922
:1010D00050E707244EE702244CE700BF3A1F010106
:1010E000A064D1012DE9F04385B0044619F004F85D
:1010F000002840F0A980564B257B1B6823B193F84C
:10110000C030012B00F0A0805DB9294602A817F07D
:101110008FFD9DF8083053B11224204605B0BDE87C
:10112000F083012D16D118F0D7FF0028F4D0494BD9
:101130001B689847002840F08980237983BB607939
:10114000454BA11D1B6800F00100984700283FD0C7
:101150000B24E2E7AB1E012BE9D89DF80830627939
:1011600062F300038DF808302346002653F8062F5B
:101170008DF806609B88CDF809200DF1060102A8C4
:10118000ADF80D3011F0DEFB0028D0D0022DCAD111
:1011900031460DF1070017F04BFD9DF80730BAE717
:1011A0002E4B1B68A3B12C4D044602AA0DF107017A
:1011B000204613F06FFE20B10134E4B2082CF4D1C4
:1011C000C6E72B689DF8070002A998470028F3D1CD
:1011D0004FF49A7102200DF079FF8146842006F0C9
:1011E000D5FF0646252006F0D1FF054618F026FB60
:1011F000804609F073FE0746B9F1000F22D0B8F11E
:10120000000F1DD0E0B1DEB1002D14BF0024072473
:10121000484612F013FAB8F1000F02D0404619F018
:1012200047FB17B138460AF03DFB16B1304614F0C3
:1012300003FF002D3FF471AF284614F0FDFE6CE76C
:101240000724E5E70724E6E70C2466E7072464E7BC
:1012500094FA00204C0100205401002044FB00209F
:101260002DE9F0410678012E86B0044667D026B1FC
:10127000032E7BD006B0BDE8F0818578002DF9D132
:10128000524E376807F12C0353F82580B8F1000F50
:1012900020D174200A3519F0EDFAAA0017447860BD
:1012A00033681344586818B17422414618F0E4FDBD
:1012B000336803EB85056D6885B923780293A388AD
:1012C0000193434B009300220423C921EE2005F033
:1012D0004BFCCFE70135082DD6D1EEE70127AF70E3
:1012E000A6882E80A379EB70234653F8082F6A60F6
:1012F0009B882B81E379003318BF0123AB72E3791C
:10130000BB420FD8143400230622214604A80493BC
:10131000ADF8143018F084F820B123686B60A3880E
:101320002B81AF72102385F852306B6E03F0F803F7
:1013300043F4A06343F00103C5E919369AE74588F1
:10134000284616F0E1F9044638B9CDE90156214B9B
:10135000009302460423CA21B8E75C3005F04CF93B
:10136000204606B0BDE8F04112F06ABE4788384614
:1013700016F0CAF9054610B9CDE90176E7E72379F9
:10138000002B7FF477AF5C3005F036F9AB6DCBB155
:10139000EA78012A12D195F855205AB95A794AB1FA
:1013A00093F82E20D20705D50022A03311462846F7
:1013B0000AF058F82846FDF7DDFF03E093F8EA301D
:1013C000002BF7D0012385F8573053E7B0010020F8
:1013D000070B0201380B0201F8B5104B104A9A6056
:1013E00044780323B4FBF3F303EB4302A41A14F091
:1013F000FF0411D1DEB205462746B74201D120468F
:10140000F8BD2979EB78A87803EB0121013710F0BA
:10141000EDFCFFB20335F0E70124F0E7003E0144A4
:101420008848090030B54278034612F0030010D115
:10143000920802330146914200D130BD5D8833F8F5
:10144000044B04F1824404F5B03401312580C9B263
:10145000F1E70120F1E72DE9F04142780323B2FBE7
:10146000F3F303EB4301521A12F0FF0621D1DFF828
:101470004880DFB204463546BD4202D13046BDE861
:10148000F0812379E178A07801EB032189B201F0A2
:1014900013FEA178082906D1E37888F800300135D9
:1014A000EDB20334E8E7512904BFE37888F801304E
:1014B000F5E70126E2E700BFC5FD002050F8022F46
:1014C000024B1A6002791A71704700BF9000002029
:1014D00008B51822002118F0CFFC01461020F8F7BB
:1014E000ABFBB0FA80F0400908BD034B1A785B787B
:1014F00002700B7001207047C5FD0020114B1A6867
:10150000114BD96821F0F851D960D968C2F3035260
:1015100012061143D960196921F0F851196119694E
:1015200011431961596921F0F85159615969114301
:101530005961996921F0F851996199690A439A6151
:10154000704700BF00030044003E01442DE9F0470E
:1015500005210746002017F0D9F90446002800F0BD
:101560008B803E681823037396F8663296F86352B0
:1015700096F864921D4096F8653209EA03094FF027
:101580000003A0F80D300121384616F06BFB002156
:101590008246384616F066FB96F86412804696F846
:1015A000630216F0A0F930B996F8651296F8660253
:1015B00016F099F990B315EA090505D0AA4501D1AD
:1015C000A84501D06573A573637B86F86832A57B57
:1015D00086F86952637B1D4350D04FF0FF33E373AD
:1015E000237418F077FB0546002841D01823C371F7
:1015F0000123437106F51A73C3600146384619F09A
:1016000077F82146384618F00DF996F868123846F2
:101610000CF088F8A6F89E0101202DE005EA0A03E7
:10162000DBB2002B18BF002519EA080F44D12DB1F9
:10163000E8070CD4A9070DD5022309E0B9F1000F82
:10164000C2D019F0010F09D00123A373BCE7012315
:101650006373F6E76A07F4D50423F9E719F0020F7C
:1016600001D00223F1E719F0040FADD00423ECE719
:10167000204619F038F82846BDE8F087E573257450
:1016800096F8C6319B0712D50121384616F0EAFAC2
:1016900018F059FC29468046384616F0E3FA18F04F
:1016A00052FC2B4602464146384613F003FB1321F9
:1016B000384615F0A5FFA4E7002D85D08146B7E791
:1016C000F7B5534B00930546012302224521EC2038
:1016D00005F04AFA2846FFF705FD0746002840F0C6
:1016E0008D804FF49A7102200DF0F0FC494B046894
:1016F0001C60E0602B792374012363762A8862835F
:101700006B88A3839A4204BFDA1C62832A7B227609
:101710006A796274AA8A22862A8AA284EA89E28382
:101720006A8A62852A8BA287EA8AE28655F8062FA2
:10173000C4F81220AA88E28240F271225343C4F80E
:10174000C8304FF47A73C4F8CC30638B5A43324BB1
:10175000C4F8DC20C4F8C430842006F017FDC4F8B7
:10176000B400252006F012FD00254FF40073012679
:10177000A4F80E31C4F8B000257284F8E660A4F82D
:101780000B510E2017F034FD042184F8E70084F893
:10179000C06030460BF03AFE2946204610F04FFE5E
:1017A00018F04CF8C4F8EC0009F098FBD4F8EC20E1
:1017B0001A495162D4F8EC2019499162D4F8EC200E
:1017C0001849D162D4F8EC2017491163D4F8EC2001
:1017D000E1681162D4F8EC201560D4F8EC2041687F
:1017E0005160D4F8EC200A60426029460BF0F2F810
:1017F000304618F079FC384603B0F0BD0B4B019031
:10180000009300220123FF21EC2005F0ADF9F2E75F
:101810000F91020194FA002000000103DD6F010125
:10182000C9A802015F7202019DAD01011E91020172
:101830002DE9F0430446C278836DA67A407C0D46BC
:101840008DB05549002A5AD109688DF80000012051
:1018500091F8009091F80580B1F801E0B3F82CC040
:10186000B3F8E470D3F8E6108DF8020002208DF88A
:1018700009008DF801608DF803908DF80480ADF8B3
:1018800005E0ADF807C0ADF80A70039108A803F5AC
:10189000E073995C1DF80260714011540132102A06
:1018A000F7D104AA08A9284607F02CF9E178231DEE
:1018B00004F10B02002951D118689B88ADF804305F
:1018C0001368CDF8063093880090ADF80A30039184
:1018D00004AA68461023117810F8016B013B71408F
:1018E00013F0FF0302F8011BF5D1A26D02F5D872C7
:1018F00004A9284607F006F90DB0BDE8F0830A6890
:101900008DF80100012092F800E092F805C0B2F8CD
:101910000110D3F8E4709A8DB3F8E8808DF80200D6
:1019200002208DF80900ADF80E208DF80060CDF88A
:101930000370ADF807808DF80AE08DF80BC0ADF8A4
:101940000C10002208A803F5C073995C1DF8026012
:10195000714011540132102AF7D1A2E71068928821
:10196000ADF804201A689B88ADF80A300023CDF842
:1019700006200393009004A96B461022087813F800
:10198000016B013A704012F0FF0201F8010BF5D132
:10199000A26D02F5B872ABE7B001002080B483B04D
:1019A00000AF78607B6803F108027B685A607B684F
:1019B0004FF0FF329A607B6803F108027B68DA60BF
:1019C0007B6803F108027B681A617B6800221A6059
:1019D00000BF0C37BD465DF8047B704780B483B010
:1019E00000AF78607B6800221A6100BF0C37BD46EB
:1019F0005DF8047B704780B485B000AF78603960D3
:101A00007B685B68FB603B68FA685A60FB689A68B1
:101A10003B689A60FB689B683A685A60FB683A6862
:101A20009A603B687A681A617B681B685A1C7B68FD
:101A30001A6000BF1437BD465DF8047B704780B460
:101A400085B000AF786039603B681B68BB60BB68DD
:101A5000B3F1FF3F03D17B681B69FB600CE07B683F
:101A60000833FB6002E0FB685B68FB60FB685B6857
:101A70001B68BA689A42F6D2FB685A683B685A609B
:101A80003B685B683A689A603B68FA689A60FB68F2
:101A90003A685A603B687A681A617B681B685A1C0E
:101AA0007B681A6000BF1437BD465DF8047B704741
:101AB00080B485B000AF78607B681B69FB607B6891
:101AC0005B687A6892689A607B689B687A685268FB
:101AD0005A60FB685B687A689A4203D17B689A68AF
:101AE000FB685A607B6800221A61FB681B685A1EFB
:101AF000FB681A60FB681B6818461437BD465DF822
:101B0000047B7047F0B585B00468CB7902932388D5
:101B100001930E46534B00930546012302225D219B
:101B2000EC2005F021F8F379012B29D05EB21EB12B
:101B3000182B2CD005B0F0BD2846112115F060FD02
:101B400094F8C631D80703D53146284611F031FB49
:101B500018F02EFD0128EDD994F89C30002BE9D027
:101B60000021D4F8780118F05FFD0028E2D094F845
:101B70009C30013B84F89C30012384F89D30D9E7E8
:101B80001221284605B0BDE8F04015F039BD1321FB
:101B9000284615F035FD0121284616F063F818F0A7
:101BA000D2F900210746284616F05CF818F0CBF968
:101BB000002302463946284613F07CF894F9803217
:101BC000002B2ADA94F86460012E26D1032F38D135
:101BD00094F87A3284F893320026042384F89232FF
