:0200000400807A
:105F8800FFFF000000E00EC438FC745F3B441214AD
:085F98000B0000710200000083
:045FBC0000000010D1
:020000040100F9
:10000000FEFFFFFF01015048434D00000000740057
:1000100000000001000200010002000100C0030016
:1000200000000000000000000000000000000000D0
:1000300000000000000000000000000000000000C0
:1000400000000000000000000000000000000000B0
:1000500000000000000000000000000000000000A0
:100060000000000000000000000000000000000090
:100070000000000000000000000000000000000080
:100080000000000000000000000000000000000070
:100090000000000000000000000000000000000060
:1000A0000000000000000000000000000000000050
:1000B0000000000000000000000000000000000040
:1000C0000000000000000000000000000000000030
:1000D0000000000000000000000000000000000020
:1000E0000000000000000000000000000000000010
:1000F0000000000000000000000000000000000000
:1001000000000000000000000000000000000000EF
:1001100000000000000000000000000000000000DF
:1001200000000000000000000000000000000000CF
:1001300000000000000000000000000000000000BF
:1001400000000000000000000000000000000000AF
:10015000000000000000000000000000000000009F
:10016000000000000000000000000000000000008F
:10017000000000000000000000000000000000007F
:10018000000000000000000000000000000000006F
:10019000000000000000000000000000000000005F
:1001A000000000000000000000000000000000004F
:1001B000000000000000000000000000000000003F
:1001C000000000000000000000000000000000002F
:1001D000000000000000000000000000000000001F
:1001E000000000000000000000000000000000000F
:1001F00000000000000000000000000000000000FF
:10020000F07F0120D9A80301E5BE0301E9BE030187
:10021000F1BE0301F5BE0301F9BE030100000000B9
:1002200000000000000000000000000031F50201A5
:10023000EDBE0301000000008DF50201F5F502019D
:10024000C95C0301474003014740030189160301CC
:100250004740030147400301474003014740030172
:100260004740030147400301474003014740030162
:100270004740030147400301474003014740030152
:1002800047400301A981030147400301474003019F
:100290004740030147400301474003014740030132
:1002A0004740030147400301474003014740030122
:1002B0004740030147400301D125020147400301A4
:1002C00047400301B12502014740030147400301B4
:1002D00047400301474003014740030147400301F2
:1002E00047400301000000004740030100430800AD
:1002F0007424012000000000000000000143010000
:10030000592301200000000000000000024301000A
:100310005C23012000000000000000000A400100F2
:10032000B23E002000000000000000000040040079
:10033000843300200000000000000000094001009C
:10034000C53300200000000000000000084020002D
:10035000B01500200000000001000000074030023E
:10036000881C002000000000010000000640020080
:10037000E8330020000000000000000005403800C5
:10038000D01500200000000002000000044003001F
:10039000E233002000000000000000000340F000F5
:1003A0003821002000000000030000000240C800C7
:1003B00080090020000000000100000001406000F2
:1003C0001835002095C80201000000000344160003
:1003D000AC1F0120000000000000000001441600D6
:1003E000302001200000000000000000054416003D
:1003F000181F012000000000000000000044110050
:10040000041C0120000000000000000044BF0301A4
:100410000900004CF8B500BFF8BC08BC9E46704708
:10042000F5B80301F8B500BFF8BC08BC9E4670479C
:10043000D1B80301D80C030001000000A0F57F40F3
:10044000FB3804281CD8DFE800F0050E161B03005B
:10045000012070470B4B93F82E20012A10D1187AF7
:10046000C0F380007047074B93F82E0001288CBF23
:10047000002001207047034B187AC0F3C00070477A
:100480000020704798330020034B93F85201A0F1ED
:10049000AA03584258417047E83E00200A4AF0B586
:1004A000D2E93A321978C90707D5D0E90067D3E90C
:1004B0000245AF4208BFA64203D010339A42F1D89A
:1004C00000231846F0BD00BFE83E0020074AD2E9ED
:1004D0003A321978C90702D55988814203D01033BE
:1004E0009A42F6D800231846704700BFE83E002025
:1004F000F0B50E4BD3F8E04093F8E57000231D46AD
:100500001EB204EBC60292F803C0BCF1000F08D083
:1005100034F83660864204D196788E4204BFD57096
:1005200055600133DBB29F42EAD2F0BDE83E0020C5
:10053000034B93F84C00A0F14103584258417047D7
:10054000E83E00203D2803D111B1024B0A881A80F1
:10055000704700BF780C0120034B93F83C00A0F1DA
:10056000D603584258417047E83E0020034B93F8A9
:10057000C400A0F11303584258417047E83E0020E0
:10058000034B93F87801A0F1B703584258417047E4
:10059000E83E0020437800F1080210B513F008048B
:1005A0000A611DBF0A6000F110020A610C6013F0BD
:1005B00010021FBF0A694A6008320A6108BF4A6018
:1005C00013F001021FBF0A698A6001320A6108BF85
:1005D0008A6013F004031DBF0B69CB601A78CB60EF
:1005E0001EBF013203EB42030B610B69181A087539
:1005F00010BD084AD2F80C3292F8082203EB82129E
:10060000934201D301207047197809B94033F7E7C5
:1006100000207047E83E0020034B93F80002A0F151
:10062000DA03584258417047E83E0020014BFD2252
:100630001A707047E83E0020034B93F8B900A0F110
:10064000E603584258417047E83E0020034B93F8B8
:100650007C02023818BF0120704700BFE83E00202E
:10066000034B93F87001A0F18E0358425841704734
:10067000E83E0020024BFB2283F86823704700BF4E
:10068000E83E0020034B93F86803A0F1FB035842B7
:1006900058417047E83E00200C4B30B12830D3F869
:1006A000F820904204D300207047D3F8F400F6E716
:1006B000037803F0FB03012B05D1837EDB0702D413
:1006C00083888B42F0D12830EBE700BFE83E002062
:1006D000084AD2F8F430C01A074BC0104343D2F88E
:1006E000FC0000EBC3008079430714BF00F0070053
:1006F00007207047E83E0020CDCCCCCC144B93F8BB
:1007000000319A4294BF9B1ADB1ADBB299421DD288
:10071000104B68B1597C890708D493F8480090427F
:1007200094BF0020012080F0010070470020FAE70C
:100730005A7CD20705D493F84900884294BF002020
:10074000012080F0010000F0010070470120704797
:10075000E83E0020983300200B4A10B5D2E93D3125
:100760001A78062A09D05C78022C06D102F0FB0226
:10077000012A02D19A88824203D028339942EFD8C5
:100780000023184610BD00BFE83E00204BF6DD7385
:100790004343C3F30333094A32F8331030EA01010B
:1007A00003D102EBC3035B680BB9002070479A8842
:1007B000824201D05B6AF7E701207047384300208E
:1007C000024B662283F8B023704700BFE83E00204A
:1007D00073B50D4BD3F8DC1293F8E05200220123DD
:1007E0000839D4B2A54206D8002064F3070063F3A9
:1007F0000F2002B070BD013251F832608642F3D052
:100800005B00DBB2EDE700BFE83E00202DE9F04FD2
:10081000074685B00020994688461646254CFFF7C6
:10082000D7FF94F8E032ADF80C00C0B2834234D95F
:1008300004F1F40191E80A109DF80D20DFF878E04A
:1008400001930D466FEA020A2B78062BA5EB0103F4
:100850000AD095F801B0BBF1020F05D0B5F804B08D
:10086000C34501D0B3451BD1DB100EFB03F30CEBEA
:10087000C30393F807B00BEA0A0B83F807B0019B98
:1008800028359D42E0D3D4F8DC2200B202EBC0034D
:1008900042F830709E8083F8069005B0BDE8F08F76
:1008A000DB100EFB03F30CEBC30393F807B042EA33
:1008B0000B0BE2E7E83E0020CDCCCCCC07B5FFF730
:1008C00087FF074B93F8E022C0B2824282BFD3F881
:1008D000DC32002243F8302003B05DF804FB00BF97
:1008E000E83E0020044B93F8100200F0FD00A0F158
:1008F0004803584258417047E83E0020024B2722E7
:1009000083F81023704700BFE83E0020034B93F8A4
:100910001003A0F12703584258417047E83E0020D9
:10092000034B187CA0F1190358425841704700BF8F
:10093000E83E0020094B30B5D3F8A823B3F8AC4308
:1009400000239C4202D10021084630BD114632F8F6
:10095000145B8542F8D001339BB2F2E7E83E0020F9
:1009600038B505460C46FFF7E5FF50B9124AB2F814
:10097000AE33D2F8A813142000FB03100133A2F801
:10098000AE336278428020F8045B002399B28A4239
:100990000AD8094BB3F8AE23B3F8AC1391429CBF0D
:1009A0000022A3F8AE2338BD04EB4301498820F8A8
:1009B00013100133EAE700BFE83E0020034BD3F8F1
:1009C0008002B0FA80F04009704700BFE83E002086
:1009D000084A10B5D2E9A7321C782CB19C7A8C4217
:1009E00002D19C88844203D018339A42F4D8002361
:1009F000184610BDE83E002010B50446006948B115
:100A0000636923B15A68A24204BF00225A60C368D6
:100A1000103098470023237010BD436810B4C3B151
:100A20001A69B2B15C69844213D151B11420507477
:100A3000002018701046D36800F8101F5DF8044BB2
:100A40001847107928B95878196161F3C3005870B4
:100A5000F0E75DF8044B7047034B93F8A402B0FA3B
:100A600080F04009704700BFE83E0020114930B5D2
:100A7000B1F8AC32D1F8A802C3EBC303C21800230B
:100A80000479E40709D593B145795C79A54238BF6B
:100A9000034607309042F3D31846037943F001032D
:100AA000037191F8AE2201239340437130BD034698
:100AB000EFE700BFE83E00200C4A10B5D2F8A8329C
:100AC000B2F8AC22C2EBC2021A441C7914F0010F36
:100AD00006D0C4F300148C4202D11C88844203D097
:100AE00007339342F1D30023184610BDE83E00209F
:100AF00008B5FFF7E1FF18B103796FF30003037145
:100B000008BDF8B507460E4615461C46FFF7D4FF4C
:100B100058B18379A34207D3094B93F8AE2201233E
:100B20009340437145808471F8BDFFF79FFF0379BF
:100B3000078003F0F10366F304130371F2E700BFCB
:100B4000E83E002010B50A4B93F82014D3F8242473
:100B50000023994202D1FF23184610BD147814B126
:100B600054788442F8D00133DBB21C32F1E700BF85
:100B7000E83E002008B5FFF7E5FF084B93F8202476
:100B8000824281BF00B2D3F82434C0EBC00003EB33
:100B900080008CBF0230002008BD00BFE83E00206E
:100BA00010B50446C06943785B078AB010D5694622
:100BB000FFF7F0FC039B5A7803EB42039A78DB784B
:100BC00042EA03232385012384F832300AB010BDA2
:100BD0008378C27843EA0223F4E7044B93F8800158
:100BE000A0F19A0358425841704700BFE83E0020E8
:100BF000024B002283F8D522704700BFE83E002058
:100C000090F8873043F0020380F88730012380F8A2
:100C10003230704730B50D4C30B12830D4F8F85030
:100C2000A84204D3002030BDD4F8F400F6E70478DD
:100C3000062C09D04478022C06D08488944203D034
:100C40008C4201D09C42EED12830E9E7E83E0020FA
:100C5000034B93F8E802A0F1310358425841704722
:100C6000E83E0020024A536823EA000050607047C3
:100C7000E83E0020024B986EB0FA80F040097047C1
:100C8000E83E0020034B93F82804B0FA80F04009B6
:100C9000704700BFE83E002010B5094C502384F88F
:100CA0005033B4F83A33A4F8583304F55270054B76
:100CB000C4F860332AF010FE1B2384F8383310BDCB
:100CC000E83E0020AD44000108485F2380F8103260
:100CD000074BC0F83032412380F82032002380F8DF
:100CE000283200F506702AF0F7BD00BFE83E00206C
:100CF0004514000173B506466846CDE90023FFF7A9
:100D0000CDFB0446D8B9164DD5F8F040D5F8E830FB
:100D10009C4203D3D5F8EC309C4205D3114B43F2EF
:100D200014121A8039F08CFFD5E93B23103393421B
:100D3000C5F8F03024BFD5F8E830C5F8F030237896
:100D4000668043F001032370DDE90023C4E9022338
:100D500023789DF8182062F34103237002B070BD20
:100D6000E83E00208435002007B531B35028164BEB
:100D700008D0512824D03D2807D11A8909880A446F
:100D80001A8102E09A8801329A809988A9B1D8889C
:100D900064224243B2FBF1F2D2B2192A0DD99A78F9
:100DA0005AB901229A704FF6FF73ADF8043001A8CA
:100DB00014238DF8063011F021FD03B05DF804FB1B
:100DC000DA880132DA80E0E7780C0120134B984290
:100DD00037B5054605D0124B43F205021A8039F0AB
:100DE0002FFF104C002384F830302B789BB90E4D28
:100DF000238C29460D2021F83A3F31F079FC94F8F4
:100E0000313043B96B8FADF8043001A810238DF851
:100E1000063011F0F3FC03B030BD00BFA40C01207C
:100E200084350020780C012098330020037907B521
:100E30006BB1084B93F85320920708D55B8FADF840
:100E4000043001A809238DF8063011F0D7FC03B057
:100E50005DF804FB9833002037B5164A164CD2F8DB
:100E6000F430D2F8FC50C31ADB105C430378052B36
:100E700009D101A92C2031F00FFC019BDB0A45F8B8
:100E8000343003B030BD4378022B05D1026A03F23F
:100E9000E63353430193F0E70DF10301142031F0E1
:100EA000FBFB9DF8033043F6982203FB02220192DC
:100EB000E3E700BFE83E0020CDCCCCCCF0B585B058
:100EC0001A4CADF804000DF10F012520D4F8F450B0
:100ED00031F0E2FBD4F8FCC0D4F8F470D4F8F81088
:100EE0009DF80560124C002002462B78062B0ED090
:100EF000EB1BDB1063430CEBC303DB791E426B7807
:100F000004BF0132D2B2022B1CBF0130C0B228355F
:100F10008D42EAD340B19DF80F30984228BF184661
:100F200090428CBF0020012005B0F0BDE83E0020BB
:100F3000CDCCCCCC0D4A012303FA00F0536810B598
:100F40000B4C0343536023881B070ED42EF004FB85
:100F5000238843F0080323802EF00EFB054B064840
:100F60001B68BDE810401B69184710BDE83E002013
:100F70001E100120683A00206C3A0020034B9A6F43
:100F8000192083F8B90011770C20D3E7E83E002040
:100F9000024BF92283F8B4221020CBE7E83E002070
:100FA000437843F0010361F341034370044B93F82A
:100FB000A42222B9932283F8A4220520BAE770471D
:100FC000E83E0020D0B5124C124AD4F8B83392F85B
:100FD000381083F82A10D2E91067528F1A8583F8E7
:100FE0002B00C3E908675A6903F1200090470023EA
:100FF000C4F8B833D4F8B43333B1672384F8B033CA
:101000001220BDE8D04095E7662384F8B033D0BD08
:10101000E83E0020983300200F4B0079D3F8B82326
:10102000127B062A00D1CDE7042A10D178B96A22B2
:1010300083F8B023094AC3F8D823452283F8C8238C
:10104000074AC3F8D02303F570702AF045BCEA289C
:1010500008BFCA20E7E700BFE83E002039280001AA
:10106000B6330020054B0178D3F87C2182F8281094
:10107000472283F8802106205CE700BFE83E00207D
:10108000436803221A705970172053E737B5164C7E
:1010900094F85221452A054605D0144B4FF4465288
:1010A0001A8039F0CDFD15B1114B9D4205D00F4B83
:1010B00043F281121A8039F0C3FDAA2384F8523119
:1010C0000C4BEA7A5B8FADF8043052B9102301A8BB
:1010D0008DF8063011F092FB0220FFF72BFF03B0D2
:1010E00030BD0923F3E700BFE83E0020843500202F
:1010F000204000209833002070B5184C94F8C4307C
:10110000D4F8C060E82B054605D0154B43F28702A2
:101110001A8039F095FD2EB9114B43F288021A80DE
:1011200039F08EFD06F10C039D4205D00C4B43F2C5
:1011300089021A8039F084FD736A2A791A702A6844
:101140005A60EA791A72E92384F8C43094F8C530F9
:1011500023700D20BDE87040ECE600BFE83E0020A3
:101160008435002070B5144CD4F8746105462EB94E
:10117000124B43F2B4021A8039F062FD06F11803F3
:101180009D4205D00D4B43F2B5021A8039F058FD4F
:1011900094F878315E2B05D0084B43F2B6021A80E2
:1011A00039F04EFD2B7886F84C30582384F878318E
:1011B0000920BDE87040BDE6E83E002084350020EF
:1011C00070B5164C94F83C20A56B712A064605D0E4
:1011D000134B43F2D7021A8039F032FD2DB9104B70
:1011E00043F2D8021A8039F02BFD05F10C039E4220
:1011F00005D00B4B43F2D9021A8039F021FD337927
:1012000013B1FA2B08BF002385F82430722384F829
:101210003C300820BDE870408CE600BFE83E00206E
:1012200084350020037810B50E4C93B96F2304F574
:10123000EC71062084F8D03131F02EFA0A4BC4F854
:10124000E03104F5E4702AF047FB352384F80032DE
:1012500010BDD4F88C210A2082F82B30FFF76AFEEB
:101260002223F3E7E83E0020215200010D4B37B561
:101270000D4CD3F82C2494F85350052183F82814EE
:10128000FE2313741620FFF755FEAB0708D5638FB6
:10129000ADF8043001A809238DF8063011F0AEFA3C
:1012A00003B030BDE83E002098330020F0B5214A5D
:1012B00085B0D36E92F8707000244FF4A072064689
:1012C00002FB07328DF807402546934214D335B30D
:1012D00002A940F2311031F0DFF904AB3344052F9D
:1012E00013F8093C13D89C422CBF00240124B4B14C
:1012F0002E70284605B0F0BD197831B1B14201D148
:101300000134E4B203F5A073DFE71D46FAE713FBEF
:1013100007F3B4EB930FB4BF01240024E7E70123E4
:101320000DF1070146208DF80730002534F0BAFB97
:10133000DFE700BFE83E002008B5FFF7B7FFB8B110
:1013400000F11A0390F80721C0F89C300023C0F880
:10135000C43080F8C030C0E93233A0F8BC3063F349
:101360004102044B80F807215B8FA0F800318030E8
:1013700008BD00BF98330020742908B501D90020AA
:1013800008BDFFF793FF0028F9D000F10C03C0F867
:1013900084308030F4E7F0B5537D122B87B00D46D2
:1013A00014461DD81669177D7178BA1C88B23B4463
:1013B000DBB202EB4002934212D10023AA888DF8DF
:1013C0000430ADF805208DF807109AB282420AD396
:1013D00001A93E2034F066FB2169A888FFF7C0FA16
:1013E000002007B0F0BD590001AA5718314401335D
:1013F0008A78C97842EA0122BA80E6E7F8B5104D4A
:1014000000242E46B5F8AC32A34200D8F8BDD5F87A
:10141000A822C4EBC4073A44127902F02102212A1F
:1014200003D121460A2034F03DFBD6F8A8323B44D4
:1014300001341A796FF345121A71A4B2E2E700BFC2
:10144000E83E002070B50E4C10F80C1CD4F8145275
:1014500006462A2034F026FB94F81032602B08D17F
:1014600033782B735E2384F810320720BDE8704078
:1014700060E50DB15D23F6E7482384F8103270BDB6
:10148000E83E0020164B2DE9D043D3F80C42064627
:101490000F4644B9134B4FF441521A8039F0BEFB4A
:1014A0002046BDE8D08356EA070110D093F8081211
:1014B000234604EB811100248B42F1D2187858B1F5
:1014C0003AB1D3E90289B94508BFB04505D1002436
:1014D000E6E7D3E90689F6E71C464033ECE700BFB0
:1014E000E83E00208435002008B50146034838F066
:1014F000A1FE0320BDE808401CE500BF283F0020F6
:1015000010B504460120FFF717FF58B1064A2244E0
:1015100092F85811013982F8581180F88640FFF787
:10152000E3FF012010BD00BFE83E0020132810B5E6
:10153000044605D90C4B43F2D2121A8039F080FBD5
:101540000A4A224492F858310133DBB282F858310A
:101550002BB9054B43F2D3121A8039F071FB2046A8
:10156000BDE81040CCE700BF84350020E83E0020F5
:1015700003790A4A1BB103F0EF03EA2B09D1D2F831
:10158000283301688B4304D0522382F8103308209B
:10159000CCE7272382F81033704700BFE83E0020D5
:1015A00010B50446B830FFF789F90023124A2370BA
:1015B000995CD8B2D1B1FFF7A3FFD8B90F4C94F81A
:1015C000A4321A2B02D10520FFF7B4FC94F8703135
:1015D000902B05D1912384F870310F20FFF7AAFCDE
:1015E000636F3BB11520BDE81040A3E40133142B19
:1015F000DED1E3E710BD00BF40400020E83E002000
:1016000038B50D4D01460446284638F013FE2B7FB1
:10161000782B10D120232B77A37D0C2B09D0208988
:101620004FF6F77398428CBF01200220BDE8384086
:101630007CE71020FAE738BDA041002037B5054609
:10164000214C38B194F85231442B03D104F59A73EC
:10165000984205D01D4B43F282121A8039F0F0FAFD
:101660002D78AA2384F852314DBB194AB4F8283199
:101670005387ADF8043001A810238DF8063011F01F
:10168000BDF894F85431D3B10D2384F82E314FF6C0
:10169000FD73A4F820310233A4F82431B4F850319A
:1016A000A4F822310B4BC4F81C310B4884F82851A4
:1016B000462384F85231FFF7A3FF03B030BD022068
:1016C000FFF738FCF9E700BFE83E00208435002032
:1016D00098330020B95100010040002030B40C4C78
:1016E00094F8D55295B984F8D2320123A4F8C402F3
:1016F000A4F8C612A4F8CA22A4F8C82284F8CC52CE
:1017000084F8D53204F52F7030BC79E730BC7047CF
:10171000E83E002010B441B1C469B0F8802061886F
:10172000A0885DF8044B0B23D8E75DF8044B7047A5
:1017300010B5D0F89430104CC0F8A030002380F8D9
:10174000A910C0F8A4300146204638F073FD237973
:10175000412B06D1032323710E20BDE81040FFF773
:10176000E9BB032B07D0054B43F2B312BDE8104091
:101770001A8039F053BA10BD303F00208435002064
:1017800038B5446890F8833084F8A8300D46383076
:10179000FFF794F829462046BDE83840C8E708B569
:1017A00000F10801084838F045FD084B93F8B023D4
:1017B000662A07D1672283F8B0231220BDE80840CB
:1017C000FFF7B8BB08BD00BF9C420020E83E0020E8
:1017D0000A49D1F80C32834205D891F8081203EB7C
:1017E0008113984205D3064B43F241021A8039F027
:1017F00015BA402200213AF0CDBB00BFE83E0020E0
:1018000084350020034B0022C3E900224FF480708E
:10181000FFF728BAEC3E0020094BD3F8480493F8B0
:10182000442400239A4200D170470178032903D150
:10183000182200213AF0AEBB01331830DBB2F1E7D9
:10184000E83E00202DE9F74301230646884637206D
:101850000DF107018DF8073030F01EFF3F4B93F874
:101860002E20022A4FF000079C4606D19DF8073033
:101870001BB9032003B0BDE8F083394C002394F872
:10188000E510D4F8E0E01D4618B20EEBC00292F865
:101890000390B9F1000F37D03EF83000B04236D196
:1018A0009278424533D10020E4E72BF0EBFED4F8E8
:1018B000D030D4F8E0C094F8E57083428ABFDB43AF
:1018C000C01AC01800234FF0FF321E460CEBC301B4
:1018D000CC7854B14C6844B1A94206D084420ED9A8
:1018E000241AA2424C6028BF22460133DBB29F4239
:1018F000ECD269681B4B8A4228BF0A4625E04E603D
:10190000CE70F2E70220B5E70DB91F4615465A1C06
:10191000D3B29942B8D2002DF4D085F80280DCF819
:101920000C202E800A320123B9426A60EB7007D185
:1019300094F8E430013B99423CBF013184F8E51052
:1019400094F8C830002BB0D1064B0748012139F07C
:1019500011FE054839F022FE01208BE79833002064
:10196000E83E00206D190001B03F0020F8B5174B8C
:10197000D3F8E060D3F8D47093F8E5504FF0FF321D
:10198000002106EBC104E07830B16068C01B6060E4
:1019900090B1824228BF02460131C9B28D42F0D2D5
:1019A000511C0BD00A4B0B48012139F0E3FD0948CB
:1019B000BDE8F84039F0F2BDE070EDE7002283F8B1
:1019C000E5200448BDE8F84039F0F0BDE83E0020CD
:1019D0006D190001B03F002037B540F20B100DF13A
:1019E000060130F059FEBDF806303BB90E4B43F20C
:1019F00015121A8039F012F903B030BD0B4C40F2C9
:101A00000A202146254630F02DFEBDF8062055F867
:101A1000E80912018318002163603AF0BBFAD5F897
:101A2000E830A360E8E700BF84350020D03F002005
:101A300010B50F4B93F83720827793F838208161E7
:101A400001239340436140F601030446838300F180
:101A50001F014FF4827030F01FFE04F1100140F2BC
:101A6000022030F0FFFD2046BDE8104029F031BFD4
:101A7000983300202DE9F743354D95F86833FB2B5B
:101A800049D13449C8884B8F984244D1507D0928A8
:101A900041D91669D1E91023D6F80690D6F802800C
:101AA0004B4508BF424536D1737813F0E00732D179
:101AB00003F01F030533B0EB430F2CD18C8F4FF491
:101AC00082700DF1070130F0E7FD9DF8073001331A
:101AD000DBB20134A4B28DF8073038464FF6FF7CF4
:101AE0009AB27378C1B203F01F038B420AD9A5F8EA
:101AF0006CC300217778CBB207F01F079F420ED846
:101B00008F421CDC14491548A5F86A43FFF790FF83
:101B1000832385F86833012003B0BDE8F0830B1DF3
:101B200006EB43035B881B1B9BB29342E8D9B5F8D5
:101B30006C739F4288BFA5F86C330131DAE7031D4F
:101B400006EB430301305C880134A4B2C9E700BF4F
:101B5000E83E002098330020014500015842002053
:101B600038B5012380F824300B68C36190F84D30FC
:101B700080F825300D4B93F8373080F82630044636
:101B800000F1080500F127014FF4827030F084FD68
:101B900004F1180140F2022030F064FD044B23628E
:101BA0002846BDE8384029F094BE00BF9833002095
:101BB0003D3D0001F7B52F4C94F87831D4F87451BD
:101BC000572B064605D02C4B43F2A8021A8039F059
:101BD00037F82DB9284B43F2A9021A8039F030F8B2
:101BE00005F110039E4205D0234B43F2AA021A804E
:101BF00039F026F833796BBB3168EA6922EA0102D1
:101C0000019232B91C4B43F2BA021A8039F006F83D
:101C10001EE0B768F679202001229E4211D9019971
:101C200011420AD017F803C0BCF1CC0F88BF914312
:101C300003F1010388BF0191DBB201384FEA420290
:101C4000EBD101A92846FFF78BFF562384F87831A2
:101C500003B0F0BDFA2B03D1074B43F2BB02D4E72C
:101C600085F84C300920582384F87831FFF762F961
:101C7000EEE700BFE83E0020843500200348002343
:101C800080F87C3200F5147030F0D0BBE83E0020C4
:101C900073B5164C0DF107014FF4867030F0FCFC63
:101CA000214640F20B2030F0DDFC9DF80720206833
:101CB00002EB4202D20083180021636000263AF052
:101CC00069F920202672FEF7CDFFA4F11400667298
:101CD00030F0ACFB064B44F8043C4FF4807304F83E
:101CE000086C44F80C3C02B070BD00BF8441002079
:101CF000F51C000170B5104C0023D4F89C5284F8F8
:101D0000A53201262B7833B1013BDBB22B707BB9B6
:101D10002846FEF771FED4F8A0321835AB42F1D850
:101D200094F8A5323BB90548BDE8704030F07EBB61
:101D300084F8A562EFE770BDE83E00207041002006
:101D400013B500230DF107014FF498708DF807309B
:101D500030F0A2FC9DF807308BB10A4C94F8902328
:101D60008B2A05D1084B43F203221A8038F068FF12
:101D700094F890338A2B02D1044830F057FB02B01C
:101D800010BD00BFE83E0020843500207C420020CA
:101D9000F8B5174C94F82834042B0F4623D1D4F807
:101DA0002C6415692EB9134B43F205521A8038F092
:101DB00047FFBB79012B18D10F4830F037FB94F85F
:101DC0002834042B07D16B782BB9AB780B4A03F07E
:101DD000070382F853306B78052284F828241620F4
:101DE0003374FFF7A7F80020F8BD0120FCE700BF1F
:101DF000E83E00208435002018430020983300205E
:101E00000348012380F87C3200F5147030F0E4BA06
:101E1000E83E0020054B1A78D20705D5022283F848
:101E20007C220020FFF782BBEAE700BFE83E0020EB
:101E30001E2810B50C4613D10B88B3F5005F0FD1E7
:101E4000FFF71CFF63681A68064BC3F8582201228B
:101E500083F85C22044AC3F86022BDE81040CFE753
:101E600010BD00BFE83E0020151E0001084831B932
:101E7000042380F8283400F5866030F0ADBAD0F83D
:101E80002C34052280F8282419741620FFF752B844
:101E9000E83E00200B4881B9552380F81033012318
:101EA00080F8203342F21073C0F81C33064BC0F8A0
:101EB000243300F5457030F08FBA272380F81033B3
:101EC000704700BFE83E0020FD08000107B54FF451
:101ED0008A7001A930F0E0FB134B93F87A2219467F
:101EE000D2B193F87B22013AD2B283F87B229AB125
:101EF000019858B10122C3F86C0283F87C2203F5E3
:101F0000197030F069FA03B05DF804FB022283F81F
:101F10007C22FFF70BFBF6E743F69823C1F8583213
:101F2000FFF76EFFEFE700BFE83E0020194B70B5EA
:101F3000D3E9A7410646002522784AB993F8A5229D
:101F4000B2B9012283F8A522134830F045FA0FE018
:101F50006078000704D4D5B12878904288BF254620
:101F60001834A142E8D885B12846FEF745FD2C4635
:101F70001822002120463AF00DF84FF0000366F3D6
:101F8000C3036370272323702546284670BD25466A
:101F9000E6E700BFE83E00207041002038B50D4C58
:101FA000D4F8F4502846FEF757FFD4F8F830283517
:101FB0009D42F7D3084BC4F814314FF40063C4F8C2
:101FC0000C31002384F810310448BDE8384030F06B
:101FD00003BA00BFE83E002009900001EC3F00205A
:101FE00008B50F491D2030F057FB0E4BD3F89C234A
:101FF000AAB142F25D718A429CBF42F25E72C3F89E
:102000009C23012283F8A023074AC3F8A4238A2231
:1020100083F890230548BDE8084030F0DDB908BDDD
:1020200084420020E83E0020057A00017C42002026
:1020300007B500230DF107014FF498708DF80730B4
:1020400030F02AFB9DF8073053B1084B93F89033DA
:10205000892B08D0064B4FF448521A8038F0DEFD29
:1020600003B05DF804FBFFF7BBFFF9E7E83E002093
:102070008435002008B5074B93F890338B2B05D09F
:10208000054B43F202221A8038F0DAFDBDE8084021
:10209000A6E700BFE83E0020843500202DE9F04788
:1020A0000D4691F82010017290461E4642686B6AF8
:1020B0009342044608D20B449A4205D21A4B43F28B
:1020C000A7121A8038F0BCFD227A696A606839F07C
:1020D000DFFE04F110016068B5F808A095F82890BB
:1020E000277A95F92A50FEF755FA94F824309DF88E
:1020F000202084F82890FF1A237884F8257084F82B
:10210000295062F3000398F80120A4F826A0520891
:1021100062F341039DF8242066F3C70362F3820350
:102120002370BDE8F08700BF8435002010B5074C50
:10213000002384F8883004F18000054BC4F88C300B
:1021400029F084FB142384F8B93010BDE83E002048
:10215000758A0001036893F91230002B05DA132306
:10216000002180F841300846E0E7122380F8413032
:102170000620FFF7DBB910B51D4C94F82834D4F8CD
:102180002C04012B224620D12378DB0618D50379B5
:102190000E2B03D8437913F0FE0F09D0052382F8E4
:1021A0002834C12303741620BDE81040FEF7C2BED8
:1021B000022384F828341220BDE81040FFF7B6B996
:1021C000052384F82834C223ECE7052B0FD183685C
:1021D0000C30984704F22C4038F050F8D4F82C34E6
:1021E0001BB1012384F82834DDE784F8283410BDBE
:1021F000E83E002010B50720FFF758F80446C0B1AC
:102200000C4838F03BF804F13503C4F81031037979
:1022100084F831310346803443F80C4F8268184605
:102220009047054B5B6F23B11520BDE81040FEF7CA
:1022300081BE10BD5C3F0020E83E002070B5144D0B
:10224000064605F57D70D5F8F44338F017F81149C6
:1022500091F8383084F82230D1E91023C4E90623FC
:102260004B8F238484F82360E36804F118009847B7
:10227000D5F8F4333BB1172385F8F0331320BDE8CC
:102280007040FEF757BE162385F8F03370BD00BFCF
:10229000E83E002098330020007810B9014BBD22A1
:1022A0001A70CBE7E83E002070B5244C04F56D7041
:1022B000D4F8B45337F0E2FF2378287913F0100FE5
:1022C000A5F1080623461AD0042818D11C4B2A7CF5
:1022D0001A72682384F8B0331A4BC4F8D833062036
:1022E0006F2304F57471C4F8B86384F8C83330F010
:1022F000D3F904F57070BDE8704029F0EDBA0628F6
:1023000012D10F4A297C1172682283F8B0230D4A3A
:10231000C3F8D8236F22C3F8B86383F8C8230A49E7
:1023200030F0BAF90948E6E7C22385F8233005F111
:102330001800EB68BDE87040184700BFE83E002079
:102340009833002039280001B8420020A84200201C
:1023500038B51D4D284637F091FF2B79032B0446E5
:1023600005D01A4B43F2B4121A8038F069FC2CB92C
:10237000164B43F2B5121A8038F062FCD4F898304C
:102380003BB9124B43F2B6121A80BDE8384038F020
:1023900045BC04F19C00984794F8A9301BB90C493E
:1023A0003C2033F07FFB0B493D2033F049FB0A4BC7
:1023B0009A6C22B10E20BDE83840FEF7BBBD412229
:1023C00083F84C2038BD00BF303F0020843500200A
:1023D000780C012034210120E83E002070B5314CFA
:1023E00094F8C430E72B48D1D4F8C0502DB92E4B07
:1023F00043F281021A8038F023FC237813F0010F96
:102400006B6A1FD01A6AAA61002685F8206093F8CB
:10241000242085F82120254A92F8372085F82220AB
:102420001022093385F82320214A6B61EA61281DB7
:1024300029F04FFA237884F8C5302670E82384F811
:10244000C43070BDC3221A70E92384F8C43019481F
:1024500037F014FF054628B9134B43F282021A8065
:1024600038F0EEFB686A836A6BB90F4B43F2830264
:10247000BDE870401A8038F0D1BBE92BE7D00A4B99
:1024800043F28602F4E79847D4F8C0303BB1E72323
:1024900084F8C4300D20BDE87040FEF74BBD132317
:1024A000CDE700BFE83E00208435002098330020AF
:1024B000F9100001A83F002073B5314890F81032A0
:1024C0005D2B044633D10278D0F81432D20714D5EC
:1024D000602280F810221B792A4AC0F8302200338B
:1024E00018BF0123412280F8202280F8283200F50D
:1024F000067029F0F1F902B070BDC2221A735E2392
:1025000080F81032204D284637F0B8FED4F8143247
:1025100006467BB1C22303735D2384F81032072083
:10252000FEF708FDB36806F10C009847E3E75E2B61
:10253000E1D1E7E703795A1ED2B2FD2A0BD84FF456
:102540007A72534305F12400EB622FF045FF4A23D2
:1025500084F81032E6E7FF2B0FD10DF107014FF49D
:10256000957030F099F89DF80730012B01D1074B99
:10257000E8E7022B01D1064BE4E74823E8E700BF78
:10258000E83E002045140001FC40002000C8AF00D8
:1025900030E003002DE9F041424CA4F520772046BD
:1025A00037F06CFE3B78DB07054674D53E4EC1889C
:1025B000708FD4E907321C782CB11C898C4202D16F
:1025C0009C88844207D018339342F4D30120FFF74C
:1025D000ADFC044630B904236B74EB6805F11000C0
:1025E00098474CE02A79637862F346136A7A62F37B
:1025F00004136370FF23E370738FA380EB88238140
:1026000097F884325A1E0D2A41D996F82D3001339D
:1026100013F0FF034FF0010214BF86F82D3086F847
:102620002D2087F8842296F82D10262033F03AFAD0
:1026300096F82D305A1E97F8843243EA0213A3729B
:102640002B7AE372B37A25610133DBB24FF00008D5
:1026500063730121204684F80C80B372FEF7A0FC5E
:10266000124B598E4FF6FF72914208BFA3F8328089
:102670005A8E0F49013245205A8633F013FAD7F8A3
:1026800080326BB10420BDE8F041FEF753BC01334A
:1026900087F88432CCE7C22300F8103FEB689FE74D
:1026A000BDE8F0816841002098330020780C0120BB
:1026B000AA0C012038B5104D2B7CC22B2C4618D10A
:1026C00005F1140037F0DAFD4368083098476B696C
:1026D00063B1C1232B74012384F82030074B63625C
:1026E000074829F0B3F8C323237401E019232B749E
:1026F00038BDC12BFCD1EEE7E83E00201D9B000158
:10270000003F00200178134BE12910B41846D3F89C
:10271000EC4216D193F8E922032A12D80E4901326D
:10272000888F0988A3F8001383F8E922A421A3F86D
:10273000FA0283F8E81203F53C705DF8044B29F0C7
:10274000D1B8A523217380F8E8325DF8044B01204D
:10275000FEF7F0BBE83E002098330020027810B569
:102760001AB11046BDE8104068E543782E4C502B56
:102770003DD011D8462B1DD04B2B32D0452B3CD110
:10278000462384F800340F2384F8083404F57E705F
:10279000BDE8104029F0A0B8532B13D06F2B1AD0EE
:1027A000522B2AD1532384F80034204B5B8FA4F89A
:1027B0000834EBE7522384F800341C4B1B7AC3F334
:1027C000C003E1E76F2304F58161062084F800343B
:1027D0002FF062FFDAE74B2384F80034134B1B8899
:1027E000E5E7502384F80034104B9B8FDFE70F4B55
:1027F00084F8002493F83830C6E794F800348BB995
:102800000A4B0B481B7A13F0080F14BF6FF07F437D
:102810000023C4F80034074BC4F80434BDE810406A
:1028200029F054B810BD00BFE83E002098330020C6
:10283000E042002099220001027812B11046FEF712
:10284000C1BB4378462B30D002D8452B22D07047ED
:10285000522B33D06F2B43D12248692180F8B0131B
:10286000032180F8DC13D0F8B8130B6BC0F8D43315
:1028700091F8341080F8DD131B4980F8DF2391F8BC
:1028800037101A4A80F8DE13C0F8D82300F57070AC
:1028900029F01FB81348462380F8C8330F2380F867
:1028A000D03300F5707029F017B80E48522380F825
:1028B000C8330D4B1B7AC3F3C003F0E70A4B09483A
:1028C0001B7A13F0080F14BF6FF07F430023C0F88A
:1028D000C833074BC0F8CC3300F5707028F0F6BF52
:1028E000704700BFE83E0020983300201910000117
:1028F0007529000170B51C4CD4F8745106462DB9E9
:102900001A4B43F2B1021A8038F09AF905F11C0310
:102910009E4205D0154B43F2B2021A8038F090F96E
:1029200094F878315D2B05D0104B43F2B3021A8036
:1029300038F086F9337863B96FF07F432B610C4B25
:102940006B6105F1080028F0C1FF5E2384F878313F
:1029500070BD85F84C30582384F878310920BDE8E3
:102960007040FEF7E7BA00BFE83E00208435002043
:1029700065110001007868B907486B2380F8B0330F
:10298000064BC0F8CC33532380F8C83300F5707081
:1029900028F059BFFEF716BBE83E00202938000199
:1029A000426810B4537813F0010108BF022180F887
:1029B0005410D478917841EA0421A0F85610117986
:1029C000527941EA0222A0F85820C28CA0F85A207D
:1029D00090F8252080F85C20C3F34003026A026669
:1029E00080F86C30028D064BA0F86420036700234A
:1029F00080F86D305DF8044B383009F0E1BE00BF5F
:102A0000F3340001F8B5384DD5F86C41062094F840
:102A1000B110FEF7B1FC2E46002861D00546B4F88F
:102A2000AC2015F8383B23F00703037094F8B0305E
:102A3000A0F856202D4A80F85430528FA0F8582024
:102A400094F8B12080F85C20012BD4F8901094F811
:102A5000B57080F86C700CBF09230823CB1A5B7823
:102A600013F0040F436815BF1B3309330366036675
:102A700014BF02F11B0302F10903037217B1036EC5
:102A80000E3303661A4B0367012380F86D30006E26
:102A900039F0FEF9174837F0F1FB0023A4F8A8300D
:102AA000D4F89430C4F8A03094F8B7308BB9D4F887
:102AB000983004F19C009847284609F081FED6F82A
:102AC0006C315BB10F20FEF735FA8F2386F8703139
:102AD000F8BD04F10800FEF707FDEDE78E23F5E7EA
:102AE000902385F87031F3E7E83E0020983300200A
:102AF000F3340001544000202DE9F041294DD5F870
:102B00000C4295F8086286B004EB861694B341F641
:102B10004C574FF00208B44232D22178022932D108
:102B2000238CADF80030D4E90623CDE90223ADF8BB
:102B3000118063789B0712D595F87C32022B0ED05A
:102B4000FFF79CF839F0F2F980B2B0FBF7F307FB1E
:102B5000130317FA83F3C5F85832FFF751F9637876
:102B60008DF810302046FEF733FE68460FF01EFD4C
:102B70004034D0E70C4B43F242021A8038F04EF852
:102B800006B0BDE8F0810329F2D1238AADF8003008
:102B9000D4E90223CDE90223637D8DF811108DF86D
:102BA0001230C6E7E83E00208435002010B5164AF2
:102BB0000023038092F83340017864F385010170AB
:102BC00004684FF6FC51214041F400710160518FBF
:102BD000818092F834104900FF2928BFFF218171BC
:102BE000917A0131C9B29172C17192F82E10022905
:102BF00004D192F85330003318BF0123427863F3B5
:102C00004512427010BD00BF98330020F8B5C4696A
:102C1000174E05462046B76FFFF7C8FF238823F4F9
:102C2000805323F0030343F4805343F001032380D4
:102C300026F044F8D0E90023E3603B8A63806378A0
:102C4000A2606FF3C30363700123A37146F2040310
:102C50002382122385F830303B8AA5F880302B85FB
:102C60000222182385F8252086F8B930F8BD00BF68
:102C7000E83E0020F8B5C469204D06462046AF6FF7
:102C8000FFF794FF238823F4805323F0030343F4D6
:102C9000805343F00103238026F010F8D0E900238D
:102CA0006361B5F8883063806378226143F008037C
:102CB0006370D5F88030A360D5F88430E3600123D9
:102CC000A37144F204032383FB7C002B14BFC023B5
:102CD000402363763A7D12B143F020036376B5F862
:102CE000883033851A2386F8303095F88A3086F894
:102CF0003230162385F8B930F8BD00BFE83E002019
:102D0000F8B5294BD3F80C4293F80832064604EB89
:102D10008313A34207D8254B43F243021A80BDE830
:102D2000F84037F07BBF2778012F01D04034F0E71F
:102D3000F5692846FFF73AFF2B88627D23F4C053DC
:102D400023F0030343F4C05343F001032B806B785B
:102D500062F341036B70638A6B80A368AB60E368C6
:102D6000EB60134B5B8FAB8025F0A8FFD0E900230D
:102D70006B610723AF712B76238AA5F81930237D69
:102D8000EB76638A2A6133856378746013F0080FE9
:102D90004FF01C0386F8303008BF0527042386F85F
:102DA00032702370F8BD00BFE83E0020843500205B
:102DB00098330020F8B5C469194E1A4F05462046CD
:102DC000FFF7F4FE2388D6F88C2123F4C05323F0B8
:102DD000030343F4805343F001032380527B637861
:102DE00062F341036370D6F890319B8863807B8FD8
:102DF000A38025F063FFD0E90023E3600123A371E2
:102E0000A260062222743A7A6274D6F890219288DF
:102E100085F8323012232A8585F83030F8BD00BF9E
:102E2000E83E0020983300202DE9F04FC4697F4E22
:102E300085B007462046FFF7B9FE238823F4805368
:102E400023F0030343F4805343F00103238025F070
:102E500035FFD0E90023E3606FF00303A370033371
:102E6000E3700123A371238AA26003F4FE4343F0BD
:102E7000080323826E4BB6F878E2D6E93D12D3E917
:102E8000108900204FF6F77A914273D31A2800F286
:102E9000908096F87A22637C002A40F0828023F0AA
:102EA000600343F06003637404F160030193D6F898
:102EB000F4300093D6F8F8300393D6F8FC30029340
:102EC0005B4BB6F8785296F87AC2D3E9102304F136
:102ED00012099B469246AE464B464FF00008009AB8
:102EE000002603998A42C0F0848026B3009AB588F0
:102EF0001D80B11A4F4AC9105143029A02EBC10119
:102F00009A7888798979C0F3C20060F30202C1F32C
:102F1000020161F3061202F07702BCF1000F9A7011
:102F20001CBFAE46E0465207019A18BF0333013575
:102F30009A42ADB2D3D8B8F1000F02D03B4AA2F802
:102F400078E2A3EB09093C4B627C03FB09F363F3D2
:102F500004026274BCF1000F02D1344AA2F878C2B4
:102F600003F01F0303EB4303123387F8303005B03F
:102F7000BDE8F08F0B78062B11D04D78022D0ED0C6
:102F8000D1E904BCE14508BFD84508D18B88534539
:102F900005D8012D03D19E459CBF0130C0B2283118
:102FA00072E7002223F0600386F87A2243F04003A0
:102FB00079E796F87A521DB1637C23F0600372E7DB
:102FC0001E4940F213102FF067FB96F87B32012B5D
:102FD000637C23F060031BBF43F02003637443F062
:102FE000600301230ABF637486F87A3286F87A5246
:102FF0005AE71178062914D05178022911D0D2E964
:1030000004018B4508BF82450BD191884FF6F770BC
:10301000814206D88D4204D82EB1B088884288BF3C
:10302000164628325DE71646FBE700BFE83E002063
:1030300098330020CDCCCCCCABAAAAAA6341002007
:103040002DE9F041C469204DDFF88080AF6F06465E
:103050002046FFF7ABFD238823F4805323F00303BE
:1030600043F4805343F00103238025F027FED0E989
:103070000023E3606FF00203A3700233E370A260E9
:10308000E179B8F83A00FEF7DDFB63786FF3C3032C
:1030900063700123A3714FF00403238298F82E304C
:1030A000022B03D0FB7C0BB1802363743B7D1BB1EF
:1030B000637C43F020036374122386F830301323BB
:1030C00085F8B930BDE8F081E83E00209833002053
:1030D000F8B52A4BC469D3F8485493F844240646FB
:1030E000002393420BD12046FFF760FD2278012395
:1030F00063F30102A371002322705B88FFDE2F7847
:10310000012F03D001331835DBB2EAE72046FFF781
:103110004DFDA7716B886380238823F4805323F0CF
:10312000030343F4805343F00103238025F0C6FDDD
:10313000D0E9002363616378226143F00803637080
:10314000AB68A360EB68E3600C2323766B7863764F
:103150000B4B93F85320A37E510862F3000361F3F5
:103160004103A3761B2386F8303075600223AA74CE
:103170002B70A37E6FF3C703A376F8BDE83E002053
:103180009833002038B5C46905462046FFF70EFD88
:10319000238823F4805323F0030343F4805343F044
:1031A0000103238025F08AFDD0E90023E3604FF07E
:1031B000FF33A370E3706378A2606FF3C30363709F
:1031C0000B4B1A6CC4F812205A6C1B7CA3764FF47C
:1031D00085732382074BC4F81620B3F86A23A4F83A
:1031E0001B201D2285F83020852283F8682338BDF6
:1031F00098330020E83E002030B5134C002384F8BB
:10320000B83094F8AD3085B02546BBB904F1A000C4
:1032100025F060FD20B9D4E9282352EA03010FD13B
:103220000A4900220023C1E9102395F8AC108DF85B
:1032300008106846CDE900230FF012FA05B030BD42
:1032400094F8AC10F3E700BFE83E0020983300206C
:103250002DE9F04F724A90F8863090F88280C46968
:1032600002EB031385B01B7B8DF80B3008F1FF33A5
:1032700005460F460192092B14D8DFE803F0B2137C
:103280000513133434131334E1290BD00029628859
:10329000ADF80C200CBF1323092303A88DF80E30C2
:1032A0000FF0ACFA5F4B93F82E20022A07D0627819
:1032B000D10740F1A480227A920700F0A68095F809
:1032C0008630019A02EB03139B6813B139462846F6
:1032D00098479DF80B301BB1A5F18000FEF760F90F
:1032E00005B0BDE8F08FB4F802B061781FFA8BF634
:1032F00001F001013046FDF7DFFB0346002846D010
:103300004279BFB9FF2A12D1474AD2F8A832B2F89F
:10331000AC22C2EBC2021A441979C90741BF5979DC
:1033200049080131597107339342F5D3BAE70132A5
:103330004271B7E752B13C4991F8AE1242FA01F13D
:1033400011F0FF0108BF0121521A42715A7919790F
:10335000003218BF012262F300011971314AB4F83A
:1033600004A0528F1FFA8AF082429BD022789207E3
:1033700098D113B11B79DB0794D4B8F1060F09D1AA
:103380000023B5F880203146FEF7A8F98AE7002F20
:1033900088D0E3E7244E96F8D582B8F1000F81D1AA
:1033A000B5F880902A8D034649464046FDF732FC29
:1033B00000283FF477AF0C2386F8D2328388A6F832
:1033C000C8320123A6F8C4B2A6F8C6A2A6F8CA92CB
:1033D00086F8CC8286F8D53206F52F70FEF710F904
:1033E00060E7B0F880206188A0880023FEF776F9B6
:1033F0006178608801F00101FDF77AFB52E761888E
:103400004FF6F77291423FF65AAF5A8801325A800E
:10341000002F3FF454AF9A8801329A804FE700BFE3
:1034200098FD020198330020E83E002017B441685F
:103430008A79013AD3B28B71027812F0010202D07C
:103440001A1C18BF0122037862F300030370DBB279
:10345000DA0748D5C269A2B3182262F3C703037022
:10346000037A8DF8003003780191C3F3C4038DF81B
:103470000130C38CADF80230019B5A786FF34512CE
:103480005A709DF8013080F886309DF8003080F841
:103490003030019B90F88720C361BDF80230A0F85E
:1034A0008030002363F34102436480F84030C0E978
:1034B0001233838780F8872003B05DF8044BFEF752
:1034C00013B80A7802F00302012AC9D1026A1478FB
:1034D000052C01D11922C0E7032CC1D152780C2A46
:1034E000BED11A22B9E7803803B05DF8044BFEF76D
:1034F00057B810F8743CDB0701D5743896E7F438F8
:10350000FEF74EB838B5114C20460D4636F0B6FEE3
:103510000346426803F8155F1846904723688BB14D
:10352000202222779A7D0C2A0AD018894FF6F77349
:1035300098428CBF01200220BDE83840FDF7F6BF5D
:103540001020F9E77823237738BD00BFA041002081
:1035500030B590F83030722B8BB0044619D86946DC
:10356000C069FDF717F8049B9DF81420587894F86B
:103570003010023245002A448A420AD10130074AFB
:1035800058702B44528F5A80023184F830100BB09F
:1035900030BD752384F83030F9E700BF9833002040
:1035A00008480378DB0705D5022380F87C32002029
:1035B000FDF7BCBF012380F87C3200F519702EF0B6
:1035C0000BBF00BFE83E00202DE9F041537D0546CA
:1035D0000C4616467BB101784F1EFBB20B2B0AD866
:1035E00062884FF6F7739A4208D8114B03EB8703B2
:1035F000D3F8F031B3B90020BDE8F081082904D830
:103600004FF48973CB40DB07EFD40A4BA0885B8F64
:103610008342F0D0E179FEF715F900F0FD000128B2
:10362000E3D0E8E732462146681CBDE8F041184780
:1036300098FD02019833002008B550F80C3C40F882
:10364000503C037900F83C3C0378A3B9114B30F8A7
:103650004C2C9B8F9A4204D16438BDE8084028F076
:1036600044B9A0F16C010C4836F0E4FD0320BDE83C
:103670000840FDF75FBC022B08D009D3042B8CBF98
:10368000C321CE216C38BDE80840E1E5CC21F9E743
:10369000C321F7E7983300202C3F002010B5204CC1
:1036A00094F8E832A32B33D1D4F8EC3200221A7309
:1036B0002278D2075CBFC2221A731A79AAB1C1223A
:1036C0001A73A52384F8E832164836F0D7FD8368CC
:1036D0000C309847D4F8EC32EBB1A32384F8E832ED
:1036E0000120BDE81040FDF725BC1B7B002BE8D175
:1036F0000D4B0E489A8F1B88A4F800334FF4D273F9
:10370000A4F8FA22A4F8E832BDE8104028F0EAB89C
:10371000A52BD9D010BD312384F8E832FAE700BFD9
:10372000E83E0020D441002098330020D8410020FA
:1037300010B5194B93F80031994294BF5B1ADB1A0C
:10374000DBB29842154B06D393F8202002F07B029F
:1037500083F8202010BD5C7CA20718D493F8482081
:103760008A4294BF0021012193F8202061F3820254
:1037700083F82020E2070CD493F84920824294BFBA
:103780000020012093F8202060F3C712E0E7002119
:10379000EAE70020F6E700BFE83E0020983300206B
:1037A0000C4A10B4D2E93D34002108461A78062AA2
:1037B0000AD002F0FB02012A06D15A78022A0BBF76
:1037C00001300131C0B2C9B228339C42EED85DF855
:1037D000044BADE7E83E0020124B002293F8321074
:1037E0009A77DA7F61F3030293F8331061F30712DB
:1037F000DA7793F82020597A02F0FC0261F3C602CE
:1038000083F820201A6CC3F821205A6CC3F82520B5
:10381000FF2283F8292002F57F425A851A7C83F81B
:103820002C20BDE79833002038B5057825B128460F
:10383000BDE83840FDF7C6BB4478502C16D0532C59
:1038400007D04B2C1DD11B4B02891A801A485023DC
:1038500004E0184B028918485A874B2380F8C83374
:1038600000F57070BDE8384027F0EDBF11490389BD
:1038700021F83C3F17202EF03BFF0F4880F8C8533B
:10388000EEE7B4B90B4D037A2946162001F8383F0C
:103890002EF02EFFFFF7A0FF074B2046BD221A7027
:1038A000FDF790FB95F838102420BDE8384032F041
:1038B000F9B838BD98330020E83E0020F8B5454DF2
:1038C000D5F87441064604F108072CB9424B43F27F
:1038D000AE021A8037F0B4F904F124039E4205D0F9
:1038E0003D4B43F2AF021A8037F0AAF933784BB15F
:1038F00084F84C30582385F878310920BDE8F84029
:10390000FDF718BB95F87831593B072B59D8DFE8FC
:1039100003F0041B353B585844156F23237404F1FE
:10392000180106202EF0B8FE602385F878312B4B65
:1039300023623846BDE8F84027F0CEBF4623237403
:103940000F2323765A23F0E7254E002306F140018A
:10395000332073722EF0A0FED6E91023134305D155
:1039600025F0ACF9D0E90023C6E91023FFF734FFB6
:10397000452323741B4BA3615B23D6E75223237497
:10398000012323765C23D0E78323237404F11801F9
:1039900008202EF081FE5F23C7E7114B9A8F228209
:1039A00093F83820A27493F83730E3740123A3828C
:1039B0000D4BA361384627F092FF5D2385F87831DF
:1039C000F8BD054B43F2B0021A80BDE8F84037F06D
:1039D00025B900BFE83E002084350020BD38000135
:1039E00098330020B6330020F528000173B52A4C27
:1039F00000250DF1070140F207108DF807502EF059
:103A00004BFE9DF8073084F8343004F148014FF440
:103A100083702EF041FE0DF1070140F205102EF0EB
:103A20003BFE94F848209DF807309A4239BF9B1A14
:103A300084F8493084F8483084F849500226FFF76A
:103A4000AFFE0DF1070119208DF807602EF024FE5E
:103A50009DF8073084F82F3094F82E300F499B1BC7
:103A600018BF0123222084F853302EF015FE0C4B92
:103A700043F6095093F8325025F03AF906FB050554
:103A80004FF4006025F034F905EB500094F8345001
:103A90004543E56002B070BD98330020EC33002050
:103AA000D032002038B51A4C2378DB062AD5194DC0
:103AB000D4F8F43318221B7C84F8F02305F13C0180
:103AC00017202B722EF0E8FD05F1380116202EF09C
:103AD000E3FDFFF78BFFFFF77FFE0F4BC4F81034B9
:103AE000452384F8003404F57E7005F11E03C4F804
:103AF000083427F0F1FE95F838102420BDE838404E
:103B000031F0D0BFC220BDE83840FEF797BB00BF00
:103B1000E83E0020983300205D2700011F49C88837
:103B20004B8F98422DE9704334D01D4B93F83803E6
:103B300092282DD1507D0D282AD11269567816F081
:103B4000E00025D1012E23D1D1E91045D2F806900D
:103B5000D2F802804D4508BF44451CD1D47A957AED
:103B6000127BC3F8400344EA0222A3F83A23192245
:103B700083F83823CA68C3F850230A4A83F83C53B1
:103B800083F85463C3F8582303F552702EF024FCD5
:103B9000012000E00020BDE8708300BF98330020C2
:103BA000E83E0020990C000110B5114CF1B9114B01
:103BB000B4F86A131A7C84F83C230F4ADB68C4F813
:103BC0004023192284F83823C4F8503301220B4BC8
:103BD000C4F8583304F55270A4F83A1384F8542307
:103BE0002EF0FAFB862384F8683310BDFB23FAE736
:103BF000E83E00209833002075060001990C000172
:103C00002DE9704316460C46FCF79CFF144B93F8C5
:103C10002024824203D800233360012017E0D3F828
:103C2000243400B2C0EBC00003EB800010F1140F8D
:103C30004FF000033360F0D0D4E900894369D3E941
:103C40000045A94508BFA04503D133600020BDE869
:103C50007083826910339A42F1D80220F7E700BFDF
:103C6000E83E002030B58BB043680593044690F8D9
:103C700024308DF8183005A831F050FB0799002941
:103C800051D0089B002B4ED094F824200244207A77
:103C9000824248DC1A680D685B68CDE902236B1C20
:103CA00033D001AA02A99DF81900FFF7A9FF012846
:103CB0002BD0019B13B19B689D4226D99DF819001A
:103CC000FCF758FF206470B31A4B93F84B3084F81C
:103CD0004430089B1A685B68C4E90C2304F1300384
:103CE000A3646368E36494F8243084F85030237A42
:103CF00084F85130104B6365002384F8523004F18E
:103D0000380031F0FFFA0BB030BD9DF81900FCF718
:103D100031FFE38CADF8043050B9162301A88DF8BB
:103D200006300EF06BFDA4F18000FDF739FCEAE7E8
:103D30001123F3E7983300208F9700012DE9F04F0E
:103D40008A4F97F87831D7F8744185B0562B0646DC
:103D5000009705D0864B43F2AB021A8036F070FF15
:103D60002CB9834B43F2AC021A8036F069FF04F1A0
:103D700010039E4205D07E4B43F2AD021A8036F00E
:103D80005FFF337923B103F0EF02EA2A40F0E480C9
:103D90003268E3699343019300F0DD80D6F8089020
:103DA000F579494600204FF6FF7C85420DD1FF256D
:103DB000A846AA4600234FF0010C019A12EA0C0F04
:103DC00042D00021CE460A4633E0B1F80480E045F7
:103DD00000F1010E03D15FFA8EF01831E5E75FFACA
:103DE0008EF303EB430291F810A009EBC2029D424F
:103DF000F1D0984209D0B2F804B0C34505D192F889
:103E000010B0D34508BFA2F804C00133DBB21832AA
:103E1000EDE79EF810B09B4507D1BEF804B04FF611
:103E2000FF77BB451CBF0132D2B20131C9B20EF1DE
:103E3000180E8142EDD11AB91CF4C30F63D1984614
:103E400052453CBF92461D460133DBB2202B4FEA60
:103E50004C0CB2D1B8F1FF0F57D1FF2D05D1444B17
:103E600043F2B8021A8036F0D9FEDFF80CB1002315
:103E70008BF838500DF10D011820D6F8089096F8FF
:103E800007A08DF80D302EF007FC9DF80D805E46E2
:103E9000B8F1000F40D138F049F880B20AF1010BB7
:103EA000ADF80E0043464FF6FF71884204BF4FF055
:103EB00001080020CC46002292450BD09CF810E06F
:103EC000AE4524D1BCF804E0864520D1013080B253
:103ED0004FF0010801339BB29B45E6D8B8F1000FC3
:103EE00001D0ADF80E00BDF80E30B3874FF6FF726B
:103EF000934217D11E4B43F2B9021A8036F08EFE60
:103F000005B0BDE8F08F1D46AFE74546ADE701328D
:103F1000D2B20CF1180CCFE70DF10E0117202EF0E4
:103F2000BBFBE0E794F8453004F108000BB1B4F8AE
:103F30004630738723830F4B2362009A53232374E5
:103F4000592382F8783127F0C7FC96F838102420DE
:103F500031F0A8FDD4E7C423009A84F84C305823EC
:103F600082F878310920FCF7E5FFC9E7E83E002038
:103F700084350020BD38000198330020014B588F54
:103F8000704700BF9833002070B50B4C94F8305048
:103F90000E467DB9532323762084084BA36204F197
:103FA000100027F099FC012384F8303084F8316048
:103FB000284670BDC320FCE7780C0120CD0D000120
:103FC000014B93F8310070479833002008B5FCF797
:103FD00065FA18B103786FF30003037008BD08B5E4
:103FE0000146044836F026F91120BDE80840FCF7E8
:103FF000A1BF00BFC041002010B5014638B90F4B2A
:1040000043F2D002BDE810401A8036F007BE0C4CD7
:10401000204636F00FF92379D62B06D17023237171
:104020000820BDE81040FCF785BF703B022B03D988
:10403000024B43F2D102E5E710BD00BF84350020FA
:10404000203F002070B5484C94F80032212B2546C3
:1040500040F0858004F5C47036F010F9A0F1080333
:10406000C4F88C31414B027C1A72FFF7BFFC2378F5
:10407000DB062BD5D4F88C311A7B023A012A25D8DD
:10408000322284F80022227093F8342084F8FD2133
:104090001A6BC4F8F4210022C4F8F02184F8EE2150
:1040A0009B7B334AC4F8F821012284F8FC212BB110
:1040B00004F5E470BDE87040FFF79EBF84F8EC3172
:1040C00004F5F670BDE87040FDF7ACB8D5F88C315A
:1040D000C22283F82B20222385F80032234CD5F806
:1040E0008C11638F0B85D1E90023C1E9082391F876
:1040F0002B6094F8383081F82A30F6B9D5F8903131
:10410000D3E9042304F13C011720C4E910232EF065
:10411000EFFA04F1380116202EF0EAFAFFF75CFB03
:10412000BD232B70637AD5F89021C3EBC303DBB2B8
:10413000928831463046FCF7E4FCD5F88C0143699F
:10414000203098470023C5F89031D5F888314BB11D
:104150000A20FCF7EFFE212385F8003201E0222B34
:10416000BCD070BDDA23F7E7E83E0020983300208A
:104170002512000110B5014638B90F4B4FF44252D9
:10418000BDE810401A8036F049BD0C4C204636F090
:1041900051F82379132B06D1E72323710D20BDE8B5
:1041A0001040FCF7C7BE1933DBB2022B03D9024B18
:1041B00043F28A02E4E710BD84350020A83F0020C6
:1041C00010B5014638B90F4B43F2A002BDE81040CC
:1041D0001A8036F023BD0C4C204636F02BF823799C
:1041E000B72B06D1542323710920BDE81040FCF7FA
:1041F000A1BE543B0C2B03D9024B43F2BC02E5E7B2
:1042000010BD00BF843500205C4000204B1EDBB297
:10421000FD2B10B507D90D4B43F2A0421A8036F0A2
:10422000FDFC00200DE00A4AD2F81834D2F81C2414
:104230001C783CB9588019700146112031F032FCCD
:10424000012010BD04339A42F2D8EAE784350020F9
:10425000E83E00202DE9F04107460E4641B9124BD9
:1042600043F2A1421A8036F0D9FC3046BDE8F08115
:104270000E4D0020D5F81844804623786BB1628833
:10428000BA420AD1FF2E01D0B34206D1112084F8E0
:104290000080394631F006FC0120D5F81C34043486
:1042A000A342EAD8E2E700BF84350020E83E0020C0
:1042B000F7B5064640B9104B43F2A3421A8036F0D8
:1042C000ADFC304603B0F0BD0C4D0020D5F81844CD
:1042D0000746FF2E02D02378B34207D1236801930B
:1042E000122001A931F0DEFB27700120D5F81C3423
:1042F0000434A342EDD8E5E784350020E83E0020F1
:1043000038B50C4639B90E4B43F2A2421A8036F04A
:1043100085FC002038BD0B4AD2F81834D2F81C14A2
:104320001A7832B15D88854203D1FF2C05D0A242B4
:1043300003D004339942F3D8EBE70120EAE700BF4A
:1043400084350020E83E0020064AD2F81834D2F81E
:104350001C240020197809B90130C0B204339A42F4
:10436000F8D87047E83E0020084B30B10430D3F84D
:104370001C34984204D300207047D3F81804F6E7A1
:104380000278002AF8D10430F3E700BFE83E0020AD
:1043900013B50B4C0DF1070140F215102EF07CF90E
:1043A000214640F211202EF05DF99DF8072020688B
:1043B000920083180021636037F0ECFD02B010BD5D
:1043C00000430020014B83F85300704798330020CE
:1043D000014B83F85400704798330020014B93F849
:1043E0005300704798330020014B83F85300704707
:1043F00098330020014B93F8540070479833002005
:10440000014B1888704700BF98330020014B988FEC
:10441000704700BF98330020014B9887704700BF5A
:1044200098330020014BD3E91001704798330020E6
:10443000D0E90001014BC3E9100170479833002017
:10444000014B93F82E00704798330020014B93F8EE
:104450003800704798330020034B014683F838003A
:10446000242031F01FBB00BF98330020014BD868D7
:10447000704700BF98330020014BD888704700BFB9
:1044800098330020014BD880704700BF983300203C
:1044900008B5054B01461874222031F003FBBDE836
:1044A0000840FFF799B900BF9833002073B505782D
:1044B000114CC5B9114EB4F83A33B387FDF78CFAF5
:1044C00006F13C0117202EF013F994F83C03FFF796
:1044D000DFFFFFF781F90F2301A8ADF804508DF835
:1044E00006300EF08BF9922384F83833D4F8403339
:1044F00003B1984702B070BDE83E00209833002019
:1045000038B503791F4C05468BB103F0EF03EA2B56
:104510000DD01D4B187C0130C0B2FFF7B9FF8423CA
:1045200084F868330920BDE83840FCF7FFBFEA791A
:10453000B4F86C339B1A9BB2A4F86C336BB137F0B0
:10454000F5FCB4F86C2380B2B0FBF2F302FB13036A
:10455000B4F86A030344A4F86A330023EA799A4260
:10456000D7D9AA68B4F86A0303EB430102EBC1028E
:1045700001339288824204BF0132A4F86A23DBB27D
:10458000ECE700BFE83E002098330020014B187C88
:10459000704700BF98330020014B83F8300070470C
:1045A00098330020014B93F8330070479833002074
:1045B000014B5888704700BF98330020014B988802
:1045C000704700BF98330020024B0022C3F802203E
:1045D000704700BF98330020014B9874704700BFAC
:1045E00098330020084B1B7CC21A002AB8BF5242E5
:1045F000C72A04DC984294BF0020012070479842EB
:104600008CBF002001207047983300200A4B1B7C90
:1046100098420FD0C21A002AB8BF5242C72A04DCFF
:10462000984294BF00200120704798428CBF002020
:10463000012070470120704798330020324B2DE94C
:10464000F047D3F8F440314D06460F4690464FF000
:1046500000099A462378062B43D06378022B40D07A
:1046600056EA070309D0D4E90423BB4208BFB2428B
:1046700037D1607EFFF7CAFF98B3A37EB8F1000F71
:1046800037D013F0040F2CD0B9F1000F39D0DAF87D
:10469000F430DAF8FC10E21AA9EB0303D210DB10B5
:1046A0006A436B4301EBC20201EBC3031279197930
:1046B000637E511A99F8192093420AD0981A00285B
:1046C000B8BF4042C72817DC93428CBF00230123A8
:1046D0003BB9193105DB37F029FC10F0080F08BF92
:1046E000A146DAF8F83028349C42B3D34846BDE8F6
:1046F000F08713F0020FC6E7934294BF0023012313
:10470000E6E7A146EDE700BFE83E0020CDCCCCCCEB
:1047100010B5154CD4F88C310122D3E90001FFF714
:104720008DFFC4F89001A8B1002384F801320F4A2C
:10473000C3889387A4F8D83150220D4BC4F8E031D8
:1047400004F5E47084F8D02127F0C6F8292384F812
:10475000003210BDD4F88C31C32283F82B200A20FC
:10476000FCF7E8FB2223F2E7E83E00209833002024
:104770002152000110B50F4C99B9D4F89C3103F5C2
:104780001173C4F89C310C4BC4F8A43104F5CA7001
:10479000012384F8A0312DF01FFE2D2384F8003270
:1047A00010BDD4F890319A7E6FF382029A76BDE8FC
:1047B0001040ADE7E83E0020BD4700010F4B104818
:1047C0001B7A13F0080F11D1022380F8B031D0F812
:1047D0009031DA889B88A0F8B8310A4BA0F8B22152
:1047E000C0F8C03100F5D47027F07CB8D0F8903113
:1047F0009A7E6FF382029A768AE700BF9833002090
:10480000E83E00207D80000182E70B4A92F80132E9
:104810000133DBB2022B82F8013206D9D2F8903193
:104820009A7E6FF382029A7672E7282382F800322A
:104830000320FCF77BBE00BFE83E002010B50378E4
:10484000174CD4F88C2143B182F82B300A20FCF7A6
:1048500071FB222384F8003210BD117B032915D18E
:10486000104B1B7A13F0080304D1C4F89C31BDE847
:104870001040CAE7812384F8D03104F5E4700A4B74
:10488000C4F8D43126F0DFFF2B23E3E782F82B3086
:10489000222384F800320A20BDE81040FCF74ABB0E
:1048A000E83E002098330020AD480001037810B5A1
:1048B000094C2BB98368C4F89C31BDE81040A4E7CB
:1048C000D4F88C210A2082F82B30FCF733FB22230A
:1048D00084F8003210BD00BFE83E0020F8B58B79A7
:1048E000012B0F46164652D18C68CD6824F0E6F9AC
:1048F000D0E900239D4208BF944248D1364D95F837
:104900000032A3F12C02012A2C464BD805F5CA70BF
:104910002DF08CFDB7F819204FF6FF73934238D075
:10492000FB7E002B35D1D5F88C112C4D81F82B3026
:104930006A87D4F8902191882980D17885F8381039
:104940001370137E507E0133DBB20F2B28BF0F2371
:104950006B72FFF79DFD73682BB11968D4F8902135
:104960005B68C2E90213532384F8D0316B8FA4F83B
:10497000D8311B4BC4F8E0311A4826F0ADFF2E2386
:1049800084F8003295F83810242031F08BF801209B
:10499000F8BDD4F890319A7E6FF382029A76FFF7D1
:1049A000B7FEF4E7DA2BF2D10C4A92F82E30022B44
:1049B000EDD1B7F819305387A5F8D8315322084BF9
:1049C000C5F8E03185F8D02105F5E47026F084FFC4
:1049D000312385F80032DAE7E83E002098330020E2
:1049E00021520001B040002010B51D4CD4F88C318C
:1049F0000022D3E90001FFF721FEC4F8900108B3BB
:104A0000002384F80132174B93F8372084F8D12122
:104A1000C27884F8D02102221B7A84F8D221C2887D
:104A2000A4F8D421828884F8E03104F5E4700E4BB8
:104A3000C4F8E431A4F8D82126F0FCFE232384F83E
:104A4000003210BDD4F88C31CA2283F82B202223E7
:104A500084F800320A20BDE81040FCF76BBA00BFB2
:104A6000E83E0020983300207D610001024B0022C7
:104A70009A705A601A817047780C012010B5FFF7C0
:104A8000F5FF2DF0EFFC054C6063383420462DF027
:104A9000CDFC2046BDE810402DF09EBC780C0120D6
:104AA00010F0FB0F03D1074B01221A757047052840
:104AB00001D00E2804D1034B00221A75FFF7DEBF88
:104AC000704700BF34210120004870477A0C012054
:104AD000044B054A1A64012283F84420034A9A646D
:104AE000704700BF780C0120A075E9007D4A0001E5
:104AF00008B52DF0B7FC064B5B6BC01A054B98420E
:104B000097BF4EF66023FF20B0FBF3F0C0B208BDA4
:104B1000780C01209F75E900037B03F0FD02042A55
:104B200010B5014603D1BDE81040FCF738BE012B9B
:104B300001F10801104C0FD104F57D7035F07AFBBE
:104B400094F8F033162B15D1172384F8F033132083
:104B5000BDE81040FCF7EEB904F5C47035F06AFB0F
:104B600094F80032DA2B05D10A20FCF7E3F921236F
:104B700084F8003210BD00BFE83E002008B50146B1
:104B8000084835F057FB084B93F8B920E62A07D1BF
:104B9000112283F8B9200C20BDE80840FCF7CAB9FF
:104BA00008BD00BF603F0020E83E002038B5164B2E
:104BB000164993F8B8501C462DBB022A1AD1A3F807
:104BC000A800012384F8AD3000220023C4E9282383
:104BD00091F8203284F8AA304FF48073A4F8AB30F7
:104BE0000B4BC4F8B0300B48FFF7C8FF012384F823
:104BF000B83008E0032AE7D100200021C3E92801EA
:104C0000012283F8AD2038BDE83E002098FD020166
:104C1000F9310001803F002010B50E4C94F8B830F7
:104C2000B3B900220023C4E928230B4B84F8AC005D
:104C300093F8203284F8AA3004F19800074BC4F8A6
:104C4000B03084F8AB10FFF799FF012384F8B83037
:104C500010BD00BFE83E002098FD0201F9310001BF
:104C600010B4094C094AD4F8F430C31ADB105A4383
:104C7000D4F8FC305DF8044B03EBC2039A7961F37E
:104C800002029A71FCF7E8B8E83E0020CDCCCCCC0B
:104C900010B5074C94F87C32022B08D0FCF7EEFFDD
:104CA000012384F87C32BDE81040FDF7B3B810BD95
:104CB000E83E002010B5084C0146204635F0BAFA0F
:104CC00023798E2B06D18F2323710F20BDE810404E
:104CD000FCF730B910BD00BF544000204FF6FF7301
:104CE00098420D4A1ABF013080B20020B2F8AC12CF
:104CF000D2F8A822C0EBC0031344814202D84FF679
:104D0000FF7070471A7902F00502052A03F10703C4
:104D1000F7D0013080B2F0E7E83E0020034BC0EB53
:104D2000C000D3F8A832185A704700BFE83E0020F0
:104D3000034BD3F8A832C0EBC00003445888704737
:104D4000E83E002001460A2030F040BE01460A201D
:104D500030F076BE0C4B30B12830D3F8F8209042BA
:104D600004D300207047D3F8F400F6E7037803F08B
:104D7000FB03012B05D14378022B02D183888B42A0
:104D8000F0D12830EBE700BFE83E002010B50B4A19
:104D90000B49D2F8F430898FD2F8F8201C78062C11
:104DA00005D09C88844202D1DC888C4203D0283311
:104DB0009A42F3D80023184610BD00BFE83E0020F9
:104DC000983300202DE9F041254A264FD2E93A35A3
:104DD000EB1A92F80051013505EB23150E46ADB2E2
:104DE00004464FF6F678631E9BB2434588BF012404
:104DF0007B8FA34214D02046FBF768FB20BB2046E4
:104E0000FFF7C4FF38B1D0E90201D6E90023994287
:104E100008BF904209D12046BDE8F0811D46E2E777
:104E2000304623F057FF0028E5D101346B1EA4B2B1
:104E30009BB2002DF2D10C4B43F206021A804FF6C2
:104E4000FF7435F0EBFEE6E703789B07EDD4D0E97D
:104E50000201D6E90023994208BF9042E5D1CEE78E
:104E6000E83E0020983300208435002010B586B03D
:104E7000CDE900232023ADF80C300DF10A03ADF885
:104E80000A1004930C46002303A91E20059330F05A
:104E900009FE059B43B1BDF80A006946FFF792FF82
:104EA0000446204606B010BD0C4B93F83120002A72
:104EB000F7D193F82F30022B09D14FF6F7739C42AC
:104EC00002D937F033F884B269462046E6E7032B6F
:104ED0000CBFBDF800404FF6FF74E2E798330020A6
:104EE00038B501220546D0E90201FCF7CBFA0446A9
:104EF000D8B1AA7E637862F3C30363700020AB88E5
:104F000063822075D5E902234FF6FE71FFF7AEFFED
:104F1000D5E90223C4E902230123208263752370AB
:104F20000420BDE83840FCF701BB38BDF7B5504C54
:104F3000227812F0400F0F46254611D094F85221E6
:104F4000AA2A0FD0B4F85021824209D1494B84F8E3
:104F500054115B8F934214BF0123002384F8533113
:104F600003B0F0BD434EA4F85001728F84F8541181
:104F7000824296F82E204FD1002AF1D0022A03D087
:104F800096F82F30022B25D0D6E91023C5E9462309
:104F90000323A5F824310DF1070129202DF07CFB16
:104FA0009DF8072001230AB185F8253196F83820AD
:104FB00085F826319340C5F84831082385F84C31EF
:104FC0002D4BC5F82C31452385F852312B48FFF77E
:104FD000A3FDC5E7012AC3D14FF6FE7423F06EFE90
:104FE0002146D0E900230120FFF740FF738F834261
:104FF000F4D04FF6F7739842B2D8532385F8203196
:105000001F4BC5F830314423A5F8280185F85231EB
:105010001A4826F061FCA3E7022AA1D0C9B10D22EB
:10502000184B84F82E21C4F81C314FF6FD72002372
:10503000A4F8202184F8283102324623A4F8220162
:10504000A4F8242184F8523104F58C70FCF7D8FAC6
:1050500086E7FBF781FB002882D0472284F85221A3
:10506000827E67F3C3028276FFF73AFF78E700BFDC
:10507000E83E0020983300208D1000010040002001
:105080003D160001B9510001014B0021588F4DE739
:105090009833002030B5274B1B78DB0787B008D545
:1050A000537D042B05D1146965780B2D16D003D8D8
:1050B0005DB1012007B030BD0C2D25D00D2DF8D1EC
:1050C00000216088FFF732FFF3E760884FF6F7733F
:1050D0009842EED82946FBF70BFDEAE701238DF84D
:1050E00004306388ADF805308B88ADF807303E207A
:1050F00001A930F0D7FC6088FBF71CFC0028D8D051
:105100004FF6FF730380D4E702238DF804308B88B9
:10511000ADF8053001A93E2030F0C4FCA378E27858
:105120008DF8025043EA02236846ADF800300DF0D6
:1051300065FBBEE7E83E002010B51E4C94F85231E6
:10514000AA2B2ED1D4E93D321978062902D0997EB6
:10515000090703D428339342F6D30023002184F8AF
:105160005311A3B19A88A4F850219A7E61F3C30227
:105170009A760121B4F85001FFF7D8FE94F8523125
:10518000AA2B0ED10220BDE81040FBF7D3BED4E914
:105190003A311A7802F00302032A03D010338B420B
:1051A000F7D310BD5A88A4F850211A786FF3410242
:1051B0001A70DEE7E83E002010B5164C38B194F8BE
:1051C0005231462B03D104F22D13984205D0124BD5
:1051D00043F283121A8035F033FD104B93F82E30D2
:1051E000022B0ED0B4F85001FBF7B6FA48B1827E1C
:1051F0006FF3C3028276FFF773FE472384F85231C0
:1052000010BDAA2384F852310220BDE81040FBF7FC
:1052100091BE00BFE83E0020843500209833002076
:10522000037873B5624C53B1D4F88C210A2082F80C
:105230002B30FBF77FFE222384F800323AE094F80B
:105240000032243B112B35D8DFE803F04E566A3488
:105250003439463434347C86919D34365F09D4F831
:105260008C311B7B032B23D1524D95F831307BB908
:105270006A8F4FF6F7739A4202D936F057FE688765
:105280006E8F23F01BFD01463046FFF79BFD6887BC
:10529000532384F8D0316B8FA4F8D831332384F8AA
:1052A00000324548454BC4F8E03126F015FB01E0DB
:1052B000FFF79AFB02B070BDFFF72AFAFAE7D4F8BD
:1052C00090313C4ADB7882F83830002284F8D831BB
:1052D00084F8D0212A23E2E7452384F8D031384BE3
:1052E000C4F8D8312423DAE7462384F8D0310F23D9
:1052F00084F8D8312523D2E78323324984F8D0318A
:1053000008202DF0C9F93423C9E7522384F8D0319D
:10531000284B1B7AC3F3C00384F8D8312623BEE799
:10532000244B25481B7A13F0080F14BF6FF07F43FE
:105330000023C4F8D031244BC4F8D43126F0C6FA87
:10534000272379E74B2384F8D031D4F890319B8818
:10535000A4F8D8312F23A2E74A2384F8D031D4F817
:105360009031D3E90223C4E97623302397E7D4F8B8
:105370008C31002283F82B200A20222384F800326B
:10538000FBF7D8FD96E70B4B5B8FADF8043001A817
:1053900010238DF806300DF031FAD4F8883123B19E
:1053A0000A20FBF7C7FD212346E7DA2344E700BFC5
:1053B000E83E002098330020B04000202152000138
:1053C000B6330020C04000203D4800010C4B5B8FED
:1053D000834210B5044603D1BDE8104023F06EBCF3
:1053E000FFF7D4FC28B1D0E90223134301D00830E1
:1053F00004E02046FBF76AF80028F8D110BD00BF92
:1054000098330020F8B5C4691C4D06462046D5F8EF
:105410002C74FDF7CBFB0123A371194B1B88638010
:10542000238823F4805323F0030343F4805343F091
:105430000103238023F042FCD0E9002363616378F9
:10544000226143F0080363706088FFF7BFFFD0E973
:105450000023E3600B2323763B796376A260A37E6F
:105460007A7962F300036FF34703A3761B2386F870
:105470003030032385F82834F8BD00BFE83E002013
:1054800098330020F8B5264FC469D7F8B06246605B
:10549000338D0385012380F8323005462046FDF721
:1054A00085FBF369588860809B88A380238823F458
:1054B000805323F0030343F4805343F0010323801C
:1054C000FFF784FF3B46D6E9147120B3627842F0BF
:1054D00008026270D0E900C26161C4F808C0E260ED
:1054E00027611821E869052444544218F4690D48DD
:1054F000A488408F84420BBF002001245070547058
:1055000016BF5080022204220A4485F83020F82277
:1055100083F8B422F8BDE160A7601021E2E700BF84
:10552000E83E0020983300202DE9F041C4693B4E4D
:1055300005462046FDF73AFB2388F088608023F477
:10554000805323F0030343F4805343F0010323808B
:10555000FFF73CFF6378D0B343F008036370D0E9F2
:105560000023A260E36023F0A9FBD0E9002363617C
:1055700022611823183485F83030238828482246C1
:1055800003F4F85343F0090322F8023B336CC4F8E8
:105590000230736C5360B38FD0F8247390F823C338
:1055A0006381002101238C451DD1627863F30402DD
:1055B000627095F8302003F01F030A3202EB4303B8
:1055C00085F83030542380F81033BDE8F08160F363
:1055D000C303637023F072FBD0E90023E360A26091
:1055E00010231034C7E704EB4302BE885681002223
:1055F00002F10108043204EB4202B2F802E07645FF
:105600005FFA88F2F4D1934203D20133DBB2102B5C
:10561000CBD00131C9B21837C5E700BF983300209D
:10562000E83E00202DE9F0414FF6FF73C469038581
:105630008B7880F88530064620460D46FDF7B6FA91
:1056400023684FF6FC721A402B4B13432360EB7A0E
:10565000A3716B7BE371A888A080FFF7B7FE40B30E
:10566000637843F010036370D0E900234FF008081B
:10567000A260E360F26908F10807D419238803F4F3
:10568000804343F00103D3536A78637802F06001EA
:10569000202910D143F040036370AB7AA3702B89AB
:1056A000A4F80330AB786371063786F83070BDE834
:1056B000F0818046DEE76FF38613637049B912F01C
:1056C000100FDBB203D0022262F3C403E4E701222D
:1056D000FAE72889FFF77AFE0028DED0637843F0E6
:1056E00020036370D0E9002308F11007C4F80620F6
:1056F000C4F80A30D1E700BF0100FCFF2DE9F04FEC
:1057000085B0884601925C4A0F9E92F82E109DF853
:1057100038409DF840504FF6FE7B022907469A46D6
:10572000A6F800B091461DD11288328013B982428A
:1057300008BF012503238DF80C308DF80D50FE2392
:105740008DF80E309DF80C30002063F307009DF8B3
:105750000D3063F30F209DF80E3063F3174005B052
:10576000BDE8F08F2BB11CB34FF6FF7333800823D5
:10577000E1E74FF6F7729042F6D8FFF707FB0446D1
:10578000B0B1827ED30707D44FF481733780ADF870
:105790000C308DF80EB0D5E70278052A02D0427899
:1057A000022A05D14FF482733780ADF80C30C6E77A
:1057B00051463846FBF780F9002852D042883280A3
:1057C0001FFA82FC027990F806B051073ED5B9F86D
:1057D0003A1041454BD1130749D40721BAF1000FC4
:1057E00001D1674545D05D4528BF5D46EDB214B394
:1057F000062920D12148224AD0F8F430E31ADB10E0
:105800005A43D0F8FC3003EBC2039879C0F3C207C7
:105810002046FAF75DFF99F83530B842B8BF3846F0
:105820005B4528BF5B46DBB2984211D2A388338028
:105830008346012504213388434502D0019A9342CF
:1058400008D14FF6FE733380012103E00621C5E73E
:105850000029F0D18DF80C108DF80D5099E72146F4
:10586000F8E74FF0FE0B002CF9D00146C2E70A2101
:10587000BDE70125BBE700BF98330020E83E0020CC
:10588000CDCCCCCC30B5C5698BB004466946284632
:10589000FAF780FE9DF8142094F830309A4228D808
:1058A0000123039A84F8323053786BB96D88284607
:1058B000FFF76CFA28B1837EDB075CBF052384F811
:1058C000323025850BB030BD1178994211D902EBE9
:1058D000430148880949498F88420AD1013BDBB21C
:1058E000537002EB43039A78DB7842EA0323238563
:1058F000E8E7752384F83030E4E700BF98330020F0
:105900002DE9F34190F807808779002308F1010819
:105910005FFA88F84372764B80F8078093F82E3050
:10592000022B04460E4600F0C3803D460E2F2CD8B5
:10593000DFE807F0C9C908262633335858582B2BFF
:105940002BA7C90036F0F2FAC0F30B0060810126E4
:10595000E379B34219D8608923F0CAF9400960811C
:105960002146644834F066FC634890F85030002BC0
:105970003DD1012380F8503054302CF02DFD36E01D
:10598000B8F1010F32D0032F01D001252FE041F6ED
:105990000273438104260225DAE7062F13D1B8F1FA
:1059A000010FF2D8B8F1010F14D136F0BFFA40F66A
:1059B000627280B2B0FBF2F302FB13033F335B0071
:1059C00063810326E7E750F8343C90F84D209B783C
:1059D0009A42E6E71EB133780BB9E371D5E741F699
:1059E0000273EDE7092F06D10723837100252846AE
:1059F00002B0BDE8F081B0F84800FFF7C7F9082F02
:105A000005461CD1002333706369002B6CD1B8F1BB
:105A1000020F69D8A379082B21D12046FAF7D8FEC6
:105A2000354BADF8040093F8E032C0B2984216D27C
:105A30000198FBF743FA50B10325E571D7E7002E33
:105A4000E2D03378002BDFD10823A371DCE7E679BD
:105A5000022E04D143F609536381042578E74DB142
:105A60006E78022E06D12B7803F0FB03012B01D1B7
:105A70000023F1E736F05AFAC0F30A0060810226EB
:105A8000EBE70029B2D00B786BB1E12B14BF0126F4
:105A9000022636F04BFAE2794FF480639340013BE3
:105AA0001840608177E7012343729B02438188E7B6
