:0200000400807A
:100000000100000001015048434D00000000740051
:10001000000000010002800000028000004000009B
:1000200000000000000000000000000000000000D0
:1000300000000000000000000000000000000000C0
:1000400000000000000000000000000000000000B0
:1000500000000000000000000000000000000000A0
:100060000000000000000000000000000000000090
:100070000000000000000000000000000000000080
:100080000000000000000000000000000000000070
:100090000000000000000000000000000000000060
:1000A0000000000000000000000000000000000050
:1000B0000000000000000000000000000000000040
:1000C0000000000000000000000000000000000030
:1000D0000000000000000000000000000000000020
:1000E0000000000000000000000000000000000010
:1000F0000000000000000000000000000000000000
:1001000000000000000000000000000000000000EF
:1001100000000000000000000000000000000000DF
:1001200000000000000000000000000000000000CF
:1001300000000000000000000000000000000000BF
:1001400000000000000000000000000000000000AF
:10015000000000000000000000000000000000009F
:10016000000000000000000000000000000000008F
:10017000000000000000000000000000000000007F
:10018000000000000000000000000000000000006F
:10019000000000000000000000000000000000005F
:1001A000000000000000000000000000000000004F
:1001B000000000000000000000000000000000003F
:1001C000000000000000000000000000000000002F
:1001D000000000000000000000000000000000001F
:1001E000000000000000000000000000000000000F
:1001F00000000000000000000000000000000000FF
:10020000F0FF0020FD248000A733800083358000AC
:10021000CB388000E33A8000553B800000000000AE
:10022000000000000000000000000000F33180002A
:100230004F37800000000000F3318000F331800070
:10024000F3318000F3318000F3318000E538800025
:10025000F3318000F3318000F3318000F33180000E
:10026000F3318000F3318000F3318000F3318000FE
:10027000FD2B8000F3318000F3318000F3318000EA
:10028000F3318000F3318000F3318000F3318000DE
:10029000F3318000F3318000F3318000F3318000CE
:1002A000F3318000F3318000F3318000F3318000BE
:1002B000F3318000F3318000F3318000F3318000AE
:1002C000F3318000F3318000F3318000F33180009E
:1002D000F3318000F3318000F3318000F33180008E
:1002E000F331800000000000F3318000F8B500BF5A
:1002F000F8BC08BC9E46704719328000F8B500BFB4
:10030000F8BC08BC9E467047F53180002DE9F04FDF
:1003100085B00090019141F2100000F0B1FFAE4BAA
:10032000186000B9FEE703F0A1FADFF8ACB2AB4EFB
:1003300095E1D2F80480C6F80480019B009A4146FA
:10034000404603F005F98146002800F07F81BFB2E6
:10035000038803FB07874368426913449F4280F088
:1003600075818369002B00F0CB811A68002A00F0A8
:10037000BA819047D9F8283048EA0303D9F82C000D
:100380001840D9F81830002B00F04081DB68002BB2
:1003900000F03E812946984780B22EE15068706097
:1003A000019B009A014603F0D3F80546002800F0AF
:1003B0004D8142690088B2FBF0F76B68B9B200FB6F
:1003C00001311A44914200F24181AA69002A00F0E9
:1003D00097811168002900F07B8188476B68A86AC3
:1003E0000343E86A1840AB69002B00F01381DB6817
:1003F000002B00F01181B9B2984780B2FDE0576838
:100400007760D2F80880C6F8088002F1100AD36835
:100410000293F360C6F810A0019B009A07EB080155
:10042000384603F095F88146002800F00F81836A72
:100430001F43C36A1F40836973B11A681AB190479A
:10044000D9F8183043B15B6833B14246394650465B
:100450009847002840F0E280012D08D0022D3ED0C0
:100460000025029BAB4214BF02200020C5E0D9F852
:1004700018305BB19B680393B8F1000F60D0002582
:10048000DFF85CA13B464746984607E0002303930C
:10049000F2E7204601F0DCFC002FE2D0DAF8002081
:1004A000BA4228BF3A469146104600F0E9FE04469B
:1004B000002847D0039B4A460146404603F032F9E4
:1004C000C844A7EB0907B9F1000FE2D004EB090219
:1004D000234613F8011B0D449342FAD1D9E7D9F80A
:1004E000183053B3D3F808A04FF6FF7002F08AFC1F
:1004F000B8F1000F1DD0DFF8E8904546D9F800406C
:10050000AC4228BF2C46204600F0BAFE8046D8B147
:10051000534622460146384603F004F927442D1B72
:100520002146404602F05CFF404601F091FC002D60
:10053000E4D103F0E9FA054693E74FF0000AD3E768
:1005400045468EE700258CE700258AE750687060F5
:100550009168B160019B009A014402F0F9FF804666
:10056000002873D0836913B11B6803B1984777687B
:10057000D8F828301F43D8F82C301F40D6F8089000
:10058000D8F83040B9F1000F4AD0DFF854A0DAF8BB
:1005900000504D4528BF4D46284600F071FE0290A0
:1005A00000283FD0D8F81830A3B19B682A4602999A
:1005B000384603F0B7F82F44029B03EB95018B42BA
:1005C00010D013F8012B9442F9D0029801F040FCAE
:1005D000022012E00023E9E750AD0020F0AC00203B
:1005E00070AD0020A9EB0509029801F031FCB9F1CA
:1005F000000FCCD1002000E003203488072C13D159
:1006000040F4E020404B1860042125E00020F4E78E
:100610000020F2E70020F0E70020EEE70220ECE700
:100620000020EAE70220E8E70A2C07D02404042887
:1006300028BF02200CE00120E2E7002040F4202047
:10064000314B186000225A60082105E02404022082
:1006500020432D4B186004212B4803F06DFA42F221
:10066000107541F210042A462146DBF8000002F022
:10067000F3FB0028F7D0DBF800201768234B1F603E
:100680003C0CA3B23380BDB27580043B0D2BB3D8B4
:1006900001A151F823F000BF9D03800033038000C7
:1006A0004D05800037068000F9058000F9058000BF
:1006B0003B068000F9058000F9058000F9058000FF
:1006C000F9058000F9058000F9058000FF0380002E
:1006D000A86A0343E86A1840D368002B7FF48BAE06
:1006E00034880020A2E7806A48EA0000D9F82C206C
:1006F0001040DB68002B7FF44DAE3488002095E776
:100700003488002092E700BFD8AC00204CAD002018
:100710002DE9F04FADF2547D06460C4690461F463B
:1007200000238DF84F378DF8A73402F061FCA37ACF
:1007300094F820209A4240F0BD810DF1570525F034
:100740003F058146E17A94F82120914240F0B8813A
:10075000002B00F0B781002F40F0818000238DF83E
:10076000A734FF238DF8303755238DF81C37AA2383
:100770008DF84B37E37AA27A0DF21C710DF24F70AF
:1007800002F00EFCE37AA27A15210DF2A74002F0E6
:100790000FFDE37AA27AA3210DF2A74002F008FD33
:1007A000B94B99450CD003F19D4303F5181303F59C
:1007B0000663994504D09DF8A734B72B00F08481D7
:1007C000A37A9DF84F270DF21C710DF2EC6001F039
:1007D00067F80346002800F06E810DF2EC630DF21D
:1007E0001C722146284601F029FC0346002800F02F
:1007F000628140220021284603F05FF94FF4117214
:1008000000210DF5956003F058F9A37A022B0CBF77
:100810004FF2BC034FF2C0031B684FF411710DF58A
:1008200095609847002840F05181B8F1000F00F022
:100830008480E369C3F34F2BC3F308031BB10BF1AF
:1008400001031FFA83FBBBF1000F00F0EE8006F5F9
:1008500000764FF000080BF1FF3A059521E01022D9
:10086000DDF8781725A803F0D5F877E7E569C5F333
:1008700008030BB11D4619E04FF4007516E033462E
:100880002A4629A98148006802F08EFD034648BB2C
:1008900011E108F1010806F500761FFA88F39B457F
:1008A00049D9C146C245E1D04FF40075002FE6D0CA
:1008B00033462A46A9A97548006802F075FD25ABA4
:1008C0002A4629A9A9A801F01FFF0346002800F025
:1008D000F28010220DF5EA635919A1F2BC4125A856
:1008E00003F098F84FF290031B682A4629A90DF5EA
:1008F00095609847002840F0EB80CA45C9DD4FF26B
:1009000098031B680DF595609847002840F0E28039
:100910004FF2A0031B680DF595609847002840F042
:10092000DB804FF294031B680DF595609847002813
:10093000AFD00023BFE0059D77E0002F6AD0E369C8
:10094000C3F34F2BC3F308031BB10BF101031FFAD1
:1009500083FBBBF1000F68D006F500764FF000096D
:100960000BF1FF3A059510E0E569C5F308030BB1FB
:100970001D460FE04FF400750CE009F1010906F582
:1009800000761FFA89F39B4542D94F46CA45EBD002
:100990004FF400752A463146A9A803F03BF825AB71
:1009A0002A4629A9A9A801F0AFFE0346002800F0B5
:1009B0008280A5F110011022A9AB194425A803F0EB
:1009C00029F84FF290031B682A4629A90DF5956076
:1009D0009847002840F08280BA45CEDD4FF2980358
:1009E0001B680DF595609847002879D14FF2A00358
:1009F0001B680DF595609847002873D14FF294035A
:100A00001B680DF5956098470028B6D0434652E024
:100A1000059D0AE04FF290031B68E26906F500713C
:100A20000DF59560984700285ED14FF29C031B6836
:100A300029460DF595609847002857D14FF2A40636
:100A400033680DF595609847B0F1FF3FF8D0002866
:100A50004ED194F82030022B1AD0029304F15403A3
:100A60000193243400940DF2EC630DF21C723021DA
:100A7000284600F065FE0346E8B102F0EBF8B0FA54
:100A800080F35B0917E000BFA1A0D3EC44AD0020C8
:100A9000029304F144030193243400940DF2EC63B7
:100AA0000DF21C722021284600F04AFE0346002861
:100AB000E3D100E0002318460DF2547DBDE8F08F2D
:100AC0000023F8E70123F6E70123F4E70023F2E728
:100AD0000023F0E70023EEE70023ECE74346EAE7D4
:100AE0004346E8E74346E6E73B46E4E70023E2E720
:100AF0000023E0E72DE9F04FADF2046D074688468C
:100B000004929DF828260392019343BB00294BD001
:100B10004FF4007239460DEB020002F07BFF102209
:100B2000FCA97CA802F076FFB54B4FF400720DF5DE
:100B300080610DEB020001F0E7FD029050B1E4226C
:100B40000DF5806143A802F065FF43A802F00EFB9B
:100B5000029080BB02980DF2046DBDE8F08F032176
:100B6000A84B188801F078FCA74B1860B0F1FF3F44
:100B700000F06181B8F1000F0CD03B464FF40072D9
:100B80000DEB0201A048006802F00EFC0290002864
:100B9000C5D1DFE73B46E4220DF5806102F004FC9D
:100BA00002900028CBD1D5E7E42239460DF58060CC
:100BB00002F030FFC3E702F0BBFF944BD3F8009084
:100BC000E42249460AA802F025FF0AA802F0CEFA5C
:100BD00038B30A9B05934A9B03F50073C3F30F31A7
:100BE000C3F30B030BB1013189B2484602F030FC6C
:100BF000002840F023814A9BC3F34F2AC3F3080324
:100C00001BB10AF1010A1FFA8AFABAF1000F63D088
:100C100007F5007500260AF1FF3B4346B8461F461C
:100C20003BE04FF0FF330593D5E74FF40074002FFE
:100C30003CD0019B63B12B46224680A972480068D4
:100C400002F0B2FB48B9029084E74FF40074EEE77B
:100C50002246294680A802F0DDFE7CAB22460DF537
:100C6000806180A801F050FD002800F0EA80102289
:100C7000FCA97CA802F0CEFEA9EB0801224629447B
:100C80000DF5806002F03BF9002840F0DC80013671
:100C900005F50075B3B29A451DD9B345C5DC4A9C2C
:100CA000C4F30803002BD0D01C46C0E7019B5BB106
:100CB0002B4622460DF580615348006802F074FB14
:100CC0000028D9D1029045E7224629460DF58060DB
:100CD00002F0A0FED0E7474609F500744894059B52
:100CE0005D1E43954FF4007200210DF5806002F007
:100CF000E4FEE42243A90DF5806002F08BFE4FF480
:100D0000007249460DF5806002F0F9F8039B53BB71
:100D1000019BB3B100221146484602F027FB049B19
:100D2000834247D129213A4801F0FEF9019B002B6B
:100D300074D0354D286802F0C9FD4FF0FF332B60A9
:100D40002AE000221146384602F010FB0546002238
:100D50001146484602F00AFB85422BD12D212D4831
:100D600001F0E2F9E2E700221146484602F0FEFAFD
:100D7000049B83421ED1019B002B67D12D21254866
:100D800001F0D2F9012127F47F6020F00F0002F07A
:100D90005FFB019B002BCCD1214643A801F038FA20
:100DA000002843D10D211C4801F0BEF9204602F075
:100DB00047F9CFE6144C206802F088FD4FF0FF336E
:100DC000236000230293C5E608950F4D3B46F022B1
:100DD0000DF58261286802F0E7FA102206A90DF5E8
:100DE000806002F017FE32460DF58061286801F040
:100DF000B5FF286802F098F90028FAD0C9E700BFCB
:100E000014AD002040AD002044AD00202C388000FF
:100E1000F4108000C4108000B4108000012127F479
:100E20007F6020F00F0002F013FBB5E7142110489B
:100E300001F07AF9B6E7002302938BE600230293D0
:100E400088E6029086E60023029383E6292109487A
:100E500001F06AF927F0FF063346102206A906487A
:100E6000006802F0A1FA03460028ADD1029371E6B2
:100E70009C108000F410800044AD00202DE9F0416A
:100E8000ADF5A06D044688461E460023CDF8FC341F
:100E9000851D1746C2B9002E44D01022014686A8EF
:100EA00002F0B8FD774B102206A986A801F02CFCB1
:100EB0000546002800F0E18004220DF11E010DF22C
:100EC000FC4002F0A7FD33E003216F4B188801F0CE
:100ED000C3FA6E4B1860B0F1FF3F00F0CB80D6B183
:100EE0002346102286A902F05FFA0546002800F08A
:100EF000C480644B102206A986A801F005FC0546B3
:100F0000002800F0BA8004220DF11E010DF2FC4011
:100F100002F080FD0CE02B4604220DF2FC4102F0B1
:100F200043FA05E0012229460DF2FC4002F00AFDD9
:100F3000DDF8FC24110CC2F3072343EA02220B0262
:100F400043EA11239BB243EA0243CDF8FC34042266
:100F500041460DF2FC4002F0AFFA002840F08C80D0
:100F6000002F5AD0F6B123464FF4007286A94748A5
:100F7000006802F019FA10220DF5816102A802F052
:100F800049FD404B4FF4007206A986A801F0BCFB56
:100F90000546002871D0E42206A90DF5836002F011
:100FA00039FD07E02346E4220DF5836137480068E8
:100FB00002F0FAF90DF5836000F0C6FF054600283F
:100FC0005BD044F2640000F05BF9314B18600028FC
:100FD00047D002AB009333463A460DF58361204675
:100FE000FFF796FB054698B9002F3BD0274E24F417
:100FF0007F6121F00F01306802F0C6FC4FF44030F1
:1010000002F020FB306802F061FC4FF0FF333360E8
:101010001F4B186800F01CFF2FE0DEB14FF4007288
:10102000214686A802F0F6FC10220DF5816102A887
:1010300002F0F0FC134B4FF4007206A986A801F0F1
:1010400063FB0546C8B1E42206A90DF5836002F0F2
:10105000E1FCAFE7E42221460DF5836002F0DAFC03
:10106000A8E7FEE7012124F47F6020F00F0002F0E2
:10107000EFF9CDE7002500E0002528460DF5A06D2D
:10108000BDE8F08114AD002040AD002044AD00204B
:1010900048AD00204D434850000000005361766584
:1010A00064205365637572656420486173680D0A36
:1010B000000000004A756D7020746F204170700D43
:1010C0000A000000436F7069656420496D616765BF
:1010D0002066726F6D20496E7465726E616C20536C
:1010E0006C6F74203120746F20536C6F7420300D3E
:1010F0000A000000436F7069656420496D6167658F
:101100002066726F6D2045787420746F20496E746C
:1011100065726E616C20466C6173680D0A00000098
:10112000466F756E6420556E617574686F72697A6A
:10113000656420496D6167650D0A0000496D61674E
:10114000652041757468656E7469636174696F6E5A
:10115000204661696C65640D0A0000004175746881
:10116000656E7469636174656420496D6167650DBE
:101170000A000000466F756E6420556E61757468D4
:10118000656E7469636174656420496D616765208B
:10119000696E2045787420466C6173680D0A000002
:1011A000496D6167652041757468656E7469636136
:1011B00074696F6E206661696C656420696E204594
:1011C000787420466C6173680D0A0000417574687C
:1011D000656E7469636174656420496D616765203B
:1011E000696E2045787420466C6173680D0A0000B2
:1011F000466F756E64206E657720457865637574FB
:1012000061626C6520496D61676520696E20496E79
:101210007465726E616C20466C6173680D0A000023
:101220004E6F2056616C696420496D616765204688
:101230006F756E640D0A00004D617463682068610B
:1012400073682C204A756D7020746F204170700D8A
:101250000A0000005265637265617465642068610C
:1012600073682C204A756D7020746F204170700D6A
:101270000A0000005374617274204446550D0A0040
:101280002DE9F04F87B0039003A801F0F3FF002889
:1012900003DA002007B0BDE8F08F039B1B095D1E39
:1012A000202D0FD9023B5E4AB3F5007F35BF02EB1C
:1012B000D30302EBD31313F8045C13F8045C34BFBC
:1012C000013511350123A5F12001C5F1200203FAF2
:1012D00001F923FA02F203FA05F8D8F1000849EA05
:1012E000020969EB4909CDE90089DFF84081DFF89F
:1012F00030914746D8E90023009902EA010A019992
:1013000003EA010B5AEA0B0342D1039B05A81033F1
:10131000059302F02EFB18B9424B0C221A60B9E774
:10132000D8F80852A84206D0059B103B059301232C
:1013300000F110058360059BEA18012143F00103C9
:10134000B5F1080442F8083C42F8041CC7F808222A
:1013500045F8043C9DD0204602F05CF988B155F870
:10136000083C55F8041C23F00103E31A5A6822F0E4
:1013700001020A445A6055F8041C21F00101625030
:101380001C462046039902F074F904F1080081E735
:101390005446254BBAF1000F34D1CBF1000000EADE
:1013A0000B00434309EBD36393F83C60203630468F
:1013B00002F06CFA731C57F8334007EBC303083B89
:1013C0009C4297D0272E26DD0235AE4201DC3F2E0F
:1013D00021D16268039922F00102551A284602F0D1
:1013E0001BF8864217D1E068A6686318D8609E6033
:1013F00083609868C36041F0010060505D60A55053
:101400006060BEE7CAF100002040434309EBD363AC
:1014100093F83C60CBE73146204601F073FCB0E71F
:10142000A02B80005CAD002029E66B0700A80020FF
:10143000BCAC00201C0000000000000004AD002037
:10144000100000000000000038AD00200600000081
:101450000000000024AD00200C000000000000008F
:1014600068AD0020030000000000000030AD002047
:1014700008000000000000000080002000140000B0
:101480000000000000940020001400000000000094
:101490005CAC0020400000000000000065AD0020B2
:1014A000010000000000000040AD0020040000002A
:1014B0000000000066AD00200100000000000000F8
:1014C00067AD002001000000000000006CAD0020AE
:1014D0000400000001000000FFFFFFFF14AD00202A
:1014E00010000000000000009CAC00202000000064
:1014F0000000000044AD00200400000000000000D7
:1015000048AD002004000000000000003EAD0020B7
:10151000020000000000000064AD00200100000097
:10152000000000006BAD0020010000000000000082
:10153000F0AC002014000000000000004CAD0020C2
:10154000040000000000000050AD00200400000076
:1015500000000000D8AC00201800000000000000CF
:101560000CAA0020000200000000000070AD002066
:1015700004000000010000000010000054AD002035
:1015800004000000000000000CAC0020500000002F
:101590000000000000A800200C0200000000000075
:1015A00058AD002004000000000000005CAD0020E9
:1015B000040000000000000060AD002004000000F6
:1015C000000000000000000000000000444444440B
:1015D000F0B5EBB00DF1470424F03F04E422524B88
:1015E000196830A802F016FA30A800F0ADFC18B166
:1015F000309BB3F1FF3F58D0E4224B4B196930A820
:1016000002F008FA30A800F09FFC28B1309BB3F13B
:10161000FF3F08BF012749D00DF2A71001F064FA7F
:101620009DF8A731012B68D81B013F4AD558E42209
:10163000294630A802F0EEF905F50076224631463B
:1016400030A800F0D5F9379901F50071294411F05F
:101650000F0F1CBF21F00F0110319DF8CA30022B73
:101660000CBF202730273A4620A802F0D3F93A468B
:10167000214620A801F020FF002846D000231A466A
:101680002A492846FFF7FAFB0446002846D031468F
:1016900030A800F0BDFD0446A0B31D21244800F091
:1016A00043FD304601F0CCFC2CE000271F4D2E21DD
:1016B00005F5AE7000F038FD3B011B4AD6580023FB
:1016C0001A4629463046FFF7D9FB88B1359A369B32
:1016D0009A42A1D0002F9FD01521164800F024FD7A
:1016E000002100910B460A463046FFF703FA93E7C4
:1016F0000121304601F0ACFE8EE716210E4800F0C5
:1017000013FD002420466BB0F0BD19210B4800F0FA
:101710000BFD304601F094FC0124F3E7012128463B
:1017200001F096FEEEE700BF2C3880009410800098
:10173000541280005C11800020128000381280005A
:1017400070B59CB0534900248C60CC60524D2D681C
:101750000D6144F264064E618C61CC61199217935D
:10176000209B1593219B13931B909DF88830022B8F
:101770006FD0302318931693149312931A9341F257
:1017800019020021284602F04FF94FF218131B6886
:10179000424898470146002859D04FF270131B6801
:1017A000684698470DAD6C460FCC0FC523682B607B
:1017B0004FF278231A684FF220131B6812681199B0
:1017C00006A89847079C002C3CD1069D4FF2341385
:1017D0001C6808AB00220DA92846A0470446002833
:1017E00030D14FF230131B682846984704464FF219
:1017F000F81633680246089918A8984733682246B5
:10180000099916A89847336822460A9914A8984758
:10181000336822460B9912A89847336822460C99E0
:101820001AA898474FF23C131B68284698474FF276
:1018300044131B682846984704464FF258131B6808
:1018400028469847134B5C60B4FA84F040091CB0FA
:1018500070BD202318931693149312931A9341F298
:1018600019022146284602F0DFF84FF218131B68D0
:101870000A489847014658B14FF26C131B686846F6
:1018800098470DAD6C460FCC0FC523682B608FE7D2
:101890002046DCE79CAC002048AD0020A4AC002032
:1018A0002DE9F04198B00546884616461F460024AB
:1018B000129413944D4B1868149044F264021592DC
:1018C00016941794214602F0F8F8CDF8448030229F
:1018D0002146284602F0F1F80F95022F19D0302347
:1018E0000E9310934FF218131B6812A89847804666
:1018F000002878D0032F17D14FF270131B680146D0
:101900006846984709AD6C460FCC0FC523682B601D
:1019100016E020230E9310934FF218131B6812A8A1
:101920009847804600285CD04FF26C131B684146F4
:101930006846984709AD6C460FCC0FC523682B60ED
:101940004FF28C231A684FF220131B6812680D990E
:1019500007A89847089C002C38D1079D72074FF2C2
:1019600034131C6806AB02F0005209A92846A047B0
:10197000044658BB4FF230163368284698474FF25A
:10198000F8131B680246069910A898474FF23C13BB
:101990001B68284698474FF244131B68284698470F
:1019A00004464FF254131B6828469847074633688D
:1019B000284698474FF210231B680EAA0146386844
:1019C00098474FF258131B68284698474FF21C134C
:1019D0001B6840469847B4FA84F0400918B0BDE847
:1019E000F0812046FAE70020F8E700BF48AD00206C
:1019F0002DE9F041ADF5367D17460DF29F2424F018
:101A00003F04837A022B6FD00D46C6694022002125
:101A1000204602F052F84FF41172002107A802F09C
:101A20004CF84FF2C0031B684FF4117107A8984798
:101A30004FF03008002852D14FF290031B68324615
:101A4000294607A89847002849D14FF29C031B68F4
:101A5000214607A89847002841D14FF2A4052B68DA
:101A600007A89847B0F1FF3FF9D0002835D14022B0
:101A70000021384602F021F804AD6E464FF2D4033F
:101A80001B6800213046984796E8070085E8070064
:101A90004FF240031B68294607A89847B8B94FF290
:101AA00060031D683B464246214607A8A84780B907
:101AB0004FF264031B6807A8984760B94FF27003A0
:101AC0001B6807A89847B0FA80F0400908E000209A
:101AD00006E0002004E0002002E0002000E00020FA
:101AE0000DF5367DBDE8F0810D46C6694022002126
:101AF000204601F0E2FF4FF41172002107A801F027
:101B0000DCFF4FF2BC031B684FF4117107A8984724
:101B10004FF020088EE7704770B586B00321404B28
:101B2000188800F099FC3F4B1860B0F1FF3F74D06B
:101B30000023102202A901F037FC044608B302A8D2
:101B400000F044FF18B1049BB3F1FF3F1CD04FF4E9
:101B50000023102202A93348006801F025FC044646
:101B600078B102A800F032FF18B1049BB3F1FF3F37
:101B70003DD02C4C206801F0A9FE4FF0FF332360CC
:101B80000024204606B070BD0025264C206801F0D8
:101B90009DFE4FF0FF332360234C2B2104F1E00026
:101BA00000F0C2FAED0405F110069DF80D30003387
:101BB00018BF0123012221463046FFF75FF9044692
:101BC000B8B12221194800F0AFFA164C206801F094
:101BD0007DFE4FF0FF33236001230093BDF81420F6
:101BE0009DF80D103046FEF785FF0446C9E7012534
:101BF000CBE72A210E4800F097FA0A4E29463068B2
:101C000001F0C2FE4FF4403001F01CFD306801F0DD
:101C10005DFE4FF0FF333360B3E70024B1E700BF50
:101C200040AD002044AD002094108000CC11800015
:101C3000A011800030B5ADF2145D3F4B1D6910223C
:101C400029460DF5A06001F0E5FE0DF5A06000F05D
:101C5000BDFE044600286BD0DDF80835B3F1FF3F28
:101C600065D110359DF805359BB9E42229460DF262
:101C70001C4001F0CFFE0DF21C4001F077FA044643
:101C8000002855D0DDF81C34B3F1FF3F1DD00024EF
:101C90004EE04FF40072294607A801F0BBFE102267
:101CA00083A903A801F0B6FE244B4FF4007287A964
:101CB00007A800F029FD0446002839D0E42287A9AE
:101CC0000DF21C4001F0A6FED5E71D4C1A2104F1CF
:101CD0008C0000F029FA01F02BFF4FF0864302221E
:101CE0001A609DF80535003318BF012300222146F4
:101CF0002846FFF7C3F8044678B11521114800F0D3
:101D000013FA012300930023BDF80C259DF8051557
:101D10002846FEF7EFFE04460AE01D210A4800F0BF
:101D200003FA0121044B186901F092FB00E0002442
:101D300020460DF2145D30BD2C38800014AD00201B
:101D4000941080005C1180003C1180004FF08842AC
:101D5000D2F8003113F4007FFAD0364A536823F4E6
:101D6000704343F480535360536A13F0010FFBD068
:101D7000314AB2F8BA3423F002031B041B0CA2F858
:101D8000BA3402F50052D36823F07E0343F0040313
:101D9000D3604FF088430022C3F8B020274AC3F82D
:101DA000B02002F12B42A2F54B12A2F6AB42C3F8CF
:101DB000B02003F52063224A1A621E4A536A03F0D8
:101DC0000303032BFAD11F4B1F4A1A6001229A60AA
:101DD0001A46136813F0010FFBD11A4B48F209029F
:101DE000C3F8502140F201221A674FF400429A676B
:101DF0004FF088434FF410421A6600221A67C3F866
:101E00008020C3F890201149C3F8C010C3F8D02037
:101E100047F6FE72C3F8E0204FF03332C3F8B0202B
:101E2000044B5A6842F010025A601A6842F08072FD
:101E30001A6070470040014100200141556699AA8F
:101E4000280001C0000A004407012000CF038100E0
:101E50002DE9F84300286AD050F8043CA0F10804AA
:101E600023F00106A719A259934200D0FFDE7A6839
:101E700023681340DA070FD4204601F0CBFB00287B
:101E800057D1384601F022FC0028F0D07B6823F0BF
:101E900001031E441F44EAE746F001036360304635
:101EA0003B6001F0B9FA054601F0F0FC23687A685E
:101EB0001340DB07E0D5DFF88CE0DEE90089C5F1EF
:101EC000200CA5F1200228FA05F009FA0CFC29FAE9
:101ED00002F240EA0C001043012100EA0102002353
:101EE0001343C5F120007346A5F1200212D121FA57
:101EF00000F001FA02F2A94042EA00021EBFDEF839
:101F000000000143CEF8001022B1DEF804100A43AD
:101F1000CEF80420681C03EBC003A3F1080266603E
:101F20003E60A2605A68E2605C60E3689C60BDE865
:101F3000F883236823F00103E41A636823F00103A4
:101F40001E449EE700A800200379012B66D1036898
:101F5000002B66D0374B1A6803691B0ED2B29A4227
:101F600061D8344A1268D243D2B293425DD810B5D8
:101F70000446314B827A1978586801F0B7FA034663
:101F8000002849D02C4BE27A197AD86801F0AEFAD1
:101F90000346002840D0284B227B197C586901F069
:101FA000A5FA0346002837D0234B627B197ED869F7
:101FB00001F09CFA034678B31F4B94F8202093F865
:101FC0002010586A01F092FA034628B31A4B94F88D
:101FD000212093F82810D86A01F088FA0346D8B176
:101FE000154B94F8222093F83010586B01F07EFACC
:101FF000034688B1104B94F8232093F83810D86B1F
:1020000001F074FA034638B1E389742B0FD1637978
:10201000012B14BF00230123184610BD00231846CE
:1020200070470023FBE70023F9E70023F7E70023CD
:10203000F2E700BF042C0044343280002DE9F04761
:10204000ADF5167D07460C4690469946D1F814A08A
:102050008E7A00250D754D758D75CD7540222946FA
:1020600001F02BFD4FF41172294605A801F025FD62
:10207000022E0CBF4FF2BC034FF2C0031B684FF49B
:10208000117105A89847002842D14FF290031B68B0
:10209000742204F1100105A8984700283ED14FF2A0
:1020A0009C031B68394605A89847002838D14FF291
:1020B000A4052B6805A89847B0F1FF3FF9D088BB6D
:1020C000022E13D0A37A029304F1B403019304F116
:1020D000840300934B46424630213846FFF730FBDD
:1020E0000346B0B1C4F814A0012312E0A37A02930E
:1020F00004F1A403019304F1840300934B46424688
:1021000020213846FFF71CFB03460028EAD100E0F7
:10211000002318460DF5167DBDE8F0870023F8E78B
:102120000023F6E70023F4E72DE9F047002966D005
:102130000E460024334D344B00F1010C334FA646BC
:1021400006E007F801909A60621C013496424CD96F
:102150006A6802F00702012A1CD09968D3F80C8043
:102160004A1CD3F810904A4528BF002290453DD024
:1021700010F80490D5F8048008F00708B8F1010FB2
:10218000DFD14FEA410807F8119008F1010107F883
:1021900001E0D8E7D3F80880D96808F10102D3F844
:1021A00010904A4528BF002291421FD01CF814907D
:1021B00010F8141041EA0921D5F8049009F0070934
:1021C000B9F1010F05D0C9B207F808109A60621C76
:1021D000BBE74FEA48095FFA81FA07F818A009F14E
:1021E0000108090A07F80810F0E7144601F086FB19
:1021F00010B1044B01229A752046BDE8F0870C46C9
:10220000F4E700BF000C00405CAC0020009400200C
:102210002DE9F041ADF5835D86B007460E460DF120
:102220003F0525F03F052A46FFF7E2FB034658B37A
:10223000FC69344414F00F0F1CBF24F00F04103459
:1022400024F47F6626F00F064FF4805231461EA814
:1022500001F0E0FBBB7A022B0CBF20223022C4F33A
:102260000B049046A318B3F5805F2ED9C4F58057B0
:102270003A4629461EAB181901F0CCFB0221304624
:1022800001F0E6F830B1002318460DF5835D06B085
:10229000BDE8F0814FF4805231461EA800F02FFEB9
:1022A00008B10023F0E7A4F5805444442246E9191C
:1022B0001EA801F0AFFB224606F580511EA800F0D3
:1022C0001EFEB0FA80F35B09DEE729461EAB181943
:1022D00001F0A0FB0121304601F0BAF808B100235B
:1022E000D2E74FF4805231461EA800F008FEB0FA43
:1022F00080F35B09C8E77047F8B52A4E2A4C4EE0D8
:10230000226A002A3AD0616A236A38469847A36A4B
:102310000133226B934228BF00232FE0A06A4200C2
:10232000EFB2224901F810700132C5F307258D5430
:1023300030E001F0EFFA236A002B30D0616A94F8A4
:102340003C3033B1A36B984229D3236A00209847CD
:1023500025E0A36B984222D1236A002098471EE013
:10236000337E13F0040F1CD0B56AA36A0133226BCD
:10237000934228BF0023E26A9A42C1D0E26A9A429D
:10238000EED0726802F00702012AC7D0A26AEDB24D
:1023900006498D54A36294F83430002BC9D101272B
:1023A000DEE7F8BD000C00405CAC0020008000209F
:1023B00070B582B0254D264C264E14E0F25C8DF8A7
:1023C0000620013322699A4298BF0023E3606B68BC
:1023D00003F00703012B14BF9DF80630BDF806304B
:1023E000AB62237DBBB92B7E13F0010F2CD0A2680A
:1023F000E3689A4225D06A6802F00702012ADDD11B
:102400005A0016F813108DF806100132B25C8DF8E0
:1024100007200133D6E701F0D5FA2368002BE2D07C
:102420006168237F33B1A3699842DCD3236803201A
:102430009847D8E7A3699842D5D1236803209847E5
:10244000D1E7024B01221A7502B070BD000C0040AA
:102450005CAC00200094002038B5264B93F9023084
:10246000022B37D1234B5B68002B36D10D46044637
:102470002148002101608180662303701D4BDB68C9
:102480001B68984760B31C48992303700021417072
:10249000184BDB681B68984728B317480021016078
:1024A000818038230370134BDB681B689847E8B1C1
:1024B00015F0020F06D10F4B5A6801325A60DD70D9
:1024C000204609E0204600F033FF0028F3D14FF00A
:1024D000FF3001E04FF0FF3038BD4FF0FF30FBE739
:1024E0004FF0FF30F8E74FF0FF30F5E74FF0FF30E7
:1024F000F2E700BF04AD002038AD002008B5194B4D
:102500009847194B9847EFF3108172B6174AD2F8E3
:10251000883043F47003C2F88830BFF34F8FBFF3A5
:102520006F8F01B962B6124A936823F0010393607A
:102530001346DA6812F0010FFBD10D4B24225A60CA
:1025400001229A6001F004FB0A4B23F07F03074A43
:102550009360094B9847094B9847094B984701F0FE
:10256000B3FAFEE7F3328000F332800000ED00E0C2
:102570000020004100028000452B8000F3328000E3
:10258000F33280002DE9F0411C4AD36A956A89B381
:102590000E46AB4208BF002227D00122DFF864C0FC
:1025A000174CA0F1020E0138144F0CE0E15C81548D
:1025B0000133396B994298BF0023B24214D2511CA7
:1025C000AB4212D00A46DCF8041001F007010129E1
:1025D000ECD1590014F813800EF812800131615CBF
:1025E00000F812100133E4E71D46044BDD6210468B
:1025F000BDE8F0811D460A46F7E700BF5CAC00204D
:1026000000800020000C00401C4B1D4A1A604FF651
:10261000A0029A814FF440325A601A46D369002BC7
:10262000FCD1164A136843F002031360D369002BF0
:10263000FCD1144B00221A629A62DA6283F83420C9
:1026400083F83C209A63DA871A609A60DA601A7518
:102650001A779A61094B5B6803F00703012B094B5A
:1026600014BF4FF4A0524FF420621A631A61034B57
:1026700080229A7504229A75704700BF000C0040B2
:10268000040110405CAC002008B54FF088431B6982
:1026900013F4003F07D14FF088434FF400329A61A2
:1026A000154B01221A704FF088434FF480329A6123
:1026B000FFF74CFB114B186820F49F7020F00100CD
:1026C0004FF2D0231B6840F012009847FFF713FE2B
:1026D00001F08AF8FFF71FFAFFF796FF01F05EF9A5
:1026E0000749002000F0DCFF064B186001F012FAE9
:1026F00000F0CCF908BD00BF65AD00200024014406
:10270000403B800040AD00202DE9F041BEB00546C1
:102710000F46164698464FF0864302221A606C46D2
:102720004FF2D0031B68174A1021204698473BAB55
:1027300094E8070083E807004FF24C021468424611
:10274000194604A8A04700B1FEE74FF260031C68D9
:102750003B463246294604A8A04700B1FEE74FF2A7
:1027600064031B6804A8984750B94FF270031B68B4
:1027700004A89847B0FA80F040093EB0BDE8F08167
:102780000020FAE77C3A8000F8B50F4616461C4652
:102790001A46012100F08AFB0546D0B144F0806161
:1027A00006F00302032E16D81ABB4FF08443DA69F1
:1027B000BFF34F8FBFF36F8F114A1A601A46D36968
:1027C00013F4806FFBD04FF08442D36943F48063ED
:1027D000D3612846F8BDB00801383C46A1EB070C90
:1027E00054F80C3044F8043B0138B0F1FF3FF7D106
:1027F000DAE726F003000144384401F0D9F8D4E7C1
:1028000002000001F8B50F4616461C461A46032181
:1028100000F04CFB0546C8B144F0806006F00302AE
:10282000032E15D812BBBFF34F8FBFF36F8F4FF03E
:102830008443124A1A601A46D36913F4806FFBD09E
:102840004FF08442D36943F48063D3612846F8BDD6
:10285000B408013C3946A0EB070C0B6841F80C307A
:102860000431013CB4F1FF3FF7D1DBE726F003066A
:10287000B919304401F09CF8D5E700BF020000010F
:1028800008B5194B1B7813B1012B04D008BD164BAA
:1028900001221A70FAE7154B10225A601B6A13F0D6
:1028A000100F06D10B211248FFF73EFC00F0FEFF8F
:1028B000FEE74FF0864302221A60FFF72DF9FFF77B
:1028C000B9F9FEF785FE0028F2D14FF4403000F050
:1028D000B9FE084B1B78002BEAD04FF088434FF429
:1028E00000325A61E4E700BF64AD0020002A0044D2
:1028F0007412800065AD00202DE9704F21F0FF01BA
:1029000012F0FF0F07D05442D3B2E4B258BF634273
:10291000D21A02F58072164602EB010900EB02089A
:102920000F4DA9EB060AA8EB060B002E0EDD28685A
:1029300000F0FAFB04460128F9D1524659462868AE
:1029400000F00CFA48B1A6F58076EAE7044C20685E
:1029500000F0EAFB0028FAD000242046BDE8708F82
:102960006CAD00200010000400000001FFFF070014
:10297000020000002C388000FFFF0700EC398000C7
:102980000000000000000000000000000000000146
:10299000FFFF0701FFFFFFFF001000010000000024
:1029A000FFFF7F00020000004C388000FFFF7F0027
:1029B000003A80000000000000000000000000005D
:1029C00000000000FFFF7F00FFFFFFFF30B583B076
:1029D000044603680193042213490DEB020000F042
:1029E0006BFDC0B92379012B18D1A379012B17D81E
:1029F000A568BDB1A060631E04F10D0113F8012F9D
:102A0000104480B28B42F9D1A560E389834214BFA0
:102A10000020012000E0002003B030BD0020FBE7D3
:102A20000020F9E70020F7E79410800070B5144B00
:102A3000144A0021934206D3134A0025D2E90031FB
:102A400023B919B970BD03F8011BF3E7946858184E
:102A50000C3294B11446834208D111F0030318BF1D
:102A6000012303EB910102EB8102E7E714F8016B0C
:102A700003F8016BEFE703F8015B8342FBD1DDE76D
:102A8000008000200080002030148000144BDA68A1
:102A900022F4E0621204120C42F0BF6242F40032EF
:102AA000DA60BFF35F8F62B60E4AE02182F803134B
:102AB0000820106082F80C134FF4805111605A6A9C
:102AC00042F480225A625A6942F010025A615A6AEC
:102AD00042F400325A625A6A42F480325A627047B3
:102AE00000ED00E000E100E030B5BBB00546FF239B
:102AF0000370E422124B196801A800F08BFF01A8B3
:102B000000F034FB30B1019CB4F1FF3F04D000234E
:102B10002B7001E04FF0FF34E422094B196901A842
:102B200000F078FF01A800F021FB28B1019BA3422F
:102B300002D201222A701C4620463BB030BD00BFA5
:102B40002C3880000E4A38B5002313600D4A0E4C15
:102B500013600E4A0E4D13600E4A13600E4A136046
:102B60000E4A536213610123936000F0F4FF00F0FA
:102B7000F2FFAC4200D338BD54F8043B9847F8E765
:102B800058AD002018AC0020F802800014AC0020E2
:102B9000FC0280000CAC002010AC00201CAC00201B
:102BA00020212223242425252626272728282828D3
:102BB000292929292A2A2A2A2B2B2B2B2C2C2C2C6D
:102BC0002C2C2C2C2D2D2D2D2D2D2D2D2E2E2E2E35
:102BD0002E2E2E2E2F2F2F2F2F2F2F2F00011702AB
:102BE0001D1813031E1B190B1408040D1F161C12AD
:102BF0001A0A070C1511090610050F0E08B5144B1B
:102C00009B7DF3B1124A137EDBB2927D12F0800FEE
:102C100018D10F4A137EDBB2927D12F0010F04D05F
:102C200013F0010F01D0FFF7C3FB094A137EDBB29B
:102C3000927D12F0040F04D013F0040F01D0FFF7BF
:102C40005BFB08BD13F0800FE3D000F047FAE0E72C
:102C5000000C004010B54FF240131B68114A106879
:102C60009847044678B1032819D04FF258131B68CF
:102C70000C4A106898474FF21C131B680A4A1068E8
:102C8000984702240BE04FF258131B68054A10685E
:102C900098474FF21C131B68034A10689847204658
:102CA00010BD00BF9CAC002048AD0020114B9B5CC8
:102CB0002BB902B170470370FF230B7070470E4AA7
:102CC00012780270D2430A709A1ED2B2012BF1D050
:102CD00030B40A4DAD1A0A4B02781C7822430270B8
:102CE00013F801490A7822EA04020A709D42F3D1DE
:102CF00030BC70474C3B8000552C0044532C0044A2
:102D0000542C004470B5D0E90245A54217D10122E8
:102D1000A1F12003C1F1200622FA06F602FA03F31C
:102D200033438A40DB43D6431AB10B490A68324029
:102D30000A605A1C1FBF084A51680B405360436821
:102D4000AC6043F0010223F00103E5604260C25829
:102D500042F00102C25070BD00A80020B0F1FF3F58
:102D60001ED02DE9F0411546884600F019FD0346B6
:102D700010B91846BDE8F0810B480023036043609A
:102D800083600227077006238370084EF3681C696E
:102D90002B464FF480724146A04703463772E8E75E
:102DA00000231846704700BF24AD002004AD00206A
:102DB00038B50D4603784FF08444636383781B0471
:102DC00003F4F81341780B4343F09003A363A36B20
:102DD0004FF08061284600F0EBFDBFF34F8FBFF34B
:102DE0006F8F074B23602246D36913F4806FFBD0AB
:102DF0004FF08442D36943F48063D361012038BD2E
:102E000002000001F0B4124B1880124800F58067F0
:102E10000022164641F2210506E040F8043F02F583
:102E2000807292B2B84210D011460824334683EA29
:102E3000010C1CF4004F14BF85EA43035B009BB2F6
:102E4000490089B2013CF2D1E7E7F0BC704700BF0E
:102E50003EAD002008AA00202DE9F04780460F462D
:102E6000914600F003FE3E46D7B100260E4C4D467B
:102E70004FF0010A09E04B4512D85146FFF782FB9B
:102E8000002323700136B7420AD008EB06002378EE
:102E9000002BF2D101332278002AECD1AB42F9D9D0
:102EA0003046BDE8F08700BF6BAD002010B44FF096
:102EB000844422634278037843EA0243636383785D
:102EC0008288134382791AB10289134343F0400385
:102ED000827A0AB143F48043090301F44051194353
:102EE000C37A1B0403F4F813194341F0B0014FF007
:102EF000844399639B6B01205DF8044B70472DE977
:102F0000704321F00F0112F00F0F08D0544202F06D
:102F10000F0304F00F0458BF6342D21A1032144654
:102F200056188518A6EB0409A5EB0408002C0ADD49
:102F300000F094FD0028FBD14946404600F008FC13
:102F400020B1103CEEE70020BDE870830120FBE7D4
:102F50002DE9704380460E46104D4FF4403996B12E
:102F6000286800F0E1F804460128F9D141462868B4
:102F700000F00AFD70B1013EB6B208F5805848462F
:102F800000F060FBEBE7054C206800F0CDF800286E
:102F9000FAD000242046BDE8708300BF6CAD00204D
:102FA000032A00D9FEE770B50C4605460D4B9E5C22
:102FB00030220021204600F080FD731EDBB256B1A6
:102FC00001332344224608492144881A007802F834
:102FD000010B9A42F9D1054B1B68C3F300432B70D8
:102FE00070BD00BF4C3B8000552C0044002C0044B9
:102FF0000F4B1B684FF08242907800F00100C3F342
:103000008113013B022B0BD8A2F1B062A2F5CA22B8
:10301000A2F2FF62074B002814BF10461846704703
:10302000054A064B002814BF10461846704700BFDB
:10303000002C0044A1A0D3EC4A68A55ABF29BC8E3D
:1030400038B5046845684FF4403000F0FBFA0E4A8A
:10305000136823F0020313600C4B1B7823B14FF06D
:1030600088434FF400325A61074AD369002BFCD1E0
:103070004FF0864300221A60B4F1FF3F02D084F380
:103080000888284738BD00BF000C004065AD00200F
:1030900010B503784FF084446363437843F40253DC
:1030A00043F01003A363A36B4FF0806000F080FC3B
:1030B000BFF34F8FBFF36F8F074B23602246D36957
:1030C00013F4806FFBD04FF08442D36943F48063E4
:1030D000D361012010BD00BF0200000108B5104BF4
:1030E0005B8B13F0070300D108BD0E4AD3870C4B4E
:1030F00080221A7607225A831B7E13F0040F05D014
:10310000074B9A6A1A7E12F0040FFAD1054B1B6A1C
:10311000002BE9D0034B596A1B6A02209847E3E76A
:10312000000C00405CAC002000B583B000238DF89B
:103130000730B0F1FF3F13D00B4B1B7A012B0BD0A4
:1031400001220DF1070100F035FA58B19DF8073062
:1031500083F0010303F00103184603B05DF804FB9C
:103160000223F9E70223F7E704AD002010B582B08F
:103170000446D0F80630190CC3F3072242EA0322B2
:103180000B0243EA11239BB243EA02430193042258
:1031900006490DEB020000F08FF910B1002002B0DB
:1031A00010BD2046FEF7D0FEF9E700BF9410800066
:1031B00030B583B005460C4600218DF807108DF818
:1031C00006100DF106010DF10700FFF76FFD9DF8E8
:1031D00007109DF80620CB43DBB2934200D0FEE7F8
:1031E00009B9FF2A01D003B030BD2B781C432C70E5
:1031F000F9E7FEE710B5054C227832B9044B13B15C
:103200000448AFF300800123237010BDBCAC002044
:10321000000000000000000008B5034B1BB103498B
:103220000348AFF3008008BD00000000C0AC0020E0
:103230000000000003000000483B80000100000087
:1032400067AD00200100000066AD00200100000015
:1032500067AD002003000000483B80000100000033
:1032600067AD00200100000066AD002001000000F5
:1032700067AD00200C4A036810B5546A0B4A591E0A
:10328000121B8A420AD22BB1094B0C221A604FF052
:10329000FF3010BD102202600020FAE7173323F040
:1032A0000F030360F8E700BF1CAC0020EFFFFF7FB7
:1032B0005CAD0020837833B14FF084431963838879
:1032C00043F0200100E0002103784FF08442536373
:1032D00043780B4343F010039363D36913F4806F77
:1032E000FBD04FF08442D36943F48063D361012063
:1032F0007047704738B504460D4600F051FA034652
:1033000078B10948047006234370012383700023B9
:103310008380064CE3681B682946984703460322CE
:103320002272184638BD00BF38AD002004AD002021
:1033300008B5B0F1FF3F11D000F032FA034670B18A
:1033400008480021C0F80210982303700623437038
:10335000054BDB681B689847034600E000231846CE
:1033600008BD00BF38AD002004AD002030B5ADF57C
:10337000017D04464FF400720146684600F04AFBA6
:10338000079D002305934FF6FF724FF4F87104A8D0
:1033900000F0C5F80246294604F5007000F0BFF8B9
:1033A0000DF5017D30BDFEE7B0F1FF3F11D038B51E
:1033B000094800240460446084600B2404700624DF
:1033C0008470C472054CE568ED68A8470123237238
:1033D00038BD0020704700BF24AD002004AD0020A0
:1033E000A1B110B40A4B1B8841180A4C10F8012BEC
:1033F00082EA132254F8222082EA03239BB28842F5
:10340000F4D1034A13805DF8044B7047704700BF46
:103410003EAD00200CAA002000090138202813D955
:10342000B0F5007F05D2094B03EBD00010F8040C77
:103430007047B0F5E05F06D8044B03EBD01010F8EE
:10344000040C103070473F20704700BFA02B800055
:1034500038B505460C46C0F30B037BB964B100F0E8
:10346000FDFA0028FBD1284600F035FB40B1013CB5
:10347000A4B205F58055F1E7002000E0022038BD38
:103480000120FCE72DE978410D4690461E46094C87
:103490002068FFF749FE0028FAD043463246294605
:1034A00004480068FFF780FF80F00100C0B2BDE86B
:1034B000788100BF6CAD0020B2B130B415460478FD
:1034C0000A7894420AD1034628440138834209D03D
:1034D00013F8014F11F8012F9442F7D0121BD0B20C
:1034E00030BC70470020FBE70020704799B110B452
:1034F0000C46034613F8011B91420ED0204498421B
:1035000005D013F8014B9442F9D1012000E00020CE
:103510005DF8044B7047002070470120F8E7A9B11F
:1035200010B4411810F8013B83EA122383EA131305
:103530009CB243EA022383EA043383EA44139AB237
:103540008142EFD110465DF8044B7047104670473A
:10355000ABB1F0B405461E46043A002402E0013443
:10356000B44209D052F8040F4368AB42F7D8476918
:103570003B448B42F3D300E00020F0BC70470020B6
:103580007047FEE7B0F1FF3F0DD008B50748AF2305
:1035900003700623437002238370054BDB685B686E
:1035A0000322984708BD0020704700BF68AD002087
:1035B00004AD0020B0F1FF3F0DD008B5074805234A
:1035C00003700623437002238370054BDB685B683E
:1035D000D2B2984708BD0020704700BF68AD0020F8
:1035E00004AD002038B5EFF3108572B6084C2063A7
:1035F0004FF4804363600F2262601140A160A360BA
:1036000000F0E0F84FF40043A36085F3108838BD64
:103610000006004470B505462C68E30701D500207C
:103620000FE02046FFF7F8FE064600F02FF9286865
:10363000A042F1D120F00100281A3146FFF762FBC9
:10364000012070BD80B485B000AF78600023FB60BE
:1036500005E0FB68013BFB60FB680233FB60FA6836
:103660007B689A42F5D300BF1437BD465DF8047BF2
:103670007047426822F00102531A102B30B40DD962
:10368000441841F0010543F0010345506360835045
:10369000456004F1080030BCFEF7DABB30BC70476F
:1036A000094B1B786BB910B4074B00229A700124A8
:1036B0001C705A600A68DA6002229A705DF8044B46
:1036C00070474FF0FF30704704AD002070B50546DD
:1036D0006C68E30701D500200DE02046FFF79CFE53
:1036E000064600F0D3F86B68A342F1D12846314674
:1036F000FFF708FB012070BD074B1968024609B9A6
:10370000064919601868064902448A4294BF1A6043
:103710004FF0FF30704700BF60AD002078AD002053
:1037200078F1002093B1F8B51F4616460D460446C1
:103730000021284600F0B2F93346224629460020EF
:10374000B84700280CBF28460020F8BD7047FEE7A8
:1037500008B5024608461168064B19645168196598
:1037600091681966D2681A670221FFF73BFF0120B2
:1037700008BD00BF0006004408B5074B1B68B3F145
:10378000FF3F00D008BD0321044B1888FEF764FEFC
:10379000014B1860F6E700BF6CAD002040AD002083
:1037A00008B506480021C0F80210062303704370D4
:1037B000034BDB681B68984708BD00BF38AD00208D
:1037C00004AD0020064B00221A62064A1A6202F17A
:1037D0002B42A2F54B12A2F6AB421A62704700BF11
:1037E00000060044556699AA4FF0844301221A60EE
:1037F00040F201625A604FF440729A6002221A60ED
:103800001A46136A13F0020FFBD0704700B583B05D
:1038100001A9054B1868FFF7B5FE18B9002003B0E1
:103820005DF804FB0198FAE76CAD00200000000190
:103830000000040000000800010000000000040176
:103840000000040000000000010000000000000073
:103850000000080000000000000000000000080058
:1038600000000800000000000000000008B5012171
:10387000084600F05BF8012000F034F9002102480E
:1038800000F036F908BD00BF8D3A8000064B0130CC
:1038900053F830203AB9C100A1F108021A44194482
:1038A00043F830204A60704700A8002000B58DB072
:1038B000684600F053F8009B23B19DF82C10684631
:1038C00000F01CF90DB05DF804FBFEE7B0F1FF3F1E
:1038D00005D0034B5B6813B1013B014A536070474D
:1038E00004AD002008B5044B1B681BB1024B58689F
:1038F0001B68984708BD00BF30AD0020044A93689C
:10390000D06883423EBF024A12699B18181A70475A
:103910005CAC0020044BD86A9B6A984282BF024A82
:10392000126B9B18181A70475CAC0020044B93F87C
:10393000342083F8340083F83C101046704700BFF1
:103940005CAC0020531E42B1043851F8042B40F8FF
:10395000042F013BB3F1FF3FF7D1704710B5044688
:1039600000F0E2F8206034306060022384F82C30EC
:1039700010BD0068002808B501DA002008BDFFF777
:10398000BBFE431CFAD1F8E7B0F1FF3F04D008B505
:103990002020FFF7AFFC08BD0020704708B5034B9F
:1039A000186B0021FFF71EFE08BD00BF0006004493
:1039B0003AB10139821811F8013F00F8013B9042F9
:1039C000F9D1704710B5034B1C69FFF797FF013C15
:1039D000201A10BD5CAC0020B5328000B12D8000F3
:1039E000913080008927800005288000313B8000CD
:1039F000FF2E8000AD3A800051348000453B8000AE
:103A000079378000F928800085348000512F8000AC
:103A10000D3880003AB101388A1811F8013B00F8DE
:103A2000013F9142F9D17047531E2AB140F8041B5F
:103A3000013BB3F1FF3FF9D1704710B500239A4223
:103A400000D110BDCC5CC4540133F8E708B513466F
:103A50000A461946FFF7F1FF012008BD024B18681E
:103A6000C0F3C030704700BF00060044024BD88F3F
:103A70000022DA87704700BF5CAC0020AABBCCDD17
:103A8000EEFF0011223344556677889910B9024B36
:103A900001221A70704700BF6BAD0020024403463C
:103AA000934200D1704703F8011BF9E708B50846B7
:103AB0001946FFF7CBFF002008BD22B1821800F89D
:103AC000011B8242FBD1704708B50020FEF7DCFDE8
:103AD00000F026F8FCE708B50421FFF783FD01207C
:103AE00008BDFEE708B1014A906370475CAC002056
:103AF000014B1862596270475CAC002008B511B1E7
:103B000008B1FCF703FCFEE7014B1888704700BFC3
:103B10003EAD0020014B00221A70704764AD0020BA
:103B200008B5FEF7ADFE08BD004870476429800067
:103B300008B5FFF733FF08BD08B5FEF7F5FA08BD75
:103B4000D8398000002070470302000000002030B8
:083B5000FEF76CBFFEE77047B1
:00000001FF
