:0200000400807A
:100000000100000001015048434D00000000740051
:10001000000000010002800000028000004000009B
:1000200000000000000000000000000000000000D0
:1000300000000000000000000000000000000000C0
:1000400000000000000000000000000000000000B0
:1000500000000000000000000000000000000000A0
:100060000000000000000000000000000000000090
:100070000000000000000000000000000000000080
:100080000000000000000000000000000000000070
:100090000000000000000000000000000000000060
:1000A0000000000000000000000000000000000050
:1000B0000000000000000000000000000000000040
:1000C0000000000000000000000000000000000030
:1000D0000000000000000000000000000000000020
:1000E0000000000000000000000000000000000010
:1000F0000000000000000000000000000000000000
:1001000000000000000000000000000000000000EF
:1001100000000000000000000000000000000000DF
:1001200000000000000000000000000000000000CF
:1001300000000000000000000000000000000000BF
:1001400000000000000000000000000000000000AF
:10015000000000000000000000000000000000009F
:10016000000000000000000000000000000000008F
:10017000000000000000000000000000000000007F
:10018000000000000000000000000000000000006F
:10019000000000000000000000000000000000005F
:1001A000000000000000000000000000000000004F
:1001B000000000000000000000000000000000003F
:1001C000000000000000000000000000000000002F
:1001D000000000000000000000000000000000001F
:1001E000000000000000000000000000000000000F
:1001F00000000000000000000000000000000000FF
:10020000F0FF0020ED208000AB2C80002B30800020
:1002100063318000333480008B34800000000000A4
:100220000000000000000000000000001F388000F7
:10023000EB308000000000001F3880001F38800075
:100240001F3880001F3880001F38800075368000FE
:100250001F3880001F3880001F3880001F38800042
:100260001F3880001F3880001F3880001F38800032
:10027000012A80001F3880001F3880001F3880004E
:100280001F3880001F3880001F3880001F38800012
:100290001F3880001F3880001F3880001F38800002
:1002A0001F3880001F3880001F3880001F388000F2
:1002B0001F3880001F3880001F3880001F388000E2
:1002C0001F3880001F3880001F3880001F388000D2
:1002D0001F3880001F3880001F3880001F388000C2
:1002E0001F388000000000001F388000F8B500BFF4
:1002F000F8BC08BC9E46704751308000F8B500BF7E
:10030000F8BC08BC9E4670472D3080002DE9F04FA8
:1003100085B00190029141F2100002F089FAAF4BD2
:10032000186000B9FEE703F03FF9AC4EDFF8B8B251
:100330009AE1D2F80480AA4BC3F80480029B019A88
:100340004146404602F0E5FF8146002800F08381E7
:10035000BFB2038803FB07874368426913449F4287
:1003600080F079818369002B00F0CE811A68002A21
:1003700000F0BC819047D9F8283048EA0303D9F847
:100380002C001840D9F81830002B00F04481DB68AD
:10039000002B00F042812946984780B231E1506835
:1003A0008F4B5860029B019A014602F0B2FF05464E
:1003B000002800F0508142690088B2FBF0F76B68BA
:1003C000B9B200FB01311A44914200F24481AA699A
:1003D000002A00F099811168002900F07B8188478C
:1003E0006B68A86A0343E86A1840AB69002B00F009
:1003F0001681DB68002B00F01481B9B2984780B2F7
:10040000FFE05768764B5F60D2F80880C3F8088039
:1004100002F1100AD2680392DA60C3F810A0029BBE
:10042000019A07EB0801384602F073FF8146002865
:1004300000F01181836A1F43C36A1F40836973B14F
:100440001A681AB19047D9F8183043B15B6833B1D4
:100450004246394650469847002840F0E480012D36
:1004600008D0022D3CD00025039BAB4214BF0220D4
:100470000020C6E0D9F818304BB1D3F808A0B8F185
:10048000000F5FD000253B464746984607E04FF0F7
:10049000000AF4E7204602F085FD002FE4D0514B1E
:1004A0001A68BA4228BF3A469146104602F0C0F98F
:1004B0000446002848D053464A460146404602F0CA
:1004C000CFFFC844A7EB0907B9F1000FE2D004EB56
:1004D0000902234613F8011B0D449342FAD1D9E7D0
:1004E000D9F818305BB3D3F808A04FF6FF7002F0CC
:1004F00089FBB8F1000F1ED0DFF8E890454600BF39
:10050000D9F80040AC4228BF2C46204602F090F9B2
:100510008046D8B1534622460146384602F0A0FF35
:1005200027442D1B2146404602F054FE404602F06F
:1005300039FD002DE4D103F0CDF9054694E74FF0E5
:10054000000AD2E745468FE700258DE700258BE7B7
:100550005068234B586091689960029B019A01444E
:1005600002F0D7FE8146002875D0836913B11B685D
:1005700003B198471A4B5F68D9F828201743D9F878
:100580002C201740D3F808A0D9F83040BAF1000F5A
:100590004BD0144B1D68554528BF5546284602F0E0
:1005A00047F98046002842D0D9F81830A3B19B689B
:1005B0002A464146384602F053FF2F4408EB950186
:1005C00043468B4212D013F8012B9442F9D0404697
:1005D00002F0E8FC022014E00023E9E75485002043
:1005E000F88400207485002050850020AAEB050ABD
:1005F000404602F0D7FCBAF1000FCAD1002000E05B
:100600000320434B1C88072C13D140F4E020414BBE
:100610001860042125E00020F3E70020F1E7002026
:10062000EFE70020EDE70220EBE70020E9E70220FA
:10063000E7E70A2C07D02404042828BF02200CE096
:100640000120E2E7002040F42020324B1860002215
:100650005A60082105E02404022020432D4B186035
:1006600004212C4803F052F942F2107241F21001B9
:10067000306802F09DFA0028F6D032681768CBF88F
:1006800000703C0CA3B222490B80BDB24D80043BEC
:100690000D2BB5D801A151F823F000BF9F038000B6
:1006A0003303800051058000410680000106800070
:1006B00001068000450680000106800001068000DA
:1006C000010680000106800001068000010680000E
:1006D00003048000A86A0343E86A1840D368002B2B
:1006E0007FF48BAE0A4B1C880020A4E7806A48EA9E
:1006F0000000D9F82C201040DB68002B7FF44BAEB3
:10070000034B1C88002096E7014B1C88002092E7D1
:10071000F8840020CC8400202DE9F04FADF2547D08
:1007200080460C4617461E4600238DF84F378DF83D
:10073000A73402F00BFBA37A94F820209A4240F0F1
:10074000B9810DF1570525F03F058146E17A94F80E
:100750002120914240F0B481002B00F0B381002EA3
:100760007CD100238DF8A734FF238DF83037552333
:100770008DF81C37AA238DF84B37E37AA27A0DF255
:100780001C710DF24F7002F0B9FAE37AA27A1521CA
:100790000DF2A74002F028FCE37AA27AA3210DF221
:1007A000A74002F021FCB84B99450CD003F19D43C2
:1007B00003F5181303F50663994504D09DF8A73493
:1007C000B72B00F08181A37A9DF84F270DF21C71A1
:1007D0000DF2EC6000F01AFF0346002800F06B8178
:1007E0000DF2EC630DF21C722146284601F0DEF991
:1007F0000346002800F05F8140220021284603F0D4
:100800001FF84FF4117200210DF5956003F018F8F0
:10081000A37A022B0CBF4FF2BC034FF2C0031B683C
:100820004FF411710DF595609847002840F04E8106
:10083000002F00F08180E369C3F34F2AC3F308035C
:100840001BB10AF1010A1FFA8AFABAF1000F00F08F
:10085000EC8008F5007B002705951FE01022DDF8ED
:10086000781725A802F042FF7BE7E569C5F3080386
:100870000BB11D4619E04FF4007516E05B462A46A1
:1008800029A98248006802F06DFC034648BB12E1CA
:1008900001370BF5007BBBB29A454BD90AF1FF3803
:1008A000B946B845E1D04FF40075002EE6D05B465E
:1008B0002A46A9A97548006802F054FC25AB2A46CF
:1008C00029A9A9A801F09EFD0346002800F0F380A5
:1008D00010220DF5EA635919A1F2BC4125A802F0D6
:1008E00005FF4FF290031B682A4629A90DF5956074
:1008F0009847002840F0EC80C845C9DD4FF29803C6
:100900001B680DF595609847002840F0E3804FF292
:10091000A0031B680DF595609847002840F0DC8027
:100920004FF294031B680DF5956098470028AFD0EF
:100930000023C0E0059D78E0002E6BD0E369C3F38F
:100940004F2AC3F308031BB10AF1010A1FFA8AFAFE
:10095000BAF1000F69D008F5007B4FF0000805954B
:1009600010E0E569C5F308030BB11D4611E04FF433
:1009700000750EE008F101080BF5007B1FFA88F303
:100980009A4545D90AF1FF36C1464645E9D04FF4AC
:1009900000752A465946A9A802F0A8FE25AB2A46AA
:1009A00029A9A9A801F02EFD0346002800F08380A4
:1009B0000DF5EA6359191022A1F2BC4125A802F0F5
:1009C00095FE4FF290031B682A4629A90DF5956004
:1009D0009847002840F082804E45CBDD4FF29803C7
:1009E0001B680DF595609847002879D14FF2A00358
:1009F0001B680DF595609847002873D14FF294035A
:100A00001B680DF5956098470028B3D03B4652E02F
:100A1000059D0AE04FF290031B68E26908F500713A
:100A20000DF59560984700285ED14FF29C031B6836
:100A300029460DF595609847002857D14FF2A40339
:100A40001B680DF595609847B0F1FF3FF6D0002880
:100A50004ED194F82030022B1AD0029304F15403A3
:100A60000193243400940DF2EC630DF21C723021DA
:100A7000284600F06DFC0346E8B101F0EDFFB0FA46
:100A800080F35B0917E000BFA1A0D3EC48850020EC
:100A9000029304F144030193243400940DF2EC63B7
:100AA0000DF21C722021284600F052FC034600285B
:100AB000E3D100E0002318460DF2547DBDE8F08F2D
:100AC0000023F8E70123F6E70123F4E70023F2E728
:100AD0000023F0E70023EEE70023ECE73B46EAE7DC
:100AE0003B46E8E73B46E6E73346E4E70023E2E738
:100AF0000023E0E72DE9F04FADF2FC5D804689462A
:100B000002929DF8202601929A4623BB002945D0E7
:100B10004FF4007241467EA802F0E8FD1022FAA9C7
:100B20007AA802F0E3FDB34B4FF40072FEA97EA851
:100B300001F068FC009048B1E422FEA941A802F04F
:100B4000D5FD41A802F00CFA009068BB00980DF2A8
:100B5000FC5DBDE8F08F0321A74B188801F02EFA49
:100B6000A64B1860B0F1FF3F00F05481B9F1000FBF
:100B70000BD043464FF400727EA9A048006802F0F3
:100B8000F1FA00900028C9D1E0E74346E422FEA92B
:100B900002F0E8FA00900028CED1D7E7E4224146DF
:100BA000FEA802F0A3FDC7E702F0A8FE944BD3F81D
:100BB00000B0E422594608A802F098FD08A802F007
:100BC000CFF9F8B1089B0393489B03F50073C3F377
:100BD0000F31C3F30B030BB1013189B2584602F058
:100BE000DDFA002840F01981489BC3F34F27C3F377
:100BF00008030BB10137BFB2002F5DD008F50075B7
:100C000000263BE04FF0FF330393DDE74FF4007421
:100C1000B9F1000F3CD0BAF1000F0CD02B462246A0
:100C20007EA97648006802F09DFA48B900908DE7E9
:100C30004FF40074ECE7224629467EA802F056FDE8
:100C40007AAB2246FEA97EA801F0DCFB002800F06A
:100C5000E7801022FAA97AA802F048FDABEB080160
:100C600022462944FEA801F041FE002840F0DA8027
:100C7000013605F50075B3B29F421DD97B1EB34204
:100C8000C4DC489CC4F30803002BD1D01C46BFE74A
:100C9000BAF1000F0AD02B462246FEA95748006839
:100CA00002F060FA0028D9D100904FE72246294689
:100CB000FEA802F01BFDD1E70BF500744694039BE0
:100CC0005D1E41954FF400720021FEA802F0B8FDB0
:100CD000E42241A9FEA802F009FD4FF40072594632
:100CE000FEA801F003FE019B5BBBBAF1000F16D01A
:100CF00000221146584602F017FA029B834247D160
:100D00002921404801F03EF8BAF1000F64D03B4D74
:100D1000286802F0A3FC4FF0FF332B602AE000228A
:100D20001146404602F000FA054600221146584698
:100D300002F0FAF985422BD12D21334801F022F837
:100D4000E2E700221146584602F0EEF9029B834288
:100D50001ED1BAF1000F68D12D212B4801F012F8F5
:100D6000012128F47F6020F00F0002F017FABAF199
:100D7000000FCCD1214641A800F090FF002833D1CC
:100D80000D21224800F0FEFF204602F007F8DDE6C4
:100D90001A4C206802F062FC4FF0FF3323600023FE
:100DA0000093D3E60695154D4346F0220DF581617B
:100DB000286802F0D7F910220DEB0201FEA802F01C
:100DC00095FC3246FEA9286802F010F8286802F067
:100DD000A5F80028FAD0CAE7012128F47F6020F0A6
:100DE0000F0002F0DBF9C5E71421094800F0CAFF43
:100DF000C6E700BF0C850020448500204885002000
:100E0000683580005022800020228000102280005F
:100E1000F82180000023009398E60023009395E6D4
:100E2000009093E60023009390E62921084800F003
:100E3000A9FF28F0FF06334610220DEB02010548FA
:100E4000006802F08FF903460028ABD100937DE6DD
:100E500050228000488500202DE9F041ADF5A06DBD
:100E6000044688461E460023CDF8FC34851D1746EF
:100E7000C2B9002E44D01022014686A802F036FCEA
:100E8000774B102206A986A801F0BCFA0546002877
:100E900000F0E18004220DF11E010DF2FC4002F091
:100EA00025FC33E003216F4B188801F087F86E4B67
:100EB0001860B0F1FF3F00F0CB80D6B1234610227E
:100EC00086A902F04FF90546002800F0C480644B63
:100ED000102206A986A801F095FA0546002800F020
:100EE000BA8004220DF11E010DF2FC4002F0FEFB5F
:100EF0000CE02B4604220DF2FC4102F033F905E030
:100F0000012229460DF2FC4002F08CFBDDF8FC24A6
:100F1000110CC2F3072343EA02220B0243EA112316
:100F20009BB243EA0243CDF8FC34042241460DF261
:100F3000FC4002F0A1F9002840F08C80002F5AD02C
:100F4000F6B123464FF4007286A94748006802F0C4
:100F500009F910220DF5816102A802F0C7FB404B90
:100F60004FF4007206A986A801F04CFA0546002845
:100F700071D0E42206A90DF5836002F0B7FB07E00B
:100F80002346E4220DF583613748006802F0EAF851
:100F90000DF5836000F090FD054600285BD044F21B
:100FA000640001F045FC314B1860002847D002ABCB
:100FB000009333463A460DF583612046FFF7ACFBBC
:100FC000054698B9002F3BD0274E24F47F6121F0CD
:100FD0000F01306802F0B8FB4FF4403002F012FA13
:100FE000306802F03BFB4FF0FF3333601F4B186853
:100FF00001F0D8FF2FE0DEB14FF40072214686A841
:1010000002F074FB10220DF5816102A802F06EFB64
:10101000134B4FF4007206A986A801F0F3F90546B8
:10102000C8B1E42206A90DF5836002F05FFBAFE7CB
:10103000E42221460DF5836002F058FBA8E7FEE7A5
:10104000012124F47F6020F00F0002F0A7F8CDE723
:10105000002500E0002528460DF5A06DBDE8F081D3
:101060000C85002044850020488500204C85002008
:10107000F0B5EBB00DF1470424F03F04E422514BEE
:10108000196830A802F032FB30A800F015FD18B145
:10109000309BB3F1FF3F58D0E4224A4B196930A886
:1010A00002F024FB30A800F007FD28B1309BB3F11B
:1010B000FF3F08BF012649D00DF2A71001F044FC04
:1010C0009DF8A731012B66D81B013E4AD558E42272
:1010D000294630A802F00AFB05F500762246314683
:1010E00030A800F03BFB379901F50071294411F05D
:1010F0000F0F1CBF21F00F0110319DF8CA30022BD9
:101100000CBF202730273A4620A802F0EFFA3A46D3
:10111000214620A802F0B0F8002844D000231A4647
:1011200029492846FFF798FE0446002844D0314656
:1011300030A800F0B3FD044690B31D21234800F011
:1011400021FE304601F02AFE2AE000262E2120480A
:1011500000F018FE33011B4AD55800231A461A49DD
:101160002846FFF779FE88B1359A369B9A42A3D07C
:10117000002EA1D01521174800F004FE0021009197
:101180000B460A462846FFF7B5FC95E7012128469D
:1011900002F004F890E716210F4800F0F3FD002458
:1011A00020466BB0F0BD19210C4800F0EBFD304635
:1011B00001F0F4FD0124F3E70121284601F0EEFFE0
:1011C000EEE700BF6835800004398000E02280002F
:1011D0007C228000982B8000AC228000C4228000FA
:1011E000B08400201C00000000000000E484002007
:1011F00014000000000000003C85002006000000F4
:10120000000000001C8500200C0000000000000011
:101210006C850020030000000000000034850020E1
:101220000800000000000000008200200002000012
:10123000000000005084002040000000000000007A
:1012400069850020010000000000000044850020A6
:1012500004000000000000006A8500200200000079
:101260000000000070850020040000000100000064
:10127000FFFFFFFF0C8500201000000000000000B1
:10128000908400202000000000000000488500201D
:101290000800000000000000688500200100000038
:1012A000000000006F850020010000000000000029
:1012B000F884002014000000000000005085002089
:1012C0000800000000000000CC840020180000008E
:1012D000000000000080002000020000000000006C
:1012E00074850020040000000100000000100000D0
:1012F0004285002002000000000000005885002008
:1013000008000000000000007885002004000000B4
:1013100001000000010000006085002004000000C2
:1013200000000000008400205000000000000000C9
:1013300064850020040000000000000028850020D3
:101340000C00000000000000000000000000000091
:1013500070B59CB0534900248C60CC60524D2D6810
:101360000D6144F264064E618C61CC611992179351
:10137000209B1593219B13931B909DF88830022B83
:101380006FD0302318931693149312931A9341F24B
:1013900019020021284602F013FA4FF218131B68B5
:1013A000424898470146002859D04FF270131B68F5
:1013B000684698470DAD6C460FCC0FC523682B606F
:1013C0004FF278231A684FF220131B6812681199A4
:1013D00006A89847079C002C3CD1069D4FF2341379
:1013E0001C6808AB00220DA92846A0470446002827
:1013F00030D14FF230131B682846984704464FF20D
:10140000F81633680246089918A8984733682246A8
:10141000099916A89847336822460A9914A898474C
:10142000336822460B9912A89847336822460C99D4
:101430001AA898474FF23C131B68284698474FF26A
:1014400044131B682846984704464FF258131B68FC
:1014500028469847134B5C60B4FA84F040091CB0EE
:1014600070BD202318931693149312931A9341F28C
:1014700019022146284602F0A3F94FF218131B68FF
:101480000A489847014658B14FF26C131B686846EA
:1014900098470DAD6C460FCC0FC523682B608FE7C6
:1014A0002046DCE7908400204C85002098840020B2
:1014B0004FF08842D2F8003113F4007FFAD04C4A42
:1014C000536823F4704343F480535360536A13F01A
:1014D000010FFBD04FF088430022C3F8B020454AEB
:1014E000C3F8B02002F12B42A2F54B12A2F6AB4298
:1014F000C3F8B02003F520634FF400721A60012294
:101500009A601A46136813F0010FFBD13A4BB3F8F7
:10151000BA2442F00202A3F8BA24B3F8BA2402F0C3
:10152000FD02A3F8BA244FF08843D3F8002122F03B
:101530007F42C3F800211A6D42F0405242F00C0283
:101540001A652B49CA6822F07E0242F00402CA6082
:101550000022C3F8B020274AC3F8B02002F12B4282
:10156000A2F54B12A2F6AB42C3F8B02003F52063FC
:10157000224A1A620A46536A03F00303032BFAD184
:101580001F4B204A1A6001229A601A46136813F012
:10159000010FFBD11A4B48F20902C3F8502140F267
:1015A00001221A674FF400429A674FF088434FF4C4
:1015B00010421A6600221A67C3F88020C3F89020F0
:1015C0001149C3F8C010C3F8D02047F6FE72C3F823
:1015D000E020074A516841F010015160116841F064
:1015E000807111604FF03332C3F8B020704700BFF4
:1015F00000400141556699AA00200141280101C01F
:10160000000A004405012000CF0381002DE9F041CC
:1016100098B00546884616461F4600241294139437
:101620004D4B1868149044F2640215921694179466
:10163000214602F005F9CDF84480302221462846A3
:1016400002F0FEF80F95022F19D030230E9310935D
:101650004FF218131B6812A898478046002878D0CC
:10166000032F17D14FF270131B6801466846984745
:1016700009AD6C460FCC0FC523682B6016E0202304
:101680000E9310934FF218131B6812A898478046C8
:1016900000285CD04FF26C131B684146684698479F
:1016A00009AD6C460FCC0FC523682B604FF28C231D
:1016B0001A684FF220131B6812680D9907A8984703
:1016C000089C002C38D1079D72074FF234131C6818
:1016D00006AB02F0005209A92846A047044658BBB1
:1016E0004FF230163368284698474FF2F8131B68BC
:1016F0000246069910A898474FF23C131B682846EB
:1017000098474FF244131B682846984704464FF207
:1017100054131B682846984707463368284698475D
:101720004FF210231B680EAA0146386898474FF203
:1017300058131B68284698474FF21C131B684046F5
:101740009847B4FA84F0400918B0BDE8F08120460B
:10175000FAE70020F8E700BF4C8500202DE9F041B2
:10176000ADF5367D17460DF29F2424F03F04837AB1
:10177000022B70D00D46C66940220021204602F09F
:101780005FF84FF41172002107A802F059F84FF2E8
:10179000C0031B684FF4117107A898474FF0300839
:1017A000002853D14FF290031B683246294607A800
:1017B000984700284AD14FF29C031B68214607A88E
:1017C0009847002842D100BF4FF2A4031B6807A826
:1017D0009847B0F1FF3FF7D0002835D140220021D3
:1017E000384602F02DF804AD6E464FF2D4031B6864
:1017F00000213046984796E8070085E807004FF239
:1018000040031B68294607A89847B8B94FF2600300
:101810001D683B464246214607A8A84780B94FF2BB
:1018200064031B6807A8984760B94FF270031B68F0
:1018300007A89847B0FA80F0400908E0002006E0C9
:10184000002004E0002002E0002000E000200DF570
:10185000367DBDE8F0810D46C66940220021204654
:1018600001F0EEFF4FF41172002107A801F0E8FF2C
:101870004FF2BC031B684FF4117107A898474FF053
:1018800020088DE770B586B003213F4B188800F023
:1018900095FB3E4B1860B0F1FF3F72D00023102241
:1018A00002A901F05FFC044608B302A800F090FF13
:1018B00018B1049BB3F1FF3F1CD04FF4002310225A
:1018C00002A93248006801F04DFC044678B102A834
:1018D00000F07EFF18B1049BB3F1FF3F3BD02B4CCF
:1018E000206801F0BBFE4FF0FF3323600024204648
:1018F00006B070BD0025254C206801F0AFFE4FF00A
:10190000FF3323602B21224800F03CFAED0405F15F
:1019100010069DF80D30003318BF012301221D4928
:101920003046FFF799FA0446B8B122211A4800F070
:1019300029FA164C206801F091FE4FF0FF33236026
:1019400001230093BDF814209DF80D103046FFF7D9
:10195000D1F80446CBE70125CDE72A210F4800F056
:1019600011FA0A4E2946306801F0EEFE4FF440307D
:1019700001F048FD306801F071FE4FF0FF33336035
:10198000B5E70024B3E700BF448500204885002068
:101990007426800004398000CC268000A0268000B8
:1019A00030B5ADF2145D3E4B1C69102221460DF599
:1019B000A06001F09BFE0DF5A06000F009FF054658
:1019C000002869D0DDF80835B3F1FF3F63D110344A
:1019D0009DF805359BB9E42221460DF21C4001F02B
:1019E00085FE0DF21C4001F0BBFA0546002853D0DD
:1019F000DDF81C34B3F1FF3F1DD000254CE04FF45F
:101A00000072214607A801F071FE102283A903A8E5
:101A100001F06CFE234B4FF4007287A907A800F079
:101A2000F1FC0546002837D0E42287A90DF21C40BE
:101A300001F05CFED5E71A211B4800F0A3F901F084
:101A40005DFF4FF0864302221A609DF80535003392
:101A500018BF0123002215492046FFF7FDF905466E
:101A600078B11521124800F08DF90123009300236D
:101A7000BDF80C259DF805152046FFF73BF80546F7
:101A80000AE01D210B4800F07DF90121044B186983
:101A900001F084FB00E0002528460DF2145D30BD06
:101AA000683580000C8500205C2B800004398000A4
:101AB000982B8000782B80000379012B66D1036876
:101AC000002B66D0374B1A6803691B0ED2B29A42BC
:101AD00061D8344A1268D243D2B293425DD810B56D
:101AE0000446314B827A1978586801F0F9FB0346B5
:101AF000002849D02C4BE27A197AD86801F0F0FB23
:101B00000346002840D0284B227B197C586901F0FD
:101B1000E7FB0346002837D0234B627B197ED86948
:101B200001F0DEFB034678B31F4B94F8202093F8B6
:101B30002010586A01F0D4FB034628B31A4B94F8DE
:101B4000212093F82810D86A01F0CAFB0346D8B1C7
:101B5000154B94F8222093F83010586B01F0C0FB1D
:101B6000034688B1104B94F8232093F83810D86BB3
:101B700001F0B6FB034638B1E389742B0FD16379CA
:101B8000012B14BF00230123184610BD0023184663
:101B900070470023FBE70023F9E70023F7E7002362
:101BA000F2E700BF042C00446C3080002DE9F047C0
:101BB000ADF5167D07460C4690469946D1F814A01F
:101BC0008E7A00250D754D758D75CD75402229468F
:101BD00001F036FE4FF41172294605A801F030FEDF
:101BE000022E0CBF4FF2BC034FF2C0031B684FF430
:101BF000117105A89847002843D14FF290031B6844
:101C0000742204F1100105A8984700283FD14FF233
:101C10009C031B68394605A89847002839D100BFA6
:101C20004FF2A4031B6805A89847B0F1FF3FF7D017
:101C300088BB022E13D0A37A029304F1B40301935C
:101C400004F1840300934B46424630213846FFF7A7
:101C50007FFB0346B0B1C4F814A0012312E0A37ABD
:101C6000029304F1A403019304F1840300934B460F
:101C7000424620213846FFF76BFB03460028EAD195
:101C800000E0002318460DF5167DBDE8F08700231F
:101C9000F8E70023F6E70023F4E700BF2DE9F04161
:101CA000ADF5835D86B007460E460DF13F0525F084
:101CB0003F052A46FFF752FD034658B3FC693444FA
:101CC00014F00F0F1CBF24F00F04103424F47F66AF
:101CD00026F00F064FF4805231461EA801F006FD93
:101CE000BB7A022B0CBF20223022C4F30B04904697
:101CF000A318B3F5805F2ED9C4F580573A4629461C
:101D00001EAB181901F0F2FC0221304601F046FA30
:101D100030B1002318460DF5835D06B0BDE8F081B3
:101D20004FF4805231461EA800F0E0FD08B10023B8
:101D3000F0E7A4F5805444442246E9191EA801F0B6
:101D4000D5FC224606F580511EA800F0CFFDB0FA62
:101D500080F35B09DEE729461EAB181901F0C6FCCB
:101D60000121304601F01AFA08B10023D2E74FF4FE
:101D7000805231461EA800F0B9FDB0FA80F35B092D
:101D8000C8E770472DE9F84300295ED00F460024CC
:101D90002F4E304B00F1010EDFF8BCC006E00CF80E
:101DA00001809A60621C0134974244D9726802F043
:101DB0000702012A18D09968DD684A1CD3F8108000
:101DC000424528BF0022954236D010F8048075683D
:101DD00005F00705012DE2D14D000CF81180691CBA
:101DE00000250CF80150DCE7D3F80880D96808F129
:101DF00001021D69AA4228BF002291421CD01EF890
:101E0000145010F8141041EA0521756805F0070513
:101E1000012D05D0C9B20CF808109A60621CC2E707
:101E20004FEA48055FFA81F90CF818900135090A64
:101E30000CF80510F1E7144601F034FC10B1044B26
:101E400001229A752046BDE8F8830C46F4E700BFEE
:101E5000000C004050840020008300202DE9F04158
:101E6000294E2A4C4FF00108294F13E0226AFAB19B
:101E7000616A236A40469847A36A0133226B934202
:101E800028BF002314E0A26AEDB2BD54A36294F807
:101E90003430FBB9337E13F0040F32D0B56AA36A35
:101EA0000133226B934228BF0023E26A9A42DDD0BD
:101EB000E26A9A42EED0726802F00702012AE2D189
:101EC000A16A4A00E8B207F811000132C5F30725FC
:101ED000BD54DBE701F0F2FB236A002BDAD0616A24
:101EE00094F83C3033B1A36B9842D3D3236A0020DB
:101EF0009847CFE7A36B9842CCD1236A002098473C
:101F0000C8E7BDE8F08100BF000C0040508400200D
:101F10000082002070B582B0254D264C264E14E07C
:101F2000F25C8DF80620013322699A4298BF0023A3
:101F3000E3606B6803F00703012B14BF9DF80630C4
:101F4000BDF80630AB62237DBBB92B7E13F0010FC9
:101F50002CD0A268E3689A4225D06A6802F0070292
:101F6000012ADDD15A0016F813108DF8061001323F
:101F7000B25C8DF807200133D6E701F0F9FB236846
:101F8000002BE2D06168237F33B1A3699842DCD390
:101F9000236803209847D8E7A3699842D5D12368DE
:101FA00003209847D1E7024B01221A7502B070BD99
:101FB000000C0040508400200083002038B5264BE0
:101FC00093F90330022B37D1234B9B68002B36D17A
:101FD0000D4604462148002101608180662303707C
:101FE0001D4B1B691B68984760B31C4899230370FD
:101FF00000214170184B1B691B68984728B317488C
:1020000000210160818038230370134B1B691B681A
:102010009847E8B115F0020F06D10F4B9A680132CC
:102020009A601D71204609E0204600F019F800284A
:10203000F3D14FF0FF3001E04FF0FF3038BD4FF0EB
:10204000FF30FBE74FF0FF30F8E74FF0FF30F5E7E8
:102050004FF0FF30F2E700BFE48400203C85002011
:1020600010B582B00023ADF804308DF80630B0F121
:10207000FF3F1CD001A901F065F90346C0B19DF8EE
:102080000640122C17D001F029FA034680B1182C13
:1020900016D013480021C0F80210982303700623BD
:1020A0004370104B1B691B689847034600E00023F0
:1020B000184602B010BD01F011FA03460028F7D00F
:1020C00000230093084883700122027006234370A6
:1020D000044B1B699B68694698470346E8E700BFC5
:1020E0003C850020E48400206C85002008B5194B55
:1020F0009847194B9847EFF3108172B6174AD2F8F8
:10210000883043F47003C2F88830BFF34F8FBFF3B9
:102110006F8F01B962B6124A936823F0010393608E
:102120001346DA6812F0010FFBD10D4B24225A60DE
:1021300001229A6001F06AF80A4B23F07F03074AF4
:102140009360094B9847094B9847094B984701F012
:1021500096FBFEE7293980002939800000ED00E078
:102160000020004100028000A5298000293980005C
:10217000293980002DE9F0411C4AD36A956A89B358
:102180000E46AB4208BF002227D00122DFF864C010
:10219000174CA0F1020E0138144F0CE0E15C8154A1
:1021A0000133396B994298BF0023B24214D2511CBB
:1021B000AB4212D00A46DCF8041001F007010129F5
:1021C000ECD1590014F813800EF812800131615CD3
:1021D00000F812100133E4E71D46044BDD6210469F
:1021E000BDE8F0811D460A46F7E700BF5084002095
:1021F00000820020000C0040536176656420536526
:10220000637572656420486173680D0A0000000000
:102210004A756D7020746F204170700D0A000000C7
:10222000436F7069656420496D6167652066726FF0
:102230006D20496E7465726E616C20536C6F7420F2
:102240003120746F20536C6F7420300D0A00000031
:10225000436F7069656420496D6167652066726FC0
:102260006D2045787420746F20496E7465726E61BC
:102270006C20466C6173680D0A0000BF466F756E76
:1022800064206E65772045786563757461626C655E
:1022900020496D61676520696E20496E7465726EB4
:1022A000616C20466C6173680D0A00004E6F205609
:1022B000616C696420496D61676520466F756E6465
:1022C0000D0A00004D6174636820686173682C20FA
:1022D0004A756D7020746F204170700D0A00000007
:1022E00052656372656174656420686173682C204F
:1022F0004A756D7020746F204170700D0A0000BF28
:10230000F0B51F4C2568A446002D36D00022294682
:1023100016461346D1F800E00F6986450AD132B15E
:10232000176101F110031846F0BD3946F2E7CCF809
:102330000070F6E705D9EBB11C68A6453CBF164610
:102340000B460A46002FF0D1002BECD019461F692E
:1023500051F8102B121A102A05D918600844103AA7
:102360000761026007469D420CBFCCF800703761E0
:102370000B46D8E716460B46E3E72B46D3E700BFEC
:102380005C85002008B54FF088431B6913F4003FBB
:1023900007D14FF088434FF400329A61154B012268
:1023A0001A704FF088434FF480329A61FFF780F83B
:1023B000114B186820F49F7020F001004FF2D023D9
:1023C0001B6840F01200984701F060FA01F0AAF88B
:1023D00000F0D4F8FFF7D5FC01F0C0F90749002060
:1023E00001F028F8064B186001F068FA00F050FA86
:1023F00008BD00BF69850020002401441439800015
:10240000448500202DE9F041BEB005460F46164632
:1024100098464FF0864302221A606C464FF2D00372
:102420001B68174A1021204698473BAB94E80700E9
:1024300083E807004FF24C0214684246194604A88C
:10244000A04700B1FEE74FF260031C683B463246EE
:10245000294604A8A04700B1FEE74FF264031B68B9
:1024600004A8984750B94FF270031B6804A8984716
:10247000B0FA80F040093EB0BDE8F0810020FAE7F4
:1024800050388000F8B50F4616461C461A46012102
:1024900000F0E2FB0546D0B144F0806106F0030293
:1024A000032E16D81ABB4FF08443DA69BFF34F8F5F
:1024B000BFF36F8F114A1A601A46D36913F4806F05
:1024C000FBD04FF08442D36943F48063D361284644
:1024D000F8BDB00801383C46A1EB070C54F80C30AD
:1024E00044F8043B0138B0F1FF3FF7D1DAE726F0BA
:1024F00003000144384401F0C9F8D4E702000001A8
:10250000F8B50F4616461C461A46032100F0A4FBF8
:102510000546C8B144F0806006F00302032E15D8CA
:1025200012BBBFF34F8FBFF36F8F4FF08443124A3C
:102530001A601A46D36913F4806FFBD04FF08442BF
:10254000D36943F48063D3612846F8BDB408013CE5
:102550003946A0EB070C0B6841F80C300431013C04
:10256000B4F1FF3FF7D1DBE726F00306B919304499
:1025700001F08CF8D5E700BF020000011B4B1C4A9C
:102580001A604FF6A0029A814FF440325A601A4600
:10259000D369002BFCD1154A136843F00203136082
:1025A000D369002BFCD1134B00221A629A62DA62C3
:1025B00083F8342083F83C209A63DA871A609A60A3
:1025C000DA601A751A779A61084B5B6803F00703A3
:1025D000012B084B14BF4FF4807280221A631A61DA
:1025E000024B80229A7504229A757047000C0040B5
:1025F00004011040508400202DE9704F82B08346C2
:10260000164621F0FF0A12F0FF0F07D05242F3B234
:10261000D2B258BF5342F61A06F58076B04600BFD4
:1026200006EB0A03A3EB080301930BEB0609A9EBE6
:102630000809B8F1000F10DD0D4D286800F06EFCA0
:1026400004460128F9D1019A4946094B186800F05F
:10265000CDFB48B1A8F58078E2E7054C206800F092
:102660005DFC0028FAD00024204602B0BDE8708F3F
:1026700070850020466F756E6420556E61757468B4
:10268000656E7469636174656420496D6167652076
:10269000696E2045787420466C6173680D0A0000ED
:1026A000496D6167652041757468656E7469636121
:1026B00074696F6E206661696C656420696E20457F
:1026C000787420466C6173680D0A00004175746867
:1026D000656E7469636174656420496D6167652026
:1026E000696E2045787420466C6173680D0A00009D
:1026F00008B5194B1B7813B1012B04D008BD164B3C
:1027000001221A70FAE7154B10225A601B6A13F067
:10271000100F06D10B211248FFF734FB00F064FFC5
:10272000FEE74FF0864302221A60FFF7ABF8FFF78F
:1027300037F9FEF79DFC0028F2D14FF4403000F04D
:1027400061FE084B1B78002BEAD04FF088434FF412
:1027500000325A61E4E700BF68850020002A004487
:10276000C8388000698500200010000400000001C6
:10277000FFFF07000200000068358000FFFF070030
:1027800098378000000000000000000000000000FA
:1027900000000001FFFF0701FFFFFFFF0010000125
:1027A00000000000FFFF7F0002000000883580006D
:1027B000FFFF7F00AC378000000000000000000039
:1027C0000000000000000000FFFF7F00FFFFFFFF90
:1027D00030B583B0044603680193042213490DEB1E
:1027E000020000F049FDC0B92379012B18D1A3796B
:1027F000012B17D8A568BDB1A060631E04F10D01BF
:1028000013F8012F104480B28B42F9D1A560E389FF
:10281000834214BF0020012000E0002003B030BD3F
:102820000020FBE70020F9E70020F7E704398000EB
:1028300037B5154D2B68044673B100F0C5FE019005
:1028400001A800F076FF0F30019920F00F0000F092
:1028500059FF60B100232B60002C08BF01240F3406
:1028600034F00F0405D1094B0C221A60204603B046
:1028700030BD042C38BF04242046FFF741FD00285A
:10288000F5D040F8044CF2E7788500206085002000
:10289000144BDA6822F4E0621204120C42F0BF62B8
:1028A00042F40032DA60BFF35F8F62B60E4AE02175
:1028B00082F803130820106082F80C134FF4805143
:1028C00011605A6A42F480225A625A6942F0100238
:1028D0005A615A6A42F400325A625A6A42F48032A9
:1028E0005A62704700ED00E000E100E02DE9784712
:1028F0008146144621F00F0812F00F0F08D0524203
:1029000004F00F0302F00F0258BF5342E41A1034D0
:10291000254600BF04EB0801A1EB050A09EB040002
:10292000461B002D0BDD00BF00F07AFF0028FBD115
:102930005146304600F0AAFD20B1103DEAE70020E4
:10294000BDE878870120FBE730B5BBB00546FF2323
:102950000370E422124B196801A800F0C7FE01A819
:1029600000F0FEFA30B1019CB4F1FF3F04D0002327
:102970002B7001E04FF0FF34E422094B196901A8E4
:1029800000F0B4FE01A800F0EBFA28B1019BA342CD
:1029900002D201222A701C4620463BB030BD00BF47
:1029A000683580000E4A38B5002313600D4A0E4C7E
:1029B00013600E4A0E4D13600E4A13600E4A1360E8
:1029C0000E4A536213610123936000F0AFFF00F0E1
:1029D000ADFFAC4200D338BD54F8043B9847F8E74C
:1029E000648500200C840020F80280000884002008
:1029F000FC02800000840020048400201084002059
:102A000008B5144B9B7DF3B1124A137EDBB2927D65
:102A100012F0800F18D10F4A137EDBB2927D12F0B4
:102A2000010F04D013F0010F01D0FFF773FA094A28
:102A3000137EDBB2927D12F0040F04D013F0040F6A
:102A400001D0FFF70BFA08BD13F0800FE3D000F0C0
:102A500019FAE0E7000C004010B54FF240131B6874
:102A6000114A10689847044678B1032819D04FF2EC
:102A700058131B680C4A106898474FF21C131B68C8
:102A80000A4A1068984702240BE04FF258131B685B
:102A9000054A106898474FF21C131B68034A1068D8
:102AA0009847204610BD00BF908400204C85002030
:102AB000114B9B5C2BB902B170470370FF230B7065
:102AC00070470E4A12780270D2430A709A1ED2B230
:102AD000012BF1D030B40A4DAD1A0A4B02781C78A4
:102AE0002243027013F801490A7822EA04020A70AC
:102AF0009D42F3D130BC704720398000552C0044F2
:102B0000532C0044542C004438B50D4603784FF044
:102B10008444636383781B0403F4F81341780B4304
:102B200043F09003A363A36B4FF08061284600F04D
:102B3000ADFDBFF34F8FBFF36F8F074B236022466E
:102B4000D36913F4806FFBD04FF08442D36943F410
:102B50008063D361012038BD02000001466F756EAD
:102B60006420556E617574686F72697A6564204976
:102B70006D6167650D0A0000496D616765204175EB
:102B80007468656E7469636174696F6E204661690B
:102B90006C65640D0A00000041757468656E7469A7
:102BA000636174656420496D6167650D0A0000BF4B
:102BB0002DE9F04180460F46164600F039FE3D46AD
:102BC000D7B100250AE0B34216D80121FFF7D2FAA7
:102BD0000B4B00221A700135AF420DD008EB0500F7
:102BE000074B1B78002BF0D13446054901330A7896
:102BF000002AE8D1A342F9D92846BDE8F08100BFF8
:102C00006F850020F0B4124B1880124800F58067E1
:102C10000022164641F2210507E000BF40F8043FBC
:102C200002F5807292B2B84210D0114608243346A1
:102C300083EA010C1CF4004F14BF85EA43035B00D8
:102C40009BB2490089B2013CF2D1E7E7F0BC704782
:102C500042850020FC7F002010B44FF084442263A2
:102C60004278037843EA024363638378828813439C
:102C700082791AB10289134343F04003827A0AB180
:102C800043F48043090301F440511943C37A1B0400
:102C900003F4F813194341F0B0014FF084439963F2
:102CA0009B6B01205DF8044B7047FEE72DE97043F4
:102CB00080460E46104D4FF4403996B1286800F01A
:102CC0002DF904460128F9D14146286800F03CFD61
:102CD00070B1013EB6B208F58058484600F092FB4C
:102CE000EBE7054C206800F019F90028FAD0002421
:102CF0002046BDE8708300BF70850020032A00D9FC
:102D0000FEE770B50C4605460D4B9E5C3022002157
:102D1000204600F095FD731EDBB256B1013323440B
:102D2000224608492144881A007802F8010B9A4289
:102D3000F9D1054B1B68C3F300432B7070BD00BF76
:102D400020398000552C0044002C00440F4B1B6898
:102D50004FF08242907800F00100C3F38113013BF1
:102D6000022B0BD8A2F1B062A2F5CA22A2F2FF6236
:102D7000074B002814BF104618467047054A064BFB
:102D8000002814BF10461846704700BF002C0044AE
:102D9000A1A0D3EC4A68A55ABF29BC8E38B50468F7
:102DA00045684FF4403000F02DFB0E4A136823F0C5
:102DB000020313600C4B1B7823B14FF088434FF490
:102DC00000325A61074AD369002BFCD14FF0864389
:102DD00000221A60B4F1FF3F02D084F3088828472C
:102DE00038BD00BF000C004069850020F8B5B0F187
:102DF000FF3F1AD015460C4600F070FB0346A8B101
:102E00000B480023036043608360022303700623A2
:102E10008370084E33691F692B464FF48072214638
:102E2000B84703460322327300E000231846F8BD7A
:102E30001C850020E484002010B503784FF0844402
:102E40006363437843F4025343F01003A363A36B1B
:102E50004FF0806000F01AFCBFF34F8FBFF36F8F0D
:102E6000074B23602246D36913F4806FFBD04FF0E9
:102E70008442D36943F48063D361012010BD00BF55
:102E80000200000108B5104B5B8B13F0070300D163
:102E900008BD0E4AD3870C4B80221A7607225A832C
:102EA0001B7E13F0040F05D0074B9A6A1A7E12F0AE
:102EB000040FFAD1054B1B6A002BE9D0034B596A6A
:102EC0001B6A02209847E3E7000C00405084002072
:102ED00010B50F4C236863B1002813DA0D4B22683C
:102EE0001B68D21A43429A4208DB226810442060D1
:102EF00006E000F06FFA2368002BEDD14FF0FF32AF
:102F0000104610BD044B1A682368D21A8242EBE7C0
:102F100028850020308500202C85002000B583B056
:102F200000238DF80730B0F1FF3F13D00B4B1B7B14
:102F3000012B0BD001220DF1070100F01BFA58B153
:102F40009DF8073083F0010303F00103184603B036
:102F50005DF804FB0223F9E70223F7E7E48400208D
:102F600010B582B00446D0F80630190CC3F307221E
:102F700042EA03220B0243EA11239BB243EA0243D3
:102F80000193042206490DEB020000F075F910B11F
:102F9000002002B010BD2046FEF78EFDF9E700BF0D
:102FA0000439800070B590B10E4D2A68A0F110046C
:102FB0002E46A2B150F8101C43189A42136807D14C
:102FC0001033126902600B4440F8103C2C6070BD55
:102FD0001033D518AC4202D10B441360F7E70260FE
:102FE0003460F4E75C85002030B583B005460C46BC
:102FF00000218DF807108DF806100DF106010DF176
:103000000700FFF755FD9DF807109DF80620CB43FC
:10301000DBB2934200D0FEE709B9FF2A01D003B02A
:1030200030BD2B781C432C70F9E7FEE710B5054C3A
:10303000227832B9044B13B10448AFF30080012366
:10304000237010BDB08400200000000000000000CC
:1030500008B5034B1BB103490348AFF3008008BD1B
:1030600000000000B4840020000000000300000005
:103070001C398000010000006B8500200100000069
:103080006A850020010000006B850020030000001D
:103090001C398000010000006B8500200100000049
:1030A0006A850020010000006B850020837833B121
:1030B0004FF084431963838843F0200100E000212E
:1030C00003784FF08442536343780B4343F010037B
:1030D0009363D36913F4806FFBD04FF08442D369BC
:1030E00043F48063D36101207047FEE738B504469E
:1030F0000D4600F0F3F9034678B109480470062341
:1031000043700123837000238380064C23691B686E
:1031100029469847034604222273184638BD00BF4B
:103120003C850020E484002030B5ADF5017D0446E7
:103130004FF400720146684600F0D8FA079D00235C
:1031400005934FF6FF724FF4F87104A800F0AEF843
:103150000246294604F5007000F0A8F80DF5017D3F
:1031600030BDFEE7B0F1FF3F11D038B5094800246B
:103170000460446084600B24047006248470C4726C
:10318000054C2569ED68A8470123237338BD00204D
:10319000704700BF1C850020E484002038B5054638
:1031A0000C46C0F30B0383B96CB100BF00F038FBD1
:1031B0000028FBD1284600F06FFB40B1013CA4B2CF
:1031C00005F58055F0E7002000E0022038BD012021
:1031D000FCE700BFA1B110B40A4B1B8841180A4C90
:1031E00010F8012B82EA132254F8222082EA0323EA
:1031F0009BB28842F4D1034A13805DF8044B7047B8
:10320000704700BF428500200080002070B50B4849
:103210000B4D4FF6FF76016821B9436813B900F0F2
:1032200084FB70BD83684268334000F10C0455F89C
:1032300023302046984704EB8000ECE7E011800043
:10324000D43780002DE978410D4690461E46094C42
:103250002068FFF763FE0028FAD04346324629462D
:1032600004480068FFF77EFF80F00100C0B2BDE8AF
:10327000788100BF70850020B2B130B41546047863
:103280000A7894420AD1034628440138834209D07F
:1032900013F8014F11F8012F9442F7D0121BD0B24E
:1032A00030BC70470020FBE700207047B1B110B47C
:1032B000411800BF10F8013B83EA122383EA13137D
:1032C0009CB243EA022383EA043383EA44139AB2AA
:1032D0008142EFD110465DF8044B704710467047AD
:1032E00099B110B40C46034613F8011B91420ED05D
:1032F0002044984205D013F8014B9442F9D10120A3
:1033000000E000205DF8044B70470020704701206A
:10331000F8E7ABB1F0B405461E46043A002402E0DB
:103320000134B44209D052F8040F4368AB42F7D8D5
:1033300047693B448B42F3D300E00020F0BC704768
:1033400000207047B0F1FF3F0DD008B50748AF230C
:1033500003700623437002238370054B1B695B686F
:103360000322984708BD0020704700BF6C850020ED
:10337000E4840020B0F1FF3F0DD008B507480523D5
:1033800003700623437002238370054B1B695B683F
:10339000D2B2984708BD0020704700BF6C8500205E
:1033A000E484002038B5EFF3108572B6084C206332
:1033B0004FF4804363600F2262601140A160A360FC
:1033C00000F09EF84FF40043A36085F3108838BDE9
:1033D00000060044064B1A680AB9064A1A60064AF3
:1033E000116809B9054911601A68054B1A607047E0
:1033F00030850020808500202C85002080C9002099
:103400002885002080B485B000AF78600023FB6081
:1034100005E0FB68013BFB60FB680233FB60FA6878
:103420007B689A42F5D300BF1437BD465DF8047B34
:103430007047FEE7094B1B786BB910B4074B0022AD
:10344000DA7001241C709A600A681A610222DA702C
:103450005DF8044B70474FF0FF307047E484002064
:1034600093B1F8B51F4616460D460446002128467E
:1034700000F0BAF93346224629460020B847002812
:103480000CBF28460020F8BD7047FEE708B502468D
:1034900008461168064B19645168196591681966E8
:1034A000D2681A670221FFF77DFF012008BD00BF27
:1034B0000006004408B5074B1B68B3F1FF3F00D07E
:1034C00008BD0321044B1888FEF778FD014B1860F6
:1034D000F6E700BF708500204485002008B5064847
:1034E0000021C0F80210062303704370034B1B69D0
:1034F0001B68984708BD00BF3C850020E48400207D
:10350000064B00221A62064A1A6202F12B42A2F509
:103510004B12A2F6AB421A62704700BF000600448D
:10352000556699AA4FF0844301221A6040F2016265
:103530005A604FF440729A6002221A601A46136A67
:1035400013F0020FFBD0704700B583B001A9054B03
:103550001868FFF7F7FE18B9002003B05DF804FB08
:103560000198FAE7708500200000000100000400C7
:103570000000080001000000000004010000040039
:103580000000000001000000000000000000080032
:10359000000000000000000000000800000008001B
:1035A000000000000000000008B50121084600F0FE
:1035B00091F8012000F076F90021024800F078F936
:1035C00008BD00BF6138800010B5054C22680AB9FB
:1035D000FFF700FF034B18682368C01A10BD00BF37
:1035E000288500202C85002000B58DB0684600F0AD
:1035F00095F8009B23B19DF82C10684600F070F9F7
:103600000DB05DF804FB10B50023934206D113F012
:10361000030018BF012000EB930010BDC45CCC5424
:103620000133F2E7531E4AB1043800BF51F8042BAE
:1036300040F8042F013BB3F1FF3FF7D1704700BFC3
:103640005AB110B40A44431E11F8014B03F8014F5C
:103650009142F9D15DF8044B70477047B0F1FF3FDC
:1036600005D0034B9B6813B1013B014A936070473F
:10367000E484002008B5044B1B681BB1024B58685A
:103680001B68984708BD00BF3485002042B101394E
:10369000821800BF11F8013F00F8013B9042F9D1B8
:1036A000704700BF044A9368D06883423EBF024A15
:1036B00012699B18181A704750840020044BD86A6E
:1036C0009B6A984282BF024A126B9B18181A704775
:1036D00050840020044B93F8342083F8340083F89E
:1036E0003C101046704700BF5084002042B10138A2
:1036F0008A1800BF11F8013B00F8013F9142F9D14F
:10370000704700BF044A136823B910600361016069
:1037100001207047002070475C85002010B50446EA
:1037200000F0E8F8206034306060022384F82C3028
:1037300010BD0068002808B501DA002008BDFFF7B9
:10374000C7FB431CFAD1F8E7B0F1FF3F04D008B53E
:103750002020FFF7CBFC08BD0020704708B5034BC5
:10376000186B0021FFF71EFE08BD00BF00060044D5
:1037700010B5034B1C69FFF795FF013C201A10BDE3
:1037800050840020AD308000092B8000392E80004D
:103790008524800001258000FD388000ED28800010
:1037A000713880009D31800019398000B534800067
:1037B000F925800045328000AD2C8000493580001D
:1037C000531E2AB140F8041B013BB3F1FF3FF9D16E
:1037D000704700BFFD378000073680002539800024
:1037E000253980002539800032B1C9B20244034630
:1037F00003F8011B9342FBD1704700BF0A4400232A
:10380000914201D10020704701F8013BF8E708B56B
:1038100013460A461946FFF713FF012008BDFEE7CD
:10382000024B1868C0F3C030704700BF0006004468
:10383000024BD88F0022DA87704700BF50840020E7
:1038400022B1821800F8011B8242FBD1704700BFF1
:10385000AABBCCDDEEFF0011223344556677889970
:1038600010B9024B01221A70704700BF6F8500200B
:1038700008B508461946FFF7CAFF002008BD08B57D
:103880000020FEF77FFD00F031F8FCE7014B082235
:103890005A607047002B004408B50421FFF782FDF1
:1038A000012008BD08B1014A906370475084002090
:1038B000014B18625962704750840020014B00226E
:1038C0001A707047688500205374617274204446F2
:1038D000550D0A00014B1888704700BF4285002033
:1038E00008B511B108B1FCF711FDFEE708B5FEF708
:1038F000FFFE08BD004870476827800008B5FFF745
:103900002DFF08BD4D434850000000BF08B5FEF72D
:1039100039FA08BD84378000002070470302000098
:0E39200000002030002070477047704770474D
:00000001FF
