:020000040000fa
:0200000400807a
:10020000f8ff0020192080003b1d80002f2c80006b
:1002100023308000d73080006f3380000000000062
:100220000000000000000000000000008538800091
:10023000632f800000000000853880008538800032
:100240008538800085388000853880003d36800004
:1002500085388000853880008538800085388000aa
:10026000853880008538800085388000853880009a
:10027000e12980008538800085388000853880003d
:10028000853880008538800085388000853880007a
:10029000853880008538800085388000853880006a
:1002a000853880008538800085388000853880005a
:1002b000853880008538800085388000853880004a
:1002c000853880008538800085388000853880003a
:1002d000853880008538800085388000853880002a
:0c02e00085388000000000008538800098
:020000040000fa
:0200000400807a
:1002ec00f8b500bff8bc08bc9e467047892f80004b
:1002fc00f8b500bff8bc08bc9e467047652f80005f
:020000040000fa
:0200000400807a
:10030c002de9f04f85b00190029141f2100002f0fe
:10031c0021faaf4b186000b9fee703f0f3f8ac4ece
:10032c00dff8b8b29ae1d2f80480aa4bc3f8048083
:10033c00029b019a4146404602f083ff8146002809
:10034c0000f08381bfb2038803fb078743684269cf
:10035c0013449f4280f079818369002b00f0ce8199
:10036c001a68002a00f0bc819047d9f8283048ea76
:10037c000303d9f82c001840d9f81830002b00f0e2
:10038c004481db68002b00f042812946984780b2fb
:10039c0031e150688f4b5860029b019a014602f084
:1003ac0050ff0546002800f0508142690088b2fbde
:1003bc00f0f76b68b9b200fb01311a44914200f2bc
:1003cc004481aa69002a00f099811168002900f083
:1003dc007b8188476b68a86a0343e86a1840ab695d
:1003ec00002b00f01681db68002b00f01481b9b2f1
:1003fc00984780b2ffe05768764b5f60d2f8088070
:10040c00c3f8088002f1100ad2680392da60c3f8cc
:10041c0010a0029b019a07eb0801384602f011ff6d
:10042c008146002800f01181836a1f43c36a1f4074
:10043c00836973b11a681ab19047d9f8183043b16f
:10044c005b6833b14246394650469847002840f025
:10045c00e480012d08d0022d3cd00025039bab423b
:10046c0014bf02200020c6e0d9f818304bb1d3f8e5
:10047c0008a0b8f1000f5fd000253b4647469846d0
:10048c0007e04ff0000af4e7204602f021fd002fb0
:10049c00e4d0514b1a68ba4228bf3a4691461046ee
:1004ac0002f058f90446002848d053464a46014603
:1004bc00404602f083ffc844a7eb0907b9f1000fcf
:1004cc00e2d004eb0902234613f8011b0d449342be
:1004dc00fad1d9e7d9f818305bb3d3f808a04ff6a6
:1004ec00ff7002f0f7fab8f1000f1ed0dff8e890b9
:1004fc00454600bfd9f80040ac4228bf2c462046e8
:10050c0002f028f98046d8b15346224601463846b7
:10051c0002f054ff27442d1b2146404602f0f2fd09
:10052c00404602f0d5fc002de4d103f069f90546f4
:10053c0094e74ff0000ad2e745468fe700258de798
:10054c0000258be75068234b586091689960029b9b
:10055c00019a014402f075fe8146002875d083692a
:10056c0013b11b6803b198471a4b5f68d9f8282060
:10057c001743d9f82c201740d3f808a0d9f83040ed
:10058c00baf1000f4bd0144b1d68554528bf55468a
:10059c00284602f0dff88046002842d0d9f81830ff
:1005ac00a3b19b682a464146384602f007ff2f4408
:1005bc0008eb950143468b4212d013f8012b944261
:1005cc00f9d0404602f084fc022014e00023e9e755
:1005dc004cab0020e4aa002070ab002048ab0020fc
:1005ec00aaeb050a404602f073fcbaf1000fcad11f
:1005fc00002000e00320434b1c88072c13d140f44f
:10060c00e020414b1860042125e00020f3e7002096
:10061c00f1e70020efe70020ede70220ebe70020f8
:10062c00e9e70220e7e70a2c07d02404042828bfb6
:10063c0002200ce00120e2e7002040f42020324ba5
:10064c00186000225a60082105e02404022020438f
:10065c002d4b186004212c4803f0fcf842f2107268
:10066c0041f21001306802f00bfa0028f6d0326823
:10067c001768cbf800703c0ca3b222490b80bdb2ba
:10068c004d80043b0d2bb5d801a151f823f000bfd0
:10069c009f038000330380005105800041068000d9
:1006ac0001068000010680004506800001068000de
:1006bc000106800001068000010680000106800012
:1006cc000106800003048000a86a0343e86a18400e
:1006dc00d368002b7ff48bae0a4b1c880020a4e758
:1006ec00806a48ea0000d9f82c201040db68002b07
:1006fc007ff44bae034b1c88002096e7014b1c8803
:0c070c00002092e7e4aa0020ccaa002004
:020000040000fa
:0200000400807a
:100718002de9f04fadf2547d80460c4617461e4633
:1007280000238df84f378df8a73402f0cdfaa37a5d
:1007380094f820209a4240f0b9810df1570525f030
:100748003f058146e17a94f82120914240f0b48136
:10075800002b00f0b381002e7cd100238df8a73444
:10076800ff238df8303755238df81c37aa238df8d1
:100778004b37e37aa27a0df21c710df24f7002f03a
:100788007bfae37aa27a15210df2a74002f0c4fba6
:10079800e37aa27aa3210df2a74002f0bdfbb84b81
:1007a80099450cd003f19d4303f5181303f506632f
:1007b800994504d09df8a734b72b00f08181a37a1e
:1007c8009df84f270df21c710df2ec6000f074fedd
:1007d8000346002800f06b810df2ec630df21c72e9
:1007e8002146284601f0baf90346002800f05f8147
:1007f80040220021284602f0bbff4ff4117200216d
:100808000df5956002f0b4ffa37a022b0cbf4ff2ee
:10081800bc034ff2c0031b684ff411710df59560ce
:100828009847002840f04e81002f00f08180e3694e
:10083800c3f34f2ac3f308031bb10af1010a1ffad5
:100848008afabaf1000f00f0ec8008f5007b002767
:1008580005951fe01022ddf8781725a802f0aefef6
:100868007be7e569c5f308030bb11d4619e04ff4b2
:10087800007516e05b462a4629a98248006802f0fe
:100888005ffc034648bb12e101370bf5007bbbb2a6
:100898009a454bd90af1ff38b946b845e1d04ff42b
:1008a8000075002ee6d05b462a46a9a9754800685f
:1008b80002f046fc25ab2a4629a9a9a801f0f4fcb8
:1008c8000346002800f0f38010220df5ea63591959
:1008d800a1f2bc4125a802f071fe4ff290031b68fb
:1008e8002a4629a90df595609847002840f0ec8024
:1008f800c845c9dd4ff298031b680df59560984708
:10090800002840f0e3804ff2a0031b680df59560c6
:100918009847002840f0dc804ff294031b680df5df
:10092800956098470028afd00023c0e0059d78e087
:10093800002e6bd0e369c3f34f2ac3f308031bb13e
:100948000af1010a1ffa8afabaf1000f69d008f50c
:10095800007b4ff00008059510e0e569c5f3080332
:100968000bb11d4611e04ff400750ee008f10108c7
:100978000bf5007b1ffa88f39a4545d90af1ff3633
:10098800c1464645e9d04ff400752a465946a9a8fc
:1009980002f014fe25ab2a4629a9a9a801f084fc77
:1009a8000346002800f083800df5ea6359191022e8
:1009b800a1f2bc4125a802f001fe4ff290031b688a
:1009c8002a4629a90df595609847002840f08280ad
:1009d8004e45cbdd4ff298031b680df5956098479f
:1009e800002879d14ff2a0031b680df59560984750
:1009f800002873d14ff294031b680df59560984752
:100a08000028b3d03b4652e0059d0ae04ff2900320
:100a18001b68e26908f500710df595609847002894
:100a28005ed14ff29c031b6829460df595609847e7
:100a3800002857d14ff2a4031b680df5956098471d
:100a4800b0f1ff3ff6d000284ed194f82030022ba9
:100a58001ad0029304f154030193243400940df244
:100a6800ec630df21c723021284600f075fc034639
:100a7800e8b101f059ffb0fa80f35b0917e000bf55
:100a8800a1a0d3ec40ab0020029304f144030193ee
:100a9800243400940df2ec630df21c7220212846d8
:100aa80000f05afc03460028e3d100e00023184672
:100ab8000df2547dbde8f08f0023f8e70123f6e737
:100ac8000123f4e70023f2e70023f0e70023eee731
:100ad8000023ece73b46eae73b46e8e73b46e6e728
:0c0ae8003346e4e70023e2e70023e0e7e8
:020000040000fa
:0200000400807a
:100af4002de9f04fadf2fc5d8046894602929df8e7
:100b0400202601929a4623bb002945d04ff4007257
:100b140041467ea802f054fd1022faa97aa802f0f8
:100b24004ffdb34b4ff40072fea97ea801f0befb4b
:100b3400009048b1e422fea941a802f041fd41a879
:100b440002f086f9009068bb00980df2fc5dbde8e8
:100b5400f08f0321a74b188801f00afaa64b1860fe
:100b6400b0f1ff3f00f05481b9f1000f0bd04346c0
:100b74004ff400727ea9a048006802f0e3fa0090e6
:100b84000028c9d1e0e74346e422fea902f0dafadc
:100b940000900028ced1d7e7e4224146fea802f017
:100ba4000ffdc7e702f052fe944bd3f800b0e422e5
:100bb400594608a802f004fd08a802f049f9f8b162
:100bc400089b0393489b03f50073c3f30f31c3f3ee
:100bd4000b030bb1013189b2584602f07bfa0028ad
:100be40040f01981489bc3f34f27c3f308030bb1ab
:100bf4000137bfb2002f5dd008f5007500263be039
:100c04004ff0ff330393dde74ff40074b9f1000fa5
:100c14003cd0baf1000f0cd02b4622467ea9764870
:100c2400006802f08ffa48b900908de74ff4007421
:100c3400ece7224629467ea802f0c2fc7aab2246a3
:100c4400fea97ea801f032fb002800f0e780102204
:100c5400faa97aa802f0b4fcabeb080122462944b5
:100c6400fea801f0abfd002840f0da80013605f55e
:100c74000075b3b29f421dd97b1eb342c4dc489cad
:100c8400c4f30803002bd1d01c46bfe7baf1000f10
:100c94000ad02b462246fea95748006802f052fab1
:100ca4000028d9d100904fe722462946fea802f039
:100cb40087fcd1e70bf500744694039b5d1e4195b8
:100cc4004ff400720021fea802f054fde42241a971
:100cd400fea802f075fc4ff400725946fea801f01c
:100ce4006dfd019b5bbbbaf1000f16d000221146cb
:100cf400584602f0d1f9029b834247d1292140484a
:100d040001f01af8baf1000f64d03b4d286802f0e4
:100d14009ffc4ff0ff332b602ae00022114640462f
:100d240002f0baf9054600221146584602f0b4f919
:100d340085422bd12d21334800f0feffe2e700224b
:100d44001146584602f0a8f9029b83421ed1baf11b
:100d5400000f68d12d212b4800f0eeff012128f46b
:100d64007f6020f00f0002f0b5f9baf1000fccd18a
:100d7400214641a800f06cff002833d10d21224800
:100d840000f0daff204601f0c9ffdde61a4c2068c6
:100d940002f05efc4ff0ff33236000230093d3e6a0
:100da4000695154d4346f0220df58161286802f041
:100db400c9f910220deb0201fea802f001fc324633
:100dc400fea9286801f0defe286802f063f8002816
:100dd400fad0cae7012128f47f6020f00f0002f066
:100de40079f9c5e71421094800f0a6ffc6e700bf5a
:100df400f8aa002050ab002040ab0020d034800083
:100e0400f8208000c8208000b8208000a020800046
:100e14000023009398e60023009395e6009093e660
:100e24000023009390e62921084800f085ff28f06c
:100e3400ff06334610220deb02010548006802f05c
:100e440081f903460028abd100937de6f8208000a9
:040e540040ab00208f
:020000040000fa
:0200000400807a
:100e58002de9f041adf5a06d044688461e460023f5
:100e6800cdf8fc34851d1746c2b9002e44d0102297
:100e7800014686a802f0a2fb774b102206a986a895
:100e880001f012fa0546002800f0e18004220df175
:100e98001e010df2fc4002f091fb33e003216f4b81
:100ea800188801f063f86e4b1860b0f1ff3f00f04e
:100eb800cb80d6b12346102286a902f041f9054617
:100ec800002800f0c480644b102206a986a801f00f
:100ed800ebf90546002800f0ba8004220df11e0146
:100ee8000df2fc4002f06afb0ce02b4604220df2e6
:100ef800fc4102f025f905e0012229460df2fc40eb
:100f080002f040fbddf8fc24110cc2f3072343ea8e
:100f180002220b0243ea11239bb243ea0243cdf8b3
:100f2800fc34042241460df2fc4002f03ff900284f
:100f380040f08c80002f5ad0f6b123464ff400724f
:100f480086a94748006802f0fbf810220df5816178
:100f580002a802f033fb404b4ff4007206a986a8a2
:100f680001f0a2f90546002871d0e42206a90df582
:100f7800836002f023fb07e02346e4220df583613a
:100f88003748006802f0dcf80df5836000f06cfd6e
:100f9800054600285bd044f2640001f0ddfb314bcc
:100fa8001860002847d002ab009333463a460df547
:100fb80083612046fff7acfb054698b9002f3bd06c
:100fc800274e24f47f6121f00f01306802f0a8fb5e
:100fd8004ff4403002f0b0f9306802f037fb4ff0c0
:100fe800ff3333601f4b186801f074ff2fe0deb148
:100ff8004ff40072214686a802f0e0fa10220df59f
:10100800816102a802f0dafa134b4ff4007206a9c4
:1010180086a801f049f90546c8b1e42206a90df5ec
:10102800836002f0cbfaafe7e42221460df5836036
:1010380002f0c4faa8e7fee7012124f47f6020f05b
:101048000f0002f045f8cde7002500e0002528460e
:101058000df5a06dbde8f081f8aa002050ab002086
:0810680040ab002044ab002066
:020000040000fa
:0200000400807a
:10107000b0aa00201c0000000000000067ab0020a8
:10108000010000000000000069ab0020010000002a
:10109000000000006cab0020040000000100000014
:1010a000fffffffff8aa0020100000000000000072
:1010b00090aa0020200000000000000040ab0020ab
:1010c000080000000000000068ab002001000000e4
:1010d000000000006aab00200100000000000000da
:1010e000e4aa0020140000000000000048ab00202b
:1010f0000800000000000000ccaa0020180000003a
:101100000000000000a80020000200000000000015
:1011100070ab00200400000001000000001000007f
:101120003eab002002000000000000000080002014
:10113000002800000000000050aa0020400000002d
:10114000000000006bab0020010000000000000068
:1011500050ab0020040000000000000030ab002075
:10116000080000000000000008ab00201000000094
:101170000000000038ab0020060000000000000066
:1011800018ab00200c0000000000000064ab002041
:10119000030000000000000054ab00200800000025
:1011a0000000000074ab00200400000001000000fb
:1011b000010000005cab0020040000000000000003
:1011c00000aa0020500000000000000060ab0020da
:1011d000040000000000000024ab00200c00000010
:1011e0000000000000000000000000006666666667
:020000040000fa
:0200000400807a
:1011f000f0b5ebb00df1470424f03f04e422514b6d
:10120000196830a802f0def930a800f031fc18b1fe
:10121000309bb3f1ff3f58d0e4224a4b196930a804
:1012200002f0d0f930a800f023fc28b1309bb3f1d4
:10123000ff3f08bf012649d00df2a71001f0eefada
:101240009df8a731012b66d81b013e4ad558e422f0
:10125000294630a802f0b6f905f500762246314657
:1012600030a800f0d5f9379901f50071294411f043
:101270000f0f1cbf21f00f0110319df8ca30022b57
:101280000cbf202730273a4620a802f09bf93a46a7
:10129000214620a801f08eff002844d000231a46e2
:1012a00029492846fff7d8fd0446002844d0314696
:1012b00030a800f0cffc044690b31d21234800f075
:1012c0003dfd304601f02cfd2ae000262e2120486d
:1012d00000f034fd33011b4ad55800231a461a4941
:1012e0002846fff7b9fd88b1359a369b9a42a3d0bc
:1012f000002ea1d01521174800f020fd00210091fb
:101300000b460a462846fff7f5fb95e701212846dc
:1013100001f0e2fe90e716210f4800f00ffd0024d7
:1013200020466bb0f0bd19210c4800f007fd304697
:1013300001f0f6fc0124f3e70121284601f0ccfe80
:10134000eee700bfd034800058388000882180004c
:1013500024218000742a8000542180006c218000a8
:020000040000fa
:0200000400807a
:1013600070b59cb0534900248c60cc60524d2d6800
:101370000d6144f264064e618c61cc611992179341
:10138000209b1593219b13931b909df88830022b73
:101390006fd0302318931693149312931a9341f23b
:1013a00019020021284602f097f94ff218131b6822
:1013b000424898470146002859d04ff270131b68e5
:1013c000684698470dad6c460fcc0fc523682b605f
:1013d0004ff278231a684ff220131b681268119994
:1013e00006a89847079c002c3cd1069d4ff2341369
:1013f0001c6808ab00220da92846a0470446002817
:1014000030d14ff230131b682846984704464ff2fc
:10141000f81633680246089918a898473368224698
:10142000099916a89847336822460a9914a898473c
:10143000336822460b9912a89847336822460c99c4
:101440001aa898474ff23c131b68284698474ff25a
:1014500044131b682846984704464ff258131b68ec
:1014600028469847134b5c60b4fa84f040091cb0de
:1014700070bd202318931693149312931a9341f27c
:1014800019022146284602f027f94ff218131b686b
:101490000a489847014658b14ff26c131b686846da
:1014a00098470dad6c460fcc0fc523682b608fe7b6
:1014b0002046dce790aa002044ab002098aa002038
:020000040000fa
:0200000400807a
:1014c0002de9f04198b00546884616461f4600248f
:1014d000129413944d4b1868149044f264021592c0
:1014e00016941794214602f047f9cdf84480302233
:1014f0002146284602f040f90f95022f19d03023db
:101500000e9310934ff218131b6812a89847804649
:10151000002878d0032f17d14ff270131b680146b3
:101520006846984709ad6c460fcc0fc523682b6001
:1015300016e020230e9310934ff218131b6812a885
:101540009847804600285cd04ff26c131b684146d8
:101550006846984709ad6c460fcc0fc523682b60d1
:101560004ff28c231a684ff220131b6812680d99f2
:1015700007a89847089c002c38d1079d72074ff2a6
:1015800034131c6806ab02f0005209a92846a04794
:10159000044658bb4ff230163368284698474ff23e
:1015a000f8131b680246069910a898474ff23c139f
:1015b0001b68284698474ff244131b6828469847f3
:1015c00004464ff254131b68284698470746336871
:1015d000284698474ff210231b680eaa0146386828
:1015e00098474ff258131b68284698474ff21c1330
:1015f0001b6840469847b4fa84f0400918b0bde82b
:10160000f0812046fae70020f8e700bf44ab002055
:020000040000fa
:0200000400807a
:101610002de9f041adf5367d17460df29f2424f0fb
:101620003f04837a022b70d00d46c6694022002108
:10163000204602f0a1f84ff41172002107a802f031
:101640009bf84ff2c0031b684ff4117107a898472d
:101650004ff03008002853d14ff290031b683246f8
:10166000294607a8984700284ad14ff29c031b68d7
:10167000214607a89847002842d100bf4ff2a40393
:101680001b6807a89847b0f1ff3ff7d0002835d175
:1016900040220021384602f06ff804ad6e464ff24a
:1016a000d4031b6800213046984796e8070085e878
:1016b00007004ff240031b68294607a89847b8b9ae
:1016c0004ff260031d683b464246214607a8a847e3
:1016d00080b94ff264031b6807a8984760b94ff2be
:1016e00070031b6807a89847b0fa80f0400908e02b
:1016f000002006e0002004e0002002e0002000e0de
:1017000000200df5367dbde8f0810d46c66940220a
:101710000021204602f030f84ff41172002107a892
:1017200002f02af84ff2bc031b684ff4117107a8ae
:0817300098474ff020088de7f7
:020000040000fa
:0200000400807a
:1017380070b586b003213f4b188800f017fc3e4b6c
:101748001860b0f1ff3f72d00023102202a901f007
:10175800f7fc044608b302a800f0ceff18b1049bba
:10176800b3f1ff3f1cd04ff40023102202a93248e6
:10177800006801f0e5fc044678b102a800f0bcff5f
:1017880018b1049bb3f1ff3f3bd02b4c206801f00c
:101798005dff4ff0ff3323600024204606b070bd84
:1017a8000025254c206801f051ff4ff0ff332360de
:1017b8002b21224800f0befaed0405f110069df831
:1017c8000d30003318bf012301221d493046fff7b1
:1017d8003ffb0446b8b122211a4800f0abfa164c78
:1017e800206801f033ff4ff0ff332360012300939b
:1017f800bdf814209df80d103046fff777f9044620
:10180800cbe70125cde72a210f4800f093fa0a4ecd
:101818002946306801f084ff4ff4403001f08cfd18
:10182800306801f013ff4ff0ff333360b5e7002451
:10183800b3e700bf50ab002040ab0020ac248000d1
:0c1848005838800004258000d82480005f
:020000040000fa
:0200000400807a
:1018540030b5adf2145d3e4b1c69102221460df5e6
:10186400a06001f0adfe0df5a06000f047ff054655
:10187400002869d0ddf80835b3f1ff3f63d1103497
:101884009df805359bb9e42221460df21c4001f078
:1018940097fe0df21c4001f0dbfa0546002853d0f8
:1018a400ddf81c34b3f1ff3f1dd000254ce04ff4ac
:1018b4000072214607a801f083fe102283a903a821
:1018c40001f07efe234b4ff4007287a907a800f0b5
:1018d400edfc0546002837d0e42287a90df21c4010
:1018e40001f06efed5e71a211b4800f025fa01f03d
:1018f400adff4ff0864302221a609df80535003390
:1019040018bf0123002215492046fff7a3fa054614
:1019140078b11521124800f00ffa01230093002337
:10192400bdf80c259df805152046fff7e1f805469e
:101934000ae01d210b4800f0fff90121044b18694e
:1019440001f0c8fb00e0002528460df2145d30bd0f
:10195400d0348000f8aa0020382a8000583880004b
:08196400742a8000542a80005f
:020000040000fa
:0200000400807a
:10196c004ff08842d2f8003113f4007ffad0364a97
:10197c00536823f4704343f480535360536a13f059
:10198c00010ffbd0314ab2f8ba3423f002031b0426
:10199c001b0ca2f8ba3402f50052d36823f07e0374
:1019ac0043f00403d3604ff088430022c3f8b02007
:1019bc00274ac3f8b02002f12b42a2f54b12a2f633
:1019cc00ab42c3f8b02003f52063224a1a621e4ac8
:1019dc00536a03f00303032bfad11f4b1f4a1a60ff
:1019ec0001229a601a46136813f0010ffbd11a4baf
:1019fc0048f20902c3f8502140f201221a674ff451
:101a0c0000429a674ff088434ff410421a66002246
:101a1c001a67c3f88020c3f890201149c3f8c0108e
:101a2c00c3f8d02047f6fe72c3f8e0204ff03332f3
:101a3c00c3f8b020044b5a6842f010025a601a687e
:101a4c0042f080721a607047004001410020014151
:101a5c00556699aa280001c0000a0044050120001f
:041a6c00cf03810023
:020000040000fa
:0200000400807a
:101a70000379012b66d10368002b66d0374b1a68b7
:101a800003691b0ed2b29a4261d8344a1268d2431b
:101a9000d2b293425dd810b50446314b827a1978a0
:101aa000586801f0bbfb0346002849d02c4be27a72
:101ab000197ad86801f0b2fb0346002840d0284bc1
:101ac000227b197c586901f0a9fb0346002837d016
:101ad000234b627b197ed86901f0a0fb034678b3e3
:101ae0001f4b94f8202093f82010586a01f096fbc1
:101af000034628b31a4b94f8212093f82810d86a8b
:101b000001f08cfb0346d8b1154b94f8222093f8d2
:101b10003010586b01f082fb034688b1104b94f8eb
:101b2000232093f83810d86b01f078fb034638b1c6
:101b3000e389742b0fd16379012b14bf0023012398
:101b4000184610bd0023184670470023fbe700230a
:101b5000f9e70023f7e70023f2e700bf042c004475
:041b6000a42f80002e
:020000040000fa
:0200000400807a
:101b64002de9f047adf5167d07460c46904699469b
:101b7400d1f814a08e7a00250d754d758d75cd752f
:101b84004022294601f0f6fd4ff41172294605a8ba
:101b940001f0f0fd022e0cbf4ff2bc034ff2c00364
:101ba4001b684ff4117105a89847002843d14ff2e0
:101bb40090031b68742204f1100105a898470028bb
:101bc4003fd14ff29c031b68394605a8984700286b
:101bd40039d100bf4ff2a4031b6805a89847b0f1a0
:101be400ff3ff7d088bb022e13d0a37a029304f1ef
:101bf400b403019304f1840300934b46424630211d
:101c04003846fff7abfb0346b0b1c4f814a0012378
:101c140012e0a37a029304f1a403019304f1840370
:101c240000934b46424620213846fff797fb034674
:101c34000028ead100e0002318460df5167dbde822
:101c4400f0870023f8e70023f6e70023f4e700bf5a
:020000040000fa
:0200000400807a
:101c54002de9f041adf5835d86b007460e460df1e2
:101c64003f0525f03f052a46fff7d0fc034658b34d
:101c7400fc69344414f00f0f1cbf24f00f0410341b
:101c840024f47f6626f00f064ff4805231461ea8d6
:101c940001f096fcbb7a022b0cbf20223022c4f345
:101ca4000b049046a318b3f5805f2ed9c4f5805772
:101cb4003a4629461eab181901f082fc022130462f
:101cc40001f008fa30b1002318460df5835d06b023
:101cd400bde8f0814ff4805231461ea800f06efd3d
:101ce40008b10023f0e7a4f5805444442246e919de
:101cf4001ea801f065fc224606f580511ea800f0de
:101d04005dfdb0fa80f35b09dee729461eab1819c6
:101d140001f056fc0121304601f0dcf908b1002342
:101d2400d2e74ff4805231461ea800f047fdb0fac6
:061d340080f35b09c8e723
:020000040000fa
:0200000400807a
:021d3a00fee7c2
:020000040000fa
:0200000400807a
:101d3c002de9f84300295ed00f4600242f4e304b7e
:101d4c0000f1010edff8bcc006e00cf801809a60cf
:101d5c00621c0134974244d9726802f00702012ace
:101d6c0018d09968dd684a1cd3f81080424528bf0a
:101d7c000022954236d010f80480756805f00705ee
:101d8c00012de2d14d000cf81180691c00250cf8d6
:101d9c000150dce7d3f80880d96808f101021d690d
:101dac00aa4228bf002291421cd01ef8145010f8f1
:101dbc00141041ea0521756805f00705012d05d0c1
:101dcc00c9b20cf808109a60621cc2e74fea4805c9
:101ddc005ffa81f90cf818900135090a0cf8051016
:101dec00f1e7144601f000fc10b1044b01229a7586
:101dfc002046bde8f8830c46f4e700bf000c004019
:081e0c0050aa00200094002000
:020000040000fa
:0200000400807a
:101e14002de9f041294e2a4c4ff00108294f13e0d7
:101e2400226afab1616a236a40469847a36a013379
:101e3400226b934228bf002314e0a26aedb2bd5482
:101e4400a36294f83430fbb9337e13f0040f32d01c
:101e5400b56aa36a0133226b934228bf0023e26a66
:101e64009a42ddd0e26a9a42eed0726802f007022a
:101e7400012ae2d1a16a4a00e8b207f8110001324e
:101e8400c5f30725bd54dbe701f0befb236a002b35
:101e9400dad0616a94f83c3033b1a36b9842d3d35f
:101ea400236a00209847cfe7a36b9842ccd1236ada
:101eb40000209847c8e7bde8f08100bf000c00404f
:081ec40050aa0020008000205c
:020000040000fa
:0200000400807a
:101ecc0070b582b0254d264c264e14e0f25c8df890
:101edc000620013322699a4298bf0023e3606b68a5
:101eec0003f00703012b14bf9df80630bdf8063034
:101efc00ab62237dbbb92b7e13f0010f2cd0a268f3
:101f0c00e3689a4225d06a6802f00702012addd103
:101f1c005a0016f813108df806100132b25c8df8c9
:101f2c0007200133d6e701f0dbfb2368002be2d05e
:101f3c006168237f33b1a3699842dcd32368032003
:101f4c009847d8e7a3699842d5d1236803209847ce
:101f5c00d1e7024b01221a7502b070bd000c004093
:081f6c0050aa0020009400209f
:020000040000fa
:0200000400807a
:101f740038b5264b93f90230022b37d1234b5b68db
:101f8400002b36d10d460446214800210160818092
:101f9400662303701d4bdb681b68984760b31c48bd
:101fa4009923037000214170184bdb681b68984724
:101fb40028b3174800210160818038230370134b34
:101fc400db681b689847e8b115f0020f06d10f4b88
:101fd4005a6801325a60dd70204609e0204601f05b
:101fe4003df80028f3d14ff0ff3001e04ff0ff300f
:101ff40038bd4ff0ff30fbe74ff0ff30f8e74ff00c
:10200400ff30f5e74ff0ff30f2e700bf08ab0020e8
:0420140038ab0020c5
:020000040000fa
:0200000400807a
:1020180008b5194b9847194b9847eff3108172b6da
:10202800174ad2f8883043f47003c2f88830bff3f7
:102038004f8fbff36f8f01b962b6124a936823f0ce
:10204800010393601346da6812f0010ffbd10d4bc0
:1020580024225a6001229a6000f0d2fe0a4b23f033
:102068007f03074a9360094b9847094b9847094be8
:10207800984701f0b4fbfee7873880008738800076
:1020880000ed00e00020004100028000d52880001b
:082098008738800087388000c2
:020000040000fa
:0200000400807a
:1020a0005361766564205365637572656420486189
:1020b00073680d0a000000004a756d7020746f206f
:1020c0004170700d0a000000436f7069656420491b
:1020d0006d6167652066726f6d20496e7465726e02
:1020e000616c20536c6f74203120746f20536c6fbf
:1020f0007420300d0a000000436f70696564204948
:102100006d6167652066726f6d2045787420746f0d
:1021100020496e7465726e616c20466c6173680d47
:042120000a0000bff2
:020000040000fa
:0200000400807a
:10212400466f756e64206e657720457865637574b7
:1021340061626c6520496d61676520696e20496e36
:102144007465726e616c20466c6173680d0a0000e0
:102154004e6f2056616c696420496d616765204645
:102164006f756e640d0a00004d61746368206861c8
:1021740073682c204a756d7020746f204170700d47
:102184000a000000526563726561746564206861c9
:1021940073682c204a756d7020746f204170700d27
:0421a4000a0000bf6e
:020000040000fa
:0200000400807a
:1021a8002de9f0411c4ad36a956a89b30e46ab42c1
:1021b80008bf002227d00122dff864c0174ca0f125
:1021c800020e0138144f0ce0e15c81540133396b85
:1021d800994298bf0023b24214d2511cab4212d08c
:1021e8000a46dcf8041001f007010129ecd1590076
:1021f80014f813800ef812800131615c00f8121097
:102208000133e4e71d46044bdd621046bde8f0816a
:102218001d460a46f7e700bf50aa002000800020ac
:04222800000c004066
:020000040000fa
:0200000400807a
:10222c00f0b51f4c2568a446002d36d00022294657
:10223c0016461346d1f800e00f6986450ad132b133
:10224c00176101f110031846f0bd3946f2e7ccf8de
:10225c000070f6e705d9ebb11c68a6453cbf1646e5
:10226c000b460a46002ff0d1002becd019461f6903
:10227c0051f8102b121a102a05d918600844103a7c
:10228c000761026007469d420cbfccf800703761b5
:10229c000b46d8e716460b46e3e72b46d3e700bfc1
:0422ac0058ab00200b
:020000040000fa
:0200000400807a
:1022b0002de9f041beb005460f46164698464ff050
:1022c000864302221a606c464ff2d0031b68174afd
:1022d0001021204698473bab94e8070083e80700ad
:1022e0004ff24c0214684246194604a8a04700b1b8
:1022f000fee74ff260031c683b463246294604a8bd
:10230000a04700b1fee74ff264031b6804a898479a
:1023100050b94ff270031b6804a89847b0fa80f0d8
:1023200040093eb0bde8f0810020fae78837800020
:020000040000fa
:0200000400807a
:102330001c4b1d4a1a604ff6a0029a814ff440329e
:102340005a601a46d369002bfcd1164a136843f031
:1023500002031360d369002bfcd1144b00221a62d4
:102360009a62da6283f8342083f83c209a63da8731
:102370001a609a60da601a751a779a61094b5b687d
:1023800003f00703012b094b14bf4ff4a0524ff485
:1023900020621a631a61034b80229a7504229a758f
:1023a000704700bf000c00400401104050aa0020fc
:020000040000fa
:0200000400807a
:1023b00008b54ff088431b6913f4003f07d14ff075
:1023c00088434ff400329a61154b01221a704ff086
:1023d00088434ff480329a61fff7c8fa114b1868ae
:1023e00020f49f7020f001004ff2d0231b6840f0d2
:1023f0001200984700f0fdff01f024f801f0bbf94e
:10240000fff796ff01f086f90749002000f0b0ffc2
:10241000064b186001f0eef900f02efa08bd00bf7f
:102420006bab0020002401447c38800050ab0020be
:020000040000fa
:0200000400807a
:102430002de9704f82b08346164621f0ff0a12f054
:10244000ff0f07d05242f3b2d2b258bf5342f61a2e
:1024500006f58076b04600bf06eb0a03a3eb08033f
:1024600001930beb0609a9eb0809b8f1000f10dd89
:102470000d4d286800f010fd04460128f9d1019a9d
:102480004946094b186800f07ffb48b1a8f58078f1
:10249000e2e7054c206800f0fffc0028fad0002499
:0c24a000204602b0bde8708f6cab00203d
:020000040000fa
:0200000400807a
:1024ac00466f756e6420556e61757468656e7469df
:1024bc00636174656420496d61676520696e2045b0
:1024cc00787420466c6173680d0a0000496d616771
:1024dc00652041757468656e7469636174696f6eab
:1024ec00206661696c656420696e204578742046ad
:1024fc006c6173680d0a000041757468656e7469cf
:10250c00636174656420496d61676520696e20455f
:0c251c00787420466c6173680d0a0000a2
:020000040000fa
:0200000400807a
:10252800f8b50f4616461c461a46012100f052fb24
:102538000546d0b144f0806106f00302032e16d898
:102548001abb4ff08443da69bff34f8fbff36f8f25
:10255800114a1a601a46d36913f4806ffbd04ff002
:102568008442d36943f48063d3612846f8bdb00838
:1025780001383c46a1eb070c54f80c3044f8043bf6
:102588000138b0f1ff3ff7d1dae726f00300014444
:0c259800384401f01ff8d4e702000001f5
:020000040000fa
:0200000400807a
:1025a400f8b50f4616461c461a46032100f014fbe4
:1025b4000546c8b144f0806006f00302032e15d826
:1025c40012bbbff34f8fbff36f8f4ff08443124a98
:1025d4001a601a46d36913f4806ffbd04ff084421b
:1025e400d36943f48063d3612846f8bdb408013c41
:1025f4003946a0eb070c0b6841f80c300431013c60
:10260400b4f1ff3ff7d1dbe726f00306b9193044f4
:0c26140000f0e2ffd5e700bf020000016b
:020000040000fa
:0200000400807a
:1026200008b5194b1b7813b1012b04d008bd164b0c
:1026300001221a70fae7154b10225a601b6a13f038
:10264000100f06d10b211248fff778fb00f080ff36
:10265000fee74ff0864302221a60fff76df8fff79e
:10266000f9f8fef7c5fd0028f2d14ff4403000f034
:1026700067fe084b1b78002bead04ff088434ff4dd
:1026800000325a61e4e700bf68ab0020002a004432
:08269000003880006bab002054
:020000040000fa
:0200000400807a
:102698000010000400000001ffff07000200000016
:1026a800d0348000ffff0700b03680000000000033
:1026b800000000000000000000000001ffff07010b
:1026c800ffffffff0010000100000000ffff7f0078
:1026d80002000000f0348000ffff7f00c436800055
:1026e80000000000000000000000000000000000e2
:0826f800ffff7f00ffffffff61
:020000040000fa
:0200000400807a
:1027000030b583b0044603680193042213490debee
:10271000020000f04ffdc0b92379012b18d1a37935
:10272000012b17d8a568bdb1a060631e04f10d018f
:1027300013f8012f104480b28b42f9d1a560e389d0
:10274000834214bf0020012000e0002003b030bd10
:102750000020fbe70020f9e70020f7e75838800069
:020000040000fa
:0200000400807a
:1027600037b5154d2b68044673b100f0e1fe0190ba
:1027700001a800f092ff0f30019920f00f0000f047
:1027800075ff60b100232b60002c08bf01240f34bb
:1027900034f00f0405d1094b0c221a60204603b017
:1027a00030bd042c38bf04242046fff73ffd00282d
:1027b000f5d040f8044cf2e774ab00205cab00208d
:020000040000fa
:0200000400807a
:1027c0002de978478146144621f00f0812f00f0fcb
:1027d00008d0524204f00f0302f00f0258bf5342d8
:1027e000e41a1034254600bf04eb0801a1eb050aea
:1027f00009eb0400461b002d0bdd00bf00f0e4ffd9
:102800000028fbd15146304600f008fe20b1103db3
:0c281000eae70020bde878870120fbe724
:020000040000fa
:0200000400807a
:10281c0030b5bbb00546ff230370e422124b196898
:10282c0001a800f0c9fe01a800f00efb30b1019c1c
:10283c00b4f1ff3f04d000232b7001e04ff0ff34c4
:10284c00e422094b196901a800f0b6fe01a800f0ba
:10285c00fbfa28b1019ba34202d201222a701c462a
:0c286c0020463bb030bd00bfd0348000df
:020000040000fa
:0200000400807a
:10287800144bda6822f4e0621204120c42f0bf62d0
:1028880042f40032da60bff35f8f62b60e4ae0218d
:1028980082f803130820106082f80c134ff480515b
:1028a80011605a6a42f480225a625a6942f0100250
:1028b8005a615a6a42f400325a625a6a42f48032c1
:0c28c8005a62704700ed00e000e100e003
:020000040000fa
:0200000400807a
:1028d4000e4a38b5002313600d4a0e4c13600e4a9d
:1028e4000e4d13600e4a13600e4a13600e4a536273
:1028f40013610123936000f0c5ff00f0c3ffac42f5
:1029040000d338bd54f8043b9847f8e760ab002087
:102914000caa0020f802800008aa0020fc02800013
:0c29240000aa002004aa002010aa002035
:020000040000fa
:0200000400807a
:1029300010b54ff240131b68114a106898470446bf
:1029400078b1032819d04ff258131b680c4a10684d
:1029500098474ff21c131b680a4a106898470224d4
:102960000be04ff258131b68054a106898474ff266
:102970001c131b68034a10689847204610bd00bf0f
:0829800090aa002044ab0020e6
:020000040000fa
:0200000400807a
:10298800114b9b5c2bb902b170470370ff230b708e
:1029980070470e4a12780270d2430a709a1ed2b259
:1029a800012bf1d030b40a4dad1a0a4b02781c78cd
:1029b8002243027013f801490a7822ea04020a70d5
:1029c8009d42f3d130bc704778388000552c0044c4
:0829d800532c0044542c004470
:020000040000fa
:0200000400807a
:1029e00008b5144b9b7df3b1124a137edbb2927d86
:1029f00012f0800f18d10f4a137edbb2927d12f0d5
:102a0000010f04d013f0010f01d0fff75ffa094a5c
:102a1000137edbb2927d12f0040f04d013f0040f8a
:102a200001d0fff7f7f908bd13f0800fe3d000f0f5
:082a3000c5f9e0e7000c0040cd
:020000040000fa
:0200000400807a
:102a3800466f756e6420556e617574686f72697a39
:102a4800656420496d6167650d0a0000496d61671d
:102a5800652041757468656e7469636174696f6e29
:102a6800204661696c65640d0a0000004175746850
:102a7800656e7469636174656420496d6167650d8d
:042a88000a0000bf81
:020000040000fa
:0200000400807a
:102a8c002de9f04180460f46164600f087fe3d4684
:102a9c00d7b100250ae0b34216d80121fff77efb1f
:102aac000b4b00221a700135af420dd008eb05001c
:102abc00074b1b78002bf0d13446054901330a78bb
:102acc00002ae8d1a342f9d92846bde8f08100bf1d
:042adc006aab0020c1
:020000040000fa
:0200000400807a
:102ae000f0b4124b1880124800f580670022164699
:102af00041f2210507e000bf40f8043f02f5807273
:102b000092b2b84210d011460824334683ea010c31
:102b10001cf4004f14bf85ea43035b009bb24900dd
:102b200089b2013cf2d1e7e7f0bc70473eab002030
:042b3000fca70020de
:020000040000fa
:0200000400807a
:102b340038b50d4603784ff08444636383781b04ef
:102b440003f4f81341780b4343f09003a363a36b9e
:102b54004ff08061284600f03ffdbff34f8fbff375
:102b64006f8f074b23602246d36913f4806ffbd029
:102b74004ff08442d36943f48063d361012038bdac
:042b8400020000014a
:020000040000fa
:0200000400807a
:102b8800b0f1ff3f1ed02de9f0411546884600f010
:102b980079fc034610b91846bde8f0810b480023bc
:102ba8000360436083600227077006238370084e22
:102bb800f3681c692b464ff480724146a0470346d0
:102bc8003772e8e700231846704700bf18ab0020ab
:042bd80008ab002026
:020000040000fa
:0200000400807a
:102bdc0010b44ff0844422634278037843ea0243f2
:102bec00636383788288134382791ab10289134311
:102bfc0043f04003827a0ab143f48043090301f4a1
:102c0c0040511943c37a1b0403f4f813194341f0e0
:102c1c00b0014ff0844399639b6b01205df8044b2a
:022c2c007047ef
:020000040000fa
:0200000400807a
:022c2e00fee7bf
:020000040000fa
:0200000400807a
:102c30002de9704380460e46104d4ff4403996b151
:102c4000286800f029f904460128f9d1414628688e
:102c500000f06afd70b1013eb6b208f580584846f2
:102c600000f06efbebe7054c206800f015f900283a
:102c7000fad000242046bde8708300bf6cab002072
:020000040000fa
:0200000400807a
:102c8000032a00d9fee770b50c4605460d4b9e5c45
:102c900030220021204600f06ffd731edbb256b1da
:102ca00001332344224608492144881a007802f857
:102cb000010b9a42f9d1054b1b68c3f300432b70fb
:102cc00070bd00bf78388000552c0044002c0044b3
:020000040000fa
:0200000400807a
:102cd0000f4b1b684ff08242907800f00100c3f365
:102ce0008113013b022b0bd8a2f1b062a2f5ca22dc
:102cf000a2f2ff62074b002814bf10461846704727
:102d0000054a064b002814bf10461846704700bffe
:102d1000002c0044a1a0d3ec4a68a55abf29bc8e60
:020000040000fa
:0200000400807a
:102d200038b5046845684ff4403000f009fb0e4a9e
:102d3000136823f0020313600c4b1b7823b14ff090
:102d400088434ff400325a61074ad369002bfcd103
:102d50004ff0864300221a60b4f1ff3f02d084f3a3
:102d60000888284738bd00bf000c00406bab00202e
:020000040000fa
:0200000400807a
:102d700010b503784ff084446363437843f40253ff
:102d800043f01003a363a36b4ff0806000f026fcb8
:102d9000bff34f8fbff36f8f074b23602246d3697a
:102da00013f4806ffbd04ff08442d36943f4806307
:0c2db000d361012010bd00bf0200000133
:020000040000fa
:0200000400807a
:102dbc0008b5104b5b8b13f0070300d108bd0e4a0e
:102dcc00d3870c4b80221a7607225a831b7e13f072
:102ddc00040f05d0074b9a6a1a7e12f0040ffad131
:102dec00054b1b6a002be9d0034b596a1b6a022066
:0c2dfc009847e3e7000c004050aa0020bc
:020000040000fa
:0200000400807a
:102e080070b50e4b0e4a0021934208d30d480e4d63
:102e18004ff6ff76016829b943681bb970bd03f8fe
:102e2800011bf1e783684268334000f10c0455f850
:102e380023302046984704eb8000ebe70080002011
:0c2e480000800020701080003c378000eb
:020000040000fa
:0200000400807a
:102e540010b582b00446d0f80630190cc3f307222b
:102e640042ea03220b0243ea11239bb243ea0243e0
:102e74000193042206490deb020000f099f910b108
:102e8400002002b010bd2046fef7f0fdf9e700bfb8
:042e9400583880002a
:020000040000fa
:0200000400807a
:102e980000b583b000238df80730b0f1ff3f13d0a1
:102ea8000b4b1b7a012b0bd001220df1070100f00f
:102eb80013fa58b19df8073083f0010303f00103ba
:102ec800184603b05df804fb0223f9e70223f7e78d
:042ed80008ab002023
:020000040000fa
:0200000400807a
:102edc0070b590b10e4d2a68a0f110042e46a2b127
:102eec0050f8101c43189a42136807d1103312691a
:102efc0002600b4440f8103c2c6070bd1033d518a8
:102f0c00ac4202d10b441360f7e702603460f4e783
:042f1c0058ab00208e
:020000040000fa
:0200000400807a
:102f200030b583b005460c4600218df807108df8aa
:102f300006100df106010df10700fff725fd9df8c4
:102f400007109df80620cb43dbb2934200d0fee78a
:102f500009b9ff2a01d003b030bd2b781c432c7077
:022f6000f9e78f
:020000040000fa
:0200000400807a
:022f6200fee788
:020000040000fa
:0200000400807a
:102f640010b5054c227832b9044b13b10448aff3c1
:102f740000800123237010bdb0aa002000000000cf
:102f84000000000008b5034b1bb103490348aff32d
:102f9400008008bd00000000b4aa0020000000006a
:020000040000fa
:0200000400807a
:102fa40003000000743880000100000069ab0020b9
:102fb4000100000067ab00200100000069ab0020a5
:102fc40003000000743880000100000069ab002099
:102fd4000100000067ab00200100000069ab002085
:020000040000fa
:0200000400807a
:102fe400837833b14ff084431963838843f020011d
:102ff40000e0002103784ff08442536343780b438d
:1030040043f010039363d36913f4806ffbd04ff044
:0e3014008442d36943f48063d3610120704786
:020000040000fa
:0200000400807a
:02302200fee7c7
:020000040000fa
:0200000400807a
:1030240038b504460d4600f02ffa034678b1094836
:103034000470062343700123837000238380064cad
:10304400e3681b6829469847034603222272184600
:0c30540038bd00bf38ab002008ab0020e6
:020000040000fa
:0200000400807a
:1030600008b5b0f1ff3f11d000f010fa034670b17f
:1030700008480021c0f8021098230370062343700b
:10308000054bdb681b689847034600e000231846a1
:0c30900008bd00bf38ab002008ab0020da
:020000040000fa
:0200000400807a
:10309c0030b5adf5017d04464ff40072014668462b
:1030ac0000f08afa079d002305934ff6ff724ff448
:1030bc00f87104a800f092f80246294604f5007055
:0a30cc0000f08cf80df5017d30bd19
:020000040000fa
:0200000400807a
:0230d600fee713
:020000040000fa
:0200000400807a
:1030d80038b505460c46c0f30b0383b96cb100bf85
:1030e80000f06efb0028fbd1284600f09dfb40b1a4
:1030f800013ca4b205f58055f0e7002000e002206d
:0831080038bd0120fce700bf07
:020000040000fa
:0200000400807a
:10311000a1b110b40a4b1b8841180a4c10f8012bbe
:1031200082ea132254f8222082ea03239bb28842c7
:10313000f4d1034a13805df8044b7047704700bf19
:083140003eab002000a80020b6
:020000040000fa
:0200000400807a
:10314800b0f1ff3f11d038b509480024046044604d
:1031580084600b24047006248470c472054ce568ee
:10316800ed68a8470123237238bd0020704700bfcf
:0831780018ab002008ab002099
:020000040000fa
:0200000400807a
:103180002de978410d4690461e46094c2068fff710
:1031900083fe0028fad04346324629460448006898
:1031a000fff7d2ff80f00100c0b2bde8788100bf18
:0431b0006cab0020e4
:020000040000fa
:0200000400807a
:1031b400b2b130b4154604780a7894420ad1034671
:1031c40028440138834209d013f8014f11f8012f24
:1031d4009442f7d0121bd0b230bc70470020fbe7fa
:0431e4000020704710
:020000040000fa
:0200000400807a
:1031e800b1b110b4411800bf10f8013b83ea1223b3
:1031f80083ea13139cb243ea022383ea043383ea83
:1032080044139ab28142efd110465df8044b7047df
:0432180010467047a5
:020000040000fa
:0200000400807a
:10321c0099b110b40c46034613f8011b91420ed021
:10322c002044984205d013f8014b9442f9d1012067
:10323c0000e000205df8044b70470020704701202f
:02324c00f8e7a1
:020000040000fa
:0200000400807a
:10324e00abb1f0b405461e46043a002402e0013448
:10325e00b44209d052f8040f4368ab42f7d847691d
:10326e003b448b42f3d300e00020f0bc70470020bb
:02327e00704797
:020000040000fa
:0200000400807a
:1032800038b5eff3108572b6084c20634ff48043d5
:1032900063600f2262601140a160a36000f0e4f857
:1032a0004ff40043a36085f3108838bd0006004446
:020000040000fa
:0200000400807a
:1032b000b0f1ff3f0dd008b50748af2303700623d8
:1032c000437002238370054bdb685b6803229847d9
:1032d00008bd0020704700bf64ab002008ab002091
:020000040000fa
:0200000400807a
:1032e000b0f1ff3f0dd008b5074805230370062352
:1032f000437002238370054bdb685b68d2b298474a
:1033000008bd0020704700bf64ab002008ab002060
:020000040000fa
:0200000400807a
:10331000064b1a680ab9064a1a60064a116809b9c2
:10332000054911601a68054b1a6070472cab0020e4
:1033300080ab002028ab002080ef002024ab0020d1
:020000040000fa
:0200000400807a
:1033400080b485b000af78600023fb6005e0fb68c7
:10335000013bfb60fb680233fb60fa687b689a42c2
:0e336000f5d300bf1437bd465df8047b7047ff
:020000040000fa
:0200000400807a
:02336e00fee778
:020000040000fa
:0200000400807a
:10337000094b1b786bb910b4074b00229a700124db
:103380001c705a600a68da6002229a705df8044b79
:0c33900070474ff0ff30704708ab002082
:020000040000fa
:0200000400807a
:10339c0010b5084c23680bb9fff7b4ff0649226837
:1033ac0009681044814234bf4ff0ff322060104650
:0c33bc0010bd00bf24ab002028ab002097
:020000040000fa
:0200000400807a
:1033c80093b1f8b51f4616460d4604460021284617
:1033d80000f0baf93346224629460020b8470028ab
:0a33e8000cbf28460020f8bd704716
:020000040000fa
:0200000400807a
:0233f200704722
:020000040000fa
:0200000400807a
:1033f40008b5074b1b68b3f1ff3f00d008bd03219c
:10340400044b1888fef7b4fd014b1860f6e700bfc3
:083414006cab002050ab00205e
:020000040000fa
:0200000400807a
:10341c0008b5024608461168064b196451681965cf
:10342c0091681966d2681a670221fff723ff012001
:08343c0008bd00bf00060044ba
:020000040000fa
:0200000400807a
:103444004ff0844301221a6040f201625a604ff443
:1034540040729a6002221a601a46136a13f0020f2d
:04346400fbd07047e2
:020000040000fa
:0200000400807a
:10346800064b00221a62064a1a6202f12b42a2f5a2
:103478004b12a2f6ab421a62704700bf0006004426
:04348800556699aa42
:020000040000fa
:0200000400807a
:10348c0008b506480021c0f80210062303704370eb
:10349c00034bdb681b68984708bd00bf38ab0020a6
:0434ac0008ab002049
:020000040000fa
:0200000400807a
:1034b00000b583b001a9054b1868fff7f9fe18b9ec
:1034c000002003b05df804fb0198fae76cab002024
:020000040000fa
:0200000400807a
:1034d00000000001000004000000080001000000de
:1034e00000000401000004000000000001000000d2
:020000040000fa
:0200000400807a
:1034f00000000000000008000000000000000000c4
:1035000000000800000008000000000000000000ab
:020000040000fa
:0200000400807a
:1035100008b50121084600f085f8012000f07cf98b
:103520000021024800f07ef908bd00bf99378000f5
:020000040000fa
:0200000400807a
:1035300010b5054c22680ab9fff7eafe034b18687c
:103540002368c01a10bd00bf24ab002028ab0020a8
:020000040000fa
:0200000400807a
:1035500000b58db0684600f095f8009b23b19df84a
:0e3560002c10684600f06af90db05df804fb0f
:020000040000fa
:0200000400807a
:10356e0010b50023934206d113f0030018bf0120bb
:0e357e0000eb930010bdc45ccc540133f2e7a7
:020000040000fa
:0200000400807a
:10358c00531e4ab1043800bf51f8042b40f8042fe5
:0c359c00013bb3f1ff3ff7d1704700bfc7
:020000040000fa
:0200000400807a
:1035a8005ab110b40a44431e11f8014b03f8014ff5
:0c35b8009142f9d15df8044b7047704758
:020000040000fa
:0200000400807a
:1035c40042b101388a1800bf11f8013b00f8013fed
:0835d4009142f9d1704700bfdc
:020000040000fa
:0200000400807a
:1035dc0042b10139821800bf11f8013f00f8013bdc
:0835ec009042f9d1704700bfc5
:020000040000fa
:0200000400807a
:1035f400044a9368d06883423ebf024a12699b180a
:08360400181a704750aa0020bb
:020000040000fa
:0200000400807a
:10360c00044bd86a9b6a984282bf024a126b9b1881
:08361c00181a704750aa0020a3
:020000040000fa
:0200000400807a
:10362400044b93f8342083f8340083f83c1010469c
:08363400704700bf50aa0020fe
:020000040000fa
:0200000400807a
:10363c0008b5044b1b681bb1024b58681b689847b4
:08364c0008bd00bf30ab0020f7
:020000040000fa
:0200000400807a
:10365400b0f1ff3f05d0034b5b6813b1013b014a56
:083664005360704708ab002021
:020000040000fa
:0200000400807a
:10366c00044a136823b9106003610160012070479c
:08367c000020704758ab00204c
:020000040000fa
:0200000400807a
:1036840010b5044600f0def8206034306060022398
:0636940084f82c3010bd8b
:020000040000fa
:0200000400807a
:10369a000068002808b501da002008bdfff779fea6
:0636aa00431cfad1f8e711
:020000040000fa
:0200000400807a
:1036b00051388000c1278000d9378000d930800080
:0436c00071388000dd
:020000040000fa
:0200000400807a
:1036c400f53380003124800081318000312c80006a
:0436d400b13480008d
:020000040000fa
:0200000400807a
:1036d800531e2ab140f8041b013bb3f1ff3ff9d157
:0436e800704700bf68
:020000040000fa
:0200000400807a
:1036ec0010b5034b1c69fff77fff013c201a10bd7e
:0436fc0050aa0020b0
:020000040000fa
:0200000400807a
:10370000e52f8000352b8000712d80002925800059
:04371000a52580006b
:020000040000fa
:0200000400807a
:1037140008b5034b186b0021fff7b0fd08bd00bfcf
:043724000006004457
:020000040000fa
:0200000400807a
:10372800b0f1ff3f04d008b52020fff777fc08bdb3
:0437380000207047b6
:020000040000fa
:0200000400807a
:10373c00653780006f3580008138800081388000cb
:04374c008138800040
:020000040000fa
:0200000400807a
:1037500032b1c9b20244034603f8011b9342fbd1c4
:04376000704700bfef
:020000040000fa
:0200000400807a
:103764000a440023914201d10020704701f8013b33
:02377400f8e774
:020000040000fa
:0200000400807a
:0237760070479a
:020000040000fa
:0200000400807a
:1037780022b1821800f8011b8242fbd1704700bfba
:020000040000fa
:0200000400807a
:10378800aabbccddeeff0011223344556677889939
:020000040000fa
:0200000400807a
:1037980010b9024b01221a70704700bf6aab0020b3
:020000040000fa
:0200000400807a
:1037a800024bd88f0022da87704700bf50aa00204a
:020000040000fa
:0200000400807a
:1037b80008b513460a461946fff7f2fe012008bd70
:020000040000fa
:0200000400807a
:1037c800024b1868c0f3c030704700bf00060044c1
:020000040000fa
:0200000400807a
:0e37d80008b508461946fff7ebff002008bdb4
:020000040000fa
:0200000400807a
:0e37e60008b50020fef7e1fd00f03bf8fce71f
:020000040000fa
:0200000400807a
:0c37f400014b00221a70704768ab0020e7
:020000040000fa
:0200000400807a
:0c3800005374617274204446550d0a0098
:020000040000fa
:0200000400807a
:0c380c00014b1888704700bf3eab002045
:020000040000fa
:0200000400807a
:0c38180008b1014a9063704750aa0020dc
:020000040000fa
:0200000400807a
:0c382400014b18625962704750aa002046
:020000040000fa
:0200000400807a
:0c38300008b50421fff724fd012008bdad
:020000040000fa
:0200000400807a
:0c383c0008b511b108b1fcf763fdfee710
:020000040000fa
:0200000400807a
:0838480000487047982680003b
:020000040000fa
:0200000400807a
:0838500008b5fff75fff08bd9a
:020000040000fa
:0200000400807a
:083858004d434850000000bf81
:020000040000fa
:0200000400807a
:0838600008b5fef76bfa08bd84
:020000040000fa
:0200000400807a
:0838680008b5fef7d9fe08bd0a
:020000040000fa
:0200000400807a
:04387000002070477d
:020000040000fa
:0200000400807a
:04387400030200004b
:020000040000fa
:0200000400807a
:0438780000002030fc
:020000040000fa
:0200000400807a
:04387c000037800091
:020000040000fa
:0200000400807a
:04388000002070476d
:020000040000fa
:0200000400807a
:02388400fee75d
:020000040000fa
:0200000400807a
:02388600704789
:020000040000fa
:0200000400807a
:02388800704787
:00000001FF
