:020000040000fa
:0200000400807a
:10020000f8ff00200920800013308000c7308000f4
:10021000e3338000773780007538800000000000ed
:10022000000000000000000000000000532f8000cc
:100230005f33800000000000532f8000532f8000a8
:10024000532f8000532f8000532f8000cd35800026
:10025000532f8000532f8000532f8000532f800096
:10026000532f8000532f8000532f8000532f800086
:1002700021298000532f8000532f8000532f8000ae
:10028000532f8000532f8000532f8000532f800066
:10029000532f8000532f8000532f8000532f800056
:1002a000532f8000532f8000532f8000532f800046
:1002b000532f8000532f8000532f8000532f800036
:1002c000532f8000532f8000532f8000532f800026
:1002d000532f8000532f8000532f8000532f800016
:0c02e000532f800000000000532f80000e
:020000040000fa
:0200000400807a
:1002ec00f8b500bff8bc08bc9e467047792f80005b
:1002fc00f8b500bff8bc08bc9e467047552f80006f
:020000040000fa
:0200000400807a
:10030c002de9f04f85b00190029141f2100002f0fe
:10031c0019faaf4b186000b9fee703f0ebf8ac4ede
:10032c00dff8b8b29ae1d2f80480aa4bc3f8048083
:10033c00029b019a4146404602f07bff8146002811
:10034c0000f08381bfb2038803fb078743684269cf
:10035c0013449f4280f079818369002b00f0ce8199
:10036c001a68002a00f0bc819047d9f8283048ea76
:10037c000303d9f82c001840d9f81830002b00f0e2
:10038c004481db68002b00f042812946984780b2fb
:10039c0031e150688f4b5860029b019a014602f084
:1003ac0048ff0546002800f0508142690088b2fbe6
:1003bc00f0f76b68b9b200fb01311a44914200f2bc
:1003cc004481aa69002a00f099811168002900f083
:1003dc007b8188476b68a86a0343e86a1840ab695d
:1003ec00002b00f01681db68002b00f01481b9b2f1
:1003fc00984780b2ffe05768764b5f60d2f8088070
:10040c00c3f8088002f1100ad2680392da60c3f8cc
:10041c0010a0029b019a07eb0801384602f009ff75
:10042c008146002800f01181836a1f43c36a1f4074
:10043c00836973b11a681ab19047d9f8183043b16f
:10044c005b6833b14246394650469847002840f025
:10045c00e480012d08d0022d3cd00025039bab423b
:10046c0014bf02200020c6e0d9f818304bb1d3f8e5
:10047c0008a0b8f1000f5fd000253b4647469846d0
:10048c0007e04ff0000af4e7204602f019fd002fb8
:10049c00e4d0514b1a68ba4228bf3a4691461046ee
:1004ac0002f050f90446002848d053464a4601460b
:1004bc00404602f07bffc844a7eb0907b9f1000fd7
:1004cc00e2d004eb0902234613f8011b0d449342be
:1004dc00fad1d9e7d9f818305bb3d3f808a04ff6a6
:1004ec00ff7002f043fbb8f1000f1ed0dff8e8906c
:1004fc00454600bfd9f80040ac4228bf2c462046e8
:10050c0002f020f98046d8b15346224601463846bf
:10051c0002f04cff27442d1b2146404602f006fefc
:10052c00404602f0cdfc002de4d103f079f90546ec
:10053c0094e74ff0000ad2e745468fe700258de798
:10054c0000258be75068234b586091689960029b9b
:10055c00019a014402f06dfe8146002875d0836932
:10056c0013b11b6803b198471a4b5f68d9f8282060
:10057c001743d9f82c201740d3f808a0d9f83040ed
:10058c00baf1000f4bd0144b1d68554528bf55468a
:10059c00284602f0d7f88046002842d0d9f8183007
:1005ac00a3b19b682a464146384602f0fffe2f4411
:1005bc0008eb950143468b4212d013f8012b944261
:1005cc00f9d0404602f07cfc022014e00023e9e75d
:1005dc0050ab0020e4aa002070ab00204cab0020f4
:1005ec00aaeb050a404602f06bfcbaf1000fcad127
:1005fc00002000e00320434b1c88072c13d140f44f
:10060c00e020414b1860042125e00020f3e7002096
:10061c00f1e70020efe70020ede70220ebe70020f8
:10062c00e9e70220e7e70a2c07d02404042828bfb6
:10063c0002200ce00120e2e7002040f42020324ba5
:10064c00186000225a60082105e02404022020438f
:10065c002d4b186004212c4803f0f8f842f210726c
:10066c0041f21001306802f057fa0028f6d03268d7
:10067c001768cbf800703c0ca3b222490b80bdb2ba
:10068c004d80043b0d2bb5d801a151f823f000bfd0
:10069c009f038000330380005105800041068000d9
:1006ac0001068000010680004506800001068000de
:1006bc000106800001068000010680000106800012
:1006cc000106800003048000a86a0343e86a18400e
:1006dc00d368002b7ff48bae0a4b1c880020a4e758
:1006ec00806a48ea0000d9f82c201040db68002b07
:1006fc007ff44bae034b1c88002096e7014b1c8803
:0c070c00002092e7e4aa0020ccaa002004
:020000040000fa
:0200000400807a
:100718002de9f04fadf2547d80460c4617461e4633
:1007280000238df84f378df8a73402f0c5faa37a65
:1007380094f820209a4240f0b9810df1570525f030
:100748003f058146e17a94f82120914240f0b48136
:10075800002b00f0b381002e7cd100238df8a73444
:10076800ff238df8303755238df81c37aa238df8d1
:100778004b37e37aa27a0df21c710df24f7002f03a
:1007880073fae37aa27a15210df2a74002f0bcfbb6
:10079800e37aa27aa3210df2a74002f0b5fbb84b89
:1007a80099450cd003f19d4303f5181303f506632f
:1007b800994504d09df8a734b72b00f08181a37a1e
:1007c8009df84f270df21c710df2ec6000f06cfee5
:1007d8000346002800f06b810df2ec630df21c72e9
:1007e8002146284601f0b2f90346002800f05f814f
:1007f80040220021284602f0cbff4ff4117200215d
:100808000df5956002f0c4ffa37a022b0cbf4ff2de
:10081800bc034ff2c0031b684ff411710df59560ce
:100828009847002840f04e81002f00f08180e3694e
:10083800c3f34f2ac3f308031bb10af1010a1ffad5
:100848008afabaf1000f00f0ec8008f5007b002767
:1008580005951fe01022ddf8781725a802f0eefeb6
:100868007be7e569c5f308030bb11d4619e04ff4b2
:10087800007516e05b462a4629a98248006802f0fe
:100888001ffc034648bb12e101370bf5007bbbb2e6
:100898009a454bd90af1ff38b946b845e1d04ff42b
:1008a8000075002ee6d05b462a46a9a9754800685f
:1008b80002f006fc25ab2a4629a9a9a801f06cfd7f
:1008c8000346002800f0f38010220df5ea63591959
:1008d800a1f2bc4125a802f0b1fe4ff290031b68bb
:1008e8002a4629a90df595609847002840f0ec8024
:1008f800c845c9dd4ff298031b680df59560984708
:10090800002840f0e3804ff2a0031b680df59560c6
:100918009847002840f0dc804ff294031b680df5df
:10092800956098470028afd00023c0e0059d78e087
:10093800002e6bd0e369c3f34f2ac3f308031bb13e
:100948000af1010a1ffa8afabaf1000f69d008f50c
:10095800007b4ff00008059510e0e569c5f3080332
:100968000bb11d4611e04ff400750ee008f10108c7
:100978000bf5007b1ffa88f39a4545d90af1ff3633
:10098800c1464645e9d04ff400752a465946a9a8fc
:1009980002f054fe25ab2a4629a9a9a801f0fcfcbf
:1009a8000346002800f083800df5ea6359191022e8
:1009b800a1f2bc4125a802f041fe4ff290031b684a
:1009c8002a4629a90df595609847002840f08280ad
:1009d8004e45cbdd4ff298031b680df5956098479f
:1009e800002879d14ff2a0031b680df59560984750
:1009f800002873d14ff294031b680df59560984752
:100a08000028b3d03b4652e0059d0ae04ff2900320
:100a18001b68e26908f500710df595609847002894
:100a28005ed14ff29c031b6829460df595609847e7
:100a3800002857d14ff2a4031b680df5956098471d
:100a4800b0f1ff3ff6d000284ed194f82030022ba9
:100a58001ad0029304f154030193243400940df244
:100a6800ec630df21c723021284600f06dfc034641
:100a7800e8b101f07dffb0fa80f35b0917e000bf31
:100a8800a1a0d3ec44ab0020029304f144030193ea
:100a9800243400940df2ec630df21c7220212846d8
:100aa80000f052fc03460028e3d100e0002318467a
:100ab8000df2547dbde8f08f0023f8e70123f6e737
:100ac8000123f4e70023f2e70023f0e70023eee731
:100ad8000023ece73b46eae73b46e8e73b46e6e728
:0c0ae8003346e4e70023e2e70023e0e7e8
:020000040000fa
:0200000400807a
:100af4002de9f04fadf2fc5d8046894602929df8e7
:100b0400202601929a4623bb002945d04ff4007257
:100b140041467ea802f094fd1022faa97aa802f0b8
:100b24008ffdb34b4ff40072fea97ea801f036fc92
:100b3400009048b1e422fea941a802f081fd41a839
:100b440002f0a0f9009068bb00980df2fc5dbde8ce
:100b5400f08f0321a74b188801f002faa64b186006
:100b6400b0f1ff3f00f05481b9f1000f0bd04346c0
:100b74004ff400727ea9a048006802f0a3fa009026
:100b84000028c9d1e0e74346e422fea902f09afa1c
:100b940000900028ced1d7e7e4224146fea802f017
:100ba4004ffdc7e702f04efe944bd3f800b0e422a9
:100bb400594608a802f044fd08a802f063f9f8b108
:100bc400089b0393489b03f50073c3f30f31c3f3ee
:100bd4000b030bb1013189b2584602f08ffa002899
:100be40040f01981489bc3f34f27c3f308030bb1ab
:100bf4000137bfb2002f5dd008f5007500263be039
:100c04004ff0ff330393dde74ff40074b9f1000fa5
:100c14003cd0baf1000f0cd02b4622467ea9764870
:100c2400006802f04ffa48b900908de74ff4007461
:100c3400ece7224629467ea802f002fd7aab224662
:100c4400fea97ea801f0aafb002800f0e78010228c
:100c5400faa97aa802f0f4fcabeb08012246294475
:100c6400fea801f0d1fd002840f0da80013605f538
:100c74000075b3b29f421dd97b1eb342c4dc489cad
:100c8400c4f30803002bd1d01c46bfe7baf1000f10
:100c94000ad02b462246fea95748006802f012faf1
:100ca4000028d9d100904fe722462946fea802f039
:100cb400c7fcd1e70bf500744694039b5d1e419578
:100cc4004ff400720021fea802f064fde42241a961
:100cd400fea802f0b5fc4ff400725946fea801f0dc
:100ce40093fd019b5bbbbaf1000f16d000221146a5
:100cf400584602f0c9f9029b834247d12921404852
:100d040001f012f8baf1000f64d03b4d286802f0ec
:100d14004ffc4ff0ff332b602ae00022114640467f
:100d240002f0b2f9054600221146584602f0acf929
:100d340085422bd12d21334800f0f6ffe2e7002253
:100d44001146584602f0a0f9029b83421ed1baf123
:100d5400000f68d12d212b4800f0e6ff012128f473
:100d64007f6020f00f0002f0c9f9baf1000fccd176
:100d7400214641a800f064ff002833d10d21224808
:100d840000f0d2ff204601f0c1ffdde61a4c2068d6
:100d940002f00efc4ff0ff33236000230093d3e6f0
:100da4000695154d4346f0220df58161286802f041
:100db40089f910220deb0201fea802f041fc324633
:100dc400fea9286801f02efe286802f039f80028f0
:100dd400fad0cae7012128f47f6020f00f0002f066
:100de4008df9c5e71421094800f09effc6e700bf4e
:100df40008ab002040ab002044ab0020c03480008e
:100e04006c2180003c2180002c2180001421800072
:100e14000023009398e60023009395e6009093e660
:100e24000023009390e62921084800f07dff28f074
:100e3400ff06334610220deb02010548006802f05c
:100e440041f903460028abd100937de66c21800074
:040e540044ab00208b
:020000040000fa
:0200000400807a
:100e58002de9f041adf5a06d044688461e460023f5
:100e6800cdf8fc34851d1746c2b9002e44d0102297
:100e7800014686a802f0e2fb774b102206a986a855
:100e880001f08afa0546002800f0e18004220df1fd
:100e98001e010df2fc4002f0d1fb33e003216f4b41
:100ea800188801f05bf86e4b1860b0f1ff3f00f056
:100eb800cb80d6b12346102286a902f001f9054657
:100ec800002800f0c480644b102206a986a801f00f
:100ed80063fa0546002800f0ba8004220df11e01cd
:100ee8000df2fc4002f0aafb0ce02b4604220df2a6
:100ef800fc4102f0e5f805e0012229460df2fc402c
:100f080002f038fbddf8fc24110cc2f3072343ea96
:100f180002220b0243ea11239bb243ea0243cdf8b3
:100f2800fc34042241460df2fc4002f037f9002857
:100f380040f08c80002f5ad0f6b123464ff400724f
:100f480086a94748006802f0bbf810220df58161b8
:100f580002a802f073fb404b4ff4007206a986a862
:100f680001f01afa0546002871d0e42206a90df509
:100f7800836002f063fb07e02346e4220df58361fa
:100f88003748006802f09cf80df5836000f064fdb6
:100f9800054600285bd044f2640001f0d5fb314bd4
:100fa8001860002847d002ab009333463a460df547
:100fb80083612046fff7acfb054698b9002f3bd06c
:100fc800274e24f47f6121f00f01306802f064fba2
:100fd8004ff4403002f0a8f9306802f0e7fa4ff019
:100fe800ff3333601f4b186801f06cff2fe0deb150
:100ff8004ff40072214686a802f020fb10220df55e
:10100800816102a802f01afb134b4ff4007206a983
:1010180086a801f0c1f90546c8b1e42206a90df574
:10102800836002f00bfbafe7e42221460df58360f5
:1010380002f004fba8e7fee7012124f47f6020f01a
:101048000f0002f059f8cde7002500e000252846fa
:101058000df5a06dbde8f08108ab002040ab002085
:0810680044ab002048ab00205e
:020000040000fa
:0200000400807a
:10107000f0b5ebb00df1470424f03f04e422514bee
:10108000196830a802f0defa30a800f0e9fc18b1c7
:10109000309bb3f1ff3f58d0e4224a4b196930a886
:1010a00002f0d0fa30a800f0dbfc28b1309bb3f19d
:1010b000ff3f08bf012649d00df2a71001f0d4fb75
:1010c0009df8a731012b66d81b013e4ad558e42272
:1010d000294630a802f0b6fa05f5007622463146d8
:1010e00030a800f08dfa379901f50071294411f00c
:1010f0000f0f1cbf21f00f0110319df8ca30022bd9
:101100000cbf202730273a4620a802f09bfa3a4627
:10111000214620a802f046f8002844d000231a46b1
:1011200029492846fff798fe0446002844d0314656
:1011300030a800f087fd044690b31d21234800f03d
:10114000f5fd304601f0e4fd2ae000262e2120487e
:1011500000f0ecfd33011b4ad55800231a461a490a
:101160002846fff779fe88b1359a369b9a42a3d07c
:10117000002ea1d01521174800f0d8fd00210091c4
:101180000b460a462846fff7b5fc95e7012128469d
:1011900001f0b6ff90e716210f4800f0c7fd0024cc
:1011a00020466bb0f0bd19210c4800f0bffd304661
:1011b00001f0aefd0124f3e70121284601f0a0ff74
:1011c000eee700bfc034800050388000fc21800072
:1011d000982180000c2b8000c8218000e021800035
:020000040000fa
:0200000400807a
:1011e000b0aa00201c00000000000000f8aa0020a7
:1011f000100000000000000038ab002006000000d6
:101200000000000018ab00200c00000000000000ef
:1012100068ab0020030000000000000030ab00209d
:1012200008000000000000000080002000280000ee
:101230000000000050aa0020400000000000000054
:1012400065ab0020010000000000000040ab002062
:10125000040000000000000066ab00200200000057
:10126000000000006cab0020040000000100000042
:10127000ffffffff08ab002010000000000000008f
:1012800090aa0020200000000000000044ab0020d5
:10129000080000000000000064ab00200100000016
:1012a000000000006bab0020010000000000000007
:1012b000e4aa002014000000000000004cab002055
:1012c0000800000000000000ccaa00201800000068
:1012d0000000000000a80020000200000000000044
:1012e00070ab0020040000000100000000100000ae
:1012f0003eab0020020000000000000054ab0020c4
:10130000080000000000000074ab00200400000092
:1013100001000000010000005cab002004000000a0
:101320000000000000aa00205000000000000000a3
:1013300060ab0020040000000000000024ab00208f
:101340000c00000000000000000000000000000091
:020000040000fa
:0200000400807a
:1013500070b59cb0534900248c60cc60524d2d6810
:101360000d6144f264064e618c61cc611992179351
:10137000209b1593219b13931b909df88830022b83
:101380006fd0302318931693149312931a9341f24b
:1013900019020021284602f0bff94ff218131b680a
:1013a000424898470146002859d04ff270131b68f5
:1013b000684698470dad6c460fcc0fc523682b606f
:1013c0004ff278231a684ff220131b6812681199a4
:1013d00006a89847079c002c3cd1069d4ff2341379
:1013e0001c6808ab00220da92846a0470446002827
:1013f00030d14ff230131b682846984704464ff20d
:10140000f81633680246089918a8984733682246a8
:10141000099916a89847336822460a9914a898474c
:10142000336822460b9912a89847336822460c99d4
:101430001aa898474ff23c131b68284698474ff26a
:1014400044131b682846984704464ff258131b68fc
:1014500028469847134b5c60b4fa84f040091cb0ee
:1014600070bd202318931693149312931a9341f28c
:1014700019022146284602f04ff94ff218131b6853
:101480000a489847014658b14ff26c131b686846ea
:1014900098470dad6c460fcc0fc523682b608fe7c6
:1014a0002046dce790aa002048ab002098aa002044
:020000040000fa
:0200000400807a
:1014b0002de9f04198b00546884616461f4600249f
:1014c000129413944d4b1868149044f264021592d0
:1014d00016941794214602f05ff9cdf8448030222b
:1014e0002146284602f058f90f95022f19d03023d3
:1014f0000e9310934ff218131b6812a8984780465a
:10150000002878d0032f17d14ff270131b680146c3
:101510006846984709ad6c460fcc0fc523682b6011
:1015200016e020230e9310934ff218131b6812a895
:101530009847804600285cd04ff26c131b684146e8
:101540006846984709ad6c460fcc0fc523682b60e1
:101550004ff28c231a684ff220131b6812680d9902
:1015600007a89847089c002c38d1079d72074ff2b6
:1015700034131c6806ab02f0005209a92846a047a4
:10158000044658bb4ff230163368284698474ff24e
:10159000f8131b680246069910a898474ff23c13af
:1015a0001b68284698474ff244131b682846984703
:1015b00004464ff254131b68284698470746336881
:1015c000284698474ff210231b680eaa0146386838
:1015d00098474ff258131b68284698474ff21c1340
:1015e0001b6840469847b4fa84f0400918b0bde83b
:1015f000f0812046fae70020f8e700bf48ab002062
:020000040000fa
:0200000400807a
:101600002de9f041adf5367d17460df29f2424f00b
:101610003f04837a022b70d00d46c6694022002118
:10162000204602f0b9f84ff41172002107a802f029
:10163000b3f84ff2c0031b684ff4117107a8984725
:101640004ff03008002853d14ff290031b68324608
:10165000294607a8984700284ad14ff29c031b68e7
:10166000214607a89847002842d100bf4ff2a403a3
:101670001b6807a89847b0f1ff3ff7d0002835d185
:1016800040220021384602f087f804ad6e464ff242
:10169000d4031b6800213046984796e8070085e888
:1016a00007004ff240031b68294607a89847b8b9be
:1016b0004ff260031d683b464246214607a8a847f3
:1016c00080b94ff264031b6807a8984760b94ff2ce
:1016d00070031b6807a89847b0fa80f0400908e03b
:1016e000002006e0002004e0002002e0002000e0ee
:1016f00000200df5367dbde8f0810d46c66940221b
:101700000021204602f048f84ff41172002107a88a
:1017100002f042f84ff2bc031b684ff4117107a8a6
:0817200098474ff020088de707
:020000040000fa
:0200000400807a
:1017280070b586b003213f4b188800f017fc3e4b7c
:101738001860b0f1ff3f72d00023102202a901f017
:10174800bffc044608b302a800f0ceff18b1049b02
:10175800b3f1ff3f1cd04ff40023102202a93248f6
:10176800006801f0adfc044678b102a800f0bcffa7
:1017780018b1049bb3f1ff3f3bd02b4c206801f01c
:1017880015ff4ff0ff3323600024204606b070bddc
:101798000025254c206801f009ff4ff0ff33236036
:1017a8002b21224800f0befaed0405f110069df841
:1017b8000d30003318bf012301221d493046fff7c1
:1017c80047fb0446b8b122211a4800f0abfa164c80
:1017d800206801f0ebfe4ff0ff33236001230093f4
:1017e800bdf814209df80d103046fff77ff9044628
:1017f800cbe70125cde72a210f4800f093fa0a4ede
:101808002946306801f048ff4ff4403001f08cfd64
:10181800306801f0cbfe4ff0ff333360b5e70024aa
:10182800b3e700bf40ab002044ab00209425800004
:0c18380050388000ec258000c0258000a6
:020000040000fa
:0200000400807a
:1018440030b5adf2145d3e4b1c69102221460df5f6
:10185400a06001f0f5fe0df5a06000f047ff05461d
:10186400002869d0ddf80835b3f1ff3f63d11034a7
:101874009df805359bb9e42221460df21c4001f088
:10188400dffe0df21c4001f0fdfa0546002853d09e
:10189400ddf81c34b3f1ff3f1dd000254ce04ff4bc
:1018a4000072214607a801f0cbfe102283a903a8e9
:1018b40001f0c6fe234b4ff4007287a907a800f07d
:1018c4006dfd0546002837d0e42287a90df21c409f
:1018d40001f0b6fed5e71a211b4800f025fa01f005
:1018e400b1ff4ff0864302221a609df8053500339c
:1018f40018bf0123002215492046fff7abfa05461d
:1019040078b11521124800f00ffa01230093002347
:10191400bdf80c259df805152046fff7e9f80546a6
:101924000ae01d210b4800f0fff90121044b18695e
:1019340001f0e4fb00e0002528460df2145d30bd03
:10194400c034800008ab0020d02a800050388000ca
:081954000c2b8000ec2a80003e
:020000040000fa
:0200000400807a
:10195c004ff08842d2f8003113f4007ffad0364aa7
:10196c00536823f4704343f480535360536a13f069
:10197c00010ffbd0314ab2f8ba3423f002031b0436
:10198c001b0ca2f8ba3402f50052d36823f07e0384
:10199c0043f00403d3604ff088430022c3f8b02017
:1019ac00274ac3f8b02002f12b42a2f54b12a2f643
:1019bc00ab42c3f8b02003f52063224a1a621e4ad8
:1019cc00536a03f00303032bfad11f4b1f4a1a600f
:1019dc0001229a601a46136813f0010ffbd11a4bbf
:1019ec0048f20902c3f8502140f201221a674ff461
:1019fc0000429a674ff088434ff410421a66002257
:101a0c001a67c3f88020c3f890201149c3f8c0109e
:101a1c00c3f8d02047f6fe72c3f8e0204ff0333203
:101a2c00c3f8b020044b5a6842f010025a601a688e
:101a3c0042f080721a607047004001410020014161
:101a4c00556699aa280001c0000a0044070120002d
:041a5c00cf03810033
:020000040000fa
:0200000400807a
:101a60000379012b66d10368002b66d0374b1a68c7
:101a700003691b0ed2b29a4261d8344a1268d2432b
:101a8000d2b293425dd810b50446314b827a1978b0
:101a9000586801f0bbfb0346002849d02c4be27a82
:101aa000197ad86801f0b2fb0346002840d0284bd1
:101ab000227b197c586901f0a9fb0346002837d026
:101ac000234b627b197ed86901f0a0fb034678b3f3
:101ad0001f4b94f8202093f82010586a01f096fbd1
:101ae000034628b31a4b94f8212093f82810d86a9b
:101af00001f08cfb0346d8b1154b94f8222093f8e3
:101b00003010586b01f082fb034688b1104b94f8fb
:101b1000232093f83810d86b01f078fb034638b1d6
:101b2000e389742b0fd16379012b14bf00230123a8
:101b3000184610bd0023184670470023fbe700231a
:101b4000f9e70023f7e70023f2e700bf042c004485
:041b5000942f80004e
:020000040000fa
:0200000400807a
:101b54002de9f047adf5167d07460c4690469946ab
:101b6400d1f814a08e7a00250d754d758d75cd753f
:101b74004022294601f00efe4ff41172294605a8b1
:101b840001f008fe022e0cbf4ff2bc034ff2c0035b
:101b94001b684ff4117105a89847002843d14ff2f0
:101ba40090031b68742204f1100105a898470028cb
:101bb4003fd14ff29c031b68394605a8984700287b
:101bc40039d100bf4ff2a4031b6805a89847b0f1b0
:101bd400ff3ff7d088bb022e13d0a37a029304f1ff
:101be400b403019304f1840300934b46424630212d
:101bf4003846fff7abfb0346b0b1c4f814a0012389
:101c040012e0a37a029304f1a403019304f1840380
:101c140000934b46424620213846fff797fb034684
:101c24000028ead100e0002318460df5167dbde832
:101c3400f0870023f8e70023f6e70023f4e700bf6a
:020000040000fa
:0200000400807a
:101c44002de9f041adf5835d86b007460e460df1f2
:101c54003f0525f03f052a46fff7d0fc034658b35d
:101c6400fc69344414f00f0f1cbf24f00f0410342b
:101c740024f47f6626f00f064ff4805231461ea8e6
:101c840001f0defcbb7a022b0cbf20223022c4f30d
:101c94000b049046a318b3f5805f2ed9c4f5805782
:101ca4003a4629461eab181901f0cafc02213046f7
:101cb40001f024fa30b1002318460df5835d06b017
:101cc400bde8f0814ff4805231461ea800f09cfd1f
:101cd40008b10023f0e7a4f5805444442246e919ee
:101ce4001ea801f0adfc224606f580511ea800f0a6
:101cf4008bfdb0fa80f35b09dee729461eab1819a9
:101d040001f09efc0121304601f0f8f908b10023ee
:101d1400d2e74ff4805231461ea800f075fdb0faa8
:061d240080f35b09c8e733
:020000040000fa
:0200000400807a
:021d2a00704700
:020000040000fa
:0200000400807a
:101d2c002de9f84300295ed00f4600242f4e304b8e
:101d3c0000f1010edff8bcc006e00cf801809a60df
:101d4c00621c0134974244d9726802f00702012ade
:101d5c0018d09968dd684a1cd3f81080424528bf1a
:101d6c000022954236d010f80480756805f00705fe
:101d7c00012de2d14d000cf81180691c00250cf8e6
:101d8c000150dce7d3f80880d96808f101021d691d
:101d9c00aa4228bf002291421cd01ef8145010f801
:101dac00141041ea0521756805f00705012d05d0d1
:101dbc00c9b20cf808109a60621cc2e74fea4805d9
:101dcc005ffa81f90cf818900135090a0cf8051026
:101ddc00f1e7144601f00cfc10b1044b01229a758a
:101dec002046bde8f8830c46f4e700bf000c004029
:081dfc0050aa00200094002011
:020000040000fa
:0200000400807a
:101e04002de9f041294e2a4c4ff00108294f13e0e7
:101e1400226afab1616a236a40469847a36a013389
:101e2400226b934228bf002314e0a26aedb2bd5492
:101e3400a36294f83430fbb9337e13f0040f32d02c
:101e4400b56aa36a0133226b934228bf0023e26a76
:101e54009a42ddd0e26a9a42eed0726802f007023a
:101e6400012ae2d1a16a4a00e8b207f8110001325e
:101e7400c5f30725bd54dbe701f0cafb236a002b39
:101e8400dad0616a94f83c3033b1a36b9842d3d36f
:101e9400236a00209847cfe7a36b9842ccd1236aea
:101ea40000209847c8e7bde8f08100bf000c00405f
:081eb40050aa0020008000206c
:020000040000fa
:0200000400807a
:101ebc0070b582b0254d264c264e14e0f25c8df8a0
:101ecc000620013322699a4298bf0023e3606b68b5
:101edc0003f00703012b14bf9df80630bdf8063044
:101eec00ab62237dbbb92b7e13f0010f2cd0a26803
:101efc00e3689a4225d06a6802f00702012addd114
:101f0c005a0016f813108df806100132b25c8df8d9
:101f1c0007200133d6e701f0d1fb2368002be2d078
:101f2c006168237f33b1a3699842dcd32368032013
:101f3c009847d8e7a3699842d5d1236803209847de
:101f4c00d1e7024b01221a7502b070bd000c0040a3
:081f5c0050aa002000940020af
:020000040000fa
:0200000400807a
:101f640038b5264b93f90230022b37d1234b5b68eb
:101f7400002b36d10d4604462148002101608180a2
:101f8400662303701d4bdb681b68984760b31c48cd
:101f94009923037000214170184bdb681b68984734
:101fa40028b3174800210160818038230370134b44
:101fb400db681b689847e8b115f0020f06d10f4b98
:101fc4005a6801325a60dd70204609e0204601f06b
:101fd4003df80028f3d14ff0ff3001e04ff0ff301f
:101fe40038bd4ff0ff30fbe74ff0ff30f8e74ff01c
:101ff400ff30f5e74ff0ff30f2e700bff8aa00200a
:0420040038ab0020d5
:020000040000fa
:0200000400807a
:1020080008b5194b9847194b9847eff3108172b6ea
:10201800174ad2f8883043f47003c2f88830bff307
:102028004f8fbff36f8f01b962b6124a936823f0de
:10203800010393601346da6812f0010ffbd10d4bd0
:1020480024225a6001229a6000f0d2fe0a4b23f043
:102058007f03074a9360094b9847094b9847094bf8
:10206800984701f0b4fbfee77738800077388000a6
:1020780000ed00e00020004100028000c52880003b
:082088007738800077388000f2
:020000040000fa
:0200000400807a
:102090002de9f0411c4ad36a956a89b30e46ab42da
:1020a00008bf002227d00122dff864c0174ca0f13e
:1020b000020e0138144f0ce0e15c81540133396b9e
:1020c000994298bf0023b24214d2511cab4212d0a5
:1020d0000a46dcf8041001f007010129ecd159008f
:1020e00014f813800ef812800131615c00f81210b0
:1020f0000133e4e71d46044bdd621046bde8f08184
:102100001d460a46f7e700bf50aa002000800020c5
:04211000000c00407f
:020000040000fa
:0200000400807a
:102114005361766564205365637572656420486114
:1021240073680d0a000000004a756d7020746f20fa
:102134004170700d0a000000436f706965642049a6
:102144006d6167652066726f6d20496e7465726e8d
:10215400616c20536c6f74203120746f20536c6f4a
:102164007420300d0a000000436f706965642049d3
:102174006d6167652066726f6d2045787420746f99
:1021840020496e7465726e616c20466c6173680dd3
:042194000a0000bf7e
:020000040000fa
:0200000400807a
:10219800466f756e64206e65772045786563757443
:1021a80061626c6520496d61676520696e20496ec2
:1021b8007465726e616c20466c6173680d0a00006c
:1021c8004e6f2056616c696420496d6167652046d1
:1021d8006f756e640d0a00004d6174636820686154
:1021e80073682c204a756d7020746f204170700dd3
:1021f8000a00000052656372656174656420686155
:1022080073682c204a756d7020746f204170700db2
:042218000a0000bff9
:020000040000fa
:0200000400807a
:10221c00f0b51f4c2568a446002d36d00022294667
:10222c0016461346d1f800e00f6986450ad132b143
:10223c00176101f110031846f0bd3946f2e7ccf8ee
:10224c000070f6e705d9ebb11c68a6453cbf1646f5
:10225c000b460a46002ff0d1002becd019461f6913
:10226c0051f8102b121a102a05d918600844103a8c
:10227c000761026007469d420cbfccf800703761c5
:10228c000b46d8e716460b46e3e72b46d3e700bfd1
:04229c0058ab00201b
:020000040000fa
:0200000400807a
:1022a0001c4b1d4a1a604ff6a0029a814ff440322f
:1022b0005a601a46d369002bfcd1164a136843f0c2
:1022c00002031360d369002bfcd1144b00221a6265
:1022d0009a62da6283f8342083f83c209a63da87c2
:1022e0001a609a60da601a751a779a61094b5b680e
:1022f00003f00703012b094b14bf4ff4a0524ff416
:1023000020621a631a61034b80229a7504229a751f
:10231000704700bf000c00400401104050aa00208c
:020000040000fa
:0200000400807a
:1023200008b54ff088431b6913f4003f07d14ff005
:1023300088434ff400329a61154b01221a704ff016
:1023400088434ff480329a61fff708fb114b1868fd
:1023500020f49f7020f001004ff2d0231b6840f062
:102360001200984700f05bfc01f088f8fff798ff37
:10237000fff7dbfc01f09ef90749002000f0f0ffb9
:10238000064b186001f040fa00f012fa08bd00bfd9
:1023900065ab0020002401446038800040ab002081
:020000040000fa
:0200000400807a
:1023a0002de9f041beb005460f46164698464ff05f
:1023b000864302221a606c464ff2d0031b68174a0c
:1023c0001021204698473bab94e8070083e80700bc
:1023d0004ff24c0214684246194604a8a04700b1c7
:1023e000fee74ff260031c683b463246294604a8cc
:1023f000a04700b1fee74ff264031b6804a89847aa
:1024000050b94ff270031b6804a89847b0fa80f0e7
:1024100040093eb0bde8f0810020fae7a83780000f
:020000040000fa
:0200000400807a
:10242000f8b50f4616461c461a46012100f0cefbb1
:102430000546d0b144f0806106f00302032e16d8a1
:102440001abb4ff08443da69bff34f8fbff36f8f2e
:10245000114a1a601a46d36913f4806ffbd04ff00b
:102460008442d36943f48063d3612846f8bdb00841
:1024700001383c46a1eb070c54f80c3044f8043bff
:102480000138b0f1ff3ff7d1dae726f0030001444d
:0c249000384401f0a7f8d4e70200000176
:020000040000fa
:0200000400807a
:10249c00f8b50f4616461c461a46032100f090fb71
:1024ac000546c8b144f0806006f00302032e15d82f
:1024bc0012bbbff34f8fbff36f8f4ff08443124aa1
:1024cc001a601a46d36913f4806ffbd04ff0844224
:1024dc00d36943f48063d3612846f8bdb408013c4a
:1024ec003946a0eb070c0b6841f80c300431013c69
:1024fc00b4f1ff3ff7d1dbe726f00306b9193044fe
:0c250c0001f06af8d5e700bf02000001f2
:020000040000fa
:0200000400807a
:102518002de9704f82b08346164621f0ff0a12f06b
:10252800ff0f07d05242f3b2d2b258bf5342f61a45
:1025380006f58076b04600bf06eb0a03a3eb080356
:1025480001930beb0609a9eb0809b8f1000f10dda0
:102558000d4d286800f072fc04460128f9d1019a53
:102568004946094b186800f05bfa48b1a8f580782d
:10257800e2e7054c206800f061fc0028fad000244e
:0c258800204602b0bde8708f6cab002054
:020000040000fa
:0200000400807a
:10259400466f756e6420556e61757468656e7469f6
:1025a400636174656420496d61676520696e2045c7
:1025b400787420466c6173680d0a0000496d616788
:1025c400652041757468656e7469636174696f6ec2
:1025d400206661696c656420696e204578742046c4
:1025e4006c6173680d0a000041757468656e7469e6
:1025f400636174656420496d61676520696e204577
:0c260400787420466c6173680d0a0000b9
:020000040000fa
:0200000400807a
:1026100008b5194b1b7813b1012b04d008bd164b1c
:1026200001221a70fae7154b10225a601b6a13f048
:10263000100f06d10b211248fff778fb00f080ff46
:10264000fee74ff0864302221a60fff76df8fff7ae
:10265000f9f8fef70dfd0028f2d14ff4403000f0fc
:1026600067fe084b1b78002bead04ff088434ff4ed
:1026700000325a61e4e700bf64ab0020002a004446
:082680001438800065ab002056
:020000040000fa
:0200000400807a
:102688000010000400000001ffff07000200000026
:10269800c0348000ffff0700f03680000000000013
:1026a800000000000000000000000001ffff07011b
:1026b800ffffffff0010000100000000ffff7f0088
:1026c80002000000e0348000ffff7f000437800034
:1026d80000000000000000000000000000000000f2
:0826e800ffff7f00ffffffff71
:020000040000fa
:0200000400807a
:1026f00030b583b0044603680193042213490debff
:10270000020000f04ffdc0b92379012b18d1a37945
:10271000012b17d8a568bdb1a060631e04f10d019f
:1027200013f8012f104480b28b42f9d1a560e389e0
:10273000834214bf0020012000e0002003b030bd20
:102740000020fbe70020f9e70020f7e75038800081
:020000040000fa
:0200000400807a
:1027500037b5154d2b68044673b100f0e1fe0190ca
:1027600001a800f092ff0f30019920f00f0000f057
:1027700075ff60b100232b60002c08bf01240f34cb
:1027800034f00f0405d1094b0c221a60204603b027
:1027900030bd042c38bf04242046fff73ffd00283d
:1027a000f5d040f8044cf2e774ab00205cab00209d
:020000040000fa
:0200000400807a
:1027b000144bda6822f4e0621204120c42f0bf6299
:1027c00042f40032da60bff35f8f62b60e4ae02156
:1027d00082f803130820106082f80c134ff4805124
:1027e00011605a6a42f480225a625a6942f0100219
:1027f0005a615a6a42f400325a625a6a42f480328a
:0c2800005a62704700ed00e000e100e0cb
:020000040000fa
:0200000400807a
:10280c002de978478146144621f00f0812f00f0f7e
:10281c0008d0524204f00f0302f00f0258bf53428b
:10282c00e41a1034254600bf04eb0801a1eb050a9d
:10283c0009eb0400461b002d0bdd00bf00f096ffda
:10284c000028fbd15146304600f0c6fd20b1103daa
:0c285c00eae70020bde878870120fbe7d8
:020000040000fa
:0200000400807a
:1028680030b5bbb00546ff230370e422124b19684c
:1028780001a800f0e3fe01a800f002fb30b1019cc2
:10288800b4f1ff3f04d000232b7001e04ff0ff3478
:10289800e422094b196901a800f0d0fe01a800f054
:1028a800effa28b1019ba34202d201222a701c46ea
:0c28b80020463bb030bd00bfc0348000a3
:020000040000fa
:0200000400807a
:1028c4000e4a38b5002313600d4a0e4c13600e4aad
:1028d4000e4d13600e4a13600e4a13600e4a536283
:1028e40013610123936000f0c5ff00f0c3ffac4205
:1028f40000d338bd54f8043b9847f8e760ab002098
:102904000caa0020f802800008aa0020fc02800023
:0c29140000aa002004aa002010aa002045
:020000040000fa
:0200000400807a
:1029200008b5144b9b7df3b1124a137edbb2927d46
:1029300012f0800f18d10f4a137edbb2927d12f095
:10294000010f04d013f0010f01d0fff7b7fa094ac5
:10295000137edbb2927d12f0040f04d013f0040f4b
:1029600001d0fff74ffa08bd13f0800fe3d000f05d
:082970001dfae0e7000c004035
:020000040000fa
:0200000400807a
:1029780010b54ff240131b68114a10689847044677
:1029880078b1032819d04ff258131b680c4a106805
:1029980098474ff21c131b680a4a1068984702248c
:1029a8000be04ff258131b68054a106898474ff21e
:1029b8001c131b68034a10689847204610bd00bfc7
:0829c80090aa002048ab00209a
:020000040000fa
:0200000400807a
:1029d000114b9b5c2bb902b170470370ff230b7046
:1029e00070470e4a12780270d2430a709a1ed2b211
:1029f000012bf1d030b40a4dad1a0a4b02781c7885
:102a00002243027013f801490a7822ea04020a708c
:102a10009d42f3d130bc70476c388000552c004487
:082a2000532c0044542c004427
:020000040000fa
:0200000400807a
:102a2800b0f1ff3f1ed02de9f0411546884600f071
:102a3800fdfc034610b91846bde8f0810b48002399
:102a48000360436083600227077006238370084e83
:102a5800f3681c692b464ff480724146a047034631
:102a68003772e8e700231846704700bf18ab00200c
:042a7800f8aa002098
:020000040000fa
:0200000400807a
:102a7c0038b50d4603784ff08444636383781b04a8
:102a8c0003f4f81341780b4343f09003a363a36b57
:102a9c004ff08061284600f09ffdbff34f8fbff3ce
:102aac006f8f074b23602246d36913f4806ffbd0e2
:102abc004ff08442d36943f48063d361012038bd65
:042acc000200000103
:020000040000fa
:0200000400807a
:102ad000466f756e6420556e617574686f72697aa1
:102ae000656420496d6167650d0a0000496d616785
:102af000652041757468656e7469636174696f6e91
:102b0000204661696c65640d0a00000041757468b7
:102b1000656e7469636174656420496d6167650df4
:042b20000a0000bfe8
:020000040000fa
:0200000400807a
:102b24002de9f04180460f46164600f02bfe3d4647
:102b3400d7b100250ae0b34216d80121fff7a6fa5f
:102b44000b4b00221a700135af420dd008eb050083
:102b5400074b1b78002bf0d13446054901330a7822
:102b6400002ae8d1a342f9d92846bde8f08100bf84
:042b74006bab002027
:020000040000fa
:0200000400807a
:102b7800f0b4124b1880124800f580670022164600
:102b880041f2210507e000bf40f8043f02f58072da
:102b980092b2b84210d011460824334683ea010c99
:102ba8001cf4004f14bf85ea43035b009bb2490045
:102bb80089b2013cf2d1e7e7f0bc70473eab002098
:042bc800fca7002046
:020000040000fa
:0200000400807a
:102bcc0010b44ff0844422634278037843ea024302
:102bdc00636383788288134382791ab10289134321
:102bec0043f04003827a0ab143f48043090301f4b1
:102bfc0040511943c37a1b0403f4f813194341f0f1
:102c0c00b0014ff0844399639b6b01205df8044b3a
:022c1c007047ff
:020000040000fa
:0200000400807a
:022c1e007047fd
:020000040000fa
:0200000400807a
:102c20002de9704380460e46104d4ff4403996b161
:102c3000286800f007f904460128f9d141462868c0
:102c400000f02efd70b1013eb6b208f5805848463e
:102c500000f06efbebe7054c206800f0f3f800286d
:102c6000fad000242046bde8708300bf6cab002082
:020000040000fa
:0200000400807a
:102c7000032a00d9fee770b50c4605460d4b9e5c55
:102c800030220021204600f087fd731edbb256b1d2
:102c900001332344224608492144881a007802f867
:102ca000010b9a42f9d1054b1b68c3f300432b700b
:102cb00070bd00bf6c388000552c0044002c0044cf
:020000040000fa
:0200000400807a
:102cc0000f4b1b684ff08242907800f00100c3f375
:102cd0008113013b022b0bd8a2f1b062a2f5ca22ec
:102ce000a2f2ff62074b002814bf10461846704737
:102cf000054a064b002814bf10461846704700bf0f
:102d0000002c0044a1a0d3ec4a68a55abf29bc8e70
:020000040000fa
:0200000400807a
:102d100038b5046845684ff4403000f009fb0e4aae
:102d2000136823f0020313600c4b1b7823b14ff0a0
:102d300088434ff400325a61074ad369002bfcd113
:102d40004ff0864300221a60b4f1ff3f02d084f3b3
:102d50000888284738bd00bf000c004065ab002044
:020000040000fa
:0200000400807a
:102d600010b503784ff084446363437843f402530f
:102d700043f01003a363a36b4ff0806000f032fcbc
:102d8000bff34f8fbff36f8f074b23602246d3698a
:102d900013f4806ffbd04ff08442d36943f4806317
:0c2da000d361012010bd00bf0200000143
:020000040000fa
:0200000400807a
:102dac0008b5104b5b8b13f0070300d108bd0e4a1e
:102dbc00d3870c4b80221a7607225a831b7e13f082
:102dcc00040f05d0074b9a6a1a7e12f0040ffad141
:102ddc00054b1b6a002be9d0034b596a1b6a022076
:0c2dec009847e3e7000c004050aa0020cc
:020000040000fa
:0200000400807a
:102df80070b50e4b0e4a0021934208d30d480e4d74
:102e08004ff6ff76016829b943681bb970bd03f80e
:102e1800011bf1e783684268334000f10c0455f860
:102e280023302046984704eb8000ebe70080002021
:0c2e380000800020e01180002c3780009a
:020000040000fa
:0200000400807a
:102e440000b583b000238df80730b0f1ff3f13d0f5
:102e54000b4b1b7a012b0bd001220df1070100f063
:102e64001dfa58b19df8073083f0010303f0010304
:102e7400184603b05df804fb0223f9e70223f7e7e1
:042e8400f8aa002088
:020000040000fa
:0200000400807a
:102e880010b582b00446d0f80630190cc3f30722f7
:102e980042ea03220b0243ea11239bb243ea0243ac
:102ea8000193042206490deb020000f077f910b1f6
:102eb800002002b010bd2046fef7cefdf9e700bfa6
:042ec80050388000fe
:020000040000fa
:0200000400807a
:102ecc0070b590b10e4d2a68a0f110042e46a2b137
:102edc0050f8101c43189a42136807d1103312692a
:102eec0002600b4440f8103c2c6070bd1033d518b8
:102efc00ac4202d10b441360f7e702603460f4e794
:042f0c0058ab00209e
:020000040000fa
:0200000400807a
:102f100030b583b005460c4600218df807108df8ba
:102f200006100df106010df10700fff751fd9df8a8
:102f300007109df80620cb43dbb2934200d0fee79a
:102f400009b9ff2a01d003b030bd2b781c432c7087
:022f5000f9e79f
:020000040000fa
:0200000400807a
:022f5200fee798
:020000040000fa
:0200000400807a
:102f540010b5054c227832b9044b13b10448aff3d1
:102f640000800123237010bdb0aa002000000000df
:102f74000000000008b5034b1bb103490348aff33d
:102f8400008008bd00000000b4aa0020000000007a
:020000040000fa
:0200000400807a
:102f940003000000683880000100000067ab0020d7
:102fa4000100000066ab00200100000067ab0020b8
:102fb40003000000683880000100000067ab0020b7
:102fc4000100000066ab00200100000067ab002098
:020000040000fa
:0200000400807a
:102fd400837833b14ff084431963838843f020012d
:102fe40000e0002103784ff08442536343780b439d
:102ff40043f010039363d36913f4806ffbd04ff055
:0e3004008442d36943f48063d3610120704796
:020000040000fa
:0200000400807a
:02301200fee7d7
:020000040000fa
:0200000400807a
:1030140038b504460d4600f00bfa034678b109486a
:103024000470062343700123837000238380064cbd
:10303400e3681b6829469847034603222272184610
:0c30440038bd00bf38ab0020f8aa002007
:020000040000fa
:0200000400807a
:1030500008b5b0f1ff3f11d000f0ecf9034670b1b4
:1030600008480021c0f8021098230370062343701b
:10307000054bdb681b689847034600e000231846b1
:0c30800008bd00bf38ab0020f8aa0020fb
:020000040000fa
:0200000400807a
:10308c0030b5adf5017d04464ff40072014668463b
:10309c0000f0d2fa079d002305934ff6ff724ff410
:1030ac00f87104a800f092f80246294604f5007065
:0a30bc0000f08cf80df5017d30bd29
:020000040000fa
:0200000400807a
:0230c600fee723
:020000040000fa
:0200000400807a
:1030c800b0f1ff3f11d038b50948002404604460ce
:1030d80084600b24047006248470c472054ce5686f
:1030e800ed68a8470123237238bd0020704700bf50
:0830f80018ab0020f8aa00202b
:020000040000fa
:0200000400807a
:1031000038b505460c46c0f30b0383b96cb100bf5c
:1031100000f032fb0028fbd1284600f063fb40b1f1
:10312000013ca4b205f58055f0e7002000e0022044
:0831300038bd0120fce700bfdf
:020000040000fa
:0200000400807a
:10313800a1b110b40a4b1b8841180a4c10f8012b96
:1031480082ea132254f8222082ea03239bb288429f
:10315800f4d1034a13805df8044b7047704700bff1
:083168003eab002000a800208e
:020000040000fa
:0200000400807a
:103170002de978410d4690461e46094c2068fff720
:1031800061fe0028fad043463246294604480068ca
:10319000fff79aff80f00100c0b2bde8788100bf60
:0431a0006cab0020f4
:020000040000fa
:0200000400807a
:1031a400b2b130b4154604780a7894420ad1034681
:1031b40028440138834209d013f8014f11f8012f34
:1031c4009442f7d0121bd0b230bc70470020fbe70a
:0431d4000020704720
:020000040000fa
:0200000400807a
:1031d800b1b110b4411800bf10f8013b83ea1223c3
:1031e80083ea13139cb243ea022383ea043383ea93
:1031f80044139ab28142efd110465df8044b7047f0
:0432080010467047b5
:020000040000fa
:0200000400807a
:10320c0099b110b40c46034613f8011b91420ed031
:10321c002044984205d013f8014b9442f9d1012077
:10322c0000e000205df8044b70470020704701203f
:02323c00f8e7b1
:020000040000fa
:0200000400807a
:10323e00abb1f0b405461e46043a002402e0013458
:10324e00b44209d052f8040f4368ab42f7d847692d
:10325e003b448b42f3d300e00020f0bc70470020cb
:02326e007047a7
:020000040000fa
:0200000400807a
:10327000b0f1ff3f0dd008b50748af230370062318
:10328000437002238370054bdb685b680322984719
:1032900008bd0020704700bf68ab0020f8aa0020de
:020000040000fa
:0200000400807a
:1032a000b0f1ff3f0dd008b5074805230370062392
:1032b000437002238370054bdb685b68d2b298478a
:1032c00008bd0020704700bf68ab0020f8aa0020ae
:020000040000fa
:0200000400807a
:1032d00038b5eff3108572b6084c20634ff4804385
:1032e00063600f2262601140a160a36000f0b4f837
:1032f0004ff40043a36085f3108838bd00060044f6
:020000040000fa
:0200000400807a
:10330000064b1a680ab9064a1a60064a116809b9d2
:10331000054911601a68054b1a6070472cab0020f4
:1033200080ab002028ab002080ef002024ab0020e1
:020000040000fa
:0200000400807a
:1033300080b485b000af78600023fb6005e0fb68d7
:10334000013bfb60fb680233fb60fa687b689a42d2
:0e335000f5d300bf1437bd465df8047b70470f
:020000040000fa
:0200000400807a
:02335e00fee788
:020000040000fa
:0200000400807a
:10336000094b1b786bb910b4074b00229a700124eb
:103370001c705a600a68da6002229a705df8044b89
:0c33800070474ff0ff307047f8aa0020a3
:020000040000fa
:0200000400807a
:10338c0010b5084c23680bb9fff7b4ff0649226847
:10339c0009681044814234bf4ff0ff322060104660
:0c33ac0010bd00bf24ab002028ab0020a7
:020000040000fa
:0200000400807a
:1033b80093b1f8b51f4616460d4604460021284627
:1033c80000f0baf93346224629460020b8470028bb
:0a33d8000cbf28460020f8bd704726
:020000040000fa
:0200000400807a
:0233e200fee704
:020000040000fa
:0200000400807a
:1033e40008b5024608461168064b19645168196508
:1033f40091681966d2681a670221fff767ff0120f6
:0834040008bd00bf00060044f2
:020000040000fa
:0200000400807a
:10340c0008b5074b1b68b3f1ff3f00d008bd032183
:10341c00044b1888fef7a0fd014b1860f6e700bfbf
:08342c006cab002040ab002056
:020000040000fa
:0200000400807a
:1034340008b506480021c0f8021006230370437043
:10344400034bdb681b68984708bd00bf38ab0020fe
:04345400f8aa0020b2
:020000040000fa
:0200000400807a
:10345800064b00221a62064a1a6202f12b42a2f5b2
:103468004b12a2f6ab421a62704700bf0006004436
:04347800556699aa52
:020000040000fa
:0200000400807a
:10347c004ff0844301221a6040f201625a604ff40b
:10348c0040729a6002221a601a46136a13f0020ff5
:04349c00fbd07047aa
:020000040000fa
:0200000400807a
:1034a00000b583b001a9054b1868fff7e1fe18b914
:1034b000002003b05df804fb0198fae76cab002034
:020000040000fa
:0200000400807a
:1034c00000000001000004000000080001000000ee
:1034d00000000401000004000000000001000000e2
:020000040000fa
:0200000400807a
:1034e00000000000000008000000000000000000d4
:1034f00000000800000008000000000000000000bc
:020000040000fa
:0200000400807a
:1035000008b50121084600f091f8012000f070f99b
:103510000021024800f072f908bd00bfb9378000f1
:020000040000fa
:0200000400807a
:1035200010b5054c22680ab9fff7eafe034b18688c
:103530002368c01a10bd00bf24ab002028ab0020b8
:020000040000fa
:0200000400807a
:1035400000b58db0684600f095f8009b23b19df85a
:0e3550002c10684600f064f90db05df804fb25
:020000040000fa
:0200000400807a
:10355e0010b50023934206d113f0030018bf0120cb
:0e356e0000eb930010bdc45ccc540133f2e7b7
:020000040000fa
:0200000400807a
:10357c00531e4ab1043800bf51f8042b40f8042ff5
:0c358c00013bb3f1ff3ff7d1704700bfd7
:020000040000fa
:0200000400807a
:103598005ab110b40a44431e11f8014b03f8014f05
:0c35a8009142f9d15df8044b7047704768
:020000040000fa
:0200000400807a
:1035b400b0f1ff3f05d0034b5b6813b1013b014af7
:0835c40053607047f8aa0020d3
:020000040000fa
:0200000400807a
:1035cc0008b5044b1b681bb1024b58681b68984725
:0835dc0008bd00bf30ab002068
:020000040000fa
:0200000400807a
:1035e40042b10139821800bf11f8013f00f8013bd4
:0835f4009042f9d1704700bfbd
:020000040000fa
:0200000400807a
:1035fc00044a9368d06883423ebf024a12699b1802
:08360c00181a704750aa0020b3
:020000040000fa
:0200000400807a
:10361400044bd86a9b6a984282bf024a126b9b1879
:08362400181a704750aa00209b
:020000040000fa
:0200000400807a
:10362c00044b93f8342083f8340083f83c10104694
:08363c00704700bf50aa0020f6
:020000040000fa
:0200000400807a
:1036440042b101388a1800bf11f8013b00f8013f6c
:083654009142f9d1704700bf5b
:020000040000fa
:0200000400807a
:10365c00044a136823b910600361016001207047ac
:08366c000020704758ab00205c
:020000040000fa
:0200000400807a
:1036740010b5044600f0e2f82060343060600223a4
:0636840084f82c3010bd9b
:020000040000fa
:0200000400807a
:10368a000068002808b501da002008bdfff779feb6
:06369a00431cfad1f8e721
:020000040000fa
:0200000400807a
:1036a000b0f1ff3f04d008b52020fff7b3fc08bd00
:0436b000002070473f
:020000040000fa
:0200000400807a
:1036b40008b5034b186b0021fff708fe08bd00bfd7
:0436c40000060044b8
:020000040000fa
:0200000400807a
:1036c80010b5034b1c69fff795ff013c201a10bd8c
:0436d80050aa0020d4
:020000040000fa
:0200000400807a
:1036dc00d52f80007d2a8000612d80002124800060
:0436ec009d24800099
:020000040000fa
:0200000400807a
:1036f000493880000d288000c937800001318000e2
:0437000065388000a8
:020000040000fa
:0200000400807a
:103704000d3480001925800071318000212c800047
:04371400a13480005c
:020000040000fa
:0200000400807a
:10371800531e2ab140f8041b013bb3f1ff3ff9d116
:04372800704700bf27
:020000040000fa
:0200000400807a
:10372c00553780005f35800071388000713880001b
:04373c007138800060
:020000040000fa
:0200000400807a
:1037400032b1c9b20244034603f8011b9342fbd1d4
:04375000704700bfff
:020000040000fa
:0200000400807a
:103754000a440023914201d10020704701f8013b43
:02376400f8e784
:020000040000fa
:0200000400807a
:1037660008b513460a461946fff713ff012008bda0
:020000040000fa
:0200000400807a
:02377600fee76c
:020000040000fa
:0200000400807a
:10377800024b1868c0f3c030704700bf0006004411
:020000040000fa
:0200000400807a
:10378800024bd88f0022da87704700bf50aa00206a
:020000040000fa
:0200000400807a
:1037980022b1821800f8011b8242fbd1704700bf9a
:020000040000fa
:0200000400807a
:1037a800aabbccddeeff0011223344556677889919
:020000040000fa
:0200000400807a
:1037b80010b9024b01221a70704700bf6bab002092
:020000040000fa
:0200000400807a
:0e37c80008b508461946fff7caff002008bde5
:020000040000fa
:0200000400807a
:0e37d60008b50020fef7a1fd00f02bf8fce77f
:020000040000fa
:0200000400807a
:0c37e40008b50421fff772fd012008bdac
:020000040000fa
:0200000400807a
:0c37f00008b1014a9063704750aa002005
:020000040000fa
:0200000400807a
:0c37fc00014b18625962704750aa00206f
:020000040000fa
:0200000400807a
:0c380800014b00221a70704764ab0020d6
:020000040000fa
:0200000400807a
:0c3814005374617274204446550d0a0084
:020000040000fa
:0200000400807a
:0c38200008b511b108b1fcf771fdfee71e
:020000040000fa
:0200000400807a
:0c382c00014b1888704700bf3eab002025
:020000040000fa
:0200000400807a
:0838380008b5fef7e9fe08bd2a
:020000040000fa
:0200000400807a
:08384000004870478826800053
:020000040000fa
:0200000400807a
:0838480008b5fff733ff08bdce
:020000040000fa
:0200000400807a
:083850004d434850000000bf89
:020000040000fa
:0200000400807a
:0838580008b5fef767fa08bd90
:020000040000fa
:0200000400807a
:04386000dc368000d2
:020000040000fa
:0200000400807a
:043864000020704789
:020000040000fa
:0200000400807a
:043868000302000057
:020000040000fa
:0200000400807a
:04386c000000203008
:020000040000fa
:0200000400807a
:04387000002070477d
:020000040000fa
:0200000400807a
:02387400fee76d
:020000040000fa
:0200000400807a
:02387600704799
:020000040000fa
:0200000400807a
:02387800704797
:00000001FF
