:0200000400807A
:105F8800FFFF000000400E8438FC745F3B4412148D
:085F98000B0000710200000083
:045FBC0000000010D1
:020000040100F9
:10000000FEFFFFFF01015048434D00000000740057
:100010000000000100020001000200010080040055
:1000200000000000000000000000000000000000D0
:1000300000000000000000000000000000000000C0
:1000400000000000000000000000000000000000B0
:1000500000000000000000000000000000000000A0
:100060000000000000000000000000000000000090
:100070000000000000000000000000000000000080
:100080000000000000000000000000000000000070
:100090000000000000000000000000000000000060
:1000A0000000000000000000000000000000000050
:1000B0000000000000000000000000000000000040
:1000C0000000000000000000000000000000000030
:1000D0000000000000000000000000000000000020
:1000E0000000000000000000000000000000000010
:1000F0000000000000000000000000000000000000
:1001000000000000000000000000000000000000EF
:1001100000000000000000000000000000000000DF
:1001200000000000000000000000000000000000CF
:1001300000000000000000000000000000000000BF
:1001400000000000000000000000000000000000AF
:10015000000000000000000000000000000000009F
:10016000000000000000000000000000000000008F
:10017000000000000000000000000000000000007F
:10018000000000000000000000000000000000006F
:10019000000000000000000000000000000000005F
:1001A000000000000000000000000000000000004F
:1001B000000000000000000000000000000000003F
:1001C000000000000000000000000000000000002F
:1001D000000000000000000000000000000000001F
:1001E000000000000000000000000000000000000F
:1001F00000000000000000000000000000000000FF
:10020000F07F0120B9510401B56F0401B96F0401F9
:10021000C16F0401C56F0401C96F04010000000033
:10022000000000000000000000000000D193030166
:10023000BD6F0401000000002D940301959403019B
:10024000ABD30301C53D0401ABD3030191BB030153
:10025000ABD30301ABD30301ABD30301ABD3030196
:10026000ABD30301ABD30301ABD30301ABD3030186
:10027000ED570301ABD30301ABD30301ABD30301B0
:1002800041970301ABD30301ABD30301ABD303010C
:10029000ABD30301ABD30301ABD30301ABD3030156
:1002A000ABD30301ABD30301ABD30301ABD3030146
:1002B000ABD30301ABD3030161AC0201ABD30301A8
:1002C000ABD3030141AC0201ABD30301ABD30301B8
:1002D000ABD30301ABD30301ABD30301ABD3030116
:1002E000ABD3030100000000ABD3030100430800BF
:1002F000441F012000000000000000000143010035
:10030000291E01200000000000000000024301003F
:100310002C1E012000000000000000000A40010027
:10032000B23800200000000000000000004004007F
:100330004C2D0020000000000000000009400100DA
:100340008D2D00200000000000000000084020006B
:10035000D80F00200000000001000000074030021C
:10036000B01600200000000001000000064002005E
:10037000B02D002000000000000000000540380003
:10038000F80F0020000000000200000004400300FD
:10039000AA2D002000000000000000000340F00033
:1003A000601B002000000000030000000240C800A5
:1003B000A8030020000000000100000001406000D0
:1003C000F82E002089630301000000005C70040126
:1003D0000900004CF8B500BFF8BC08BC9E46704749
:1003E00075670401F8B500BFF8BC08BC9E467047AD
:1003F00051670401D4B4030001000000034B93F8DB
:100400005201A0F1AA03584258417047E838002031
:100410000A4AF0B5D2E93A321978C90707D5D0E9C6
:100420000067D3E90245AF4208BFA64203D01033AC
:100430009A42F1D800231846F0BD00BFE8380020EA
:10044000074AD2E93A321978C90702D55988814258
:1004500003D010339A42F6D800231846704700BFE5
:10046000E8380020F0B50E4BD3F8E04093F8E57083
:1004700000231D461EB204EBC60292F803C0BCF175
:10048000000F08D034F83660864204D196788E4248
:1004900004BFD57055600133DBB29F42EAD2F0BD94
:1004A000E8380020034B93F84C00A0F14103584278
:1004B00058417047E8380020034B93F83C00A0F106
:1004C000D603584258417047E8380020034B93F850
:1004D000C400A0F11303584258417047E838002087
:1004E000034B93F87801A0F1B70358425841704785
:1004F000E8380020437800F1080210B513F0080432
:100500000A611DBF0A6000F110020A610C6013F05D
:1005100010021FBF0A694A6008320A6108BF4A60B8
:1005200013F001021FBF0A698A6001320A6108BF25
:100530008A6013F004031DBF0B69CB601A78CB608F
:100540001EBF013203EB42030B610B69181A0875D9
:1005500010BD084AD2F80C3292F8082203EB82123E
:10056000934201D301207047197809B94033F7E766
:1005700000207047E8380020034B93F80002A0F1F8
:10058000DA03584258417047E8380020014BFD22F9
:100590001A707047E8380020034B93F8B900A0F1B7
:1005A000E603584258417047E8380020034B93F85F
:1005B0007C02023818BF0120704700BFE8380020D5
:1005C000034B93F87001A0F18E03584258417047D5
:1005D000E8380020024BFB2283F86823704700BFF5
:1005E000E8380020034B93F86803A0F1FB0358425E
:1005F00058417047E83800200C4B30B12830D3F810
:10060000F820904204D300207047D3F8F400F6E7B6
:10061000037803F0FB03012B05D1837EDB0702D4B3
:1006200083888B42F0D12830EBE700BFE838002008
:10063000084AD2F8F430C01A074BC0104343D2F82E
:10064000FC0000EBC3008079430714BF00F00700F3
:1006500007207047E8380020CDCCCCCC0B4A10B531
:10066000D2E93D311A78062A09D05C78022C06D1ED
:1006700002F0FB02012A02D19A88824203D0283379
:100680009942EFD80023184610BD00BFE83800207B
:100690004BF6DD734343C3F30333094A32F8331097
:1006A00030EA010103D102EBC3035B680BB9002000
:1006B00070479A88824201D05B6AF7E70120704751
:1006C000383D0020024B662283F8B023704700BFFC
:1006D000E838002073B50D4BD3F8DC1293F8E052E4
:1006E000002201230839D4B2A54206D8002064F3C1
:1006F000070063F30F2002B070BD013251F8326081
:100700008642F3D05B00DBB2EDE700BFE8380020A3
:100710002DE9F04F85B09846019000208946174694
:10072000214CFFF7D7FF94F8E032ADF80C00C0B2CF
:10073000834234D904F1F40191E80A409DF80D2078
:10074000DFF868A000930D466FEA020B6B1ADB100E
:100750000AFB03F395F800C00EEBC303BCF1060FD0
:10076000DE790AD095F801C0BCF1020F05D0B5F8CA
:1007700004C0CC4501D0BC4514D10BEA0606DE719D
:10078000009B28359D42E1D3D4F8DC22019900B2C8
:1007900002EBC00342F830109F8083F8068005B05A
:1007A000BDE8F08F1643EAE7E8380020CDCCCCCC8A
:1007B00007B5FFF78FFF074B93F8E022C0B28242E4
:1007C00082BFD3F8DC32002243F8302003B05DF85A
:1007D00004FB00BFE8380020044B93F8100200F03F
:1007E000FD00A0F14803584258417047E838002006
:1007F000024B272283F81023704700BFE8380020FF
:10080000034B93F81003A0F1270358425841704757
:10081000E8380020034B187CA0F1190358425841D6
:10082000704700BFE8380020094B30B5D3F8A82343
:10083000B3F8AC4300239C4202D10021084630BDEE
:10084000114632F8145B8542F8D001339BB2F2E7CF
:10085000E838002038B505460C46FFF7E5FF50B9EB
:10086000124AB2F8AE33D2F8A813142000FB0310DA
:100870000133A2F8AE336278428020F8045B002393
:1008800099B28A420AD8094BB3F8AE23B3F8AC1335
:1008900091429CBF0022A3F8AE2338BD04EB430174
:1008A0000133498820F8021BEAE700BFE83800203E
:1008B000034BD3F88002B0FA80F04009704700BFC4
:1008C000E8380020084A10B5D2E9A7321C782CB1CC
:1008D0009C7A8C4202D19C88844203D018339A427D
:1008E000F4D80023184610BDE838002010B504469F
:1008F000006948B1636923B15A68A24204BF00226B
:100900005A60C368103098470023237010BD4368B5
:1009100010B4C3B11A69B2B15C69844213D151B148
:1009200014205074002018701046D36800F8101F6F
:100930005DF8044B1847107928B95878196161F3AC
:10094000C3005870F0E75DF8044B7047034B93F811
:10095000A402B0FA80F04009704700BFE8380020D8
:1009600030B590F83030722B8BB0044619D86946F8
:10097000C069FFF7BFFD049B9DF81420587894F8D8
:100980003010023245002A448A420AD10130074A17
:1009900058702B44528F5A80023184F830100BB0BB
:1009A00030BD752384F83030F9E700BF602D00209A
:1009B000114930B5B1F8AC32D1F8A802C3EBC3038A
:1009C000C21800230479E40709D593B145795C790D
:1009D000A54238BF034607309042F3D31846037947
:1009E00043F00103037191F8AE2201239340437158
:1009F00030BD0346EFE700BFE83800200C4A10B5D1
:100A0000D2F8A832B2F8AC22C2EBC2021A441C7966
:100A100014F0010F06D0C4F300148C4202D11C88DC
:100A2000844203D007339342F1D30023184610BD0C
:100A3000E838002008B5FFF7E1FF18B103796FF33C
:100A40000003037108BDF8B507460E4615461C465F
:100A5000FFF7D4FF58B18379A34207D3094B93F82A
:100A6000AE2201239340437145808471F8BDFFF7A6
:100A70009FFF0379078003F0F10366F3041303710A
:100A8000F2E700BFE838002010B50B4BD3F8242460
:100A900093F8201401320023994202D1FF23184613
:100AA00010BD12F8014C14B114788442F7D0013310
:100AB000DBB21C32F0E700BFE838002008B5FFF7D2
:100AC000E3FF084B93F82024824281BF00B2D3F8A1
:100AD0002434C0EBC00003EB80008CBF0230002048
:100AE00008BD00BFE838002010B50446C06943784F
:100AF0005B078AB010D56946FFF7FCFC039B5A7868
:100B000003EB42039A78DB7842EA0323238501232F
:100B100084F832300AB010BD8378C27843EA0223E9
:100B2000F4E7044B93F88001A0F19A03584258412E
:100B3000704700BFE8380020024B002283F8D5221E
:100B4000704700BFE838002090F8873043F0020378
:100B500080F88730012380F83230704730B50D4C73
:100B600030B12830D4F8F850A84204D3002030BD6A
:100B7000D4F8F400F6E70478062C09D04478022C67
:100B800006D08488944203D08C4201D09C42EED19E
:100B90002830E9E7E8380020034B93F8E802A0F199
:100BA0003103584258417047E8380020024A5368E0
:100BB00023EA000050607047E8380020024B986E2E
:100BC000B0FA80F040097047E8380020034B93F8F2
:100BD0002804B0FA80F04009704700BFE8380020D0
:100BE00010B5094C502384F85033B4F83A33A4F8C4
:100BF000583304F55270054BC4F8603334F0C0F933
:100C00001B2384F8383310BDE838002089440001E4
:100C100008485F2380F81032074BC0F83032412378
:100C200080F82032002380F8283200F5067034F076
:100C3000A7B900BFE83800209117000173B5064638
:100C40006846CDE90023FFF7E3FB0446D8B9164D0B
:100C5000D5F8F040D5F8E8309C4203D3D5F8EC3015
:100C60009C4205D3114B43F214121A8044F016FD36
:100C7000D5E93B2310339342C5F8F03024BFD5F8B3
:100C8000E830C5F8F0302378668043F00103237024
:100C9000DDE90023C4E9022323789DF8182062F3DC
:100CA0004103237002B070BDE83800205C2F0020A3
:100CB00037B5164A164CD2F8F430D2F8FC50C31AA5
:100CC000DB105C430378052B09D101A92C203BF0F4
:100CD0001BFE019BDB0A45F8343003B030BD43787E
:100CE000022B05D1026A03F2E63353430193F0E786
:100CF0000DF1030114203BF007FE9DF8033043F68D
:100D0000982203FB02220192E3E700BFE8380020AB
:100D1000CDCCCCCCF0B5214A85B0D36E92F87070B2
:100D200000244FF4A072064602FB07328DF80740FC
:100D30002546934214D335B302A940F231103BF05B
:100D4000E3FD04AB3344052F13F8093C13D89C4250
:100D50002CBF00240124B4B12E70284605B0F0BD8C
:100D6000197831B1B14201D10134E4B203F5A07375
:100D7000DFE71D46FAE713FB07F3B4EB930FB4BFAD
:100D800001240024E7E701230DF1070146208DF837
:100D9000073000253FF070FADFE700BFE838002099
:100DA00008B5FFF7B7FFB8B100F11A0390F80721B3
:100DB000C0F89C300023C0F8C43080F8C030C0E9CF
:100DC0003233A0F8BC3063F34102044B80F80721B2
:100DD0005B8FA0F80031803008BD00BF602D00207F
:100DE000742908B501D9002008BDFFF793FF00283A
:100DF000F9D000F10C03C0F884308030F4E7F8B586
:100E00000F4D00242E46B5F8AC32A34200D8F8BDF1
:100E1000D5F8A822C4EBC4073A44127902F02102A3
:100E2000212A03D121460A203FF026FAD6F8A8321B
:100E30003B4401341A796FF345121A71A4B2E2E708
:100E4000E8380020164B2DE9D043D3F80C42064673
:100E50000F4644B9134B4FF441521A8044F00CFC36
:100E60002046BDE8D08356EA070110D093F8081257
:100E7000234604EB811100248B42F1D2187858B13B
:100E80003AB1D3E90289B94508BFB04505D100247C
:100E9000E6E7D3E90689F6E71C464033ECE700BFF6
:100EA000E83800205C2F0020034B0022C3E9002219
:100EB0004FF480707AE600BFEC380020094BD3F87D
:100EC000480493F8442400239A4200D170470178E3
:100ED000032903D11822002146F04EB901331830FE
:100EE000DBB2F1E7E83800202DE9F743012306469D
:100EF000884637200DF107018DF807303BF004FDDF
:100F00003F4B93F82E20022A4FF000079C4606D153
:100F10009DF807301BB9032003B0BDE8F083394CBE
:100F2000002394F8E510D4F8E0E01D4618B20EEB6B
:100F3000C00292F80390B9F1000F37D03EF83000AC
:100F4000B04236D19278424533D10020E4E738F000
:100F5000BBFCD4F8D030D4F8E0C094F8E5708342FC
:100F60008ABFDB43C01AC01800234FF0FF321E4671
:100F70000CEBC301CC7854B14C6844B1A94206D003
:100F800084420ED9241AA2424C6028BF2246013363
:100F9000DBB29F42ECD269681B4B8A4228BF0A46EB
:100FA00025E04E60CE70F2E70220B5E70DB91F468E
:100FB00015465A1CD3B29942B8D2002DF4D085F808
:100FC0000280DCF80C202E800A320123B9426A60CC
:100FD000EB7007D194F8E430013B99423CBF0131FA
:100FE00084F8E51094F8C830002BB0D1064B0748C0
:100FF000012145F01BFA054845F02CFA01208BE74A
:10100000602D0020E8380020CD200001B0390020FC
:101010002DE9F041537D05460C4616466BB101782B
:101020004F1EFBB20B2B08D862884FF6F7739A421B
:1010300006D8104B53F82730B3B90020BDE8F08133
:10104000082904D84FF48973CB40DB07F1D40A4B4D
:10105000A0885B8F8342F0D0E179FFF745FF00F075
:10106000FD000128E5D0E8E732462146681CBDE8CE
:10107000F0411847ECAA0301602D002013B540F29F
:101080000B100DF106013BF03FFCBDF806303BB9FB
:101090000E4B43F215121A8044F0EEFA02B010BD66
:1010A0000B4C0C4940F20A203BF014FCBDF8062022
:1010B000D4F8E800120183180021C4F8EC3046F09F
:1010C0005BF8D4F8E830C4F8F030E7E75C2F002094
:1010D000E8380020D039002010B50F4B93F83720A6
:1010E000827793F83820816101239340436140F671
:1010F00001030446838300F11F014FF482703BF02B
:1011000003FC04F1100140F202203BF0E3FB204617
:10111000BDE8104033F031BF602D002003480023AC
:1011200080F87C3200F514703FF048BAE8380020AF
:1011300073B5174E0DF107014FF486703BF0E4FBD9
:10114000314640F20B203BF0C5FBA6F527749DF815
:101150000720D4F89C0202EB4202D200831800213F
:101160007360002546F008F820203572FFF71EFD59
:10117000A6F1140075723FF021FA064B46F8043CC4
:101180004FF4807306F8085C46F80C3C02B070BD62
:10119000843B00209911000170B5104C0023D4F855
:1011A0009C5284F8A53201262B7833B1013BDBB287
:1011B0002B707BB92846FFF799FBD4F8A03218357D
:1011C000AB42F1D894F8A5323BB90548BDE8704070
:1011D0003FF0F4B984F8A562EFE770BDE83800206D
:1011E000703B00200348012380F87C3200F5147026
:1011F0003FF0BAB9E8380020194B70B5D3E9A741E0
:101200000646002522784AB993F8A522B2B90122F0
:1012100083F8A52213483FF0A7F90FE06078000794
:1012200004D4D5B12878904288BF25461834A1420D
:10123000E8D885B12846FFF759FB2C461822002133
:10124000204645F099FF4FF0000366F3C303637037
:10125000272323702546284670BD2546E6E700BFB4
:10126000E8380020703B002038B50D4CD4F8F4501D
:101270002846FFF71DFDD4F8F83028359D42F7D3F6
:10128000084BC4F814314FF40063C4F80C31002348
:1012900084F810310448BDE838403FF065B900BF1C
:1012A000E8380020818F0001EC3900202DE9F0475B
:1012B0000D4691F82010017290461E4642686B6AF6
:1012C0009342044608D20B449A4205D21A4B43F289
:1012D000A7121A8044F0E2F9227A696A606845F040
:1012E000F8FE04F110016068B5F808A095F82890A0
:1012F000277A95F92A50FFF7FDF894F824309DF8E5
:10130000202084F82890FF1A237884F8257084F828
:10131000295062F3000398F80120A4F826A052088F
:1013200062F341039DF8242066F3C70362F382034E
:101330002370BDE8F08700BF5C2F002010B5074C7C
:10134000002384F8883004F18000054BC4F88C3009
:1013500033F0D0FD142384F8B93010BDE8380020F4
:10136000F989000170B5244C04F56D70D4F8B453BC
:1013700043F046FA2378287913F0100FA5F10806F8
:1013800023461AD0042818D11C4B2A7C1A726823D1
:1013900084F8B0331A4BC4F8D83306206F2304F511
:1013A0007471C4F8B86384F8C8333BF0ADFA04F53F
:1013B0007070BDE8704033F0E3BD062812D10F4ACB
:1013C000297C1172682283F8B0230D4AC3F8D82310
:1013D0006F22C3F8B86383F8C8230A493BF094FA34
:1013E0000948E6E7C22385F8233005F11800EB68C9
:1013F000BDE87040184700BFE8380020602D00208D
:101400006D370001B83C0020A83C00202DE9F041D8
:1014100043685D78B3F802809E886B07044600F14C
:10142000380705F001011FFA88F2B0B212D599B958
:10143000194B5B8F93420BD1FFF7E0FA40B1037970
:101440005A0705D5C3F3400212B962F3C30303710F
:10145000022101E00029FBD0E38CA4F85A3094F873
:10146000253084F85C30236A2366238DA4F8643029
:101470000A4B2367C5F34005002384F85410A4F8F1
:101480005680A4F8586084F86C5084F86D30384663
:10149000BDE8F0410BF036B9602D0020B7360001F1
:1014A000A0F57F40FB3804281CD8DFE800F0050ECB
:1014B000161B0300012070470B4B93F82E20012AC6
:1014C00010D1187AC0F380007047074B93F82E00B4
:1014D00001288CBF002001207047034B187AC0F30D
:1014E000C000704700207047602D00203D2803D1C8
:1014F00011B1024B0A881A80704700BF0008012012
:1015000007B531B35028164B08D0512824D03D28B8
:1015100007D11A8909880A441A8102E09A8801329F
:101520009A809988A9B1D88864224243B2FBF1F22B
:10153000D2B2192A0DD99A785AB901229A704FF667
:10154000FF73ADF8043001A814238DF8063011F0B4
:10155000DFF803B05DF804FBDA880132DA80E0E7F7
:10156000000801200D4A012303FA00F0536810B56A
:101570000B4C0343536023881B070ED437F03CFF0A
:10158000238843F00803238037F046FF054B0648C5
:101590001B68BDE810401B69184710BDE8380020E3
:1015A0001A0A01205034002054340020034B9A6F53
:1015B000192083F8B90011770C20D3E7E838002010
:1015C000024BF92283F8B4221020CBE7E838002040
:1015D000054B0178D3F87C2182F82810472283F844
:1015E00080210620BEE700BFE838002043680322C0
:1015F0001A7059701720B5E737B5164C94F8522178
:10160000452A054605D0144B4FF446521A8044F043
:1016100045F815B1114B9D4205D00F4B43F2811295
:101620001A8044F03BF8AA2384F852310C4BEA7A32
:101630005B8FADF8043052B9102301A88DF8063045
:1016400011F066F80220FFF78DFF03B030BD0923CB
:10165000F3E700BFE83800205C2F0020203A00208C
:10166000602D002070B5184C94F8C430D4F8C060D8
:10167000E82B054605D0154B43F287021A8044F04B
:101680000DF82EB9114B43F288021A8044F006F887
:1016900006F10C039D4205D00C4B43F289021A80DF
:1016A00043F0FCFF736A2A791A702A685A60EA7953
:1016B0001A72E92384F8C43094F8C53023700D20E1
:1016C000BDE870404EE700BFE83800205C2F0020E6
:1016D00070B5144CD4F8746105462EB9124B43F220
:1016E000B4021A8043F0DAFF06F118039D4205D0D8
:1016F0000D4B43F2B5021A8043F0D0FF94F87831D5
:101700005E2B05D0084B43F2B6021A8043F0C6FFA9
:101710002B7886F84C30582384F878310920BDE8BE
:1017200070401FE7E83800205C2F002070B5164C91
:1017300094F83C20A56B712A064605D0134B43F262
:10174000D7021A8043F0AAFF2DB9104B43F2D802FA
:101750001A8043F0A3FF05F10C039E4205D00B4B0A
:1017600043F2D9021A8043F099FF337913B1FA2B6F
:1017700008BF002385F82430722384F83C30082009
:10178000BDE87040EEE600BFE83800205C2F002086
:1017900070B50E4C10F80C1CD4F8145206462A20D2
:1017A0003EF06AFD94F81032602B08D133782B7329
:1017B0005E2384F810320720BDE87040D2E60DB1F8
:1017C0005D23F6E7482384F8103270BDE838002026
:1017D00008B50146034842F0EFFF0320BDE808408A
:1017E000C0E600BF2839002010B504460120FFF7ED
:1017F000D7FA58B1064A224492F85811013982F8B2
:10180000581180F88640FFF7E3FF012010BD00BFAC
:10181000E8380020132810B5044605D90C4B43F2D4
:10182000D2121A8043F03AFF0A4A224492F8583101
:101830000133DBB282F858312BB9054B43F2D31296
:101840001A8043F02BFF2046BDE81040CCE700BFD4
:101850005C2F0020E838002010B512480C4642F0FA
:10186000CFFF0346426803F8154F184690470E4BCA
:10187000D3F8B8228AB1202183F8D412937D0C2B9F
:1018800009D010894FF6F77398428CBF01200220CF
:10189000BDE81040BEE71020FAE7782283F8D42292
:1018A00010BD00BFA03B0020E838002010B5072085
:1018B000FFF730FA0446B8B10C4842F0A1FF04F13A
:1018C0003503C4F81031037984F83131034680348C
:1018D00043F80C4F826818469047054B5B6F1BB16D
:1018E0001520BDE810403DE610BD00BF5C3900206A
:1018F000E838002038B51C4C1C4842F081FF94F8B1
:101900004C30032B054605D0194B43F2B4121A8014
:1019100043F0C4FE2DB9164B43F2B5121A8043F0C2
:10192000BDFED5F898303BB9114B43F2B6121A8080
:10193000BDE8384043F0A0BE05F19C00984795F8FB
:10194000A9301BB90B493C203EF096FC0A493D20CA
:101950003EF060FCA36C1BB10E20BDE8384001E6F0
:10196000412384F84C3038BDE8380020303900205D
:101970005C2F0020000801204C1C012070B5304C69
:1019800094F8C430E72B47D1D4F8C0502DB92D4B73
:1019900043F281021A8043F081FE22786B6AD207FB
:1019A0001FD51A6AAA61002685F8206093F82420C2
:1019B00085F82120244A92F8372085F82220102229
:1019C000093385F82320214A6B61EA61281D33F031
:1019D000D4FA237884F8C5302670E82384F8C4301C
:1019E00070BDC3221A70E92384F8C430184842F04D
:1019F00007FF054628B9134B43F282021A8043F0D1
:101A00004DFE686A836A6BB90E4B43F28302BDE8F0
:101A100070401A8043F030BEE92BE7D0094B43F207
:101A20008602F4E79847D4F8C03033B1E72384F84E
:101A3000C4300D20BDE8704094E51323CEE700BF0D
:101A4000E83800205C2F0020602D00206516000182
:101A5000A839002070B51B4CD4F8745106462DB936
:101A6000194B43F2B1021A8043F018FE05F11C0332
:101A70009E4205D0144B43F2B2021A8043F00EFE90
:101A800094F878315D2B05D00F4B43F2B3021A80E6
:101A900043F004FE337863B96FF07F432B610B4B47
:101AA0006B6105F1080033F065FA5E2384F8783144
:101AB00070BD85F84C30582384F878310920BDE892
:101AC00070404FE5E83800205C2F0020D11600015F
:101AD000F8B5394DD5F86C41062094F8B110FFF7F0
:101AE0007FF92E46002862D00546B4F8AC2015F8E0
:101AF000383B23F00703037094F8B030A0F8562069
:101B00002E4A80F85430528FA0F8582094F8B12013
:101B100080F85C20012BD4F89010436894F8B5C08D
:101B200080F86CC00CBF09270827CF1B7F787F0780
:101B30004BBF1B330933036603664CBF02F11B0323
:101B400002F109030372BCF1000F02D0036E0E33E1
:101B500003661B4B0367012380F86D30006E45F070
:101B6000B8FA184842F04CFE0023A4F8A830D4F884
:101B70009430C4F8A03094F8B7308BB9D4F89830CA
:101B800004F19C00984728460AF0BCFDD6F86C3159
:101B90005BB10F20FFF7E6FC8F2386F87031F8BDAC
:101BA00004F10800FFF714FEEDE78E23F5E790231C
:101BB00085F87031F3E700BFE8380020602D002081
:101BC000B7360001543A0020F8B5174C94F8283481
:101BD000042B0F4623D1D4F82C6415692EB9134B6E
:101BE00043F205521A8043F059FDBB79012B18D1FD
:101BF0000F483EF0E3FC94F82834042B07D16B78AF
:101C00002BB9AB780B4A03F0070382F853306B789B
:101C1000052284F8282416203374FFF7A3FC002043
:101C2000F8BD0120FCE700BFE83800205C2F002051
:101C3000183D0020602D0020437843F0010361F33C
:101C400041034370044B93F8A42222B9932283F8F2
:101C5000A422052086E47047E83800202DE9F041F1
:101C6000414F424842F0CCFD3B78DB07054673D537
:101C70003F4EC188708FD7E9A7321C782CB11C89E0
:101C80008C4202D19C88844207D018339342F4D30B
:101C90000120FFF7B1FA044630B904236B74EB68F6
:101CA00005F1100098474CE02A79637862F34613F7
:101CB0006A7A62F304136370FF23E370738FA38067
:101CC000EB88238197F884325A1E0D2A40D996F862
:101CD0002D30013313F0FF034FF0010214BF86F8DB
:101CE0002D3086F82D2096F82D1087F88422262096
:101CF0003EF0C2FA96F82D305A1E97F8843243EA25
:101D00000213A3722B7AE372B37A25610133DBB23B
:101D10004FF0000863730121204684F80C80B372F1
:101D2000FFF78AFF134B59894FF6FF72914208BFA4
:101D3000A3F80A805A891049013245205A813EF0A1
:101D40009BFAD7F8803263B10420BDE8F04109E482
:101D5000013387F88432CDE7C22300F8103FEB68E7
:101D6000A0E7BDE8F08100BFE8380020683B002014
:101D7000602D0020000801200A08012008B500F1AC
:101D80000801084842F018FD074B93F8B023662A73
:101D900007D1672283F8B0231220BDE80840FFF77F
:101DA000E1BB08BD9C3C0020E8380020134B984262
:101DB00037B5054605D0124B43F205021A8043F0B1
:101DC0006DFC104C002384F830302B789BB90E4DFD
:101DD000238C29460D2021F83A3F3AF0C1FD94F8B2
:101DE000313043B96B8FADF8043001A810238DF862
:101DF000063010F08DFC03B030BD00BF2C08012070
:101E00005C2F002000080120602D0020F7B5194C40
:101E10000DF1070106462520D4F8F4503AF074FD80
:101E2000D4F8FC70D4E93DC10020134C02462B7855
:101E3000062B0FD0A5EB0C03DB10634307EBC303AA
:101E4000DB791E426B7804BF0132D2B2022B1CBF79
:101E50000130C0B228358D42E9D340B19DF807303A
:101E6000984228BF184690428CBF0020012003B042
:101E7000F0BD00BFE8380020CDCCCCCC10B50A4C6A
:101E80006F2304F5EC71062084F8D0313AF03CFD64
:101E9000064BC4F8E03104F5E47033F071F83523F3
:101EA00084F8003210BD00BFE8380020E551000181
:101EB000037810B513B9BDE81040DFE7054CD4F83E
:101EC0008C210A2082F82B30FFF74CFB222384F868
:101ED000003210BDE838002003790A4A1BB103F034
:101EE000EF03EA2B09D1D2F8283301688B4304D0E1
:101EF000522382F8103308208CE4272382F8103311
:101F0000704700BFE838002010B50446B830FEF72F
:101F10004FFC0020134B207013F8012BDAB1FFF7B0
:101F200063FCE8B9104C94F8A4321A2B02D10520B6
:101F3000FFF718FB94F87031902B05D1912384F8AA
:101F400070310F20FFF70EFB636F4BB11520BDE81A
:101F50001040FFF707BB0130C0B21428DCD1E1E725
:101F600010BD00BF403A0020E838002008B5D0F886
:101F70009430C0F8A030002380F8A910C0F8A43035
:101F800001460D4842F018FC0C4A92F84C30412BA7
:101F900007D1032382F84C300E20BDE80840FFF73C
:101FA000E1BA032B07D0064B43F2B3121A80BDE807
:101FB000084043F061BB08BD30390020E8380020FC
:101FC0005C2F002038B5446890F8833084F8A8303E
:101FD0000D463830FEF7ECFB29462046BDE8384078
:101FE000C4E70A49D1F80C32834205D891F80812A7
:101FF00003EB8113984205D3054B43F241021A804B
:1020000043F03ABB4022002145F0B6B8E838002042
:102010005C2F00202DE9F0412A4DD5F80C4295F8AF
:10202000086286B004EB8616A4B341F64C574FF015
:102030000008B44234D22178022934D1238CADF87F
:102040000030D4E90623CDE902238DF811108DF874
:10205000128063789B0712D595F87C32022B0ED044
:10206000FFF75CF844F0D6FF80B2B0FBF7F307FB54
:10207000130317FA83F3C5F85832FFF7B3F8637800
:102080008DF810302046FFF7ACFF684610F0B4FA28
:102090004034CEE70C4B43F242021A8043F0ECFA94
:1020A00006B0BDE8F0810329F2D1238AADF80030F3
:1020B000D4E90223CDE90223637D8DF811108DF858
:1020C0001230C6E7E83800205C2F0020F8B5174B27
:1020D000D3F8E060D3F8D47093F8E5504FF0FF32B6
:1020E000002106EBC104E07830B16068C01B60607D
:1020F00090B1824228BF02460131C9B28D42F0D26E
:10210000511C0BD00A4B0B48012144F08FF90948B0
:10211000BDE8F84044F09EB9E070EDE7002283F896
:10212000E5200448BDE8F84044F09CB9E8380020B8
:10213000CD200001B039002013B500230DF10701B7
:102140004FF498708DF807303AF0DEFB9DF80730B9
:102150008BB10A4C94F890238B2A05D1084B43F29B
:1021600003221A8043F09AFA94F890338A2B02D112
:1021700004483EF023FA02B010BD00BFE83800204A
:102180005C2F00207C3C0020084831B9042380F8F3
:10219000283400F586603EF0E7B9D0F82C340522EB
:1021A00080F8282419741620FFF7DCB9E8380020DD
:1021B0000748012380F85433064BDB68C0F85033DE
:1021C000054BC0F8583300F552703EF0CDB900BF52
:1021D000E8380020602D0020E10B00012DE9F843D4
:1021E000194DE9886B8F99422AD0184991F83833F4
:1021F000922B23D1537D0D2B20D113695C7814F0E1
:10220000E0001BD1012C19D1D5E91089D3F8067053
:10221000D3F80260B94508BFB04512D1DA7A9D7A89
:102220001B7B81F83C5342EA0323A1F83A3319237C
:10223000C1F8400381F83833FFF7BAFF012000E00E
:102240000020BDE8F88300BF602D0020E8380020A2
:102250000B4881B9552380F81033012380F82033CF
:1022600042F21073C0F81C33064BC0F8243300F55B
:1022700045703EF079B9272380F81033704700BFCE
:10228000E8380020F107000107B54FF48A7001A972
:102290003AF03AFB134B93F87A221946D2B193F8ED
:1022A0007B22013AD2B283F87B229AB1019858B1CD
:1022B0000122C3F86C0283F87C2203F519703EF00A
:1022C00053F903B05DF804FB022283F87C22FFF788
:1022D000A1FAF6E743F69823C1F85832FEF782FFD9
:1022E000EFE700BFE838002008B50F491D203AF09D
:1022F0000BFB0E4BD3F89C23AAB142F25D718A42CC
:102300009CBF42F25E72C3F89C23012283F8A02393
:10231000074AC3F8A4238A2283F890230548BDE81E
:1023200008403EF021B908BD843C0020E838002078
:102330009D7900017C3C002007B500230DF10701C9
:102340004FF498708DF807303AF0DEFA9DF80730B8
:1023500053B1084B93F89033892B08D0064B4FF4B8
:1023600048521A8043F088F903B05DF804FBFFF788
:10237000BBFFF9E7E83800205C2F002008B5074BC9
:1023800093F890338B2B05D0054B43F202221A8031
:1023900043F084F9BDE80840A6E700BFE838002014
:1023A0005C2F002070B5144D064605F57D70D5F8FC
:1023B000F44342F025FA114991F8383084F822307C
:1023C000D1E91023C4E906234B8F238484F82360CA
:1023D000E36804F118009847D5F8F4333BB11723AC
:1023E00085F8F0331320BDE87040FFF7BBB8162323
:1023F00085F8F03370BD00BFE8380020602D002064
:10240000027810B51AB11046BDE81040CAE743780B
:102410002E4C502B3DD011D8462B1DD04B2B32D0FB
:10242000452B3CD1462384F800340F2384F808342C
:1024300004F57E70BDE8104032F0A2BD532B13D0DE
:102440006F2B1AD0522B2AD1532384F80034204BFF
:102450005B8FA4F80834EBE7522384F800341C4B5C
:102460001B7AC3F3C003E1E76F2304F58161062003
:1024700084F800343AF048FADAE74B2384F8003461
:10248000134B1B88E5E7502384F80034104B9B8FD7
:10249000DFE70F4B84F8002493F83830C6E794F850
:1024A00000348BB90A4B0B481B7A13F0080F14BF8A
:1024B0006FF07F430023C4F80034074BC4F80434A2
:1024C000BDE8104032F056BD10BD00BFE838002016
:1024D000602D0020E03C0020DD240001007810B9D0
:1024E000014BBD221A705DE7E838002038B5104D69
:1024F0002B7CC22B2C4618D105F1140042F080F938
:102500004368083098476B6963B1C1232B7401237A
:1025100084F82030074B6362074832F0EBFCC3239A
:10252000237401E019232B7438BDC12BFCD1EEE7D5
:10253000E8380020A59A000100390020037907B58A
:102540006BB1084B93F85320920708D55B8FADF819
:10255000043001A809238DF8063010F0D9F803B033
:102560005DF804FB602D002010B50C4C99B90C4BA4
:10257000B4F86A231B7C84F83C330A4BC4F840331C
:10258000192384F83833A4F83A23FFF711FE862381
:1025900084F8683310BDFB23FAE700BFE838002059
:1025A000602D0020D505000110B51E4C94F828348C
:1025B000D4F82C04012B224620D12378DB0618D531
:1025C00003790E2B03D8437913F0FE0F09D00523AE
:1025D00082F82834C12303741620BDE81040FEF7AA
:1025E000C1BF022384F828341220BDE81040FFF751
:1025F00011B9052384F82834C223ECE7052B0FD149
:1026000083680C30984704F22C4042F0F9F8D4F873
:102610002C341BB1012384F82834DDE784F82834F6
:1026200010BD00BFE83800200178134BE12910B439
:102630001846D3F8EC4216D193F8E922032A12D8AF
:102640000E490132888F0988A3F8001383F8E92224
:10265000A421A3F8FA0283F8E81203F53C705DF8B0
:10266000044B32F093BCA523217380F8E8325DF867
:10267000044B0120FEF776BFE8380020602D0020D3
:1026800037B5304890F810325D2B044632D10278CD
:10269000D0F81432D20714D5602280F810221B79AA
:1026A000294AC0F83022003318BF0123412280F8A4
:1026B000202280F8283200F5067032F061FC03B069
:1026C00030BDC2221A735E2380F810321F4842F0D8
:1026D00097F8D4F8143205467BB1C22303735D2307
:1026E00084F810320720FEF73DFFAB6805F10C00BF
:1026F0009847E4E75E2BE2D1E8E703795A1ED2B2AD
:10270000FD2A0BD84FF47A725343C4F84032104874
:102710003DF02AFF4A2384F81032E6E7FF2B0FD161
:102720000DF107014FF495703AF0EEF89DF807307F
:10273000012B01D1074BE8E7022B01D1064BE4E75F
:102740004823E8E7E838002091170001FC3A002010
:10275000203B002000C8AF0030E00300094B9A6F17
:1027600092F91220002A06DA1322002183F8B920F8
:102770000846FEF7E3BD122283F8B9200620FFF7D2
:1027800049B800BFE83800202DE9F743354D95F8EA
:102790006833FB2B49D13449C8884B8F984244D1C8
:1027A000507D092841D91669D1E91023D6F8069041
:1027B000D6F802804B4508BF424536D1737813F0F6
:1027C000E00732D103F01F030533B0EB430F2CD1E8
:1027D0008C8F4FF482700DF107013AF095F89DF857
:1027E00007300133DBB20134A4B28DF8073038462C
:1027F0004FF6FF7C9AB27378C1B203F01F038B428D
:102800000AD9A5F86CC300217778CBB207F01F076F
:10281000BB420ED38F421CDC14491548A5F86A430D
:10282000FEF75AFC832385F86833012003B0BDE826
:10283000F0830B1D06EB43035B881B1B9BB293428B
:10284000E8D9B5F86C739F4288BFA5F86C330131A5
:10285000DAE7031D06EB430301305C880134A4B2C0
:10286000C9E700BFE8380020602D0020DD440001EA
:10287000583C002030B5134C002384F8B83094F84D
:10288000AD3085B02546BBB904F1A0002EF076FD31
:1028900020B9D4E9282352EA03010FD10A490022C2
:1028A0000023C1E9102395F8AC108DF80810684694
:1028B000CDE900230FF0FAFE05B030BD94F8AC105E
:1028C000F3E700BFE8380020602D002010B5014676
:1028D00004460E4841F070FF0D4B93F8D422782A3D
:1028E00012D1202283F8D422A37D0C2B0AD0208978
:1028F0004FF6F77398428CBF01200220BDE81040CC
:10290000FEF788BF1020F9E710BD00BFA03B0020F4
:10291000E838002030B40C4C94F8D55295B984F8BE
:10292000D2320123A4F8C402A4F8C612A4F8CA2221
:10293000A4F8C82284F8CC5284F8D53204F52F705C
:1029400030BCC3E730BC7047E838002010B441B158
:10295000C469B0F880206188A0885DF8044B0B231F
:10296000D8E75DF8044B70470023038010B5017869
:10297000154A63F30101017092F83340837064F3E8
:10298000850101704178C37041F002014170518F9F
:10299000818092F834104900FF2928BFFF218171FE
:1029A000917A0131C9B29172C17192F82E10022947
:1029B00004D192F85330003318BF0123427863F3F7
:1029C0004512427010BD00BF602D00202DE9F0417E
:1029D000C469184E05462046B76FFFF7C5FF237838
:1029E0004FF0010868F301032370637843F010038C
:1029F00063702EF0B7FCD0E90023E3603B8A63806C
:102A00006378A2606FF3C3036370042323746023AD
:102A10006374122384F8068085F830303B8AA5F869
:102A200080302B850222182385F8252086F8B930BE
:102A3000BDE8F081E83800202DE9F041C469214D5E
:102A400006462046AF6FFFF78FFF23784FF001084F
:102A500068F301032370637843F0100363702EF072
:102A600081FCD0E900236361B5F888306380637826
:102A7000226143F008036370D5F88030A360D5F875
:102A80008430E360042323764023637684F8068051
:102A9000FB7C002B14BFC023402363763A7D12B128
:102AA00043F020036376B5F8883033851A2386F81F
:102AB000303095F88A3086F83230162385F8B930F0
:102AC000BDE8F081E8380020F8B5284BD3F80C4277
:102AD00093F80832074604EB8313A34207D8244B2C
:102AE00043F243021A80BDE8F84042F0C5BD2678A3
:102AF000012E01D04034F0E7FD692846FFF734FF8E
:102B00002B78627D66F301032B706B7823F018033A
:102B100043F0180362F341036B70638A6B80A36810
:102B2000AB60E368EB60134B5B8FAB802EF01AFC5D
:102B3000D0E900236B610723AE712B76238AA5F8B9
:102B40001930237DEB76638A2A613B8563787C604C
:102B500013F0080F4FF01C0387F8303008BF05262C
:102B6000042387F832602370F8BD00BFE8380020E6
:102B70005C2F0020602D00202DE9F041C4691A4F20
:102B8000DFF8688005462046FFF7EEFE2378D7F889
:102B90008C21012666F3010323706378527B23F0B6
:102BA000180343F0100362F341036370D7F89031C8
:102BB0009B886380B8F83A30A3802EF0D3FBD0E92D
:102BC0000023A671E3600623237498F80830637429
:102BD000D7F89031A2609B882B85122385F832604C
:102BE00085F83030BDE8F081E8380020602D002005
:102BF0002DE9F04FC4697D4E85B007462046FFF7AA
:102C0000B3FE2378012565F301032370637843F055
:102C1000100363702EF0A6FBD0E90023E3606FF091
:102C20000303A3700333E37008232374637CA5714B
:102C3000002161F3C71363746D4BA260D3E910895F
:102C4000D6E93D02B6F878E24FF6F77A904273D3B0
:102C50001A2996F87A5200F28E80637C002D40F09B
:102C6000828023F0600343F06003637404F1600327
:102C70000193D6F8F4300093D6F8F8300393D6F8E1
:102C8000FC3002935A4BB6F8785296F87AC2D3E9E0
:102C9000102304F112099B469246AE464B464FF074
:102CA0000008009A002603998A42C0F0828026B369
:102CB000009AB5881D80B11A4E4AC9105143029A34
:102CC00002EBC1019A7888798979C0F3C20060F378
:102CD0000202C1F3020161F3061202F07702BCF1B5
:102CE000000F9A701CBFAE46E0465207019A18BF0B
:102CF000033301359A42ADB2D3D8B8F1000F02D0F8
:102D00003A4AA2F878E2A3EB09093B4B627C03FB49
:102D100009F363F304026274BCF1000F02D1334A79
:102D2000A2F878C203F01F0303EB4303123387F8C2
:102D3000303005B0BDE8F08F0378062B11D0457810
:102D4000022D0ED0D0E904BCE14508BFD84508D11A
:102D50008388534505D8012D03D19E459CBF013181
:102D6000C9B2283072E7002223F0600386F87A2285
:102D700043F0400379E71DB1637C23F0600374E7FF
:102D80001E4940F2131039F0BFFD96F87B32012B3B
:102D9000637C23F060031BBF43F02003637443F0A4
:102DA000600301230ABF637486F87A3286F87A5288
:102DB0005CE71178062914D05178022911D0D2E9A4
:102DC00004018B4508BF82450BD191884FF6F770FF
:102DD000814206D88D4204D82EB1B088884288BF7F
:102DE000164628325FE71646FBE700BFE8380020AA
:102DF000602D0020CDCCCCCCABAAAAAA633B00208E
:102E0000F8B5294BC469D3F8485493F844240646CE
:102E1000002393420BD12046FFF7A6FD2278012321
:102E200063F30102A371002322705B88FFDE2F7819
:102E3000012F03D001331835DBB2EAE72046FFF754
:102E400093FD2378A77167F3010323706B88638078
:102E5000637843F0100363702EF084FAD0E9002306
:102E600063616378226143F008036370AB68A36019
:102E7000EB68E3600C2323766B7863760B4B93F857
:102E80005320A37E510862F3000361F34103A3764C
:102E90001B2386F8303075600223AA742B70A37E42
:102EA0006FF3C703A376F8BDE8380020602D00203B
:102EB00070B5C46905462046FFF756FD2378012604
:102EC00066F301032370637843F0100363702EF000
:102ED00049FAD0E90023E3604FF0FF33A370E370B9
:102EE0006378A2606FF3C30363700C4B1A6CC4F871
:102EF00012205A6C1B7CA3760A232374084BC4F857
:102F00001620B3F86A23A4F81B201D22667485F8E6
:102F10003020852283F8682370BD00BF602D00201B
:102F2000E838002010B5204C94F8E832A32B33D1B8
:102F3000D4F8EC3200221A732278D2075CBFC22286
:102F40001A731A79AAB1C1221A73A52384F8E83238
:102F5000164841F055FC83680C309847D4F8EC32A1
:102F6000EBB1A32384F8E8320120BDE81040FEF75E
:102F7000F9BA1B7B002BE8D10D4B0E489A8F1B88AA
:102F8000A4F800334FF4D273A4F8FA22A4F8E8327C
:102F9000BDE8104031F0FABFA52BD9D010BD3123C8
:102FA00084F8E832FAE700BFE8380020D43B00207C
:102FB000602D0020D83B002010B5144B93F8003151
:102FC0009A4294BF9B1ADB1ADBB299421CD2104B77
:102FD0005C7C60B1A10708D493F84800904294BF8C
:102FE0000020012080F0010010BD0020FAE7E20778
:102FF00005D493F84900884294BF0020012080F056
:10300000010000F00100EFE70120EDE7E8380020C3
:10301000602D0020054B1A78D20705D5022283F8CF
:103020007C220020FEF7F6BBFEF7DCB8E838002073
:1030300008480378DB0705D5022380F87C3200209E
:10304000FEF7E8BB012380F87C3200F519703DF0F3
:103050008BBA00BFE838002010B5194B93F8003147
:10306000994294BF5B1ADB1ADBB29842154B06D328
:1030700093F8202002F07B0283F8202010BD5C7CB6
:10308000A20718D493F848208A4294BF0021012156
:1030900093F8202061F3820283F82020E2070CD409
:1030A00093F84920824294BF0020012093F8202009
:1030B00060F3C712E0E70021EAE70020F6E700BF6F
:1030C000E8380020602D00200C4A10B4D2E93D34CD
:1030D000002108461A78062A0AD002F0FB02012ACB
:1030E00006D15A78022A0BBF01300131C0B2C9B2F1
:1030F00028339C42EED85DF8044BADE7E838002059
:10310000124B002293F832109A77DA7F61F30302B0
:1031100093F8331061F30712DA7793F82020597A85
:1031200002F0FC0261F3C60283F820201A6CC3F897
:1031300021205A6CC3F82520FF2283F8292002F5AC
:103140007F425A851A7C83F82C20BDE7602D002031
:10315000F8B5454DD5F87441064604F108072CB979
:10316000424B43F2AE021A8042F098FA04F1240373
:103170009E4205D03D4B43F2AF021A8042F08EFAD8
:1031800033784BB184F84C30582385F878310920D6
:10319000BDE8F840FEF7E6B995F87831593B072BC2
:1031A00059D8DFE803F0041B353B585844156F230A
:1031B000237404F11801062039F0A6FB602385F87A
:1031C00078312B4B23623846BDE8F84031F0D8BE49
:1031D000462323740F2323765A23F0E7254E00233A
:1031E00006F140013320737239F08EFBD6E91023CB
:1031F000134305D12EF0B6F8D0E90023C6E9102319
:10320000FFF77EFF452323741B4BA3615B23D6E7A7
:1032100052232374012323765C23D0E78323237472
:1032200004F11801082039F06FFB5F23C7E7114B49
:103230009A8F228293F83820A27493F83730E3747F
:103240000123A3820D4BA361384631F09CFE5D2320
:1032500085F87831F8BD054B43F2B0021A80BDE81D
:10326000F84042F009BA00BFE83800205C2F002087
:1032700051310001602D00207E2D0020551A0001E3
:1032800073B52A4C00250DF1070140F207108DF8A7
:10329000075039F039FB9DF8073084F8343004F1D9
:1032A00048014FF4837039F02FFB0DF1070140F214
:1032B000051039F029FB94F848209DF807309A4210
:1032C00039BF9B1A84F8493084F8483084F8495053
:1032D0000226FFF7F9FE0DF1070119208DF80760AE
:1032E00039F012FB9DF8073084F82F3094F82E3017
:1032F0000F499B1B18BF0123222084F8533039F05B
:1033000003FB0C4B43F6095093F832502EF044F86F
:1033100006FB05054FF400602EF03EF805EB50006B
:1033200094F834504543E56002B070BD602D002034
:10333000B42D0020982C002038B51A4C2378DB06D9
:103340002AD5194DD4F8F43318221B7C84F8F023C5
:1033500005F13C0117202B7239F0D6FA05F138013E
:10336000162039F0D1FAFFF78BFFFFF7C9FE0F4B9C
:10337000C4F81034452384F8003404F57E7005F158
:103380001E03C4F8083431F0FBFD95F838102420F2
:10339000BDE838403CF070BFC220BDE83840FFF7C0
:1033A00001B800BFE8380020602D00200124000192
:1033B0002DE9F04F724A90F8863090F88280C46907
:1033C00002EB031385B093F83C308DF80B3008F115
:1033D000FF3305460F460192092B14D8DFE803F0AE
:1033E000B1130513133434131334E1290BD000291E
:1033F0006288ADF80C200CBF1323092303A88DF8B5
:103400000E300FF085F95F4B93F82E20022A07D07B
:103410006278D10740F1A380227A920700F0A5805C
:1034200095F88630019A02EB03139B6B13B1394672
:10343000284698479DF80B301BB1A5F18000FEF798
:1034400063FD05B0BDE8F08FB4F802B061781FFAF3
:103450008BF601F001013046FDF7D0FA0346002853
:1034600047D04279BFB9FF2A12D1474AD2F8A832D1
:10347000B2F8AC22C2EBC2021A441979C90741BFA3
:10348000597949080131597107339342F5D3BAE7A5
:1034900001324271B7E752B13B4991F8AE1242FA9C
:1034A00001F111F0FF0108BF0121521A42715A794E
:1034B0001979003218BF012262F300011971314AF3
:1034C000B4F804A0528F1FFA8AF082429BD022786F
:1034D000920798D113B11B79DB0794D4B8F1060F8A
:1034E000B5F8809008D100234A463146FFF712FA1A
:1034F00089E7002F87D0E2E7234E96F8D582B8F10E
:10350000000F80D103462A8D49464046FDF726FB31
:1035100000283FF478AF0C2386F8D2328388A6F8CF
:10352000C8320123A6F8C4B2A6F8C6A2A6F8CA9269
:1035300086F8CC8286F8D53206F52F70FFF7C6F9EB
:1035400061E7B0F880206188A0880023FFF7E2F9E6
:103550006178608801F00101FDF76CFA53E761883A
:103560004FF6F77291423FF65BAF5A8801325A80AC
:10357000002F3FF455AF9A8801329A8050E700BF80
:10358000ECAA0301602D0020E838002008B550F8AF
:103590000C3C40F8503C037900F83C3C0378A3B95C
:1035A000114B9A8F30F84C3C9A4204D16438BDE8F4
:1035B000084031F0EEBCA0F16C010C4841F0FCF881
:1035C0000320BDE80840FDF7CDBF022B08D009D38A
:1035D000042B8CBFC321CE216C38BDE80840E7E640
:1035E000CC21F9E7C321F7E7602D00202C3900201A
:1035F00017B441688A79013AD3B28B71027812F01C
:10360000010202D01A1C18BF0122037862F30003E2
:103610000370DBB2DA0748D5C269A2B3182262F39D
:10362000C7030370037A8DF8003003780191C3F368
:10363000C4038DF80130C38CADF80230019B5A7879
:103640006FF345125A709DF8013080F886309DF86E
:10365000003080F83030019B90F88720C361BDF8BE
:103660000230A0F88030002363F34102436480F805
:103670004030C0E91233838780F8872003B05DF8BB
:10368000044BFEF7A5B80A7802F00302012AC9D15B
:10369000026A1478052C01D11922C0E7032CC1D18C
:1036A00052780C2ABED11A22B9E7803803B05DF8EF
:1036B000044BFEF729BC10F8743CDB0701D57438C5
:1036C00096E7F438FEF720BCD0B5134C134AD4F873
:1036D000B83392F8381083F82A10D2E91067528F65
:1036E0001A8583F82B00C3E908675A6903F12000A3
:1036F00090470023C4F8B833D4F8B4333BB1672300
:1037000084F8B0331220BDE8D040FDF72BBF66230C
:1037100084F8B033D0BD00BFE8380020602D002011
:103720000F4B0079D3F8B823127B062A00D1CBE7E0
:10373000042A10D178B96A2283F8B023094AC3F861
:10374000D823452283F8C823074AC3F8D02303F5BA
:10375000707031F015BCEA2808BFCA20E7E700BF47
:10376000E83800206D3700017E2D002002780AB174
:103770001046A9E74378462B30D002D8452B22D0FB
:103780007047522B33D06F2B43D12248692180F8E8
:10379000B013032180F8DC13D0F8B8130B6BC0F81A
:1037A000D43391F8341080F8DD131B4980F8DF23FF
:1037B00091F83710194A80F8DE13C0F8D82300F5C5
:1037C000707031F0DABB1348462380F8C8330F23FA
:1037D00080F8D03300F5707031F0D2BB0D48522321
:1037E00080F8C8330C4B1B7AC3F3C003F0E70A4BD5
:1037F00008481B7A13F0080F14BF6FF07F430023B3
:10380000C0F8C833064BC0F8CC3300F5707031F007
:10381000B1BB7047E8380020602D0020213700013F
:1038200025380001007868B907486B2380F8B03369
:10383000064BC0F8CC33532380F8C83300F57070C2
:1038400031F055BB40E700BFE83800205138000197
:1038500038B505781DB12846BDE8384034E74478CE
:10386000502C16D0532C07D04B2C1DD11B4B02894A
:103870001A801B48502304E0184B028918485A87C5
:103880004B2380F8C83300F57070BDE8384031F044
:103890002EBB1249038921F83C3F172039F060F80C
:1038A0000F4880F8C853EEE7B4B90C4D037A2946A7
:1038B000162001F8383F39F053F8FFF721FC084B88
:1038C0002046BD221A70FFF7FFFE95F8381024201D
:1038D000BDE838403CF0D0BC38BD00BF602D0020B2
:1038E000E8380020F0B5537D122B87B00D46144602
:1038F0001ED81669177D7078BA1C81B23B44DBB2C2
:1039000002EB4102934213D10023AA888DF80700ED
:103910008DF80430ADF8052002A89AB28A420AD385
:1039200001A93E203CF0A8FC2169A888FCF792FF81
:10393000002007B0F0BD06EB43070133BA78FF78EB
:1039400042EA072220F8022BE7E72DE9F047C46995
:10395000214DDFF88880AF6F06462046FFF704F858
:1039600023784FF0010A6AF301032370637843F070
:10397000100363702DF0F6FCD0E90023E3606FF0D4
:103980000203A3700233E370A260E179B8F83A0051
:10399000FDF7AAFA637884F806A04FF0000969F3EE
:1039A000C30363700423237484F8119098F82E30B5
:1039B000022B03D0FB7C0BB1802363743B7D1BB1D6
:1039C000637C43F020036374122386F830301323A2
:1039D00085F8B930BDE8F087E8380020602D002078
:1039E0002DE9704316460C46FDF74EF8144B93F83C
:1039F0002024824203D800233360012017E0D3F84B
:103A0000243400B2C0EBC00003EB800010F1140FAF
:103A10004FF000033360F0D0D4E900894369D3E963
:103A20000045A94508BFA04503D133600020BDE88B
:103A30007083826910339A42F1D80220F7E700BF01
:103A4000E838002030B58BB043680593044690F801
:103A500024308DF8183005A83BF070FF0799002935
:103A600051D0089B002B4ED094F824200244207A99
:103A7000824248DC1A680D685B68CDE902236B1C42
:103A800033D001AA02A99DF81900FFF7A9FF012868
:103A90002BD0019B13B19B689D4226D99DF819003C
:103AA000FDF70CF8206470B31A4B93F84B3084F890
:103AB0004430089B1A685B68C4E90C2304F13003A6
:103AC000A3646368E36494F8243084F85030237A64
:103AD00084F85130104B6365002384F8523004F1B0
:103AE00038003BF01FFF0BB030BD9DF81900FCF70C
:103AF000E5FFE38CADF8043050B9162301A88DF82A
:103B000006300EF005FEA4F18000FEF7FDF9EAE7AD
:103B10001123F3E7602D00200B9700010D4B37B503
:103B20000D4CD3F82C2494F85350052183F8281415
:103B3000FE2313741620FDF715FDAB0708D5638F20
:103B4000ADF8043001A809238DF806300EF0E0FD31
:103B500003B030BDE8380020602D002037B50546A1
:103B6000214C38B194F85231442B03D104F59A73A7
:103B7000984205D01D4B43F282121A8041F08EFD0F
:103B80002D78AA2384F852314DBB194AB4F8283154
:103B90005387ADF8043001A810238DF806300EF0DD
:103BA000B7FD94F85331D3B10D2384F82E314FF67D
:103BB000FD73A4F820310233A4F82431B4F8503155
:103BC000A4F822310B4BC4F81C310B4884F828515F
:103BD000462384F85231FEF779FE03B030BD02204F
:103BE000FDF7C0FCF9E700BFE83800205C2F00209B
:103BF000602D00200D4F0001003A0020F8B53B4D2C
:103C000095F87831D5F87441572B064605D0384BD6
:103C100043F2A8021A8041F041FD2CB9344B43F223
:103C2000A9021A8041F03AFD04F110039E4205D02A
:103C30002F4B43F2AA021A8041F030FD3379002B5A
:103C400043D13168E2698A4307D1294B43F2BA0272
:103C50001A80BDE8F84041F00FBDB768F679202022
:103C600001219E420DD9114207D017F803C001333C
:103C7000BCF1CC0F88BF8A43DBB201384FEA410167
:103C8000EFD1012384F8243094F84D3084F82530A6
:103C9000184BE26193F8373084F8263004F127019D
:103CA0004FF4827038F030FE04F1180140F2022027
:103CB00038F010FE04F108060F4B2362304631F055
:103CC0005CF9562385F87831F8BDFA2B03D1084BFF
:103CD00043F2BB02BCE784F84C30582385F87831B6
:103CE0000920BDE8F840FDF73DBC00BFE8380020E2
:103CF0005C2F0020602D0020FD3C00012DE9F04FDD
:103D00008A4F97F87831D7F8744185B0562B06461C
:103D1000009705D0864B43F2AB021A8041F0BEFCFF
:103D20002CB9834B43F2AC021A8041F0B7FC04F18A
:103D300010039E4205D07E4B43F2AD021A8041F043
:103D4000ADFC337923B103F0EF02EA2A40F0E380BF
:103D50003268E3699343019300F0DC80D6F8089061
:103D600096F807C04D4600204FF6FF7E84450DD1E2
:103D7000FF25A846AA4600234FF0010C019A12EA3B
:103D80000C0F40D00021CE460A4631E0B5F8048041
:103D9000421CF045D2B202D118351046E6E702EBDC
:103DA000420395F810A009EBC30311468C45F3D0EC
:103DB000884209D0B3F804B0C34505D193F810B0D8
:103DC000D34508BFA3F804E00131C9B21833EDE7C9
:103DD0009EF810B09B4507D1BEF804B04FF6FF77B0
:103DE000BB451CBF0132D2B20131C9B20EF1180E6F
:103DF0008142EDD11AB91CF4C30F63D198465245E4
:103E00003CBF92461D460133DBB2202B4FEA4C0CDF
:103E1000B4D1B8F1FF0F57D1FF2D05D1444B43F278
:103E2000B8021A8041F028FCDFF80CB100238BF8AF
:103E300038500DF10D011820D6F8089096F807A01B
:103E40008DF80D3038F060FD9DF80D805E46B8F1BC
:103E5000000F40D143F0DEF880B20AF1010BADF85B
:103E60000E0043464FF6FF71884204BF4FF0010831
:103E70000020CC46002292450BD09CF810E0AE45C5
:103E800024D1BCF804E0864520D1013080B24FF047
:103E9000010801339BB29B45E6D8B8F1000F01D071
:103EA000ADF80E00BDF80E30B3874FF6FF729342A7
:103EB00017D11F4B43F2B9021A8041F0DDFB05B068
:103EC000BDE8F08F1D46AFE74546ADE70132D2B2FF
:103ED0000CF1180CCFE70DF10E01172038F014FD8E
:103EE000E0E794F8453004F108000BB1B4F846302F
:103EF000738723830F4B2362009A53232374592320
:103F000082F8783131F03CF896F8381024203CF0F3
:103F1000B3F9D4E7C423009A84F84C30582382F8CC
:103F200078310920FDF71EFBC9E700BFE838002003
:103F30005C2F002051310001602D0020014B588F73
:103F4000704700BF602D002070B50B4C94F83050C6
:103F50000E467DB9532323762084084BA36204F1D7
:103F6000100031F00DF8012384F8303084F831600E
:103F7000284670BDC320FCE700080120AD1D0001EC
:103F8000014B93F831007047602D002008B5FCF715
:103F90003FFA18B103786FF30003037008BD08B54A
:103FA0000146044840F008FC1120BDE80840FDF738
:103FB000D9BA00BFC03B002008B5014638B9104B44
:103FC00043F2D0021A80BDE8084041F055BB0D48CD
:103FD00040F0F2FB0C4A92F83C30D62B07D170230C
:103FE00082F83C300820BDE80840FDF7BBBA703BC2
:103FF000022B03D9024B43F2D102E3E708BD00BF15
:104000005C2F002020390020E838002070B5474C94
:1040100094F80032212B254640F0838004F5C470CB
:1040200040F0EEFBA0F10803C4F88C31404B027C59
:104030001A72FFF725F92378DB0629D5D4F88C31DD
:104040001A7B023A012A23D8322284F800222270F5
:1040500093F8342084F8FD211A6BC4F8F42100226F
:10406000C4F8F02184F8EE219B7B324AC4F8F82191
:10407000012284F8FC212BB104F5E470BDE8704006
:10408000FFF79ABF84F8EC31BDE87040FDF7F6BE4B
:10409000D5F88C31C22283F82B20222385F80032F8
:1040A000234CD5F88C11638F0B85D1E90023C1E92E
:1040B000082391F82B6094F8383081F82A30F6B94B
:1040C000D5F89031D3E9042304F13C011720C4E969
:1040D000102338F045FC04F13801162038F040FC7C
:1040E000FFF70EF8BD232B70637AD5F89021C3EB50
:1040F000C303DBB2928831463046FCF7A4FCD5F806
:104100008C014369203098470023C5F89031D5F8D9
:1041100088314BB10A20FDF725FA212385F80032BA
:1041200001E0222BBCD070BDDA23F7E7E83800208D
:10413000602D0020B11E000108B5014638B9104BB2
:104140004FF442521A80BDE8084041F095BA0D483C
:1041500040F032FB0C4A92F8C430132B07D1E7230E
:1041600082F8C4300D20BDE80840FDF7FBB91933D3
:10417000DBB2022B03D9024B43F28A02E2E708BD0D
:104180005C2F0020A8390020E838002008B501463F
:1041900038B9104B43F2A0021A80BDE8084041F044
:1041A0006BBA0D4840F008FB0C4A92F87831B72BF7
:1041B00007D1542382F878310920BDE80840FDF783
:1041C000D1B9543B0C2B03D9024B43F2BC02E3E7B9
:1041D00008BD00BF5C2F00205C3A0020E8380020BA
:1041E0004B1EDBB2FD2B10B507D90D4B43F2A0429D
:1041F0001A8041F041FA00200DE00A4AD2F8183442
:10420000D2F81C241C783CB9588019700146112042
:104210003CF032F8012010BD04339A42F2D8EAE7AC
:104220005C2F0020E83800202DE9F04107460E46BB
:1042300041B9124B43F2A1421A8041F01DFA3046B7
:10424000BDE8F0810E4D0020D5F818448046237853
:104250006BB16288BA420AD1FF2E01D0B34206D1B7
:10426000112084F8008039463CF006F80120D5F88A
:104270001C340434A342EAD8E2E700BF5C2F0020DC
:10428000E8380020F7B5064640B9104B43F2A34288
:104290001A8041F0F1F9304603B0F0BD0C4D00201A
:1042A000D5F818440746FF2E02D02378B34207D131
:1042B00023680193122001A93BF0DEFF2770012043
:1042C000D5F81C340434A342EDD8E5E75C2F002078
:1042D000E838002038B50C4639B90E4B43F2A242FB
:1042E0001A8041F0C9F9002038BD0B4AD2F81834C1
:1042F000D2F81C141A7832B15D88854203D1FF2CA4
:1043000005D0A24203D004339942F3D8EBE7012051
:10431000EAE700BF5C2F0020E8380020064AD2F808
:104320001834D2F81C240020197809B90130C0B221
:1043300004339A42F8D87047E8380020084B30B16F
:104340000430D3F81C34984204D300207047D3F8CB
:104350001804F6E70278002AF8D10430F3E700BF2A
:10436000E838002013B50D4C0DF1070140F215108F
:1043700038F0CAFA214640F21120A4F5836438F0DF
:10438000A9FA9DF80720D4F8180492008318C4F8FD
:104390001C34002142F0F0FE02B010BD003D0020B0
:1043A000014B83F853007047602D0020014B83F8C8
:1043B00054007047602D0020014B93F85300704764
:1043C000602D0020014B83F853007047602D0020C2
:1043D000014B93F854007047602D0020014B188862
:1043E000704700BF602D0020014B988F704700BFC1
:1043F000602D0020014B9887704700BF602D002082
:10440000014BD3E910017047602D0020D0E9000175
:10441000014BC3E910017047602D0020014B93F858
:104420002E007047602D0020014B93F83800704734
:10443000602D0020034B014683F8380024203BF018
:104440001BBF00BF602D0020014BD868704700BF24
:10445000602D0020014BD888704700BF602D0020E0
:10446000014BD880704700BF602D002008B5054B78
:104470000146187422203BF0FFFEBDE80840FEF71D
:104480003FBE00BF602D002073B50578114CC5B943
:10449000114EB4F83A33B387FCF7F0FD06F13C0156
:1044A000172038F05DFA94F83C03FFF7DFFFFEF7C2
:1044B00027FE0F2301A8ADF804508DF806300EF04A
:1044C00027F9922384F83833D4F8403303B198475E
:1044D00002B070BDE8380020602D002038B50379A7
:1044E0001F4C05468BB103F0EF03EA2B0DD01D4B9B
:1044F000187C0130C0B2FFF7B9FF842384F8683319
:104500000920BDE83840FDF785B9EA79B4F86C3385
:104510009B1A9BB2A4F86C336BB142F07BFDB4F8EC
:104520006C2380B2B0FBF2F302FB1303B4F86A030E
:104530000344A4F86A330023EA799A42D7D9AA68D7
:10454000B4F86A0303EB430102EBC1020133928822
:10455000824204BF0132A4F86A23DBB2ECE700BF59
:10456000E8380020602D0020014B187C704700BF08
:10457000602D0020014B83F830007047602D002033
:10458000014B93F833007047602D0020014B588891
:10459000704700BF602D0020014B9888704700BF16
:1045A000602D0020024B00225A809A80704700BF85
:1045B000602D0020014B9874704700BF602D0020D3
:1045C000084B1B7CC21A002AB8BF5242C72A04DC1F
:1045D000984294BF00200120704798428CBF002071
:1045E00001207047602D00200A4B1B7C98420FD0A1
:1045F000C21A002AB8BF5242C72A04DC984294BFAC
:1046000000200120704798428CBF00200120704795
:1046100001207047602D0020324B2DE9F047D3F880
:10462000F440314D06460F4690464FF000099A4639
:104630002378062B43D06378022B40D056EA070339
:1046400009D0D4E90423BB4208BFB24237D1607E0F
:10465000FFF7CAFF98B3A37EB8F1000F37D013F06D
:10466000040F2CD0B9F1000F39D0DAF8F430DAF8B1
:10467000FC10E21AA9EB0303D210DB106A436B4370
:1046800001EBC20201EBC30312791979637E511A5F
:1046900099F8192093420AD0981A0028B8BF4042CE
:1046A000C72817DC93428CBF002301233BB9193183
:1046B00005DB42F0AFFC10F0080F08BFA146DAF8A6
:1046C000F83028349C42B3D34846BDE8F08713F055
:1046D000020FC6E7934294BF00230123E6E7A146F9
:1046E000EDE700BFE8380020CDCCCCCC10B5154CA0
:1046F000D4F88C310122D3E90001FFF78DFFC4F813
:104700009001A8B1002384F801320F4AC38893872F
:10471000A4F8D83150220D4BC4F8E03104F5E47010
:1047200084F8D02130F02CFC292384F8003210BD0D
:10473000D4F88C31C32283F82B200A20FCF712FF17
:104740002223F2E7E8380020602D0020E551000127
:1047500010B50F4C99B9D4F89C3103F51173C4F816
:104760009C310C4BC4F8A43104F5CA70012384F8C1
:10477000A0313BF0F9FE2D2384F8003210BDD4F8AF
:1047800090319A7E6FF382029A76BDE81040ADE7D1
:10479000E8380020994700010D4A0E48127AD0F8F7
:1047A000903112070FD4022280F8B021DA889B885A
:1047B000A0F8B831084BA0F8B221C0F8C03100F51C
:1047C000D47030F0E3BB9A7E6FF382029A768DE765
:1047D000602D0020E83800200D80000186E70B4A9C
:1047E00092F801320133DBB2022B82F8013206D992
:1047F000D2F890319A7E6FF382029A7676E7282378
:1048000082F800320320FDF705B800BFE838002029
:1048100010B50278174CD4F88C3142B183F82B20B4
:104820000A20FCF79FFE222384F8003210BD197B7A
:10483000032915D1104B1B7A13F0080304D1C4F8D7
:104840009C31BDE81040CAE7812384F8D03104F5DB
:10485000E4700A4BC4F8D43130F049FB2B23E3E772
:1048600083F82B20222384F800320A20BDE8104070
:10487000FCF778BEE8380020602D00208148000158
:10488000037810B5094C2BB98368C4F89C31BDE896
:104890001040A4E7D4F88C210A2082F82B30FCF7D2
:1048A00061FE222384F8003210BD00BFE8380020EA
:1048B000F8B58B79012B0F46164650D18C68CD6820
:1048C0002CF050FDD0E900239D4208BF944246D110
:1048D000354D95F80032A3F12C02012A2C4649D817
:1048E00005F5CA703BF06AFEB7F819104FF6FF7372
:1048F0008B4236D0FB7E002B33D1D5E963022B4DA2
:1049000080F82B30698791882980D17885F8381014
:104910001370137E507E0133DBB20F2B28BF0F23A1
:104920006B72FFF7A3FD73682BB11968D4F890215F
:104930005B68C2E90213532384F8D0316B8FA4F86B
:10494000D8311B4BC4F8E0311A4830F019FB2E2344
:1049500084F8003295F8381024203BF08DFC0120BB
:10496000F8BDD4F890319A7E6FF382029A76FFF701
:10497000BDFEF4E7DA2BF2D10C4A92F82E30022B6E
:10498000EDD1B7F819305387A5F8D8315322084B29
:10499000C5F8E03185F8D02105F5E47030F0F0FA83
:1049A000312385F80032DAE7E8380020602D002056
:1049B000E5510001B03A002010B51D4CD4F88C31FF
:1049C0000022D3E90001FFF727FEC4F8900108B3E5
:1049D000002384F80132174B93F8372084F8D12153
:1049E000C27884F8D02102221B7A84F8D221C288AE
:1049F000A4F8D421828884F8E03104F5E4700E4BE9
:104A0000C4F8E431A4F8D82130F068FA232384F8FC
:104A1000003210BDD4F88C31CA2283F82B20222317
:104A200084F800320A20BDE81040FCF79BBD00BFAF
:104A3000E8380020602D002001610001034B0022B6
:104A40009A709A80DA801A81704700BF00080120AE
:104A500010B5FFF7F3FF3BF0CDFD054C6063383434
:104A600020463BF0ABFD2046BDE810403BF07CBD4E
:104A70000008012010F0FB0F03D1074B01221A752B
:104A80007047052801D00E2804D1034B00221A7567
:104A9000FFF7DEBF704700BF4C1C01200048704785
:104AA00002080120044B054A1A64012283F84420BD
:104AB000034A9A64704700BF00080120A075E9000E
:104AC000514A000108B53BF095FD064B5B6BC01ADF
:104AD000054B984297BF4EF66023FF20B0FBF3F0E2
:104AE000C0B208BD000801209F75E900037B03F0F8
:104AF000FD02042A10B5014603D1BDE81040FDF7C0
:104B00003DB9012B01F10801104C0FD104F57D7066
:104B10003FF052FE94F8F033162B15D1172384F88A
:104B2000F0331320BDE81040FCF71CBD04F5C47041
:104B30003FF042FE94F80032DA2B05D10A20FCF750
:104B400011FD212384F8003210BD00BFE838002099
:104B500008B5014608483FF02FFE084B93F8B920EE
:104B6000E62A07D1112283F8B9200C20BDE80840BD
:104B7000FCF7F8BC08BD00BF60390020E838002011
:104B800038B5174B174993F8B8501C4635BB022A65
:104B90001BD1A3F8A800012384F8AD300022002324
:104BA000C4E9282391F8203284F8AA30002384F83D
:104BB000AB3001250C4B84F8AC50C4F8B0300B4836
:104BC000FFF7C6FF84F8B85008E0032AE6D10020BA
:104BD0000021C3E92801012283F8AD2038BD00BFC0
:104BE000E8380020ECAA0301752800018039002074
:104BF00010B50E4C94F8B830B3B900220023C4E9C4
:104C000028230B4B84F8AC0093F8203284F8AA30A8
:104C100004F19800074BC4F8B03084F8AB10FFF7EC
:104C200097FF012384F8B83010BD00BFE83800209A
:104C3000ECAA03017528000110B4094C094AD4F804
:104C4000F430C31ADB105A43D4F8FC305DF8044B3F
:104C500003EBC2039A7961F302029A71FCF728B858
:104C6000E8380020CDCCCCCC10B5074C94F87C3281
:104C7000022B08D0FCF752FA012384F87C32BDE8FD
:104C80001040FEF7C7B910BDE838002008B501464E
:104C900008483FF091FD084B93F870218E2A07D108
:104CA0008F2283F870210F20BDE80840FCF75ABC22
:104CB00008BD00BF543A0020E83800204FF6FF73CB
:104CC00098420D4A1ABF013080B20020B2F8AC12EF
:104CD000D2F8A822C0EBC0031344814202D84FF699
:104CE000FF7070471A7902F00502052A03F10703E5
:104CF000F7D0013080B2F0E7E8380020034BC0EB7A
:104D0000C000D3F8A832185A704700BFE838002016
:104D1000034BD3F8A832C0EBC00003445888704757
:104D2000E838002001460A203BF03ABA01460A2042
:104D30003BF070BA0C4B30B12830D3F8F8209042D9
:104D400004D300207047D3F8F400F6E7037803F0AB
:104D5000FB03012B05D14378022B02D183888B42C0
:104D6000F0D12830EBE700BFE838002010B50B4A3F
:104D70000B49D2F8F430898FD2F8F8201C78062C31
:104D800005D09C88844202D1DC888C4203D0283331
:104D90009A42F3D80023184610BD00BFE83800201F
:104DA000602D00202DE9F041254A264FD2E93A3501
:104DB000EB1A92F80051013505EB23150E46ADB202
:104DC00004464FF6F678631E9BB2434588BF012424
:104DD0007B8FA34214D02046FBF732FB20BB20463A
:104DE000FFF7C4FF38B1D0E90201D6E900239942A8
:104DF00008BF904209D12046BDE8F0811D46E2E798
:104E000030462CF0BBFA0028E5D101346B1EA4B269
:104E10009BB2002DF2D10C4B43F206021A804FF6E2
:104E2000FF7440F029FCE6E703789B07EDD4D0E956
:104E30000201D6E90023994208BF9042E5D1CEE7AE
:104E4000E8380020602D00205C2F002010B586B0CF
:104E5000CDE900232023ADF80C300DF10A03ADF8A5
:104E60000A0004930446002303A91E2005933BF087
:104E700003FA059B43B1BDF80A006946FFF792FFAC
:104E80000446204606B010BD0C4B93F83120002A92
:104E9000F7D193F82F30022B09D14FF6F7739C42CC
:104EA00002D942F0B7F884B269462046E6E7032B00
:104EB0000CBFBDF800404FF6FF74E2E7602D002004
:104EC00038B501220546D0E90201FBF7BBFF0446D5
:104ED000D8B10023AA7E0375437862F3C3034370FD
:104EE000AB884382D5E902234FF6FE70FFF7AEFF91
:104EF000D5E90223C4E902230123208263752370CC
:104F00000420BDE83840FCF785BC38BD10B5164C10
:104F100038B194F85231462B03D104F22D13984244
:104F200005D0124B43F283121A8040F0B7FB104BAE
:104F300093F82E30022B0ED0B4F85001FBF78EFB05
:104F400048B1827E6FF3C3028276FFF7B9FF472331
:104F500084F8523110BDAA2384F852310220BDE8F2
:104F60001040FCF7FFBA00BFE83800205C2F00209B
:104F7000602D0020F7B54B4C227812F0400F0F4601
:104F8000254609D094F85221AA2A07D0B4F8502116
:104F9000824201D184F8531103B0F0BD424E84F82F
:104FA0005311718FA4F85001814296F82E204ED1F2
:104FB000002AF1D0022A03D096F82F30022B25D0F8
:104FC000D6E91023C5E946230323A5F824310DF1C2
:104FD0000701292037F098FC9DF8072001230AB12A
:104FE00085F8253196F8382085F826319340C5F8A4
:104FF0004831082385F84C312C4BC5F82C3145231A
:1050000085F852312A48FFF771FDC5E7012AC3D15F
:105010004FF6FE742CF0A6F9D0E900232046FFF7E6
:1050200015FF738F8342F5D04FF6F7739842B3D8CC
:10503000532385F820311F4BC5F830314423A5F8A0
:10504000280185F852311A482FF09AFFA4E7022A66
:10505000A2D0CFB10D22184B84F82E21C4F81C31F8
:105060004FF6FD720023A4F8202184F82831023283
:105070004623A4F82201A4F8242184F8523104F52F
:105080008C70FDF723FC87E7FBF7E8FA002883D054
:10509000472284F85221827E67F3C3028276FFF7AB
:1050A0000FFF79E7E8380020602D0020F915000196
:1050B000003A00205D3B00010D4F0001014B002133
:1050C000588F57E7602D002030B5274B1B78DB0742
:1050D00087B008D5537D042B05D1146965780B2D55
:1050E00016D003D85DB1012007B030BD0C2D25D0FE
:1050F0000D2DF8D100216088FFF73CFFF3E76088B1
:105100004FF6F7739842EED82946FBF793FCEAE78F
:1051100001238DF804306388ADF805308B88ADF835
:1051200007303E2001A93BF0A7F86088FBF77CFB25
:105130000028D8D04FF6FF730380D4E702238DF800
:1051400004308B88ADF8053001A93E203BF094F87F
:10515000A378E2788DF8025043EA02236846ADF85E
:1051600000300DF0D5FABEE7E838002010B51C4C31
:1051700094F85231AA2B14D1D4E93D32197806297A
:1051800002D0997E090722D428339342F6D3D4E97A
:105190003A311A7802F00302032A03D010338B420B
:1051A000F7D310BD5A88A4F850211A786FF3410242
:1051B0001A700121B4F85001FFF7DCFE94F8523167
:1051C000AA2BEED10220BDE81040FCF7CBB99A889B
:1051D000A4F850219A7E6FF3C3029A76E9E700BFE4
:1051E000E8380020037873B5624C53B1D4F88C21B1
:1051F0000A2082F82B30FCF7B5F9222384F800321C
:105200003AE094F80032243B112B35D8DFE803F064
:105210004E566A343439463434347C86919D343663
:105220005F09D4F88C311B7B032B23D1524D95F8A9
:1052300031307BB96A8F4FF6F7739A4202D941F049
:10524000E9FE68876E8F2CF08DF801463046FFF737
:10525000A9FD6887532384F8D0316B8FA4F8D83127
:10526000332384F800324548454BC4F8E0312FF031
:1052700087FE01E0FFF7A0FB02B070BDFFF736FA32
:10528000FAE7D4F890313C4ADB7882F838300022D3
:1052900084F8D83184F8D0212A23E2E7452384F822
:1052A000D031384BC4F8D8312423DAE7462384F8C8
:1052B000D0310F2384F8D8312523D2E78323324914
:1052C00084F8D031082037F01FFB3423C9E752237C
:1052D00084F8D031284B1B7AC3F3C00384F8D8314B
:1052E0002623BEE7244B25481B7A13F0080F14BF72
:1052F0006FF07F430023C4F8D031244BC4F8D4317D
:105300002FF038FE272379E74B2384F8D031D4F8E7
:1053100090319B88A4F8D8312F23A2E74A2384F840
:10532000D031D4F89031D3E90223C4E97623302375
:1053300097E7D4F88C31002283F82B200A2022230F
:1053400084F80032FCF70EF996E70B4B5B8FADF853
:10535000043001A810238DF806300DF0D9F9D4F8E7
:10536000883123B10A20FCF7FDF8212346E7DA2330
:1053700044E700BFE8380020602D0020B03A00204C
:10538000E55100017E2D0020C03A002011480001A7
:105390000C4B5B8F834210B5044603D1BDE810402F
:1053A0002BF0E0BFFFF7E2FC28B1D0E90223134362
:1053B00001D0083004E02046FBF742F80028F8D17D
:1053C00010BD00BF602D0020F8B5C4691B4D064616
:1053D0002046D5F82C74FDF7C7FA2278012363F331
:1053E0000102A371164B22701B886380637843F01F
:1053F000100363702BF0B6FFD0E90023636163787C
:10540000226143F0080363706088FFF7C1FFD0E9B1
:105410000023E3600B2323763B796376A260A37EAF
:105420007A7962F300036FF34703A3761B2386F8B0
:105430003030032385F82834F8BD00BFE838002059
:10544000602D00202DE9F041254FC469D7F8B062E6
:105450004660338D03854FF0010880F832800546A1
:105460002046FDF781FA2378627868F30103237000
:10547000F369588860809B88A38042F010026270B4
:10548000FFF786FF3B46D6E9147128B3627842F0F5
:1054900008026270D0E900C26161C4F808C0E2602D
:1054A00027611821E869F4690526465442180D4819
:1054B000A488408F84420BBF002001245070547098
:1054C00016BF5080022204220A4485F83020F822B8
:1054D00083F8B422BDE8F081E160A7601021E1E724
:1054E000E8380020602D00202DE9F041C4693C4ED1
:1054F00005462046FDF738FA2378F08860800122BF
:1055000062F301032370637843F010036370FFF7C5
:105510003FFF637800283BD043F008036370D0E975
:105520000023A260E3602BF01DFFD0E900231834B4
:1055300044F8043C44F8082C182385F8303009233B
:105540002370637827486FF347136370336CC4F894
:105550000230736CC4F80630B38FD0F8247390F81F
:1055600023C36381002101238C451FD1627863F33B
:105570000402627095F8302003F01F030A3202EB38
:10558000430385F83030542380F81033BDE8F081B0
:1055900060F3C30363702BF0E5FED0E90023103401
:1055A00044F8043C44F8082C1023C6E704EB4302FB
:1055B000BE885681002202F10108043204EB420247
:1055C000B2F802E076455FFA88F2F4D1934203D252
:1055D0000133DBB2102BC9D00131C9B21837C3E790
:1055E000602D0020E83800202DE9F0414FF6FF77CC
:1055F000C46907858B7880F88530064620460D46BD
:10560000FDF7B2F92378E770012262F301032370FA
:105610006FF00303A370EB7AA3716B7BE371A8882F
:10562000A080FFF7B5FE40B3637843F010036370CA
:10563000D0E900234FF00808A260E360F36908F1A5
:1056400008070122DA55DC196978637801F0600CEB
:1056500003F04003BCF1200F637010D143F040030E
:105660006370AB7AA3702B89A4F80330AB786371B5
:10567000063786F83070BDE8F0818046DEE76FF3CC
:10568000861328896370BCF1000F07D111F0100F49
:10569000DBB218BF022262F3C403E1E7FFF778FE32
:1056A0000028DED0637843F020036370D0E9002344
:1056B00008F11007C4F80620C4F80A30D1E72DE934
:1056C000F04F85B0884601925B4A0F9E92F82E10EB
:1056D0009DF838409DF840504FF6FE7B0229074662
:1056E0009A46A6F800B091461DD11288328013B9AF
:1056F000824208BF012503238DF80C308DF80D5030
:10570000FE238DF80E309DF80C30002063F3070067
:105710009DF80D3063F30F209DF80E3063F31740B2
:1057200005B0BDE8F08F2BB11CB34FF6FF7333808B
:105730000823E1E74FF6F7729042F6D8FFF716FB21
:105740000446B0B1827ED30707D44FF4817337800B
:10575000ADF80C308DF80EB0D5E70278052A02D0EE
:105760004278022A05D14FF482733780ADF80C30AD
:10577000C6E751463846FBF741F9002852D0428827
:1057800032801FFA82FC027990F806B051073ED5AC
:10579000B9F83A1041454BD1130749D40721BAF162
:1057A000000F01D1674545D05D4528BF5D46EDB28C
:1057B00014B3062920D12148214AD0F8F430E31A45
:1057C000DB105A43D0F8FC3003EBC2039879C0F3E6
:1057D000C2072046FAF72CFF99F83530B842B8BF17
:1057E00038465B4528BF5B46DBB2984211D2A3889E
:1057F00033808346012504213388434502D0019A32
:10580000934208D14FF6FE733380012103E0062155
:10581000C5E70029F0D18DF80C108DF80D5099E7EF
:105820002146F8E74FF0FE0B002CF9D00146C2E705
:105830000A21BDE70125BBE7602D0020E8380020E4
:10584000CDCCCCCC30B5C5698BB004466946284672
:10585000FAF750FE9DF8142094F830309A4228D878
:105860000123039A84F8323053786BB96D88284647
:10587000FFF77CFA28B1837EDB075CBF052384F841
:10588000323025850BB030BD1178994211D902EB29
:10589000430148880949498F88420AD1013BDBB25C
:1058A000537002EB43039A78DB7842EA03232385A3
:1058B000E8E7752384F83030E4E700BF602D00206E
:1058C0002DE9F341C779847900230137FFB2437290
:1058D000754BC77193F82E30022B05460E4600F02B
:1058E000C2800E2C2AD8DFE804F0C9C9082525316A
:1058F00031545454292929A7C90041F08BFBC0F326
:105900000B0068810126EB79B34217D868892BF028
:1059100043FD40096881294664483EF04DFF6448D4
:1059200090F85030D3BB012380F8503054303AF017
:105930001BFE33E0012F30D0032C01D001242DE0D9
:1059400041F60273438104260224DCE7062C11D1C0
:10595000012FF3D8012F14D141F05CFB40F66272A5
:1059600080B2B0FBF2F302FB13033F335B006B81A9
:105970000326E9E750F8343C90F84D209B789A4292
:10598000E7E71EB133780BB9EB71D7E741F6027345
:10599000EDE7092C06D1072383710024204602B0CD
:1059A000BDE8F081B0F84800FFF7E0F9082C804628
:1059B0001CD1002333706B69002B70D1022F6ED87D
:1059C000AB79082B22D12846FAF784FE384BADF884
:1059D000040093F8E032C0B2984217D29DF8050057
:1059E000FCF714FA50B10324EC71D7E7002EE2D093
:1059F0003378002BDFD10823AB71DCE7EE79022E80
:105A000004D143F609536B8104247CE7B8F1000FFD
:105A10000BD098F80160022E07D198F8003003F0FF
:105A2000FB03012B01D10023EDE741F0F3FAC0F3B2
:105A30000A0068810226E7E70029AED00B786BB137
:105A4000E12B14BF0126022641F0E4FAEA794FF473
:105A500080639340013B1840688175E701234372DE
:105A60009B02438184E70E2C3FF668AF0122A240DF
:105A700044F283331340002B3FF460AF8EB1337890
:105A8000002B3FF45BAF012C07D00E2C0CBF02267D
:105A90000126E12BD8D10136D6E70326D4E703242B
:105AA0007CE734467AE700BF602D002050390020A3
:105AB000E83800202DE9F0413C4FC469D7F8B862BE
:105AC00005462046FCF750FF337C1BB1738AA38048
:105AD000337DE371237830896080012262F3010312
:105AE0002370637843F0100363704FF6F7739842A6
:105AF00045D8FFF74DFC8046002840D0637843F03E
:105B0000080363702BF02EFCD0E90023226163614F
:105B1000D8E90023A260E360182204F1180385F895
:105B2000302003221A70B27D5A7072895A8095F81B
:105B30008630102B02BF95F8873043F0020385F8BA
:105B40008730B089F389A5F880304FF6F773984213
:105B5000288522D8FFF70AF9012385F8323028B1C9
:105B6000837EDB0702D4052385F8323095F8303088
:105B7000043385F83030212387F8D43214E0637879
:105B80006FF3C30363702BF0EDFBD0E90023A26039
:105B9000E360102204F11003C1E7054BE179588F4F
:105BA000FBF7A2F90228E1D1BDE8F081E838002036
:105BB000602D00202DE9F8434B7807466FF3C303AF
:105BC000C8884B700125388587F83250FC698846B3
:105BD000FFF7DEFB06462046FCF7C6FE23784E4A5A
:105BE00065F30103237098F80C30A371538FA380E1
:105BF0003B8D6380637843F0100363709146002E01
:105C00007CD0DBB243F0080363702BF0ABFBD0E930
:105C1000002322616361D6E900230826A260E360C5
:105C200098F80130F969103603F060038C19A3F17C
:105C3000200253425341627863F3861202238B554C
:105C400002F07002627098F80A30A370B8F804503D
:105C5000B8F80830A4F80350A4F80530B8F80600E6
:105C6000FFF784F8002850D02C492D4AD1F8F430A1
:105C7000C31ADB105A43D1F8FC3003EBC203997905
:105C800099F83030C1F3C20123B1FAF7D1FC814257
:105C9000B8BF014698F80330581880B2FE2828BFD4
:105CA000FE20E0712846FFF773FB637878B343F07A
:105CB00010036370D0E900230125A260E3606378DC
:105CC0006FF3451363705B0611D4B4F80500FFF75A
:105CD0005FFB60B16378013543F02003D0E9001227
:105CE000637004EBC50344F835105A60EDB2681CCC
:105CF00006EBC00087F83000BDE8F8832BF032FBDC
:105D0000D0E90023A260E3608AE70721C2E760F3DD
:105D1000041363700546D2E7602D0020E8380020A8
:105D2000CDCCCCCC094A30B5D2E93D321C78062C1A
:105D300005D0D3E902458D4208BF844203D0283301
:105D40009A42F3D80023184630BD00BFE83800203F
:105D5000F7B51F464FF6F77398420546164626D804
:105D600056EA070323D0FFF713FBB8B1D0E90023AD
:105D70009F4208BF964211D00220FBF7F3FB01249B
:105D800030463946FFF7CEFF50B1837E858064F3FD
:105D9000C303837684F0010003B0F0BD0024EFE775
:105DA000009432463B462846FAF748FFF2E70020C7
:105DB000F2E72DE9F04D1746527D072A884614D99F
:105DC0003D696B78C3F34011C3F300140C44E4B293
:105DD000611CB2EBC10F08D3DA0609D4A978B5F873
:105DE0000300FAF76FFD0646A8B90020BDE8F08D64
:105DF000364B5A8FB5F803309A42EFD1D5F808A048
:105E0000D5F80CB02BF0AEFAD0E900239B4508BFC3
:105E10009245EAD1E2E7EB79C2789A42E5D9C370BC
:105E20006B789B060CD5013CE4B2012CDDD8013423
:105E300005EBC404B5F8050022686368FFF788FF26
:105E40007178F378FA8A01F06001A1F120004142F3
:105E500041413089FAF7F7FD1C4BB5F803005A8F22
:105E600082421FD06B78DB0603D5AA68EB68FFF788
:105E70006FFF98F80630012B86BF03F1FF33DBB2CA
:105E800001233373737843F004037370104B93F85A
:105E9000A422002AA9D1932283F8A4220520FBF78B
:105EA00061FBA2E7306918B100220274FA8A4282CB
:105EB0009B7C002B99D010B1C36810309847737841
:105EC000002262F3C303326173708EE7602D0020FD
:105ED000E838002037B5054628B9244B43F21112A3
:105EE0001A803FF0C9FBD5E90023013308BFB2F1A6
:105EF000FF3F02D1002003B030BD28462BF03EFA10
:105F000088BB0022002369462A20CDE9002336F011
:105F1000FBFCD5E90001DDE90023994208BF90426E
:105F20000ED1134C2B2004F14C0136F0EDFCB4F8EB
:105F30004C204FF6F7739A4202D804F14C00DAE78E
:105F4000D5E90001FFF7EEFE30B182884FF6F77316
:105F50009A4201D80430CEE72846FAF759FA0028C9
:105F6000C8D00230C7E70348C5E700BF5C2F002058
:105F7000000801209A2D002013B50A4B009340F22F
:105F80000713ADF804306946002311F8014B5A1C81
:105F90008442D2B202D9062A1346F6D1581CC0B2A6
:105FA00002B010BDFCAF601138B50B4BD3F8F44014
:105FB000001B0A4CC0106043D3F8FC4004EBC00443
:105FC000084621711546FFF7D7FFA379657160F385
:105FD000C503A37138BD00BFE8380020CDCCCCCCC0
:105FE00038B50E4BD3F8F440001B0D4CC010604385
:105FF000D3F8FC4004EBC0041546237923B10322F7
:1060000012FB0311C1F3870121710846FFF7B4FFAA
:10601000A379657160F3C503A37138BDE83800202A
:10602000CDCCCCCC4B682DE9F04104460D46002B7D
:106030002ED12B68002B3FD1E88AFEF797FE06464B
:1060400000284FD12D4B93F830609846002E52D047
:106050006378DB072DD462884FF6F7739A4228D80D
:10606000A7883846FEF782FE20B1037803F0FB03D1
:10607000012B1ED098F83430A2799A4234BFD34312
:10608000DB43DBB2EA8A00213846FAF7DCFC10E099
:10609000027802F00302012A03D10A691278062A63
:1060A000C7D01A68A0885B68FFF752FE0028C0D1ED
:1060B00000263046BDE8F0816278D207F8D46088C7
:1060C0004FF6F7729042F3D80C4AA188528F914252
:1060D000B2D09042B0D01A685B68FFF739FE002852
:1060E000AAD1E5E795F91920297EFFF779FF304617
:1060F000FAF7DEFDA6E70126DBE700BF602D0020F2
:1061000070B50646807C294C58B102283ED8D4F898
:1061100090319A7E6FF341029A76BDE87040FEF7A7
:106120004BBCD4F89011224DCB88AB8733886B875A
:106130008B882B80D6E90223C1E9022394F8D03161
:1061400085F838300B7E08700133DBB20F2B28BF87
:106150000F23487E6B72FEF789F9D4F8900196F907
:106160001120317CFFF73CFF452384F8D0312423F4
:106170001E3584F800320F4BC4F8D851C4F8E03112
:1061800004F5E470BDE870402EF0FABE94F80132D8
:106190000133DBB2012B84F80132B8D804F5E47086
:1061A0002EF09CFE232384F8003270BDE8380020D6
:1061B000602D0020E55100012DE9F84F8046474F42
:1061C000087E9DF8289015469A460E46FFF7D4FEA5
:1061D00097F8303095F801B0044613B91BF0180F4A
:1061E00026D0F08AFEF7C2FD0BF018018346002886
:1061F00060D0FAF71DFA3A4AD2F8F430ABEB030B51
:10620000384B4FEAEB0B03FB0BFBD2F8FC3003EBF4
:10621000CB0B04469BF8063029B113F0070402D1DA
:106220000020BDE8F88FC3F3C2039C42B8BF1C46F0
:1062300097F83630A342F3D96B79A978B8F80400FF
:106240001C44A4B2FE2C28BFFE24FAF73BFB002816
:1062500035D14846FAF7D0FF0028E1D043786AF3F9
:10626000461343702A79EB7843EA0223038198F8B6
:10627000043098F8052043EA02238380AB788372C8
:1062800098F80630013BC37298F80730437389F0E1
:1062900001035B42C370B9F1000F0ED097F83430A0
:1062A0005B00FF2B28BFFF23DBB203738470F38AEC
:1062B000C380B6E70029BBD0B2E70123F5E74378F6
:1062C000C3F341135345ABD1B5F8032003899A4278
:1062D000A6D18378A342E9D8A2E700BF602D0020B1
:1062E000E8380020CDCCCCCC012B2DE9F34106467B
:1062F0000F461546984610D0224BB2F803005B8F2C
:10630000834211D0FEF732FD38B1047804F0FB046B
:10631000012C02D14378022B07D0B379012B29D865
:10632000002002B0BDE8F08101242A4600944346D3
:1063300039463046FFF740FF05460028F0D0114BA4
:1063400093F830302BB18378FA8AB0880021FAF7BD
:106350007AFB8CB16B7843F004036B700A4B93F8B3
:10636000A422002ADCD1932283F8A4220520FBF783
:10637000F9F8D5E70024D8E721462846FBF75CFC6E
:10638000CEE700BF602D0020E83800202DE9F34162
:10639000537D052B0D4617465DD9424B93F82E30A1
:1063A000022B58D04B781669D80607D5137D0F2BD2
:1063B00051D98A68CB688888FFF7CAFC737813F0D4
:1063C00040046CD1C3F3C102002A48D0022A42D84B
:1063D000B6F803204FF6F7739A423CD9009423464F
:1063E000324639462846FFF7E7FE804698B32146F5
:1063F000A888FAF703FB0446002849D1FAF7D8FA2F
:106400000379044623F0280343F028030371142082
:10641000FBF7A8F8AB882380FB8A63807378227926
:1064200003F01803A3F110014B424B4142F0040268
:1064300063F34102227198F8012063F3041298F883
:10644000023088F80120A37198F80B301BB10021AD
:106450004046FBF7F1FB002002B0BDE8F081B6F842
:1064600003004FF6F7729042F5D8990608D57B7D68
:106470000D2BF0D9D6F80620D6F80A30FFF768FCC5
:10648000022332463946284602B0BDE8F0412BE7E8
:1064900003795A07B6D543F008030371BAE701231D
:1064A000EFE700BF602D002000487047DC39002076
:1064B000064AD2F8F430C01A054BC0104343D2F854
:1064C000FC0000EBC3000079704700BFE8380020F3
:1064D000CDCCCCCC064AD2F8F430C01A054BC01053
:1064E0004343D2F8FC0000EBC30090F9050070476D
:1064F000E8380020CDCCCCCC10B51446FFF712FC08
:10650000034630B1817EC1F3001014B141F0100197
:10651000997610BD40B1431E0D2B4FF0010398BF7B
:1065200083403C20584370470A2070472DE9F047CC
:10653000BC4D95F83C1071298AB0044640F0838127
:106540001021ADF81C100021099190F82C10066B59
:1065500008900E2978D93178002975D1D6F8031022
:10656000D6F8070011F1FF3240F1FF334FF0FF3151
:106570006FF00200994208BF904265D3AF6B2FB90C
:10658000A94B43F2DA021A803FF088F897F825C049
:1065900097F8263063450BD9BA6A02EB0C13002A30
:1065A00040F09C80A04B43F2DB021A803FF064F87D
:1065B00073789E4E96F83320B2EB131F44D196F8B1
:1065C000322003F00F0393423ED107A91E2039F079
:1065D00053FE099BC3BB04A93320276B36F094F903
:1065E000DDE9042312F1FF31009143F1FF31019104
:1065F000DDE900894FF0FF316FF00200494508BF27
:10660000404507D3D7F80710D7F803008B4208BFDF
:10661000824219D10DF10F01182036F075F99DF85D
:106620000F3043B104A9172036F06EF9A289BDF8E6
:1066300010309A4208D196F82E80B8F1020F52D14C
:1066400097F90230002B54DB0AB0BDE8F087D6F88A
:1066500007905168D6F803801068894508BF8045C7
:1066600010D194F91F100029B178B8BF82F80DA09D
:10667000480748BF82F80EA0090648BF82F80FA05D
:106680004FF0010E10329342E1D8BEF1000F8FD1CE
:10669000227E71781A72A27FC2F30302DA72A27F9D
:1066A000C2F303121A73E27FD6F80300D2095A73B9
:1066B000D6F807205A60B2781860C2F38000D20979
:1066C000DA7372789873C1F30311C2F303020CF109
:1066D000010C5A72997287F825C069E74FF0000ED5
:1066E0004FF0010ACFE7B8F1010F02D1BB7858078C
:1066F000AAD5D5F8F4A0D4F83090D5F8F8E0002762
:106700008DF81070D4469CF80030062B00F0928073
:10671000228ABCF804309A4240F08D80DCE90423E0
:10672000D9F80710D9F803008B4208BF824240F025
:106730008280F44580F0848067463D4BE17FA7EB83
:106740000A0A4FEAEA0A03FB0AFAD5F8FC3003EB1F
:10675000CA0A3B78062B04BF03233B7081F0400339
:10676000C3F380137B70BB7803F0300343F00A035C
:10677000BB70237EFB70238ABB80A389FB80002231
:106780000023C7E90223D9F80320D9F80730C7E965
:10679000042399F80230C3F3C3033B7699F80E3013
:1067A0007B76BB7E96F85400C90961F3410303F080
:1067B000FA03002243F00103BB76BA83FFF7AAFE77
:1067C00038629AF8063062F3861399F802208AF844
:1067D0000630510706D5B8F1010F02BFBB7E43F06A
:1067E0000403BB76120606D5B8F1020F02BFBB7ECA
:1067F00043F00403BB763846FAF75AFAE17E94F97F
:106800001D203846FFF7D0FB9AF806306FF30203DD
:106810008AF8063004A901234A208DF8103039F097
:106820002BFD10E0E83800205C2F0020602D0020B8
:10683000CDCCCCCC67460CF1280CF445FFF463AF0B
:10684000002F7FF47AAF95F81033272B7FF4FCAE3E
:106850002B785B067FF5F8AE184BA1899A8F914291
:106860007FF4F2AE94F82C100E290BD9216BD1F8DD
:106870000360D1F80770D3E910018F4208BF864248
:106880003FF4E2AE598FDB88994207D00C490D489E
:10689000FAF722FC512385F81033D5E695F86833D2
:1068A000FB2B7FF4D1AE013207490848A5F86A23D3
:1068B000FAF712FC832385F86833C5E6602D0020C3
:1068C000D91E0001FC3B0020DD440001583C0020A3
:1068D0002DE9F0410E4607469046FEF747FA31494A
:1068E000B0B9D1E93D4523461A78062A11D028339C
:1068F000AB42F9D3B8F1000F05D02378032B09D0B0
:106900002834A542F9D8BDE8F0810022002321E017
:1069100003461C46D1F8F450234B651BED105D4334
:10692000D1F8FC3003EBC50540F203132380A378B4
:1069300003F0300343F00A03E11C1620A37035F086
:10694000E3FFA780A11D172035F0DEFF002EDCD06D
:10695000D6E90023C4E9022304F110010C20134EF0
:1069600035F0D2FF01232376337C6376A37E23F0B8
:10697000070343F00703A3762046FAF799F90022AC
:10698000FF212046FFF710FBAB7996F85400002258
:106990006FF30203AB71A283FFF7BCFDC4E90802E9
:1069A0002046B0E7E8380020CDCCCCCC602D0020CC
:1069B0002DE9F0418B79012B0F46904636D1254EBB
:1069C000347814F0080410D0536818685968FFF739
:1069D000A9F9044658B30378012B06D1D6F84854D8
:1069E00096F844240023934201D100201FE0297827
:1069F000F9B101331835DBB2F5E7C1236B707A7951
:106A00003B7943EA02236B80D8F804301A685B684C
:106A1000C5E9022373782B74B378C3F300036B7456
:106A200001232B701320FAF7F5FEDEE70120BDE805
:106A3000F081D8F8106070780E28DED8FFF76AFD74
:106A400020622046FAF734F9B37803F00103A383F8
:106A5000D5E700BFE838002016481749D0F8F430D1
:106A600070B510220C460025013A92B20D804D609F
:106A70000831002AF8D1D0F8F8004BF6DD751A7805
:106A800002F0FB02012A11D15A78022A0ED199880C
:106A900005FB01F2C2F3033234F83260314324F8CB
:106AA000321004EBC2025168596253602833984295
:106AB000E5D870BDE8380020383D002007B5012337
:106AC0008DF80730037803F0FB03012B1ED14278C9
:106AD000022A0F4A14D192F8201041F0800182F866
:106AE000201006220270002242620BB1FFF7B4FFB1
:106AF0000DF107014B2039F0BFFB03B05DF804FB3B
:106B000092F8203043F0040382F820300023E8E7B5
:106B1000602D002038B5B0F12805044607D1144B8C
:106B200043F246021A80BDE838403EF0A5BD10F899
:106B3000283C052B03D00E4B43F24702F2E750E905
:106B40000401FFF7EFF870B114F8063C4BB9237D50
:106B50003BB9022304F8283C0B20BDE83840FAF783
:106B600001BDFFF7ABFF2846BDE83840FBF739BA57
:106B70005C2F002038B544682378042B0D4605D0DF
:106B80000D4B43F245021A803EF088FDD4E9020124
:106B9000FFF7C8F858B1237D2B4306D10323237098
:106BA0000B20BDE83840FAF7DDBCFFF787FF204631
:106BB000BDE83840FBF715BA5C2F0020F8B5224C31
:106BC000224FD4F8F45000262B78062B17D0012B37
:106BD00031D194F8BA305BB1D4E92001D5E9022370
:106BE000994208BF904203D12846FFF767FF06E0AD
:106BF00097F82F3013B36B78022B08BF2E46D4F8CA
:106C0000F83028359D42DFD3D6B1B388A4F8883058
:106C1000D6E90223C4E92023B37E13F0010308BFA1
:106C2000052384F88A30152384F8B9300720BDE89D
:106C3000F840FAF7EFBD052BE1D1D5E72E46DEE7A8
:106C4000BDE8F840FBF78ABDE8380020602D002041
:106C500073B5454C94F8B90011280FD12378A56F6E
:106C6000DB0775D56B7D7BB12A8A4FF6F7739A42A5
:106C70000AD8172384F8B930FAF7CCFD94F8B93064
:106C8000192B46D002B070BDD5E902231343374E0D
:106C90004DD005F108002AF071FB002847D18DF88E
:106CA00007000DF107015C2035F02EFE96F82E301E
:106CB000012B3AD8D5E90201FFF734F820B3037865
:106CC000012B04D09DF80720A2B9022B12D1838892
:106CD000A4F88830D0E90223C4E92023837E13F08E
:106CE000010308BF052384F88A30152384F8B930DE
:106CF0000720C1E7052B18D1FFF7E0FE192384F820
:106D0000B93000232B77B9E7C823192284F8B920BA
:106D10002B7717483DF074FD83691C309847A36FAB
:106D2000DBB9E62384F8B930ACE7C223EDE796F887
:106D30002E30022B09D0EB7C3BB1F12323700023D2
:106D400084F8BA30FFF73AFF98E7FBF707FD95E7BD
:106D5000192384F8B930C223DAE711230C2084F810
:106D6000B930FAF7FFFB8DE7E8380020602D0020EE
:106D7000603900200C4B9A6F10B40C46D2E9020126
:106D8000014308D0192183F8B9100C2014775DF85D
:106D9000044BFAF7E7BB93F8BA20013283F8BA2024
:106DA0005DF8044B0AE700BFE83800208188134AE9
:106DB0004BF6DD734B43C3F3033310B432F8334067
:106DC000214322F83310416ADB0019B9D118496810
:106DD000814202D1D118496831B913445A684262DC
:106DE00058605DF8044B7047496A11B18142FBD18C
:106DF000F7E75DF8044BFFF72FBE00BF383D0020DA
:106E00002DE9F04F8BB099469DF858300793C9F3A0
:106E1000400304938B4B0392D3F8F4C0D3F8FC20C7
:106E2000DFF828E2D3F8F830059200258B46824639
:106E30008DF82650069361462E462C46A8462F46CE
:106E4000087806283FD0D1E902235B4508BF5245A8
:106E500000F0FB0008BF0C4601281BD14B78022B29
:106E60000BBF01360135F6B2EDB2069B28318B42DD
:106E7000E6D829463046FCF7EFF8002C69D12A46BF
:106E800031460498FCF798F818B3002420460BB05C
:106E9000BDE8F08FB8F1000F19D0A1EB0C02059BF3
:106EA0000598D2100EFB02F203EBC202A8EB0C0312
:106EB000DB100EFB03F300EBC30312791B799A423C
:106EC00038BF8846D1E7002F08BF0F46CDE7884678
:106ED000CBE71FB9B8F1000FD7D047465B46524603
:106EE0000398FDF7B3FF4FF6F77398420446CCD8EA
:106EF00019F0020F15BF01350136EDB2F6B2294681
:106F00003046FCF7A9F8BC8053465C46C7E902341A
:106F1000BB7E6FF30413BB760DF1260101234A20DB
:106F20008DF8263039F0A8F93C46012323700DF185
:106F30002701292035F0E8FC9DF827300BB1052307
:106F4000237019F0020F2FD00122627084F8029092
:106F50002FE0237803F0FB03012B15D02A4631469E
:106F60000498FCF729F800288FD119F0020F15BFFB
:106F700001350136EDB2F6B229463046FCF76CF821
:106F8000A37E6FF30413A3762F4B93F83130002BBD
:106F9000CBD0A388039A93421EBFA37E6FF3041342
:106FA000A376039BA380C0E7079B02226270002B9D
:106FB000CCD1254B93F83810E170998FE180D3E95B
:106FC0001001C4E90401597AA0780E299CBF01314F
:106FD000C9B22176197C6176A17EC0F3C00060F34E
:106FE000000101F0F901A176002193F85400A1837A
:106FF000FFF790FA022AC4E9080102D12046FFF700
:10700000D5FE1049114AD1F8F430E31ADB105A4387
:10701000D1F8FC309DF8501003EBC20320469A795A
:1070200022F047029A719DF95420FEF7BDFF2046D9
:10703000F9F73EFE0023A0880093D4E90223F9F774
:10704000FDFD23E7E8380020602D0020CDCCCCCC1E
:107050007FB51F4B1B781B07054631D51D4B027AA8
:107060001B7AC2F38012C3F380139A4228D1002204
:10707000D0E90001F9F7E6FE044608B395F90A30B5
:10708000019301266B7A009302962B7A4FF6FF72DA
:10709000D5E90001FFF7B4FEA0B1002384F8223047
:1070A000838823842B7A6370D5E90023C4E90623FF
:1070B000094B636204F108002DF013FF05232370D0
:1070C00004B070BD84F822604FF6FF73E9E700BF9B
:1070D000E8380020602D0020156B00012DE9F043F9
:1070E000002387B090460022CDE904234B788A79AB
:1070F000180701F110074ABF3E4601F1080601F1E9
:107100001807012A0D4603D0012007B0BDE8F0831F
:10711000304B197A7B78C1F38011C3F38013994205
:1071200056D12D4B1B781907EED530687168F9F7E9
:1071300089FE04460028E7D06B789B0726D404A973
:107140002A2035F0E1FBDDE90423013308BFB2F169
:10715000FF3F1BD12B796A7943EA02232382022362
:1071600023757B7863706B78C3F3400363756A792A
:107170002B7943EA02236382326873680125C4E9EC
:10718000022325700520FAF745FBBDE76B78C3F3B2
:107190004003029398F91930019398F8183000933E
:1071A0007B78AA8830687168FFF72AFE814650B163
:1071B00098F9192098F81810FEF712FFB9F8043062
:1071C00023820023CCE74FF6FF7323820123C7E716
:1071D00000209AE7602D0020E83800207FB51E4D82
:1071E000D5F8D84205F536703DF00AFB2CB91B4B9B
:1071F00043F220321A803EF051FA01230026228AFF
:10720000CDE90163FF230093A37CD4E90201FFF7DA
:10721000F7FD78B1837E43F01003837626766369A9
:107220005BB90E4B43F221321A8004B0BDE87040C6
:107230003EF022BAC7232376F1E704F118009847FD
:10724000D5F8D8322BB1112004B0BDE87040FAF760
:1072500089B904B070BD00BFE83800205C2F002061
:1072600010B5D0E90001FEF75DFD044668B1037872
:10727000052B0BD1012303704378022B01D1FFF7BB
:1072800095FD2046F9F714FD012010BD0020FCE714
:107290002DE9F0471F4E0024D6F8F45007464FF072
:1072A000060AA04640F201292B7803B947B16A7853
:1072B000022A05D0012B1EBF013485F800A0E4B2DC
:1072C0002B88C5F824804B4502D12846FFF76EFD78
:1072D000D6F8F8302835AB42E6D80F4BC4B193F856
:1072E0004820003218BF012293F8201062F3820177
:1072F00083F8201024B193F84940003418BF0124CA
:1073000093F8202064F3C71283F82020BDE8F087AB
:107310002246E9E7E8380020602D002010B5124C25
:1073200040F20120214635F0D5FA04F10C014FF46A
:10733000817035F0E9FAA4F1F402237BD2F8F4105D
:1073400003EB830301EBC30340F2032004F10801C4
:10735000636035F0BFFA04F1100039F02FF9012015
:10736000BDE8104094E700BFDC390020F8B5724D4D
:1073700095F87831542B40F0C980D5F874412CB978
:107380006E4B43F2A1021A803EF088F96C4E94F8DD
:1073900044303372FBF774FF2B7894F8451096F85D
:1073A0002E20C3F34003002937D0012A14BF002345
:1073B00003F00103B4F84620013A92B24FF6F67199
:1073C0008A428CBF002303F00103002B64D094F8A1
:1073D0003830012B04F1080723D15A49172035F022
:1073E00093FA5949162035F08FFA94F845300BB1CD
:1073F000B4F8463073872383544B2362532323749A
:107400003846592385F878312DF0BAFD96F83810B2
:107410002420BDE8F84038F02FBF002A18BF002311
:10742000D3E7236C94F84D1096F83720CBB1581E53
:10743000184216D0E361102384F8273004F12803A2
:107440000020A361424B84F82400236284F82510B5
:1074500084F8262038462DF090FD572385F87831A2
:10746000F8BD0120E36184F8262084F8240084F824
:10747000251000F2031004F1270135F045FA04F15C
:10748000180140F2022035F025FA324B23623846CB
:107490002DF073FD5623E1E7C22384F84C305823C6
:1074A00085F878312C483DF0ABF9044628B9234BD8
:1074B00043F2A2021A803EF0F1F894F83C3013B186
:1074C0000120FFF7E5FE94F84C30ABB91D491720B9
:1074D00035F046FA1C49162035F042FA95F8793114
:1074E0002BB9F9F7C1FEF9F77DFEFAF725FF012365
:1074F00085F87931FD232B70A36C6BB90F4B43F2E8
:10750000A3021A80BDE8F8403EF0B6B8582BC9D0A7
:107510000A4B43F2A402F4E704F14C009847D5F873
:1075200074313BB1542385F878310920BDE8F84027
:10753000FAF718B8B72391E7E83800205C2F00204D
:10754000602D00209C2D0020982D0020513100013D
:10755000FD3B0001FD3C00015C3A002070B5324D5E
:1075600095F83C30702B49D1AC6B2CB92F4B43F2C2
:10757000D2021A803EF092F82B789B0623D594F81D
:107580003430261D13B10120FFF782FE012284F85A
:107590002020E26AA26194F8352084F8212000239B
:1075A000234A84F8253092F8372084F82330636129
:1075B000204BE36184F8222030462DF0DEFC71235D
:1075C00085F83C3070BDC22384F82430722385F8DE
:1075D0003C3019483DF014F9044628B9134B43F2E6
:1075E000D3021A803EF05AF8236B6BB90F4B43F26B
:1075F000D402BDE870401A803EF03EB8722BE8D04D
:107600000A4B43F2D502F4E704F124009847AB6B30
:107610003BB1702385F83C300820BDE87040F9F795
:10762000A1BFD623CCE700BFE83800205C2F0020A4
:10763000602D00202D1700012039002038B52D4D78
:1076400095F88031452B2C464DD12B4BD5F87C013C
:1076500093F82E20012A15D12A78520712D59A8F35
:10766000828193F83820827393F83730C3730023F4
:107670000382224B436104302DF085FC462385F8BC
:10768000803138BDC22380F82830472384F8803108
:107690001B483DF0B5F890F82030054613B10020A6
:1076A000FFF7F6FD95F8283073B92B7F052B08D02E
:1076B00094F881312BB9F9F7D7FDF9F793FDFAF773
:1076C0003BFE012384F881316B6A05F1280098475D
:1076D000D4F87C3153B1452384F880310620BDE8CD
:1076E0003840F9F73FBF472BCBD1D1E79A2384F835
:1076F0008031C6E7E8380020602D0020D115000158
:10770000643A002010B50F4B4468AA2283F8522136
:107710002378042B07D00C4B43F24802BDE81040FD
:107720001A803DF0A9BF41B9D4E90201FEF7FAFA87
:1077300018B1228A8280FFF739FB2046BDE810404D
:10774000FAF74FBCE83800205C2F0020F8B51B4C3E
:1077500023781B0706462FD594F8B033662B2BD120
:10776000D0E90001FEF7DEFA054628B30778012FBD
:1077700022D1F9F79DFAD4F8F430114AEB1ADB1054
:107780005A43D4F8FC3003EBC20304F570709A79C5
:1077900042F040029A71D6E90023C4E9F223AB8893
:1077A000A4F8D033074BC4F8D43384F8D2732DF047
:1077B0009BFB6C2384F8B033F8BD00BFE838002091
:1077C000CDCCCCCCC50600010146064810B550F81A
:1077D000744F3CF0F1FF24B91520BDE81040F9F7D3
:1077E000C1BE10BDE83800208038FAF78DBB13B554
:1077F00090F8342090F824308DF803300446836AE2
:107800009AB991B1A0F18302019201989DF80320E9
:1078100019463FF0E7F9019BA3659DF8033084F812
:107820007930A4F1380002B010BD0193F3E707B539
:107830008DF807000DF10701252035F091F803B010
:107840005DF804FB014B5874FBF73EBC602D002033
:1078500010B50C4C01460C483CF0AEFF94F81032C9
:10786000482B05D04A2B0BD104F50E7038F0A6FE3C
:107870005D2384F810320720BDE81040F9F772BE8E
:1078800010BD00BFE8380020FC3A002038B5194C84
:10789000054604F11801252038F082FC04F12C0182
:1078A000372038F07DFC04F14001002038F078FCEE
:1078B00004F14001042038F073FC04F1400105207C
:1078C00038F06EFC04F140010E2038F069FC012311
:1078D00023750948094C23F0B5FC294608483CF0BB
:1078E0006BFF237C192B04D10020F9F73BFEC12349
:1078F000237438BD4C1C012091060001E83800209B
:10790000FC38002008B5074B2822184600213FF01C
:1079100033FC19220270802200F8102CBDE80840C8
:10792000F9F7C2BAF838002008B5F8F77DFF10B1B2
:107930004FF6FF73038008BD10B5072986B012D833
:107940008DF805100DF1060302EB41018A4205D1C5
:1079500001A9F8F77FFF002006B010BD32F8024BF6
:1079600023F8024BF2E70520F6E708B50379014654
:1079700073B903744FF6FC73C3804FF6FE734B82EA
:1079800005483CF019FF0420BDE80840F9F7EABDBE
:10799000D0230382F1E700BF683B00200D4890F838
:1079A00090338A2B05D00C4B43F201221A803DF014
:1079B00063BE002380F898330823A0F89C33074B5C
:1079C000C0F8A0338B2380F8903300F56570FFF783
:1079D000CCBF00BFE83800205C2F00207D230001D1
:1079E0007FB54FF6FE73ADF81630084B5A8F0DF188
:1079F00016010023CDE9003102931146FDF75FFE29
:107A0000BDF8160007B05DF804FB00BF602D002034
:107A1000F9F719B807289DBF024B83F8AE02002082
:107A2000C1207047E8380020F9F704B80A4AD2F8B4
:107A3000A83248B10730B2F8AC22C2EBC2021344FC
:107A4000834203D8002070471846F4E70279D20732
:107A5000F9D40730F4E700BFE8380020D3B5164664
:107A60001F46BDF8182000238DF80730022303704D
:107A700004461F4B9ABB42700276A17801F0300198
:107A800041F00A01A17093F83810E170D3E91001B8
:107A9000A2809A8FE280C4E90401C4E902671A7CDB
:107AA0006276A27E93F8540022F0070242F00702A9
:107AB000A2760022A283FEF72DFD9DF920202062F0
:107AC0009DF81C102046FEF76FFA01230DF1070107
:107AD0004A208DF8073038F0CFFB02B0D0BD01212D
:107AE0004170597A002908BF01210176C5E700BF1E
:107AF000602D00202DE9F04F55688BB0002D7AD015
:107B00000378547DC3F30403DEB2023C03EB43036A
:107B1000DBB2E4B2A3426ED8494FB7F83AE0002492
:107B20004FF6FF735FFA84FC66453AD84FF6FF7450
:107B3000A3421CBF03EB43031B18B1F8048018BF1A
:107B4000DE78137E059392F9193006933D4BD5F8F4
:107B500000A0D5F804B0D3E93D434FF0000114BFB5
:107B600006F0070607268DF8271007930D462078A4
:107B7000062820D1002D08BF2546079B28349C42AB
:107B8000F5D30DB9B9B30D46069B0293059B284664
:107B9000CDE9008352465B46FFF760FF3146284639
:107BA00027E004EB440C8444BCF801C0F44508BF52
:107BB000A3B20134B6E7A388434520D16378022BF2
:107BC00019D00DF127015C2034F09EFE9DF827208E
:107BD000237852BB012B28D197F82F303BB10223D9
:107BE000237097F8203043F0040387F820303146A3
:107BF0002046FDF721F801200BB0BDE8F08FD4E955
:107C000002239B4508BF9245D8D000F0FB00012815
:107C1000B3D02046F8F70CFD814661B10846F8F76D
:107C200007FD814588BF2146A7E7033B012B9CBF89
:107C300002232370DBE7864238BF21469DE700BF61
:107C4000602D0020E83800202DE9F043354B87B047
:107C5000D3E93D42002507460E468DF8175023789C
:107C6000062B1BD1002D08BF25462834A242F6D88A
:107C7000002D3ED07B78B988307E96F91940DB061E
:107C800049D4CDE901040091002200232846FFF7E2
:107C9000E5FE00212846FCF7CFFF2AE0B7F804C034
:107CA000A388634528D16378022B16D00DF1170104
:107CB0005C2034F029FE9DF8173073B92378012B2E
:107CC0000BD1194B93F82F203AB10322227093F86D
:107CD000202042F0040283F820207B78D80608D5C3
:107CE000D4E90223134304D173681A685B68C4E9BA
:107CF000022307B0BDE8F0837B78D906B5D5736859
:107D0000D4E9028959681868894508BF8045ACD113
:107D1000A4F804C0EDE773681A685B680091CDE9C8
:107D20000104B3E7E8380020602D00202DE9F74377
:107D300099460B789DF8288003F00303012B074632
:107D40000C46164646D14B789A072AD597F820104C
:107D50000320F9F745F8054600283CD00123CDE97A
:107D6000008322464B463946F9F7A0FA6378980714
:107D70000ED42B7803F0F803B02B09D1A379012B93
:107D800006D9E379A288398905F13800F8F7C0FCF3
:107D90002B7899072DD5284603B0BDE8F043FBF7B3
:107DA00051BE214B1B789B0707D48A88F38A9A42DD
:107DB00003D131462046FFF747FF3246214630695E
:107DC000F9F726F9B8F1000F01D00028BED103B0B1
:107DD000BDE8F0834BB163789D07F8D4E179A088C2
:107DE00003B0BDE8F043F8F73DBB90F82010042045
:107DF000AFE70D4B1B789A0707D4A288F38A9A4203
:107E000003D131462046FFF71FFF23789B07284602
:107E100004D103B0BDE8F043F9F7F8BA03B0BDE808
:107E2000F043FBF7E5BB00BFE8380020014B1865C5
:107E3000704700BF00080120014B93F84B007047CA
:107E4000602D0020014B93F84C007047602D0020FE
:107E50002DE9F743484E96F82054012D07468946F0
:107E600052D90846F8F710FE854200F28380434B52
:107E70006C1EE4B293F84AE0D6F82434C4EBC40292
:107E800003EB82034FF6FF72197891B1A64509D032
:107E900093F801C01FFA8CF1914203D2CC453CBF4C
:107EA0000A462046013CE4B2FF2CA3F11C03EBD1AF
:107EB0000446A5425CD90FFA84F8D6F82434C8EBFE
:107EC000C8084FEA880803EB0801012503F80850A9
:107ED00081F801903B68C1F802307B68C1F8063038
:107EE000BB68C1F80A30FB68C1F80E304846F8F7A5
:107EF000CBFD96F82034834207460BD8D6F82434BD
:107F0000002003F8080002E04FF0000032D003B078
:107F1000BDE8F0830FFA80F9D6F82434C9EBC9091B
:107F200003EB890919F1140FE8D00DF103014FF4A7
:107F3000817034F0E9FC01A940F21B2034F0CAFC46
:107F40009DF80320019B12FB07F703EB0710174472
:107F500003EB071712010021C9F81400C9F81870C3
:107F60003FF00AF91420214638F086F92846CEE77A
:107F70000020CCE704469EE7E8380020602D002072
:107F800008B5F8F781FD084B93F820348342014689
:107F900007D9064B83F84A00142038F06DF9012008
:107FA00008BD0020FCE700BFE8380020602D00205D
:107FB000054B93F84A00054B93F8203498422CBFA8
:107FC00000200120704700BF602D0020E83800200D
:107FD00013B5447801238DF8073023466FF341032E
:107FE00043700DF10701292034F08EFC9DF8070045
:107FF00040B1FFF7DDFF28B1034B93F84B0008B108
:10800000C4F3400002B010BD602D002073B5174CC2
:1080100094F800322D2B064625461CD10DF10701A0
:10802000292034F071FC3378BBB99DF80730A3B137
:10803000FFF7BEFF88B10E4BC4F8A431012384F8CA
:10804000A03104F5CA707823C4F89C3138F08CFA5A
:108050002C2384F8003202B070BDD5F890319A7E9E
:108060006FF382029A76FCF741FBF4E7E8380020D0
:10807000DD470001054B064A93F84A30D2F8242424
:10808000C3EBC30302EB830358787047602D0020D5
:10809000E8380020054B93F84A00054BD3F8243408
:1080A000C0EBC00003EB800002307047602D002061
:1080B000E838002030B591B004460D46FFF7EAFFDE
:1080C000134BA06093F84B30237329F04BF92061D8
:1080D0006869606195F82830637606A9F8F70AFAAE
:1080E0009DF82C306269237601A801928DF8083042
:1080F00037F024FC9DF80900F8F7E0FC054BE3613C
:108100000023A060A376204637F00CFC11B030BDF0
:10811000602D0020D188000113B51A49B1F84E2016
:10812000B1F85030ADF80630501E80B24FF6FD74F5
:10813000A0421CD901339BB20122ADF80420A1F862
:108140004E201A04ADF80630A1F8503003D50021B6
:10815000402038F091F800211F2038F08DF8BDF84C
:108160000630013BADF80630019802B010BD013277
:1081700092B21B04ADF80420A1F84E20EFD50021E7
:108180004020EAE7602D0020F0B58BB004464D6931
:108190000E46FFF76FFF6077FFF77CFF0127A060B7
:1081A000A777FFF7B9FF114BA06193F84B3084F824
:1081B000213084F8227029F0D5F87369E0602361DA
:1081C00096F8283084F8203069462846F8F792F966
:1081D0009DF81430E377064B63616B7843F002033C
:1081E0006B70204637F09BFB0BB0F0BD602D00207C
:1081F0008D35000190F88720D20708B503460DD5CC
:10820000DB695B789B0700F1080100F1500002D5A3
:10821000BDE808404EE7BDE80840B5E7094A018CD3
:10822000928F914204D10830BDE808402CF0B1BED5
:10823000014605483CF0C0FA0320BDE80840F9F7C4
:1082400091B900BF602D00202C3900202DE9F047A6
:1082500004464FF6FF770126042900F29D80DFE8EF
:1082600001F0039B2B60130094F886300D2B70D126
:10827000636894F885109B7899426AD92046114624
:10828000BDE8F047FBF794B8D4F81C8098F80130AB
:10829000D80711D4B8F802204FF6FF739A420BD1D9
:1082A00004F138056B694BB927464FF0010995F881
:1082B00004A0BAF1000F03D0BDE8F0871D46F1E736
:1082C000B8F80410E868F8F797F9E86030B30220CE
:1082D000F8F766FD06460028E9D0882221463EF0E0
:1082E000F8FEA6F1660394F83020E16918463EF0E6
:1082F000F0FE06F13803F061BB64EB689B883385C0
:1083000038370523C6E912A786F832303046FFF722
:1083100071FF2B7A01332B723746C8E785F804903A
:10832000C5E7E36904F138056969B1B95978C90746
:1083300032D45988B9422FD12A7982B99988E8680C
:10834000F8F75AF9E86050B183882385052384F84B
:1083500032302046BDE8F0474CE70D46E4E7E36CD9
:108360002E71BBB1A26C1A61A26C02B15361A4F16F
:108370008000F9F7C9FD2B7A013B2B722B7A002B79
:108380009AD16B79002B97D0A5F13804012115F80B
:10839000152C61E76E71F1E7E3695B7898077FF56B
:1083A0006DAF94F8873099077FF568AF6FF30003DE
:1083B00084F8873004F1080104F15000BDE8F0476B
:1083C00078E610B590F8873090F8862061F30003C6
:1083D00080F887300A4B03EB0213002193F830300A
:1083E00080F83F100446A0F8421080F83E30383044
:1083F000FDF766FAE82201462046BDE8104025E771
:10840000ECAA030130B504468BB00D4619B369469A
:10841000C069F8F76FF8049B606C5B88228DB4F834
:108420008010F8F79BFB6064A8B1E3695A7842F0CA
:1084300002025A7094F8872042F0020284F88720E2
:10844000828822851846FFF7C3FD01462046FFF7C4
:10845000B8FF0BB030BD94F88630102B03D12946FD
:108460002046F9F7F9F9A4F18000F9F74DFDF0E79E
:10847000324B93F8B422F62A70B5D3F8B0521C46AA
:108480002CD195F886200F2A2DD0192A2BD0F72130
:10849000EA6983F8B4122A4B90885B8F834213D029
:1084A000FCF764FCF8B1037803F0FB03012B1AD14D
:1084B0004378022B17D1D0E90223C5E914230F20FA
:1084C000BDE87040F9F7A6B928F04CFFD0E90023C9
:1084D000C5E9142394F8B432F72BF0D094F8B432F1
:1084E000F92B2AD102E0F92384F8B43215483CF084
:1084F00087F9EE6900217088F8F780FA40B10379B6
:108500005A0705D5C3F3400212B962F3C3030371DE
:108510003046FFF75DFD01462846FFF752FFD4F8CD
:10852000B0323BB1F62384F8B4321020BDE870407D
:10853000F9F718B82E2384F8B43270BDE83800205B
:10854000602D0020983B00202DE9F04107460120D6
:1085500088461646F8F724FC0446E8B140F20223A8
:1085600083840E4B9B8F03844FF6FE730385002597
:108570000B4B8361314680F83250C04784F88670D7
:10858000E06974616660FFF723FD01462046FFF74E
:1085900018FF2846BDE8F0810120FBE7602D002090
:1085A0008D860001F8B5234D234ED5F89C42234F0C
:1085B0001A2285F8A422237843B9D5F8A0321834BA
:1085C000A342F8D8002385F8A4321EE06378DA07C6
:1085D00021D513F0600F03F0020217D1002A14BF57
:1085E0000C200E2039462246FFF7AEFF637860F379
:1085F0000003D90763700ED5206920B104234374AA
:10860000C3681030984700232370F8BD002A14BFB8
:108610000B200D20E6E763785A07CED52246314677
:108620000A20FFF791FF637860F3820363705B07B2
:10863000C3D5EAE7E8380020B55B0001E955000141
:1086400038B50546044615F86039CBB950F8441CD6
:1086500040888A8890420FD014F82E3C24F8380CB9
:1086600043F0010304F82E3C0846FFF7B1FC014635
:108670002846BDE83840A4E6228C4988FAF74AF932
:1086800021782846BDE83840FAF792BE38B5411C3B
:108690000446A0F122051630FDF712F96278014672
:1086A0002846BDE83840D1E5F0B56A486A4E85B045
:1086B0003CF0A6F80446002800F0B78040F2022300
:1086C0008384664B90F886209B8F03844FF6FE735D
:1086D0000385002380F83230614B8361614B03EBEB
:1086E00002135B6B03B1984794F83030742B00F29F
:1086F0009780228DE5694FF6FE739A422DD194F84A
:1087000083706B78B4F88020A9886888029704F198
:10871000280701972F7A07F0030707F1FF3CDCF1E8
:10872000000747EB0C0703F001030097FCF7C7FFB6
:10873000C0F3072384F8820084F88330C0F3074332
:10874000C0B284F884300A287DD8DFE800F01E7EAD
:10875000484F4F4F4F4F09095400092384F8823086
:1087600094F88630112B08D1022384F8823094F8D3
:10877000323043F0010384F83230E069FFF728FC1F
:1087800001462046FFF71DFE1FE02B7813F0C00FB7
:108790005BD0062384F882306B7813F0010308BFA6
:1087A000022384F85430AB78EA7843EA0223A4F831
:1087B0005630AB7984F85830002384F859302A4B6E
:1087C000E36504F15000FFF7D0F8336C0BB9736C1C
:1087D000EBB3032005B0BDE8F040F8F7C3BE94F852
:1087E000323043F0050384F83230B9E794F8323080
:1087F00043F00103F7E794F832301C4843F00103DB
:1088000084F8323021463BF0D7FF96F8B4322E2B55
:10881000DBD1F623102086F8B432F8F7A3FED4E7B4
:10882000E5212046FAF7C4FDCFE706F144003BF00E
:10883000E7FFE82380F8233090F8313000F8223F3A
:10884000FFF724FFC1E7C221EBE7D121E9E705B03B
:10885000F0BD00BF28390020E8380020602D00203E
:108860008D860001ECAA030141860001983B00209F
:108870002DE9F041144D0023AC6E85F8503005F120
:1088800068074FF001086389266873B1013B85F8DA
:10889000508063813446002EF5D195F8503083B96D
:1088A0000A48BDE8F04137F089BE214638463BF022
:1088B000ADFF14F8152C617AA4F13800FFF7C6FC5F
:1088C000E8E7BDE8F08100BFE83800203C3900202F
:1088D00050F80C3C10F8072C10B400F8402C5A78D3
:1088E00040F8543C6FF341025A700378A0F17004D1
:1088F0005BB1022B14D015D3042B8CBFC321CE2126
:1089000020465DF8044BFAF753BDC37D10F84D1CAB
:10891000DB07F5D5A0F168015DF8044B203833E49E
:10892000CC21EDE7C321EBE7064B82B0B3F8502032
:10893000B3F84E30ADF80430ADF80620019802B01F
:10894000704700BF602D0020044BFF2293F84A10AF
:1089500083F84A20142037F08FBC00BF602D002020
:1089600013B5124B00240DF103014FF48170A3F8ED
:108970004E40A3F8504033F0C7FF0DF1020140F222
:10898000211033F0C1FF01A940F21B2033F0A2FFF8
:108990009DF802209DF80330019812FB03F21201AA
:1089A00021463EF0E9FB02B010BD00BF602D002063
:1089B00010B50F4C40F22110214633F0A5FF211DC8
:1089C00040F21A2033F086FF0A4BFF22A4F584649C
:1089D00083F84A20FFF7C4FF94F82024D4F8240435
:1089E000C2EBC20292000021BDE810403EF0C4BBC1
:1089F000083D0020602D0020F8B53A4B07789D6FA8
:108A00001C46002F66D103F168003BF0F9FE94F894
:108A100050300646A3B184F8507004F1540037F08A
:108A2000CDFD04F1680716F8152CA6F138000121D8
:108A3000FFF70CFC38463BF0E3FE06460028F2D177
:108A4000AB7CDE0717D5D4F89C62337813B130467F
:108A5000F7F74CFFD4F8A03218369E42F5D3F8F75A
:108A600067FB214EC22730463BF0CAFE034658BB87
:108A70001020F8F79BF8AB7C980701D5FEF74EFC69
:108A8000AB7C590701D5F8F7F9FAAB7C9A0601D50A
:108A9000FBF768FCAB7C5B0601D5FFF789FF95F916
:108AA0001230002BA1BF114B00200021C3E910019F
:108AB00012232370192384F8B93000232B770C205C
:108AC000BDE8F840F8F74EBD1846DB6800F8107FA7
:108AD0009847C8E7FD221A700278192183F8B91067
:108AE0002A77ECE7E8380020683B0020602D002062
:108AF000F0B50F4B93F84A20C2EBC2030D4AD2F8EF
:108B0000242402EB8302D2E905329A4201D80020E4
:108B10000AE0D0E90067D3E90045AF4208BFA642AA
:108B200003D19B680B600120F0BD1033EDE700BF5F
:108B3000602D0020E83800202DE9D04F124B93F82B
:108B400020C4D3F8241400224FF000084FF000098D
:108B5000944501D1BDE8D08F0B781BB1D1E9053424
:108B6000A34203D30132D2B21C31F1E7D0E900674E
:108B7000D3E900AB5F4508BF564501D01033EFE79E
:108B8000C3E90089EEE700BFE83800207FB50E4654
:108B900015461946D0E90223044652EA03002ED0B6
:108BA00031B168468DF80850CDE9002309F07EFD0B
:108BB0005DB11549154AD1F8F430E31ADB1053437F
:108BC000D1F8FC2052F83330E3B92378012B0DD1D2
:108BD0004FF6FE73ADF80030A368CDF80230694659
:108BE000E368CDF80630032037F046FB04F10805B2
:108BF00016B12846FBF7CAF92846FFF79DFF204625
:108C0000FDF75CFF04B070BDE8380020CDCCCCCCC3
:108C10002DE9F74300268DF8076042884FF6F77379
:108C20009A4204460F4640F2C980037803F00303DA
:108C3000012B00F0C3806A4D80886A8F82422BD05E
:108C4000E179F8F751F900F0FD03012B064623D135
:108C50000DF107015C2033F057FE9DF80750002D01
:108C600041D162884FF6F7739A4213D9A088FB8AE4
:108C700083420FD0FCF77AF860B14278022A09D11A
:108C8000047804F0FB04012C04D12B462A46294623
:108C9000FFF77CFF012526E095F82E30514D022B81
:108CA00025D0A08894F80780D5F8E02095F8E5E075
:108CB00000230FFA83FC02EBCC0191F80390B9F189
:108CC000000F06D032F83CC0844502D18978414576
:108CD0001DD00133DBB27345EBD9022E17D0012131
:108CE000FCF748F90025284603B0BDE8F083637817
:108CF000DA060CD57B68D3F80080D3F8049028F00E
:108D000031FBD0E90023994508BF9045C9D1D5F87A
:108D1000DC2295F8E002B4F804C094F807E00023E0
:108D2000012402F1060802F10409D9B28842D9D916
:108D300052F83310DE0000293CD018F8331071458A
:108D400038D139F83310614534D1F88AFCF70EF880
:108D50000028C7D0D5F8F430C01A234BC0104343C5
:108D6000D5F8FC0000EBC300C37923EA0403C37108
:108D70002046F9F74BF80028B4D0D5F8DC321B4870
:108D80009C5921463BF042FD0028ABD0AB6E002B36
:108D900014BF0123002385F8503002D1144837F066
:108DA0000DFC0321E17114F8152CA4F13800FFF734
:108DB0004DFA97E76400E4B20133B6E76378DB0766
:108DC0007FF546AF064BA0885B8F83428AD0E1795E
:108DD000F8F78AF800F0FD0001283FF439AF81E789
:108DE000602D0020E8380020CDCCCCCC50390020BC
:108DF0003C3900202DE9F74F174606460D46002462
:108E00000DF107015C208DF8074033F07DFD7B7D7F
:108E1000012B21D933784FFA83F95A0603F0200841
:108E2000C3F340164FEAD9771AD56A884FF6F7731D
:108E30009A4211D8504B93F82E20022A07D11A8853
:108E4000AB889A4208D1B8F1000F6AD160E093F87C
:108E50005240002C40F08B80204603B0BDE8F08FDC
:108E60006B78DB0601D40124F6E7A868E968FCF713
:108E700059FF0446002867D0012332461946FFF700
:108E800085FEB8F1000F2ED1AC8800212046F7F7FF
:108E9000D1FD3A4AB2F8AC12D2F8A832C1EBC10106
:108EA0001944187910F0010F06D0B3F802C0A44598
:108EB00004BF6FF30000187107338B42F1D3D2F86F
:108EC000A833B2F8ACE3043300224FF6FF707245CA
:108ED0000CD033F8041C8C423AD123F8040C013234
:108EE00092B21433F3E72046FDF7E8FD9DF8072022
:108EF000214B1AB993F82E20022AB4D1AA881B88D4
:108F00009A42B0D1B9F1000FADDAB8F1000F03D138
:108F10000021352037F0B0F9174B93F82E30022B93
:108F200008D1154B00200021C3E910013946304615
:108F3000FBF75EFE104B93F82E40012C93D139467F
:108F40003046FBF755FE87E7B8F1000FCED19BE71F
:108F50008142C4D033F802AC9C4600215145BED0BA
:108F60003CF802BB5C45B8D0013189B2F6E7B8F1F4
:108F7000000FDFD1CCE700BF602D0020E8380020D3
:108F800070B5134D134ED5F8F4402178062912D050
:108F9000D5F8F430D5F8FC00E31ADB10734350F831
:108FA000332072B9481E41424FF0000341411A4636
:108FB0002046FFF7EBFDD5F8F83028349C42E4D387
:108FC00070BD013A40F83320002AF4D1EAE700BF2F
:108FD000E8380020CDCCCCCC07B529200DF1070115
:108FE00033F092FC9DF8070028B1054B93F84B0035
:108FF00008B193F84C0000F0010003B05DF804FBE9
:10900000602D00202DE9F347044628B1D0F89030B8
:1090100013B190F8B13043B9BD4B43F2B0121A808E
:109020003CF02AFB02B0BDE8F087BA4A90F8B7607E
:109030001B2380F88E3092F834305B0080F88B3040
:1090400090465EB194F8B030B0F8AC00022B13D16A
:10905000538F834202D0F8F723FA0646AE4B84F8CA
:10906000B7601B78DB0710D456B1002384F8B73003
:109070002046FBF70BFED5E7FF21FBF72BF9ECE7CA
:10908000C2212046F8F772FFCCE794F8B030012BEC
:1090900058D0022B03D09E4B43F2B112BFE7B4F875
:1090A000AC204FF6F7739A424FD8002EDDD10DF168
:1090B00007014FF498708DF8076033F025FC9DF898
:1090C0000750002D3CD0B4F8AC7031463846F7F765
:1090D00095FCA8BB3846F7F7A7FB88B34288D3B204
:1090E000591CC9B252B3D4F890204F00FFB2D21B22
:1090F00003F1FF3C137082F801C004309BB21FFAE9
:1091000086FC9C4512D30837FFB22E461E2384F8F6
:109110008B1084F88E3094F8B830C3B1B4F8AE2018
:109120004FF6F7739A4212D9C121AAE702EB460C17
:1091300030F802EBACF802E00136E0E70827E5E79B
:109140000827E8E709270026E5E70827FBE7D4F822
:1091500090A0C7F1000900222AF809201AF8093066
:1091600062F301030AF8093098F8331061F38503BC
:109170000AEB09050AF809306B78AA7043F002037C
:109180006B7094F8B830EA70002B5AD0B4F8AE3057
:10919000AB8094F8B930EB7198F834305B00FF2B5A
:1091A00028BFFF23AB7198F82E30022B53D198F8CB
:1091B0005320003218BF01226B7862F3451366F327
:1091C00082036B70FFF708FF94F88F3018B194F8A2
:1091D000B520002A41D16A786FF341026A706FF3BB
:1091E000410384F88F30B4F8AC306B8094F8B2301F
:1091F000002B3AD0AB7194F8B030012B3FF440AF64
:109200006B786FF300036B70B4F8AC304FF6F77205
:1092100093424AD90832934203D005339BB2022BC2
:1092200082D81C2384F88E3094F8B83073B394F845
:10923000B910B4F8AE00F7F757FE02282AD1D221B0
:109240001FE7B8F83A30AB8098F80A300133DBB248
:1092500088F80A309FE70022AEE7B4F8B620003263
:1092600018BF012262F34103BBE798F83430AA79B2
:109270005B00FF2B28BFFF23DBB29A42BBD0244BFD
:1092800043F2B7121A803CF0F7F9B4E7E979B8F87D
:109290003A00D0E7AB79012B07D9B8F83A20EB793F
:1092A000114604F14000F7F733FA94F88E301B2B87
:1092B00009D194F8B43033B11AF80930012262F3BD
:1092C00087130AF809300023E36484F84830C4E9BE
:1092D0001433A4F84430B8F83A30A4F8883094F83D
:1092E000B130E4601F44D4F8903084F838704B44B7
:1092F00063620A493D2036F053FF94F8B730002BE3
:109300007FF4B6AE04F10800F8F762FA8AE600BF0F
:109310005C2F0020602D0020E83800204C1C01202C
:1093200043789B0710B5044606D5094B93F82E30B9
:10933000022B06D1002010BDFFF74EFE0028F4D00E
:10934000F8E7A079012894BF00200120F3E700BFCF
:10935000602D00202DE9F047446A237803F03C0299
:109360000C2A8EB0054606D1B24B1B6D03B198474F
:109370000EB0BDE8F08790F82070012FF8D9AE4EFE
:1093800096F83310C3F383028A42F1D103F003034A
:10939000032B02D103F0F8FFEAE70278022AE7D1B3
:1093A000027C022AE4D1072FE2D9A279002ADFD079
:1093B000A1884FF6F7729142DAD8002B48D19F4B23
:1093C0001B7813F0010FD3D004A92046B5F808A0EC
:1093D00095F8289095F92A80F7F78CF89DF82430B5
:1093E00095F82020ADF826A0FF1A9A428DF8257036
:1093F0008DF828908DF82980BAD363789B0731D5F2
:109400006078870766D404A92046FCF70BFE002885
:10941000AED06778BB0600F18D8017F00109A7D1A7
:1094200060884FF6F773984240F29F80F8F738F85B
:1094300000289DD0B80740F190802046FFF770FFCC
:109440001623009004AA21462846FEF76FFC8FE7FA
:10945000012B8DD16378DA078AD4784B1B7813F00F
:10946000200FB0E70DF10F01292033F04DFA9DF8E0
:109470000F30002BC4D096F84B30002BC0D0704A70
:109480002378127D03F00303D2B9002B3FF470AFB1
:10949000089B1B78062B7FF46BAF6378D90709D53F
:1094A000237A9A077FF464AF6288738F9A427FF4BD
:1094B0005FAFA5E762884FF6F7739A42F4D957E792
:1094C000012B03D1089B1B78072BF0E7002B7FF4BF
:1094D0004FAF95E7059999B1237803F00303012B6A
:1094E00003D1089B1B78062B0AD0A2884FF6F7738E
:1094F0009A423FF63DAF0A684B6813433FF438AFDA
:109500000499002985D0C7073FF532AF62884FF62E
:10951000F7739A423FF62CAF738FA08898423FF4BE
:1095200078AF9A423FF475AF0A684B6813437FF4F3
:1095300070AF1DE796F82E30022B3FF419AFA088CC
:10954000FBF714FC18B14378022B3FF466AF2A787E
:10955000D5E90201FBF714FB0AE704A92046FFF74F
:1095600057FB00287FF469AF02E72378A08813F047
:10957000030F2B890CBF4FF015084FF014088342DE
:109580000FD0FBF7F3FB60B14378022B09D10278CF
:1095900002F0FB02012A04D14B464A464946FFF736
:1095A000F5FA6088738F984211D1049B1BB9002390
:1095B0000093434646E71E685F6827F0D3FED0E974
:1095C00000239F4208BF96427FF4D2AEEFE7A28805
:1095D0009A422AD02046FFF7A3FE00283FF4C8AEE7
:1095E0006088F7F73BF895F82010A0B10220F7F754
:1095F000F7FB0646A0B101230022CDE9003229463F
:1096000043462246F7F752FE33789907304604D591
:10961000FAF718FAACE60520E9E7F9F7E9FFA7E65B
:10962000E179A088F6F71EFFA2E60021F7F702FA1B
:109630009EE600BF00080120602D0020E8380020D1
:109640004C1C012013B504460DF1070140F2211016
:1096500033F05AF99DF80730A34225BF034B002091
:10966000C12083F8204402B010BD00BFE8380020BC
:10967000036801330ED041780378074A43EA012397
:10968000A2F84E308378C17843EA0123A2F8503023
:1096900000207047C1207047602D00207FB5144620
:1096A00002AA05460E46FAF79BF9029B1BBB002255
:1096B0000023CDE9022302A901AA2846FAF790F96E
:1096C0000199D9B9FEF7D6FCA8420BD2FFF72CF9C5
:1096D000002804DA002302A80293FFF7C9FF2846F6
:1096E000FEF74EFC2368002B03DA0021402036F001
:1096F000C3FD04B070BD22689A60E3E7D6E9002399
:10970000C1E9002323688B60DCE7F0B5027885B0FF
:109710000446B2BB10F8583C50F80C5C40F8545C5E
:1097200062F3410300F8583CA0F1480610F8073CEA
:1097300000F8503C31462846F6F7DCFE14F8503C61
:1097400014F8342C9B1A04F8333C3D4B1B789807D3
:1097500007D4AA8834F8323C9A4202D12846FEF750
:1097600073FA31462846FCF75DFC50B154E90A23F0
:1097700034F8320CFCF7ECFA31462846FFF748FA89
:1097800028B9A4F1D800F8F7BFFB05B0F0BD14F874
:10979000583C03F0F803B02B0AD1AB79012B07D961
:1097A000EB79AA8834F8321CA4F12000F6F7B0FF58
:1097B00014F8583C5907A4F1580738D52B789A0764
:1097C00011D1D4F80320D4F80730A078CDE90223D2
:1097D00002A9D4F80B30019301AAFFF75FFF3846C6
:1097E000F7F714FED1E72946324654F8380CF7F75C
:1097F0000FFC54F8383C1B78042B05460DD0D4F8E8
:109800000320D4F80730A078CDE9022302A9D4F8C8
:109810000B30019301AAFFF741FF14F8583C13F0F5
:10982000010F08BF002565F3000304F8583C14F845
:10983000583CDB07A5D53846F9F7DAFEA5E700BFA7
:10984000E838002008B5014608483AF0B5FF084B53
:1098500093F880219A2A07D1452283F88021062097
:10986000BDE80840F7F77EBE08BD00BF643A00209F
:10987000E838002038B50A4B1B78802B08D0094DFA
:10988000002455F8043B2BB90134E4B2142CF8D170
:10989000002003E098470028F6D1012038BD00BF22
:1098A000E838002010AD030110B50C46FFF7E2FFC9
:1098B000237880F001001840207010BD08B5074BD8
:1098C00093F82E30022B07D0F7F7CEFCF7F78AFC7F
:1098D000BDE80840F8F730BD08BD00BF602D00208E
:1098E000034BD3E91023134314BF0120002070471A
:1098F000602D002008B5014608483AF05DFF084B8E
:1099000093F8E822312A07D1A32283F8E822012024
:10991000BDE80840F7F726BE08BD00BFD43B0020D5
:10992000E838002037B5C37C027805462BB1D0E972
:109930000201FBF725F903B030BD022A27D10089C7
:10994000FBF714FA04460028F5D00DF10601232098
:1099500032F0DAFF95F91220297C2046FCF740FB13
:10996000BDF80630DB0702D52046F7F7A1F90B4A10
:10997000D2F8F430E41A0A4BE4106343D2F8FC4006
:1099800004EBC304A37943F04003A371D3E7032A94
:10999000D1D1D0E90201FCF7C5F9D3E7E8380020BE
:1099A000CDCCCCCC704710B5184C217A60680B46F2
:1099B0000133DBB2182B28BF002320FA03F2D207B1
:1099C0001FD501229A4042406260114A237202EB85
:1099D0008303D3F8743298476368ABB10D4C238886
:1099E0001B0711D42FF008FD238843F008032380C0
:1099F0002FF012FD084B09481B68BDE810401B6999
:109A000018479942D4D1E7E710BD00BFE8380020DD
:109A1000ECAA03011A0A012050340020543400201B
:109A200013B50A4B4FF4806093F8344027F0B4FC30
:109A3000074B93F832301844444301A9342032F0E4
:109A400063FF019804EB400002B010BD602D0020C0
:109A5000982C002013B5114C00234FF4800084F89B
:109A60002834C4F82C34F7F7A1F804F5866036F0F2
:109A7000A5FD012384F83C3401A9094BC4F8403406
:109A8000352032F041FFFFF7CBFF019BFA3003EBAB
:109A90004003C4F8383402B010BD00BFE8380020DD
:109AA0001D3B00012DE9F7430778E74C002F40F0FC
:109AB0004882E64E96F82E204FF6FF73338001233E
:109AC000002A40F04882777200254FF00108756047
:109AD00086F8533086F8548075803DF09BFA3582C5
:109AE000B07286F81280FEF763FFFDF717FCF9F7F6
:109AF000C7FBF9F705FBD6493D2036F051FBD449A9
:109B0000502036F04DFBD249512036F049FBFAF790
:109B1000C9FFD04884F8505036F050FD2023E3654B
:109B2000CD4B84F860500820C4E91935F7F73EF8AA
:109B300041234FF4804084F84C302564A564F7F746
:109B400035F8C6494FF4847032F0DEFEC44940F265
:109B5000062032F0BFFE94F87020E16EA8464FF464
:109B6000A070EBB29A4200F2FB814FF40010C4F8EF
:109B70007480F7F71BF8DA234FF4806084F8003222
:109B8000C4F88881F7F712F8B64884F80182C4E96E
:109B9000638836F013FDB7234FF4007084F87831F2
:109BA000C4F87481F7F702F8D6234FF4807084F874
:109BB0003C3084F87981C4F83880F6F7F7FF9A23AF
:109BC000402084F88031C4F87C81F6F7EFFF0DF176
:109BD000030140F20D1084F88181CDF804808DF8E6
:109BE000038032F091FE01A94FF4037032F072FE4F
:109BF0009DF80320019BC4F8E0307F2A28BF7F2214
:109C000084F8E420002503EBC202934240F0AE81C9
:109C1000954884F8E5504FF048093CF023FC4A464B
:109C2000002192483DF0A8FAE62384F8B9303123A8
:109C3000A4F8E8328E4BC4F80833022384F8F832D3
:109C4000C4F8EC52F7F71AFA8A494FF4857032F0EB
:109C50005BFE894940F2092032F03CFEB4F8AC22A8
:109C6000D4F8A802C2EBC20200214FF001083DF077
:109C700083FA84F8AE82F7F75BFA1020C4F88052BA
:109C8000F6F794FF3DF0C6F901A986F82D004FF4D0
:109C90008A7084F8845232F037FE84F87C52F7F7E9
:109CA0003DFA764884F87C5236F088FC3DF0B2F9F3
:109CB00041F64C5280B2B0FBF2F302FB130312FAEE
:109CC00083F3C4F858326E4BC4F86032019BC4F879
:109CD0006C326C486C4B6D4EC4F8743284F85C8204
:109CE00084F8708284F87A52A4F8785236F066FCD0
:109CF0004022002166483DF03FFA802084F810920F
:109D0000F6F754FF634BC4F80852314640F209108D
:109D10007560C4F8483284F8448232F0F5FD311D94
:109D200040F2072032F0D6FD94F80822D4F80C0255
:109D3000920100213DF020FA13234FF4005084F8E3
:109D4000C430C4F8C050F6F731FF06F5A07036F005
:109D500035FC3022002106F598703DF00DFA922373
:109D60002422002106F5847084F838333DF004FA8B
:109D700027232822002106F5B07084F810333DF027
:109D8000FBF9FB2384F86833782340220021A4F8F0
:109D9000D432A6F1F000404BC4F8C032C4F8B85237
:109DA0003DF0EAF9AA23042084F85231F6F7FEFECA
:109DB00014220021A6F1B0003DF0DEF901A94FF414
:109DC00098708DF8045032F09FFD9DF8043053B127
:109DD000F8F7B2F91822002106F5C4703DF0CCF96D
:109DE000892384F8903300258E234FF4004084F8B3
:109DF0007031C4F86C51F6F7D9FE2E234FF4803041
:109E000084F8B432C4F8B052F6F7D0FE234940F2D9
:109E1000031032F079FD224940F2052032F05AFD5C
:109E2000B4F8AC33D4F8A80314225A43FF213DF010
:109E3000A3F94FF40030A4F8AE53C4F8D852F6F7A3
:109E4000B5FE66232EE000BFE8380020602D00201C
:109E5000A01C01203C3900207188000158390020E5
:109E6000543900207C3A0020B039002060390020AD
:109E700029260001943B0020903B00204C3B002011
:109E800015300001203B002031300001F03A002065
:109E9000F83A0020110C0001390B0001943C00201D
:109EA000903C00204FF4802084F8B033C4F8B453C1
:109EB000F6F77CFE16234FF4002084F8F033C4F844
:109EC000F453F6F773FE4FF48010F6F76FFE2B494C
:109ED00040F2212032F0FEFC29494FF48B7032F021
:109EE00013FD94F8E032D4F8DC12082B28BF0823C5
:109EF00084F8E0322E46EAB293423BD8214DFFF778
:109F0000A9FD294640F22F10C5E9006632F0FCFC9D
:109F1000291D40F2232032F0DDFC4FF40000F6F75B
:109F200045FE94F84424D4F8480402EB4202D200DF
:109F300000213DF021F9FAF715FAF6F7B5FF3623BF
:109F40002370636900201F72F7F70CFBC223237490
:109F500003B0BDE8F0837372931E18BF0123B3E50D
:109F600000FB05F3013501F80380FAE5DD705D6063
:109F700008334AE641F835600135BCE7C43B0020B0
:109F8000C83B00202C3D0020054BC3F8402319227C
:109F9000A3F83A0383F83C1383F83823F6F720BE7E
:109FA000E838002008B5014607483AF005FC074BA1
:109FB00093F828243AB9012283F828241620BDE812
:109FC0000840F7F7CFBA08BD143D0020E83800205C
:109FD00010B50C4B93F853309B0712D50A4CFFF782
:109FE00039FD002384F8593004F15801074BE3652B
:109FF000222032F089FC04F15400BDE81040FFF744
:10A00000D1BF10BD602D0020000801203D250001BA
:10A0100020E507B522200DF1070132F075FC0B4A4F
:10A020000B4B13619DF8070000231373FCF772FAC2
:10A030000323B0FBF3F003F2E53343431046936090
:10A0400036F092FA03B05DF804FB00BFB83D002083
:10A05000D19F0001014836F0B1BA00BFB83D0020E1
:10A0600008B5094B93F82E30022B08D0074836F07C
:10A07000A5FAF7F753F8BDE80840F8F75DB8BDE872
:10A080000840FFF7E7BF00BF602D0020EC3900203B
:10A0900010B51446FBF746FE014668B10378012B64
:10A0A0000AD10E2C0AD82046FCF734FA086208467A
:10A0B000F6F7FEFD002010BDC820FCE7C120FAE73E
:10A0C0002DE9F3411A4CB4F8008064684FF0300C6D
:10A0D0000CFB014C884507D84FF6FC73ADF80430F3
:10A0E00000238DF806300AE09CF80AE00EEA02042C
:10A0F0009C4218D178B9ADF804108DF806E0BDF88F
:10A100000430002063F30F00BDF8063063F31F40F6
:10A1100002B0BDE8F081DCE90067D0E90045AF425C
:10A1200008BFA642E7D0013189B20CF1300CD1E76B
:10A13000F0FC002030B4284CA2688242214606D9A7
:10A14000264B44F2824230BC1A803BF095BA247808
:10A15000831AE820B3FBF0F3DBB29C4203D81F4B19
:10A1600044F28342EFE700FB032393F8D820520820
:10A17000032A07D8DFE802F002020E020A790AB1C8
:10A18000013A0A7193F8D8206FF3000283F8D820BF
:10A1900030BC7047CA780AB1013ACA70D3F8A850E7
:10A1A0000C69A542A5EB04024FF06000B2FBF0F28F
:10A1B000D2B203D2094B44F28442C4E749789142B7
:10A1C00003D8064B44F28542BDE74243A15C002917
:10A1D000D8D00021A154D5E7E83400205C2F00201E
:10A1E00010B1D0F880302BB9044B44F272521A806F
:10A1F0003BF042BA00F8871F184700BF5C2F0020D1
:10A2000013B5044601A9342032F07EFB034B986855
:10A21000019B00FB043002B010BD00BFF0FC002029
:10A22000F7B52D4A0024157896688DF80740E82781
:10A23000E3B2AB4233D207FB0463013493F8D81086
:10A2400011F00101F4D10228C3F8A8101FD014792D
:10A250009578A54223D90134147193F8D920596017
:10A2600061F3071283F8D920B3F8D82083F8E010FF
:10A2700022F4706222F0010242F00102A3F8D82019
:10A2800060F3470283F8D82000221A6010E0D578E6
:10A290005478AC4203D9177B16698F420BD1012346
:10A2A0000DF1070146208DF8073035F0E5FF00235A
:10A2B000184603B0F0BD344616F860CBBCF1000F71
:10A2C00007D101350121D57004F84A1BC3F8A84015
:10A2D000CAE70131C9B2E0E7E8340020D0F8BC3069
:10A2E00070B5044680F8B9102BB9094B44F2F55209
:10A2F0001A803BF0D3F92546412015F8B91F35F0F7
:10A30000BBFFD4F8BC302846BDE87040184700BFFA
:10A310005C2F0020D0F89C3010B5044680F89810CF
:10A320002BB9064B44F2F5521A803BF0B7F9D4F83A
:10A330009C3004F19800BDE8104018475C2F0020C5
:10A3400010B5044628B90E4B44F243521A803BF034
:10A35000A5F9637884F8273094F8303084F82630F3
:10A36000D4F822302BB9064B44F244521A803BF009
:10A3700095F9D4F8223004F12600BDE810401847C2
:10A380005C2F002070B50D46044608B1C36F2BB991
:10A39000064B44F292521A803BF080F92046E36F5C
:10A3A00000F8795FBDE87040184700BF5C2F0020BF
:10A3B000002310B580F83C30836B04462BB9064B64
:10A3C00044F244421A803BF069F9A36B04F13C006B
:10A3D000BDE81040184700BF5C2F0020024A137BE5
:10A3E00001331373FEF70EBEF0FC002038B544694C
:10A3F00005462CB9194B44F268521A803BF04EF9CD
:10A40000D4F8903013B194F8B1302BB9134B44F217
:10A4100069521A803BF042F9114BC4F8983002237C
:10A4200084F8B030AB88A4F8AC3095F85C3084F890
:10A43000B530002384F8B230297FC4F8945001224B
:10A4400084F8B42084F8B61084F8B72084F8B830C3
:10A450002046BDE83840FEF7D5BD00BF5C2F002088
:10A4600025E40001F0B5044687B018B143680BB18C
:10A4700003682BB92C4B44F253621A803BF00EF95F
:10A4800063689D6A2A466B4652F8050F516803C3FC
:10A490002B79042B21D0244B44F254621A803BF0D8
:10A4A000FDF8EB788DF811302B7922688DF810309B
:10A4B000106851681D4D02AB03C32C69012605F1DC
:10A4C000100784B92B6913B9194836F077F802A838
:10A4D00007F064F8012007B0F0BD684626F04EFF93
:10A4E0000028D8D0DDE794F8A830042B19D19DF8C6
:10A4F0001030042B15D1D4E92801DDE9022399425B
:10A5000008BF90420DD184F89960214638463AF050
:10A510007DF994F89A3023B19DF811102046FFF789
:10A52000DDFE2468CDE700BF5C2F0020F0FC00209A
:10A5300004FD00202DE9F041204DAC6A8046012643
:10A5400005F1280734B9AB6AABBB1D48BDE8F04143
:10A5500036F034B894F88830022B20D0042B26D063
:10A56000012B1AD198F80A3003F0FB03012B14D108
:10A57000D8E90001D4E924238B4208BF82420CD1E0
:10A5800084F87860214638463AF040F994F87930FA
:10A590001BB100212046FFF7BDFE2468D2E798F8E2
:10A5A0000A30023B012BF8D8D8E90601E2E798F817
:10A5B0000A30042BDBE7BDE8F08100BFF0FC00208F
:10A5C0001CFD0020012370B580F8753090F87430C0
:10A5D000061FB3B9036F93B1A9B105240A4D3146E3
:10A5E00005F128003AF012F9AB6A1BB905F12C000D
:10A5F00035F0E4FF21463046BDE870408AE6042489
:10A60000ECE70024F6E770BDF0FC002090F89530F0
:10A6100070B50124061F80F89640ABB9036F8BB16B
:10A62000A1B10B4D314605F110003AF0EFF82B695E
:10A630001BB905F1140035F0C1FF21463046BDE8D5
:10A6400070404BE60224ECE70024F6E770BD00BF43
:10A65000F0FC002070B504460D4619B1B1F1E905D2
:10A6600018BF01250E4E211F06F140003AF0CEF82A
:10A67000336C1BB906F1440035F0A0FFD4F88030EC
:10A6800084F87E502BB9074B44F264621A803BF089
:10A6900005F8D4F8803004F17E00BDE8704018471A
:10A6A000F0FC00205C2F002030B5054689B018B1C1
:10A6B00043680BB103682BB9134B44F262621A80F2
:10A6C0003AF0ECFF6B689C6AE378042B05D00E4BE4
:10A6D00044F263621A803AF0E1FFE3782A688DF869
:10A6E00000301068516802AB03C3234604AA53F834
:10A6F0000C0F596803C29868D96803C268462CF0E9
:10A7000011FF012009B030BD5C2F002038B5044690
:10A7100028B90D4B44F227621A803AF0BFFF637BE1
:10A72000A4F19C055BB954F8080C0378052B06D1FD
:10A730008288238A9A4202D1083006F0C4FE284655
:10A74000BDE83840FDF750B85C2F002010B5A0F1EF
:10A750009C0428B9054B44F235621A803AF09EFFFA
:10A760002046BDE81040FDF73FB800BF5C2F002039
:10A7700070B5B0F13C06044650F8285C05D11D4B7D
:10A7800044F265521A803AF089FF237803BB22799C
:10A7900014F8303C9A4205D9164B44F266521A809E
:10A7A0003AF07CFF237985F8B13054F80C3CC5F8B9
:10A7B000903054F8243C2BB90E4B44F267521A8067
:10A7C0003AF06CFF54F8243C3046BDE8704018471E
:10A7D000236B2BB9074B44F26D521A803AF05EFF9F
:10A7E0003046236B022198472846BDE87040FCF7AD
:10A7F000FBBF00BF5C2F002030B5044685B018B108
:10A8000043680BB103682BB90C4B44F293521A8086
:10A810003AF044FF636893F82420042A0BD122689D
:10A820009D6A106851686B4603C36846EB788DF8E3
:10A83000083006F0D3FD012005B030BD5C2F0020AC
:10A8400070B5436893F82460036886B004462BB95A
:10A850000F4B44F2F4521A803AF020FF63682168EB
:10A860009B6ADD788DF80850086849686A46022DB1
:10A8700003C206D10C2E07D153F8040F596804AA5D
:10A8800003C268462CF0B2FD012006B070BD00BFC7
:10A890005C2F00201FB5044618B143680BB1036854
:10A8A0002BB90E4B44F283521A803AF0F7FE6368DC
:10A8B00093F824200B2A0ED121689A6A0868496807
:10A8C0006B4603C3D2F80310D2F807306846CDE9CF
:10A8D000021306F09DFD012004B010BD5C2F002086
:10A8E00010B5044688B018B143680BB103682BB9A2
:10A8F0001C4B44F273521A803AF0D0FE636893F80E
:10A9000024200E2A2AD11A8C2168ADF80620086866
:10A9100049689B6A02AA03C2D3F80310D3F8072040
:10A92000CDE90412197BDA7A42EA0122ADF81A2045
:10A930005B7B8DF818300DF105015C2031F0E4FFF0
:10A940009DF805302BB9DDE90423BDF81A00FBF7AB
:10A95000FFF90DF1060102A83CF09EFA012008B0B3
:10A9600010BD00BF5C2F002070B53049304C4FF453
:10A97000887031F0C9FF2F4940F20E2031F0AAFF54
:10A980000023217B206960251E46DAB291423ED821
:10A99000274940F20F1031F0B7FF274940F20D2050
:10A9A00031F098FF2278A5680023E826D9B28A42C0
:10A9B00032D8237B63702149A27000234FF4947036
:10A9C000E370237131F0A0FF1D4940F2291031F0EE
:10A9D0009BFF1C494FF48C7031F096FF94F8733153
:10A9E0004BB1194940F20F2031F074FF17494FF471
:10A9F000047031F06FFF94F8731194F87431A26908
:10AA000001FB0323E361002384F8723170BD05FB71
:10AA100003F201338654B8E706FB0351013391F882
:10AA2000D8006FF3000081F8D800BFE7F4340020AD
:10AA3000E8340020F8340020F03400208436002070
:10AA40005C3600205B360020003500208036002078
:10AA500010B5144C40F2122004F15C0131F03AFFC1
:10AA600004F1580140F2171031F04EFF94F85830BD
:10AA700022464BB1E16D39B90B4B44F22942BDE896
:10AA800010401A803AF0F8BDD26D03EB830302EB5D
:10AA9000C303A8219A4200D310BD82F820102832A7
:10AAA000F8E700BFF0FC00205C2F002073B5304CAD
:10AAB000636805460BB1236E2BB92E4B44F222522C
:10AAC0001A803AF0EBFDD5E900234FF0FF316FF02B
:10AAD0000600994208BF90421CD200230122194669
:10AAE0001846FFF7EDFA0526009000B2031D28D1A5
:10AAF0004FF6FD73ADF8043000238DF80630BDF835
:10AB00000430002063F30F00BDF8063063F31F40EC
:10AB100002B070BD184B1E7801231A46002128464A
:10AB2000FFF7CEFA009000B2021D46F0010608D1F0
:10AB30000023012219461846FFF7C2FA009000B21E
:10AB4000D4E7236EADF80000002243F8302003EB79
:10AB5000C00163684A60D5E9004500EB400103EBA2
:10AB60000113C3E900459E721A81009B0193C6E759
:10AB7000F0FC00205C2F0020841F0120702208B50B
:10AB800000213CF0F9FA0122A0F85C20002280F8B4
:10AB90005E2008BD70B50D46044610B1D0F8843073
:10ABA0002BB90E4B44F282521A803AF077FD6DB900
:10ABB000D4E91E01FBF7B6F820B101232A46294645
:10ABC000FDF7E4FF04F17800F9F7E0F92046D4F846
:10ABD000843000F8805FBDE8704018475C2F00208B
:10ABE00070B5104DAC6A05F1280634B9AB6ABBB13B
:10ABF0000D48BDE8704035F0B7BC636F1BB1013B39
:10AC000063672468F1E794F87930002BF9D0214686
:10AC1000304639F0FBFD04212046FFF77BFBF0E7CF
:10AC200070BD00BFF0FC00201CFD002070B5114D70
:10AC30002C6905F1100634B92B69D3B10E48BDE873
:10AC4000704035F091BC636F1BB1013B63672468B2
:10AC5000F1E794F89A302146304633B139F0D6FD09
:10AC600002212046FFF73AFBF1E739F0CFFD012141
:10AC7000F7E770BDF0FC002004FD00202DE9F84F3F
:10AC80002E4C80460D4691462EF01EFE94F8643000
:10AC90003BB32B4EE16E96F800E0B368421AA1EB8D
:10ACA000000A4FF0000C4FF0FF3740F2012BE64551
:10ACB00024D15DB9D6F8683143B19A423CBFCD1872
:10ACC0002D1AAF42C6F8685128BF2F464F453A4665
:10ACD0001C481D4B28BF4A4601213BF0A7FB1948E1
:10ACE00008E004F16400184B4A4601213BF09EFB4A
:10ACF00004F16400BDE8F84F3BF0ACBBB3F8D840BA
:10AD000024F0FE042405240D5C4511D193F8D840AD
:10AD100004F0FA04022C0BD15C684CB1434507D017
:10AD200094428CBF54440024A7425C6028BF27464D
:10AD30000CF1010C5FFA8CFCE833B8E7F0FC002062
:10AD4000E834002054FD002039B300012DE9F04122
:10AD5000294BDC6D93F8583003EB830304EBC306F7
:10AD600090F8203005460F4633B900F11008B44280
:10AD70000AD385F8207005E0204B44F225421A8062
:10AD80003AF07AFC002433E094F82030A42B01D070
:10AD9000AA2B19D12A7A237A9A4215D16A89638912
:10ADA0009A4211D1D4E90001D5E90023994208BFA4
:10ADB000904209D12A7B237B934205D1012B05D1F7
:10ADC0002A8A238A9A4213D02834D0E7032B03D04F
:10ADD0000A4B44F22642D2E72A7E237E9A42F3D1DE
:10ADE000082204F1100140463CF09EF80028EBD107
:10ADF0002046BDE8F08100BFF0FC00205C2F002061
:10AE0000084A536853B100280ADB118882B2914284
:10AE100006D900EB400003EB00130B3318467047D4
:10AE20000023FBE7F0FC0020074B82B01A6E5B6842
:10AE3000019022F8310001EB410103EB0111BDF853
:10AE400006300B8102B07047F0FC0020027812F04F
:10AE500003030DD102F00C030C2B18D013061CD5E4
:10AE6000037A13F0030F14BF0A230923184670470F
:10AE7000012B0ED0022B0ED1D106F7D413060CD520
:10AE8000037A13F0030F0CBF09230B23EEE709230A
:10AE9000ECE70223EAE70023E8E70823E6E710B53A
:10AEA0000E4A0F4C012303FA00F092F87C3018434D
:10AEB000238882F87C009B060ED42EF09DFA23880E
:10AEC00043F0200323802EF0A7FA064B06481B68A8
:10AED000BDE810401B69184710BD00BFF0FC002002
:10AEE0001A0A0120503400205434002008B5064BC3
:10AEF0001A7B0146013A03F180001A7339F05CFCB9
:10AF00000120BDE80840CAE7F0FC002050F80C3CE6
:10AF100010B5FF210446B3F80100F9F7DBF950B191
:10AF2000074B44F8043C0023E376A4F19C00BDE801
:10AF30001040F9F7ABBE2046BDE81040D6E700BF91
:10AF4000EDAE000108B580F8DA1000F10C010348FD
:10AF500039F032FC0220BDE80840A0E7C4FD002023
:10AF6000234B03F5A972C3F8C820B3F86C21A3F8EA
:10AF7000E420204AC3F8D0201F4A83F8720140F62B
:10AF80000231C3E93A12822283F8522193F87921DF
:10AF900083F85321B3F86E21A3F85421B3F870213C
:10AFA000A3F8562193F8782183F8582193F87A2151
:10AFB00083F85921022283F85A2193F8762183F8E5
:10AFC0005B2193F8772183F85C2193F87B2183F848
:10AFD00009210021AF2A83F8F010C3F8681103D0CB
:10AFE0000B2103F12000ADE703F13800FFF7F6B9BC
:10AFF000E834002075BA00010101000110B50446D3
:10B0000028B9084B44F260521A803AF047FB0023FB
:10B01000A3652146044839F0CFFB0320BDE810406A
:10B020003DE700BF5C2F0020C8FD002038B5044676
:10B0300000F1080528B90D4B44F233621A803AF04A
:10B040002DFB41F20133A4F86430032384F8663009
:10B0500004F18003E366064B2367064B63672423F2
:10B0600084F868302846BDE83840C7E75C2F0020E8
:10B07000D5BE000109B1000138B5044600F108054C
:10B0800028B90D4B44F213621A803AF007FB2846A8
:10B09000FFF774FD112384F86530032384F86630CC
:10B0A000064B2367064B63671D23E46684F868300C
:10B0B0002846BDE83840A1E75C2F002081BE000192
:10B0C00009B1000138B50D4BD3F8DC40B3F8E030DE
:10B0D000A3F58873B3F5BE6F054605D9084B44F256
:10B0E00063421A803AF0DAFA2946064839F064FBDE
:10B0F0001CB92046BDE83840D1E638BDF0FC002040
:10B100005C2F0020CCFD002038B50D46044628B940
:10B11000094B44F207621A803AF0C0FA012384F81E
:10B120009C5084F870302146044839F045FB0720D4
:10B13000BDE83840B3E600BF5C2F0020D4FD0020FE
:10B1400008B5A0F15401034839F036FB0320BDE8EF
:10B150000840A4E6C8FD002008B5A0F1140103488A
:10B1600039F02AFB0120BDE8084098E6D8FD002010
:10B1700070B50E46044608B1C3682BB90B4B44F2B8
:10B180006B421A803AF08AFA094D05F1DC0039F079
:10B1900037FB2046E36800F8106F9847D5F8DC309D
:10B1A0001BB10020BDE8704079E670BD5C2F002027
:10B1B000F0FC002038B55A4839F022FB044628B983
:10B1C000584B44F201621A803AF068FA94F87030F1
:10B1D000012B05D9534B44F202621A803AF05EFA11
:10B1E00094F87030002B40F08C8054E90223134314
:10B1F00007D14C4B44F203621A80BDE838403AF064
:10B200003BBA94F89D30052B6DD801229A4012F07C
:10B21000220FA4F1080550D112F0110F23D112F022
:10B220000C0F60D015B1023B012B05D93D4B44F208
:10B2300010621A803AF032FAD4E91E23134305D182
:10B24000384B44F211621A803AF028FA04F1810076
:10B250001EF03CFF28B9334B44F212621A803AF0D8
:10B260001DFA314B48E015B113F0FB0F05D02D4B03
:10B2700044F230621A803AF011FAD4E91E231343E3
:10B2800012D1284B44F231621A803AF0F5F90423C6
:10B2900084F89C30012384F87030D4F8983033BBA4
:10B2A000204B44F20562A7E704F180001EF00EFF78
:10B2B00008BB1C4B44F23262E6E71DB103F0FB030E
:10B2C000012B05D0174B44F220621A803AF0E6F9C0
:10B2D00094F891300BB3D4E91E2313431DD1114BC5
:10B2E00044F22162D0E70F4B44F2046284E704F198
:10B2F0009C00984709E00D4B022284F870202846F4
:10B30000984794F87030012BC7D0094BD3F8E4303C
:10B310002BB10720BDE83840C1E5064BECE738BD4E
:10B32000D4FD00205C2F002079B000012DB0000179
:10B33000F0FC002089C400012DE9F041314EDFF816
:10B34000C8804FF0FF34002540F201273378AB422C
:10B3500019D8D6F868314BB12B4A126F9B1AC6F830
:10B360006831002B44D10220FFF7FAFD631C43D063
:10B3700022462648264B01213BF058F82348BDE8D9
:10B38000F0413BF067B8B368E82205FB0233B3F83D
:10B39000D81021F0FE010905090DB94221D193F819
:10B3A000D80000F0FA02022A1BD15A68D8F87010AF
:10B3B000521A5A60C2B993F8D920042100F0FE0055
:10B3C00061F30302062883F8D92007D1114B93F8C3
:10B3D0002720FF239340DB4386F89F310120FFF7AE
:10B3E0005EFD0135EDB2B1E7944228BF1446F8E79F
:10B3F0009C4228BF1C46B9E70448BDE8F0413BF039
:10B4000031B800BFE8340020F0FC002054FD0020DB
:10B4100039B30001502C0020D0B5044608B90020F3
:10B42000D0BDAA2380F82030D0E9006725F09AFF2C
:10B43000D0E900239F4208BF9642F0D1822384F8CE
:10B440002030237A013BDBB2FD2BE8D8237B032B92
:10B450000FD1237E013BDBB2FD2BE0D8D4E90423DE
:10B4600013430CD1084B44F210421A803AF004F90D
:10B47000D5E7012B03D0A62384F82030CFE70023A3
:10B4800084F820300120CBE75C2F002013B5044660
:10B490000DF10701292031F037FA9DF8070010B1AE
:10B4A000207800F0010002B010BD13B5044690F8FA
:10B4B000340010F0010309D010F0080004D0E08D32
:10B4C0002B2894BF0020012002B010BD4FF49870CB
:10B4D0000DF107018DF8073031F016FA9DF80730AD
:10B4E00094F83400002B14BF3F23512310F00800C0
:10B4F000EAD0E08D9842E4E737B500230D468DF899
:10B500000730044660B180F8401002B11268E36B66
:10B5100062643BB9124B44F254421A803AF0ACF8E0
:10B5200003B030BD04F14000984765B9E28B4FF697
:10B53000F7739A4207D801230DF107014E208DF8C9
:10B54000073034F099FE2046FFF7AFFF0028E7D020
:10B55000044B0022C3F894210120FFF7A0FCDFE791
:10B560005C2F0020E83400202DE9F347AD4BC1F8F3
:10B57000B0300C46022381F8C830C18BA4F8C41047
:10B5800090F8393084F8CA30002384F8CB3005466F
:10B5900090F83400C243C2F3C012012384F8CC20D7
:10B5A000420684F8CD3084F8CE3005D44FF6F773D8
:10B5B00099428CBF0023012384F8CF3095F83530B1
:10B5C00084F8D030EB8EA4F8C63095F8383084F883
:10B5D000D1302846FFF769FF0746002800F0C580F4
:10B5E0000DF107015C2031F08FF99DF807708E4E48
:10B5F000002F00F0B2808D4996F89D0191F8282027
:10B6000042FA00F313F0010300F0A9800123834004
:10B6100022EA0302FF2384F8CA30002381F828209D
:10B6200084F8C13004F1B40996F8A03196F89D1160
:10B6300096F89C81013B994208BF95F82E3005F1A0
:10B64000340004BF01FB183808F0FF08FFF71EFFA5
:10B65000002800F08780764B44F251421A803AF07D
:10B660001DF84FF04C0A2B6BD6F8980196F89CC148
:10B6700096F89D1150440CFB013142463BF029FDE8
:10B6800008F10A0384F8C930D6F89831AAF10A0AF9
:10B690005344C4F8A830D4F8A860E98B33784FF647
:10B6A000F77223F01303914233706AD86FF3830368
:10B6B0003370337895F834206FF3451312F0040299
:10B6C0003370DBB26CD162F3861333702846FFF718
:10B6D000ECFE3378002800F0848043F08003524968
:10B6E000337091F89D21337A002A74D1012262F3DC
:10B6F0000103337291F8A031737295F8263073709C
:10B700006B8D73802B8DB38095F82C30B3712846E8
:10B71000FFF7CBFE002868D0434B93F8A131F371BB
:10B7200095F8353013B195F83830F371206834301E
:10B73000FFF7ACFE002862D02068FFF7B6FE94F851
:10B74000C910002858D0A1EB0801C9B22046FFF764
:10B75000F9FB002002B0BDE8F087B94664E71F4658
:10B76000994661E74FF03E0A7DE795F82E300833A1
:10B7700084F8C9302B6B083BC4F8A830814680465A
:10B7800089E72C49022262F383033370B1F8EE306B
:10B790000133A1F8EE304420EC3134F06DFD88E740
:10B7A00043F04003337094F8D930012262F303036D
:10B7B00084F8D9302846FFF778FE94F8D93038B1AC
:10B7C000194A92F8A22162F3071384F8D9307DE771
:10B7D000164A5278F7E7022161F30103337272725D
:10B7E0008BE760F3C713337087E7124A92F8F030A3
:10B7F000591C82F8F01092E795F82E80A3E70DF11E
:10B8000007015C2031F080F89DF8073023B11FB1AB
:10B810004846FFF76BFB9CE704F11800FEF7DEFDDE
:10B8200097E700BFEDAE0001E8340020502C002067
:10B830005C2F0020F0FC0020024BD3F89411086824
:10B8400092E600BFE8340020002810B50C4604DB67
:10B85000064B1B8880B2834205D8054B44F2265222
:10B860001A8039F01BFFC4F3800010BDF0FC0020EB
:10B870005C2F002037B5144C236E05462BB10028F1
:10B8800003DB228883B29A4205D8104B44F220523F
:10B890001A8039F003FF636805EB450203EB0213DE
:10B8A000226E1B8932F835200020D1B261F30700E7
:10B8B000120A62F30F20DAB262F317401B0A63F335
:10B8C0001F6003B030BD00BFF0FC00205C2F0020E3
:10B8D0001FB5019000B2FFF7CDFF84B2631E9BB28B
:10B8E0004FF6FD7203909342BDF80E3016D9013326
:10B8F000ADF80E300123ADF80C30BDF904100398FB
:10B90000FFF792FA01A9202034F0B6FCBDF80E3002
:10B91000013BADF80E30039804B010BD2BB9074BB6
:10B9200044F228521A8039F0B9FE0134ADF80C40C7
:10B93000BDF904100398FFF777FAE7E75C2F0020C2
:10B9400038B5104D02682B699A42044605D20E4B59
:10B9500044F247421A8039F0A1FE286924686B78C6
:10B96000241A6020B4FBF0F4E4B2A34205D8064BDD
:10B9700044F248421A8039F091FE2B69602000FBA6
:10B98000043038BDE83400205C2F002008B510F8E2
:10B99000143943B90146064838F00EFF0120BDE8CE
:10B9A0000840FFF77CBA0022A921BDE80840A3E5C2
:10B9B000E4FD0020F8B50446086849681746FAF720
:10B9C000B1F9054688B30678012E06D0052E2CD194
:10B9D00005F06EFDB0FA80F6760920683146FBF777
:10B9E00006FF044638B9124B44F209621A8039F056
:10B9F00043FE2046F8BD022380F8B030AB88A0F8A3
:10BA0000AC30C0F8945001230025C0F8987080F83D
:10BA1000B45080F8B23080F8B560A0F8B65080F825
:10BA2000B850FDF7EFFA2846E4E70120E2E700BF4F
:10BA30005C2F002013B50C46FFF738F8009000B2D9
:10BA400000280DDBFFF7DCF92368036063684360BF
:10BA5000A3688360E368C3606946152034F00CFC7A
:10BA6000009B00209AB262F30F001B0C63F31F408F
:10BA700002B010BD70B5194D194C2A7B013A2A73DA
:10BA800094F87221032A05D1002384F87231C4F896
:10BA9000683170BD022A05D0124B44F252421A801E
:10BAA00039F0FCFD94F87C010028EDD00E4BD5F860
:10BAB000F85093F827205B786426013A06FB02527F
:10BAC000013801215A4384F87C0184F87211C4F8CA
:10BAD00068210020BDE87040FFF7D0B8F0FC0020DE
:10BAE000E83400205C2F0020502C002038B5856AF7
:10BAF0002B789B07044605D0287810F023000FD040
:10BB0000002038BD90F83430002BF5D1FCF794F9C3
:10BB10000028F1D005F052FE0028EDD00120F0E71A
:10BB200094F83430002BECD1BDE83840FDF754BA1E
:10BB300010B5054A81700123037092F8F03043700C
:10BB40005C1C82F8F04010BDF0FC002038B5436961
:10BB5000D3F8904005462CB9084B44F281521A8024
:10BB600039F09CFD07212046FFF7E2FFAB6FC4F8D8
:10BB70000330EB6FC4F8073038BD00BF5C2F0020E6
:10BB800038B54369D3F8904005462CB9064B44F2CA
:10BB900091521A8039F082FD09212046FFF7C8FF33
:10BBA00095F87830E37038BD5C2F002038B54369D4
:10BBB000D3F8904005462CB90B4B44F271521A80D1
:10BBC00039F06CFD06212046FFF7B2FFAB6FC4F8D9
:10BBD0000330EB6FC4F80730B5F88430A4F80B30AD
:10BBE00095F88630637338BD5C2F002038B5436903
:10BBF000D3F8905004462DB9124B44F2F1521A80FA
:10BC000039F04CFD08212846FFF792FF94F8843064
:10BC1000EB70022B05D1224652F88C3F6B605368C3
:10BC2000AB600523084823670023A4F87430836AB7
:10BC300013B92C3034F098FC211F0448BDE838407B
:10BC400038F0BABD5C2F0020F0FC002018FD002069
:10BC500038B54369D3F8905004462DB91A4B44F2D5
:10BC600051621A8039F01AFD0F212846FFF760FF54
:10BC700094F8A430EB7025F075FB03686B604368A3
:10BC8000AB602246114852F8A53FEB6053682B6128
:10BC900093686B61D368AB61D4F898304FF47A72D3
:10BCA000B3FBF2F32367002384F8953084F89630D1
:10BCB000036913B9143034F057FC211F0448BDE860
:10BCC000384038F079BD00BF5C2F0020F0FC002028
:10BCD00000FD002038B54369D3F8905004462DB9D3
:10BCE000134B44F261621A8039F0D8FC28461021C7
:10BCF000FFF71EFF94F87D30EB7094F87C302B71C9
:10BD000022460C4852F8743FC5F805305368C5F810
:10BD100009304FF4A0532367036C13B9443034F057
:10BD200023FC211F0448BDE8384038F045BD00BF62
:10BD30005C2F0020F0FC002030FD002038B50446C8
:10BD400028B91A4B44F224621A8039F0A7FC6569BD
:10BD500095F8B1300B33DBB2412B85F8B13007D009
:10BD6000124B44F225621A80BDE8384039F084BC99
:10BD7000D5F89010362201F10B003AF033FFD5F8D8
:10BD800090500E212846FFF7D3FEEA7A616E2B46CB
:10BD90006FF3451203F8032B0A68C5F803204A68BD
:10BDA0005A602046BDE83840FEF720BB5C2F0020DB
:10BDB0002DE9F84F9946214B93F85840DE6D04EB7E
:10BDC00084040D46904606EBC4040746D8B186426B
:10BDD00005D91B4B44F223421A8039F05FFC283707
:10BDE000BE1B2822B6FBF2F302FB13662EB1144BE6
:10BDF00044F224421A8039F051FCA74205D30027AF
:10BE00003846BDE8F88F3746F7E797F82010A429A1
:10BE100001D0AA290FD13B7A43450CD17B89AB4293
:10BE200009D1D7E900ABD9E900239B4508BF92456A
:10BE300001D1A429E4D02837DFE700BFF0FC0020BF
:10BE40005C2F002070B505460E4625F08BFA04469F
:10BE500038B90A4B44F212421A8039F00DFC2046E0
:10BE600070BD0020234632462946FFF7A1FF002877
:10BE7000F6D0037B012BF5D11846F1E75C2F0020AB
:10BE8000436970B5D3F8904005462CB9104B44F285
:10BE900014621A8039F002FC0521204695F89D6055
:10BEA000FFF746FE2A46E67052F8813F636053680A
:10BEB000A3609368E360D36823612A4652F8783F11
:10BEC00063615368A36195F88030237770BD00BF2C
:10BED0005C2F0020436970B5D3F8904005462CB91B
:10BEE000114B44F234621A8039F0D8FB0521204608
:10BEF00095F89D60FFF71CFE2A46E67052F8803FD9
:10BF000063605368A3609368E360D3682361284645
:10BF100050F8083D63614368A36125F023FA036884
:10BF2000E3614368236270BD5C2F002070B51F4C35
:10BF30001F4D0668C4F89401002384F89D3184F8ED
:10BF40009E316B7884F8A23104F5CE714FF4947071
:10BF500030F0DAFC06F13400FFF798FA234630B1EE
:10BF600094F89C212B2A84BF2B2284F89C21F48DE9
:10BF700093F89C01B4FBF0F1CAB200FB114199B9EE
:10BF800095F8271083F8A021FF228A40D24309495F
:10BF900022F0010283F89F2191F8F02083F8A1217B
:10BFA000501C81F8F00070BD0132E9E7E834002050
:10BFB000502C0020F0FC002070B50646144C0025E3
:10BFC000022084F8C450FEF76AFF337873B1D4F8C6
:10BFD000C0402A4620680221FFF78EFA2046FEF76D
:10BFE000A9F80120BDE87040FEF759BFD4F8C000A1
:10BFF000D4F8A03094F8B02080F8C920C0F8A83058
:10C00000012380F8CD30BDE870401830FEF7E6B966
:10C01000F0FC00202DE9F041154D164F2C6C05F178
:10C02000400644F2646834B92B6CF3B11248BDE8A1
:10C03000F04134F099BA636F1BB1013B6367246828
:10C04000F1E72146304638F0E1FB012384F88230E5
:10C05000D4F884301BB9A7F8008039F01FFBD4F85E
:10C06000843004F182009847E9E7BDE8F08100BF21
:10C07000F0FC00205C2F002034FD002010B5294882
:10C0800038F0BEFB044610B190F860302BB9264B57
:10C0900044F261521A8039F001FB606E04F06AFDCF
:10C0A00000B30388A380012384F85F301F4B236112
:10C0B00094F85D101E4B94F860200B4404F10800C6
:10C0C0009B7C13F0600318BF112313442373FBF709
:10C0D0007BFB184BD3F8D83013B30320BDE81040D6
:10C0E000FEF7DDBEA36D73B9626E032384F84A3098
:10C0F0001368E364536823650F4BA36504F14400A0
:10C1000004F02AFDE5E7E36E2BB9074B44F26D52CC
:10C110001A8039F0C3FAE36EEC2120469847D8E73D
:10C1200010BD00BFC8FD00205C2F002069E40001A5
:10C13000502C0020F0FC002041B10001F7B518316F
:10C140000191019A022382F8B0304FF6FD73A2F8F4
:10C15000AC3090F82E30093382F8B130036B90F890
:10C160003540C58E82F8B840A3F10901C2F890109D
:10C17000A2F8AE5090F8381082F8B910C28B23F8AC
:10C18000082C428D23F8062C028D23F8042C90F8FD
:10C190002C2003F8022C002C3CD003F8011C13F8CF
:10C1A000092C02F0FC0242F00C0202F08F026FF345
:10C1B000C71203F8092C019B1B4AC3F89820019B66
:10C1C00090F8392083F8B220184A019B127883F83E
:10C1D000B32090F83430019ADB43C3F3C01382F8E4
:10C1E000B430019A012382F8B530019A82F8B63052
:10C1F000019A82F8B730019B83F8B840019BA3F8FD
:10C20000AE50019B019883F8B910FEF7E7F80020C3
:10C2100003B0F0BD064E96F8F02003F8012C571C31
:10C2200086F8F070BBE700BF0DAF0001502C002076
:10C23000F0FC00202DE9F0470F46044625F092F867
:10C24000BD68814604B128BB264B44F214421A80D3
:10C2500039F012FAA8263046BDE8F0872B7BBD6086
:10C26000032B10D105F1100004F084FCA92690B135
:10C270002B7E84F826300388E38339462046BDE8C8
:10C28000F047FFF771B92B8AE38339462046BDE8B2
:10C29000F04753E7A82628464B4694F82C20618D9A
:10C2A000FFF786FD05460028D5D0A369002BD5D120
:10C2B00095F80CA0BAF1030FD0D105F11008404653
:10C2C00004F058FC06460028C8D184F80AA02B695F
:10C2D000E3606B692361044BA361201D04F03CFC07
:10C2E000B9E700BF5C2F0020EDC20001F8B51A4D80
:10C2F000A0F11406A968287800234FF0E80CDFB2FB
:10C30000B84207D8154B44F215421A80BDE8F840F0
:10C3100039F0C4B90CFB03F28C1894F8D8E01EF085
:10C32000010F16D08A58B24213D121463046FFF78A
:10C3300081FF014648B100223046FFF7DDF8204674
:10C34000FDF7F8FE0120FEF7AAFD2B78BB42D9D9F4
:10C35000F8BD0133D3E700BFE83400205C2F002094
:10C3600038B50C46054600B129B90A4B44F21342D0
:10C370001A8039F093F90023AB612846A360214667
:10C38000FFF758FF054610B12046FDF7D3FE2846BB
:10C3900038BD00BF5C2F0020F8B5046806460F4684
:10C3A00015462CB92C4B44F24F421A8039F076F9DD
:10C3B000B5B9CE2F37D007F0DF03D02B33D0D12F34
:10C3C00003D194F93430002B2DDB04F13400FFF756
:10C3D0005DF898B90225D6F8BC30636484F84070E3
:10C3E000022D22D0032D2AD006F10C011B4838F073
:10C3F000E3F90220BDE8F840FEF751BD94F834306F
:10C400009A06E7D4FBF71EFD18B194F834309B0769
:10C41000E0D42046FFF749F80028DBD1237F012B29
:10C42000D8D00125D7E70325D5E733681B7F33B97B
:10C43000A36131462046FFF7FDFEA8280BD104F189
:10C44000440294F840103068FFF756F83046FDF784
:10C4500071FE0120CEE7F8BD5C2F0020C0FD00205A
:10C4600038B5047864B9074D022085F8C440FEF75A
:10C4700016FD2146D5F8C0000222BDE838408BE702
:10C4800038BD00BFF0FC002038B5044600F10805B7
:10C4900028B9194B44F222621A8039F0FFF8284675
:10C4A000FEF76CFB122384F86530022384F86630B3
:10C4B00094F89930EBB104F18002E2660F4A2267EA
:10C4C0000F4A6267252284F868206BB1FBF7BAFC3B
:10C4D00050B194F89A303BB194F868300B3384F83B
:10C4E0006830012384F867302846BDE83840FEF7FD
:10C4F00085BD2246E1E700BF5C2F002035F8000132
:10C5000009B1000173B50446FEF786FF00B30DF1D3
:10C5100007015C2030F0F8F99DF8071021B920469A
:10C52000FEF714FC002839D114B194F820302BB157
:10C530001F4B44F220421A8039F0B0F81D4B93F89B
:10C540005810DA6D00238B4204D1AE2384F82030DA
:10C5500002B070BD1546283212F8080CA8280ED17A
:10C56000A42685F820606CB9114B44F227421A804A
:10C5700039F082F80021102033F07EFEE8E7013325
:10C58000DBB2E0E794F82030002BEDD128222146E1
:10C5900028463AF09EFD85F82060EBE7A62120466C
:10C5A000FEF7D4FB0028D3D0A42380F82030E1E7A5
:10C5B0005C2F0020F0FC002010B5044658B1114A51
:10C5C000D36D834207D892F8582002EB820203EB26
:10C5D000C203984205D30C4B44F221421A8039F031
:10C5E0005DF894F82030A42B07D0AA2B05D0064B79
:10C5F00044F222421A8039F051F8A82384F82030FE
:10C6000010BD00BFF0FC00205C2F002010B50446D8
:10C61000FEF702FF60B1A4212046FEF797FB38B178
:10C62000FFF7CAFF00211020BDE8104033F024BE00
:10C6300010BDF0B50D4AD36D92F8582002EB82027E
:10C6400003EBC202AA21934200D3F0BD93F820402D
:10C65000A42C08D1D0E90067D3E90445AF4204BF58
:10C66000A64283F820102833EDE700BFF0FC00203D
:10C67000F0B50D4AD36D92F8582002EB820203EB1D
:10C68000C202A421934200D3F0BD93F82040AA2C0B
:10C6900008D1D0E90067D3E90445AF4204BFA64200
:10C6A00083F820102833EDE7F0FC00200B4AD36D0F
:10C6B00050B1283092F8582002EB820203EBC203FB
:10C6C000834203D8002070471846F3E790F82020F3
:10C6D000A42AF8D0AA2AF6D02830F1E7F0FC0020EE
:10C6E000FFF7B0BB10B501460446054838F064F8C2
:10C6F0000023A3610120BDE81040FEF7D0BB00BFBE
:10C70000E4FD002010B501460446054838F054F811
:10C710000023A3610120BDE81040FEF7C0BB00BFAD
:10C72000D8FD0020F8B5846A25780F4669060646CC
:10C7300001D40020F8BD4F4B05F00305012D1978F9
:10C740009A6818BF07250023994245D10220FDF7BA
:10C7500067FD0028EDD0D0F8A830328C43F8466C45
:10C7600003F8497C0021A0F8C420434AA0F8CA106D
:10C77000C0F8B020414AC0F8CC2094F800E01A7804
:10C7800080F8D0104FF0020CCEF3810E6CF3010252
:10C790006EF3830294F800E080F8C8C04FEADE1E12
:10C7A00002F09F026EF3C7121A702278B66A02F086
:10C7B000030EBEF1010F24D1725D5A701A7842F057
:10C7C00010021A7080F8C9C0AF2F4ED090F8C9106F
:10C7D000FEF7B8FB0120ADE792F8D80005280CD190
:10C7E000B6F820C0B2F8C400844506D1D2F8A8003B
:10C7F00014F805C0405D84459BD00133DBB2E832BC
:10C80000A2E74FF0080C80F8C9C093F800C061F3AC
:10C81000041C83F800C094F806C083F801C0B4F883
:10C8200002C0A3F802C0B4F804C0A3F804C094F88E
:10C8300001C083F806C0755DDD711206C4D5227A89
:10C8400012F0030204D11A72092380F8C930BBE741
:10C850000B2280F8C920247A1A7AC4F3010464F305
:10C86000010261F387021A72AEE71830FDF7B6FDD8
:10C87000B0E700BFE8340020EDAE00010101000187
:10C8800030B5374B89B005A940F2071093F8324014
:10C8900030F03AF806A9342030F036F8069B9C4276
:10C8A00005D35B0006A93420069330F059F82D4BD0
:10C8B0009DF81420F5349C605443069A04EB44041C
:10C8C0001444C3F8F8400DF11501012340F207109C
:10C8D0008DF8163030F018F80DF11601282030F0E0
:10C8E00013F89DF815004000FF2828BFFF20C0B2B4
:10C8F000FDF786FC9DF816407CB30023013C00F256
:10C90000FF1214F0FF0413444FEA4000F6D1C3F3C2
:10C910000805003518BF01250DF1170140F211106F
:10C9200005EB53258DF8164007948DF817402FF02E
:10C93000EBFF07A94FF402702FF0CCFFFF2D28BFAB
:10C94000FF250123EDB20193029400955B029DF84F
:10C9500017200799044834F013FE09B030BD00BF1A
:10C96000982C0020F0FC0020ECFD002038B5224C73
:10C9700028B13AF04FFB002384F8F0002373002520
:10C98000C4F8F450C4F8E850C4F880501B4C642339
:10C99000C4F888311A4BC4F89031012384F88C31E3
:10C9A000294684F87551A4F87651A4F8785184F892
:10C9B0007A51C4E95A55A4F8705184F87251E822AA
:10C9C00004F120003AF0D8FB2946602204F5847077
:10C9D0003AF0D2FB94F8743194F87321A06903FB08
:10C9E000022229463AF0C8FB04F5A973C4F8C830FE
:10C9F000BDE83840FFF744BFF0FC0020E8340020D9
:10CA000039B8000138B5374DD5F8DC402CB9364B74
:10CA100044F264421A8038F041FE23798A2B16D002
:10CA2000C52B3ED0192B54D1B5F8E030B3F5887F33
:10CA30000CBF4FF400734FF4E063A5F8E0302B4BCC
:10CA4000E36004F10800BDE83840FAF71FBFB5F80D
:10CA5000E03040F23232934202D0B3F5C26F1ED1C1
:10CA600040F23F43A5F8E030FFF70AFF00232373AD
:10CA70001F4837F0C5FEA3682BB91B4B44F26A422E
:10CA80001A8038F00BFEA36804F10C009847D5F823
:10CA9000DC3033B30020BDE83840FEF700BAA323F2
:10CAA000E5E7B5F8E02040F23F439A420BD1C133AD
:10CAB000A5F8E030022323810E4839F0D3FC00238F
:10CAC0002B730120E7E72046A321BDE83840FEF79D
:10CAD0004FBB054B44F265421A80BDE8384038F040
:10CAE000DDBD38BDF0FC00205C2F0020DDEB000137
:10CAF000CCFD002054FD002030B5826887B003468D
:10CB00004020B2F80120ADF80C004FF6FF7501A8E7
:10CB10000490A9424FF0010094B2059003D1120491
:10CB200003D407B030BD8C42FBD0ADF808101E20F6
:10CB300003A9019333F0A0FB0598B0FA80F04009F7
:10CB4000EFE70146014837F061BE00BFE4FD002079
:10CB500018B9034BD3F8100170470068704700BF45
:10CB6000F0FC002008B502460020FFF7F1FF18B1E5
:10CB700083681B789342F8D108BD38B50446C0B12C
:10CB8000A62303748368A3B11878F22803D0431E48
:10CB9000DBB2EF2B0DD8FFF7E5FF054648B9E36898
:10CBA0000448B3FA83F35B092371214637F004FE8E
:10CBB000257438BD00FE002010B5044648B1007849
:10CBC000FFF7D0FF014628B1034837F01FFE0023CE
:10CBD000637010BDA623FBE700FE002008B50246E7
:10CBE0000020FFF7B5FF40B1FF2A01D10171F8E73E
:10CBF00083681B789342F4D1017108BD2DE9F0419F
:10CC0000184F0546002444F231482046FFF7A0FFA4
:10CC1000044608B9BDE8F0812379002BF5D1A3685B
:10CC20001BB9A7F8008038F039FDA98B2046FFF723
:10CC300063FF0028E9D0A368E8881E783146F7F73B
:10CC400049FB0028E1D0AE73E3683BB9054B44F2E1
:10CC50003242BDE8F0411A8038F00EBD28469847B0
:10CC6000D3E700BF5C2F00202DE9F043866A8FB028
:10CC700004460F460025018CF2796A488DF803506E
:10CC800034F0C0FC00286ED07078431EDBB2FD2B60
:10CC900004D8FFF767FF0546002864D0227FE38BA6
:10CCA000012A66D18DF80820ADF80A3073788DF826
:10CCB000123002238DF81330238CADF81430638CBE
:10CCC000ADF81C30B3798DF81E307279337943EAB0
:10CCD0000223ADF82030F278B37843EA022394F8C7
:10CCE0002420ADF8223093B2A3F10A01ADF824104C
:10CCF00000218DF82C1096F9001000294BDB083B21
:10CD0000ADF82430BDF824308DF82D70D21AA36A06
:10CD10001A4494F834308DF82E3094F82C308DF875
:10CD20002F30236B0C93002994F82D300A928DF844
:10CD3000343013DA337A03F00303022B0ED13A4F67
:10CD4000FB691A78ADF8242093F800904FF00108A1
:10CD500097F87531B869434522DC0A90002D38D028
:10CD6000EB6801A898472046FDF722FB0FB0BDE80D
:10CD7000F08302228DF808204FF6F7729342ADF847
:10CD80000A3093D801230DF103014D208DF80330B3
:10CD900033F072FA8AE7307A8007B3D1093BAFE704
:10CDA000FB6997F8741113F8082008FB0101484447
:10CDB0003AF08FF9FB69BDF8241003EB080213F871
:10CDC00008300B44ADF82430137808F10108994479
:10CDD000BEE7237F012B03D101A8FFF70FFFC2E7B6
:10CDE0007378FF2B1AD12846FFF7B2FE05460028BC
:10CDF000B9D0AB681B78002BF5D02B79002BF2D182
:10CE0000BDF82010FFF778FE0028ECD0AB681B7847
:10CE10008DF81230EB6801A89847E4E701A805F007
:10CE2000BEFEA0E7ECFD0020E83400202DE9F74F1E
:10CE3000856A07466878431EDBB2FD2B884609D811
:10CE4000FFF790FE044618B1A988FFF755FE10B908
:10CE5000002436E000242B78190602D52A7A92079E
:10CE6000F6D15E0603F00C0214D5082A38D03A8CAD
:10CE70004FF6F7739A42EBD814B12379002BE7D120
:10CE800041463846FFF74EFC80F00100C0B203B0C7
:10CE9000BDE8F08F082A4FF0010412D1FA8B4FF64B
:10CEA000F7739A420DD93E8CF7F748F8864208D0BE
:10CEB000BB49B1F8EC30013321F8EC3F442033F0AA
:10CEC000DBF995F90030002B80F265812B7A980709
:10CED00000F06181B34C94F873311BB90120D6E79F
:10CEE0000024DBE797F82490BE6A94F872A1757A63
:10CEF000A9F10A095FFA89F9BAF1030F00F2478133
:10CF0000DFE81AF004004F003E013E015C200DF105
:10CF100007012FF0F9FC9DF8070048B1A24A92F8EA
:10CF20002930D90704D523F0010382F82930AEE770
:10CF300096F808B0BBF1010FD0D194F87321954257
:10CF4000CCD894F874319945C8D802FB032200214B
:10CF5000A0693AF011F984F8755184F872B13B8CEC
:10CF600084F87B81A4F86C31737884F87831F27896
:10CF7000B37843EA0223A4F86E313379727943EA35
:10CF80000223A4F87031B37984F87931F37984F805
:10CF90007A31854B5B7884F87C31002384F87631D4
:10CFA00055465C200DF107012FF0AEFC9DF80700FF
:10CFB00070B17D4991F8293023FA05F2D20707D5DF
:10CFC000012202FA05F523EA050381F829305EE71C
:10CFD000337A03F00302022A02D0002D7FF47EAFE1
:10CFE00013F0FC0F7FF47AAF94F87531AB42FFF485
:10CFF00075AFB4F86C213B8C9A427FF46FAF94F814
:10D00000782173789A427FF469AFB4F86E217388FF
:10D010009A427FF463AFB4F87021B3889A427FF4E8
:10D020005DAF94F87921B3799A427FF457AF94F8C1
:10D030007A21F3799A427FF451AF5B4E94F87611DE
:10D0400096F827208B189D42BFF648AFB5FBF2F348
:10D050008D4202FB1353DBB208D2E91A84F8761131
:10D060004FF0FF3101FA02F284F87721BA6A94F89E
:10D07000740102F10A0C10FB05F0A26901380244A8
:10D080001FFA89F14FF6FF70013989B2814239D117
:10D09000E26902F8059094F876118D420ED194F869
:10D0A000752196F82700521BD2B2824228BF024651
:10D0B0004FF0FF3000FA02F284F8772101229A4003
:10D0C00094F877311343DBB2FF2B84F8773194F86F
:10D0D000752109D196F827C0551A481EAC45D4BF12
:10D0E00000EB0C054519EDB2013A954213D1FF2B27
:10D0F0000DD10320FDF734FF38464146FFF7B4FD5C
:10D100000020C4E61CF801EB02F801EFBCE70220A6
:10D11000FDF726FFE2E696F82720013A11448D42FA
:10D1200001D0FF2B1DD10220FDF71AFF94F87731B3
:10D13000FF2B7FF4D3AE96F8273094F876211A446B
:10D1400084F8762194F87521013A551BEDB2AB4273
:10D1500028BF2B46012000FA03F35B4284F87731A5
:10D1600095E60F4BD3F8F830642101FB0232737857
:10D170005A43C4F8682101210020FDF77FFDADE688
:10D180000A4B44F240421A8038F088FAA6E6074B70
:10D1900044F25342F7E7002C3FF4A0AEACE700BFE7
:10D1A000F0FC0020E8340020502C00205C2F0020F0
:10D1B000012113E5002111E510B5044628B90E4BF5
:10D1C00044F270421A8038F069FAA1784B1EDBB243
:10D1D000FD2B07D9084B44F27042BDE810401A807D
:10D1E00038F04ABA2088F6F7FBFF10B10023E3704D
:10D1F00010BDAE23FBE700BF5C2F002010B5044636
:10D2000028B90E4B44F271421A8038F047FAA178DF
:10D210004B1EDBB2FD2B07D9084B44F27142BDE82F
:10D2200010401A8038F028BA2088F6F7FDFF10B1B8
:10D230000023E37010BDA623FBE700BF5C2F002096
:10D2400010B5044628B90D4B44F272421A8038F0EA
:10D2500025FA2078431EDBB2FD2B07D9074B44F299
:10D260007242BDE810401A8038F006BAF7F70AF8A3
:10D2700010B10023637010BDA623FBE75C2F0020D4
:10D2800073B5044638B93E4B44F240521A8038F028
:10D29000F3F902B070BD90F849205D2A03D9384BEC
:10D2A00044F24152F2E790F8483000260321012B66
:10D2B00080F82A6001774AD1022060774FF6FF702C
:10D2C00020840E4694F84B10A56BC90742BF94F812
:10D2D0002A1041F0080184F82A10012B0CBF092301
:10D2E0000723ED1AB4F8421021831A4484F8282049
:10D2F0002B78656143F003032B700DF107011B20B0
:10D300002FF002FB2B789DF8072062F384036FF364
:10D3100047132B7000236B7094F84830B600012B34
:10D3200046F00306AE7013BF6569238EA5F803307F
:10D33000023DB4F84630A5F80530B4F84430A5F8FD
:10D340000730104B2361204627F023FEA1E7D0E9E8
:10D350000C01032BC4E9080104D16377012184F88F
:10D360002A10AFE7022B03D0054B44F242528DE75F
:10D37000208E63774FF6FF718842EFD11E46A1E7FA
:10D380005C2F002041A3000130B58FB038B93C4B71
:10D3900044F245521A8038F06FF90FB030BD03786F
:10D3A000032BFAD14388ADF80830D0E90223CDE948
:10D3B0000423037C8DF81830438AADF81A30D0E985
:10D3C000062390F82050CDE9082390F828308DF8F6
:10D3D0003430062D90F82A308DF83530DDD9446A86
:10D3E000237803F00302032AD7D113F0E00FD4D13E
:10D3F0006378002BD1D10DF107011B202FF084FAA7
:10D4000023789DF80720C3F382039342C5D1A37804
:10D4100003F00302032AC0D113F0F00FBDD103F0D3
:10D420000C030C2B10D10123082D8DF81830B4D922
:10D43000B4F80300ADF82000FF21F6F74BFF0028F9
:10D44000ABD02346092201E0A31E0722597998791F
:10D4500041EA0021ADF82A10D9791B7A41EA032369
:10D46000ADF82830074BD3F81431AD1A14448DF8B9
:10D470002C500C94002B90D002A898478DE700BF49
:10D480005C2F0020F0FC002018B1064BD3F81421CB
:10D490002AB1054B44F246521A8038F0EDB8C3F871
:10D4A00014017047F0FC00205C2F002037B5244A9F
:10D4B000526882B94FF6FA73ADF800308DF8022049
:10D4C000BDF80030002063F30F00BDF8023063F3B5
:10D4D0001F4003B030BD30B94FF6FB72ADF80020ED
:10D4E0008DF80200ECE7D0E900234FF0FF356FF034
:10D4F00006049D4208BF94420DD301231A46002121
:10D50000FCF7DEFD03B2191D009004D09DF8020067
:10D51000ADF80030E4E70D2300211A460846FCF779
:10D52000CFFD03B21A1D0090F0D1052300211A4649
:10D530000846FCF7C5FD009003B2C0F30740E7E7DB
:10D54000F0FC002070B586B00D46694681E80C00FD
:10D550009DF80030194CAF2B06461FD1C8B10068AA
:10D56000716804AB03C304A8FFF7A0FF039000B2E7
:10D5700000280EDB9DF80E10FEF766F92C4420B152
:10D58000A07CC0F3400006B070BDA07CC0F380005A
:10D59000F9E72C44A07C00F00100F4E79DF80410AA
:10D5A000BDF90200FEF750F92C4418B1A07CC0F37D
:10D5B000C000E8E7A07CC0F30010E4E7502C002096
:10D5C0002DE9F043426892F8241004298FB00546F3
:10D5D00004D8012630460FB0BDE8F083946AE078A5
:10D5E0000528F6D80123834013F0220F40F09080E5
:10D5F00013F0110F4ED113F00C0FEAD092F8343023
:10D60000002BE6D092F8353023B92B7A4F33DBB2BA
:10D61000012BDED805F1080797E80C0011212868D6
:10D62000FFF790FF06460028D3D06A6892F82430AE
:10D630001D2BCED12968946A002900F0D18008689A
:10D6400049686B4603C3138CADF80830E3788DF856
:10D650000A30224608AB52F8040F516803C39068A1
:10D66000D16803C3224606AB52F8140F516803C3B6
:10D6700097E80300237F0C90003318BF012368460E
:10D680008DF81030ADF8341004F0BEFE237F002B6F
:10D69000A0D032E024299CD104F11C0805F1080730
:10D6A00097E80C0013214046FFF74CFF0646002880
:10D6B0008FD004F1140923F055FE0822494639F0B1
:10D6C00033FCF0B9E3788DF80A30E069216A6B46E3
:10D6D00003C397E803006B681B8CADF808300C900F
:10D6E000ADF8341054F8040F616804AB03C3A068AC
:10D6F000E16803C3684604F087FE6846FCF71AFF3A
:10D7000068E73A4A4946281DFEF754F9064661E79C
:10D7100025297FF45EAF04F11D0805F1080797E89D
:10D720000C0012214046FFF70DFF064600283FF48B
:10D7300050AF04F1150904F1140204F11C0112F8B0
:10D74000013F33BB8A42FAD1E27883F00103052A14
:10D75000DBB220D16A6892F835202AB92A7A4F3292
:10D76000D2B2012A3FF635AF002B7FF432AF23F05F
:10D77000F9FD08220146484639F0D6FB68B1E37846
:10D78000012B7FF426AF2B7AAF2B3FF422AF184A40
:10D79000B8E73346D8E7002BE9D0E3788DF80A30B4
:10D7A000D8F80000D8F804106B4603C397E80300CC
:10D7B0006B681B8CADF808300C90ADF83410237DED
:10D7C0008DF8103054F8043FCDF811306368CDF86F
:10D7D0001530A368CDF81930E368CDF81D3089E71E
:10D7E00000200021CDE900012DE700BF4DA7000179
:10D7F0000DA700012DE9F04188B06B4683E80600D3
:10D80000876ABB78053B0B2B054603D9012008B07E
:10D81000BDE8F0813B789DF800405B0627D47A781C
:10D82000298C294833F0EEFE0028EFD09DF8043013
:10D830008DF80C3095F82430BDF902208DF80840A1
:10D84000022BADF80A200CD9AB6A9E78731E0F2B01
:10D8500007D803F0B3FF80B1052E31D095F83430EE
:10D860006BB9387880F04000C0F38010CFE72146D4
:10D87000FEF758FF0028D2D1C8E7052E22D0288C09
:10D8800003F0C4F904460028EBD00DF1080898E82D
:10D890000C0031462046FFF755FE0028E1D00B4B27
:10D8A00053F82630002BDCD098E80300CDE904457E
:10D8B0000690ADF81C1004A898470028A7D0D0E720
:10D8C0000024E2E70446E0E7ECFD002038570401BD
:10D8D0002DE9F04391B06E4686E8060090F81C9062
:10D8E0009DF80070B9F1010F04466CD0B9F1020F38
:10D8F00001D001206AE0856A2B78C3F301085FFA42
:10D9000088F2012A00F01E814FFA88F1002956D0D2
:10D91000022AEED103F00303022B05D08C4B44F214
:10D9200045421A8037F0BAFE8A4B9E681A78E82181
:10D9300002FB016140F201208E42DAD2B6F8D82013
:10D9400022F0FE021205120D824240F0F980326888
:10D95000278CD28B974240F0F380D6F8A82095F818
:10D9600007C0D779BC4540F0EB80B5F804C0978874
:10D97000BC4540F0E580B5F802C05788BC4540F092
:10D98000DF8095F801C09779BC4540F0D980AF7928
:10D990005278974240F0D48096F8D82002F0FE02E8
:10D9A000022A5DD196F8D930032262F303030022E4
:10D9B00086F8D93011463046FEF7EEFC99E703F0C1
:10D9C0000C030C2B05D03946FFF730FA11B0BDE837
:10D9D000F083018C2A7A604833F014FE002888D046
:10D9E00094F82430082B84D901228DF81020A978CE
:10D9F0006A788DF81B9042EA0122ADF81220228C41
:10DA0000ADF81C20628CADF82420EA798DF8262030
:10DA1000A9796A7942EA0122ADF82820093BEA781F
:10DA20002979ADF82C30A36A8DF8348009330C9332
:10DA300094F834308DF8363094F82C308DF8373037
:10DA4000236B0E9342EA012294F82D30ADF82A2080
:10DA500003A88DF835708DF83C30FFF7CFF848E714
:10DA6000062A6DD193F89E01697A81424FF0010434
:10DA70002DD1DFF8E8C095F80AE09CF8272004FAD9
:10DA800002F77F4247EA0E07FFB2AF7296F8D9500D
:10DA90004FF0030E6EF30305FF2F86F8D9502FD1F8
:10DAA00093F8A051481EA5EB010E9645D4BF7044D3
:10DAB0008018C0B2013DA84283F89D0109D13046CB
:10DAC000FEF734FA002211463046FEF765FC204688
:10DAD0007CE7114407FA02F2C9B2D24383F89E11DF
:10DAE0009CF8010083F89D1122F00102D3F89411F3
:10DAF00083F8A20183F89F210868FDF735FDE6E76A
:10DB0000F943C9B20025ECB2A24202D883F89F11B2
:10DB100010E02E4641FA06FC1CF0010F05F101054C
:10DB2000F1D00122B2403A43D243204483F89F21EE
:10DB300083F89D01D3F894110868FDF715FDD8E628
:10DB4000E836F9E696E80600FFF754FE3EE700BF28
:10DB50005C2F0020E8340020ECFD0020502C002039
:10DB60002DE9F04FA74EB6F8E0A0BAF5887F87B050
:10DB700019D0A54F06F1800B584636F041FE0546F8
:10DB800088B1D7F808903A78A5EB09034FF0E80878
:10DB9000B3FBF8F3DBB29A420DD89C4B44F24942F6
:10DBA0001A8037F069FD0023994D9A4FADF80C307B
:10DBB0004FF0020909E108FB03F809EB0804BAF584
:10DBC000C26F94F8D83002D0BAF5A06F23D103F019
:10DBD000FE03042B14D104F1A800FDF7B1FE436845
:10DBE000417804463BB9894B019144F24A421A807C
:10DBF00037F054FD01996B7B13B96068FFF734F877
:10DC000059F8080005F10802A321FDF775FC284624
:10DC1000FCF790FAB0E75B08032B00F2B280DFE874
:10DC200003F0020896490022697B2046FEF7B4FB08
:10DC3000A2E794F8D93003F00F03012B9CD1287B85
:10DC400059F80880FCF7DCFA734B94F8D9205B781C
:10DC5000697BA3EB12139840A1B9606039F0DAF93F
:10DC60006368C0F308000344636094F8D93002226B
:10DC700062F30303626884F8D93000212046FCF780
:10DC8000FDFF79E7CE2909D0F02907D0D02905D0AA
:10DC9000D129E2D198F93430002BDEDA05F10802FF
:10DCA0004046FDF729FC2846FCF744FA0120FDF721
:10DCB000F6F878E794F8D93003F00F03012B7FF4DE
:10DCC0005BAF97F8A03197F89D21DFF84C81013BBD
:10DCD0009A4207D098F8273097F89F010022D1B2D6
:10DCE0008B421CD8287BFCF78BFA98F8012094F81B
:10DCF000D940A2EB141400FA04F439F08BF9D7F8E8
:10DD00009431C0F3080093F8D9100219022060F38F
:10DD1000030183F8D9105A6000211846AFE79446F2
:10DD200040FA0CFE1EF0010F02F10102D7D00123D0
:10DD300003FA0CF320EA030387F89F3197F89E312A
:10DD400036480B4487F89D3132F00EFC14E704F19D
:10DD5000A800FDF7F5FD436890F8018004462BB953
:10DD60002A4B44F24D421A8037F098FC41466068D5
:10DD7000FEF77AFF2846FCF7DDF90120FDF78FF862
:10DD8000FAE6224B44F24E421A8037F087FCF3E663
:10DD9000A369B6F8E080002B4AD1A26A137803F099
:10DDA000200103F00303012B3CD19378052B39D0DC
:10DDB000208C02F02BFF00283AD1238C84F80A90A3
:10DDC000A381A761201D02F0C7FE284636F018FD8A
:10DDD00004460028DCD1B6F8E030980700F18080D6
:10DDE0000F4DD6F8F440002C40F0A280B6F8E03099
:10DDF000B3F5A06F40F0B181034D00242F464FF0E2
:10DE0000E808D5E1F0FC0020E83400205C2F002079
:10DE1000D8FD002059B10001502C002068360020A8
:10DE2000E4FD002021B12046FDF760FE0028BFD0B0
:10DE3000D4F8289040F23F42904599F8003007D03E
:10DE400003F00302012A03D094F83520002A43D0BE
:10DE500013F0400C0AD0A84AD078117992F800E06B
:10DE600001448E4538DD5278824235D9AF228DF893
:10DE700010204FF6FF72ADF8122000228DF814200A
:10DE800003F00C02042A27D0BCF1000F05D003F0E8
:10DE90000302022A20D01A071ED42046FDF726FED0
:10DEA000D0B999F800309B060ED52146934836F03C
:10DEB00083FC0220FCF7F3FFA38DADF80C3003A91F
:10DEC0003B2032F0D9F973E606AB13E90600204691
:10DED000FFF7FEFC0028EFD02046FCF769FAEBE7DD
:10DEE000DFF81482DFF82892D6F8F440002C3FF4D3
:10DEF0007DAFA369002B38D1254604AB55F81E0F22
:10DF0000696803C3237F032B1CD104A802F032FEEF
:10DF1000C0B92B68E3606B682361237FA372784BE1
:10DF2000A361201D02F018FE484636F069FCDBE7CD
:10DF30002146284636F06AFC0022A3212046FDF740
:10DF4000DBFA4EE7237F022B0FD104F13400FDF7FB
:10DF50009DFA50B1E08B4FF6F773984205D802F066
:10DF600055FE10B9E38BA381D7E7D8F8943143B1BC
:10DF70002046FDF79AFA20B12046FDF796FA0028D0
:10DF800047D100234FF4987004A98DF810302EF07B
:10DF9000BBFC9DF810302046002B14BF5225642591
:10DFA000FDF783FA20B1D8F89831002B00F0838078
:10DFB0002046FDF77AFA18B194F8343059077AD52B
:10DFC000A38E23F0FB031B041B0CB3F5827F72D0DE
:10DFD000E38DAB4204D994F8345015F0080544D0D1
:10DFE00094F82C1019B10846FEF7BCFD60B194F806
:10DFF0003430227F13F0040311D0022A0DD1E28BBA
:10E000004FF6F7739A420DD900252F464FF0A60A16
:10E010002EE02468002CAFD1E8E6012AF4D0901E4F
:10E02000012812D894F82630F22B09D194F8353013
:10E03000ABB9237F032BE7D8DFE803F042577B6CB3
:10E040000F33DBB20D2BF1D8DEE7002AEED1002B27
:10E05000ECD0608DFDF7F6FE0028E7D0D4E7E28E25
:10E060004FF6F7739A42E4D9CEE72F464FF0A00A55
:10E070002146484636F0CAFBBAF1000F15D12FB938
:10E08000204B44F250421A8037F008FB2C602046A7
:10E09000FDF70BFA10B12846FDF748FF2946204648
:10E0A000B847824600283FF41FAF00225146204661
:10E0B000FDF722FA18E700252F464FF0AA0AD7E706
:10E0C0002046FDF7F2F950B10320FCF7A9F80E4FF6
:10E0D0000546002D3FF48AAE4FF0000AC8E794F8D9
:10E0E00034305A0748BF0120EFE70020FCF798F8CA
:10E0F000064F0546EDE700BFE8340020BCFD0020D8
:10E100008DB900015C2F002061C300013DC10001F9
:10E11000E4FD0020224604AB52F81E0F516803C3F1
:10E1200004A802F027FD054668B10388E3830223B3
:10E1300023772046FDF7B9F948B10320FCF770F8C2
:10E140005D4F0546C5E707464FF0A90A90E794F8EA
:10E1500034305B0748BF0120F0E7B3F5C26F3FF4EE
:10E160004BAE40F23F42934249D10027534D40F21B
:10E17000014880E0A86814FB08F900EB090393F854
:10E18000D820032A12D193F8D93003F00F03042BBF
:10E1900001D0022B0AD150F809000022A321FDF77B
:10E1A000ABF9B8684844B430FBF7C4FF0134E4B2BB
:10E1B0002B78A342DED8B6F8E030B3F5A06F1ED1BD
:10E1C000337BE3B9D6F8DC502B79C52B05D03C4B1B
:10E1D00044F26D421A8037F061FA2C8924F002046F
:10E1E0002404240C2C8154B92046FEF7BFFB4FF4C5
:10E1F000C26321462846A6F8E030FCF7B9FF07B015
:10E20000BDE8F08FAB68E82407FB0434B4F8D830DD
:10E2100023F0FE031B051B0D43452AD194F8D810AB
:10E2200001F0FA03022B24D194F8D93013F0F00254
:10E230003CD003F00F02012A12D0012201F0FE01AE
:10E2400062F30303103B022984F8D93017D104F19B
:10E250001800FCF7C3F8626800212046FCF70EFDA9
:10E26000B6F81831174901334320A6F8183132F0B7
:10E2700003F80137FFB22B78BB42C3D89BE70629CE
:10E28000EED195F89F31D5F8941123F0010385F86C
:10E290009F3195F89E3185F89D3195F8A231013B6B
:10E2A00085F8A2310868FDF75FF9D9E7A721204674
:10E2B000FEF772F8DDE700BF69B50001E834002021
:10E2C0005C2F002008FE0020094A03B2506882B08B
:10E2D00050B1002B0ADB11889AB2914206D903EBA8
:10E2E000430300EB03101B3002B070470020FBE734
:10E2F000F0FC002013B50C46FCF7D8FB030400909B
:10E300000DD4FFF7E1FF2368036063684360A368EF
:10E310008360E368C3606946152031F0ADFF009B60
:10E3200000209AB262F30F001B0C63F31F4002B08F
:10E3300010BD82B009B102B0DCE78DF806100846C6
:10E340004FF6FB7363F30F00BDF8063063F31F4015
:10E3500002B07047F7B50446406E0E46FFF7A6F8C8
:10E36000019000B2002813DAE36E65692BB92A4BDD
:10E3700044F26D521A8037F091F9E36E0221204683
:10E3800098472846F9F730FA0125284603B0F0BD32
:10E390009DF8061094F85D50FDF756FA1F4B2B447C
:10E3A0009D7C20B1C5F3401525B90025EDE7C5F3E7
:10E3B0008015F9E76369D3F890702677002EF4D1C1
:10E3C00094F85E3084F83E300198FFF77DFFA0623C
:10E3D0000198FDF77DFAA063F9F72EFD94F85F3000
:10E3E00084F8423084F8410022F0BCFFE0623846F5
:10E3F000FCF72CFD94F8603084F83F0084F840303E
:10E40000074B63633B78276343F020033B7004F1C1
:10E41000200031F084FAB8E75C2F0020502C002057
:10E4200071A7000170B54468E36E6569064603B1E3
:10E430002DB90C4B44F26A521A8037F02FF9237F22
:10E4400043B92046E36E717B98472846BDE870408B
:10E45000F9F7CAB900212046FFF77CFF0028F0D069
:10E4600070BD00BF5C2F0020F7B5436D0646044623
:10E4700056F814791BB1836D0BB1036D2BB92E4B7C
:10E4800044F263521A8037F009F917B1D7F8903087
:10E490002BB9294B44F264521A8037F0FFF8274D0C
:10E4A00094F849302B449B7C13F0600305D094F81A
:10E4B0004B30002B0CBF05230D23D7F890201344BD
:10E4C000C7F890301E4B63603046636D98470DF17E
:10E4D000070129202EF018FA9DF8073013B394F89D
:10E4E00049302B449B7C13F0600F1BD0206DD0E98A
:10E4F0000023134316D022F041FF98B9236DD3E9CE
:10E5000000234FF0FF316FF00600994208BF9042A0
:10E5100008D394F849301D443046A97CC909FFF757
:10E5200019FF30B994F84C3087F8B1306368304641
:10E53000984703B0F0BD00BF5C2F0020502C002096
:10E54000EDA30001F7B52D4C94F8AE50012D0E4609
:10E55000174635D010B9022003B0F0BDFEF7A6FF74
:10E56000030405460190F6D4FFF7AEFEC4F8980008
:10E570002846FDF7ADF9C4F8A8000FB1019838603E
:10E5800094F8AE30012B33D0D4F8A8300133E2D068
:10E59000D4F89830002BDED0D4F8A020137843F0C4
:10E5A0002003137084F8B26022F0DCFE144BC4F830
:10E5B0009C001448C4F8A43031F0B1F90120CBE735
:10E5C000F9F7F6FC0028C6D084F8AE50F9F762FDE2
:10E5D000C4F898001BF07AFD08B9C4F89800F9F760
:10E5E0009BFDC4F8A800F9F745FD84F8AD00C7E726
:10E5F000F9F728FC0028C7D00020ADE7F0FC002088
:10E60000B9BF000180FD002007B5A1B1FDF712FAE6
:10E61000019003B2C0F307408DF80600ADF8043056
:10E62000019B00209AB262F30F001B0C63F31F40A2
:10E6300003B05DF804FB08466FF00403ECE782B01A
:10E64000019000B202B0FCF7DBBB07B589B1FDF762
:10E65000F1F903B2C0F307418DF802109BB200201C
:10E6600063F30F00BDF8023063F31F4003B05DF8A1
:10E6700004FB6FF00403EFE782B0019000B202B038
:10E68000FCF7BEBB37B5FCF711FA04B2002C0190C1
:10E690001DDBFFF719FE05462046FCF7B1FB0368BA
:10E6A0002B6043686B608368AB60C368EB60BDF947
:10E6B000043003EB4302074B5B6803EB021301A931
:10E6C0009A7A22F020029A72152031F0D5FD03B01B
:10E6D00030BD00BFF0FC002037B5FCF7E7F9054678
:10E6E000019000B2002811DBFCF78AFB04462846A3
:10E6F000FFF7EAFD03682360436863608368A360F3
:10E70000C368E36001A9152031F0B6FD03B030BD48
:10E710002DE9F7431A4D6B6806460F462BB94FF0AB
:10E720000009484603B0BDE8F0830028F7D0002474
:10E73000A146A04601231A4621463046FBF7C0FCFD
:10E74000019000B2031D0FD06B6800EB400203EB99
:10E750000213013083F80A8084B201A9152031F038
:10E760008BFD4FF00109E5E7B9F1000FD7D0002F7D
:10E77000D7D03146092031F07FFDB946D1E700BF3F
:10E78000F0FC00201FB51C4B01905B688BB94FF665
:10E79000FA72ADF80C208DF80E30BDF80C30002068
:10E7A00063F30F00BDF80E3063F31F4005B05DF852
:10E7B00004FBBDF904109DF806000029A6BF013135
:10E7C00089B2002110F0040017BF052301231A4667
:10E7D000002008BF1A46FBF773FC029000B2031D2D
:10E7E00005D14FF6FE73ADF80C300023D3E7ADF83A
:10E7F0000800029B0393D0E7F0FC00202DE9F843CA
:10E800000746414D00230446022085F8C430FCF73A
:10E8100046FB17F820392E46002B5BD114F8062C46
:10E820009AB195F8CA20510705D4D6F8C000BDE8C2
:10E83000F843FBF7BDBD012285F8C42004F8063C6F
:10E840003846BDE8F84331F06DB8D5F8C03054F81B
:10E850000C2C9A6214F8072C83F8242054F8100C1E
:10E86000D0E9003213F1FF3842F1FF394FF0FF33A6
:10E870006FF007024B4508BF424512D322F07EFDE0
:10E8800078B954F80C3C1B7803F00303012B08D033
:10E8900054F8103CD5F8C010D3E90023088CF7F7E2
:10E8A00057FA54F80C4CD6F8C0002378D6F8C610A6
:10E8B00003F00302012AB6F8CA2005D1FEF79AFF39
:10E8C0000028B2D1BDE8F8836FF345132370FEF73B
:10E8D000FFFFF5E7042BA8D114F8063C002BA4D0C9
:10E8E00095F8CA305A07A0D5D5F8C800FFF74AFFF7
:10E8F0000304C5F8C80098D4FFF7E6FC012344F8E8
:10E90000180C85F8C4309BE7F0FC002013B50C46CA
:10E91000FEF7CCFD4303019012D4BDF90420002A78
:10E920000EDB02EB4203094A526802EB0312937AB0
:10E9300044B143F00203937201A9152031F09CFC0D
:10E9400002B010BD23F00203F5E700BFF0FC002089
:10E950001FB5019000B200282ADB164C636800EB5B
:10E96000400003EB0010837A5A0721D50D230021C4
:10E970001A460846FBF7A4FB039000B2031D08D01B
:10E98000636800EB400003EB0010837A23F0080378
:10E990008372BDF9043003EB4302636803EB021397
:10E9A00001A99A7A42F008029A72152031F064FCAB
:10E9B00004B010BDF0FC002013B5044680B94FF63A
:10E9C000FB73ADF804308DF80600BDF8043000206C
:10E9D00063F30F00BDF8063063F31F4002B010BDB3
:10E9E0001D2300211A460846FBF76AFB019000B27E
:10E9F0000028EADB094B5B6800EB400003EB0010EA
:10EA0000D4E90023C0E90023837A23F00C03837246
:10EA100001A9152031F030FCD7E700BFF0FC002041
:10EA200007B5019000B200280FDB094B5B6800EBD3
:10EA3000400003EB0010837A5A0706D543F0100319
:10EA4000837201A9152031F017FC03B05DF804FBB7
:10EA5000F0FC002007B5FEF729FD019000B2002868
:10EA6000A1BF074B5B6800EB400003EB0010B2BF97
:10EA70000020807AC0F3400003B05DF804FB00BFC3
:10EA8000F0FC00202DE9F347314C636807468BB951
:10EA90004FF6FA72ADF804208DF80630BDF8043058
:10EAA000002063F30F00BDF8063063F31F4002B08F
:10EAB000BDE8F08730B94FF6FB73ADF804308DF840
:10EAC0000600EBE74FF000096FF0030A4D4601F036
:10EAD000020801F0040601231A4629463846FBF7CE
:10EAE000EFFA019000B2031D2CD000EB400212019E
:10EAF000B8F1000F0FD0616811440D4655F80B3F77
:10EB0000C1F81B306B68C1F81F30AB68C1F8233007
:10EB1000EB68C1F827304EB1236E002143F8301066
:10EB200003EBC005636869601344198163689DF84D
:10EB300006901A44451C937A23F020039372ADB2D9
:10EB40008246C8E7ADF804A08DF80690A6E700BF9E
:10EB5000F0FC002010B5144C4FF4927021462DF0BB
:10EB6000D3FEB4F90030002B05DA104B44F22752E3
:10EB70001A8036F093FD0E4940F21E202DF0AAFEB9
:10EB80000C4940F21F202DF0A5FE2388606830223A
:10EB90005A43002138F0F0FA2288206ED20000217A
:10EBA000BDE8104038F0E8BAF0FC00205C2F0020EF
:10EBB000F4FC002050FD0020074B5A681988002300
:10EBC00008321846994202F1300200D170470133F1
:10EBD00022F8300C9BB2F5E7F0FC00202DE9F0475D
:10EBE000064650B1714CD4F8DC20A0F110039A42D3
:10EBF00003D110F80C3C192B07D06D4B44F2664240
:10EC0000BDE8F0471A8036F037BDB4F8E030B3F510
:10EC1000E06F40F0BD8004F1F407D4F8F450002D0B
:10EC200069D1DFF8AC81DFF88891DFF8A8A1D4F8CA
:10EC30008050002D68D1E82798F80030AB4200F2F0
:10EC40009A800025012084F87C5084F81A51FDF741
:10EC50008DFEFBF789FE5748C4F8D85001274FF4C2
:10EC60008068C4F8E450A56231F0A8FC524B5348C8
:10EC7000E363C4F8348084F83870256131F09EFC79
:10EC80004FF47A73E3614E484E4B636284F8207010
:10EC9000256431F093FC4C4B6365C4F84C8084F8D8
:10ECA000507084F8C450C4E93355C4F8D45038F0D7
:10ECB00073F9FBF7CDFEFFF77FFF40F23233A4F884
:10ECC000E03033783372414835F09AFD73682BB9E0
:10ECD000374B44F269421A8036F0E0FC736806F163
:10ECE00008009847D4F8DC30002B5CD00020BDE849
:10ECF000F047FCF7D4B8384635F082FD0022A32156
:10ED00002846FCF7F9FB88E72946504635F07EFD9A
:10ED1000D8F80870E823EF1BB7FBF3F798F800303A
:10ED2000FFB2BB4205D844F24243A9F8003036F0A6
:10ED3000B5FCE8235F43D8F80830DA19D85992F8BF
:10ED4000D830C3F34603DAB2012A11D05BB24BB11B
:10ED5000022A3FF46CAF44F24343A9F8003036F086
:10ED60009DFC62E7697B05F10802FCF7C5FB5CE7E7
:10ED70000022A721F9E7D8F8080005FB070090F862
:10ED8000D830DB0701D5FBF7D5F90135EDB253E7F4
:10ED9000B3F5007F3FF455AF054B44F267421A804C
:10EDA00036F07CFC4DE7BDE8F08700BFF0FC0020AA
:10EDB0005C2F00201CFD0020E1AB000104FD0020C1
:10EDC00034FD00202DAC000115C00001CCFD002059
:10EDD000E834002070FD0020094A03B2506882B078
:10EDE00048B1002B09DB11889AB2914205D903EB97
:10EDF000430300EB031002B070470020FBE700BFA5
:10EE0000F0FC00202DE9F047774C8AB098464FF08F
:10EE1000FF330093A4F8C830002384F8CA30C4F844
:10EE2000A400AF238946154684F8C6300590FCF748
:10EE30000DF89DF848608DF81800A24618B9022018
:10EE40000AB0BDE8F08705A830F078FD079B1BB13C
:10EE50006A46191D8B4210D1A6B99DF82530002BAA
:10EE600052D0089B1A685B68CAE922235F4BCAF834
:10EE7000A03034464FF0FF351CE013F8010B02F8C8
:10EE8000010BE7E7DAF8C030B3F910501A690192C4
:10EE9000002D9C7C05DA564B44F204521A8036F061
:10EEA000FDFBADF804508DF806400198FFF794FF84
:10EEB000CAF8A000009F7A1CC1D0DAF8A03043B98C
:10EEC0004FF0FF336FF00302CAE92223474BCAF821
:10EED000A0309DF82430012B1CD1F9F769F80028E7
:10EEE000ADD0F9F7D7F8AC23CAF898008AF8C63045
:10EEF0000027DAF89830002B57D13D4B44F20552E9
:10EF00001A8036F0B9FB9AE7284601F07FFECAF86E
:10EF1000A000AEE7DAF8A03002AA03F1080110461B
:10EF20008B4227D12EB9FEF7C1FA019005B2C0F38A
:10EF30000744002D83DB2F4BADF80450D3E90201C9
:10EF4000DDE90223994208BF90428DF806400CBFCC
:10EF5000B123AB2301988AF8C630FFF7B5F96307F0
:10EF6000CAF898000BD5002EC2D184F00807C7F369
:10EF7000C007BEE713F801CB02F801CBD0E7DAF8FF
:10EF8000603023B1BAF80020ABB29A4205D8184BD2
:10EF900044F221521A8036F081FBDAF8603003EB3C
:10EFA000C5035B689F42A3D249E7ADF804508DF8D2
:10EFB0000640019BCAF8C830F8F73EFF9DF81830AC
:10EFC0008AF89C008AF8A8308AF8A9908AF8AA7072
:10EFD000CAF8AC801EB122F0C5F9CAF8A0000648F4
:10EFE00030F0A0FC01202BE7F0FC002078FD002091
:10EFF0005C2F0020502C002080FD00202DE9F341E3
:10F00000664C94F8C4602546B6BBD4F8CC30DBB16E
:10F0100004F1CC0035F0F4FB012384F8C430C4F8CB
:10F02000C000028C90F82410009605465C4B806A64
:10F03000FFF7E8FE01281FD0284684F8C46002B01C
:10F04000BDE8F041FBF7B4B9D4F8D030BBB104F15E
:10F05000D00035F0D5FBA0F10C03C4F8C03001237B
:10F0600084F8C430B0F8B82090F8BD100093D0F800
:10F070009C004C4BFFF7C6FE02B0BDE8F081D4F80F
:10F08000D430002BF8D004F1D40035F0B9FB04469D
:10F09000A0F10C07B0F8B80001F0B8FD01268046D9
:10F0A00085F8C460C5F8C070F8F7C6FE94F8BD20B6
:10F0B00094F8CE3085F8B02094F8D42085F8AF309D
:10F0C000D4F89C3085F8B100C5F8A030002A3ED1B4
:10F0D00054F80C3C93F83410C1F3400385F8AE307B
:10F0E000C1F30016F8F7A8FEA0B9002385F8C430D4
:10F0F000D5F8A03095F8B020C4F89C3004F10C008D
:10F10000012384F8BD2084F8C13002B0BDE8F0418D
:10F11000FBF764B9221D31464046FFF713FA012878
:10F12000AAD00023022885F8C43035D00028DFD0CB
:10F130000146002254F80C0CFCF7DEF93846FAF7C9
:10F14000F9FF012002B0BDE8F041FBF7A8BE13F8BB
:10F15000493CAB3B072B18D8DFE803F00E04171728
:10F1600010170E0E012385F8AE30F8F765FE002863
:10F17000BBD0221D0021CFE70023F4E784F8C16053
:10F1800004F10C00FBF72AF9EFE7074B44F20252B7
:10F190001A8036F083FAE8E7AD20C9E7F0FC0020DA
:10F1A000FDE7000161C400015C2F002030B585B08F
:10F1B000CDE90001684614461D46FEF777F9039035
:10F1C00000B200280FDB9DF80E305B070BD4074B15
:10F1D0005B6800EB400003EB0010C0E9004503A9A9
:10F1E000152031F049F805B030BD00BFF0FC00201B
:10F1F0001FB5019000B2FCF73DFB05B05DF804FBC4
:10F200001FB5CDE9000168461446FEF74FF901B27B
:10F21000002905DB2046FBF707FE002004B010BDE7
:10F22000A620FBE7014B1870704700BF841F012028
:10F2300082B0C0F30741019000B202B0FCF704BBFA
:10F2400000B50123002189B01A460846FAF738FFB5
:10F2500000B2043011D14FF0FF324FF0FF33CDE94F
:10F260000223074A1068516804AB03C39068D16851
:10F2700003C304A902A8FFF75CF809B05DF804FB1A
:10F280007C57040100B50123002189B01A460846C5
:10F29000FAF716FF00B204300DD14FF0FF324FF0F5
:10F2A000FF3304A92D20CDE902232DF02DFB04A965
:10F2B00002A8FFF71FF809B05DF804FB30B587B06E
:10F2C000FEF7F4F804B2002C0546019036DB204628
:10F2D000FBF796FD02460068516802AB03C39068D5
:10F2E000D16803C32046FBF78BFD04462846FEF792
:10F2F000EBFF03682360436863608368A360C368AF
:10F30000E3600198FEF7E0FF02AB024603CB5160D9
:10F31000106003CB9060D160BDF9042002EB420382
:10F32000074A526802EB031201A9937A23F00C03F7
:10F3300043F022039372152030F09EFF07B030BDDA
:10F34000F0FC002082B0C0F3405002B07047184A71
:10F35000526833B48AB94FF6FA73ADF804308DF8B9
:10F360000620BDF80430002063F30F00BDF806301E
:10F3700063F31F4002B030BC704738B94FF6FB73DF
:10F38000ADF8043000238DF80630EAE7D0E9002319
:10F390004FF0FF356FF006049D4208BF9442EDD355
:10F3A00001231A46002102B030BCFAF789BE00BF23
:10F3B000F0FC002082B0019000B2002808DB054B71
:10F3C0005B6800EB400003EB0010837A1943817205
:10F3D00002B07047F0FC002082B0019000B200281B
:10F3E00009DB064B5B6800EB400003EB0010837AFF
:10F3F00023EA0103837202B0704700BFF0FC0020D3
:10F4000010B5044638B90E4B4FF48B42BDE810409E
:10F410001A8036F031B9FBF7B1FB072384F85D3071
:10F4200004F1700363660B2384F86030054BA36618
:10F43000054BE3662046BDE81040FBF7DFBD00BF8B
:10F440005C2F00204DBB000195AB000138B5044690
:10F45000051D38B9124B44F2F0521A80BDE838400D
:10F4600036F00AB92846FBF789FB082384F8613097
:10F4700004F18003A36694F88830022B0ED0042B8D
:10F480000CBF0C23042384F86430064BE366064B60
:10F4900023672846BDE83840FBF7B0BD0C23F2E7F0
:10F4A0005C2F0020EDBB0001C5A5000108B50B4B8A
:10F4B0004FF48872A3F8E0200022C3F8DC2083F820
:10F4C0007C2083F81A21C3F81021FBF74DFAFFF7CF
:10F4D00041FBBDE80840F8F715BA00BFF0FC00207A
:10F4E00010B50C490446252030F05AFE0949382051
:10F4F00030F056FE3CB9084B44F26042BDE8104083
:10F500001A8036F0B9B8192323712046BDE810409F
:10F51000FBF7D8BD881F01205C2F002028B9054BC0
:10F5200044F261421A8036F0A7B88A220271FBF7D2
:10F53000C9BD00BF5C2F002028B9054B44F26242D0
:10F540001A8036F099B8C5220271FBF7BBBD00BF27
:10F550005C2F0020044BB3F8E00040F23F43C31A95
:10F5600058425841704700BFF0FC002070B51B4C5A
:10F570002269207B0023603A6025D9B288420AD8EC
:10F580000025E8262378AB420DD894F872010030AC
:10F5900018BF012006E0013305FB03F1515C00298F
:10F5A000EBD0012070BD36F0A5F915FB06F170B166
:10F5B000A3680B4493F8D820D20705D593F8D93027
:10F5C00003F00F03022BECD10135EDB2DAE7A268AC
:10F5D0000A4492F8D830DB07E3D4F5E7E83400209A
:10F5E0002528F8B50C4607D1FFF7C0FF237880F037
:10F5F000010018402070F8BD3828FCD1114B187854
:10F600009D680022E82640F20127D3B2984204D830
:10F610000023227813432370EDE706FB0251B1F873
:10F62000D83023F0FE031B051B0DBB4205D191F81A
:10F63000D83003F0FA03022B01D00132E5E70123B1
:10F64000E7E700BFE83400200378DA0610B5044687
:10F6500001D5FBF7FDF923781B0703D5BDE8104062
:10F66000FFF7AABA10BD10B5044638B90D4B44F2E5
:10F670009052BDE810401A8035F0FEBFFBF77EFACD
:10F68000092384F85D3004F170036366042384F871
:10F690006030054BA366054BE3662046BDE810408D
:10F6A000FBF7ACBC5C2F002081BB000185A30001EF
:10F6B00070B51E4C94F81A1194F87C200B46013357
:10F6C000DBB2082B28BF002322FA03F0C00728D59D
:10F6D000012199404A4084F87C20154A84F81A3167
:10F6E00002EB83035D6D2DB9124B4FF488421A80F3
:10F6F00035F0D4FFA84794F87C30ABB10E4C23888A
:10F700009B0611D429F078FE238843F02003238040
:10F7100029F082FE094B0A481B68BDE870401B694E
:10F7200018479942CBD1E6E770BD00BFF0FC00203E
:10F73000385704015C2F00201A0A012050340020A1
:10F740005434002010B5044638B90A4B4FF48C42AB
:10F75000BDE810401A8035F08FBF00F1080106485F
:10F7600035F02AF8002384F878300720BDE81040EF
:10F77000FBF795BB5C2F0020D4FD0020014B1882C5
:10F78000704700BF502C002010B5044638B90E4B0E
:10F7900044F27052BDE810401A8035F06DBFFBF79F
:10F7A000EDF9062384F85D3004F1700363660E23DF
:10F7B00084F86030054BA366054BE3662046BDE840
:10F7C0001040FBF71BBC00BF5C2F0020ADBB00014D
:10F7D000E1A10001054BD0E90001D3E902239942E0
:10F7E00006BF904201200020704700BF502C00202F
:10F7F00000487047582C002000487047602C0020BB
:10F8000010B50B4CD4E90223013308BFB2F1FF3F1E
:10F810000BD021F0A7FDD4E90223D0E900019942E1
:10F8200006BF90420120002010BD0220FCE700BF6F
:10F83000502C0020F8B5436990F89D60D3F89050A3
:10F84000044605212846FCF773F92246EE7052F86B
:10F85000813F6B605368AB609368EB60D3682B614A
:10F8600094F880302B75A1884FF6F773A4F1080641
:10F8700099429CBF3368C5F8153005F115028ABF5F
:10F8800000237368C5F815305360FFF7B9FF0228ED
:10F8900005F11D0714D10E4B03CBC5F81D0079608F
:10F8A00094F891305BB1F8F7CDFA40B194F892300A
:10F8B0002BB1252384F86030064BA3616666F8BD42
:10F8C00021F050FD0368C5F81D3043687B60E7E711
:10F8D000582C00203DBD000138B50446FFF790FFCD
:10F8E0006168084B0546206803C3FFF789FF85421E
:10F8F000014602D0232030F0BFFC2046BDE838404E
:10F90000FFF75AB8582C002008B5FFF779FF0030F0
:10F9100018BF012008BD094BD3E90223591C08BFB9
:10F92000B2F1FF3F07D0D0E90001994206BF9042F3
:10F930000120002070470120704700BF502C00209C
:10F9400038B5446805460CB103682BB9104B44F236
:10F9500026621A8035F0A2FE94F82430412B14D18F
:10F960002868FFF7D8FF80B194F8343073B1A16AEA
:10F97000084A362384F8243001F10B03A362281DC2
:10F980000331BDE83840FCF715B8012038BD00BF91
:10F990005C2F00200DA70001014B184481747047B3
:10F9A000502C002013B5002401A90748019430F021
:10F9B0002BFE30B9019804F57A74B0FBF4F002B074
:10F9C00010BD2046FBE700BF1043002038B50446B9
:10F9D00018B190F8A830042B07D00F4B44F25062B6
:10F9E0001A80BDE8384035F047BE051D2846FBF7B4
:10F9F000C5F80F2384F8613004F1A003A3661C232B
:10FA000084F86430054BE366054B23672846BDE860
:10FA10003840FBF7F3BA00BF5C2F002051BC000157
:10FA20000DA6000138B5044618B190F88030042BBB
:10FA300007D00F4B41F234221A80BDE8384035F030
:10FA40001BBE051D2846FBF799F8102384F861308A
:10FA500004F17803A3660D2384F86430054BE36654
:10FA6000054B23672846BDE83840FBF7C7BA00BFFF
:10FA70005C2F0020D5BC000155A60001034B007887
:10FA8000002283F87E209B6F184700BF5040002063
:10FA9000054B0278D3F8F03022B91A7203F108004E
:10FAA0005A6810470722F8E750400020024B002216
:10FAB00083F89A21704700BF50400020034B93F811
:10FAC00099216FF3041283F8992170475040002068
:10FAD000044AD2F8803000211870C2F8801018460D
:10FAE0005A6810475040002070470379032B09D013
:10FAF000022B09D1C0884FF6F77398428CBF0020C3
:10FB000001207047012070470020704713B504465C
:10FB100001A930202CF0F8FE0198084B204330EA70
:10FB2000030308D040F2FF7330EA03030CBF012047
:10FB3000002002B010BD0120FBE700BF00F8FF0766
:10FB400037B5002501A9044640F2222001958DF821
:10FB500003502CF0BFFE0DF1030140F22B102CF0EE
:10FB6000D3FE019B4FF4D472E41AB4FBF2F4E4B276
:10FB700002FB043484F8A05103B030BDE0E7DFE7B6
:10FB8000427F034632B1A0F5BC701B78026B537004
:10FB9000FCF7A8BDD4E7D3E700B501388DB00B283A
:10FBA0000DD8DFE800F0060C0C0C0C0C0C0F150C3B
:10FBB0000C1F60238DF8043001A831F019FE0DB040
:10FBC0005DF804FB95238DF80430ADF80510F3E7DC
:10FBD00053238DF804300B68CDF805304B68CDF811
:10FBE0000930E9E75123F4E710B5084CFAF710FAA9
:10FBF00000236371211D064BA36022202CF084FE9C
:10FC00002046BDE81040FAF7CDB900BFB804012086
:10FC100015FC000138B50546F4F7CEFB2B790446F8
:10FC200053B9F4F7C9FB054BA3F8C400A30703D5E8
:10FC3000BDE83840FAF7EDB938BD00BF50400020AC
:10FC400013B5134C01A930202CF05EFE042384F878
:10FC5000753094F87430013B84F8743004F1540327
:10FC600093E80300E0602174F4F7CAFB019B23636F
:10FC7000084BDA7B9B782376C4E90001064B84F8B5
:10FC8000342020466361F4F731FF02B010BD00BF9D
:10FC900050400020802C00202517010108B50C4998
:10FCA0003B202CF031FE0B4B052283F87520FE32F1
:10FCB000A3F85420084A127802F007020121022A10
:10FCC00083F8561008BF83F85810BDE80840B7E71E
:10FCD000C440002050400020802C002008B50021A6
:10FCE000054B4FF480620846A3F8B02230F0C4FA06
:10FCF000BDE80840D2E700BF50400020A0E707B5AC
:10FD0000002300226846CDE90023F4F77FFB03B00F
:10FD10005DF804FB37B5174C174D01A930202CF0C6
:10FD2000F3FD032284F8752004F1540292E80300E5
:10FD300084F83C10E97B84F84D102978019AA0637F
:10FD400001F007010129226409D104F145012420B1
:10FD50002CF0DAFD04F146010D202CF0D5FDAB7836
:10FD600084F844300348054BA364F4F70FFA03B05A
:10FD700030BD00BF50400020802C0020DD0101017B
:10FD80000548082380F87530044B1B7C0371044B35
:10FD90008360F7F75DBD00BF50400020802C00203D
:10FDA0002D0201010348092380F87530024B83605E
:10FDB000FFF7B4BB5040002005230101054B1B7821
:10FDC00003F00703022B00D1ECE7012B00D1D7E7AA
:10FDD000704700BF802C00200F4AD2F8B83230B4F0
:10FDE000D3F8AD5003F5BC70002183F8881193F867
:10FDF000881125FA01F4E4070BD5002183F880115E
:10FE00000649C3F89011032382F8BE3230BC25F0B6
:10FE1000B7B80131E9E700BF5040002021FE0001E2
:10FE2000F8B50678104D0446A6B9A0F10C01D5F836
:10FE3000B87216202CF094FD14F80C0CF4F7FAFAB2
:10FE400097F8B200F4F712FBFCF71AFD31460620D2
:10FE500030F012FA002385F8BE32C5F8B8322046D9
:10FE6000BDE8F8406CE600BF5040002000B58DB002
:10FE700006281BD8DFE800F0041A1A1A1D1F2100FB
:10FE800090238DF80430F4F7A9FAADF80500F4F7E3
:10FE900055F8ADF80A00F4F7C7FA8DF80900F4F741
:10FEA000A3FAADF8070001A831F0A2FC0DB05DF88F
:10FEB00004FB9123E5E78F23E3E78E23E1E710B509
:10FEC00003288CB00C461FD0072828D0022819D14F
:10FED000D1F80200D1F806100122F6F70DFB88B91F
:10FEE00092238DF804302368CDF805306368CDF88F
:10FEF00009302389ADF80D3001A8A37A8DF80F30B1
:10FF000031F076FC0CB010BDD1F80200D1F806102B
:10FF10000022F6F7F1FA0028F4D09323E1E7FFF787
:10FF2000F3FC0028EED05023DBE708B52CF036FBBD
:10FF300002494020BDE8084030F032B9DC1B012006
:10FF400010B50446F4F784FD2046BDE81040F7E5FF
:10FF500008B529F0B9FC044BD3F8C03083428ABFFE
:10FF6000DB43C01AC01808BD5040002010B50C4C2F
:10FF7000042384F89032FFF73BFC02460068516886
:10FF800004F5227303C341F28833C4F884320E238C
:10FF900084F8AC3204F5F470BDE81040FFF716BDEC
:10FFA0005040002010B586B011F0FF0F01910E4CAB
:10FFB00015D04FF48053ADF80C3001AB049303A976
:10FFC00000231E20059330F057F994F8AC320E2B25
:10FFD00005D1059B1BB904F52270FEF753FB0123E5
:10FFE00084F8AC3206B010BD5040002010B5044675
:10FFF00031F0C8FB2046BDE81040A1E510B50D4A20
:020000040101F8
:100000000D4C012303FA00F0137D1843238810756B
:10001000DB060ED429F0F0F9238843F01003238087
:1000200029F0FAF9054B06481B68BDE810401B692A
:10003000184710BDDC1B01201A0A01205034002093
:1000400054340020094B10B4002841F6FE7440F2ED
:100050008342196D08BF2246A3F8B0220B2288768E
:100060005DF8044B83F875200320C7E7504000205B
:10007000024B092283F8AC220020BFE75040002049
:1000800008B5074AD2F88430002118701846C2F823
:1000900084105A6890470220BDE80840AEE700BFD0
:1000A0005040002010B50B4BD3F8B432A0F58A7243
:1000B0003BB1547A19798C4209D1C27A1A7403225D
:1000C0005A71FFF73DFD0420BDE8104096E71B681C
:1000D000EEE700BF5040002010B5044610F8443C45
:1000E00014F84C2980F8D320023B072B20D8DFE8F6
:1000F00003F004111F1F131F1F175AB9042300F820
:10010000443C21460B4834F09FFB88B10120BDE8F8
:10011000104073E70723F2E7002AFBD10523EEE73F
:10012000052380F8D330D0F8C430C8309847E8E7CA
:1001300010BD00BFF0410020F8B51C4ED6F8A0411C
:100140004FF0FF35072764B96B1C29D0184B1948AD
:100150002A46012136F06AF91648BDE8F84036F023
:1001600079B9227A931E022B9FBF6368D6F8B0112B
:100170005B1A636063687BB9042A0BD1B4F854300E
:100180002772062B0CBF0D23022384F81F31012098
:10019000FFF734FF2468D6E79D4228BF1D46F9E7E4
:1001A0000448BDE8F84036F05DB900BF504000207B
:1001B00039010101F4410020074B002210B504462B
:1001C00083F87520DB6D98472CB921460E20BDE8D9
:1001D000104030F051B810BD50400020007800B9F8
:1001E000CEE5E9E7007800B9DCE5E5E710B50446BF
:1001F000F3F7A4FEA04211D04FF6F7739C420FD83C
:10020000F4F70CF902280DD02046F4F7AFFD58B1F1
:100210000378012B14BF8120892010BD0020FCE74A
:100220000720FAE78020F8E78120F6E70078B8B9E0
:100230000C4B1B7813F0070300D1B3E5012B10D151
:10024000094B072283F8752003F1540292E803005A
:10025000064AD86183F820105A621846F9F7F2BAB4
:10026000AAE77047802C002050400020E5010101E2
:1002700008B5FFF7C5FA012811D1094B094A5A629E
:1002800083F8200040F6B83203F11400DA6130F050
:100290006BF905494020BDE808402FF0BBBF08BD01
:1002A000B80401202BFF0001DC1B012010B504461F
:1002B000FFF746FCE37ABBB9E2682369A08AF5F749
:1002C00047FD0D4B1B7813F0060214D10B4890F834
:1002D000993199060FD562F3451380F89931BDE83D
:1002E0001040F830FFF750BA044A92F8993123F0E1
:1002F000300382F8993110BD802C0020504000203E
:1003000013B5342069462CF0FFFA01A922202CF005
:10031000FBFA9DF80400134CF6F7FCF84FF47A73DF
:100320005843009B9B00984228BFB0FBF3F094F821
:10033000C93038BF0A20019093B994F8CA207AB125
:1003400084F8A03004F19C00074BC4F8A430F9F7FE
:10035000D1FA012384F8C93029F0B6FAC4F8C000F4
:1003600002B010BD504000209D12010137B51B4C5A
:1003700094F8CA303BB301A934202CF0C5FA35F00B
:10038000B9FA30B3FFF7E4FD019DA8421DD2FFF793
:10039000DFFD281A019D854207D3FFF7D9FD019D96
:1003A000A84214D2FFF7D4FD2D1AC4F8B45001238B
:1003B00084F8B8300A480B4BC4F8BC3030F0FEF873
:1003C000074830F0D1F803B030BD0020E2E7002547
:1003D000EBE7019BC4F8B430E9E700BF50400020D0
:1003E000FC4000200103010107B50A4B012283F8FC
:1003F000CA2001A934202CF087FAFFF7A9FD019B40
:10040000984204D2FFF7B2FF03B05DF804FBFFF798
:1004100077FFF9E75040002013B504460DF10701BE
:100420001A202CF071FA23788BB99DF80730022B33
:1004300004D0F9F755FA08B1F9F740FA064B002055
:1004400083F8C600D3F884301BB1FFF719FE02B061
:1004500010BD31F0DFF9FAE7504000202DE9F74FE9
:10046000B74DD5F8A04147F6FF7648F22009002C99
:1004700000F0F581237A072B00F28780DFE813F084
:10048000080085008500850085009A019A01A50174
:10049000B5F8B0325A0540F1858104F10C0700210E
:1004A000482238464FF0000836F066FE04F1580B3B
:1004B00084F81F81BBE80300A24BA36404F12A0A5D
:1004C000B4F8543094F856E084F828E0C4F82A00D0
:1004D000CAF8041094F8401003EA060C41F04001F9
:1004E000BCF11E0F84F8401004F1580B73D8152B83
:1004F00026D8DFE803F04C4F575759575D2525257F
:100500002525252525255757250B5B51D4F8B310F4
:10051000D4F8AF0001314FF00C0308BFB0F1FF3F3A
:1005200063870DD1012384F8413094F8AE2094F80C
:10053000AD3043EA0223A4F84230002384F844306B
:10054000B4F85430E386132B06D003EA0602382AA7
:1005500002D04B4540F0248103222272628F002A90
:1005600000F0208194F8402022F0210242F0200285
:100570001B0484F840205CBF637A84F8AC3004F13B
:10058000AC02E2633846FCF7ADF824686FE70B2352
:100590006387D5E70523FBE794F840306FF38613B4
:1005A00084F840300323F3E70423F1E71423EFE753
:1005B00094F8B10094F8D42040005200C0B2D2B2F6
:1005C0008318073320446387013204F1D401B23029
:1005D00036F008FBB4E71F2B04D194F8AD30DB00F4
:1005E0000233D5E7ACF12101012918D8162363871E
:1005F00094F8B830012B04BF0F236387BEF1020FBC
:1006000094F8403040F09880618D4FF6F772914237
:1006100040F292806FF3820384F8403090E7BCF19F
:10062000330F01D10223B3E7BCF12F0F88D9BCF1FE
:10063000380F27D948F23B018B4281D1F4F72EFACB
:100640006946824630202CF05FF984F8AD80009B2B
:10065000C4F8AE30F4F736FA84F8B800BAF80230CD
:10066000A4F8B230BAF80430A4F8B430BAF80630BE
:10067000A4F8B6300D23638795F8BC315A1C85F871
:10068000BC217EE0342B0FD004D8312BCAD0322BC2
:10069000C8D055E7382B34D048F23802934253D0B3
:1006A000362B7FF44DAF7DE70A23BEF1030F63873E
:1006B0007FF446AF04F1AD0808224146584636F0B3
:1006C00033FC20B90022C4F8AD20C4F8B120DBF817
:1006D0000000DBF804106B4603C3DDE9002313437D
:1006E00008D0DBF80030CAF80030DBF80430CAF874
:1006F000043025E720F036FE0368CAF8003043686E
:10070000F5E70723638794F8B130FF2B04BF092373
:10071000638794F84030BEF1020F6FF3820384F8D0
:1007200040307FF40DAFB4F858204FF6F6739A427C
:100730003FF606AF94F8403043F004036CE700BF87
:1007400050400020D9000101F3F720FFA4F8B200C7
:10075000F3F722FFA4F8B400F3F724FF0B23638719
:1007600094F8AD3083B994F8B6300B336387D5F87D
:10077000B832002B3FF4E4AE9C427FF4E1AE95F832
:10078000BD3284F8AC30DBE6002384F8AE3084F868
:10079000AF3084F8B03084F8B13084F8B630E6E792
:1007A0000222DAE60723237284F81F310120FFF7C3
:1007B00025FCEAE6052B0CBF04230223237204F573
:1007C0008A70D4F810319847DFE62146284834F083
:1007D0001DF894F81F3163B9B4F85430012B06D1D9
:1007E000D4E94823B4F82801F5F7B2FA01E0002B68
:1007F000F6D0B4F85430042B26D194F829010723FD
:1008000003EB4003112804F2231628BF1120F1182E
:1008100004F2771284F82901C81C824222D3F35CC7
:10082000521A112B02F1FF324FEA520228BF112354
:100830009A4228BF1A46D6B20131520004F24D1036
:1008400036F0D0F984F84C61D4F8103104F58A7090
:100850009847D5F8A0313BB10120FFF7CFFB03B09B
:10086000BDE8F08F0026EDE7024835F0FBFDF6E726
:10087000F0410020F441002038B50246456ACC6BB7
:10088000FFF733F9022381F82830138A4B85D38B85
:1008900081F8A1016FEA43436FEA5343CB86074BCC
:1008A0008B6491F8403023F0250343F0240381F852
:1008B00040302B7823700023637038BD7DFB00012E
:1008C00073B5002401A940F2222001948DF8024062
:1008D0008DF803402BF0FEFF0DF1020140F22B10CA
:1008E0002CF012F89DF80220019BA24209D10123AD
:1008F0000DF1030146208DF8033000252FF0BCFCDC
:1009000016E01D4603F5D47313F8086C9EB9012355
:1009100085F8A0314822314605F10C0036F02CFC58
:1009200005F1AC0359223146184636F025FCE86340
:10093000284602B070BD0134E4B2D6E710B5054CCC
:1009400094F8BE3223B9FFF7BBFFC4F8B80210BD5C
:100950000020FCE750400020FFF7F2B870B50A4DC8
:10096000D5F8B44205263CB9084AC5F8B442137D0F
:1009700023F01003137570BD2046636900F8106FF3
:1009800098472468EFE700BF50400020DC1B01209F
:1009900070B50D4D05F5D270D5F8A04135F062FD6A
:1009A0000A4A137D23F002031375052614B9C5F80E
:1009B000A04170BD84F81F61D4F8103104F58A702D
:1009C00098472468F2E700BF50400020DC1B01205C
:1009D00037B505460DF107011A202BF095FF9DF85C
:1009E0000730114C022B14D194F8C7308BB934F076
:1009F00081FF58B12AF042FE0DB1FFF7F5FC00234C
:100A000084F8C63030F006FF03B030BDFFF778FC45
:100A1000F5E76FF07F43C4F890300448044BC4F806
:100A2000943024F0A7FAEFE750400020D84000208F
:100A300019040101074B1A6D4AB1DA6D4AB9064A29
:100A4000DA65012283F875200320FFF7D7BA83F80F
:100A500075207047504000204500010110B5014647
:100A60000F4C98B941F6FE730520A4F8B0322FF070
:100A700003FC0C4B1B7803F00703022B01D1FFF79B
:100A8000B3F80023E365BDE81040D3E740F28343A9
:100A900000210420A4F8B0322FF0EEFBF1E700BFF4
:100AA00050400020802C002013B5164C0DF107019A
:100AB0001A202BF029FF94F8C63003B39DF80730B5
:100AC000022B10D194F8C7306BB934F013FF38B152
:100AD0002AF0D4FD002084F8C600FFF7D1FA0CE01C
:100AE000FFF70EFCF6E76FF07F43C4F8903006483E
:100AF000064BC4F8943024F03DFA02B010BD8020BB
:100B0000EBE700BF50400020D8400020190401014D
:100B1000104B93F8BE22052A10B4194611D193F850
:100B2000BC22D3F8B842013AD2B283F8BC2242B117
:100B3000042204F5BC7083F8BE225DF8044BF3F781
:100B4000FBBA002381F8BE32C1F8B8325DF8044B1D
:100B5000FEF7F6BF5040002008B50123437101465F
:100B6000034833F029FE0420BDE80840FFF746BAE9
:100B70000443002013B504460DF1070129202BF092
:100B8000C3FE9DF807306BB3D4E90023591C08BF9E
:100B9000B2F1FF3F2AD04FF0FF316FF002008B42DD
:100BA00008BF824224D04FF0FF316FF003008B4228
:100BB00008BF82421ED04FF0FF316FF004008B421D
:100BC00008BF824218D0FEF717FE02884FF6F7736F
:100BD0009A4207D82046FEF7FDFD18B1FEF70CFE3D
:100BE00002B010BD2046F5F775F9F9E70348F7E7BD
:100BF0000348F5E70348F3E70348F1E7F41B012056
:100C0000F61B0120F21B0120F81B01204FF6F773A1
:100C1000984210B5044608D8FEF7EEFD0388A342BB
:100C200003D1BDE81040FEF7E3BD2046BDE810400B
:100C3000F4F7AEBB38B51C4C04F120052946002062
:100C40002FF0AEFA294604202FF0AAFA29460520F3
:100C50002FF0A6FA2946062004F134052FF0A0FA59
:100C6000294602202FF09CFA294603202FF098FAFB
:100C70002946072004F148052FF092FA2946012061
:100C80002FF08EFA294608202FF08AFA29460920EB
:100C90002FF086FA29460C202FF082FA21464020B8
:100CA000BDE838402FF07CBADC1B012030F0A0BD3D
:100CB00014F05FBF38B504460088F4F757F80546CE
:100CC00038B1F5F7F5FBA0702846F5F703FCE070A6
:100CD00038BD6080FCE7F8B50446F5F7E5FB067B18
:100CE00000232827DAB2964200D8F8BD07FB03F2AA
:100CF0000568A918AA5C3AB98A68C4F80220CA68CB
:100D0000C4F806208A8822800133EBE7F8B5044650
:100D1000F5F7CAFB54B348B3656855B3016851B3DE
:100D2000037B13B3207840B3013BDBB203EB8303B7
:100D300001EBC3020023167806F0FB06012E10D14A
:100D4000D2E9027E03EB830605EB460C0133DBB2EE
:100D5000CCF8027098429788CCF806E025F8167017
:100D600003D98A42A2F1280601D12370F8BD324688
:100D7000E1E72B46F9E70B46F7E70346F5E7084BB3
:100D80000222C3F8F00083F8D820027883F8E0202C
:100D9000044AC3F8E82003F1D00024F0F1B800BF02
:100DA0005040002091FA000170B50446F5F77CFB35
:100DB000002363702370057BAB4200DB70BD0168CC
:100DC00003EB830201EBC20611F8322002F0FB01B3
:100DD00001290CD17278012A05D1227801322270C2
:100DE00001335BB2E8E7627801326270F8E7002A0B
:100DF000F3D0023A012AF3D8EFE72DE9F047804615
:100E0000F5F752FB002781463E4699F80C309E428A
:100E100001DBBDE8F08706EB860AD9F800304FEA1F
:100E2000CA05581913F83A30032B35D807EB870356
:100E3000828828F8332008EBC304D0E90223C4E9F0
:100E4000022343782374F5F733FB6074D9F800006C
:100E50002844F5F73FFBA074D9F800104B1901376F
:100E60009A7EC2F30002E27411F83A202275D3E9A7
:100E70000401C4E90601DA7884F820201A7E84F897
:100E800021209A7E9B7EC2F34002C3F3800384F844
:100E9000222084F823307FB2013676B2B5E7054BC5
:100EA000D3F8802022B9C3F880000220FFF7A6B84B
:100EB000704700BF50400020044BD3F8842022B973
:100EC000C3F884000220FFF799B870475040002013
:100ED000084B93F8CA2010B54AB993F8C74034B903
:100EE000012283F8CA20FFF70BFA204610BD8020AC
:100EF000FCE700BF5040002008B508B1FEF720FE17
:100F0000064B1B7803F00703022B01D1FFF7E0FF2C
:100F10000020BDE80840FFF74FB900BF802C00203B
:100F2000084890F8CA3010B54BB1002480F8CA4088
:100F300080F8C940AC302FF041FB204610BD802026
:100F4000FCE700BF50400020F7B51A4CA36F0746DE
:100F50000E464BBB184BA36741B301A93F202BF0B2
:100F6000D3FC9DF8043084F87C30012384F87E3073
:100F7000124B84F87D601B7803F00703022B4FF0BF
:100F8000000502D1FFF7CCFF2F4600230022C4E961
:100F900002239DF80430A3740648094B6575E77475
:100FA0002675A361F3F7D4FD03B0F0BD01A940207D
:100FB000D5E700BF504000204D1E0101802C0020CD
:100FC0000912010137B5D0E94D231343044622D05D
:100FD00050F8105C00F59A7020F0D0F9D8B96B7811
:100FE000BBB91C4A8DF80430127884F83E2101A95F
:100FF0005C202BF089FC9DF8043033B1D4E94D011D
:10100000F4F790FE08B1F5F759FD04F59670F3F783
:101010009FFD03B030BD34F8220CFFF7F7FD20F040
:10102000ADF958B98DF8040001A940202BF098FCC7
:1010300094F8401111B935202FF01EF994F83F01B2
:1010400094F84011FFF780FFA4F14C00FEF778FD03
:10105000DFE700BFF06E040170B5114C06460025B5
:10106000E565FFF7E7FC8EB941F6FE7331460520D2
:10107000A4F8B0322FF000F90A4B1B7803F00703F5
:10108000022B0CD1BDE87040FEF7AEBD40F28343A9
:10109000A4F8B03229460120BDE8704054E770BD85
:1010A00050400020802C002013B5114CB4F8B03211
:1010B0001B060BD400230DF1070125208DF8073006
:1010C0002FF0DAF89DF8070002B010BD34F012FCE2
:1010D000D4F8A03138B10BB90123ECE71A7A042A0D
:1010E000E8D11B68F7E7B3FA83F35B09E3E700BFD6
:1010F00050400020014B93F8C6007047504000203C
:10110000034B0022A3F8B022024B4361FEF7E8B97B
:1011100050400020ED1E010137B51B4C00250DF19C
:1011200007011A20A4F8B05284F87550256584F898
:101130007E50A5672BF0E8FB9DF8073084F8C65079
:10114000022B4FF0010304BF84F8CA5084F8C85042
:10115000A4F8C430C4E92055FFF76CFD2EF0BCFBA9
:10116000FEF7A4F936F046F840F28343A4F8B03213
:10117000FFF7A6FB054BC0F8983100F5BC70FFF7F0
:10118000BFFF03B030BD00BF50400020EDFF0001A5
:1011900010B5FEF735FB0A4C0023012884F8AC3269
:1011A00006D1012384F8AC320023C4F8A83210BD64
:1011B0000228F9D1F3F732F90028F2D0F4E700BFA2
:1011C0005040002038B50D4C022284F87E200C4A95
:1011D00084F87D00127802F00702022A0D4601D140
:1011E000FFF79EFEFFF7D4FF0DB9FEF788FD054B14
:1011F000E3600248BDE83840FEF79EB95040002049
:10120000802C00207DFA000108B5037813B9074847
:10121000FEF71AFA064B93F87C1093F87D00002233
:1012200083F87E20C909BDE80840CBE7CC40002008
:101230005040002013B5144CE36D13BB134BE36512
:10124000134B1B7803F00703022B13D10DF103019D
:1012500016202BF059FB0F4930202BF055FB9DF841
:1012600003200123934001A9302001932BF078FB48
:10127000FFF756FEFFF78CFF074B0348E360FEF7CE
:101280005BF902B010BD00BF5040002059100101B1
:10129000802C0020E0040120DDFC00017FB5064623
:1012A000294C00250DF103015C2084F8C9508DF80C
:1012B00003502BF029FB3378EB2B264604D184F81E
:1012C000C850FFF753F808E063B984F8C8309DF8B8
:1012D0000330002BF5D1FFF713F80220FEF78EFE46
:1012E00004B070BD0DF102014FF493702BF00CFBB4
:1012F0009DF8022094F8C830FF2A13D180220133D0
:10130000ADF8042001A904F1C8021E2084F8C830F9
:10131000CDE902252EF0B0FF039B002BD1D084F83D
:10132000C850DAE70133DBB29A4284F8C830C8D833
:10133000D4F8803013B10420FEF7CAFB002386F8EE
:10134000C830FFF777FFC8E7504000207FB5224C38
:10135000C37A002584F8C95026462BB984F8C830D2
:10136000FEF7CEFF04B070BD0DF103014FF4937092
:101370002BF0CAFA9DF8032094F8C830FF2A18D140
:1013800080220133ADF8042001A904F1C8021E2017
:1013900084F8C830CDE902252EF06EFF039B13B907
:1013A000FEF7E4FF01E084F8C8500220FEF726FEB5
:1013B000D8E70133DBB29A4284F8C830F0D8D4F8C9
:1013C000803013B10420FEF783FB002386F8C83079
:1013D000FFF730FFE9E700BF504000200B4B93F8C8
:1013E000AC32012B13B504460ED8FEF794FA58B16F
:1013F000F7F79AFA002804DA002301A80193F8F716
:1014000037F9207AF6F7BCFD02B010BD504000203D
:101410002DE9F041234C94F8AC72012F054633D1ED
:10142000FEF779FA00283BD005F108001FF0A6FF6F
:10143000064640B1002134202EF01EFF0021084650
:10144000BDE8F04180E5D5E90201F4F76BFC38B363
:101450000378012B0FD1D5E90223C4E90223124BF3
:10146000E6745B78A374114BA682A3612046BDE8A5
:10147000F041F3F76DBB052B12D13B46324639469E
:10148000BDE8F041F7F782BB08301FF077FF38B1B5
:10149000092384F8AC320020BDE8F041FEF7AEBD70
:1014A000BDE8F08150400020F06E0401E9FA00012F
:1014B00007B52F200DF107012BF026FA9DF8070044
:1014C00003B05DF804FB30B5054685B0D0E90001F6
:1014D000F4F728FC044698B12846F5F7C1FE78B128
:1014E000A388ADF80430A368CDF80630E368CDF8E2
:1014F0000A3001A9A3788DF80E3002202EF0BCFE30
:1015000005B030BD37B50546FEF772F9FBF7CEFFE3
:101510000190FEF775F9022808D12846032300F848
:10152000083F6B6803B0BDE830401847BDF9043090
:10153000002B02DA28460123F1E7144C144941201C
:101540002EF02EFE0D2384F8AC326B68C4F8A43262
:101550002B68C4F884320F4D0198032384F870324D
:1015600004F51C73EB64012385F85430FCF7ACFEE2
:10157000094B286504F2912405F13C00AC652B660B
:1015800003B0BDE830402EF0C7B900BF5040002086
:10159000381C0120B80401206DFF000138B5437AE2
:1015A000084C012B054609D1FEF7B5F930B194F886
:1015B000AC320E2B02D12846FDF764F8012384F8E3
:1015C000AC3238BD5040002008B50146034833F026
:1015D000F3F8BDE80840FFF72DBA00BFA040002097
:1015E000034A92F87430184482F87400704700BFC0
:1015F00050400020082810B5044603D1BDE8104033
:10160000FEF7DCBBFEF77BFB2046BDE81040FEF793
:10161000D3BD10B5134C94F8AC32082B02D0092B73
:101620000FD010BD104B1B7803F00703022B01D124
:10163000FFF776FC012384F8AC32BDE81040FEF7DA
:10164000BDBB094B1B7803F00703022B01D1FFF749
:1016500067FC002384F8AC320920BDE81040FFF796
:10166000C9BF00BF50400020802C002037B5FFF7D5
:101670001FFF274B1B7803F00703022B054601D100
:10168000FFF726FC0DF1070129202BF03DF99DF80D
:1016900007301BB9FEF792FB03B030BD1D4C94F828
:1016A0005430012B06D10823002084F8AC32FEF719
:1016B000A5FCF1E7033B012B03D8F6F779FC0028E2
:1016C000F1D1FFF7F5FE012804D894F8AC322BB124
:1016D0000923E9E70E20FFF78DFFDDE7032D06D88C
:1016E000DFE805F013130213022384F8AC32012360
:1016F00084F8CC310849094BC4F8D0312C202BF0A8
:1017000003F907482EF030FFC6E70323EDE700BFDB
:10171000802C002050400020184200207100010160
:101720001042002038B5C37A114C054633B9062360
:1017300084F87530BDE83840FFF798BF94F87430EE
:101740007BB104F168013C202BF0DEF8012384F822
:101750006C30084B236704F16000BDE838402EF080
:1017600003BFFEF7CCFAE87ABDE83840FEF724BDA7
:1017700050400020FDFC000113B50D4C01A93020A4
:101780002BF0C2F806232373F2F73AFE019B236382
:10179000084BDA7B9B782376C4E90001064B84F87A
:1017A000342020466361F3F7A1F902B010BD00BFF9
:1017B00050400020802C00204D130101034BB3F852
:1017C000B00280F40060C0F3C02070475040002099
:1017D00030B587B00DF107011A202BF095F8FFF70F
:1017E000EDFF00BB9DF80730022B03A90CBF35208D
:1017F00036202BF089F801238DF8103034F07AF878
:1018000050B3039C002C49D0FEF7A2FB039B8342FC
:1018100004460BD829F032FFFEF7E6FD0420FEF760
:1018200057F907B030BD00230393E4E71B1A02A960
:101830002E2002932EF020FD029B13B929F01EFFEB
:10184000ECE70398001B83423CBF00228DF8102078
:10185000834294BF039303900020FEF739F91A4B9B
:10186000012483F8C64003A835F080FA9DF80730BC
:10187000022B26D1FFF7A2FF18BB9DF8103003B34F
:10188000FEF766FB03A9054635202BF03DF8039BC8
:10189000AB4216D82046FFF79BF8C2E74FF0FF3364
:1018A00002A92E2002932EF0E7FC029B002BC5D04C
:1018B000B3F1FF3F18BF1C46002303948DF810308E
:1018C000CAE70020E7E700BF5040002073B51A20A8
:1018D0000DF105012BF018F89DF80530444C022B52
:1018E00003D194F8C930002B3BD1D4F88060002E8E
:1018F00076D00DF106011A202BF006F894F8C650A8
:101900001DB18020FEF7E4F825E0FFF7CDFB50BBCA
:101910000420FEF7DDF89DF80630022B01D00025EB
:1019200019E094F8C750002DF9D133F0E3FF0028F7
:10193000F5D0D4F8A031003318BF01230DF1070111
:1019400038208DF807302EF097FC9DF80730002BDB
:10195000E5D0FEF749FDD4F8843013B10DB1FFF79F
:10196000A3F802B070BD234B1B889BB20BB10420BF
:10197000C8E79DF80630022B28D194F8C7302BBB5E
:1019800033F0B8FFE0B1D4F8A031003318BF012321
:101990000DF1070138208DF807302EF06DFC94F81A
:1019A000CA309DF8076033B92EB1FEF71DFD94F8DB
:1019B000C930002BDBD129F099FE26B984F8CA6022
:1019C0000D482EF0FBFDFFF703FFA8E70023C4F846
:1019D00090300A480A4BC4F8943023F0CBFABAE7A7
:1019E000D4F88450002DB6D0FFF75EF83546B2E744
:1019F000504000201A0A0120FC400020D84000205E
:101A0000051A010110B5047864B9F8F729FB29F02B
:101A10006DFE074880F8CA40AC302EF0CFFDBDE81F
:101A20001040D5E62046BDE81040FEF751B800BF93
:101A30005040002070B51949194C91F86800227D7A
:101A400003460133DBB2062B28BF002322FA03F53D
:101A5000ED071FD581F86830012199404A40227571
:101A6000104A02EB83035B689847237DABB10E4CB1
:101A70002388DB0611D427F0BFFC238843F0100332
:101A8000238027F0C9FC094B09481B68BDE870405A
:101A90001B6918479842D4D1E7E770BDB80401200C
:101AA000DC1B0120F06E04011A0A012050340020D2
:101AB0005434002000487047802C002013B542F2B7
:101AC000107029F003FE6946044633202AF01CFFFB
:101AD000DDE90023134311D009480A4A026104F5E5
:101AE0001C5410348460084C0123037384F8723052
:101AF0002EF03AFD0023E366A4F8703002B010BD6A
:101B00001043002053280101B8040120F0B59B4D7B
:101B100095F875402E6D012C85B004D00B2C00F08B
:101B2000078105B0F0BDB5F8B032D80740F1FE80AE
:101B300005F154013E202AF0E7FEF2F76FFC02A9FE
:101B400006464FF487708DF807402AF0DDFE0DF150
:101B5000050138202AF0D8FE0DF106013920884C05
:101B60002AF0D2FE0DF1070137202AF0CDFEBDF894
:101B70000830A4F8033023789DF805209DF807006D
:101B8000617B66F3020362F3C303237000232373B4
:101B90002388A27B03F01F0343F4804323801F4666
:101BA0009DF8063063F30417472363712B23002845
:101BB000E38063814FF00C0363F3071214BF01232A
:101BC000042363F30302072363F3071180F0010387
:101BD00063F303016173A378A273B11E18BF0121DF
