:0200000400807A
:105F8800FFFF000000400E8438FC745F3B4412148D
:085F98000B0000710200000083
:045FBC0000000010D1
:020000040100F9
:10000000FEFFFFFF01015048434D00000000740057
:1000100000000001000200010002000100000400D5
:1000200000000000000000000000000000000000D0
:1000300000000000000000000000000000000000C0
:1000400000000000000000000000000000000000B0
:1000500000000000000000000000000000000000A0
:100060000000000000000000000000000000000090
:100070000000000000000000000000000000000080
:100080000000000000000000000000000000000070
:100090000000000000000000000000000000000060
:1000A0000000000000000000000000000000000050
:1000B0000000000000000000000000000000000040
:1000C0000000000000000000000000000000000030
:1000D0000000000000000000000000000000000020
:1000E0000000000000000000000000000000000010
:1000F0000000000000000000000000000000000000
:1001000000000000000000000000000000000000EF
:1001100000000000000000000000000000000000DF
:1001200000000000000000000000000000000000CF
:1001300000000000000000000000000000000000BF
:1001400000000000000000000000000000000000AF
:10015000000000000000000000000000000000009F
:10016000000000000000000000000000000000008F
:10017000000000000000000000000000000000007F
:10018000000000000000000000000000000000006F
:10019000000000000000000000000000000000005F
:1001A000000000000000000000000000000000004F
:1001B000000000000000000000000000000000003F
:1001C000000000000000000000000000000000002F
:1001D000000000000000000000000000000000001F
:1001E000000000000000000000000000000000000F
:1001F00000000000000000000000000000000000FF
:10020000F07F012035E0030145FB030149FB0301B9
:1002100051FB030155FB030159FB030100000000E2
:100220000000000000000000000000001130030189
:100230004DFB0301000000006D300301D5300301C8
:10024000137E0301137E0301137E03017154030126
:10025000137E0301137E0301137E0301137E03014A
:10026000137E0301137E0301137E0301137E03013A
:10027000F9D30201137E0301137E0301137E0301F0
:10028000137E0301C5BC0301137E0301137E03012A
:10029000137E0301137E0301137E0301137E03010A
:1002A000137E0301137E0301137E0301137E0301FA
:1002B000137E0301137E0301B1400201137E03018B
:1002C000137E030191400201137E0301137E03019B
:1002D000137E0301137E0301137E0301137E0301CA
:1002E000137E030100000000137E03010043080099
:1002F000DC25012000000000000000000143010097
:1003000089240120000000000000000002430100D9
:100310008C24012000000000000000000A400100C1
:10032000623A0020000000000000000000400400CD
:10033000642F0020000000000000000009400100C0
:10034000A52F002000000000000000000840200051
:10035000D80F002000000000010000000740E80363
:10036000B01600200000000001000000064002005E
:10037000C82F0020000000000000000005403800E9
:10038000F80F0020000000000200000004400300FD
:10039000C22F002000000000000000000340F00019
:1003A000181D002000000000030000000240C800EB
:1003B000A8030020000000000100000001406000D0
:1003C000F8300020F502030100000000ECFB0301FF
:1003D0000900004CF8B500BFF8BC08BC9E46704749
:1003E00031F30301F8B500BFF8BC08BC9E46704766
:1003F0000DF30301004B030001000000A0F57F4056
:10040000FB3804281CD8DFE800F0050E161B03009B
:10041000012070470B4B93F82E20012A10D1187A37
:10042000C0F380007047074B93F82E0001288CBF63
:10043000002001207047034B187AC0F3C0007047BA
:1004400000207047782F0020034B93F85201A0F151
:10045000AA03584258417047983A00200A4AF0B51A
:10046000D2E93A321978C90707D5D0E90067D3E94C
:100470000245AF4208BFA64203D010339A42F1D8DA
:1004800000231846F0BD00BF983A0020074AD2E981
:100490003A321978C90702D55988814203D01033FE
:1004A0009A42F6D800231846704700BF983A0020B9
:1004B000F0B50E4BD3F8E04093F8E57000231D46ED
:1004C0001EB204EBC60292F803C0BCF1000F08D0C4
:1004D00034F83660864204D196788E4204BFD570D7
:1004E00055600133DBB29F42EAD2F0BD983A00205A
:1004F000034B93F84C00A0F1410358425841704718
:10050000983A00203D2803D111B1024B0A881A8085
:10051000704700BF180A0120034B93F83C00A0F17C
:10052000D603584258417047983A0020034B93F83D
:10053000C400A0F11303584258417047983A002074
:10054000034B93F87801A0F1B70358425841704724
:10055000983A0020437800F1080210B513F008041F
:100560000A611DBF0A6000F110020A610C6013F0FD
:1005700010021FBF0A694A6008320A6108BF4A6058
:1005800013F001021FBF0A698A6001320A6108BFC5
:100590008A6013F004031DBF0B69CB601A78CB602F
:1005A0001EBF013203EB42030B610B69181A087579
:1005B00010BD084AD2F80C3292F8082203EB8212DE
:1005C000934201D301207047197809B94033F7E706
:1005D00000207047983A0020034B93F80002A0F1E6
:1005E000DA03584258417047983A0020014BFD22E7
:1005F0001A707047983A0020034B93F8B900A0F1A5
:10060000E603584258417047983A0020034B93F84C
:100610007C02023818BF0120704700BF983A0020C2
:10062000034B93F87001A0F18E0358425841704774
:10063000983A0020024BFB2283F86823704700BFE2
:10064000983A0020034B93F86803A0F1FB0358424B
:1006500058417047983A00200C4B30B12830D3F8FD
:10066000F820904204D300207047D3F8F400F6E756
:10067000037803F0FB03012B05D1837EDB0702D453
:1006800083888B42F0D12830EBE700BF983A0020F6
:10069000084AD2F8F430C01A074BC0104343D2F8CE
:1006A000FC0000EBC3008079430714BF00F0070093
:1006B00007207047983A0020CDCCCCCC144B93F84F
:1006C00000319A4294BF9B1ADB1ADBB299421DD2C9
:1006D000104B68B1597C890708D493F848009042C0
:1006E00094BF0020012080F0010070470020FAE74D
:1006F0005A7CD20705D493F84900884294BF002061
:10070000012080F0010000F00100704701207047D7
:10071000983A0020782F00200B4A10B5D2E93D31DD
:100720001A78062A09D05C78022C06D102F0FB0266
:10073000012A02D19A88824203D028339942EFD805
:100740000023184610BD00BF983A00204BF6DD7319
:100750004343C3F30333094A32F8331030EA01014B
:1007600003D102EBC3035B680BB9002070479A8882
:10077000824201D05B6AF7E701207047E83E002023
:10078000024B662283F8B023704700BF983A0020DE
:1007900073B50D4BD3F8DC1293F8E052002201231D
:1007A0000839D4B2A54206D8002064F3070063F3E9
:1007B0000F2002B070BD013251F832608642F3D092
:1007C0005B00DBB2EDE700BF983A00202DE9F04F67
:1007D000074685B00020994688461646254CFFF707
:1007E000D7FF94F8E032ADF80C00C0B2834234D9A0
:1007F00004F1F40191E80A109DF80D20DFF878E08B
:1008000001930D466FEA020A2B78062BA5EB010334
:100810000AD095F801B0BBF1020F05D0B5F804B0CD
:10082000C34501D0B3451BD1DB100EFB03F30CEB2A
:10083000C30393F807B00BEA0A0B83F807B0019BD8
:1008400028359D42E0D3D4F8DC2200B202EBC0038D
:1008500042F830709E8083F8069005B0BDE8F08FB6
:10086000DB100EFB03F30CEBC30393F807B042EA73
:100870000B0BE2E7983A0020CDCCCCCC07B5FFF7C4
:1008800087FF074B93F8E022C0B2824282BFD3F8C1
:10089000DC32002243F8302003B05DF804FB00BFD7
:1008A000983A0020044B93F8100200F0FD00A0F1EC
:1008B0004803584258417047983A0020024B27227B
:1008C00083F81023704700BF983A0020034B93F839
:1008D0001003A0F12703584258417047983A00206E
:1008E000034B187CA0F1190358425841704700BFD0
:1008F000983A0020094B30B5D3F8A823B3F8AC439D
:1009000000239C4202D10021084630BD114632F836
:10091000145B8542F8D001339BB2F2E7983A00208D
:1009200038B505460C46FFF7E5FF50B9124AB2F854
:10093000AE33D2F8A813142000FB03100133A2F841
:10094000AE336278428020F8045B002399B28A4279
:100950000AD8094BB3F8AE23B3F8AC1391429CBF4D
:100960000022A3F8AE2338BD04EB4301498820F8E8
:1009700013100133EAE700BF983A0020034BD3F885
:100980008002B0FA80F04009704700BF983A00201A
:10099000084A10B5D2E9A7321C782CB19C7A8C4257
:1009A00002D19C88844203D018339A42F4D80023A1
:1009B000184610BD983A002010B50446006948B1A9
:1009C000636923B15A68A24204BF00225A60C36817
:1009D000103098470023237010BD436810B4C3B192
:1009E0001A69B2B15C69844213D151B114205074B8
:1009F000002018701046D36800F8101F5DF8044BF3
:100A00001847107928B95878196161F3C3005870F4
:100A1000F0E75DF8044B7047034B93F8A402B0FA7B
:100A200080F04009704700BF983A0020114930B566
:100A3000B1F8AC32D1F8A802C3EBC303C21800234B
:100A40000479E40709D593B145795C79A54238BFAB
:100A5000034607309042F3D31846037943F001036D
:100A6000037191F8AE2201239340437130BD0346D8
:100A7000EFE700BF983A00200C4A10B5D2F8A83230
:100A8000B2F8AC22C2EBC2021A441C7914F0010F76
:100A900006D0C4F300148C4202D11C88844203D0D7
:100AA00007339342F1D30023184610BD983A002033
:100AB00008B5FFF7E1FF18B103796FF30003037185
:100AC00008BDF8B507460E4615461C46FFF7D4FF8D
:100AD00058B18379A34207D3094B93F8AE2201237F
:100AE0009340437145808471F8BDFFF79FFF037900
:100AF000078003F0F10366F304130371F2E700BF0C
:100B0000983A002010B50A4B93F82014D3F8242407
:100B10000023994202D1FF23184610BD147814B166
:100B200054788442F8D00133DBB21C32F1E700BFC5
:100B3000983A002008B5FFF7E5FF084B93F820240A
:100B4000824281BF00B2D3F82434C0EBC00003EB73
:100B500080008CBF0230002008BD00BF983A002002
:100B600010B50446C06943785B078AB010D5694662
:100B7000FFF7F0FC039B5A7803EB42039A78DB788B
:100B800042EA03232385012384F832300AB010BDE2
:100B90008378C27843EA0223F4E7044B93F8800198
:100BA000A0F19A0358425841704700BF983A00207C
:100BB000024B002283F8D522704700BF983A0020EC
:100BC00090F8873043F0020380F88730012380F8E3
:100BD0003230704730B50D4C30B12830D4F8F85071
:100BE000A84204D3002030BDD4F8F400F6E704781E
:100BF000062C09D04478022C06D08488944203D075
:100C00008C4201D09C42EED12830E9E7983A00208E
:100C1000034B93F8E802A0F1310358425841704762
:100C2000983A0020024A536823EA00005060704757
:100C3000983A0020024B986EB0FA80F04009704755
:100C4000983A0020034B93F82804B0FA80F040094A
:100C5000704700BF983A002010B5094C502384F823
:100C60005033B4F83A33A4F8583304F55270054BB6
:100C7000C4F860332EF064F91B2384F8383310BDB8
:100C8000983A00206D44000108485F2380F8103234
:100C9000074BC0F83032412380F82032002380F81F
:100CA000283200F506702EF04BB900BF983A0020AC
:100CB0000514000173B506466846CDE90023FFF729
:100CC000CDFB0446D8B9164DD5F8F040D5F8E8303C
:100CD0009C4203D3D5F8EC309C4205D3114B43F230
:100CE00014121A803DF0D8FBD5E93B231033934210
:100CF000C5F8F03024BFD5F8E830C5F8F0302378D7
:100D0000668043F001032370DDE90023C4E9022378
:100D100023789DF8182062F34103237002B070BD60
:100D2000983A00205C31002007B531B35028164BAB
:100D300008D0512824D03D2807D11A8909880A44AF
:100D40001A8102E09A8801329A809988A9B1D888DC
:100D500064224243B2FBF1F2D2B2192A0DD99A7839
:100D60005AB901229A704FF6FF73ADF8043001A80A
:100D700014238DF8063011F021FD03B05DF804FB5B
:100D8000DA880132DA80E0E7180A0120134B984232
:100D900037B5054605D0124B43F205021A803DF0E7
:100DA0007BFB104C002384F830302B789BB90E4D20
:100DB000238C29460D2021F83A3F35F02DF994F87F
:100DC000313043B96B8FADF8043001A810238DF892
:100DD000063011F0F3FC03B030BD00BF440A01201F
:100DE0005C310020180A0120782F0020037907B514
:100DF0006BB1084B93F85320920708D55B8FADF881
:100E0000043001A809238DF8063011F0D7FC03B097
:100E10005DF804FB782F002037B5164A164CD2F83F
:100E2000F430D2F8FC50C31ADB105C430378052B76
:100E300009D101A92C2035F0C3F8019BDB0A45F844
:100E4000343003B030BD4378022B05D1026A03F27F
:100E5000E63353430193F0E70DF10301142035F01D
:100E6000AFF89DF8033043F6982203FB022201926B
:100E7000E3E700BF983A0020CDCCCCCCF0B585B0EC
:100E80001A4CADF804000DF10F012520D4F8F450F0
:100E900035F096F8D4F8FCC0D4F8F470D4F8F81013
:100EA0009DF80560124C002002462B78062B0ED0D0
:100EB000EB1BDB1063430CEBC303DB791E426B7847
:100EC00004BF0132D2B2022B1CBF0130C0B22835A0
:100ED0008D42EAD340B19DF80F30984228BF1846A2
:100EE00090428CBF0020012005B0F0BD983A002050
:100EF000CDCCCCCC0D4A012303FA00F0536810B5D9
:100F00000B4C0343536023881B070ED432F094F834
:100F1000238843F00803238032F09EF8054B0648EF
:100F20001B68BDE810401B69184710BD983A0020A7
:100F3000320E01201033002014330020034B9A6F2F
:100F4000192083F8B90011770C20D3E7983A0020D4
:100F5000024BF92283F8B4221020CBE7983A002004
:100F6000437843F0010361F341034370044B93F86A
:100F7000A42222B9932283F8A4220520BAE770475D
:100F8000983A0020D0B5124C124AD4F8B83392F8EF
:100F9000381083F82A10D2E91067528F1A8583F827
:100FA0002B00C3E908675A6903F12000904700232A
:100FB000C4F8B833D4F8B43333B1672384F8B0330A
:100FC0001220BDE8D04095E7662384F8B033D0BD49
:100FD000983A0020782F00200F4B0079D3F8B823DF
:100FE000127B062A00D1CDE7042A10D178B96A22F3
:100FF00083F8B023094AC3F8D823452283F8C823CD
:10100000074AC3F8D02303F570702DF099BFEA2882
:1010100008BFCA20E7E700BF983A0020F92700017F
:10102000962F0020054B0178D3F87C2182F82810F8
:10103000472283F8802106205CE700BF983A002011
:10104000436803221A705970172053E737B5164CBE
:1010500094F85221452A054605D0144B4FF44652C8
:101060001A803DF019FA15B1114B9D4205D00F4B76
:1010700043F281121A803DF00FFAAA2384F852310C
:101080000C4BEA7A5B8FADF8043052B9102301A8FB
:101090008DF8063011F092FB0220FFF72BFF03B012
:1010A00030BD0923F3E700BF983A00205C310020EF
:1010B000D03B0020782F002070B5184C94F8C43035
:1010C000D4F8C060E82B054605D0154B43F28702E3
:1010D0001A803DF0E1F92EB9114B43F288021A80D3
:1010E0003DF0DAF906F10C039D4205D00C4B43F2BA
:1010F00089021A803DF0D0F9736A2A791A702A6839
:101100005A60EA791A72E92384F8C43094F8C53039
:1011100023700D20BDE87040ECE600BF983A002037
:101120005C31002070B5144CD4F8746105462EB9BA
:10113000124B43F2B4021A803DF0AEF906F11803E7
:101140009D4205D00D4B43F2B5021A803DF0A4F943
:1011500094F878315E2B05D0084B43F2B6021A8022
:101160003DF09AF92B7886F84C30582384F8783182
:101170000920BDE87040BDE6983A00205C310020AF
:1011800070B5164C94F83C20A56B712A064605D024
:10119000134B43F2D7021A803DF07EF92DB9104B64
:1011A00043F2D8021A803DF077F905F10C039E4214
:1011B00005D00B4B43F2D9021A803DF06DF933791B
:1011C00013B1FA2B08BF002385F82430722384F86A
:1011D0003C300820BDE870408CE600BF983A002003
:1011E0005C310020037810B50E4C93B96F2304F5E1
:1011F000EC71062084F8D03134F0E2FE0A4BC4F8DA
:10120000E03104F5E4702DF09BFE352384F80032C4
:1012100010BDD4F88C210A2082F82B30FFF76AFE2B
:101220002223F3E7983A0020E15100010D4B37B536
:101230000D4CD3F82C2494F85350052183F828142E
:10124000FE2313741620FFF755FEAB0708D5638FF6
:10125000ADF8043001A809238DF8063011F0AEFA7C
:1012600003B030BD983A0020782F0020F0B5214A15
:1012700085B0D36E92F8707000244FF4A0720646C9
:1012800002FB07328DF807402546934214D335B34D
:1012900002A940F2311034F093FE04AB3344052F21
:1012A00013F8093C13D89C422CBF00240124B4B18C
:1012B0002E70284605B0F0BD197831B1B14201D188
:1012C0000134E4B203F5A073DFE71D46FAE713FB30
:1012D00007F3B4EB930FB4BF01240024E7E7012325
:1012E0000DF1070146208DF80730002538F05EFC2F
:1012F000DFE700BF983A002008B5FFF7B7FFB8B1A5
:1013000000F11A0390F80721C0F89C300023C0F8C0
:10131000C43080F8C030C0E93233A0F8BC3063F389
:101320004102044B80F807215B8FA0F80031803028
:1013300008BD00BF782F0020742908B501D900200E
:1013400008BDFFF793FF0028F9D000F10C03C0F8A7
:1013500084308030F4E7F0B5537D122B87B00D4612
:1013600014461DD81669177D7178BA1C88B23B44A3
:10137000DBB202EB4002934212D10023AA888DF81F
:101380000430ADF805208DF807109AB282420AD3D6
:1013900001A93E2038F00AFC2169A888FFF7C0FAAD
:1013A000002007B0F0BD590001AA5718314401339D
:1013B0008A78C97842EA0122BA80E6E7F8B5104D8A
:1013C00000242E46B5F8AC32A34200D8F8BDD5F8BB
:1013D000A822C4EBC4073A44127902F02102212A60
:1013E00003D121460A2038F0E1FBD6F8A8323B446D
:1013F00001341A796FF345121A71A4B2E2E700BF03
:10140000983A002070B50E4C10F80C1CD4F8145209
:1014100006462A2038F0CAFB94F81032602B08D117
:1014200033782B735E2384F810320720BDE87040B8
:1014300060E50DB15D23F6E7482384F8103270BDF6
:10144000983A0020164B2DE9D043D3F80C420646BB
:101450000F4644B9134B4FF441521A803DF00AF83D
:101460002046BDE8D08356EA070110D093F8081251
:10147000234604EB811100248B42F1D2187858B135
:101480003AB1D3E90289B94508BFB04505D1002476
:10149000E6E7D3E90689F6E71C464033ECE700BFF0
:1014A000983A00205C31002008B5014603483CF022
:1014B000C3F90320BDE808401CE500BFD83A00206E
:1014C00010B504460120FFF717FF58B1064A224421
:1014D00092F85811013982F8581180F88640FFF7C8
:1014E000E3FF012010BD00BF983A0020132810B57B
:1014F000044605D90C4B43F2D2121A803CF0CCFFC3
:101500000A4A224492F858310133DBB282F858314A
:101510002BB9054B43F2D3121A803CF0BDFF204695
:10152000BDE81040CCE700BF5C310020983A0020B5
:1015300003790A4A1BB103F0EF03EA2B09D1D2F871
:10154000283301688B4304D0522382F810330820DB
:10155000CCE7272382F81033704700BF983A002069
:1015600010B50446B830FFF789F90023124A2370FA
:10157000995CD8B2D1B1FFF7A3FFD8B90F4C94F85A
:10158000A4321A2B02D10520FFF7B4FC94F8703175
:10159000902B05D1912384F870310F20FFF7AAFC1E
:1015A000636F3BB11520BDE81040A3E40133142B59
:1015B000DED1E3E710BD00BFF03B0020983A0020E9
:1015C00038B50D4D0146044628463CF035F92B7FD1
:1015D000782B10D120232B77A37D0C2B09D02089C9
:1015E0004FF6F77398428CBF01200220BDE83840C7
:1015F0007CE71020FAE738BD503D002037B505469E
:10160000214C38B194F85231442B03D104F59A732C
:10161000984205D01D4B43F282121A803CF03CFFE9
:101620002D78AA2384F852314DBB194AB4F82831D9
:101630005387ADF8043001A810238DF8063011F05F
:10164000BDF894F85431D3B10D2384F82E314FF600
:10165000FD73A4F820310233A4F82431B4F85031DA
:10166000A4F822310B4BC4F81C310B4884F82851E4
:10167000462384F85231FFF7A3FF03B030BD0220A8
:10168000FFF738FCF9E700BF983A00205C310020F2
:10169000782F002079510001B03B002030B40C4C71
:1016A00094F8D55295B984F8D2320123A4F8C40233
:1016B000A4F8C612A4F8CA22A4F8C82284F8CC520E
:1016C00084F8D53204F52F7030BC79E730BC704710
:1016D000983A002010B441B1C469B0F88020618804
:1016E000A0885DF8044B0B23D8E75DF8044B7047E6
:1016F00010B5D0F89430104CC0F8A030002380F81A
:10170000A910C0F8A430014620463CF095F8237992
:10171000412B06D1032323710E20BDE81040FFF7B3
:10172000E9BB032B07D0054B43F2B312BDE81040D1
:101730001A803CF09FBE10BDE03A00205C310020D2
:1017400038B5446890F8833084F8A8300D463830B6
:10175000FFF794F829462046BDE83840C8E708B5A9
:1017600000F1080108483CF067F8084B93F8B023F3
:10177000662A07D1672283F8B0231220BDE808400B
:10178000FFF7B8BB08BD00BF4C3E0020983A0020D0
:101790000A49D1F80C32834205D891F8081203EBBC
:1017A0008113984205D3064B43F241021A803CF064
:1017B00061BE402200213EF041BA00BF983A0020AD
:1017C0005C310020034B0022C3E900224FF48070FB
:1017D000FFF728BA9C3A0020094BD3F8480493F845
:1017E000442400239A4200D170470178032903D191
:1017F000182200213EF022BA01331830DBB2F1E7A3
:10180000983A00202DE9F743012306468846372001
:101810000DF107018DF8073034F0D2FB3F4B93F800
:101820002E20022A4FF000079C4606D19DF8073073
:101830001BB9032003B0BDE8F083394C002394F8B2
:10184000E510D4F8E0E01D4618B20EEBC00292F8A5
:101850000390B9F1000F37D03EF83000B04236D1D6
:101860009278424533D10020E4E72FF039FCD4F8D8
:10187000D030D4F8E0C094F8E57083428ABFDB43EF
:10188000C01AC01800234FF0FF321E460CEBC301F4
:10189000CC7854B14C6844B1A94206D084420ED9E8
:1018A000241AA2424C6028BF22460133DBB29F4279
:1018B000ECD269681B4B8A4228BF0A4625E04E607D
:1018C000CE70F2E70220B5E70DB91F4615465A1C47
:1018D000D3B29942B8D2002DF4D085F80280DCF85A
:1018E0000C202E800A320123B9426A60EB7007D1C6
:1018F00094F8E430013B99423CBF013184F8E51093
:1019000094F8C830002BB0D1064B074801213DF0B8
:1019100045FB05483DF056FB01208BE7782F002062
:10192000983A00202D190001603B0020F8B5174BB4
:10193000D3F8E060D3F8D47093F8E5504FF0FF325D
:10194000002106EBC104E07830B16068C01B606024
:1019500090B1824228BF02460131C9B28D42F0D215
:10196000511C0BD00A4B0B4801213DF017FB0948D5
:10197000BDE8F8403DF026BBE070EDE7002283F8BB
:10198000E5200448BDE8F8403DF024BB983A00202B
:101990002D190001603B002037B540F20B100DF10E
:1019A000060134F00DFBBDF806303BB90E4B43F297
:1019B00015121A803CF05EFD03B030BD0B4C40F2B6
:1019C0000A202146254634F0E1FABDF8062055F8F4
:1019D000E80912018318002163603EF02FF9D5F861
:1019E000E830A360E8E700BF5C310020803B0020C6
:1019F00010B50F4B93F83720827793F83820816128
:101A000001239340436140F601030446838300F1C0
:101A10001F014FF4827034F0D3FA04F1100140F248
:101A2000022034F0B3FA2046BDE810402DF085BA0C
:101A3000782F00202DE9F743354D95F86833FB2BBF
:101A400049D13449C8884B8F984244D1507D0928E8
:101A500041D91669D1E91023D6F80690D6F802804C
:101A60004B4508BF424536D1737813F0E00732D1B9
:101A700003F01F030533B0EB430F2CD18C8F4FF4D1
:101A800082700DF1070134F09BFA9DF807300133A5
:101A9000DBB20134A4B28DF8073038464FF6FF7C34
:101AA0009AB27378C1B203F01F038B420AD9A5F82A
:101AB0006CC300217778CBB207F01F079F420ED886
:101AC0008F421CDC14491548A5F86A43FFF790FFC4
:101AD000832385F86833012003B0BDE8F0830B1D34
:101AE00006EB43035B881B1B9BB29342E8D9B5F816
:101AF0006C739F4288BFA5F86C330131DAE7031D90
:101B000006EB430301305C880134A4B2C9E700BF8F
:101B1000983A0020782F0020C1440001083E0020A0
:101B200038B5012380F824300B68C36190F84D303C
:101B300080F825300D4B93F8373080F82630044676
:101B400000F1080500F127014FF4827034F038FAF3
:101B500004F1180140F2022034F018FA044B236219
:101B60002846BDE838402DF0E8B900BF782F0020A6
:101B7000FD3C0001F7B52F4C94F87831D4F874513E
:101B8000572B064605D02C4B43F2A8021A803CF096
:101B900083FC2DB9284B43F2A9021A803CF07CFC4F
:101BA00005F110039E4205D0234B43F2AA021A808E
:101BB0003CF072FC33796BBB3168EA6922EA0102BE
:101BC000019232B91C4B43F2BA021A803CF052FC2B
:101BD0001EE0B768F679202001229E4211D90199B2
:101BE00011420AD017F803C0BCF1CC0F88BF914353
:101BF00003F1010388BF0191DBB201384FEA4202D1
:101C0000EBD101A92846FFF78BFF562384F87831E2
:101C100003B0F0BDFA2B03D1074B43F2BB02D4E76C
:101C200085F84C300920582384F87831FFF762F9A1
:101C3000EEE700BF983A00205C3100200348002303
:101C400080F87C3200F5147035F0F8BA983A00202C
:101C500073B5164C0DF107014FF4867034F0B0F9EE
:101C6000214640F20B2034F091F99DF807202068BE
:101C700002EB4202D20083180021636000263DF08F
:101C8000DDFF20202672FEF7CDFFA4F1140066725E
:101C900035F0D4FA064B44F8043C4FF4807304F852
:101CA000086C44F80C3C02B070BD00BF343D00200D
:101CB000B51C000170B5104C0023D4F89C5284F878
:101CC000A53201262B7833B1013BDBB22B707BB9F7
:101CD0002846FEF771FED4F8A0321835AB42F1D891
:101CE00094F8A5323BB90548BDE8704035F0A6BA76
:101CF00084F8A562EFE770BD983A0020203D0020EF
:101D000013B500230DF107014FF498708DF80730DB
:101D100034F056F99DF807308BB10A4C94F89023B3
:101D20008B2A05D1084B43F203221A803CF0B4FB06
:101D300094F890338A2B02D1044835F07FFA02B030
:101D400010BD00BF983A00205C3100202C3E0020DE
:101D5000F8B5174C94F82834042B0F4623D1D4F847
:101D60002C6415692EB9134B43F205521A803CF0CE
:101D700093FBBB79012B18D10F4835F05FFA94F82B
:101D80002834042B07D16B782BB9AB780B4A03F0BE
:101D9000070382F853306B78052284F82824162034
:101DA0003374FFF7A7F80020F8BD0120FCE700BF5F
:101DB000983A00205C310020C83E0020782F002097
:101DC0000348012380F87C3200F5147035F00CBA1A
:101DD000983A0020054B1A78D20705D5022283F8DD
:101DE0007C220020FFF782BBEAE700BF983A002080
:101DF0001E2810B50C4613D10B88B3F5005F0FD128
:101E0000FFF71CFF63681A68064BC3F858220122CB
:101E100083F85C22044AC3F86022BDE81040CFE793
:101E200010BD00BF983A0020D51D0001084831B907
:101E3000042380F8283400F5866035F0D5B9D0F851
:101E40002C34052280F8282419741620FFF752B884
:101E5000983A00200B4881B9552380F810330123AC
:101E600080F8203342F21073C0F81C33064BC0F8E0
:101E7000243300F5457035F0B7B9272380F81033C7
:101E8000704700BF983A0020BD08000107B54FF425
:101E90008A7001A934F094F8134B93F87A2219460A
:101EA000D2B193F87B22013AD2B283F87B229AB165
:101EB000019858B10122C3F86C0283F87C2203F523
:101EC000197035F091F903B05DF804FB022283F834
:101ED0007C22FFF70BFBF6E743F69823C1F8583254
:101EE000FFF76EFFEFE700BF983A0020194B70B57F
:101EF000D3E9A7410646002522784AB993F8A522DE
:101F0000B2B9012283F8A522134835F06DF90FE02C
:101F10006078000704D4D5B12878904288BF254660
:101F20001834A142E8D885B12846FEF745FD2C4675
:101F30001822002120463DF081FE4FF0000366F399
:101F4000C3036370272323702546284670BD2546AA
:101F5000E6E700BF983A0020203D002038B50D4C40
:101F6000D4F8F4502846FEF757FFD4F8F830283557
:101F70009D42F7D3084BC4F814314FF40063C4F802
:101F80000C31002384F810310448BDE8384035F0A6
:101F90002BB900BF983A0020C98F00019C3B00205C
:101FA00008B50F491D2034F00BF80E4BD3F89C23D5
:101FB000AAB142F25D718A429CBF42F25E72C3F8DE
:101FC0009C23012283F8A023074AC3F8A4238A2272
:101FD00083F890230548BDE8084035F005B908BDF1
:101FE000343E0020983A0020C57900012C3E0020A4
:101FF00007B500230DF107014FF498708DF80730F5
:1020000033F0DEFF9DF8073053B1084B93F890335F
:10201000892B08D0064B4FF448521A803CF02AFA1C
:1020200003B05DF804FBFFF7BBFFF9E7983A002027
:102030005C31002008B5074B93F890338B2B05D00B
:10204000054B43F202221A803CF026FABDE8084014
:10205000A6E700BF983A00205C3100202DE9F04748
:102060000D4691F82010017290461E4642686B6A38
:102070009342044608D20B449A4205D21A4B43F2CB
:10208000A7121A803CF008FA227A696A60683DF06B
:1020900021FD04F110016068B5F808A095F82890BA
:1020A000277A95F92A50FEF755FA94F824309DF8CE
:1020B000202084F82890FF1A237884F8257084F86B
:1020C000295062F3000398F80120A4F826A05208D2
:1020D00062F341039DF8242066F3C70362F3820391
:1020E0002370BDE8F08700BF5C31002010B5074CBD
:1020F000002384F8883004F18000054BC4F88C304C
:102100002CF0D8FE142384F8B93010BD983A002082
:10211000358A0001036893F91230002B05DA132386
:10212000002180F841300846E0E7122380F8413072
:102130000620FFF7DBB910B51D4C94F82834D4F80D
:102140002C04012B224620D12378DB0618D50379F5
:102150000E2B03D8437913F0FE0F09D0052382F824
:102160002834C12303741620BDE81040FEF7C2BE18
:10217000022384F828341220BDE81040FFF7B6B9D6
:10218000052384F82834C223ECE7052B0FD183689C
:102190000C30984704F22C403BF072FBD4F82C34FE
:1021A0001BB1012384F82834DDE784F8283410BDFE
:1021B000983A002010B50720FFF758F80446C0B140
:1021C0000C483BF05DFB04F13503C4F81031037992
:1021D00084F831310346803443F80C4F8268184646
:1021E0009047054B5B6F23B11520BDE81040FEF70B
:1021F00081BE10BD0C3B0020983A002070B5144DF4
:10220000064605F57D70D5F8F4433BF039FB1149DE
:1022100091F8383084F82230D1E91023C4E906233C
:102220004B8F238484F82360E36804F118009847F7
:10223000D5F8F4333BB1172385F8F0331320BDE80C
:102240007040FEF757BE162385F8F03370BD00BF0F
:10225000983A0020782F0020007810B9014BBD2259
:102260001A70CBE7983A002070B5244C04F56D70D5
:10227000D4F8B4533BF004FB2378287913F0100F03
:10228000A5F1080623461AD0042818D11C4B2A7C35
:102290001A72682384F8B0331A4BC4F8D833062076
:1022A0006F2304F57471C4F8B86384F8C83333F04D
:1022B00087FE04F57070BDE870402CF041BE062822
:1022C00012D10F4A297C1172682283F8B0230D4A7B
:1022D000C3F8D8236F22C3F8B86383F8C8230A4928
:1022E00033F06EFE0948E6E7C22385F8233005F196
:1022F0001800EB68BDE87040184700BF983A00200E
:10230000782F0020F9270001683E0020583E002069
:1023100038B51D4D28463BF0B3FA2B79032B044604
:1023200005D01A4B43F2B4121A803CF0B5F82CB920
:10233000164B43F2B5121A803CF0AEF8D4F8983040
:102340003BB9124B43F2B6121A80BDE838403CF05C
:1023500091B804F19C00984794F8A9301BB90C4936
:102360003C2037F023FC0B493D2037F0EDFB0A4BB6
:102370009A6C22B10E20BDE83840FEF7BBBD412269
:1023800083F84C2038BD00BFE03A00205C310020CB
:10239000180A0120FC200120983A002070B5314C29
:1023A00094F8C430E72B48D1D4F8C0502DB92E4B47
:1023B00043F281021A803CF06FF8237813F0010F8A
:1023C0006B6A1FD01A6AAA61002685F8206093F80C
:1023D000242085F82120254A92F8372085F82220EC
:1023E0001022093385F82320214A6B61EA61281DF8
:1023F0002CF0A3FD237884F8C5302670E82384F8F8
:10240000C43070BDC3221A70E92384F8C43019485F
:102410003BF036FA054628B9134B43F282021A8084
:102420003CF03AF8686A836A6BB90F4B43F2830257
:10243000BDE870401A803CF01DB8E92BE7D00A4B8C
:1024400043F28602F4E79847D4F8C0303BB1E72363
:1024500084F8C4300D20BDE87040FEF74BBD132357
:10246000CDE700BF983A00205C310020782F002093
:10247000B9100001583B002073B5314890F8103274
:102480005D2B044633D10278D0F81432D20714D52C
:10249000602280F810221B792A4AC0F830220033CB
:1024A00018BF0123412280F8202280F8283200F54D
:1024B00006702CF045FD02B070BDC2221A735E2377
:1024C00080F81032204D28463BF0DAF9D4F8143267
:1024D00006467BB1C22303735D2384F810320720C4
:1024E000FEF708FDB36806F10C009847E3E75E2BA2
:1024F000E1D1E7E703795A1ED2B2FD2A0BD84FF497
:102500007A72534305F12400EB6234F06DFE4A23E6
:1025100084F81032E6E7FF2B0FD10DF107014FF4DD
:10252000957033F04DFD9DF80730012B01D1074B1D
:10253000E8E7022B01D1064BE4E74823E8E700BFB8
:10254000983A002005140001AC3C002000C8AF0000
:1025500030E003002DE9F041424CA4F520772046FD
:102560003BF08EF93B78DB07054674D53E4EC188BB
:10257000708FD4E907321C782CB11C898C4202D1AF
:102580009C88844207D018339342F4D30120FFF78C
:10259000ADFC044630B904236B74EB6805F1100000
:1025A00098474CE02A79637862F346136A7A62F3BB
:1025B00004136370FF23E370738FA380EB88238180
:1025C00097F884325A1E0D2A41D996F82D300133DE
:1025D00013F0FF034FF0010214BF86F82D3086F888
:1025E0002D2087F8842296F82D10262037F0DEFA69
:1025F00096F82D305A1E97F8843243EA0213A372DC
:102600002B7AE372B37A25610133DBB24FF0000815
:1026100063730121204684F80C80B372FEF7A0FC9E
:10262000124B598E4FF6FF72914208BFA3F83280C9
:102630005A8E0F49013245205A8637F0B7FAD7F83B
:1026400080326BB10420BDE8F041FEF753BC01338A
:1026500087F88432CCE7C22300F8103FEB689FE78D
:10266000BDE8F081183D0020782F0020180A0120D5
:102670004A0A012038B5104D2B7CC22B2C4618D1AC
:1026800005F114003BF0FCF84368083098476B698B
:1026900063B1C1232B74012384F82030074B63629C
:1026A00007482CF007FCC323237401E019232B7483
:1026B00038BDC12BFCD1EEE7983A0020DD9A00012D
:1026C000B03A00200178134BE12910B41846D3F832
:1026D000EC4216D193F8E922032A12D80E490132AE
:1026E000888F0988A3F8001383F8E922A421A3F8AE
:1026F000FA0283F8E81203F53C705DF8044B2CF005
:1027000025BCA523217380F8E8325DF8044B012035
:10271000FEF7F0BB983A0020782F0020027810B521
:102720001AB11046BDE8104068E543782E4C502B96
:102730003DD011D8462B1DD04B2B32D0452B3CD150
:10274000462384F800340F2384F8083404F57E709F
:10275000BDE810402CF0F4BB532B13D06F2B1AD0D4
:10276000522B2AD1532384F80034204B5B8FA4F8DA
:102770000834EBE7522384F800341C4B1B7AC3F374
:10278000C003E1E76F2304F58161062084F800347B
:1027900033F016FCDAE74B2384F80034134B1B8824
:1027A000E5E7502384F80034104B9B8FDFE70F4B95
:1027B00084F8002493F83830C6E794F800348BB9D5
:1027C0000A4B0B481B7A13F0080F14BF6FF07F43BE
:1027D0000023C4F80034074BC4F80434BDE81040AB
:1027E0002CF0A8BB10BD00BF983A0020782F002025
:1027F000903E002059220001027812B11046FEF7E7
:10280000C1BB4378462B30D002D8452B22D070472D
:10281000522B33D06F2B43D12248692180F8B0135B
:10282000032180F8DC13D0F8B8130B6BC0F8D43355
:1028300091F8341080F8DD131B4980F8DF2391F8FC
:1028400037101A4A80F8DE13C0F8D82300F57070EC
:102850002CF073BB1348462380F8C8330F2380F84D
:10286000D03300F570702CF06BBB0E48522380F80B
:10287000C8330D4B1B7AC3F3C003F0E70A4B09487A
:102880001B7A13F0080F14BF6FF07F430023C0F8CA
:10289000C833074BC0F8CC3300F570702CF04ABB3E
:1028A000704700BF983A0020782F0020D90F000110
:1028B0003529000170B51C4CD4F8745106462DB969
:1028C0001A4B43F2B1021A803BF0E6FD05F11C03FE
:1028D0009E4205D0154B43F2B2021A803BF0DCFD5C
:1028E00094F878315D2B05D0104B43F2B3021A8077
:1028F0003BF0D2FD337863B96FF07F432B610C4B13
:102900006B6105F108002CF015FB5E2384F878312B
:1029100070BD85F84C30582384F878310920BDE823
:102920007040FEF7E7BA00BF983A00205C31002003
:1029300025110001007868B907486B2380F8B0338F
:10294000064BC0F8CC33532380F8C83300F57070C1
:102950002CF0ADBAFEF716BB983A0020E93700011B
:10296000426810B4537813F0010108BF022180F8C7
:102970005410D478917841EA0421A0F856101179C6
:10298000527941EA0222A0F85820C28CA0F85A20BD
:1029900090F8252080F85C20C3F34003026A0266A9
:1029A00080F86C30028D064BA0F86420036700238A
:1029B00080F86D305DF8044B383009F0E1BE00BF9F
:1029C000B3340001F8B5384DD5F86C41062094F8C1
:1029D000B110FEF7B1FC2E46002861D00546B4F8D0
:1029E000AC2015F8383B23F00703037094F8B0309F
:1029F000A0F856202D4A80F85430528FA0F8582065
:102A000094F8B12080F85C20012BD4F8901094F851
:102A1000B57080F86C700CBF09230823CB1A5B7863
:102A200013F0040F436815BF1B33093303660366B5
:102A300014BF02F11B0302F10903037217B1036E05
:102A40000E3303661A4B0367012380F86D30006E66
:102A50003DF040F817483AF013FF0023A4F8A830DF
:102A6000D4F89430C4F8A03094F8B7308BB9D4F8C7
:102A7000983004F19C009847284609F081FED6F86A
:102A80006C315BB10F20FEF735FA8F2386F8703179
:102A9000F8BD04F10800FEF707FDEDE78E23F5E72A
:102AA000902385F87031F3E7983A0020782F0020C2
:102AB000B3340001043C00202DE9F041294DD5F844
:102AC0000C4295F8086286B004EB861694B341F682
:102AD0004C574FF00208B44232D22178022932D149
:102AE000238CADF80030D4E90623CDE90223ADF8FC
:102AF000118063789B0712D595F87C32022B0ED09B
:102B0000FFF79CF83DF042F880B2B0FBF7F307FB0B
:102B1000130317FA83F3C5F85832FFF751F96378B6
:102B20008DF810302046FEF733FE68460FF01EFD8C
:102B30004034D0E70C4B43F242021A803BF09AFC3F
:102B400006B0BDE8F0810329F2D1238AADF8003048
:102B5000D4E90223CDE90223637D8DF811108DF8AD
:102B60001230C6E7983A00205C31002010B5164AB2
:102B70000023038092F83340017864F385010170EB
:102B800004684FF6FC51214041F400710160518FFF
:102B9000818092F834104900FF2928BFFF218171FC
:102BA000917A0131C9B29172C17192F82E10022945
:102BB00004D192F85330003318BF0123427863F3F5
:102BC0004512427010BD00BF782F0020F8B5C469CF
:102BD000174E05462046B76FFFF7C8FF238823F43A
:102BE000805323F0030343F4805343F00103238015
:102BF00028F028FCD0E90023E3603B8A63806378F7
:102C0000A2606FF3C30363700123A37146F2040350
:102C10002382122385F830303B8AA5F880302B853B
:102C20000222182385F8252086F8B930F8BD00BFA8
:102C3000983A0020F8B5C469204D06462046AF6F8B
:102C4000FFF794FF238823F4805323F0030343F416
:102C5000805343F00103238028F0F4FBD0E90023E4
:102C60006361B5F8883063806378226143F00803BC
:102C70006370D5F88030A360D5F88430E360012319
:102C8000A37144F204032383FB7C002B14BFC023F5
:102C9000402363763A7D12B143F020036376B5F8A2
:102CA000883033851A2386F8303095F88A3086F8D4
:102CB0003230162385F8B930F8BD00BF983A0020AD
:102CC000F8B5294BD3F80C4293F80832064604EBCA
:102CD0008313A34207D8254B43F243021A80BDE871
:102CE000F8403BF0C7BB2778012F01D04034F0E714
:102CF000F5692846FFF73AFF2B88627D23F4C0531D
:102D000023F0030343F4C05343F001032B806B789B
:102D100062F341036B70638A6B80A368AB60E36806
:102D2000EB60134B5B8FAB8028F08CFBD0E900236A
:102D30006B610723AF712B76238AA5F81930237DA9
:102D4000EB76638A2A6133856378746013F0080F29
:102D50004FF01C0386F8303008BF0527042386F89F
:102D600032702370F8BD00BF983A00205C3100201B
:102D7000782F0020F8B5C469194E1A4F0546204631
:102D8000FFF7F4FE2388D6F88C2123F4C05323F0F8
:102D9000030343F4805343F001032380527B6378A1
:102DA00062F341036370D6F890319B8863807B8F18
:102DB000A38028F047FBD0E90023E3600123A3713F
:102DC000A260062222743A7A6274D6F89021928820
:102DD00085F8323012232A8585F83030F8BD00BFDF
:102DE000983A0020782F00202DE9F04FC4697F4EDB
:102DF00085B007462046FFF7B9FE238823F48053A9
:102E000023F0030343F4805343F00103238028F0AD
:102E100019FBD0E90023E3606FF00303A3700333D1
:102E2000E3700123A371238AA26003F4FE4343F0FD
:102E3000080323826E4BB6F878E2D6E93D12D3E957
:102E4000108900204FF6F77A914273D31A2800F2C6
:102E5000908096F87A22637C002A40F0828023F0EA
:102E6000600343F06003637404F160030193D6F8D8
:102E7000F4300093D6F8F8300393D6F8FC30029380
:102E80005B4BB6F8785296F87AC2D3E9102304F176
:102E900012099B469246AE464B464FF00008009AF8
:102EA000002603998A42C0F0848026B3009AB58830
:102EB0001D80B11A4F4AC9105143029A02EBC10159
:102EC0009A7888798979C0F3C20060F30202C1F36D
:102ED000020161F3061202F07702BCF1000F9A7052
:102EE0001CBFAE46E0465207019A18BF03330135B6
:102EF0009A42ADB2D3D8B8F1000F02D03B4AA2F843
:102F000078E2A3EB09093C4B627C03FB09F363F312
:102F100004026274BCF1000F02D1344AA2F878C2F4
:102F200003F01F0303EB4303123387F8303005B07F
:102F3000BDE8F08F0B78062B11D04D78022D0ED006
:102F4000D1E904BCE14508BFD84508D18B88534579
:102F500005D8012D03D19E459CBF0130C0B2283158
:102F600072E7002223F0600386F87A2243F04003E0
:102F700079E796F87A521DB1637C23F0600372E71B
:102F80001E4940F2131033F01BF896F87B32012BE8
:102F9000637C23F060031BBF43F02003637443F0A2
:102FA000600301230ABF637486F87A3286F87A5286
:102FB0005AE71178062914D05178022911D0D2E9A4
:102FC00004018B4508BF82450BD191884FF6F770FD
:102FD000814206D88D4204D82EB1B088884288BF7D
:102FE000164628325DE71646FBE700BF983A0020F8
:102FF000782F0020CDCCCCCCABAAAAAA133D0020C0
:103000002DE9F041C469204DDFF88080AF6F06469E
:103010002046FFF7ABFD238823F4805323F00303FE
:1030200043F4805343F00103238028F00BFAD0E9E6
:103030000023E3606FF00203A3700233E370A26029
:10304000E179B8F83A00FEF7DDFB63786FF3C3036C
:1030500063700123A3714FF00403238298F82E308C
:10306000022B03D0FB7C0BB1802363743B7D1BB12F
:10307000637C43F020036374122386F830301323FB
:1030800085F8B930BDE8F081983A0020782F00200B
:10309000F8B52A4BC469D3F8485493F8442406463B
:1030A000002393420BD12046FFF760FD22780123D5
:1030B00063F30102A371002322705B88FFDE2F7887
:1030C000012F03D001331835DBB2EAE72046FFF7C2
:1030D0004DFDA7716B886380238823F4805323F010
:1030E000030343F4805343F00103238028F0AAF93B
:1030F000D0E9002363616378226143F008036370C1
:10310000AB68A360EB68E3600C2323766B7863768F
:103110000B4B93F85320A37E510862F3000361F335
:103120004103A3761B2386F8303075600223AA740E
:103130002B70A37E6FF3C703A376F8BD983A0020E7
:10314000782F002038B5C46905462046FFF70EFDEC
:10315000238823F4805323F0030343F4805343F084
:103160000103238028F06EF9D0E90023E3604FF0DB
:10317000FF33A370E3706378A2606FF3C3036370DF
:103180000B4B1A6CC4F812205A6C1B7CA3764FF4BC
:1031900085732382074BC4F81620B3F86A23A4F87A
:1031A0001B201D2285F83020852283F8682338BD36
:1031B000782F0020983A002030B5134C002384F873
:1031C000B83094F8AD3085B02546BBB904F1A00005
:1031D00028F044F920B9D4E9282352EA03010FD199
:1031E0000A4900220023C1E9102395F8AC108DF89C
:1031F00008106846CDE900230FF012FA05B030BD83
:1032000094F8AC10F3E700BF983A0020782F002024
:103210002DE9F04F724A90F8863090F88280C469A8
:1032200002EB031385B01B7B8DF80B3008F1FF33E5
:1032300005460F460192092B14D8DFE803F0B213BC
:103240000513133434131334E1290BD00029628899
:10325000ADF80C200CBF1323092303A88DF80E3002
:103260000FF0ACFA5F4B93F82E20022A07D0627859
:10327000D10740F1A480227A920700F0A68095F849
:103280008630019A02EB03139B6813B13946284636
:1032900098479DF80B301BB1A5F18000FEF760F94F
:1032A00005B0BDE8F08FB4F802B061781FFA8BF674
:1032B00001F001013046FDF7DFFB0346002846D050
:1032C0004279BFB9FF2A12D1474AD2F8A832B2F8E0
:1032D000AC22C2EBC2021A441979C90741BF59791D
:1032E00049080131597107339342F5D3BAE70132E6
:1032F0004271B7E752B13C4991F8AE1242FA01F17E
:1033000011F0FF0108BF0121521A42715A7919794F
:10331000003218BF012262F300011971314AB4F87A
:1033200004A0528F1FFA8AF082429BD02278920723
:1033300098D113B11B79DB0794D4B8F1060F09D1EA
:103340000023B5F880203146FEF7A8F98AE7002F60
:1033500088D0E3E7244E96F8D582B8F1000F81D1EA
:10336000B5F880902A8D034649464046FDF732FC69
:1033700000283FF477AF0C2386F8D2328388A6F872
:10338000C8320123A6F8C4B2A6F8C6A2A6F8CA920B
:1033900086F8CC8286F8D53206F52F70FEF710F944
:1033A00060E7B0F880206188A0880023FEF776F9F6
:1033B0006178608801F00101FDF77AFB52E76188CE
:1033C0004FF6F77291423FF65AAF5A8801325A804F
:1033D000002F3FF454AF9A8801329A804FE700BF24
:1033E000803B0301782F0020983A002017B44168F1
:1033F0008A79013AD3B28B71027812F0010202D0BD
:103400001A1C18BF0122037862F300030370DBB2B9
:10341000DA0748D5C269A2B3182262F3C703037062
:10342000037A8DF8003003780191C3F3C4038DF85B
:103430000130C38CADF80230019B5A786FF345120E
:103440005A709DF8013080F886309DF8003080F881
:103450003030019B90F88720C361BDF80230A0F89E
:103460008030002363F34102436480F84030C0E9B8
:103470001233838780F8872003B05DF8044BFEF792
:1034800013B80A7802F00302012AC9D1026A14783B
:10349000052C01D11922C0E7032CC1D152780C2A86
:1034A000BED11A22B9E7803803B05DF8044BFEF7AD
:1034B00057B810F8743CDB0701D5743896E7F43838
:1034C000FEF74EB838B5114C20460D463AF0D8F903
:1034D0000346426803F8155F1846904723688BB18E
:1034E000202222779A7D0C2A0AD018894FF6F7738A
:1034F00098428CBF01200220BDE83840FDF7F6BF9E
:103500001020F9E77823237738BD00BF503D002015
:1035100030B590F83030722B8BB0044619D869461C
:10352000C069FDF717F8049B9DF81420587894F8AB
:103530003010023245002A448A420AD10130074A3B
:1035400058702B44528F5A80023184F830100BB0DF
:1035500030BD752384F83030F9E700BF782F0020A4
:1035600008480378DB0705D5022380F87C32002069
:10357000FDF7BCBF012380F87C3200F5197033F0F1
:1035800033BE00BF983A00202DE9F041537D054637
:103590000C4616467BB101784F1EFBB20B2B0AD8A6
:1035A00062884FF6F7739A4208D8114B03EB8703F2
:1035B000D3F8F031B3B90020BDE8F081082904D870
:1035C0004FF48973CB40DB07EFD40A4BA0885B8FA5
:1035D0008342F0D0E179FEF715F900F0FD000128F3
:1035E000E3D0E8E732462146681CBDE8F0411847C1
:1035F000803B0301782F002008B550F80C3C40F8C0
:10360000503C037900F83C3C0378A3B9114B30F8E7
:103610004C2C9B8F9A4204D16438BDE808402BF0B3
:1036200098BCA0F16C010C483AF006F90320BDE803
:103630000840FDF75FBC022B08D009D3042B8CBFD8
:10364000C321CE216C38BDE80840E1E5CC21F9E783
:10365000C321F7E7782F0020DC3A002010B5204C7A
:1036600094F8E832A32B33D1D4F8EC3200221A7349
:103670002278D2075CBFC2221A731A79AAB1C1227A
:103680001A73A52384F8E83216483AF0F9F88368EB
:103690000C309847D4F8EC32EBB1A32384F8E8322D
:1036A0000120BDE81040FDF725BC1B7B002BE8D1B5
:1036B0000D4B0E489A8F1B88A4F800334FF4D27339
:1036C000A4F8FA22A4F8E832BDE810402BF03EBC82
:1036D000A52BD9D010BD312384F8E832FAE700BF1A
:1036E000983A0020843D0020782F0020883D00205B
:1036F00010B5194B93F80031994294BF5B1ADB1A4D
:10370000DBB29842154B06D393F8202002F07B02DF
:1037100083F8202010BD5C7CA20718D493F84820C1
:103720008A4294BF0021012193F8202061F3820294
:1037300083F82020E2070CD493F84920824294BFFA
:103740000020012093F8202060F3C712E0E7002159
:10375000EAE70020F6E700BF983A0020782F002023
:103760000C4A10B4D2E93D34002108461A78062AE2
:103770000AD002F0FB02012A06D15A78022A0BBFB6
:1037800001300131C0B2C9B228339C42EED85DF895
:10379000044BADE7983A0020124B002293F8321008
:1037A0009A77DA7F61F3030293F8331061F307121B
:1037B000DA7793F82020597A02F0FC0261F3C6020E
:1037C00083F820201A6CC3F821205A6CC3F82520F6
:1037D000FF2283F8292002F57F425A851A7C83F85C
:1037E0002C20BDE7782F002038B5057825B1284674
:1037F000BDE83840FDF7C6BB4478502C16D0532C9A
:1038000007D04B2C1DD11B4B02891A801A4850231C
:1038100004E0184B028918485A874B2380F8C833B4
:1038200000F57070BDE838402BF041BB11490389A9
:1038300021F83C3F172032F0EFFB0F4880F8C853C7
:10384000EEE7B4B90B4D037A2946162001F8383F4C
:1038500032F0E2FBFFF7A0FF074B2046BD221A70B3
:10386000FDF790FB95F838102420BDE8384036F07D
:103870009DB938BD782F0020983A0020F8B5454D05
:10388000D5F87441064604F108072CB9424B43F2BF
:10389000AE021A803AF000FE04F124039E4205D0E5
:1038A0003D4B43F2AF021A803AF0F6FD33784BB14C
:1038B00084F84C30582385F878310920BDE8F84069
:1038C000FDF718BB95F87831593B072B59D8DFE83D
:1038D00003F0041B353B585844156F23237404F13F
:1038E0001801062032F06CFB602385F878312B4BF1
:1038F00023623846BDE8F8402BF022BB46232374F0
:103900000F2323765A23F0E7254E002306F14001CA
:103910003320737232F054FBD6E91023134305D1E0
:1039200027F090FDD0E90023C6E91023FFF734FF0C
:10393000452323741B4BA3615B23D6E752232374D7
:10394000012323765C23D0E78323237404F1180139
:10395000082032F035FB5F23C7E7114B9A8F228294
:1039600093F83820A27493F83730E3740123A382CC
:103970000D4BA36138462BF0E6FA5D2385F87831CC
:10398000F8BD054B43F2B0021A80BDE8F8403AF0AA
:1039900071BD00BF983A00205C3100207D380001E5
:1039A000782F0020962F0020B528000173B52A4CEF
:1039B00000250DF1070140F207108DF8075032F095
:1039C000FFFA9DF8073084F8343004F148014FF4D1
:1039D000837032F0F5FA0DF1070140F2051032F074
:1039E000EFFA94F848209DF807309A4239BF9B1AA5
:1039F00084F8493084F8483084F849500226FFF7AB
:103A0000AFFE0DF1070119208DF8076032F0D8FAEA
:103A10009DF8073084F82F3094F82E300F499B1B07
:103A200018BF0123222084F8533032F0C9FA0C4B1E
:103A300043F6095093F8325027F01EFD06FB0505AA
:103A40004FF4006027F018FD05EB500094F8345057
:103A50004543E56002B070BD782F0020CC2F0020D8
:103A6000B02E002038B51A4C2378DB062AD5194D24
:103A7000D4F8F43318221B7C84F8F02305F13C01C0
:103A800017202B7232F09CFA05F13801162032F023
:103A900097FAFFF78BFFFFF77FFE0F4BC4F8103448
:103AA000452384F8003404F57E7005F11E03C4F844
:103AB00008342BF045FA95F838102420BDE838403A
:103AC00036F074B8C220BDE83840FEF797BB00BF9F
:103AD000983A0020782F00201D2700011F49C88830
:103AE0004B8F98422DE9704334D01D4B93F8380327
:103AF00092282DD1507D0D282AD11269567816F0C2
:103B0000E00025D1012E23D1D1E91045D2F806904D
:103B1000D2F802804D4508BF44451CD1D47A957A2D
:103B2000127BC3F8400344EA0222A3F83A23192285
:103B300083F83823CA68C3F850230A4A83F83C53F1
:103B400083F85463C3F8582303F5527033F04CFBE9
:103B5000012000E00020BDE8708300BF782F002026
:103B6000983A0020590C000110B5114CF1B9114BD5
:103B7000B4F86A131A7C84F83C230F4ADB68C4F853
:103B80004023192284F83823C4F8503301220B4B08
:103B9000C4F8583304F55270A4F83A1384F8542347
:103BA00033F022FB862384F8683310BDFB23FAE749
:103BB000983A0020782F002035060001590C0001AA
:103BC0002DE9704316460C46FCF79CFF144B93F806
:103BD0002024824203D800233360012017E0D3F869
:103BE000243400B2C0EBC00003EB800010F1140FCE
:103BF0004FF000033360F0D0D4E900894369D3E982
:103C00000045A94508BFA04503D133600020BDE8A9
:103C10007083826910339A42F1D80220F7E700BF1F
:103C2000983A002030B58BB043680593044690F86D
:103C300024308DF8183005A835F040FA079900298E
:103C400051D0089B002B4ED094F824200244207AB7
:103C5000824248DC1A680D685B68CDE902236B1C60
:103C600033D001AA02A99DF81900FFF7A9FF012886
:103C70002BD0019B13B19B689D4226D99DF819005A
:103C8000FCF758FF206470B31A4B93F84B3084F85C
:103C90004430089B1A685B68C4E90C2304F13003C4
:103CA000A3646368E36494F8243084F85030237A82
:103CB00084F85130104B6365002384F8523004F1CE
:103CC000380035F0EFF90BB030BD9DF81900FCF766
:103CD00031FFE38CADF8043050B9162301A88DF8FC
:103CE00006300EF06BFDA4F18000FDF739FCEAE729
:103CF0001123F3E7782F00204F9700012DE9F04FB3
:103D00008A4F97F87831D7F8744185B0562B06461C
:103D1000009705D0864B43F2AB021A803AF0BCFB09
:103D20002CB9834B43F2AC021A803AF0B5FB04F194
:103D300010039E4205D07E4B43F2AD021A803AF04A
:103D4000ABFB337923B103F0EF02EA2A40F0E480C1
:103D50003268E3699343019300F0DD80D6F8089060
:103D6000F579494600204FF6FF7C85420DD1FF25AD
:103D7000A846AA4600234FF0010C019A12EA0C0F44
:103D800042D00021CE460A4633E0B1F80480E04537
:103D900000F1010E03D15FFA8EF01831E5E75FFA0A
:103DA0008EF303EB430291F810A009EBC2029D428F
:103DB000F1D0984209D0B2F804B0C34505D192F8C9
:103DC00010B0D34508BFA2F804C00133DBB21832EB
:103DD000EDE79EF810B09B4507D1BEF804B04FF652
:103DE000FF77BB451CBF0132D2B20131C9B20EF11F
:103DF000180E8142EDD11AB91CF4C30F63D1984655
:103E000052453CBF92461D460133DBB2202B4FEAA0
:103E10004C0CB2D1B8F1FF0F57D1FF2D05D1444B57
:103E200043F2B8021A803AF025FBDFF80CB1002308
:103E30008BF838500DF10D011820D6F8089096F83F
:103E400007A08DF80D3032F0BBF89DF80D805E466E
:103E5000B8F1000F40D13BF099FE80B20AF1010B9E
:103E6000ADF80E0043464FF6FF71884204BF4FF095
:103E700001080020CC46002292450BD09CF810E0AF
:103E8000AE4524D1BCF804E0864520D1013080B293
:103E90004FF0010801339BB29B45E6D8B8F1000F03
:103EA00001D0ADF80E00BDF80E30B3874FF6FF72AB
:103EB000934217D11E4B43F2B9021A803AF0DAFA54
:103EC00005B0BDE8F08F1D46AFE74546ADE70132CE
:103ED000D2B20CF1180CCFE70DF10E01172032F021
:103EE0006FF8E0E794F8453004F108000BB1B4F83E
:103EF0004630738723830F4B2362009A5323237426
:103F0000592382F878312BF01BF896F838102420CA
:103F100035F04CFED4E7C423009A84F84C30582383
:103F200082F878310920FCF7E5FFC9E7983A0020CC
:103F30005C3100207D380001782F0020014B588F24
:103F4000704700BF782F002070B50B4C94F83050AC
:103F50000E467DB9532323762084084BA36204F1D7
:103F600010002AF0EDFF012384F8303084F831602E
:103F7000284670BDC320FCE7180A01208D0D000102
:103F8000014B93F831007047782F002008B5FCF7FB
:103F900065FA18B103786FF30003037008BD08B524
:103FA0000146044839F048FC1120BDE80840FCF700
:103FB000A1BF00BF703D002010B5014638B90F4BBE
:103FC00043F2D002BDE810401A803AF053BA0C4CCC
:103FD000204639F031FC2379D62B06D1702323718A
:103FE0000820BDE81040FCF785BF703B022B03D9C9
:103FF000024B43F2D102E5E710BD00BF5C31002067
:10400000D03A002070B5484C94F80032212B254658
:1040100040F0858004F5C47039F032FCA0F108034B
:10402000C4F88C31414B027C1A72FFF7BFFC237835
:10403000DB062BD5D4F88C311A7B023A012A25D81D
:10404000322284F80022227093F8342084F8FD2173
:104050001A6BC4F8F4210022C4F8F02184F8EE2190
:104060009B7B334AC4F8F821012284F8FC212BB150
:1040700004F5E470BDE87040FFF79EBF84F8EC31B2
:1040800004F5F670BDE87040FDF7ACB8D5F88C319A
:10409000C22283F82B20222385F80032234CD5F846
:1040A0008C11638F0B85D1E90023C1E9082391F8B6
:1040B0002B6094F8383081F82A30F6B9D5F8903171
:1040C000D3E9042304F13C011720C4E9102331F0A3
:1040D000A3FF04F13801162031F09EFFFFF75CFBCF
:1040E000BD232B70637AD5F89021C3EBC303DBB2F9
:1040F000928831463046FCF7E4FCD5F88C014369E0
:10410000203098470023C5F89031D5F888314BB15D
:104110000A20FCF7EFFE212385F8003201E0222B74
:10412000BCD070BDDA23F7E7983A0020782F002042
:10413000E511000110B5014638B90F4B4FF442525A
:10414000BDE810401A803AF095B90C4C204639F081
:1041500073FB2379132B06D1E72323710D20BDE8D0
:104160001040FCF7C7BE1933DBB2022B03D9024B58
:1041700043F28A02E4E710BD5C310020583B002086
:1041800010B5014638B90F4B43F2A002BDE810400C
:104190001A803AF06FB90C4C204639F04DFB237968
:1041A000B72B06D1542323710920BDE81040FCF73A
:1041B000A1BE543B0C2B03D9024B43F2BC02E5E7F2
:1041C00010BD00BF5C3100200C3C00204B1EDBB258
:1041D000FD2B10B507D90D4B43F2A0421A803AF0DF
:1041E00049F900200DE00A4AD2F81834D2F81C240C
:1041F0001C783CB9588019700146112035F0D6FC66
:10420000012010BD04339A42F2D8EAE75C31002065
:10421000983A00202DE9F04107460E4641B9124B6D
:1042200043F2A1421A803AF025F93046BDE8F08108
:104230000E4D0020D5F81844804623786BB1628873
:10424000BA420AD1FF2E01D0B34206D1112084F820
:104250000080394635F0AAFC0120D5F81C3404341E
:10426000A342EAD8E2E700BF5C310020983A002080
:10427000F7B5064640B9104B43F2A3421A803AF014
:10428000F9F8304603B0F0BD0C4D0020D5F81844C5
:104290000746FF2E02D02378B34207D1236801934B
:1042A000122001A935F082FC27700120D5F81C34BA
:1042B0000434A342EDD8E5E75C310020983A0020B1
:1042C00038B50C4639B90E4B43F2A2421A803AF087
:1042D000D1F8002038BD0B4AD2F81834D2F81C149B
:1042E0001A7832B15D88854203D1FF2C05D0A242F5
:1042F00003D004339942F3D8EBE70120EAE700BF8B
:104300005C310020983A0020064AD2F81834D2F8DE
:104310001C240020197809B90130C0B204339A4234
:10432000F8D87047983A0020084B30B10430D3F8E1
:104330001C34984204D300207047D3F81804F6E7E1
:104340000278002AF8D10430F3E700BF983A002041
:1043500013B50B4C0DF1070140F2151031F030FE92
:10436000214640F2112031F011FE9DF8072020680F
:1043700092008318002163603BF060FC02B010BD26
:10438000B03E0020014B83F853007047782F002087
:10439000014B83F854007047782F0020014B93F8AD
:1043A00053007047782F0020014B83F8530070476B
:1043B000782F0020014B93F854007047782F00208D
:1043C000014B1888704700BF782F0020014B988F51
:1043D000704700BF782F0020014B9887704700BFBF
:1043E000782F0020014BD3E910017047782F00206F
:1043F000D0E90001014BC3E910017047782F00207C
:10440000014B93F82E007047782F0020014B93F852
:1044100038007047782F0020034B014683F838009E
:10442000242035F0C3BB00BF782F0020014BD86893
:10443000704700BF782F0020014BD888704700BF1D
:10444000782F0020014BD880704700BF782F0020C4
:1044500008B5054B01461874222035F0A7FBBDE8CE
:104460000840FFF799B900BF782F002073B5057891
:10447000114CC5B9114EB4F83A33B387FDF78CFA35
:1044800006F13C01172031F0C7FD94F83C03FFF71B
:10449000DFFFFFF781F90F2301A8ADF804508DF875
:1044A00006300EF08BF9922384F83833D4F8403379
:1044B00003B1984702B070BD983A0020782F0020D1
:1044C00038B503791F4C05468BB103F0EF03EA2B97
:1044D0000DD01D4B187C0130C0B2FFF7B9FF84230B
:1044E00084F868330920BDE83840FCF7FFBFEA795B
:1044F000B4F86C339B1A9BB2A4F86C336BB13BF0ED
:1045000045FBB4F86C2380B2B0FBF2F302FB13035B
:10451000B4F86A030344A4F86A330023EA799A42A0
:10452000D7D9AA68B4F86A0303EB430102EBC102CE
:1045300001339288824204BF0132A4F86A23DBB2BD
:10454000ECE700BF983A0020782F0020014B187C40
:10455000704700BF782F0020014B83F83000704770
:10456000782F0020014B93F833007047782F0020FC
:10457000014B5888704700BF782F0020014B988866
:10458000704700BF782F0020024B0022C3F80220A2
:10459000704700BF782F0020014B9874704700BF10
:1045A000782F0020084B1B7CC21A002AB8BF524249
:1045B000C72A04DC984294BF00200120704798422B
:1045C0008CBF002001207047782F00200A4B1B7CF5
:1045D00098420FD0C21A002AB8BF5242C72A04DC40
:1045E000984294BF00200120704798428CBF002061
:1045F0000120704701207047782F0020324B2DE9B1
:10460000F047D3F8F440314D06460F4690464FF040
:1046100000099A462378062B43D06378022B40D0BA
:1046200056EA070309D0D4E90423BB4208BFB242CB
:1046300037D1607EFFF7CAFF98B3A37EB8F1000FB1
:1046400037D013F0040F2CD0B9F1000F39D0DAF8BD
:10465000F430DAF8FC10E21AA9EB0303D210DB10F5
:104660006A436B4301EBC20201EBC3031279197970
:10467000637E511A99F8192093420AD0981A00289B
:10468000B8BF4042C72817DC93428CBF00230123E8
:104690003BB9193105DB3BF079FA10F0080F08BF80
:1046A000A146DAF8F83028349C42B3D34846BDE836
:1046B000F08713F0020FC6E7934294BF0023012353
:1046C000E6E7A146EDE700BF983A0020CDCCCCCC80
:1046D00010B5154CD4F88C310122D3E90001FFF755
:1046E0008DFFC4F89001A8B1002384F801320F4A6D
:1046F000C3889387A4F8D83150220D4BC4F8E03119
:1047000004F5E47084F8D0212AF01AFC292384F8F7
:10471000003210BDD4F88C31C32283F82B200A203C
:10472000FCF7E8FB2223F2E7983A0020782F0020DC
:10473000E151000110B50F4C99B9D4F89C3103F543
:104740001173C4F89C310C4BC4F8A43104F5CA7041
:10475000012384F8A03132F047FD2D2384F8003284
:1047600010BDD4F890319A7E6FF382029A76BDE83C
:104770001040ADE7983A00207D4700010F4B1048EC
:104780001B7A13F0080F11D1022380F8B031D0F852
:104790009031DA889B88A0F8B8310A4BA0F8B22192
:1047A000C0F8C03100F5D4702AF0D0BBD0F89031F9
:1047B0009A7E6FF382029A768AE700BF782F0020F4
:1047C000983A00203D80000182E70B4A92F80132BE
:1047D0000133DBB2022B82F8013206D9D2F89031D4
:1047E0009A7E6FF382029A7672E7282382F800326B
:1047F0000320FCF77BBE00BF983A002010B5037879
:10480000174CD4F88C2143B182F82B300A20FCF7E6
:1048100071FB222384F8003210BD117B032915D1CE
:10482000104B1B7A13F0080304D1C4F89C31BDE887
:104830001040CAE7812384F8D03104F5E4700A4BB4
:10484000C4F8D4312AF033FB2B23E3E782F82B3072
:10485000222384F800320A20BDE81040FCF74ABB4E
:10486000983A0020782F00206D480001037810B599
:10487000094C2BB98368C4F89C31BDE81040A4E70B
:10488000D4F88C210A2082F82B30FCF733FB22234A
:1048900084F8003210BD00BF983A0020F8B58B793B
:1048A000012B0F46164652D18C68CD6826F0CAFD02
:1048B000D0E900239D4208BF944248D1364D95F877
:1048C0000032A3F12C02012A2C464BD805F5CA7000
:1048D00032F0B4FCB7F819204FF6FF73934238D08A
:1048E000FB7E002B35D1D5F88C112C4D81F82B3067
:1048F0006A87D4F8902191882980D17885F838107A
:104900001370137E507E0133DBB20F2B28BF0F23B1
:104910006B72FFF79DFD73682BB11968D4F8902175
:104920005B68C2E90213532384F8D0316B8FA4F87B
:10493000D8311B4BC4F8E0311A482AF001FB2E2372
:1049400084F8003295F83810242035F02FF9012032
:10495000F8BDD4F890319A7E6FF382029A76FFF711
:10496000B7FEF4E7DA2BF2D10C4A92F82E30022B84
:10497000EDD1B7F819305387A5F8D8315322084B39
:10498000C5F8E03185F8D02105F5E4702AF0D8FAB1
:10499000312385F80032DAE7983A0020782F00209A
:1049A000E1510001603C002010B51D4CD4F88C3161
:1049B0000022D3E90001FFF721FEC4F8900108B3FB
:1049C000002384F80132174B93F8372084F8D12163
:1049D000C27884F8D02102221B7A84F8D221C288BE
:1049E000A4F8D421828884F8E03104F5E4700E4BF9
:1049F000C4F8E431A4F8D8212AF050FA232384F82B
:104A0000003210BDD4F88C31CA2283F82B20222327
:104A100084F800320A20BDE81040FCF76BBA00BFF2
:104A2000983A0020782F00203D610001024B0022BF
:104A30009A705A601A817047180A012010B5FFF762
:104A4000F5FF32F017FC054C60633834204632F035
:104A5000F5FB2046BDE8104032F0C6BB180A012025
:104A600010F0FB0F03D1074B01221A757047052880
:104A700001D00E2804D1034B00221A75FFF7DEBFC8
:104A8000704700BFFC200120004870471A0A01202F
:104A9000044B054A1A64012283F84420034A9A64AD
:104AA000704700BF180A0120A075E9003D4A0001C7
:104AB00008B532F0DFFB064B5B6BC01A054B984222
:104AC00097BF4EF66023FF20B0FBF3F0C0B208BDE5
:104AD000180A01209F75E900037B03F0FD02042AF8
:104AE00010B5014603D1BDE81040FCF738BE012BDC
:104AF00001F10801104C0FD104F57D7038F09CFED7
:104B000094F8F033162B15D1172384F8F0331320C3
:104B1000BDE81040FCF7EEB904F5C47038F08CFE27
:104B200094F80032DA2B05D10A20FCF7E3F92123AF
:104B300084F8003210BD00BF983A002008B5014645
:104B4000084838F079FE084B93F8B920E62A07D1D7
:104B5000112283F8B9200C20BDE80840FCF7CAB93F
:104B600008BD00BF103B0020983A002038B5164B16
:104B7000164993F8B8501C462DBB022A1AD1A3F847
:104B8000A800012384F8AD3000220023C4E92823C3
:104B900091F8203284F8AA304FF48073A4F8AB3037
:104BA0000B4BC4F8B0300B48FFF7C8FF012384F863
:104BB000B83008E0032AE7D100200021C3E928012A
:104BC000012283F8AD2038BD983A0020803B0301D4
:104BD000B9310001303B002010B50E4C94F8B830CC
:104BE000B3B900220023C4E928230B4B84F8AC009E
:104BF00093F8203284F8AA3004F19800074BC4F8E7
:104C0000B03084F8AB10FFF799FF012384F8B83077
:104C100010BD00BF983A0020803B0301B93100016C
:104C200010B4094C094AD4F8F430C31ADB105A43C3
:104C3000D4F8FC305DF8044B03EBC2039A7961F3BE
:104C400002029A71FCF7E8B8983A0020CDCCCCCC9F
:104C500010B5074C94F87C32022B08D0FCF7EEFF1D
:104C6000012384F87C32BDE81040FDF7B3B810BDD5
:104C7000983A002010B5084C0146204638F0DCFD7B
:104C800023798E2B06D18F2323710F20BDE810408E
:104C9000FCF730B910BD00BF043C00204FF6FF7395
:104CA00098420D4A1ABF013080B20020B2F8AC120F
:104CB000D2F8A822C0EBC0031344814202D84FF6B9
:104CC000FF7070471A7902F00502052A03F1070305
:104CD000F7D0013080B2F0E7983A0020034BC0EBE8
:104CE000C000D3F8A832185A704700BF983A002085
:104CF000034BD3F8A832C0EBC00003445888704778
:104D0000983A002001460A2034F0E4BE01460A2009
:104D100034F01ABF0C4B30B12830D3F8F820904251
:104D200004D300207047D3F8F400F6E7037803F0CB
:104D3000FB03012B05D14378022B02D183888B42E0
:104D4000F0D12830EBE700BF983A002010B50B4AAD
:104D50000B49D2F8F430898FD2F8F8201C78062C51
:104D600005D09C88844202D1DC888C4203D0283351
:104D70009A42F3D80023184610BD00BF983A00208D
:104D8000782F00202DE9F041254A264FD2E93A3507
:104D9000EB1A92F80051013505EB23150E46ADB222
:104DA00004464FF6F678631E9BB2434588BF012444
:104DB0007B8FA34214D02046FBF768FB20BB204624
:104DC000FFF7C4FF38B1D0E90201D6E900239942C8
:104DD00008BF904209D12046BDE8F0811D46E2E7B8
:104DE000304626F03BFB0028E5D101346B1EA4B20F
:104DF0009BB2002DF2D10C4B43F206021A804FF603
:104E0000FF7439F037FBE6E703789B07EDD4D0E970
:104E10000201D6E90023994208BF9042E5D1CEE7CE
:104E2000983A0020782F00205C31002010B586B021
:104E3000CDE900232023ADF80C300DF10A03ADF8C5
:104E40000A1004930C46002303A91E20059334F096
:104E5000ADFE059B43B1BDF80A006946FFF792FF1E
:104E60000446204606B010BD0C4B93F83120002AB2
:104E7000F7D193F82F30022B09D14FF6F7739C42EC
:104E800002D93AF083FE84B269462046E6E7032B56
:104E90000CBFBDF800404FF6FF74E2E7782F00200A
:104EA00038B501220546D0E90201FCF7CBFA0446E9
:104EB000D8B1AA7E637862F3C30363700020AB8825
:104EC00063822075D5E902234FF6FE71FFF7AEFF2E
:104ED000D5E90223C4E902230123208263752370EC
:104EE0000420BDE83840FCF701BB38BDF7B5504C95
:104EF000227812F0400F0F46254611D094F8522127
:104F0000AA2A0FD0B4F85021824209D1494B84F823
:104F100054115B8F934214BF0123002384F8533153
:104F200003B0F0BD434EA4F85001728F84F85411C1
:104F3000824296F82E204FD1002AF1D0022A03D0C7
:104F400096F82F30022B25D0D6E91023C5E9462349
:104F50000323A5F824310DF10701292031F030F8A1
:104F60009DF8072001230AB185F8253196F83820ED
:104F700085F826319340C5F84831082385F84C312F
:104F80002D4BC5F82C31452385F852312B48FFF7BE
:104F9000A3FDC5E7012AC3D14FF6FE7426F052FAED
:104FA0002146D0E900230120FFF740FF738F8342A1
:104FB000F4D04FF6F7739842B2D8532385F82031D6
:104FC0001F4BC5F830314423A5F8280185F852312C
:104FD0001A4829F0B5FFA3E7022AA1D0C9B10D22D2
:104FE000184B84F82E21C4F81C314FF6FD720023B3
:104FF000A4F8202184F8283102324623A4F82201A3
:10500000A4F8242184F8523104F58C70FCF7D8FA06
:1050100086E7FBF781FB002882D0472284F85221E3
:10502000827E67F3C3028276FFF73AFF78E700BF1C
:10503000983A0020782F00204D100001B03B00204E
:10504000FD15000179510001014B0021588F4DE7FA
:10505000782F002030B5274B1B78DB0787B008D5A9
:10506000537D042B05D1146965780B2D16D003D818
:105070005DB1012007B030BD0C2D25D00D2DF8D12C
:1050800000216088FFF732FFF3E760884FF6F7737F
:105090009842EED82946FBF70BFDEAE701238DF88D
:1050A00004306388ADF805308B88ADF807303E20BA
:1050B00001A934F07BFD6088FBF71CFC0028D8D0E8
:1050C0004FF6FF730380D4E702238DF804308B88FA
:1050D000ADF8053001A93E2034F068FDA378E278F0
:1050E0008DF8025043EA02236846ADF800300DF017
:1050F00065FBBEE7983A002010B51E4C94F852317B
:10510000AA2B2ED1D4E93D321978062902D0997EF6
:10511000090703D428339342F6D30023002184F8EF
:105120005311A3B19A88A4F850219A7E61F3C30267
:105130009A760121B4F85001FFF7D8FE94F8523165
:10514000AA2B0ED10220BDE81040FBF7D3BED4E954
:105150003A311A7802F00302032A03D010338B424B
:10516000F7D310BD5A88A4F850211A786FF3410282
:105170001A70DEE7983A002010B5164C38B194F852
:105180005231462B03D104F22D13984205D0124B15
:1051900043F283121A8039F07FF9104B93F82E30C6
:1051A000022B0ED0B4F85001FBF7B6FA48B1827E5C
:1051B0006FF3C3028276FFF773FE472384F8523100
:1051C00010BDAA2384F852310220BDE81040FBF73D
:1051D00091BE00BF983A00205C310020782F00205B
:1051E000037873B5624C53B1D4F88C210A2082F84D
:1051F0002B30FBF77FFE222384F800323AE094F84C
:105200000032243B112B35D8DFE803F04E566A34C8
:105210003439463434347C86919D34365F09D4F871
:105220008C311B7B032B23D1524D95F831307BB948
:105230006A8F4FF6F7739A4202D93AF0A7FC688753
:105240006E8F26F0FFF801463046FFF79BFD68871A
:10525000532384F8D0316B8FA4F8D831332384F8EA
:1052600000324548454BC4F8E03129F069FE01E0C1
:10527000FFF79AFB02B070BDFFF72AFAFAE7D4F8FD
:1052800090313C4ADB7882F83830002284F8D831FB
:1052900084F8D0212A23E2E7452384F8D031384B23
:1052A000C4F8D8312423DAE7462384F8D0310F2319
:1052B00084F8D8312523D2E78323324984F8D031CA
:1052C000082030F07DFE3423C9E7522384F8D03122
:1052D000284B1B7AC3F3C00384F8D8312623BEE7DA
:1052E000244B25481B7A13F0080F14BF6FF07F433F
:1052F0000023C4F8D031244BC4F8D43129F01AFE6D
:10530000272379E74B2384F8D031D4F890319B8858
:10531000A4F8D8312F23A2E74A2384F8D031D4F857
:105320009031D3E90223C4E97623302397E7D4F8F8
:105330008C31002283F82B200A20222384F80032AB
:10534000FBF7D8FD96E70B4B5B8FADF8043001A857
:1053500010238DF806300DF031FAD4F8883123B1DE
:105360000A20FBF7C7FD212346E7DA2344E700BF05
:10537000983A0020782F0020603C0020E151000185
:10538000962F0020703C0020FD4700010C4B5B8FE6
:10539000834210B5044603D1BDE8104026F052B850
:1053A000FFF7D4FC28B1D0E90223134301D0083021
:1053B00004E02046FBF76AF80028F8D110BD00BFD2
:1053C000782F0020F8B5C4691C4D06462046D5F854
:1053D0002C74FDF7CBFB0123A371194B1B88638051
:1053E000238823F4805323F0030343F4805343F0D2
:1053F0000103238026F026F8D0E900236361637857
:10540000226143F0080363706088FFF7BFFFD0E9B3
:105410000023E3600B2323763B796376A260A37EAF
:105420007A7962F300036FF34703A3761B2386F8B0
:105430003030032385F82834F8BD00BF983A0020A7
:10544000782F0020F8B5264FC469D7F8B0624660BF
:10545000338D0385012380F8323005462046FDF761
:1054600085FBF369588860809B88A380238823F498
:10547000805323F0030343F4805343F0010323805C
:10548000FFF784FF3B46D6E9147120B3627842F0FF
:1054900008026270D0E900C26161C4F808C0E2602D
:1054A00027611821E869052444544218F4690D481D
:1054B000A488408F84420BBF002001245070547098
:1054C00016BF5080022204220A4485F83020F822B8
:1054D00083F8B422F8BDE160A7601021E2E700BFC5
:1054E000983A0020782F00202DE9F041C4693B4E06
:1054F00005462046FDF73AFB2388F088608023F4B8
:10550000805323F0030343F4805343F001032380CB
:10551000FFF73CFF6378D0B343F008036370D0E932
:105520000023A260E36025F08DFFD0E900236361D2
:1055300022611823183485F8303023882848224601
:1055400003F4F85343F0090322F8023B336CC4F828
:105550000230736C5360B38FD0F8247390F823C378
:105560006381002101238C451DD1627863F304021D
:10557000627095F8302003F01F030A3202EB4303F8
:1055800085F83030542380F81033BDE8F08160F3A3
:10559000C303637025F056FFD0E90023E360A260E7
:1055A00010231034C7E704EB4302BE885681002263
:1055B00002F10108043204EB4202B2F802E076453F
:1055C0005FFA88F2F4D1934203D20133DBB2102B9D
:1055D000CBD00131C9B21837C5E700BF782F002002
:1055E000983A00202DE9F0414FF6FF73C469038516
:1055F0008B7880F88530064620460D46FDF7B6FAD2
:1056000023684FF6FC721A402B4B13432360EB7A4E
:10561000A3716B7BE371A888A080FFF7B7FE40B34E
:10562000637843F010036370D0E900234FF008085B
:10563000A260E360F26908F10807D419238803F433
:10564000804343F00103D3536A78637802F060012A
:10565000202910D143F040036370AB7AA3702B89EB
:10566000A4F80330AB786371063786F83070BDE874
:10567000F0818046DEE76FF38613637049B912F05C
:10568000100FDBB203D0022262F3C403E4E701226D
:10569000FAE72889FFF77AFE0028DED0637843F026
:1056A00020036370D0E9002308F11007C4F8062036
:1056B000C4F80A30D1E700BF0100FCFF2DE9F04F2C
:1056C00085B0884601925C4A0F9E92F82E109DF894
:1056D00038409DF840504FF6FE7B022907469A4617
:1056E000A6F800B091461DD11288328013B98242CB
:1056F00008BF012503238DF80C308DF80D50FE23D3
:105700008DF80E309DF80C30002063F307009DF8F3
:105710000D3063F30F209DF80E3063F3174005B092
:10572000BDE8F08F2BB11CB34FF6FF733380082315
:10573000E1E74FF6F7729042F6D8FFF707FB044611
:10574000B0B1827ED30707D44FF481733780ADF8B0
:105750000C308DF80EB0D5E70278052A02D04278D9
:10576000022A05D14FF482733780ADF80C30C6E7BA
:1057700051463846FBF780F9002852D042883280E3
:105780001FFA82FC027990F806B051073ED5B9F8AD
:105790003A1041454BD1130749D40721BAF1000F04
:1057A00001D1674545D05D4528BF5D46EDB214B3D4
:1057B000062920D12148224AD0F8F430E31ADB1020
:1057C0005A43D0F8FC3003EBC2039879C0F3C20708
:1057D0002046FAF75DFF99F83530B842B8BF384631
:1057E0005B4528BF5B46DBB2984211D2A388338069
:1057F0008346012504213388434502D0019A934210
:1058000008D14FF6FE733380012103E00621C5E77E
:105810000029F0D18DF80C108DF80D5099E7214634
:10582000F8E74FF0FE0B002CF9D00146C2E70A2141
:10583000BDE70125BBE700BF782F0020983A002084
:10584000CDCCCCCC30B5C5698BB004466946284672
:10585000FAF780FE9DF8142094F830309A4228D848
:105860000123039A84F8323053786BB96D88284647
:10587000FFF76CFA28B1837EDB075CBF052384F851
:10588000323025850BB030BD1178994211D902EB29
:10589000430148880949498F88420AD1013BDBB25C
:1058A000537002EB43039A78DB7842EA03232385A3
:1058B000E8E7752384F83030E4E700BF782F002054
:1058C0002DE9F34190F807808779002308F101085A
:1058D0005FFA88F84372764B80F8078093F82E3091
:1058E000022B04460E4600F0C3803D460E2F2CD8F6
:1058F000DFE807F0C9C908262633335858582B2B40
:105900002BA7C9003AF042F9C0F30B0060810126D1
:10591000E379B34219D8608925F0AEFD4009608172
:105920002146644837F088FF634890F85030002BD8
:105930003DD1012380F85030543031F055FC36E031
:10594000B8F1010F32D0032F01D001252FE041F62D
:105950000273438104260225DAE7062F13D1B8F13A
:10596000010FF2D8B8F1010F14D13AF00FF940F657
:10597000627280B2B0FBF2F302FB13033F335B00B1
:1059800063810326E7E750F8343C90F84D209B787C
:105990009A42E6E71EB133780BB9E371D5E741F6D9
:1059A0000273EDE7092F06D10723837100252846EE
:1059B00002B0BDE8F081B0F84800FFF7C7F9082F42
:1059C00005461CD1002333706369002B6CD1B8F1FC
:1059D000020F69D8A379082B21D12046FAF7D8FE07
:1059E000354BADF8040093F8E032C0B2984216D2BD
:1059F0000198FBF743FA50B10325E571D7E7002E74
:105A0000E2D03378002BDFD10823A371DCE7E679FD
:105A1000022E04D143F609536381042578E74DB182
:105A20006E78022E06D12B7803F0FB03012B01D1F7
:105A30000023F1E73AF0AAF8C0F30A0060810226D9
:105A4000EBE70029B2D00B786BB1E12B14BF012634
:105A500002263AF09BF8E2794FF480639340013BD1
:105A60001840608177E7012343729B02438188E7F6
:105A70000E2F3FF66AAF0122BA4044F2833313403F
:105A8000002B3FF462AF8EB13378002B3FF45DAF53
:105A9000012F07D00E2F0CBF02260126E12BD8D1F3
:105AA0000136D6E70326D4E7032580E735467EE7AF
:105AB000782F0020003B0020983A00202DE9F0418B
:105AC0003D4FC469D7F8B86205462046FDF74EF849
:105AD000337C1BB1738AA380337DE37123883089C3
:105AE000608023F4805323F0030343F4805343F096
:105AF000010323804FF6F773984245D8FFF746FC21
:105B00008046002840D0637843F00803637025F096
:105B100099FCD0E9002322616361D8E90023A260E7
:105B2000E360182204F1180385F8302003221A706C
:105B3000B27D5A7072895A8095F88630102B02BF58
:105B400095F8873043F0020385F88730B089F389F0
:105B5000A5F880304FF6F7739842288522D8FFF7D2
:105B6000F5F8012385F8323028B1837EDB0702D4B3
:105B7000052385F8323095F83030043385F830301D
:105B8000212387F8D43214E063786FF3C303637082
:105B900025F058FCD0E90023A260E360102204F154
:105BA0001003C1E7054BE179588FFBF72BFE022864
:105BB000E1D1BDE8F08100BF983A0020782F0020A5
:105BC0002DE9F8434B7807466FF3C3034B70C88841
:105BD0003885012387F83230FC698846FFF7D6FB09
:105BE00006462046FCF7C2FF98F80C30594AA371CC
:105BF000538FA3803B8D6380238823F4805323F04D
:105C0000030343F4805343F0010323809146002EA5
:105C100000F08380637843F00803637025F012FC82
:105C2000D0E9002322616361D6E900230826A2603F
:105C3000E36098F80130FA69103603F060039419B4
:105C4000A3F120014B424B41617863F386116170EF
:105C5000238803F4E04343F00203935398F80A3097
:105C6000A370B8F80450B8F80830A4F80350A4F8AA
:105C70000530B8F80600FFF769F8002862D099F8F7
:105C800030203549DFF8D4C0002A4DD0D1F8F420B7
:105C9000831ADB10D1F8FC200CFB03F302EBC303E7
:105CA0009979C1F3C201FAF7F3FC8842B8BF0846FC
:105CB00098F80330184480B2FE2828BFFE20E07117
:105CC0002846FFF763FB637800283DD043F01003BC
:105CD0006370D0E900230125A260E36063786FF36D
:105CE000451363705B0611D4B4F80500FFF74EFB53
:105CF00060B16378013543F02003D0E9001263708E
:105D000004EBC50344F835105A60EDB2681C06EB8D
:105D1000C00087F83000BDE8F88325F093FBD0E998
:105D20000023A260E36084E7D1F8F420831ADB103B
:105D3000D1F8FC200CFB03F302EBC3039879C0F30A
:105D4000C200B5E70720B3E760F3041363700546AC
:105D5000C4E700BF782F0020983A0020CDCCCCCCEF
:105D6000094A30B5D2E93D321C78062C05D0D3E97A
:105D700002458D4208BF844203D028339A42F3D8AB
:105D80000023184630BD00BF983A0020F7B51F46E3
:105D90004FF6F77398420546164626D856EA07038B
:105DA00023D0FFF7F3FAB8B1D0E90023BB4208BF14
:105DB000B24211D00220FBF79DF80124304639464B
:105DC000FFF7CEFF50B1837E858064F3C3038376F3
:105DD00084F0010003B0F0BD0024EFE700943246E8
:105DE0003B462846FAF766FFF2E70020F2E72DE986
:105DF000F04D1746527D072A884614D93D696B78C5
:105E0000C3F34011C3F300140C44E4B2611CB2EBC1
:105E1000C10F08D3DA0609D4A978B5F80300FAF758
:105E2000B7FD0646A8B90020BDE8F08D364B5A8F65
:105E3000B5F803309A42EFD1D5F808A0D5F80CB0E8
:105E400025F000FBD0E900239B4508BF9245EAD12D
:105E5000E2E7EB79C2789A42E5D9C3706B789B068A
:105E60000CD5013CE4B2012CDDD8013405EBC404AF
:105E7000B5F8050022686368FFF788FF7178F3784A
:105E8000FA8A01F06001A1F12000414241413089CC
:105E9000FAF717FE1C4BB5F803005A8F82421FD049
:105EA0006B78DB0603D5AA68EB68FFF76FFF98F8FD
:105EB0000630012B86BF03F1FF33DBB201233373BE
:105EC000737843F004037370104B93F8A422002AF4
:105ED000A9D1932283F8A4220520FBF70BF8A2E7AF
:105EE000306918B100220274FA8A42829B7C002B2E
:105EF00099D010B1C368103098477378002262F3CC
:105F0000C303326173708EE7782F0020983A002027
:105F100037B5054628B9244B43F211121A8038F0E0
:105F2000A9FAD5E90023013308BFB2F1FF3F02D13E
:105F3000002003B030BD284625F090FA88BB00222F
:105F4000002369462A20CDE9002330F039F8D5E94D
:105F50000001DDE90023994208BF90420ED1134CA5
:105F60002B2004F14C0130F02BF8B4F84C204FF604
:105F7000F7739A4202D804F14C00DAE7D5E9000140
:105F8000FFF7EEFE30B182884FF6F7739A4201D8E0
:105F90000430CEE72846FAF761FA0028C8D002306C
:105FA000C7E70348C5E700BF5C310020180A01209D
:105FB000B22F002082B00A4B009340F20713ADF8D5
:105FC000043000231DF803108142DAB203D90133F3
:105FD000062BF7D11A46501CC0B202B0704700BF62
:105FE000FCAF601138B50B4BD3F8F440001B0A4CE2
:105FF000C0106043D3F8FC4004EBC0040846217194
:106000001546FFF7D7FFA379657160F3C503A37148
:1060100038BD00BF983A0020CDCCCCCC38B50E4B63
:10602000D3F8F440001B0D4CC0106043D3F8FC4083
:1060300004EBC0041546237923B1032212FB03119C
:10604000C1F3870121710846FFF7B4FFA379657199
:1060500060F3C503A37138BD983A0020CDCCCCCCF9
:106060004B682DE9F04104460D46002B2ED12B68DC
:10607000002B3FD1E88AFEF769FE064600284FD183
:106080002D4B93F830609846002E52D06378DB0792
:106090002DD462884FF6F7739A4228D8A7883846DD
:1060A000FEF754FE20B1037803F0FB03012B1ED052
:1060B00098F83430A2799A4234BFD343DB43DBB241
:1060C000EA8A00213846FAF7FCFC10E0027802F078
:1060D0000302012A03D10A691278062AC7D01A6876
:1060E000A0885B68FFF752FE0028C0D1002630462A
:1060F000BDE8F0816278D207F8D460884FF6F77275
:106100009042F3D80C4AA188528F9142B2D090426B
:10611000B0D01A685B68FFF739FE0028AAD1E5E71E
:1061200095F91920297EFFF779FF3046FAF774FEBA
:10613000A6E70126DBE700BF782F002070B50646F2
:10614000807C294C58B102283ED8D4F890319A7EF0
:106150006FF341029A76BDE87040FEF725BCD4F893
:106160009011224DCB88AB8733886B878B882B802F
:10617000D6E90223C1E9022394F8D03185F83830FA
:106180000B7E08700133DBB20F2B28BF0F23487E34
:106190006B72FEF75DF9D4F8900196F91120317C0D
:1061A000FFF73CFF452384F8D03124231E3584F8C3
:1061B00000320F4BC4F8D851C4F8E03104F5E47054
:1061C000BDE8704028F0BCBE94F801320133DBB268
:1061D000012B84F80132B8D804F5E47028F05EFE93
:1061E000232384F8003270BD983A0020782F0020D5
:1061F000E15100012DE9F84F0746494E087E9DF810
:10620000289015469A468846FFF7D4FE96F8303017
:1062100095F801B0044613B91BF0180F2ED0B8F84A
:106220001600FEF793FD0146002865D0FAF730FA14
:106230001BF0180F04463B4A10D0D2F8F4303A480D
:10624000CB1ADB104343D2F8FC0000EBC300847987
:1062500014F0070402D10020BDE8F88FD2F8F43022
:10626000C91A314BC9104B43D2F8FC1001EBC301E2
:106270008B79C3F3C2039C42B8BF1C4696F83630F4
:10628000A342E8D96B79A978B8881C44A4B2FE2C43
:1062900028BFFE24FAF77CFB002833D14846FBF7E1
:1062A00025FE0028D7D043786AF3461343702A7935
:1062B000EB7843EA022303813B797A7943EA0223AC
:1062C0008380AB788372BB79013BC372FB794373E4
:1062D00089F001035B42C370B9F1000F10D096F84A
:1062E00034305B00FF2B28BFFF23DBB203738470C5
:1062F000B8F81630C380AFE71BF0180FBED0AAE77E
:106300000123F3E74378C3F341135345A3D1B5F811
:10631000032003899A429ED18378A342E7D89AE763
:10632000782F0020983A0020CDCCCCCC012B2DE941
:10633000F34106460F461546984610D0224BB2F858
:1063400003005B8F834211D0FEF700FD38B1047863
:1063500004F0FB04012C02D14378022B07D0B3795F
:10636000012B29D8002002B0BDE8F08101242A4683
:106370000094434639463046FFF73CFF0546002867
:10638000F0D0114B93F830302BB18378FA8AB08873
:106390000021FAF796FB8CB16B7843F004036B7025
:1063A0000A4B93F8A422002ADCD1932283F8A4227A
:1063B0000520FAF79FFDD5E70024D8E721462846B7
:1063C000FAF7CEFDCEE700BF782F0020983A0020E4
:1063D0002DE9F341537D052B0D4617465DD9424B00
:1063E00093F82E30022B58D04B781669D80607D573
:1063F000137D0F2B51D98A68CB688888FFF7C6FCBC
:10640000737813F040046CD1C3F3C102002A48D062
:10641000022A42D8B6F803204FF6F7739A423CD9C5
:1064200000942346324639462846FFF7E3FE80466D
:1064300098B32146A888FAF71FFB0446002849D1E3
:10644000FAF7F4FA0379044623F0280343F028030B
:1064500003711420FAF74EFDAB882380FB8A63801A
:106460007378227903F01803A3F110014B424B41DA
:1064700042F0040263F34102227198F8012063F3B1
:10648000041298F8023088F80120A37198F80B30B4
:106490001BB100214046FAF763FD002002B0BDE8C1
:1064A000F081B6F803004FF6F7729042F5D89906DE
:1064B00008D57B7D0D2BF0D9D6F80620D6F80A300A
:1064C000FFF764FC022332463946284602B0BDE895
:1064D000F0412BE703795A07B6D543F0080303715F
:1064E000BAE70123EFE700BF782F0020004870478C
:1064F0008C3B0020064AD2F8F430C01A054BC0107D
:106500004343D2F8FC0000EBC3000079704700BFA2
:10651000983A0020CDCCCCCC064AD2F8F430C01A40
:10652000054BC0104343D2F8FC0000EBC30090F9C8
:1065300005007047983A0020CDCCCCCC10B514465D
:10654000FFF70EFC034630B1817EC1F3001014B199
:1065500041F01001997610BD40B1431E0D2B4FF054
:10656000010398BF83403C20584370470A2070477E
:106570002DE9F047BC4D95F83C1071298AB00446CE
:1065800040F083811021ADF81C100021099190F892
:106590002C10066B08900E2978D93178002975D116
:1065A000D6F80310D6F8070011F1FF3240F1FF339F
:1065B0004FF0FF316FF00200994208BF904265D35F
:1065C000AF6B2FB9A94B43F2DA021A8037F064FFA0
:1065D00097F825C097F8263063450BD9BA6A02EBC5
:1065E0000C13002A40F09C80A04B43F2DB021A807F
:1065F00037F040FF73789E4E96F83320B2EB131FAE
:1066000044D196F8322003F00F0393423ED107A9FC
:106610001E2033F0CBFA099BC3BB04A93320276BA0
:106620002FF0CEFCDDE9042312F1FF31009143F19C
:10663000FF310191DDE900894FF0FF316FF0020079
:10664000494508BF404507D3D7F80710D7F80300DE
:106650008B4208BF824219D10DF10F0118202FF093
:10666000AFFC9DF80F3043B104A917202FF0A8FC10
:10667000A289BDF810309A4208D196F82E80B8F160
:10668000020F52D197F90230002B54DB0AB0BDE85B
:10669000F087D6F807905168D6F8038010688945CE
:1066A00008BF804510D194F91F100029B178B8BFF8
:1066B00082F80DA0480748BF82F80EA0090648BF1F
:1066C00082F80FA04FF0010E10329342E1D8BEF1D4
:1066D000000F8FD1227E1A72A27FC2F30302DA72F8
:1066E000A27FC2F303121A73E27FD6F80310D20915
:1066F0005A73D6F807205A60B2781960C2F3800145
:10670000D209DA7372789973C2F303025A727278FB
:106710000CF1010CC2F303129A7287F825C069E7E5
:106720004FF0000E4FF0010ACFE7B8F1010F02D190
:10673000BB785807AAD5D5F8F4A0D4F83090D5F88E
:10674000F8E000278DF81070D4469CF80030062B36
:1067500000F09280228ABCF804309A4240F08D808A
:10676000DCE90423D9F80710D9F803008B4208BFED
:10677000824240F08280F44580F0848067463D4B41
:10678000E17FA7EB0A0A4FEAEA0A03FB0AFAD5F807
:10679000FC3003EBCA0A3B78062B04BF03233B7093
:1067A00081F04003C3F380137B70BB7803F03003A8
:1067B00043F00A03BB70237EFB70238ABB80A3894E
:1067C000FB8000220023C7E90223D9F80320D9F86F
:1067D0000730C7E9042399F80230C3F3C3033B76BB
:1067E00099F80E307B76BB7E96F85400C90961F3A8
:1067F000410303F0FA03002243F00103BB76BA839E
:10680000FFF7AAFE38629AF8063062F3861399F809
:1068100002208AF80630510706D5B8F1010F02BFF1
:10682000BB7E43F00403BB76120606D5B8F1020F17
:1068300002BFBB7E43F00403BB763846FAF7ECFA9E
:10684000E17E94F91D203846FFF7CCFB9AF806301C
:106850006FF302038AF8063004A901234A208DF859
:10686000103033F0A3F910E0983A00205C3100209A
:10687000782F0020CDCCCCCC67460CF1280CF44509
:10688000FFF463AF002F7FF47AAF95F81033272B16
:106890007FF4FCAE2B785B067FF5F8AE184BA18930
:1068A0009A8F91427FF4F2AE94F82C100E290BD9F6
:1068B000216BD1F80360D1F80770D3E910018F4242
:1068C00008BF86423FF4E2AE598FDB88994207D079
:1068D0000C490D48FBF78CF8512385F81033D5E6A9
:1068E00095F86833FB2B7FF4D1AE01320749084895
:1068F000A5F86A23FBF77CF8832385F86833C5E69F
:10690000782F002031150001AC3D0020C14400016A
:10691000083E00202DE9F0410E4607469046FEF75E
:1069200015FA3149B0B9D1E93D4523461A78062A0E
:1069300011D02833AB42F9D3B8F1000F05D023783A
:10694000032B09D02834A542F9D8BDE8F0810022F4
:10695000002321E003461C46D1F8F450234B651B6D
:10696000ED105D43D1F8FC3003EBC50540F2031395
:106970002380A37803F0300343F00A03E11C1620C0
:10698000A3702FF01DFBA780A11D17202FF018FB6F
:10699000002EDCD0D6E90023C4E9022304F1100163
:1069A0000C20134E2FF00CFB01232376337C6376EF
:1069B000A37E23F0070343F00703A3762046FAF7EC
:1069C0002BFA0022FF212046FFF70CFBAB7996F84B
:1069D000540000226FF30203AB71A283FFF7BCFDEA
:1069E000C4E908022046B0E7983A0020CDCCCCCCD0
:1069F000782F00202DE9F0418B79012B0F4690462E
:106A000036D1254E347814F0080410D05368186835
:106A10005968FFF7A5F9044658B30378012B06D14E
:106A2000D6F8485496F844240023934201D100201C
:106A30001FE02978F9B101331835DBB2F5E7C1233E
:106A40006B707A793B7943EA02236B80D8F8043083
:106A50001A685B68C5E9022373782B74B378C3F3B3
:106A600000036B7401232B701320FAF73FFDDEE760
:106A70000120BDE8F081D8F8106070780E28DED8CB
:106A8000FFF76AFD20622046FAF7C6F9B37803F0F3
:106A90000103A383D5E700BF983A002016481749A1
:106AA000D0F8F43070B510220C460025013A92B2AD
:106AB0000D804D600831002AF8D1D0F8F8004BF66F
:106AC000DD751A7802F0FB02012A11D15A78022AE8
:106AD0000ED1998805FB01F2C2F3033234F832601B
:106AE000314324F8321004EBC202516859625360FA
:106AF00028339842E5D870BD983A0020E83E00203F
:106B000007B501238DF80730037803F0FB03012B51
:106B10001ED14278022A0F4A14D192F8201041F077
:106B2000800182F8201006220270002242620BB11E
:106B3000FFF7B4FF0DF107014B2033F037F803B036
:106B40005DF804FB92F8203043F0040382F8203013
:106B50000023E8E7782F002038B5B0F12805044677
:106B600007D1144B43F246021A80BDE8384037F093
:106B700081BC10F8283C052B03D00E4B43F2470292
:106B8000F2E750E90401FFF7EBF870B114F8063CA6
:106B90004BB9237D3BB9022304F8283C0B20BDE808
:106BA0003840FAF7A7B9FFF7ABFF2846BDE83840F1
:106BB000FAF7EEBD5C3100202DE9F041244E254F5F
:106BC000D6F8F44005464FF000082378062B17D07E
:106BD000012B33D195F842305BB1D5E90201D4E9FC
:106BE0000223994208BF904203D12046FFF788FF55
:106BF00006E097F82F3023B36378022B08BFA04636
:106C0000D6F8F8302834A342DFD8B8F1000F1AD0F4
:106C1000B8F804302B82D8E90223C5E9022398F89A
:106C20001A3013F0010308BF0523AB74152385F850
:106C300041300720BDE8F041FAF758BC052BDFD101
:106C4000D3E7A046DCE72846BDE8F041FBF762BA8F
:106C5000983A0020782F00200B48836F30B4D3E996
:106C6000024554EA050207D0192280F8B92030BC49
:106C700019770C20FAF73EB990F8BA30013380F852
:106C8000BA3030BC783097E7983A002038B544687D
:106C90002378042B0D4605D00D4B43F245021A8094
:106CA00037F0FAFBD4E90201FFF75AF858B1237D17
:106CB0002B4306D1032323700B20BDE83840FAF79D
:106CC00019B9FFF71DFF2046BDE83840FAF760BD4F
:106CD0005C31002073B5464C94F8B90011280FD1EF
:106CE0002378A56FDB0777D56B7D7BB12A8A4FF6BA
:106CF000F7739A420AD8172384F8B930FAF7F6FBEB
:106D000094F8B930192B46D002B070BDD5E90223F2
:106D10001343384E4DD005F1080024F09FFB0028A6
:106D200047D18DF807000DF107015C202FF048F9DD
:106D300096F82E30012B3AD8D5E90201FFF710F86A
:106D400020B30378012B04D09DF80720A2B9022BB1
:106D500012D18388A4F88830D0E90223C4E9202323
:106D6000837E13F0010308BF052384F88A301523BE
:106D700084F8B9300720C1E7052B18D1FFF7C0FE12
:106D8000192384F8B93000232B77B9E7C8231922D7
:106D900084F8B9202B77184836F072FD83691C30CF
:106DA0009847A36FEBB9E62384F8B930ACE7C22368
:106DB000EDE796F82E30022B0AD0EB7C43B1F1239D
:106DC00023700D48002384F8BA30FFF7F5FE97E7EB
:106DD0000948FBF79FF993E7192384F8B930C223D8
:106DE000D8E711230C2084F8B930FAF783F88BE741
:106DF000983A0020782F0020103B00208188134A09
:106E00004BF6DD734B43C3F3033310B432F8334016
:106E1000214322F83310416ADB0019B9D1184968BF
:106E2000814202D1D118496831B913445A6842628B
:106E300058605DF8044B7047496A11B18142FBD13B
:106E4000F7E75DF8044BFFF729BE00BFE83E0020DE
:106E50002DE9F04F8BB098469DF858300793C8F352
:106E6000400304938D4B0392D3F8F4C0D3F8FC2075
:106E7000DFF830E2D3F8F830059200258B468246E1
:106E80008DF82650069361462E462C46A9462F467D
:106E9000087806283FD0D1E902235B4508BF524558
:106EA00000F0FB0008BF0C4601281BD14B78022BD9
:106EB0000BBF01360135F6B2EDB2069B28318B428D
:106EC000E6D829463046FCF713FC002C6DD12A4643
:106ED00031460498F9F7F2FB18B3002420460BB0B2
:106EE000BDE8F08FB9F1000F19D0A1EB0C02059BA2
:106EF0000598D2100EFB02F203EBC202A9EB0C03C1
:106F0000DB100EFB03F300EBC30312791B799A42EB
:106F100038BF8946D1E7002F08BF0F46CDE7894625
:106F2000CBE71FB9B9F1000FD7D04F465B465246A9
:106F30000399C8F34000FDF779FF4FF6F7739842C5
:106F400008F002048146C8D864B30135EDB2294681
:106F50003046FCF7CDFB5C465346C7E90234BB7EA6
:106F6000A7F804906FF30413BB760DF126010123FB
:106F70004A208DF8263032F019FE3C46012323705A
:106F80000DF1270129202FF01BF89DF827300BB1B8
:106F90000523237018F0020F32D00122627084F8AA
:106FA000028032E00136F6B2D1E7237803F0FB032A
:106FB000012B15D02A4631460498F9F77FFB0028AB
:106FC0008BD118F0020F15BF01350136EDB2F6B2C4
:106FD00029463046FCF78CFBA37E6FF30413A3769F
:106FE0002F4B93F83130002BC8D0A388039A9342DB
:106FF0001EBFA37E6FF30413A376039BA380BDE79C
:10700000079B02226270002BC9D1254B93F83810E0
:10701000E170998FE180D3E91001C4E90401597A44
:10702000A0780E299CBF0131C9B22176197C617606
:10703000A17EC0F3C00060F3000101F0F901A17668
:10704000002193F85400A183FFF786FA022AC4E9CD
:10705000080102D12046FFF7D1FE1049114AD1F8AC
:10706000F430E31ADB105A43D1F8FC309DF850108D
:1070700003EBC20320469A7922F047029A719DF9E8
:107080005420FEF7AFFF2046F9F7C6FE0023A08884
:107090000093D4E90223F9F70DFE1FE7983A002088
:1070A000782F0020CDCCCCCC7FB51F4B1B781B0795
:1070B000054631D51D4B027A1B7AC2F38012C3F309
:1070C00080139A4228D10022D0E90001FAF7BAF9D8
:1070D000044608B395F90A30019301266B7A0093B0
:1070E00002962B7A4FF6FF72D5E90001FFF7B0FE4A
:1070F000A0B1002384F82230838823842B7A637024
:10710000D5E90023C4E90623094B636204F10800B2
:1071100027F0C7FE0523237004B070BD84F82260F9
:107120004FF6FF73E9E700BF983A0020782F002060
:10713000596B00012DE9F043002387B090460022EF
:10714000CDE904234B788A7913F0080F01F110067A
:107150000ABF374601F1180701F10806012A0D465A
:1071600003D0012007B0BDE8F083314B197A7B785A
:10717000C1F38011C3F38013994256D12D4B1B7874
:107180001907EED530687168FAF75CF904460028F3
:10719000E7D06B789B0726D404A92A202EF010FF95
:1071A000DDE90423013308BFB2F1FF3F1BD12B7986
:1071B0006A7943EA02232382022323757B78637072
:1071C0006B78C3F3400363756A792B7943EA022332
:1071D0006382326873680125C4E9022325700520A3
:1071E000FAF784F9BDE76B78C3F34003029398F98B
:1071F0001930019398F8183000937B78AA8830688A
:107200007168FFF725FE814650B198F9192098F86A
:107210001810FEF703FFB9F8043023820023CCE7EF
:107220004FF6FF7323820123C7E700209AE700BFD0
:10723000782F0020983A00207FB51E4DD5F8D8420F
:1072400005F5367036F01CFB2CB91B4B43F220328F
:107250001A8037F021F901230026228ACDE9016343
:10726000FF230093A37CD4E90201FFF7F1FD78B17D
:10727000837E43F010038376267663695BB90E4BF9
:1072800043F221321A8004B0BDE8704037F0F2B802
:10729000C7232376F1E704F118009847D5F8D832D0
:1072A0002BB1112004B0BDE87040F9F723BE04B043
:1072B00070BD00BF983A00205C31002010B5D0E9C5
:1072C0000001FEF74DFD044668B10378052B0BD194
:1072D000012303704378022B01D1FFF78FFD204675
:1072E000F9F79AFD012010BD0020FCE72DE9F047D9
:1072F0001F4E0024D6F8F45007464FF0060AA04669
:1073000040F201292B7803B947B16A78022A05D0E7
:10731000012B1EBF013485F800A0E4B22B88C5F80C
:1073200024804B4502D12846FFF768FDD6F8F83097
:107330002835AB42E6D80F4BC4B193F84820003251
:1073400018BF012293F8201062F3820183F8201005
:1073500024B193F84940003418BF012493F8202049
:1073600064F3C71283F82020BDE8F0872246E9E7DE
:10737000983A0020782F002010B5104C40F20120E0
:1073800021462EF003FE04F10C014FF481702EF023
:1073900017FE237B226803EB830302EBC30304F194
:1073A000080140F2032063602EF0F0FD04F11000AC
:1073B0002FF044FF0120BDE8104097E78C3B0020F0
:1073C00070B5684D95F87831542B40F0B580D5F8FC
:1073D00074412CB9644B43F2A1021A8037F05CF877
:1073E000624E94F844303372FCF7E0FA2B7894F84C
:1073F000451096F82E20C3F34003002936D0012A09
:1074000014BF002303F00103B4F84620013A92B2FE
:107410004FF6F6718A428CBF002303F00103002B64
:1074200050D094F83830012B24D1514917202EF038
:10743000C7FD16204F492EF0C3FD94F8453004F1E6
:1074400008000BB1B4F84630738723834A4B23629C
:1074500053232374592385F8783127F071FD96F86A
:1074600038102420BDE8704032F0A0BB002A18BFBD
:107470000023D4E7236CF3B15A1E1A421BD0E361F8
:10748000002294F84D3084F8242084F8253096F8B2
:10749000373084F82630102384F8273004F128038D
:1074A000A361364B236204F1080027F046FD572301
:1074B00085F8783170BD04F140012046FAF730FBC1
:1074C0005623F5E7C22384F84C30582385F87831E9
:1074D0002B4836F0D5F9044628B9234B43F2A202D3
:1074E0001A8036F0D9FF94F83C3013B10120FFF731
:1074F000FDFE94F84C30ABB91D4917202EF08CFDE1
:107500001C4916202EF088FD95F879312BB9FAF731
:1075100025FDFAF755FCFAF76BFD012385F8793163
:10752000FD232B70A36C6BB90F4B43F2A302BDE894
:1075300070401A8036F09EBF582BC9D00A4B43F2D8
:10754000A402F4E704F14C009847D5F874313BB13C
:10755000542385F878310920BDE87040F9F7CABC9A
:10756000B723A5E7983A00205C310020782F00204F
:10757000B42F0020B02F00207D380001751B0001C2
:107580000C3C002070B5324D95F83C30702B49D141
:10759000AC6B2CB92F4B43F2D2021A8036F07CFF31
:1075A0002B789B0623D594F83430261D13B1012087
:1075B000FFF79CFE012284F82020E26AA26194F881
:1075C000352084F821200023234A84F8253092F8BE
:1075D000372084F823306361204BE36184F8222054
:1075E000304627F0AAFC712385F83C3070BDC223D9
:1075F00084F82430722385F83C30194836F040F97D
:10760000044628B9134B43F2D3021A8036F044FFE4
:10761000236B6BB90F4B43F2D402BDE870401A8064
:1076200036F028BF722BE8D00A4B43F2D502F4E7BC
:1076300004F124009847AB6B3BB1702385F83C30D4
:107640000820BDE87040F9F755BCD623CCE700BF51
:10765000983A00205C310020782F00208111000131
:10766000D03A002038B52D4D95F88031452B2C4669
:107670004DD12B4BD5F87C0193F82E20012A15D142
:107680002A78520712D59A8F828193F83820827314
:1076900093F83730C37300230382224B43610430D5
:1076A00027F051FC462385F8803138BDC22380F88D
:1076B0002830472384F880311B4836F0E1F890F8F1
:1076C0002030054613B10020FFF710FE95F8283052
:1076D00073B92B7F052B08D094F881312BB9FAF7B9
:1076E0003DFCFAF76DFBFAF783FC012384F8813146
:1076F0006B6A05F128009847D4F87C3153B14523D3
:1077000084F880310620BDE83840F9F7F3BB472BF9
:10771000CBD1D1E79A2384F88031C6E7983A00208C
:10772000782F002025100001143C002010B50F4BCD
:107730004468AA2283F852212378042B07D00C4BEB
:1077400043F24802BDE810401A8036F093BE41B9BA
:10775000D4E90201FEF704FB18B1228A8280FFF708
:107760004DFB2046BDE81040FAF712B8983A0020C9
:107770005C310020F8B51B4C23781B0706462FD53B
:1077800094F8B033662B2BD1D0E90001FEF7E8FA6C
:10779000054628B30778012F22D1F9F73DFBD4F82D
:1077A000F430114AEB1ADB105A43D4F8FC3003EBE7
:1077B000C20304F570709A7942F040029A71D6E9DA
:1077C0000023C4E9F223AB88A4F8D033074BC4F8F4
:1077D000D43384F8D27327F067FB6C2384F8B0337A
:1077E000F8BD00BF983A0020CDCCCCCC8107000179
:1077F0000146064810B550F8744F36F01DF824B90C
:107800001520BDE81040F9F775BB10BD983A00206F
:107810008038F9F7A5BE13B590F824308DF8033001
:1078200090F8343004469BB991B1A0F183030193E1
:107830000198A16A9DF8032037F088FD019BA3659C
:107840009DF8033084F87930A4F1380002B010BDFF
:10785000A36A0193F2E707B58DF807000DF1070160
:1078600025202EF0D9FB03B05DF804FB014B5874C2
:10787000FBF776BF782F002010B50C4C01460C4862
:1078800035F0DAFF94F81032482B05D04A2B0BD193
:1078900004F50E702FF0D2FC5D2384F8103207201F
:1078A000BDE81040F9F726BB10BD00BF983A002094
:1078B000AC3C002038B5194C054604F118012520D0
:1078C00032F008F904F12C01372032F003F904F109
:1078D0004001002032F0FEF804F14001042032F0B3
:1078E000F9F804F14001052032F0F4F804F1400108
:1078F0000E2032F0EFF8012323750948094C1CF0E3
:10790000D3FE2946084835F097FF237C192B04D174
:107910000020F9F7EFFAC123237438BDFC200120C1
:107920004D070001983A0020AC3A002008B5074BFB
:1079300028221846002138F081F91922027080228D
:1079400000F8102CBDE80840F9F73CBFA83A002029
:1079500008B5F8F7CFFF10B14FF6FF73038008BDED
:1079600030B5072987B013D88DF8051000239CB2D5
:10797000A14205D801A9F8F7D3FF002007B030BD18
:1079800001AC04EB430432F8135065800133EEE799
:107990000520F3E708B50379014673B903744FF680
:1079A000FC73C3804FF6FE734B82054835F044FFED
:1079B0000420BDE80840F9F79DBAD0230382F1E71F
:1079C000183D00200D4890F890338A2B05D00C4BC1
:1079D00043F201221A8036F04DBD002380F898331F
:1079E0000823A0F89C33074BC0F8A0338B2380F802
:1079F000903300F56570FFF7CDBF00BF983A0020C7
:107A00005C310020352000017FB54FF6FE73ADF8E4
:107A10001630084B5A8F0DF116010023CDE90031C5
:107A200002931146FDF74AFEBDF8160007B05DF857
:107A300004FB00BF782F0020F9F743B807289DBF4B
:107A4000024B83F8AE020020C1207047983A002014
:107A5000F9F72EB80A4A58B10730B2F8AC32D2F86A
:107A6000A822C3EBC3031344834204D80020704709
:107A7000D2F8A802F1E70279D207F8D40730F3E789
:107A8000983A0020D3B516461F46BDF818200023AB
:107A90008DF807300223037004461F4B9ABB4270D7
:107AA0000276A17801F0300141F00A01A17093F84B
:107AB0003810E170D3E91001A2809A8FE280C4E906
:107AC0000401C4E902671A7C6276A27E93F854002E
:107AD00022F0070242F00702A2760022A283FEF7FC
:107AE0003BFD9DF9202020629DF81C102046FEF7EA
:107AF00079FA01230DF107014A208DF8073032F0A1
:107B000055F802B0D0BD01214170597A002908BF53
:107B100001210176C5E700BF782F00202DE9F04F45
:107B200055688BB0002D7AD00378547DC3F30403DD
:107B3000DEB2023C03EB4303DBB2E4B2A3426ED8F5
:107B4000494FB7F83AE000244FF6FF735FFA84FC20
:107B500066453AD84FF6FF74A3421CBF03EB4303BC
:107B60001B18B1F8048018BFDE78137E059392F9D4
:107B7000193006933D4BD5F800A0D5F804B0D3E9F1
:107B80003D434FF0000114BF06F0070607268DF8AD
:107B9000271007930D462078062820D1002D08BF16
:107BA0002546079B28349C42F5D30DB9B9B30D4641
:107BB000069B0293059B2846CDE9008352465B460F
:107BC000FFF760FF3146284627E004EB440C84446D
:107BD000BCF801C0F44508BFA3B20134B6E7A388DE
:107BE000434520D16378022B19D00DF127015C2089
:107BF0002EF0E6F99DF82720237852BB012B28D1DF
:107C000097F82F303BB10223237097F8203043F0D0
:107C1000040387F8203031462046FDF701F80120A3
:107C20000BB0BDE8F08FD4E902239B4508BF924515
:107C3000D8D000F0FB000128B3D02046F8F728FD8B
:107C4000814661B10846F8F723FD814588BF21468A
:107C5000A7E7033B012B9CBF02232370DBE786428F
:107C600038BF21469DE700BF782F0020983A0020BA
:107C70002DE9F043364B87B0D3E93D420025074656
:107C80000E468DF817502378062B1CD1002D08BF07
:107C900025462834A242F6D8002D3FD07B78B988FB
:107CA00096F91940307E13F0100F49D1CDE9010447
:107CB0000091002200232846FFF7E4FE0021284619
:107CC000FCF7AEFF2AE0B7F804C0A388634528D1CB
:107CD0006378022B16D00DF117015C202EF070F99D
:107CE0009DF8173073B92378012B0BD1194B93F8FA
:107CF0002F203AB10322227093F8202042F0040290
:107D000083F820207B78DA0608D5D4E902231343D0
:107D100004D173681A685B68C4E9022307B0BDE840
:107D2000F0837B78DB06B4D57368D4E9028959689F
:107D30001868894508BF8045ABD1A4F804C0EDE7B9
:107D400073681A685B680091CDE90104B3E700BF6E
:107D5000983A0020782F00202DE9F74399460B78B8
:107D60009DF8288003F00303012B07460C461646B6
:107D700046D14B789A072AD597F820100320F9F7B7
:107D8000DBFA054600283CD00123CDE900832246DA
:107D90004B463946FAF762F9637898070ED42B7888
:107DA00003F0F803B02B09D1A379012B06D9E379AD
:107DB000A288398905F13800F8F708FD2B78990772
:107DC0002DD5284603B0BDE8F043FBF72BBF214B70
:107DD0001B789B0707D48A88F38A9A4203D13146DD
:107DE0002046FFF745FF324621463069FBF7CCFBC2
:107DF000B8F1000F01D00028BED103B0BDE8F08378
:107E00004BB163789D07F8D4E179A08803B0BDE851
:107E1000F043F8F74DBB90F820100420AFE70D4B6E
:107E20001B789A0707D4A288F38A9A4203D1314675
:107E30002046FFF71DFF23789B07284604D103B097
:107E4000BDE8F043FAF78CBD03B0BDE8F043FBF7A3
:107E5000CDBA00BF983A0020014B1865704700BFAB
:107E6000180A0120014B93F84B007047782F00202F
:107E7000014B93F84C007047782F00202DE9F74311
:107E8000484E96F82054012D0746894652D9084697
:107E9000F8F738FE854200F28380434B6C1EE4B253
:107EA00093F84AE0D6F82434C4EBC40203EB82030F
:107EB0004FF6FF72197891B1A64509D093F801C029
:107EC0001FFA8CF1914203D2CC453CBF0A462046B2
:107ED000013CE4B2FF2CA3F11C03EBD10446A54204
:107EE0005CD90FFA84F8D6F82434C8EBC8084FEAF6
:107EF000880803EB0801012503F8085081F8019078
:107F00003B68C1F802307B68C1F80630BB68C1F835
:107F10000A30FB68C1F80E304846F8F7F3FD96F8D2
:107F20002034834207460BD8D6F82434002003F8C7
:107F3000080002E04FF0000032D003B0BDE8F0834B
:107F40000FFA80F9D6F82434C9EBC90903EB890983
:107F500019F1140FE8D00DF103014FF481702EF0E8
:107F60002FF801A940F21B202EF010F89DF80320F5
:107F7000019B12FB07F703EB0710174403EB0717EE
:107F800012010021C9F81400C9F8187037F056FE24
:107F90001420214631F00AFE2846CEE70020CCE727
:107FA00004469EE7983A0020782F002008B5F8F79D
:107FB000A9FD084B93F820348342014607D9064BAC
:107FC00083F84A00142031F0F1FD012008BD0020A3
:107FD000FCE700BF983A0020782F0020054B93F86B
:107FE0004A00054B93F8203498422CBF0020012012
:107FF000704700BF782F0020983A002013B5C3695E
:108000005C7801228DF8072022466FF34102292077
:108010005A700DF107012DF0D3FF9DF8070040B114
:10802000FFF7DCFF28B1044B93F84B0008B1C4F311
:10803000400002B010BD00BF782F002073B5174C70
:1080400094F800322D2B064625461CD10DF1070170
:1080500029202DF0B5FF3378BBB99DF80730A3B1C7
:10806000FFF7BCFF88B10E4BC4F8A431012384F89C
:10807000A03104F5CA707823C4F89C312FF0B4F80D
:108080002C2384F8003202B070BDD5F890319A7E6E
:108090006FF382029A76FCF71BFBF4E7983A002014
:1080A000C9470001054B064A93F84A30D2F8242408
:1080B000C3EBC30302EB830358787047782F00208B
:1080C000983A0020054B93F84A00054BD3F8243426
:1080D000C0EBC00003EB800002307047782F002017
:1080E000983A002030B591B004460D46FFF7EAFFFC
:1080F000134BA06093F84B30237323F0A3F9206156
:108100006869606195F82830637606A9F8F722FA65
:108110009DF82C306269237601A801928DF8083011
:1081200030F0CCFF9DF80900F8F704FD054BE36142
:108130000023A060A376204630F0B4FF11B030BD1C
:10814000782F00202989000113B51A49B1F84E2073
:10815000B1F85030ADF80630501E80B24FF6FD74C5
:10816000A0421CD901339BB20122ADF80420A1F832
:108170004E201A04ADF80630A1F8503003D5002186
:10818000402031F013FD00211F2031F00FFDBDF81C
:108190000630013BADF80630019802B010BD013247
:1081A00092B21B04ADF80420A1F84E20EFD50021B7
:1081B0004020EAE7782F0020F0B58BB004464D69E7
:1081C0000E46FFF76FFF6077FFF77CFF0127A06087
:1081D000A777FFF7B9FF114BA06193F84B3084F8F4
:1081E000213084F8227023F02DF97369E060236157
:1081F00096F8283084F8203069462846F8F7AAF91E
:108200009DF81430E377064B63616B7843F002030B
:108210006B70204630F043FF0BB0F0BD782F00208C
:10822000F935000108B590F88730DB070ED5C36932
:108230005B7813F0020F00F1080100F1500002D04A
:10824000BDE808404EE7BDE80840B5E7094B028CA1
:108250009B8F9A4204D10830BDE8084026F079BED1
:108260000146054835F0E8FA0320BDE80840F8F774
:1082700041BE00BF782F0020DC3A00202DE9F047F6
:108280000B46044611464FF6FF770126042B00F2F9
:10829000B080DFE803F003AE3E73260094F886302A
:1082A0000D2B0AD1636894F885209B789A427DD97A
:1082B0002046BDE8F047FAF7ABBF012B76D1574B0C
:1082C00093F85321002A71D0E269B3F85051508AD3
:1082D00085426BD1527C0D2A68D1002283F853214C
:1082E000E6E7D4F81C8098F80130D90711D4B8F823
:1082F00002204FF6FF739A420BD104F138056B69E7
:108300004BB927464FF0010995F804A0BAF1000FC8
:1083100003D0BDE8F0871D46F1E7B8F80410E8681F
:10832000F8F79AF9E86030B30220F8F7E5FF06465F
:108330000028E9D08822214637F0CCFBA6F166035D
:1083400094F83020E169184637F0C4FB06F1380391
:10835000F061BB64EB689B88338538370523C6E939
:1083600012A786F832303046FFF75CFF2B7A0133D4
:108370002B723746C8E785F80490C5E7E36904F136
:1083800038056A69B2B95A78D20732D45A88BA42E3
:108390002FD12A7982B99988E868F8F75DF9E86001
:1083A00050B183882385052384F832302046BDE808
:1083B000F04737E71546E4E7E36C2E71BBB1A26CDA
:1083C0001A61A26C02B15361A4F18000F9F7C8F8F8
:1083D0002B7A013B2B722B7A002B9AD16B79002BD5
:1083E00097D0A5F13804012315F8151C4EE76E71DE
:1083F000F1E7E3695B7898077FF55AAF94F8873027
:108400009A077FF555AF6FF3000384F8873004F1C6
:10841000080104F15000BDE8F04763E6983A0020F7
:108420002DE9F041144D0023AC6E85F8503005F174
:1084300068074FF001086389266873B1013B85F82E
:10844000508063813446002EF5D195F8503083B9C1
:108450000A48BDE8F0412EF0F1BE2146384635F01D
:1084600015FA14F8152C617AA4F13800FFF706FF0D
:10847000E8E7BDE8F08100BF983A0020EC3A002020
:1084800010B590F887300D4A61F3000380F887300B
:1084900090F886301B010021D35C80F83F10044621
:1084A000A0F8421080F83E303830FDF709FAE82293
:1084B00001462046BDE81040E0E600BF803B0301D6
:1084C00030B504468BB00D4619B36946C069F8F75C
:1084D00041F8049B606C5B88228DB4F88010F8F73B
:1084E00079FB6064A8B1E269537843F002035370EA
:1084F00094F8873043F0020384F88730838823851B
:108500002046FFF77BFD01462046FFF7B9FF0BB081
:1085100030BD94F88630102B03D129462046FAF757
:10852000D1FFA4F18000F9F71BF8F0E738B5324B22
:1085300093F8B422D3F8B042F62A1D462CD194F811
:1085400086200F2A2DD0192A2BD0F721E26983F833
:10855000B4122A4B90885B8F834213D0FCF7F6FB52
:10856000F8B1037803F0FB03012B1AD14378022BF7
:1085700017D1D0E90223C4E914230F20BDE8384005
:10858000F8F7B4BF22F05EFFD0E90023C4E914235A
:1085900095F8B432F72BF0D095F8B432F92B2AD1F4
:1085A00002E0F92385F8B432154835F069F9E3693A
:1085B00000215888F8F760FA40B103795A0705D5C9
:1085C000C3F3400212B962F3C30303712046FFF7FD
:1085D00015FD01462046FFF753FFD5F8B0323BB1F9
:1085E000F62385F8B4321020BDE83840F8F782BC95
:1085F0002E2385F8B43238BD983A0020782F002019
:10860000483D00202DE9F0410746012088461646E6
:10861000F8F772FE0446E8B140F2022383840E4B61
:108620009B8F03844FF6FE73038500250B4B8361FC
:10863000314680F83250C04784F886702046746115
:108640006660FFF7DBFC01462046FFF719FF28466E
:10865000BDE8F0810120FBE7782F00204987000169
:10866000F8B5234D234ED5F89C42234F1A2285F8A6
:10867000A422237843B9D5F8A0321834A342F8D8FD
:10868000002385F8A4321EE06378DA0721D513F0C1
:10869000600F03F0020317D1002B14BF0C200E2033
:1086A00039462246FFF7AEFF637860F30003D9072F
:1086B00063700ED5206920B104234374C368103061
:1086C000984700232370F8BD002B14BF0B200D200A
:1086D000E6E763785A07CED5224631460A20FFF7EF
:1086E00091FF637860F3820363705B07C3D5EAE7A9
:1086F000983A0020C15B0001E555000138B50546F8
:10870000044615F86039CBB950F8441C40888A8873
:1087100090420FD014F82E3C24F8380C43F001039B
:1087200004F82E3C2846FFF769FC01462846BDE8C0
:108730003840A5E6228C4988F8F7B0FF2178284612
:10874000BDE83840FAF764BD38B5411C0446A0F1D5
:1087500022051630FDF7B4F8627801462846BDE8D8
:1087600038408BE57FB5684835F08AF80446002824
:1087700000F0B78040F202238384644B90F8862097
:108780009B8F03844FF6FE730385002380F83230FD
:108790005F4B83615F4B03EB02135B6803B1984748
:1087A00094F83030742B00F29780228DE5694FF6F3
:1087B000FE739A422DD194F883606B78B4F88020D0
:1087C000A9886888029604F1280601962E7A06F098
:1087D000030606F1FF3CDCF1000646EB0C0603F055
:1087E00001030096FCF76AFFC0F3072384F88200B8
:1087F00084F88330C0F30743C0B284F884300A2879
:108800007CD8DFE800F01E7D4950505050500909D7
:108810005500092384F8823094F88630112B08D152
:10882000022384F8823094F8323043F0010384F854
:1088300032302046FFF7E2FB01462046FFF720FEDC
:108840001FE02B7813F0C00F5AD0062384F8823033
:108850006B7813F0010308BF022384F85430AB781F
:10886000EA7843EA0223A4F85630AB7984F858300A
:10887000002384F85930284BE36504F15000FFF7DA
:1088800089F8264B1A6C0AB95B6CDBB3032004B081
:10889000BDE87040F8F72EBB94F8323043F0050382
:1088A00084F83230B8E794F8323043F00103F7E748
:1088B00094F832301A4D43F0010384F832302146E7
:1088C000284634F0B9FF2B792E2BDAD1F6232B7101
:1088D0001020F8F70FFBD4E7E5212046FAF798FCC3
:1088E000CFE7104834F0CCFFE82380F8233090F82D
:1088F000313000F8223FFFF727FFC2E7C221ECE743
:10890000D121EAE704B070BDD83A0020782F0020CA
:1089100049870001803B0301FD860001983A002051
:10892000483D0020DC3A002050F80C3C10F8072CA1
:1089300010B400F8402C5A7840F8543C6FF34102D0
:108940005A700378A0F170045BB1022B14D015D3D8
:10895000042B8CBFC321CE2120465DF8044BFAF7CF
:1089600057BCC37D10F84D1CDB07F5D5A0F168019D
:108970005DF8044B20381FE4CC21EDE7C321EBE781
:10898000024BD3F84E0082B002B07047782F00201F
:10899000044BFF2293F84A1083F84A20142031F048
:1089A00005B900BF782F002013B5114B0024C3F880
:1089B0004E400DF103014FF481702DF001FB0DF1DC
:1089C000020140F221102DF0FBFA01A940F21B2018
:1089D0002DF0DCFA9DF802209DF80330019812FB7F
:1089E00003F21201214637F029F902B010BD00BF91
:1089F000782F002010B50D4C40F2211021462DF0AB
:108A0000DFFA211D40F21A202DF0C0FA084BFF2298
:108A100083F84A20FFF7C8FF22786068C2EBC202E1
:108A200092000021BDE8104037F008B9B83E0020A0
:108A3000782F0020F8B53A4B07789D6F1C46002F21
:108A400066D103F1680034F01BFF94F850300646FD
:108A5000A3B184F8507004F154002EF0EFFB04F140
:108A6000680716F8152CA6F138000121FFF706FC5F
:108A7000384634F005FF06460028F2D1AB7CDE070D
:108A800017D5D4F89C62337813B13046F7F794FFCA
:108A9000D4F8A03218369E42F5D3F9F7D9F8214E12
:108AA000C227304634F0ECFE034658BB1020F8F7DE
:108AB000B9F8AB7C980701D5FEF75EFCAB7C590793
:108AC00001D5F8F769FFAB7C9A0601D5FBF740FCAE
:108AD000AB7C5B0601D5FFF78DFF95F91230002BBB
:108AE000A1BF114B00200021C3E910011223237004
:108AF000192384F8B93000232B770C20BDE8F84007
:108B0000F8F7F8B91846DB6800F8107F9847C8E70F
:108B1000FD221A700278192183F8B9102A77ECE740
:108B2000983A0020183D0020782F0020F0B50F4B18
:108B300093F84A20C2EBC2030D4AD2F8242402EB78
:108B40008302D2E905329A4201D800200AE0D0E936
:108B50000067D3E90045AF4208BFA64203D19B6836
:108B60000B600120F0BD1033EDE700BF782F00202F
:108B7000983A00202DE9D04F124B93F820C4D3F837
:108B8000241400224FF000084FF00009944501D151
:108B9000BDE8D08F0B781BB1D1E90534A34203D3D4
:108BA0000132D2B21C31F1E7D0E90067D3E900AB62
:108BB0005F4508BF564501D01033EFE7C3E9008990
:108BC000EEE700BF983A00207FB50E4615461946DD
:108BD000D0E90223044652EA03002ED031B16846A0
:108BE0008DF80850CDE9002309F01AFD5DB1154953
:108BF000154AD1F8F430E31ADB105343D1F8FC20C6
:108C000052F83330E3B92378012B0DD14FF6FE73C0
:108C1000ADF80030A368CDF802306946E368CDF8BE
:108C20000630032030F0C2FF04F1080516B12846D3
:108C3000FBF7ACF92846FFF79DFF2046FDF760FFE4
:108C400004B070BD983A0020CDCCCCCC2DE9F347D0
:108C500000268DF8036042884FF6F7739A42044667
:108C60000F4640F2CE80037803F00303012B00F09F
:108C7000C8806D4D80886A8F82422BD0E179F8F7E9
:108C8000C1FD00F0FD03012B064623D10DF10301C8
:108C90005C202DF095F99DF80350002D41D162889C
:108CA0004FF6F7739A4213D9A088FB8A83420FD0FC
:108CB000FCF74CF860B14278022A09D1047804F03C
:108CC000FB04012C04D12B462A462946FFF77CFFE2
:108CD000012526E095F82E30544D022B25D0A08892
:108CE00094F80780D5F8E02095F8E5E000230FFA26
:108CF00083FC02EBCC0191F80390B9F1000F06D090
:108D000032F83CC0844502D1897841451DD00133F9
:108D1000DBB27345EBD9022E17D00121FCF7E6F840
:108D20000025284602B0BDE8F0876378DA060CD546
:108D30007B68D3F80080D3F8049022F083FBD0E95D
:108D40000023994508BF9045C9D1D5F8DC2295F894
:108D5000E002B4F804C094F807E00023012402F113
:108D6000060902F1040A5FFA83F84045D8D952F89F
:108D70003310DE00002940D019F8331071453CD182
:108D80003AF83310614538D1F88AFBF7DFFF002845
:108D9000C6D0D5F8F4308DF80480C01A244B8DF875
:108DA0000540C0104343D5F8FC0000EBC300C37975
:108DB00023EA0403C3710198F8F760F80028AFD0E4
:108DC000D5F8DC321B489C59214634F05FFD002861
:108DD000A6D0AB6E002B14BF0123002385F85030C2
:108DE00002D115482EF02AFA0321E17114F8152C4E
:108DF000A4F13800FFF742FA92E76400E4B20133CD
:108E0000B1E76378DB077FF541AF074BA0885B8F45
:108E1000834285D0E179F8F7F5FC00F0FD000128E8
:108E20003FF434AF7CE700BF782F0020983A002051
:108E3000CDCCCCCC003B0020EC3A00202DE9F34710
:108E4000174606460D4600240DF107015C208DF8FB
:108E500007402DF0B5F87B7D012B21D933784FFAEF
:108E600083F95A0603F02008C3F340164FEAD97776
:108E70001AD56A884FF6F7739A4211D8504B93F877
:108E80002E20022A07D11A88AB889A4208D1B8F15D
:108E9000000F6AD160E093F85240002C40F08B80C4
:108EA000204602B0BDE8F0876B78DB0601D40124D0
:108EB000F6E7A868E968FCF753FF0446002867D086
:108EC000012332461946FFF77FFEB8F1000F2ED17D
:108ED000AC8800212046F7F7EBFD3A4AB2F8AC1215
:108EE000D2F8A832C1EBC1011944187910F0010F72
:108EF00006D0B3F802C0A44504BF6FF30000187198
:108F000007338B42F1D3D2F8A833B2F8ACC30233A3
:108F100000224FF6FF7062450CD033F8021C8C42E1
:108F20003AD123F8020C013292B21433F3E720460F
:108F3000FDF7E6FD9DF80720214B1AB993F82E2086
:108F4000022AB4D1AA881B889A42B0D1B9F1000F85
:108F5000ADDAB8F1000F03D10021352030F026FE44
:108F6000174B93F82E30022B08D1154B002000210F
:108F7000C3E9100139463046FBF72EFE104B93F83B
:108F80002E40012C93D139463046FBF725FE87E76A
:108F9000B8F1000FCED19BE78142C4D0B3F800A056
:108FA00000211FFA81FEF245BDD9013133F811E0ED
:108FB000A645F6D1B5E7B8F1000FDFD1CCE700BF89
:108FC000782F0020983A002070B5134D134ED5F835
:108FD000F4402178062912D0D5F8F430D5F8FC00F9
:108FE000E31ADB10734350F8332072B9481E414234
:108FF0004FF0000341411A462046FFF7E5FDD5F842
:10900000F83028349C42E4D370BD013A40F8332054
:10901000002AF4D1EAE700BF983A0020CDCCCCCCAE
:1090200007B529200DF107012CF0CAFF9DF80700B4
:1090300028B1054B93F84B0008B193F84C0000F0B1
:10904000010003B05DF804FB782F00202DE9F34701
:10905000044628B1D0F8903013B190F8B13043B93C
:10906000BC4B43F2B0121A8035F004FA02B0BDE8EE
:10907000F087B94A90F8B7601B2380F88E3092F8D9
:1090800034305B0080F88B3090465EB190F8B030A1
:10909000B0F8AC00022B13D1538F834202D0F7F704
:1090A000ADF90646AD4B84F8B7601B78DB0710D4EA
:1090B00056B1002384F8B7302046FBF7DBFDD5E737
:1090C000FF21FBF7FDF8ECE7C2212046F8F710FB83
:1090D000CCE794F8B030012B58D0022B03D09D4B35
:1090E00043F2B112BFE7B4F8AC204FF6F7739A42DF
:1090F0004FD8002EDDD10DF107014FF498708DF897
:1091000007602CF05DFF9DF80770002F3CD0B4F88D
:10911000AC5031462846F7F7AFFCA8BB2846F7F716
:10912000E9FB88B3418869B3CBB25D1CD4F89020C9
:109130006D00EDB2521B03F1FF3C137082F801C0C9
:109140009BB204301FFA86FC9C4513D30835EDB260
:109150003E464B1C84F88B301E2384F88E3094F8E6
:10916000B830C3B1B4F8AE204FF6F7739A4212D9B3
:10917000C121AAE702EB460C30F816E0ACF802E099
:109180000136DFE70825E4E70825E8E7092500269A
:10919000E5E70825FBE7C5F10009D4F890A0002316
:1091A0002AF8093098F833201AF8093062F3850359
:1091B0000AF809300AEB09074FF6FC533A681340E6
:1091C00043F400734AF8093094F8B830002B5AD0B1
:1091D000B4F8AE30BB8094F8B930FB7198F83430F5
:1091E0005B00FF2B28BFFF23BB7198F82E30022BAA
:1091F00053D198F85320003218BF01227B7862F3D4
:10920000451366F382037B70FFF70AFF94F88F30F3
:1092100018B194F8B520002A41D17A786FF3410251
:109220007A706FF3410384F88F30B4F8AC307B80F0
:1092300094F8B230002B3AD0BB7194F8B030012BC7
:109240003FF442AF7B786FF300037B70B4F8AC302F
:109250004FF6F77293424AD90832934203D005334E
:109260009BB2022B84D81C2384F88E3094F8B8303B
:1092700073B394F8B910B4F8AE00F8F7C3FA022843
:109280002AD1D22121E7B8F83A30BB8098F80A30C9
:109290000133DBB288F80A309FE70022AEE7B4F86A
:1092A000B620003218BF012262F34103BBE798F8F1
:1092B0003430BA795B00FF2B28BFFF23DBB29A4220
:1092C000BBD0244B43F2B7121A8035F0D3F8B4E781
:1092D000F979B8F83A00D0E7BB79012B07D9B8F88B
:1092E0003A20FB79114604F14000F7F76FFA94F841
:1092F0008E301B2B09D194F8B43033B11AF80930F1
:10930000012262F387130AF809300023E36484F82A
:109310004830C4E91433A4F84430B8F83A30A4F81B
:10932000883094F8B130E4601D44D4F8903084F86B
:1093300038504B4463620A493D2030F0CBFB94F82F
:10934000B730002B7FF4B8AE04F10800F8F7ACF8A2
:109350008CE600BF5C310020782F0020983A002076
:10936000FC20012043789B0710B5044606D5094B25
:1093700093F82E30022B06D1002010BDFFF750FECF
:109380000028F4D0F8E7A079012894BF002001203C
:10939000F3E700BF782F00202DE9F047446A2378D7
:1093A00003F03C020C2A8EB0054606D1B24B1B6D71
:1093B00003B198470EB0BDE8F08790F82070012FF8
:1093C000F8D9AE4E96F83310C3F383028A42F1D136
:1093D00003F00303032B02D104F014F8EAE7027848
:1093E000022AE7D1027C022AE4D1072FE2D9A2792E
:1093F000002ADFD0A1884FF6F7729142DAD8002B0D
:1094000048D19F4B1B7813F0010FD3D004A92046FD
:10941000B5F808A095F8289095F92A80F7F79AF8FA
:109420009DF8243095F82020ADF826A0FF1A9A4226
:109430008DF825708DF828908DF82980BAD363783F
:109440009B0731D56078870766D404A92046FCF7CE
:1094500007FE0028AED06778BB0600F18D8017F0BC
:109460000109A7D160884FF6F773984240F29F80B8
:10947000F6F7C4FF00289DD0B80740F19080204641
:10948000FFF770FF1623009004AA21462846FEF736
:1094900063FC8FE7012B8DD16378DA078AD4784B90
:1094A0001B7813F0200FB0E70DF10F0129202CF0ED
:1094B00087FD9DF80F30002BC4D096F84B30002B61
:1094C000C0D0704B1A7D2378D2B998073FF472AFA1
:1094D000089B1B78062B7FF46DAF6378D90709D5FD
:1094E000237A9A077FF466AF6288738F9A427FF47B
:1094F00061AFA7E762884FF6F7739A42F4D959E74C
:1095000003F00303012B03D1089B1B78072BEEE725
:10951000002B7FF44FAF95E7059999B1237803F0BD
:109520000303012B03D1089B1B78062B0AD0A288CA
:109530004FF6F7739A423FF63DAF0A684B68134304
:109540003FF438AF0499002985D0C7073FF532AF03
:1095500062884FF6F7739A423FF62CAF738FA0885C
:1095600098423FF478AF9A423FF475AF0A684B686F
:1095700013437FF470AF1DE796F82E30022B3FF4B3
:1095800019AFA088FBF7E2FB18B14378022B3FF438
:1095900066AF2A78D5E90201FBF7E8FA0AE704A9E1
:1095A0002046FFF753FB00287FF469AF02E72378DA
:1095B000A08813F0030F2B890CBF4FF015084FF054
:1095C000140883420FD0FBF7C1FB60B14378022B34
:1095D00009D1027802F0FB02012A04D14B464A4627
:1095E0004946FFF7F1FA6088738F984211D1049BC6
:1095F0001BB900230093434646E71E685F6821F0CD
:1096000021FFD0E900239F4208BF96427FF4D2AEEB
:10961000EFE7A2889A422AD02046FFF7A3FE00284F
:109620003FF4C8AE6088F7F777F895F82010A0B13E
:109630000220F7F781FE0646A0B101230022CDE902
:109640000032294643462246F8F708FD3378990749
:10965000304604D5FAF7E6FAACE60520E9E7F9F773
:10966000C5FEA7E6E179A088F6F722FFA2E6002171
:10967000F7F71EFA9EE600BF180A0120782F002097
:10968000983A0020FC20012013B504460DF1070193
:1096900040F221102CF094FC9DF80730A34225BF26
:1096A000034B0020C12083F8204402B010BD00BF4E
:1096B000983A0020036801330ED041780378074AB6
:1096C00043EA0123A2F84E308378C17843EA0123AC
:1096D000A2F8503000207047C1207047782F00203A
:1096E0007FB5144602AA05460E46FAF769FA029BB0
:1096F0001BBB00220023CDE9022302A901AA2846B0
:10970000FAF75EFA0199D9B9FEF7CCFCA8420BD260
:10971000FFF736F9002804DA002302A80293FFF7C6
:10972000C9FF2846FEF742FC2368002B03DA00211C
:10973000402030F03BFA04B070BD22689A60E3E745
:10974000D6E90023C1E9002323688B60DCE7F0B58C
:10975000027885B00446B2BB10F8583C50F80C5C57
:1097600040F8545C62F3410300F8583CA0F148060D
:1097700010F8073C00F8503C31462846F6F7EAFE60
:1097800014F8503C14F8342C9B1A04F8333C3D4B2D
:109790001B78980707D4AA8834F8323C9A4202D141
:1097A0002846FEF765FA31462846FCF759FC50B1C9
:1097B00054E90A2334F8320CFCF7E8FA314628461B
:1097C000FFF744FA28B9A4F1D800F7F7C9FE05B0AD
:1097D000F0BD14F8583C03F0F803B02B0AD1AB7974
:1097E000012B07D9EB79AA8834F8321CA4F12000A8
:1097F000F6F7ECFF14F8583C5907A4F1580738D590
:109800002B789A0711D1D4F80320D4F80730A07828
:10981000CDE9022302A9D4F80B30019301AAFFF786
:109820005FFF3846F9F79CF8D1E72946324654F8ED
:10983000380CF9F7A9FE54F8383C1B78042B054680
:109840000DD0D4F80320D4F80730A078CDE9022356
:1098500002A9D4F80B30019301AAFFF741FF14F8D5
:10986000583C13F0010F08BF002565F3000304F80E
:10987000583C14F8583CDB07A5D53846F9F7B6FD37
:10988000A5E700BF983A002010B5084C01462046D5
:1098900033F0D2FF23799A2B06D14523237106207A
:1098A000BDE81040F7F726BB10BD00BF143C0020F8
:1098B00038B5094B1B78802B07D0084D002455F88C
:1098C000243023B90134142CF9D1002003E0984747
:1098D0000028F7D1012038BD983A0020A43D0301AB
:1098E00010B50C46FFF7E4FF237880F00100184024
:1098F000207010BD08B5074B93F82E30022B07D00F
:10990000F8F72CFBF8F75CFABDE80840F8F770BBF5
:1099100008BD00BF782F0020034BD3E91023134369
:1099200014BF012000207047782F002008B50146A1
:10993000084833F081FF084B93F8E822312A07D119
:10994000A32283F8E8220120BDE80840F7F7D2BA45
:1099500008BD00BF843D0020983A002037B5C37C85
:10996000027805462BB1D0E90201FBF7FFF803B0FE
:1099700030BD022A27D10089FBF7E8F90446002808
:10998000F5D00DF1060123202CF01AFB95F91220D9
:10999000297C2046FCF742FBBDF80630DB0702D5E8
:1099A0002046F7F739FA0B4AD2F8F430E41A0A4B9A
:1099B000E4106343D2F8FC4004EBC304A37943F002
:1099C0004003A371D3E7032AD1D1D0E90201FCF708
:1099D000C7F9D3E7983A0020CDCCCCCC704710B56E
:1099E000184C217A60680B460133DBB2182B28BF74
:1099F000002320FA03F2D2071FD501229A404240E9
:109A00006260114A237202EB8303D3F874329847E1
:109A10006368ABB10D4C23881B0711D429F00CFBF4
:109A2000238843F00803238029F016FB084B0948DC
:109A30001B68BDE810401B6918479942D4D1E7E77D
:109A400010BD00BF983A0020803B0301320E012078
:109A5000103300201433002013B50A4B4FF48060FC
:109A600093F8344021F008FD074B93F83230184446
:109A7000444301A934202CF0A3FA019804EB4000E0
:109A800002B010BD782F0020B02E002013B5114C6D
:109A900000234FF4800084F82834C4F82C34F7F7FE
:109AA000C1F804F586602DF0C9FB012384F83C342D
:109AB00001A9094BC4F8403435202CF081FAFFF796
:109AC000CBFF019BFA3003EB4003C4F8383402B0FB
:109AD00010BD00BF983A00202D1200012DE9F74378
:109AE0000778E54C002F40F04E82E44E96F82E2089
:109AF0004FF6FF7333800123002A40F04E827772C5
:109B00000025DF4986F8533022202CF059FA756081
:109B1000758036F03BF801233582B374B072FEF7DE
:109B200069FFFDF729FCF9F741FFF9F735FED54943
:109B30003D202FF0CFFFD34950202FF0CBFFD1494C
:109B400051202FF0C7FFFAF7A3FFCF4884F85050F9
:109B50002DF074FB2023E365CC4B84F86050082083
:109B6000C4E91935F7F75EF841234FF4804084F8D3
:109B70004C302564A564F7F755F8C5494FF4847057
:109B80002CF01EFAC34940F206202CF0FFF994F89D
:109B90007020E16EA8464FF4A070EBB29A4200F23A
:109BA00001824FF40010C4F87480F7F73BF8DA2311
:109BB0004FF4806084F80032C4F88881F7F732F8F7
:109BC000B54884F80182C4E963882DF037FBB723D8
:109BD0004FF4007084F87831C4F87481F7F722F8F4
:109BE000D6234FF4807084F83C3084F87981C4F82F
:109BF0003880F7F717F89A23402084F88031C4F8AA
:109C00007C81F7F70FF80DF1030140F20D1084F895
:109C10008181CDF804808DF803802CF0D1F901A961
:109C20004FF403702CF0B2F99DF80320019BC4F8A7
:109C3000E0307F2A28BF7F2284F8E420002503EB50
:109C4000C202934240F0B481944884F8E5504FF04A
:109C5000480935F0BFF94A460021914835F0EEFF3A
:109C6000E62384F8B9303123A4F8E8328D4BC4F8E8
:109C70000833022384F8F832C4F8EC52F7F78CFE6C
:109C800089494FF485702CF09BF9884940F20920EE
:109C90002CF07CF9B4F8AC22D4F8A802C2EBC202D2
:109CA00000214FF0010835F0C9FF84F8AE82F7F7C4
:109CB000CFFF1020C4F88052F6F7B4FF35F066FFEE
:109CC00001A986F82D004FF48A7084F884522CF094
:109CD00077F984F87C52F7F7B1FF754884F87C5225
:109CE0002DF0ACFA35F052FF41F64C5280B2B0FB89
:109CF000F2F302FB130312FA83F3C4F858326D4BEC
:109D0000C4F86032019B6C49C4F86C321E206B4B66
:109D1000C4F8743284F85C8284F8708284F87A52D1
:109D2000A4F878522FF0D6FE6548664E2DF086FADC
:109D300040220021644835F081FF802084F8109291
:109D4000F6F770FF614BC4F80852314640F2091033
:109D50007560C4F8483284F844822CF031F9311D22
:109D600040F207202CF012F994F80822D4F80C02E3
:109D70009201002135F062FF13234FF4005084F864
:109D8000C430C4F8C050F6F74DFF06F5A0702DF0B2
:109D900055FA3022002106F5987035F04FFF9223D6
:109DA0002422002106F5847084F8383335F046FF0C
:109DB00027232822002106F5B07084F8103335F0EF
:109DC0003DFFFB2384F86833782340220021A4F868
:109DD000D432A6F1F0003E4BC4F8C032C4F8B852F9
:109DE00035F02CFFAA23042084F85231F6F71AFF2D
:109DF00014220021A6F1B00035F020FF01A94FF494
:109E000098708DF804502CF0DBF89DF8043053B1B5
:109E1000F7F776FF1822002106F5C47035F00EFF23
:109E2000892384F8903300258E234FF4004084F872
:109E30007031C4F86C51F6F7F5FE2E234FF48030E4
:109E400084F8B432C4F8B052F6F7ECFE214940F27F
:109E500003102CF0B5F8204940F205202CF096F8BC
:109E6000B4F8AC33D4F8A80314225A43FF2135F0D8
:109E7000E5FE4FF4003031E0983A0020782F0020C2
:109E8000CC2F002050210120EC3A00202184000139
:109E9000083B0020043B00202C3C0020603B0020BD
:109EA000103B0020C5260001443D0020403D00201D
:109EB000FC3C0020D51D000164210120613500011A
:109EC000D03C0020A03C0020A83C0020890C0001D0
:109ED000B10B0001443E0020403E0020A4F8AE53E8
:109EE000C4F8D852F6F79EFE66234FF4802084F81B
:109EF000B033C4F8B453F6F795FE16234FF40020A0
:109F000084F8F033C4F8F453F6F78CFE4FF4801065
:109F1000F6F788FE2A4940F221202CF037F829492B
:109F20004FF48B702CF04CF894F8E032D4F8DC123B
:109F3000082B28BF082384F8E0322E46EAB2934269
:109F40003AD8214DFFF7A2FD294640F22F10C5E96E
:109F500000662CF035F8291D40F223202CF016F86D
:109F60004FF40000F6F75EFE94F84424686802EBB4
:109F70004202D200002135F061FEFAF7E9F9F7F765
:109F800021FC36232370636900201F72F6F7B2FFAD
:109F9000C223237403B0BDE8F0837372931E18BF0D
:109FA0000123ADE500FB05F3013501F80380F4E57D
:109FB000DD705D60083344E641F835600135BDE78A
:109FC000743D0020783D0020DC3E0020054BC3F8A6
:109FD00040231922A3F83A0383F83C1383F838236B
:109FE000F6F73ABE983A002008B50146074833F024
:109FF00023FC074B93F828243AB9012283F828243C
:10A000001620BDE80840F6F775BF08BDC43E002025
:10A01000983A002010B50C4B93F853309B0712D59B
:10A020000A4CFFF733FD002384F8593004F158013E
:10A03000074BE36522202BF0C3FF04F15400BDE879
:10A040001040FFF7D1BF10BD782F0020180A012063
:10A05000ED0D00011AE507B522200DF107012BF0E7
:10A06000AFFF0B4A0B4B13619DF8070000231373DE
:10A07000FCF772FA0323B0FBF3F003F2E53343433A
:10A08000104693602DF0B0F803B05DF804FB00BFFC
:10A09000683F002015A0000101482DF0CFB800BF97
:10A0A000683F002008B5094B93F82E30022B08D0EA
:10A0B00007482DF0C3F8F7F7C1FDBDE80840F7F7F2
:10A0C0001FBEBDE80840FFF7E7BF00BF782F0020A4
:10A0D0009C3B002010B51446FBF742FE014668B1D8
:10A0E0000378012B0AD10E2C0AD82046FCF734FA4B
:10A0F00008620846F6F790FE002010BDC820FCE775
:10A10000C120FAE72DE9F3411A4CB4F800806468E5
:10A110004FF0300C0CFB014C884507D84FF6FC7310
:10A12000ADF8043000238DF806300AE09CF80AE010
:10A130000EEA02049C4218D178B9ADF804108DF8EB
:10A1400006E0BDF80430002063F30F00BDF80630D0
:10A1500063F31F4002B0BDE8F081DCE90067D0E99D
:10A160000045AF4208BFA642E7D0013189B20CF1E9
:10A17000300CD1E7D8FE0020094A03B2506882B003
:10A1800050B1002B0ADB11889AB2914206D903EB39
:10A19000430300EB03100B3002B070470020FBE7D5
:10A1A000D8FE0020084B82B09A685B68019009B223
:10A1B00022F8310001EB410103EB0111BDF806303B
:10A1C0000B8102B0704700BFD8FE0020027812F069
:10A1D00003030DD102F00C030C2B18D013061CD571
:10A1E000037A13F0030F14BF0A230923184670479C
:10A1F000012B0ED0022B0ED1D106F7D413060CD5AD
:10A20000037A13F0030F0CBF09230B23EEE7092396
:10A21000ECE70223EAE70023E8E70823E6E7D0B506
:10A22000044608B90020D0BDAA2380F82030D0E928
:10A23000006721F007F9D0E900239F4208BF96424A
:10A24000F0D1822384F82030237A013BDBB2FD2B4E
:10A25000E8D8237B032B0FD1237E013BDBB2FD2B00
:10A26000E0D8D4E9042313430CD1094B44F2104243
:10A270001A8034F0FFF8D5E7012B03D0A62384F829
:10A280002030CFE7002384F820300120CBE700BF47
:10A290005C31002030B4284CA2688242214606D9A5
:10A2A000264B44F2824230BC1A8034F0E3B8247862
:10A2B000831AE820B3FBF0F3DBB29C4203D81F4BB8
:10A2C00044F28342EFE700FB032393F8D8205208BF
:10A2D000032A07D8DFE802F002020E020A790AB167
:10A2E000013A0A7193F8D8206FF3000283F8D8205E
:10A2F00030BC7047CA780AB1013ACA70D3F8A85086
:10A300000C69A542A5EB04024FF06000B2FBF0F22D
:10A31000D2B203D2094B44F28442C4E74978914255
:10A3200003D8064B44F28542BDE74243A15C0029B5
:10A33000D8D00021A154D5E7983600205C31002008
:10A3400010B1D0F880302BB9044B44F272521A800D
:10A3500034F090B800F8871F184700BF5C31002028
:10A3600013B504460DF1070129202BF029FE9DF8B5
:10A37000070018B194F8340000F0010002B010BDDD
:10A3800013B5044690F8340010F0010309D010F022
:10A39000080004D0E08D2B2894BF0020012002B0DB
:10A3A00010BD4FF498700DF107018DF807302BF0B8
:10A3B00007FE9DF8073094F83400002B14BF3F23AC
:10A3C000512310F00800EAD0E08D9842E4E713B57D
:10A3D000044601A934202BF0F3FD034BD868019B00
:10A3E00000FB043002B010BDD8FE002070B51D4C3B
:10A3F0001D4D0668C4F894014FF00003A4F89D3188
:10A400006B7884F8A23104F5CE714FF494702BF080
:10A41000D7FD3046FFF7A4FF234630B194F89C21C6
:10A420002B2A84BF2B2284F89C21F48D93F89C0165
:10A43000B4FBF0F1CAB200FB114189B995F82710BD
:10A4400083F8A021FF228A40D243084922F001026A
:10A4500083F89F210A7C83F8A121501C087470BDE9
:10A460000132EBE798360020082E0020D8FE0020AD
:10A4700007B5019000B2002804DB094B1B8880B2AD
:10A48000834205D8074B44F226521A8034F004F870
:10A490009DF80600C0F3800003B05DF804FB00BF28
:10A4A000D8FE00205C310020F7B5384A002415782A
:10A4B00096688DF80740E827E3B2AB4238D207FB35
:10A4C0000463013493F8D81011F00101F4D1C3F8FA
:10A4D000A81003284BD8DFE800F00202230211790C
:10A4E00094788C4224D90131117193F8D91000224B
:10A4F00062F307115A6083F8D91083F8E020B3F8AB
:10A50000D82022F4706222F0010242F00102A3F886
:10A51000D82060F3470283F8D82000221A6010E0A8
:10A52000D5785478AC4203D9177B16698F420BD18A
:10A5300001230DF1070146208DF807302FF036FB7F
:10A540000023184603B0F0BD344616F860CBBCF1CA
:10A55000000F09D101210135D57004F84A1B83F899
:10A56000E010C3F8A840CAE70131C9B2DEE7012311
:10A570000DF1070146208DF807302FF017FB044B33
:10A5800044F281421A8033F087FFD9E798360020E1
:10A590005C310020D0F8BC3070B5044680F8B910AA
:10A5A0002BB9094B44F2F5521A8033F075FF25465A
:10A5B000412015F8B91F2FF0F9FAD4F8BC3028461D
:10A5C000BDE87040184700BF5C310020D0F89C30D7
:10A5D00010B5044680F898102BB9064B44F2F5529A
:10A5E0001A8033F059FFD4F89C3004F19800BDE88C
:10A5F000104018475C31002010B5044628B90E4BB6
:10A6000044F243521A8033F047FF637884F82730CE
:10A6100094F8303084F82630D4F822302BB9064B29
:10A6200044F244521A8033F037FFD4F8223004F158
:10A630002600BDE8104018475C31002030B5154CAD
:10A6400085B0A368019005B22BB1002D03DB2288F1
:10A65000ABB29A4205D8104B44F220521A8033F024
:10A660001BFF636805EB450203EB0213A2681B891D
:10A6700032F835200020D1B261F30700120A62F3EC
:10A680000F20DAB262F317401B0A63F31F6005B0B4
:10A6900030BD00BFD8FE00205C31002070B50D46F3
:10A6A000044608B1C36F2BB9064B44F292521A808C
:10A6B00033F0F2FE2046E36F00F8795FBDE87040AA
:10A6C000184700BF5C3100201FB50190FFF7B6FFAF
:10A6D00084B2631E9BB24FF6FD7203909342BDF8A5
:10A6E0000E3015D90133ADF80E300123ADF80C3022
:10A6F00001990398FFF756FD01A920202FF056FA83
:10A70000BDF80E30013BADF80E30039804B010BD1B
:10A710002BB9074B44F228521A8033F0BDFE0134A6
:10A72000ADF80C4001990398FFF73CFDE8E700BF46
:10A730005C310020002310B580F83C30836B044668
:10A740002BB9064B44F244421A8033F0A5FEA36BAA
:10A7500004F13C00BDE81040184700BF5C31002008
:10A7600038B5114DD0F8A8202B699A42044605D27D
:10A770000E4B44F247421A8033F08EFE2869D4F81B
:10A78000A8406B78241A6020B4FBF0F4E4B2A34232
:10A7900005D8064B44F248421A8033F07DFE2B69FF
:10A7A000602000FB043038BD983600205C3100206A
:10A7B0002DE9F041284B9C691B7D03EB830304EBDF
:10A7C000C30690F8203005460F4633B900F1100853
:10A7D000B4420AD385F8207005E0204B44F22542AC
:10A7E0001A8033F047FE002433E094F82030A42B85
:10A7F00001D0AA2B19D12A7A237A9A4215D16A89D3
:10A8000063899A4211D1D4E90001D5E90023994224
:10A8100008BF904209D12A7B237B934205D1012BAB
:10A8200005D12A8A238A9A4213D02834D0E7032BF1
:10A8300003D00A4B44F22642D2E72A7E237E9A4274
:10A84000F3D1082204F11001404635F035F9002813
:10A85000EBD12046BDE8F081D8FE00205C3100201D
:10A8600010B50D4A0D4C012303FA00F0137F184375
:10A87000238810779B060ED428F0DEFB238843F054
:10A880002003238028F0E8FB054B06481B68BDE841
:10A8900010401B69184710BDD8FE0020320E012061
:10A8A000103300201433002037B500230D468DF8F7
:10A8B0000730044660B180F8401002B11268E36BC3
:10A8C00062643BB9124B44F254421A8033F0D2FD19
:10A8D00003B030BD04F14000984765B9E28B4FF6F4
:10A8E000F7739A4207D801230DF107014E208DF826
:10A8F00007302FF05BF92046FFF742FD0028E7D034
:10A90000044B0022C3F894210120FFF7A9FFDFE7E1
:10A910005C3100209836002008B5064B5A7F01466E
:10A92000013A03F120005A7732F086FF0120BDE89A
:10A93000084095E7D8FE002008B580F8DA1000F14D
:10A940000C01034832F078FF0220BDE8084087E799
:10A950004CFF002010B5044628B9084B44F2605261
:10A960001A8033F099FD0023A3652146044832F094
:10A9700063FF0320BDE8104072E700BF5C31002098
:10A9800050FF002038B5044600F1080528B90D4BEA
:10A9900044F233621A8033F07FFD41F20133A4F8B0
:10A9A0006430032384F8663004F18003E366064BC9
:10A9B0002367064B6367242384F868302846BDE884
:10A9C0003840C7E75C31002001BF000115AA000133
:10A9D00038B50D4BDC6FB3F88030A3F58873B3F551
:10A9E000BE6F054605D9094B44F263421A8033F025
:10A9F00053FD2946064832F01FFF1CB92046BDE82A
:10AA000038402DE738BD00BFD8FE00205C31002063
:10AA100054FF002038B50D46044628B9094B44F2CE
:10AA200007621A8033F038FD012384F89C5084F8C3
:10AA300070302146044832F0FFFE0720BDE8384060
:10AA40000EE700BF5C3100205CFF002008B5A0F1DC
:10AA50005401034832F0F0FE0320BDE80840FFE651
:10AA600050FF002008B5A0F11401034832F0E4FEC5
:10AA70000120BDE80840F3E660FF002008B510F8AB
:10AA800014393BB90146064832F0D6FE0120BDE834
:10AA90000840E5E60022A921BDE8084004E700BF20
:10AAA00064FF0020024A537F01335377FEF7CEBA8A
:10AAB000D8FE00201F4B03F5A972C3F8C820B3F8D5
:10AAC0006C21A3F8E4201C4AC3F8D0201B4A83F869
:10AAD000720140F60231C3E93A12822283F8522110
:10AAE00093F8792183F85321D3F86E21C3F85421C8
:10AAF00093F8782183F8582193F87A2183F8592123
:10AB0000022283F85A21B3F87621A3F85B2193F847
:10AB10007B2183F809210021AF2A83F8F010C3F8C4
:10AB2000681103D00B2103F1200005E703F1380081
:10AB3000B8E700BF98360020C1B80001010100014C
:10AB400070B50646124C0025022084F86450FFF7C9
:10AB500087FE337863B1246E2A4620680221FFF70E
:10AB6000A3FE2046FFF796FB0120BDE8704077E684
:10AB7000206E236C94F8502080F8C920C0F8A830CB
:10AB8000012380F8CD30BDE8704018308AE700BF5F
:10AB9000D8FE002038B5446905462CB9184B44F25C
:10ABA00068521A8033F078FCD4F8903013B194F8DE
:10ABB000B1302BB9124B44F269521A8033F06CFC5D
:10ABC000104BC4F89830022384F8B0300022AB88D0
:10ABD000A4F8AC3095F85C3084F8B2202A7F84F871
:10ABE000B5300123C4F8945084F8B43084F8B6200A
:10ABF000A4F8B7302046BDE83840FEF727BA00BFBA
:10AC00005C31002079E40001F0B5044687B018B14A
:10AC100043680BB103682BB92D4B44F253621A8081
:10AC200033F03AFC63689D6A2A466B4652F8050F7A
:10AC3000516803C32B79042B23D0254B44F2546273
:10AC40001A8033F029FCEB788DF811302B792268CB
:10AC50008DF81030106851681E4D02AB03C3D5F853
:10AC60009040012605F190078CB9D5F8903013B9C2
:10AC700019482CF0E3FA02A806F08EFC012007B078
:10AC8000F0BD684620F0EAFB0028D6D0DBE794F858
:10AC9000A830042B19D19DF81030042B15D1D4E91C
:10ACA0002801DDE90223994208BF90420DD184F8C2
:10ACB00099602146384632F0E9FD94F89A3023B184
:10ACC0009DF811102046FFF765FC2468CCE700BF13
:10ACD0005C310020D8FE00206CFF00202DE9F041FF
:10ACE000214DD5F8A8408046012605F1A8073CB9BA
:10ACF000D5F8A830ABBB1D48BDE8F0412CF09EBA9A
:10AD000094F88830022B20D0042B26D0012B1AD1A6
:10AD100098F80A3003F0FB03012B14D1D8E90001A5
:10AD2000D4E924238B4208BF82420CD184F8786096
:10AD30002146384632F0AAFD94F879301BB1002143
:10AD40002046FFF743FC2468D1E798F80A30023B1D
:10AD5000012BF8D8D8E90601E2E798F80A30042B6D
:10AD6000DBE7BDE8F08100BFD8FE002084FF0020B3
:10AD7000012370B580F8753090F87430061FBBB9A8
:10AD8000036F9BB1B1B105240B4D314605F1A8000D
:10AD900032F07CFDD5F8A8301BB905F1AC002CF0E1
:10ADA0004DFA21463046BDE870400FE40424EBE73D
:10ADB0000024F6E770BD00BFD8FE002090F8953063
:10ADC00070B50124061F80F89640BBB9036F9BB194
:10ADD000B1B10C4D314605F1900032F057FDD5F878
:10ADE00090301BB905F194002CF028FA214630462A
:10ADF000BDE87040FFF7CEBB0224EAE70024F5E788
:10AE000070BD00BFD8FE002030B5054689B018B12E
:10AE100043680BB103682BB9134B44F262621A808A
:10AE200033F03AFB6B689C6AE378042B05D00E4B39
:10AE300044F263621A8033F02FFBE3782A688DF8BE
:10AE400000301068516802AB03C3234604AA53F8CC
:10AE50000C0F596803C29868D96803C2684626F087
:10AE600063FE012009B030BD5C31002038B50446D6
:10AE700028B90D4B44F227621A8033F00DFB637B37
:10AE8000A4F19C055BB954F8080C0378052B06D196
:10AE90008288238A9A4202D1083006F012FB2846A3
:10AEA000BDE83840FCF7B4BC5C31002010B5A0F11F
:10AEB0009C0428B9054B44F235621A8033F0ECFA51
:10AEC0002046BDE81040FCF7A3BC00BF5C31002069
:10AED00070B5B0F13C06044650F8285C05D11D4B16
:10AEE00044F265521A8033F0D7FA237803BB2279F3
:10AEF00014F8303C9A4205D9164B44F266521A8037
:10AF000033F0CAFA237985F8B13054F80C3CC5F80F
:10AF1000903054F8243C2BB90E4B44F267521A80FF
:10AF200033F0BAFA54F8243C3046BDE87040184774
:10AF3000236B2BB9074B44F26D521A8033F0ACFAF5
:10AF40003046236B022198472846BDE87040FCF745
:10AF50005FBC00BF5C310020F8B504460868496852
:10AF60001746FAF7FDFE054688B30678012E06D08F
:10AF7000052E2CD106F09AFAB0FA80F676096068B0
:10AF80003146FCF748FC044638B9124B44F20962DA
:10AF90001A8033F06FFA2046F8BD022380F8B030F3
:10AFA000AB88A0F8AC30C0F8945001230025C0F85D
:10AFB000987080F8B45080F8B23080F8B560A0F88E
:10AFC000B65080F8B850FEF741F82846E4E7012073
:10AFD000E2E700BF5C31002030B5044685B018B10F
:10AFE00043680BB103682BB90C4B44F293521A809F
:10AFF00033F052FA636893F82420042A0BD12268B4
:10B000009D6A106851686B4603C36846EB788DF8FB
:10B01000083006F0E1F9012005B030BD5C310020B8
:10B0200070B5436893F82460036886B004462BB972
:10B030000F4B44F2F4521A8033F02EFA6368216801
:10B040009B6ADD788DF80850086849686A46022DC9
:10B0500003C206D10C2E07D153F8040F596804AA75
:10B0600003C2684626F0CAFC012006B070BD00BFCE
:10B070005C3100201FB5044618B143680BB103686A
:10B080002BB90E4B44F283521A8033F005FA6368F1
:10B0900093F824200B2A0ED121689A6A086849681F
:10B0A0006B4603C3D2F80310D2F807306846CDE9E7
:10B0B000021306F0ABF9012004B010BD5C31002092
:10B0C00010B5044688B018B143680BB103682BB9BA
:10B0D0001C4B44F273521A8033F0DEF9636893F824
:10B0E00024200E2A2AD11A8C2168ADF8062008687F
:10B0F00049689B6A02AA03C2D3F80310D3F8072059
:10B10000CDE90412197BDA7A42EA0122ADF81A205D
:10B110005B7B8DF818300DF105015C202AF050FFA3
:10B120009DF805302BB9DDE90423BDF81A00FAF7C4
:10B130002DFE0DF1060102A834F058FC012008B0E4
:10B1400010BD00BF5C31002050F80C3C10B5FF2151
:10B150000446B3F80100F9F7B3F850B1074B44F8CF
:10B16000043C0023E376A4F19C00BDE81040F9F70D
:10B1700081BD2046BDE81040FFF7CEBB19A90001F4
:10B1800070B53149314C4FF488702AF019FF3049BD
:10B1900040F20E202AF0FAFE0023217B2069602570
:10B1A0001E46DAB291423FD8284940F20F102AF0E9
:10B1B00007FF284940F20D202AF0E8FE2278A56812
:10B1C0000023E826D9B28A4233D8237B6370224910
:10B1D000A2704FF000034FF49470A4F803302AF0EB
:10B1E000EFFE1E4940F229102AF0EAFE1C494FF4F6
:10B1F0008C702AF0E5FE94F873314BB1194940F296
:10B200000F202AF0C3FE18494FF404702AF0BEFE46
:10B2100094F8731194F87431A26901FB0323E3617C
:10B22000002384F8723170BD05FB03F201338654AC
:10B23000B7E706FB0351013391F8D8006FF3000024
:10B2400081F8D800BEE700BFA43600209836002061
:10B25000A8360020A0360020343800200C3800200A
:10B260000B380020B03600203038002010B5134CC9
:10B2700040F2122004F118012AF088FE04F11401B2
:10B2800040F217102AF09CFE237D22464BB1A169A3
:10B2900039B90B4B44F22942BDE810401A8033F013
:10B2A000E9B8926903EB830302EBC303A8219A4236
:10B2B00000D310BD82F820102832F8E7D8FE002015
:10B2C0005C31002073B5304C636805460BB1A36850
:10B2D0002BB92E4B44F222521A8033F0DDF8D5E917
:10B2E00000234FF0FF316FF00600994208BF9042F3
:10B2F0001CD20023012219461846FEF703FF05263B
:10B30000009000B2031D28D14FF6FD73ADF8043054
:10B3100000238DF80630BDF80430002063F30F00E1
:10B32000BDF8063063F31F4002B070BD184B1E78A5
:10B3300001231A4600212846FEF7E4FE009000B2E1
:10B34000021D46F0010608D10023012219461846C5
:10B35000FEF7D8FE009000B2D4E7A368ADF8000075
:10B36000002243F8302003EBC00163684A60D5E94E
:10B37000004500EB400103EB0113C3E900459E7259
:10B380001A81009B0193C6E7D8FE00205C310020A3
:10B390001C26012013B50C4681B94FF6FB73ADF89E
:10B3A00004308DF80610BDF80430002063F30F0060
:10B3B000BDF8063063F31F4002B010BDFFF782FFF7
:10B3C000030400900DD4FEF7D7FE23680360636882
:10B3D0004360A3688360E368C360694615202EF06C
:10B3E000E5FB009B0193DEE7702208B5002134F0F5
:10B3F00025FC0122A0F85C20002280F85E2008BD18
:10B4000038B5044600F1080528B90D4B44F2136223
:10B410001A8033F041F82846FFF7E6FF40F2113377
:10B42000A4F86530074B2367074B63671D23E46669
:10B4300084F868302846BDE83840FFF78BBA00BF73
:10B440005C310020C1C1000115AA000170B50D4694
:10B45000044610B1D0F884302BB90E4B44F282521E
:10B460001A8033F019F86DB9D4E91E01FAF778FCA7
:10B4700020B101232A462946FDF7A6FB04F17800F6
:10B48000F8F784FD2046D4F8843000F8805FBDE8EA
:10B49000704018475C31002070B5114DD5F8A840B8
:10B4A00005F1A8063CB9D5F8A830BBB10D48BDE8F8
:10B4B00070402BF099BE636F1BB1013B636724683A
:10B4C000F0E794F87930002BF9D02146304632F07D
:10B4D000DDF904212046FFF779F8F0E770BD00BFE1
:10B4E000D8FE002084FF002070B5124DD5F89040A2
:10B4F00005F190063CB9D5F89030D3B10E48BDE8BF
:10B5000070402BF071BE636F1BB1013B6367246811
:10B51000F0E794F89A302146304633B132F0B6F96C
:10B5200002212046FFF736F8F1E732F0AFF90121AA
:10B53000F7E770BDD8FE00206CFF00202DE9F04138
:10B54000164D174FD5F8C04005F1C00644F26468A7
:10B550003CB9D5F8C030F3B11248BDE8F0412BF04A
:10B5600043BE636F1BB1013B63672468F0E721466C
:10B57000304632F08BF9012384F88230D4F88430DD
:10B580001BB9A7F8008032F087FFD4F8843004F1AB
:10B5900082009847E9E7BDE8F08100BFD8FE0020AF
:10B5A0005C3100209CFF002070B50E46044608B1B7
:10B5B000C3682BB90B4B44F26B421A8032F06CFF1C
:10B5C000094D05F17C0032F05BF92046E36800F894
:10B5D000106F9847EB6F23B10020BDE87040FFF774
:10B5E0003FB970BD5C310020D8FE002038B55B4803
:10B5F00032F046F9044628B9594B44F201621A80E8
:10B6000032F04AFF94F87030012B05D9544B44F2C4
:10B6100002621A8032F040FF94F87030002B40F044
:10B620008C8054E90223134307D14D4B44F203624B
:10B630001A80BDE8384032F01DBF94F89D30052BCC
:10B640006DD801229A4012F0220FA4F1080550D1C2
:10B6500012F0110F23D112F00C0F60D015B1023B84
:10B66000012B05D93E4B44F210621A8032F014FFD0
:10B67000D4E91E23134305D1394B44F211621A80D9
:10B6800032F00AFF04F1810017F03CFF28B9344B77
:10B6900044F212621A8032F0FFFE324B48E015B1DC
:10B6A00013F0FB0F05D02E4B44F230621A8032F0BB
:10B6B000F3FED4E91E23134312D1294B44F2316225
:10B6C0001A8032F0D7FE042384F89C30012384F8DA
:10B6D0007030D4F8983033BB214B44F20562A7E7B1
:10B6E00004F1800017F00EFF08BB1D4B44F23262DC
:10B6F000E6E71DB103F0FB03012B05D0184B44F224
:10B7000020621A8032F0C8FE94F8913013B3D4E965
:10B710001E2313431ED1124B44F22162D0E7104B7B
:10B7200044F2046284E704F19C00984709E00E4B60
:10B73000022284F870202846984794F87030012B34
:10B74000C7D00A4BD3F8843033B10720BDE8384066
:10B75000FFF786B8064BEBE738BD00BF5CFF002063
:10B760005C31002001B4000185A90001D8FE002051
:10B7700075B7000138B5044600F1080528B9184B23
:10B7800044F222621A8032F087FE2846FFF72CFE30
:10B7900040F21223A4F8653094F89930EBB104F12B
:10B7A0008002E2660F4A22670F4A6267252284F808
:10B7B00068206BB1FCF75CFB50B194F89A303BB158
:10B7C00094F868300B3384F86830012384F86730CC
:10B7D0002846BDE83840FFF7BDB82246E1E700BF84
:10B7E0005C310020F1F7000115AA00012DE9F84FA6
:10B7F0002F4C80460D46914625F072FC94F8D830C7
:10B8000043B32C4ED4F8E01096F800E0B368421A27
:10B81000A1EB000A4FF0000C4FF0FF3740F2012B74
:10B82000E64524D15DB9D6F8683143B19A423CBFB0
:10B83000CD182D1AAF42C6F8685128BF2F464F4584
:10B840003A461D481D4B28BF4A46012133F0A6FB4E
:10B85000194808E004F1D800184B4A46012133F09A
:10B860009DFB04F1D800BDE8F84F33F0ABBBB3F853
:10B87000D84024F0FE042405240D5C4511D193F832
:10B88000D84004F0FA04022C0BD15C684CB143455B
:10B8900007D094428CBF54440024A7425C6028BF68
:10B8A00027460CF1010C5FFA8CFCE833B8E700BFC7
:10B8B000D8FE002098360020B0FF002039B90001E2
:10B8C00070B5194D194C6A7F013A6A7794F8722164
:10B8D000032A05D1002384F87231C4F8683170BDA1
:10B8E000022A05D0124B44F252421A8032F0D4FDA3
:10B8F00094F87C010028EDD00E4BD5F8F05093F869
:10B9000027205B786426013A06FB025201380121A8
:10B910005A4384F87C0184F87211C4F8682100202D
:10B92000BDE8704062E700BFD8FE002098360020D6
:10B930005C310020082E00202DE9F041314EDFF867
:10B94000C8804FF0FF34002540F201273378AB4226
:10B950001AD8D6F8683153B12B4AD2F8E4209B1A92
:10B96000C6F86831002B44D10220FFF7A3F8631C0E
:10B9700043D022462548264B012133F00FFB2348B4
:10B98000BDE8F04133F01EBBB368E82205FB02338B
:10B99000B3F8D81021F0FE010905090DB94221D1F3
:10B9A00093F8D80000F0FA02022A1BD15A68D8F89E
:10B9B000E410521A5A60C2B993F8D920042100F059
:10B9C000FE0061F30302062883F8D92007D1114B4A
:10B9D00093F82720FF239340DB4386F89F31012013
:10B9E000FEF73EFF0135EDB2B0E7944228BF1446A2
:10B9F000F8E79C4228BF1C46B9E70448BDE8F0417F
:10BA000033F0E8BA98360020D8FE0020B0FF0020BE
:10BA100039B90001082E002038B5856A2B789B07BC
:10BA2000044605D0287810F023000FD0002038BD40
:10BA300090F83430002BF5D1FCF714FA0028F1D03F
:10BA400005F0BEFE0028EDD00120F0E794F8343078
:10BA5000002BECD1BDE83840FDF7E2BAF7B518315C
:10BA60000191019A022382F8B0304FF6FD73A2F8DB
:10BA7000AC3090F82E30093382F8B130036B90F877
:10BA80003540C58E82F8B840A3F10901C2F8901084
:10BA9000A2F8AE5090F8381082F8B910C28B23F893
:10BAA000082C428D23F8062C028D23F8042C90F8E4
:10BAB0002C2003F8022C002C3CD003F8011C13F8B6
:10BAC000092C02F0FC0242F00C0202F08F026FF32C
:10BAD000C71203F8092C019B1A4AC3F89820019B4E
:10BAE00090F8392083F8B220174A019B127883F826
:10BAF000B32090F83430019ADB43C3F3C01382F8CB
:10BB0000B430019A012382F8B530019A82F8B63038
:10BB1000019A82F8B730019B83F8B840019BA3F8E3
:10BB2000AE50019B019883F8B910FEF7BBFF0020CF
:10BB300003B0F0BD054E327C03F8012C571C37745E
:10BB4000BDE700BF49B10001082E0020D8FE00204B
:10BB50002DE9F347AC4BC1F8B030022381F8C8306F
:10BB6000C38BA1F8C43090F8392081F8CA20002294
:10BB700081F8CB200C4690F83410CA43C2F3C012AF
:10BB800084F8CC2040F20112A4F8CD204A060546E4
:10BB900000F1D5804FF6F77293428CBF002301234A
:10BBA00084F8CF3095F8353084F8D030EB8EA4F897
:10BBB000C63095F8383084F8D1302846FEF7E0FBDF
:10BBC0000746002800F0C5800DF107015C202AF02F
:10BBD000F7F99DF807708D4E002F00F0B2808C4968
:10BBE00096F89D0191F8282042FA00F313F0010322
:10BBF00000F0A9800123834022EA0302FF2384F896
:10BC0000CA30002381F8282084F8C13004F1B40937
:10BC100096F8A03196F89D1196F89C81013B9942C7
:10BC200008BF95F82E30284604BF01FB183808F0ED
:10BC3000FF08FEF795FB002800F08880754B44F262
:10BC400051421A8032F028FC4FF04C0A2B6BD6F888
:10BC5000980196F89CC196F89D1150440CFB013157
:10BC6000424633F037FF08F10A0384F8C930D6F8AA
:10BC70009831AAF10A0A5344C4F8A830D4F8A8604D
:10BC8000E98B33784FF6F77223F013039142337048
:10BC90006BD86FF383033370337895F834206FF3E8
:10BCA000451312F004023370DBB26DD162F38613D8
:10BCB00033702846FEF764FB3378002800F0858057
:10BCC00043F080035149337091F89D21337A002A63
:10BCD00075D1012262F30103337291F8A0317372BE
:10BCE00095F8263073706B8D73802B8DB38095F82B
:10BCF0002C30B3712846FEF743FB002869D0434B34
:10BD000093F8A131F37195F8353013B195F83830C7
:10BD1000F3712068FEF724FB002862D02068FEF74C
:10BD20002FFB94F8C910002858D0A1EB0801C9B224
:10BD30002046FEF701FE002002B0BDE8F087012397
:10BD40002EE7B94664E71F46994661E74FF03E0A81
:10BD50007CE795F82E30083384F8C9302B6B083B0C
:10BD6000C4F8A8308146804688E72B49022262F356
:10BD700083033370B1F8F6300133A1F8F630442074
:10BD8000F4312DF013FF87E743F04003337094F84C
:10BD9000D930012262F3030384F8D9302846FEF734
:10BDA000EFFA94F8D93038B1184A92F8A22162F328
:10BDB000071384F8D9307CE7154A5278F7E7022157
:10BDC00061F30103337272728AE760F3C713337051
:10BDD00086E7114A137C591C117493E795F82E805D
:10BDE000A3E70DF107015C202AF0EAF89DF807307F
:10BDF00023B11FB14846FEF78FFD9CE704F1180000
:10BE0000FEF750FE97E700BF19A900019836002001
:10BE1000082E00205C310020D8FE0020024BD3F811
:10BE20009411086894E600BF9836002010B52848A1
:10BE300031F026FD044610B190F860302BB9254B47
:10BE400044F261521A8032F027FB606E04F06EFEFD
:10BE5000F8B10388A380012384F85F301E4B23616F
:10BE600094F85D101D4B94F860200B4404F1080019
:10BE70009B7C13F0600318BF112313442373FBF75B
:10BE8000B7FC174B9B6F13B30320BDE81040FEF7C0
:10BE9000E7BCA36D73B9626E032384F84A3013685C
:10BEA000E364536823650F4BA36504F1440004F079
:10BEB0002FFEE6E7E36E2BB9064B44F26D521A8073
:10BEC00032F0EAFAE36EEC2120469847D9E710BD3C
:10BED00050FF00205C310020BDE40001082E00204E
:10BEE000D8FE00204DAA000110B5044A817001233C
:10BEF0000370137C43705C1C147410BDD8FE0020CA
:10BF0000436970B5D3F8904005462CB9114B44F203
:10BF100034621A8032F0C0FA0521204695F89D60FF
:10BF2000FFF7E2FF2A46E67052F8803F63605368ED
:10BF3000A3609368E360D3682361284650F8083D06
:10BF400063614368A3611FF07DFA0368E36143689E
:10BF5000236270BD5C31002038B54369D3F890404E
:10BF600005462CB9084B44F281521A8032F094FAFB
:10BF700007212046FFF7B8FFAB6FC4F80330EB6F23
:10BF8000C4F8073038BD00BF5C31002038B54369C4
:10BF9000D3F8904005462CB9064B44F291521A80D2
:10BFA00032F07AFA09212046FFF79EFF95F87830A3
:10BFB000E37038BD5C31002038B54369D3F8904058
:10BFC00005462CB90B4B44F271521A8032F064FAD8
:10BFD00006212046FFF788FFAB6FC4F80330EB6FF4
:10BFE000C4F80730B5F88430A4F80B3095F88630E3
:10BFF000637338BD5C31002038B54369D3F8905085
:10C0000004462DB9134B44F2F1521A8032F044FA2F
:10C0100008212846FFF768FF94F88430EB70022B64
:10C0200005D1224652F88C3F6B605368AB60052304
:10C03000094823670023A4F87430D0F8A83013B956
:10C04000AC302BF0D1F8211F0448BDE8384031F066
:10C05000F3BB00BF5C310020D8FE002080FF002031
:10C0600038B54369D3F8905004462DB91A4B44F2C1
:10C0700051621A8032F010FA0F212846FFF734FF80
:10C0800094F8A430EB701FF0DDF903686B6043682F
:10C09000AB602246114852F8A53FEB6053682B6114
:10C0A00093686B61D368AB61D4F898304FF47A72BF
:10C0B000B3FBF2F323674FF00003A4F89530D0F8F8
:10C0C000903013B994302BF08FF8211F0448BDE84D
:10C0D000384031F0B1BB00BF5C310020D8FE0020F9
:10C0E00068FF002038B54369D3F8905004462DB955
:10C0F000134B44F261621A8032F0CEF928461021C7
:10C10000FFF7F2FE94F87D30EB7094F87C302B71E1
:10C1100022460C4852F8743FC5F805305368C5F8FC
:10C1200009304FF4A0532367D0F8C03013B9C4309E
:10C130002BF05AF8211F0448BDE8384031F07CBB91
:10C140005C310020D8FE002098FF002038B504465E
:10C1500028B91A4B44F224621A8032F09DF96569BD
:10C1600095F8B1300B33DBB2412B85F8B13007D0F5
:10C17000124B44F225621A80BDE8384032F07AB999
:10C18000D5F89010362201F10B0033F0DFF8D5F826
:10C1900090500E212846FFF7A7FEEA7A616E2B46E3
:10C1A0006FF3451203F8032B0A68C5F803204A68A9
:10C1B0005A602046BDE83840FEF7ECBC5C310020F8
:10C1C000436970B5D3F8904005462CB9104B44F242
:10C1D00014621A8032F060F90521204695F89D60BE
:10C1E000FFF782FE2A46E67052F8813F636053688B
:10C1F000A3609368E360D36823612A4652F8783FCE
:10C2000063615368A36195F88030237770BD00BFE8
:10C210005C31002070B504460D4619B1B1F1E90555
:10C2200018BF01250F4E211F06F1C00031F02EFB73
:10C23000D6F8C0301BB906F1C4002AF0FFFFD4F8CD
:10C24000803084F87E502BB9074B44F264621A8028
:10C2500032F022F9D4F8803004F17E00BDE870405D
:10C26000184700BFD8FE00205C3100202DE9F84FB0
:10C270009946204B1C7D9E6904EB84040D46904634
:10C2800006EBC4040746D8B1864205D91A4B44F2DE
:10C2900023421A8032F000F92837BE1B2822B6FB51
:10C2A000F2F302FB13662EB1134B44F224421A80C0
:10C2B00032F0F2F8A74205D300273846BDE8F88FE0
:10C2C0003746F7E797F82010A42901D0AA290FD103
:10C2D0003B7A43450CD17B89AB4209D1D7E900AB0E
:10C2E000D9E900239B4508BF924501D1A429E4D098
:10C2F0002837DFE7D8FE00205C31002070B5054606
:10C300000E461FF09FF8044638B90A4B44F2124219
:10C310001A8032F0AFF8204670BD00202346324626
:10C320002946FFF7A3FF0028F6D0037B012BF5D1A8
:10C330001846F1E75C3100202DE9F0470F4604462E
:10C340001FF080F8BD68814604B130BB264B44F233
:10C3500014421A8032F08EF8A8263046BDE8F087E5
:10C360002B7BBD60032B10D105F1100004F0DEFB28
:10C37000A92698B12B7E84F826300388E3833946BA
:10C380002046BDE8F047FFF7E3BB2B8AE38339463D
:10C390002046BDE8F047FFF761BBA82628464B467C
:10C3A00094F82C20618DFFF761FF05460028D4D05A
:10C3B000A369002BD4D195F80CA0BAF1030FCFD10B
:10C3C00005F11008404604F0B1FB06460028C7D12D
:10C3D00084F80AA02B69E3606B692361034BA361B6
:10C3E000201D04F095FBB8E75C310020F1C300018B
:10C3F000F8B51A4DA0F11406A968287800234FF06B
:10C40000E80CDFB2B84207D8154B44F215421A8047
:10C41000BDE8F84032F040B80CFB03F28C1894F8F9
:10C42000D8E01EF0010F16D08A58B24213D121462F
:10C430003046FFF781FF014648B100223046FEF743
:10C4400033FA2046FDF726FF0120FEF709FA2B7884
:10C45000BB42D9D9F8BD0133D3E700BF98360020DD
:10C460005C31002038B50C46054600B129B90A4BAD
:10C4700044F213421A8032F00FF80023AB612846D1
:10C48000A3602146FFF758FF054610B12046FDF78F
:10C4900001FF284638BD00BF5C310020F8B50468B4
:10C4A00006460F4615462CB92D4B44F24F421A80D2
:10C4B00031F0F2FFADB9CE2F38D007F0DF03D02B2B
:10C4C00034D0D12F03D194F93430002B2EDB204609
:10C4D000FDF746FFA8B90225D6F8BC30636484F89E
:10C4E0004070022D24D0032D2CD0012D36D106F121
:10C4F0000C011C4831F0A0F90220BDE8F840FEF71D
:10C50000AFB994F834309A06E5D4FBF7B1FC18B112
:10C5100094F834309B07DED42046FDF731FF002825
:10C52000D9D1237F012BD6D00125D5E70325D3E729
:10C5300033681B7F33B9A36131462046FFF7FCFE09
:10C54000A8280BD104F1440294F840103068FEF79B
:10C55000ABF93046FDF79EFE0120CEE7F8BD00BFE7
:10C560005C31002048FF002038B504785CB9064DE6
:10C57000022085F86440FEF773F92146286E0222F6
:10C58000BDE838408AE738BDD8FE002073B50446C0
:10C59000FDF745FEF8B10DF107015C2029F010FD13
:10C5A0009DF8071021B92046FEF702F9002838D17E
:10C5B00014B194F820302BB11F4B44F220421A8062
:10C5C00031F06AFF1D4B197D9A6900238B4204D11B
:10C5D000AE2384F8203002B070BD1546283212F820
:10C5E000080CA8280ED1A42685F820606CB9124B3F
:10C5F00044F227421A8031F03DFF002110202DF037
:10C60000D5FAE8E70133DBB2E0E794F82030002BFD
:10C61000EDD128222146284633F05CFA85F82060C7
:10C62000EBE7A6212046FEF7C3F80028D3D0A423C9
:10C6300080F82030E1E700BF5C310020D8FE002008
:10C6400010B5044650B1104A9369834206D8127D52
:10C6500002EB820203EBC203984205D30B4B44F278
:10C6600021421A8031F018FF94F82030A42B07D013
:10C67000AA2B05D0054B44F222421A8031F00CFF60
:10C68000A82384F8203010BDD8FE00205C310020A3
:10C6900010B50446FDF7C3FD60B1A4212046FEF7A6
:10C6A00087F838B1FFF7CCFF00211020BDE810401B
:10C6B0002DF07CBA10BDF0B50C4A9369127D02EBE7
:10C6C000820203EBC202AA21934200D3F0BD93F889
:10C6D0002040A42C08D1D0E90067D3E90445AF423B
:10C6E00004BFA64283F820102833EDE7D8FE0020CF
:10C6F000F0B50D4A9369127D02EB820203EBC20290
:10C70000A421934200D3F0BD93F82040AA2C08D175
:10C71000D0E90067D3E90445AF4204BFA64283F8DD
:10C7200020102833EDE700BFD8FE00200B4A50B19F
:10C730002830137D926903EB830302EBC30383422A
:10C7400003D8002070479069F3E790F82020A42ACE
:10C75000F8D0AA2AF6D02830F1E700BFD8FE002092
:10C76000CCE510B501460446044831F065F80023D5
:10C77000A3610120BDE81040FEF772B864FF0020FD
:10C7800010B501460446054831F056F80023A36170
:10C790000120BDE81040FEF763B800BF60FF002035
:10C7A000F8B5846A25780F466906064601D400204C
:10C7B000F8BD4F4B05F00305012D19789A6818BF95
:10C7C00007250023994245D10220FDF76DFE002880
:10C7D000EDD0D0F8A830328C03F8497C43F8466C91
:10C7E0000021A0F8C420434AA0F8CA10C0F8B02025
:10C7F000414AC0F8CC2094F800E01A7880F8D010B4
:10C800004FF0020CCEF3810E6CF301026EF3830243
:10C8100094F800E080F8C8C04FEADE1E02F09F02E4
:10C820006EF3C7121A70227802F0030EBEF1010FE8
:10C8300025D1B26A525D5A701A7842F010021A700D
:10C8400080F8C9C0AF2F4FD090F8C910FEF774F828
:10C850000120ADE792F8D80005280CD1B6F820C029
:10C86000B2F8C400844506D1D2F8A80014F805C077
:10C87000405D84459BD00133DBB2E832A2E74FF044
:10C88000080C80F8C9C093F800C0B66A61F3041CB4
:10C8900083F800C094F806C083F801C0B4F802C061
:10C8A000A3F802C0B4F804C0A3F804C094F801C00F
:10C8B00083F806C0755DDD711206C3D5227A12F0C9
:10C8C000030204D11A72092380F8C930BAE70B2297
:10C8D00080F8C920247A1A7AC4F3010464F30102AF
:10C8E00061F387021A72ADE71830FEF7DBF8AFE7A5
:10C8F0009836002019A900010101000130B5374B1D
:10C9000089B005A940F2071093F8324029F058FB8E
:10C9100006A9342029F054FB069B9C4205D35B00FA
:10C9200006A93420069329F077FB2D4B9DF814209F
:10C93000F534DC605443069A04EB44041444C3F811
:10C94000F0400DF11501012340F207108DF816306B
:10C9500029F036FB0DF11601282029F031FB9DF856
:10C9600015004000FF2828BFFF20C0B2FDF72FFDB3
:10C970009DF816407CB30023013C00F2FF1214F036
:10C98000FF0413444FEA4000F6D1C3F30805003515
:10C9900018BF01250DF1170140F2111005EB5325C9
:10C9A0008DF8164007948DF8174029F009FB07A968
:10C9B0004FF4027029F0EAFAFF2D28BFFF2501236A
:10C9C000EDB20193029400955B029DF81720079940
:10C9D00004482EF0B9F809B030BD00BFB02E0020D9
:10C9E000D8FE0020D0FF002038B51E4C20B133F017
:10C9F000CDF80023207463770025C4E92255256211
:10CA0000194C6423C4F88831184BC4F890310123C1
:10CA100084F88C312946C4F87551A4F87951C4E9D9
:10CA20005A55A4F8705184F87251E82204F120009C
:10CA300033F004F92946602204F5847033F0FEF8DF
:10CA400094F8743194F87321A06903FB02222946FB
:10CA500033F0F4F804F5A973C4F8C830BDE83840E1
:10CA6000FFF74CBFD8FE0020983600201DBE000105
:10CA700038B5364DEC6F2CB9354B44F264421A8010
:10CA800031F00AFD23798A2B16D0C52B3DD0192B06
:10CA900053D1B5F88030B3F5887F0CBF4FF40073E5
:10CAA0004FF4E063A5F880302A4BE36004F10800FE
:10CAB000BDE83840FAF7FEBEB5F8803040F23232B9
:10CAC000934202D0B3F5C26F1DD140F23F43A5F8A7
:10CAD0008030FFF713FF002323731F4830F0D0FE90
:10CAE000A3682BB91A4B44F26A421A8031F0D4FC85
:10CAF000A36804F10C009847EB6F33B30020BDE846
:10CB00003840FDF7ADBEA323E6E7B5F8802040F23C
:10CB10003F439A420BD1C133A5F8803002232381D1
:10CB20000E4832F057FA00236B770120E7E72046E2
:10CB3000A321BDE83840FEF737BD054B44F26542FE
:10CB40001A80BDE8384031F0A7BC38BDD8FE0020BF
:10CB50005C310020D9EB000154FF0020B0FF002021
:10CB600030B5826887B003464020B2F80120ADF8A6
:10CB70000C004FF6FF7501A80490A9424FF0010088
:10CB800094B2059003D1120403D407B030BD8C4297
:10CB9000FBD0ADF808101E2003A901932DF006F874
:10CBA0000598B0FA80F04009EFE70146014830F0FF
:10CBB0006DBE00BF64FF002018B9034BD3F80C0111
:10CBC00070470068704700BFD8FE002008B50246D5
:10CBD0000020FFF7F1FF18B183681B789342F8D16A
:10CBE00008BD38B50446C0B1A62303748368A3B159
:10CBF0001878F22803D0431EDBB2EF2B0DD8FFF7D5
:10CC0000E5FF054648B9E3680448B3FA83F35B09D6
:10CC10002371214630F010FE257438BDE4FF00205A
:10CC200010B5044648B10078FFF7D0FF014628B19F
:10CC3000034830F02BFE0023637010BDA623FBE7F2
:10CC4000E4FF002008B502460020FFF7B5FF40B121
:10CC5000FF2A01D10171F8E783681B789342F4D170
:10CC6000017108BD2DE9F041054628B91A4B44F27F
:10CC700030421A8031F010FC174F002444F2314842
:10CC80002046FFF799FF044608B9BDE8F0812379F3
:10CC9000002BF5D1A3681BB9A7F8008031F0FCFB8D
:10CCA000A98B2046FFF75CFF0028E9D0A368E8883D
:10CCB0001E783146F7F704FB0028E1D0AE73E36835
:10CCC0003BB9054B44F23242BDE8F0411A8031F0E5
:10CCD000D1BB28469847D3E75C3100202DE9F043CB
:10CCE000866A8FB004460F460025018CF2796B48A6
:10CCF0008DF803502DF06AFF00286ED07078431E27
:10CD0000DBB2FD2B04D8FFF761FF0546002864D095
:10CD1000237F012B67D18DF80830E38BADF80A3003
:10CD200073788DF8123002238DF81330238CADF810
:10CD30001430638CADF81C30B3798DF81E307279E5
:10CD4000337943EA0223ADF82030F278B37843EA2E
:10CD5000022394F82420ADF8223093B2A3F10A0103
:10CD6000ADF8241000218DF82C1096F90010002940
:10CD70004CDB083BADF82430BDF824308DF82D7025
:10CD8000D21AA36A1A4494F834308DF82E3094F8ED
:10CD90002C308DF82F30236B0C93002994F82D3014
:10CDA0000A928DF8343013DA337A03F00303022B3E
:10CDB0000ED13B4FFB691A78ADF8242093F8009010
:10CDC0004FF0010897F87531434524DCBB690A939D
:10CDD000002D3AD0EB6801A898472046FDF7AAFC41
:10CDE0000FB0BDE8F08302238DF80830E38BADF877
:10CDF0000A304FF6F772934292D801230DF10301E6
:10CE00004D208DF803302CF0D1FE89E7307A800771
:10CE1000B2D1093BAEE7D7E9060397F8741113F8CE
:10CE2000082008FB0101484432F054FEFB69BDF8BC
:10CE3000241003EB080213F808300B44ADF824303B
:10CE4000137808F101089944BCE7237F012B03D133
:10CE500001A8FFF707FFC0E77378FF2B1AD1284618
:10CE6000FFF7AAFE05460028B7D0AB681B78002B59
:10CE7000F5D02B79002BF2D1BDF82010FFF770FE12
:10CE80000028ECD0AB681B788DF81230EB6801A855
:10CE90009847E4E701A805F0D8FE9EE7D0FF002000
:10CEA000983600202DE9F74F846A07466078431EC4
:10CEB000DBB2FD2B884618D8FFF788FE054618B16F
:10CEC000A188FFF74DFE88B9002594F90030002BAA
:10CED00080F2A581237A980700F0A181C74C94F8CD
:10CEE0007331002B3AD101201CE0002523781A066B
:10CEF00002D5227A9607E7D113F0400F03F00C0316
:10CF000013D0082B28D0398C4FF6F772914223D8D2
:10CF10000DB12A7902BB41463846FFF741FC80F04B
:10CF20000100C0B203B0BDE8F08F0125082BCCD1C1
:10CF3000FA8B4FF6F7739A42C7D93E8CF6F7FEFF8D
:10CF40008642C2D0AE49B1F8F430013321F8F43F43
:10CF500044202CF02BFEB8E70025E7E797F8249053
:10CF6000BE6A94F872A1757AA9F10A095FFA89F983
:10CF7000BAF1030F00F24F81DFE81AF004004F000E
:10CF8000460146015C200DF1070129F019F89DF8D2
:10CF9000070048B19B4A92F82930D90704D523F0FD
:10CFA000010382F82930BDE796F808B0BBF1010F04
:10CFB00099D194F87321954295D894F87431994594
:10CFC00091D802FB03220021A06932F037FE84F8D9
:10CFD000755184F872B13B8C84F87B81A4F86C3174
:10CFE000737884F87831F278B37843EA0223A4F8AE
:10CFF0006E313379727943EA0223A4F87031B37940
:10D0000084F87931F37984F87A317E4B5B7884F84F
:10D010007C31002384F8763155465C200DF1070100
:10D0200028F0CEFF9DF8070070B1764991F82930BD
:10D0300023FA05F2D20707D5012202FA05F523EA01
:10D04000050381F829306DE7337A03F00302022AE1
:10D0500002D0002D7FF447AF13F0FC0F7FF443AFF5
:10D0600094F87531AB42FFF43EAFB4F86C213B8CC1
:10D070009A427FF438AF94F8782173789A427FF41B
:10D0800032AFB4F86E2173889A427FF42CAFB4F8B3
:10D090007021B3889A427FF426AF94F87921B3794E
:10D0A0009A427FF420AF94F87A21F3799A427FF480
:10D0B0001AAF544E94F8761196F827208B189D429B
:10D0C000BFF611AFB5FBF2F38D4202FB1353DBB297
:10D0D00008D2E91A84F876114FF0FF3101FA02F212
:10D0E00084F87721BA6A94F8740102F10A0C10FBF3
:10D0F00005F0A269013802441FFA89F14FF6FF706A
:10D10000013989B281423AD1E26902F8059094F876
:10D1100076118D420ED194F8752196F82700521B96
:10D12000D2B2824228BF02464FF0FF3000FA02F22C
:10D1300084F8772101229A4094F877311343DBB2C7
:10D14000FF2B84F877310AD194F8755196F82700AF
:10D150006A1A4D1E8242D4BFAD182D18EDB294F854
:10D160007521013A954213D1FF2B0DD10320FDF714
:10D17000A1FC38464146FFF7B1FD0020D2E61CF87D
:10D1800001EB02F801EFBBE70220FDF793FCAAE6F2
:10D1900096F82720013A11448D4201D0FF2B1DD172
:10D1A0000220FDF787FC94F87731FF2B7FF49BAECC
:10D1B00096F8273094F876211A4484F8762194F86A
:10D1C0007521013A551BEDB2AB4228BF2B46012019
:10D1D00000FA03F35B4284F87731A3E6084BD3F8F7
:10D1E000F030642101FB023273785A43C4F868219D
:10D1F00001210020FEF7FAFA75E600BF98360020FC
:10D20000D8FE0020082E0020074B44F240421A802E
:10D2100031F042F967E6044B44F25342F7E7002D40
:10D220003FF461AEA5E700BF5C310020012109E5B4
:10D23000002107E510B5044628B90E4B44F27042B0
:10D240001A8031F029F9A1784B1EDBB2FD2B07D9EA
:10D25000084B44F27042BDE810401A8031F00AB920
:10D260002088F6F7B3FF10B10023E37010BDAE23A2
:10D27000FBE700BF5C31002010B5044628B90E4B17
:10D2800044F271421A8031F007F9A1784B1EDBB2EB
:10D29000FD2B07D9084B44F27142BDE810401A80BB
:10D2A00031F0E8B82088F6F7B5FF10B10023E3703D
:10D2B00010BDA623FBE700BF5C31002010B504467B
:10D2C00028B90D4B44F272421A8031F0E5F820780B
:10D2D000431EDBB2FD2B07D9074B44F27242BDE877
:10D2E00010401A8031F0C6B8F6F7C2FF10B1002323
:10D2F000637010BDA623FBE75C31002073B50446C4
:10D3000038B93E4B44F240521A8031F0B3F802B0C3
:10D3100070BD90F849205D2A03D9384B44F2415240
:10D32000F2E790F8483000260321012B80F82A60AC
:10D3300001774AD1022060774FF6FF7020840E46B5
:10D3400094F84B10A56BC90742BF94F82A1041F01E
:10D35000080184F82A10012B0CBF09230723ED1ABA
:10D36000B4F8421021831A4484F828202B78656190
:10D3700043F003032B700DF107011B2028F020FE62
:10D380002B789DF8072062F384032B702B8803F021
:10D390001F032B8094F84830B600012B46F003069B
:10D3A000AE7013BF6569238EA5F80330023DB4F853
:10D3B0004630A5F80530B4F84430A5F80730104BD6
:10D3C0002361204621F0C5FDA1E7D0E90C01032B24
:10D3D000C4E9080104D16377012184F82A10AFE77A
:10D3E000022B03D0054B44F242528DE7208E637727
:10D3F0004FF6FF718842EFD11E46A1E75C31002055
:10D40000F9A5000130B58FB038B93C4B44F2455214
:10D410001A8031F02FF80FB030BD0378032BFAD10A
:10D420004388ADF80830D0E90223CDE90423037C1A
:10D430008DF81830438AADF81A30D0E9062390F8F9
:10D440002050CDE9082390F828308DF83430062D8F
:10D4500090F82A308DF83530DDD9446A237803F00E
:10D460000302032AD7D113F0E00FD4D16378002B45
:10D47000D1D10DF107011B2028F0A2FD23789DF8E2
:10D480000720C3F382039342C5D1A37803F00302BC
:10D49000032AC0D113F0F00FBDD103F00C030C2B05
:10D4A00010D10123082D8DF81830B4D9B4F8030039
:10D4B000ADF82000FF21F6F703FF0028ABD023468C
:10D4C000092201E0A31E07225979987941EA002137
:10D4D000ADF82A10D9791B7A41EA0323ADF8283038
:10D4E000074BD3F81031AD1A14448DF82C500C941E
:10D4F000002B90D002A898478DE700BF5C31002038
:10D50000D8FE002018B1064BD3F810212AB1054BE4
:10D5100044F246521A8030F0ADBFC3F81001704794
:10D52000D8FE00205C31002030B5234A526885B017
:10D5300082B94FF6FA73ADF808308DF80A20BDF8BD
:10D540000830002063F30F00BDF80A3063F31F407A
:10D5500005B030BD30B94FF6FB72ADF808208DF83C
:10D560000A00ECE7D0E900234FF0FF356FF0060426
:10D570009D4208BF94420BD301231A460021FCF7B9
:10D58000C1FD019000B2043002D0019B0293D6E7A6
:10D590000D2300211A460846FCF7B4FD019000B2A5
:10D5A0000430F2D1052300211A46084605B0BDE833
:10D5B0003040FCF7A7BD00BFD8FE002070B586B094
:10D5C0000D46694681E80C009DF80030164CAF2BE3
:10D5D00006461BD1A8B10068716804AB03C304A858
:10D5E000FFF7A2FF03040CD4FCF742FF2C4420B148
:10D5F000A07CC0F3400006B070BDA07CC0F38000EA
:10D60000F9E72C44A07C00F00100F4E7DDF802000B
:10D61000FCF72EFF2C4418B1A07CC0F3C000EAE751
:10D62000A07CC0F30010E6E7082E00202DE9F041B1
:10D6300088B06B4683E80600876ABB78053B0B2BF6
:10D64000054603D9012008B0BDE8F0813B789DF87C
:10D6500000405B0627D47A78298C29482DF0B6FA49
:10D660000028EFD09DF804308DF80C3095F8243068
:10D67000BDF902208DF80840022BADF80A200CD924
:10D68000AB6A9E78731E0F2B07D804F099F880B10F
:10D69000052E31D095F834306BB9387880F04000E1
:10D6A000C0F38010CFE72146FFF77AF80028D2D1E7
:10D6B000C8E7052E22D0288C03F084FA04460028FF
:10D6C000EBD00DF1080898E80C0031462046FFF732
:10D6D00075FF0028E1D00B4B53F82630002BDCD02F
:10D6E00098E80300CDE904450690ADF81C1004A8A5
:10D6F00098470028A7D0D0E70024E2E70446E0E7F7
:10D70000D0FF002034E503012DE9F04391B06E46CF
:10D7100086E8060090F81C909DF80070B9F1010FA2
:10D7200004466CD0B9F1020F01D001206AE0856A8D
:10D730002B78C3F301085FFA88F2012A00F01E81FA
:10D740004FFA88F1002956D0022AEED103F00303E4
:10D75000022B05D08C4B44F245421A8030F09CFEDF
:10D760008A4B9E681A78E82102FB016140F2012091
:10D770008E42DAD2B6F8D82022F0FE021205120D3F
:10D78000824240F0F9803268278CD28B974240F079
:10D79000F380D6F8A82095F807C0D779BC4540F0AB
:10D7A000EB80B5F804C09788BC4540F0E580B5F83B
:10D7B00002C05788BC4540F0DF8095F801C09779DA
:10D7C000BC4540F0D980AF795278974240F0D48080
:10D7D00096F8D82002F0FE02022A5DD196F8D930E0
:10D7E000032262F30303002286F8D9301146304643
:10D7F000FEF754FE99E703F00C030C2B05D03946D5
:10D80000FFF750FB11B0BDE8F083018C2A7A604825
:10D810002DF0DCF9002888D094F82430082B84D926
:10D8200001228DF81020A9786A788DF81B9042EAC1
:10D830000122ADF81220228CADF81C20628CADF8CC
:10D840002420EA798DF82620A9796A7942EA012212
:10D85000ADF82820093BEA782979ADF82C30A36A85
:10D860008DF8348009330C9394F834308DF83630C9
:10D8700094F82C308DF83730236B0E9342EA012256
:10D8800094F82D30ADF82A2003A88DF835708DF866
:10D890003C30FFF7E7F948E7062A6DD193F89E017F
:10D8A000697A81424FF001042DD1DFF8E8C095F884
:10D8B0000AE09CF8272004FA02F77F4247EA0E07A5
:10D8C000FFB2AF7296F8D9504FF0030E6EF3030516
:10D8D000FF2F86F8D9502FD193F8A051481EA5EB01
:10D8E000010E9645D4BF70448018C0B2013DA842D5
:10D8F00083F89D0109D13046FCF778FD00221146DE
:10D900003046FEF7CBFD20467CE7114407FA02F2D1
:10D91000C9B2D24383F89E119CF8010083F89D118F
:10D9200022F00102D3F8941183F8A20183F89F2119
:10D930000868FEF70DF9E6E7F943C9B20025ECB235
:10D94000A24202D883F89F1110E02E4641FA06FC4D
:10D950001CF0010F05F10105F1D00122B2403A435C
:10D96000D243204483F89F2183F89D01D3F894117A
:10D970000868FEF7EDF8D8E6E836F9E696E806001E
:10D98000FFF754FE3EE700BF5C31002098360020D0
:10D99000D0FF0020082E00202DE9F04FA64EB6F84B
:10D9A00080A0BAF5887F87B019D0A44F06F1200B6C
:10D9B00058462FF065FF054688B1D7F808903A78A9
:10D9C000A5EB09034FF0E808B3FBF8F3DBB29A428A
:10D9D0000DD89B4B44F249421A8030F04BFD002396
:10D9E000984D994FADF80C304FF0020807E108FB55
:10D9F00003F809EB0804BAF5C26F94F8D83002D0E6
:10DA0000BAF5A06F22D103F0FE03042B13D12046F8
:10DA1000FCF7A6FE4368417804463BB9884B019168
:10DA200044F24A421A8030F037FD01996B7B13B9FA
:10DA30006068FFF753F959F8080005F10802A321BF
:10DA4000FCF732FF2846FCF725FCB1E75B08032B07
:10DA500000F2B180DFE803F0020896490022697BFA
:10DA60002046FEF71BFDA3E794F8D93003F00F031F
:10DA7000012B9DD1287B59F80880FCF7A8FC734B3B
:10DA800094F8D9205B78697BA3EB12139840A1B975
:10DA9000606032F07BF86368C0F3080003446360A1
:10DAA00094F8D930022262F30303626884F8D93013
:10DAB00000212046FDF79AFE7AE7CE2909D0F02909
:10DAC00007D0D02905D0D129E2D198F93430002BE4
:10DAD000DEDA05F108024046FCF7E6FE2846FCF7D0
:10DAE000D9FB0120FCF7BCFE79E794F8D93003F0AC
:10DAF0000F03012B7FF45CAF97F8A03197F89D21BD
:10DB0000DFF84881013B9A4207D098F8273097F810
:10DB10009F010022D1B28B421CD8287BFCF757FC16
:10DB200098F8012094F8D940A2EB141400FA04F4F8
:10DB300032F02CF8D7F89431C0F3080093F8D910DC
:10DB40000219022060F3030183F8D9105A60002102
:10DB50001846AFE7944640FA0CFE1EF0010F02F1A2
:10DB60000102D7D0012303FA0CF320EA030387F85C
:10DB70009F3197F89E3136480B4487F89D3129F044
:10DB800033FB15E72046FCF7EBFD436890F8018076
:10DB900004462BB92A4B44F24D421A8030F07CFCEB
:10DBA00041466068FFF79AF82846FCF773FB0120AE
:10DBB000FCF756FEFCE6224B44F24E421A8030F04F
:10DBC0006BFCF5E6A369B6F88090002B4AD1A26AF7
:10DBD000137803F0200103F00303012B3CD1937869
:10DBE000052B39D0208C02F0EDFF00283AD1238C90
:10DBF00084F80A80A381A761201D02F089FF2846CE
:10DC00002FF03EFE04460028DCD1B6F8803098079D
:10DC100000F182800F4DD6F88C40002C40F0A4809B
:10DC2000B6F88030B3F5A06F40F0B181034D002409
:10DC30002F464FF0E808D5E1D8FE002098360020A6
:10DC40005C31002060FF002065AA0001082E002042
:10DC50001838002064FF002021B12046FDF7DCFECB
:10DC60000028BFD040F23F439945D4F8288009D01E
:10DC700098F8003003F00303012B03D094F83530FB
:10DC8000002B45D098F8003013F0400C0AD0A74A7A
:10DC9000D078117992F800E001448E4538DD527851
:10DCA000824235D9AF228DF810204FF6FF72ADF8C1
:10DCB000122000228DF8142003F00C02042A27D031
:10DCC000BCF1000F05D003F00302022A20D01A078E
:10DCD0001ED42046FDF7A0FED0B998F800309B0670
:10DCE0000ED5214692482FF0A7FD0220FCF7B8FD83
:10DCF000A38DADF80C3003A93B202BF057FF73E642
:10DD000006AB13E906002046FFF7FEFC0028EFD023
:10DD10002046FCF70FFDEBE7DFF81082DFF82492D6
:10DD2000D6F88C40002C3FF47BAFA369002B37D191
:10DD3000254604AB55F81E0F696803C3237F032BE8
:10DD40001CD104A802F0F2FEC0B92B68E3606B6836
:10DD50002361237FA372774BA361201D02F0D8FEBD
:10DD600048462FF08DFDDBE7214628462FF08EFD3B
:10DD70000022A3212046FCF797FD4CE7237F022BCE
:10DD80000ED12046FCF7ECFA50B1E08B4FF6F7735A
:10DD9000984205D802F016FF10B9E38BA381D8E7AB
:10DDA000D8F8943143B12046FCF7EAFA20B1204676
:10DDB000FCF7E6FA002847D100234FF4987004A935
:10DDC0008DF8103028F0FCF89DF810302046002B1C
:10DDD00014BF52256425FCF7D3FA20B1D8F8983146
:10DDE000002B00F083802046FCF7CAFA18B194F8A3
:10DDF000343059077AD5A38E23F0FB031B041B0C88
:10DE0000B3F5827F72D0E38DAB4204D994F83450DD
:10DE100015F0080544D094F82C1019B10846FEF707
:10DE2000D5FE60B194F83430227F13F0040311D092
:10DE3000022A0DD1E58B4FF6F77085420AD90025ED
:10DE40002F464FF0A60A2EE02468002CAFD1E7E65B
:10DE5000012AF4D0901E012812D894F82630F22B13
:10DE600009D194F83530ABB9237F032BE7D8DFE82D
:10DE700003F042577A6B0F33DBB20D2BF1D8DEE79C
:10DE8000002AEED1002BECD0608DFEF737FA002887
:10DE9000E7D0D4E7E28E4FF6F7739A42E4D9CEE7A3
:10DEA0002F464FF0A00A214648462FF0EFFCBAF16A
:10DEB000000F15D12FB9204B44F250421A8030F098
:10DEC000EBFA2C602046FCF75BFA10B12846FCF711
:10DED0008DFA29462046B847824600283FF420AFF5
:10DEE000002251462046FCF7DFFC19E700252F46AB
:10DEF0004FF0AA0AD7E72046FCF742FA50B10320B8
:10DF0000FCF7D2FA0D4F0546002D3FF489AE4FF0D5
:10DF1000000AC8E794F834305A0748BF0120EFE7F9
:10DF20000020FCF7C1FA064F0546EDE798360020C1
:10DF300044FF00207DAA00015C31002065C400017F
:10DF40005DBA000164FF0020224604AB52F81E0FA8
:10DF5000516803C304A802F0E9FD054668B10388CF
:10DF6000E383022323772046FCF70AFA48B1032013
:10DF7000FCF79AFA5C4F0546C6E707464FF0A90A38
:10DF800091E794F834305B0748BF0120F0E7B3F520
:10DF9000C26F3FF44BAE40F23F42934248D100275C
:10DFA000524D40F201487FE0A86814FB08F900EBED
:10DFB000090393F8D820032A12D193F8D93003F03B
:10DFC0000F03042B01D0022B0AD150F809000022C4
:10DFD000A321FCF769FCB8684844B430FCF75AF94F
:10DFE0000134E4B22B78A342DED8B6F88030B3F522
:10DFF000A06F1DD1737FDBB9F56F2B79C52B05D0D1
:10E000003B4B44F26D421A8030F046FA2C8924F0E2
:10E0100002042404240C2C8154B92046FEF7E4FCAD
:10E020004FF4C26321462846A6F88030FDF7BCFABB
:10E0300007B0BDE8F08FAB68E82407FB0434B4F800
:10E04000D83023F0FE031B051B0D43452AD194F85D
:10E05000D81001F0FA03022B24D194F8D93013F030
:10E06000F0023CD003F00F02012A12D0012201F08D
:10E07000FE0162F30303103B022984F8D93017D163
:10E0800004F11800FCF70EFD626800212046FDF740
:10E09000ADFBB6F81431174901334320A6F814310B
:10E0A0002BF084FD0137FFB22B78BB42C3D89CE72D
:10E0B0000629EED195F89F31D5F8941123F001038C
:10E0C00085F89F3195F89E3185F89D3195F8A231FC
:10E0D000013B85F8A2310868FDF73AFDD9E7A72191
:10E0E0002046FEF7DBF9DDE751BB00019836002042
:10E0F0005C310020ECFF00202DE9F043426892F8EB
:10E10000241004298FB0054604D8012630460FB0EC
:10E11000BDE8F083946AE0780528F6D801238340AF
:10E1200013F0220F40F0908013F0110F4ED113F036
:10E130000C0FEAD092F83430002BE6D092F835304C
:10E1400023B92B7A4F33DBB2012BDED805F1080758
:10E1500097E80C0011212868FFF730FA06460028DE
:10E16000D3D06A6892F824301D2BCED12968946AE6
:10E17000002900F0D180086849686B4603C3138CFE
:10E18000ADF80830E3788DF80A30224608AB52F833
:10E19000040F516803C39068D16803C3224606ABDD
:10E1A00052F8140F516803C397E80300237F0C90C3
:10E1B000003318BF012368468DF81030ADF83410D5
:10E1C00004F060FA237F002BA0D032E024299CD1F8
:10E1D00004F11C0805F1080797E80C0013214046DC
:10E1E000FFF7ECF9064600288FD004F114091DF062
:10E1F00029F90822494631F05FFCF0B9E3788DF83F
:10E200000A30E069216A6B4603C397E803006B6834
:10E210001B8CADF808300C90ADF8341054F8040F96
:10E22000616804AB03C3A068E16803C3684604F0F7
:10E2300029FA6846FCF752FD68E73A4A49462846FB
:10E24000FCF78AFE064661E725297FF45EAF04F1FC
:10E250001D0805F1080797E80C0012214046FFF75A
:10E26000ADF9064600283FF450AF04F1150904F15A
:10E27000140204F11C0112F8013F33BB8A42FAD1A7
:10E28000E27883F00103052ADBB220D16A6892F8B4
:10E2900035202AB92A7A4F32D2B2012A3FF635AF59
:10E2A000002B7FF432AF1DF0CDF80822014648461E
:10E2B00031F002FC68B1E378012B7FF426AF2B7AB2
:10E2C000AF2B3FF422AF184AB8E73346D8E7002B0C
:10E2D000E9D0E3788DF80A30D8F80000D8F80410B7
:10E2E0006B4603C397E803006B681B8CADF80830DE
:10E2F0000C90ADF83410237D8DF8103054F8043FA5
:10E30000CDF811306368CDF81530A368CDF8193019
:10E31000E368CDF81D3089E700200021CDE9000138
:10E320002DE700BFADAE00016DAE0001094A03B29A
:10E33000506882B050B1002B0ADB11889AB291422A
:10E3400006D903EB430300EB03101B3002B0704708
:10E350000020FBE7D8FE002013B50C4681B94FF62C
:10E36000FB73ADF804308DF80610BDF804300020C2
:10E3700063F30F00BDF8063063F31F4002B010BD19
:10E38000FCF7A0FF030400900DD4FFF7CFFF236834
:10E39000036063684360A3688360E368C3606946A1
:10E3A00015202BF003FC009B0193DEE7F7B5044634
:10E3B000406E0E46FFF7B8F80304009013D5E36EE5
:10E3C00065692BB9294B44F26D521A8030F064F81C
:10E3D000E36E0221204698472846F9F719FA0125ED
:10E3E000284603B0F0BD94F85D500190FCF740F86A
:10E3F0001F4B2B449D7C20B1C5F3401525B900254A
:10E40000EEE7C5F38015F9E76369D3F890702677D6
:10E41000002EF4D194F85E3084F83E300098FFF777
:10E4200085FFA0620098FCF74FF9A063F9F71AFD89
:10E4300094F85F3084F8423084F841001DF002F80F
:10E44000E0623846FBF7C2FE94F8603084F83F0083
:10E4500084F84030074B63633B78276343F0200325
:10E460003B7004F120002AF01AFEB9E75C3100206D
:10E47000082E0020D1AE000170B54468E36E6569D6
:10E48000064603B12DB90C4B44F26A521A8030F0A3
:10E4900003F8237F43B92046E36E717B98472846F3
:10E4A000BDE87040F9F7B4B900212046FFF77EFFC0
:10E4B0000028F0D070BD00BF5C310020F7B5436D7F
:10E4C0000646044656F814791BB1836D0BB1036DF3
:10E4D0002BB92E4B44F263521A802FF0DDFF17B197
:10E4E000D7F890302BB9294B44F264521A802FF0A0
:10E4F000D3FF274D94F849302B449B7C13F06003E5
:10E5000005D094F84B30002B0CBF05230D23D7F812
:10E5100090201344C7F890301E4B63603046636D03
:10E5200098470DF10701292027F04AFD9DF8073093
:10E5300013B394F849302B449B7C13F0600F1BD02D
:10E54000206DD0E90023134316D01CF087FF98B943
:10E55000236DD3E900234FF0FF316FF0060099429D
:10E5600008BF904208D394F849301D443046A97C36
:10E57000C909FFF71BFF30B994F84C3087F8B13068
:10E5800063683046984703B0F0BD00BF5C3100209F
:10E59000082E002095AB00012DE9F743DDF8288017
:10E5A0000446894616461F46F9F75CFC18B9002058
:10E5B00003B0BDE8F083A57F012D31D0B9F1000F84
:10E5C00001D10220F4E74846FEF7AEFF03040546FA
:10E5D0000190F6D4FFF7AAFEA0602846FCF774F875
:10E5E000A061B8F1000F02D00198C8F80000A37F25
:10E5F000012B28D0A3690133E3D0A368002BE0D01E
:10E600002269137843F02003137084F822701CF001
:10E6100019FF6661E06020462AF041FD0120C7E74E
:10E62000F9F7DCFC0028CCD0A577F9F74BFDA0600A
:10E6300014F068FF00B9A060F9F786FDA061F9F752
:10E6400031FD6077D3E7F9F713FC0028AFD1D1E7AC
:10E6500082B002B0FCF79EBE82B0019002B0FBF720
:10E660008BBD82B002B0FCF795BE82B0019002B0C3
:10E67000FBF782BD37B5FCF725FE03040546009085
:10E680001ED4FFF753FE044628460195FBF774FDA0
:10E6900003682360436863608368A360C368E360C2
:10E6A000BDF9003003EB4302064B5B6803EB02133A
:10E6B00069469A7A22F020029A7215202BF076FA97
:10E6C00003B030BDD8FE002037B5FCF7FBFD0304D6
:10E6D0000546009012D40190FBF74EFD04462846F3
:10E6E000FFF724FE03682360436863608368A360C8
:10E6F000C368E360694615202BF058FA03B030BDBB
:10E700002DE9F7431A4D6B6806460F462BB94FF0BB
:10E710000009484603B0BDE8F0830028F7D0002484
:10E72000A146A04601231A4621463046FBF7EAFCE3
:10E73000019000B2031D0FD06B6800EB400203EBA9
:10E740000213013083F80A8084B201A915202BF04E
:10E750002DFA4FF00109E5E7B9F1000FD7D0002FEE
:10E76000D7D0314609202BF021FAB946D1E700BFB6
:10E77000D8FE00201FB51C4B01905B688BB94FF68B
:10E78000FA72ADF80C208DF80E30BDF80C30002078
:10E7900063F30F00BDF80E3063F31F4005B05DF862
:10E7A00004FBBDF904109DF806000029A6BF013145
:10E7B00089B2002110F0040017BF052301231A4677
:10E7C000002008BF1A46FBF79DFC029000B2031D13
:10E7D00005D14FF6FE73ADF80C300023D3E7ADF84A
:10E7E0000800029B0393D0E7D8FE00202DE9F843F0
:10E7F0000746414E00230446022086F86430FCF7A9
:10E800002FF817F820393546002B5CD114F8062C68
:10E8100092B196F86A20510704D4286EBDE8F843F7
:10E82000FBF788BF012286F8642004F8063C3846CE
:10E83000BDE8F8432AF036BC336E54F80C2C9A62CB
:10E8400014F8072C83F8242054F8100CD0E9003277
:10E8500013F1FF3842F1FF394FF0FF336FF0070239
:10E860004B4508BF424511D31CF0F8FD70B954F870
:10E870000C3C1B7803F00303012B07D054F8103C29
:10E88000316ED3E90023088CF7F780FA54F80C2C8A
:10E89000137803F0030101290AD1D5F86610B5F801
:10E8A0006A20286EFEF7C2FE0028B6D1BDE8F883C4
:10E8B0006FF345131370D5F86610B5F86A20286E0B
:10E8C000FEF722FFF0E7042BA7D114F8063C002B3B
:10E8D000A3D096F86A305A079FD5B06EFFF74AFF6B
:10E8E0000304B06699D4FFF721FD012344F8180C06
:10E8F00086F864309BE700BFD8FE002013B50C46B5
:10E90000FEF712FE4303019012D4BDF90420002A41
:10E910000EDB0A4853001344426802EB03139A7A51
:10E9200044B142F002029A7201A915202BF03EF97F
:10E9300002B010BD22F00202F5E700BFD8FE0020B1
:10E940001FB5019000B200282ADB164C636800EB6B
:10E95000400003EB0010837A5A0721D50D230021D4
:10E960001A460846FBF7CEFB039000B2031D08D001
:10E97000636800EB400003EB0010837A23F0080388
:10E980008372BDF9043003EB4302636803EB0213A7
:10E9900001A99A7A42F008029A7215202BF006F922
:10E9A00004B010BDD8FE002013B5044680B94FF660
:10E9B000FB73ADF804308DF80600BDF8043000207C
:10E9C00063F30F00BDF8063063F31F4002B010BDC3
:10E9D0001D2300211A460846FBF794FB009000B265
:10E9E000002811DB0A4B5B6800EB400003EB0010D2
:10E9F000D4E90023C0E90023837A23F00C03837257
:10EA0000694615202BF0D2F8009B0193D5E700BF93
:10EA1000D8FE002007B5019000B200280FDB094B9B
:10EA20005B6800EB400003EB0010837A5A0706D5C1
:10EA300043F01003837201A915202BF0B7F803B03F
:10EA40005DF804FBD8FE002007B5FEF76DFD0190D0
:10EA500000B20028A1BF074B5B6800EB400003EB4E
:10EA60000010B2BF0020807AC0F3400003B05DF810
:10EA700004FB00BFD8FE00202DE9F743344C636847
:10EA800006468BB94FF6FA72ADF804208DF80630C1
:10EA9000BDF80430002063F30F00BDF8063063F3C7
:10EAA0001F4003B0BDE8F08330B94FF6FB73ADF8FB
:10EAB00004308DF80600EBE74FF000086FF0030913
:10EAC000C44601F0020701F0040501231A4661461D
:10EAD0003046FBF717FB019000B2031D33D0420014
:10EAE00097B1636802EB000C03EB0C1C614651F814
:10EAF0000B3FCCF81B304B68CCF81F308B68CCF840
:10EB00002330CB68CCF827306DB1A368002143F8DF
:10EB1000301003EBC00C6368CCF8041002EB000C5F
:10EB200003EB0C13198163689DF80680024403EB24
:10EB3000021200F1010C937A23F0200393721FFA62
:10EB40008CFC8146C1E7ADF804908DF806809FE704
:10EB5000D8FE002010B5144C4FF49270214627F0D7
:10EB60002FFAB4F90030002B05DA104B44F227528B
:10EB70001A802FF091FC0E4940F21E2027F006FA71
:10EB80000C4940F21F2027F001FA238860683022E8
:10EB90005A43002131F052F82288A068D2000021A7
:10EBA000BDE8104031F04AB8D8FE00205C310020AA
:10EBB000DCFE0020E0FE0020064B19885A68002386
:10EBC0001846994200D17047013310819BB2303210
:10EBD000F7E700BFD8FE00202DE9F047064648B110
:10EBE000714CE26FA0F110039A4203D110F80C3C73
:10EBF000192B07D06D4B44F26642BDE8F0471A80EE
:10EC00002FF038BCB4F88030B3F5E06F40F0BF802F
:10EC100004F18C07D4F88C50002D6BD1DFF8AC8157
:10EC2000DFF88891DFF8A8A1256A002D6BD1E827CD
:10EC300098F80030AB4200F29D8000250120257736
:10EC400084F81651FDF7D0FEFCF79AFA5848A567EC
:10EC500001274FF48068C4F88450C4F8A85028F005
:10EC6000EDFA544B5448C4F8BC30C4F8B48084F86E
:10EC7000B870C4F8905028F0E1FA4FF47A73C4F8F1
:10EC80009C304E484E4BC4F8A43084F8A070C4F8B1
:10EC9000C05028F0D3FA4B4BC4F8D430C4F8CC8021
:10ECA00084F8D07084F86450C4E91B55656730F06F
:10ECB0003BFFFCF7DBFAFFF77FFF40F23233A4F8AB
:10ECC00080303378337240482EF0DAFD73682BB908
:10ECD000364B44F269421A802FF0DEFB736806F16E
:10ECE00008009847E36F002B5CD00020BDE8F04798
:10ECF000FBF7B6BD38462EF0C3FD0022A3212846FF
:10ED0000FBF7D2FD86E7294650462EF0BFFDD8F826
:10ED10000870E823EF1BB7FBF3F798F80030FFB259
:10ED2000BB4205D844F24243A9F800302FF0B4FBAF
:10ED3000E8235F43D8F80830DA19D85992F8D83068
:10ED4000C3F34603DAB2012A11D05BB24BB1022AF7
:10ED50003FF46AAF44F24343A9F800302FF09CFB24
:10ED600060E7697B05F10802FBF79EFD5AE7002288
:10ED7000A721F9E7D8F8080005FB070090F8D8307C
:10ED8000DB0701D5FBF786FA0135EDB250E7B3F5A5
:10ED9000007F3FF452AF054B44F267421A802FF0D8
:10EDA0007BFB4AE7BDE8F087D8FE00205C310020FD
:10EDB00084FF002099B400016CFF00209CFF00201C
:10EDC000E9B400013DB5000154FF00209836002051
:10EDD000F8FE0020094A03B2506882B048B1002B07
:10EDE00009DB11889AB2914205D903EB430300EB8A
:10EDF000031002B070470020FBE700BFD8FE0020E0
:10EE00002DE9F047704D8AB01C464FF0FF33A5F84E
:10EE1000683000930026AF2385F86A6085F8663075
:10EE20006061894617460590FBF7D0F99DF84C8044
:10EE30008DF8180018B902200AB0BDE8F08705A8BF
:10EE40002AF03CF9079A8AB9B8F1000F16D19DF85B
:10EE50002530002B51D0089B1A685B68C5E90A234E
:10EE60005A4B236146464FF0FF371DE03346D15CD5
:10EE70000DF803100133042BF9D1E5E72B6EB3F93C
:10EE800010701A690192002F9E7C05DA504B44F2F3
:10EE900004521A802FF000FBADF804708DF8066064
:10EEA0000198FFF797FF2061DDF800A0BAF1FF3F5E
:10EEB000C1D023693BB94FF0FF336FF00302C5E9BE
:10EEC0000A23424B23619DF82430012B1AD1F9F714
:10EED00085F80028AFD0F9F7F5F8AC23A06085F8E5
:10EEE00066304FF0000AA368002B50D1384B44F233
:10EEF00005521A802FF0BEFA9DE7384601F062FEF7
:10EF00002061AFE72169002302A8CA5C1A540133CB
:10EF1000082BFAD1B8F1000F05D1FEF705FB0190DF
:10EF200007B2C0F30746002F85DB2A4BADF804700B
:10EF3000D3E90201DDE90223994208BF90428DF82E
:10EF400006600CBFB123AB23019885F86630FFF74C
:10EF5000EDF97307A06007D5B8F1000FC1D186F0B5
:10EF6000080ACAF3C00ABEE7AB681BB12A88BBB265
:10EF70009A4205D8164B44F221521A802FF08CFA8F
:10EF8000AB6803EBC7035B689A45AAD253E7ADF8B9
:10EF900004708DF80660019BAB66F8F763FF9DF87F
:10EFA00018302376129B207384F8199084F81AA0E5
:10EFB000E361B8F1000F02D01CF044FA2061204652
:10EFC0002AF070F8012037E7D8FE002000FF00206B
:10EFD0005C310020082E00202DE9F347634C94F8A3
:10EFE00064602546002E38D1E36EEBB104F16C006D
:10EFF0002EF046FC012384F8643020665C4B028CC2
:10F0000090F8241000930196054604F13003806ABD
:10F01000FFF7F6FE012820D0284684F8646002B08D
:10F02000BDE8F047FBF786BB236FCBB104F170005E
:10F030002EF026FCA0F10C032366012384F8643033
:10F04000B0F8B82090F8BD1001934A4B0093D0F867
:10F050009C0004F13003FFF7D3FE02B0BDE8F08757
:10F06000636F002BF9D004F174002EF009FC044604
:10F07000A0F10C07B0F8B80001F0A4FD012681460C
:10F0800085F864602F66F8F7EDFE94F8BD2094F8DB
:10F09000CE3085F8502094F8D42085F84F30D4F83D
:10F0A0009C3085F851002B6405F1300804F1040A06
:10F0B0004ABB54F80C3C93F83430C3F3400285F853
:10F0C0004E20C3F30013CDF800A02B4A494640461A
:10F0D000FFF762FA0128C0D00023022885F86430C7
:10F0E00033D098BB2B6C95F85020C4F89C3004F1B9
:10F0F0000C00012384F8BD2084F8C13002B0BDE8C3
:10F10000F047FBF7CFBC13F8493CAB3B072B15D8B6
:10F11000DFE803F00B0414140D140B0B012385F826
:10F120004E30CDF800A00023CFE70023F7E784F8A6
:10F13000C16004F10C00FBF7B5FCF2E70F4B44F2A1
:10F1400002521A802FF0A8F9EBE7AD200146002209
:10F1500054F80C0CFBF7A8FB3846FBF79BF8012092
:10F1600002B0BDE8F047FBF77BBB00BFD8FE002034
:10F17000EDE7000169C5000141AB00015C310020F1
:10F1800030B585B0CDE90001684614461D46FEF74E
:10F19000CBF9039000B200280FDB9DF80E305B071F
:10F1A0000BD4074B5B6800EB400003EB0010C0E999
:10F1B000004503A915202AF0F9FC05B030BD00BFB9
:10F1C000D8FE00201FB50190FBF738FA05B05DF8B6
:10F1D00004FB1FB5CDE9000168461446FEF7A4F90B
:10F1E0000304014605D42046FAF7DCFF002004B0F2
:10F1F00010BDA620FBE7014B187070471C260120AC
:10F2000082B0019002B0FBF733B900B501230021B1
:10F2100089B01A460846FAF775FF00B2043011D1DA
:10F220004FF0FF324FF0FF33CDE90223074A106859
:10F23000516804AB03C39068D16803C304A902A852
:10F24000FFF78AF809B05DF804FB00BF78E5030119
:10F2500000B50123002189B01A460846FAF752FF8B
:10F2600000B204300DD14FF0FF324FF0FF3304A94C
:10F270002D20CDE9022326F0A3FE04A902A8FFF762
:10F280006BF809B05DF804FB30B587B0FEF74CF9B8
:10F2900003040446009037D40290FAF76DFF02464B
:10F2A00000685168019402AB03C39068D16803C33E
:10F2B0002046FAF761FF05462046FFF737F8036856
:10F2C0002B6043686B608368AB60C368EB60009839
:10F2D000FFF72CF802AB024603CB5160106003CB62
:10F2E0009060D160BDF9002002EB4203074A5268EA
:10F2F00002EB03126946937A23F00C0343F02203D6
:10F30000937215202AF052FC07B030BDD8FE0020C1
:10F3100082B0C0F3405002B07047184A526833B40C
:10F320008AB94FF6FA73ADF804308DF80620BDF8AF
:10F330000430002063F30F00BDF8063063F31F4074
:10F3400002B030BC704738B94FF6FB73ADF80430EB
:10F3500000238DF80630EAE7D0E900234FF0FF35AF
:10F360006FF006049D4208BF9442EDD301231A4674
:10F37000002102B030BCFAF7C5BE00BFD8FE0020A5
:10F3800082B0019000B2002808DB054B5B6800EBFF
:10F39000400003EB0010837A1943817202B070477A
:10F3A000D8FE002082B0019000B2002809DB064B95
:10F3B0005B6800EB400003EB0010837A23EA010353
:10F3C000837202B0704700BFD8FE002010B504461B
:10F3D00038B90E4B4FF48B42BDE810401A802FF025
:10F3E00049B8FCF701F8072384F85D3004F1700395
:10F3F00063660B2384F86030054BA366054BE36618
:10F400002046BDE81040FBF7A5BA00BF5C310020E4
:10F4100059BF00014DB4000138B50446051D38B987
:10F42000124B44F2F0521A80BDE838402FF022B857
:10F430002846FBF7D9FF082384F8613004F18003E4
:10F44000A36694F88830022B0ED0042B0CBF0C233B
:10F45000042384F86430064BE366064B2367284692
:10F46000BDE83840FBF776BA0C23F2E75C310020A8
:10F47000F9BF000171AD000108B50A4B4FF4887265
:10F48000A3F880200022DA671A7783F81621C3F8E0
:10F490000C21FBF775FEFFF75DFBBDE80840F8F7B0
:10F4A00045BA00BFD8FE002010B50C4904462520FF
:10F4B0002AF010FB094938202AF00CFB3CB9084B14
:10F4C00044F26042BDE810401A802EF0D3BF1923E9
:10F4D00023712046BDE81040FBF77ABA20260120B0
:10F4E0005C31002028B9054B44F261421A802EF0AD
:10F4F000C1BF8A220271FBF76BBA00BF5C310020EA
:10F5000028B9054B44F262421A802EF0B3BFC522DF
:10F510000271FBF75DBA00BF5C310020044BB3F809
:10F52000800040F23F43C31A58425841704700BF21
:10F53000D8FE002070B51A4C2269207B0023603A67
:10F540006025D9B288420AD80025E8262378AB4244
:10F550000DD894F87201003018BF012006E0013385
:10F5600005FB03F1515C0029EBD0012070BD2FF0A9
:10F57000BFF8A36805FB063360B193F8D820D20723
:10F5800005D593F8D93003F00F03022BEDD10135E7
:10F59000EDB2DBE793F8D830DB07E6D4F7E700BF3E
:10F5A000983600202528F8B50C4607D1FFF7C2FF92
:10F5B000237880F0010018402070F8BD3828FCD175
:10F5C000114B18789D680022E82640F20127D3B23B
:10F5D000984204D80023227813432370EDE706FBFA
:10F5E0000251B1F8D83023F0FE031B051B0DBB42BE
:10F5F00005D191F8D83003F0FA03022B01D0013283
:10F60000E5E70123E7E700BF983600200378DA0634
:10F6100010B5044601D5FBF729FE23781B0703D557
:10F62000BDE81040FFF7C8BA10BD10B5044638B9A0
:10F630000D4B44F29052BDE810401A802EF01ABFD4
:10F64000FBF7D2FE092384F85D3004F17003636692
:10F65000042384F86030054BA366054BE36620461F
:10F66000BDE81040FBF776B95C3100208DBF00018A
:10F670009DA6000170B51C4C94F81611227F0B4614
:10F680000133DBB2082B28BF002322FA03F0C007A6
:10F6900026D5012199404A402277144A84F8163130
:10F6A00002EB83035D6D2DB9114B4FF488421A8034
:10F6B0002EF0F2FEA847237FABB10E4C23889B06A9
:10F6C00011D423F0B9FC238843F02003238023F0D6
:10F6D000C3FC094B09481B68BDE870401B6918470B
:10F6E0009942CDD1E7E770BDD8FE002034E5030193
:10F6F0005C310020320E0120103300201433002032
:10F7000010B5044638B90A4B4FF48C42BDE810409E
:10F710001A802EF0AFBE00F1080106482EF08CF8DA
:10F72000002384F878300720BDE81040FBF798B834
:10F730005C3100205CFF0020014B1882704700BF45
:10F74000082E002010B5044638B90E4B44F2705212
:10F75000BDE810401A802EF08DBEFBF745FE062353
:10F7600084F85D3004F1700363660E2384F8603022
:10F77000054BA366054BE3662046BDE81040FBF74A
:10F78000E9B800BF5C310020B9BF000141A300010E
:10F79000054BD0E90001D3E90223994206BF90420C
:10F7A00001200020704700BF082E0020004870474D
:10F7B000102E002000487047182E002010B50B4C6A
:10F7C000D4E90223013308BFB2F1FF3F0BD01BF095
:10F7D00039FED4E90223D0E90001994206BF9042E4
:10F7E0000120002010BD0220FCE700BF082E0020F1
:10F7F000F8B5436990F89D60D3F890500446052110
:10F800002846FCF771FB2246EE7052F8813F6B6090
:10F810005368AB609368EB60D3682B6194F88030D9
:10F820002B75A2884FF6F773A4F108069A429CBF85
:10F830003368C5F8153005F115028ABF00237368D7
:10F84000C5F815305360FFF7B9FF022805F11D0711
:10F8500014D10E4B03CBC5F81D00796094F891309C
:10F860005BB1F8F705FB40B194F892302BB125233A
:10F8700084F86030064BA3616666F8BD1BF0E2FDBC
:10F880000368C5F81D3043687B60E7E7102E002051
:10F890004DC1000138B50446FFF790FF6168084B81
:10F8A0000546206803C3FFF789FF8542014602D061
:10F8B00023202AF07BF92046BDE83840FFF774B8D2
:10F8C000102E002008B5FFF779FF003018BF012087
:10F8D00008BD094BD3E90223591C08BFB2F1FF3F11
:10F8E00007D0D0E90001994206BF904201200020D4
:10F8F00070470120704700BF082E002038B54468CB
:10F9000005460CB103682BB9104B44F226621A80ED
:10F910002EF0C2FD94F82430412B14D12868FFF753
:10F92000D8FF80B194F8343073B1A16A084A362305
:10F9300084F8243001F10B03A36228460331BDE8AB
:10F940003840FBF709BB012038BD00BF5C31002007
:10F950006DAE0001014B184481747047082E0020E1
:10F9600013B5002401A90748019427F08DFC30B994
:10F97000019804F57A74B0FBF4F002B010BD204693
:10F98000FBE700BFCC44002038B5044618B190F81E
:10F99000A830042B07D00F4B44F250621A80BDE808
:10F9A00038402EF067BD051D2846FBF71DFD0F23CF
:10F9B00084F8613004F1A003A3661C2384F864304A
:10F9C000054BE366054B23672846BDE83840FAF748
:10F9D000C1BF00BF5C31002061C00001BDAD0001AE
:10F9E00038B5044618B190F88030042B07D00F4B7F
:10F9F00041F234221A80BDE838402EF03BBD051D8F
:10FA00002846FBF7F1FC102384F8613004F17803F9
:10FA1000A3660D2384F86430054BE366054B23672A
:10FA20002846BDE83840FAF795BF00BF5C3100209A
:10FA3000E5C0000115C20001034B0078002283F8E5
:10FA40007E209B6F184700BF004200200278074BC2
:10FA50003AB9D3F8F0100A72D3F8F00043680830CE
:10FA60001847D3F8F02007211172F5E70042002073
:10FA7000024B002283F89A21704700BF0042002009
:10FA8000034B93F899216FF3041283F8992170477F
:10FA900000420020044AD2F8803000211870C2F8D9
:10FAA000801018465A68104700420020704770B511
:10FAB000094DD5F8B44205263CB9084AC5F8B44208
:10FAC000137823F01003137070BD2046636900F8AB
:10FAD000106F98472468EFE700420020F0210120D2
:10FAE0000379032B09D0022B09D1C0884FF6F77395
:10FAF00098428CBF002001207047012070470020F1
:10FB0000704770B5466ACD6B0446FFF7E9FF0223E4
:10FB100081F82830238A4B85E38B81F8A1016FEAB5
:10FB200043436FEA5343CB8691F840308A6423F015
:10FB3000250343F0240381F8403033782B700023F1
:10FB40006B7070BD10B50D4A0D4C012303FA00F027
:10FB50001378184323881070DB060ED423F06CFA58
:10FB6000238843F01003238023F076FA054B0648E0
:10FB70001B68BDE810401B69184710BDF02101202B
:10FB8000320E01201033002014330020074B1A6D71
:10FB900042B1DA6D42B9064ADA65012283F875206E
:10FBA0000320CFE783F87520704700BF0042002094
:10FBB000B5FB0001094B10B4002841F6FE7440F279
:10FBC0008342196D08BF2246A3F8B0220B22887623
:10FBD0005DF8044B83F875200320B3E70042002052
:10FBE00008B5074AD2F88430002118701846C2F8C8
:10FBF00084105A6890470220BDE80840A2E700BF81
:10FC000000420020024B092283F8AC22002099E731
:10FC10000042002013B5044601A9302026F0D0F997
:10FC20000198084B204330EA030308D040F2FF73E9
:10FC300030EA03030CBF0120002002B010BD0120F8
:10FC4000FBE700BF00F8FF07074B002210B5044692
:10FC500083F87520DB6D98472CB921460E20BDE84E
:10FC6000104029F0A3BF10BD0042002073B500244E
:10FC700001A940F2222001948DF802408DF8034042
:10FC800026F084F90DF1020140F22B1026F098F9CC
:10FC90009DF80220019BA24209D101230DF103012D
:10FCA00046208DF80330002529F080FF16E01D4620
:10FCB00003F5D47313F8086C9EB9012385F8A031BD
:10FCC0004822314605F10C002FF0B8FF05F1AC03D6
:10FCD0005922314618462FF0B1FFE863284602B09A
:10FCE00070BD0134E4B2D6E710B5054C94F8BE32CD
:10FCF00023B9FFF7BBFFC4F8B80210BD0020FCE732
:10FD00000042002037B5002501A9044640F2222018
:10FD100001958DF8035026F039F90DF1030140F2F9
:10FD20002B1026F04DF9019B4FF4D472E41AB4FB6A
:10FD3000F2F4E4B202FB043484F8A05103B030BD05
:10FD4000E0E7DFE7DEE7427F034632B1A0F5BC70B3
:10FD50001B78026B5370FCF704BDD3E7D2E710B5F4
:10FD60000A4BD3F8B432A0F58A723BB1547A1979B0
:10FD70008C4209D1C27A1A7403225A71FFF7C2FF6A
:10FD80000420BDE81040DDE61B68EEE700420020DD
:10FD900010B50446F4F7D2F8A04211D04FF6F7732D
:10FDA0009C420FD8F4F72CFB02280DD02046F4F724
:10FDB000CDFF58B10378012B14BF8120892010BDDD
:10FDC0000020FCE70720FAE78020F8E78120F6E72B
:10FDD00000B501388DB00B280DD8DFE800F0060C17
:10FDE0000C0C0C0C0C0F150C0C1F60238DF8043040
:10FDF00001A82AF0E1FF0DB05DF804FB95238DF812
:10FE00000430ADF80510F3E753238DF804300B6888
:10FE1000CDF805304B68CDF80930E9E75123F4E718
:10FE200010B5084CFAF716F900236371211D064B33
:10FE3000A360222026F0C4F82046BDE81040FAF75F
:10FE4000D3B800BFC40601204DFE000138B50546F9
:10FE5000F4F7A4FA2B79044653B9F4F79FFA054B4B
:10FE6000A3F8C400A30703D5BDE83840FAF7F3B8F8
:10FE700038BD00BF0042002013B5134C01A930204B
:10FE800026F09EF8042384F8753094F87430013B12
:10FE900084F8743004F1540393E80300E0602174A3
:10FEA000F4F7A0FA019B2363084BDA7B9B78237657
:10FEB000C4E90001064B84F8342020466361F4F75E
:10FEC0000BFE02B010BD00BF00420020982E0020A3
:10FED0002917010110B50C4C3B20214626F070F883
:10FEE00005226270FE3224F8202C084A127802F0B3
:10FEF00007020121022A04F81E1C08BF04F81C1C7A
:10FF0000BDE81040B8E700BF74420020982E0020E2
:10FF100008B50021054B4FF480620846A3F8B022D3
:10FF200029F044FEBDE80840D4E700BF00420020AD
:10FF3000A2E707B5002300226846CDE90023F4F7C5
:10FF400057FA03B05DF804FB37B5174C174D01A9FC
:10FF5000302026F035F8032284F8752004F154028D
:10FF600092E8030084F83C10E97B84F84D1029786E
:10FF7000019AA06301F007010129226409D104F16B
:10FF80004501242026F01CF804F146010D2026F03E
:10FF900017F8AB7884F844300348054BA364F4F7B2
:10FFA000EFF803B030BD00BF00420020982E0020C3
:10FFB000D9FF00010548082380F87530044B1B7CED
:10FFC0000371044B8360F7F757BC00BF0042002069
:10FFD000982E00201D000101007800B9EAE733E601
:10FFE0000348092380F87530024B8360FFF77ABA23
:10FFF00000420020BD230101007800B9F0E723E6AC
:020000040101F8
:10000000054B1B7803F00703022B00D1E8E7012B17
:1000100000D1CFE7704700BF982E00200078B8B914
:100020000C4B1B7813F0070300D1D9E7012B10D13B
:10003000094B072283F8752003F1540292E803006C
:10004000064AD86183F820105A621846F9F71CBC9A
:10005000FAE57047982E002000420020F9FF0001C9
:10006000104B93F8BE22052A10B4194611D193F80B
:10007000BC22D3F8B842013AD2B283F8BC2242B1D2
:10008000042204F5BC7083F8BE225DF8044BF4F73B
:1000900051B8002381F8BE32C1F8B8325DF8044B84
:1000A00030E600BF004200200F4AD2F8B83230B428
:1000B000D3F8AD5003F5BC70002183F8881193F894
:1000C000881125FA01F4E4070BD5002183F880118B
:1000D0000649C3F89011032382F8BE3230BC1EF0EB
:1000E0002FBF0131E9E700BF00420020C50A01012E
:1000F00008B5FFF763FB012811D1094B094A5A6281
:1001000083F8200040F6B83203F11400DA6127F0DA
:100110006BF805494020BDE8084029F015BD08BD31
:10012000C4060120EB010101F421012000B58DB0CE
:1001300006281BD8DFE800F0041A1A1A1D1F210038
:1001400090238DF80430F4F73BF9ADF80500F3F790
:10015000F5FEADF80A00F4F759F98DF80900F4F747
:1001600035F9ADF8070001A82AF026FE0DB05DF8BC
:1001700004FB9123E5E78F23E3E78E23E1E710B546
:1001800003288CB00C461FD0072828D0022819D18C
:10019000D1F80200D1F806100122F6F7CFF988B99C
:1001A00092238DF804302368CDF805306368CDF8CC
:1001B00009302389ADF80D3001A8A37A8DF80F30EE
:1001C0002AF0FAFD0CB010BDD1F80200D1F80610EB
:1001D0000022F6F7B3F90028F4D09323E1E7FFF704
:1001E00071FB0028EED05023DBE708B526F0DCF8E1
:1001F00002494020BDE8084029F06CBCF4210120F0
:1002000010B50446FFF77EFDE37ABBB9E2682369C7
:10021000A08AF5F7BBFD0D4B1B7813F0060214D135
:100220000B4890F8993199060FD562F3451380F881
:100230009931BDE81040F830FFF784BA044A92F8CB
:10024000993123F0300382F8993110BD982E0020A7
:100250000042002010B50446F4F7F0FB2046BDE84C
:1002600010404FE513B53420694625F0A9FE01A9D9
:10027000222025F0A5FE9DF80400134CF6F76CF93A
:100280004FF47A735843009B9B00984228BFB0FB01
:10029000F3F094F8C93038BF0A20019093B994F86C
:1002A000CA207AB184F8A03004F19C00074BC4F84E
:1002B000A430F9F73BFB012384F8C93020F010FF8C
:1002C000C4F8C00002B010BD004200209912010124
:1002D00008B520F005FF044BD3F8C03083428ABF35
:1002E000DB43C01AC01808BD0042002037B51B4CC4
:1002F00094F8CA303BB301A9342025F061FE2EF0FA
:10030000F7F930B3FFF7E4FF019DA8421DD2FFF7D4
:10031000DFFF281A019D854207D3FFF7D9FF019D12
:10032000A84214D2FFF7D4FF2D1AC4F8B450012309
:1003300084F8B8300A480B4BC4F8BC3026F07EFF76
:10034000074826F051FF03B030BD0020E2E700254A
:10035000EBE7019BC4F8B430E9E700BF004200209E
:10036000AC4200206502010107B50A4B012283F867
:10037000CA2001A9342025F023FEFFF7A9FF019B25
:10038000984204D2FFF7B2FF03B05DF804FBFFF719
:1003900069FFF9E70042002013B504460DF107019B
:1003A0001A2025F00DFE23788BB99DF80730022B1B
:1003B00004D0F9F7B1FA08B1F9F79CFA064B00201E
:1003C00083F8C600D3F884301BB1FFF709FC02B0F4
:1003D00010BD2AF003FDFAE70042002013B5164CC9
:1003E0000DF107011A2025F0EBFD94F8C63003B398
:1003F0009DF80730022B10D194F8C7306BB92EF05E
:1004000077F938B124F0F2FA002084F8C600FFF73B
:10041000E7FB0CE0FFF726FFF6E76FF07F43C4F839
:1004200090300648064BC4F894301EF083FD02B0AD
:1004300010BD8020EBE700BF004200208842002072
:100440009903010110B50C4C042384F89032FFF796
:10045000ADF902460068516804F5227303C341F206
:100460008833C4F884320E2384F8AC3204F5F47077
:10047000BDE81040FFF788BA0042002010B586B0F2
:1004800011F0FF0F01910E4C15D04FF48053ADF8D1
:100490000C3001AB049303A900231E20059329F01F
:1004A00085FB94F8AC320E2B05D1059B1BB904F5E6
:1004B0002270FEF7DFF8012384F8AC3206B010BDDD
:1004C0000042002010B504462AF040FC2046BDE85A
:1004D000104017E410B5044610F8443C14F84C29B9
:1004E00080F8D320023B072B21D8DFE803F0041269
:1004F00020201420201862B9042300F8443C21462F
:100500000B482DF0E1F990B10120BDE81040FFF754
:1005100019BB0723F1E7002AFBD10523EDE70523EB
:1005200080F8D330D0F8C430C8309847E7E710BD22
:10053000A04300202DE9F74FB84DD5F8A04147F66C
:10054000FF7648F22009002C00F0F781237A072B70
:1005500000F28980DFE813F0080087008700870039
:1005600087009C019C01A701B5F8B0325B0540F102
:10057000878104F10C070021482238464FF000081B
:100580002FF05CFB04F1580B84F81F81BBE80300DB
:10059000A34BA36404F12A0AB4F8543094F856E04B
:1005A00084F828E0C4F82A00CAF8041094F840102F
:1005B00003EA060C41F04001BCF11E0F84F8401024
:1005C00004F1580B75D8152B27D8DFE803F04E51EE
:1005D00059595B595F26262626262626262659594E
:1005E000260B5D530C23638704F1AD03D3F806108B
:1005F000D3F80200013108BFB0F1FF3F0DD1012354
:1006000084F8413094F8AE2094F8AD3043EA0223E8
:10061000A4F84230002384F84430B4F85430E38620
:10062000132B06D003EA0602382A02D04B4540F0CD
:10063000258103222272628F002A00F0218194F822
:10064000402022F0210242F0200213F4004F84F8EF
:10065000402004F1AC0304BF627A84F8AC20E36369
:100660003846FCF77EF824686DE70B236387D4E7F0
:100670000523FBE794F840306FF3861384F840308D
:100680000323F3E70423F1E71423EFE794F8B10021
:1006900094F8D42040005200C0B2D2B2831807337D
:1006A00020446387013204F1D401B2302EF04EFEB3
:1006B000B3E71F2B04D194F8AD30DB000233D5E74C
:1006C000ACF12101012918D81623638794F8B830BA
:1006D000012B04BF0F236387BEF1020F94F8403053
:1006E00040F09880618D4FF6F772914240F292800F
:1006F0006FF3820384F840308FE7BCF1330F01D1F0
:100700000223B3E7BCF12F0F87D9BCF1380F27D9EB
:1007100048F23B018B4280D1F4F7B6F96946824634
:10072000302025F04DFC84F8AD80009BC4F8AE303D
:10073000F4F7BEF984F8B800BAF80230A4F8B23081
:10074000BAF80430A4F8B430BAF80630A4F8B630D9
:100750000D23638795F8BC315A1C85F8BC217EE0D7
:10076000342B0FD004D8312BCAD0322BC8D054E749
:10077000382B34D048F23802934253D0362B7FF4D2
:100780004CAF7DE70A23BEF1030F63877FF445AFCB
:1007900004F1AD080822414658462FF08DF920B9E2
:1007A0000022C4F8AD20C8F80420DBF80000DBF814
:1007B00004106B4603C3DDE90023134308D0DBF8C4
:1007C0000030CAF80030DBF80430CAF8043024E7FF
:1007D0001AF038FE0368CAF800304368F5E70723CB
:1007E000638794F8B130FF2B04BF0923638794F823
:1007F0004030BEF1020F6FF3820384F840307FF483
:100800000CAFB4F858204FF6F6739A423FF605AF96
:1008100094F8403043F004036CE700BF004200202E
:10082000D5040101F3F7A4FEA4F8B200F3F7A6FE85
:10083000A4F8B400F3F7A8FE0B23638794F8AD3057
:1008400083B994F8B6300B336387D5F8B832002BF0
:100850003FF4E3AE9C427FF4E0AE95F8BD3284F8FD
:10086000AC30DAE6002384F8AE3084F8AF3084F898
:10087000B03084F8B13084F8B630E6E70222D9E629
:100880000723237284F81F310120FFF75BF9EAE6A2
:10089000052B0CBF04230223237204F58A70D4F8BD
:1008A00010319847DFE6214628482CF0EFFF94F8F6
:1008B0001F3163B9B4F85430012B06D1D4E9482371
:1008C000B4F82801F5F762FA01E0002BF6D0B4F88D
:1008D0005430042B26D194F82901072303EB40035D
:1008E000112804F2231628BF1120F11804F2771200
:1008F00084F82901C81C824222D3F35C521A112BBE
:1009000002F1FF324FEA520228BF11239A4228BF58
:100910001A46D6B20131520004F24D102EF016FDE7
:1009200084F84C61D4F8103104F58A709847D5F8F2
:10093000A0313BB10120FFF705F903B0BDE8F08F0E
:100940000026EDE702482EF045FBF6E7A043002025
:10095000A4430020F8B51C4ED6F8A0414FF0FF3557
:10096000072764B96B1C29D0184B19482A46012166
:100970002EF014FB1648BDE8F8402EF023BB227A77
:10098000931E022B9FBF6368D6F8B0115B1A636099
:1009900063687BB9042A0BD1B4F854302772062B54
:1009A0000CBF0D23022384F81F310120FFF7CAF882
:1009B0002468D6E79D4228BF1D46F9E70448BDE8F4
:1009C000F8402EF007BB00BF00420020550901018E
:1009D000A443002070B50D4D05F5D270D5F8A041A7
:1009E0002EF0F8FA0A4A137823F002031370052652
:1009F00014B9C5F8A04170BD84F81F61D4F8103156
:100A000004F58A7098472468F2E700BF004200208E
:100A1000F021012010B501460F4CA0B941F6FE733C
:100A20000520A4F8B03229F0C1F80C4B1B7803F074
:100A30000703022B01D1FFF7F3F90023E365BDE8BB
:100A40001040FFF7A3B840F2834300210420A4F82C
:100A5000B03229F0ABF8F0E700420020982E0020D9
:100A600037B505460DF107011A2025F0A9FA9DF8C2
:100A70000730114C022B14D194F8C7308BB92DF0EC
:100A800037FE58B123F0B2FF0DB1FFF76DFC002324
:100A900084F8C6302AF0A2F903B030BDFFF7E2FBBC
:100AA000F5E76FF07F43C4F890300448044BC4F876
:100AB00094301EF03FFAEFE7004200208842002009
:100AC00099030101F8B50678104D0446A6B9A0F1C6
:100AD0000C01D5F8B872162025F09EFA14F80C0C0B
:100AE000F3F79AFC97F8B200F3F7B2FCFBF706FFB6
:100AF0003146062029F05AF8002385F8BE32C5F8A1
:100B0000B8322046BDE8F840FFF7FCB800420020AC
:100B100008B501234371014603482CF08DFE0420E3
:100B2000BDE80840FFF70EB8B444002013B50446F2
:100B30000DF10701292025F043FA9DF807306BB32A
:100B4000D4E90023591C08BFB2F1FF3F2AD04FF06F
:100B5000FF316FF002008B4208BF824224D04FF079
:100B6000FF316FF003008B4208BF82421ED04FF06E
:100B7000FF316FF004008B4208BF824218D0FEF7AD
:100B800019FE02884FF6F7739A4207D82046FEF7FF
:100B9000FFFD18B1FEF70EFE02B010BD2046F5F7BE
:100BA000B7F9F9E70348F7E70348F5E70348F3E740
:100BB0000348F1E70A2201200C220120082201202B
:100BC0000E2201204FF6F773984210B5044608D85C
:100BD000FEF7F0FD0388A34203D1BDE81040FEF705
:100BE000E5BD2046BDE81040F4F7D0BB38B51C4C3D
:100BF00004F120052946002028F06CFF2946042036
:100C000028F068FF2946052028F064FF29460620C1
:100C100004F1340528F05EFF2946022028F05AFF2F
:100C20002946032028F056FF2946072004F14805ED
:100C300028F050FF2946012028F04CFF29460820C3
:100C400028F048FF2946092028F044FF29460C20B7
:100C500028F040FF211D4020BDE8384028F03ABF71
:100C6000F02101202AF0A8B80FF0ABBB38B504463C
:100C70000088F4F76BF8054638B1F5F73BFCA07037
:100C80002846F5F749FCE07038BD6080FCE7F8B510
:100C90000446F5F72BFC067B00232827DAB29642A0
:100CA00000D8F8BD07FB03F20568A918AA5C3AB999
:100CB0008A68C4F80220CA68C4F806208A8822809C
:100CC0000133EBE7F8B50446F5F710FC54B348B32D
:100CD000656855B3016851B3037B13B3207840B303
:100CE000013BDBB203EB830301EBC3020023167865
:100CF00006F0FB06012E10D1D2E9027E03EB83063B
:100D000005EB460C0133DBB2CCF8027098429788B1
:100D1000CCF806E025F8167003D98A42A2F128061D
:100D200001D12370F8BD3246E1E72B46F9E70B46C7
:100D3000F7E70346F5E7084B0222C3F8F00083F813
:100D4000D820027883F8E020044AC3F8E82003F1B1
:100D5000D0001EF0F5B800BF004200204DFA00019F
:100D600070B50446F5F7C2FB4FF000032380057B06
:100D70000023AB4200DB70BD016803EB830201EB93
:100D8000C20611F8322002F0FB0101290CD1727861
:100D9000012A05D122780132227001335BB2E8E7E3
:100DA000627801326270F8E7002AF3D0023A012A31
:100DB000F3D8EFE72DE9F0478046F5F797FB0027DA
:100DC00081463E4699F80C309E4201DBBDE8F08733
:100DD00006EB860AD9F800304FEACA05581913F80D
:100DE0003A30032B35D807EB8703828828F8332065
:100DF00008EBC304D0E90223C4E902234378237437
:100E0000F5F778FB6074D9F800002844F5F784FB07
:100E1000A074D9F800104B1901379A7EC2F3000272
:100E2000E27411F83A202275D3E90401C4E90601FD
:100E3000DA7884F820201A7E84F821209A7E9B7E1E
:100E4000C2F34002C3F3800384F8222084F82330E5
:100E50007FB2013676B2B5E7044BD3F8802022B9D1
:100E6000C3F880000220FEF76DBE704700420020EC
:100E7000044BD3F8842022B9C3F884000220FEF783
:100E800061BE704700420020084B93F8CA2010B59D
:100E90004AB993F8C74034B9012283F8CA20FFF752
:100EA000E1F9204610BD8020FCE700BF0042002091
:100EB00008B508B1FEF726FF084B1B7803F00703BF
:100EC000022B06D1064B93F85430012B01D0FFF7CB
:100ED000DBFF0020BDE80840FEF7B6BE982E0020DC
:100EE00000420020074808B590F8CA3043B14FF0DF
:100EF0000003A0F8C930AC3026F0A0F9002008BDEE
:100F00008020FCE700420020F7B51A4CA36F07468B
:100F10000E464BBB184BA36741B301A93F2025F0F8
:100F20004FF89DF8043084F87C30012384F87E303B
:100F3000124B84F87D601B7803F00703022B4FF0FF
:100F4000000502D1FFF7CEFF2F4600230022C4E99F
:100F500002239DF80430A3740648094B6575E774B5
:100F60002675A361F3F7EAFD03B0F0BD01A94020A7
:100F7000D5E700BF00420020F11E0101982E00209D
:100F80000512010137B5D0E94D231343044622D0A1
:100F900050F8105C00F59A701AF060FAD8B96B78C6
:100FA000BBB91C4A8DF80430127884F83E2101A99F
:100FB0005C2025F005F89DF8043033B1D4E94D01EB
:100FC000F4F7CEFE08B1F5F79BFD04F59670F3F744
:100FD000B5FD03B030BD34F8220CFFF7F3FD1AF075
:100FE0003DFA58B98DF8040001A9402025F014F805
:100FF00094F8401111B9352028F0D8FD94F83F013C
:1010000094F84011FFF780FFA4F14C00FEF77AFE40
:10101000DFE700BF80FA030170B5114C06460025DA
:10102000E565FEF7B3FD8EB941F6FE733146052046
:10103000A4F8B03228F0BAFD0A4B1B7803F007037E
:10104000022B0CD1BDE87040FEF7EABE40F28343AC
:10105000A4F8B03229460120BDE8704054E770BDC5
:1010600000420020982E002013B5114CB4F8B03285
:101070001B060BD400230DF1070125208DF8073046
:1010800028F094FD9DF8070002B010BD2DF030FB54
:10109000D4F8A03138B10BB90123ECE71A7A042A4D
:1010A000E8D11B68F7E7B3FA83F35B09E3E700BF16
:1010B00000420020014B93F8C60070470042002018
:1010C00010B50A490A4C002351F8232044F8232084
:1010D0000133132BF8D1074A13852DF009FB064B7A
:1010E00084F860001B7984F8543010BD80420020E1
:1010F00060220120C4060120C0440020034B0022CE
:10110000A3F8B022024B4361FEF7CEB900420020A3
:10111000911F010137B51B4C00250DF107011A2065
:10112000A4F8B05284F87550256584F87E50A56700
:1011300024F046FF9DF8073084F8C650022B4FF08C
:10114000010304BF84F8CA5084F8C850A4F8C4301E
:10115000C4E92055FFF74AFD27F07EFFFEF78CF922
:1011600021F010FF40F28343A4F8B032FEF77EFD79
:10117000054BC0F8983100F5BC70FFF7BFFF03B016
:1011800030BD00BF00420020C504010110B5FEF7CC
:1011900015FB0A4C0023012884F8AC3206D1012348
:1011A00084F8AC320023C4F8A83210BD0228F9D16B
:1011B000F3F726F90028F2D0F4E700BF0042002040
:1011C00038B50D4C022284F87E200C4A84F87D004C
:1011D000127802F00702022A0D4601D1FFF782FEC3
:1011E000FFF7D4FF0DB9FEF7A4FE054BE3600248FC
:1011F000BDE83840FEF784B900420020982E002058
:1012000039FA000108B5037813B90748FEF7FEF96B
:10121000064B93F87C1093F87D00002283F87E2023
:10122000C909BDE80840CBE77C420020004200200D
:1012300013B5144CE36D13BB134BE365134B1B78D1
:1012400003F00703022B13D10DF10301162024F044
:10125000B7FE0F49302024F0B3FE9DF80320012390
:10126000934001A93020019324F0D6FEFFF73AFE07
:10127000FFF78CFF074B0348E360FEF741F902B02C
:1012800010BD00BF0042002019100101982E00205F
:10129000F006012011FF00017FB50646294C00250C
:1012A0000DF103015C2084F8C9508DF8035024F03F
:1012B00087FE3378EB2B264604D184F8C850FFF71D
:1012C00015F808E063B984F8C8309DF80330002BA6
:1012D000F5D1FEF7C7FF0220FEF734FC04B070BD65
:1012E0000DF102014FF4937024F06AFE9DF8022084
:1012F00094F8C830FF2A13D180220133ADF80420BE
:1013000001A904F1C8021E2084F8C830CDE90225E5
:1013100028F04CFC039B002BD1D084F8C850DAE7AE
:101320000133DBB29A4284F8C830C8D8D4F8803090
:1013300013B10420FEF7AEFB002386F8C830FFF798
:1013400077FFC8E7004200207FB5224CC37A002512
:1013500084F8C95026462BB984F8C830FEF782FFBE
:1013600004B070BD0DF103014FF4937024F028FE1A
:101370009DF8032094F8C830FF2A18D18022013349
:10138000ADF8042001A904F1C8021E2084F8C83079
:10139000CDE9022528F00AFC039B13B9FEF7A6FF4E
:1013A00001E084F8C8500220FEF7CCFBD8E70133F7
:1013B000DBB29A4284F8C830F0D8D4F8803013B148
:1013C0000420FEF767FB002386F8C830FFF730FFE4
:1013D000E9E700BF004200200B4B93F8AC32012B31
:1013E00013B504460ED8FEF774FA58B1F7F7C8FAE9
:1013F000002804DA002301A80193F8F75BF9207AAA
:10140000F6F7D4FD02B010BD004200202DE9F041F6
:10141000234C94F8AC72012F054633D1FEF759FAEC
:1014200000283BD005F108001AF018F8064640B134
:101430000021342028F0BAFB00210846BDE8F04125
:1014400062E5D5E90201F4F78BFC38B30378012B90
:101450000FD1D5E90223C4E90223124BE6745B786D
:10146000A374114BA682A3612046BDE8F041F3F7B7
:1014700065BB052B12D13B4632463946BDE8F041EB
:10148000F7F7A2BB083019F0E9FF38B1092384F857
:10149000AC320020BDE8F041FEF754BBBDE8F0815E
:1014A0000042002080FA0301ADFA000107B52F20A9
:1014B0000DF1070124F084FD9DF8070003B05DF8ED
:1014C00004FB30B5054685B0D0E90001F4F748FCCF
:1014D000044698B12846F5F7F1FE78B1A388ADF837
:1014E0000430A368CDF80630E368CDF80A3001A9CE
:1014F000A3788DF80E30022028F058FB05B030BDDF
:1015000037B50546FEF752F9FCF70EF80190FEF7E5
:1015100055F9022808D12846032300F8083F6B68D4
:1015200003B0BDE830401847BDF90430002B02DAA3
:1015300028460123F1E7144C1449412028F0CAFA47
:101540000D2384F8AC326B68C4F8A4322B68C4F85D
:1015500084320F4D0198032384F8703204F51C7314
:101560002B65012385F85830FCF7E0FE094B6865D0
:1015700004F2912405F14000EC656B6603B0BDE810
:10158000304027F089BD00BF004200204C220120DE
:10159000C40601204504010138B5437A084C012BEB
:1015A000054609D1FEF795F930B194F8AC320E2B0F
:1015B00002D12846FDF75EF8012384F8AC3238BD2D
:1015C0000042002008B5014603482CF035F9BDE87B
:1015D0000840FEF7DBBA00BF50420020034A92F8F1
:1015E0007430184482F87400704700BF0042002035
:1015F000082810B5044603D1BDE81040FEF700BD31
:10160000FEF797FC2046BDE81040FEF71DBB10B565
:10161000134C94F8AC32082B02D0092B0FD010BD1C
:10162000104B1B7803F00703022B01D1FFF75AFC84
:10163000012384F8AC32BDE81040FEF7E1BC094B51
:101640001B7803F00703022B01D1FFF74BFC0023AB
:1016500084F8AC320920BDE81040FFF7C9BF00BFD5
:1016600000420020982E002037B52A4CFFF71EFFBD
:1016700094F85430012B054607D0274B1B7803F014
:101680000703022B01D1FFF7FFFB0DF10701292012
:1016900024F096FC9DF807301BB9FEF7B1FC03B0AF
:1016A00030BD94F85430012B06D10823002084F873
:1016B000AC32FEF747FAF2E7033B012B03D8F6F70B
:1016C0008DFC0028F1D1FFF7F1FE012804D894F831
:1016D000AC322BB10923E9E70E20FFF789FFDEE7E3
:1016E000032D06D8DFE805F013130213022384F854
:1016F000AC32012384F8CC310849094BC4F8D0310D
:101700002C2024F05DFC074825F06EFDC7E703237D
:10171000EDE700BF00420020982E0020C8430020C3
:1017200005FC0001C043002038B5C37A114C0546C2
:1017300033B9062384F87530BDE83840FFF794BF0D
:1017400094F874307BB104F168013C2024F038FC3B
:10175000012384F86C30084B236704F16000BDE876
:10176000384025F041BDFEF7E4FBE87ABDE838409B
:10177000FEF76ABA0042002031FF000113B50D4C9C
:1017800001A9302024F01CFC06232373F2F72AFE63
:10179000019B2363084BDA7B9B782376C4E9000125
:1017A000064B84F8342020466361F3F795F902B0C4
:1017B00010BD00BF00420020982E002049130101F7
:1017C000034BB3F8B00280F40060C0F3C020704750
:1017D0000042002037B51A200DF1030124F0F0FB80
:1017E0009DF80330022B14D1FFF7EAFF88B90A4BAA
:1017F0001B7973B1FEF76CFD01A90546352024F075
:10180000DFFB019BAB4204D80120FFF729F903B0AD
:1018100030BD0020F9E700BFC04400200E4A0F4948
:1018200010B50023144652F8230041F82300013379
:10183000132BF8D10A490B8592F860304BB12CF08C
:101840004BFF084B94F854201A71BDE81040FFF785
:10185000C1BF2CF047FFF4E7602201208042002046
:10186000C4060120C044002073B51A200DF1030105
:1018700024F0A6FBFFF7A4FF374CF8B99DF803301E
:10188000022B21460CBF3520362024F099FB012382
:1018900023712CF02DFF48B32568002D47D0FEF7AB
:1018A00017FD2368834205460BD823F09FF8FEF707
:1018B0005BFD0420FEF7EEF802B070BD002323604C
:1018C000E5E71B1A01A92E20019328F06FF9019B6F
:1018D00013B923F08BF8ECE72068401B83423CBF30
:1018E00000222271834294BF236020600020FEF713
:1018F000D1F81A4B1848012583F8C6502CF0D0FFB8
:101900009DF80330022B24D1FFF75AFF08BB23793F
:10191000FBB1FEF7DDFC10490646352024F050FBF4
:101920002368B34215D82846FFF79AF8C4E74FF06A
:10193000FF3301A92E20019328F038F9019B002BD9
:10194000C7D0B3F1FF3F18BF1D46002325602371A8
:10195000CCE70020E8E700BFC044002000420020A0
:1019600073B51A200DF1050124F02AFB9DF805300E
:10197000444C022B03D194F8C930002B3BD1D4F84E
:101980008060002E76D00DF106011A2024F018FB9D
:1019900094F8C6501DB18020FEF77CF825E0FFF7D3
:1019A00063FB50BB0420FEF775F89DF80630022B50
:1019B00001D0002519E094F8C750002DF9D12CF082
:1019C00097FE0028F5D0D4F8A031003318BF0123CA
:1019D0000DF1070138208DF8073028F0E7F89DF861
:1019E0000730002BE5D0FEF7BFFCD4F8843013B1EC
:1019F0000DB1FEF7F3FC02B070BD234B1B889BB208
:101A00000BB10420C8E79DF80630022B28D194F8CA
:101A1000C7302BBB2CF06CFEE0B1D4F8A031003302
:101A200018BF01230DF1070138208DF8073028F089
:101A3000BDF894F8CA309DF8076033B92EB1FEF7AF
:101A400093FC94F8C930002BDBD123F007F826B9BA
:101A500084F8CA600D4825F0F1FBFFF705FFA8E701
:101A60000023C4F890300A480A4BC4F894301DF0A3
:101A700061FABAE7D4F88450002DB6D0FEF7AEFC78
:101A80003546B2E700420020320E0120AC42002071
:101A900088420020991A010110B5047864B9F8F75A
:101AA00001FB22F0DBFF074880F8CA40AC3025F08C
:101AB000C5FBBDE81040D7E62046BDE81040FDF765
:101AC000E9BF00BF0042002070B51949194C91F8D8
:101AD0006C00227803460133DBB2062B28BF0023BB
:101AE00022FA03F5ED071FD581F86C3001219940EA
:101AF0004A402270104A02EB83035B6898472378C0
:101B0000ABB10E4C2388DB0611D421F095FA238863
:101B100043F01003238021F09FFA094B09481B680A
:101B2000BDE870401B6918479842D4D1E7E770BD03
:101B3000C4060120F021012080FA0301320E0120A9
:101B4000103300201433002000487047982E0020E6
:101B500013B542F2107022F071FF6946044633203B
:101B600024F02EFADDE90023134311D009480A4A74
:101B7000026104F51C5410348460084C0123037383
:101B800084F8763025F030FB00232367A4F8743006
:101B900002B010BDCC440020CF290101C4060120B1
:101BA000F0B59F4D95F875402E6D012C85B004D091
:101BB0000B2C00F00B8105B0F0BDB5F8B032D807A2
:101BC00040F1028105F154013E2024F0F9F9F2F7C9
:101BD00017FC02A906464FF487708DF8074024F0E1
