:0200000400807A
:105F8800FFFF000000400E8438FC745F3B4410148F
:085F98000B0000710200000083
:045FBC0000000010D1
:020000040100F9
:10000000FEFFFFFF01015048434D00000000740057
:1000100000000001000200010002000100C0020017
:1000200000000000000000000000000000000000D0
:1000300000000000000000000000000000000000C0
:1000400000000000000000000000000000000000B0
:1000500000000000000000000000000000000000A0
:100060000000000000000000000000000000000090
:100070000000000000000000000000000000000080
:100080000000000000000000000000000000000070
:100090000000000000000000000000000000000060
:1000A0000000000000000000000000000000000050
:1000B0000000000000000000000000000000000040
:1000C0000000000000000000000000000000000030
:1000D0000000000000000000000000000000000020
:1000E0000000000000000000000000000000000010
:1000F0000000000000000000000000000000000000
:1001000000000000000000000000000000000000EF
:1001100000000000000000000000000000000000DF
:1001200000000000000000000000000000000000CF
:1001300000000000000000000000000000000000BF
:1001400000000000000000000000000000000000AF
:10015000000000000000000000000000000000009F
:10016000000000000000000000000000000000008F
:10017000000000000000000000000000000000007F
:10018000000000000000000000000000000000006F
:10019000000000000000000000000000000000005F
:1001A000000000000000000000000000000000004F
:1001B000000000000000000000000000000000003F
:1001C000000000000000000000000000000000002F
:1001D000000000000000000000000000000000001F
:1001E000000000000000000000000000000000000F
:1001F00000000000000000000000000000000000FF
:10020000F07F0120D1260201718C0201778C02015E
:10021000838C0201898C02018F8C02010000000096
:10022000000000000000000000000000299E000106
:100230007D8C020100000000499F0001B79F000172
:10024000D7E60001D7E60001D7E60001DDBB0001DB
:10025000D7E60001D7E60001D7E60001D7E60001A6
:10026000D7E60001D7E60001D7E60001D7E6000196
:10027000D7E60001D7E60001D7E60001D7E6000186
:10028000D7E60001D7E60001D7E60001D7E6000176
:10029000D7E60001D7E60001D7E60001D7E6000166
:1002A000D7E60001D7E60001D7E60001D7E6000156
:1002B000D7E60001D7E60001D7E60001B902020146
:1002C00065A10101D7E60001D7E60001D7E60001EC
:1002D000D7E60001D7E60001D7E60001D7E6000126
:1002E000D7E6000100000000ED0902010020320005
:1002F00094F80020000000000000000001203200FF
:1003000094F80020000000000000000002203200ED
:1003100094F80020000000000000000003203200DC
:1003200094F80020000000000000000004203200CB
:1003300094F80020000000000000000005203200BA
:1003400094F80020000000000000000006203200A9
:1003500094F8002000000000000000000720320098
:1003600094F8002000000000000000000820200099
:10037000C8F8002000000000000000000920200054
:10038000C8F8002000000000000000000A20200043
:10039000C8F8002000000000000000000B20200032
:1003A000C8F8002000000000000000000C20200021
:1003B000C8F8002000000000000000000D20200010
:1003C000C8F8002000000000000000000E202000FF
:1003D000C8F8002000000000000000000F202000EE
:1003E000C8F800200000000000000000F8B500BFC1
:1003F000F8BC08BC9E46704721450201F8B500BF15
:10040000F8BC08BC9E467047FD44020180B58CB024
:1004100004AFF860B9603B601346FB80FB889B002B
:10042000184609F071FA78617B69002B13D05420CB
:1004300009F06AFAF861FB69002B08D05422002108
:10044000F8692AF03BFDFB697A691A6305E078696F
:1004500009F0F8FA01E00023FB61FB69002B13D0DF
:10046000FA8800230393FB690293FB6A0193BB6A3A
:1004700000933B68B968F86800F00EF8F86900F07E
:100480007BF80123BB6102E04FF0FF33BB61BB6926
:1004900018462037BD4680BD80B586B000AFF860F5
:1004A000B9607A603B60BB6A186B7B689B001A4638
:1004B000A5212AF003FDBB6A1A6B7B6803F1804318
:1004C000013B9B0013443B613B6923F007033B6105
:1004D000BB68002B1ED000237B6112E0BA687B69E9
:1004E00013441978BA6A7B69134434330A461A7084
:1004F000BA687B6913441B78002B06D07B690133F3
:100500007B617B690F2BE9D900E000BFBB6A002249
:1005100083F843203B6A042B01D904233B62BB6A66
:100520003A6ADA62BB6A3A6A5A64BB6A04331846AA
:1005300012F0FCF8BB6A1833184612F0F7F8BB6AE1
:10054000BA6A1A613B6AC3F10502BB6A9A61BB6A67
:10055000BA6A5A623A68F968386909F019FC0246C1
:10056000BB6A1A607B6A002B02D07B6ABA6A1A6087
:1005700000BF1837BD4680BD80B584B000AF78603D
:1005800009F0AFFC3E4B1B6801333D4A13603D4B05
:100590001B68002B09D13B4A7B681360384B1B68F2
:1005A000012B10D101F00EFA0DE0374B1B68002B28
:1005B00009D1344B1B68DA6A7B68DB6A9A4202D83D
:1005C000304A7B681360314B1B6801332F4A13603C
:1005D0007B68DB6A01229A402D4B1B6813432C4A2F
:1005E00013607B68DA6A2B4913469B0013449B0017
:1005F0000B4404331B68FB607B68FA689A60FB68F5
:100600009A687B68DA60FB689B687A6804325A6093
:100610007B681A1DFB689A607B68DA6A13469B0048
:1006200013449B001B4A1A447B685A617B68DA6A50
:10063000184913469B0013449B000B441B68591C2C
:10064000144813469B0013449B000344196009F0AF
:1006500061FC0D4B1B68002B0ED00A4B1B68DA6A3D
:100660007B68DB6A9A4207D20B4B4FF080521A60CC
:10067000BFF34F8FBFF36F8F00BF1037BD4680BDF4
:10068000F8F6002020F6002004F7002014F70020E0
:1006900000F7002024F6002004ED00E080B584B0CF
:1006A00000AF786009F01DFC7B68002B02D1344B51
:1006B0001B6800E07B68FB60FB680433184612F09F
:1006C0009FF80346002B15D1FB68DA6A2D491346C3
:1006D0009B0013449B000B441B68002B0AD1FB6852
:1006E000DB6A012202FA03F3DA43274B1B6813404B
:1006F000254A1360FB689B6A002B04D0FB68183303
:10070000184612F07DF8214B1B6801331F4A136015
:100710001B4B1B68FA689A420BD1FB6804331946DD
:100720001B4812F010F81B4B1B680133194A136069
:1007300006E0194B1B68013B174A136001F0BEF934
:1007400009F0E8FB0E4B1B68FA689A4202D0F86881
:1007500001F0A4F9114B1B68002B0CD0084B1B684F
:10076000FA689A4207D10E4B4FF080521A60BFF3DD
:100770004F8FBFF36F8F00BF1037BD4680BD00BFE6
:1007800020F6002024F6002000F7002014F70020B7
:10079000CCF60020E0F60020F8F6002004F7002058
:1007A00004ED00E080B586B000AF786039600023CA
:1007B0007B6100F0FBFA224B1B683B617B681B6886
:1007C0003A681344FB607B681B683A699A420BD213
:1007D0007B681B68FA689A4211D2FA683B699A42B0
:1007E0000DD901237B610AE07B681B68FA689A4295
:1007F00003D3FA683B699A4201D901237B617B6884
:10080000FA681A607B69002B06D0FA683B69D31A34
:100810000021184601F098FF00F010FBB860BB689B
:10082000002B07D1074B4FF080521A60BFF34F8F58
:10083000BFF36F8F7B6918461837BD4680BD00BF78
:10084000FCF6002004ED00E080B584B000AF7860D5
:100850000023FB607B68002B08D000F0A7FA002182
:10086000786801F071FF00F0E9FAF860FB68002B8E
:1008700007D1064B4FF080521A60BFF34F8FBFF382
:100880006F8F00BF1037BD4680BD00BF04ED00E094
:1008900080B584B000AF786009F023FB7B68002B43
:1008A00002D1074B1B6800E07B68FB60FB68DB6ADA
:1008B000BB6009F02FFBBB6818461037BD4680BDF2
:1008C00020F6002080B489B000AF7860EFF3118289
:1008D0004FF0200383F31188BFF36F8FBFF34F8F67
:1008E0003A61FB603B69FB617B68002B02D10A4BDC
:1008F0001B6800E07B68BB61BB69DB6A7B61FB69ED
:10090000BB60BB6883F311887B6918462437BD46FA
:100910005DF8047B704700BF20F6002080B588B0EA
:1009200000AF786039600023FB613B68042B01D97C
:1009300004233B6009F0D5FA7B68002B02D1554BAC
:100940001B6800E07B68BB61BB695B6C7B617A699B
:100950003B689A4200F098803A687B699A420DD9C8
:100960004C4B1B68BA699A420FD04A4B1B68DB6A32
:100970003A689A4209D30123FB6106E0454B1B68A4
:10098000BA699A4201D10123FB61BB69DB6A3B6111
:10099000BB695A6CBB69DB6A9A4202D1BB693A688F
:1009A000DA62BB693A685A64BB699B69002B04DB55
:1009B0003B68C3F10502BB699A61BB6959693A6931
:1009C00013469B0013449B00334A1344994250D171
:1009D000BB690433184611F013FF0346002B09D1FD
:1009E00001223B6902FA03F3DA432C4B1B681340E4
:1009F0002A4A1360BB69DB6A01229A40274B1B68B5
:100A00001343264A1360BB69DA6A234913469B00E5
:100A100013449B000B4404331B68FB60BB69FA68FA
:100A20009A60FB689A68BB69DA60FB689B68BA6980
:100A300004325A60BB691A1DFB689A60BB69DA6AA6
:100A400013469B0013449B00134A1A44BB695A6126
:100A5000BB69DA6A104913469B0013449B000B44A0
:100A60001B68591C0C4813469B0013449B0003440D
:100A70001960FB69002B07D0094B4FF080521A60B8
:100A8000BFF34F8FBFF36F8F09F044FA00BF2037D9
:100A9000BD4680BD20F6002024F6002000F700208F
:100AA00004ED00E080B584B000AF786009F019FA79
:100AB0007B68002B02D13B4B1B6800E07B68BB606E
:100AC000BB680433184611F09BFE0346002B15D17A
:100AD000BB68DA6A344913469B0013449B000B44FD
:100AE0001B68002B0AD1BB68DB6A012202FA03F300
:100AF000DA432E4B1B6813402C4A1360BB689B6A79
:100B0000002B04D0BB681833184611F079FEBB687F
:100B100004331946264811F016FE0023FB6010E04E
:100B2000BA68FB68134450331B78DBB2012B05D144
:100B3000BA68FB681344503300221A70FB68013313
:100B4000FB60FB68002BEBDD09F0E4F9194B1B6837
:100B5000002B05D009F0C5F900F0B0FF09F0DAF973
:100B6000104B1B68BA689A4218D1124B1B68002BB5
:100B700008D0114B4FF080521A60BFF34F8FBFF374
:100B80006F8F0BE00A4B1A680C4B1B689A4203D11B
:100B9000044B00221A6001E000F0D0FB00BF1037C8
:100BA000BD4680BD20F6002024F6002000F700207E
:100BB000E4F6002004F7002004ED00E0F8F6002041
:100BC00080B485B000AF78600023FB607B68BB60B9
:100BD000BB685B690A4A93420AD1BB689B6A094AAF
:100BE000934205D0BB689B6A002B01D10123FB60B7
:100BF000FB6818461437BD465DF8047B704700BF9C
:100C0000E4F60020B8F6002080B584B000AF78602C
:100C10007B68FB60344B1B68FA689A425FD0FB68C4
:100C2000002B5CD009F05DF9F868FFF7C9FF0346B7
:100C3000002B52D0FB680433184611F0E1FDFB682D
:100C4000DB6A01229A40294B1B681343274A136031
:100C5000FB68DA6A264913469B0013449B000B4449
:100C600004331B68BB60FB68BA689A60BB689A680B
:100C7000FB68DA60BB689B68FA6804325A60FB68FC
:100C80001A1DBB689A60FB68DA6A13469B0013441E
:100C90009B00174A1A44FB685A61FB68DA6A1449D8
:100CA00013469B0013449B000B441B68591C1048BF
:100CB00013469B0013449B0003441960FB68DA6AE7
:100CC000094B1B68DB6A9A4207D30A4B4FF08052EC
:100CD0001A60BFF34F8FBFF36F8F09F01BF900BF8E
:100CE0001037BD4680BD00BF20F6002000F7002071
:100CF00024F6002004ED00E080B584B002AF184B6C
:100D000001930023009300234FF480721549164885
:100D1000FFF77CFB78607B68012B02D104F00CFDAF
:100D200078607B68012B14D14FF0200383F3118886
:100D3000BFF36F8FBFF34F8F3B600C4B4FF0FF3211
:100D40001A600B4B01221A600A4B00221A6009F04C
:100D500096F8094B1B6800BF0837BD4680BD00BF31
:100D60001CF70020889D0001FD18000118F70020E5
:100D700004F70020FCF60020A401012080B582B019
:100D800000AF4FF0200383F31188BFF36F8FBFF3E1
:100D90004F8F7B60044B00221A6009F09BF800BF64
:100DA0000837BD4680BD00BF04F7002080B400AF07
:100DB000044B1B680133034A136000BFBD465DF856
:100DC000047B704720F7002080B485B000AF00237B
:100DD000BB6001237B60144B1B687A689A4201D286
:100DE0000123BB60114B1B68DB6A002B02D0002380
:100DF000FB6012E00E4B1B68012B02D90023FB6045
:100E00000BE0BB68002B02D00023FB6005E0094B20
:100E10001A68094B1B68D31AFB60FB681846143725
:100E2000BD465DF8047B704700F7002020F60020E7
:100E300024F6002018F70020FCF6002080B586B0CC
:100E400000AF00237B6100233B6109F04AF8684B47
:100E50001B68013B664A1360654B1B68002B40F022
:100E6000C080644B1B68002B00F0BB808AE0624BA3
:100E7000DB68DB687B617B699B6ABB607B69DB69E4
:100E80007A69126A9A607B691B6A7A69D2695A60C8
:100E9000BB685A687B6918339A4203D17B691A6A26
:100EA000BB685A607B6900229A62BB681B685A1E45
:100EB000BB681A607B695B697B607B699B687A6948
:100EC000D2689A607B69DB687A6992685A607B684D
:100ED0005A687B6904339A4203D17B69DA687B687C
:100EE0005A607B6900225A617B681B685A1E7B68C6
:100EF0001A607B69DB6A01229A40404B1B681343EE
:100F00003E4A13607B69DA6A3D4913469B001344ED
:100F10009B000B4404331B683B607B693A689A6012
:100F20003B689A687B69DA603B689B687A6904323F
:100F30005A607B691A1D3B689A607B69DA6A1346BE
:100F40009B0013449B002E4A1A447B695A617B69BB
:100F5000DA6A2B4913469B0013449B000B441B6821
:100F6000591C274813469B0013449B0003441960F7
:100F70007B69DA6A234B1B68DB6A9A4202D3224BF5
:100F800001221A601C4B1B68002B7FF470AF7B6939
:100F9000002B01D000F092FD1C4B1B68FB60FB682E
:100FA000002B10D000F0BCF80346002B02D0164BEB
:100FB00001221A60FB68013BFB60FB68002BF1D14A
:100FC000124B00221A60104B1B68002B09D0012322
:100FD0003B610F4B4FF080521A60BFF34F8FBFF34E
:100FE0006F8F08F097FF3B6918461837BD4680BDE4
:100FF00020F70020F8F60020B8F6002000F70020C7
:1010000024F6002020F600200CF7002008F700202E
:1010100004ED00E080B483B000AF054B1B687B603B
:101020007B6818460C37BD465DF8047B704700BFEF
:10103000FCF6002080B483B000AF00237B60054B3A
:101040001B683B603B6818460C37BD465DF8047B67
:10105000704700BFFCF6002080B400AF034B1B6854
:101060001846BD465DF8047B704700BFF8F60020C7
:1010700080B485B000AF78607B68002B02D1064B4E
:101080001B6800E07B68FB60FB683433184614374C
:10109000BD465DF8047B704720F6002080B582B025
:1010A00000AF78600E4B1A687B681A440D4B1B68C2
:1010B0009A420BD108F015FF0B4B1B6801330A4A0B
:1010C000136008F027FF7B68013B7B60044B1A68C4
:1010D0007B681344024A136000BF0837BD4680BDD9
:1010E000FCF6002018F7002008F7002080B584B037
:1010F00000AF7860FFF75AFE08F0F3FE074B1A685E
:101100007B681344054A136008F004FFFFF796FE5E
:10111000F860FB6818461037BD4680BD08F7002010
:1011200080B588B000AF0023FB61794B1B68002BB2
:1011300040F0E280774B1B680133BB61754ABB69A5
:101140001360BB69002B10D1734B1B687B61734B21
:101150001B68714A1360714A7B691360704B1B688E
:1011600001336F4A136000F0A9FC6E4B1B68BA692B
:101170009A42C0F0A680684B1B681B68002B04D104
:10118000684B4FF0FF321A609BE0634B1B68DB68D3
:10119000DB683B613B695B68FB60BA69FB689A424C
:1011A00003D2604AFB6813608BE03B695B69BB60FC
:1011B0003B699B683A69D2689A603B69DB683A6927
:1011C00092685A60BB685A683B6904339A4203D1FB
:1011D0003B69DA68BB685A603B6900225A61BB68A8
:1011E0001B685A1EBB681A603B699B6A002B1ED0A5
:1011F0003B699B6A7B603B69DB693A69126A9A606A
:101200003B691B6A3A69D2695A607B685A683B69D4
:1012100018339A4203D13B691A6A7B685A603B696A
:1012200000229A627B681B685A1E7B681A603B69C1
:10123000DB6A01229A403C4B1B6813433A4A136015
:101240003B69DA6A394913469B0013449B000B44FF
:1012500004331B683B603B693A689A603B689A6854
:101260003B69DA603B689B683A6904325A603B69C3
:101270001A1D3B689A603B69DA6A13469B00134467
:101280009B002A4A1A443B695A613B69DA6A27493A
:1012900013469B0013449B000B441B68591C2348B6
:1012A00013469B0013449B00034419603B69DA6AB0
:1012B0001F4B1B68DB6A9A427FF65DAF0123FB611F
:1012C00059E71B4B1B68DA6A184913469B00134405
:1012D0009B000B441B68012B01D90123FB61154BBB
:1012E0001B68002B01D11DF09EFA134B1B68002BCD
:1012F00009D00123FB6106E00E4B1B6801330D4A48
:1013000013601DF090FAFB6918462037BD4680BD7A
:1013100020F70020FCF60020B0F60020B4F60020F4
:1013200010F7002018F7002000F7002024F6002016
:1013300020F6002008F700200CF7002080B586B0CA
:1013400000AF2F4B1B68002B03D02E4B01221A60DD
:1013500051E02C4B00221A602B4B1B681B6B7B61EE
:101360004FF0A5333B617B691B683A699A4211D102
:101370007B6904331B683A699A420BD17B69083355
:101380001B683A699A4205D17B690C331B683A693C
:101390009A4208D01C4B1A681B4B1B683433194601
:1013A00010461DF01DFA194B1B687B607B68B3FA71
:1013B00083F3FB70FB78C3F11F03FB60FA681346ED
:1013C0009B0013449B00124A1344BB60BB685B68DC
:1013D0005A68BB685A60BB685A68BB6808339A424F
:1013E00004D1BB685B685A68BB685A60BB685B68BD
:1013F000DB68054A136000BF1837BD4680BD00BFDB
:1014000020F700200CF7002020F6002000F7002035
:1014100024F6002080B582B000AF78603960074BB9
:101420001B6818331946786811F0B1F90121386842
:1014300001F08AF900BF0837BD4680BD20F60020C4
:1014400080B586B000AFF860B9607A60174B1B6852
:10145000BA6842F000429A61FB685B687B61134B9B
:101460001B687A69DA61114B1B687A6992681A62A3
:101470000E4B1A687B699B6818325A600B4B1B68CD
:1014800003F118027B699A60084B1B68FA689A623C
:10149000FB681B685A1CFB681A600121786801F020
:1014A00053F900BF1837BD4680BD00BF20F60020AD
:1014B00080B586B000AFF860B9607A60FB685B68A1
:1014C0007B61164B1B687A69DA61144B1B687A6979
:1014D00092681A62114B1A687B699B6818325A60CD
:1014E0000E4B1B6803F118027B699A600B4B1B685B
:1014F000FA689A62FB681B685A1CFB681A607B6872
:10150000002B02D04FF0FF33BB607968B86801F060
:101510001BF900BF1837BD4680BD00BF20F6002074
:1015200080B588B000AF78607B68DB68DB68BB6142
:10153000BB699B6A7B61BB69DB69BA69126A9A60A5
:10154000BB691B6ABA69D2695A607B695A68BB6910
:1015500018339A4203D1BB691A6A7B695A60BB6926
:1015600000229A627B691B685A1E7B691A604A4B8B
:101570001B68002B60D1BB695B693B61BB699B68E1
:10158000BA69D2689A60BB69DB68BA6992685A60C6
:101590003B695A68BB6904339A4203D1BB69DA6874
:1015A0003B695A60BB6900225A613B691B685A1E3D
:1015B0003B691A60BB69DB6A01229A40374B1B68A2
:1015C0001343364A1360BB69DA6A354913469B00F8
:1015D00013449B000B4404331B68FB60BB69FA682F
:1015E0009A60FB689A68BB69DA60FB689B68BA69B5
:1015F00004325A60BB691A1DFB689A60BB69DA6ADB
:1016000013469B0013449B00254A1A44BB695A6148
:10161000BB69DA6A224913469B0013449B000B44C2
:101620001B68591C1E4813469B0013449B0003442F
:10163000196000F043FA1BE01A4B5B68BB60BB69A2
:10164000BA68DA61BB689A68BB691A62BB689B6852
:10165000BA6918325A60BB6903F11802BB689A6014
:10166000BB69104A9A620F4B1B6801330D4A136025
:10167000BB69DA6A0C4B1B68DB6A9A4205D9012305
:10168000FB610A4B01221A6001E00023FB61FB6948
:1016900018462037BD4680BD20F7002000F7002007
:1016A00024F60020B8F6002020F600200CF70020D9
:1016B00080B586B000AF786039603B6843F0004287
:1016C0007B681A607B68DB687B617B681B693B61B8
:1016D0007B685B687A6892689A607B689B687A68C6
:1016E00052685A603B695B687A689A4203D17B68AA
:1016F0009A683B695A607B6800221A613B691B68E3
:101700005A1E3B691A6000F0D9F97B695B69FB607E
:101710007B699B687A69D2689A607B69DB687A69C1
:1017200092685A60FB685A687B6904339A4203D115
:101730007B69DA68FB685A607B6900225A61FB6842
:101740001B685A1EFB681A607B69DB6A01229A409B
:10175000244B1B681343234A13607B69DA6A2249CE
:1017600013469B0013449B000B4404331B68BB606F
:101770007B69BA689A60BB689A687B69DA60BB6803
:101780009B687A6904325A607B691A1DBB689A604B
:101790007B69DA6A13469B0013449B00124A1A4481
:1017A0007B695A617B69DA6A0F4913469B001344CF
:1017B0009B000B441B68591C0B4813469B001344A9
:1017C0009B00034419607B69DA6A084B1B68DB6A7B
:1017D0009A4202D9064B01221A6000BF1837BD4653
:1017E00080BD00BF00F7002024F6002020F6002076
:1017F0000CF7002080B582B000AF786008F071FB74
:10180000064B1A687B681A60054B1A687B685A6039
:1018100008F080FB00BF0837BD4680BD10F70020F0
:10182000FCF6002080B483B000AF7860064B1A68E5
:101830007B681A60054B1A687B685A6000BF0C37DA
:10184000BD465DF8047B704710F70020FCF60020D1
:1018500080B586B000AF7860396008F042FB1F4B5E
:101860001B683B617B685B683A69D31AFB603B6825
:101870001B68B3F1FF3F02D100237B6126E07B6848
:101880001A68174B1B689A420AD07B685B683A69F2
:101890009A4205D301237B613B6800221A6015E060
:1018A0003B681B68FA689A420BD23B681A68FB686F
:1018B000D21A3B681A607868FFF7B4FF00237B6197
:1018C00004E03B6800221A6001237B6108F022FBE0
:1018D0007B6918461837BD4680BD00BFFCF6002066
:1018E00010F7002080B400AF034B01221A6000BF44
:1018F000BD465DF8047B70470CF7002080B584B0CE
:1019000000AF786000F09EF8104B1B68012B07D9E0
:101910000F4B4FF080521A60BFF34F8FBFF36F8FA2
:101920001CF07AFFFFF750FAF860FB68042BE9D946
:10193000FFF73CFAFFF748FAF860FB68042B02D97E
:10194000F86808F059FBFFF779FADBE724F6002086
:1019500004ED00E080B483B000AF01233B600123BD
:10196000FB71134B1B68002B02D00023FB7117E0A7
:10197000104B1B68002B02D00023FB7110E00E4BB4
:101980001B68002B02D00023FB7109E00B4B1A6887
:101990000B4B19683B68CB1A9A4201D10223FB71A9
:1019A000FB7918460C37BD465DF8047B704700BFD5
:1019B000B8F600200CF7002008F70020E4F600201D
:1019C000F8F6002080B582B000AF00237B600CE009
:1019D0007A6813469B0013449B00124A134418462E
:1019E00010F084FE7B6801337B607B68042BEFD9A9
:1019F0000D4810F07BFE0D4810F078FE0C4810F0FA
:101A000075FE0C4810F072FE0B4810F06FFE0B4B89
:101A1000054A1A600A4B054A1A6000BF0837BD46DE
:101A200080BD00BF24F6002088F600209CF6002030
:101A3000B8F60020CCF60020E4F60020B0F6002036
:101A4000B4F6002080B582B000AF19E008F049FA82
:101A50000F4BDB68DB687B607B680433184610F053
:101A6000CFFE0C4B1B68013B0A4A13600A4B1B68F4
:101A7000013B094A136008F04DFA786800F00EF84F
:101A8000054B1B68002BE1D100BF0837BD4680BD68
:101A9000CCF60020F8F60020E0F6002080B582B0F9
:101AA00000AF78607B681B6B184607F0CBFF786847
:101AB00007F0C8FF00BF0837BD4680BD80B400AF47
:101AC0000A4B1B681B68002B04D1094B4FF0FF32F7
:101AD0001A6005E0054B1B68DB681B68044A13604D
:101AE00000BFBD465DF8047B704700BFB0F6002024
:101AF00018F7002080B483B000AF054B1B687B60F3
:101B00007B6818460C37BD465DF8047B704700BF04
:101B100020F6002080B483B000AF0B4B1B68002B75
:101B200002D101237B6008E0084B1B68002B02D127
:101B300002237B6001E000237B607B6818460C3742
:101B4000BD465DF8047B704704F7002020F70020B5
:101B500080B586B000AF78607B683B6100237B6115
:101B60007B68002B00F087803B69DA6A444B1B6876
:101B7000DB6A9A4276D23B699B69002B06DB404BBD
:101B80001B68DB6AC3F105023B699A613B695969CD
:101B90003B69DA6A13469B0013449B00394A13449D
:101BA000994257D13B690433184610F029FE034689
:101BB000002B0AD13B69DB6A012202FA03F3DA4304
:101BC000314B1B681340304A13602D4B1B68DA6A97
:101BD0003B69DA623B69DB6A01229A402A4B1B6847
:101BE0001343294A13603B69DA6A264913469B006E
:101BF00013449B000B4404331B68FB603B69FA6889
:101C00009A60FB689A683B69DA60FB689B683A698E
:101C100004325A603B691A1DFB689A603B69DA6AB4
:101C200013469B0013449B00164A1A443B695A61B1
:101C30003B69DA6A134913469B0013449B000B442B
:101C40001B68591C0F4813469B0013449B00034418
:101C5000196004E00A4B1B68DA6A3B69DA62012307
:101C60007B6108E03B695A6C054B1B68DB6A9A4252
:101C700001D201237B617B6918461837BD4680BDC0
:101C800020F6002024F6002000F7002080B586B062
:101C900000AF78607B683B6100237B617B68002B31
:101CA0006CD03B699B6C5A1E3B699A643B69DA6A4B
:101CB0003B695B6C9A4261D03B699B6C002B5DD1A8
:101CC0003B690433184610F09BFD0346002B0AD1F4
:101CD0003B69DB6A012202FA03F3DA432A4B1B68F1
:101CE0001340294A13603B695A6C3B69DA623B69CD
:101CF000DB6AC3F105023B699A613B69DB6A012239
:101D00009A40214B1B6813431F4A13603B69DA6AF0
:101D10001E4913469B0013449B000B4404331B686D
:101D2000FB603B69FA689A60FB689A683B69DA6015
:101D3000FB689B683A6904325A603B691A1DFB686C
:101D40009A603B69DA6A13469B0013449B000F4A72
:101D50001A443B695A613B69DA6A0C4913469B0095
:101D600013449B000B441B68591C084813469B00F6
:101D700013449B000344196001237B617B6918466F
:101D80001837BD4680BD00BF00F7002024F60020B4
:101D900080B588B000AF786039607B68BB61012393
:101DA0007B617B68002B00F08180BB695B6C3A68CB
:101DB0009A4202D93B68FB6102E0BB695B6CFB6144
:101DC000BB69DB6AFA699A4270D0BB699B6C7A691D
:101DD0009A426BD1BB69DB6A3B61BB69FA69DA6223
:101DE000BB699B69002B04DBFB69C3F10502BB697E
:101DF0009A61BB6959693A6913469B0013449B0079
:101E00002C4A1344994251D1BB690433184610F04F
:101E1000F7FC0346002B0AD1BB69DB6A012202FAF8
:101E200003F3DA43244B1B681340234A1360BB6956
:101E3000DB6A01229A40204B1B6813431E4A136041
:101E4000BB69DA6A1B4913469B0013449B000B4491
:101E500004331B68FB60BB69FA689A60FB689A6888
:101E6000BB69DA60FB689B68BA6904325A60BB6977
:101E70001A1DFB689A60BB69DA6A13469B0013441B
:101E80009B000C4A1A44BB695A61BB69DA6A09496A
:101E900013469B0013449B000B441B68591C0548C8
:101EA00013469B0013449B000344196000BF203776
:101EB000BD4680BD24F6002000F7002080B483B02A
:101EC00000AF094B1B689B697B60074B1B68DA6A94
:101ED000054B1B68C2F105029A617B6818460C37F6
:101EE000BD465DF8047B704720F6002080B400AF4B
:101EF000074B1B68002B04D0054B1B689A6C013202
:101F00009A64034B1B681846BD465DF8047B704716
:101F100020F6002080B586B000AFF860B9607A6026
:101F200007F0DFFF284B1A68FB6812339B0013444D
:101F30005B68002B15D1244B1A68FB68134450339F
:101F400001221A707B68002B0BD00121786800F009
:101F5000FBFB1E4B4FF080521A60BFF34F8FBFF355
:101F60006F8F07F0D7FF07F0BCFF174B1A68FB68AD
:101F700012339B0013445B687B617B69002B14D098
:101F8000BB68002B08D0104B1A68FB6812339B000B
:101F9000134400225A6008E00B4B19687B695A1EF3
:101FA000FB6812339B000B445A60074B1A68FB68AE
:101FB0001344503300221A7007F0ACFF7B691846B7
:101FC0001837BD4680BD00BF20F6002004ED00E0BC
:101FD00080B586B000AFF860B9607A603B6007F00A
:101FE00080FF344B1A68FB68134450331B78DBB214
:101FF000022B24D02F4B1A68FB6812339B0013442A
:102000005968BB68DB431940FB6812339B001344DB
:102010005960284B1A68FB681344503301221A7028
:102020003B6A002B0BD00121386A00F08DFB224B5C
:102030004FF080521A60BFF34F8FBFF36F8F07F0DE
:1020400069FF07F04EFF3B68002B08D0194B1A6858
:10205000FB6812339B0013445A683B681A60154BA7
:102060001A68FB68134450331B78DBB2022B02D092
:1020700000237B6110E00F4B1A68FB6812339B0052
:10208000134459687B68DB431940FB6812339B009B
:102090001344596001237B61064B1A68FB681344A3
:1020A000503300221A7007F035FF7B691846183745
:1020B000BD4680BD20F6002004ED00E080B58AB06A
:1020C00000AFF860B9607A60FB7001237B62FB6847
:1020D0003B6207F006FF3B6B002B07D03A6ABB68F8
:1020E00012339B0013445A683B6B1A603A6ABB6810
:1020F000134450331B78FB773A6ABB681344503360
:1021000002221A70FB78042B3FD801A252F823F068
:102110008B21000125210001432100015F210001E5
:102120006F2100013A6ABB6812339B0013445A685E
:102130007B681A43396ABB6812339B000B445A60B0
:1021400024E03A6ABB6812339B0013445B685A1C54
:10215000396ABB6812339B000B445A6016E03A6A36
:10216000BB6812339B0013447A685A600EE0FB7F11
:10217000022B07D03A6ABB6812339B0013447A687B
:102180005A6003E000237B6200E000BFFB7F012B6D
:102190006ED13B6A5B69BB613B6A9B683A6AD268F5
:1021A0009A603B6ADB683A6A92685A60BB695A680F
:1021B0003B6A04339A4203D13B6ADA68BB695A60CE
:1021C0003B6A00225A61BB691B685A1EBB691A60D0
:1021D0003B6ADB6A01229A40294B1B681343284A59
:1021E00013603B6ADA6A274913469B0013449B003D
:1021F0000B4404331B687B613B6A7A699A607B6994
:102200009A683B6ADA607B699B683A6A04325A6072
:102210003B6A1A1D7B699A603B6ADA6A13469B0027
:1022200013449B00174A1A443B6A5A613B6ADA6AB4
:10223000144913469B0013449B000B441B68591C14
:10224000104813469B0013449B0003441960FFF79A
:1022500035FC3B6ADA6A0C4B1B68DB6A9A4207D989
:102260000A4B4FF080521A60BFF34F8FBFF36F8F4E
:1022700007F050FE7B6A18462837BD4680BD00BF78
:1022800000F7002024F6002020F6002004ED00E0F6
:1022900080B48FB000AFF860B9607A60FB70012342
:1022A0007B63FB683B63EFF311824FF0200383F302
:1022B0001188BFF36F8FBFF34F8FBA617B61BB692A
:1022C000FB623B6C002B07D03A6BBB6812339B0060
:1022D00013445A683B6C1A603A6BBB681344503322
:1022E0001B7887F82B303A6BBB68134450330222BB
:1022F0001A70FB78042B41D801A252F823F000BFDA
:102300007D23000115230001332300014F23000129
:102310005F2300013A6BBB6812339B0013445A6879
:102320007B681A43396BBB6812339B000B445A60BD
:1023300025E03A6BBB6812339B0013445B685A1C60
:10234000396BBB6812339B000B445A6017E03A6B41
:10235000BB6812339B0013447A685A600FE097F809
:102360002B30022B07D03A6BBB6812339B0013440F
:102370007A685A6003E000237B6300E000BF97F8AF
:102380002B30012B40F08F804D4B1B68002B5ED112
:102390003B6B5B697B623B6B9B683A6BD2689A6074
:1023A0003B6BDB683A6B92685A607B6A5A683B6B9E
:1023B00004339A4203D13B6BDA687B6A5A603B6B09
:1023C00000225A617B6A1B685A1E7B6A1A603B6B4B
:1023D000DB6A01229A403B4B1B681343394A136066
:1023E0003B6BDA6A384913469B0013449B000B444D
:1023F00004331B683B623B6B3A6A9A603B6A9A689B
:102400003B6BDA603B6A9B683A6B04325A603B6B09
:102410001A1D3B6A9A603B6BDA6A13469B001344B1
:102420009B00294A1A443B6B5A613B6BDA6A264986
:1024300013469B0013449B000B441B68591C224805
:1024400013469B0013449B00034419601BE01F4B81
:102450005B68FB613B6BFA69DA61FB699A683B6B0D
:102460001A62FB699B683A6B18325A603B6B03F146
:102470001802FB699A603B6B144A9A62134B1B6803
:102480000133124A13603B6BDA6A114B1B68DB6A3B
:102490009A4208D97B6C002B02D07B6C01221A6017
:1024A0000C4B01221A60FB6A3B613B6983F3118884
:1024B0007B6B18463C37BD465DF8047B704700BF18
:1024C00020F7002000F7002024F60020B8F60020B6
:1024D00020F600200CF7002080B48FB000AFF86029
:1024E000B9607A60FB687B63EFF311824FF02003E1
:1024F00083F31188BFF36F8FBFF34F8FFA61BB6116
:10250000FB693B637A6BBB68134450331B7887F8D5
:102510002F307A6BBB681344503302221A707A6BE7
:10252000BB6812339B0013445B685A1C796BBB6811
:1025300012339B000B445A6097F82F30012B40F068
:102540008F804D4B1B68002B5ED17B6B5B69BB6240
:102550007B6B9B687A6BD2689A607B6BDB687A6B6B
:1025600092685A60BB6A5A687B6B04339A4203D103
:102570007B6BDA68BB6A5A607B6B00225A61BB6A6C
:102580001B685A1EBB6A1A607B6BDB6A01229A4089
:102590003A4B1B681343394A13607B6BDA6A38493C
:1025A00013469B0013449B000B4404331B687B625F
:1025B0007B6B7A6A9A607B6A9A687B6BDA607B6A6B
:1025C0009B687A6B04325A607B6B1A1D7B6A9A6037
:1025D0007B6BDA6A13469B0013449B00284A1A441B
:1025E0007B6B5A617B6BDA6A254913469B00134467
:1025F0009B000B441B68591C214813469B00134445
:102600009B00034419601BE01E4B5B683B627B6BC5
:102610003A6ADA613B6A9A687B6B1A623B6A9B682A
:102620007A6B18325A607B6B03F118023B6A9A602E
:102630007B6B144A9A62134B1B680133114A136077
:102640007B6BDA6A104B1B68DB6A9A4208D97B689D
:10265000002B02D07B6801221A600C4B01221A6009
:102660003B6B7B617B6983F3118800BF3C37BD46C0
:102670005DF8047B704700BF20F7002000F70020C2
:1026800024F60020B8F6002020F600200CF70020E9
:1026900080B584B000AF786039607B68002B02D1D0
:1026A000104B1B6800E07B68BB6007F01AFCBA683F
:1026B0003B68134450331B78DBB2022B08D1BA6855
:1026C0003B681344503300221A700123FB6001E081
:1026D0000023FB6007F01EFCFB6818461037BD4660
:1026E00080BD00BF20F6002080B586B000AFF86046
:1026F000B9607A60FB68002B02D1124B1B6800E0C6
:10270000FB687B6107F0EDFB7A69BB6812339B00C5
:1027100013445B683B617A69BB6812339B001344C6
:102720005A687B68DB431A407969BB6812339B00A7
:102730000B445A6007F0EEFB3B6918461837BD465C
:1027400080BD00BF20F6002080B586B000AF786065
:102750003960364B1B687B61354B1B680433184668
:1027600010F04EF80346002B0BD1314B1B68DB6A8F
:10277000012202FA03F3DA432E4B1B6813402D4A61
:1027800013607B68B3F1FF3F24D13B68002B21D05D
:10279000294B5B683B61264B1B683A699A60244B66
:1027A0001B683A699268DA60214B1A683B699B683A
:1027B00004325A601E4B1B681A1D3B699A601C4B01
:1027C0001B681D4A5A611C4B1B6801331A4A13606F
:1027D00000BF26E07A697B681344FB60144B1B68DA
:1027E000FA685A60FA687B699A4209D2134B1A68F0
:1027F0000F4B1B680433194610460FF0C8FF10E05A
:102800000F4B1A680A4B1B680433194610460FF029
:10281000BEFF0C4B1B68FA689A4202D2094AFB6859
:10282000136000BF1837BD4680BD00BFFCF6002016
:1028300020F6002000F70020E4F60020B4F6002087
:10284000B0F6002018F7002080B584B000AF7860A3
:1028500039600123FB607B68BB60BB68002B5DD0E7
:10286000BB68DB6B002B59D0BB681A6CBB68DB6B99
:102870000021A3FB0223002B00D001210B46002BDB
:102880004CD107F02EFBBB681A68BB68DB6BB968DC
:10289000096C01FB03F31A44BB689A60BB68002211
:1028A0009A63BB681A68BB685A60BB681A68BB68E1
:1028B000DB6B013BB968096C01FB03F31A44BB688D
:1028C000DA60BB68FF2283F84420BB68FF2283F8EC
:1028D00045203B68002B14D1BB681B69002B1AD024
:1028E000BB6810331846FEF71BFE0346002B12D0C0
:1028F0000E4B4FF080521A60BFF34F8FBFF36F8FB4
:1029000009E0BB68103318460FF0F0FEBB682433B3
:1029100018460FF0EBFE07F0FDFA01E00023FB6024
:10292000FB6818461037BD4680BD00BF04ED00E0CF
:1029300080B58AB002AFF860B9601346FB7100231E
:10294000FB61FB68002B2DD00021BA68FB68A3FB5C
:102950000223002B00D001210B46002B22D1FB6863
:10296000BA6802FB03F313F14D0F1BD8FB68BA687A
:1029700002FB03F3BB61BB694C33184606F0C4FF8E
:10298000F861FB69002B0DD0FB697B617B694C33DF
:102990007B61FA79FB69009313467A69B968F86834
:1029A00000F005F8FB6918462037BD4680BD80B5AC
:1029B00084B000AFF860B9607A60FB70BB68002B30
:1029C00003D1BB69BA691A6002E0BB697A681A6010
:1029D000BB69FA68DA63BB69BA681A640121B8692D
:1029E000FFF732FFBB6900229A6400BF1037BD4673
:1029F00080BD80B582B000AF78607B68002B0ED0C0
:102A00007B6800229A607B6800221A607B68002243
:102A1000DA60002300220021786800F03BF800BF54
:102A20000837BD4680BD80B586B000AF0346FB7158
:102A300001237B6100233B61FB791A463969786980
:102A4000FFF776FFF860F868FFF7D3FFFB681846DA
:102A50001837BD4680BD80B584B000AF786039605E
:102A60000023FB607B68002B0FD03A687B689A429A
:102A70000BD8022200217868FFF75AFFF860FB6844
:102A8000002B02D0FB683A689A63FB68184610373F
:102A9000BD4680BD80B58AB000AFF860B9607A608D
:102AA0003B6000237B62FB683B6207F01AFA3B6ADB
:102AB0009A6B3B6ADB6B9A4202D33B68022B45D18F
:102AC0003B6A9B6BFB613A68B968386A00F08AFC24
:102AD000B8613B6A9B6C002B14D03B68022B02D17F
:102AE000FB69002B2ED1386A00F074FE0346002BE0
:102AF00028D04A4B4FF080521A60BFF34F8FBFF37C
:102B00006F8F1FE03B6A5B6A002B10D03B6A243357
:102B10001846FEF705FD0346002B13D03F4B4FF040
:102B200080521A60BFF34F8FBFF36F8F0AE0BB690B
:102B3000002B07D0394B4FF080521A60BFF34F8FF4
:102B4000BFF36F8F07F0E6F9012363E07B68002B8A
:102B500003D107F0DFF900235CE07B6A002B06D18C
:102B600007F110031846FEF75DFE01237B6207F0B4
:102B7000D1F9FEF71BF907F0B4F93B6A93F844303A
:102B80005BB2B3F1FF3F03D13B6A002283F84420DC
:102B90003B6A93F845305BB2B3F1FF3F03D13B6A28
:102BA000002283F8452007F0B5F93A1D07F110031C
:102BB00011461846FEF74CFE0346002B24D1386A16
:102BC00000F02BFD0346002B18D03B6A10337A68C7
:102BD00011461846FEF71EFC386A00F093FCFEF71B
:102BE0002DF90346002B7FF460AF0C4B4FF0805261
:102BF0001A60BFF34F8FBFF36F8F56E7386A00F04C
:102C000081FCFEF71BF950E7386A00F07BFCFEF709
:102C100015F9002318462837BD4680BD04ED00E0B5
:102C200080B58EB000AFF860B9607A603B60FB6839
:102C30003B63EFF311824FF0200383F31188BFF35E
:102C40006F8FBFF34F8FFA61BB61FB69FB623B6B18
:102C50009A6B3B6BDB6B9A4202D33B68022B4ED1E3
:102C60003B6B93F8453087F82B303B6B9B6B7B625B
:102C70003A68B968386B00F0B5FB97F92B30B3F1BF
:102C8000FF3F29D13B6B9B6C002B12D03B68022B82
:102C900002D17B6A002B2FD1386B00F09BFD0346DD
:102CA000002B29D07B68002B26D07B6801221A607C
:102CB00022E03B6B5B6A002B1ED03B6B2433184633
:102CC000FEF72EFC0346002B16D07B68002B13D09A
:102CD0007B6801221A600FE0FEF7BEF9386297F9AF
:102CE0002B303A6A9A4207D997F82B300133DBB27E
:102CF0005AB23B6B83F8452001237B6301E000233C
:102D00007B63FB6A7B617B6983F311887B6B18466D
:102D10003837BD4680BD80B58CB000AF7860396073
:102D20007B68BB62EFF311824FF0200383F31188BD
:102D3000BFF36F8FBFF34F8F7A613B617B697B621B
:102D4000BB6A9B6B3B62BB6ADB6B3A6A9A4242D2BC
:102D5000BB6A93F84530FB773B6A5A1CBB6A9A639F
:102D600097F91F30B3F1FF3F23D1BB6A9B6C002B57
:102D70000CD0B86A00F02EFD0346002B28D03B682B
:102D8000002B25D03B6801221A6021E0BB6A5B6AF8
:102D9000002B1DD0BB6A24331846FEF7C1FB034647
:102DA000002B15D03B68002B12D03B6801221A6023
:102DB0000EE0FEF751F9B86197F91F30BA699A42EF
:102DC00006D9FB7F0133DBB25AB2BB6A83F84520D8
:102DD0000123FB6201E00023FB627B6AFB60FB686E
:102DE00083F31188FB6A18463037BD4680BD80B535
:102DF0008AB000AFF860B9607A6000237B62FB683C
:102E00003B6207F06EF83B6A9B6BFB61FB69002B32
:102E10001FD0B968386A00F04FFBFB695A1E3B6A45
:102E20009A633B6A1B69002B0FD03B6A103318462C
:102E3000FEF776FB0346002B07D03D4B4FF0805248
:102E40001A60BFF34F8FBFF36F8F07F063F8012352
:102E500069E07B68002B03D107F05CF8002362E097
:102E60007B6A002B06D107F114031846FEF7DAFC43
:102E700001237B6207F04EF8FDF798FF07F031F869
:102E80003B6A93F844305BB2B3F1FF3F03D13B6A36
:102E9000002283F844203B6A93F845305BB2B3F1DB
:102EA000FF3F03D13B6A002283F8452007F032F848
:102EB0003A1D07F1140311461846FEF7C9FC0346F4
:102EC000002B23D1386A00F07CFB0346002B17D07F
:102ED0003B6A24337A6811461846FEF79BFA386A33
:102EE00000F010FBFDF7AAFF0346002B89D1104B21
:102EF0004FF080521A60BFF34F8FBFF36F8F80E7A0
:102F0000386A00F0FFFAFDF799FF7AE7386A00F0B7
:102F1000F9FAFDF793FF386A00F053FB0346002BE4
:102F20003FF46FAF002318462837BD4680BD00BF71
:102F300004ED00E080B58AB000AF7860396000230E
:102F40007B627B68FB6100233B6206F0CAFFFB6982
:102F50009B6BBB61BB69002B24D0BB695A1EFB690C
:102F60009A63FB691B68002B04D1FEF7BFFF024682
:102F7000FB699A60FB691B69002B0FD0FB6910335A
:102F80001846FEF7CDFA0346002B07D04C4B4FF006
:102F900080521A60BFF34F8FBFF36F8F06F0BAFFF6
:102FA000012389E03B68002B03D106F0B3FF002327
:102FB00082E07B6A002B06D107F10C031846FEF76E
:102FC00031FC01237B6206F0A5FFFDF7EFFE06F062
:102FD00088FFFB6993F844305BB2B3F1FF3F03D144
:102FE000FB69002283F84420FB6993F845305BB20B
:102FF000B3F1FF3F03D1FB69002283F8452006F0BF
:1030000089FF3A4607F10C0311461846FEF720FCEB
:103010000346002B32D1F86900F0D3FA0346002BA7
:1030200026D0FB691B68002B09D106F05AFFFB690B
:103030009B681846FEF78CFD386206F06BFFFB6953
:1030400024333A6811461846FEF7E4F9F86900F0AF
:1030500059FAFDF7F3FE0346002B7FF476AF184BC9
:103060004FF080521A60BFF34F8FBFF36F8F6CE742
:10307000F86900F047FAFDF7E1FE66E7F86900F04D
:1030800041FAFDF7DBFEF86900F09BFA0346002BDE
:103090003FF45BAF3B6A002B0DD006F022FFF869CE
:1030A00000F088F97861FB699B6879691846FEF73A
:1030B0006FFE06F02FFF002318462837BD4680BD5F
:1030C00004ED00E080B58AB000AFF860B9607A60C6
:1030D00000237B62FB683B6206F003FF3B6A9B6B4D
:1030E000FB61FB69002B21D03B6ADB68BB61B968DF
:1030F000386A00F0E1F93B6ABA69DA603B6A5B6AF8
:10310000002B0FD03B6A24331846FEF709FA03461A
:10311000002B07D03C4B4FF080521A60BFF34F8F0B
:10312000BFF36F8F06F0F6FE012369E07B68002B8A
:1031300003D106F0EFFE002362E07B6A002B06D18C
:1031400007F110031846FEF76DFB01237B6206F0C2
:10315000E1FEFDF72BFE06F0C4FE3B6A93F8443017
:103160005BB2B3F1FF3F03D13B6A002283F84420F6
:103170003B6A93F845305BB2B3F1FF3F03D13B6A42
:10318000002283F8452006F0C5FE3A1D07F1100322
:1031900011461846FEF75CFB0346002B23D1386A24
:1031A00000F00FFA0346002B17D03B6A24337A68ED
:1031B00011461846FEF72EF9386A00F0A3F9FDF71C
:1031C0003DFE0346002B87D10F4B4FF080521A6013
:1031D000BFF34F8FBFF36F8F7EE7386A00F092F92D
:1031E000FDF72CFE78E7386A00F08CF9FDF726FE33
:1031F000386A00F0E6F90346002B3FF46DAF002378
:1032000018462837BD4680BD04ED00E080B58EB07D
:1032100000AFF860B9607A60FB683B63EFF311823E
:103220004FF0200383F31188BFF36F8FBFF34F8FED
:10323000FA61BB61FB69FB623B6B9B6BBB62BB6A68
:10324000002B37D03B6B93F8443087F82730B968B0
:10325000386B00F031F9BB6A5A1E3B6B9A6397F9E1
:103260002730B3F1FF3F12D13B6B1B69002B1ED0FF
:103270003B6B10331846FEF753F90346002B16D06C
:103280007B68002B13D07B6801221A600FE0FDF7EA
:10329000E3FE386297F927303A6A9A4207D997F8DD
:1032A00027300133DBB25AB23B6B83F84420012351
:1032B0007B6301E000237B63FB6A7B617B6983F3B3
:1032C00011887B6B18463837BD4680BD80B58AB003
:1032D00000AF786039607B683B62EFF311824FF09A
:1032E000200383F31188BFF36F8FBFF34F8F7A6191
:1032F0003B617B69FB613B6A9B6B002B0CD03B6A9B
:10330000DB68BB613968386A00F0D6F83B6ABA6995
:10331000DA6001237B6201E000237B62FB69FB60D2
:10332000FB6883F311887B6A18462837BD4680BD49
:1033300080B584B000AF786006F0D3FD7B689B6BEE
:10334000FB6006F0E7FDFB6818461037BD4680BD00
:1033500080B584B000AF78607B68FB6006F0C1FD8B
:10336000FB68DA6BFB689B6BD31ABB6006F0D2FD7F
:10337000BB6818461037BD4680BD80B485B000AF2D
:1033800078607B68FB60FB689B6BBB60BB68184622
:103390001437BD465DF8047B704780B584B000AF3C
:1033A00078607B68FB60F86806F04CFB00BF103764
:1033B000BD4680BD80B485B000AF78607B685B6A35
:1033C000002B06D07B681B6B1B68C3F10503FB60F9
:1033D00001E00023FB60FB6818461437BD465DF82A
:1033E000047B704780B586B000AFF860B9607A6042
:1033F00000237B61FB689B6B3B61FB681B6C002BB4
:103400000DD1FB681B68002B4DD1FB689B681846EB
:10341000FEF73CFC7861FB6800229A6043E07B6821
:10342000002B19D1FB685868FB681B6C1A46B968F9
:1034300026F050FFFB685A68FB681B6C1A44FB6857
:103440005A60FB685A68FB689B689A422BD3FB68FA
:103450001A68FB685A6026E0FB68D868FB681B6C3A
:103460001A46B96826F036FFFB68DA68FB681B6C01
:103470005B421A44FB68DA60FB68DA68FB681B6829
:103480009A4207D2FB689A68FB681B6C5B421A443D
:10349000FB68DA607B68022B05D13B69002B02D008
:1034A0003B69013B3B613B695A1CFB689A637B6942
:1034B00018461837BD4680BD80B582B000AF786031
:1034C00039607B681B6C002B18D07B68DA687B68DE
:1034D0001B6C1A447B68DA607B68DA687B689B68DF
:1034E0009A4203D37B681A687B68DA607B68D96884
:1034F0007B681B6C1A46386826F0ECFE00BF083764
:10350000BD4680BD80B584B000AF786006F0E9FCB0
:103510007B6893F84530FB731EE07B689B6C002B47
:1035200008D0786800F056F90346002B10D0FEF75B
:10353000D9F90DE07B685B6A002B12D07B682433DD
:103540001846FDF7EDFF0346002B01D0FEF7CAF940
:10355000FB7B013BDBB2FB7397F90F30002BDCDC0C
:1035600000E000BF7B68FF2283F8452006F0D2FC14
:1035700006F0B7FC7B6893F84430BB7311E07B68BE
:103580001B69002B12D07B6810331846FDF7C8FF6B
:103590000346002B01D0FEF7A5F9BB7B013BDBB254
:1035A000BB7397F90E30002BE9DC00E000BF7B68AD
:1035B000FF2283F8442006F0ADFC00BF1037BD4663
:1035C00080BD80B584B000AF786006F08AFC7B686F
:1035D0009B6B002B02D10123FB6001E00023FB6009
:1035E00006F098FCFB6818461037BD4680BD80B4D5
:1035F00085B000AF78607B68BB60BB689B6B002BBD
:1036000002D10123FB6001E00023FB60FB68184648
:103610001437BD465DF8047B704780B584B000AFB9
:10362000786006F05EFC7B689A6B7B68DB6B9A4285
:1036300002D10123FB6001E00023FB6006F06AFC7D
:10364000FB6818461037BD4680BD80B485B000AF1A
:1036500078607B68BB60BB689A6BBB68DB6B9A4227
:1036600002D10123FB6001E00023FB60FB681846E8
:103670001437BD465DF8047B704780B586B000AF57
:10368000F860B9607A60FB687B6106F02AFC7B69B0
:1036900093F844305BB2B3F1FF3F03D17B69002262
:1036A00083F844207B6993F845305BB2B3F1FF3F68
:1036B00003D17B69002283F8452006F02BFC7B694F
:1036C0009B6B002B06D17B6924337A68B968184656
:1036D000FDF7EEFE7869FFF715FF00BF1837BD460E
:1036E00080BD80B584B000AF786000220421786886
:1036F000FFF71EF9F860FB6818461037BD4680BD1D
:1037000080B584B000AF7860396006F0EAFB7B6872
:103710009B6C002B02D00023FB600BE07B689B6B53
:10372000002B02D00023FB6004E07B683A689A64B7
:103730000123FB6006F0EEFBFB6818461037BD4620
:1037400080BD80B584B000AF786039607B68BB60B5
:10375000BB689B6C3A689A4202D00023FB600FE082
:10376000BB689B6B002B02D00023FB6008E006F0D7
:10377000B8FBBB6800229A6406F0CCFB0123FB6017
:10378000FB6818461037BD4680BD80B584B000AFD9
:10379000786039600023FB6007F10C033A68194632
:1037A0007868FFF724FBFB6818461037BD4680BDDC
:1037B00080B584B000AF78600023FB6007F10C0394
:1037C000002219467868FFF721FDFB68184610377C
:1037D000BD4680BD80B586B000AF78607B689B6CCD
:1037E0003B6100237B613B699A6B3B69DB6B9A42CF
:1037F0002DD23B6993F84530FB733B1D00221946DF
:103800003869FFF7EFFD786197F90F30B3F1FF3FAB
:103810000ED13B695B6A002B19D03B6924331846F3
:10382000FDF77EFE0346002B11D001237B610EE0E5
:10383000FDF712FCB86097F90F30BA689A4206D9C2
:10384000FB7B0133DBB25AB23B6983F845207B69CD
:1038500018461837BD4680BD08B5044B186818B126
:10386000804780F00100C0B208BD00BF08F2002010
:1038700009B91046704780B1037883EA122383EABE
:10388000131343EA022282EA033282EA431292B21B
:1038900000B10130013989B2EAE7FF23EDE72DE9F4
:1038A000F04F85B081460E9E8A46904606B11E4472
:1038B00043449CB247465546A74203D1012005B078
:1038C000BDE8F08F95B36A4610232946484609F0B3
:1038D00057F9BDF80420944208D9BDF806301344C6
:1038E0009BB29F4202D29C4203D91F46BDF80A50A8
:1038F000E8E79742A4EB020128BFE31B89B234BF7B
:103900000B469BB2A4EB030432BFBDF80AB0474696
:10391000D346A4B246B110352944F61AC91A324624
:1039200089B2484609F02CF95D46C5E72846C6E746
:103930002DE9F74FD4889688DFF8588082468B4669
:1039400044F307254FF6FF77002D03DA384603B01E
:10395000BDE8F08F1AD0A4F580741FFA84F94FF4F3
:103960008074CDF800802346324659465046FFF712
:1039700096FF38B13A4621464046FFF779FF264484
:10398000B6B20746013D6DB24C46DDE7002CDDD0F6
:10399000A146E6E70CF2002010B5094C94F80401AA
:1039A00009F08CF94FF40052002194F8040109F059
:1039B000AFF918B14FF48073A4F8063110BD00BF01
:1039C00008F200202DE9F041094C05460E46174645
:1039D00013460A46014694F8040109F007F93B46EC
:1039E0003246294694F80401BDE8F04109F0DEB9F9
:1039F00008F2002003292CD8DFE801F002091B237C
:103A0000184BB3F806211044A3F806017047154A75
:103A1000B2F80631184480B2C11C4FF6FC730B405B
:103A2000984203D90430A2F806017047A2F8063183
:103A300070470C4AB2F806310F33184420F00F00DB
:103A4000F1E7084AB2F806313F33184420F03F004E
:103A5000E9E74FF0200383F31188BFF36F8FBFF3C3
:103A60004F8FFEE708F200204FF0200383F3118808
:103A7000BFF36F8FBFF34F8FFEE770B50C4A92F81C
:103A800008410023D9B28C4201D800200BE05D1C14
:103A90009B00D118B1F80961864207D1B1F80B211A
:103AA00012B10448184470BDFFF7DEFF2B46E9E76A
:103AB00008F2002011F3002008B5FFF7DEFF00B187
:103AC000408808BD10B50446FFF7D7FF40B14FF05E
:103AD000200383F31188BFF36F8FBFF34F8FFEE78F
:103AE000094B93F80801020601D5FFF7BDFF421C00
:103AF00083F8082103EB800203F20913A2F80941BD
:103B000003EB800010BD00BF08F2002008B5FFF7EE
:103B1000B4FF08B9FFF7A8FF064A92F80831013B45
:103B2000DBB282F8083102EB8303D3F8093103607A
:103B300008BD00BF08F200202DE9F041244CB4F884
:103B40000A33B4F80C6303449BB204F20E37FF2B24
:103B50000546A4F80A3307EB060004F104080AD866
:103B60002A464146354426F0B5FB0126A4F80C53FD
:103B70003046BDE8F081C6F58072414626F0AAFBCA
:103B80004FF480723946B4F80601FFF71BFF064672
:103B90000028EDD000214FF48070FFF72BFFB4F820
:103BA0000A53B4F80C13A5F580750023ADB2A4F840
:103BB0000C33A4F80A53002DDAD0C1F580712A46DF
:103BC00018FA81F1384626F085FBA4F80C53CFE7AC
:103BD00008F200207FB545F24143ADF806300D4BA9
:103BE000CDE902300C4BC043B3F80E3404904FF6CD
:103BF000FF7210210DF10600ADF81430FFF738FE0A
:103C00001222ADF8040001A90020FFF7DBFE07B087
:103C10005DF804FB534E763208F200202DE9F04F98
:103C2000724C94F8047100258FB0122309AA29461A
:103C30003846A4F81054A4F81254A4F80C53A4F86D
:103C40000A5308F09DFF0B9B039394F80431013352
:103C5000DBB2012B94BF84F8043184F8045194F84A
:103C60000431BB4208D14FF0200383F31188BFF326
:103C70006F8FBFF34F8FFEE7FFF78EFE0028E4D073
:103C80004FF0000ADFF8708180E004EB8A0910230E
:103C9000B9F80BB105AA5946384608F071FF00265D
:103CA000BDF81C50ADF81A5005AA59463846ADF873
:103CB0001860ADF81E60ADF82060FFF739FE4FF6D2
:103CC000FF72ADF814000E2105A8FFF7D1FDF02218
:103CD000ADF82200FF21464827F0F0F805AB03CBF2
:103CE0001035C8F80000C8F80410B4F80C2303CB52
:103CF000B4F80631C8F80800ADB21344B5F5807FBA
:103D0000C8F80C10A9F80B3119D8394B009332467A
:103D1000BDF81C3059463846FFF7C1FD50B1B4F824
:103D20000631B4F80C231344A9F80B312846FFF7E9
:103D300003FF38BB002420460FB0BDE8F08F1023EE
:103D4000B5F5807F2A4628BF4FF48072A2EB0309A5
:103D50001FFA89F943440292009332464B46594672
:103D60003846FFF79CFD0028E4D00298FFF7E4FEF8
:103D70000028DFD0029BED1A4E44ADB2B6B200234C
:103D8000002DDDD10AF101035FFA83FA94F80831BE
:103D900053453FF67AAFB4F80A23FAB9B4F80A03E8
:103DA0000021FFF727FEB4F80631A4F80E34039B78
:103DB000581EFFF70FFF04460028BBD00221002049
:103DC000FFF718FE1222FF2109A827F077F8122327
:103DD00009AA0021384608F009FFACE70549B4F804
:103DE0000601FFF7EFFD0028D8D1A3E708F2002075
:103DF0001CF2002016F500200CF2002008B50A4B3A
:103E0000B3F80631C3F500539BB283420BD2FFF7E0
:103E100005FF40B94FF0200383F31188BFF36F8F84
:103E2000BFF34F8FFEE708BD08F200202DE9F84FE1
:103E3000344E0446351D89464FF48072FF212846D2
:103E400027F03CF8E1884FF6FF724846FFF710FD77
:103E50004FF6FF7220800E212046FFF709FD234612
:103E6000E08103CB7060696003CBA860E960E28801
:103E700002F11007BFB2B9F1000F07D0B7F5807F8C
:103E800017D8494606F1140026F024FAE2881E49A4
:103E9000B6F80601F02A28BFF022103292B2FFF7DE
:103EA00091FD8046E0881030022180B2FFF7A2FD2C
:103EB00025E04FF0000B1020B7F5807F3C4628BF6F
:103EC0004FF48074A4EB000A524609EB0B0128441E
:103ED00026F000FA22460C49B6F80601FFF772FDFB
:103EE000804660B1204602213F1BFFF783FDBFB231
:103EF0000BEB0A031FFA83FB0020002FDCD14046A6
:103F0000BDE8F88F08F200200CF200202DE9F04106
:103F1000674C00258EB084F808514FF0FF38FF271A
:103F2000122304AA0021284608F02AFEDDE90663D0
:103F30007340013326D19DF81230412B22D19DF8D8
:103F40001330542B1ED19DF81430532B1AD19DF8E9
:103F500015304E2B16D19DF81630762B12D19DF8C8
:103F60001730322B0ED14FF6FF7210210DF11200D7
:103F7000FFF77EFCBDF81030834203D146453CBFBD
:103F8000B0462F46E5B1FF2F2CD1002384F8043131
:103F90004FF6FF766FF00105FFF7FEFC90B994F83D
:103FA00004310133DBB2012B84F80431F4D94FF032
:103FB000200383F31188BFF36F8FBFF34F8FFEE7AA
:103FC0000125ADE72846A4F80E64FFF703FE00289C
:103FD000E5D0002384F80831012384F814340EB0AE
:103FE000BDE8F0814FF48073A4F8063138461223FF
:103FF00009AA002184F8047108F0C2FD4FF6FF778A
:10400000B4F80631B3F5005FE6D2BDF83420BA4209
:1040100001D09A4217D802210020FFF7EBFC0225BD
:1040200010236A46B4F8061194F8040108F0A8FDBC
:104030006A46102312F8011BFF291ED1013B9BB2D7
:10404000002BF7D1C8E70025EAE729461020FFF743
:10405000D1FCD5E7BDF802603046FFF70EFD10B980
:104060003046FFF72FFDB4F806314380BDF8083025
:10407000BBB93046FFF74AFD13E03A460E216846C9
:10408000FFF7F6FBBDF80E608642DED16A46B4F853
:10409000061194F80401FFF74BFCBDF80030834291
:1040A000D8D0BDF806001030294680B2CFE700BF57
:1040B00008F20020034B93F814340BB9FFF726BF26
:1040C000704700BF08F200202DE9FF478A461646D8
:1040D0009846054630B12BB1FFF7BEFB044650B100
:1040E000052045E04FF0200383F31188BFF36F8F65
:1040F000BFF34F8FFEE706F1100080B2FFF77EFEA0
:104100002846FFF7BAFC0746A8B3B0F802901D4D49
:1041100010236A46494695F8040108F031FDBDF8C0
:1041200008300AEB06029A4227D8B34218BFBDF8FE
:104130000C40ADF804A01CBF0134A4B2414668464F
:10414000ADF80C40ADF80660ADF80A90B5F8064140
:10415000FFF76CFE98B1BDF80C307C80642B4FF0FB
:10416000000005D9BDF80230A5F81034A5F81204F6
:1041700004B0BDE8F0870320FAE70420F8E7012047
:10418000F6E700BF08F2002073B50C4615461E4640
:10419000C0B1BBB1FFF790FC80B16319B3F5803FAC
:1041A00009D201460C4800962B46224690F804019D
:1041B000FFF775FB20B9042002B070BD0320FBE7B8
:1041C0000020F9E74FF0200383F31188BFF36F8FCE
:1041D000BFF34F8FFEE700BF08F200201FB540B9C4
:1041E0004FF0200383F31188BFF36F8FBFF34F8F1E
:1041F000FEE7FFF761FC48B101460648102390F83E
:1042000004016A4608F0BCFCBDF8080005B05DF882
:1042100004FB00BF08F200202DE9F04F431E1446B6
:104220009BB24FF6FD7293428BB080460E461DD86E
:10423000B1F5006F1AD8FFF73FFC00BBFFF70CFB8E
:10424000054648BB06F1100080B2FFF7D7FD8D4B45
:1042500093F90821002A80F2F7804FF0200383F3BE
:104260001188BFF36F8FBFF34F8FFEE74FF020032E
:1042700083F31188BFF36F8FBFF34F8FFEE7404684
:10428000FFF7ACFF86420FD07E4DA5F81084A5F84D
:104290001264FFF7E1FA08B105200EE0B5F8120448
:1042A00070B9B5F810347BB9002C00F0E6802346D5
:1042B000324600214046FFF767FF0BB0BDE8F08FA4
:1042C000103080B2FFF79AFDB5F81004FFF7D5FB68
:1042D00081460028E8D0B0F802B095F80401102318
:1042E00006AA594608F04CFCB5F81234EBB9BDF8F3
:1042F0002000103080B2FFF781FDB5F81004FFF701
:10430000BCFB814640B94FF0200383F31188BFF313
:104310006F8FBFF34F8FFEE7B0F802B095F804013E
:10432000102306AA594608F02BFCB5F81224B5F85C
:1043300006310493BDF8203022B19342ADF820201D
:1043400028BF13460022BDF82010ADF81C20ADF8A0
:104350001E10ADF82220ADF824200DF1180CBCE899
:104360000300DFF824A1686003F11007CAF8041005
:10437000BCE80300BFB2B7F5807FCAF80800CAF8EE
:104380000C1030D80AF11001009195F8040159463B
:10439000FFF785FA002872D006AB03CBBDF81E20CC
:1043A0006860CAF8041003CB1032CAF80800CAF8D3
:1043B0000C1092B25146B5F80601FFF703FB002836
:1043C0003FF472AFBDF81E001030022180B2FFF73B
:1043D00011FB2C4B0022A3F81024A3F81224049BF9
:1043E000A9F8023060E715461023CDF814A0B7F500
:1043F000807FBA4628BF4FF4807AAAEB030292B2BC
:104400000392059A1F48134400932A46039B90F891
:1044100004015946FFF743FA88B31B495246B1F8E5
:104420000201FFF7CFFA00283FF43EAF02215046C9
:10443000FFF7E0FA039BA7EB0A072B44BFB29DB23C
:104440000023002FD3D1C4E7214606A8B3F8067194
:10445000ADF81A80ADF81C50ADF81E60ADF82060C4
:10446000ADF82250ADF82450FFF7E0FC38B14046DB
:10447000FFF728FB478002201FE720461DE70120A9
:104480001BE700BF08F200200CF20020F0B5074641
:1044900085B040B94FF0200383F31188BFF36F8FCD
:1044A000BFF34F8FFEE7FFF707FB00283FD0FFF772
:1044B000D3F9044600283CD11020FFF79FFC4FF6AB
:1044C000FF720E216846ADF80020ADF80270CDE90C
:1044D0000144ADF80C40FFF7CBF96B46ADF80E0088
:1044E00003CB154D6860A96003CB2E1DE8602961E0
:1044F00010223146B5F80601FFF764FA68B91022B8
:10450000B5F8061195F8040108F002FC18B902216B
:104510001020FFF76FFA012007E002211020FFF7BB
:1045200069FA3846FFF7F2FA204605B0F0BD0320DD
:10453000FBE70520F9E700BF08F20020F8B50446C4
:10454000FFF78AF9054668BB64B108F0B7FB0120A4
:1045500008F0B4FB4FF400722946134826F0AEFC75
:10456000002020E0114D95F80871E3B29F420CD86D
:10457000FFF754FB0028F3D14FF0200383F3118899
:10458000BFF36F8FBFF34F8FFEE705EB8403B3F8E4
:104590000961304603F076F810B93046FFF7B6FAF5
:1045A0000134E2E70520F8BD11F3002008F20020F5
:1045B000014B1860704700BF08F2002008B5FFF7F4
:1045C0007BFA003018BF012008BD08B5FFF726FBB5
:1045D00040B94FF0200383F31188BFF36F8FBFF30F
:1045E0004F8FFEE708BD00BF80B58AB004AFF8600A
:1045F000B9607A603B607B68012B02D10123FB74B8
:1046000001E00023FB74BB68002B01D10123BB60D8
:10461000FB6813F1220F09D8FB680133FB60FB68CC
:104620002033184605F070F9786101E000237B61C2
:104630007B69002B0DD07B6903F120013B6A02935B
:104640003B680193FB7C0093BB68FA68786900F0D3
:104650002FFC7B6918461837BD4680BD80B584B0F5
:1046600000AF78607B68FB60FB681B7F03F0020390
:10467000002B03D1F86805F0E5F904E020220021C1
:10468000F86826F01BFC00BF1037BD4680BD90B512
:104690008BB004AF78607B683B6100237B610023B3
:1046A000FB600023BB6005F01CFC3B691B69002B11
:1046B00017D13B695B69002B13D13B6999693B6951
:1046C00098683B69DC683B691B7FBA680292FA68AC
:1046D0000192009323460246386900F0E9FB01236A
:1046E0007B6105F017FC7B6918461C37BD4690BD01
:1046F00080B485B000AF786039607B68BB603B6890
:10470000002B01D101233B60BB689B683A689A4249
:1047100005D2BB683A68DA600123FB6001E0002340
:10472000FB60FB6818461437BD465DF8047B704794
:1047300080B487B000AF78607B683B613B691B68E1
:10474000FB603B699A683B691B6813447B613B696A
:104750005B687A69D31A7B613B691B68FA689A4285
:10476000ECD17B69013B7B613B699B687A699A422A
:1047700004D33B699B687A69D31A7B617B691846CD
:104780001C37BD465DF8047B704780B584B000AF30
:1047900078607B68FB60F86800F06AFBB860BB6813
:1047A00018461037BD4680BD80B58EB002AFF860A8
:1047B000B9607A603B60FB687B620023FB627B68C8
:1047C000BB6200233B627B6A9B68013B3B627B6A66
:1047D0001B7F03F00103002B09D0BB6A0433BB62CB
:1047E000BA6A3B6A9A4208D900233B6005E0BA6A7C
:1047F0003B6A9A4201D93B6ABB623B68002B32D0CC
:1048000007F114031846FCF7F5FF05F06AFB786A18
:10481000FFF78EFFF862FA6ABB6A9A4209D200215A
:104820000020FDF735FFFDF765F902467B6A5A6106
:1048300002E005F06FFB16E005F06CFB3B680093AF
:104840000023002200210020FDF7C2FB7B6A00222A
:104850005A613A4607F1140311461846FCF7F8FF6F
:104860000346002BD1D0FB6A002B03D1786AFFF7F7
:104870005FFFF862BB6A0093FB6A7A68B968786A7E
:1048800000F07BF8F861FB69002B1BD0786A00F020
:10489000EFFA02467B6ADB689A4213D3FCF786FA8A
:1048A0007B6A1B69002B0BD07B6A1869002300937D
:1048B000002300220021FDF701FC7B6A00221A611F
:1048C000FCF7BCFAFB6918463037BD4680BD80B5A1
:1048D0008EB002AFF860B9607A603B60FB68BB6283
:1048E0007B68FB62BB6A1B7F03F00103002B02D0D5
:1048F000FB6A0433FB62B86AFFF71AFF7862FB6A4F
:1049000000937B6A7A68B968B86A00F036F8386252
:104910003B6A002B2CD0B86A00F0AAFA0246BB6AA8
:10492000DB689A4224D3EFF311824FF0200383F324
:104930001188BFF36F8FBFF34F8FBA617B61BB6983
:10494000FB61BB6A1B69002B0DD0BB6A18693B6811
:10495000019300230093002300220021FDF798FC1F
:10496000BB6A00221A61FB693B613B6983F31188D2
:104970003B6A18463037BD4680BD80B586B000AF73
:10498000F860B9607A603B60FB685B687B61FB68DC
:104990001B7F03F00103002B11D07B683B613A6859
:1049A0003B6A9A4208D307F110017B690422F86838
:1049B00000F0E8F9786108E000237B6005E07A68A0
:1049C0003B68934228BF13467B607B68002B08D06E
:1049D0007B697A68B968F86800F0D4F90246FB6828
:1049E0005A607B6818461837BD4680BD80B58AB0CE
:1049F00002AFF860B9607A603B60FB683B610023FE
:104A0000FB613B691B7F03F00103002B02D00423F1
:104A10007B6101E000237B613B68002B28D005F01F
:104A200060FA386900F024FAB861BA697B699A4281
:104A300008D800210020FDF72BFEFDF75BF80246A9
:104A40003B691A6105F066FABA697B699A4213D824
:104A50003B6800930023002200210020FDF7B8FAF4
:104A60003B6900221A61386900F002FAB86103E07C
:104A7000386900F0FDF9B861BA697B699A421DD9BD
:104A8000BB697A68B968386900F097F8F861FB6922
:104A9000002B13D0FCF78AF9FB685B69002B0BD065
:104AA000FB68586900230093002300220021FDF7D2
:104AB00005FBFB6800225A61FCF7C0F9FB69184648
:104AC0002037BD4680BD80B586B000AF78607B687A
:104AD0003B613B691B7F03F00103002B14D0386955
:104AE00000F0C6F9F860FB68042B0AD93B691B6823
:104AF00007F108010422386900F07FF9BB687B6187
:104B000004E000237B6101E000237B617B691846A0
:104B10001837BD4680BD80B58EB002AFF860B96071
:104B20007A603B60FB687B620023FB627B6A1B7FD1
:104B300003F00103002B02D00423BB6201E0002339
:104B4000BB62786A00F094F938623A6ABB6A9A42AA
:104B50002ED93B6A7A68B968786A00F02EF8F86254
:104B6000FB6A002B24D0EFF311824FF0200383F374
:104B70001188BFF36F8FBFF34F8FBA617B61BB6941
:104B8000FB617B6A5B69002B0DD07B6A58693B68CF
:104B9000019300230093002300220021FDF778FBFE
:104BA0007B6A00225A61FB693B613B6983F3118890
:104BB000FB6A18463037BD4680BD80B588B000AF6F
:104BC000F860B9607A603B60FB681B68BB61FB689A
:104BD0001B7F03F00103002B13D007F11001BB6909
:104BE0000422F86800F009F9B8613B69FB613B6891
:104BF000043B3B60FA697B689A4204D90023FB615D
:104C000001E07B68FB613A68FB69934228BF134669
:104C10007B617B69002B08D0BB697A69B968F86849
:104C200000F0EBF80246FB681A607B6918462037F3
:104C3000BD4680BD80B487B000AF78607B683B61C3
:104C40003B691B68FB603B695B68FA689A4202D16A
:104C500001237B6101E000237B617B6918461C37DF
:104C6000BD465DF8047B704780B586B000AF7860C4
:104C70007B68FB60FB681B7F03F00103002B02D005
:104C800004233B6101E000233B617868FFF750FD9E
:104C900002463B69934202D301237B6101E000237A
:104CA0007B617B6918461837BD4680BD80B58AB0E8
:104CB00002AF786039607B68BB61EFF311824FF01F
:104CC000200383F31188BFF36F8FBFF34F8F3A61D7
:104CD000FB603B697B61BB691B69002B10D0BB6922
:104CE00018693B68019300230093002300220021F0
:104CF000FDF7CEFABB6900221A610123FB6101E0D6
:104D00000023FB617B69BB60BB6883F31188FB698F
:104D100018462037BD4680BD80B58AB002AF7860A6
:104D200039607B68BB61EFF311824FF0200383F39E
:104D30001188BFF36F8FBFF34F8F3A61FB603B6900
:104D40007B61BB695B69002B10D0BB6958693B680C
:104D5000019300230093002300220021FDF798FA1D
:104D6000BB6900225A610123FB6101E00023FB6162
:104D70007B69BB60BB6883F31188FB6918462037E9
:104D8000BD4680BD80B586B000AFF860B9607A607E
:104D90003B60FB689A683B68D31A7A68934228BFE5
:104DA00013467B61FB689A693B6813447A69B9686A
:104DB000184625F08FFA7A687B699A420AD9FB680F
:104DC0009869BA687B69D1187A687B69D31A1A46E0
:104DD00025F080FA3A687B6813443B60FB689B6867
:104DE0003A689A4204D3FB689B683A68D31A3B60DE
:104DF0003B6818461837BD4680BD80B586B000AF09
:104E0000F860B9607A603B60FB689A683B68D31AC7
:104E10007A68934228BF13467B61FB689A693B68B6
:104E200013447A691946B86825F054FA7A687B69A0
:104E30009A420AD9BA687B69D018FB6899697A687E
:104E40007B69D31A1A4625F045FA3A687B68134401
:104E50003B60FB689B683A689A4204D3FB689B6896
:104E60003A68D31A3B603B6818461837BD4680BD88
:104E700080B485B000AF78607B689A687B685B68B7
:104E80001344FB607B681B68FA68D31AFB607B687D
:104E90009B68FA689A4204D37B689B68FA68D31AC5
:104EA000FB60FB6818461437BD465DF8047B70470D
:104EB00080B584B000AFF860B9607A603B602022B2
:104EC0000021F86825F0FAFFFB68BA689A61FB6870
:104ED0007A689A60FB683A68DA60FB683A7E1A770B
:104EE00000BF1037BD4680BD9C01012004000000BA
:104EF0000100000000000000CCFA00203800000093
:104F00000000000038FB002014000000000000003A
:104F100034F80020600000000000000000000020C5
:104F20000100000000000000A4FB00200C000000B5
:104F3000000000000400002003000000000000004A
:104F400010FC002004000000000000000800002009
:104F50000C0000000000000094F800205800000041
:104F60000000000014FC002004000000000000000D
:104F70001DF6002001000000000000008CF9002058
:104F80004C0000000000000098FF002048000000D6
:104F9000010000000200010056D6010150B00201DC
:104FA00098FF002002000001DAC1010158B002019F
:104FB0005EB002010500000154B00201D4FC0020E3
:104FC0009AFF002001000090000000009CFF0020DC
:104FD00000000000FA00FC0000000000D4FC0020EB
:104FE0000100000000000000E0FF00204800000079
:104FF000010000000200010056D6010160B002016C
:10500000E0FF002002000001DAC1010168B00201E6
:105010006EB002010500000164B00201D0FC002066
:10502000E2FF00200100029100000000E4FF0020E8
:1050300000000000F000F20000000000D0FC0020A2
:1050400001000000000000002800012048000000CE
:10505000010000000200010056D6010170B00201FB
:105060002800012002000001DAC1010178B002012C
:105070007EB002010500000174B00201CCFC0020EA
:105080002A00012001000201000000002C00012084
:105090000000000039013B0100000000CCFC0020B2
:1050A0000100000000000000BCFB00200800000020
:1050B000000000001400002050000000000000006C
:1050C000A00101200400000001000000AAAAAAAA71
:1050D000B0FB00200C00000000000000EC010020EC
:1050E0001CF0000000000000A401012004000000EA
:1050F000010000000400000020F600200401000070
:1051000000000000D8F900203C0000000000000072
:1051100064000020080000000000000004FB0020E4
:105120001C0000000000000018FC00200800000027
:105130000000000008F2002015040000000000003C
:10514000DAFC00200200000001000000F80E000060
:1051500004FC002005000000000000006C0000209E
:105160000100000000000000990101200100000082
:1051700001000000FF000000700000202C00000073
:1051800000000000C4FB0020080000000000000038
:1051900020FC002004000000000000009C00002013
:1051A0000400000000000000CCFB0020080000000C
:1051B00000000000A00000200C0000000000000023
:1051C00002FC00200200000000000000CAFC0020D9
:1051D000010000000000000009FC002005000000A4
:1051E000000000006CFA0020200000000000000019
:1051F0000EFC0020020000000000000024F7002048
:105200009000000000000000D4FB00200800000017
:10521000000000004CFB0020140000000000000013
:10522000B4010120010000000100000001000000A5
:10523000940101200500000001000000020700A603
:105240002A00000024FC00200400000000000000F0
:10525000AC000020040000000000000028FC00203A
:105260000800000000000000B00000202600000040
:105270000000000030FC00200C00000000000000D6
:10528000DCFB002008000000000000003CFC0020C7
:105290001000000000000000D800002018000000EE
:1052A00000000000CBFC0020010000000000000016
:1052B000E4FB002008000000000000008CFA002041
:1052C0002000000000000000CDFC002001000000D4
:1052D000000000004CFC00200C000000000000005A
:1052E000CEFC0020010000000000000058FC00205F
:1052F0000800000000000000CFFC002001000000BA
:105300000000000060FC002004000000000000001D
:10531000D1FC002003000000000000001EF6002069
:105320000200000000000000C0FC0020040000009B
:105330000000000070000120C0000000010000001B
:10534000E3A40201E3A40201E3A40201E3A4020135
:10535000E3A40201E3A40201E3A40201E3A4020125
:10536000E3A40201E3A40201E3A40201E3A4020115
:10537000E3A40201E3A40201E3A40201E3A4020105
:10538000E3A40201E3A40201E3A40201E3A40201F5
:10539000E3A40201E3A40201E3A40201E3A40201E5
:1053A000E3A40201E3A40201E3A40201E3A40201D5
:1053B000E3A40201E3A40201E3A40201E3A40201C5
:1053C000E3A40201E3A40201E3A40201E3A40201B5
:1053D000E3A40201E3A40201E3A40201E3A40201A5
:1053E000E3A40201E3A40201E3A40201E3A4020195
:1053F000E3A40201E3A40201E3A40201E3A4020185
:1054000074FB00202000000000000000D5FC0020FC
:105410000100000000000000ECFB0020080000007C
:1054200000000000F0000020080000000000000064
:10543000D6FC00200100000000000000F800002061
:105440000800000000000000D7FC00200100000060
:105450000000000064FC00200C00000000000000C0
:10546000C4FC00200400000000000000ECF8002054
:105470005000000000000000D8FC002001000000E7
:1054800000000000000100204E00000000000000AD
:1054900070FC0020100000000000000050010020FF
:1054A000040000000000000080FC00200400000058
:1054B00000000000ACFA0020200000000000000006
:1054C00054010020290000000000000054FE0020CC
:1054D000A40000000100000020200001FFFFFFFFEA
:1054E000FFFFFFFFFFFFFFFF0000000000000000C4
:1054F0000000000001000000FFFFFFFF512563FCDA
:10550000C2CAB9F3849E17A7ADFAE6BCFFFFFFFF3E
:10551000FFFFFFFF00000000FFFFFFFF96C298D8CB
:105520004539A1F4A033EB2D817D0377F240A463CC
:10553000E5E6BCF847422CE1F2D1176BF551BF37D5
:105540006840B6CBCE5E316B5733CE2B169E0F7CA8
:105550004AEBE78E9B7F1AFEE242E34F4B60D22775
:105560003E3CCE3BF6B053CCB0061D65BC8698766B
:1055700055BDEBB3E7933AAAD835C65A800100204F
:105580000C0000000000000084FC0020040000006B
:10559000000000009A01012002000000010000004C
:1055A000700000008C0100201000000000000000CE
:1055B000F4FB0020080000000000000088FC002030
:1055C00004000000000000009C0100200400000016
:1055D00000000000D9FC00200100000000000000D5
:1055E00094FB00201000000000000000C8FC002018
:1055F0000200000000000000B4F70020800000005E
:105600000000000060FB002014000000000000000B
:105610008CFC00200400000000000000A00100201D
:1056200004000000000000006001012024000000D0
:105630000100000024232221201F1E1D1C1B1A19FB
:105640001817161514131211100F0E0D0C0B0A0952
:105650000807060504030201A4010020160000004B
:105660000000000090FC00201C0000000000000072
:10567000BC0100200D0000000000000020FB002005
:105680001800000000000000A80101200800000030
:105690000100000089BD020189BD0201C90100208D
:1056A000010000000000000044FA00202800000073
:1056B0000000000014FA002030000000000000008C
:1056C000FCFB00200600000000000000CC010020D0
:1056D0001100000000000000ACFC00200C000000E5
:1056E00000000000DD0100200C00000000000000B0
:1056F000B8FC002004000000000000003CF900207D
:105700005000000000000000BCFC0020040000006D
:1057100000000000B00101200400000001000000B2
:1057200000000000000000000000000066666666E1
:10573000666666666666666680B584B002AF0023FC
:105740007B6000F035FB0A4B1B68002B0BD0094B2C
:1057500001930323009300234FF480720649074806
:10576000FAF754FE78607B6818460837BD4680BD5E
:1057700008FA00200CFA002090BB02013D5A0001FB
:1057800080B588B002AFF860B9607A603B602820CD
:1057900004F0BAF878617B69002B0DD07B69002298
:1057A00083F824207B6901933B6A00933B687A6805
:1057B000B968F86800F005F87B6918461837BD46E7
:1057C00080BD80B584B000AFF860B9607A603B609E
:1057D00000F0EEFAFB69FA681A60FB69BA689A6130
:1057E000FB693A68DA61FB69BA691A62FB690433DA
:1057F00018460CF09BFF7B68002B08D0FB6993F8E0
:10580000243043F00403DAB2FB6983F8242000BF9C
:105810001037BD4680BD80B588B000AFF860B96074
:105820007A603B600023FB61194B1B68002B2AD078
:10583000BB683B617B687B61FB68BB61BB68052B18
:1058400018DCFCF767F90346022B09D1104B1868E6
:1058500007F110010023BA6AFDF71CF9F86112E0A4
:105860000B4B186807F1100100230022FDF712F915
:10587000F86108E0064B186807F1100100233A6848
:10588000FDF7CEF9F861FB6918462037BD4680BDAB
:1058900008FA002080B400AF034B1B681846BD46D1
:1058A0005DF8047B704700BF0CFA002080B485B01F
:1058B00000AF78607B68FB60FB689B691846143713
:1058C000BD465DF8047B704780B584B000AF78605A
:1058D00039607B68FB6004F004FB3B68002B09D057
:1058E000FB6893F8243043F00403DAB2FB6883F8D2
:1058F000242008E0FB6893F8243023F00403DAB294
:10590000FB6883F8242004F005FB00BF1037BD4678
:1059100080BD80B584B000AF78607B68BB6004F068
:10592000E0FABB6893F8243003F00403002B02D1A3
:105930000023FB6001E00123FB6004F0EBFAFB684D
:1059400018461037BD4680BD80B582B000AF786084
:105950007868FFF7DEFF034618460837BD4680BD6E
:1059600080B485B000AF78607B68FB60FB685B68E3
:10597000BB60BB6818461437BD465DF8047B7047B2
:1059800080B485B000AF78607B68FB60FB681B6803
:1059900018461437BD465DF8047B704780B584B067
:1059A00000AFF860B9607A6008E0FB689B69BA688C
:1059B0001344BB60FB681B6AF8689847FB689A69E8
:1059C000BB68D118BB687A68F86800F0DBF803465A
:1059D000002BEAD100BF1037BD4680BD80B584B032
:1059E00000AF78603960144B1B68DB68DB68FB60D4
:1059F000FB68043318460CF003FFFB6893F824306F
:105A000003F00403002B05D03A687968F868FFF7C3
:105A1000C5FF08E0FB6893F8243023F00103DAB2F5
:105A2000FB6883F82420FB681B6AF868984700BF6E
:105A30001037BD4680BD00BF00FA002080B584B09D
:105A400000AF786007F10803184600F057F8F860D7
:105A5000BB681946F86800F003F800F0D5F8F1E7E4
:105A600080B584B000AF78603960FBF79FF907F12B
:105A70000803184600F066F8F860BB68002B30D1C8
:105A80003B68002B0AD17A68FB689A4206D8FBF77C
:105A9000D5F9F9687868FFF7A1FF24E03B68002B8F
:105AA00008D0134B1B681B68002B01D1012300E0B9
:105AB00000233B600F4B18687A68FB68D31A3A687A
:105AC0001946FDF7DAFDFBF7B9F90346002B0AD1B9
:105AD000094B4FF080521A60BFF34F8FBFF36F8FA7
:105AE00001E0FBF7ABF900BF1037BD4680BD00BF3A
:105AF00004FA002008FA002004ED00E080B485B02C
:105B000000AF78600E4B1B681B68002B01D101228F
:105B100000E000227B681A607B681B68002B05D1BF
:105B2000074B1B68DB681B68FB6001E00023FB6020
:105B3000FB6818461437BD465DF8047B704700BF0C
:105B400000FA002080B584B000AF7860FBF762FAFD
:105B5000F8600B4B1B68FA689A4205D200F002F914
:105B60007B6801221A6002E07B6800221A60044A06
:105B7000FB681360FB6818461037BD4680BD00BF48
:105B800010FA002080B586B000AFF860B9607A6086
:105B90003B6000237B61FB68BA685A60FB68FA6867
:105BA0001A61BA687B689A4212D87A683B68D21A3E
:105BB000FB689B699A4202D301237B611BE0104B77
:105BC0001A68FB680433194610460CF0E0FD12E039
:105BD0007A683B689A4206D2BA683B689A4202D316
:105BE00001237B6107E0074B1A68FB680433194601
:105BF00010460CF0CCFD7B6918461837BD4680BDB9
:105C000004FA002000FA002080B586B000AF97E0CB
:105C10007B68002BC0F29380FB687B617B695B69CA
:105C2000002B04D07B69043318460CF0E9FD3B4699
:105C30001846FFF787FF38617B68013B082B7FD848
:105C400001A252F823F000BF6D5C00016D5C000101
:105C5000D55C0001E95C0001155D00016D5C00018F
:105C60006D5C0001D55C0001E95C00017B6993F883
:105C7000243043F00103DAB27B6983F82420BA6848
:105C80007B699B69D118BB683A697869FFF77AFF2D
:105C90000346002B54D07B6993F8243003F00403AF
:105CA000002B09D0BA687B699B6913443A6919468D
:105CB0007869FFF773FE08E07B6993F8243023F0DE
:105CC0000103DAB27B6983F824207B691B6A786957
:105CD000984735E07B6993F8243023F00103DAB26A
:105CE0007B6983F824202BE07B6993F8243043F010
:105CF0000103DAB27B6983F82420BA687B699A6170
:105D00007B699A693B69D1183B693A697869FFF701
:105D100039FF15E07B6993F8243003F00203002B70
:105D200003D1786903F08EFE0AE07B6993F8243092
:105D300023F00103DAB27B6983F8242000E000BF7E
:105D4000074B1B68391D00221846FDF750F8034623
:105D5000002B7FF45DAF00BF1837BD4680BD00BF8C
:105D600008FA002080B582B000AF09E00E4B1B6836
:105D7000DB681B687B604FF0FF317868FFF72EFE11
:105D8000094B1B681B68002BF0D1074B1B683B605D
:105D9000064B1B68044A1360044A3B68136000BF4B
:105DA0000837BD4680BD00BF00FA002004FA00207D
:105DB00080B500AF04F095F80D4B1B68002B13D194
:105DC0000C480CF093FC0C480CF090FC0B4B094A6F
:105DD0001A600B4B084A1A6000220C210A20FCF7BB
:105DE000A7FD0246024B1A6004F094F800BF80BD84
:105DF00008FA0020D8F90020ECF9002000FA002071
:105E000004FA002080B584B000AF78607B68BB6086
:105E100004F067F8BB6893F8243003F00103002B0B
:105E200002D10023FB6001E00123FB6004F072F863
:105E3000FB6818461037BD4680BD80B584B000AF02
:105E400078607B68FB6004F04CF8FB68DB69BB6042
:105E500004F060F8BB6818461037BD4680BD80B5B9
:105E600084B000AF786039607B68FB6004F039F87B
:105E7000FB683A68DA6104F04DF800BF1037BD46A0
:105E800080BD00BF08000000044B5A6842F4800245
:105E90005A605A6822F400625A607047004001411B
:105EA000174B184A1A60184A1A61184A5A61184A58
:105EB0009A61184A5A624FF414029A62164ADA62D8
:105EC000164A174B174913605160174991601749DB
:105ED000D160174911611749174A0A6043F64240D9
:105EE00048600020C860154848618A61144A154915
:105EF00011605360144B154A1A60154A5A60704776
:105F000000600141212200800A14260610320D1281
:105F10001C28402006421E3E0600030E3060014150
:105F200054760C0E1A270038F7FF4C463832D44E00
:105F30003240003044600141544E4C46514B38329F
:105F400060600141383256CE686001411A27544ED4
:105F50004C463832C82300BF00BF00BF00BF00BF9F
:105F600000BF00BF00BF00BF00BF00BF00BF00BF39
:105F700000BF00BF00BF00BF00BF00BF00BF00BF29
:105F800000BF013B13F0FF03E5D1704708B541F2B4
:105F9000440103200DF0E6FF43F6FF4152200DF0CF
:105FA000E1FF47F2080154200DF0DCFF48F24E51AA
:105FB0005E200DF0D7FF47F2824160200DF0D2FF46
:105FC0004CF6170161200DF0CDFF4CF61701632050
:105FD0000DF0C8FF41F2073165200DF0C3FF49F213
:105FE000072167200DF0BEFF47F2824168200DF0C7
:105FF000B9FF4BF2156169200DF0B4FF4BF215614A
:106000006B200DF0AFFF41F205316D200DF0AAFFBE
:1060100049F205216F200DF0A5FF48F20701772016
:106020000DF0A0FF49F61E61E9200DF09BFF4FF631
:106030000171EF200DF096FF40F68321F920BDE8B5
:1060400008400DF08FBF70472DE9F743022211463B
:10605000012333200DF0B4FF0C2211460123192037
:106060000DF0AEFF00221146012315200DF0A8FF10
:106070000822104600230A210DF0A2FF0722114634
:10608000012309200DF09CFF01231A46194609201F
:106090000DF096FF00231A46194609200DF090FFD7
:1060A0000F221146012300201DF0A5FD00230D2223
:1060B000114618461DF09FFD0122114600234C2079
:1060C0001DF099FD0322114600234C201DF093FD85
:1060D0000422114601234C201DF08DFD4FF4007366
:1060E00000220C2126200DF06BFF14200DF0A4FFE0
:1060F000042400250022012311464C201DF07BFDC5
:10610000002211464C201DF089FD02460028F7D1DF
:106110000F214E201DF082FD013C14F0FF040544C8
:10612000E8D1284624F0E4F80022534B0EF06AFB35
:106130000022524B04460D4620F0ACF80022002805
:1061400000F089804E4B2046294625F069FD4D4BD5
:1061500000220EF057FB42A3D3E900230EF052FBBE
:106160000022494B494C08F0F1FDD4E904230646CE
:106170000F463DA1D1E9000108F0E8FDD4E9022372
:10618000804689463046394625F04AFD02460B4690
:10619000404649460EF036FBD4E9002325F040FD89
:1061A00033A3D3E9002308F0D1FD1DF011F800233B
:1061B00001901A460C2126200DF002FF0222114602
:1061C000002333200DF0FCFE0C2211460023192081
:1061D0000DF0F6FE00231A46194615200DF0F0FECC
:1061E0000822104605230A210DF0EAFE0722114677
:1061F000002309200DF0E4FE0122114600230920AE
:106200000DF0DEFE00231A46194609200DF0D8FED7
:1062100000230F22114618461DF0EDFC0D221146F9
:10622000012300201DF0E7FC0122114600234C2031
:106230001DF0E1FC0322114600234C201DF0DBFC85
:106240000422002311464C201DF0D5FC9DED010ACF
:1062500003B0BDE8F0830B4B2046294679E700BF29
:10626000666666666666E63F3D0AD7A3703DDA3F1E
:10627000BC5983F755B9603F0000D03F0000E040B3
:106280000000F0400000503F0000F83F7800002080
:1062900070B5A4B0044674220E4607A8002124F06D
:1062A0000DFE5F4B06930A935E4B0C935E4B5F4A69
:1062B0005F486049604D0E93129303F14643CDE968
:1062C0000420CDE9081003F60D730138CDE9105014
:1062D0000D90149359485A4B20925A4A5A4D1C918A
:1062E000CDE9150359495A481A93CDE92123594A52
:1062F000CDE91D13CDE91850516810686B4603C3F2
:106300009068D168272C03C36BDC0A2C75DA14F172
:106310000B0F74DC1934B4BF002001204E4B1A78E7
:1063200082427AD01870050124AB002E69D15C1925
:106330000B2214F8803C0F21E5200DF041FE14F8EB
:106340007F3C0B220F21E7200DF03AFE24AB1D44C9
:10635000072215F87E3C0821FC200DF031FE15F8CF
:106360007D3C04220521E1200DF02AFE15F87C3C3D
:1063700006220721E1200DF023FE15F87B3C0222C6
:106380000321E5200DF01CFE15F87A3C00220321C4
:10639000E7200DF015FE15F8793C04220721E720CF
:1063A0000DF00EFE15F8783C01220321E2200DF0DD
:1063B00007FE15F8773C032204210A200DF000FEA9
:1063C00015F8763C0E220F2151200DF0F9FD15F83D
:1063D000753C08220E21522024B0BDE870400DF01B
:1063E000EFBD4F2C04DC3B2CCCBF0520042095E7EF
:1063F000632CCCBF0720062090E703208EE7022005
:106400008CE703EB40040B2214F8903C0F21E520AD
:106410000DF0D6FD14F88F3C93E724B070BD00BF9B
:106420000603033C121202020502023C1414030389
:106430000301010A13130303111102020201030BEA
:10644000050202460301070E131203030301060DA2
:106450000301050CA0B002019901012047F6FF736A
:10646000984207D000F307039BB2002207215A206D
:106470000DF0A6BD70477047094A41F62863D3580E
:10648000084A12689B1A084A23F07043934205D8C1
:10649000064B1878003018BF012070470020704765
:1064A0000020014198000020FEFFFF07700000203F
:1064B00010B5FFF7C9FDBDEEC00A10EE103A1CB2D0
:1064C0002046FFF7CBFF094B1978204601F0010168
:1064D000FFF7DEFE064A41F62863D358054A03F566
:1064E000403323F07043136010BD00BF90000020C4
:1064F000002001419800002037B5204A1178002380
:1065000063F3000111701E4A8DF8073013700446C2
:1065100028B1FFF73BFDFFF7B7FCFFF7C1FC2246B0
:106520000DF10701072001F0F1FE1CB3154D2846BF
:106530000BF02EFFD5E900010022002320F010FD12
:10654000114BB0FA80F040091870104B4FF44032F4
:106550001A604FF088430E4A1A650E4B40F27142A2
:10656000012C9A600CBFFF227F229A6113221A60CD
:106570004022DA600BF022FF03B030BD9000002013
:106580006C0000207800002070000020980000209F
:106590004C0040E00010014142F2780127200DF04C
:1065A000E1BC002112200DF0DDBC00BFB0B582B00F
:1065B00000AF0023FB7129E0184B1B68FA7953F8F0
:1065C0002230002B1FD1154B1C68FD79202006F0CE
:1065D00094FA034644F82530104B1B68FA7953F8B7
:1065E0002230002B09D00D4B1B68FA7953F822306A
:1065F00020220021184624F061FC084B1B68FA7920
:1066000053F8223006E0FB790133FB71FB79072B4D
:10661000D2D9002318460837BD46B0BD10FC002073
:1066200080B485B000AF0346FB800023FB7320E0FD
:10663000154B1B68FA7B53F82230002B16D0124BF7
:106640001B68FA7B53F82230DB78012B0ED10E4BFE
:106650001B68FA7B53F822301B88FA889A4205D1CE
:10666000094B1B68FA7B53F8223006E0FB7B0133B1
:10667000FB73FB7B072BDBD9002318461437BD4681
:106680005DF8047B704700BF10FC002080B584B02B
:1066900000AF78607B68002B1BD00023FB7314E0F5
:1066A0000E4B1B68FA7B53F822307A689A4209D164
:1066B000786806F02EFA094B1B68FA7B002143F834
:1066C000221007E0FB7B0133FB73FB7B072BE7D931
:1066D00000E000BF1037BD4680BD00BF10FC0020A9
:1066E00080B582B000AF164B1B68002B0BD12C205D
:1066F00006F003FA0246124B1A60114B1B68002B7E
:1067000012D1002318E00023FB710AE00C4B1B6838
:10671000FA7953F822301846FFF7B8FFFB790133B6
:10672000FB71FB79072BF1D9054B1B682C2200214B
:10673000184624F0C3FB012318460837BD4680BD28
:1067400010FC002080B59EB000AF78607B681B789D
:10675000012B40F0B6807B685B683B673B6F1B7822
:10676000002B6FD13B6F9B78002B40F0AC80FFF784
:106770001DFFF866FB6E002B00F0A5803B6F9A882A
:10678000FB6E1A803B6F9A79FB6E9A70FB6E3A6FC4
:1067900004330732116819609188927999809A714F
:1067A000FB6E0122DA70FB6E0433184602F0AFFF75
:1067B00003461A46FB6E9A77FB6E9B7F082B34D0FC
:1067C00007F10C034C220021184624F077FBFB6EE6
:1067D0009B7F07F10C021146184602F0C7FE0346E4
:1067E000002B22D197F85430C3F30003DAB297F8A4
:1067F000603062F3410387F8603097F85430C3F398
:106800004003DAB297F8603062F3000387F8603033
:10681000FB6E188897F85430C3F38503DBB2194632
:1068200007F160031A4620F0BAFA3B6F9B88A7F87D
:106830006630012387F8643007F16403184607F0D7
:10684000B7FA40E03B6F1B78012B3CD1002387F85F
:1068500058303B6F5B88A7F85A303B6F5B8818460F
:10686000FFF7DEFEF866FB6E002B07D0FB6E9B7F0A
:1068700087F85C30F86EFFF709FF02E0082387F81D
:106880005C30002387F8773014E097F87730104AAF
:1068900052F82330002B08D097F877300C4A52F882
:1068A000233007F158021046984797F877300133A4
:1068B00087F87730074B1B7897F877209A42E4D314
:1068C00001E000BF00E000BF00BF7837BD4680BDDB
:1068D0000C0000200800002080B5A4B000AF0346E3
:1068E0003960FB713B68002B02D0FB79002B12D181
:1068F000002100201EF0AAFF0346A7F88C30B7F84D
:106900008C30002B04D1344B1B68002283F82020EC
:10691000B7F88C305CE0FB79082B01D9032357E0F2
:10692000002387F88F3033E097F88F303A681344AC
:106930001B7807F108021146184602F017FE0346BD
:10694000A7F88C30B7F88C30002B02D0B7F88C3019
:106950003EE03B7A002B04D03B7A012B01D003238D
:1069600036E097F88F201346DB009B1A07F1900260
:1069700013443C3B1A4607F10803186810609988D5
:106980009B799180937197F88F30013387F88F301E
:1069900097F88F20FB799A42C6D307F15402FB790E
:1069A000114618461EF052FF0346A7F88C300A4BDA
:1069B0001B68213397F88F203968184623F08AFC2A
:1069C000054B1B6897F88F2083F82020B7F88C3090
:1069D00018469037BD4680BD10FC002080B596B0AB
:1069E00000AF78603960002387F8573026E01D4BF0
:1069F0001A6897F85730134493F8213007F10802CA
:106A00001146184602F0B2FD0346002B01D00123C7
:106A100023E097F857201346DB009B1A3A6813448B
:106A20001A4607F108031868106099889B799180CD
:106A3000937197F85730013387F85730094B1B682B
:106A400093F8203097F857209A42D0D3054B1B6813
:106A500093F820207B681A70002318465837BD46EB
:106A600080BD00BF10FC0020B0B5A0B000AF034651
:106A7000B9607A60FB730023A7F87E30BB68002BF7
:106A800005D0FB7B002B02D07B68002B09D10021B5
:106A900000201EF0F7FE0346A7F87E30B7F87E30E0
:106AA000DAE0FB7B082B01D90323D5E0FA7B134600
:106AB0009B001344DB00184606F01FF8B867BB6F55
:106AC000002B01D10223C7E007F1600207F1770331
:106AD0001146184621F094FC002387F87D30A2E08F
:106AE00007F114034C220021184624F0E7F997F827
:106AF0007D30BA6813441B7807F11402114618461A
:106B000002F034FD0346A7F87E30B7F87E30002B44
:106B100040F090803B7D002B02D03B7D012B06D1C5
:106B200097F87D307A6813441B78012B04D903232E
:106B3000A7F87E3000BF7EE097F83230002B21D1DD
:106B400007F114031E33013307F1140202F11E0092
:106B50000F22194623F0B0FB0346002B12D197F801
:106B60007D2013469B001344DB001A46BB6F134481
:106B700017331D4607F164040FCC28606960AA60D2
:106B8000EB6014E097F87D2013469B001344DB0074
:106B90001A46BB6F134417331A4607F132031C68B9
:106BA00058689968DB68146050609160D36097F80A
:106BB0007D2013469B001344DB001A46BB6F134431
:106BC00007331A4607F11B031C6858689968DB688D
:106BD000146050609160D36097F87D2013469B004D
:106BE0001344DB001A46BB6F13441A4607F1140323
:106BF0001868106099889B799180937197F87D301F
:106C00007A68D11897F87D2013469B001344DB0067
:106C10001A46BB6F13440A7883F8272097F87D3013
:106C2000013387F87D3097F87D20FB7B9A42FFF493
:106C300057AF00E000BFB7F87E30002B07D1FB7BD9
:106C4000B96F18461EF01EFE0346A7F87E30B86FD7
:106C500005F05FFFB7F87E3018468037BD46B0BDFF
:106C600080B485B000AF03463960FB710123BB815E
:106C70000023FB731DE0144B1B68FA7B53F8223092
:106C8000002B13D0104B1B68FA7B53F822309B7FEC
:106C9000FA799A420AD10C4B1B68FA7B53F82230DE
:106CA0001A883B681A800023BB8105E0FB7B013317
:106CB000FB73FB7B072BDED9BB8918461437BD4617
:106CC0005DF8047B704700BF10FC002080B584B0E5
:106CD00000AF03460A46FB8013467B7102233B72DA
:106CE000FB887B817B797B7307F10803184607F0EB
:106CF0005FF800BF1037BD4680BD80B584B000AFDF
:106D00000346FB800B467B7113463B7103233B72AA
:106D1000FB887B817B797B733B79BB7307F108032D
:106D2000184607F045F800BF1037BD4680BD90B546
:106D300085B000AF0446084611461A462346FB803C
:106D400003467B710B463B711346FB7004233B7279
:106D5000FB887B817B797B733B79BB73FB78FB730F
:106D600007F10803184607F023F800BF1437BD46A3
:106D700090BD90B5A1B000AF78607B681B78062B02
:106D800000F2A78101A252F823F000BF9F6E00011C
:106D9000A96D0001D3700001D3700001D370000110
:106DA0000F6F00014F6E00019D4B1B78002B00F010
:106DB00092817B689B881846FFF732FCB867BB6FEF
:106DC000002B00F08A81BB6F9B78002B40F0838101
:106DD000BB6F9B7F07F108021146184602F0C6FB05
:106DE0000346002B1FD1BB6F188807F1080303F17E
:106DF000380407F1080303F1360207F1080303F131
:106E00002E0123461CF032FB0346A7F87630B7F874
:106E10007630002B40F05F81BB6F1B880121184644
:106E2000FFF754FF57E1BB6F1B8818461FF044FC67
:106E30000346A7F87630B7F87630002B40F04B8148
:106E4000BB6F1B8800211846FFF740FF43E1744BDE
:106E50001B78002B00F043817B689B881846FFF766
:106E6000DFFB38673B6F002B00F03B813B6F9B786B
:106E7000012B40F034817B689B8818461FF036FC5C
:106E80000346A7F86E30B7F86E30002B40F027812C
:106E90007B689B8800211846FFF718FF1FE17B687D
:106EA0009B79002B29D17B689B881846FFF7B8FB9C
:106EB000B866BB6E002B00F016817B6898887B68F3
:106EC0001B7A1A460021FFF718FFBB6E0122DA7207
:106ED000BB6E03F10C007B6809331022194623F0C6
:106EE000F9F9BB6E9B78002B40F0FF80BB6E1B88CE
:106EF00001211846FFF7EAFEF7E07B6898887B6877
:106F00009A797B68DB790021FFF711FFEDE07B6860
:106F10009B881846FFF784FB78667B6E002B00F099
:106F2000E6804C2005F0E9FD38663B6E002B00F052
:106F3000E0807B680833FB653B6EFA6D703292E847
:106F4000030018600433198002330A0C1A703B6E78
:106F5000184602F0DCFB034687F87F3097F87F3055
:106F6000082B24D102F0B2FB034687F87F3097F854
:106F70007F30082B1BD1052387F854307B6E1B888C
:106F8000A7F85630082387F8593007F154031846FC
:106F900006F00EFF02F09AFB034687F87F3097F861
:106FA0007F30082B03D1386E05F0B3FDA2E07B6E75
:106FB00097F87F209A777B6E9B78002B32D1FB6D00
:106FC0009B7E03F00103DBB2002B07D03B6E38330E
:106FD000F96D1022184623F07DF918E03B6E03F19D
:106FE0003800FB6D44331022194623F073F93B6ED1
:106FF00003F12E00FB6D56330822194623F06AF97F
:107000003B6E3633FA6D5432128892B21A803B6E60
:10701000D81DFB6D60331022194623F05BF917E091
:107020001DF600203B6E3833F96D1022184623F010
:1070300051F97B6E0C33F96D1022184623F04AF992
:107040003B6ED81DFB6D60331022194623F042F9C8
:10705000FB6D9B7EC3F38503D9B23A6E92F848303C
:1070600061F3870382F84830FB6D9B7EC3F34003D6
:10707000D9B23A6E92F8483061F3410382F8483051
:10708000FB6D9B7EC3F30003D9B23A6E92F8483091
:1070900061F3000382F848303B6E03F11E00FB6D84
:1070A0001C331022194623F015F93B6EFA6D173385
:1070B0002C32106818609188927999809A7197F8AB
:1070C0007F30396E184602F0BBFA386E05F021FDAC
:1070D00010E000BF0EE000BF0CE000BF0AE000BF00
:1070E00008E000BF06E000BF04E000BF02E000BF10
:1070F00000E000BF8437BD4690BD80B598B000AFBA
:1071000078607B681B78032B05D17B685B68184629
:10711000FFF72FFE78E07B681B78012B74D17B682A
:107120005B68FB65FB6D1B78052B54D1FB6D5B88A1
:107130001846FFF775FAB865BB6D002B63D0BB6DC1
:107140001B8801211846FFF7C1FDBB6DDB7A83F078
:107150000103DBB2002B2BD0BB6D9B7F07F10C0230
:107160001146184602F002FA0346002B13D1BB6DFC
:107170001A8807F10C033833194610461EF012FB2B
:107180000346002B40D0FB6D5888002300220121CC
:10719000FFF7CDFD38E0BB6D1B8818461FF0F0F9F6
:1071A000FB6D5888002300220121FFF7C0FD2BE072
:1071B000BB6D1A88BB6D0C33194610461EF0F2FAEF
:1071C0000346002B20D0FB6D5888002300220121AC
:1071D000FFF7ADFD18E0FB6D1B78032B14D1FB6DA1
:1071E0001B79002B07D1FB6D5B880022012118461B
:1071F000FFF783FD08E0FB6D588800230022012182
:10720000FFF795FD00E000BF6037BD4680BD80B44C
:1072100083B000AF0346FB71044AFB79137000236F
:1072200018460C37BD465DF8047B70471DF60020FC
:1072300090B599B000AF03460A46FB8013467B71B8
:10724000FB881846FFF7ECF9B865BB6D002B01D140
:10725000032349E0BB6D9B78002B40D17B7983F001
:107260000103DBB2002B27D0BB6D9B7F07F10C0223
:107270001146184602F07AF90346002B1CD107F19B
:107280000C0303F1380407F10C0303F1360207F194
:107290000C0303F12E01F88823461CF0E7F803469F
:1072A000A7F85E30B7F85E30002B15D1FB880121BE
:1072B0001846FFF70BFD0FE0FB8818461FF0FCF99E
:1072C0000346A7F85E30B7F85E30002B04D1FB8888
:1072D00000211846FFF7FAFCB7F85E3004E0FB889F
:1072E00018461FF0E9F9034618466437BD4690BDBD
:1072F00080B400AF034B01221A7000BFBD465DF899
:10730000047B70471DF6002080B586B000AF0346B1
:10731000FB7107F10E02FB7911461846FFF7A0FC3E
:107320000346002B08D106233B74FB897B8207F1BF
:107330001003184606F03CFD00BF1837BD4680BD5F
:1073400080B588B000AFB96011461A460346FB818C
:107350000B46BB811346FB80FB893B82BB687B618C
:10736000BB893B83FB887B830E4B1B68FB6110E072
:10737000FB691B6807F1100210469847034683F02B
:107380000103DBB2002B01D0002306E0FB695B6840
:10739000FB61FB69002BEBD1012318462037BD466A
:1073A00080BD00BF04FB00201FB50446694600886D
:1073B00000F0ACF968B3BDF80230ABB1019B9BB1F2
:1073C000029BD3B9A2882088CAB1A368BBB16188E7
:1073D000FCF77AFED0B14FF0200383F31188BFF39E
:1073E0006F8FBFF34F8FFEE74FF0200383F31188B9
:1073F000BFF36F8FBFF34F8FFEE79847E2E7019B24
:10740000BDF802200021FCF75FFEE3E7208800F0D2
:10741000C4F904B010BD7FB56946054600F076F9A1
:1074200010B9002004B070BDBDF80230A3B1019BBB
:1074300093B1029BCBB92846FCF7D0FE019ABDF868
:10744000021006462846FCF7E7FE022804460ED145
:10745000B4FA84F04009E5E74FF0200383F3118884
:10746000BFF36F8FBFF34F8FFEE79847E3E740B15D
:107470004FF0200383F31188BFF36F8FBFF34F8F5B
:10748000FEE73346BDF8022001992846FFF758FF72
:107490000028DDD1C5E71FB504466946008800F025
:1074A00035F910B9002004B010BDBDF8023093B119
:1074B000019B83B1029B83B96188A288BDF8023029
:1074C00088189842EEDCA3682088FCF75DFEB0FACD
:1074D00080F04009E7E700F029F89847ECE773B53A
:1074E000104ADFF844C005460E4600236C46BCF83F
:1074F0000210994201D800200DE092E8030084E8D0
:107500000300D1888D4208D1ADF8065094E80300FD
:1075100086E80300012002B070BD013308329BB23F
:10752000E5E700BFEC03000108FB00204FF020035B
:1075300083F31188BFF36F8FBFF34F8FFEE72DE901
:107540007F431B4D80462868FBF7F2FE00248146EE
:107550002646A14509D836BB32464146144808F0B4
:10756000DFFE01281FD0FFF7E1FF002201A9284616
:1075700008F020FF01280DD1019AD8F8003001A9A8
:107580009A4208BF012628460022013408F0C8FEAE
:10759000E4B2DEE74FF0200383F31188BFF36F8F6F
:1075A000BFF34F8FFEE7012004B0BDE8708300BF3A
:1075B00018FC002010B5044688B1082002F0A4F998
:1075C00040B94FF0200383F31188BFF36F8FBFF3EF
:1075D0004F8FFEE7024B04601A694260186110BDCC
:1075E00008FB002010B5044688B1082002F08CF991
:1075F00040B94FF0200383F31188BFF36F8FBFF3BF
:107600004F8FFEE7024B04601A684260186010BD9D
:1076100004FB002010B50446082002F075F928B1DB
:10762000034B04805A6942605861012010BD00BFBD
:1076300008FB002000F44063B3F5406F13B514D18C
:107640006946FFF74CFF70B9002002B010BD009BE7
:1076500033F81400FCF71AFF0134E4B2BDF804302B
:10766000A342F4D8F0E70024F8E7FCF70FFFEBE7BC
:10767000034B00229880181DDA801A81DA605EE7D9
:1076800008FB0020054B5B690BB9184670471A8848
:10769000824201D05B68F7E70120704708FB0020B9
:1076A0007FB5184B184D5E6904464EB90120FCF7B2
:1076B00045FF31462868FBF7C7F8002004B070BDCD
:1076C000FCF73CFF24B100212868FBF7BDF8F4E784
:1076D0002868FBF72DFE0646A642EED9002201A936
:1076E000284608F067FE012809D1BDF80400FFF71D
:1076F000C9FF20B1002201A9284608F011FE01347B
:10770000E4B2E9E708FB002018FC00202DE97041F5
:10771000DFF848C0DFF8488085B086460E46002571
:107720006C46BCF80030AB4201D8002010E008EBFA
:1077300005130FCB84E80F00BDF8003073450AD164
:10774000234603CB3060716003CBB060F160012051
:1077500005B0BDE870810135E3E700BF08FB0020FC
:10776000EC0200011FB50446008800F44063B3F545
:10777000406F02D1002004B010BD6946FFF7C6FF7C
:107780000028F7D0A28863881344BDF802209342F2
:10779000F0DC2046FFF7D3FEEDE738B5044B1C695B
:1077A000054604B938BD2368284698476468F8E759
:1077B00008FB002030B585B0044669460088FFF715
:1077C000A5FF002845D0BDF80230D3B1019BC3B15D
:1077D000029BFBB92088FCF7F1FE2588E0B9019AED
:1077E000BDF802102846FCF717FD10F0FD0F2DD054
:1077F0004FF0200383F31188BFF36F8FBFF34F8FD8
:10780000FEE74FF0200383F31188BFF36F8FBFF3C0
:107810004F8FFEE79847DDE7A2887AB1A3686BB186
:1078200061882846FCF750FC80B14FF0200383F3B9
:107830001188BFF36F8FBFF34F8FFEE7019BBDF839
:10784000022000212846FCF73FFCEDE72088FFF7E7
:10785000A4FF05B030BD08B5024B1868FBF768FD02
:10786000C0B208BD18FC002030B5184D89B0002208
:1078700002A9284608F09EFD012801D009B030BDBC
:10788000BDF8080000F44063B3F5406F19D16946B4
:10789000FFF725FE0028EAD00024ADF81640ADF829
:1078A00018400794BDF80430A342E0D9009B05A816
:1078B00033F81430ADF814300134FFF77BFFE4B235
:1078C000F0E702A8FFF776FFD1E700BF18FC002021
:1078D00030B50446008800F44063B3F5406F85B0CE
:1078E00003D10025284605B030BD6946FFF70EFFDD
:1078F00005460028F5D0A28863881344BDF802200D
:107900009342EEDC2046FFF755FFEBE700F44063BF
:10791000B3F5406F37B518D16946FFF7E0FD05466E
:1079200088B900250CE0009B33F81400FCF746FEF4
:107930000028F6D00134E4B2BDF80430A342F2D8F6
:10794000284603B030BD0024F6E7FCF737FE0546B5
:10795000F6E700F44063B3F5406F13B516D16946FE
:10796000FFF7BDFD80B9012002B010BD009B33F8C8
:107970001400FFF750FD0028F6D00134E4B2BDF842
:107980000430A342F2D8EEE70024F8E7FFF743FD06
:10799000EAE7038803F44063B3F5406F00D07AE56B
:1079A0000020704780B582B000AF786004220021CB
:1079B000786823F083FA00BF0837BD4680BD80B4E5
:1079C00083B000AF0023FB7117E0114B1A68FB79FD
:1079D0009B0013449B78002B0CD10D4B1A68FB794C
:1079E0009B00134401229A70094B1A68FB799B0093
:1079F000134406E0FB790133FB71FB79072BE4D9D3
:107A0000002318460C37BD465DF8047B704700BF65
:107A100014FC002080B485B000AF0346FB80002337
:107A2000FB7318E0114B1A68FB7B9B0013449B7897
:107A3000012B0DD10D4B1B68FA7B33F82230FA88ED
:107A40009A4205D1094B1A68FB7B9B00134406E060
:107A5000FB7B0133FB73FB7B072BE3D90023184629
:107A60001437BD465DF8047B704700BF14FC00204E
:107A700080B582B000AF164B1B68002B0BD12C20B9
:107A800005F03BF80246124B1A60114B1B68002BA5
:107A900001D1002318E00E4B1B682C220021184650
:107AA00023F00CFA0023FB710AE0094B1A68FB79FA
:107AB0009B0013441846FFF775FFFB790133FB71F8
:107AC000FB79072BF1D9012318460837BD4680BD45
:107AD00014FC002080B584B000AF78607B689B7890
:107AE000002B09D1FFF76BFFF860FB68002B03D078
:107AF0007B689A88FB681A8000BF1037BD4680BD3E
:107B000080B584B000AF78607B685B881846FFF76B
:107B100081FFF860FB68002B02D0F868FFF742FF96
:107B200000BF1037BD4680BD80B586B000AF78601D
:107B30007B685B881846FFF76DFF78617B69002BD7
:107B400017D07B69DB78002B13D07B681B79002B67
:107B500002D107233B7301E008233B737B685B88FA
:107B6000FB8107F10C03184606F022F97B6900221D
:107B7000DA7000BF1837BD4680BD90B484B000AF46
:107B80000446084611461A462346FB800346BB803E
:107B90000B467B8013463B80FB88052B19D9FB885D
:107BA000B3F5486F15D8BB88052B12D9BB88B3F540
:107BB000486F0ED87B88B3F5FA7F0AD23B88092B31
:107BC00007D93B88B3F5486F03D8FA88BB889A4237
:107BD00001D900232AE07B8801339BB2BA8812FBCB
:107BE00003F39BB25B00FB813B88DA00FB899A427E
:107BF00001D200231AE0104B1B685B8CFA889A4272
:107C000011D80D4B1B681B8CBA889A420BD30A4BB8
:107C10001B68DB8C7A889A4205D8074B1B689B8CC3
:107C20007A889A4201D2002300E0012318461037D7
:107C3000BD4690BC704700BF14FC002080B586B0E4
:107C400000AF7860194B1B6893F82A30002B29D0BD
:107C50007B6898887B68D9887B681A897B685B8990
:107C6000FFF78BFF0346FB75FB7D002B14D07B6871
:107C70009B88BB817B68DB88FB817B681B893B829F
:107C80007B685B897B827B685B8807F10C0211460D
:107C900018461DF0A7FC05E07B685B883B21184671
:107CA0001DF0BCFC00BF1837BD4680BD14FC002091
:107CB00080B582B000AF78607B681B78062B21D836
:107CC00001A252F823F000BFE57C0001ED7C000129
:107CD000F57C0001057D0001057D0001057D0001A9
:107CE000FD7C00017868FFF7F5FE0CE07868FFF78F
:107CF00007FF08E07868FFF717FF04E07868FFF7F0
:107D00009DFF00E000BF00BF0837BD4680BD80B5C5
:107D100086B000AF78607B685B881846FFF77AFE14
:107D200078617B69002B35D01C4B1B6893F82A3097
:107D3000002B2FD07B6898887B68D9887B681A894C
:107D40007B685B89FFF719FF0346FB74FB7C002B04
:107D50001AD07B685B88002118461DF03BFE7B68CB
:107D60009B883B817B68DB887B817B681B89BB812F
:107D70007B685B89FB817B685B8807F108021146A1
:107D800018461DF0F7FB05E07B685B88012118466B
:107D90001DF020FE00BF1837BD4680BD14FC00203A
:107DA00080B586B000AF78607B685B881846FFF7C7
:107DB00031FE78617B69002B14D07B689B88002B97
:107DC00010D07B69DB78002B0CD008233B737B68D9
:107DD0005B88FB8107F10C03184605F0E9FF7B691E
:107DE0000022DA7000BF1837BD4680BD80B582B072
:107DF00000AF78607B681B78002B02D0012B04D089
:107E000007E07868FFF783FF03E07868FFF7C8FFB3
:107E100000BF00BF0837BD4680BD80B582B000AF4F
:107E200078607B681B78012B02D0022B06D00BE018
:107E30007B685B681846FFF73BFF05E07B685B6883
:107E40001846FFF7D3FF00BF00BF0837BD4680BD0F
:107E500080B483B000AF78607B681B7A002B41D080
:107E60007B685A887B681B889A4213D37B68DA88C0
:107E70007B689B889A420DD37B681B88052B09D9A8
:107E80007B685B88B3F5486F04D87B68DB88B3F503
:107E9000FA7F06D3194B1B68002283F82A2003239C
:107EA00026E0164B1B68012283F82A20134B1B681F
:107EB0007A6812881A84114B1B687A6852885A842F
:107EC0000E4B1B687A6892889A840C4B1B687A6800
:107ED000D288DA84094B1B687A68127A83F82820E2
:107EE000002305E0054B1B68002283F82A200023AD
:107EF00018460C37BD465DF8047B704714FC002023
:107F000090B58BB002AF03463960FB80FB88184602
:107F1000FFF780FDB861FB881846FEF781FB7861AA
:107F2000BB69002B35D07B69002B32D03B681B88A6
:107F3000BB813B685B88FB813B689B883B823B68DD
:107F4000DB887B8207F10C02FB88114618461DF086
:107F500011FB0346FB83FB8BB3F58D7F12D17B694D
:107F60009B78012B0ED13B6819883B685A883B6887
:107F70009C883B68DB88F888009323461AF0F8FB5E
:107F80000346FB83FB8B002B06D1BB690122DA7011
:107F900002E00323FB8300E000BFFB8B184624377D
:107FA000BD4690BD704770B5E9B101444FF6FF730F
:107FB00048F2084589B210F8014B082284EA03060A
:107FC00016F0010F4FEA530302F1FF3214BF6B406A
:107FD0009BB212F0FF024FEA5404EFD182B28A4200
:107FE000E9D1DB4399B2084670BD10B51378ED2B8B
:107FF000144611D15378032B0ED1937853B1012B32
:108000000AD1FFF7D0FF2279E37803EB02231B1A92
:1080100018BF0123184610BD0123FBE7F0B5034646
:1080200040780622B0FBF2F102FB110212F0FF00D1
:108030001FD1114E114FDFF848C0CDB20146A94201
:1080400000D1F0BDDC789A7893F804E002EB0422CA
:1080500002F1824404F59034013184F800E05C7947
:1080600094559C79D455DC7902F80C40C9B206339A
:10807000E5E70120E5E700BF0120014102200141C1
:10808000032001412DE9F04343780622B3FBF2F6C9
:1080900002FB163212F0FF0237D102391C4FDFF813
:1080A00074C0DFF874E0F6B203461546C9B2B542B3
:1080B00002D11046BDE8F083DC789878012900EB06
:1080C000042080B212D800F1824404F5803893F87D
:1080D000049088F8009004F1011493F8058084F866
:1080E00000809C79C455DC7900F80C40A42808D1A4
:1080F000187900F01F00C40648BF60F01F008EF81A
:1081000000000135EDB20633D1E70122D1E700BF0F
:1081100002000141030001416C0000204078023858
:1081200018BF012070474378042B05D1034BD0F8CA
:1081300002201A6001221A710020704704FC0020FE
:10814000F8B50F4604460026A1F10805A54202D85D
:108150004FF0FF3406E02378FF2B13D1230703D120
:1081600044F07F442046F8BD24F003031C1DA742C1
:10817000EED95A68013205D15B69013302D114F09E
:108180000C0FEDD02378012B0AD16378012B07D196
:10819000A178621D0A44E01CFFF727FF0028E1D008
:1081A0000EB1D3E70434A542D0D923680133CDD032
:1081B000234613F8012BEF2A0BD16378002BF1D162
:1081C000A378ED2BEED1E378032BEBD10734012616
:1081D000BCE71C46E7E72DE9F04785789DF820606D
:1081E00004460F469046994603354FF0010A23781E
:1081F000434508BF89F800A02378092B47D010D841
:10820000072B2ED033D8022B24D00020A74226D90A
:108210006378023DED1A2DB20233002D1C44E6DCDA
:108220001DE00D2B27D006D80A2BEED13146204673
:10823000FFF728FF11E01A2B23D0552BE5D1A4F529
:108240000003A3F5C043B3F5776FDED22046FFF7F6
:108250006AFF02E02046FFF761FF0128D6D1BDE8A2
:10826000F087002ED1D020460AF055F8F5E72046D9
:108270000AF012F8F1E7002EC7D020460AF032F8D3
:10828000EBE7002EC1D020460AF078F8E5E7002E93
:10829000BBD02046FFF7C2FEDFE72DE9F7430F46CC
:1082A0009046994630B3164B1A7932B3186800F5E8
:1082B000776600250BE04346CDF800903A463146FC
:1082C000FFF789FF0546A07804F10A031844B0427D
:1082D0000CD23146FFF734FF10F07F4F0446EAD04E
:1082E000084B20F07F449C4208BF0125284603B07C
:1082F000BDE8F083044E0348DBE78525F6E700BFC1
:1083000004FC002000608000706F800013B51346ED
:1083100014460A4601460020FFF7BFFF054B1B79B4
:1083200033B123460DF1070200210120FFF7B5FF0D
:1083300002B010BD04FC00202DE9F0478678089DAE
:108340009DF824A089460446174698460336002126
:1083500023786278FF2FDBB208D1013BDBB2FD2B23
:108360002ED828880232214640440AE0BB4227D159
:10837000BAF1000FF5D0062F0CD1072A1CD1A11C91
:10838000404621F0A7FF2B889A1C637813442B806A
:10839000012115E00B2F01D1042AEFE70C2F01D1A9
:1083A000012AEBE7102F01D1182AE7E7152F01D199
:1083B000082AE3E7182FEFD02B8802331A442A80CB
:1083C0006378023EF61A36B20233002E1C4401DDF9
:1083D0004C45BDD3012914BF80200020BDE8F087A3
:1083E0002DE9FF47074600241448154D154EADF8FA
:1083F0000E4088464FF001092946FFF7A1FE10F014
:108400007F4F824613D10DF10E030093CDF80490F7
:1084100043463A462946FFF78FFF00289AF80200A4
:108420000AF10A03184408BF0124B042E4D9012C20
:1084300014BF8020002004B0BDE8F08700608000F9
:10844000706F80006F6F8000014608B50620FFF74F
:10845000C7FFB0FA80F0400908BD014608B51520F5
:10846000FFF7BEFFB0FA80F0400908BD024B93F958
:1084700000300370012070476C00002013B50446E3
:1084800001A90B20FFF7ACFF28B9BDF80430238009
:10849000012002B010BD0020FBE713B5044601A97E
:1084A0000B20FFF79DFF28B9BDF80630238001207F
:1084B00002B010BD0020FBE713B504460DF1070123
:1084C0000C20FFF78DFF28B99DF80730237001209D
:1084D00002B010BD0020FBE7014B1879704700BFC8
:1084E00004FC0020014B1871704700BF04FC002001
:1084F000014B1868704700BF04FC002080B582B0B3
:1085000000AF78607B681B0903F588032A331802E3
:108510007B6803F00F03012202FA03F319460CF003
:1085200059FA00BF0837BD4680BD80B582B000AFA4
:1085300078607B681B0903F588032A3318027B687F
:1085400003F00F03012202FA03F319460CF050FA6C
:1085500000BF0837BD4680BD80B586B000AFB960AA
:108560007A601A460346FB8113467B73FB891B0A1C
:108570009BB2FB75FB89D9B2F87D3B6ABA6803F000
:1085800023FA7B7B1A467968386A03F035FA03468A
:10859000BB82BB8A18461837BD4680BD80B582B005
:1085A00000AF0346FB71FB79022B07D0032B09D0E8
:1085B000012B0BD11020FFF7B8FF08E01320FFF7C5
:1085C000B4FF04E01520FFF7B0FF00E000BF00BFDC
:1085D0000837BD4680BD80B582B000AF0346FB7151
:1085E000FB79022B07D0032B09D0012B0BD11020D4
:1085F000FFF784FF08E01320FFF780FF04E0152059
:10860000FFF77CFF00E000BF00BF0837BD4680BD1C
:1086100080B586B002AF78607B6801221A777B68EC
:108620009A787B68DA707B68DB78013BDAB27B682A
:10863000DA707B681B891A467B681033009300232D
:1086400079680220FFF788FF0346FB817B685B782F
:108650001846FFF7C0FF00BF1037BD4680BD80B58C
:1086600084B000AF78607B681B79002B12D07B68E8
:108670005B79002B06D07B685B79013BDAB27B68C3
:108680005A7107E07B681B78184600F0F5F803463E
:10869000FB8102E07868FFF7BBFF1037BD4680BD65
:1086A00080B582B000AF154B1B68144A23F0290334
:1086B0001360124B1B69114A23F0290313610F4BFE
:1086C00029225A62602200210D4822F0F7FB002384
:1086D000FB7108E0FB790A4A5B011344FF221A7020
:1086E000FB790133FB71FB79022BF3D9054BFF2298
:1086F0001A7000BF0837BD4680BD00BF002B004484
:1087000034F800200000002080B586B002AF034698
:108710003960FB713B681B7F032B00F2A28001A232
:1087200052F823F035870001298800016187000194
:108730005B880001FB79012B40F095803B681B7939
:10874000002B09D03B681A793B685A713B685B790A
:10875000013BDAB23B685A713868FFF759FF82E093
:10876000FB79022B40F081803B68DB78002B1BD02B
:108770003B68DB78013BDAB23B68DA703B68012288
:108780001A773B681B891A463B6810330093002315
:1087900039680220FFF7E0FE0346BB813B685B7847
:1087A0001846FFF718FF60E03B6803221A773B6822
:1087B000DB683A68D28811463A6812890A443968F7
:1087C000897801FB02F2934202D80023FB8110E07A
:1087D0003B68DB689AB23B68D9883B681B890B44CD
:1087E00099B23B689B789BB211FB03F39BB2D31AFF
:1087F000FB81FB89002B0BD0FA893B681033009377
:10880000002339680220FFF7A7FE0346BB812FE053
:108810003B68103300930023012239680220FFF7E0
:108820009BFE0346BB8123E0FB79022B1FD13B68F3
:1088300002221A773B68DB881A463B6810330093A4
:10884000002339680220FFF787FE0346BB813B689F
:108850005B781846FFF7A2FE09E03868FFF7FFFED5
:1088600006E000BF04E000BF02E000BF00E000BF80
:1088700000BF1037BD4680BD80B584B000AF034651
:10888000FB710123FB81FB79022B30D8FB795B0163
:10889000194A1344BB60BB681B7F002B25D0BB6803
:1088A0005B781846FFF77AFEBB6800221A77BB6830
:1088B0001433184603F032F90346FB81BB68FF22EC
:1088C0001A70BB6800225A70BB6800229A70BB689D
:1088D00000221A71BB680022DA80BB6800221A816C
:1088E000BB680022DA60FB8902E0002300E003237A
:1088F00018461037BD4680BD34F8002080B584B0DE
:1089000000AF78600023FB737B68002B73D07B681B
:108910009B687A68928811467A68D2880A44796896
:10892000497801FB02F2934201D2FF2364E0002365
:10893000FB731EE0FB7B324A5B0113441C331B7844
:10894000002B13D0FB7B2E4A5B01134401331A78B2
:108950007B681B789A4209D1FB7B294A5B0113444F
:108960001B781846FFF788FF0346BB81FB7B01336A
:10897000FB73FB7B022BDDD90023FB730AE0FB7B3F
:108980001F4A5B0113441C331B78002B06D0FB7B72
:108990000133FB73FB7B022BF1D900E000BFFB7BB3
:1089A000022B01D9FF2327E0FB7B5B01144A134410
:1089B000BB60BB68FA7B1A707B681A78BB685A7018
:1089C0007B685A78BB689A707B689A78BB681A7122
:1089D0007B689A88BB68DA807B689A88BB681A8152
:1089E0007B689A68BB68DA60B9680120FFF78CFE83
:1089F000BB681B7800E0FF2318461037BD4680BDDA
:108A000034F8002080B584B000AF0346FB71FA79DA
:108A100013465B0013449B00064A1344FB60F8684E
:108A2000FFF76CFF0346FB72FB7A18461037BD4612
:108A300080BD00BF4C8C020180B582B000AF786071
:108A40007B685B68002B0AD07B685B68184604F083
:108A500060F87B6800225A607B6800229A7000BF31
:108A60000837BD4680BD80B582B000AF786008226F
:108A70000021786822F022FA00BF0837BD4680BD89
:108A800080B485B000AF0346FB800023FB7315E084
:108A9000FB7B0F4ADB001344DB78012B0BD1FB7B04
:108AA0000B4A32F83330FA889A4204D1FB7BDB0060
:108AB000074A134406E0FB7B0133FB73FB7B072B68
:108AC000E6D9002318461437BD465DF8047B70478D
:108AD00090F9002080B483B000AF0023FB7114E054
:108AE000FB790F4ADB001344DB78002B0AD1FB79BA
:108AF0000B4ADB0013440122DA70FB79DB00084AE1
:108B0000134406E0FB790133FB71FB79072BE7D9AE
:108B1000002318460C37BD465DF8047B704700BF44
:108B200090F9002080B584B000AF03463960FB7136
:108B30001346BB710B4B1B68002B0FD0FB793B72AC
:108B4000BA7907F1080302333968184621F0C2FBED
:108B5000044B1B6807F108021046984700BF103706
:108B6000BD4680BDD4F9002080B588B000AF7860E4
:108B70007B68DB88F22B02D0FC2B18D02FE07B68BF
:108B80000E33FB61FB69184A1B781370FB690133D4
:108B9000FB617B689B883B83134B1B78BB7607F19B
:108BA0001803042219460020FFF7BCFF17E07B687A
:108BB0000E337B617A6907F1130312781A707B69AF
:108BC00001337B617B689B88BB81FB7CBB7307F1B6
:108BD0000C03042219460120FFF7A4FF00BF00BFC9
:108BE0002037BD4680BD00BF8CF9002080B588B01D
:108BF00000AFF860B9601346FB80FB689B8818469D
:108C0000FFF73EFFB861BB69002B05D100220021B0
:108C10000220FFF787FF60E0FB681B7A0A2B2DD14B
:108C2000FB880433184603F068FF0246BB695A60AC
:108C3000BB695B68002B05D1002200210220FFF7F1
:108C400071FF4AE0BB6902229A70BB695B687B6175
:108C50007B69FA881A807B690B229A707B690333DF
:108C6000FA88B968184621F035FBFB689B8879695A
:108C700018461CF0ABFF0346FB8328E0042003F0FA
:108C80003CFF0246BB695A60BB695B68002B05D19B
:108C9000002200210220FFF745FF1EE0BB690322EE
:108CA0009A70BB695B683B61FB681A7A3B691A7012
:108CB000FB68DA883B695A803B6906225A70FB6878
:108CC0009B88396918461CF065FF0346FB83FB8BC4
:108CD000002B02D1B869FFF7AFFE2037BD4680BD3B
:108CE00080B582B000AF78607B68DB88F22B04D05F
:108CF00040F23B12934206D00BE00122074978680C
:108D0000FFF774FF05E0012205497868FFF76EFF61
:108D100000BF00BF0837BD4680BD00BF8CF90020F2
:108D2000D0F9002080B584B000AF0346FB80FB88FB
:108D30001846FFF7A5FEB860BB68002B05D10022DE
:108D400000210220FFF7EEFE25E0BB689B78022B96
:108D500002D0032B0BD015E0BB681A88BB685B6898
:108D6000194610461CF032FF0346FB810DE0BB683C
:108D70001A88BB685B68194610461CF00BFF034657
:108D8000FB8102E00023FB8100BFFB89002B02D1A5
:108D9000B868FFF751FE1037BD4680BD80B584B07E
:108DA00000AF78607B681B78012B18D0092B2CD082
:108DB000002B30D17B689B78002B2ED1FFF78AFEE9
:108DC000F860FB68002B05D1002200210220FFF78C
:108DD000A9FE23E07B689A88FB681A801DE07B6807
:108DE0005B881846FFF74CFEB860BB68002B05D1C6
:108DF000002200210220FFF795FE0FE0B868FFF780
:108E00001BFEB868FFF72FFE08E07B685B881846FA
:108E1000FFF788FF02E000BF00E000BF1037BD464B
:108E200080BD80B582B000AF78607B681B780A2B6C
:108E300005D00B2B07D17868FFF796FE04E0786821
:108E4000FFF74EFF00E000BF00BF0837BD4680BD02
:108E500080B500AF104B00221A6021F05BFB034687
:108E6000002B01D0012314E00C4B00221A7021F0DA
:108E700045FB0346002B01D001230AE021F056FBFD
:108E80000346002B01D0012303E0054B00221A709A
:108E90000023184680BD00BFD4F900208CF90020C3
:108EA000D0F9002080B483B000AF7860044A7B68BA
:108EB000136000BF0C37BD465DF8047B704700BFF0
:108EC000D4F9002080B483B000AF0346FB71FB7976
:108ED000022B01D9032303E0044AFB79137000231A
:108EE00018460C37BD465DF8047B70478CF90020AE
:108EF00080B483B000AF0346FB71044AFB79137062
:108F000000BF0C37BD465DF8047B7047D0F90020E8
:108F100080B582B000AF78607B681B78012B02D0EF
:108F2000042B06D00BE07B685B681846FFF736FF22
:108F300005E07B685B681846FFF773FF00BF00BF62
:108F40000837BD4680BD00BF70B50378C4B0044685
:108F50001F2B3AD8DFE813F020004B000E02390037
:108F60003900390039006E003900400139003900FC
:108F70006F016C023900390039009C01E701910052
:108F8000150239003900390039003900390039003B
:108F90001D0248023900C701C58828461EF044F862
:108FA0000246A8B9B74B0093CDE901500423102124
:108FB000EE200EF0EFF90022043401920094062313
:108FC00005214FF482701EF0FDFE012044B070BDFB
:108FD0001DF0A2FAE388ADF81230237A8DF8143030
:108FE00004A801238DF8103019F09AFBE3E7C58837
:108FF00028461EF019F8024680B90123CDE9015335
:10900000A04B009310210423EE200EF0C3F90022A0
:1090100004340192009406230821D2E703238DF83B
:10902000103004A82379ADF812508DF8143019F0DF
:1090300077FBECE7C58828461DF0F6FF024680B9AD
:109040000723CDE901538F4B009310210423EE2019
:109050000EF0A0F900220434019200940423302180
:10906000AFE703238DF8103004A82379ADF8125030
:109070008DF8143019F054FBECE7037A824D012B84
:1090800060D1286800F5DA700EF028F82A681378A5
:10909000002123F00103137008461EF00FFE1AF0A2
:1090A000CDFD2379002B40F08480E388002861D136
:1090B0002278CDE90132754B009302460423112139
:1090C000EE200EF067F923798DF8123004F10A06CC
:1090D000E388ADF814303146237A607A8DF8163083
:1090E0001FF079F9E389ADF81C30637D8DF8170026
:1090F00003F0C003D4F80A000690402B5ED123464B
:1091000053F8102FCDF81E209B88ADF8223023464F
:10911000002553F8160F09909B88ADF82830A38BD3
:10912000ADF82A3004A8D4F81E300B9304348DF81F
:10913000105019F0F5FA0195009420232A464FF4B7
:109140009F713EE72A68137823F00403137002210D
:1091500000201EF0B3FD2B6803F5087203F51073B1
:1091600052F8040B10B1C17801299AD09342F7D17B
:10917000002096E703800223C370237A8370A38BB9
:109180008381E38BC381238C03822B6893F8212096
:109190000271627D02F0C002402A0ABF234653F8E2
:1091A000221F53F8101FC0F80510421D9B889380A2
:1091B00089E7002887D01DF0AFF984E72B6893F882
:1091C0002120022A02D153F8222F9BE70023CDF859
:1091D0001E30ADF822309AE7C58828461DF024FFDE
:1091E000024688B90923CDE90153264B009310218B
:1091F0000423EE200EF0CEF80022043401920094F5
:109200000A2340F23E31DCE60023837402238DF80A
:109210001030E388ADF8123023798DF814302389AB
:10922000ADF81630A268A389069204A8ADF81C30E8
:1092300019F076FAE0E7858828461DF0F5FE02462B
:1092400088B90C23CDE901530E4B00931021042360
:10925000EE200EF09FF800220434019200940A23BD
:1092600040F23E61ADE606238DF81030D4F80630AA
:10927000059304A8D4F80A30ADF81250069319F0FB
:109280004FFAE8E7900502019C000020C4050201A6
:10929000C58828461DF0C8FE90B91123CDE90153B9
:1092A000674B0093024604231021EE200EF072F863
:1092B00000220434019200940C2340F23E4180E6E7
:1092C0002379002BF4D1237A9B0605D540F648027A
:1092D000FB21008818F080FB172304A88DF81030BC
:1092E00019F01EFAE4E7858828461DF09DFE024627
:1092F00080B91F23CDE90153514B00931021042362
:10930000EE200EF047F8002204340192009402236C
:10931000572156E60B2304A88DF81030ADF81250F3
:1093200019F0FEF9EFE7C58828461DF07DFE0246DC
:1093300088B91223CDE90153414B00931021042336
:10934000EE200EF027F80022043401920094062348
:1093500040F63E4135E60C238DF8103023798DF828
:10936000143004A82389ADF81250ADF8153019F067
:10937000D7F9E8E700220434019200940A230C2173
:109380001FE60022043401920094042341F23E417E
:1093900017E6C58828461DF047FE024688B91C23FB
:1093A000CDE90153274B009311210423EE200DF04A
:1093B000F1FF00220434019200940A2342F23E118C
:1093C000FFE514238DF8103023798DF81230A26850
:1093D00094F90C30ADF8145004A8CDF816208DF88F
:1093E0001A3019F09DF9E4E7858828461DF01CFE27
:1093F000024688B91D23CDE90153124B0093112178
:109400000423EE200DF0C6FF0022043401920094E4
:10941000042342F23E01D4E516238DF8103004A84F
:10942000E388ADF81250ADF8143019F079F9EBE794
:1094300000220434019200940A2340F23E71C0E5F8
:1094400090050201C405020180B5C6B000AF3B1D06
:1094500018603B461960002387F8173113E097F82E
:109460001731C3F10F033A1D12681A4497F81731E8
:10947000127807F58C710B4403F8242C97F81731F8
:10948000013387F8173197F817310F2BE7D907F118
:10949000F40207F10C031146184607F036F80346AC
:1094A000002B01D000235CE007F582730D22002120
:1094B000184621F003FD002387F8173114E097F8D0
:1094C0001731C3F105033A4612681A4497F8173169
:1094D0000D33127807F58C710B4403F8142C97F8B0
:1094E0001731013387F8173197F81731022BE6D976
:1094F00007F5827307F1F40207F10C00102107F061
:1095000035F80346002B01D000232AE0002387F81A
:10951000173113E097F81731C3F102033A46126886
:109520001A4497F81731127807F58C710B4403F839
:10953000142C97F81731013387F8173197F8173142
:10954000022BE7D907F1F4030D3307F582710322EB
:10955000184620F0B1FE0346002B0CBF0123002368
:10956000DBB2184607F58C77BD4680BD80B582B06A
:1095700000AF03463960FB71FB79072B0DD8FB79EF
:109580009BB203F500539BB21846FEF7BFF90346A2
:1095900083F00103DBB2002B01D0032346E0FB790B
:1095A0009BB203F500539BB21846FEF7D2F903466F
:1095B000002B3AD0FB799BB203F5005308339BB2E2
:1095C0001846FEF7A3F90346002B18D0FB799BB28F
:1095D00003F5005308339BB21846FEF7BAF9034669
:1095E00083F00103DBB2002B01D001231EE03B68B6
:1095F000173317220F49184620F06CFE06E03B682F
:10960000173317220021184621F058FC3B68172217
:109610000949184620F05EFE3B682E331B2207499D
:10962000184620F057FE002300E0012318460837B3
:10963000BD4680BDC8F8002094F80020ABF800209B
:1096400080B582B000AF03463960FB71FB79072B10
:1096500001D903232FE03B68173317221946184816
:1096600020F038FEFB799BB203F5005308339BB220
:109670001846FDF7FDFF0346002B1BD03B68172261
:109680001946104820F026FE3B682E331B2219464F
:109690000D4820F01FFEFB799BB203F500539BB2EF
:1096A0001846FDF7E5FF0346002B01D0002302E03A
:1096B000012300E0012318460837BD4680BD00BFE6
:1096C000C8F8002094F80020ABF8002080B582B0E4
:1096D00000AF0023FB7110E0FB799BB203F5005350
:1096E0009BB21846FEF712F9034683F00103DBB282
:1096F000002B06D1FB790133FB71FB79072BEBD9EA
:1097000000E000BFFB7918460837BD4680BD80B534
:1097100086B000AF78607B681B78032B01D10823EB
:109720006BE007F10C0318461CF092FF0346BB8266
:10973000BB8A002B01D008235FE00023FB7556E0B5
:10974000FB7D9BB203F500539BB21846FEF7DEF893
:109750000346002B48D0FB7D9BB203F500539BB220
:109760001846FEF7F6F80346002B3DD0FB7D9BB272
:1097700003F5005308339BB21846FEF7C7F80346BB
:10978000002B15D0FB7D9BB203F5005308339BB231
:109790001846FEF7DEF80346002B22D007F10C0333
:1097A00007221946174820F087FD0346002B1AD1DF
:1097B0007B681B78022B09D17B680133194612485C
:1097C000FFF742FE0346002B0ED015E07B68013305
:1097D00006220E49184620F06FFD0346002B0AD0E2
:1097E00002E000BF00E000BFFB7D0133FB75FB7DA5
:1097F000072BA5D900E000BFFB7D18461837BD46F2
:1098000080BD00BFC8F800209BF8002095F800201C
:1098100080B582B000AF0346FB71FB79072B01D9FD
:1098200003230DE0FB799BB203F500539BB218466E
:10983000FDF700FF0346002B01D1002300E00123C8
:1098400018460837BD4680BD80B582B000AF002302
:10985000FB710FE0FB799BB203F500539BB21846F6
:10986000FDF7E8FE0346002B01D0012306E0FB795B
:109870000133FB71FB79072BECD90023184608371D
:10988000BD4680BD80B582B000AF0346FB71FB7959
:109890009BB203F500539BB21846FEF737F8034618
:1098A00018460837BD4680BD80B582B000AF03467C
:1098B000FB80FB88B3F5005F0ED3FB8842F2070202
:1098C000934209D8064B1B68002B05D0044B1B683C
:1098D000FA88D2B21046984700BF0837BD4680BD0F
:1098E000E8F8002080B582B000AF7860044A7B6859
:1098F00013600448FDF75EFE00BF0837BD4680BD1B
:10990000E8F80020A998000180B588B000AF786021
:1099100000237B61F7F74AFA454B1B68002B01D106
:1099200000F01DF97B68002B12D008227B6803F041
:109930000703D31A08333B613B69DB437A689A42D9
:1099400004D87A683B6913447B6001E000237B60A4
:109950007B68002B60DB7B68002B5DD0354B1B6880
:109960007A689A4258D8344BBB61334B1B68FB6111
:1099700004E0FB69BB61FB691B68FB61FB695B6819
:109980007A689A4203D9FB691B68002BF1D1284BF6
:109990001B68FA699A423FD0BB691B6808221344CE
:1099A0007B61FB691A68BB691A60FB695A687B684E
:1099B000D21A08235B009A420FD9FA697B681344D4
:1099C000FB60FB695A687B68D21AFB685A60FB69C6
:1099D0007A685A60F86800F01FF9164B1A68FB693C
:1099E0005B68D31A134A1360124B1A68134B1B6837
:1099F0009A4203D20F4B1B68104A1360FB695B68E5
:109A000043F00042FB695A60FB6900221A600C4B6C
:109A10001B6801330A4A1360F7F710FA7B69002BC1
:109A200001D114F0ECFE7B6918462037BD4680BD9D
:109A3000F4F10020F8F10020ECF10020FCF100200E
:109A400000F2002080B584B000AF78607B68FB60D6
:109A50007B68002B2BD008235B42FA681344FB6021
:109A6000FB68BB60BB685B68DB0F03F00103DBB224
:109A7000002B1CD0BB681B68002B18D1BB685B682F
:109A800023F00042BB685A60F7F790F9BB685A6848
:109A9000094B1B681344084A1360B86800F0BCF80F
:109AA000064B1B680133054A1360F7F7C7F900BF7F
:109AB0001037BD4680BD00BFF8F1002004F2002041
:109AC00080B400AF034B1B681846BD465DF8047BAD
:109AD000704700BFF8F1002080B400AF034B1B6853
:109AE0001846BD465DF8047B704700BFFCF10020BE
:109AF00080B400AF00BFBD465DF8047B704780B501
:109B000084B000AF786039600023FB607B68002B75
:109B100009D04FF0FF327B68B2FBF3F33A689A4208
:109B200001D9012300E00023002B13D17B683A68A0
:109B300002FB03F31846FFF7E7FEF860FB68002B13
:109B400008D07B683A6802FB03F31A460021F868E4
:109B500021F0B4F9FB6818461037BD4680BD80B4CB
:109B600085B000AF4FF47043BB60264BFB60FB68D1
:109B700003F00703002B0CD0FB680733FB60FB6886
:109B800023F00703FB60BA68FB68D31A1D4A13442D
:109B9000BB60FB687B601C4A7B6813601A4B002229
:109BA0005A607B68BA681344FB600822FB689B1A02
:109BB000FB60FB6823F00703FB60FB68134A13603C
:109BC000124B1B6800225A60104B1B6800221A605F
:109BD0007B683B603B68FA68D21A3B685A600B4B63
:109BE0001A683B681A603B685B68094A13603B6807
:109BF0005B68084A136000BF1437BD465DF8047BFC
:109C0000704700BFEC010020ECF10020F4F10020CF
:109C1000FCF10020F8F1002080B485B000AF78603E
:109C2000284BFB6002E0FB681B68FB60FB681B685D
:109C30007A689A42F7D8FB68BB60FB685B68BA68D1
:109C400013447A689A4208D1FB685A687B685B685B
:109C50001A44FB685A60FB687B607B68BB607B686A
:109C60005B68BA681A44FB681B689A4218D1FB68A3
:109C70001A68154B1B689A420DD07B685A68FB68BE
:109C80001B685B681A447B685A60FB681B681A682B
:109C90007B681A6008E00C4B1A687B681A6003E066
:109CA000FB681A687B681A60FA687B689A4202D07F
:109CB000FB687A681A6000BF1437BD465DF8047B04
:109CC000704700BFECF10020F4F1002080B586B0B1
:109CD00000AF786000233B610023FB604FF0FF334F
:109CE000BB60F7F763F8224B1B687B617B69002B35
:109CF0001BD015E03B6901333B617B695B68FA6807
:109D00009A4202D27B695B68FB607B695B68BA68D8
:109D10009A4202D97B695B68BB607B691B687B6187
:109D2000144B1B687A699A42E4D1F7F787F87B688D
:109D3000FA685A607B68BA689A607B683A69DA6048
:109D400000F0CFF80C4B1A687B681A600B4B1A684E
:109D50007B685A610A4B1A687B689A61094B1A68DA
:109D60007B681A6100F0D6F800BF1837BD4680BD89
:109D7000ECF10020F4F10020F8F1002000F20020C6
:109D800004F20020FCF1002049444C45000000BFD3
:109D900080B485B000AFF860B9607A60FB68043BBE
:109DA000FB60FB684FF080721A60FB68043BFB604D
:109DB000BB6823F00102FB681A60FB68043BFB6090
:109DC0000C4AFB681A60FB68143BFB607A68FB680E
:109DD0001A60FB68043BFB60FB686FF002021A60CC
:109DE000FB68203BFB60FB6818461437BD465DF8F6
:109DF000047B7047F99D000180B483B000AF00235D
:109E00003B604FF0200383F31188BFF36F8FBFF3E4
:109E10004F8F7B6000BF3B68002BFCD000BF0C372E
:109E2000BD465DF8047B7047094B19680868B0E8C7
:109E3000F04F80F30988BFF36F8F4FF0000080F37D
:109E400011887047AFF30080AFF30080AFF300805C
:109E500020F6002000BF08480068006880F30888EA
:109E60004FF0000080F3148862B661B6BFF34F8FE5
:109E7000BFF36F8F00DF00BF08ED00E000BF80B5CB
:109E800000AF114B1B68104A43F4600313600E4B84
:109E90001B680D4A43F06043136000F077F90B4BE9
:109EA00000221A6000F0A2F9094B1B68084A43F02F
:109EB00040431360FFF7CFFFF7F740FAFFF79CFF2F
:109EC0000023184680BD00BF20ED00E0A001012066
:109ED00034EF00E080B400AF00BFBD465DF8047B06
:109EE000704780B483B000AF4FF0200383F3118834
:109EF000BFF36F8FBFF34F8F7B60054B1B68013340
:109F0000034A136000BF0C37BD465DF8047B704701
:109F1000A001012080B483B000AF0A4B1B68013B55
:109F2000084A1360074B1B68002B04D100237B6099
:109F30007B6883F3118800BF0C37BD465DF8047B56
:109F4000704700BFA0010120EFF30980BFF36F8FBE
:109F5000174B1A681EF0100F08BF20ED108A20E979
:109F6000F04F10602DE909004FF0200080F31188B8
:109F7000BFF34F8FBFF36F8FF7F7E0F94FF000009B
:109F800080F3118809BC19680868B0E8F04F1EF02A
:109F9000100F08BFB0EC108A80F30988BFF36F8FF1
:109FA000704700BFAFF30080AFF30080AFF30080D5
:109FB00020F6002000BF80B582B000AF4FF0200334
:109FC00083F31188BFF36F8FBFF34F8F7B60F7F779
:109FD000A7F80346002B03D0064B4FF080521A60BF
:109FE00000233B603B6883F3118800BF0837BD4600
:109FF00080BD00BF04ED00E080B588B000AF7860A0
:10A000005B4B1B687A689A4202D9594B1B687B608C
:10A0100072B6BFF34F8FBFF36F8FF7F79BFC03460A
:10A02000002B01D162B69EE0524B06221A60524BC1
:10A030001B687B617B69002B02D1504B1B687B61E5
:10A040007B68013B4D4A126802FB03F37A691344B3
:10A05000FB614B4B1B6803F08063002B08D0484B1F
:10A060004FF000721A60454B1B68FA69D31AFB6106
:10A07000444B1B68FA699A4204D9424B1B68FA693F
:10A08000D31AFB61404AFB6913603B4B00221A6004
:10A09000384B1B68374A43F0010313607B68FB6051
:10A0A000FB68002B04D0BFF34F8F30BFBFF36F8F1F
:10A0B00062B6BFF34F8FBFF36F8F72B6BFF34F8F90
:10A0C000BFF36F8F2B4B06221A602A4B1B6803F4D9
:10A0D0008033002B1DD0294B1A68274B1968FB6968
:10A0E000CB1A1344013B3B61264B1B683A699A42E9
:10A0F00004D9224B1B683A699A4203D91F4B1B684B
:10A10000013B3B61204A3B6913607B68013BBB61BB
:10A110001AE0194B1B687B61184B1B687A6802FBBD
:10A1200003F27B69D31ABB60144B1B68BA68B2FB9D
:10A13000F3F3BB61BB690133104A126802FB03F2FF
:10A140001149BB68D31A0B600B4B00221A60094BF4
:10A1500007221A60094B1B680B4A013B1360B86960
:10A16000F6F79CFF62B600BF2037BD4680BD00BF3A
:10A17000B4FB002010E000E018E000E0B0FB00209D
:10A1800004ED00E0B8FB002014E000E080B400AF74
:10A19000104B4FF47A421A600E4B1B686FF07F42EF
:10A1A000B2FBF3F30C4A13600C4B5E221A600C4BAB
:10A1B00000221A600B4B00221A600B4B4FF6FF1265
:10A1C0001A60074B07221A6000BFBD465DF8047B8A
:10A1D000704700BFB0FB0020B4FB0020B8FB00209C
:10A1E00010E000E018E000E014E000E0DFF80C0010
:10A1F000016841F4700101607047000088ED00E0E3
:10A2000000BF00BF80B582B000AF1820FFF77CFB15
:10A2100078607B68002B07D07B6800221A607B681F
:10A220000433184608F062FA7B6818460837BD46C2
:10A2300080BD80B58AB000AFF860B9607A603B60DD
:10A24000FB683B620023FB61F6F7B0FD3B6A1B68CD
:10A25000BB61B968F86800F02CF9BA69BB681A43A9
:10A260007B6813407A689A420DD1BA69BB68134380
:10A270007B623B6A1A687B68DB431A403B6A1A6060
:10A2800000233B6013E03B68002B0BD03B6A181D9A
:10A290007B6843F0A0633A681946F7F7D1F80023CA
:10A2A0007B6204E03B6A1B687B620123FB61F6F77B
:10A2B000C5FD78613B68002B2CD07B69002B07D152
:10A2C000174B4FF080521A60BFF34F8FBFF36F8F61
:10A2D000F7F7F4FD78627B6A03F00073002B15D169
:10A2E000FFF7FFFD3B6A1B687B627A6A7B6813405D
:10A2F0007A689A4206D13B6A1A687B68DB431A4047
:10A300003B6A1A60FFF706FE0123FB617B6A23F0BC
:10A310007F437B627B6A18462837BD4680BD00BFFD
:10A3200004ED00E080B58CB000AFF860B9607A60F1
:10A330003B60FB687B620023BB6200233B62F6F755
:10A3400035FD7B6A1B68FB613A68B968F86900F003
:10A3500057F9B861BB69002B0ED0FB69FB62002383
:10A36000BB637B68002B28D07B6A1A68BB68DB4321
:10A370001A407B6A1A6020E0BB6B002B04D1FB699A
:10A38000FB6201233B6218E07B68002B03D0BB6AB1
:10A3900043F08073BB623B68002B03D0BB6A43F081
:10A3A0008063BB627B6A181DBA68BB6A1343BA6BD1
:10A3B0001946F7F745F80023FB62F6F73FFD786191
:10A3C000BB6B002B31D07B69002B07D1194B4FF0B1
:10A3D00080521A60BFF34F8FBFF36F8FF7F76EFD98
:10A3E000F862FB6A03F00073002B1AD1FFF779FDC6
:10A3F0007B6A1B68FB623A68B968F86A00F000F98A
:10A400000346002B09D07B68002B06D07B6A1A68B4
:10A41000BB68DB431A407B6A1A6001233B62FFF78B
:10A4200079FDFB6A23F07F43FB62FB6A18463037F5
:10A43000BD4680BD04ED00E080B584B000AF78601B
:10A4400039607B68FB60FFF74CFDFB681B68BB60F5
:10A45000FB681A683B68DB431A40FB681A60FFF729
:10A4600059FDBB6818461037BD4680BD80B489B021
:10A4700000AF78607B68FB61EFF311824FF020033F
:10A4800083F31188BFF36F8FBFF34F8FFA60BB6008
:10A49000FB68BB61FB691B687B61BB693B613B6916
:10A4A00083F311887B6918462437BD465DF8047B29
:10A4B000704780B58CB000AF786039600023BB6214
:10A4C0007B683B6200237B623B6A0433FB61FB6970
:10A4D0000833BB61F6F76AFCFB69DB68FB623B6A29
:10A4E0001A683B681A433B6A1A603CE0FB6A5B6887
:10A4F0007B61FB6A1B683B6100237B623B6903F065
:10A500007F43FB603B6923F07F433B61FB6803F0C3
:10A510008063002B08D13B6A1A683B691340002B0B
:10A520000BD001237B6208E03B6A1A683B69134049
:10A530003A699A4201D101237B627B6A002B10D0D9
:10A54000FB6803F08073002B03D0BA6A3B691343A6
:10A55000BB623B6A1B6843F000731946F86AF7F761
:10A56000A7F87B69FB62FA6ABB699A42BED13B6A73
:10A570001A68BB6ADB431A403B6A1A60F6F75EFC56
:10A580003B6A1B6818463037BD4680BD80B584B035
:10A5900000AF78607B68FB60FB680433BB60F6F754
:10A5A00005FC06E0BB68DB684FF000711846F7F762
:10A5B0007FF8BB681B68002BF4D1F6F73FFCF86806
:10A5C000FFF740FA00BF1037BD4680BD80B582B0AE
:10A5D00000AF7860396039687868FFF76AFF00BFBC
:10A5E0000837BD4680BD80B582B000AF7860396065
:10A5F00039687868FFF720FF00BF0837BD4680BD87
:10A6000080B487B000AFF860B9607A6000237B61E6
:10A610007B68002B07D1FA68BB681340002B0AD077
:10A6200001237B6107E0FA68BB681340BA689A426D
:10A6300001D101237B617B6918461C37BD465DF85B
:10A64000047B70472DE9F04186B0B34B019006467C
:10A650000093022201231321EC200CF09BFE012E1B
:10A6600009D9AE4F3868F021043021F025F90446AD
:10A6700030B90C250FE020F0CBFD0028F1D0F8E731
:10A68000002E40F05F8190F86031012B12D110F064
:10A690004DFF68B90725A24B0093019501230022C5
:10A6A000FF21EC200CF076FE284606B0BDE8F081D4
:10A6B00011F034FB3868F021043021F0FDF8044635
:10A6C000032E00F20F81DFE816F04B005800B500B2
:10A6D00014011E255DE1012E00F2658168E155B986
:10A6E000294604A81FF0BCF89DF81030002B00F09C
:10A6F0006A811225CFE7AB1E012B00F2648194F82A
:10A7000022209DF8103062F300038DF810302346AC
:10A710004FF0000853F8232FCDF811209B888DF8B7
:10A720000E800DF10E0104A8ADF8153018F0D8F91F
:10A73000002800F04881022D40F03F8141460DF194
:10A740000F001FF08DF89DF80F30CFE794F86031BF
:10A75000002BAFD11DF05CF9054600289BD1A9E77D
:10A7600094F86021012A03D10021204615F04AF90E
:10A77000012020F035FD002596E794F86051002D6A
:10A78000F6D10121084612F0A9FF94F87310204673
:10A7900009F0C8FD4FF48073A4F88C3194F873303D
:10A7A000E269257413F1FF3318BF012384F88E3159
:10A7B000042384F88F3103F26D235343C4F8A4318A
:10A7C00042F21073C4F8A831012384F860311FF0FD
:10A7D000C1FFC4F8EC0110F0A9FED4F8EC31A26876
:10A7E0001A62D4F8EC314F4A5A62D4F8EC314E4A2E
:10A7F0009A62D4F8EC314D4ADA62D4F8EC314C4A22
:10A800001A63D4F8EC314B4A5A6306462946D4F809
:10A81000EC010AF0F5FFD4F8EC311D60D4F8EC310E
:10A8200072685A60D4F8EC3113603046736021F0DE
:10A830005FF99DE794F87310204609F073FD01233A
:10A8400084F8603100232374E56920F0E9FC4FF4BB
:10A85000C8635843B0FBF5F0374D21F03FF81FF0C7
:10A86000BFFB94F873202A7094F820206A7094F843
:10A870002920AA70B4F82120A5F80320224652F816
:10A88000231FC5F805109288A5F80920B4F8002107
:10A890002AB1D4F8FC1005F10C001FF01BFDB4F830
:10A8A0001021B4F80031EB7222B1D4F80C11234816
:10A8B0001FF010FDB4F8103185F82B3094F8F43007
:10A8C00085F84B3018F0E4F816F036FC12F0C4FEB0
:10A8D000A3680493E3680093042204AB18490220A0
:10A8E00017F0E1FA002020F07BFC002020F080FC33
:10A8F00041E7012384F86031002323741EF07AFBC2
:10A9000008B11FF06DFB94F87310204609F00AFDA2
:10A91000DEE71E25BFE600BF27A30201F4000020EA
:10A92000DC8902017567010161BD0201F97802014C
:10A9300049DB000155EF0101F8FE002024FF002053
:10A940000B000100032E7FF4C6AE404B1A7884F84A
:10A9500073209A7884F82920FF2284F82E201A4642
:10A96000597852F8050F84F820109288A4F827200F
:10A97000B3F80320C4F82300A4F8212093F84B3047
:10A9800084F8F43000293FF4A4AE002B0CBF1E2540
:10A99000002518F055F814F057FF11F069FC284312
:10A9A00010F0FF0FB5D194F87330012B3FF461AE76
:10A9B00094F82150012D7FF492AE204620F0F0FB58
:10A9C00000283FF496AE94F86031002B3BD120462E
:10A9D00007F0E8FA054600287FF45DAE012E3FF44B
:10A9E000B5AE042015F000FCE06000283FF452AE44
:10A9F00001201AF095FB00283FF43BAE032E7FF4B4
:10AA000059AE124DE87A48B10EF03EF8C4F8FC0099
:10AA100020B1EA7A05F10C011FF05CFC95F82B00DF
:10AA2000EB7AA4F8003148B10EF02EF8C4F80C010E
:10AA300020B195F82B2006491FF04CFC95F82B30DF
:10AA4000A4F8103136E6012ECBD133E6F8FE002013
:10AA500024FF002080B582B000AF0346FB71FA7975
:10AA600013465B0013449B00054A13440C2200214B
:10AA7000184620F023FA00BF0837BD4680BD00BF4E
:10AA8000A4FB002080B485B000AF0346FB80002308
:10AA9000FB7320E0FA7B154913465B0013449B00CF
:10AAA0000B4403331B78002B12D0FA7B0F4913465B
:10AAB0005B0013449B000B441B88FA889A4207D121
:10AAC000FA7B13465B0013449B00084A134406E0DC
:10AAD000FB7B0133FB73FB7B002BDBD00023184691
:10AAE0001437BD465DF8047B704700BFA4FB00200F
:10AAF00080B483B000AF0023FB712CE0FA791B49CE
:10AB000013465B0013449B000B4403331B7883F014
:10AB10000103DBB2002B1BD0FA79144913465B000A
:10AB200013449B000B440233FA791A70FA790F49E7
:10AB300013465B0013449B000B44033301221A703D
:10AB4000FA7913465B0013449B00084A134406E05D
:10AB5000FB790133FB71FB79002BCFD00023184622
:10AB60000C37BD465DF8047B704700BFA4FB002096
:10AB700080B584B000AF0346FB71FB79022B03D094
:10AB8000032B40D0012B3FE0214B9B78022B25D09B
:10AB9000032B34D11E4B01221A700023FB7319E0E2
:10ABA000FA7B1C4913465B0013449B000B440333A0
:10ABB0001B78002B0BD0FA7B164913465B0013441D
:10ABC0009B000B441B88132118461AF0B7FCFB7B33
:10ABD0000133FB73FB7B002BE2D013E0002100204C
:10ABE0001AF074FC0346002B0BD1002000F0ADF8E6
:10ABF000002000F011F8002000F033F801E000BF61
:10AC000002E000BF00E000BF00BF1037BD4680BDBE
:10AC100004000020A4FB002080B586B000AF0346EE
:10AC2000FB7107F108030E220021184620F046F9B7
:10AC300020233B8120237B8100233B7307233B752B
:10AC4000FB79012B02D103237B7501E000237B7587
:10AC500007F1080318461BF02BFC00BF1837BD4650
:10AC600080BD80B582B000AF0346FB71FB79012B3C
:10AC70000FD1114B02229A700120FDF7C3FE03464B
:10AC80001A460E4B1A7040F6B83101201AF01EFC1D
:10AC90000EE0094B01229A700020FDF7B3FE034637
:10ACA0001A46064B1A7041F2707101201AF00EFC20
:10ACB00000BF0837BD4680BD040000200000002012
:10ACC00080B586B000AF78600023FB750023FB726F
:10ACD00007F10B0207F10C031146184603F068F95F
:10ACE000FB7A002B04D03A7B7B681A700123FB753A
:10ACF000FB7D18461837BD4680BD80B584B000AFD7
:10AD00000346FB71FB79002B16D007F10E031846A2
:10AD1000FFF7D6FF0346FB73FB7B002B11D0BB7BF9
:10AD20003B7201233B7307F10C0207F1080319463C
:10AD3000012003F006F904E000220021002003F0C6
:10AD400000F900BF1037BD4680BD80B584B000AFAC
:10AD50000346FB71FB79002B12D007F10E03184656
:10AD6000FFF7AEFF0346FB73FB7B002B0CD0BB7BD6
:10AD70003B7307F10C031946012003F0C4F803E00C
:10AD80000021002003F0BFF800BF1037BD4680BD92
:10AD900080B584B000AF1C48FFF792FF0346BB7339
:10ADA0003B460E220021184620F088F820233B80E5
:10ADB00020237B8000233B7107233B73BB7B002B4D
:10ADC00002D003237B7301E000237B733B461846CC
:10ADD0001BF06EFBBB7B002B05D00120FFF7B5FFFE
:10ADE0000120FFF78AFF0023FB7306E0FB7B184678
:10ADF000FFF730FEFB7B0133FB73FB7B002BF5D0B1
:10AE000000BF1037BD4680BD050000202DE9F04F82
:10AE100089B0D0F84831009302330193D0F844311F
:10AE20000493D0F84031059308238DF81C3090F836
:10AE30000031D0F854810690044606332546009927
:10AE40008DF81D3006A80CF089FB424655F8333FBB
:10AE500042F8253BAB88A8F804300292B4F80021F0
:10AE60002AB1D4F8FC1008F106001FF033FA0523CC
:10AE70008DF81C3094F8103101990694063306A819
:10AE80008DF81D300CF06AFB2B68C8F82530029A4B
:10AE9000AB889380B4F810212AB1D4F80C1108F1D2
:10AEA0002B001FF017FA0025D4F8F8712E4600BFCA
:10AEB00094F8F430B34202D809B0BDE8F08FD7F867
:10AEC0001090DFF8E4A2D9F800306FF30203C9F85C
:10AED0000030D9F80020012363F3C402C9F8002030
:10AEE000D9F800204FF0040B6BF3CA12C9F8002008
:10AEF000D9F800104A466BF3CE2142F8101BDAF85D
:10AF00000010521AD9F8001092B262F3DE31C9F87B
:10AF10000010D9F8002000996FF3DF72C9F8002003
:10AF2000BAF80020D9F80400891A89B261F30F0039
:10AF3000C9F80400D9F80410A8EB020292B262F337
:10AF40001F41C9F80410D9F8082063F30102C9F8B9
:10AF50000820D9F8082042EA0B02C9F80820009B13
:10AF600094F83F105A7894F82B001BF031FFC7F883
:10AF70001090009BDAF8002004EB86090021C7E955
:10AF80000705C7E90538397287F82810C9F8C47071
:10AF90003F682B183D690393AA1A92B2C9F8902012
:10AFA0002A68052060F302022A602A68012363F3FD
:10AFB000C4022A602B686BF3CA132B602B686BF3F7
:10AFC000CE232B6094F8F430013B9E4240F0CC80BD
:10AFD0002B6861F3DE332B60BAF80020049B6968AC
:10AFE0009B1A9BB263F30F016960059B69689B1A0A
:10AFF0009BB263F31F416960AB68022161F30103F7
:10B00000AB60AB6843F00403AB6005F110039B1A1F
:10B01000AA689BB263F35822AA60AB686FF35A63C5
:10B02000AB60252294F83F1094F82B001BF0D0FE63
:10B0300005233B72049B7B61059B3D61C7E906309C
:10B0400000233B6287F82830C9F8D0502B6804EB06
:10B05000460AC3F3CF33AAF8E8300C2294F83F1025
:10B0600094F82B001BF0B4FE009B94F83F10DA78A4
:10B07000054694F82B001BF0ABFE039B03F5CE7343
:10B080001D4428440EB9C4F8940194F8F4104B1EE2
:10B090009E4208BFC4F890010023F518A9426EDC57
:10B0A000039BD7F800B0404ADBF8107003F24D154F
:10B0B0001368FB1A9BB2C9F884303968042363F320
:10B0C000020139603968012060F3C40139603968D0
:10B0D00063F3CA113960396863F3CE21396094F89B
:10B0E000F430013B9E4254D13B686FF3DE333B604A
:10B0F0001388019A7968D21A92B262F30F017960CB
:10B10000029AD31A7A689BB263F31F427A60BB68D3
:10B11000022262F30103BB60BB6843F00403BB601F
:10B12000009B94F83F10DA7894F82B001BF050FE47
:10B1300004238BF80830019BCBF81430029BCBF82A
:10B140001070CBE906300023CBF820308BF8283084
:10B15000C9F8DC703B68C3F3CF33AAF8EE30013690
:10B16000DBF80070F6B2A3E6DAF8002005F1200360
:10B170009B1A2A689BB263F3DE322A602CE703EB4A
:10B1800043022A4404EB82020133C2F8A000DBB27E
:10B1900083E7116807F110035B1A39689BB263F308
:10B1A000DE313960A4E700BF800100202DE9F04FB7
:10B1B00089B0D0F84831009302330193D0F844317C
:10B1C0000493D0F84031059300238DF81C3090F89B
:10B1D0000031D0F854810690044606332546009984
:10B1E0008DF81D3006A80CF0B9F9424655F8333FEA
:10B1F00042F8253BAB88A8F804300292B4F800214D
:10B200002AB1D4F8FC1008F106001FF063F80523FA
:10B210008DF81C3094F8103101990694063306A875
:10B220008DF81D300CF09AF92B68C8F82530029A79
:10B23000AB889380B4F810212AB1D4F80C1108F12E
:10B240002B001FF047F80025D4F8F8712E4600BFF8
:10B2500094F8F430B34202D809B0BDE8F08FD7F8C3
:10B260001090DFF8D0A2D9F800306FF30203C9F8CC
:10B270000030D9F80020012363F3C402C9F800208C
:10B28000D9F800204FF0040B6BF3CA12C9F8002064
:10B29000D9F800104A466BF3CE2142F8101BDAF8B9
:10B2A0000010521AD9F8001092B262F3DE31C9F8D8
:10B2B0000010D9F8002000996FF3DF72C9F8002060
:10B2C000BAF80020D9F80400891A89B261F30F0096
:10B2D000C9F80400D9F80410A8EB020292B262F394
:10B2E0001F41C9F80410D9F8082063F30102C9F816
:10B2F0000820D9F8082042EA0B02C9F80820009B70
:10B3000094F83F105A7894F82B001BF061FDC7F8B1
:10B310001090009BDAF8002004EB86090021C7E9B1
:10B320000705C7E90538397287F82810C9F8C470CD
:10B330003F682B183D690393AA1A92B2C9F890206E
:10B340002A68052060F302022A602A68012363F359
:10B35000C4022A602B686BF3CA132B602B686BF353
:10B36000CE232B6094F8F430013B9E4240F0C28023
:10B370002B6861F3DE332B60BAF80020049B696808
:10B380009B1A9BB263F30F016960059B69689B1A66
:10B390009BB263F31F416960AB68022161F3010353
:10B3A000AB60AB6843F00403AB6005F110039B1A7C
:10B3B000AA689BB263F35822AA60AB6861F35A6330
:10B3C000AB60252294F83F1094F82B001BF000FD91
:10B3D00005233B72049B7B61059B3D61C7E90630F9
:10B3E00000233B6287F82830C9F8D0502B6804EB63
:10B3F000460AC3F3CF33AAF8E830222294F83F106C
:10B4000094F82B001BF0E4FC039B03F23713184461
:10B410000EB9C4F8940194F8F4104B1E9E4208BF74
:10B42000C4F890010023F518A9426EDC039BD7F8FD
:10B4300000B0404ADBF8107003F24D151368FB1A98
:10B440009BB2C9F884303968042363F30201396080
:10B450003968012060F3C4013960396863F3CA11A7
:10B460003960396863F3CE21396094F8F430013BD8
:10B470009E4254D13B686FF3DE333B601388019AE0
:10B480007968D21A92B262F30F017960029AD31AE4
:10B490007A689BB263F31F427A60BB68022262F350
:10B4A0000103BB60BB6843F00403BB60009B94F8DE
:10B4B0003F10DA7894F82B001BF08AFC04238BF8F9
:10B4C0000830019BCBF81430029BCBF81070CBE90D
:10B4D00006300023CBF820308BF82830C9F8DC7018
:10B4E0003B68C3F3CF33AAF8EE300136DBF80070C7
:10B4F000F6B2ADE6DAF8002005F120039B1A2A68BF
:10B500009BB263F3DE322A6036E703EB43022A4440
:10B5100004EB82020133C2F8A000DBB283E71168BA
:10B5200007F110035B1A39689BB263F3DE313960AF
:10B53000A4E700BF80010020F7B504680026054697
:10B54000ADF8006018F056FD26751CF0F9FF236E6B
:10B55000DA0505D513F006F912F03AF8AFF30080DA
:10B56000B4F898300133A4F8983094F86430012B83
:10B5700064D1236EDB0105D5D4F87831198FD86BEF
:10B580001DF046FED4F88831DF0109D520461CF0B5
:10B5900083F928B1D4F87831198FD86B1DF038FEB3
:10B5A000206EE36E10F0007700F0C3809B00403304
:10B5B0004FF6FC711940D4F87801276FA66F1CF084
:10B5C0003BF9D4E91B2140F272234B4303EB4203C6
:10B5D0002033E36700236367013ED4F87831F61B1C
:10B5E0001E6694F86430012B28D1E3681BB9236EE2
:10B5F00023F480532366236E13F4505F00F0F4802D
:10B6000018021BD50FF092FF226E031E22F40002D7
:10B6100014BF00210721226681B9D4F87821116076
:10B62000D4F8782159685160D4F878210A605A60BA
:10B630001B68002B00F00B811DF086F818F0DAFC77
:10B64000236E23F03C5323F44C632366D4F88831F3
:10B6500023F08073C4F888311CF072FF236E9B07BF
:10B6600015D518F0C7FC236E23F0020343F0040342
:10B6700023661CF065FFD4F87821A36D126E134485
:10B68000A36528461EF0B6FD0123C4F87C31236E65
:10B690009F0214D518F0AEFC236E23F4001323662A
:10B6A0001CF04EFF204617F032FBD4F87831C2B2BE
:10B6B0005A61D4F87831400000F4FF705866236E68
:10B6C0009E0540F1C780B4F84C30002B00F0D280CA
:10B6D000B4F80A33002B00F0CD80013BA4F80A3304
:10B6E000002384F89C3118F085FC236EDA0554BFE2
:10B6F00023F4844323F4864323661CF021FF94F84B
:10B700009D304BB101AB04225C490195012015F03D
:10B710000CF8002384F89D3094F89E32D4F8780118
:10B7200043F0400384F89E32694620F007FB03B0E3
:10B73000F0BD10F0010035D0E66F226F203640F2E8
:10B74000722106EB430601FB0266617D59B10322BB
:10B75000B1FBF2F202EB42028A1A12F0FF0F04BFB1
:10B7600006F272260746B6F5004FBFF43AAFB4F8BA
:10B770004A1040F271224A43963A9642BFF431AFE2
:10B780009B0040334FF6FC711940D4F878011CF04F
:10B7900053F8D4F87821E667136E216F5B1ADB1B30
:10B7A00013661EE7626FD4F878019B0003F5987367
:10B7B0004FF6FC71022A01EA030194BF002601261C
:10B7C0001CF03AF8E26FE16E236F7A32334402EBF9
:10B7D000410240F2722101FB0322D4F87811E267A2
:10B7E0000A6ED31A0B66FCE699067FF527AFE27D59
:10B7F000012A7FF423AFB4F84C20002A3FF41EAF97
:10B800001A023FF51BAF0FF091FE226E031E42F4A9
:10B810000002226618BF0021B4F84C20A4F80A23C5
:10B8200008BF072100297FF409AFD4F878211160FF
:10B83000D4F8782159685160D4F878210A605A60A8
:10B840001B6823B1B4F84C101EF08AF8F6E610F02D
:10B8500065FAF3E658040DD5190405D520461CF009
:10B8600003F88DF800003BE7D4F878319B7A8DF827
:10B87000003035E720461FF053FEF2E7A204010135
:10B8800080B5C6B000AF3B1D18603B1D1B68002B88
:10B8900040D03B1D1868FAF7D0FAC7F81401D7F862
:10B8A0001431002B37D0D7F814311B78002B02D07D
:10B8B000032B05D009E007F10C0304221A7004E001
:10B8C00007F10C0307221A7000BF07F10C030133C4
:10B8D000C7F81031D7F814311A78D7F810311A7028
:10B8E000D7F814315A78D7F810315A70D7F8143184
:10B8F0005A68D7F810315A60D7F814319A68D7F8D7
:10B9000010319A6007F10C0300221946044804F034
:10B9100007FD00E000BF07F58C77BD4680BD00BF86
:10B920006800002080B5C6B000AF3B1D18603B1D0D
:10B930001B68002B40D03B1D1868FAF77EFAC7F849
:10B940001401D7F81431002B37D0D7F814311B78F5
:10B95000012B06D0022B09D107F10C0306221A7025
:10B9600005E007F10C0305221A7000E000BF07F1A3
:10B970000C030133C7F81031D7F814311A78D7F80F
:10B9800010311A70D7F814315A78D7F810315A702C
:10B99000D7F814315A68D7F810315A60D7F81431F3
:10B9A0009A68D7F810319A6007F10C030022194603
:10B9B000044804F0B5FC00E000BF07F58C77BD46F5
:10B9C00080BD00BF6800002080B485B000AFBA60C1
:10B9D0007B600346FB730B46BB737B68FA7B1A7074
:10B9E0007B68BA7B5A707B68BA689A6000BF14376C
:10B9F000BD465DF8047B704790B58BB002AFF86030
:10BA0000B9601346FB71FB68002B02D0BB68002BAA
:10BA100001D1032377E0FB685B68002B1ED0FB6835
:10BA2000586800230093002300220321F9F7F3FE56
:10BA30000346012B01D0012365E0FB685868002311
:10BA40000093002300220521F9F7E5FE0346012BB0
:10BA500001D0012357E0FB6800225A600923FB77DD
:10BA6000FB7F0B2B1CD807F110030922284918462D
:10BA70001EF030FCFB681A78FB7F3032D2B207F13F
:10BA800020010B4403F8102CFB7F013307F1200247
:10BA90001344002203F8102CFB79002B0FD001E097
:10BAA000012330E007F110001A4B0093FB680122DC
:10BAB000B968F9F765FE0246FB685A600BE007F1CA
:10BAC0001000154B0093FB680022B968F9F758FE87
:10BAD0000246FB685A60FB685B68002B12D0FB686B
:10BAE0005C68F5F797FA02460023009300230121D2
:10BAF0002046F9F790FE0346002B01D1012302E016
:10BB0000002300E0042318462437BD4690BD00BF43
:10BB1000B4B6020125B9000181B8000180B584B036
:10BB200002AF78607B681B68002B01D103231FE004
:10BB30007B68186800230093002300220321F9F793
:10BB40006AFE0346012B01D0012311E07B681868CF
:10BB500000230093002300220521F9F75CFE034631
:10BB6000012B01D0012303E07B6800221A6000232F
:10BB700018460837BD4680BD80B584B002AF7860F6
:10BB80007B68002B01D103230FE0F5F743FA02464F
:10BB900000230093002302217868F9F73CFE034656
:10BBA000012B01D0012300E0002318460837BD46D1
:10BBB00080BD00BF80B483B000AF78603960064AB2
:10BBC0007B681360044A3B68536000BF0C37BD4676
:10BBD0005DF8047B704700BFBCFB002080B582B0DD
:10BBE00000AF074B1B68002B06D0054B5B687B60E2
:10BBF000034B1B687868984700BF0837BD4680BD77
:10BC0000BCFB002080B400AF064B00221A62054B3B
:10BC1000054A1A62034B054A1A6200BFBD465DF829
:10BC2000047B704700060044556699AAAA99665598
:10BC300080B586B000AF78600B46FB70EFF31083E1
:10BC4000FB60FB687B6172B6104A7B6813630F4B25
:10BC50004FF480425A600D4B0F225A60FB780B4A1A
:10BC600003F00F039360094B4FF480429A60FFF793
:10BC7000C9FF064B4FF400429A607B693B613B6908
:10BC800083F3108800BF1837BD4680BD000600440E
:10BC900080B500AF034B1B6B00211846FFF7C8FFB0
:10BCA00000BF80BD0006004480B586B000AFF860DC
:10BCB000B9607A607B687B61BA687969F8681EF060
:10BCC00009FB012318461837BD4680BD80B582B0F8
:10BCD00000AF78603960064A7B68136401213868D8
:10BCE000FFF7A6FF012318460837BD4680BD00BFF9
:10BCF0000006004480B582B000AF78603960124A17
:10BD00007B681B6813647B6804337B600E4A7B6826
:10BD10001B6813657B6804337B600B4A7B681B6878
:10BD200013667B6804337B60074A7B681B68136774
:10BD30007B6804337B6002213868FFF779FF0123B9
:10BD400018460837BD4680BD0006004480B582B065
:10BD500000AF78603960064A7B68C2F8C0300321C2
:10BD60003868FFF765FF012318460837BD4680BDD8
:10BD70000006004480B582B000AF78600421786886
:10BD8000FFF756FF012318460837BD4680BD80B433
:10BD900000AF044B1B6803F440531846BD465DF8E2
:10BDA000047B70470006004480B400AF064B1B685C
:10BDB00003F40043002B14BF01230023DBB2184619
:10BDC000BD465DF8047B70470006004480B586B030
:10BDD00000AF78603960EFF31083FB60FB687B6134
:10BDE00072B6FFF70FFF114B4FF00042C3F8D0209F
:10BDF0000E4B4FF00042C3F8E8207B6823F07F43EE
:10BE00000A4A43F00043C2F8D0303B6823F07F4336
:10BE1000064A43F00043C2F8E0307B693B613B696E
:10BE200083F3108800BF1837BD4680BD000600446C
:10BE300080B584B000AFEFF310837B607B68FB605C
:10BE400072B6FFF7DFFE094B4FF00042C3F8D42073
:10BE5000064B4FF00042C3F8E420FB68BB60BB68B0
:10BE600083F3108800BF1037BD4680BD0006004434
:10BE700080B586B000AF7860EFF31083FB60FB689D
:10BE80007B6172B6FFF7BEFE074A7B6823F07F43F3
:10BE9000C2F8F4307B693B613B6983F3108800BFD3
:10BEA0001837BD4680BD00BF0006004480B586B08F
:10BEB00000AF7860EFF31083FB60FB687B6172B6C4
:10BEC000FFF7A0FE074A7B6823F07F43C2F8F830F3
:10BED0007B693B613B6983F3108800BF1837BD461F
:10BEE00080BD00BF0006004480B5C8B000AF3B1D58
:10BEF00018603B1D07F58670082219681EF0EAF9E4
:10BF00003B1D1B685B88184600F0F7FD0346C7F829
:10BF10001031D7F81031002B5DD0D7F810013B1D40
:10BF20001B6859683B1D1B685B881A461EF0D2F9D6
:10BF3000D7F81031C7F810313B1D1B681B78042B54
:10BF400026D1D7F81031C7F81C31D7F81C311B782F
:10BF5000122B1DD1D7F81C319B7A9B00184600F09C
:10BF6000CCFDC7F81801D7F81831002B10D0D7F83E
:10BF70001C315968D7F81C319B7A9B001A46D7F8B8
:10BF800018011EF0A7F9D7F81C31D7F818215A600C
:10BF900007F1080300221A7007F1080301333A1D64
:10BFA000126812781A7007F1080301333A1D1268FB
:10BFB00052885A8007F108030133D7F810215A60DC
:10BFC00007F10803C7F814310022D7F81411044808
:10BFD00004F0A6F900E000BF07F59077BD4680BDEC
:10BFE0006800002080B582B000AF78607B681B7865
:10BFF000013B032B22D801A252F823F00DC000010F
:10C0000019C0000125C0000131C000017B685B68D8
:10C01000184600F0FDF812E07B685B68184600F0F7
:10C0200043F90CE07B685B68184600F09EF906E077
:10C030007B685B68184600F058F900E000BF78683C
:10C0400001F024FF7868FCF763FF7B685B681846A3
:10C0500000F05FFD00BF0837BD4680BD80B483B0EF
:10C0600000AF786000BF0C37BD465DF8047B7047B9
:10C0700090B591B000AF1F4B07F120040FCB07C460
:10C08000237007F13E031946082019F033FC07F12D
:10C0900030030E22002118461EF010FF20233B869D
:10C0A00020237B86002387F83430072387F83C3031
:10C0B000002387F83D3007F1300318461AF0F8F9ED
:10C0C0000D233B703B781A4607F120013B460133B4
:10C0D00018461EF0FFF83B4618461AF0B5F907F16E
:10C0E0003F0319460E2019F021FC00BF4437BD461E
:10C0F00090BD00BFE4A4020180B58CB000AF264A19
:10C1000007F1280392E8030018600433197007F15F
:10C1100028031946052019F07DFB00233B710023FD
:10C12000FB8000233B723B1D18461AF05DFA07F1B5
:10C1300020030522002118461EF0C0FE032387F8C5
:10C14000203097F8213043F00103DBB287F821302B
:10C1500097F8213043F00803DBB287F8213007F16C
:10C160002003184619F052FC0123BB7701233B77CB
:10C170000623BB824FF44863FB8200233B8340F2DB
:10C18000F3137B8307F11403184601F090FE00BF00
:10C190003037BD4680BD00BFF4A4020180B500AFBA
:10C1A0000CF0C2F815F088F81AF056FF00BF80BDF9
:10C1B00080B582B000AF0023FB800D481FF0B6FAB7
:10C1C00010F0EEFAFB8818461EF0B6FC0EF014FCD8
:10C1D00001F022FE074801F037FEFCF739FE064861
:10C1E000FCF760FEFFF788FF00BF0837BD4680BD43
:10C1F000E9BE0001BBC30001F9F4000180B500AF46
:10C20000FFF7CCFFFFF734FFFFF7D2FF00BF80BD81
:10C2100080B582B000AF78607B681B78162B3AD867
:10C2200001A252F823F000BF97C2000197C200019B
:10C2300097C2000197C2000197C2000197C2000196
:10C2400097C2000197C2000185C2000197C2000198
:10C2500097C2000197C2000197C2000197C2000176
:10C2600097C2000197C2000197C2000197C2000166
:10C2700097C2000197C2000197C2000197C2000156
:10C2800097C20001064B00229A70064B1B78184695
:10C29000FCF7F2FA00E000BF00BF0837BD4680BDE2
:10C2A000040000200000002080B483B000AF78605C
:10C2B0007B681B78062B11D801A252F823F000BF2F
:10C2C000DDC20001DDC20001DDC20001DDC20001EE
:10C2D000DDC20001DDC20001DDC2000100BF00BF00
:10C2E0000C37BD465DF8047B704780B582B000AF67
:10C2F00078607B681B78142B32D801A252F823F0A7
:10C3000061C3000161C3000161C3000161C3000199
:10C3100061C3000161C3000161C3000161C3000189
:10C3200061C3000161C3000161C3000161C3000179
:10C3300061C3000161C3000161C3000161C3000169
:10C3400061C3000161C3000155C3000161C3000165
:10C3500061C300017B685B68184600F0DAFB00E00F
:10C3600000BF00BF0837BD4680BD80B483B000AFBA
:10C3700078607B681B780A2B18D801A252F823F04A
:10C38000ADC30001ADC30001ADC30001ADC30001E9
:10C39000ADC30001ADC30001ADC30001ADC30001D9
:10C3A000ADC30001ADC30001ADC3000100BF00BFBC
:10C3B0000C37BD465DF8047B704780B586B000AF92
:10C3C000786000237B617B681B78082B00F2A180DA
:10C3D00001A252F823F000BFFDC300017FC4000199
:10C3E00013C5000113C5000113C5000113C50001E9
:10C3F000C5C4000113C5000113C5000107F10B03FB
:10C400001846FEF75DFC0346FB74FB7C002B02D054
:10C410000120FEF772FC444B1B78002B05D1FB7CFE
:10C4200083F00103DBB2002B09D00020FEF78DFC66
:10C430000020FEF7F1FB0020FEF713FC08E00120CE
:10C44000FEF7EAFB0120FEF780FC0120FEF709FC65
:10C450007B685B88184603F012F87B685B88184697
:10C46000FEF710FB78617B69002B54D07B699B78C9
:10C470001846FEF7EFFA0020FCF73AFD50E0FEF711
:10C4800037FB78617B69002B47D07B685A887B69D2
:10C490001A807B690F225A60234B00221A70224BAC
:10C4A00003229A707B695B685BB21846FCF720FD3B
:10C4B0000220FCF7A7FA03461A461C4B1A7002F03A
:10C4C000F1FF2DE04C2000F018FBF860FB68002B1A
:10C4D00025D07B681B79F968184601F052FD0346A8
:10C4E000002B12D1104B5B78072B0AD80E4B5A78D1
:10C4F0007B681B799A4204D00B4B5B78184601F09D
:10C5000032FD7B681A79084B5A70F86800F001FB1D
:10C5100005E000BF04E000BF02E000BF00E000BF94
:10C520001837BD4680BD00BF040000200000002079
:10C530002DE9F0478D78046898B00023012D05930C
:10C540005BD9022D60D094F82E300E88CF78CDE9DB
:10C550000153B34B0093022201238F21EC200AF0F8
:10C5600019FF04EB85039621D3F8EC31D3F8B02002
:10C570000292D3F8AC300193AA4B009302231A46DF
:10C58000EC200AF007FF0EF0D1FF0590002800F024
:10C590004581A54B0093F6B20223922101961A46DB
:10C5A000EC200AF0F7FEB10640F1DA809F4E94F8D5
:10C5B0006C9133689B699847336804F26D1A09F0EF
:10C5C00001098046DB695146484698470546B8F15F
:10C5D000000F40F0B980D0B1954B009302220123A7
:10C5E0001821EC200AF0D6FE05980468002C00F013
:10C5F00012811FF082FA002003E094F86001002805
:10C60000A1D118B0BDE8F08794F86101F7E74FF4C5
:10C610004371052012F0FAFD80460028E4D0C4F8EA
:10C6200088010568336828881B6A5246494698473E
:10C6300094F87330063B012B28D8012385F8A830E5
:10C6400094F87320072A07D80123934013F0130F9F
:10C6500030D113F0C00F25D1336885F8F872DB6E46
:10C66000D4F87C21D4F8401140469847002F37D1A8
:10C67000012205A9204613F0C5F9227C0123A4F864
:10C680008031002AB0D0A4F88631ADE7D4F8443127
:10C690001B789A0604D50E201DF094FC0028CCD1FE
:10C6A0000023CBE794F82D30022B08D0032B09D0C0
:10C6B000012BD1D141F21113A5F86630CCE741F23C
:10C6C0001223F9E794F83F3085F868302122012BD6
:10C6D00085F8662014BF2322222285F86720BBE755
:10C6E0000021204612F0ECFEB4F800313BB1D4F842
:10C6F000FC0008B11AF0CAF80023C4F8FC30B4F802
:10C7000010313BB1D4F80C0108B11AF0BFF8002386
:10C71000C4F80C31002684F86061304618F000FD42
:10C720003246298820460FF00DFD2A8895F8A8305A
:10C730008DF81E3041F21401ADF81810ADF81C2030
:10C7400006A81AF0F5F94FE73A4B009302220123AD
:10C750001721EC200AF01EFE002D3FF445AF3BE709
:10C76000730609D5012205A9204613F04BF943F6BB
:10C770000143A4F8803137E7237CBBB194F87520DE
:10C78000A2B194F863318BB985B994F87430013350
:10C79000DBB29A4284F8743008D8012205A92046F9
:10C7A00013F030F944F20133A4F8863194F8732081
:10C7B000012A07D105A9204613F024F943F60143C5
:10C7C000A4F88031002F3FF40FAF0021204612F073
:10C7D00077FEB4F800313BB1D4F8FC0008B11AF090
:10C7E00055F80023C4F8FC30B4F810313BB1D4F84C
:10C7F0000C0108B11AF04AF80023C4F80C310025E6
:10C8000084F86051284618F08BFC8623ADF8183068
:10C810008DF81C5094E70FF081FAECE60720F0E663
:10C82000A70C0201C00C0201D90C0201F00000208B
:10C83000E50C0201F50C020180B582B000AF0346A1
:10C84000FB71FB79002B02D0012B03D005E0F4F73C
:10C85000ADFA02E0FDF745FB00BF0023184608379C
:10C86000BD4680BD80B582B000AF03463960FB7124
:10C87000FB79002B02D0012B03D005E0F4F7DEFAA0
:10C8800002E0FDF747FB00BF00BF0837BD4680BD93
:10C8900080B582B000AF7860084611461A4603465C
:10C8A000FB700B46BB7013467B70FB78002B02D0ED
:10C8B000012B22D02BE07B78012B1CD803220021F6
:10C8C0000120F6F735F802467B681A607B681B6822
:10C8D000002B22D07B78012B1FD17B6818680023A6
:10C8E00000220021F6F7D6F80346012B01D10123DF
:10C8F0001BE0002319E0002317E0BB787A7811468B
:10C900001846F6F7A8F802467B681A6006E07B68CE
:10C9100000221A604FF0FF3307E000BF7B681B68FE
:10C92000002B01D1002300E0012318460837BD4643
:10C9300080BD80B582B000AF78607B681B68184608
:10C94000F6F72BFD7B6800221A6001231846083792
:10C95000BD4680BD80B584B000AF786039600023EB
:10C96000FB603B68B3F1FF3F03D14FF0FF33FB6047
:10C9700001E03B68FB607B681B68F9681846F6F7C6
:10C98000D9FA0346012B01D1012300E00023184608
:10C990001037BD4680BD80B582B000AF78607B683F
:10C9A0001868002300220021F6F774F80346012BD3
:10C9B00001D1012300E0002318460837BD4680BDA1
:10C9C00080B584B000AF78600023FB607B681B6893
:10C9D00007F10C0211461846F6F79DF90346002BA5
:10C9E0000CD0FB68002B07D0074B4FF080521A6029
:10C9F000BFF34F8FBFF36F8F012300E00023184672
:10CA00001037BD4680BD00BF04ED00E080B584B0A6
:10CA100000AF78607B681B681846F6F789FCF86001
:10CA2000FB68FF2B01D9FF23FB60FB68DBB21846D4
:10CA30001037BD4680BD80B582B000AF78607B689E
:10CA40001B68002B01D0002306E00120F5F7EBFF67
:10CA500002467B681A60012318460837BD4680BD30
:10CA600080B582B000AF78607B681B68002B01D175
:10CA7000002308E07B681B681846F6F78EFC7B688D
:10CA800000221A60012318460837BD4680BD80B5D4
:10CA900084B000AF786039600023FB603B68B3F17D
:10CAA000FF3F03D14FF0FF33FB6001E03B68FB60C9
:10CAB0007B681B68F9681846F6F73CFA0346012BB9
:10CAC00001D1012300E0002318461037BD4680BD88
:10CAD00080B582B000AF78607B68186800230022C0
:10CAE0000021F5F7D7FF0346012B01D1012300E018
:10CAF000002318460837BD4680BD80B582B000AF20
:10CB000078607868FCF700FF034618460837BD4692
:10CB100080BD80B582B000AF78607868FCF792FF86
:10CB200000BF0837BD4680BD80B400AF0123184662
:10CB3000BD465DF8047B70470C4B13F0FF0F08D027
:10CB40004FF0200383F31188BFF36F8FBFF34F8F34
:10CB5000FEE7074A934208D04FF0200383F3118881
:10CB6000BFF36F8FBFF34F8FFEE7704700C0070121
:10CB700000C00701014B1860704700BF1CFC00207B
:10CB800030B4184C1546184A0C4404EB4030541E7F
:10CB9000844208D24FF0200383F31188BFF36F8FD4
:10CBA000BFF34F8FFEE71C18A24208D24FF02003BC
:10CBB00083F31188BFF36F8FBFF34F8FFEE71944E4
:10CBC000B1F5005F08DD4FF0200383F31188BFF358
:10CBD0006F8FBFF34F8FFEE701461A46284630BCE1
:10CBE0001DF078BB00C0070100000801F8B5304D0A
:10CBF0000D4405EB403517462A071C4608D04FF078
:10CC0000200383F31188BFF36F8FBFF34F8FFEE7CD
:10CC100043B94FF0200383F31188BFF36F8FBFF345
:10CC20004F8FFEE7234B5A1EAA4208D24FF0200333
:10CC300083F31188BFF36F8FBFF34F8FFEE7621945
:10CC4000934208D24FF0200383F31188BFF36F8F14
:10CC5000BFF34F8FFEE72144B1F5005F08DD4FF0D1
:10CC6000200383F31188BFF36F8FBFF34F8FFEE76D
:10CC7000114B1B6803B1984723071EBF24F00F0315
:10CC800010339CB24FF6F0732340FE18ED1BBE42EA
:10CC900004D1FFF789F80028FBD1F8BDFFF784F82D
:10CCA0000028FBD179193846FFF724F81037EEE752
:10CCB00000C00701000008011CFC002010B5124C48
:10CCC000124B04EB4034A34214D3FFF76DF8002855
:10CCD000FBD12046FFF74EF804F58054FFF764F8C7
:10CCE0000028FBD12046FFF745F8FFF75DF8002844
:10CCF000FBD110BD4FF0200383F31188BFF36F8F7A
:10CD0000BFF34F8FFEE700BF00C00701FFFF070121
:10CD100037B542B94FF0200383F31188BFF36F8F0B
:10CD2000BFF34F8FFEE71F4C0C4404EB40341E480A
:10CD3000431EA34208D24FF0200383F31188BFF3B0
:10CD40006F8FBFF34F8FFEE71319984208D24FF051
:10CD5000200383F31188BFF36F8FBFF34F8FFEE77C
:10CD60001144B1F5005F08DD4FF0200383F3118813
:10CD7000BFF36F8FBFF34F8FFEE74FF0FF3201928B
:10CD80009DB204220DEB020120461DF095FA30B948
:10CD90000434A3B29D42F4D1012003B030BD002081
:10CDA000FBE700BF00C007010000080138B51546C9
:10CDB00043B94FF0200383F31188BFF36F8FBFF3A4
:10CDC0004F8FFEE7184C194A0C4404EB4030541EB8
:10CDD000844208D24FF0200383F31188BFF36F8F92
:10CDE000BFF34F8FFEE71C18A24208D24FF020037A
:10CDF00083F31188BFF36F8FBFF34F8FFEE7CA181D
:10CE0000B2F5005F08DD4FF0200383F31188BFF314
:10CE10006F8FBFF34F8FFEE71A4629461DF04CFA7D
:10CE2000B0FA80F0400938BD00C0070100000801D9
:10CE30002DE9F04F89B00023074601930E4629B92A
:10CE40004FF00008404609B0BDE8F08FD0F844909C
:10CE50004C6CA1458BBFB9FBF4F3B4FBF9F304FBB5
:10CE6000139309FB13438BB1214648461DF0F9FA91
:10CE7000B0FBF9F3DBB2092B019304D9B0FBF4F05A
:10CE8000C0B20928DCD84FF0020801E04FF00108D9
:10CE9000FB7AD7F860B0356E726EB6F87010012B61
:10CEA00002BFFB6BABEB0303C3F3160AF37A18BFA5
:10CEB000DA46012B08BFF06BB6F8763004BF2D1AA6
:10CEC000C5F31605B8F1010F67D1AAEB05004602BC
:10CED0001ED520468B4C0093CDE901211BF07AF83A
:10CEE0002668DFF824C2348976890299344440F2F6
:10CEF0003916B4FBF6F4A5EB0A06E443044406EA4B
:10CF00000C06B442DDE900329CBF2D1A05EA0C057F
:10CF100040F2391CB3FBFCF47B6EDFF8EC91B7F800
:10CF20007660B6FBFCF62A44534402EA090203EA9F
:10CF300009030134013614441E44B1FBFCF2B7F876
:10CF40007000B0FBFCF00132013004EA090406EA8B
:10CF50000906AA1AAAEB0000234602EA0902314692
:10CF600000EA09001EF02BF800283FF469AF331BDC
:10CF70005D024CBFA4EB0A0AA6EB0A0A0BF10304FC
:10CF800097F84F300AEA0909A144C9F3160443F09F
:10CF900002033C6687F84F3054E75B48AC1840F218
:10CFA000391C0440B3FBFCF30133234403400393D7
:10CFB000544BB1FBFCF101311B680093691A01402D
:10CFC00012234FF0000802910493C246019B53457F
:10CFD0007FF638AF049B013B13F0FF0304933FF44B
:10CFE0002FAF3B6E059309FB0AF01AF0F3FF059B88
:10CFF000B7F870101844444B40F2391200EA030BA2
:10D00000B1FBF2F1786E0131ABEB010119405844EC
:10D0100006911840B7F87610B1FBF2F101310144E6
:10D02000194000BFA4EB0B0040020FD50098B0F8E8
:10D030000AC0B0F808E00EEB0C00ABEB040CB0FB40
:10D04000F2F00CEA030C0130604535D3DDE9022330
:10D0500006981DF0B4FF00284ED0009B009A1B8953
:10D060005289059840F239111344274AB3FBF1F372
:10D07000013323441340A3EB0B03134000F1030BD4
:10D080005B443B66356EB6F87030746EB3FBF1F3FB
:10D090000133EB1A13402C4402931440B6F8763057
:10D0A000B3FBF1F10131214401EA020303934FF094
:10D0B000000A4FF0010889E7706C07911AF08AFFA7
:10D0C000114B746E05441D4040F23912B6F87000E1
:10D0D000B0FBF2F00130281A2C4400EA03011C4096
:10D0E000B6F87600B0FBF2F001302044029100EA7D
:10D0F00003010391079995E70AF1010A5FFA8AFA99
:10D1000064E700BF84010020FFFF7F002DE9F04F9E
:10D11000054685B041208B4690461EF0E3FD04464F
:10D1200050B9A54B009302460423C221EE200AF019
:10D1300031F905B0BDE8F08FEB78C21D05F1040AA6
:10D14000039205F10B0900F1110600F12107002BF4
:10D1500040F0B280DAF800300360BAF8043083801F
:10D160009AF806308371D9F80030C0F80730B9F862
:10D170000430938099F806309371904B1B681A78AD
:10D1800082735A79C2735B780374BBF1000F00F0AD
:10D190008D80DBF80030C0F81130DBF804307360AC
:10D1A000DBF80830B360DBF80C30F360AA6D02F5F1
:10D1B000C07204F1310B1368C4F8213053687B60EE
:10D1C0009368BB60D368FB60AA6D02F5E0722146EC
:10D1D0001368C4F831305368CBF804309368CBF847
:10D1E0000830D368CBF80C30A86D412200F5E87305
:10D1F000063002F0A5FBD9F800302360B9F80430FE
:10D20000A38099F80630A371DAF80030C4F807302B
:10D21000BAF80430A4F80B30E21D9AF80630937186
:10D22000AB6D93F8E430A373AB6D93F8E530E37323
:10D23000AB6D93F8E6302374B8F1000F00F0B580C1
:10D24000D8F80030C4F81130D8F804307360D8F83A
:10D250000830B360D8F80C30F360AA6D02F5E072C4
:10D2600021461368C4F8213053687B609368BB6023
:10D27000D368FB60AA6D02F5C0721368C4F8313040
:10D280005368CBF804309368CBF80830D368CBF8F8
:10D290000C30A86D412200F5C873063002F050FB37
:10D2A000204605B0BDE8F04F1EF01EBD10225946C5
:10D2B00030461DF003FE79E7D9F800300360B9F875
:10D2C0000430838099F806308371DAF80030C0F8B2
:10D2D0000730BAF80430A0F80B30C21D9AF80630B7
:10D2E0009371AB6D93F8E4308373AB6D93F8E530D5
:10D2F000C373AB6D93F8E6300374BBF1000F4ED0EF
:10D30000DBF80030C0F81130DBF804307360DBF874
:10D310000830B360DBF80C30F360AA6D02F5C07220
:10D3200004F1310B1368C4F8213053687B609368B3
:10D33000BB60D368FB60AA6D02F5E07221461368FA
:10D34000C4F831305368CBF804309368CBF8083018
:10D35000D368CBF80C30A86D412200F5E873063095
:10D3600002F0EEFADAF800302360BAF80430A38055
:10D370009AF80630A371D9F80030C4F80730B9F82C
:10D380000430A4F80B30E21D99F8063093710B4B72
:10D390001B681A78A2735A79E2735B784BE7102204
:10D3A000594630461DF08AFDB7E710224146304607
:10D3B0001DF084FD51E700BF68AD02019801002017
:10D3C0002DE9F04F89B0D0F848310193D0F84431BD
:10D3D0000293D0F84031D0F854810393054640F6CB
:10D3E000014306900199ADF81C3006A80AF0B6F882
:10D3F0002B46002753F8332FC8F800209B88A8F845
:10D4000004302B463E4653F8392FC8F806209B8837
:10D41000A8F80A30D5F8F8412369049395F8F43058
:10D42000B34202D809B0BDE8F08FD4F810B0DFF8ED
:10D430001C92DBF800306FF30203CBF80030DBF80E
:10D440000030012060F3C403CBF80030DBF800307B
:10D450004FF0040A6AF3CA13CBF80030DBF800205F
:10D460005B466AF3CE2243F8102BD9F800209B1AB2
:10D47000DBF800209BB263F3DE32CBF80020DBF850
:10D480000030019A6FF3DF73CBF80030B9F8003049
:10D49000DBF80410D21A92B262F30F01CBF8041039
:10D4A000DBF80420A8EB03039BB263F31F42CBF825
:10D4B0000420DBF8083060F30103CBF80830DBF818
:10D4C000083043EA0A03CBF80830019B95F83F1077
:10D4D0005A7895F82B0019F07BFC019BC4F810B02A
:10D4E00005EB860B0022C4E90707C4E90538227260
:10D4F00084F82820CBF8C44023681C6921680744BD
:10D50000052060F3020121602168012060F3C4015D
:10D51000216021686AF3CA11216021686AF3CE2173
:10D52000216095F8F41001398E427DD195F8731081
:10D53000814204D1D9F8002004998A1A92B2216854
:10D5400062F3DE312160B9F800200593029B606828
:10D55000991A89B261F30F006060039B61689A1A9F
:10D5600092B262F31F416160A268022161F301027D
:10D57000A260A26842F00402A260A2686FF358227F
:10D58000A260A268012161F35A62A26095F83F107F
:10D5900095F82B00222219F01BFC059B05221A721C
:10D5A000029A5A61039A1C61C3E9062000221A629A
:10D5B00083F82820CBF8D040216805EB4604C1F35E
:10D5C000CF31A4F8E810CBF8DC20A4F8EE2007F265
:10D5D000371210440EB9C5F8940195F8F440621E54
:10D5E000964208D195F87320012A06BF164AC5F85D
:10D5F0009021C5F89001002206EB020C644519DC6D
:10D6000095F87320012A07F24D1709D1252295F8C4
:10D610003F1095F82B00059319F0DAFB059B0744A2
:10D6200001361C68F6B2F9E6D9F8001004F11002D0
:10D63000521A83E702EB4201614405EB810101329A
:10D64000C1F8A000D2B2D7E7008813008001002003
:10D650002DE9F84F9F4E9046336800F1A6020D4623
:10D6600053F822203AB192F84D20022A03D1BDE8A6
:10D67000F84F1CF086BB002840F08F8093F894325E
:10D680007BB1DFF854820C27336803EBC703D3F870
:10D69000C43143B9336893F8943213B117F1FF37AB
:10D6A000F2D2BDE8F88F9C68D3F80090637AD8F87E
:10D6B0000020012B13684FD143F002031360A37BBA
:10D6C0005BB1D8F80020136823F0040313605DBB3E
:10D6D0002046BDE8F84F03F001BF236CA3421BD1E5
:10D6E00020460FF09BFDA37B002BEAD1D8F8002049
:10D6F000136843F004031360A36C33B194F8503003
:10D70000DB07204622D510F07FFC336893F8943273
:10D71000002BC6D04B46BCE794F85030DA07E5D56D
:10D72000204603F0A7FFDEE7AC42D1D095F84D309C
:10D73000012BCDD1284610F067FCAB6A13B1284607
:10D740001AF0F0F928460DF0A3F8C1E710F05CFCE0
:10D7500020460DF09DF8D8E743F480431360E36D55
:10D7600033F47F430AD0204610F04EFCA36A13B175
:10D7700020461AF0D7F920460DF08AF894F85C306C
:10D78000002BC2D1B4F85E30013B9BB2A4F85E30EE
:10D79000002BBAD101236372B7E793F89532002BBF
:10D7A0003FF47FAF0C27336803EBC703D3F82C3269
:10D7B0004BB9336893F89532002B3FF472AF17F1F1
:10D7C000FF37F0D26DE79C68D3F80090637A012BA5
:10D7D0005AD194F84F30580714D4DFF8FCA0DAF887
:10D7E0000020536843F002035360236CA342D346E6
:10D7F00012D1A36C0BB1637F53B9414620460AF0A6
:10D800004FFC09E01DF0BCFF0028E6D04B46CFE7F7
:10D8100094F85030D907F0D4A37BC3B1DBF80020D3
:10D82000536823F004035360002D3FF451AFA54229
:10D830003FF44EAF95F84D30012B7FF449AF95F88A
:10D840005030DA077FF576AF0023AB7340E7DAF8A4
:10D850000020536843F004035360A36C73B194F841
:10D860005030DB070AD4204610F0CEFBA36A13B178
:10D8700020461AF057F920460DF00AF8336893F85D
:10D880009532002BC2D10CE7134B1A68536843F44E
:10D8900080435360E36D33F47F430AD0204610F099
:10D8A000B3FBA36A13B120461AF03CF920460CF0F2
:10D8B000EFFF94F85C30002BE0D1B4F85E30002B21
:10D8C000DCD0013B9BB2A4F85E30002BD6D1012303
:10D8D0006372D3E788010020840100202DE9F04F16
:10D8E0008FB00025072906468DF80B5001D0152969
:10D8F00042D10132A1F1050903A804A904921FFA3B
:10D9000089F91CF0D7FF04A90DF10E001CF0D2FF1D
:10D910004A4604A90AA81DF091F9BDF80C40002C54
:10D9200000F0F580BDF80E30A342C0F0F480747AA8
:10D93000E00739D406AB01935FFA89F905AB009390
:10D940004A460AABBDF80E10BDF80C000FF0F6F910
:10D950000446002800F0E280059B3088DA7B012134
:10D960000DF056FA1FFA80F8B8F1000F4CD0ADF860
:10D970000C400024254604E0ADF80C502C464FF036
:10D9800004089DF80B3063B9B8F1000F40F0D08067
:10D990002A46214630461CF003FA10B128461EF0F4
:10D9A00091F90FB0BDE8F08FB37AD907C2D514F062
:10D9B0000C0F10D0002474724FF482701EF092F994
:10D9C0000028B7D01022027032888280847104212E
:10D9D0001AF01EFFAEE75B4BB9F1020F1B88ADF8E2
:10D9E0001C3009D14A4607A90AA81CF065FC18B9E1
:10D9F00044F0080474729DE744F004040025747236
:10DA00004FF012082C46BCE7059B9A7B920769D41D
:10DA10009DF80B30002BACD1B0881EF015F90546EF
:10DA200000287FD0059B9B68B3F800B00BF1020A79
:10DA300000F11003092104A81FFA8AFA04931DF0CB
:10DA4000E7FE5FFA8AF104A81DF0E2FE214604A871
:10DA50001DF0E4FE059B9A685968128804A81DF021
:10DA6000F7F80BF1040B2746069AD1894FF6FF729F
:10DA700091421FFA8BF484D0B28804EB0A0B9345D1
:10DA80003FF77FAF06AB781C019305AB80B20093E4
:10DA90004A460AABBDF80E10ADF80C000FF04EF977
:10DAA0000746002842D0059A917B8B073FF569AF66
:10DAB00091680988023151457FF463AFD27B308889
:10DAC00001210DF0A5F900287FF45BAF394604A8C9
:10DAD0001DF0A4FE05998A684968128804A81DF003
:10DAE000B7F8C1E707933388ADF820300DF10B018B
:10DAF000082307A8ADF82240ADF824808DF8263021
:10DB000012F0D6FA002883D04446804632E72546F4
:10DB10004FF0010835E700252C46F9E705464FF0A0
:10DB20000A082EE704464FF011082AE7804628E746
:10DB30005FFA88F3BDF80C20082130460DF0B8FFDD
:10DB40002FE700BF5AE801012DE9F043046893B0C4
:10DB5000D4F8EC011EF0F4F894F865310025D907EB
:10DB6000C4F8EC5144D523F0010384F8653104F581
:10DB70000E7009F0B3FA94F88031002B47D094F876
:10DB8000812184F88051002A3BD1D4F888311D6866
:10DB90008DB1298820460EF0D5FA2A8895F8A8304C
:10DBA000ADF8042041F214016846ADF800108DF87C
:10DBB000063018F0BDFF94F886315BB1002384F87D
:10DBC0008631754B94F887211B681B680ABB29882E
:10DBD000204698470021204611F072FC002384F86B
:10DBE00060311CF0D3F918B9012102200FF076FD45
:10DBF00094F865319A070FD40025284613B0BDE884
:10DC0000F0834FF6FF7120460EF09CFAD3E71D46D5
:10DC1000D1E74FF6FF71DBE723F0020384F86531AB
:10DC200094F86031012BE7D15B4E33685B6893B9A0
:10DC300094F87310204611F053F91CF08BFD8146C7
:10DC40001CF088FD80460DF071FC0746B9F1000F0D
:10DC500007D107250FE02046984705460028E7D062
:10DC6000CBE7B8F1000F4BD0002814BF00250725E3
:10DC700048461EF065F8B8F1000F02D040461EF08D
:10DC80005FF817B138460EF049F8002DB5D10DF008
:10DC90004DFC07461CF05EFDA368C4F8EC0103626E
:10DCA000D4F8EC313D4A5A62D4F8EC313C4A9A62DD
:10DCB000D4F8EC313B4ADA62D4F8EC313A4A1A63D0
:10DCC000D4F8EC31394A5A632946D4F8EC0107F00C
:10DCD00097FDD4F8EC311D60D4F8EC317A685A60C5
:10DCE000D4F8EC3113607B60D4F8003253B9C4E946
:10DCF00071553B683846002B4AD01DF0F9FE7CE791
:10DD00000725B5E7D4F890E1D4F8B03194F82CC0E9
:10DD1000D4F8A4010EEB0301BCF1000F27D101F2EE
:10DD2000A2330EF2A232C01AC4F8C421C4F8C8014A
:10DD30001CF010FDA368C4F8F0010362D4E97B2352
:10DD40001A64336820465B6998470121D4F8F001D2
:10DD500007F056FDD4F8F03100221A60D4F8F03103
:10DD60007A685A60D4F8F03113607B60C1E7A0F59F
:10DD7000A572521A520802F5A57300FB0CEC0CEBCD
:10DD800003020B44C31AC4F8C421C4F8C831CFE756
:10DD90000DF0C4FF31E700BFF000002075670101FE
:10DDA00061BD0201F978020149DB000155EF010173
:10DDB00080B584B000AF78607B685B881846F8F760
:10DDC0002FFCB860BB68002B04D0BB689A7F7B68CF
:10DDD0001A7102E07B6808221A710023FB730EE0BF
:10DDE000FB7B0B4A52F82330002B05D0FB7B084A03
:10DDF00052F8233078689847FB7B0133FB73054B5F
:10DE00001B78FA7B9A42EBD300BF1037BD4680BD2A
:10DE10000C0000200800002080B500AF0948FBF787
:10DE200061FDF9F765FAF8F75BFC034683F001033F
:10DE3000DBB2002B01D0002302E0F9F719FE034604
:10DE4000184680BD0973000180B483B000AF7860CC
:10DE50000C4B1B78012B01D904230DE0094B1B78D7
:10DE60001946094A7B6842F82130064B1B7801337A
:10DE7000DAB2044B1A70002318460C37BD465DF821
:10DE8000047B7047080000200C00002080B582B0A1
:10DE900000AF78607868F8F755FC7868F9F72DF9E5
:10DEA0007868F9F7BAFF00BF0837BD4680BD80B576
:10DEB00084B000AF78607B689B7A1846F9F7A7F9C1
:10DEC0000346FB81FB89002B01D0FB8904E07B68C2
:10DED0001846F9F7BDFF034618461037BD4680BD0A
:10DEE00080B582B000AF03460A46FB8013467B71C3
:10DEF0007A79FB8811461846F9F79AF903461846CD
:10DF00000837BD4680BD80B582B000AF034639609A
:10DF1000FB71FB7939681846F8F7DEFC03461846B2
:10DF20000837BD4680BD80B582B000AF78603960EB
:10DF300039687868F8F752FD034618460837BD4639
:10DF400080BD80B584B000AF0346B9607A60FB73D2
:10DF5000FB7B7A68B9681846F8F786FD03461846D1
:10DF60001037BD4680BD80B582B000AF0346FB715F
:10DF7000FB791846FBF74CFC034618460837BD46AC
:10DF800080BD80B582B000AF03463960FB71FB797C
:10DF900039681846FBF7EAFA034618460837BD46C3
:10DFA00080BD80B500AFFBF74FFC0346184680BD2F
:10DFB00080B584B000AF786039603B6800221A7089
:10DFC0000023FB7316E0FB7B1846FBF75BFC034664
:10DFD000002B0CD03B681B781A467B681344FA7BF5
:10DFE0001A703B681B780133DAB23B681A70FB7B0E
:10DFF0000133FB73FB7B072BE5D900BF1037BD4610
:10E0000080BD00BF38B5046894F86520132A054622
:10E0100045D002D8122A0ED038BD403A022AFBD889
:10E02000102901D01229F7D1D4F878010021BDE8D8
:10E0300038401DF083BE112925D019D81029EBD105
:10E04000002384F82C3020461DF09DFD28461BF04F
:10E05000D4FE132384F8653094F8660015F06AFC4A
:10E0600020461CF0D0FF2846BDE838400FF0A2B98A
:10E0700012290FD08129CFD1002281212846BDE865
:10E0800038400EF067BA012116F095FD132384F88D
:10E090006530C1E72846BDE838400BF055BC212962
:10E0A00000F0BA8030D81229F4D008D8102960D0F6
:10E0B0001129B1D10121BDE8384016F07CBD1629E7
:10E0C000AAD31729E6D92029A6D1236E180616D57A
:10E0D00015F090FFD4F8883123F08073C4F88831AC
:10E0E0001AF02EFA204619F0D7FB002894D015F02C
:10E0F00081FF236E43F0807323661AF021FA2846CD
:10E10000BDE8384013F078B8242900F085800ED897
:10E11000222949D023297FF47FAF1AF070FD00280F
:10E120007FF47AAF237D002B3FF476AF6BE081293B
:10E13000A2D0822900F0878025297FF46DAF15F0E9
:10E14000D5FB284618F0C4FD236E5B067FF564AF4F
:10E15000204619F059FB10B315F04CFF236E23F045
:10E16000400323661AF0ECF92846BDE8384018F061
:10E17000AFBD0021354B84F82C101A6861F39A6208
:10E180001A6020461DF0FFFC28460DF01FFA236E92
:10E1900023F40003236628461BF02FFE5CE7284685
:10E1A000BDE838401BF029BE236E13F0100203D0E7
:10E1B000D4F8FC22812162E7190784F808236275EC
:10E1C00009D515F017FF236E23F4005323F008033D
:10E1D00023661AF0B5F9D4E9BF21284605F0CAF83C
:10E1E000236E5A060CD50021204614F0F1FC38B1FC
:10E1F00015F000FF236E23F0400323661AF0A0F908
:10E2000028461BF078FA236E1B067FF505AF2846DB
:10E21000BDE838401BF0B0B8637D0133637515F07D
:10E22000E9FE236E23F0400343F4806323661AF073
:10E2300087F928461AF0E3FC00287FF4EDAE20466B
:10E240001AF04AFB90E7002219E700BF3034014181
:10E250002DE9F0430446C3788E4A806D617CA57A2F
:10E2600095B004AE002B63D112688DF82010012107
:10E2700092F8009092F80580B2F801E0B0F8E470EE
:10E28000B0F82CC0D0F8E6208DF8221002218DF8CD
:10E290002150ADF82A708DF823908DF82480ADF8C8
:10E2A00025E0ADF827C08DF829100B9200F5C07756
:10E2B00008ADFA5C595D4A40F2540133102BF8D195
:10E2C0000CAA31466F300BF035F8E178231D04F1CC
:10E2D0000B02002940F08A8018689B88ADF8243032
:10E2E0001368CDF826309388ADF82A300B9108904A
:10E2F0000CAB08A910251A7811F8010B013D42401A
:10E3000015F0FF0503F8012BF5D1A06D10AA0CA99B
:10E310006F300BF00FF8A76D102207F5B87110A839
:10E320001BF0CAFF90B3042120460EF0E9FB5AE02F
:10E3300013688DF82110012193F800E093F805C0CF
:10E34000B3F80120D0F8E470838DB0F8E8808DF840
:10E35000221002218DF82050CDF82370ADF82E3018
:10E36000ADF827808DF829108DF82AE08DF82BC0A4
:10E37000ADF82C20002300F5E07708ADFA5C595D7C
:10E380004A40F2540133102BF8D199E707F5E072B7
:10E39000334610685168ADF8045007F5C07203C3E6
:10E3A0001068516806AB03C307F17F02314607F1DD
:10E3B0006F00CDE902550AF0BDFFA16D20467F3107
:10E3C00015F028FF204607F031FBA36D20887F332E
:10E3D00001AA02A919F0D7FAA36D2A467F3329466C
:10E3E00020460DF017FB15B0BDE8F0831068928849
:10E3F000ADF824201A689B88ADF82A300023CDF8A8
:10E4000026200B9308900CAA08AB1025117813F85E
:10E41000010B013D414015F0FF0502F8011BF5D14C
:10E42000A06D10AA0CA96F300AF084FFA76D10220E
:10E4300007F5D87110A81BF03FFF00287FF473AFD9
:10E4400007F5E07233461068516807F5C07203C3E0
:10E450001068516806AB03C307F17F02314607F12C
:10E460006F000AF067FFA16D20467F3115F0D2FEE4
:10E47000A36D2A467F33294620460DF0CBFAA16DC5
:10E48000204601F5C07113F0F5F9204607F0CEFAE9
:10E49000A9E700BF9801002030B591EA030F00F111
:10E4A0008280841A71EB030C05D2121953EB0C0312
:10E4B000001B71EB0C0140F2000CCFF6E07C1CEA73
:10E4C000430F52D0BCEB410F5FD90C0DA4EB135E90
:10E4D0005FF0010C6CF31F516CF31F53DEF1200C45
:10E4E0002AD303FA0CF5401941F1000122FA0EF586
:10E4F000401923FA0EF5694112FA0CF2CD0208D345
:10E5000049085FEA30005FEA320228BF42F00102A8
:10E510000134013C5FEA500C72F1004250F10000FE
:10E5200051EB04514FF4001313EB410F38BF30BDD2
:10E530006FF31301002030BDBEF1200EBEF1200F9D
:10E540001ED223FA0EF5401941F10001CEF1200C44
:10E55000124218BF012203FA0CF52A43CEE711EA52
:10E560005C0F04BF0020002130BD1CEA410F04BF36
:10E5700001F00041002030BD01F00041002030BD1D
:10E5800021F4801101EB045130BD004218BF41F06D
:10E590000101BCEB410F08BF30BD4FF0FE4141F41B
:10E5A0007801002030BD83F00043841A71EB030E24
:10E5B00007D28EF0004E001B71EB0E01121953EBC7
:10E5C0000E0340F2000CCFF6E07C1CEA430FC6D0ED
:10E5D000BCEB410F72D90C0DA4EB135EC90241EAEA
:10E5E0005051C00241F00041DB0243EA5253D202D3
:10E5F00043F00043DEF1200C41D312FA0CF522FA6D
:10E600000EF203FA0CF542EA050218BF42F00102CD
:10E6100023FA0EF3801A9941E30AC4F30A0411F0B5
:10E62000404F03D418D0013C40004941013C23D461
:10E630004205C00A40EA4150C90A51EAC3715FEA83
:10E64000500C72F1004250F1000051EB045130BD0A
:10E6500001002FD00020203C0029F9D0B1FA81FC24
:10E66000DCF1200E11FA0CF130FA0EF510FA0CF074
:10E670002943A4EB0C04D9E70020D90730BDAEF143
:10E68000200EBEF1200F0DD2CEF1200C03FA0CF5B6
:10E6900033FA0EF32A4318BF43F00103C01A61F1A5
:10E6A0000001B9E721F00041C00A40EA4150C90A1F
:10E6B00001EB045130BD0020002130BD004218BFE5
:10E6C00041F00101BCEB410F7FF467AFBCEB430F9E
:10E6D0003FF463AF30BDFEE72DE9F04F05468FB044
:10E6E0000F460026BB5DAB550136202EFAD13C46C5
:10E6F0004FF0000854F82C0FCDF82080616809AB6A
:10E70000CDE9068803C3A068E16803C306AA2069AF
:10E71000186011463346104619F0A2FD06AA83463A
:10E720002946284619F09CFDBA4683445AF8300F12
:10E73000DAF8041009AB03C3DAF80800DAF80C10B1
:10E7400006AA03C3334611461046CDF8348019F0AB
:10E7500087FD5FFA8BFB834406AA2946284619F0F9
:10E760007FFD3B465FFA8BFB834453F8200F0193F8
:10E770005968CDF82C800DF11809A9E803003A4634
:10E780009868C9F8000052F8380F049251680CAB31
:10E79000CDE9098806AA03C333462946284619F05D
:10E7A0005FFD5FFA8BFB3A465844C3B252F8240F20
:10E7B000059351680292BB4606AB03C39068C9F843
:10E7C00000005BF8340FDBF8041009AB03C3DBF87F
:10E7D0000800186003937B6B0C933B6A0D9306AAA9
:10E7E00033462946284619F03BFD059B6168CDF864
:10E7F0002C801844C3B22068059306AB03C33B6A60
:10E80000A0680C93BB6AC9F800000D9306AA3346B2
:10E8100029462846CDE9098819F06DF9059BDAF8F3
:10E820000410181AC4B2DAF8000006AB03C3DAF811
:10E830000800DAF80C1003C37B6A0C93FB6A0D9393
:10E8400006AA334629462846CDE90A8819F053F925
:10E85000DBF80410019A241ADBF8000006AB03C3AE
:10E86000DBF808005168C9F80000106809AB03C361
:10E87000039B906818603B6B0D9306AA33462946AC
:10E880002846CDF8308019F036F9049AE4B2516880
:10E89000241A1068029A06AB03C310685168C9F8BD
:10E8A000008009AB03C3039B906818607B6B0D93DA
:10E8B00006AA334629462846CDF8308019F01BF9C0
:10E8C000E4B2241A64B244450F4E10DB34B920225E
:10E8D000294630461AF047F9012812D02023324643
:10E8E0002946284619F007F9241A64B2EEE72023D6
:10E8F00032462946284619F0B3FC044464B2002C81
:10E90000F5DB0FB0BDE8F08F58FE002080B582B077
:10E9100000AF78607B681B0903F588032A331B026C
:10E92000184606F027F802467B6803F00F0322FA28
:10E9300003F303F00103002B14BF01230023DBB218
:10E9400018460837BD4680BD80B582B000AF7860FC
:10E950007B681B0903F588032A3318027B6803F0E0
:10E960000F03012202FA03F3194606F05DF800BF17
:10E970000837BD4680BD80B586B000AFB9607A600B
:10E980001A460346FB8113467B73FB891B0A9BB225
:10E99000FB75FB89D9B2F87D3B6ABA68FDF714F8BC
:10E9A0007B7B1A467968386AFDF726F80346BB82F6
:10E9B000BB8A18461837BD4680BD80B483B000AF0F
:10E9C0007860044A7B68136000BF0C37BD465DF871
:10E9D000047B704748FB002080B584B002AF0E4B2B
:10E9E00002225A601920FFF7AFFF022200210B48D4
:10E9F0001CF064FA0A4B00930123322200214FF4E9
:10EA00008070FFF7B8FF0346FB80064B00221A60B8
:10EA100000BF0837BD4680BD002B004438FB0020F6
:10EA20003CFB002048FB002080B582B000AF0023F3
:10EA3000BB711920FFF76AFF034683F00103DBB2C5
:10EA4000002B02D00123FB7101E00023FB71FB7955
:10EA5000012B25D1354B5B780133DAB2334B5A7039
:10EA6000324B1B78002B03D1304B01221A704CE043
:10EA70002E4B1B78012B09D12C4B5B780A2B44D9E8
:10EA80002A4B02221A700223BB713EE0274B1B78EF
:10EA9000032B3AD1254B04221A700323BB7134E0B7
:10EAA000224B1B78002B05D0204B5B780133DAB268
:10EAB0001E4B5A701D4B1B78012B07D11B4B5B78EB
:10EAC000082B03D8194B03221A700DE0174B1B7843
:10EAD000012B07D0154B5B78082B05D9134B1B78FE
:10EAE000032B01D10123BB71BB79002B07D10F4B45
:10EAF0001B78022B03D00D4B1B78042B05D10B4B3D
:10EB000000221A70094B00225A70BB79002B08D0E2
:10EB1000074B1B68002B04D0054B1B68BA791046C5
:10EB2000984700BF0837BD4680BD00BF38FB0020B6
:10EB300048FB00202DE9FF470478012C054600F032
:10EB4000A0802CB1032C00F0E48004B0BDE8F08775
:10EB50008478002CF9D1794ED6F800A00AF1100380
:10EB600053F824705FFA84F977BB88201DF0BAF857
:10EB700004F104084AF82800336853F82800B0B1BB
:10EB8000882239461CF09AF93368A40023441721DF
:10EB90001A6991801B6983F8029033681C44012232
:10EBA000236983F885202369DF6423691F6533683F
:10EBB00053F8284064B9624B009300220423922149
:10EBC000EE2008F0E7FBC0E70134082CC8D1F2E7DB
:10EBD000AB882380AA79E378002A31D143F021035E
:10EBE000584FE3703A68D2F80080E37AB8F1000F2A
:10EBF00029D1980043B11DF075F8E06020B13B6861
:10EC00001968474600293AD1B4F85C30A1782166EA
:10EC100040F2014203F0F8031343A4F85C30B4F867
:10EC20007430A16703F0F8031A433368A4F8742022
:10EC3000DB68002B89D0284604B0BDE8F0471847B0
:10EC400043F01103CCE798F810201344E372D8F88E
:10EC50000080CAE788689B0030F822C0E06820F88E
:10EC600003C0E068034401325F80D2B2087C02EB4B
:10EC700008039042DBB2EDD809689846C2E700224B
:10EC8000F4E74588284618F047FD064650B9CDE917
:10EC900001542D4B0093024604239321EE2008F0EB
:10ECA00079FB52E700881CF0DCFC60B34FF4827003
:10ECB0001DF018F840B11122027032888280B27AB9
:10ECC0008271042119F0A4FD4FF482701DF00AF83E
:10ECD0000446C0B1F07A80001DF004F8054690B1FA
:10ECE0001223237033882381F37AA3726060F27A4F
:10ECF000F16892001BF0EEFA2046042119F088FD1D
:10ED000028461CF0F1FFB07804B0BDE8F0470DF0E4
:10ED100051B80379002B7FF418AF4588284618F0C6
:10ED2000FBFC024628B9084B0093CDE901540423AB
:10ED3000B3E7012380F8843007E700BF9C0100207F
:10ED40001C320201A800002036320201F0B581EA2F
:10ED5000030E0EF0004E40F20007CFF6E07717EA00
:10ED600041051EBF95EA070F17EA430494EA070F0F
:10ED700000F0C5806D0DA5EB545707F580674FF087
:10ED8000004646EAC12444EA5054C00246EAC3237E
:10ED900043EA5253D202801A9C4104D200186441C3
:10EDA00080185C41013F5B084FEA320200250021D8
:10EDB00040F001004FF0070604E0801A9C4136D372
:10EDC00040416441801A9C4136D340416441801ADD
:10EDD0009C4136D340416441801A9C4136D3404126
:10EDE0006441801A9C4136D340416441013E17D0B2
:10EDF000801A9C4136D340416441801A9C4136D3ED
:10EE000040416441801A9C4136D34041644109022B
:10EE100001EB156190EA052520F0FF004540CCE7A5
:10EE2000801A9C4156D335E080185C41C8D2001846
:10EE3000644180185C41C8D20018644180185C416C
:10EE4000C8D20018644180185C41C8D200186441DF
:10EE500080185C41C8D200186441013E17D0801868
:10EE60005C41C8D20018644180185C41C8D20018C7
:10EE7000644180185C41C8D200186441090201EB6A
:10EE8000156190EA052520F0FF004540CCE7801889
:10EE90005C411FD3420918BF44F00104490101EB52
:10EEA000D56100F01F0000EB451021F4801141EA0C
:10EEB0000E01013041F10001244208BF20F00100A1
:10EEC000B7F5006F3EDA013F49DD01EB0751BDE8C0
:10EED000F0407047490101EBD56100F01F0000EBE5
:10EEE000451021F4801141EA0E01B7F5006F29DACF
:10EEF000013F34DD01EB0751BDE8F04070470042AF
:10EF000018BF41F00101124218BF43F00103B7EBF3
:10EF1000410F2CBFB7EB430F1CE0B7EB410F04BF11
:10EF2000B7EB430F16E017EA410F04BF17EA430F90
:10EF300010E017EA410F12D017EA430F02D0B7EBE7
:10EF4000430F0CD04EF0FE4141F470010020BDE8AB
:10EF5000F04070474FF0FE4141F47801F6E771460A
:10EF6000F4E705292DE9F04FBBB0DFF800A20692C7
:10EF7000126801928A6E1344019A12FA83F9031FF0
:10EF8000029300F12C038B4609930026029B53F851
:10EF9000047F0293002F64D07B6E0593FB7AD7F831
:10EFA0006080BBF87620B7F87040B7F87650012B38
:10EFB00004BFFB6BA8EB030840F23913B2FBF3F27A
:10EFC000B4FBF3F402F1010204F1010414440392CE
:10EFD000B5FBF3F5BBF87020B2FBF3F205F10105C8
:10EFE00002F1010215440492059A08BF08EA0A08D2
:10EFF000424402EA0A021544BA6CA8EB040404EA8B
:10F000000A0405EA0A05002A61D13A6C97425ED1EA
:10F01000786C18F0DFFF40F239130890079300BFB7
:10F02000A4EB09035B020BD484EA090313EA0A0F79
:10F0300006D0182E14D0099B029A9342A6D110E054
:10F040004B46019A294620461BF0B9FFE0B13AAB86
:10F0500003EBC6030136F6B2182E43E9304513D14F
:10F060001826449B721E1E700AA8002119F058FB36
:10F0700000230A981A4644990978914237D8459A4C
:10F0800013703BB0BDE8F08F7B7F002BD1D0089B85
:10F09000B7F87040B7F876509844079BB4FBF3F488
:10F0A000039B01341C44079BB5FBF3F5049B01351E
:10F0B0001D44059B08EA0A08434403EA0A03A8EB37
:10F0C00004041D4404EA0A0405EA0A05A8E74B46BD
:10F0D000019A294620461BF072FF0028A9D03AABBE
:10F0E00003EBC603013643E93045F6B2A1E75AB94E
:10F0F00006990C68211A4D0206D5469901EBC30109
:10F10000C1E900400133DBB24499097801398A42F0
:10F1100002F1010413DA3AA901EBC20151F8BC6C07
:10F120003AA901EBC40151F8C05C711B490206D534
:10F13000469901EBC301C1E900650133DBB2449993
:10F14000097801398A420FD13AA901EBC20252F87B
:10F15000BC1CA1EB0902520206D5469A02EBC3027F
:10F16000C2E900190133DBB2E2B284E7FFFF7F009E
:10F17000F8B5037E7E4D022B044621D11CF086FAA1
:10F18000D4F8A0307BB92376236E23F08053236616
:10F190004FF00003A4F829302B6923634FF48073E8
:10F1A000A4F8233011E094F8A8214AB11B7903F0A8
:10F1B0003003102B04D100232376C4F8A030E3E7FA
:10F1C000217E0029E0D002295BD020460FF062FDAD
:10F1D00094F8671084F82B0094F82A0015F0CEFB01
:10F1E000D4F88830D4F87811D4F894201844C4F8AE
:10F1F000880094F86430D1F8B010012B40F27123EC
:10F2000003FB01F340F09F809A4238BF9B1AD4F869
:10F210008C2028BF00239042226E80F0918098427B
:10F2200080F08E80D10040F18680012384F829305F
:10F2300042F04002226614F0DDFE216BE86817F010
:10F240002DFDEB6894F82B205A7094F8253094F833
:10F250002910EA68DB0043EA011394F824100B43F9
:10F2600094F8261043EA8103137019F069F9236EAC
:10F2700013F0200203D143F02003E275236600203F
:10F28000F8BDD4F8A02013895689F61A236E23F00E
:10F2900080532366002384F82930137903F030006B
:10F2A000102829D112891ABB03F00303012B1FD0A8
:10F2B00084F82410D4F8A020B4F89E1113890C33DC
:10F2C0001344B14223631ED310681CF049F8D4F8EC
:10F2D000A0301B7903F03003102B07461ED1606865
:10F2E0001CF03EF827B3236E43F0805323660FE0F3
:10F2F000012384F82430DDE7032384F824302046FA
:10F300000CF088FED6E7236E43F0805323660E464A
:10F3100084F82A6020461CF0B2F956E7A0681CF079
:10F320001FF894F8A831002BDCD0002FDBD1EFE7D9
:10F330000028D8D1ECE794F82130002B7FF478AF87
:10F3400022F0400276E79A4238BF9B1AD4F8902008
:10F3500028BF00239042BFF46EAF9842BFF46BAF5A
:10F36000236EDB0044BF012384F8293063E700BF2C
:10F3700020FB002080B586B000AFB9607B600346FB
:10F38000FB8113467B7300237B61BB681B78FB7496
:10F39000FB891B0A9BB2BB74FB89D9B2B87C7B6822
:10F3A000BA68FCF711FBFB7C032B1AD801A252F8B8
:10F3B00023F000BFD3F30001C5F30001CDF300013A
:10F3C000DBF300014FF4FA737B610BE064237B6194
:10F3D00008E041F288337B6104E041F288337B61CD
:10F3E00000E000BF7B7B1A4679697868FCF704FB74
:10F3F00003463B823B8A18461837BD4680BD80B520
:10F4000084B000AF0346FB710323FB73114B1B78E1
:10F410001846F9F731FAF91D0F4B01224FF400702D
:10F42000FFF7A8FF0346002B0ED107F10F010B4B8E
:10F4300000224FF44070FFF79DFF0346002B05D1DB
:10F44000074B08229A6302E000BF00E000BF1037BC
:10F45000BD4680BD00000020E8FA0020F4FA00203C
:10F46000002B004480B582B000AF78607B681B7AC7
:10F470001846FFF7C4FF00BF0837BD4680BD80B502
:10F4800084B000AF0346FB80FB881846FBF7FAFA0E
:10F49000F860FB685B7A1846FFF7B1FF00BF1037D2
:10F4A000BD4680BD80B500AF0248FCF737FB00BF0A
:10F4B00080BD00BFECFA002080B500AF0C48FCF71F
:10F4C0002DFB0C4B9B78022B07D0032B09D0012B73
:10F4D0000BD10020F9F796FA08E00120F9F792FA2B
:10F4E00004E00220F9F78EFA00E000BF00BF80BD03
:10F4F000ECFA00200400002080B584B000AF7860F2
:10F500007B681B78012B13D0022B25D0002B27D131
:10F510007B685B881846FBF7B5FAF8607B681A7958
:10F52000FB685A727B681B791846F9F7CBFC1AE026
:10F530007B685B881846FBF7A5FAB860BB681A7A47
:10F540007B681B799A420DD07B681A79BB681A7266
:10F55000B868FFF787FF05E00548FCF7DFFA02E02F
:10F5600000BF00E000BF00BF1037BD4680BD00BF38
:10F57000ECFA0020F7B54388042B044605D0082197
:10F5800020460DF0BDFA03B0F0BD806D0191E4306E
:10F5900001A91CF020F8A06D01A9E5301CF01BF8B2
:10F5A000A06D01A9E6301CF016F8A06D01A9E730A6
:10F5B0001CF011F8A06D01A9E8301CF00CF8A06D4A
:10F5C00001A9E9301CF007F8A36D93F8E72084F84F
:10F5D000522093F8E620D00704D55D4A126852788D
:10F5E000D10701D401225A71A26D92F8E730073B8E
:10F5F000092B01D90621C3E792F8E630544D13F0E8
:10F60000080F2B6803D19B7923B10321B8E75B78FE
:10F61000C3F3C00384F8553020460EF0B1FA04F16C
:10F620005C0714F0C5FA4B49384605F01FFEA66D7D
:10F63000737813F1FF3218BF012284F8542094F834
:10F640005520002A4DD0012B07D096F8E7300F2B1C
:10F6500003D8384607F042FDCCE794F8533083B91D
:10F66000022018F00FFD002837D12B68DA789AB104
:10F670003949402204F112001AF02CFE022384F8CA
:10F680005330204611F0E8FD04F11201204614F039
:10F690006CFA0B23A37076E77278032A06D1996877
:10F6A00021B191F850300BB14022E3E72B481BF019
:10F6B000E7FE064600287FF462AF2868022384F83C
:10F6C0005330103007F00AFD2B6883F828609B68E0
:10F6D0000BB183F850600A23DCE7012384F8533030
:10F6E000F9E7204611F0B8FDA36D93F8E920D207A1
:10F6F0005CBF01225A71A16D4B78012B0AD12046C3
:10F700006F3102F03DFFA16D204601F5D87111F077
:10F7100067FA38E7022B13D12B681B78022B03D131
:10F72000204614F053F82EE7042B05D191F8E4306D
:10F73000022B01D0042BF3D1204619F098FF22E7C9
:10F74000032B7FF420AF204619F0A2FF1BE700BF78
:10F7500098010020A064D1017C480201E14202012D
:10F760002DE9FF4100230293ADF80430C37A012B49
:10F77000044601A902A82DD118F09AFC029AE36B65
:10F78000218F1A44BDF804300B449BB240F2E14192
:10F790008B42C2F31602029285BFA3F2E24301320A
:10F7A000ADF80430ADF8043088BF0292A37B029E0E
:10F7B000002B55D1276CBC423D6E43D0DFF87C81D5
:10F7C000AB1B5B0209D5786C18F004FC054405EA14
:10F7D0000805F5E718F06CFCE8E7606C18F0FAFB38
:10F7E000284400EA0800801B40F27125C0F316008F
:10F7F000BDF804306843B4F8705005EB9305237AE4
:10F80000012B4C4B1A680BBF5368136843F4005329
:10F8100043F400530CBF53601360C5EB5005C4F8AC
:10F820008440294604F1780005F020FD424B1B6816
:10F83000B3F82013A94239D2691A04F1900005F0F7
:10F8400015FD33E0606C18F0C5FB237A2844012BCA
:10F85000C0F31600C7D1A36C002BC4D02066C2E74A
:10F86000206E801B40F27123C0F31600584301281C
:10F8700088BFBDF804304FEA500588BFA5EB93055B
:10F88000B4F8703003F27122AA4212D9636D2BB121
:10F8900093F84F2042F0080283F84F20204619F0D9
:10F8A000C4FE00222146207A0DF0E2F804B0BDE843
:10F8B000F081ED1AE37AC4F88440012B0DF10601C2
:10F8C00003A833D118F0F4FB039AE36B218F1A4499
:10F8D000BDF806300B449BB240F2E1418B42C2F3CB
:10F8E0001602039285BFA3F2E2430132ADF806305F
:10F8F000ADF8063088BF0392DDE902239A4204D1B5
:10F90000BDF80630B3F5966F01D3A5F59C75237A43
:10F91000012B084B1A680BBF5368136843F400535C
:10F9200043F400530CBF536013607AE718F0C0FB38
:10F93000E2E700BF8401002088010020FFFF7F0074
:10F940002DE9F04F1646A1B0102281460C460DEB72
:10F950000200002198461BF0B1FA30461CF0C2F9B3
:10F96000074600287ED0A319421EA3427DD118ADC0
:10F970001022002128461BF0A1FA0DF1500A102296
:10F9800000211CA81BF09AFA872310220021504660
:10F990008DF87F301BF092FA10AA5146484609F0C4
:10F9A000C9FC0CAC10AA0023D17B19550133102BD4
:10F9B00002F1FF32F8D19DF93030002B5ADB04A957
:10F9C00020461AF09DFA9DF91030002B5CDB08A947
:10F9D00004A81AF095FA06F10F00000906F00F06C8
:10F9E0005CD01FFA80FB002E5AD100F18050013804
:10F9F00010AA04A907EB00101BF0EEF8102200215A
:10FA000068461BF05BFA00260BF1FF339E4222464C
:10FA100065D310A968461BF0DFF80023E27BEA54A7
:10FA20000133102B04F1FF34F8D11CAA29464846B3
:10FA300009F080FC1CAB0022D97B0DF802100132CA
:10FA4000102A03F1FF33F7D10DF10F02002300BF9D
:10FA500012F8011908F803100133102BF8D13846B9
:10FA60001CF042F921B0BDE8F08F13F8011D02F837
:10FA7000011F7AE7294620461AF042FA04AA1CA977
:10FA800028461BF0A9F89EE7294604A81AF038FA80
:10FA900008AA1CA928461BF09FF89CE74FF0010B11
:10FAA0000BF18053013B1A010023B6B219468020A6
:10FAB0001FFA83FC66450CD907EB020C1CF803C047
:10FAC0000AF803C00133102BF2D110AA08A950463E
:10FAD00092E70CBF0AF803000AF80310F2E707EBFD
:10FAE000061168461BF078F80023D17BE9540133F6
:10FAF000102B02F1FF32F8D11CAA2946484609F022
:10FB000019FC1CAA0023D17B0DF803100133102B24
:10FB100002F1FF32F7D10136B6B275E7F0B56128D0
:10FB200085B00D4617460E6850D013D841282DD009
:10FB300006D8A0F11303012B40F2988000246DE059
:10FB4000542834D0602845D05228F7D108460FF009
:10FB5000FBFFF3E7A02800F09E8007D8802811D093
:10FB60008128EBD108461AF057FAE7E7A22800F0FF
:10FB7000A380C0F09D80F128E0D1304617F076FFD9
:10FB800004464BE0304611F048FED7E713685B8926
:10FB9000029333880193544B0093022201233E21A8
:10FBA000EC2007F0F7FB30461AF00DFCC6E7D6F85C
:10FBB000843113F0010431D023F00103C6F88431FD
:10FBC00096F8B31128461BF0BBF9B7E708461AF0C0
:10FBD00061FDB3E713681E68937A032B21D1536844
:10FBE0001B78029333880193404B00930222012338
:10FBF0003F21EC2007F0CEFB38460FF06FFF0446A4
:10FC000060B97B681B78022B02BFD6F8843143F0C1
:10FC10000103C6F8843128460FF096FF204605B050
:10FC2000F0BD537A029333880193314B0093022243
:10FC300001234021EC2007F0ADFB38460EF086FE94
:10FC400004460028EAD196F8A93163B1294B186817
:10FC500019F066FE336E43F0100333663D212846EB
:10FC60001BF06EF9DAE70CF02BFED7E796F865305B
:10FC7000403B022B07D8A0F11303594259412846B3
:10FC800011F0B2FF5AE7346E14F00404C6D00846EF
:10FC90000AF00AFA52E708461BF0AEFF044600B32A
:10FCA0000146284602F0D6FD20461AF0B3FB45E790
:10FCB00030880DF0CFF841E796F8AC31112B3FF4C6
:10FCC0003DAF96F8AE31112B3FF438AFD6F8EC3299
:10FCD0001BB11B79012B3FF431AF284612F088FA93
:10FCE0002CE707249AE700BF28F901014CF901012C
:10FCF00073F901010C01002080B58AB000AF786073
:10FD0000F6F74AFC03F0F0FD4FF2D0231B681A46C9
:10FD1000594B1B6823F49F7323F0010343F0120334
:10FD20001846904704F006FE1BF039FCFBF7B0FFC5
:10FD300017F098FF0120F6F7DFFB504B504A1A608E
:10FD40004E4B504A5A604D4B4F4A9A604B4B4F4A6C
:10FD5000DA604A4B4E4A1A61484B4E4A5A61474B49
:10FD60004D4A9A61454B4D4ADA61444B4C4A1A62FE
:10FD7000424B4C4A5A62414B4B4A9A623F4B4B4A68
:10FD8000DA623E4B4A4A1A633C4B4A4A5A633B4B3F
:10FD9000494A9A63394B494ADA63384B484A1A64EC
:10FDA000002110200DF06EF904222021454800F0BA
:10FDB00057FA07F11C030C22002118461BF07EF8AD
:10FDC00007F11C0302331846F8F73EFB03461A46B8
:10FDD0007B7F62F300037B7707F11C03093318462E
:10FDE000F8F744FB03461A467B7F62F341037B77B7
:10FDF00007F11C031846F8F75FFB034683F0010385
:10FE0000DBB2002B01D003233B7707F11C0303F186
:10FE10000B0207F11C030A331146184602F0C5FA1B
:10FE200003461A467B7F62F382037B7707F1080360
:10FE30001422002118461BF041F83B7D6FF30003AC
:10FE40003B754FF4E043BB60BB681846FCF755FEBA
:10FE50000346FB600023BB6107F11C0307F10802A6
:10FE60000649184804F020F903F0D4F901F030F9FC
:10FE700000BF2837BD4680BD00240144200000207B
:10FE800039C8000165C8000191C8000155C90001C9
:10FE900097C90001C1C900010DCA00016102010139
:10FEA0002103010167030101B5030101FB03010106
:10FEB00093020101BF020101ED020101FBCA000131
:10FEC00013CB000118000020F7B590F84D30044620
:10FED0000E4633B919B10B78837280F8523003B0F3
:10FEE000F0BD032BFBD1684D2B68D3F8303303B141
:10FEF000984794F85220A27294F851302A682372DD
:10FF000002EB8303614FD3F89812A14204BF002192
:10FF1000C3F89812D2F8A032A34204BF0023C2F85B
:10FF2000A032237A3A68012B15BF1368536843F453
:10FF3000806343F4806314BF13605360042384F828
:10FF40004D3000238DF807305EB13378A3723378DB
:10FF500084F85230737823B10DF1070120460EF07A
:10FF600047FB2B680022C3F8A422637F13B120460D
:10FF700019F0F8FE2A68D2F898320BB9D2F89C3200
:10FF8000C2F8A032002B5ED093F84D30022B5AD12C
:10FF900019F0F7FE94F85030DE0748BF23F0010354
:10FFA00043F0020384F8503094F84F30D8070ED550
:10FFB00023F00103002684F84F30204666720FF0CC
:10FFC0000BFC334632463249012010F0AEFB637F12
:10FFD00003B9A3733A68B4F87000118988420DD050
:10FFE000A4F870102968B1F82203A4F87200B1F8DF
:10FFF0002413A4F874105289A4F876204BB194F815
:020000040101F8
:100000004E30D90705D4204619F0CCF82046FFF72A
:10001000A7FB94F84E30DA070FD523F0010384F8DC
:100020004E30A36D4BB920460FF0D6FBA36D23B91C
:100030001A461849012010F078FB296815F0DAFFFC
:1000400081F834034BE792F8943223B10022114631
:100050001046FDF7FDFA2B6893F89532002B99D0E6
:10006000237A3A68012B0BBF5368136843F480531B
:1000700043F480530CBF53601360002211460120EB
:100080000CF0F6FC86E700BF880100208401002008
:100090000B0100010901000170B5856D86B00446B1
:1000A000002D00F0DB8095F82E30DE0722D51120E0
:1000B0001BF0CAFD0646E8B100F11003062104A8B2
:1000C00004931BF0A5FB2B46049953F8A02F0A605C
:1000D0005A684A609A688A60DA68CA6006230093A0
:1000E000324600231121208816F040FE10B1304620
:1000F0001BF0E8FDA56D95F82E30980721D50B2053
:100100001BF0A2FD0646E0B100F11003072104A890
:1001100004931BF07DFB049BB5F8B0201A80049A71
:1001200055F8B23F13606B68536006230093324664
:1001300000230B21208816F019FE10B130461BF069
:10014000C1FDA56D95F82E30590722D511201BF061
:100150007BFD0646E8B100F11003082104A80493D2
:100160001BF056FB2B46049953F8BC2F0A605A68C3
:100170004A609A688A60DA68CA6006230093324649
:1001800000231121208816F0F1FD10B130461BF03C
:1001900099FDA36D93F82E301A0728D508201BF07F
:1001A00053FD054618B300F11003092103A803937A
:1001B0001BF02EFB0DF1110104A819F051FB9DF865
:1001C000101003A81BF024FB039BDDF811201A601C
:1001D000BDF815209A80062300932A4600230821A3
:1001E000208816F0C3FD10B128461BF06BFDA56DED
:1001F00095F82E30DB0622D511201BF025FD064692
:10020000E8B100F110030A2104A804931BF000FBDD
:100210002B46049953F8D32F0A605A684A609A68AB
:100220008A60DA68CA6006230093324600231121EF
:10023000208816F09BFD10B130461BF043FDA36DE6
:1002400093F8EA2052B95B7913B920460AF032FFDD
:10025000A06D18B11BF048FD0023A36506B070BD6A
:1002600080B584B000AFF860B9607A600022796828
:10027000B868F2F75DFB0246FB681A60FB681B6812
:10028000002B01D1002300E0012318461037BD46A2
:1002900080BD80B582B000AF786039603868F3F710
:1002A00020FA02467B681A607B681B68002B01D12C
:1002B000002300E0012318460837BD4680BD80B505
:1002C00082B000AF786039607B681A683B681B6851
:1002D00019461046F3F714FA0346012B01D1012306
:1002E00000E0002318460837BD4680BD80B584B0C5
:1002F00000AFF860B9607A60BB681B68796818461F
:10030000F3F743FA0246FB681A60FB681B68002B90
:1003100001D1002300E0012318461037BD4680BDFF
:1003200080B586B000AFF860B9607A6000237B6169
:100330007B68B3F1FF3F03D14FF0FF337B6101E0F6
:100340007B687B61FB68186800237A69B968F2F7FB
:10035000A1FB0346012B01D1012300E00023184635
:100360001837BD4680BD80B584B000AF7860396075
:100370000023FB607B68186807F10C0200233968D2
:10038000F2F74EFC0346012B0CD1FB68002B07D083
:10039000074B4FF080521A60BFF34F8FBFF36F8F40
:1003A000012300E0002318461037BD4680BD00BF82
:1003B00004ED00E080B586B000AFF860B9607A6007
:1003C00000237B617B68B3F1FF3F03D14FF0FF3324
:1003D0007B6101E07B687B61FB681B687A69B968B7
:1003E0001846F2F704FD0346012B01D1012300E07A
:1003F000002318461837BD4680BD80B582B000AFD7
:1004000078607B681B681846F3F71FF90346012BD9
:1004100001D1012300E0002318460837BD4680BD06
:1004200090B58BB000AFF861B9617A614FF0864347
:1004300002221A604FF2D0031B68FC693846BA6981
:100440001021984704F1DC033A4607CA83E8070005
:100450004FF24C031B681C46F869FB69DC337A6970
:100460001946A0470346002B02D00123FB8401E07C
:100470000023FB844FF0864300221A60FB8C184651
:100480002C37BD4690BD90B587B000AFF8607A605C
:100490003B600B467B814FF0864302221A604FF28D
:1004A00060031B681C46F8687A897B683968A04736
:1004B00078617B69002B06D14FF26C031B68FA68E8
:1004C0001046984778617B69002B06D14FF2700384
:1004D0001B68FA681046984778617B69002B06D143
:1004E0004FF268031B68FA681046984778614FF02E
:1004F000864300221A607B69002B01D0012300E0B3
:10050000002318461C37BD4690BD90B589B000AF9A
:10051000786139614FF0864302221A604FF2D003AE
:100520001B687C6938463A691021984704F1DC035E
:100530003A4607CA83E807004FF240031B681A4691
:1005400078697B69DC33194690470346002B02D05B
:100550000123FB8301E00023FB834FF0864300224D
:100560001A60FB8B18462437BD4690BD90B587B006
:1005700000AFF8607A603B600B467B814FF08643AA
:1005800002221A604FF260031B681C46F8687A89E1
:100590007B683968A04778617B69002B06D14FF2F0
:1005A00064031B68FA681046984778617B69002BE2
:1005B00006D14FF270031B68FA68104698477861BD
:1005C0004FF0864300221A607B69002B01D0012383
:1005D00000E0002318461C37BD4690BD2DE9F047CA
:1005E000C388172B8CB0074640F0BD80837A0C2B54
:1005F00007D003F0FD03082B03D080200CB0BDE82A
:10060000F0874FF440701BF06DFB80460028F4D05B
:100610001022002108A81AF051FC5E4BCDF808808A
:100620001B681C6800250CBB28461BF05BFB0646BC
:10063000002800F094802A4641461AF0F5FA404618
:100640001BF052FB04AB2A46314608A8FFF778F9A5
:1006500030461BF049FB3B685A6804AB03CB106083
:10066000516003CB9060D1600020C7E7A689E38981
:10067000B34201D22468D6E7B4F80C906368A6EBC5
:10068000090903EB091999F80E305B074FD4D9F823
:10069000001001A81BF0B0F8BDF80430A3F52052FB
:1006A000032A02D9B3F5245F44D1D9F8083093F86E
:1006B00000A055441FFA85FA0AF10405ADB2B5F55C
:1006C000407F4CD8314602A81BF0A8F8BDF80410B2
:1006D00002A81BF0A3F8D9F80830D9F804101A784A
:1006E00002A81AF0B5FABDF8042042F602039A42B5
:1006F0001DD1D9F808301B88042B18D1D9F8041063
:100700000DF106001BF078F803AA04A9BDF8060055
:1007100016F01AFD58B10AF11405ADB2B5F5407FD7
:100720001DD8049B1022596802A81AF091FA0136CC
:10073000B6B29CE703F55643FF339BB2042BF6D8C1
:100740000435ADB2B5F5407F09D8314602A81BF09B
:1007500065F8BDF8041002A81BF060F8E7E7404612
:100760001BF0C2FA49E7152B7FF447AF837A0C2BB5
:1007700004D003F0FD03082B7FF43FAFB88816F0D8
:10078000CBFF00283FF439AF3B68827A5B681A7070
:100790006AE700BFA80000202DE9F04F002311F008
:1007A000010A87B0CDE904331FBF654B1B68D3F83E
:1007B000A832049311F01003044601930CD006AA4A
:1007C0000AF1010302EB8A0A5D4A1268D2F8B022EC
:1007D0004AF8082C5FFA83FA4FF0000B0DF110096C
:1007E0004FF0FF32CDF800B040F23913DA4500F097
:1007F0009980DFF8508157E086680168C9F80010D9
:10080000B44251D0B17B012930464DD1019919B183
:10081000B57AA17A8D4247D9E17A276E356E0129E2
:1008200004BFE16B7F1AF17A08BF07EA08070129C4
:1008300002BFF16B6D1A05EA0805E91B49023ED5B6
:10084000B4F87010B6F876C0B1FBF3F1BCFBF3FC62
:10085000614401F1020C716E294401EA080161440E
:1008600001EA0801791A490242D4B6F87010B4F8C6
:100870007600B1FBF3F1B0FBF3F001440231681AEA
:1008800000EA0800A0EB070C1CF4800F35D1391AE0
:10089000490203D4474017EA080F05D10CEA0801C2
:1008A0008A4284BF0A460096D9F800000028A3D1E6
:1008B0000BF1010B5FFA8BFB09F1040996E7D4F801
:1008C00064C0B6F87010B4F876E0B1FBF3F1BEFB8B
:1008D000F3FE71440CEB070E02310EEA080E714470
:1008E00001EA0801691A4902BFD5C4F86CC001E0E9
:1008F000636EE36607B0BDE8F08F96F81DE0BEF1C9
:10090000000FC4D0706CCDE9022117F063FB03998E
:10091000029A054405EA0805681A00EA080040F250
:100920003913AFE7636E934202D9E3660098E1E7BB
:10093000A36E93428CBFE266E3660020DAE700BF55
:1009400088010020FFFF7F0038B5684B1A6805203A
:1009500060F31F721A601BF011F903F57E7140F20B
:100960003B100A8860F30F020A8003F20C4240F247
:10097000E244108840F001001080088864F30F0002
:100980000880118841F002011180A3F5DC724FF458
:100990003470116860F31A41116003F5027234304B
:1009A000118860F30F011180A3F2A4521420116882
:1009B00060F31741116003F50471A4F5DB74088836
:1009C00064F30F0008804FF088411546096C4848D1
:1009D00003F5067201F44051B1F5005F11880CBFB8
:1009E00024240C2464F30701118042490A886FF320
:1009F00007020A801A686FF307021A600A4652F863
:100A00001C3F6FF30003136013686FF3410313601F
:100A100013686FF30413136013686FF345131360C7
:100A200013686FF3861313600B4633F8244F6FF38C
:100A300000041C801C886FF341041C801C886FF329
:100A400004141C801C886FF345141C801C886FF3F1
:100A500086141C80146844F004041460146844F084
:100A6000080414601A8842F004021A801A8842F0BE
:100A700008021A802B685C2262F30F232B60B0F807
:100A80005031A12262F30F23A0F85031B0F8503159
:100A90008C2262F30703A0F85031D0F8143102F22F
:100AA0006F1262F3184301F2FC42C0F8143113686C
:100AB00043F000531360A1F541731A686FF39E72FF
:100AC0001A60A1F55573A1F5F2711A686FF310421F
:100AD0001A60B0F8083C122262F34913A0F8083CEF
:100AE0000B8843F003030B8038BD00BF0C3A014173
:100AF00000240141043A01412DE9F743044600F581
:100B0000FC78D0E96669D0F8F8310F4609B1D0F821
:100B10001032C4F8143220461D6915F02FFB204610
:100B200019F054FE204611F089FC594B1A884821CF
:100B300061F30E021A80A3F56B7294F83F001188DE
:100B4000A3F5836360F3041111801A686FF34D32CB
:100B50001A6094F82D1003201AF043FA2A464946E9
:100B6000404611F064FD002F3DD1D4F8F83194F8DF
:100B700020801F6901210DF107000FF0D1FB9DF8C6
:100B800007100622B1FBF2F302FB131394F8731063
:100B9000DBB20B298DF807304FF001020CD802FAB6
:100BA00001F111F0050F51D140F6C870084018B995
:100BB00011F0120F18BF0222364903EB43030B4416
:100BC00012010021585C28FA00FC1CF0010F07D02C
:100BD000D7F808C0253060F3C80CC7F808C0174420
:100BE00001310329EED194F87330052B06D9D4F8DE
:100BF00000321BB1284B20461B689847D4F8F821D7
:100C000032BB94F873302549012BA1F1040335D18F
:100C10000A68062060F30F020A601A6842F00202B6
:100C20001A601F4A1268AD1A1A68ADB265F31F4206
:100C30001A601C4A1168B6B266F31F4111601A6847
:100C400042F001021A6003B0BDE8F0830322B3E76B
:100C5000D4F8143293420AD8117A1369042908D0BF
:100C6000052906D019B9186861F346101860126892
:100C7000C6E719686FF346111960F8E7086862F370
:100C80000F000860196862F341011960C9E700BFED
:100C90006C38014118B00201ACFC00205C3E0141FF
:100CA00080010020703E01412DE9F04F07298DB0F1
:100CB000074601D015293FD1053901328CB204A86D
:100CC00005A9059219F0F6FD05A90DF1120019F01C
:100CD000F1FD08A8224605A919F0B0FF384612F028
:100CE000DBFE68BB2246594908A819F0E5FA00283E
:100CF00040F0A380BDF81000002800F0A080BDF8EF
:100D00001210884200F29B80E4B207AD06AE019556
:100D1000009608AB22460CF011F88346002800F03C
:100D20009280069B3888DA7B01210AF071F880B244
:100D300070B1ADF810B003E00023ADF8103004201E
:100D4000C3B2BDF81020102138460AF0B1FE41E0D0
:100D5000B8881AF079FF8246002872D0069B9B68FB
:100D6000B3F8008008F1040900F11003112105A86F
:100D70001FFA89F905931AF04BFD5FFA89F105A86E
:100D80001AF046FD594605A81AF048FD079B05A82C
:100D9000D9891AF043FD069B9A685968128805A8FC
:100DA00019F056FF08F106081FFA88F8079BD88942
:100DB0004FF6FF73984204D0BB8808EB090B9B45A4
:100DC0000BDD52464146384618F0EAFF10B1504656
:100DD0001AF078FF0DB0BDE8F08F013080B2CDE998
:100DE000006508AB2246BDF81210ADF810000BF0FC
:100DF000A5FF03900028E4D006998A68128804327F
:100E00004A45DED1CA7B388801210AF001F8002862
:100E1000D7D1039B05A819461AF000FD079B05A82A
:100E2000D9891AF0FBFC069B9A685968128805A8B4
:100E300019F00EFF1FFA8BF8B8E7102080E70120A9
:100E40007EE711207CE70A207AE700BF56D6010131
:100E50002DE9FF470025044689461F46057001F12C
:100E6000FF3813780BB145450BD3624B1B7803B9A0
:100E70002370454588BF09F10105284604B0BDE847
:100E8000F087252B07D05B49097811B904F8013B9D
:100E900001350132E5E75378252B37D0561C3378DE
:100EA000302B4FF000001AD101464FF00A0C725C53
:100EB000A2F13003DBB2092B0ED922F0200EAEF1E5
:100EC000410EA2F16103BEF1050FDBB206D8052B7E
:100ED00026D8A2F15703DBB2092B29D90E44337867
:100EE0006C2B08BF01363378702B5FD027D8632B6B
:100EF00039D0642B51D0582B3AD13E4B3A681B78ED
:100F000003920437002B68D1019058E039490978E1
:100F1000961C0029C3D104F8013B01353246A0E7F5
:100F2000A2F14103052B02D8A2F13703D3E7002336
:100F300001310CFB0030735C002BB8D1CEE7752B70
:100F400018D0782BD9D0732B12D13B680437013BD2
:100F50005A1C0DD013F8012F52B1454508D204F8A0
:100F6000012B0135F4E73B6804F8013B04370135F8
:100F7000721C76E71F4B3A681B78039204370BBB51
:100F8000019000930A23A8EB050120460CF03CFFDA
:100F90005FFA80FA54445544EAE7164B3A681B78E6
:100FA0000392043773B901900123EAE7114B3A68C1
:100FB0001B78039204372BB9042301930123009378
:100FC0001023E0E7002808BF04205FFA80FA5246A9
:100FD00003A9204619F07EF9DCE740B1C107C0F350
:100FE000470AF4D50AF1010A5FFA8AFAEFE74FF0EF
:100FF000010AECE7CFFC002080B485B000AF786038
:101000007B6803F00703FB600C4BDB68BB60BA68CE
:101010004FF6FF031340BB60FB681A02BB68134323
:1010200043F0BF6343F40033BB60044ABB68D36042
:1010300000BF1437BD465DF8047B704700ED00E04B
:1010400080B483B000AF0346FB7197F90730002BE3
:101050000BDBFB7903F01F02074997F907305B09A7
:10106000012000FA02F241F8232000BF0C37BD46F0
:101070005DF8047B704700BF00E100E080B483B0FE
:1010800000AF03463960FB7197F90730002B0ADB8C
:101090003B68DAB20C4997F907305201D2B20B44DF
:1010A00083F800230AE03B68DAB20849FB7903F0D1
:1010B0000F03043B5201D2B20B441A7600BF0C3727
:1010C000BD465DF8047B704700E100E000ED00E004
:1010D00080B500AF0020FFF78FFFBFF35F8F62B6D0
:1010E00007214FF0FF30FFF7C9FF07210320FFF76B
:1010F000C5FF0320FFF7A4FF0C4B5B6A0B4A43F4C8
:1011000080235362094B5B69084A43F01003536123
:10111000064B5B6A054A43F400335362034B5B6A38
:10112000024A43F48033536200BF80BD00ED00E00B
:1011300080B400AFBFF35F8F62B600BFBD465DF8FD
:10114000047B704780B483B000AFEFF310833B6043
:101150003B68002B0CBF01230023FB7172B6BFF369
:101160005F8FFB7918460C37BD465DF8047B7047EE
:1011700080B483B000AF0346FB71FB79002B03D032
:10118000BFF35F8F62B602E072B6BFF35F8F00BF3E
:101190000C37BD465DF8047B704700BF2DE9F7436F
:1011A000054635201AF09EFD044610201AF09AFDDF
:1011B000064610201AF096FD07460CB106B150B94C
:1011C0005C4B009300220423C321EE2006F0E2F8DA
:1011D00003B0BDE8F083584A136803605368436066
:1011E00093688360D368C360A96D334620222F3192
:1011F000FEF7A6FB95F8038050484FF4807904F180
:10120000020E2B1D04F1090C05F10B0104F1100273
:10121000A4F80090B8F1000F4ED1D3F80090C4F8B4
:101220000290B3F80490AEF804909B798EF80630E3
:101230000B68C4F809308B88ACF804308B798CF8D3
:101240000630A96D01F5C0710B6823614B685360CE
:101250008B689360CB68D360AA6D02F5E07221467B
:1012600013682362536863629368A362D368E3627E
:101270000123206384F83430AB6D3522A03330462F
:10128000FEF75EFBA96D2846A03112F0C3FF84F87B
:101290003480AB6D3522063321463046FEF750FBD5
:1012A00020461AF021FD30461AF01EFD384603B0E4
:1012B000BDE8F0431AF018BDD1F80080C4F80280F0
:1012C000B1F80480AEF8048089798EF806101968A8
:1012D000C4F809109988ACF804109B798CF8063092
:1012E000A96D01F5C0710B6823614B6853608B6871
:1012F0009360CB68D360AA6D02F5E0722146136853
:101300002362536863629368A362D368E362012334
:10131000206384F83430AB6D3522A0333046FEF7BD
:101320000FFBA96D2846A03112F074FF002384F84A
:101330003430AEE754AD020190B40201656C7462C2
:1013400037B5428840F201139A4204460D4605D053
:10135000082120460BF0D4FB03B030BD09F02AF978
:101360000028F5D1A06D019501A9E4301AF033F9F8
:10137000A06D01A9E5301AF02EF9A06D01A9E630A3
:101380001AF029F9A06D01A9E7301AF024F9A06D2F
:1013900001A9E8301AF01FF9A06D01A9E9301AF08F
:1013A0001AF9A36D93F8E72084F85220A27A83F803
:1013B00058212346A26D53F8041FC2F859119B8887
:1013C000A2F85D31A36D93F8E620D50704D5414A14
:1013D00012685278D00701D401225A71A26D92F896
:1013E000E730073B092B01D90621B2E792F8E63036
:1013F000384D13F0080F2B6803D19B7923B10321DB
:10140000A7E75B78C3F3C00384F8553020460CF09F
:10141000B7FB2B68DA7932B15B78590703D5A36D36
:101420005B78012BEBD0204612F0C2FBA36D5A78FB
:1014300012F1FF3118BF012184F8541094F85510AF
:10144000002940D0012A03D093F8E7200F2ACBD9F6
:1014500093F8E82022F0090283F8E820A26D92F8C0
:10146000E93023F0090382F8E930A26D92F82C30BC
:1014700092F8E8100B4023F0040382F82C30A26DA0
:1014800092F82D3092F8E9100B4023F0040382F813
:101490002D3002231049A37004F15C0003F0E6FE36
:1014A00008201AF01FFC014600283FF455AF062320
:1014B000037023888380A36D93F8E630837108203E
:1014C0001AF052FB48E793F8E920D2075CBF0122EB
:1014D0005A71CAE798010020A064D10173B50023B6
:1014E000ADF8023090F85030604E044623F002030D
:1014F00080F850300DF1020101A816F0D9FD237AD1
:101500003268012B0BBF5368136843F0100343F09C
:1015100010030CBF53601360E37A012B17D1019ABB
:10152000E36BBDF802101A44238F0B449BB240F2C8
:10153000E1418B42C2F31602019285BFA3F2E2435E
:101540000132ADF80230ADF8023088BF0192019D42
:10155000B4F87230BDF802202946204615F002FB8F
:1015600040B3237A3268012B0BBF5368136843F0F2
:10157000200343F020030CBF53601360237A2BB188
:10158000012B14D1A36C93B1637F83B120460CF07F
:101590003BFDA36A13B1204616F0C4FA204609F0B9
:1015A00077F90022114601200BF062FA14E00022C4
:1015B000A273F7E7226EB4F87030521BC2F3160222
:1015C00003F2712340F23911B3FBF1F3013393427B
:1015D00004D9204609F01AFD02B070BD237A3168A3
:1015E000012B0BBF4B680B6843F0800343F0800373
:1015F0000CBF4B600B6040F271256A43BDF80230AE
:10160000B4F87050019905EB9305C5EB52052A46D5
:1016100020460CF039FE0028DED12946C4F884406B
:1016200004F1780003F022FE114B1B68B3F820137D
:1016300001F59C73AB4204D2691A04F1900003F0E7
:1016400015FE20460CF0E0FC0423204684F84D30C3
:1016500015F0EAFF207A012804D1626D002ABBD17F
:101660001146A1E70022114610469DE784010020A3
:10167000880100202DE9F04390F80E80BBB00446AD
:10168000B8F1000F40F0A280037AD0F84090012B0F
:1016900040F08E80484540F09980237A002B40F03E
:1016A000A180226CA24209BF40F2012242F205232E
:1016B000ADF8182098461CBFADF818304FF001085F
:1016C000A06C16F087FCB4F8683087B2DD19ADB2B3
:1016D000B5F5487F88BFC3F54877D9F860300793E0
:1016E00084BFBFB24FF4487518F06AF9444B4549BE
:1016F0001B681E895B891E4440F23913B6FBF3F662
:10170000E37A01360644012B06EA010604D1236E72
:10171000E26B9B1A0B400793B4F8700000F2712043
:1017200016F058FCD9F8683000EB0309606C16F02D
:1017300051FC484503D2B8F1000F18BF4846079B3B
:10174000304A03441340A3EB060818F48008F8D18C
:10175000013D1D440793154000238DF81630079B6B
:10176000CDE908350DF1170301930DF120090DF1B5
:10177000160306A80093CDF808903B4607AA214619
:1017800010F8080001268DF8176003F093FA079B04
:1017900000939DF817209DF816104B46204602F046
:1017A00099FA38B3236EEB1A5B0223D4A6730DE0CB
:1017B00018F006F9236CA3420FD099F80E302BB124
:1017C000D9F86030C01A42023FF567AFA07B003005
:1017D00018BF01203BB0BDE8F0832369C3F31603B3
:1017E00023665AE740F61113ADF8183068E74FF05A
:1017F0000108B1E7B8F1010FF9D10023A373E5E7C0
:1018000084010020FFFF7F002DE9F74F0223D0F86D
:1018100048918DF8043090F80031D0F854A1009030
:1018200005460633494668468DF8053005F096FEB4
:101830002B4653F8332FCAF800209B88AAF80430AF
:10184000B5F800212AB1D5F8FC100AF1060018F00D
:1018500041FD4FF00008D5F8F871464695F8F43090
:10186000B34202D803B0BDE8F08F3C69DFF820B185
:1018700023686FF3020323602368012262F3C40329
:1018800023602368042262F3CA132360236862F38F
:10189000CE23236095F8F430013B9E4251D123685A
:1018A0006FF3DE33236023686FF3DF732360BBF8CD
:1018B00000306168A9EB030292B262F30F0161602C
:1018C0006268AAEB03039BB263F31F426260A368E2
:1018D0006FF30103A360A36843F00403A36099F8C6
:1018E000012095F83F1095F82B0015F071FA31B2F0
:1018F000C7E90708C7E9059A05EB810200233C61A7
:101900003B7287F82830C2F8C470C2F8D040C2F8E1
:10191000DC3095F8F42086308044501E86421BD17E
:1019200005EB4201A1F8E630A1F8EC300EB3C5F8A2
:1019300090810023F018824220DC01363F68F6B225
:101940008CE7DBF8002004F110039B1A22689BB29D
:1019500063F3DE322260A6E7DBF800C005EB41014D
:101960001034A4EB0C04A1F8E840A1F8EE30002EEE
:10197000DFD1C5F894810028DBD1D8E703EB430120
:10198000014405EB81010133C1F8A080DBB2D1E74E
:10199000800100202DE9F04186B003790393C378DC
:1019A00002930388019305465A4B009302220123B8
:1019B0005121EC2005F0EEFC288817F017FC0746B3
:1019C000002800F0A48017F0BBF8002800F09180F8
:1019D000012138463C6816F07BFE00210646384659
:1019E00016F076FEAA78032A804612D0EB78B3422E
:1019F0001DD1297981421AD1042E0AD1EB88012BFD
:101A000008BF84F86830EB88022B02D1002384F8E9
:101A10006830304619F0C1FA0446404619F0BDFA64
:101A2000002302462146384613F0A8FA4EE012F091
:101A3000010F18BF072384F86332AB789B0754BFAC
:101A40002B79072384F86432EB88A4F86C325A1E91
:101A5000012A09D8012B08BF84F86830EB88022BD3
:101A600004BF002384F8683094F8C63143F00203C1
:101A700084F8C63194F98032002B23DA2B79042BB9
:101A800004D1EA88D2B994F86820CAB9002684F84B
:101A90008B3284F88C62E87819F02AF901463846CE
:101AA00018F040FE012384F88D0284F88132384614
:101AB00018F0FCFD304606B0BDE8F081022AE5D002
:101AC0000823E3E7384619F05FFA08B10026F1E78A
:101AD00094F8C63160F3410384F8C63107260E4BF3
:101AE0000093019601230022FF21EC2005F052FC17
:101AF000E0E72868696804AB03C3082204AB04214B
:101B0000384614F0FEFB06460028E8D1DEE7022640
:101B1000E5E700BF308602012286020137B55D4D40
:101B20002B68D3F898420CB9D3F89C42C3F8A04272
:101B300019F038FE20B9584BD3F8AC30590616D5F9
:101B4000237A012B554B1A680CD1536843F4004398
:101B50005360A36A13B1204615F0E4FF204608F055
:101B600097FE55E0136843F400431360F1E7002C3F
:101B70004ED094F84D30022B4AD1ADF802000DF151
:101B8000020101A816F094FAE37A012B17D1019A09
:101B9000E36BBDF802101A44238F0B449BB240F252
:101BA000E1418B42C2F31602019285BFA3F2E243E8
:101BB0000132ADF80230ADF8023088BF0192B4F8BE
:101BC0007430BDF802200199204614F0CBFF94F840
:101BD0004F305A0725D51B0723D5304BA56D1A6802
