:0200000400807A
:105F8800FFFF000000400E8438FC745F3B4410148F
:085F98000B0000710200000083
:045FBC0000000010D1
:020000040100F9
:10000000FEFFFFFF01015048434D00000000740057
:1000100000000001000200010002000100C0020017
:1000200000000000000000000000000000000000D0
:1000300000000000000000000000000000000000C0
:1000400000000000000000000000000000000000B0
:1000500000000000000000000000000000000000A0
:100060000000000000000000000000000000000090
:100070000000000000000000000000000000000080
:100080000000000000000000000000000000000070
:100090000000000000000000000000000000000060
:1000A0000000000000000000000000000000000050
:1000B0000000000000000000000000000000000040
:1000C0000000000000000000000000000000000030
:1000D0000000000000000000000000000000000020
:1000E0000000000000000000000000000000000010
:1000F0000000000000000000000000000000000000
:1001000000000000000000000000000000000000EF
:1001100000000000000000000000000000000000DF
:1001200000000000000000000000000000000000CF
:1001300000000000000000000000000000000000BF
:1001400000000000000000000000000000000000AF
:10015000000000000000000000000000000000009F
:10016000000000000000000000000000000000008F
:10017000000000000000000000000000000000007F
:10018000000000000000000000000000000000006F
:10019000000000000000000000000000000000005F
:1001A000000000000000000000000000000000004F
:1001B000000000000000000000000000000000003F
:1001C000000000000000000000000000000000002F
:1001D000000000000000000000000000000000001F
:1001E000000000000000000000000000000000000F
:1001F00000000000000000000000000000000000FF
:10020000F07F012035240201D5890201DB8902013A
:10021000E7890201ED890201F38902010000000073
:10022000000000000000000000000000A99900018B
:10023000E189020100000000C99A0001379B00011A
:10024000EBE40001EBE40001EBE400015DB7000129
:10025000EBE40001EBE40001EBE40001EBE400015E
:10026000EBE40001EBE40001EBE40001EBE400014E
:10027000EBE40001EBE40001EBE40001EBE400013E
:10028000EBE40001EBE40001EBE40001EBE400012E
:10029000EBE40001EBE40001EBE40001EBE400011E
:1002A000EBE40001EBE40001EBE40001EBE400010E
:1002B000EBE40001EBE40001EBE400011D000201AE
:1002C000CD9E0101EBE40001EBE40001EBE4000151
:1002D000EBE40001EBE40001EBE40001EBE40001DE
:1002E000EBE4000100000000510702010020320091
:1002F00080F8002000000000000000000120320013
:1003000080F8002000000000000000000220320001
:1003100080F80020000000000000000003203200F0
:1003200080F80020000000000000000004203200DF
:1003300080F80020000000000000000005203200CE
:1003400080F80020000000000000000006203200BD
:1003500080F80020000000000000000007203200AC
:1003600080F80020000000000000000008202000AD
:10037000B4F8002000000000000000000920200068
:10038000B4F8002000000000000000000A20200057
:10039000B4F8002000000000000000000B20200046
:1003A000B4F8002000000000000000000C20200035
:1003B000B4F8002000000000000000000D20200024
:1003C000B4F8002000000000000000000E20200013
:1003D000B4F8002000000000000000000F20200002
:1003E000B4F800200000000000000000F8B500BFD5
:1003F000F8BC08BC9E46704785420201F8B500BFB4
:10040000F8BC08BC9E4670476142020180B58CB0C2
:1004100004AFF860B9603B601346FB80FB889B002B
:10042000184615F063FF78617B69002B13D05420C8
:1004300015F05CFFF861FB69002B08D05422002105
:10044000F8692AF0EDFBFB697A691A6305E07869BF
:1004500015F0A4FF01E00023FB61FB69002B13D022
:10046000FA8800230393FB690293FB6A0193BB6A3A
:1004700000933B68B968F86800F00EF8F86900F07E
:100480007BF80123BB6102E04FF0FF33BB61BB6926
:1004900018462037BD4680BD80B586B000AFF860F5
:1004A000B9607A603B60BB6A186B7B689B001A4638
:1004B000A5212AF0B5FBBB6A1A6B7B6803F1804368
:1004C000013B9B0013443B613B6923F007033B6105
:1004D000BB68002B1ED000237B6112E0BA687B69E9
:1004E00013441978BA6A7B69134434330A461A7084
:1004F000BA687B6913441B78002B06D07B690133F3
:100500007B617B690F2BE9D900E000BFBB6A002249
:1005100083F843203B6A042B01D904233B62BB6A66
:100520003A6ADA62BB6A3A6A5A64BB6A04331846AA
:1005300011F034FFBB6A1833184611F02FFFBB6A65
:10054000BA6A1A613B6AC3F10502BB6A9A61BB6A67
:10055000BA6A5A623A68F968386909F0D9F9024604
:10056000BB6A1A607B6A002B02D07B6ABA6A1A6087
:1005700000BF1837BD4680BD80B584B000AF78603D
:1005800009F06FFA3E4B1B6801333D4A13603D4B47
:100590001B68002B09D13B4A7B681360384B1B68F2
:1005A000012B10D101F00EFA0DE0374B1B68002B28
:1005B00009D1344B1B68DA6A7B68DB6A9A4202D83D
:1005C000304A7B681360314B1B6801332F4A13603C
:1005D0007B68DB6A01229A402D4B1B6813432C4A2F
:1005E00013607B68DA6A2B4913469B0013449B0017
:1005F0000B4404331B68FB607B68FA689A60FB68F5
:100600009A687B68DA60FB689B687A6804325A6093
:100610007B681A1DFB689A607B68DA6A13469B0048
:1006200013449B001B4A1A447B685A617B68DA6A50
:10063000184913469B0013449B000B441B68591C2C
:10064000144813469B0013449B000344196009F0AF
:1006500021FA0D4B1B68002B0ED00A4B1B68DA6A7F
:100660007B68DB6A9A4207D20B4B4FF080521A60CC
:10067000BFF34F8FBFF36F8F00BF1037BD4680BDF4
:10068000E4F600200CF60020F0F6002000F7002031
:10069000ECF6002010F6002004ED00E080B584B0F8
:1006A00000AF786009F0DDF97B68002B02D1344B94
:1006B0001B6800E07B68FB60FB680433184611F0A0
:1006C000D7FE0346002B15D1FB68DA6A2D49134685
:1006D0009B0013449B000B441B68002B0AD1FB6852
:1006E000DB6A012202FA03F3DA43274B1B6813404B
:1006F000254A1360FB689B6A002B04D0FB68183303
:10070000184611F0B5FE214B1B6801331F4A1360D8
:100710001B4B1B68FA689A420BD1FB6804331946DD
:100720001B4811F048FE1B4B1B680133194A13602C
:1007300006E0194B1B68013B174A136001F0BEF934
:1007400009F0A8F90E4B1B68FA689A4202D0F868C3
:1007500001F0A4F9114B1B68002B0CD0084B1B684F
:10076000FA689A4207D10E4B4FF080521A60BFF3DD
:100770004F8FBFF36F8F00BF1037BD4680BD00BFE6
:100780000CF6002010F60020ECF6002000F7002008
:10079000B8F60020CCF60020E4F60020F0F60020A9
:1007A00004ED00E080B586B000AF786039600023CA
:1007B0007B6100F0FBFA224B1B683B617B681B6886
:1007C0003A681344FB607B681B683A699A420BD213
:1007D0007B681B68FA689A4211D2FA683B699A42B0
:1007E0000DD901237B610AE07B681B68FA689A4295
:1007F00003D3FA683B699A4201D901237B617B6884
:10080000FA681A607B69002B06D0FA683B69D31A34
:100810000021184601F098FF00F010FBB860BB689B
:10082000002B07D1074B4FF080521A60BFF34F8F58
:10083000BFF36F8F7B6918461837BD4680BD00BF78
:10084000E8F6002004ED00E080B584B000AF7860E9
:100850000023FB607B68002B08D000F0A7FA002182
:10086000786801F071FF00F0E9FAF860FB68002B8E
:1008700007D1064B4FF080521A60BFF34F8FBFF382
:100880006F8F00BF1037BD4680BD00BF04ED00E094
:1008900080B584B000AF786009F0E3F87B68002B86
:1008A00002D1074B1B6800E07B68FB60FB68DB6ADA
:1008B000BB6009F0EFF8BB6818461037BD4680BD35
:1008C0000CF6002080B489B000AF7860EFF311829D
:1008D0004FF0200383F31188BFF36F8FBFF34F8F67
:1008E0003A61FB603B69FB617B68002B02D10A4BDC
:1008F0001B6800E07B68BB61BB69DB6A7B61FB69ED
:10090000BB60BB6883F311887B6918462437BD46FA
:100910005DF8047B704700BF0CF6002080B588B0FE
:1009200000AF786039600023FB613B68042B01D97C
:1009300004233B6009F095F87B68002B02D1554BEE
:100940001B6800E07B68BB61BB695B6C7B617A699B
:100950003B689A4200F098803A687B699A420DD9C8
:100960004C4B1B68BA699A420FD04A4B1B68DB6A32
:100970003A689A4209D30123FB6106E0454B1B68A4
:10098000BA699A4201D10123FB61BB69DB6A3B6111
:10099000BB695A6CBB69DB6A9A4202D1BB693A688F
:1009A000DA62BB693A685A64BB699B69002B04DB55
:1009B0003B68C3F10502BB699A61BB6959693A6931
:1009C00013469B0013449B00334A1344994250D171
:1009D000BB690433184611F04BFD0346002B09D1C7
:1009E00001223B6902FA03F3DA432C4B1B681340E4
:1009F0002A4A1360BB69DB6A01229A40274B1B68B5
:100A00001343264A1360BB69DA6A234913469B00E5
:100A100013449B000B4404331B68FB60BB69FA68FA
:100A20009A60FB689A68BB69DA60FB689B68BA6980
:100A300004325A60BB691A1DFB689A60BB69DA6AA6
:100A400013469B0013449B00134A1A44BB695A6126
:100A5000BB69DA6A104913469B0013449B000B44A0
:100A60001B68591C0C4813469B0013449B0003440D
:100A70001960FB69002B07D0094B4FF080521A60B8
:100A8000BFF34F8FBFF36F8F09F004F800BF20371B
:100A9000BD4680BD0CF6002010F60020ECF60020CC
:100AA00004ED00E080B584B000AF786008F0D9FFB5
:100AB0007B68002B02D13B4B1B6800E07B68BB606E
:100AC000BB680433184611F0D3FC0346002B15D144
:100AD000BB68DA6A344913469B0013449B000B44FD
:100AE0001B68002B0AD1BB68DB6A012202FA03F300
:100AF000DA432E4B1B6813402C4A1360BB689B6A79
:100B0000002B04D0BB681833184611F0B1FCBB6849
:100B100004331946264811F04EFC0023FB6010E018
:100B2000BA68FB68134450331B78DBB2012B05D144
:100B3000BA68FB681344503300221A70FB68013313
:100B4000FB60FB68002BEBDD08F0A4FF194B1B6872
:100B5000002B05D008F085FF00F0B0FF08F09AFFE9
:100B6000104B1B68BA689A4218D1124B1B68002BB5
:100B700008D0114B4FF080521A60BFF34F8FBFF374
:100B80006F8F0BE00A4B1A680C4B1B689A4203D11B
:100B9000044B00221A6001E000F0D0FB00BF1037C8
:100BA000BD4680BD0CF6002010F60020ECF60020BB
:100BB000D0F60020F0F6002004ED00E0E4F600207E
:100BC00080B485B000AF78600023FB607B68BB60B9
:100BD000BB685B690A4A93420AD1BB689B6A094AAF
:100BE000934205D0BB689B6A002B01D10123FB60B7
:100BF000FB6818461437BD465DF8047B704700BF9C
:100C0000D0F60020A4F6002080B584B000AF786054
:100C10007B68FB60344B1B68FA689A425FD0FB68C4
:100C2000002B5CD008F01DFFF868FFF7C9FF0346F2
:100C3000002B52D0FB680433184611F019FCFB68F6
:100C4000DB6A01229A40294B1B681343274A136031
:100C5000FB68DA6A264913469B0013449B000B4449
:100C600004331B68BB60FB68BA689A60BB689A680B
:100C7000FB68DA60BB689B68FA6804325A60FB68FC
:100C80001A1DBB689A60FB68DA6A13469B0013441E
:100C90009B00174A1A44FB685A61FB68DA6A1449D8
:100CA00013469B0013449B000B441B68591C1048BF
:100CB00013469B0013449B0003441960FB68DA6AE7
:100CC000094B1B68DB6A9A4207D30A4B4FF08052EC
:100CD0001A60BFF34F8FBFF36F8F08F0DBFE00BFCA
:100CE0001037BD4680BD00BF0CF60020ECF600209A
:100CF00010F6002004ED00E080B584B002AF184B80
:100D000001930023009300234FF480721549164885
:100D1000FFF77CFB78607B68012B02D104F00CFDAF
:100D200078607B68012B14D14FF0200383F3118886
:100D3000BFF36F8FBFF34F8F3B600C4B4FF0FF3211
:100D40001A600B4B01221A600A4B00221A6008F04D
:100D500056FE094B1B6800BF0837BD4680BD00BF6B
:100D600008F70020F4B80201FD18000104F7002084
:100D7000F0F60020E8F600209001012080B582B056
:100D800000AF4FF0200383F31188BFF36F8FBFF3E1
:100D90004F8F7B60044B00221A6008F05BFE00BF9F
:100DA0000837BD4680BD00BFF0F6002080B400AF1C
:100DB000044B1B680133034A136000BFBD465DF856
:100DC000047B70470CF7002080B485B000AF00238F
:100DD000BB6001237B60144B1B687A689A4201D286
:100DE0000123BB60114B1B68DB6A002B02D0002380
:100DF000FB6012E00E4B1B68012B02D90023FB6045
:100E00000BE0BB68002B02D00023FB6005E0094B20
:100E10001A68094B1B68D31AFB60FB681846143725
:100E2000BD465DF8047B7047ECF600200CF6002010
:100E300010F6002004F70020E8F6002080B586B008
:100E400000AF00237B6100233B6108F00AFE684B82
:100E50001B68013B664A1360654B1B68002B40F022
:100E6000C080644B1B68002B00F0BB808AE0624BA3
:100E7000DB68DB687B617B699B6ABB607B69DB69E4
:100E80007A69126A9A607B691B6A7A69D2695A60C8
:100E9000BB685A687B6918339A4203D17B691A6A26
:100EA000BB685A607B6900229A62BB681B685A1E45
:100EB000BB681A607B695B697B607B699B687A6948
:100EC000D2689A607B69DB687A6992685A607B684D
:100ED0005A687B6904339A4203D17B69DA687B687C
:100EE0005A607B6900225A617B681B685A1E7B68C6
:100EF0001A607B69DB6A01229A40404B1B681343EE
:100F00003E4A13607B69DA6A3D4913469B001344ED
:100F10009B000B4404331B683B607B693A689A6012
:100F20003B689A687B69DA603B689B687A6904323F
:100F30005A607B691A1D3B689A607B69DA6A1346BE
:100F40009B0013449B002E4A1A447B695A617B69BB
:100F5000DA6A2B4913469B0013449B000B441B6821
:100F6000591C274813469B0013449B0003441960F7
:100F70007B69DA6A234B1B68DB6A9A4202D3224BF5
:100F800001221A601C4B1B68002B7FF470AF7B6939
:100F9000002B01D000F092FD1C4B1B68FB60FB682E
:100FA000002B10D000F0BCF80346002B02D0164BEB
:100FB00001221A60FB68013BFB60FB68002BF1D14A
:100FC000124B00221A60104B1B68002B09D0012322
:100FD0003B610F4B4FF080521A60BFF34F8FBFF34E
:100FE0006F8F08F057FD3B6918461837BD4680BD26
:100FF0000CF70020E4F60020A4F60020ECF6002018
:1010000010F600200CF60020F8F60020F4F6002080
:1010100004ED00E080B483B000AF054B1B687B603B
:101020007B6818460C37BD465DF8047B704700BFEF
:10103000E8F6002080B483B000AF00237B60054B4E
:101040001B683B603B6818460C37BD465DF8047B67
:10105000704700BFE8F6002080B400AF034B1B6868
:101060001846BD465DF8047B704700BFE4F60020DB
:1010700080B485B000AF78607B68002B02D1064B4E
:101080001B6800E07B68FB60FB683433184614374C
:10109000BD465DF8047B70470CF6002080B582B039
:1010A00000AF78600E4B1A687B681A440D4B1B68C2
:1010B0009A420BD108F0D5FC0B4B1B6801330A4A4E
:1010C000136008F0E7FC7B68013B7B60044B1A6807
:1010D0007B681344024A136000BF0837BD4680BDD9
:1010E000E8F6002004F70020F4F6002080B584B074
:1010F00000AF7860FFF75AFE08F0B3FC074B1A68A0
:101100007B681344054A136008F0C4FCFFF796FEA1
:10111000F860FB6818461037BD4680BDF4F6002025
:1011200080B588B000AF0023FB61794B1B68002BB2
:1011300040F0E280774B1B680133BB61754ABB69A5
:101140001360BB69002B10D1734B1B687B61734B21
:101150001B68714A1360714A7B691360704B1B688E
:1011600001336F4A136000F0A9FC6E4B1B68BA692B
:101170009A42C0F0A680684B1B681B68002B04D104
:10118000684B4FF0FF321A609BE0634B1B68DB68D3
:10119000DB683B613B695B68FB60BA69FB689A424C
:1011A00003D2604AFB6813608BE03B695B69BB60FC
:1011B0003B699B683A69D2689A603B69DB683A6927
:1011C00092685A60BB685A683B6904339A4203D1FB
:1011D0003B69DA68BB685A603B6900225A61BB68A8
:1011E0001B685A1EBB681A603B699B6A002B1ED0A5
:1011F0003B699B6A7B603B69DB693A69126A9A606A
:101200003B691B6A3A69D2695A607B685A683B69D4
:1012100018339A4203D13B691A6A7B685A603B696A
:1012200000229A627B681B685A1E7B681A603B69C1
:10123000DB6A01229A403C4B1B6813433A4A136015
:101240003B69DA6A394913469B0013449B000B44FF
:1012500004331B683B603B693A689A603B689A6854
:101260003B69DA603B689B683A6904325A603B69C3
:101270001A1D3B689A603B69DA6A13469B00134467
:101280009B002A4A1A443B695A613B69DA6A27493A
:1012900013469B0013449B000B441B68591C2348B6
:1012A00013469B0013449B00034419603B69DA6AB0
:1012B0001F4B1B68DB6A9A427FF65DAF0123FB611F
:1012C00059E71B4B1B68DA6A184913469B00134405
:1012D0009B000B441B68012B01D90123FB61154BBB
:1012E0001B68002B01D11DF051F9134B1B68002B1B
:1012F00009D00123FB6106E00E4B1B6801330D4A48
:1013000013601DF043F9FB6918462037BD4680BDC8
:101310000CF70020E8F600209CF60020A0F6002044
:10132000FCF6002004F70020ECF6002010F6002068
:101330000CF60020F4F60020F8F6002080B586B008
:1013400000AF2F4B1B68002B03D02E4B01221A60DD
:1013500051E02C4B00221A602B4B1B681B6B7B61EE
:101360004FF0A5333B617B691B683A699A4211D102
:101370007B6904331B683A699A420BD17B69083355
:101380001B683A699A4205D17B690C331B683A693C
:101390009A4208D01C4B1A681B4B1B683433194601
:1013A00010461DF0D1F8194B1B687B607B68B3FABF
:1013B00083F3FB70FB78C3F11F03FB60FA681346ED
:1013C0009B0013449B00124A1344BB60BB685B68DC
:1013D0005A68BB685A60BB685A68BB6808339A424F
:1013E00004D1BB685B685A68BB685A60BB685B68BD
:1013F000DB68054A136000BF1837BD4680BD00BFDB
:101400000CF70020F8F600200CF60020ECF6002087
:1014100010F6002080B582B000AF78603960074BCD
:101420001B6818331946786810F0E9FF0121386805
:1014300001F08AF900BF0837BD4680BD0CF60020D8
:1014400080B586B000AFF860B9607A60174B1B6852
:10145000BA6842F000429A61FB685B687B61134B9B
:101460001B687A69DA61114B1B687A6992681A62A3
:101470000E4B1A687B699B6818325A600B4B1B68CD
:1014800003F118027B699A60084B1B68FA689A623C
:10149000FB681B685A1CFB681A600121786801F020
:1014A00053F900BF1837BD4680BD00BF0CF60020C1
:1014B00080B586B000AFF860B9607A60FB685B68A1
:1014C0007B61164B1B687A69DA61144B1B687A6979
:1014D00092681A62114B1A687B699B6818325A60CD
:1014E0000E4B1B6803F118027B699A600B4B1B685B
:1014F000FA689A62FB681B685A1CFB681A607B6872
:10150000002B02D04FF0FF33BB607968B86801F060
:101510001BF900BF1837BD4680BD00BF0CF6002088
:1015200080B588B000AF78607B68DB68DB68BB6142
:10153000BB699B6A7B61BB69DB69BA69126A9A60A5
:10154000BB691B6ABA69D2695A607B695A68BB6910
:1015500018339A4203D1BB691A6A7B695A60BB6926
:1015600000229A627B691B685A1E7B691A604A4B8B
:101570001B68002B60D1BB695B693B61BB699B68E1
:10158000BA69D2689A60BB69DB68BA6992685A60C6
:101590003B695A68BB6904339A4203D1BB69DA6874
:1015A0003B695A60BB6900225A613B691B685A1E3D
:1015B0003B691A60BB69DB6A01229A40374B1B68A2
:1015C0001343364A1360BB69DA6A354913469B00F8
:1015D00013449B000B4404331B68FB60BB69FA682F
:1015E0009A60FB689A68BB69DA60FB689B68BA69B5
:1015F00004325A60BB691A1DFB689A60BB69DA6ADB
:1016000013469B0013449B00254A1A44BB695A6148
:10161000BB69DA6A224913469B0013449B000B44C2
:101620001B68591C1E4813469B0013449B0003442F
:10163000196000F043FA1BE01A4B5B68BB60BB69A2
:10164000BA68DA61BB689A68BB691A62BB689B6852
:10165000BA6918325A60BB6903F11802BB689A6014
:10166000BB69104A9A620F4B1B6801330D4A136025
:10167000BB69DA6A0C4B1B68DB6A9A4205D9012305
:10168000FB610A4B01221A6001E00023FB61FB6948
:1016900018462037BD4680BD0CF70020ECF6002030
:1016A00010F60020A4F600200CF60020F8F600202A
:1016B00080B586B000AF786039603B6843F0004287
:1016C0007B681A607B68DB687B617B681B693B61B8
:1016D0007B685B687A6892689A607B689B687A68C6
:1016E00052685A603B695B687A689A4203D17B68AA
:1016F0009A683B695A607B6800221A613B691B68E3
:101700005A1E3B691A6000F0D9F97B695B69FB607E
:101710007B699B687A69D2689A607B69DB687A69C1
:1017200092685A60FB685A687B6904339A4203D115
:101730007B69DA68FB685A607B6900225A61FB6842
:101740001B685A1EFB681A607B69DB6A01229A409B
:10175000244B1B681343234A13607B69DA6A2249CE
:1017600013469B0013449B000B4404331B68BB606F
:101770007B69BA689A60BB689A687B69DA60BB6803
:101780009B687A6904325A607B691A1DBB689A604B
:101790007B69DA6A13469B0013449B00124A1A4481
:1017A0007B695A617B69DA6A0F4913469B001344CF
:1017B0009B000B441B68591C0B4813469B001344A9
:1017C0009B00034419607B69DA6A084B1B68DB6A7B
:1017D0009A4202D9064B01221A6000BF1837BD4653
:1017E00080BD00BFECF6002010F600200CF60020B3
:1017F000F8F6002080B582B000AF786008F031F9CB
:10180000064B1A687B681A60054B1A687B685A6039
:1018100008F040F900BF0837BD4680BDFCF6002047
:10182000E8F6002080B483B000AF7860064B1A68F9
:101830007B681A60054B1A687B685A6000BF0C37DA
:10184000BD465DF8047B7047FCF60020E8F60020FA
:1018500080B586B000AF7860396008F002F91F4BA0
:101860001B683B617B685B683A69D31AFB603B6825
:101870001B68B3F1FF3F02D100237B6126E07B6848
:101880001A68174B1B689A420AD07B685B683A69F2
:101890009A4205D301237B613B6800221A6015E060
:1018A0003B681B68FA689A420BD23B681A68FB686F
:1018B000D21A3B681A607868FFF7B4FF00237B6197
:1018C00004E03B6800221A6001237B6108F0E2F823
:1018D0007B6918461837BD4680BD00BFE8F600207A
:1018E000FCF6002080B400AF034B01221A6000BF59
:1018F000BD465DF8047B7047F8F6002080B584B0E3
:1019000000AF786000F09EF8104B1B68012B07D9E0
:101910000F4B4FF080521A60BFF34F8FBFF36F8FA2
:101920001CF02EFEFFF750FAF860FB68042BE9D993
:10193000FFF73CFAFFF748FAF860FB68042B02D97E
:10194000F86808F019F9FFF779FADBE710F60020DC
:1019500004ED00E080B483B000AF01233B600123BD
:10196000FB71134B1B68002B02D00023FB7117E0A7
:10197000104B1B68002B02D00023FB7110E00E4BB4
:101980001B68002B02D00023FB7109E00B4B1A6887
:101990000B4B19683B68CB1A9A4201D10223FB71A9
:1019A000FB7918460C37BD465DF8047B704700BFD5
:1019B000A4F60020F8F60020F4F60020D0F600206F
:1019C000E4F6002080B582B000AF00237B600CE01D
:1019D0007A6813469B0013449B00124A134418462E
:1019E00010F0BCFC7B6801337B607B68042BEFD973
:1019F0000D4810F0B3FC0D4810F0B0FC0C4810F08E
:101A0000ADFC0C4810F0AAFC0B4810F0A7FC0B4BE7
:101A1000054A1A600A4B054A1A6000BF0837BD46DE
:101A200080BD00BF10F6002074F6002088F600206C
:101A3000A4F60020B8F60020D0F600209CF6002086
:101A4000A0F6002080B582B000AF19E008F009F8D8
:101A50000F4BDB68DB687B607B680433184610F053
:101A600007FD0C4B1B68013B0A4A13600A4B1B68BD
:101A7000013B094A136008F00DF8786800F00EF891
:101A8000054B1B68002BE1D100BF0837BD4680BD68
:101A9000B8F60020E4F60020CCF6002080B582B035
:101AA00000AF78607B681B6B184614F077FC786891
:101AB00014F074FC00BF0837BD4680BD80B400AF91
:101AC0000A4B1B681B68002B04D1094B4FF0FF32F7
:101AD0001A6005E0054B1B68DB681B68044A13604D
:101AE00000BFBD465DF8047B704700BF9CF6002038
:101AF00004F7002080B483B000AF054B1B687B6007
:101B00007B6818460C37BD465DF8047B704700BF04
:101B10000CF6002080B483B000AF0B4B1B68002B89
:101B200002D101237B6008E0084B1B68002B02D127
:101B300002237B6001E000237B607B6818460C3742
:101B4000BD465DF8047B7047F0F600200CF70020DE
:101B500080B586B000AF78607B683B6100237B6115
:101B60007B68002B00F087803B69DA6A444B1B6876
:101B7000DB6A9A4276D23B699B69002B06DB404BBD
:101B80001B68DB6AC3F105023B699A613B695969CD
:101B90003B69DA6A13469B0013449B00394A13449D
:101BA000994257D13B690433184610F061FC034653
:101BB000002B0AD13B69DB6A012202FA03F3DA4304
:101BC000314B1B681340304A13602D4B1B68DA6A97
:101BD0003B69DA623B69DB6A01229A402A4B1B6847
:101BE0001343294A13603B69DA6A264913469B006E
:101BF00013449B000B4404331B68FB603B69FA6889
:101C00009A60FB689A683B69DA60FB689B683A698E
:101C100004325A603B691A1DFB689A603B69DA6AB4
:101C200013469B0013449B00164A1A443B695A61B1
:101C30003B69DA6A134913469B0013449B000B442B
:101C40001B68591C0F4813469B0013449B00034418
:101C5000196004E00A4B1B68DA6A3B69DA62012307
:101C60007B6108E03B695A6C054B1B68DB6A9A4252
:101C700001D201237B617B6918461837BD4680BDC0
:101C80000CF6002010F60020ECF6002080B586B09F
:101C900000AF78607B683B6100237B617B68002B31
:101CA0006CD03B699B6C5A1E3B699A643B69DA6A4B
:101CB0003B695B6C9A4261D03B699B6C002B5DD1A8
:101CC0003B690433184610F0D3FB0346002B0AD1BE
:101CD0003B69DB6A012202FA03F3DA432A4B1B68F1
:101CE0001340294A13603B695A6C3B69DA623B69CD
:101CF000DB6AC3F105023B699A613B69DB6A012239
:101D00009A40214B1B6813431F4A13603B69DA6AF0
:101D10001E4913469B0013449B000B4404331B686D
:101D2000FB603B69FA689A60FB689A683B69DA6015
:101D3000FB689B683A6904325A603B691A1DFB686C
:101D40009A603B69DA6A13469B0013449B000F4A72
:101D50001A443B695A613B69DA6A0C4913469B0095
:101D600013449B000B441B68591C084813469B00F6
:101D700013449B000344196001237B617B6918466F
:101D80001837BD4680BD00BFECF6002010F60020DD
:101D900080B588B000AF786039607B68BB61012393
:101DA0007B617B68002B00F08180BB695B6C3A68CB
:101DB0009A4202D93B68FB6102E0BB695B6CFB6144
:101DC000BB69DB6AFA699A4270D0BB699B6C7A691D
:101DD0009A426BD1BB69DB6A3B61BB69FA69DA6223
:101DE000BB699B69002B04DBFB69C3F10502BB697E
:101DF0009A61BB6959693A6913469B0013449B0079
:101E00002C4A1344994251D1BB690433184610F04F
:101E10002FFB0346002B0AD1BB69DB6A012202FAC1
:101E200003F3DA43244B1B681340234A1360BB6956
:101E3000DB6A01229A40204B1B6813431E4A136041
:101E4000BB69DA6A1B4913469B0013449B000B4491
:101E500004331B68FB60BB69FA689A60FB689A6888
:101E6000BB69DA60FB689B68BA6904325A60BB6977
:101E70001A1DFB689A60BB69DA6A13469B0013441B
:101E80009B000C4A1A44BB695A61BB69DA6A09496A
:101E900013469B0013449B000B441B68591C0548C8
:101EA00013469B0013449B000344196000BF203776
:101EB000BD4680BD10F60020ECF6002080B483B053
:101EC00000AF094B1B689B697B60074B1B68DA6A94
:101ED000054B1B68C2F105029A617B6818460C37F6
:101EE000BD465DF8047B70470CF6002080B400AF5F
:101EF000074B1B68002B04D0054B1B689A6C013202
:101F00009A64034B1B681846BD465DF8047B704716
:101F10000CF6002080B586B000AFF860B9607A603A
:101F200007F09FFD284B1A68FB6812339B0013448F
:101F30005B68002B15D1244B1A68FB68134450339F
:101F400001221A707B68002B0BD00121786800F009
:101F5000FBFB1E4B4FF080521A60BFF34F8FBFF355
:101F60006F8F07F097FD07F07CFD174B1A68FB6831
:101F700012339B0013445B687B617B69002B14D098
:101F8000BB68002B08D0104B1A68FB6812339B000B
:101F9000134400225A6008E00B4B19687B695A1EF3
:101FA000FB6812339B000B445A60074B1A68FB68AE
:101FB0001344503300221A7007F06CFD7B691846F9
:101FC0001837BD4680BD00BF0CF6002004ED00E0D0
:101FD00080B586B000AFF860B9607A603B6007F00A
:101FE00040FD344B1A68FB68134450331B78DBB256
:101FF000022B24D02F4B1A68FB6812339B0013442A
:102000005968BB68DB431940FB6812339B001344DB
:102010005960284B1A68FB681344503301221A7028
:102020003B6A002B0BD00121386A00F08DFB224B5C
:102030004FF080521A60BFF34F8FBFF36F8F07F0DE
:1020400029FD07F00EFD3B68002B08D0194B1A68DC
:10205000FB6812339B0013445A683B681A60154BA7
:102060001A68FB68134450331B78DBB2022B02D092
:1020700000237B6110E00F4B1A68FB6812339B0052
:10208000134459687B68DB431940FB6812339B009B
:102090001344596001237B61064B1A68FB681344A3
:1020A000503300221A7007F0F5FC7B691846183788
:1020B000BD4680BD0CF6002004ED00E080B58AB07E
:1020C00000AFF860B9607A60FB7001237B62FB6847
:1020D0003B6207F0C6FC3B6B002B07D03A6ABB683B
:1020E00012339B0013445A683B6B1A603A6ABB6810
:1020F000134450331B78FB773A6ABB681344503360
:1021000002221A70FB78042B3FD801A252F823F068
:102110008B21000125210001432100015F210001E5
:102120006F2100013A6ABB6812339B0013445A685E
:102130007B681A43396ABB6812339B000B445A60B0
:1021400024E03A6ABB6812339B0013445B685A1C54
:10215000396ABB6812339B000B445A6016E03A6A36
:10216000BB6812339B0013447A685A600EE0FB7F11
:10217000022B07D03A6ABB6812339B0013447A687B
:102180005A6003E000237B6200E000BFFB7F012B6D
:102190006ED13B6A5B69BB613B6A9B683A6AD268F5
:1021A0009A603B6ADB683A6A92685A60BB695A680F
:1021B0003B6A04339A4203D13B6ADA68BB695A60CE
:1021C0003B6A00225A61BB691B685A1EBB691A60D0
:1021D0003B6ADB6A01229A40294B1B681343284A59
:1021E00013603B6ADA6A274913469B0013449B003D
:1021F0000B4404331B687B613B6A7A699A607B6994
:102200009A683B6ADA607B699B683A6A04325A6072
:102210003B6A1A1D7B699A603B6ADA6A13469B0027
:1022200013449B00174A1A443B6A5A613B6ADA6AB4
:10223000144913469B0013449B000B441B68591C14
:10224000104813469B0013449B0003441960FFF79A
:1022500035FC3B6ADA6A0C4B1B68DB6A9A4207D989
:102260000A4B4FF080521A60BFF34F8FBFF36F8F4E
:1022700007F010FC7B6A18462837BD4680BD00BFBA
:10228000ECF6002010F600200CF6002004ED00E033
:1022900080B48FB000AFF860B9607A60FB70012342
:1022A0007B63FB683B63EFF311824FF0200383F302
:1022B0001188BFF36F8FBFF34F8FBA617B61BB692A
:1022C000FB623B6C002B07D03A6BBB6812339B0060
:1022D00013445A683B6C1A603A6BBB681344503322
:1022E0001B7887F82B303A6BBB68134450330222BB
:1022F0001A70FB78042B41D801A252F823F000BFDA
:102300007D23000115230001332300014F23000129
:102310005F2300013A6BBB6812339B0013445A6879
:102320007B681A43396BBB6812339B000B445A60BD
:1023300025E03A6BBB6812339B0013445B685A1C60
:10234000396BBB6812339B000B445A6017E03A6B41
:10235000BB6812339B0013447A685A600FE097F809
:102360002B30022B07D03A6BBB6812339B0013440F
:102370007A685A6003E000237B6300E000BF97F8AF
:102380002B30012B40F08F804D4B1B68002B5ED112
:102390003B6B5B697B623B6B9B683A6BD2689A6074
:1023A0003B6BDB683A6B92685A607B6A5A683B6B9E
:1023B00004339A4203D13B6BDA687B6A5A603B6B09
:1023C00000225A617B6A1B685A1E7B6A1A603B6B4B
:1023D000DB6A01229A403B4B1B681343394A136066
:1023E0003B6BDA6A384913469B0013449B000B444D
:1023F00004331B683B623B6B3A6A9A603B6A9A689B
:102400003B6BDA603B6A9B683A6B04325A603B6B09
:102410001A1D3B6A9A603B6BDA6A13469B001344B1
:102420009B00294A1A443B6B5A613B6BDA6A264986
:1024300013469B0013449B000B441B68591C224805
:1024400013469B0013449B00034419601BE01F4B81
:102450005B68FB613B6BFA69DA61FB699A683B6B0D
:102460001A62FB699B683A6B18325A603B6B03F146
:102470001802FB699A603B6B144A9A62134B1B6803
:102480000133124A13603B6BDA6A114B1B68DB6A3B
:102490009A4208D97B6C002B02D07B6C01221A6017
:1024A0000C4B01221A60FB6A3B613B6983F3118884
:1024B0007B6B18463C37BD465DF8047B704700BF18
:1024C0000CF70020ECF6002010F60020A4F6002007
:1024D0000CF60020F8F6002080B48FB000AFF86052
:1024E000B9607A60FB687B63EFF311824FF02003E1
:1024F00083F31188BFF36F8FBFF34F8FFA61BB6116
:10250000FB693B637A6BBB68134450331B7887F8D5
:102510002F307A6BBB681344503302221A707A6BE7
:10252000BB6812339B0013445B685A1C796BBB6811
:1025300012339B000B445A6097F82F30012B40F068
:102540008F804D4B1B68002B5ED17B6B5B69BB6240
:102550007B6B9B687A6BD2689A607B6BDB687A6B6B
:1025600092685A60BB6A5A687B6B04339A4203D103
:102570007B6BDA68BB6A5A607B6B00225A61BB6A6C
:102580001B685A1EBB6A1A607B6BDB6A01229A4089
:102590003A4B1B681343394A13607B6BDA6A38493C
:1025A00013469B0013449B000B4404331B687B625F
:1025B0007B6B7A6A9A607B6A9A687B6BDA607B6A6B
:1025C0009B687A6B04325A607B6B1A1D7B6A9A6037
:1025D0007B6BDA6A13469B0013449B00284A1A441B
:1025E0007B6B5A617B6BDA6A254913469B00134467
:1025F0009B000B441B68591C214813469B00134445
:102600009B00034419601BE01E4B5B683B627B6BC5
:102610003A6ADA613B6A9A687B6B1A623B6A9B682A
:102620007A6B18325A607B6B03F118023B6A9A602E
:102630007B6B144A9A62134B1B680133114A136077
:102640007B6BDA6A104B1B68DB6A9A4208D97B689D
:10265000002B02D07B6801221A600C4B01221A6009
:102660003B6B7B617B6983F3118800BF3C37BD46C0
:102670005DF8047B704700BF0CF70020ECF60020EB
:1026800010F60020A4F600200CF60020F8F600203A
:1026900080B584B000AF786039607B68002B02D1D0
:1026A000104B1B6800E07B68BB6007F0DAF9BA6882
:1026B0003B68134450331B78DBB2022B08D1BA6855
:1026C0003B681344503300221A700123FB6001E081
:1026D0000023FB6007F0DEF9FB6818461037BD46A3
:1026E00080BD00BF0CF6002080B586B000AFF8605A
:1026F000B9607A60FB68002B02D1124B1B6800E0C6
:10270000FB687B6107F0ADF97A69BB6812339B0007
:1027100013445B683B617A69BB6812339B001344C6
:102720005A687B68DB431A407969BB6812339B00A7
:102730000B445A6007F0AEF93B6918461837BD469E
:1027400080BD00BF0CF6002080B586B000AF786079
:102750003960364B1B687B61354B1B680433184668
:102760000FF086FE0346002B0BD1314B1B68DB6A52
:10277000012202FA03F3DA432E4B1B6813402D4A61
:1027800013607B68B3F1FF3F24D13B68002B21D05D
:10279000294B5B683B61264B1B683A699A60244B66
:1027A0001B683A699268DA60214B1A683B699B683A
:1027B00004325A601E4B1B681A1D3B699A601C4B01
:1027C0001B681D4A5A611C4B1B6801331A4A13606F
:1027D00000BF26E07A697B681344FB60144B1B68DA
:1027E000FA685A60FA687B699A4209D2134B1A68F0
:1027F0000F4B1B680433194610460FF000FE10E023
:102800000F4B1A680A4B1B680433194610460FF029
:10281000F6FD0C4B1B68FA689A4202D2094AFB6823
:10282000136000BF1837BD4680BD00BFE8F600202A
:102830000CF60020ECF60020D0F60020A0F60020D8
:102840009CF6002004F7002080B584B000AF7860CB
:1028500039600123FB607B68BB60BB68002B5DD0E7
:10286000BB68DB6B002B59D0BB681A6CBB68DB6B99
:102870000021A3FB0223002B00D001210B46002BDB
:102880004CD107F0EEF8BB681A68BB68DB6BB9681F
:10289000096C01FB03F31A44BB689A60BB68002211
:1028A0009A63BB681A68BB685A60BB681A68BB68E1
:1028B000DB6B013BB968096C01FB03F31A44BB688D
:1028C000DA60BB68FF2283F84420BB68FF2283F8EC
:1028D00045203B68002B14D1BB681B69002B1AD024
:1028E000BB6810331846FEF71BFE0346002B12D0C0
:1028F0000E4B4FF080521A60BFF34F8FBFF36F8FB4
:1029000009E0BB68103318460FF028FDBB6824337C
:1029100018460FF023FD07F0BDF801E00023FB602F
:10292000FB6818461037BD4680BD00BF04ED00E0CF
:1029300080B58AB002AFF860B9601346FB7100231E
:10294000FB61FB68002B2DD00021BA68FB68A3FB5C
:102950000223002B00D001210B46002B22D1FB6863
:10296000BA6802FB03F313F14D0F1BD8FB68BA687A
:1029700002FB03F3BB61BB694C33184613F0B6FC92
:10298000F861FB69002B0DD0FB697B617B694C33DF
:102990007B61FA79FB69009313467A69B968F86834
:1029A00000F005F8FB6918462037BD4680BD80B5AC
:1029B00084B000AFF860B9607A60FB70BB68002B30
:1029C00003D1BB69BA691A6002E0BB697A681A6010
:1029D000BB69FA68DA63BB69BA681A640121B8692D
:1029E000FFF732FFBB6900229A6400BF1037BD4673
:1029F00080BD80B582B000AF78607B68002B0ED0C0
:102A00007B6800229A607B6800221A607B68002243
:102A1000DA60002300220021786800F03BF800BF54
:102A20000837BD4680BD80B586B000AF0346FB7158
:102A300001237B6100233B61FB791A463969786980
:102A4000FFF776FFF860F868FFF7D3FFFB681846DA
:102A50001837BD4680BD80B584B000AF786039605E
:102A60000023FB607B68002B0FD03A687B689A429A
:102A70000BD8022200217868FFF75AFFF860FB6844
:102A8000002B02D0FB683A689A63FB68184610373F
:102A9000BD4680BD80B58AB000AFF860B9607A608D
:102AA0003B6000237B62FB683B6206F0DAFF3B6A17
:102AB0009A6B3B6ADB6B9A4202D33B68022B45D18F
:102AC0003B6A9B6BFB613A68B968386A00F08AFC24
:102AD000B8613B6A9B6C002B14D03B68022B02D17F
:102AE000FB69002B2ED1386A00F074FE0346002BE0
:102AF00028D04A4B4FF080521A60BFF34F8FBFF37C
:102B00006F8F1FE03B6A5B6A002B10D03B6A243357
:102B10001846FEF705FD0346002B13D03F4B4FF040
:102B200080521A60BFF34F8FBFF36F8F0AE0BB690B
:102B3000002B07D0394B4FF080521A60BFF34F8FF4
:102B4000BFF36F8F06F0A6FF012363E07B68002BC5
:102B500003D106F09FFF00235CE07B6A002B06D1C7
:102B600007F110031846FEF75DFE01237B6206F0B5
:102B700091FFFEF71BF906F074FF3B6A93F84430AF
:102B80005BB2B3F1FF3F03D13B6A002283F84420DC
:102B90003B6A93F845305BB2B3F1FF3F03D13B6A28
:102BA000002283F8452006F075FF3A1D07F1100357
:102BB00011461846FEF74CFE0346002B24D1386A16
:102BC00000F02BFD0346002B18D03B6A10337A68C7
:102BD00011461846FEF71EFC386A00F093FCFEF71B
:102BE0002DF90346002B7FF460AF0C4B4FF0805261
:102BF0001A60BFF34F8FBFF36F8F56E7386A00F04C
:102C000081FCFEF71BF950E7386A00F07BFCFEF709
:102C100015F9002318462837BD4680BD04ED00E0B5
:102C200080B58EB000AFF860B9607A603B60FB6839
:102C30003B63EFF311824FF0200383F31188BFF35E
:102C40006F8FBFF34F8FFA61BB61FB69FB623B6B18
:102C50009A6B3B6BDB6B9A4202D33B68022B4ED1E3
:102C60003B6B93F8453087F82B303B6B9B6B7B625B
:102C70003A68B968386B00F0B5FB97F92B30B3F1BF
:102C8000FF3F29D13B6B9B6C002B12D03B68022B82
:102C900002D17B6A002B2FD1386B00F09BFD0346DD
:102CA000002B29D07B68002B26D07B6801221A607C
:102CB00022E03B6B5B6A002B1ED03B6B2433184633
:102CC000FEF72EFC0346002B16D07B68002B13D09A
:102CD0007B6801221A600FE0FEF7BEF9386297F9AF
:102CE0002B303A6A9A4207D997F82B300133DBB27E
:102CF0005AB23B6B83F8452001237B6301E000233C
:102D00007B63FB6A7B617B6983F311887B6B18466D
:102D10003837BD4680BD80B58CB000AF7860396073
:102D20007B68BB62EFF311824FF0200383F31188BD
:102D3000BFF36F8FBFF34F8F7A613B617B697B621B
:102D4000BB6A9B6B3B62BB6ADB6B3A6A9A4242D2BC
:102D5000BB6A93F84530FB773B6A5A1CBB6A9A639F
:102D600097F91F30B3F1FF3F23D1BB6A9B6C002B57
:102D70000CD0B86A00F02EFD0346002B28D03B682B
:102D8000002B25D03B6801221A6021E0BB6A5B6AF8
:102D9000002B1DD0BB6A24331846FEF7C1FB034647
:102DA000002B15D03B68002B12D03B6801221A6023
:102DB0000EE0FEF751F9B86197F91F30BA699A42EF
:102DC00006D9FB7F0133DBB25AB2BB6A83F84520D8
:102DD0000123FB6201E00023FB627B6AFB60FB686E
:102DE00083F31188FB6A18463037BD4680BD80B535
:102DF0008AB000AFF860B9607A6000237B62FB683C
:102E00003B6206F02EFE3B6A9B6BFB61FB69002B6D
:102E10001FD0B968386A00F04FFBFB695A1E3B6A45
:102E20009A633B6A1B69002B0FD03B6A103318462C
:102E3000FEF776FB0346002B07D03D4B4FF0805248
:102E40001A60BFF34F8FBFF36F8F06F023FE01238D
:102E500069E07B68002B03D106F01CFE002362E0D2
:102E60007B6A002B06D107F114031846FEF7DAFC43
:102E700001237B6206F00EFEFDF798FF06F0F1FDE0
:102E80003B6A93F844305BB2B3F1FF3F03D13B6A36
:102E9000002283F844203B6A93F845305BB2B3F1DB
:102EA000FF3F03D13B6A002283F8452006F0F2FD84
:102EB0003A1D07F1140311461846FEF7C9FC0346F4
:102EC000002B23D1386A00F07CFB0346002B17D07F
:102ED0003B6A24337A6811461846FEF79BFA386A33
:102EE00000F010FBFDF7AAFF0346002B89D1104B21
:102EF0004FF080521A60BFF34F8FBFF36F8F80E7A0
:102F0000386A00F0FFFAFDF799FF7AE7386A00F0B7
:102F1000F9FAFDF793FF386A00F053FB0346002BE4
:102F20003FF46FAF002318462837BD4680BD00BF71
:102F300004ED00E080B58AB000AF7860396000230E
:102F40007B627B68FB6100233B6206F08AFDFB69C4
:102F50009B6BBB61BB69002B24D0BB695A1EFB690C
:102F60009A63FB691B68002B04D1FEF7BFFF024682
:102F7000FB699A60FB691B69002B0FD0FB6910335A
:102F80001846FEF7CDFA0346002B07D04C4B4FF006
:102F900080521A60BFF34F8FBFF36F8F06F07AFD38
:102FA000012389E03B68002B03D106F073FD002369
:102FB00082E07B6A002B06D107F10C031846FEF76E
:102FC00031FC01237B6206F065FDFDF7EFFE06F0A4
:102FD00048FDFB6993F844305BB2B3F1FF3F03D186
:102FE000FB69002283F84420FB6993F845305BB20B
:102FF000B3F1FF3F03D1FB69002283F8452006F0BF
:1030000049FD3A4607F10C0311461846FEF720FC2D
:103010000346002B32D1F86900F0D3FA0346002BA7
:1030200026D0FB691B68002B09D106F01AFDFB694D
:103030009B681846FEF78CFD386206F02BFDFB6995
:1030400024333A6811461846FEF7E4F9F86900F0AF
:1030500059FAFDF7F3FE0346002B7FF476AF184BC9
:103060004FF080521A60BFF34F8FBFF36F8F6CE742
:10307000F86900F047FAFDF7E1FE66E7F86900F04D
:1030800041FAFDF7DBFEF86900F09BFA0346002BDE
:103090003FF45BAF3B6A002B0DD006F0E2FCF86911
:1030A00000F088F97861FB699B6879691846FEF73A
:1030B0006FFE06F0EFFC002318462837BD4680BDA2
:1030C00004ED00E080B58AB000AFF860B9607A60C6
:1030D00000237B62FB683B6206F0C3FC3B6A9B6B90
:1030E000FB61FB69002B21D03B6ADB68BB61B968DF
:1030F000386A00F0E1F93B6ABA69DA603B6A5B6AF8
:10310000002B0FD03B6A24331846FEF709FA03461A
:10311000002B07D03C4B4FF080521A60BFF34F8F0B
:10312000BFF36F8F06F0B6FC012369E07B68002BCC
:1031300003D106F0AFFC002362E07B6A002B06D1CE
:1031400007F110031846FEF76DFB01237B6206F0C2
:10315000A1FCFDF72BFE06F084FC3B6A93F844309B
:103160005BB2B3F1FF3F03D13B6A002283F84420F6
:103170003B6A93F845305BB2B3F1FF3F03D13B6A42
:10318000002283F8452006F085FC3A1D07F1100364
:1031900011461846FEF75CFB0346002B23D1386A24
:1031A00000F00FFA0346002B17D03B6A24337A68ED
:1031B00011461846FEF72EF9386A00F0A3F9FDF71C
:1031C0003DFE0346002B87D10F4B4FF080521A6013
:1031D000BFF34F8FBFF36F8F7EE7386A00F092F92D
:1031E000FDF72CFE78E7386A00F08CF9FDF726FE33
:1031F000386A00F0E6F90346002B3FF46DAF002378
:1032000018462837BD4680BD04ED00E080B58EB07D
:1032100000AFF860B9607A60FB683B63EFF311823E
:103220004FF0200383F31188BFF36F8FBFF34F8FED
:10323000FA61BB61FB69FB623B6B9B6BBB62BB6A68
:10324000002B37D03B6B93F8443087F82730B968B0
:10325000386B00F031F9BB6A5A1E3B6B9A6397F9E1
:103260002730B3F1FF3F12D13B6B1B69002B1ED0FF
:103270003B6B10331846FEF753F90346002B16D06C
:103280007B68002B13D07B6801221A600FE0FDF7EA
:10329000E3FE386297F927303A6A9A4207D997F8DD
:1032A00027300133DBB25AB23B6B83F84420012351
:1032B0007B6301E000237B63FB6A7B617B6983F3B3
:1032C00011887B6B18463837BD4680BD80B58AB003
:1032D00000AF786039607B683B62EFF311824FF09A
:1032E000200383F31188BFF36F8FBFF34F8F7A6191
:1032F0003B617B69FB613B6A9B6B002B0CD03B6A9B
:10330000DB68BB613968386A00F0D6F83B6ABA6995
:10331000DA6001237B6201E000237B62FB69FB60D2
:10332000FB6883F311887B6A18462837BD4680BD49
:1033300080B584B000AF786006F093FB7B689B6B30
:10334000FB6006F0A7FBFB6818461037BD4680BD42
:1033500080B584B000AF78607B68FB6006F081FBCD
:10336000FB68DA6BFB689B6BD31ABB6006F092FBC1
:10337000BB6818461037BD4680BD80B485B000AF2D
:1033800078607B68FB60FB689B6BBB60BB68184622
:103390001437BD465DF8047B704780B584B000AF3C
:1033A00078607B68FB60F86812F0F8FF00BF1037A8
:1033B000BD4680BD80B485B000AF78607B685B6A35
:1033C000002B06D07B681B6B1B68C3F10503FB60F9
:1033D00001E00023FB60FB6818461437BD465DF82A
:1033E000047B704780B586B000AFF860B9607A6042
:1033F00000237B61FB689B6B3B61FB681B6C002BB4
:103400000DD1FB681B68002B4DD1FB689B681846EB
:10341000FEF73CFC7861FB6800229A6043E07B6821
:10342000002B19D1FB685868FB681B6C1A46B968F9
:1034300026F002FEFB685A68FB681B6C1A44FB68A6
:103440005A60FB685A68FB689B689A422BD3FB68FA
:103450001A68FB685A6026E0FB68D868FB681B6C3A
:103460001A46B96826F0E8FDFB68DA68FB681B6C51
:103470005B421A44FB68DA60FB68DA68FB681B6829
:103480009A4207D2FB689A68FB681B6C5B421A443D
:10349000FB68DA607B68022B05D13B69002B02D008
:1034A0003B69013B3B613B695A1CFB689A637B6942
:1034B00018461837BD4680BD80B582B000AF786031
:1034C00039607B681B6C002B18D07B68DA687B68DE
:1034D0001B6C1A447B68DA607B68DA687B689B68DF
:1034E0009A4203D37B681A687B68DA607B68D96884
:1034F0007B681B6C1A46386826F09EFD00BF0837B3
:10350000BD4680BD80B584B000AF786006F0A9FAF2
:103510007B6893F84530FB731EE07B689B6C002B47
:1035200008D0786800F056F90346002B10D0FEF75B
:10353000D9F90DE07B685B6A002B12D07B682433DD
:103540001846FDF7EDFF0346002B01D0FEF7CAF940
:10355000FB7B013BDBB2FB7397F90F30002BDCDC0C
:1035600000E000BF7B68FF2283F8452006F092FA56
:1035700006F077FA7B6893F84430BB7311E07B6800
:103580001B69002B12D07B6810331846FDF7C8FF6B
:103590000346002B01D0FEF7A5F9BB7B013BDBB254
:1035A000BB7397F90E30002BE9DC00E000BF7B68AD
:1035B000FF2283F8442006F06DFA00BF1037BD46A5
:1035C00080BD80B584B000AF786006F04AFA7B68B1
:1035D0009B6B002B02D10123FB6001E00023FB6009
:1035E00006F058FAFB6818461037BD4680BD80B417
:1035F00085B000AF78607B68BB60BB689B6B002BBD
:1036000002D10123FB6001E00023FB60FB68184648
:103610001437BD465DF8047B704780B584B000AFB9
:10362000786006F01EFA7B689A6B7B68DB6B9A42C7
:1036300002D10123FB6001E00023FB6006F02AFABF
:10364000FB6818461037BD4680BD80B485B000AF1A
:1036500078607B68BB60BB689A6BBB68DB6B9A4227
:1036600002D10123FB6001E00023FB60FB681846E8
:103670001437BD465DF8047B704780B586B000AF57
:10368000F860B9607A60FB687B6106F0EAF97B69F3
:1036900093F844305BB2B3F1FF3F03D17B69002262
:1036A00083F844207B6993F845305BB2B3F1FF3F68
:1036B00003D17B69002283F8452006F0EBF97B6992
:1036C0009B6B002B06D17B6924337A68B968184656
:1036D000FDF7EEFE7869FFF715FF00BF1837BD460E
:1036E00080BD80B584B000AF786000220421786886
:1036F000FFF71EF9F860FB6818461037BD4680BD1D
:1037000080B584B000AF7860396006F0AAF97B68B4
:103710009B6C002B02D00023FB600BE07B689B6B53
:10372000002B02D00023FB6004E07B683A689A64B7
:103730000123FB6006F0AEF9FB6818461037BD4662
:1037400080BD80B584B000AF786039607B68BB60B5
:10375000BB689B6C3A689A4202D00023FB600FE082
:10376000BB689B6B002B02D00023FB6008E006F0D7
:1037700078F9BB6800229A6406F08CF90123FB609B
:10378000FB6818461037BD4680BD80B584B000AFD9
:10379000786039600023FB6007F10C033A68194632
:1037A0007868FFF724FBFB6818461037BD4680BDDC
:1037B00080B584B000AF78600023FB6007F10C0394
:1037C000002219467868FFF721FDFB68184610377C
:1037D000BD4680BD80B586B000AF78607B689B6CCD
:1037E0003B6100237B613B699A6B3B69DB6B9A42CF
:1037F0002DD23B6993F84530FB733B1D00221946DF
:103800003869FFF7EFFD786197F90F30B3F1FF3FAB
:103810000ED13B695B6A002B19D03B6924331846F3
:10382000FDF77EFE0346002B11D001237B610EE0E5
:10383000FDF712FCB86097F90F30BA689A4206D9C2
:10384000FB7B0133DBB25AB23B6983F845207B69CD
:1038500018461837BD4680BD08B5044B186818B126
:10386000804780F00100C0B208BD00BFF4F1002025
:1038700009B91046704780B1037883EA122383EABE
:10388000131343EA022282EA033282EA431292B21B
:1038900000B10130013989B2EAE7FF23EDE72DE9F4
:1038A000F04F85B081460E9E8A46904606B11E4472
:1038B00043449CB247465546A74203D1012005B078
:1038C000BDE8F08F95B36A4610232946484608F0B4
:1038D00017FFBDF80420944208D9BDF80630134400
:1038E0009BB29F4202D29C4203D91F46BDF80A50A8
:1038F000E8E79742A4EB020128BFE31B89B234BF7B
:103900000B469BB2A4EB030432BFBDF80AB0474696
:10391000D346A4B246B110352944F61AC91A324624
:1039200089B2484608F0ECFE5D46C5E72846C6E782
:103930002DE9F74FD4889688DFF8588082468B4669
:1039400044F307254FF6FF77002D03DA384603B01E
:10395000BDE8F08F1AD0A4F580741FFA84F94FF4F3
:103960008074CDF800802346324659465046FFF712
:1039700096FF38B13A4621464046FFF779FF264484
:10398000B6B20746013D6DB24C46DDE7002CDDD0F6
:10399000A146E6E7F8F1002010B5094C94F80401BF
:1039A00008F04CFF4FF40052002194F8040108F095
:1039B0006FFF18B14FF48073A4F8063110BD00BF3B
:1039C000F4F100202DE9F041094C05460E4617465A
:1039D00013460A46014694F8040108F0C7FE3B4628
:1039E0003246294694F80401BDE8F04108F09EBF34
:1039F000F4F1002003292CD8DFE801F002091B2391
:103A0000184BB3F806211044A3F806017047154A75
:103A1000B2F80631184480B2C11C4FF6FC730B405B
:103A2000984203D90430A2F806017047A2F8063183
:103A300070470C4AB2F806310F33184420F00F00DB
:103A4000F1E7084AB2F806313F33184420F03F004E
:103A5000E9E74FF0200383F31188BFF36F8FBFF3C3
:103A60004F8FFEE7F4F100204FF0200383F311881D
:103A7000BFF36F8FBFF34F8FFEE770B50C4A92F81C
:103A800008410023D9B28C4201D800200BE05D1C14
:103A90009B00D118B1F80961864207D1B1F80B211A
:103AA00012B10448184470BDFFF7DEFF2B46E9E76A
:103AB000F4F10020FDF2002008B5FFF7DEFF00B1B1
:103AC000408808BD10B50446FFF7D7FF40B14FF05E
:103AD000200383F31188BFF36F8FBFF34F8FFEE78F
:103AE000094B93F80801020601D5FFF7BDFF421C00
:103AF00083F8082103EB800203F20913A2F80941BD
:103B000003EB800010BD00BFF4F1002008B5FFF703
:103B1000B4FF08B9FFF7A8FF064A92F80831013B45
:103B2000DBB282F8083102EB8303D3F8093103607A
:103B300008BD00BFF4F100202DE9F041244CB4F899
:103B40000A33B4F80C6303449BB204F20E37FF2B24
:103B50000546A4F80A3307EB060004F104080AD866
:103B60002A464146354426F067FA0126A4F80C534C
:103B70003046BDE8F081C6F58072414626F05CFA19
:103B80004FF480723946B4F80601FFF71BFF064672
:103B90000028EDD000214FF48070FFF72BFFB4F820
:103BA0000A53B4F80C13A5F580750023ADB2A4F840
:103BB0000C33A4F80A53002DDAD0C1F580712A46DF
:103BC00018FA81F1384626F037FAA4F80C53CFE7FB
:103BD000F4F100207FB545F24143ADF806300D4BBE
:103BE000CDE902300C4BC043B3F80E3404904FF6CD
:103BF000FF7210210DF10600ADF81430FFF738FE0A
:103C00001222ADF8040001A90020FFF7DBFE07B087
:103C10005DF804FB534E7632F4F100202DE9F04FAD
:103C2000724C94F8047100258FB0122309AA29461A
:103C30003846A4F81054A4F81254A4F80C53A4F86D
:103C40000A5308F05DFD0B9B039394F80431013394
:103C5000DBB2012B94BF84F8043184F8045194F84A
:103C60000431BB4208D14FF0200383F31188BFF326
:103C70006F8FBFF34F8FFEE7FFF78EFE0028E4D073
:103C80004FF0000ADFF8708180E004EB8A0910230E
:103C9000B9F80BB105AA5946384608F031FD00269F
:103CA000BDF81C50ADF81A5005AA59463846ADF873
:103CB0001860ADF81E60ADF82060FFF739FE4FF6D2
:103CC000FF72ADF814000E2105A8FFF7D1FDF02218
:103CD000ADF82200FF21464826F0A2FF05AB03CB3A
:103CE0001035C8F80000C8F80410B4F80C2303CB52
:103CF000B4F80631C8F80800ADB21344B5F5807FBA
:103D0000C8F80C10A9F80B3119D8394B009332467A
:103D1000BDF81C3059463846FFF7C1FD50B1B4F824
:103D20000631B4F80C231344A9F80B312846FFF7E9
:103D300003FF38BB002420460FB0BDE8F08F1023EE
:103D4000B5F5807F2A4628BF4FF48072A2EB0309A5
:103D50001FFA89F943440292009332464B46594672
:103D60003846FFF79CFD0028E4D00298FFF7E4FEF8
:103D70000028DFD0029BED1A4E44ADB2B6B200234C
:103D8000002DDDD10AF101035FFA83FA94F80831BE
:103D900053453FF67AAFB4F80A23FAB9B4F80A03E8
:103DA0000021FFF727FEB4F80631A4F80E34039B78
:103DB000581EFFF70FFF04460028BBD00221002049
:103DC000FFF718FE1222FF2109A826F029FF12236F
:103DD00009AA0021384608F0C9FCACE70549B4F847
:103DE0000601FFF7EFFD0028D8D1A3E7F4F100208A
:103DF00008F2002002F50020F8F1002008B50A4B77
:103E0000B3F80631C3F500539BB283420BD2FFF7E0
:103E100005FF40B94FF0200383F31188BFF36F8F84
:103E2000BFF34F8FFEE708BDF4F100202DE9F84FF6
:103E3000344E0446351D89464FF48072FF212846D2
:103E400026F0EEFEE1884FF6FF724846FFF710FDC0
:103E50004FF6FF7220800E212046FFF709FD234612
:103E6000E08103CB7060696003CBA860E960E28801
:103E700002F11007BFB2B9F1000F07D0B7F5807F8C
:103E800017D8494606F1140026F0D6F8E2881E49F4
:103E9000B6F80601F02A28BFF022103292B2FFF7DE
:103EA00091FD8046E0881030022180B2FFF7A2FD2C
:103EB00025E04FF0000B1020B7F5807F3C4628BF6F
:103EC0004FF48074A4EB000A524609EB0B0128441E
:103ED00026F0B2F822460C49B6F80601FFF772FD4B
:103EE000804660B1204602213F1BFFF783FDBFB231
:103EF0000BEB0A031FFA83FB0020002FDCD14046A6
:103F0000BDE8F88FF4F10020F8F100202DE9F04130
:103F1000674C00258EB084F808514FF0FF38FF271A
:103F2000122304AA0021284608F0EAFBDDE9066313
:103F30007340013326D19DF81230412B22D19DF8D8
:103F40001330542B1ED19DF81430532B1AD19DF8E9
:103F500015304E2B16D19DF81630762B12D19DF8C8
:103F60001730322B0ED14FF6FF7210210DF11200D7
:103F7000FFF77EFCBDF81030834203D146453CBFBD
:103F8000B0462F46E5B1FF2F2CD1002384F8043131
:103F90004FF6FF766FF00105FFF7FEFC90B994F83D
:103FA00004310133DBB2012B84F80431F4D94FF032
:103FB000200383F31188BFF36F8FBFF34F8FFEE7AA
:103FC0000125ADE72846A4F80E64FFF703FE00289C
:103FD000E5D0002384F80831012384F814340EB0AE
:103FE000BDE8F0814FF48073A4F8063138461223FF
:103FF00009AA002184F8047108F082FB4FF6FF77CC
:10400000B4F80631B3F5005FE6D2BDF83420BA4209
:1040100001D09A4217D802210020FFF7EBFC0225BD
:1040200010236A46B4F8061194F8040108F068FBFE
:104030006A46102312F8011BFF291ED1013B9BB2D7
:10404000002BF7D1C8E70025EAE729461020FFF743
:10405000D1FCD5E7BDF802603046FFF70EFD10B980
:104060003046FFF72FFDB4F806314380BDF8083025
:10407000BBB93046FFF74AFD13E03A460E216846C9
:10408000FFF7F6FBBDF80E608642DED16A46B4F853
:10409000061194F80401FFF74BFCBDF80030834291
:1040A000D8D0BDF806001030294680B2CFE700BF57
:1040B000F4F10020034B93F814340BB9FFF726BF3B
:1040C000704700BFF4F100202DE9FF478A461646ED
:1040D0009846054630B12BB1FFF7BEFB044650B100
:1040E000052045E04FF0200383F31188BFF36F8F65
:1040F000BFF34F8FFEE706F1100080B2FFF77EFEA0
:104100002846FFF7BAFC0746A8B3B0F802901D4D49
:1041100010236A46494695F8040108F0F1FABDF803
:1041200008300AEB06029A4227D8B34218BFBDF8FE
:104130000C40ADF804A01CBF0134A4B2414668464F
:10414000ADF80C40ADF80660ADF80A90B5F8064140
:10415000FFF76CFE98B1BDF80C307C80642B4FF0FB
:10416000000005D9BDF80230A5F81034A5F81204F6
:1041700004B0BDE8F0870320FAE70420F8E7012047
:10418000F6E700BFF4F1002073B50C4615461E4655
:10419000C0B1BBB1FFF790FC80B16319B3F5803FAC
:1041A00009D201460C4800962B46224690F804019D
:1041B000FFF775FB20B9042002B070BD0320FBE7B8
:1041C0000020F9E74FF0200383F31188BFF36F8FCE
:1041D000BFF34F8FFEE700BFF4F100201FB540B9D9
:1041E0004FF0200383F31188BFF36F8FBFF34F8F1E
:1041F000FEE7FFF761FC48B101460648102390F83E
:1042000004016A4608F07CFABDF8080005B05DF8C4
:1042100004FB00BFF4F100202DE9F04F431E1446CB
:104220009BB24FF6FD7293428BB080460E461DD86E
:10423000B1F5006F1AD8FFF73FFC00BBFFF70CFB8E
:10424000054648BB06F1100080B2FFF7D7FD8D4B45
:1042500093F90821002A80F2F7804FF0200383F3BE
:104260001188BFF36F8FBFF34F8FFEE74FF020032E
:1042700083F31188BFF36F8FBFF34F8FFEE7404684
:10428000FFF7ACFF86420FD07E4DA5F81084A5F84D
:104290001264FFF7E1FA08B105200EE0B5F8120448
:1042A00070B9B5F810347BB9002C00F0E6802346D5
:1042B000324600214046FFF767FF0BB0BDE8F08FA4
:1042C000103080B2FFF79AFDB5F81004FFF7D5FB68
:1042D00081460028E8D0B0F802B095F80401102318
:1042E00006AA594608F00CFAB5F81234EBB9BDF835
:1042F0002000103080B2FFF781FDB5F81004FFF701
:10430000BCFB814640B94FF0200383F31188BFF313
:104310006F8FBFF34F8FFEE7B0F802B095F804013E
:10432000102306AA594608F0EBF9B5F81224B5F89F
:1043300006310493BDF8203022B19342ADF820201D
:1043400028BF13460022BDF82010ADF81C20ADF8A0
:104350001E10ADF82220ADF824200DF1180CBCE899
:104360000300DFF824A1686003F11007CAF8041005
:10437000BCE80300BFB2B7F5807FCAF80800CAF8EE
:104380000C1030D80AF11001009195F8040159463B
:10439000FFF785FA002872D006AB03CBBDF81E20CC
:1043A0006860CAF8041003CB1032CAF80800CAF8D3
:1043B0000C1092B25146B5F80601FFF703FB002836
:1043C0003FF472AFBDF81E001030022180B2FFF73B
:1043D00011FB2C4B0022A3F81024A3F81224049BF9
:1043E000A9F8023060E715461023CDF814A0B7F500
:1043F000807FBA4628BF4FF4807AAAEB030292B2BC
:104400000392059A1F48134400932A46039B90F891
:1044100004015946FFF743FA88B31B495246B1F8E5
:104420000201FFF7CFFA00283FF43EAF02215046C9
:10443000FFF7E0FA039BA7EB0A072B44BFB29DB23C
:104440000023002FD3D1C4E7214606A8B3F8067194
:10445000ADF81A80ADF81C50ADF81E60ADF82060C4
:10446000ADF82250ADF82450FFF7E0FC38B14046DB
:10447000FFF728FB478002201FE720461DE70120A9
:104480001BE700BFF4F10020F8F10020F0B507466B
:1044900085B040B94FF0200383F31188BFF36F8FCD
:1044A000BFF34F8FFEE7FFF707FB00283FD0FFF772
:1044B000D3F9044600283CD11020FFF79FFC4FF6AB
:1044C000FF720E216846ADF80020ADF80270CDE90C
:1044D0000144ADF80C40FFF7CBF96B46ADF80E0088
:1044E00003CB154D6860A96003CB2E1DE8602961E0
:1044F00010223146B5F80601FFF764FA68B91022B8
:10450000B5F8061195F8040108F0C2F918B90221AE
:104510001020FFF76FFA012007E002211020FFF7BB
:1045200069FA3846FFF7F2FA204605B0F0BD0320DD
:10453000FBE70520F9E700BFF4F10020F8B50446D9
:10454000FFF78AF9054668BB64B108F077F90120E6
:1045500008F074F94FF400722946134826F060FB06
:10456000002020E0114D95F80871E3B29F420CD86D
:10457000FFF754FB0028F3D14FF0200383F3118899
:10458000BFF36F8FBFF34F8FFEE705EB8403B3F8E4
:104590000961304603F076F810B93046FFF7B6FAF5
:1045A0000134E2E70520F8BDFDF20020F4F100201F
:1045B000014B1860704700BFF4F1002008B5FFF709
:1045C0007BFA003018BF012008BD08B5FFF726FBB5
:1045D00040B94FF0200383F31188BFF36F8FBFF30F
:1045E0004F8FFEE708BD00BF80B58AB004AFF8600A
:1045F000B9607A603B607B68012B02D10123FB74B8
:1046000001E00023FB74BB68002B01D10123BB60D8
:10461000FB6813F1220F09D8FB680133FB60FB68CC
:104620002033184611F062FE786101E000237B61BF
:104630007B69002B0DD07B6903F120013B6A02935B
:104640003B680193FB7C0093BB68FA68786900F0D3
:104650002FFC7B6918461837BD4680BD80B584B0F5
:1046600000AF78607B68FB60FB681B7F03F0020390
:10467000002B03D1F86811F091FE04E02022002104
:10468000F86826F0CDFA00BF1037BD4680BD90B562
:104690008BB004AF78607B683B6100237B610023B3
:1046A000FB600023BB6005F0DCF93B691B69002B54
:1046B00017D13B695B69002B13D13B6999693B6951
:1046C00098683B69DC683B691B7FBA680292FA68AC
:1046D0000192009323460246386900F0E9FB01236A
:1046E0007B6105F0D7F97B6918461C37BD4690BD44
:1046F00080B485B000AF786039607B68BB603B6890
:10470000002B01D101233B60BB689B683A689A4249
:1047100005D2BB683A68DA600123FB6001E0002340
:10472000FB60FB6818461437BD465DF8047B704794
:1047300080B487B000AF78607B683B613B691B68E1
:10474000FB603B699A683B691B6813447B613B696A
:104750005B687A69D31A7B613B691B68FA689A4285
:10476000ECD17B69013B7B613B699B687A699A422A
:1047700004D33B699B687A69D31A7B617B691846CD
:104780001C37BD465DF8047B704780B584B000AF30
:1047900078607B68FB60F86800F06AFBB860BB6813
:1047A00018461037BD4680BD80B58EB002AFF860A8
:1047B000B9607A603B60FB687B620023FB627B68C8
:1047C000BB6200233B627B6A9B68013B3B627B6A66
:1047D0001B7F03F00103002B09D0BB6A0433BB62CB
:1047E000BA6A3B6A9A4208D900233B6005E0BA6A7C
:1047F0003B6A9A4201D93B6ABB623B68002B32D0CC
:1048000007F114031846FCF7F5FF05F02AF9786A5A
:10481000FFF78EFFF862FA6ABB6A9A4209D200215A
:104820000020FDF735FFFDF765F902467B6A5A6106
:1048300002E005F02FF916E005F02CF93B68009333
:104840000023002200210020FDF7C2FB7B6A00222A
:104850005A613A4607F1140311461846FCF7F8FF6F
:104860000346002BD1D0FB6A002B03D1786AFFF7F7
:104870005FFFF862BB6A0093FB6A7A68B968786A7E
:1048800000F07BF8F861FB69002B1BD0786A00F020
:10489000EFFA02467B6ADB689A4213D3FCF786FA8A
:1048A0007B6A1B69002B0BD07B6A1869002300937D
:1048B000002300220021FDF701FC7B6A00221A611F
:1048C000FCF7BCFAFB6918463037BD4680BD80B5A1
:1048D0008EB002AFF860B9607A603B60FB68BB6283
:1048E0007B68FB62BB6A1B7F03F00103002B02D0D5
:1048F000FB6A0433FB62B86AFFF71AFF7862FB6A4F
:1049000000937B6A7A68B968B86A00F036F8386252
:104910003B6A002B2CD0B86A00F0AAFA0246BB6AA8
:10492000DB689A4224D3EFF311824FF0200383F324
:104930001188BFF36F8FBFF34F8FBA617B61BB6983
:10494000FB61BB6A1B69002B0DD0BB6A18693B6811
:10495000019300230093002300220021FDF798FC1F
:10496000BB6A00221A61FB693B613B6983F31188D2
:104970003B6A18463037BD4680BD80B586B000AF73
:10498000F860B9607A603B60FB685B687B61FB68DC
:104990001B7F03F00103002B11D07B683B613A6859
:1049A0003B6A9A4208D307F110017B690422F86838
:1049B00000F0E8F9786108E000237B6005E07A68A0
:1049C0003B68934228BF13467B607B68002B08D06E
:1049D0007B697A68B968F86800F0D4F90246FB6828
:1049E0005A607B6818461837BD4680BD80B58AB0CE
:1049F00002AFF860B9607A603B60FB683B610023FE
:104A0000FB613B691B7F03F00103002B02D00423F1
:104A10007B6101E000237B613B68002B28D005F01F
:104A200020F8386900F024FAB861BA697B699A42C3
:104A300008D800210020FDF72BFEFDF75BF80246A9
:104A40003B691A6105F026F8BA697B699A4213D866
:104A50003B6800930023002200210020FDF7B8FAF4
:104A60003B6900221A61386900F002FAB86103E07C
:104A7000386900F0FDF9B861BA697B699A421DD9BD
:104A8000BB697A68B968386900F097F8F861FB6922
:104A9000002B13D0FCF78AF9FB685B69002B0BD065
:104AA000FB68586900230093002300220021FDF7D2
:104AB00005FBFB6800225A61FCF7C0F9FB69184648
:104AC0002037BD4680BD80B586B000AF78607B687A
:104AD0003B613B691B7F03F00103002B14D0386955
:104AE00000F0C6F9F860FB68042B0AD93B691B6823
:104AF00007F108010422386900F07FF9BB687B6187
:104B000004E000237B6101E000237B617B691846A0
:104B10001837BD4680BD80B58EB002AFF860B96071
:104B20007A603B60FB687B620023FB627B6A1B7FD1
:104B300003F00103002B02D00423BB6201E0002339
:104B4000BB62786A00F094F938623A6ABB6A9A42AA
:104B50002ED93B6A7A68B968786A00F02EF8F86254
:104B6000FB6A002B24D0EFF311824FF0200383F374
:104B70001188BFF36F8FBFF34F8FBA617B61BB6941
:104B8000FB617B6A5B69002B0DD07B6A58693B68CF
:104B9000019300230093002300220021FDF778FBFE
:104BA0007B6A00225A61FB693B613B6983F3118890
:104BB000FB6A18463037BD4680BD80B588B000AF6F
:104BC000F860B9607A603B60FB681B68BB61FB689A
:104BD0001B7F03F00103002B13D007F11001BB6909
:104BE0000422F86800F009F9B8613B69FB613B6891
:104BF000043B3B60FA697B689A4204D90023FB615D
:104C000001E07B68FB613A68FB69934228BF134669
:104C10007B617B69002B08D0BB697A69B968F86849
:104C200000F0EBF80246FB681A607B6918462037F3
:104C3000BD4680BD80B487B000AF78607B683B61C3
:104C40003B691B68FB603B695B68FA689A4202D16A
:104C500001237B6101E000237B617B6918461C37DF
:104C6000BD465DF8047B704780B586B000AF7860C4
:104C70007B68FB60FB681B7F03F00103002B02D005
:104C800004233B6101E000233B617868FFF750FD9E
:104C900002463B69934202D301237B6101E000237A
:104CA0007B617B6918461837BD4680BD80B58AB0E8
:104CB00002AF786039607B68BB61EFF311824FF01F
:104CC000200383F31188BFF36F8FBFF34F8F3A61D7
:104CD000FB603B697B61BB691B69002B10D0BB6922
:104CE00018693B68019300230093002300220021F0
:104CF000FDF7CEFABB6900221A610123FB6101E0D6
:104D00000023FB617B69BB60BB6883F31188FB698F
:104D100018462037BD4680BD80B58AB002AF7860A6
:104D200039607B68BB61EFF311824FF0200383F39E
:104D30001188BFF36F8FBFF34F8F3A61FB603B6900
:104D40007B61BB695B69002B10D0BB6958693B680C
:104D5000019300230093002300220021FDF798FA1D
:104D6000BB6900225A610123FB6101E00023FB6162
:104D70007B69BB60BB6883F31188FB6918462037E9
:104D8000BD4680BD80B586B000AFF860B9607A607E
:104D90003B60FB689A683B68D31A7A68934228BFE5
:104DA00013467B61FB689A693B6813447A69B9686A
:104DB000184625F041F97A687B699A420AD9FB685E
:104DC0009869BA687B69D1187A687B69D31A1A46E0
:104DD00025F032F93A687B6813443B60FB689B68B6
:104DE0003A689A4204D3FB689B683A68D31A3B60DE
:104DF0003B6818461837BD4680BD80B586B000AF09
:104E0000F860B9607A603B60FB689A683B68D31AC7
:104E10007A68934228BF13467B61FB689A693B68B6
:104E200013447A691946B86825F006F97A687B69EF
:104E30009A420AD9BA687B69D018FB6899697A687E
:104E40007B69D31A1A4625F0F7F83A687B68134451
:104E50003B60FB689B683A689A4204D3FB689B6896
:104E60003A68D31A3B603B6818461837BD4680BD88
:104E700080B485B000AF78607B689A687B685B68B7
:104E80001344FB607B681B68FA68D31AFB607B687D
:104E90009B68FA689A4204D37B689B68FA68D31AC5
:104EA000FB60FB6818461437BD465DF8047B70470D
:104EB00080B584B000AFF860B9607A603B602022B2
:104EC0000021F86825F0ACFEFB68BA689A61FB68BF
:104ED0007A689A60FB683A68DA60FB683A7E1A770B
:104EE00000BF1037BD4680BD1C010120040000003A
:104EF0000100000000000000B8FA002038000000A7
:104F00000000000024FB002014000000000000004E
:104F100020F80020600000000000000000000020D9
:104F2000010000000000000090FB00200C000000C9
:104F3000000000000400002003000000000000004A
:104F4000FCFB00200400000000000000080000201E
:104F50000C0000000000000009F600200100000025
:104F60000000000080F80020580000000000000051
:104F700000FC0020040000000000000078F9002080
:104F80004C0000000000000084FF002048000000EA
:104F90000100000002000100BED30101B4AD020116
:104FA00084FF00200200000142BF0101BCAD0201EC
:104FB000C2AD020105000001B8AD0201C0FC002035
:104FC00086FF0020010000900000000088FF002004
:104FD00000000000FA00FC0000000000C0FC0020FF
:104FE0000100000000000000CCFF0020480000008D
:104FF0000100000002000100BED30101C4AD0201A6
:10500000CCFF00200200000142BF0101CCAD020133
:10501000D2AD020105000001C8AD0201BCFC0020B8
:10502000CEFF00200100029100000000D0FF002010
:1050300000000000F000F20000000000BCFC0020B6
:1050400001000000000000001400012048000000E2
:105050000100000002000100BED30101D4AD020135
:10506000140001200200000142BF0101DCAD020179
:10507000E2AD020105000001D8AD0201B8FC00203C
:1050800016000120010002010000000018000120AC
:105090000000000039013B0100000000B8FC0020C6
:1050A0000100000000000000A8FB00200800000034
:1050B000000000001400002050000000000000006C
:1050C0008C0101200400000001000000AAAAAAAA85
:1050D0009CFB00200C00000000000000EC01002000
:1050E00008F0000000000000C4F900203C000000AF
:1050F00000000000900101200400000001000000F9
:10510000040000000CF60020040100000000000074
:10511000640000200800000000000000F0FA0020F9
:105120001C0000000000000004FC0020080000003B
:1051300000000000F4F10020150400000000000051
:10514000C6FC00200200000001000000F80E000074
:10515000F0FB002005000000000000006C000020B3
:105160000100000000000000890101200100000092
:1051700001000000FF000000700000202C00000073
:1051800000000000B0FB002008000000000000004C
:105190000CFC002004000000000000009C00002027
:1051A0000400000000000000B8FB00200800000020
:1051B00000000000A00000200C0000000000000023
:1051C000EEFB00200200000000000000B6FC002002
:1051D0000100000000000000F5FB002005000000B9
:1051E0000000000058FA002020000000000000002D
:1051F000FAFB0020020000000000000010F7002071
:105200009000000000000000C0FB0020080000002B
:105210000000000038FB0020140000000000000027
:10522000A0010120010000000100000001000000B9
:10523000840101200500000001000000020700A613
:105240002A00000010FC0020040000000000000004
:10525000AC000020040000000000000014FC00204E
:105260000800000000000000B00000202600000040
:10527000000000001CFC00200C00000000000000EA
:10528000C8FB0020080000000000000028FC0020EF
:105290001000000000000000D800002018000000EE
:1052A00000000000B7FC002001000000000000002A
:1052B000D0FB0020080000000000000078FA002069
:1052C0002000000000000000B9FC002001000000E8
:1052D0000000000038FC00200C000000000000006E
:1052E000BAFC0020010000000000000044FC002087
:1052F0000800000000000000BBFC002001000000CE
:10530000000000004CFC0020040000000000000031
:10531000BDFC002003000000000000000AF6002091
:105320000200000000000000ACFC002004000000AF
:10533000000000005C000120C0000000010000002F
:1053400023A8020123A8020123A8020123A8020125
:1053500023A8020123A8020123A8020123A8020115
:1053600023A8020123A8020123A8020123A8020105
:1053700023A8020123A8020123A8020123A80201F5
:1053800023A8020123A8020123A8020123A80201E5
:1053900023A8020123A8020123A8020123A80201D5
:1053A00023A8020123A8020123A8020123A80201C5
:1053B00023A8020123A8020123A8020123A80201B5
:1053C00023A8020123A8020123A8020123A80201A5
:1053D00023A8020123A8020123A8020123A8020195
:1053E00023A8020123A8020123A8020123A8020185
:1053F00023A8020123A8020123A8020123A8020175
:1054000060FB00202000000000000000C1FC002024
:105410000100000000000000D8FB00200800000090
:1054200000000000F0000020080000000000000064
:10543000C2FC00200100000000000000F800002075
:105440000800000000000000C3FC00200100000074
:105450000000000050FC00200C00000000000000D4
:10546000B0FC00200400000000000000D8F800207C
:105470005000000000000000C4FC002001000000FB
:1054800000000000000100204E00000000000000AD
:105490005CFC002010000000000000005001002013
:1054A00004000000000000006CFC0020040000006C
:1054B0000000000098FA002020000000000000001A
:1054C00054010020290000000000000040FE0020E0
:1054D000A40000000100000020200001FFFFFFFFEA
:1054E000FFFFFFFFFFFFFFFF0000000000000000C4
:1054F0000000000001000000FFFFFFFF512563FCDA
:10550000C2CAB9F3849E17A7ADFAE6BCFFFFFFFF3E
:10551000FFFFFFFF00000000FFFFFFFF96C298D8CB
:105520004539A1F4A033EB2D817D0377F240A463CC
:10553000E5E6BCF847422CE1F2D1176BF551BF37D5
:105540006840B6CBCE5E316B5733CE2B169E0F7CA8
:105550004AEBE78E9B7F1AFEE242E34F4B60D22775
:105560003E3CCE3BF6B053CCB0061D65BC8698766B
:1055700055BDEBB3E7933AAAD835C65A800100204F
:105580000C0000000000000070FC0020040000007F
:10559000000000008A01012002000000010000005C
:1055A000700000008C0100201000000000000000CE
:1055B000E0FB0020080000000000000074FC002058
:1055C00004000000000000009C0100200400000016
:1055D00000000000C5FC00200100000000000000E9
:1055E00080FB00201000000000000000B4FC002040
:1055F0000200000000000000A0F700208000000072
:10560000000000004CFB002014000000000000001F
:1056100078FC00200400000000000000A001002031
:1056200004000000000000005001012024000000E0
:105630000100000024232221201F1E1D1C1B1A19FB
:105640001817161514131211100F0E0D0C0B0A0952
:105650000807060504030201A4010020160000004B
:10566000000000007CFC00201C0000000000000086
:10567000BC0100200D000000000000000CFB002019
:105680001800000000000000940101200800000044
:1056900001000000EBBA0201EBBA0201C9010020CF
:1056A000010000000000000030FA00202800000087
:1056B0000000000000FA00203000000000000000A0
:1056C000E8FB00200600000000000000CC010020E4
:1056D000110000000000000098FC00200C000000F9
:1056E00000000000DD0100200C00000000000000B0
:1056F000A4FC0020040000000000000028F90020A5
:105700005000000000000000A8FC00200400000081
:10571000000000009C0101200400000001000000C6
:1057200000000000000000000000000066666666E1
:10573000666666666666666680B584B002AF0023FC
:105740007B6000F035FB0A4B1B68002B0BD0094B2C
:1057500001930323009300234FF480720649074806
:10576000FAF754FE78607B6818460837BD4680BD5E
:10577000F4F90020F8F90020089900013D5A0001D1
:1057800080B588B002AFF860B9607A603B602820CD
:1057900010F0ACFD78617B69002B0DD07B69002295
:1057A00083F824207B6901933B6A00933B687A6805
:1057B000B968F86800F005F87B6918461837BD46E7
:1057C00080BD80B584B000AFF860B9607A603B609E
:1057D00000F0EEFAFB69FA681A60FB69BA689A6130
:1057E000FB693A68DA61FB69BA691A62FB690433DA
:1057F00018460CF0D3FD7B68002B08D0FB6993F8AA
:10580000243043F00403DAB2FB6983F8242000BF9C
:105810001037BD4680BD80B588B000AFF860B96074
:105820007A603B600023FB61194B1B68002B2AD078
:10583000BB683B617B687B61FB68BB61BB68052B18
:1058400018DCFCF767F90346022B09D1104B1868E6
:1058500007F110010023BA6AFDF71CF9F86112E0A4
:105860000B4B186807F1100100230022FDF712F915
:10587000F86108E0064B186807F1100100233A6848
:10588000FDF7CEF9F861FB6918462037BD4680BDAB
:10589000F4F9002080B400AF034B1B681846BD46E6
:1058A0005DF8047B704700BFF8F9002080B485B034
:1058B00000AF78607B68FB60FB689B691846143713
:1058C000BD465DF8047B704780B584B000AF78605A
:1058D00039607B68FB6004F0C4F83B68002B09D09A
:1058E000FB6893F8243043F00403DAB2FB6883F8D2
:1058F000242008E0FB6893F8243023F00403DAB294
:10590000FB6883F8242004F0C5F800BF1037BD46BB
:1059100080BD80B584B000AF78607B68BB6004F068
:10592000A0F8BB6893F8243003F00403002B02D1E5
:105930000023FB6001E00123FB6004F0ABF8FB688F
:1059400018461037BD4680BD80B582B000AF786084
:105950007868FFF7DEFF034618460837BD4680BD6E
:1059600080B485B000AF78607B68FB60FB685B68E3
:10597000BB60BB6818461437BD465DF8047B7047B2
:1059800080B485B000AF78607B68FB60FB681B6803
:1059900018461437BD465DF8047B704780B584B067
:1059A00000AFF860B9607A6008E0FB689B69BA688C
:1059B0001344BB60FB681B6AF8689847FB689A69E8
:1059C000BB68D118BB687A68F86800F0DBF803465A
:1059D000002BEAD100BF1037BD4680BD80B584B032
:1059E00000AF78603960144B1B68DB68DB68FB60D4
:1059F000FB68043318460CF03BFDFB6893F8243039
:105A000003F00403002B05D03A687968F868FFF7C3
:105A1000C5FF08E0FB6893F8243023F00103DAB2F5
:105A2000FB6883F82420FB681B6AF868984700BF6E
:105A30001037BD4680BD00BFECF9002080B584B0B2
:105A400000AF786007F10803184600F057F8F860D7
:105A5000BB681946F86800F003F800F0D5F8F1E7E4
:105A600080B584B000AF78603960FBF79FF907F12B
:105A70000803184600F066F8F860BB68002B30D1C8
:105A80003B68002B0AD17A68FB689A4206D8FBF77C
:105A9000D5F9F9687868FFF7A1FF24E03B68002B8F
:105AA00008D0134B1B681B68002B01D1012300E0B9
