:0200000400807A
:105F8800FFFF000000400E8438FC745F3B4412148D
:085F98000B0000710000000085
:045FBC0000000010D1
:020000040100F9
:10000000FEFFFFFF01015048434D00000000740057
:1000100000000001000200010002000100A0040035
:1000200000000000000000000000000000000000D0
:1000300000000000000000000000000000000000C0
:1000400000000000000000000000000000000000B0
:1000500000000000000000000000000000000000A0
:100060000000000000000000000000000000000090
:100070000000000000000000000000000000000080
:100080000000000000000000000000000000000070
:100090000000000000000000000000000000000060
:1000A0000000000000000000000000000000000050
:1000B0000000000000000000000000000000000040
:1000C0000000000000000000000000000000000030
:1000D0000000000000000000000000000000000020
:1000E0000000000000000000000000000000000010
:1000F0000000000000000000000000000000000000
:1001000000000000000000000000000000000000EF
:1001100000000000000000000000000000000000DF
:1001200000000000000000000000000000000000CF
:1001300000000000000000000000000000000000BF
:1001400000000000000000000000000000000000AF
:10015000000000000000000000000000000000009F
:10016000000000000000000000000000000000008F
:10017000000000000000000000000000000000007F
:10018000000000000000000000000000000000006F
:10019000000000000000000000000000000000005F
:1001A000000000000000000000000000000000004F
:1001B000000000000000000000000000000000003F
:1001C000000000000000000000000000000000002F
:1001D000000000000000000000000000000000001F
:1001E000000000000000000000000000000000000F
:1001F00000000000000000000000000000000000FF
:10020000F87F0120E172040121900401259004018E
:100210002D9004013190040135900401000000008C
:1002200000000000000000000000000089AD030194
:100230002990040100000000EDAD030155AE03015B
:1002400073F00301B15E040173F00301F1D7030100
:1002500073F0030173F0030173F0030173F0030102
:1002600073F0030173F0030173F0030173F00301F2
:100270000542030173F0030173F0030173F00301FE
:1002800073F003017D4F040173F0030173F0030168
:1002900073F0030173F0030173F0030173F00301C2
:1002A00073F0030173F0030173F0030173F00301B2
:1002B00073F0030173F003011582020173F003016F
:1002C00073F00301F581020173F0030173F0030180
:1002D00073F0030173F0030173F0030173F0030182
:1002E00073F003010000000073F0030100430800F5
:1002F000C0340120000000000000000001430100A4
:10030000A9320120000000000000000002430100AB
:10031000AC32012000000000000000000A40010093
:1003200032400020000000000000000000400400F7
:10033000A43300200000000000000000094001007C
:10034000ED33002000000000000000000840200005
:100350003013002000000000010000000740E80307
:10036000A81A002000000000010000000640020062
:10037000103400200000000000000000054038009C
:1003800050130020000000000200000004400300A1
:100390000A34002000000000000000000340F000CC
:1003A0001021002000000000030000000240C800EF
:1003B000A0010020000000000100000001406000DA
:1003C000403500203583030100000000DC9004016B
:1003D0000900004CF8B500BFF8BC08BC9E46704749
:1003E0009D870401F8B500BFF8BC08BC9E46704765
:1003F0007987040180CE030001000000A0F57F4052
:10040000FB3804281CD8DFE800F0050E161B03009B
:10041000012070470B4B93F83620012A10D1187C2D
:10042000C0F380007047074B93F8360001288CBF5B
:10043000002001207047034B187CC0F3C0007047B8
:1004400000207047B8330020034B93F85201A0F10D
:10045000AA03584258417047684000200A4AF0B544
:10046000D2E93A321978C90707D5D0E90067D3E94C
:100470000245AF4208BFA64203D010339A42F1D8DA
:1004800000231846F0BD00BF68400020074AD2E9AB
:100490003A321978C90702D55988814203D01033FE
:1004A0009A42F6D800231846704700BF68400020E3
:1004B000F0B50C4BD3F8E06093F8E55000231C46F0
:1004C00006EBC302D7783FB11788874204D19778EB
:1004D0008F4204BFD47054600133DBB29D42EFD22F
:1004E000F0BD00BF68400020034B93F84C00A0F122
:1004F0004103584258417047684000203D2803D1CD
:1005000011B1024B0A881A80704700BF60130120A6
:10051000034B93F83C00A0F1D60358425841704772
:1005200068400020034B93F8C400A0F11303584225
:100530005841704768400020034B93F87801A0F1C0
:10054000B70358425841704768400020437800F193
:10055000080210B513F008040A611DBF0A6000F11B
:1005600010020A610C6013F010021FBF0A694A6092
:1005700008320A6108BF4A6013F001021FBF0A690E
:100580008A6001320A6108BF8A6013F004031DBF4C
:100590000B69CB601A78CB601EBF013203EB4203BC
:1005A0000B610B69181A087510BD084AD2F80C3295
:1005B00092F8082203EB8212934201D30120704784
:1005C000197809B94033F7E70020704768400020E8
:1005D000034B93F80002A0F1DA03584258417047E8
:1005E00068400020014BFD221A70704768400020CF
:1005F000034B93F8B900A0F1E60358425841704705
:1006000068400020034B93F87C02023818BF012099
:10061000704700BF68400020034B93F87001A0F1C1
:100620008E0358425841704768400020024BFB221D
:1006300083F86823704700BF68400020034B93F89D
:100640006803A0F1FB0358425841704768400020FE
:100650000C4B30B12830D3F8F820904204D300205E
:100660007047D3F8F400F6E7037803F0FB03012B9F
:1006700005D1837EDB0702D483888B42F0D12830FA
:10068000EBE700BF68400020084AD2F8F430C01AF7
:10069000074BC0104343D2F8FC0000EBC300807945
:1006A000430714BF00F00700072070476840002090
:1006B000CDCCCCCC144B93F800319A4294BF9B1A0A
:1006C000DB1ADBB299421DD2104B68B1597E890703
:1006D00008D493F85000904294BF0020012080F08D
:1006E000010070470020FAE75A7ED20705D493F83C
:1006F0005100884294BF0020012080F0010000F0EA
:10070000010070470120704768400020B833002086
:100710000B4A10B5D2E93D311A78062A09D05C7827
:10072000022C06D102F0FB02012A02D19A888242F1
:1007300003D028339942EFD80023184610BD00BFDC
:10074000684000204BF6DD734343C3F30333094A8B
:1007500032F8331030EA010103D102EBC3035B68C6
:100760000BB9002070479A88824201D05B6AF7E794
:1007700001207047C0440020024B662283F8B0235A
:10078000704700BF6840002073B50D4BD3F8DC12F2
:1007900093F8E052002201230839D4B2A54206D8CA
:1007A000002064F3070063F30F2002B070BD013234
:1007B00051F832608642F3D05B00DBB2EDE700BF58
:1007C000684000202DE9F04F074685B0002099468B
:1007D00088461646244CFFF7D7FF94F8E032ADF870
:1007E0000C00C0B2834232D904F1F40191E80A103E
:1007F0009DF80D20DFF874E001930D466FEA020AC0
:100800002B78062BA5EB01030AD095F801B0BBF1BC
:10081000020F05D0B5F804B0C34501D0B34519D1D6
:10082000DB100EFB03F30CEBC30393F807B00BEAEA
:100830000A0B83F807B0019B28359D42E0D3D4F81A
:10084000DC3203EBC0000760868080F8069005B0BC
:10085000BDE8F08FDB100EFB03F30CEBC30393F842
:1008600007B042EA0B0BE4E768400020CDCCCCCCCB
:1008700007B5FFF789FF074B93F8E022C0B2824229
:1008800082BFD3F8DC32002243F8302003B05DF899
:1008900004FB00BF68400020044B93F8100200F0F6
:1008A000FD00A0F1480358425841704768400020BD
:1008B000024B272283F81023704700BF68400020B6
:1008C000034B93F81003A0F1270358425841704797
:1008D00068400020034B187CA0F11903584258418E
:1008E000704700BF68400020094B30B5D3F8A823FB
:1008F000B3F8AC4300239C4202D10021084630BD2E
:10090000114632F8145B8542F8D001339BB2F2E70E
:100910006840002038B505460C46FFF7E5FF50B9A2
:10092000124AB2F8AE33D2F8A813142000FB031019
:100930000133A2F8AE336278428020F8045B0023D2
:1009400099B28A420AD8094BB3F8AE23B3F8AC1374
:1009500091429CBF0022A3F8AE2338BD04EB4301B3
:10096000498820F813100133EAE700BF68400020EF
:10097000034BD3F88002B0FA80F04009704700BF03
:1009800068400020084A10B5D2E9A7321C782CB183
:100990009C7A8C4202D19C88844203D018339A42BC
:1009A000F4D80023184610BD6840002010B5044656
:1009B000006948B1636923B15A68A24204BF0022AA
:1009C0005A60C368103098470023237010BD4368F5
:1009D00010B4C3B11A69B2B15C69844213D151B188
:1009E00014205074002018701046D36800F8101FAF
:1009F0005DF8044B1847107928B95878196161F3EC
:100A0000C3005870F0E75DF8044B7047034B93F850
:100A1000A402B0FA80F04009704700BF684000208F
:100A2000114930B5B1F8AC32D1F8A802C3EBC30319
:100A3000C21800230479E40709D593B145795C799C
:100A4000A54238BF034607309042F3D318460379D6
:100A500043F00103037191F8AE22012393404371E7
:100A600030BD0346EFE700BF684000200C4A10B5D8
:100A7000D2F8A832B2F8AC22C2EBC2021A441C79F6
:100A800014F0010F06D0C4F300148C4202D11C886C
:100A9000844203D007339342F1D30023184610BD9C
:100AA0006840002008B5FFF7E1FF18B103796FF344
:100AB0000003037108BDF8B507460E4615461C46EF
:100AC000FFF7D4FF58B18379A34207D3094B93F8BA
:100AD000AE2201239340437145808471F8BDFFF736
:100AE0009FFF0379078003F0F10366F3041303719A
:100AF000F2E700BF6840002010B50A4B93F82014BD
:100B0000D3F824240023994202D1FF23184610BDB4
:100B1000147814B154788442F8D00133DBB21C321B
:100B2000F1E700BF6840002008B5FFF7E5FF084B7C
:100B300093F82024824281BF00B2D3F82434C0EB62
:100B4000C00003EB80008CBF0230002008BD00BF56
:100B50006840002010B50446C06943785B078AB03E
:100B600010D56946FFF7F2FC039B5A7803EB42036A
:100B70009A78DB7842EA03232385012384F8323014
:100B80000AB010BD8378C27843EA0223F4E7044B2D
:100B900093F88001A0F19A0358425841704700BF72
:100BA00068400020024B002283F8D522704700BF26
:100BB0006840002090F88F3043F0020380F88F30B7
:100BC000012380F83230704730B50D4C30B12830F9
:100BD000D4F8F850A84204D3002030BDD4F8F40073
:100BE000F6E70478062C09D04478022C06D08488D5
:100BF000944203D08C4201D09C42EED12830E9E7E8
:100C000068400020034B93F8E802A0F131035842FA
:100C10005841704768400020024A536823EA0000A8
:100C20005060704768400020024B986EB0FA80F028
:100C30004009704768400020034B93F82804B0FA3D
:100C400080F04009704700BF6840002010B5094C93
:100C5000502384F85033B4F83A33A4F8583304F5E9
:100C60005270054BC4F8603335F02AFD1B2384F81D
:100C7000383310BD68400020E144000108485F237C
:100C800080F81032074BC0F83032412380F8203210
:100C9000002380F8283200F5067035F011BD00BF42
:100CA000684000200514000173B506466846CDE98A
:100CB0000023FFF7D3FB0446D8B9164DD5F8F04012
:100CC000D5F8E8309C4203D3D5F8EC309C4205D3EC
:100CD000114B43F214121A8046F0F8FDD5E93B237C
:100CE00010339342C5F8F03024BFD5F8E830C5F88A
:100CF000F0302378668043F001032370DDE90023A0
:100D0000C4E9022323789DF8182062F3410323707D
:100D100002B070BD68400020AC35002007B531B38B
:100D20005028164B08D0512824D03D2807D11A89C5
:100D300009880A441A8102E09A8801329A809988C7
:100D4000A9B1D88864224243B2FBF1F2D2B2192A87
:100D50000DD99A785AB901229A704FF6FF73ADF8FF
:100D6000043001A814238DF8063010F053FD03B0B1
:100D70005DF804FBDA880132DA80E0E760130120D5
:100D8000134B984237B5054605D0124B43F2050286
:100D90001A8046F09BFD104C002384F830302B78ED
:100DA000A3B90E4D238C29460D2021F8423F3DF07A
:100DB00021FC94F831304BB9B5F84230ADF804302D
:100DC00001A810238DF8063010F024FD03B030BDCB
:100DD0008C130120AC35002060130120B8330020B3
:100DE000037907B573B1094B93F85B20920709D5D6
:100DF000B3F84230ADF8043001A809238DF806306D
:100E000010F008FD03B05DF804FB00BFB83300200C
:100E1000164AD2F8F43013B5C31A154CDB106343ED
:100E2000D2F8FC4004EBC3040378052B08D101A9D8
:100E30002C203DF0B3FB019BDB0A236002B010BD08
:100E40004378022B05D1026A03F2E6335343019340
:100E5000F1E70DF1030114203DF0A0FB9DF80330F4
:100E600043F6982203FB02220192E4E76840002047
:100E7000CDCCCCCCF0B585B01A4CADF804000DF15A
:100E80000F012520D4F8F4503DF088FBD4F8FCC0C5
:100E9000D4F8F470D4F8F8109DF80560124C0020D6
:100EA00002462B78062B0ED0EB1BDB1063430CEBBA
:100EB000C303DB791E426B7804BF0132D2B2022B2E
:100EC0001CBF0130C0B228358D42EAD340B19DF835
:100ED0000F30984228BF184690428CBF0020012056
:100EE00005B0F0BD68400020CDCCCCCC0D4A01232C
:100EF00003FA00F0536810B50B4C0343536023888A
:100F00001B070ED439F058FF238843F008032380D1
:100F100039F062FF054B06481B68BDE810401B69AD
:100F2000184710BD68400020BA170120503A002031
:100F3000543A0020034B9A6F192083F8B9001177B7
:100F40000C20D3E768400020024BF92283F8B4223A
:100F50001020CBE768400020437843F0010361F3A1
:100F600041034370044B93F8A42222B9932283F8DF
:100F7000A4220520BAE7704768400020D0B5134C82
:100F8000134AD4F8B83392F8401083F82A10D2E903
:100F90001267B2F842201A8583F82B00C3E908676C
:100FA0005A6903F1200090470023C4F8B833D4F8FD
:100FB000B43333B1672384F8B0331220BDE8D04096
:100FC00094E7662384F8B033D0BD00BF68400020AA
:100FD000B83300200F4B0079D3F8B823127B062AD0
:100FE00000D1CBE7042A10D178B96A2283F8B02364
:100FF000094AC3F8D823452283F8C823074AC3F80F
:10100000D02303F5707035F05BBBEA2808BFCA2017
:10101000E7E700BF68400020F9270001DE33002029
:10102000054B0178D3F87C2182F82810472283F8F9
:10103000802106205AE700BF684000204368032251
:101040001A705970172051E737B5164C94F8522191
:10105000452A054605D0144B4FF446521A8046F0F7
:1010600035FC15B1114B9D4205D00F4B43F2811257
:101070001A8046F02BFCAA2384F852310C4BEA7AF2
:10108000B3F84230ADF8043052B9102301A88DF8FE
:10109000063010F0BFFB0220FFF728FF03B030BD81
:1010A0000923F3E768400020AC350020A041002070
:1010B000B833002070B5184C94F8C430D4F8C06030
:1010C000E82B054605D0154B43F287021A8046F0FF
:1010D000FDFB2EB9114B43F288021A8046F0F6FB55
:1010E00006F10C039D4205D00C4B43F289021A8095
:1010F00046F0ECFB736A2A791A702A685A60EA791A
:101100001A72E92384F8C43094F8C53023700D2096
:10111000BDE87040EAE600BF68400020AC35002022
:1011200070B5144CD4F8746105462EB9124B43F2D5
:10113000B4021A8046F0CAFB06F118039D4205D09E
:101140000D4B43F2B5021A8046F0C0FB94F878319B
:101150005E2B05D0084B43F2B6021A8046F0B6FB70
:101160002B7886F84C30582384F878310920BDE874
:101170007040BBE668400020AC35002070B5164CCE
:1011800094F83C20A56B712A064605D0134B43F218
:10119000D7021A8046F09AFB2DB9104B43F2D802C1
:1011A0001A8046F093FB05F10C039E4205D00B4BD1
:1011B00043F2D9021A8046F089FB337913B1FA2B36
:1011C00008BF002385F82430722384F83C300820BF
:1011D000BDE870408AE600BF68400020AC350020C2
:1011E000037810B50E4C93B96F2304F5EC7106200B
:1011F00084F8D0313DF0D2F90A4BC4F8E03104F55F
:10120000E47035F05DFA352384F8003210BDD4F86F
:101210008C210A2082F82B30FFF768FE2223F3E7A7
:1012200068400020655200010E4B37B50E4CD3F8D4
:101230002C2494F85B50052183F82814FE231374A2
:101240001620FFF753FEAB0709D5B4F84230ADF8CE
:10125000043001A809238DF8063010F0DBFA03B042
:1012600030BD00BF68400020B8330020F0B5214AEF
:1012700085B0D36E92F8707000244FF4A4720646C5
:1012800002FB07328DF807402546934214D335B34D
:1012900002A940F231103DF081F904AB3344052F2F
:1012A00013F8093C13D89C422CBF00240124B4B18C
:1012B0002E70284605B0F0BD197831B1B14201D188
:1012C0000134E4B203F5A473DFE71D46FAE713FB2C
:1012D00007F3B4EB930FB4BF01240024E7E7012325
:1012E0000DF1070146208DF80730002541F008FA7E
:1012F000DFE700BF6840002008B5FFF7B7FFC0B1C7
:1013000000F11A0390F80F21C0F89C300023C0F8B8
:10131000C43080F8C030C0E93233A0F8BC3063F389
:101320004102044B80F80F21B3F84230A0F8083195
:10133000803008BDB8330020742908B501D90020D9
:1013400008BDFFF793FF0028F9D000F10C03C0F8A7
:1013500084308030F4E7F0B5537D122B87B00D4612
:10136000144620D81669177D7178BA1C88B23B44A0
:10137000DBB202EB4002934215D1AA88ADF80520FA
:1013800000238DF804308DF8071001AA99B2884225
:1013900002F102020AD801A93E2041F0B1F9216907
:1013A000A888FFF7B7FA002007B0F0BD06EB4307A7
:1013B0000133B978FF7841EA07215180E6E770B53B
:1013C0000F4D0024B5F8AC32A34200D870BDD5F85B
:1013D000A822C4EBC4063244127902F02102212A69
:1013E00003D121460A2041F08BF9D5F8A8323344C5
:1013F00001341A796FF345121A71A4B2E2E700BF03
:101400006840002070B50E4C10F80C1CD4F8145233
:1014100006462A2041F074F994F81032602B08D166
:1014200033782B735E2384F810320720BDE87040B8
:101430005CE50DB15D23F6E7482384F8103270BDFA
:1014400068400020164B2DE9D043D3F80C420646E5
:101450000F4644B9134B4FF441521A8046F024FA18
:101460002046BDE8D08356EA070110D093F8081251
:10147000234604EB811100248B42F1D2187858B135
:101480003AB1D3E90289B94508BFB04505D1002476
:10149000E6E7D3E90689F6E71C464033ECE700BFF0
:1014A00068400020AC35002008B50146034845F0EF
:1014B00023FB0320BDE8084018E500BFA84000203A
:1014C00010B504460120FFF717FF58B1064A224421
:1014D00092F85811013982F8581180F88E40FFF7C0
:1014E000E3FF012010BD00BF68400020132810B5A5
:1014F000044605D90C4B43F2D2121A8046F0E6F9A5
:101500000A4A224492F858310133DBB282F858314A
:101510002BB9054B43F2D3121A8046F0D7F9204677
:10152000BDE81040CCE700BFAC350020684000208B
:1015300003790A4A1BB103F0EF03EA2B09D1D2F871
:10154000283301688B4304D0522382F810330820DB
:10155000CCE7272382F81033704700BF6840002093
:1015600010B50446B830FFF783F90023124A237000
:10157000D15CD8B2D1B1FFF7A3FFD8B90F4C94F822
:10158000A4321A2B02D10520FFF7B0FC94F8703179
:10159000902B05D1912384F870310F20FFF7A6FC22
:1015A000636F3BB11520BDE810409FE40133142B5D
:1015B000DED1E3E710BD00BFC0410020684000203D
:1015C00038B50D4D01460446284645F095FA2B7F67
:1015D000782B10D120232B77A37D0C2B09D02089C9
:1015E0004FF6F77398428CBF01200220BDE83840C7
:1015F0007CE71020FAE738BD2043002037B50546C8
:10160000214C38B194F85231442B03D104F59A732C
:10161000984205D01D4B43F282121A8046F056F9CB
:101620002D78AA2384F8523155BB194AB4F82831D1
:10163000A2F84230ADF8043001A810238DF806302E
:1016400010F0E8F894F85431D3B10D2384F82E311A
:101650004FF6FD73A4F820310233A4F82431B4F816
:101660005031A4F822310B4BC4F81C310A4884F8DD
:101670002851462384F85231FFF7A2FF03B030BD52
:101680000220FFF733FCF9E768400020AC3500206A
:10169000B8330020FD5100018041002030B40C4CD3
:1016A00094F8D55295B984F8D2320123A4F8C40233
:1016B000A4F8C612A4F8CA22A4F8C82284F8CC520E
:1016C00084F8D53204F52F7030BC79E730BC704710
:1016D0006840002010B441B1C469B0F88820618826
:1016E000A0885DF8044B0B23D8E75DF8044B7047E6
:1016F00010B5D0F89C30104CC0F8A830002380F80A
:10170000B110C0F8AC300146204645F0F5F9237918
:10171000412B06D1032323710E20BDE81040FFF7B3
:10172000E5BB032B07D0054B43F2B312BDE81040D5
:101730001A8046F0B9B810BDB0400020AC3500208A
:1017400038B5446890F88B3084F8B0300D463830A6
:10175000FFF78EF829462046BDE83840C8E708B5AF
:1017600000F10801084845F0C7F9084B93F8B02389
:10177000662A07D1672283F8B0231220BDE808400B
:10178000FFF7B4BB08BD00BF1C4400206840002028
:101790000A49D1F80C32834205D891F8081203EBBC
:1017A0008113984205D3064B43F241021A8046F05A
:1017B0007BB84022002147F0B9BC00BF6840002040
:1017C000AC350020034B0022C3E900224FF48070A7
:1017D000FFF722BA6C400020094BD3F8480493F875
:1017E000442400239A4200D170470178032903D191
:1017F0001822002147F09ABC01331830DBB2F1E720
:10180000684000202DE9F341012307468846372030
:101810000DF107018DF807303CF0C0FE3E4890F80E
:101820003620022A4FF0000606D19DF807301BB97A
:10183000032002B0BDE8F081384C002394F8E51095
:10184000D4F8E0C01D4600BF0CEBC30292F803E0E1
:10185000BEF1000F37D0B2F800E0BE4536D1927825
:10186000424533D10020E4E737F0F0FFD4F8D03020
:10187000D4F8E07094F8E56083428ABFDB43C01A75
:10188000C0184FF0FF32002307EBC301CC7854B1EE
:101890004C6844B1A94206D084420ED9241AA2420F
:1018A0004C6028BF22460133DBB29E42ECD269680D
:1018B0001B4B8A4228BF0A4625E000244C60CC70AE
:1018C000F1E70220B5E70DB91E4615460133DBB23C
:1018D0009942B9D2002DF4D085F8028042692F8058
:1018E0000A320123B1426A60EB7007D194F8E43008
:1018F000013B99423CBF013184F8E51094F8C830AF
:10190000002BB1D1064B0748012146F03BFD0548AD
:1019100046F04CFD01208CE7B833002068400020E1
:101920002919000130410020F8B5184BD3F8E060C8
:10193000D3F8D47093F8E5504FF0FF32002100BF88
:1019400006EBC104E07830B16068C01B606090B104
:10195000824228BF02460131C9B28D42F0D2511CE9
:101960000BD00B4B0B48012146F00CFD0948BDE89C
:10197000F84046F01BBDE070EDE7002283F8E5205B
:101980000448BDE8F84046F019BD00BF684000209B
:10199000291900013041002013B540F20B100DF160
:1019A00006013CF0FBFDBDF806303BB90C4B43F2A1
:1019B00015121A8045F078FF02B010BD094C40F2B4
:1019C0000A2021463CF0D0FDBDF806202068120117
:1019D00083180021636047F0A9FB2368A360EBE74D
:1019E000AC3500205041002010B50F4B93F83F203C
:1019F000827793F84020816101239340436140F650
:101A000001030446838300F11F014FF482703CF010
:101A1000C5FD04F1100140F202203CF0A5FD204676
:101A2000BDE8104034F049BEB83300202DE9F7433B
:101A3000364D95F86833FB2B4BD13549C888B1F842
:101A40004230984245D1507D092842D91669D1E9E2
:101A50001223D6F80690D6F802804B4508BF4245BF
:101A600037D1737813F0E00733D103F01F03053348
:101A7000B0EB430F2DD1B1F844404FF482700DF11B
:101A800007013CF08BFD9DF807300133DBB20134D8
:101A9000A4B28DF8073038464FF6FF7C9AB27378BF
:101AA000C1B203F01F038B420AD9A5F86CC3002111
:101AB0007778CBB207F01F079F420ED88F421CDC0D
:101AC00014491548A5F86A43FFF78EFF832385F86C
:101AD0006833012003B0BDE8F0830B1D06EB430320
:101AE0005B881B1B9BB29342E8D9B5F86C739F428D
:101AF00088BFA5F86C330131DAE7031D06EB430319
:101B000001305C880134A4B2C9E700BF68400020FE
:101B1000B833002039450001D843002038B50123EF
:101B200080F824300B68C36190F84D3080F8253080
:101B30000D4B93F83F3080F82630044600F108053D
:101B400000F127014FF482703CF028FD04F11801E8
:101B500040F202203CF008FD044B23622846BDE819
:101B6000384034F0AABD00BFB83300200D3D00015D
:101B7000F7B52F4C94F87831D4F87451572B0646AA
:101B800005D02C4B43F2A8021A8045F09FFE2DB9D8
:101B9000284B43F2A9021A8045F098FE05F1100384
:101BA0009E4205D0234B43F2AA021A8045F08EFED6
:101BB00033796BBB3168EA6922EA0102019232B9DA
:101BC0001C4B43F2BA021A8045F06EFE1EE0B76865
:101BD000F679202001229E4211D9019911420AD0A2
:101BE00017F803C0BCF1CC0F88BF914303F1010388
:101BF00088BF0191DBB201384FEA4202EBD101A963
:101C00002846FFF78BFF562384F8783103B0F0BDE8
:101C1000FA2B03D1074B43F2BB02D4E785F84C30D3
:101C20000920582384F87831FFF760F9EEE700BF08
:101C300068400020AC3500200348002380F87C3247
:101C400000F514703EF0FEB86840002073B5164CE5
:101C50000DF107014FF486703CF0A0FC214640F2E4
:101C60000B203CF081FC9DF80720206802EB42022B
:101C7000D200831800216360002647F057FA202025
:101C80002672FEF7C9FFA4F1140066723EF0DAF87E
:101C9000064B44F8043C4FF4807304F8086C44F895
:101CA0000C3C02B070BD00BF04430020B11C000119
:101CB00038B5104C0023D4F89C5284F8A5322B7808
:101CC00033B1013BDBB22B707BB92846FEF76EFEC9
:101CD000D4F8A0321835AB42F1D894F8A53243B904
:101CE0000548BDE838403EF0ADB8012384F8A53280
:101CF000EEE738BD68400020F042002013B5002315
:101D00000DF107014FF498708DF807303CF046FC58
:101D10009DF807308BB10A4C94F890238B2A05D19B
:101D2000084B43F203221A8045F0D0FD94F890331B
:101D30008A2B02D104483EF085F802B010BD00BFE6
:101D400068400020AC350020FC430020F8B5174C5B
:101D500094F82834042B0F4623D1D4F82C64156949
:101D60002EB9134B43F205521A8045F0AFFDBB79F3
:101D7000012B18D10F483EF065F894F82834042B55
:101D800007D16B782BB9AB780B4A03F0070382F8C5
:101D90005B306B78052284F8282416203374FFF713
:101DA000A5F80020F8BD0120FCE700BF6840002036
:101DB000AC35002098440020B833002003480123AC
:101DC00080F87C3200F514703EF012B868400020B4
:101DD000054B1A78D20705D5022283F87C22002011
:101DE000FFF784BBEAE700BF684000201E2810B55B
:101DF0000C4613D10B88B3F5005F0FD1FFF71CFF22
:101E000063681A68064BC3F85822012283F85C22E3
:101E1000044AC3F86022BDE81040CFE710BD00BF00
:101E200068400020D11D0001084831B9042380F822
:101E3000283400F586603DF0DBBFD0F82C34052255
:101E400080F8282419741620FFF750B86840002045
:101E50000B4881B9552380F81033012380F82033D3
:101E600042F21073C0F81C33064BC0F8243300F55F
:101E700045703DF0BDBF272380F81033704700BF89
:101E800068400020B108000107B54FF48A7001A92D
:101E90003CF084FB134B93F87A221946D2B193F8A5
:101EA0007B22013AD2B283F87B229AB1019858B1D1
:101EB0000122C3F86C0283F87C2203F519703DF00F
:101EC00097FF03B05DF804FB022283F87C22FFF742
:101ED0000DFBF6E743F69823C1F85832FFF76EFF83
:101EE000EFE700BF68400020194B70B5D3E9A74168
:101EF0000646002522784AB993F8A522B2B90122F4
:101F000083F8A52213483DF073FF0FE060780007C7
:101F100004D4D5B12878904288BF25461834A14210
:101F2000E8D885B12846FEF741FD2C46182200214D
:101F3000204647F0FBF84FF0000366F3C3036370DD
:101F4000272323702546284670BD2546E6E700BFB7
:101F500068400020F042002038B50D4CD4F8F45011
:101F60002846FEF755FFD4F8F83028359D42F7D3C0
:101F7000084BC4F814314FF40063C4F80C3100234B
:101F800084F810310448BDE838403DF031BF00BF4F
:101F900068400020618600016C41002010B50F4CA4
:101FA0001D2021463CF0FAFA2368B3B142F25D727B
:101FB00093420B489CBF42F25E732360012380F87A
:101FC000A033084BC0F8A4338A2380F89033BDE8CF
:101FD000104000F565703DF00BBF10BD04440020BB
:101FE00068400020057B000107B500230DF10701C3
:101FF0004FF498708DF807303CF0D0FA9DF8073018
:1020000053B1084B93F89033892B08D0064B4FF40B
:1020100048521A8045F048FC03B05DF804FBFFF716
:10202000BDFFF9E768400020AC35002008B5074B3C
:1020300093F890338B2B05D0054B43F202221A8084
:1020400045F044FCBDE80840A8E700BF6840002018
:10205000AC3500202DE9F0470D4691F820100172B3
:1020600090461E4642686B6A9342044608D20B446F
:102070009A4205D21A4B43F2A7121A8045F026FC69
:10208000227A696A606846F093FF04F11001606883
:10209000B5F808A095F82890277A95F92A50FEF708
:1020A00055FA94F824309DF8202084F82890FF1ADF
:1020B000237884F8257084F8295062F3000398F897
:1020C0000120A4F826A0520862F341039DF82420C1
:1020D00066F3C70362F382032370BDE8F08700BF95
:1020E000AC35002010B5074C002384F8883004F18B
:1020F0008000054BC4F88C3034F09CFA142384F82B
:10210000B93010BD68400020B19F0001036893F909
:102110001230002B05DA1323002180F841300846E5
:10212000E0E7122380F841300620FFF7DFB910B551
:102130001D4C94F82834D4F82C04012B224620D1CD
:102140002378DB0618D503790E2B03D8437913F0D7
:10215000FE0F09D0052382F82834C123037416200A
:10216000BDE81040FEF7C2BE022384F828341220D6
:10217000BDE81040FFF7BAB9052384F82834C2231C
:10218000ECE7052B0FD183680C30984704F22C4004
:1021900044F0D6FCD4F82C341BB1012384F8283445
:1021A000DDE784F8283410BD6840002010B5072012
:1021B000FFF75CF80446C0B10C4844F0C1FC04F1E0
:1021C0003503C4F81831037984F839310346803473
:1021D00043F80C4F826818469047054B5B6F23B15C
:1021E0001520BDE81040FEF781BE10BDDC40002088
:1021F0006840002070B5144D064605F57D70D5F891
:10220000F44344F09DFC114991F8403084F82230A9
:10221000D1E91223C4E90623B1F84230238484F8BB
:102220002360E36804F118009847D5F8F4333BB114
:10223000172385F8F0331320BDE87040FEF756BE33
:10224000162385F8F03370BD68400020B8330020B5
:10225000007810B9014BBD221A70CBE7684000200E
:1022600070B5244C04F56D70D4F8B45344F068FC98
:102270002378287913F0100FA5F1080623461AD009
:10228000042818D11C4B2A7C1A74682384F8B033B4
:102290001A4BC4F8D83306206F2304F57471C4F8C0
:1022A000B86384F8C8333CF079F904F57070BDE880
:1022B000704034F005BA062812D10F4A297C1174F7
:1022C000682283F8B0230D4AC3F8D8236F22C3F8DD
:1022D000B86383F8C8230A493CF060F90948E6E787
:1022E000C22385F8233005F11800EB68BDE8704083
:1022F000184700BF68400020B8330020F9270001CC
:10230000384400202844002038B51D4D284644F0AC
:1023100017FC2B79032B044605D01A4B43F2B41259
:102320001A8045F0D3FA2CB9164B43F2B5121A8035
:1023300045F0CCFAD4F8A0303BB9124B43F2B612B8
:102340001A80BDE8384045F0AFBA04F1A4009847C0
:1023500094F8B1301BB90C493C2040F0D1F90B493D
:102360003D2040F09BF90A4B9A6C22B10E20BDE84B
:102370003840FEF7BBBD412283F84C2038BD00BF7A
:10238000B0400020AC35002060130120D82F012080
:102390006840002070B5314C94F8C430E72B48D128
:1023A000D4F8C0502DB92E4B43F281021A8045F06B
:1023B0008DFA237813F0010F6B6A1FD01A6AAA6195
:1023C000002685F8206093F8242085F82120254AEE
:1023D00092F83F2085F822201022093385F8232027
:1023E000214A6B61EA61281D34F067F9237884F88B
:1023F000C5302670E82384F8C43070BDC3221A703B
:10240000E92384F8C430194844F09AFB054628B9FA
:10241000134B43F282021A8045F058FA686A836AC5
:102420006BB90F4B43F28302BDE870401A8045F050
:102430003BBAE92BE7D00A4B43F28602F4E7984710
:10244000D4F8C0303BB1E72384F8C4300D20BDE898
:102450007040FEF74BBD1323CDE700BF684000205E
:10246000AC350020B8330020B51000012841002011
:1024700073B5304890F810325D2B054632D10278A2
:10248000D0F81432D20714D5602280F810221B79BC
:10249000294AC0F83022003318BF0123412280F8B6
:1024A000202280F8283200F5067034F009F902B0D5
:1024B00070BDC2221A735E2380F810321F4C204672
:1024C00044F03EFB236806467BB1C22303735D23C1
:1024D00085F810320720FEF709FDB36806F10C00FD
:1024E0009847E4E75E2BE2D1E8E703795A1ED2B2BF
:1024F000FD2A0BD84FF47A72534304F12400E362AF
:102500003DF076FC4A2385F81032E6E7FF2B0FD129
:102510000DF107014FF495703CF040F89DF807303D
:10252000012B01D1064BE8E7022B01D1054BE4E773
:102530004823E8E768400020051400017C420020A1
:1025400000C8AF0030E003002DE9F041434CA4F592
:102550002077204644F0F4FA3B78DB07054676D531
:102560003F4EC188B6F84200D4E907321C782CB13E
:102570001C898C4202D19C88844207D01833934234
:10258000F4D30120FFF7B0FC044630B904236B7488
:10259000EB6805F1100098474DE02A79637862F303
:1025A00046136A7A62F304136370FF23E370B6F88C
:1025B0004230A380EB88238197F884325A1E0D2A7B
:1025C00041D996F83530013313F0FF034FF0010283
:1025D00014BF86F8353086F8352087F8842296F8BF
:1025E0003510262040F08CF896F835305A1E97F8B2
:1025F000843243EA0213A3722B7AE3724FF000088D
:1026000084F80C80B37C0133DBB2B37401216373B3
:1026100020462561FEF7A0FC124B598E4FF6FF7243
:10262000914208BFA3F832805A8E0F4901324520EB
:102630005A8640F065F8D7F880326BB10420BDE8C7
:10264000F041FEF753BC013387F88432CCE7C22354
:1026500000F8103FEB689EE7BDE8F081E8420020FB
:10266000B8330020601301209213012038B5104DBB
:102670002B7CC22B2C4618D105F1140044F060FAD3
:102680004368083098476B6963B1C1232B740123F9
:1026900084F82030074B6362074833F0CBFFC32335
:1026A000237401E019232B7438BDC12BFCD1EEE754
:1026B00068400020418D0001804000200178144BCB
:1026C000E12910B41846D3F8EC4217D193F8E92267
:1026D000032A13D80F490132B1F844000988A3F83E
:1026E000001383F8E922A421A3F8FA0283F8E81280
:1026F00003F53C705DF8044B33F0E8BFA52321736C
:1027000080F8E8325DF8044B0120FEF7EFBB00BF14
:1027100068400020B8330020027810B51AB1104686
:10272000BDE8104066E543782F4C502B3FD011D8C0
:10273000462B1ED04B2B33D0452B3ED1462384F85D
:1027400000340F2384F8083404F57E70BDE810408F
:1027500033F0B6BF532B14D06F2B1BD0522B2CD180
:10276000532384F80034214BB3F84230A4F80834E2
:10277000EAE7522384F800341C4B1B7CC3F3C003EC
:10278000E0E76F2304F58161062084F800343BF014
:1027900005FFD9E74B2384F80034144B1B88E5E789
:1027A000502384F80034114BB3F84430DEE70F4B6C
:1027B00084F8002493F84030C4E794F800348BB9CF
:1027C0000A4B0B481B7C13F0080F14BF6FF07F43BC
:1027D0000023C4F80034074BC4F80434BDE81040AB
:1027E00033F068BF10BD00BF68400020B833002040
:1027F0006044002051220001027812B11046FEF719
:10280000BDBB4378462B30D002D8452B22D0704731
:10281000522B33D06F2B43D12248692180F8B0135B
:10282000032180F8DC13D0F8B8130B6BC0F8D43355
:1028300091F8341080F8DD131B4980F8DF2391F8FC
:102840003F101A4A80F8DE13C0F8D82300F57070E4
:1028500033F033BF1348462380F8C8330F2380F882
:10286000D03300F5707033F02BBF0E48522380F840
:10287000C8330D4B1B7CC3F3C003F0E70A4B094878
:102880001B7C13F0080F14BF6FF07F430023C0F8C8
:10289000C833074BC0F8CC3300F5707033F00ABF73
:1028A000704700BF68400020B8330020D50F0001FA
:1028B0003529000170B51C4CD4F8745106462DB969
:1028C0001A4B43F2B1021A8045F000F805F11C03DF
:1028D0009E4205D0154B43F2B2021A8044F0F6FF37
:1028E00094F878315D2B05D0104B43F2B3021A8077
:1028F00044F0ECFF337863B96FF07F432B610C4BEE
:102900006B6105F1080033F0D5FE5E2384F8783161
:1029100070BD85F84C30582384F878310920BDE823
:102920007040FEF7E3BA00BF68400020AC350020DD
:1029300021110001007868B907486B2380F8B03393
:10294000064BC0F8CC33532380F8C83300F57070C1
:1029500033F06DBEFEF712BB684000206137000106
:10296000426810B4537813F0010108BF022180F8C7
:102970005410D478917841EA0421A0F856101179C6
:10298000527941EA0222A0F85820C28CA0F85A20BD
:1029900090F8252080F85C20C3F34003026A0266A9
:1029A00080F86C30028D064BA0F86420036700238A
:1029B00080F86D305DF8044B383009F0C7BE00BFB9
:1029C000AF340001F8B5394DD5F86C41062094F8C4
:1029D000B910FEF7B1FC2E46002862D00546B4F8C7
:1029E000B42015F8383B23F00703037094F8B8308F
:1029F000A0F856202E4A80F85430B2F84220A0F8B1
:102A0000582094F8B92080F85C20012BD4F8981055
:102A100094F8BD7080F86C700CBF09230823CB1AA2
:102A20005B7813F0040F436815BF1B33093303664B
:102A3000036614BF02F11B0302F10903037217B10D
:102A4000036E0E3303661B4B0367012380F86D3062
:102A5000006E46F0ADFA184844F072F80023A4F86E
:102A6000B030D4F89C30C4F8A83094F8BF308BB99B
:102A7000D4F8A03004F1A4009847284609F066FE77
:102A8000D6F86C315BB10F20FEF730FA8F2386F851
:102A90007031F8BD04F10800FEF706FDEDE78E2366
:102AA000F5E7902385F87031F3E700BF6840002018
:102AB000B8330020AF340001D4410020F0B5284DD8
:102AC000D5F80C4295F8086287B004EB861684B3FB
:102AD00041F64C57B44232D22178022931D1238CAD
:102AE000ADF80030D4E90623CDE90223ADF811108A
:102AF00063789B0712D595F87C32022B0ED0FFF736
:102B00009BF846F0B1FA80B2B0FBF7F307FB130372
:102B100017FA83F3C5F85832FFF750F963788DF848
:102B200010302046FEF734FE68460EF099FD403422
:102B3000D0E70C4B43F242021A8044F0B5FE07B0D6
:102B4000F0BD0329F3D1238AADF80030D4E9022384
:102B5000CDE90223637D8DF811108DF81230C7E79F
:102B600068400020AC35002010B5164A00230380D1
:102B700092F83B40017864F38501017004684FF6D8
:102B8000FC51214041F400710160B2F84210818093
:102B900092F83C104900FF2928BFFF218171917CE8
:102BA0000131C9B29174C17192F83610022904D171
:102BB00092F85B30003318BF0123427863F345126B
:102BC000427010BDB8330020F8B5C469174E0546F1
:102BD0002046B76FFFF7C8FF238823F4805323F004
:102BE000030343F4805343F0010323802FF06AF87A
:102BF000D0E90023E3603B8A63806378A2606FF3CF
:102C0000C30363700123A37146F2040323821223DA
:102C100085F830303B8AA5F888302B8502221823AE
:102C200085F8252086F8B930F8BD00BF684000203F
:102C3000F8B5C469204D06462046AF6FFFF794FFF4
:102C4000238823F4805323F0030343F4805343F099
:102C5000010323802FF036F8D0E900236361B5F833
:102C6000883063806378226143F008036370D5F88D
:102C70008030A360D5F88430E3600123A37144F26F
:102C800004032383FB7C002B14BFC0234023637603
:102C90003A7D12B143F020036376B5F8883033856E
:102CA0001A2386F8303095F88A3086F832301623A9
:102CB00085F8B930F8BD00BF68400020F8B5294B51
:102CC000D3F80C4293F80832064604EB8313A34270
:102CD00007D8254B43F243021A80BDE8F84044F080
:102CE000E3BD2778012F01D04034F0E7F56928468D
:102CF000FFF73AFF2B88627D23F4C05323F00303D0
:102D000043F4C05343F001032B806B7862F341031B
:102D10006B70638A6B80A368AB60E368EB60134BF6
:102D2000B3F84230AB802EF0CDFFD0E900236B61C9
:102D30000723AF712B76238AA5F81930237DEB7614
:102D4000638A2A6133856378746013F0080F4FF04B
:102D50001C0386F8303008BF0527042386F832703C
:102D60002370F8BD68400020AC350020B833002047
:102D7000F8B5C469194E1A4F05462046FFF7F4FE10
:102D80002388D6F88C2123F4C05323F0030343F4A3
:102D9000805343F001032380527B637862F3410345
:102DA0006370D6F890319B886380B7F84230A38077
:102DB0002EF088FFD0E90023A260E3600622012301
:102DC000A37122743A7C6274D6F89021928885F8B7
:102DD000323012232A8585F83030F8BD6840002053
:102DE000B83300202DE9F04FC4697F4E85B0074607
:102DF0002046FFF7B9FE238823F4805323F0030312
:102E000043F4805343F0010323802EF05BFFD0E9AD
:102E10000023E3606FF00303A3700333E370012327
:102E2000A371238AA26003F4FE4343F008032382C4
:102E30006E4BB6F878E2D6E93D12D3E9128900204C
:102E40004FF6F77A914273D31A2800F2908096F8E1
:102E50007A22637C002A40F0828023F0600343F0F2
:102E60006003637404F160030193D6F8F4300093B7
:102E7000D6F8F8300393D6F8FC3002935B4BB6F8E3
:102E8000785296F87AC2D3E9122304F112099B46CC
:102E90009246AE464B464FF00008009A0026039932
:102EA0008A42C0F0848026B3009AB5881D80B11A8A
:102EB0004F4AC9105143029A02EBC1019A788879AE
:102EC0008979C0F3C20060F30202C1F3020161F329
:102ED000061202F07702BCF1000F9A701CBFAE46DA
:102EE000E0465207019A18BF033301359A42ADB24A
:102EF000D3D8B8F1000F02D03B4AA2F878E2A3EB96
:102F000009093C4B627C03FB09F363F3040262741E
:102F1000BCF1000F02D1344AA2F878C203F01F03BB
:102F200003EB4303123387F8303005B0BDE8F08F70
:102F30000B78062B11D04D78022D0ED0D1E904BCB0
:102F4000E14508BFD84508D18B88534505D8012DE8
:102F500003D19E459CBF0130C0B2283172E70022E8
:102F600023F0600386F87A2243F0400379E796F86D
:102F70007A521DB1637C23F0600372E71E4940F270
:102F800013103BF00BFB96F87B32012B637C23F094
:102F900060031BBF43F02003637443F0600301230D
:102FA0000ABF637486F87A3286F87A525AE7117843
:102FB000062914D05178022911D0D2E904018B4599
:102FC00008BF82450BD191884FF6F770814206D831
:102FD0008D4204D82EB1B088884288BF1646283268
:102FE0005DE71646FBE700BF68400020B8330020CD
:102FF000CDCCCCCCABAAAAAAE34200202DE9F0416B
:10300000C469204DDFF88080AF6F06462046FFF789
:10301000ABFD238823F4805323F0030343F4805350
:1030200043F0010323802EF04DFED0E90023E3603E
:103030006FF00203A3700233E370A260E179B8F885
:103040004200FEF7DFFB63786FF3C3036370012375
:10305000A3714FF00403238298F83630022B03D07B
:10306000FB7C0BB1802363743B7D1BB1637C43F01D
:1030700020036374122386F83030132385F8B930A7
:10308000BDE8F08168400020B8330020F8B52A4B35
:10309000C469D3F8485493F8442406460023934265
:1030A0000BD12046FFF760FD2278012363F3010274
:1030B000A371002322705B88FFDE2F78012F03D0DD
:1030C00001331835DBB2EAE72046FFF74DFDA77163
:1030D0006B886380238823F4805323F0030343F435
:1030E000805343F0010323802EF0ECFDD0E9002350
:1030F00063616378226143F008036370AB68A36087
:10310000EB68E3600C2323766B7863760B4B93F8C4
:103110005B20A37E510862F3000361F34103A376B1
:103120001B2386F8303075600223AA742B70A37EAF
:103130006FF3C703A376F8BD68400020B8330020C2
:1031400038B5C46905462046FFF70EFD238823F4F1
:10315000805323F0030343F4805343F0010323809F
:103160002EF0B0FDD0E90023E3604FF0FF33A370F1
:10317000E3706378A2606FF3C30363700B4B9A6CC8
:10318000C4F81220DA6CC4F816201B7EA3764FF424
:1031900085732382064BB3F86A23A4F81B201D22F3
:1031A00085F83020852283F8682338BDB8330020A5
:1031B0006840002030B5134C002384F8B83094F8F0
:1031C000AD3085B02546BBB904F1A0002EF086FDD8
:1031D00020B9D4E9282352EA03010FD10A49002279
:1031E0000023C1E9122395F8AC108DF80810684649
:1031F000CDE900230EF090FA05B030BD94F8AC1084
:10320000F3E700BF68400020B83300202DE9F04FFD
:10321000724A90F88E3090F88A80C46902EB0313EA
:1032200085B01B7B8DF80B3008F1FF3305460F4648
:103230000192092B14D8DFE803F0B31305131334FC
:1032400034131334E1290BD000296288ADF80C2027
:103250000CBF1323092303A88DF80E300EF0DAFA01
:103260005F4B93F83620022A07D06278D10740F1ED
:10327000A580227A920700F0A78095F88E30019AF7
:1032800002EB03139B6813B13946284698479DF813
:103290000B301BB1A5F18000FEF762F905B0BDE867
:1032A000F08FB4F802B061781FFA8BF601F00101DB
:1032B0003046FDF7DBFB0346002847D04279BFB913
:1032C000FF2A12D1474AD2F8A832B2F8AC22C2EB98
:1032D000C2021A441979C90741BF59794908013115
:1032E000597107339342F5D3BAE701324271B7E718
:1032F00052B13C4991F8AE1242FA01F111F0FF01CE
:1033000008BF0121521A42715A791979003218BF47
:10331000012262F300011971314AB4F804A0B2F835
:1033200042201FFA8AF082429AD02278920797D1DF
:1033300013B11B79DB0793D4B8F1060F09D1002331
:10334000B5F888203146FEF7A9F989E7002F87D024
:10335000E2E7244E96F8D582B8F1000F80D1B5F897
:1033600088902A8D034649464046FDF72DFC0028EB
:103370003FF476AF0C2386F8D2328388A6F8C832A1
:103380000123A6F8C4B2A6F8C6A2A6F8CA9286F887
:10339000CC8286F8D53206F52F70FEF711F95FE77B
:1033A000B0F888206188A0880023FEF777F961785B
:1033B000608801F00101FDF775FB51E761884FF668
:1033C000F77291423FF659AF5A8801325A80002F66
:1033D0003FF453AF9A8801329A804EE72CB603012E
:1033E000B83300206840002017B441688A79013A58
:1033F000D3B28B71027812F0010202D01A1C18BFEE
:103400000122037862F300030370DBB2DA0748D5C8
:10341000C269A2B31A2262F3C7030370037A8DF85C
:10342000003003780191C3F3C4038DF80130C38CDD
:10343000ADF80230019B5A786FF345125A709DF82F
:10344000013080F88E309DF8003080F83030019BDC
:1034500090F88F20C361BDF80230A0F888300023B7
:1034600063F34102436480F84030C0E9123383873C
:1034700080F88F2003B05DF8044BFEF715B80A788A
:1034800002F00302012AC9D1026A1478052C01D185
:103490001B22C0E7032CC1D152780C2ABED11C22BA
:1034A000B9E7803803B05DF8044BFEF759B810F85F
:1034B000743CDB0701D5743896E7F438FEF750B852
:1034C00038B5114C20460D4643F03AFB034642689E
:1034D00003F8155F1846904723688BB120222277A6
:1034E0009A7D0C2A0AD018894FF6F77398428CBF40
:1034F00001200220BDE83840FDF7F8BF1020F9E7B1
:103500007823237738BD00BF2043002030B590F8E2
:103510003030722B8BB004461AD86946C069FDF76B
:1035200015F8049B9DF81420587894F83010023256
:1035300045002A448A420BD10130074A58702B4477
:10354000B2F842205A80023184F830100BB030BDFE
:10355000752384F83030F9E7B83300200848037841
:10356000DB0705D5022380F87C320020FDF7BEBFC3
:10357000012380F87C3200F519703CF039BC00BFA3
:10358000684000202DE9F041537D05460C46164663
:103590007BB101784F1EFBB20B2B0AD862884FF625
:1035A000F7739A4208D8124B03EB8703D3F8103213
:1035B000BBB90020BDE8F081082904D84FF4897315
:1035C000CB40DB07EFD40B4BA088B3F842308342EB
:1035D000EFD0E179FEF716F900F0FD000128E2D006
:1035E000E7E732462146681CBDE8F041184700BFB6
:1035F0002CB60301B833002008B550F80C3C40F855
:10360000503C037900F83C3C0378ABB9124B30F8DE
:103610004C2CB3F844309A4204D16438BDE80840D9
:1036200033F057B8A0F16C010C4843F065FA032061
:10363000BDE80840FDF75ABC022B08D009D3042B83
:103640008CBFC321CE216C38BDE80840DEE5CC211B
:10365000F9E7C321F7E700BFB8330020AC400020F2
:1036600010B5194B93F80031994294BF5B1ADB1ADD
:10367000DBB29842154B06D393F8282002F07B0268
:1036800083F8282010BD5C7EA20718D493F8502040
:103690008A4294BF0021012193F8282061F382021D
:1036A00083F82820E2070CD493F85120824294BF7B
:1036B0000020012093F8282060F3C712E0E70021E2
:1036C000EAE70020F6E700BF68400020B83300209A
:1036D0000C4A10B4D2E93D34002108461A78062A73
:1036E0000AD002F0FB02012A06D15A78022A0BBF47
:1036F00001300131C0B2C9B228339C42EED85DF826
:10370000044BADE768400020144B002293F83A10B8
:1037100083F8262093F8272061F3030293F83B10E7
:1037200061F3071283F8272093F82820597C02F0D0
:10373000FC0261F3C60283F828209A6CC3F82920A2
:10374000DA6CC3F82D20FF2283F8312002F57F4286
:103750005A861A7E83F83420BAE700BFB8330020B7
:1037600038B5057825B12846BDE83840FDF706BCD8
:103770004478502C17D0532C07D04B2C1ED11C4B07
:1037800002891A801B48502305E0194B0289194809
:10379000A3F842204B2380F8C83300F57070BDE8D1
:1037A000384032F044BF1249038921F8443F1720C2
:1037B0003AF020FF0F4880F8C853EEE7B4B90C4D3B
:1037C000037A2946162001F8403F3AF013FFFFF72D
:1037D0009BFF084B2046BD221A70FDF7CFFB95F8E2
:1037E00040102420BDE838403EF08ABF38BD00BFFD
:1037F000B833002068400020F8B5454DD5F8744135
:10380000064604F108072CB9424B43F2AE021A8077
:1038100044F05CF804F124039E4205D03D4B43F292
:10382000AF021A8044F052F833784BB184F84C3030
:10383000582385F878310920BDE8F840FDF756BBDC
:1038400095F87831593B072B5AD8DFE803F0041B71
:10385000353B595944156F23237404F11801062090
:103860003AF09CFE602385F878312B4B2362384672
:10387000BDE8F84032F024BF462323740F2323769B
:103880005A23F0E7254E002306F1480133207374D4
:103890003AF084FED6E91223134305D12EF012FA32
:1038A000D0E90023C6E91223FFF72EFF4523237436
:1038B0001B4BA3615B23D6E752232374012323769A
:1038C0005C23D0E78323237404F1180108203AF025
:1038D00065FE5F23C7E7114BB3F84420228293F8BB
:1038E0004020A27493F83F30E3740123A3820D4B70
:1038F000A361384632F0E7FE5D2385F87831F8BDE4
:10390000044B43F2B0021A80BDE8F84043F0CCBF4C
:1039100068400020AC350020F9370001B8330020A2
:10392000DE330020B528000173B52A4C00250DF1C7
:10393000070140F207108DF807503AF02FFE9DF86E
:10394000073084F83C3004F150014FF483703AF0B2
:1039500025FE0DF1070140F205103AF01FFE94F824
:1039600050209DF807309A4239BF9B1A84F8513095
:1039700084F8503084F851500226FFF7A9FE0DF16B
:10398000070119208DF807603AF008FE9DF807300E
:1039900084F8373094F836300F499B1B18BF012349
:1039A000222084F85B303AF0F9FD0C4B43F60950C5
:1039B00093F832502EF0A0F906FB05054FF4006095
:1039C0002EF09AF905EB500094F83C5045436561A0
:1039D00002B070BDB833002014340020F032002053
:1039E00038B51A4C2378DB062AD5194DD4F8F433B0
:1039F00018221B7C84F8F02305F1440117202B7456
:103A00003AF0CCFD05F1400116203AF0C7FDFFF772
:103A10008BFFFFF779FE0F4BC4F81034452384F871
:103A2000003404F57E7005F12603C4F8083432F042
:103A300047FE95F840102420BDE838403EF060BEB7
:103A4000C220BDE83840FEF7D5BB00BF684000206B
:103A5000B83300201927000138B5204C94F8E8321B
:103A6000A32B34D1D4F8EC3200221A732278D20777
:103A70005CBFC2221A731A79AAB1C1221A73A52394
:103A800084F8E832164D284643F05AF883680C3023
:103A900098472B68F3B1A32384F8E8320120BDE8EE
:103AA0003840FDF723BA1B7B002BE8D10D4B0E48A5
:103AB000B3F844201B88A4F800334FF4D273A4F861
:103AC000FA22A4F8E832BDE8384032F0FFBDA52B59
:103AD000D8D038BD312384F8E832FAE768400020B6
:103AE00054430020B83300205843002010B5114C37
:103AF000F1B9114BB4F86A131A7E84F83C230F4ACB
:103B00005B69C4F84023192284F83823C4F8503381
:103B100001220B4BC4F8583304F55270A4F83A1341
:103B200084F854233CF064F9862384F8683310BD8C
:103B3000FB23FAE768400020B83300202D0600017F
:103B40004D0C00011F49C888B1F8423098422DE958
:103B5000704334D01C4B93F8380392282DD1507DFC
:103B60000D282AD11269567816F0E00025D1012ED1
:103B700023D1D1E91245D2F80690D2F802804D4502
:103B800008BF44451CD1D47A957A127BC3F8400310
:103B900044EA0222A3F83A23192283F838234A6917
:103BA000C3F85023094A83F83C5383F85463C3F89D
:103BB000582303F552703CF01BF9012000E000206F
:103BC000BDE87083B8330020684000204D0C000130
:103BD0002DE9704316460C46FCF78EFF144B93F804
:103BE0002024824203D800233360012017E0D3F859
:103BF000243400B2C0EBC00003EB800010F1140FBE
:103C00004FF000033360F0D0D4E900894369D3E971
:103C10000045A94508BFA04503D133600020BDE899
:103C20007083826910339A42F1D80220F7E700BF0F
:103C30006840002030B58BB043680593044690F887
:103C400024308DF8183005A83EF0B6F80799002901
:103C500051D0089B002B4ED094F824200244207AA7
:103C6000824248DC1A680D685B68CDE902236B1C50
:103C700033D001AA02A99DF81900FFF7A9FF012876
:103C80002BD0019B13B19B689D4226D99DF819004A
:103C9000FCF74AFF206470B31A4B93F8533084F852
:103CA0004430089B1A685B68C4E90C2304F13003B4
:103CB000A3646368E36494F8243084F85030237A72
:103CC00084F85130104B6365002384F8523004F1BE
:103CD00038003EF065F80BB030BD9DF81900FCF7D8
:103CE00023FFE38CADF8043050B9162301A88DF8FA
:103CF00006300DF08FFDA4F18000FDF731FCEAE7FE
:103D00001123F3E7B8330020799E00012DE9F04F2D
:103D10008C4F97F87831D7F8744185B0562B06460A
:103D2000009705D0884B43F2AB021A8043F0CEFDDA
:103D30002CB9854B43F2AC021A8043F0C7FD04F165
:103D400010039E4205D0804B43F2AD021A8043F02F
:103D5000BDFD337923B103F0EF02EA2A40F0E7809A
:103D60003268E3699343019300F0E080D6F808C01D
:103D7000F5790CF1040A504600224FF6FF7E954279
:103D80000DD1FF25A846A94600234FF0010C01994B
:103D900011EA0C0F40D00020D646014631E0B0F8C1
:103DA0000080F04503D10132D2B21830E7E7531C4E
:103DB000DBB203EB430190F80C900CEBC1019D4288
:103DC000F1D09A4209D0B1F804B0C34505D191F8B9
:103DD00010B0CB4508BFA1F804E00133DBB21831C5
:103DE000EDE79EF80CB09B4507D1BEF800B04FF64A
:103DF000FF77BB451CBF0131C9B20130C0B20EF123
:103E0000180E9042EDD119B91CF4C30F65D1984634
:103E100049453CBF89461D460133DBB2202B4FEAA2
:103E20004C0CB4D1B8F1FF0F59D1FF2D05D1464B41
:103E300043F2B8021A8043F037FDDFF814B10023D3
:103E40008BF840500DF10D011820D6F8089096F827
:103E500007A08DF80D303AF0A1FB9DF80D805E466D
:103E6000B8F1000F42D145F0FFF880B20AF1010B22
:103E7000ADF80E0043464FF6FF71884204BF4FF085
:103E80000108002009F1040C002292450BD09CF897
:103E90000CE0AE4525D1BCF800E0864521D10130CB
:103EA00080B24FF0010801339BB29B45E5D8B8F1D1
:103EB000000F01D0ADF80E00BDF80E30A6F844306A
:103EC0004FF6FF72934217D11F4B43F2B9021A808B
:103ED00043F0EAFC05B0BDE8F08F1D46ADE745466E
:103EE000ABE70132D2B20CF1180CCEE70DF10E01A6
:103EF00017203AF053FBDFE794F8453004F108004F
:103F00000BB1B4F84630A6F8423023830F4B23623E
:103F1000009A53232374592382F8783132F0D0FB6E
:103F200096F8401024203EF0EBFBD3E7C423009A20
:103F300084F84C30582382F878310920FCF7D6FFFA
:103F4000C8E700BF68400020AC350020F937000109
:103F5000B8330020014BB3F842007047B83300205B
:103F600070B50B4C94F830500E467DB95323237630
:103F70002084084BA36204F1100032F0A1FB01235E
:103F800084F8303084F83160284670BDC320FCE7E7
:103F900060130120810D0001014B93F83900704737
:103FA000B833002008B5FCF759FA18B103786FF35D
:103FB0000003037008BD08B5FCF750FA003018BFC5
:103FC000012008BD08B50146034842F095FD1120C7
:103FD000BDE80840FCF78ABF4043002010B5014609
:103FE00038B90F4B43F2D002BDE810401A8043F0BD
:103FF0005BBC0C4C204642F07FFD2379D62B06D1CA
:10400000702323710820BDE81040FCF76FBF703BA0
:10401000022B03D9024B43F2D102E5E710BD00BFEA
:10402000AC350020A040002070B5494C94F8003217
:10403000212B254640F0868004F5C47042F080FDB7
:10404000A0F10803C4F88C31424B027C1A74FFF7CC
:104050006BFC2378DB062BD5D4F88C311A7B023A23
:10406000012A25D8322284F80022227093F83420C5
:1040700084F8FD211A6BC4F8F4210022C4F8F02161
:1040800084F8EE219B7B344AC4F8F821012284F89D
:10409000FC212BB104F5E470BDE87040FFF79EBF32
:1040A00084F8EC3104F5F670BDE87040FDF798B87F
:1040B000D5F88C31C22283F82B20222385F80032D8
:1040C000244CD5F88C11B4F842300B85D1E900238B
:1040D000C1E9082391F82B6094F8403081F82A3028
:1040E000F6B9D5F89031D3E9042304F1440117203F
:1040F000C4E912233AF07EFA04F1400116203AF0A6
:1041000079FAFFF701FBBD232B70637CD5F8902172
:10411000C3EBC303DBB2928831463046FCF7CBFCDD
:10412000D5F88C014369203098470023C5F89031B9
:10413000D5F888314BB10A20FCF7D8FE212385F849
:10414000003201E0222BBBD070BDDA23F7E700BFBD
:1041500068400020B8330020E1110001004870479A
:10416000B4440020014BD3F84C0470476840002051
:10417000014BD3F85004704768400020014B93F87E
:10418000540470476840002010B5084CD4F84C34F3
:104190002BB118461822002144F0C8FF0346D4F87A
:1041A000502418339A42F3D810BD00BF6840002055
:1041B00010B5014638B90F4B4FF44252BDE81040DC
:1041C0001A8043F071BB0C4C204642F095FC2379D9
:1041D000132B06D1E72323710D20BDE81040FCF717
:1041E00085BE1933DBB2022B03D9024B43F28A029C
:1041F000E4E710BDAC3500202841002010B5014691
:1042000038B90F4B43F2A002BDE810401A8043F0CA
:104210004BBB0C4C204642F06FFC2379B72B06D1E8
:10422000542323710920BDE81040FCF75FBE543BC6
:104230000C2B03D9024B43F2BC02E5E710BD00BFD3
:10424000AC350020DC4100204B1EDBB2FD2B10B54D
:1042500007D90D4B43F2A0421A8043F025FB002002
:104260000DE00A4AD2F81834D2F81C241C783CB964
:1042700058801970014611203EF042FA012010BD0D
:1042800004339A42F2D8EAE7AC35002068400020B7
:10429000F8B507460E4639B9104B43F2A1421A80D1
:1042A00043F002FB3046F8BD0D4DD5F81844002010
:1042B00023786BB16288BA420AD1FF2E01D0B34293
:1042C00006D100231120237039463EF019FA01204F
:1042D000D5F81C340434A342EAD8E4E7AC35002016
:1042E0006840002073B5064640B9104B43F2A34224
:1042F0001A8043F0D9FA304602B070BD0C4DD5F8A3
:1043000018440020FF2E02D02378B34208D123683E
:104310000193122001A93EF0F3F90023237001203C
:10432000D5F81C340434A342ECD8E5E7AC350020C2
:104330006840002038B50C4639B90E4B43F2A24212
:104340001A8043F0B1FA002038BD0B4AD2F8183475
:10435000D2F81C141A7832B15D88854203D1FF2C43
:1043600005D0A24203D004339942F3D8EBE70120F1
:10437000EAE700BFAC35002068400020064AD2F8CA
:104380001834D2F81C240020197809B90130C0B2C1
:1043900004339A42F8D8704768400020084B30B187
:1043A0000430D3F81C34984204D300207047D3F86B
:1043B0001804F6E70278002AF8D10430F3E700BFCA
:1043C0006840002013B50B4C0DF1070140F21510A9
:1043D0003AF0E4F8214640F211203AF0C5F89DF891
:1043E00007202068920083180021636044F09EFE3D
:1043F00002B010BD80440020014B83F85B00704781
:10440000B8330020014B83F85C007047B8330020BC
:10441000014B93F85B007047B8330020014B83F8E1
:104420005B007047B8330020014B93F85C00704785
:10443000B8330020014B1888704700BFB833002004
:10444000014BB3F844007047B8330020014BA3F888
:1044500044007047B8330020014BD3E91201704784
:10446000B8330020D0E90001014BC3E912017047C5
:10447000B8330020014B93F836007047B833002062
:10448000014B93F840007047B8330020034B0146BE
:1044900083F8400024203EF033B900BFB833002039
:1044A000014B5869704700BFB8330020014BD888D2
:1044B000704700BFB8330020014BD880704700BF61
:1044C000B833002008B5054B0146187622203EF08F
:1044D00017F9BDE80840FFF717B900BFB83300204F
:1044E00073B50578124CCDB9124EB4F83A33A6F82C
:1044F0004430FDF751FA06F1440117203AF07AF8FA
:1045000094F83C03FFF7DEFFFFF7FEF80F2301A846
:10451000ADF804508DF806300DF07CF9922384F844
:104520003833D4F8403303B1984702B070BD00BFB0
:1045300068400020B833002038B503791F4C054689
:104540008BB103F0EF03EA2B0DD01D4B187E013029
:10455000C0B2FFF7B7FF842384F868330920BDE8B1
:104560003840FCF7C3BFEA79B4F86C339B1A9BB2AE
:10457000A4F86C336BB144F077FDB4F86C2380B2CF
:10458000B0FBF2F302FB1303B4F86A030344A4F88C
:104590006A330023EA799A42D7D9AA68B4F86A0341
:1045A00003EB430102EBC10201339288824204BF54
:1045B0000132A4F86A23DBB2ECE700BF68400020B8
:1045C000B8330020014B187E704700BFB83300207D
:1045D000014B83F838007047B8330020014B93F843
:1045E0003B007047B8330020014B5888704700BF2C
:1045F000B8330020014B9888704700BFB8330020C3
:10460000024B0022C3F80220704700BFB8330020DD
:10461000014B9876704700BFB8330020084B1B7ED3
:10462000C21A002AB8BF5242C72A04DC984294BF7B
:1046300000200120704798428CBF00200120704765
:10464000B83300200A4B1B7E98420FD0C21A002AB2
:10465000B8BF5242C72A04DC984294BF0020012010
:10466000704798428CBF002001207047012070479E
:10467000B83300202DE9F8432F4BD3F8F440064619
:104680000F469046002599462378062B41D0637843
:10469000022B3ED056EA070309D0D4E90423BB42DB
:1046A00008BFB24235D1607EFFF7CCFF88B3A37E4E
:1046B000B8F1000F35D013F0040F2AD0002D38D0F8
:1046C000D9F8F4201D48D9F8FC10A31AAA1ADB1057
:1046D000D2104243434301EBC30301EBC2011B79F8
:1046E00009796A7E591A637E93420AD0981A002883
:1046F000B8BF4042C72817DC93428CBF0023012378
:104700003BB9193105DB44F0AFFC10F0080F08BFCE
:104710002546D9F8F83028349C42B5D32846BDE860
:10472000F88313F0020FC8E7934294BF00230123DC
:10473000E6E72546EDE700BF68400020CDCCCCCCB5
:1047400010B5164CD4F88C310122D3E90001FFF7E3
:1047500091FFC4F89001B0B1002384F80132104AEF
:10476000C388A2F84430A4F8D83150220D4BC4F8C5
:10477000E03104F5E47084F8D02131F0A1FF292361
:1047800084F8003210BDD4F88C31C32283F82B207A
:104790000A20FCF7ABFB2223F2E700BF68400020B1
:1047A000B83300206552000110B50F4C99B9D4F808
:1047B0009C3103F51173C4F89C310C4BC4F8A4313F
:1047C00004F5CA70012384F8A0313BF011FB2D23BE
:1047D00084F8003210BDD4F890319A7E6FF38202D3
:1047E0009A76BDE81040ABE768400020F147000131
:1047F0000F4B10481B7C13F0080F11D1022380F8D7
:10480000B031D0F89031DA889B88A0F8B8310A4BE3
:10481000A0F8B221C0F8C03100F5D47031F056BF15
:10482000D0F890319A7E6FF382029A7688E700BFC3
:10483000B8330020684000208981000180E70B4ADE
:1048400092F801320133DBB2022B82F8013206D931
:10485000D2F890319A7E6FF382029A7670E728231D
:1048600082F800320320FCF741BE00BF6840002000
:1048700010B50378174CD4F88C2143B182F82B3053
:104880000A20FCF733FB222384F8003210BD117B91
:10489000032915D1104B1B7C13F0080304D1C4F875
:1048A0009C31BDE81040CAE7812384F8D03104F57B
:1048B000E4700A4BC4F8D43131F0B9FE2B23E3E79E
:1048C00082F82B30222384F800320A20BDE8104001
:1048D000FCF70CBB68400020B8330020E148000121
:1048E000037810B5094C2BB98368C4F89C31BDE836
:1048F0001040A4E7D4F88C210A2082F82B30FCF772
:10490000F5FA222384F8003210BD00BF6840002071
:10491000F8B58B79012B0F46164654D18C68CD68BB
:104920002DF0D0F9D0E900239D4208BF94424AD12E
:10493000384D95F80032A3F12C02012A2C464DD8AF
:1049400005F5CA703BF07EFAB7F819204FF6FF73F1
:1049500093423AD0FB7E002B37D1D5F88C112E4DE7
:1049600081F82B30A5F84220D4F890219188298035
:10497000D17885F840101370137E507E0133DBB27E
:104980000F2B28BF0F236B74FFF79CFD73682BB1AF
:104990001968D4F890215B68C2E90213532384F8A4
:1049A000D031B5F84230A4F8D8311C4BC4F8E0310E
:1049B0001B4831F085FE2E2384F8003295F8401014
:1049C00024203DF09DFE0120F8BDD4F890319A7E60
:1049D0006FF382029A76FFF7B3FEF4E7DA2BF2D197
:1049E0000D4A92F83630022BEDD1B7F81930A2F803
:1049F0004230A5F8D8315322084BC5F8E03185F88C
:104A0000D02105F5E47031F05BFE312385F80032EA
:104A1000D9E700BF68400020B8330020655200018C
:104A20003042002010B51D4CD4F88C310022D3E95F
:104A30000001FFF71FFEC4F8900108B3002384F8BB
:104A40000132174B93F83F2084F8D121C27884F8C3
:104A5000D02102221B7C84F8D221C288A4F8D42160
:104A6000828884F8E03104F5E4700E4BC4F8E43138
:104A7000A4F8D82131F0D2FD232384F8003210BDF0
:104A8000D4F88C31CA2283F82B20222384F80032F8
:104A90000A20BDE81040FCF729BA00BF684000209A
:104AA000B8330020D9610001024B00229A705A608D
:104AB0001A8170476013012010B5FFF7F5FF3BF036
:104AC000DDF9054C6063383420463BF0BBF92046E5
:104AD000BDE810403BF08CB96013012010F0FB0FD3
:104AE00003D1074B01221A757047052801D00E2803
:104AF00004D1034B00221A75FFF7DEBF704700BFD9
:104B0000D82F01200048704762130120044B054A4A
:104B10001A64012283F84420034A9A64704700BF54
:104B200060130120A075E900B94A000108B53BF007
:104B3000A5F9064B5B6BC01A054B984297BF4EF622
:104B40006023FF20B0FBF3F0C0B208BD601301206A
:104B50009F75E900037B03F0FD02042A10B50146AE
:104B600003D1BDE81040FCF7FABD012B01F10801AB
:104B7000104C0FD104F57D7041F0BEFF94F8F03376
:104B8000162B15D1172384F8F0331320BDE81040FD
:104B9000FCF7ACB904F5C47041F0AEFF94F80032F4
:104BA000DA2B05D10A20FCF7A1F9212384F8003281
:104BB00010BD00BF6840002008B50146084841F01C
:104BC0009BFF084B93F8B920E62A07D1112283F8FE
:104BD000B9200C20BDE80840FCF788B908BD00BF2B
:104BE000E04000206840002038B5164B164993F885
:104BF000B8501C462DBB022A1AD1A3F8A8000123E5
:104C000084F8AD3000220023C4E9282391F8403213
:104C100084F8AA304FF48073A4F8AB300B4BC4F87F
:104C2000B0300B48FFF7C8FF012384F8B83008E024
:104C3000032AE7D100200021C3E92801012283F8DB
:104C4000AD2038BD684000202CB60301B53100010D
:104C50000041002010B50E4C94F8B830B3B90022D2
:104C60000023C4E928230B4B84F8AC0093F84032AE
:104C700084F8AA3004F19800074BC4F8B03084F8E7
:104C8000AB10FFF799FF012384F8B83010BD00BFC7
:104C9000684000202CB60301B531000110B4094C66
:104CA000094AD4F8F430C31ADB105A43D4F8FC3064
:104CB0005DF8044B03EBC2039A7961F302029A7127
:104CC000FCF7A6B868400020CDCCCCCC10B5074C82
:104CD00094F87C32022B08D0FCF7AEFF012384F855
:104CE0007C32BDE81040FDF773B810BD684000206D
:104CF00010B5084C0146204641F0FEFE23798E2B6C
:104D000006D18F2323710F20BDE81040FCF7EEB8C9
:104D100010BD00BFD44100204FF6FF7398420D4AEA
:104D20001ABF013080B20020B2F8AC12D2F8A8222B
:104D3000C0EBC0031344814202D84FF6FF707047A6
:104D40001A7902F00502052A03F10703F7D00130B2
:104D500080B2F0E768400020034BC0EBC000D3F8FE
:104D6000A832185A704700BF68400020034BD3F8A0
:104D7000A832C0EBC0000344588870476840002048
:104D800001460A203DF050BC01460A203DF086BC99
:104D90000C4B30B12830D3F8F820904204D30020D7
:104DA0007047D3F8F400F6E7037803F0FB03012B18
:104DB00005D14378022B02D183888B42F0D1283071
:104DC000EBE700BF6840002010B50B4A0B49D2F852
:104DD000F430B1F84410D2F8F8201C78062C05D035
:104DE0009C88844202D1DC888C4203D028339A42CA
:104DF000F3D80023184610BD68400020B8330020C7
:104E0000F8B5264AD2E93A35EB1A92F80051013545
:104E100005EB23150E46ADB204464FF6F677631E3A
:104E20009BB2BB4288BF01241D4BB3F84230A34262
:104E300013D02046FBF72AFB18BB2046FFF7C4FF20
:104E400038B1D0E90201D6E90023994208BF904267
:104E500008D12046F8BD1D46E1E730462CF03EFF64
:104E60000028E6D101346B1EA4B29BB2002DF2D112
:104E70000C4B43F206021A804FF6FF7442F014FD09
:104E8000E7E703789B07EDD4D0E90201D6E90023D8
:104E9000994208BF9042E5D1CFE700BF68400020AB
:104EA000B8330020AC35002010B586B0CDE9002322
:104EB0002023ADF80C300DF10A03ADF80A1004936D
:104EC0000C46002303A91E2005933DF019FC059B09
:104ED00043B1BDF80A006946FFF792FF0446204639
:104EE00006B010BD0C4B93F83920002AF7D193F887
:104EF0003730022B09D14FF6F7739C4202D944F0A8
:104F0000B3F884B269462046E6E7032B0CBFBDF830
:104F100000404FF6FF74E2E7B833002038B50122B5
:104F20000546D0E90201FCF78DFA0446D8B1AA7E05
:104F3000637862F3C30363700020AB8863822075DB
:104F4000D5E902234FF6FE71FFF7AEFFD5E9022344
:104F5000C4E9022301232082637523700420BDE885
:104F60003840FCF7C3BA38BDF7B5514C227812F07F
:104F7000400F0F46254612D094F85221AA2A10D08D
:104F8000B4F8502182420AD14A4B84F85411B3F844
:104F90004230934214BF0123002384F8533103B0FD
:104FA000F0BD444EA4F85001B6F8422084F85411E4
:104FB000824296F836204FD1002AF0D0022A03D040
:104FC00096F83730022B25D0D6E91223C5E94623BF
:104FD0000323A5F824310DF10701292039F0DEFA69
:104FE0009DF8072001230AB185F8253196F8402065
:104FF00085F826319340C5F84831082385F84C31AF
:105000002D4BC5F82C31452385F852312B48FFF73D
:10501000A1FDC4E7012AC2D12CF054FE4FF6FE7167
:10502000D0E900230120FFF73FFFB6F8423083426A
:10503000F2D04FF6F7739842B1D8532385F8203158
:105040001F4BC5F830314423A5F8280185F85231AB
:105050001A4831F035FBA2E7022AA0D0C9B10D22CF
:10506000184B84F82E21C4F81C314FF6FD72002332
:10507000A4F82021A4F82201023284F8283104F592
:105080008C704623A4F8242184F85231FCF798FA56
:1050900085E7FBF73DFB002881D0472284F85221A9
:1050A000827E67F3C3028276FFF738FF77E700BF9F
:1050B00068400020B83300204910000180410020E2
:1050C000FD150001FD510001024B0021B3F8420023
:1050D0004AE700BFB833002030B5274B1B78DB0709
:1050E00087B008D5537D042B05D1146965780B2D45
:1050F00016D003D85DB1012007B030BD0C2D25D0EE
:105100000D2DF8D100216088FFF72EFFF3E76088AE
:105110004FF6F7739842EED82946FBF7C3FCEAE74F
:1051200001238DF804306388ADF805308B88ADF825
:1051300007303E2001A93DF0E3FA6088FBF7D4FB7D
:105140000028D8D04FF6FF730380D4E702238DF8F0
:1051500004308B88ADF8053001A93E203DF0D0FA2F
:10516000A378E2788DF8025043EA02236846ADF84E
:1051700000300CF04FFBBEE76840002010B51E4C1D
:1051800094F85231AA2B2ED1D4E93D321978062950
:1051900002D0997E090703D428339342F6D3002323
:1051A000002184F85311A3B19A88A4F850219A7E63
:1051B00061F3C3029A760121B4F85001FFF7D4FEDF
:1051C00094F85231AA2B0ED10220BDE81040FBF713
:1051D0008DBED4E93A311A7802F00302032A03D0D3
:1051E00010338B42F7D310BD5A88A4F850211A7897
:1051F0006FF341021A70DEE76840002010B5164CCC
:1052000038B194F85231462B03D104F22D13984251
:1052100005D0124B43F283121A8042F057FB104B19
:1052200093F83630022B0ED0B4F85001FBF770FA29
:1052300048B1827E6FF3C3028276FFF76FFE472389
:1052400084F8523110BDAA2384F852310220BDE8FF
:105250001040FBF74BBE00BF68400020AC3500207B
:10526000B8330020037873B5654C53B1D4F88C2162
:105270000A2082F82B30FBF739FE222384F8003213
:105280003FE094F80032243B112B3AD8DFE803F0DA
:10529000535B6F39393E4B393939818B96A2393B93
:1052A0006409D4F88C311B7B032B28D1554D95F81C
:1052B00039309BB9B5F842204FF6F7739A4203D9BB
:1052C00043F0D2FEA5F84200B5F842602CF0FAFC9B
:1052D00001463046FFF794FDA5F84200532384F8B9
:1052E000D031B5F84230A4F8D831332384F80032F5
:1052F0004548464BC4F8E03131F0E2F901E0FFF7F0
:1053000091FB02B070BDFFF71BFAFAE7D4F89031B9
:105310003C4ADB7882F84030002284F8D83184F8A7
:10532000D0212A23E2E7452384F8D031384BC4F852
:10533000D8312423DAE7462384F8D0310F2384F8C8
:10534000D8312523D2E78323324984F8D03108208D
:1053500039F024F93423C9E7522384F8D031294B9A
:105360001B7CC3F3C00384F8D8312623BEE7254B4A
:1053700025481B7C13F0080F14BF6FF07F430023F8
:10538000C4F8D031244BC4F8D43131F093F9272339
:1053900074E74B2384F8D031D4F890319B88A4F87B
:1053A000D8312F23A2E74A2384F8D031D4F89031A2
:1053B000D3E90223C4E97623302397E7D4F88C316C
:1053C000002283F82B200A20222384F80032FBF7E6
:1053D0008DFD96E70B4BB3F84230ADF8043001A8D1
:1053E00010238DF806300CF015FAD4F8883123B16B
:1053F0000A20FBF77BFD212340E7DA233EE700BFCD
:1054000068400020B833002030420020655200017F
:10541000DE33002040420020714800010C4BB3F8FD
:105420004230834210B5044603D1BDE810402CF051
:1054300049BCFFF7C9FC28B1D0E90223134301D0CE
:10544000083004E02046FBF721F80028F8D110BD11
:10545000B8330020F8B5C4691C4D06462046D5F87F
:105460002C74FDF781FB0123A371194B1B8863800A
:10547000238823F4805323F0030343F4805343F041
:10548000010323802CF01EFCD0E9002363616378C4
:10549000226143F0080363706088FFF7BFFFD0E923
:1054A0000023E3600B2323763B796376A260A37E1F
:1054B0007A7962F300036FF34703A3761B2386F820
:1054C0003030032385F82834F8BD00BF6840002041
:1054D000B8330020F8B5264FC469D7F8B0624660EB
:1054E000338D0385012380F8323005462046FDF7D1
:1054F0003BFBF369588860809B88A380238823F452
:10550000805323F0030343F4805343F001032380CB
:10551000FFF784FF3A46D6E9147128B3637843F065
:1055200008036370D0E900C36161C4F808C0E36098
:1055300027611821EB690B4405201870F4690D48A8
:10554000A488B0F8420084420BBF002001245870A8
:105550005C7016BF5880022304230B4485F830305A
:10556000F82382F8B432F8BDE160A7601021E1E7CA
:1055700068400020B83300202DE9F041C4693D4E59
:1055800005462046FDF7F0FA2388F088608023F472
:10559000805323F0030343F4805343F0010323803B
:1055A000FFF73CFF637800283CD043F008036370AA
:1055B000D0E90023A260E3602CF084FBD0E9002353
:1055C000636122611823183485F8303023882A4813
:1055D000224603F4F85343F0090322F8023BB36C6C
:1055E000C4F80230D0F82473F36C5360B6F844303A
:1055F00090F823C363810437012300218C451DD11A
:10560000627863F30402627095F8302003F01F03A0
:105610000A3202EB430385F83030542380F810330C
:10562000BDE8F08160F3C30363702CF04BFBD0E95D
:105630000023E360A26010231034C5E704EB4302AB
:105640003E885681002200BF02F10108043204EBBB
:105650004202B2F802E076455FFA88F2F4D1934252
:1056600003D20133DBB2102BCAD00131C9B21837D3
:10567000C4E700BFB8330020684000202DE9F041A6
:105680004FF6FF73C46903858B7880F88D3006462A
:1056900020460D46FDF768FA23684FF6FC721A4063
:1056A0002B4B13432360EB7AA3716B7BE371A888C8
:1056B000A080FFF7B3FE40B3637843F0100363703C
:1056C000D0E900234FF00808A260E360F46908F114
:1056D00008073C44238803F4804343F001032380FC
:1056E0006A78637802F06001202910D143F040030A
:1056F0006370AB7AA3702B89A4F80330AB78637125
:10570000063786F83070BDE8F0818046DEE76FF33B
:105710008613637049B912F0100FDBB203D0022276
:1057200062F3C403E4E70122FAE72889FFF776FE73
:105730000028DED0637843F020036370D0E90023B3
:1057400008F11007C4F80620C4F80A30D1E700BFFA
:105750000100FCFF2DE9F04F85B0884601925C4ABC
:105760000F9E92F836109DF838409DF840504FF645
:10577000FE7B022907469A46A6F800B091461DD145
:105780001288328013B9824208BF012503238DF8A5
:105790000C308DF80D50FE238DF80E309DF80C3036
:1057A000002063F307009DF80D3063F30F209DF890
:1057B0000E3063F3174005B0BDE8F08F2BB11CB37A
:1057C0004FF6FF7333800823E1E74FF6F7729042FC
:1057D000F6D8FFF7F9FA0446B0B1827ED30707D4B2
:1057E0004FF481733780ADF80C308DF80EB0D5E7EB
:1057F0000278052A02D04278022A05D14FF482733A
:105800003780ADF80C30C6E751463846FBF72EF925
:10581000002852D0428832801FFA82FC027990F828
:1058200006B051073ED5B9F8421041454BD1130798
:1058300049D40721BAF1000F01D1674545D05D4534
:1058400028BF5D46EDB214B3062920D12148224A73
:10585000D0F8F430E31ADB105A43D0F8FC3003EBF5
:10586000C2039879C0F3C2072046FAF70DFF99F8F2
:105870003D30B842B8BF38465B4528BF5B46DBB217
:10588000984211D2A38833808346012504213388AE
:10589000434502D0019A934208D14FF6FE733380FC
:1058A000012103E00621C5E70029F0D18DF80C1095
:1058B0008DF80D5099E72146F8E74FF0FE0B002CCC
:1058C000F9D00146C2E70A21BDE70125BBE700BFC9
:1058D000B833002068400020CDCCCCCC30B5C569B1
:1058E0008BB0044669462846FAF730FE9DF814202E
:1058F00094F830309A4229D80123039A84F8323040
:1059000053786BB96D882846FFF75EFA28B1837E1D
:10591000DB075CBF052384F8323025850BB030BD32
:105920001178994212D902EB430148880949B1F82C
:10593000421088420AD1013BDBB2537002EB4303B1
:105940009A78DB7842EA03232385E7E7752384F816
:105950003030E3E7B83300202DE9F34190F80780B9
:105960008779002308F101085FFA88F84372764BC3
:1059700080F8078093F83630022B04460E4600F07C
:10598000C3803D460E2F2CD8DFE807F0C9C9082692
:105990002633335858582B2B2BA7C90043F064FBF0
:1059A000C0F30B0060810126E379B34219D8608906
:1059B0002CF0A2F9400960812146644841F09CF82E
:1059C000634890F85030002B3DD1012380F85030CF
:1059D00054303AF00DFA36E0B8F1010F32D0032F0F
:1059E00001D001252FE041F60273438104260225F0
:1059F000DAE7062F13D1B8F1010FF2D8B8F1010F91
:105A000014D143F031FB40F6627280B2B0FBF2F386
:105A100002FB13033F335B0063810326E7E750F883
:105A2000343C90F855209B789A42E6E71EB13378D3
:105A30000BB9E371D5E741F60273EDE7092F06D103
:105A4000072383710025284602B0BDE8F081B0F835
:105A50005000FFF7B9F9082F05461CD10023337019
:105A60006369002B6CD1B8F1020F69D8A379082BB8
:105A700021D12046FAF788FE354BADF8040093F8A3
:105A8000E032C0B2984216D20198FBF7F3F950B158
:105A90000325E571D7E7002EE2D03378002BDFD164
:105AA0000823A371DCE7E679022E04D143F60953FB
