:0200000400807A
:105F8800FFFF000000400E8438FC745F3B4410148F
:085F98000B0000710200000083
:045FBC0000000010D1
:020000040100F9
:10000000FEFFFFFF01015048434D00000000740057
:1000100000000001000200010002000100200300B6
:1000200000000000000000000000000000000000D0
:1000300000000000000000000000000000000000C0
:1000400000000000000000000000000000000000B0
:1000500000000000000000000000000000000000A0
:100060000000000000000000000000000000000090
:100070000000000000000000000000000000000080
:100080000000000000000000000000000000000070
:100090000000000000000000000000000000000060
:1000A0000000000000000000000000000000000050
:1000B0000000000000000000000000000000000040
:1000C0000000000000000000000000000000000030
:1000D0000000000000000000000000000000000020
:1000E0000000000000000000000000000000000010
:1000F0000000000000000000000000000000000000
:1001000000000000000000000000000000000000EF
:1001100000000000000000000000000000000000DF
:1001200000000000000000000000000000000000CF
:1001300000000000000000000000000000000000BF
:1001400000000000000000000000000000000000AF
:10015000000000000000000000000000000000009F
:10016000000000000000000000000000000000008F
:10017000000000000000000000000000000000007F
:10018000000000000000000000000000000000006F
:10019000000000000000000000000000000000005F
:1001A000000000000000000000000000000000004F
:1001B000000000000000000000000000000000003F
:1001C000000000000000000000000000000000002F
:1001D000000000000000000000000000000000001F
:1001E000000000000000000000000000000000000F
:1001F00000000000000000000000000000000000FF
:10020000F07F0120B970020125E602012BE6020110
:1002100037E602013DE6020143E60201000000006C
:1002200000000000000000000000000009BB000109
:1002300031E602010000000029BC000197BC00016A
:1002400003FD000103FD000103FD0001E5CD0001F8
:1002500003FD000103FD000103FD000103FD00019A
:1002600003FD000103FD000103FD000103FD00018A
:1002700003FD000103FD000103FD000103FD00017A
:1002800003FD000103FD000103FD000103FD00016A
:1002900003FD000103FD000103FD000103FD00015A
:1002A00003FD000103FD000103FD000103FD00014A
:1002B00003FD000103FD000103FD0001D146020121
:1002C000C9CC010103FD000103FD000103FD000194
:1002D00003FD000103FD000103FD000103FD00011A
:1002E00003FD000100000000A14F020100203200C8
:1002F00060FB002000000000000000000120320030
:1003000060FB00200000000000000000022032001E
:1003100060FB00200000000000000000032032000D
:1003200060FB0020000000000000000004203200FC
:1003300060FB0020000000000000000005203200EB
:1003400060FB0020000000000000000006203200DA
:1003500060FB0020000000000000000007203200C9
:1003600060FB0020000000000000000008202000CA
:1003700094FB002000000000000000000920200085
:1003800094FB002000000000000000000A20200074
:1003900094FB002000000000000000000B20200063
:1003A00094FB002000000000000000000C20200052
:1003B00094FB002000000000000000000D20200041
:1003C00094FB002000000000000000000E20200030
:1003D00094FB002000000000000000000F2020001F
:1003E00094FB00200000000000000000F8B500BFF2
:1003F000F8BC08BC9E4670474D950201F8B500BF99
:10040000F8BC08BC9E4670472995020180B58CB0A7
:1004100004AFF860B9603B601346FB80FB889B002B
:1004200018460AF0A5FE78617B69002B13D0542092
:100430000AF09EFEF861FB69002B08D054220021CF
:10044000F86930F0C3FBFB697A691A6305E07869E3
:100450000AF02CFF01E00023FB61FB69002B13D0A5
:10046000FA8800230393FB690293FB6A0193BB6A3A
:1004700000933B68B968F86800F00EF8F86900F07E
:100480007BF80123BB6102E04FF0FF33BB61BB6926
:1004900018462037BD4680BD80B586B000AFF860F5
:1004A000B9607A603B60BB6A186B7B689B001A4638
:1004B000A52130F08BFBBB6A1A6B7B6803F180438C
:1004C000013B9B0013443B613B6923F007033B6105
:1004D000BB68002B1ED000237B6112E0BA687B69E9
:1004E00013441978BA6A7B69134434330A461A7084
:1004F000BA687B6913441B78002B06D07B690133F3
:100500007B617B690F2BE9D900E000BFBB6A002249
:1005100083F843203B6A042B01D904233B62BB6A66
:100520003A6ADA62BB6A3A6A5A64BB6A04331846AA
:1005300013F0D4FBBB6A1833184613F0CFFBBB6A29
:10054000BA6A1A613B6AC3F10502BB6A9A61BB6A67
:10055000BA6A5A623A68F96838690BF089FA024651
:10056000BB6A1A607B6A002B02D07B6ABA6A1A6087
:1005700000BF1837BD4680BD80B584B000AF78603D
:100580000BF01FFB3E4B1B6801333D4A13603D4B94
:100590001B68002B09D13B4A7B681360384B1B68F2
:1005A000012B10D101F004FB0DE0374B1B68002B31
:1005B00009D1344B1B68DA6A7B68DB6A9A4202D83D
:1005C000304A7B681360314B1B6801332F4A13603C
:1005D0007B68DB6A01229A402D4B1B6813432C4A2F
:1005E00013607B68DA6A2B4913469B0013449B0017
:1005F0000B4404331B68FB607B68FA689A60FB68F5
:100600009A687B68DA60FB689B687A6804325A6093
:100610007B681A1DFB689A607B68DA6A13469B0048
:1006200013449B001B4A1A447B685A617B68DA6A50
:10063000184913469B0013449B000B441B68591C2C
:10064000144813469B0013449B00034419600BF0AD
:10065000D1FA0D4B1B68002B0ED00A4B1B68DA6ACF
:100660007B68DB6A9A4207D20B4B4FF080521A60CC
:10067000BFF34F8FBFF36F8F00BF1037BD4680BDF4
:1006800060F9002088F800206CF900207CF9002037
:1006900068F900208CF8002004ED00E080B584B0FB
:1006A00000AF78600BF08DFA7B68002B02D1344BE1
:1006B0001B6800E07B68FB60FB680433184613F09E
:1006C00077FB0346002B15D1FB68DA6A2D491346E8
:1006D0009B0013449B000B441B68002B0AD1FB6852
:1006E000DB6A012202FA03F3DA43274B1B6813404B
:1006F000254A1360FB689B6A002B04D0FB68183303
:10070000184613F055FB214B1B6801331F4A136039
:100710001B4B1B68FA689A420BD1FB6804331946DD
:100720001B4813F0E8FA1B4B1B680133194A13608E
:1007300006E0194B1B68013B174A136001F0B4FA3D
:100740000BF058FA0E4B1B68FA689A4202D0F86810
:1007500001F09AFA114B1B68002B0CD0084B1B6858
:10076000FA689A4207D10E4B4FF080521A60BFF3DD
:100770004F8FBFF36F8F00BF1037BD4680BD00BFE6
:1007800088F800208CF8002068F900207CF900200F
:1007900034F9002048F9002060F900206CF90020AD
:1007A00004ED00E080B586B000AF786039600023CA
:1007B0007B6100F05FFB224B1B683B617B681B6821
:1007C0003A681344FB607B681B683A699A420BD213
:1007D0007B681B68FA689A4211D2FA683B699A42B0
:1007E0000DD901237B610AE07B681B68FA689A4295
:1007F00003D3FA683B699A4201D901237B617B6884
:10080000FA681A607B69002B06D0FA683B69D31A34
:100810000021184602F08EF800F074FBB860BB6847
:10082000002B07D1074B4FF080521A60BFF34F8F58
:10083000BFF36F8F7B6918461837BD4680BD00BF78
:1008400064F9002004ED00E080B584B000AF78606A
:100850000023FB607B68002B08D000F00BFB00211D
:10086000786802F067F800F04DFBF860FB68002B39
:1008700007D1064B4FF080521A60BFF34F8FBFF382
:100880006F8F00BF1037BD4680BD00BF04ED00E094
:1008900080B588B000AF78607B687B61294B1B68AE
:1008A0007A699A4202D10023FB7745E00BF089F97F
:1008B0007B695B693B61244B1B68FB60234B1B68B6
:1008C000BB600BF097F93A69FB689A4203D03A692A
:1008D000BB689A4202D10223FB772DE03B691C4A98
:1008E00093421DD17B699B6A002B16D10323FB77B2
:1008F0000023BB610DE07A69BB69134450331B7858
:10090000DBB2012B02D10223FB7715E0BB69013377
:10091000BB61BB69002BEEDD0EE00223FB770BE031
:100920003B690C4A934202D03B69002B02D104235D
:10093000FB7701E00123FB77FB7F18462037BD469C
:1009400080BD00BF88F8002018F900201CF90020A5
:100950004CF9002034F9002080B584B000AF7860F5
:100960000BF02FF97B68002B02D1074B1B6800E0CE
:100970007B68FB60FB68DB6ABB600BF03BF9BB6824
:1009800018461037BD4680BD88F8002080B489B075
:1009900000AF7860EFF311824FF0200383F31188EA
:1009A000BFF36F8FBFF34F8F3A61FB603B69FB6111
:1009B0007B68002B02D10A4B1B6800E07B68BB619F
:1009C000BB69DB6A7B61FB69BB60BB6883F3118831
:1009D0007B6918462437BD465DF8047B704700BF2D
:1009E00088F8002080B588B000AF786039600023B7
:1009F000FB613B68042B01D904233B600BF0E1F859
:100A00007B68002B02D1554B1B6800E07B68BB6103
:100A1000BB695B6C7B617A693B689A4200F09880A5
:100A20003A687B699A420DD94C4B1B68BA699A4265
:100A30000FD04A4B1B68DB6A3A689A4209D30123FC
:100A4000FB6106E0454B1B68BA699A4201D101235C
:100A5000FB61BB69DB6A3B61BB695A6CBB69DB6AE2
:100A60009A4202D1BB693A68DA62BB693A685A6451
:100A7000BB699B69002B04DB3B68C3F10502BB69C2
:100A80009A61BB6959693A6913469B0013449B00FC
:100A9000334A1344994250D1BB690433184613F0CA
:100AA00087F90346002B09D101223B6902FA03F3BF
:100AB000DA432C4B1B6813402A4A1360BB69DB6A7C
:100AC00001229A40274B1B681343264A1360BB69D7
:100AD000DA6A234913469B0013449B000B440433FA
:100AE0001B68FB60BB69FA689A60FB689A68BB691F
:100AF000DA60FB689B68BA6904325A60BB691A1DE8
:100B0000FB689A60BB69DA6A13469B0013449B003A
:100B1000134A1A44BB695A61BB69DA6A1049134621
:100B20009B0013449B000B441B68591C0C48134644
:100B30009B0013449B0003441960FB69002B07D002
:100B4000094B4FF080521A60BFF34F8FBFF36F8F86
:100B50000BF050F800BF2037BD4680BD88F800205C
:100B60008CF8002068F9002004ED00E080B584B026
:100B700000AF78600BF025F87B68002B02D13B4B6F
:100B80001B6800E07B68BB60BB680433184613F049
:100B90000FF90346002B15D1BB68DA6A34491346B6
:100BA0009B0013449B000B441B68002B0AD1BB68BD
:100BB000DB6A012202FA03F3DA432E4B1B6813406F
:100BC0002C4A1360BB689B6A002B04D0BB681833A7
:100BD000184613F0EDF8BB6804331946264813F0A5
:100BE0008AF80023FB6010E0BA68FB6813445033B6
:100BF0001B78DBB2012B05D1BA68FB681344503374
:100C000000221A70FB680133FB60FB68002BEBDDF0
:100C10000AF0F0FF194B1B68002B05D00AF0D1FF3A
:100C200001F042F80AF0E6FF104B1B68BA689A42DE
:100C300018D1124B1B68002B08D0114B4FF080527B
:100C40001A60BFF34F8FBFF36F8F0BE00A4B1A6828
:100C50000C4B1B689A4203D1044B00221A6001E03E
:100C600000F052FC00BF1037BD4680BD88F8002060
:100C70008CF8002068F900204CF900206CF9002065
:100C800004ED00E060F9002080B485B000AF78602A
:100C90000023FB607B68BB60BB685B690A4A9342C8
:100CA0000AD1BB689B6A094A934205D0BB689B6A1C
:100CB000002B01D10123FB60FB6818461437BD46A9
:100CC0005DF8047B704700BF4CF9002020F900203C
:100CD00080B584B000AF78607B68FB60344B1B68E4
:100CE000FA689A425FD0FB68002B5CD00AF069FF7B
:100CF000F868FFF7C9FF0346002B52D0FB680433A6
:100D0000184613F055F8FB68DB6A01229A40294B1C
:100D10001B681343274A1360FB68DA6A26491346A7
:100D20009B0013449B000B4404331B68BB60FB68AF
:100D3000BA689A60BB689A68FB68DA60BB689B68AF
:100D4000FA6804325A60FB681A1DBB689A60FB6837
:100D5000DA6A13469B0013449B00174A1A44FB6847
:100D60005A61FB68DA6A144913469B0013449B00DE
:100D70000B441B68591C104813469B0013449B00EE
:100D800003441960FB68DA6A094B1B68DB6A9A4204
:100D900007D30A4B4FF080521A60BFF34F8FBFF357
:100DA0006F8F0AF027FF00BF1037BD4680BD00BF20
:100DB00088F8002068F900208CF8002004ED00E09D
:100DC00080B584B002AF184B019300230093002339
:100DD0004FF4807215491648FFF718FB78607B685E
:100DE000012B02D106F066FB78607B68012B14D1E1
:100DF0004FF0200383F31188BFF36F8FBFF34F8F42
:100E00003B600C4B4FF0FF321A600B4B01221A6013
:100E10000A4B00221A600AF0A2FE094B1B6800BFB1
:100E20000837BD4680BD00BF84F90020601A030169
:100E3000E91A000180F900206CF9002064F9002013
:100E4000FC04012080B582B000AF4FF0200383F393
:100E50001188BFF36F8FBFF34F8F7B60044B00226D
:100E60001A600AF0A7FE00BF0837BD4680BD00BF6C
:100E70006CF9002080B400AF044B1B680133034AB7
:100E8000136000BFBD465DF8047B704788F9002001
:100E900080B485B000AF0023BB6001237B60144B9E
:100EA0001B687A689A4201D20123BB60114B1B6810
:100EB000DB6A002B02D00023FB6012E00E4B1B68A4
:100EC000012B02D90023FB600BE0BB68002B02D092
:100ED0000023FB6005E0094B1A68094B1B68D31A15
:100EE000FB60FB6818461437BD465DF8047B70470D
:100EF00068F9002088F800208CF8002080F9002094
:100F000064F9002080B586B000AF00237B61002328
:100F10003B610AF056FE684B1B68013B664A136052
:100F2000654B1B68002B40F0C080644B1B68002B96
:100F300000F0BB808AE0624BDB68DB687B617B6929
:100F40009B6ABB607B69DB697A69126A9A607B691C
:100F50001B6A7A69D2695A60BB685A687B69183320
:100F60009A4203D17B691A6ABB685A607B69002286
:100F70009A62BB681B685A1EBB681A607B695B6912
:100F80007B607B699B687A69D2689A607B69DB6861
:100F90007A6992685A607B685A687B6904339A421E
:100FA00003D17B69DA687B685A607B6900225A61E9
:100FB0007B681B685A1E7B681A607B69DB6A0122AA
:100FC0009A40404B1B6813433E4A13607B69DA6AC0
:100FD0003D4913469B0013449B000B4404331B689C
:100FE0003B607B693A689A603B689A687B69DA6023
:100FF0003B689B687A6904325A607B691A1D3B68BA
:101000009A607B69DA6A13469B0013449B002E4A60
:101010001A447B695A617B69DA6A2B4913469B0043
:1010200013449B000B441B68591C274813469B0024
:1010300013449B00034419607B69DA6A234B1B68E5
:10104000DB6A9A4202D3224B01221A601C4B1B68B6
:10105000002B7FF470AF7B69002B01D000F024FEE1
:101060001C4B1B68FB60FB68002B10D000F03EF9A6
:101070000346002B02D0164B01221A60FB68013B8D
:10108000FB60FB68002BF1D1124B00221A60104B61
:101090001B68002B09D001233B610F4B4FF080529E
:1010A0001A60BFF34F8FBFF36F8F0AF0A3FD3B6948
:1010B00018461837BD4680BD88F9002060F9002029
:1010C00020F9002068F900208CF8002088F8002022
:1010D00074F9002070F9002004ED00E080B483B0C2
:1010E00000AF054B1B687B607B6818460C37BD461C
:1010F0005DF8047B704700BF64F9002080B483B0C2
:1011000000AF00237B60054B1B683B603B681846C3
:101110000C37BD465DF8047B704700BF64F90020C2
:1011200080B400AF034B1B681846BD465DF8047BD6
:10113000704700BF60F9002080B485B000AF7860D0
:101140007B68002B02D1064B1B6800E07B68FB60CC
:10115000FB68343318461437BD465DF8047B70478E
:1011600088F8002080B582B000AF78600E4B1A6816
:101170007B681A440D4B1B689A420BD10AF021FD83
:101180000B4B1B6801330A4A13600AF033FD7B687E
:10119000013B7B60044B1A687B681344024A13606E
:1011A00000BF0837BD4680BD64F9002080F90020EB
:1011B00070F9002080B584B000AF7860FFF75AFE68
:1011C0000AF0FFFC074B1A687B681344054A13605A
:1011D0000AF010FDFFF796FEF860FB68184610371E
:1011E000BD4680BD70F9002080B586B000AF786044
:1011F0007B683B61FFF73EFE7868FFF749FB0346DB
:10120000022B61D101237B613B690433184612F044
:10121000CFFD0AF0D6FC3B699B6A002B08D03B69E6
:101220001833184612F0C4FD3B69012283F851209F
:101230000AF0E0FC3B69DB6A01229A40274B1B68FD
:101240001343264A13603B69DA6A254913469B001B
:1012500013449B000B4404331B68FB603B69FA6832
:101260009A60FB689A683B69DA60FB689B683A6938
:1012700004325A603B691A1DFB689A603B69DA6A5E
:1012800013469B0013449B00154A1A443B695A615C
:101290003B69DA6A124913469B0013449B000B44D6
:1012A0001B68591C0E4813469B0013449B000344C3
:1012B00019603B69DA6A0B4B1B68DB6A9A4205D9F5
:1012C000094B01221A6001E000237B61FFF71AFE3F
:1012D0007B6918461837BD4680BD00BF68F90020FD
:1012E0008CF8002088F8002074F9002080B588B0C0
:1012F00000AF0023FB61794B1B68002B40F0E280BC
:10130000774B1B680133BB61754ABB691360BB69CE
:10131000002B10D1734B1B687B61734B1B68714AA8
:101320001360714A7B691360704B1B6801336F4A0D
:10133000136000F0B9FC6E4B1B68BA699A42C0F0AA
:10134000A680684B1B681B68002B04D1684B4FF0CC
:10135000FF321A609BE0634B1B68DB68DB683B6114
:101360003B695B68FB60BA69FB689A4203D2604ADA
:10137000FB6813608BE03B695B69BB603B699B6802
:101380003A69D2689A603B69DB683A6992685A6048
:10139000BB685A683B6904339A4203D13B69DA68F7
:1013A000BB685A603B6900225A61BB681B685A1EC1
:1013B000BB681A603B699B6A002B1ED03B699B6A25
:1013C0007B603B69DB693A69126A9A603B691B6A18
:1013D0003A69D2695A607B685A683B6918339A4205
:1013E00003D13B691A6A7B685A603B6900229A62A2
:1013F0007B681B685A1E7B681A603B69DB6A0122A6
:101400009A403C4B1B6813433A4A13603B69DA6AC3
:10141000394913469B0013449B000B4404331B685B
:101420003B603B693A689A603B689A683B69DA605E
:101430003B689B683A6904325A603B691A1D3B68F5
:101440009A603B69DA6A13469B0013449B002A4A60
:101450001A443B695A613B69DA6A274913469B0083
:1014600013449B000B441B68591C234813469B00E4
:1014700013449B00034419603B69DA6A1F4B1B68E5
:10148000DB6A9A427FF65DAF0123FB6159E71B4B94
:101490001B68DA6A184913469B0013449B000B44EF
:1014A0001B68012B01D90123FB61154B1B68002B25
:1014B00001D121F087F9134B1B68002B09D00123C0
:1014C000FB6106E00E4B1B6801330D4A136021F0EF
:1014D00079F9FB6918462037BD4680BD88F90020A0
:1014E00064F9002018F900201CF9002078F9002088
:1014F00080F9002068F900208CF8002088F800208E
:1015000070F9002074F9002080B586B000AF2F4B31
:101510001B68002B03D02E4B01221A6051E02C4B8C
:1015200000221A602B4B1B681B6B7B614FF0A533AD
:101530003B617B691B683A699A4211D17B6904332C
:101540001B683A699A420BD17B6908331B683A6978
:101550009A4205D17B690C331B683A699A4208D0DC
:101560001C4B1A681B4B1B6834331946104621F07C
:1015700007F9194B1B687B607B68B3FA83F3FB7038
:10158000FB78C3F11F03FB60FA6813469B0013440A
:101590009B00124A1344BB60BB685B685A68BB6817
:1015A0005A60BB685A68BB6808339A4204D1BB686A
:1015B0005B685A68BB685A60BB685B68DB68054A51
:1015C000136000BF1837BD4680BD00BF88F90020FA
:1015D00074F9002088F8002068F900208CF80020B9
:1015E00080B582B000AF78603960074B1B68183354
:1015F0001946786812F0A3FB0121386801F09AF9C6
:1016000000BF0837BD4680BD88F8002080B586B091
:1016100000AFF860B9607A60174B1B68BA6842F097
:1016200000429A61FB685B687B61134B1B687A69B7
:10163000DA61114B1B687A6992681A620E4B1A685C
:101640007B699B6818325A600B4B1B6803F11802C8
:101650007B699A60084B1B68FA689A62FB681B6892
:101660005A1CFB681A600121786801F063F900BF19
:101670001837BD4680BD00BF88F8002080B586B011
:1016800000AFF860B9607A60FB685B687B61164BFD
:101690001B687A69DA61144B1B687A6992681A626E
:1016A000114B1A687B699B6818325A600E4B1B6895
:1016B00003F118027B699A600B4B1B68FA689A6207
:1016C000FB681B685A1CFB681A607B68002B02D001
:1016D0004FF0FF33BB607968B86801F02BF900BFA9
:1016E0001837BD4680BD00BF88F8002080B588B09F
:1016F00000AF78607B68DB68DB68BB61BB699B6AB5
:101700007B61BB69DB69BA69126A9A60BB691B6A53
:10171000BA69D2695A607B695A68BB6918339A42C0
:1017200003D1BB691A6A7B695A60BB6900229A625D
:101730007B691B685A1E7B691A604A4B1B68002B29
:1017400060D1BB695B693B61BB699B68BA69D26860
:101750009A60BB69DB68BA6992685A603B695A68EB
:10176000BB6904339A4203D1BB69DA683B695A60AA
:10177000BB6900225A613B691B685A1E3B691A60AB
:10178000BB69DB6A01229A40374B1B681343364A18
:101790001360BB69DA6A354913469B0013449B000A
:1017A0000B4404331B68FB60BB69FA689A60FB68F2
:1017B0009A68BB69DA60FB689B68BA6904325A6050
:1017C000BB691A1DFB689A60BB69DA6A13469B0005
:1017D00013449B00254A1A44BB695A61BB69DA6A03
:1017E000224913469B0013449B000B441B68591C61
:1017F0001E4813469B0013449B000344196000F0ED
:1018000053FA1BE01A4B5B68BB60BB69BA68DA61CC
:10181000BB689A68BB691A62BB689B68BA69183270
:101820005A60BB6903F11802BB689A60BB69104A31
:101830009A620F4B1B6801330D4A1360BB69DA6A69
:101840000C4B1B68DB6A9A4205D90123FB610A4BEA
:1018500001221A6001E00023FB61FB691846203772
:10186000BD4680BD88F9002068F900208CF8002072
:1018700020F9002088F8002074F9002080B586B097
:1018800000AF786039603B6843F000427B681A60C3
:101890007B68DB687B617B681B693B617B685B689D
:1018A0007A6892689A607B689B687A6852685A6026
:1018B0003B695B687A689A4203D17B689A683B69A6
:1018C0005A607B6800221A613B691B685A1E3B699B
:1018D0001A6000F0E9F97B695B69FB607B699B68D2
:1018E0007A69D2689A607B69DB687A6992685A6023
:1018F000FB685A687B6904339A4203D17B69DA68D2
:10190000FB685A607B6900225A61FB681B685A1E9B
:10191000FB681A607B69DB6A01229A40244B1B68D2
:101920001343234A13607B69DA6A224913469B00FA
:1019300013449B000B4404331B68BB607B69BA688B
:101940009A60BB689A687B69DA60BB689B687A6951
:1019500004325A607B691A1DBB689A607B69DA6A37
:1019600013469B0013449B00124A1A447B695A6138
:101970007B69DA6A0F4913469B0013449B000B44B2
:101980001B68591C0B4813469B0013449B000344DF
:1019900019607B69DA6A084B1B68DB6A9A4202D9D4
:1019A000064B01221A6000BF1837BD4680BD00BF3C
:1019B00068F900208CF8002088F8002074F90020D5
:1019C00080B582B000AF78600AF0FBF8064B1A6869
:1019D0007B681A60054B1A687B685A600AF00AF93E
:1019E00000BF0837BD4680BD78F9002064F90020AB
:1019F00080B483B000AF7860064B1A687B681A60C9
:101A0000054B1A687B685A6000BF0C37BD465DF80D
:101A1000047B704778F9002064F9002080B586B017
:101A200000AF786039600AF0CCF8264B1B683B6148
:101A30007B685B683A69D31AFB60234B1B6893F899
:101A40005130002B07D0204B1B68002283F8512017
:101A500001237B612EE03B681B68B3F1FF3F02D19D
:101A600000237B6126E07B681A68184B1B689A424A
:101A70000AD07B685B683A699A4205D301237B618F
:101A80003B6800221A6015E03B681B68FA689A42BE
:101A90000BD23B681A68FB68D21A3B681A607868F8
:101AA000FFF7A6FF00237B6104E03B6800221A6079
:101AB00001237B610AF09EF87B6918461837BD4602
:101AC00080BD00BF64F9002088F8002078F900206C
:101AD00080B400AF034B01221A6000BFBD465DF821
:101AE000047B704774F9002080B584B000AF786043
:101AF00000F09EF8104B1B68012B07D90F4B4FF0DD
:101B000080521A60BFF34F8FBFF36F8F20F054FEE7
:101B1000FFF7BEF9F860FB68042BE9D9FFF7AAF9D3
:101B2000FFF7B6F9F860FB68042B02D9F8680AF0F1
:101B3000D3F8FFF7E7F9DBE78CF8002004ED00E0CD
:101B400080B483B000AF01233B600123FB71134BD2
:101B50001B68002B02D00023FB7117E0104B1B68A1
:101B6000002B02D00023FB7110E00E4B1B68002BF2
:101B700002D00023FB7109E00B4B1A680B4B19686C
:101B80003B68CB1A9A4201D10223FB71FB791846BC
:101B90000C37BD465DF8047B704700BF20F900207C
:101BA00074F9002070F900204CF9002060F9002041
:101BB00080B582B000AF00237B600CE07A681346EA
:101BC0009B0013449B00124A1344184612F066F817
:101BD0007B6801337B607B68042BEFD90D4812F0E2
:101BE0005DF80D4812F05AF80C4812F057F80C48FE
:101BF00012F054F80B4812F051F80B4B054A1A60DA
:101C00000A4B054A1A6000BF0837BD4680BD00BFB9
:101C10008CF80020F0F8002004F9002020F90020C2
:101C200034F900204CF9002018F900201CF900209C
:101C300080B582B000AF19E009F0C3FF0F4BDB683D
:101C4000DB687B607B680433184612F0B1F80C4BFC
:101C50001B68013B0A4A13600A4B1B68013B094A97
:101C6000136009F0C7FF786800F00EF8054B1B6899
:101C7000002BE1D100BF0837BD4680BD34F90020FC
:101C800060F9002048F9002080B582B000AF78608C
:101C90007B681B6B184609F009FB786809F006FBA6
:101CA00000BF0837BD4680BD80B400AF0A4B1B683B
:101CB0001B68002B04D1094B4FF0FF321A6005E07E
:101CC000054B1B68DB681B68044A136000BFBD46F8
:101CD0005DF8047B704700BF18F9002080F90020F0
:101CE00080B483B000AF054B1B687B607B681846EF
:101CF0000C37BD465DF8047B704700BF88F80020B4
:101D000080B483B000AF0B4B1B68002B02D10123C2
:101D10007B6008E0084B1B68002B02D102237B602C
:101D200001E000237B607B6818460C37BD465DF8F8
:101D3000047B70476CF9002088F9002080B586B0DC
:101D400000AF78607B683B6100237B617B68002B80
:101D500000F087803B69DA6A444B1B68DB6A9A4271
:101D600076D23B699B69002B06DB404B1B68DB6A24
:101D7000C3F105023B699A613B6959693B69DA6ABB
:101D800013469B0013449B00394A1344994257D190
:101D90003B690433184612F00BF80346002B0AD1B6
:101DA0003B69DB6A012202FA03F3DA43314B1B6819
:101DB0001340304A13602D4B1B68DA6A3B69DA62C4
:101DC0003B69DB6A01229A402A4B1B681343294A6C
:101DD00013603B69DA6A264913469B0013449B0053
:101DE0000B4404331B68FB603B69FA689A60FB682C
:101DF0009A683B69DA60FB689B683A6904325A600A
:101E00003B691A1DFB689A603B69DA6A13469B00BE
:101E100013449B00164A1A443B695A613B69DA6ACB
:101E2000134913469B0013449B000B441B68591C29
:101E30000F4813469B0013449B000344196004E0C1
:101E40000A4B1B68DA6A3B69DA6201237B6108E0AE
:101E50003B695A6C054B1B68DB6A9A4201D201232D
:101E60007B617B6918461837BD4680BD88F8002025
:101E70008CF8002068F9002080B586B000AF78604B
:101E80007B683B6100237B617B68002B6CD03B69E6
:101E90009B6C5A1E3B699A643B69DA6A3B695B6CCE
:101EA0009A4261D03B699B6C002B5DD13B69043346
:101EB000184611F07DFF0346002B0AD13B69DB6A0F
:101EC000012202FA03F3DA432A4B1B681340294A22
:101ED00013603B695A6C3B69DA623B69DB6AC3F1A8
:101EE00005023B699A613B69DB6A01229A40214BFA
:101EF0001B6813431F4A13603B69DA6A1E49134685
:101F00009B0013449B000B4404331B68FB603B693C
:101F1000FA689A60FB689A683B69DA60FB689B68BC
:101F20003A6904325A603B691A1DFB689A603B6942
:101F3000DA6A13469B0013449B000F4A1A443B691C
:101F40005A613B69DA6A0C4913469B0013449B00B3
:101F50000B441B68591C084813469B0013449B0004
:101F60000344196001237B617B6918461837BD461D
:101F700080BD00BF68F900208CF8002080B588B0D3
:101F800000AF786039607B68BB6101237B617B684F
:101F9000002B00F08180BB695B6C3A689A4202D9E1
:101FA0003B68FB6102E0BB695B6CFB61BB69DB6AA0
:101FB000FA699A4270D0BB699B6C7A699A426BD17C
:101FC000BB69DB6A3B61BB69FA69DA62BB699B6921
:101FD000002B04DBFB69C3F10502BB699A61BB6995
:101FE00059693A6913469B0013449B002C4A1344D9
:101FF000994251D1BB690433184611F0D9FE03460A
:10200000002B0AD1BB69DB6A012202FA03F3DA432F
:10201000244B1B681340234A1360BB69DB6A01220F
:102020009A40204B1B6813431E4A1360BB69DA6A4F
:102030001B4913469B0013449B000B4404331B684D
:10204000FB60BB69FA689A60FB689A68BB69DA60F2
:10205000FB689B68BA6904325A60BB691A1DFB6849
:102060009A60BB69DA6A13469B0013449B000C4AD2
:102070001A44BB695A61BB69DA6A094913469B0075
:1020800013449B000B441B68591C054813469B00D6
:1020900013449B000344196000BF2037BD4680BD38
:1020A0008CF8002068F9002080B483B000AF094BA1
:1020B0001B689B697B60074B1B68DA6A054B1B68D2
:1020C000C2F105029A617B6818460C37BD465DF87F
:1020D000047B704788F8002080B400AF074B1B6872
:1020E000002B04D0054B1B689A6C01329A64034B99
:1020F0001B681846BD465DF8047B704788F80020D1
:1021000080B586B000AFF860B9607A6009F059FD1B
:10211000284B1A68FB6812339B0013445B68002B42
:1021200015D1244B1A68FB681344503301221A70EE
:102130007B68002B0BD00121786800F0FBFB1E4B65
:102140004FF080521A60BFF34F8FBFF36F8F09F0CB
:1021500051FD09F036FD174B1A68FB6812339B00DE
:1021600013445B687B617B69002B14D0BB68002B38
:1021700008D0104B1A68FB6812339B0013440022EE
:102180005A6008E00B4B19687B695A1EFB681233D2
:102190009B000B445A60074B1A68FB68134450338A
:1021A00000221A7009F026FD7B6918461837BD46D3
:1021B00080BD00BF88F8002004ED00E080B586B047
:1021C00000AFF860B9607A603B6009F0FAFC344B0C
:1021D0001A68FB68134450331B78DBB2022B24D0FF
:1021E0002F4B1A68FB6812339B0013445968BB6875
:1021F000DB431940FB6812339B0013445960284BA2
:102200001A68FB681344503301221A703B6A002B92
:102210000BD00121386A00F08DFB224B4FF0805229
:102220001A60BFF34F8FBFF36F8F09F0E3FC09F023
:10223000C8FC3B68002B08D0194B1A68FB681233A6
:102240009B0013445A683B681A60154B1A68FB6878
:10225000134450331B78DBB2022B02D000237B6186
:1022600010E00F4B1A68FB6812339B001344596847
:102270007B68DB431940FB6812339B0013445960B1
:1022800001237B61064B1A68FB681344503300221C
:102290001A7009F0AFFC7B6918461837BD4680BD3F
:1022A00088F8002004ED00E080B58AB000AFF86047
:1022B000B9607A60FB7001237B62FB683B6209F0C6
:1022C00080FC3B6B002B07D03A6ABB6812339B0043
:1022D00013445A683B6B1A603A6ABB681344503324
:1022E0001B78FB773A6ABB681344503302221A709A
:1022F000FB78042B3FD801A252F823F0772300018A
:10230000112300012F2300014B2300015B23000157
:102310003A6ABB6812339B0013445A687B681A43BD
:10232000396ABB6812339B000B445A6024E03A6A56
:10233000BB6812339B0013445B685A1C396ABB6844
:1023400012339B000B445A6016E03A6ABB681233A2
:102350009B0013447A685A600EE0FB7F022B07D083
:102360003A6ABB6812339B0013447A685A6003E0F0
:1023700000237B6200E000BFFB7F012B6ED13B6A34
:102380005B69BB613B6A9B683A6AD2689A603B6A48
:10239000DB683A6A92685A60BB695A683B6A0433E0
:1023A0009A4203D13B6ADA68BB695A603B6A0022F1
:1023B0005A61BB691B685A1EBB691A603B6ADB6ABB
:1023C00001229A40294B1B681343284A13603B6A39
:1023D000DA6A274913469B0013449B000B440433DD
:1023E0001B687B613B6A7A699A607B699A683B6A81
:1023F000DA607B699B683A6A04325A603B6A1A1D4C
:102400007B699A603B6ADA6A13469B0013449B001F
:10241000174A1A443B6A5A613B6ADA6A14491346FE
:102420009B0013449B000B441B68591C1048134627
:102430009B0013449B0003441960FFF735FC3B6A83
:10244000DA6A0C4B1B68DB6A9A4207D90A4B4FF0D9
:1024500080521A60BFF34F8FBFF36F8F09F0CAFB32
:102460007B6A18462837BD4680BD00BF68F900204A
:102470008CF8002088F8002004ED00E080B48FB0D4
:1024800000AFF860B9607A60FB7001237B63FB6882
:102490003B63EFF311824FF0200383F31188BFF306
:1024A0006F8FBFF34F8FBA617B61BB69FB623B6C7F
:1024B000002B07D03A6BBB6812339B0013445A6859
:1024C0003B6C1A603A6BBB68134450331B7887F837
:1024D0002B303A6BBB681344503302221A70FB78DE
:1024E000042B41D801A252F823F000BF6925000156
:1024F000012500011F2500013B2500014B2500019E
:102500003A6BBB6812339B0013445A687B681A43CA
:10251000396BBB6812339B000B445A6025E03A6B61
:10252000BB6812339B0013445B685A1C396BBB6851
:1025300012339B000B445A6017E03A6BBB681233AE
:102540009B0013447A685A600FE097F82B30022BF7
:1025500007D03A6BBB6812339B0013447A685A6009
:1025600003E000237B6300E000BF97F82B30012BD2
:1025700040F08F804D4B1B68002B5ED13B6B5B693D
:102580007B623B6B9B683A6BD2689A603B6BDB6803
:102590003A6B92685A607B6A5A683B6B04339A4282
:1025A00003D13B6BDA687B6A5A603B6B00225A614D
:1025B0007B6A1B685A1E7B6A1A603B6BDB6A0122CE
:1025C0009A403B4B1B681343394A13603B6BDA6AF2
:1025D000384913469B0013449B000B4404331B688B
:1025E0003B623B6B3A6A9A603B6A9A683B6BDA6083
:1025F0003B6A9B683A6B04325A603B6B1A1D3B6A1C
:102600009A603B6BDA6A13469B0013449B00294A8D
:102610001A443B6B5A613B6BDA6A264913469B00AE
:1026200013449B000B441B68591C224813469B0013
:1026300013449B00034419601BE01F4B5B68FB6164
:102640003B6BFA69DA61FB699A683B6B1A62FB695A
:102650009B683A6B18325A603B6B03F11802FB69B6
:102660009A603B6B144A9A62134B1B680133124AFF
:1026700013603B6BDA6A114B1B68DB6A9A4208D91C
:102680007B6C002B02D07B6C01221A600C4B012268
:102690001A60FB6A3B613B6983F311887B6B1846C8
:1026A0003C37BD465DF8047B704700BF88F90020C9
:1026B00068F900208CF8002020F9002088F800201C
:1026C00074F9002080B48FB000AFF860B9607A6010
:1026D000FB687B63EFF311824FF0200383F31188D3
:1026E000BFF36F8FBFF34F8FFA61BB61FB693B6331
:1026F0007A6BBB68134450331B7887F82F307A6BA2
:10270000BB681344503302221A707A6BBB681233D1
:102710009B0013445B685A1C796BBB6812339B00A7
:102720000B445A6097F82F30012B40F08F804D4BAF
:102730001B68002B5ED17B6B5B69BB627B6B9B680C
:102740007A6BD2689A607B6BDB687A6B92685A60AE
:10275000BB6A5A687B6B04339A4203D17B6BDA689D
:10276000BB6A5A607B6B00225A61BB6A1B685A1EA7
:10277000BB6A1A607B6BDB6A01229A403A4B1B688A
:102780001343394A13607B6BDA6A384913469B005E
:1027900013449B000B4404331B687B627B6B7A6A97
:1027A0009A607B6A9A687B6BDA607B6A9B687A6B5B
:1027B00004325A607B6B1A1D7B6A9A607B6BDA6A03
:1027C00013469B0013449B00284A1A447B6B5A61B2
:1027D0007B6BDA6A254913469B0013449B000B442C
:1027E0001B68591C214813469B0013449B0003445B
:1027F00019601BE01E4B5B683B627B6B3A6ADA61D7
:102800003B6A9A687B6B1A623B6A9B687A6B1832E8
:102810005A607B6B03F118023B6A9A607B6B144A27
:102820009A62134B1B680133114A13607B6BDA6A9F
:10283000104B1B68DB6A9A4208D97B68002B02D0D8
:102840007B6801221A600C4B01221A603B6B7B6192
:102850007B6983F3118800BF3C37BD465DF8047B7C
:10286000704700BF88F9002068F900208CF800202C
:1028700020F9002088F8002074F9002080B584B089
:1028800000AF786039607B68002B02D1104B1B6869
:1028900000E07B68BB6009F094F9BA683B681344B8
:1028A00050331B78DBB2022B08D1BA683B68134463
:1028B000503300221A700123FB6001E00023FB600B
:1028C00009F098F9FB6818461037BD4680BD00BF77
:1028D00088F8002080B586B000AFF860B9607A60F3
:1028E000FB68002B02D1124B1B6800E0FB687B6188
:1028F00009F067F97A69BB6812339B0013445B687F
:102900003B617A69BB6812339B0013445A687B6849
:10291000DB431A407969BB6812339B000B445A6051
:1029200009F068F93B6918461837BD4680BD00BFFD
:1029300088F8002080B586B000AF78603960384BE9
:102940001B687B61374B1B68002283F85120354B95
:102950001B680433184611F02BFA0346002B0BD1E9
:10296000304B1B68DB6A012202FA03F3DA432E4B79
:102970001B6813402C4A13607B68B3F1FF3F24D1DE
:102980003B68002B21D0294B5B683B61254B1B68C2
:102990003A699A60234B1B683A699268DA60214B66
:1029A0001A683B699B6804325A601E4B1B681A1DEB
:1029B0003B699A601B4B1B681C4A5A611B4B1B6886
:1029C00001331A4A136000BF26E07A697B6813441A
:1029D000FB60144B1B68FA685A60FA687B699A427C
:1029E00009D2134B1A680F4B1B6804331946104663
:1029F00011F0A5F910E00F4B1A680A4B1B6804335D
:102A00001946104611F09BF90B4B1B68FA689A4265
:102A100002D2094AFB68136000BF1837BD4680BD6B
:102A200064F9002088F8002068F900204CF90020A3
:102A30001CF9002018F9002080F9002080B584B02E
:102A400000AF786039600123FB607B68BB60BB68C6
:102A5000002B5DD0BB68DB6B002B59D0BB681A6CB8
:102A6000BB68DB6B0021A3FB0223002B00D00121FC
:102A70000B46002B4CD109F0A4F8BB681A68BB6860
:102A8000DB6BB968096C01FB03F31A44BB689A60FD
:102A9000BB6800229A63BB681A68BB685A60BB684F
:102AA0001A68BB68DB6B013BB968096C01FB03F377
:102AB0001A44BB68DA60BB68FF2283F84420BB6815
:102AC000FF2283F845203B68002B14D1BB681B69AB
:102AD000002B1AD0BB6810331846FEF707FE0346DA
:102AE000002B12D00E4B4FF080521A60BFF34F8F65
:102AF000BFF36F8F09E0BB681033184611F0CEF8B2
:102B0000BB682433184611F0C9F809F073F801E0E6
:102B10000023FB60FB6818461037BD4680BD00BF30
:102B200004ED00E080B58AB002AFF860B9601346EA
:102B3000FB710023FB61FB68002B2DD00021BA68DC
:102B4000FB68A3FB0223002B00D001210B46002BC6
:102B500022D1FB68BA6802FB03F313F14D0F1BD8B7
:102B6000FB68BA6802FB03F3BB61BB694C331846D0
:102B700008F0FEFAF861FB69002B0DD0FB697B6160
:102B80007B694C337B61FA79FB69009313467A6960
:102B9000B968F86800F005F8FB6918462037BD46AB
:102BA00080BD80B584B000AFF860B9607A60FB701A
:102BB000BB68002B03D1BB69BA691A6002E0BB692C
:102BC0007A681A60BB69FA68DA63BB69BA681A6422
:102BD0000121B869FFF732FFBB6900229A6400BF88
:102BE0001037BD4680BD80B582B000AF78607B688D
:102BF000002B0ED07B6800229A607B6800221A604E
:102C00007B680022DA60002300220021786800F04F
:102C10003BF800BF0837BD4680BD80B586B000AF29
:102C20000346FB7101237B6100233B61FB791A465C
:102C300039697869FFF776FFF860F868FFF7D3FF26
:102C4000FB6818461837BD4680BD80B584B000AF1C
:102C5000786039600023FB607B68002B0FD03A68F6
:102C60007B689A420BD8022200217868FFF75AFF4E
:102C7000F860FB68002B02D0FB683A689A63FB6837
:102C800018461037BD4680BD80B58AB000AFF860E9
:102C9000B9607A603B6000237B62FB683B6208F0AE
:102CA00090FF3B6A9A6B3B6ADB6B9A4202D33B68AC
:102CB000022B45D13B6A9B6BFB613A68B968386A65
:102CC00000F08AFCB8613B6A9B6C002B14D03B6817
:102CD000022B02D1FB69002B2ED1386A00F074FE62
:102CE0000346002B28D04A4B4FF080521A60BFF3A6
:102CF0004F8FBFF36F8F1FE03B6A5B6A002B10D0D2
:102D00003B6A24331846FEF7F1FC0346002B13D030
:102D10003F4B4FF080521A60BFF34F8FBFF36F8F5E
:102D20000AE0BB69002B07D0394B4FF080521A6084
:102D3000BFF34F8FBFF36F8F08F05CFF012363E099
:102D40007B68002B03D108F055FF00235CE07B6A11
:102D5000002B06D107F110031846FEF749FE0123A8
:102D60007B6208F047FFFEF785F808F02AFF3B6A10
:102D700093F844305BB2B3F1FF3F03D13B6A0022CA
:102D800083F844203B6A93F845305BB2B3F1FF3FD0
:102D900003D13B6A002283F8452008F02BFF3A1D3F
:102DA00007F1100311461846FEF738FE0346002BC4
:102DB00024D1386A00F02BFD0346002B18D03B6A63
:102DC00010337A6811461846FEF70AFC386A00F09C
:102DD00093FCFEF797F80346002B7FF460AF0C4B93
:102DE0004FF080521A60BFF34F8FBFF36F8F56E7DB
:102DF000386A00F081FCFEF785F850E7386A00F089
:102E00007BFCFEF77FF8002318462837BD4680BDBF
:102E100004ED00E080B58EB000AFF860B9607A6074
:102E20003B60FB683B63EFF311824FF0200383F3B9
:102E30001188BFF36F8FBFF34F8FFA61BB61FB69DE
:102E4000FB623B6B9A6B3B6BDB6B9A4202D33B683A
:102E5000022B4ED13B6B93F8453087F82B303B6B00
:102E60009B6B7B623A68B968386B00F0B5FB97F9E9
:102E70002B30B3F1FF3F29D13B6B9B6C002B12D061
:102E80003B68022B02D17B6A002B2FD1386B00F0FC
:102E90009BFD0346002B29D07B68002B26D07B6846
:102EA00001221A6022E03B6B5B6A002B1ED03B6B59
:102EB00024331846FEF71AFC0346002B16D07B6815
:102EC000002B13D07B6801221A600FE0FEF728F96F
:102ED000386297F92B303A6A9A4207D997F82B3023
:102EE0000133DBB25AB23B6B83F8452001237B638D
:102EF00001E000237B63FB6A7B617B6983F31188BC
:102F00007B6B18463837BD4680BD80B58CB000AFAE
:102F1000786039607B68BB62EFF311824FF0200369
:102F200083F31188BFF36F8FBFF34F8F7A613B61DB
:102F30007B697B62BB6A9B6B3B62BB6ADB6B3A6AF9
:102F40009A4242D2BB6A93F84530FB773B6A5A1CDF
:102F5000BB6A9A6397F91F30B3F1FF3F23D1BB6A75
:102F60009B6C002B0CD0B86A00F02EFD0346002BA2
:102F700028D03B68002B25D03B6801221A6021E055
:102F8000BB6A5B6A002B1DD0BB6A24331846FEF770
:102F9000ADFB0346002B15D03B68002B12D03B68DD
:102FA00001221A600EE0FEF7BBF8B86197F91F30F6
:102FB000BA699A4206D9FB7F0133DBB25AB2BB6AC7
:102FC00083F845200123FB6201E00023FB627B6A5A
:102FD000FB60FB6883F31188FB6A18463037BD46F7
:102FE00080BD80B58AB000AFF860B9607A60002318
:102FF0007B62FB683B6208F0E4FD3B6A9B6BFB6114
:10300000FB69002B1FD0B968386A00F04FFBFB69E1
:103010005A1E3B6A9A633B6A1B69002B0FD03B6ABE
:1030200010331846FEF762FB0346002B07D03D4BDA
:103030004FF080521A60BFF34F8FBFF36F8F08F0CD
:10304000D9FD012369E07B68002B03D108F0D2FD94
:10305000002362E07B6A002B06D107F114031846B7
:10306000FEF7C6FC01237B6208F0C4FDFDF702FFFA
:1030700008F0A7FD3B6A93F844305BB2B3F1FF3F21
:1030800003D13B6A002283F844203B6A93F8453021
:103090005BB2B3F1FF3F03D13B6A002283F84520C6
:1030A00008F0A8FD3A1D07F1140311461846FEF773
:1030B000B5FC0346002B23D1386A00F07CFB0346A5
:1030C000002B17D03B6A24337A6811461846FEF766
:1030D00087FA386A00F010FBFDF714FF0346002B57
:1030E00089D1104B4FF080521A60BFF34F8FBFF35E
:1030F0006F8F80E7386A00F0FFFAFDF703FF7AE789
:10310000386A00F0F9FAFDF7FDFE386A00F053FB6B
:103110000346002B3FF46FAF002318462837BD4607
:1031200080BD00BF04ED00E080B58AB000AF7860DC
:10313000396000237B627B68FB6100233B6208F0FF
:1031400040FDFB699B6BBB61BB69002B24D0BB6955
:103150005A1EFB699A63FB691B68002B04D1FEF7BA
:10316000BBFF0246FB699A60FB691B69002B0FD00D
:10317000FB6910331846FEF7B9FA0346002B07D057
:103180004C4B4FF080521A60BFF34F8FBFF36F8FDD
:1031900008F030FD012389E03B68002B03D108F0E3
:1031A00029FD002382E07B6A002B06D107F10C0386
:1031B0001846FEF71DFC01237B6208F01BFDFDF79E
:1031C00059FE08F0FEFCFB6993F844305BB2B3F1A2
:1031D000FF3F03D1FB69002283F84420FB6993F889
:1031E00045305BB2B3F1FF3F03D1FB69002283F8A6
:1031F000452008F0FFFC3A4607F10C03114618463B
:10320000FEF70CFC0346002B32D1F86900F0D3FA2C
:103210000346002B26D0FB691B68002B09D108F060
:10322000D0FCFB699B681846FEF788FD386208F001
:10323000E1FCFB6924333A6811461846FEF7D0F9E1
:10324000F86900F059FAFDF75DFE0346002B7FF4A4
:1032500076AF184B4FF080521A60BFF34F8FBFF319
:103260006F8F6CE7F86900F047FAFDF74BFE66E7F1
:10327000F86900F041FAFDF745FEF86900F09BFAA5
:103280000346002B3FF45BAF3B6A002B0DD008F0E8
:1032900098FCF86900F088F97861FB699B687969A6
:1032A0001846FEF76BFE08F0A5FC002318462837E9
:1032B000BD4680BD04ED00E080B58AB000AFF86087
:1032C000B9607A6000237B62FB683B6208F079FC9E
:1032D0003B6A9B6BFB61FB69002B21D03B6ADB687F
:1032E000BB61B968386A00F0E1F93B6ABA69DA6033
:1032F0003B6A5B6A002B0FD03B6A24331846FEF70B
:10330000F5F90346002B07D03C4B4FF080521A6072
:10331000BFF34F8FBFF36F8F08F06CFC012369E0A0
:103320007B68002B03D108F065FC002362E07B6A18
:10333000002B06D107F110031846FEF759FB0123B5
:103340007B6208F057FCFDF795FD08F03AFC3B6AFC
:1033500093F844305BB2B3F1FF3F03D13B6A0022E4
:1033600083F844203B6A93F845305BB2B3F1FF3FEA
:1033700003D13B6A002283F8452008F03BFC3A1D4C
:1033800007F1100311461846FEF748FB0346002BD1
:1033900023D1386A00F00FFA0346002B17D03B6A9E
:1033A00024337A6811461846FEF71AF9386A00F095
:1033B000A3F9FDF7A7FD0346002B87D10F4B4FF074
:1033C00080521A60BFF34F8FBFF36F8F7EE7386A6A
:1033D00000F092F9FDF796FD78E7386A00F08CF975
:1033E000FDF790FD386A00F0E6F90346002B3FF444
:1033F0006DAF002318462837BD4680BD04ED00E0C0
:1034000080B58EB000AFF860B9607A60FB683B634E
:10341000EFF311824FF0200383F31188BFF36F8F16
:10342000BFF34F8FFA61BB61FB69FB623B6B9B6B28
:10343000BB62BB6A002B37D03B6B93F8443087F8F4
:103440002730B968386B00F031F9BB6A5A1E3B6B04
:103450009A6397F92730B3F1FF3F12D13B6B1B6999
:10346000002B1ED03B6B10331846FEF73FF9034686
:10347000002B16D07B68002B13D07B6801221A60CA
:103480000FE0FDF74DFE386297F927303A6A9A420D
:1034900007D997F827300133DBB25AB23B6B83F878
:1034A000442001237B6301E000237B63FB6A7B6193
:1034B0007B6983F311887B6B18463837BD4680BD26
:1034C00080B58AB000AF786039607B683B62EFF30B
:1034D00011824FF0200383F31188BFF36F8FBFF386
:1034E0004F8F7A613B617B69FB613B6A9B6B002B71
:1034F0000CD03B6ADB68BB613968386A00F0D6F8EB
:103500003B6ABA69DA6001237B6201E000237B62D7
:10351000FB69FB60FB6883F311887B6A18462837D8
:10352000BD4680BD80B584B000AF786008F049FB2F
:103530007B689B6BFB6008F05DFBFB6818461037EF
:10354000BD4680BD80B584B000AF78607B68FB600D
:1035500008F037FBFB68DA6BFB689B6BD31ABB6028
:1035600008F048FBBB6818461037BD4680BD80B4E4
:1035700085B000AF78607B68FB60FB689B6BBB60CD
:10358000BB6818461437BD465DF8047B704780B5AC
:1035900084B000AF78607B68FB60F86807F086FE57
:1035A00000BF1037BD4680BD80B485B000AF7860E5
:1035B0007B685B6A002B06D07B681B6B1B68C3F1C2
:1035C0000503FB6001E00023FB60FB68184614372D
:1035D000BD465DF8047B704780B586B000AFF860EB
:1035E000B9607A6000237B61FB689B6B3B61FB6881
:1035F0001B6C002B0DD1FB681B68002B4DD1FB68A9
:103600009B681846FEF738FC7861FB6800229A60D8
:1036100043E07B68002B19D1FB685868FB681B6C82
:103620001A46B9682CF088FCFB685A68FB681B6C6A
:103630001A44FB685A60FB685A68FB689B689A42A8
:103640002BD3FB681A68FB685A6026E0FB68D868D1
:10365000FB681B6C1A46B9682CF06EFCFB68DA68D4
:10366000FB681B6C5B421A44FB68DA60FB68DA6833
:10367000FB681B689A4207D2FB689A68FB681B6C60
:103680005B421A44FB68DA607B68022B05D13B6918
:10369000002B02D03B69013B3B613B695A1CFB6834
:1036A0009A637B6918461837BD4680BD80B582B0E5
:1036B00000AF786039607B681B6C002B18D07B688A
:1036C000DA687B681B6C1A447B68DA607B68DA68AE
:1036D0007B689B689A4203D37B681A687B68DA60D0
:1036E0007B68D9687B681B6C1A4638682CF024FC10
:1036F00000BF0837BD4680BD80B584B000AF78609C
:1037000008F05FFA7B6893F84530FB731EE07B6836
:103710009B6C002B08D0786800F056F90346002B0C
:1037200010D0FEF7D5F90DE07B685B6A002B12D054
:103730007B6824331846FDF7D9FF0346002B01D0E0
:10374000FEF7C6F9FB7B013BDBB2FB7397F90F3049
:10375000002BDCDC00E000BF7B68FF2283F8452003
:1037600008F048FA08F02DFA7B6893F84430BB73F0
:1037700011E07B681B69002B12D07B681033184660
:10378000FDF7B4FF0346002B01D0FEF7A1F9BB7B88
:10379000013BDBB2BB7397F90E30002BE9DC00E094
:1037A00000BF7B68FF2283F8442008F023FA00BFA3
:1037B0001037BD4680BD80B584B000AF786008F09A
:1037C00000FA7B689B6B002B02D10123FB6001E0B8
:1037D0000023FB6008F00EFAFB6818461037BD4660
:1037E00080BD80B485B000AF78607B68BB60BB688B
:1037F0009B6B002B02D10123FB6001E00023FB60E7
:10380000FB6818461437BD465DF8047B704780B5E9
:1038100084B000AF786008F0D4F97B689A6B7B685D
:10382000DB6B9A4202D10123FB6001E00023FB60C5
:1038300008F0E0F9FB6818461037BD4680BD80B43B
:1038400085B000AF78607B68BB60BB689A6BBB6873
:10385000DB6B9A4202D10123FB6001E00023FB6095
:10386000FB6818461437BD465DF8047B704780B589
:1038700086B000AFF860B9607A60FB687B6108F0E1
:10388000A0F97B6993F844305BB2B3F1FF3F03D1F9
:103890007B69002283F844207B6993F845305BB252
:1038A000B3F1FF3F03D17B69002283F8452008F084
:1038B000A1F97B699B6B002B06D17B6924337A6865
:1038C000B9681846FDF7DAFE7869FFF715FF00BF03
:1038D0001837BD4680BD80B584B000AF7860002247
:1038E00004217868FFF71EF9F860FB681846103766
:1038F000BD4680BD80B584B000AF7860396008F007
:1039000060F97B689B6C002B02D00023FB600BE00E
:103910007B689B6B002B02D00023FB6004E07B687C
:103920003A689A640123FB6008F064F9FB68184662
:103930001037BD4680BD80B584B000AF7860396077
:103940007B68BB60BB689B6C3A689A4202D00023DC
:10395000FB600FE0BB689B6B002B02D00023FB6079
:1039600008E008F02EF9BB6800229A6408F042F9DA
:103970000123FB60FB6818461037BD4680BD80B54B
:1039800084B000AF786039600023FB6007F10C035E
:103990003A6819467868FFF724FBFB681846103729
:1039A000BD4680BD80B584B000AF78600023FB6069
:1039B00007F10C03002219467868FFF721FDFB6828
:1039C00018461037BD4680BD80B586B000AF786020
:1039D0007B689B6C3B6100237B613B699A6B3B6915
:1039E000DB6B9A422DD23B6993F84530FB733B1D4C
:1039F000002219463869FFF7EFFD786197F90F301B
:103A0000B3F1FF3F0ED13B695B6A002B19D03B69D4
:103A100024331846FDF76AFE0346002B11D001231C
:103A20007B610EE0FDF77CFBB86097F90F30BA6858
:103A30009A4206D9FB7B0133DBB25AB23B6983F869
:103A400045207B6918461837BD4680BD80B584B0D7
:103A500000AF78607B681B68002B04D07B681B6814
:103A6000184609F0C8FF0023FB7319E0104B1B68D0
:103A7000FA7B53F822307A689A420ED10C4B1B68BD
:103A8000FA7B53F82230184609F0B5FF084B1B6843
:103A9000FA7B002143F8221005E0FB7B0133FB7326
:103AA000FB7B072BE2D900BF1037BD4680BD00BFAE
:103AB000A0FE0020B0B582B000AF0023FB7130E063
:103AC0001C4B1B68FA7953F82230002B26D1194B76
:103AD0001C68FD79102009F082FF034644F8253068
:103AE000144B1B68FA7953F82230002B10D0114B7D
:103AF0001B68FA7953F822301022002118462DF065
:103B000065F80C4B1B68FA7953F82230FA799A72EF
:103B1000084B1B68FA7953F8223006E0FB79013331
:103B2000FB71FB79072BCBD9002318460837BD461C
:103B3000B0BD00BFA0FE002080B485B000AF03463A
:103B4000FB800023FB731FE0144B1B68FA7B53F8C8
:103B50002230002B15D0114B1B68FA7B53F8223012
:103B60001B89FA889A420CD10C4B1B68FA7B53F8DC
:103B70002230FA7B9A72094B1B68FA7B53F8223089
:103B800006E0FB7B0133FB73FB7B072BDCD90023B7
:103B900018461437BD465DF8047B7047A0FE002030
:103BA00080B584B000AF7860094B1B68002B0AD049
:103BB00000233B737B681B89FB81054B1B6807F166
:103BC0000C021046984700BF1037BD4680BD00BFAD
:103BD0009CFE002080B588B000AF78603A4B1A6830
:103BE0007B681B7B19460B46DB000B449B00134490
:103BF0003C331A687B689B7ADB0013445A687B6805
:103C00005A607B685868304B1A687B681B7B194682
:103C10000B46DB000B449B00134440331B781A46D1
:103C200013465B0013445B001A4600212CF0CEFFC4
:103C30007B681B680822002118462CF0C7FF01236F
:103C40003B814FF6FF737B811F4B1A687B681B7BA0
:103C500019460B46DB000B449B00134430331B78A2
:103C60003B73194B1A687B681B7B19460B46DB00BC
:103C70000B449B002033D018134B1A687B681B7BC6
:103C800019460B46DB000B449B00134430331B7872
:103C90001A4607F108030533014618462CF04CF983
:103CA0007B681B8907F108021146184627F00CF8BB
:103CB0000346072B03D17B681B6806225A7100BF9D
:103CC0002037BD4680BD00BFA0FE002080B582B079
:103CD00000AF78607B681B7B0133DAB27B681A73B4
:103CE0007B681A7B094B1B6893F8F8309A4203D221
:103CF0007868FFF76FFF05E07B6800225A737868E9
:103D0000FFF74EFF00BF0837BD4680BDA0FE002074
:103D100080B584B000AF786000237B81224B1A68A5
:103D20007B681B7B19460B46DB000B449B0013444E
:103D300038331B68FB6000237B7221E0FB681B6843
:103D40001B7903F00103002B14D07B6818897B6872
:103D50001B6819887B681B685B881A4624F0A6FFDD
:103D60000346072B03D17B681B6804225A71012389
:103D70007B8114E07B7A01337B72FB680433FB6048
:103D8000094B1A687B681B7B19460B46DB000B440A
:103D90009B00134440331B787A7A9A42CED37B89B6
:103DA00018461037BD4680BDA0FE002090B587B0F4
:103DB00000AF7860396000237B823B689B79152BCC
:103DC00002D110237B748FE002237B748CE07B8A0A
:103DD00005333A6813440A33FB6000233B74474BB6
:103DE0001A687B681B7B19460B46DB000B449B0063
:103DF000134438331B687B6161E07B691B681B7966
:103E000003F00103002B54D17B691B681B681B7CEA
:103E10007A7C9A424DD17B691B681B6818467B7C73
:103E20001A46F9682CF07AF80346002B41D17B8AB8
:103E30003A6813449B7A98B27B8A3A6813440A33EF
:103E400001331B789BB21B0299B27B685C683A7C99
:103E500013465B0013445B002344421892B29A80DD
:103E60007B8A03333A6813449B7A98B27B8A033384
:103E70003A6813440A3301331B789BB21B0299B290
:103E80007B685C683A7C13465B0013445B00234408
:103E9000421892B21A807B8A991C7B6858683A7CD7
:103EA00013465B0013445B0003443A680A44927A69
:103EB0009A703B7C01333B747B6904337B610F4B0D
:103EC0001A687B681B7B19460B46DB000B449B0082
:103ED000134440331B783A7C9A428ED33B689B79DB
:103EE0009AB27B8A13447B823B681B897A8A9A4206
:103EF000FFF46DAF00BF1C37BD4690BDA0FE002093
:103F000090B587B000AF7860396000237B820223D0
:103F1000FB8171E07B8A02333A6813440A33BB6049
:103F200000233B82394B1A687B681B7B19460B4682
:103F3000DB000B449B00134438331B687B6145E076
:103F40007B691B681B7903F00103002B38D07B6869
:103F500059683A8A13465B0013445B000B441B8884
:103F6000002B2DD17B691B681B681B7C9BB2FA89D7
:103F70009A4225D17B691B681B681846FB891A4643
:103F8000B9682BF0CBFF0346002B19D17B8A3A6826
:103F900013449B7A98B27B8A3A6813440A330133FC
:103FA0001B789BB21B0299B27B685C683A8A134605
:103FB0005B0013445B002344421892B21A8015E060
:103FC0003B8A01333B827B6904337B610F4B1A6868
:103FD0007B681B7B19460B46DB000B449B0013449C
:103FE00040331B789BB23A8A9A42A9D37A8AFB89DA
:103FF00013449BB202337B823B681B897A8A9A42C4
:1040000088D300BF1C37BD4690BD00BFA0FE002076
:1040100080B588B000AF786039603B681B78012BB1
:1040200000F08B80032B00F0A180002B40F0288152
:104030003B689B78002B40F02581FFF73BFDB86182
:10404000BB69002B00F01E813B689A88BB691A810E
:10405000BB6900221A733B689A79BB69DA7208203F
:1040600009F0BDFC0246BB691A600023FB7713E030
:10407000894B1968FA7F1346DB0013449B000B44FD
:104080003C331A68BB699B7ADB0013443A68928818
:104090001A80FB7F0133FB777F4B1B6893F8F83066
:1040A000FA7F9A42E4D3BB691B68002B39D0BB6905
:1040B0001B680822002118462CF088FD7B681B78BD
:1040C00003F00803DBB2002B23D17B681B7803F0DD
:1040D0000203DBB2002B03D0BB69DB7A002B0AD0D2
:1040E0007B681B7803F00403DBB2002B19D0BB699B
:1040F000DB7A012B15D17B681B7803F00103DBB25F
:10410000002B0ED1BB6901225A73B869FFF762FD1B
:1041100007E07A6813786FF3C3031370BB69012259
:104120009A7302233B73BB691B89FB815B4B1B6842
:1041300007F10C0210469847A4E03B685B881846DC
:10414000FFF7FAFC78617B69002B00F09D807869AD
:10415000FFF77CFC03233B723B685B887B814F4B02
:104160001B6807F10802104698478DE03B681B79F1
:10417000002B40F08B803B685B881846FFF7DCFC27
:1041800038613B69002B00F081803B691B68002B84
:1041900041D03B691B689B79002B3CD03B691B6875
:1041A0009B79062B03D13869FFF714FD2EE03B699C
:1041B0001B689B79082B12D13B6918893B691B68E6
:1041C00019883B691B685B881A4624F04DFD03463D
:1041D000072B1BD13B691B6808225A7116E03B690B
:1041E0001B689B79042B11D13B6918893B691B68BB
:1041F00019883B691B685B881A4624F057FD034603
:10420000072B03D13B691B6804225A713B691B6869
:1042100000229A713AE07B681B7803F00103DBB25D
:10422000002B33D01C4B1B6893F8F830002B2DD09B
:104230003B691B68002B29D03B699B7B83F0010302
:10424000DBB2002B22D07B681B7803F00203DBB2C9
:10425000002B03D03B69DB7A002B0AD07B681B78EC
:1042600003F00403DBB2002B10D03B69DB7A012B97
:104270000CD13B6901225A733869FFF7ABFC05E0AA
:1042800000BF04E000BF02E000BF00E000BF00BFCD
:104290002037BD4680BD00BFA0FE00209CFE002050
:1042A00080B58AB000AF78607B681B78132B00F272
:1042B000B58101A252F823F0094300011D46000117
:1042C000DF430001D7440001294500011D460001DC
:1042D0001D4600011D4600011D4600011D4600014E
:1042E0001D4600011D4600011D4600011D4600013E
:1042F0001D4600011D4600011D4600011D4600012E
:104300001D4600016B4500017B689B881846FFF73E
:1043100013FC78627B6A002B00F082817B6A5B7BF6
:1043200083F00103DBB2002B40F07C817B689B7A39
:104330000F2B03D07B689B7A052B15D17B6A1B68FA
:104340007A6892799A71A54B1B68002B00F06C81FA
:1043500001233B727B6A1B897B81A04B1B6807F1A1
:104360000802104698475FE17B689B79062B1CD1B9
:104370007B6A1B681B79002B13D07B6A18897B6AC8
:104380001B6819887B6A1B685B881A4624F06CFCE2
:104390000346072B40F044817B6A1B6808225A7150
:1043A0003EE1786AFFF792FC3AE17B689B79082B43
:1043B0000CD1786AFFF7ACFC03467B847B8C002B26
:1043C00040F02E81786AFFF781FC29E17B689B79B8
:1043D000042B40F02581786AFFF778FC20E17B68A8
:1043E0009B881846FFF7A8FBF861FB695B7B83F0AD
:1043F0000103DBB2002B40F01981FB69002B00F0B8
:1044000017817B681B7A99B27B68083301331B786C
:104410009BB21B029AB2FB691B680A4492B21A80D3
:104420007B689B7A99B27B680A3301331B789BB215
:104430001B029AB2FB691B680A4492B25A80684B0D
:104440001A68FB691B7B19460B46DB000B449B007B
:10445000134434331B68002B1FD0FB691A68604B70
:104460001968FB691B7B18460346DB0003449B006D
:104470000B4434331B6812881A80FB691A68584B46
:104480001968FB691B7B18460346DB0003449B004D
:104490000B4434331B6852885A80FB691B68012225
:1044A0001A717B6893F8FE30012B40F0C180FB69E4
:1044B0001889FB691B681988FB691B685B881A46A9
:1044C00024F0D2FB0346072B40F0B280FB691B6847
:1044D00008225A71ACE07B689B881846FFF72CFBDA
:1044E000B861BB695B7B83F00103DBB2002B40F05A
:1044F000A180BB69002B00F09F807968B869FFF745
:1045000055FC7B6893F8FF30012B40F09580B8692B
:10451000FFF7FEFB0346FB82FB8A002B40F08C80FA
:10452000B869FFF7D3FB87E07B689B881846FFF7E5
:1045300003FB38613B695B7B83F00103DBB2002B3B
:104540007CD13B69002B7BD07B681B89002B03D07F
:1045500079683869FFF7D4FC7B6893F8FF30012B4A
:104560006ED13869FFF7B2FB6AE07B689B8818461A
:10457000FFF7E2FAF860FB685B7B83F00103DBB2D4
:10458000002B5FD1FB68002B5ED0FB681B685B795A
:10459000062B07D1FB681B6800225A71F868FFF7E9
:1045A00019FB51E0FB681B685B79082B1AD1FB688B
:1045B0001B6800225A71FB681889FB681B68198800
:1045C000FB681B685B881A4624F04EFB0346072BEA
:1045D0003AD1FB681B6808225A7135E09CFE002026
:1045E000A0FE0020FB681B685B79042B2CD1FB68C4
:1045F0001B6800225A71FB681889FB681B681988C0
:10460000FB681B685B881A4624F050FB0346072BA7
:104610001AD1FB681B6804225A7115E000BF14E030
:1046200000BF12E000BF10E000BF0EE000BF0CE0D2
:1046300000BF0AE000BF08E000BF06E000BF04E0E2
:1046400000BF02E000BF00E000BF2837BD4680BDCC
:1046500080B582B000AF1A4B1B68002B0BD1FC2039
:1046600009F0BDF90246164B1A60154B1B68002B6A
:1046700019D100231FE00023FB7111E0104B1B68D0
:10468000FA7953F82230002B07D00D4B1B68FA79CA
:1046900053F822301846FFF7D9F9FB790133FB7143
:1046A000FB79072BEAD9064B1B68FC220021184630
:1046B0002CF08CFA012318460837BD4680BD00BF98
:1046C000A0FE002080B483B000AF7860044A7B680D
:1046D000136000BF0C37BD465DF8047B704700BF18
:1046E0009CFE002080B582B000AF7860144B1B6840
:1046F00093F8F830052B1DD8114B1A68104B1B6826
:1047000093F8F83019460B46DB000B449B0020332E
:1047100013442422796818462BF00EFC084B1B68C2
:1047200093F8F820064B1B680132D2B283F8F820C8
:10473000002300E0012318460837BD4680BD00BFB6
:10474000A0FE002080B582B000AF786039603B6881
:104750001B78012B02D0042B0AD010E07B68002BC1
:104760000CD03B685B6819467868FFF751FC05E0A0
:104770003B685B681846FFF793FD00E000BF00BF91
:104780000837BD4680BD80B584B000AF0346FB80CE
:10479000FB881846FFF7D0F9F860FB68002B17D0AC
:1047A000FB681B68002B11D0FB681B6808220021E6
:1047B00018462CF00BFAFB6800221A73FB680122E2
:1047C0005A73F868FFF706FA002302E0022300E0BC
:1047D000032318461037BD4680BD00BF08B5044B03
:1047E000186818B1804780F00100C0B208BD00BF52
:1047F0003CF2002009B91046704780B1037883EA83
:10480000122383EA131343EA022282EA033282EA82
:10481000431292B200B10130013989B2EAE7FF23B5
:10482000EDE72DE9F04F85B081460E9E8A46904611
:1048300006B11E4443449CB247465546A74203D1A5
:10484000012005B0BDE8F08F95B36A4610232946D4
:10485000484609F007F9BDF80420944208D9BDF88C
:10486000063013449BB29F4202D29C4203D91F469A
:10487000BDF80A50E8E79742A4EB020128BFE31B0A
:1048800089B234BF0B469BB2A4EB030432BFBDF820
:104890000AB04746D346A4B246B110352944F61AA9
:1048A000C91A324689B2484609F0DCF85D46C5E7C8
:1048B0002846C6E72DE9F74FD4889688DFF8588058
:1048C00082468B4644F307254FF6FF77002D03DA27
:1048D000384603B0BDE8F08F1AD0A4F580741FFAF3
:1048E00084F94FF48074CDF800802346324659464F
:1048F0005046FFF796FF38B13A4621464046FFF74B
:1049000079FF2644B6B20746013D6DB24C46DDE75D
:10491000002CDDD0A146E6E740F2002010B5094C9E
:1049200094F8040109F03CF94FF40052002194F886
:10493000040109F05FF918B14FF48073A4F806314F
:1049400010BD00BF3CF200202DE9F041094C0546A6
:104950000E46174613460A46014694F8040109F02C
:10496000B7F83B463246294694F80401BDE8F041C9
:1049700009F08EB93CF2002003292CD8DFE801F0C1
:1049800002091B23184BB3F806211044A3F80601B3
:104990007047154AB2F80631184480B2C11C4FF670
:1049A000FC730B40984203D90430A2F8060170470B
:1049B000A2F8063170470C4AB2F806310F3318449A
:1049C00020F00F00F1E7084AB2F806313F331844EF
:1049D00020F03F00E9E74FF0200383F31188BFF395
:1049E0006F8FBFF34F8FFEE73CF200204FF02003A4
:1049F00083F31188BFF36F8FBFF34F8FFEE770B55E
:104A00000C4A92F808410023D9B28C4201D8002008
:104A10000BE05D1C9B00D118B1F80961864207D1FB
:104A2000B1F80B2112B10448184470BDFFF7DEFF46
:104A30002B46E9E73CF2002045F3002008B5FFF7DC
:104A4000DEFF00B1408808BD10B50446FFF7D7FF70
:104A500040B14FF0200383F31188BFF36F8FBFF392
:104A60004F8FFEE7094B93F80801020601D5FFF7C7
:104A7000BDFF421C83F8082103EB800203F20913F7
:104A8000A2F8094103EB800010BD00BF3CF20020FA
:104A900008B5FFF7B4FF08B9FFF7A8FF064A92F878
:104AA0000831013BDBB282F8083102EB8303D3F813
:104AB0000931036008BD00BF3CF200202DE9F04140
:104AC000244CB4F80A33B4F80C6303449BB204F2E8
:104AD0000E37FF2B0546A4F80A3307EB060004F156
:104AE00004080AD82A46414635442BF025FA012607
:104AF000A4F80C533046BDE8F081C6F580724146FB
:104B00002BF01AFA4FF480723946B4F80601FFF719
:104B10001BFF06460028EDD000214FF48070FFF700
:104B20002BFFB4F80A53B4F80C13A5F580750023D5
:104B3000ADB2A4F80C33A4F80A53002DDAD0C1F5B5
:104B400080712A4618FA81F138462BF0F5F9A4F85D
:104B50000C53CFE73CF200207FB545F24143ADF85E
:104B600006300D4BCDE902300C4BC043B3F80E3488
:104B700004904FF6FF7210210DF10600ADF81430CD
:104B8000FFF738FE1222ADF8040001A90020FFF75C
:104B9000DBFE07B05DF804FB534E76323CF200209A
:104BA0002DE9F04F724C94F8047100258FB0122358
:104BB00009AA29463846A4F81054A4F81254A4F8B7
:104BC0000C53A4F80A5308F04DFF0B9B039394F881
:104BD00004310133DBB2012B94BF84F8043184F833
:104BE000045194F80431BB4208D14FF0200383F301
:104BF0001188BFF36F8FBFF34F8FFEE7FFF78EFE75
:104C00000028E4D04FF0000ADFF8708180E004EB68
:104C10008A091023B9F80BB105AA5946384608F09D
:104C200021FF0026BDF81C50ADF81A5005AA5946C0
:104C30003846ADF81860ADF81E60ADF82060FFF79B
:104C400039FE4FF6FF72ADF814000E2105A8FFF7EC
:104C5000D1FDF022ADF82200FF2146482BF0B6FF2F
:104C600005AB03CB1035C8F80000C8F80410B4F841
:104C70000C2303CBB4F80631C8F80800ADB21344D6
:104C8000B5F5807FC8F80C10A9F80B3119D8394B4D
:104C900000933246BDF81C3059463846FFF7C1FD37
:104CA00050B1B4F80631B4F80C231344A9F80B3111
:104CB0002846FFF703FF38BB002420460FB0BDE8AD
:104CC000F08F1023B5F5807F2A4628BF4FF48072FD
:104CD000A2EB03091FFA89F943440292009332467A
:104CE0004B4659463846FFF79CFD0028E4D0029811
:104CF000FFF7E4FE0028DFD0029BED1A4E44ADB270
:104D0000B6B20023002DDDD10AF101035FFA83FA68
:104D100094F8083153453FF67AAFB4F80A23FAB94C
:104D2000B4F80A030021FFF727FEB4F80631A4F80F
:104D30000E34039B581EFFF70FFF04460028BBD01C
:104D400002210020FFF718FE1222FF2109A82BF0F4
:104D50003DFF122309AA0021384608F0B9FEACE74E
:104D60000549B4F80601FFF7EFFD0028D8D1A3E705
:104D70003CF2002050F200204AF5002040F20020D2
:104D800008B50A4BB3F80631C3F500539BB2834212
:104D90000BD2FFF705FF40B94FF0200383F31188D2
:104DA000BFF36F8FBFF34F8FFEE708BD3CF20020CB
:104DB0002DE9F84F344E0446351D89464FF4807274
:104DC000FF2128462BF002FFE1884FF6FF7248468C
:104DD000FFF710FD4FF6FF7220800E212046FFF7EF
:104DE00009FD2346E08103CB7060696003CBA860B6
:104DF000E960E28802F11007BFB2B9F1000F07D0F5
:104E0000B7F5807F17D8494606F114002BF094F8C7
:104E1000E2881E49B6F80601F02A28BFF0221032B7
:104E200092B2FFF791FD8046E0881030022180B2F7
:104E3000FFF7A2FD25E04FF0000B1020B7F5807FB3
:104E40003C4628BF4FF48074A4EB000A524609EB9D
:104E50000B0128442BF070F822460C49B6F80601E5
:104E6000FFF772FD804660B1204602213F1BFFF72D
:104E700083FDBFB20BEB0A031FFA83FB0020002F58
:104E8000DCD14046BDE8F88F3CF2002040F2002023
:104E90002DE9F041674C00258EB084F808514FF0A1
:104EA000FF38FF27122304AA0021284608F0DAFD64
:104EB000DDE906637340013326D19DF81230412BA2
:104EC00022D19DF81330542B1ED19DF81430532B52
:104ED0001AD19DF815304E2B16D19DF81630762B31
:104EE00012D19DF81730322B0ED14FF6FF721021E0
:104EF0000DF11200FFF77EFCBDF81030834203D1A4
:104F000046453CBFB0462F46E5B1FF2F2CD10023CC
:104F100084F804314FF6FF766FF00105FFF7FEFCD1
:104F200090B994F804310133DBB2012B84F80431D9
:104F3000F4D94FF0200383F31188BFF36F8FBFF3D1
:104F40004F8FFEE70125ADE72846A4F80E64FFF772
:104F500003FE0028E5D0002384F80831012384F8FB
:104F600014340EB0BDE8F0814FF48073A4F806311C
:104F70003846122309AA002184F8047108F072FD52
:104F80004FF6FF77B4F80631B3F5005FE6D2BDF80F
:104F90003420BA4201D09A4217D802210020FFF7EC
:104FA000EBFC022510236A46B4F8061194F80401BC
:104FB00008F058FD6A46102312F8011BFF291ED184
:104FC000013B9BB2002BF7D1C8E70025EAE7294651
:104FD0001020FFF7D1FCD5E7BDF802603046FFF79F
:104FE0000EFD10B93046FFF72FFDB4F806314380AF
:104FF000BDF80830BBB93046FFF74AFD13E03A462A
:105000000E216846FFF7F6FBBDF80E608642DED142
:105010006A46B4F8061194F80401FFF74BFCBDF89A
:1050200000308342D8D0BDF806001030294680B247
:10503000CFE700BF3CF20020034B93F814340BB9C8
:10504000FFF726BF704700BF3CF200202DE9FF4765
:105050008A4616469846054630B12BB1FFF7BEFB8F
:10506000044650B1052045E04FF0200383F311883A
:10507000BFF36F8FBFF34F8FFEE706F1100080B2D2
:10508000FFF77EFE2846FFF7BAFC0746A8B3B0F844
:1050900002901D4D10236A46494695F8040108F018
:1050A000E1FCBDF808300AEB06029A4227D8B34269
:1050B00018BFBDF80C40ADF804A01CBF0134A4B269
:1050C00041466846ADF80C40ADF80660ADF80A9070
:1050D000B5F80641FFF76CFE98B1BDF80C307C8046
:1050E000642B4FF0000005D9BDF80230A5F810344C
:1050F000A5F8120404B0BDE8F0870320FAE7042005
:10510000F8E70120F6E700BF3CF2002073B50C463B
:1051100015461E46C0B1BBB1FFF790FC80B16319C4
:10512000B3F5803F09D201460C4800962B46224633
:1051300090F80401FFF775FB20B9042002B070BDA0
:105140000320FBE70020F9E74FF0200383F31188E9
:10515000BFF36F8FBFF34F8FFEE700BF3CF200201D
:105160001FB540B94FF0200383F31188BFF36F8F51
:10517000BFF34F8FFEE7FFF761FC48B101460648D9
:10518000102390F804016A4608F06CFCBDF8080092
:1051900005B05DF804FB00BF3CF200202DE9F04FA4
:1051A000431E14469BB24FF6FD7293428BB080466D
:1051B0000E461DD8B1F5006F1AD8FFF73FFC00BBB3
:1051C000FFF70CFB054648BB06F1100080B2FFF765
:1051D000D7FD8D4B93F90821002A80F2F7804FF01C
:1051E000200383F31188BFF36F8FBFF34F8FFEE768
:1051F0004FF0200383F31188BFF36F8FBFF34F8FFE
:10520000FEE74046FFF7ACFF86420FD07E4DA5F883
:105210001084A5F81264FFF7E1FA08B105200EE04A
:10522000B5F8120470B9B5F810347BB9002C00F051
:10523000E6802346324600214046FFF767FF0BB069
:10524000BDE8F08F103080B2FFF79AFDB5F810047A
:10525000FFF7D5FB81460028E8D0B0F802B095F8FA
:105260000401102306AA594608F0FCFBB5F81234D5
:10527000EBB9BDF82000103080B2FFF781FDB5F822
:105280001004FFF7BCFB814640B94FF0200383F3C5
:105290001188BFF36F8FBFF34F8FFEE7B0F802B0F6
:1052A00095F80401102306AA594608F0DBFBB5F86F
:1052B0001224B5F806310493BDF8203022B1934290
:1052C000ADF8202028BF13460022BDF82010ADF80D
:1052D0001C20ADF81E10ADF82220ADF824200DF1F1
:1052E000180CBCE80300DFF824A1686003F1100784
:1052F000CAF80410BCE80300BFB2B7F5807FCAF853
:105300000800CAF80C1030D80AF11001009195F885
:1053100004015946FFF785FA002872D006AB03CB8B
:10532000BDF81E206860CAF8041003CB1032CAF81A
:105330000800CAF80C1092B25146B5F80601FFF702
:1053400003FB00283FF472AFBDF81E0010300221AD
:1053500080B2FFF711FB2C4B0022A3F81024A3F816
:105360001224049BA9F8023060E715461023CDF8FB
:1053700014A0B7F5807FBA4628BF4FF4807AAAEB15
:10538000030292B20392059A1F48134400932A46DF
:10539000039B90F804015946FFF743FA88B31B4971
:1053A0005246B1F80201FFF7CFFA00283FF43EAFB2
:1053B00002215046FFF7E0FA039BA7EB0A072B44B4
:1053C000BFB29DB20023002FD3D1C4E7214606A867
:1053D000B3F80671ADF81A80ADF81C50ADF81E6038
:1053E000ADF82060ADF82250ADF82450FFF7E0FC96
:1053F00038B14046FFF728FB478002201FE72046D0
:105400001DE701201BE700BF3CF2002040F2002016
:10541000F0B5074685B040B94FF0200383F31188FB
:10542000BFF36F8FBFF34F8FFEE7FFF707FB002837
:105430003FD0FFF7D3F9044600283CD11020FFF7F6
:105440009FFC4FF6FF720E216846ADF80020ADF8C4
:105450000270CDE90144ADF80C40FFF7CBF96B4683
:10546000ADF80E0003CB154D6860A96003CB2E1D6F
:10547000E860296110223146B5F80601FFF764FAA9
:1054800068B91022B5F8061195F8040108F0B2FBCE
:1054900018B902211020FFF76FFA012007E002215E
:1054A0001020FFF769FA3846FFF7F2FA204605B0F8
:1054B000F0BD0320FBE70520F9E700BF3CF2002028
:1054C000F8B50446FFF78AF9054668BB64B108F0F1
:1054D00067FB012008F064FB4FF400722946134873
:1054E0002BF074FB002020E0114D95F80871E3B219
:1054F0009F420CD8FFF754FB0028F3D14FF0200354
:1055000083F31188BFF36F8FBFF34F8FFEE705EB77
:105510008403B3F80961304603F070FF10B93046D8
:10552000FFF7B6FA0134E2E70520F8BD45F30020A5
:105530003CF20020014B1860704700BF3CF2002095
:1055400008B5FFF77BFA003018BF012008BD08B589
:10555000FFF726FB40B94FF0200383F31188BFF318
:105560006F8FBFF34F8FFEE708BD00BF80B582B0DD
:1055700000AF0346FB71FB799B00054A13440422EC
:10558000002118462BF022FB00BF0837BD4680BD26
:1055900058F6002080B485B000AF0346FB8000239E
:1055A000FB7316E0FB7B104A9B0013445B78012BD6
:1055B0000CD1FB7B0C4A9B0013445B88FA889A420F
:1055C00004D1FB7B9B00084A134406E0FB7B0133BC
:1055D000FB73FB7B072BE5D9002318461437BD4628
:1055E0005DF8047B704700BF58F6002080B483B09C
:1055F00000AF0023FB7119E0FB79114A9B001344B3
:105600005B78002B0FD1FB790D4A9B0013440122DC
:105610005A70FB790A49FA7901F82320FB799B003B
:10562000074A134406E0FB790133FB71FB79072B32
:10563000E2D9002318460C37BD465DF8047B70475D
:1056400058F6002080B586B000AF03463960FB7184
:105650001346BB710B4B1B68002B0FD0FB793B72C1
:10566000BA7907F108030233396818462AF064FC56
:10567000044B1B6807F108021046984700BF183713
:10568000BD4680BD54F6002080B582B000AF034611
:10569000FB71FB799B00164A134404220021184633
:1056A0002BF094FAFB79DB00124A13440822002104
:1056B00018462BF08BFAFA7913465B0013445B0013
:1056C0000D4A13440622002118462BF07FFAFA797E
:1056D000F97913465B0013445B00074A1A440548F6
:1056E000CB0003445A6000BF0837BD4680BD00BFF1
:1056F00078F60020C8F7002098F6002080B582B028
:1057000000AF0346FB71FB799B00164A1344042249
:10571000002118462BF05AFAFB79DB00124A134499
:105720000822002118462BF051FAFA7913465B0043
:1057300013445B000D4A13440622002118462BF047
:1057400045FAFA79F97913465B0013445B00074A7E
:105750001A440548CB0003445A6000BF0837BD46D1
:1057600080BD00BFC8F6002008F80020E8F6002041
:1057700080B582B000AF0346FB71FB799B00164AEF
:1057800013440422002118462BF020FAFB79DB0099
:10579000124A13440822002118462BF017FAFA790E
:1057A0001346DB0013445B000D4A13441222002110
:1057B00018462BF00BFAFA79F9791346DB001344FB
:1057C0005B00074A1A440548CB0003445A6000BFF7
:1057D0000837BD4680BD00BF18F7002048F80020FC
:1057E00038F7002080B58CB000AF7860396007F1E1
:1057F0000C032422002118462BF0E8F902233B7702
:105800007B681B889BB2BB8107F10C031B8841F6A8
:105810000302934202D10B4B3B6201E00A4B3B6215
:105820000A4B7B623B68BB62012387F82C3007F18F
:105830000C031846FEF756FF034618463037BD46A0
:1058400080BD00BF78F60020C8F600207804012053
:1058500080B58CB000AF7860396002233B777B68FD
:105860001B889BB2BB81094B3B62094B7B623B6847
:10587000BB62032387F82C3007F10C031846FEF7B0
:1058800031FF034618463037BD4680BD18F700206B
:105890007C04012080B588B000AF78607B685B88AD
:1058A0001846FFF777FEF861FB69002B05D100224F
:1058B00000210420FFF7C6FE3EE0FB691B78204A6A
:1058C000DB0013445B681B88002B34D07B685B884B
:1058D000BB81FB691B781A461A4B33F82230FB81D7
:1058E000FB691B78174A9B0013445B883B82FB696A
:1058F0001B781A46144B33F822307B82FB691B78E5
:10590000114A9B0013445B88BB82FB691B781A46D3
:105910000E4B33F82230FB82FB691B780B4A9B004D
:1059200013445B883B8307F10C030E2219460020C9
:10593000FFF788FE00E000BF2037BD4680BD00BFF6
:10594000C8F7002078F60020C8F6002018F70020DD
:1059500080B588B000AF78607B689B881846FFF7F9
:1059600019FEF861FB69002B05D1002200210420FB
:10597000FFF768FE42E07B68B3F80021FB691B7803
:105980002049DB000B445B681B889A4216D17B6878
:105990000A33BB617B689B88BB82BA6907F1140339
:1059A000023312781A70BB690133BB6107F114032B
:1059B000042219460220FFF745FE1FE07B68B3F87A
:1059C0000021FB691B781049DB000B445B681B88D6
:1059D0009A4213D17B680A333B617B689B88BB8109
:1059E0003B691B785BB2BB733B6901333B6107F1D9
:1059F0000C03042219460320FFF724FE2037BD467E
:105A000080BD00BFC8F7002048F8002080B584B0F2
:105A100000AF78607B689B881846FFF7BBFDF86095
:105A2000FB68002B05D1002200210420FFF70AFEAD
:105A300016E07B681A89FB681B780B49DB000B4476
:105A40005B681B889A420BD17B689B883B81002353
:105A50007B8107F10803042219460120FFF7F2FDBC
:105A60001037BD4680BD00BFC8F7002080B584B0A8
:105A700000AF78607B689B881846FFF78BFDF86065
:105A8000FB68002B05D1002200210420FFF7DAFD7E
:105A900018E07B681A89FB681B780C49DB000B4413
:105AA0005B681B889A420DD17B689B883B817B6831
