:0200000400807A
:105F8800FFFF000000400E8438FC745F3B4410148F
:085F98000B0000710200000083
:045FBC0000000010D1
:020000040100F9
:10000000FEFFFFFF01015048434D00000000740057
:1000100000000001000200010002000100200300B6
:1000200000000000000000000000000000000000D0
:1000300000000000000000000000000000000000C0
:1000400000000000000000000000000000000000B0
:1000500000000000000000000000000000000000A0
:100060000000000000000000000000000000000090
:100070000000000000000000000000000000000080
:100080000000000000000000000000000000000070
:100090000000000000000000000000000000000060
:1000A0000000000000000000000000000000000050
:1000B0000000000000000000000000000000000040
:1000C0000000000000000000000000000000000030
:1000D0000000000000000000000000000000000020
:1000E0000000000000000000000000000000000010
:1000F0000000000000000000000000000000000000
:1001000000000000000000000000000000000000EF
:1001100000000000000000000000000000000000DF
:1001200000000000000000000000000000000000CF
:1001300000000000000000000000000000000000BF
:1001400000000000000000000000000000000000AF
:10015000000000000000000000000000000000009F
:10016000000000000000000000000000000000008F
:10017000000000000000000000000000000000007F
:10018000000000000000000000000000000000006F
:10019000000000000000000000000000000000005F
:1001A000000000000000000000000000000000004F
:1001B000000000000000000000000000000000003F
:1001C000000000000000000000000000000000002F
:1001D000000000000000000000000000000000001F
:1001E000000000000000000000000000000000000F
:1001F00000000000000000000000000000000000FF
:10020000F07F0120B970020125E602012BE6020110
:1002100037E602013DE6020143E60201000000006C
:1002200000000000000000000000000009BB000109
:1002300031E602010000000029BC000197BC00016A
:1002400003FD000103FD000103FD0001E5CD0001F8
:1002500003FD000103FD000103FD000103FD00019A
:1002600003FD000103FD000103FD000103FD00018A
:1002700003FD000103FD000103FD000103FD00017A
:1002800003FD000103FD000103FD000103FD00016A
:1002900003FD000103FD000103FD000103FD00015A
:1002A00003FD000103FD000103FD000103FD00014A
:1002B00003FD000103FD000103FD0001D146020121
:1002C000C9CC010103FD000103FD000103FD000194
:1002D00003FD000103FD000103FD000103FD00011A
:1002E00003FD000100000000A14F020100203200C8
:1002F00060FB002000000000000000000120320030
:1003000060FB00200000000000000000022032001E
:1003100060FB00200000000000000000032032000D
:1003200060FB0020000000000000000004203200FC
:1003300060FB0020000000000000000005203200EB
:1003400060FB0020000000000000000006203200DA
:1003500060FB0020000000000000000007203200C9
:1003600060FB0020000000000000000008202000CA
:1003700094FB002000000000000000000920200085
:1003800094FB002000000000000000000A20200074
:1003900094FB002000000000000000000B20200063
:1003A00094FB002000000000000000000C20200052
:1003B00094FB002000000000000000000D20200041
:1003C00094FB002000000000000000000E20200030
:1003D00094FB002000000000000000000F2020001F
:1003E00094FB00200000000000000000F8B500BFF2
:1003F000F8BC08BC9E4670474D950201F8B500BF99
:10040000F8BC08BC9E4670472995020180B58CB0A7
:1004100004AFF860B9603B601346FB80FB889B002B
:1004200018460AF0A5FE78617B69002B13D0542092
:100430000AF09EFEF861FB69002B08D054220021CF
:10044000F86930F0C3FBFB697A691A6305E07869E3
:100450000AF02CFF01E00023FB61FB69002B13D0A5
:10046000FA8800230393FB690293FB6A0193BB6A3A
:1004700000933B68B968F86800F00EF8F86900F07E
:100480007BF80123BB6102E04FF0FF33BB61BB6926
:1004900018462037BD4680BD80B586B000AFF860F5
:1004A000B9607A603B60BB6A186B7B689B001A4638
:1004B000A52130F08BFBBB6A1A6B7B6803F180438C
:1004C000013B9B0013443B613B6923F007033B6105
:1004D000BB68002B1ED000237B6112E0BA687B69E9
:1004E00013441978BA6A7B69134434330A461A7084
:1004F000BA687B6913441B78002B06D07B690133F3
:100500007B617B690F2BE9D900E000BFBB6A002249
:1005100083F843203B6A042B01D904233B62BB6A66
:100520003A6ADA62BB6A3A6A5A64BB6A04331846AA
:1005300013F0D4FBBB6A1833184613F0CFFBBB6A29
:10054000BA6A1A613B6AC3F10502BB6A9A61BB6A67
:10055000BA6A5A623A68F96838690BF089FA024651
:10056000BB6A1A607B6A002B02D07B6ABA6A1A6087
:1005700000BF1837BD4680BD80B584B000AF78603D
:100580000BF01FFB3E4B1B6801333D4A13603D4B94
:100590001B68002B09D13B4A7B681360384B1B68F2
:1005A000012B10D101F004FB0DE0374B1B68002B31
:1005B00009D1344B1B68DA6A7B68DB6A9A4202D83D
:1005C000304A7B681360314B1B6801332F4A13603C
:1005D0007B68DB6A01229A402D4B1B6813432C4A2F
:1005E00013607B68DA6A2B4913469B0013449B0017
:1005F0000B4404331B68FB607B68FA689A60FB68F5
:100600009A687B68DA60FB689B687A6804325A6093
:100610007B681A1DFB689A607B68DA6A13469B0048
:1006200013449B001B4A1A447B685A617B68DA6A50
:10063000184913469B0013449B000B441B68591C2C
:10064000144813469B0013449B00034419600BF0AD
:10065000D1FA0D4B1B68002B0ED00A4B1B68DA6ACF
:100660007B68DB6A9A4207D20B4B4FF080521A60CC
:10067000BFF34F8FBFF36F8F00BF1037BD4680BDF4
:1006800060F9002088F800206CF900207CF9002037
:1006900068F900208CF8002004ED00E080B584B0FB
:1006A00000AF78600BF08DFA7B68002B02D1344BE1
:1006B0001B6800E07B68FB60FB680433184613F09E
:1006C00077FB0346002B15D1FB68DA6A2D491346E8
:1006D0009B0013449B000B441B68002B0AD1FB6852
:1006E000DB6A012202FA03F3DA43274B1B6813404B
:1006F000254A1360FB689B6A002B04D0FB68183303
:10070000184613F055FB214B1B6801331F4A136039
:100710001B4B1B68FA689A420BD1FB6804331946DD
:100720001B4813F0E8FA1B4B1B680133194A13608E
:1007300006E0194B1B68013B174A136001F0B4FA3D
:100740000BF058FA0E4B1B68FA689A4202D0F86810
:1007500001F09AFA114B1B68002B0CD0084B1B6858
:10076000FA689A4207D10E4B4FF080521A60BFF3DD
:100770004F8FBFF36F8F00BF1037BD4680BD00BFE6
:1007800088F800208CF8002068F900207CF900200F
:1007900034F9002048F9002060F900206CF90020AD
:1007A00004ED00E080B586B000AF786039600023CA
:1007B0007B6100F05FFB224B1B683B617B681B6821
:1007C0003A681344FB607B681B683A699A420BD213
:1007D0007B681B68FA689A4211D2FA683B699A42B0
:1007E0000DD901237B610AE07B681B68FA689A4295
:1007F00003D3FA683B699A4201D901237B617B6884
:10080000FA681A607B69002B06D0FA683B69D31A34
:100810000021184602F08EF800F074FBB860BB6847
:10082000002B07D1074B4FF080521A60BFF34F8F58
:10083000BFF36F8F7B6918461837BD4680BD00BF78
:1008400064F9002004ED00E080B584B000AF78606A
:100850000023FB607B68002B08D000F00BFB00211D
:10086000786802F067F800F04DFBF860FB68002B39
:1008700007D1064B4FF080521A60BFF34F8FBFF382
:100880006F8F00BF1037BD4680BD00BF04ED00E094
:1008900080B588B000AF78607B687B61294B1B68AE
:1008A0007A699A4202D10023FB7745E00BF089F97F
:1008B0007B695B693B61244B1B68FB60234B1B68B6
:1008C000BB600BF097F93A69FB689A4203D03A692A
:1008D000BB689A4202D10223FB772DE03B691C4A98
:1008E00093421DD17B699B6A002B16D10323FB77B2
:1008F0000023BB610DE07A69BB69134450331B7858
:10090000DBB2012B02D10223FB7715E0BB69013377
:10091000BB61BB69002BEEDD0EE00223FB770BE031
:100920003B690C4A934202D03B69002B02D104235D
:10093000FB7701E00123FB77FB7F18462037BD469C
:1009400080BD00BF88F8002018F900201CF90020A5
:100950004CF9002034F9002080B584B000AF7860F5
:100960000BF02FF97B68002B02D1074B1B6800E0CE
:100970007B68FB60FB68DB6ABB600BF03BF9BB6824
:1009800018461037BD4680BD88F8002080B489B075
:1009900000AF7860EFF311824FF0200383F31188EA
:1009A000BFF36F8FBFF34F8F3A61FB603B69FB6111
:1009B0007B68002B02D10A4B1B6800E07B68BB619F
:1009C000BB69DB6A7B61FB69BB60BB6883F3118831
:1009D0007B6918462437BD465DF8047B704700BF2D
:1009E00088F8002080B588B000AF786039600023B7
:1009F000FB613B68042B01D904233B600BF0E1F859
:100A00007B68002B02D1554B1B6800E07B68BB6103
:100A1000BB695B6C7B617A693B689A4200F09880A5
:100A20003A687B699A420DD94C4B1B68BA699A4265
:100A30000FD04A4B1B68DB6A3A689A4209D30123FC
:100A4000FB6106E0454B1B68BA699A4201D101235C
:100A5000FB61BB69DB6A3B61BB695A6CBB69DB6AE2
:100A60009A4202D1BB693A68DA62BB693A685A6451
:100A7000BB699B69002B04DB3B68C3F10502BB69C2
:100A80009A61BB6959693A6913469B0013449B00FC
:100A9000334A1344994250D1BB690433184613F0CA
:100AA00087F90346002B09D101223B6902FA03F3BF
:100AB000DA432C4B1B6813402A4A1360BB69DB6A7C
:100AC00001229A40274B1B681343264A1360BB69D7
:100AD000DA6A234913469B0013449B000B440433FA
:100AE0001B68FB60BB69FA689A60FB689A68BB691F
:100AF000DA60FB689B68BA6904325A60BB691A1DE8
:100B0000FB689A60BB69DA6A13469B0013449B003A
:100B1000134A1A44BB695A61BB69DA6A1049134621
:100B20009B0013449B000B441B68591C0C48134644
:100B30009B0013449B0003441960FB69002B07D002
:100B4000094B4FF080521A60BFF34F8FBFF36F8F86
:100B50000BF050F800BF2037BD4680BD88F800205C
:100B60008CF8002068F9002004ED00E080B584B026
:100B700000AF78600BF025F87B68002B02D13B4B6F
:100B80001B6800E07B68BB60BB680433184613F049
:100B90000FF90346002B15D1BB68DA6A34491346B6
:100BA0009B0013449B000B441B68002B0AD1BB68BD
:100BB000DB6A012202FA03F3DA432E4B1B6813406F
:100BC0002C4A1360BB689B6A002B04D0BB681833A7
:100BD000184613F0EDF8BB6804331946264813F0A5
:100BE0008AF80023FB6010E0BA68FB6813445033B6
:100BF0001B78DBB2012B05D1BA68FB681344503374
:100C000000221A70FB680133FB60FB68002BEBDDF0
:100C10000AF0F0FF194B1B68002B05D00AF0D1FF3A
:100C200001F042F80AF0E6FF104B1B68BA689A42DE
:100C300018D1124B1B68002B08D0114B4FF080527B
:100C40001A60BFF34F8FBFF36F8F0BE00A4B1A6828
:100C50000C4B1B689A4203D1044B00221A6001E03E
:100C600000F052FC00BF1037BD4680BD88F8002060
:100C70008CF8002068F900204CF900206CF9002065
:100C800004ED00E060F9002080B485B000AF78602A
:100C90000023FB607B68BB60BB685B690A4A9342C8
:100CA0000AD1BB689B6A094A934205D0BB689B6A1C
:100CB000002B01D10123FB60FB6818461437BD46A9
:100CC0005DF8047B704700BF4CF9002020F900203C
:100CD00080B584B000AF78607B68FB60344B1B68E4
:100CE000FA689A425FD0FB68002B5CD00AF069FF7B
:100CF000F868FFF7C9FF0346002B52D0FB680433A6
:100D0000184613F055F8FB68DB6A01229A40294B1C
:100D10001B681343274A1360FB68DA6A26491346A7
:100D20009B0013449B000B4404331B68BB60FB68AF
:100D3000BA689A60BB689A68FB68DA60BB689B68AF
:100D4000FA6804325A60FB681A1DBB689A60FB6837
:100D5000DA6A13469B0013449B00174A1A44FB6847
:100D60005A61FB68DA6A144913469B0013449B00DE
:100D70000B441B68591C104813469B0013449B00EE
:100D800003441960FB68DA6A094B1B68DB6A9A4204
:100D900007D30A4B4FF080521A60BFF34F8FBFF357
:100DA0006F8F0AF027FF00BF1037BD4680BD00BF20
:100DB00088F8002068F900208CF8002004ED00E09D
:100DC00080B584B002AF184B019300230093002339
:100DD0004FF4807215491648FFF718FB78607B685E
:100DE000012B02D106F066FB78607B68012B14D1E1
:100DF0004FF0200383F31188BFF36F8FBFF34F8F42
:100E00003B600C4B4FF0FF321A600B4B01221A6013
:100E10000A4B00221A600AF0A2FE094B1B6800BFB1
:100E20000837BD4680BD00BF84F90020601A030169
:100E3000E91A000180F900206CF9002064F9002013
:100E4000FC04012080B582B000AF4FF0200383F393
:100E50001188BFF36F8FBFF34F8F7B60044B00226D
:100E60001A600AF0A7FE00BF0837BD4680BD00BF6C
:100E70006CF9002080B400AF044B1B680133034AB7
:100E8000136000BFBD465DF8047B704788F9002001
:100E900080B485B000AF0023BB6001237B60144B9E
:100EA0001B687A689A4201D20123BB60114B1B6810
:100EB000DB6A002B02D00023FB6012E00E4B1B68A4
:100EC000012B02D90023FB600BE0BB68002B02D092
:100ED0000023FB6005E0094B1A68094B1B68D31A15
:100EE000FB60FB6818461437BD465DF8047B70470D
:100EF00068F9002088F800208CF8002080F9002094
:100F000064F9002080B586B000AF00237B61002328
:100F10003B610AF056FE684B1B68013B664A136052
:100F2000654B1B68002B40F0C080644B1B68002B96
:100F300000F0BB808AE0624BDB68DB687B617B6929
:100F40009B6ABB607B69DB697A69126A9A607B691C
:100F50001B6A7A69D2695A60BB685A687B69183320
:100F60009A4203D17B691A6ABB685A607B69002286
:100F70009A62BB681B685A1EBB681A607B695B6912
:100F80007B607B699B687A69D2689A607B69DB6861
:100F90007A6992685A607B685A687B6904339A421E
:100FA00003D17B69DA687B685A607B6900225A61E9
:100FB0007B681B685A1E7B681A607B69DB6A0122AA
:100FC0009A40404B1B6813433E4A13607B69DA6AC0
:100FD0003D4913469B0013449B000B4404331B689C
:100FE0003B607B693A689A603B689A687B69DA6023
:100FF0003B689B687A6904325A607B691A1D3B68BA
:101000009A607B69DA6A13469B0013449B002E4A60
:101010001A447B695A617B69DA6A2B4913469B0043
:1010200013449B000B441B68591C274813469B0024
:1010300013449B00034419607B69DA6A234B1B68E5
:10104000DB6A9A4202D3224B01221A601C4B1B68B6
:10105000002B7FF470AF7B69002B01D000F024FEE1
:101060001C4B1B68FB60FB68002B10D000F03EF9A6
:101070000346002B02D0164B01221A60FB68013B8D
:10108000FB60FB68002BF1D1124B00221A60104B61
:101090001B68002B09D001233B610F4B4FF080529E
:1010A0001A60BFF34F8FBFF36F8F0AF0A3FD3B6948
:1010B00018461837BD4680BD88F9002060F9002029
:1010C00020F9002068F900208CF8002088F8002022
:1010D00074F9002070F9002004ED00E080B483B0C2
:1010E00000AF054B1B687B607B6818460C37BD461C
:1010F0005DF8047B704700BF64F9002080B483B0C2
:1011000000AF00237B60054B1B683B603B681846C3
:101110000C37BD465DF8047B704700BF64F90020C2
:1011200080B400AF034B1B681846BD465DF8047BD6
:10113000704700BF60F9002080B485B000AF7860D0
:101140007B68002B02D1064B1B6800E07B68FB60CC
:10115000FB68343318461437BD465DF8047B70478E
:1011600088F8002080B582B000AF78600E4B1A6816
:101170007B681A440D4B1B689A420BD10AF021FD83
:101180000B4B1B6801330A4A13600AF033FD7B687E
:10119000013B7B60044B1A687B681344024A13606E
:1011A00000BF0837BD4680BD64F9002080F90020EB
:1011B00070F9002080B584B000AF7860FFF75AFE68
:1011C0000AF0FFFC074B1A687B681344054A13605A
:1011D0000AF010FDFFF796FEF860FB68184610371E
:1011E000BD4680BD70F9002080B586B000AF786044
:1011F0007B683B61FFF73EFE7868FFF749FB0346DB
:10120000022B61D101237B613B690433184612F044
:10121000CFFD0AF0D6FC3B699B6A002B08D03B69E6
:101220001833184612F0C4FD3B69012283F851209F
:101230000AF0E0FC3B69DB6A01229A40274B1B68FD
:101240001343264A13603B69DA6A254913469B001B
:1012500013449B000B4404331B68FB603B69FA6832
:101260009A60FB689A683B69DA60FB689B683A6938
:1012700004325A603B691A1DFB689A603B69DA6A5E
:1012800013469B0013449B00154A1A443B695A615C
:101290003B69DA6A124913469B0013449B000B44D6
:1012A0001B68591C0E4813469B0013449B000344C3
:1012B00019603B69DA6A0B4B1B68DB6A9A4205D9F5
:1012C000094B01221A6001E000237B61FFF71AFE3F
:1012D0007B6918461837BD4680BD00BF68F90020FD
:1012E0008CF8002088F8002074F9002080B588B0C0
:1012F00000AF0023FB61794B1B68002B40F0E280BC
:10130000774B1B680133BB61754ABB691360BB69CE
:10131000002B10D1734B1B687B61734B1B68714AA8
:101320001360714A7B691360704B1B6801336F4A0D
:10133000136000F0B9FC6E4B1B68BA699A42C0F0AA
:10134000A680684B1B681B68002B04D1684B4FF0CC
:10135000FF321A609BE0634B1B68DB68DB683B6114
:101360003B695B68FB60BA69FB689A4203D2604ADA
:10137000FB6813608BE03B695B69BB603B699B6802
:101380003A69D2689A603B69DB683A6992685A6048
:10139000BB685A683B6904339A4203D13B69DA68F7
:1013A000BB685A603B6900225A61BB681B685A1EC1
:1013B000BB681A603B699B6A002B1ED03B699B6A25
:1013C0007B603B69DB693A69126A9A603B691B6A18
:1013D0003A69D2695A607B685A683B6918339A4205
:1013E00003D13B691A6A7B685A603B6900229A62A2
:1013F0007B681B685A1E7B681A603B69DB6A0122A6
:101400009A403C4B1B6813433A4A13603B69DA6AC3
:10141000394913469B0013449B000B4404331B685B
:101420003B603B693A689A603B689A683B69DA605E
:101430003B689B683A6904325A603B691A1D3B68F5
:101440009A603B69DA6A13469B0013449B002A4A60
:101450001A443B695A613B69DA6A274913469B0083
:1014600013449B000B441B68591C234813469B00E4
:1014700013449B00034419603B69DA6A1F4B1B68E5
:10148000DB6A9A427FF65DAF0123FB6159E71B4B94
:101490001B68DA6A184913469B0013449B000B44EF
:1014A0001B68012B01D90123FB61154B1B68002B25
:1014B00001D121F087F9134B1B68002B09D00123C0
:1014C000FB6106E00E4B1B6801330D4A136021F0EF
:1014D00079F9FB6918462037BD4680BD88F90020A0
:1014E00064F9002018F900201CF9002078F9002088
:1014F00080F9002068F900208CF8002088F800208E
:1015000070F9002074F9002080B586B000AF2F4B31
:101510001B68002B03D02E4B01221A6051E02C4B8C
:1015200000221A602B4B1B681B6B7B614FF0A533AD
:101530003B617B691B683A699A4211D17B6904332C
:101540001B683A699A420BD17B6908331B683A6978
:101550009A4205D17B690C331B683A699A4208D0DC
:101560001C4B1A681B4B1B6834331946104621F07C
:1015700007F9194B1B687B607B68B3FA83F3FB7038
:10158000FB78C3F11F03FB60FA6813469B0013440A
:101590009B00124A1344BB60BB685B685A68BB6817
:1015A0005A60BB685A68BB6808339A4204D1BB686A
:1015B0005B685A68BB685A60BB685B68DB68054A51
:1015C000136000BF1837BD4680BD00BF88F90020FA
:1015D00074F9002088F8002068F900208CF80020B9
:1015E00080B582B000AF78603960074B1B68183354
:1015F0001946786812F0A3FB0121386801F09AF9C6
:1016000000BF0837BD4680BD88F8002080B586B091
:1016100000AFF860B9607A60174B1B68BA6842F097
:1016200000429A61FB685B687B61134B1B687A69B7
:10163000DA61114B1B687A6992681A620E4B1A685C
:101640007B699B6818325A600B4B1B6803F11802C8
:101650007B699A60084B1B68FA689A62FB681B6892
:101660005A1CFB681A600121786801F063F900BF19
:101670001837BD4680BD00BF88F8002080B586B011
:1016800000AFF860B9607A60FB685B687B61164BFD
:101690001B687A69DA61144B1B687A6992681A626E
:1016A000114B1A687B699B6818325A600E4B1B6895
:1016B00003F118027B699A600B4B1B68FA689A6207
:1016C000FB681B685A1CFB681A607B68002B02D001
:1016D0004FF0FF33BB607968B86801F02BF900BFA9
:1016E0001837BD4680BD00BF88F8002080B588B09F
:1016F00000AF78607B68DB68DB68BB61BB699B6AB5
:101700007B61BB69DB69BA69126A9A60BB691B6A53
:10171000BA69D2695A607B695A68BB6918339A42C0
:1017200003D1BB691A6A7B695A60BB6900229A625D
:101730007B691B685A1E7B691A604A4B1B68002B29
:1017400060D1BB695B693B61BB699B68BA69D26860
:101750009A60BB69DB68BA6992685A603B695A68EB
:10176000BB6904339A4203D1BB69DA683B695A60AA
:10177000BB6900225A613B691B685A1E3B691A60AB
:10178000BB69DB6A01229A40374B1B681343364A18
:101790001360BB69DA6A354913469B0013449B000A
:1017A0000B4404331B68FB60BB69FA689A60FB68F2
:1017B0009A68BB69DA60FB689B68BA6904325A6050
:1017C000BB691A1DFB689A60BB69DA6A13469B0005
:1017D00013449B00254A1A44BB695A61BB69DA6A03
:1017E000224913469B0013449B000B441B68591C61
:1017F0001E4813469B0013449B000344196000F0ED
:1018000053FA1BE01A4B5B68BB60BB69BA68DA61CC
:10181000BB689A68BB691A62BB689B68BA69183270
:101820005A60BB6903F11802BB689A60BB69104A31
:101830009A620F4B1B6801330D4A1360BB69DA6A69
:101840000C4B1B68DB6A9A4205D90123FB610A4BEA
:1018500001221A6001E00023FB61FB691846203772
:10186000BD4680BD88F9002068F900208CF8002072
:1018700020F9002088F8002074F9002080B586B097
:1018800000AF786039603B6843F000427B681A60C3
:101890007B68DB687B617B681B693B617B685B689D
:1018A0007A6892689A607B689B687A6852685A6026
:1018B0003B695B687A689A4203D17B689A683B69A6
:1018C0005A607B6800221A613B691B685A1E3B699B
:1018D0001A6000F0E9F97B695B69FB607B699B68D2
:1018E0007A69D2689A607B69DB687A6992685A6023
:1018F000FB685A687B6904339A4203D17B69DA68D2
:10190000FB685A607B6900225A61FB681B685A1E9B
:10191000FB681A607B69DB6A01229A40244B1B68D2
:101920001343234A13607B69DA6A224913469B00FA
:1019300013449B000B4404331B68BB607B69BA688B
:101940009A60BB689A687B69DA60BB689B687A6951
:1019500004325A607B691A1DBB689A607B69DA6A37
:1019600013469B0013449B00124A1A447B695A6138
:101970007B69DA6A0F4913469B0013449B000B44B2
:101980001B68591C0B4813469B0013449B000344DF
:1019900019607B69DA6A084B1B68DB6A9A4202D9D4
:1019A000064B01221A6000BF1837BD4680BD00BF3C
:1019B00068F900208CF8002088F8002074F90020D5
:1019C00080B582B000AF78600AF0FBF8064B1A6869
:1019D0007B681A60054B1A687B685A600AF00AF93E
:1019E00000BF0837BD4680BD78F9002064F90020AB
:1019F00080B483B000AF7860064B1A687B681A60C9
:101A0000054B1A687B685A6000BF0C37BD465DF80D
:101A1000047B704778F9002064F9002080B586B017
:101A200000AF786039600AF0CCF8264B1B683B6148
:101A30007B685B683A69D31AFB60234B1B6893F899
:101A40005130002B07D0204B1B68002283F8512017
:101A500001237B612EE03B681B68B3F1FF3F02D19D
:101A600000237B6126E07B681A68184B1B689A424A
:101A70000AD07B685B683A699A4205D301237B618F
:101A80003B6800221A6015E03B681B68FA689A42BE
:101A90000BD23B681A68FB68D21A3B681A607868F8
:101AA000FFF7A6FF00237B6104E03B6800221A6079
:101AB00001237B610AF09EF87B6918461837BD4602
:101AC00080BD00BF64F9002088F8002078F900206C
:101AD00080B400AF034B01221A6000BFBD465DF821
:101AE000047B704774F9002080B584B000AF786043
:101AF00000F09EF8104B1B68012B07D90F4B4FF0DD
:101B000080521A60BFF34F8FBFF36F8F20F054FEE7
:101B1000FFF7BEF9F860FB68042BE9D9FFF7AAF9D3
:101B2000FFF7B6F9F860FB68042B02D9F8680AF0F1
:101B3000D3F8FFF7E7F9DBE78CF8002004ED00E0CD
:101B400080B483B000AF01233B600123FB71134BD2
:101B50001B68002B02D00023FB7117E0104B1B68A1
:101B6000002B02D00023FB7110E00E4B1B68002BF2
:101B700002D00023FB7109E00B4B1A680B4B19686C
:101B80003B68CB1A9A4201D10223FB71FB791846BC
:101B90000C37BD465DF8047B704700BF20F900207C
:101BA00074F9002070F900204CF9002060F9002041
:101BB00080B582B000AF00237B600CE07A681346EA
:101BC0009B0013449B00124A1344184612F066F817
:101BD0007B6801337B607B68042BEFD90D4812F0E2
:101BE0005DF80D4812F05AF80C4812F057F80C48FE
:101BF00012F054F80B4812F051F80B4B054A1A60DA
:101C00000A4B054A1A6000BF0837BD4680BD00BFB9
:101C10008CF80020F0F8002004F9002020F90020C2
:101C200034F900204CF9002018F900201CF900209C
:101C300080B582B000AF19E009F0C3FF0F4BDB683D
:101C4000DB687B607B680433184612F0B1F80C4BFC
:101C50001B68013B0A4A13600A4B1B68013B094A97
:101C6000136009F0C7FF786800F00EF8054B1B6899
:101C7000002BE1D100BF0837BD4680BD34F90020FC
:101C800060F9002048F9002080B582B000AF78608C
:101C90007B681B6B184609F009FB786809F006FBA6
:101CA00000BF0837BD4680BD80B400AF0A4B1B683B
:101CB0001B68002B04D1094B4FF0FF321A6005E07E
:101CC000054B1B68DB681B68044A136000BFBD46F8
:101CD0005DF8047B704700BF18F9002080F90020F0
:101CE00080B483B000AF054B1B687B607B681846EF
:101CF0000C37BD465DF8047B704700BF88F80020B4
:101D000080B483B000AF0B4B1B68002B02D10123C2
:101D10007B6008E0084B1B68002B02D102237B602C
:101D200001E000237B607B6818460C37BD465DF8F8
:101D3000047B70476CF9002088F9002080B586B0DC
:101D400000AF78607B683B6100237B617B68002B80
:101D500000F087803B69DA6A444B1B68DB6A9A4271
:101D600076D23B699B69002B06DB404B1B68DB6A24
:101D7000C3F105023B699A613B6959693B69DA6ABB
:101D800013469B0013449B00394A1344994257D190
:101D90003B690433184612F00BF80346002B0AD1B6
:101DA0003B69DB6A012202FA03F3DA43314B1B6819
:101DB0001340304A13602D4B1B68DA6A3B69DA62C4
:101DC0003B69DB6A01229A402A4B1B681343294A6C
:101DD00013603B69DA6A264913469B0013449B0053
:101DE0000B4404331B68FB603B69FA689A60FB682C
:101DF0009A683B69DA60FB689B683A6904325A600A
:101E00003B691A1DFB689A603B69DA6A13469B00BE
:101E100013449B00164A1A443B695A613B69DA6ACB
:101E2000134913469B0013449B000B441B68591C29
:101E30000F4813469B0013449B000344196004E0C1
:101E40000A4B1B68DA6A3B69DA6201237B6108E0AE
:101E50003B695A6C054B1B68DB6A9A4201D201232D
:101E60007B617B6918461837BD4680BD88F8002025
:101E70008CF8002068F9002080B586B000AF78604B
:101E80007B683B6100237B617B68002B6CD03B69E6
:101E90009B6C5A1E3B699A643B69DA6A3B695B6CCE
:101EA0009A4261D03B699B6C002B5DD13B69043346
:101EB000184611F07DFF0346002B0AD13B69DB6A0F
:101EC000012202FA03F3DA432A4B1B681340294A22
:101ED00013603B695A6C3B69DA623B69DB6AC3F1A8
:101EE00005023B699A613B69DB6A01229A40214BFA
:101EF0001B6813431F4A13603B69DA6A1E49134685
:101F00009B0013449B000B4404331B68FB603B693C
:101F1000FA689A60FB689A683B69DA60FB689B68BC
:101F20003A6904325A603B691A1DFB689A603B6942
:101F3000DA6A13469B0013449B000F4A1A443B691C
:101F40005A613B69DA6A0C4913469B0013449B00B3
:101F50000B441B68591C084813469B0013449B0004
:101F60000344196001237B617B6918461837BD461D
:101F700080BD00BF68F900208CF8002080B588B0D3
:101F800000AF786039607B68BB6101237B617B684F
:101F9000002B00F08180BB695B6C3A689A4202D9E1
:101FA0003B68FB6102E0BB695B6CFB61BB69DB6AA0
:101FB000FA699A4270D0BB699B6C7A699A426BD17C
:101FC000BB69DB6A3B61BB69FA69DA62BB699B6921
:101FD000002B04DBFB69C3F10502BB699A61BB6995
:101FE00059693A6913469B0013449B002C4A1344D9
:101FF000994251D1BB690433184611F0D9FE03460A
:10200000002B0AD1BB69DB6A012202FA03F3DA432F
:10201000244B1B681340234A1360BB69DB6A01220F
:102020009A40204B1B6813431E4A1360BB69DA6A4F
:102030001B4913469B0013449B000B4404331B684D
:10204000FB60BB69FA689A60FB689A68BB69DA60F2
:10205000FB689B68BA6904325A60BB691A1DFB6849
:102060009A60BB69DA6A13469B0013449B000C4AD2
:102070001A44BB695A61BB69DA6A094913469B0075
:1020800013449B000B441B68591C054813469B00D6
:1020900013449B000344196000BF2037BD4680BD38
:1020A0008CF8002068F9002080B483B000AF094BA1
:1020B0001B689B697B60074B1B68DA6A054B1B68D2
:1020C000C2F105029A617B6818460C37BD465DF87F
:1020D000047B704788F8002080B400AF074B1B6872
:1020E000002B04D0054B1B689A6C01329A64034B99
:1020F0001B681846BD465DF8047B704788F80020D1
:1021000080B586B000AFF860B9607A6009F059FD1B
:10211000284B1A68FB6812339B0013445B68002B42
:1021200015D1244B1A68FB681344503301221A70EE
:102130007B68002B0BD00121786800F0FBFB1E4B65
:102140004FF080521A60BFF34F8FBFF36F8F09F0CB
:1021500051FD09F036FD174B1A68FB6812339B00DE
:1021600013445B687B617B69002B14D0BB68002B38
:1021700008D0104B1A68FB6812339B0013440022EE
:102180005A6008E00B4B19687B695A1EFB681233D2
:102190009B000B445A60074B1A68FB68134450338A
:1021A00000221A7009F026FD7B6918461837BD46D3
:1021B00080BD00BF88F8002004ED00E080B586B047
:1021C00000AFF860B9607A603B6009F0FAFC344B0C
:1021D0001A68FB68134450331B78DBB2022B24D0FF
:1021E0002F4B1A68FB6812339B0013445968BB6875
:1021F000DB431940FB6812339B0013445960284BA2
:102200001A68FB681344503301221A703B6A002B92
:102210000BD00121386A00F08DFB224B4FF0805229
:102220001A60BFF34F8FBFF36F8F09F0E3FC09F023
:10223000C8FC3B68002B08D0194B1A68FB681233A6
:102240009B0013445A683B681A60154B1A68FB6878
:10225000134450331B78DBB2022B02D000237B6186
:1022600010E00F4B1A68FB6812339B001344596847
:102270007B68DB431940FB6812339B0013445960B1
:1022800001237B61064B1A68FB681344503300221C
:102290001A7009F0AFFC7B6918461837BD4680BD3F
:1022A00088F8002004ED00E080B58AB000AFF86047
:1022B000B9607A60FB7001237B62FB683B6209F0C6
:1022C00080FC3B6B002B07D03A6ABB6812339B0043
:1022D00013445A683B6B1A603A6ABB681344503324
:1022E0001B78FB773A6ABB681344503302221A709A
:1022F000FB78042B3FD801A252F823F0772300018A
:10230000112300012F2300014B2300015B23000157
:102310003A6ABB6812339B0013445A687B681A43BD
:10232000396ABB6812339B000B445A6024E03A6A56
:10233000BB6812339B0013445B685A1C396ABB6844
:1023400012339B000B445A6016E03A6ABB681233A2
:102350009B0013447A685A600EE0FB7F022B07D083
:102360003A6ABB6812339B0013447A685A6003E0F0
:1023700000237B6200E000BFFB7F012B6ED13B6A34
:102380005B69BB613B6A9B683A6AD2689A603B6A48
:10239000DB683A6A92685A60BB695A683B6A0433E0
:1023A0009A4203D13B6ADA68BB695A603B6A0022F1
:1023B0005A61BB691B685A1EBB691A603B6ADB6ABB
:1023C00001229A40294B1B681343284A13603B6A39
:1023D000DA6A274913469B0013449B000B440433DD
:1023E0001B687B613B6A7A699A607B699A683B6A81
:1023F000DA607B699B683A6A04325A603B6A1A1D4C
:102400007B699A603B6ADA6A13469B0013449B001F
:10241000174A1A443B6A5A613B6ADA6A14491346FE
:102420009B0013449B000B441B68591C1048134627
:102430009B0013449B0003441960FFF735FC3B6A83
:10244000DA6A0C4B1B68DB6A9A4207D90A4B4FF0D9
:1024500080521A60BFF34F8FBFF36F8F09F0CAFB32
:102460007B6A18462837BD4680BD00BF68F900204A
:102470008CF8002088F8002004ED00E080B48FB0D4
:1024800000AFF860B9607A60FB7001237B63FB6882
:102490003B63EFF311824FF0200383F31188BFF306
:1024A0006F8FBFF34F8FBA617B61BB69FB623B6C7F
:1024B000002B07D03A6BBB6812339B0013445A6859
:1024C0003B6C1A603A6BBB68134450331B7887F837
:1024D0002B303A6BBB681344503302221A70FB78DE
:1024E000042B41D801A252F823F000BF6925000156
:1024F000012500011F2500013B2500014B2500019E
:102500003A6BBB6812339B0013445A687B681A43CA
:10251000396BBB6812339B000B445A6025E03A6B61
:10252000BB6812339B0013445B685A1C396BBB6851
:1025300012339B000B445A6017E03A6BBB681233AE
:102540009B0013447A685A600FE097F82B30022BF7
:1025500007D03A6BBB6812339B0013447A685A6009
:1025600003E000237B6300E000BF97F82B30012BD2
:1025700040F08F804D4B1B68002B5ED13B6B5B693D
:102580007B623B6B9B683A6BD2689A603B6BDB6803
:102590003A6B92685A607B6A5A683B6B04339A4282
:1025A00003D13B6BDA687B6A5A603B6B00225A614D
:1025B0007B6A1B685A1E7B6A1A603B6BDB6A0122CE
:1025C0009A403B4B1B681343394A13603B6BDA6AF2
:1025D000384913469B0013449B000B4404331B688B
:1025E0003B623B6B3A6A9A603B6A9A683B6BDA6083
:1025F0003B6A9B683A6B04325A603B6B1A1D3B6A1C
:102600009A603B6BDA6A13469B0013449B00294A8D
:102610001A443B6B5A613B6BDA6A264913469B00AE
:1026200013449B000B441B68591C224813469B0013
:1026300013449B00034419601BE01F4B5B68FB6164
:102640003B6BFA69DA61FB699A683B6B1A62FB695A
:102650009B683A6B18325A603B6B03F11802FB69B6
:102660009A603B6B144A9A62134B1B680133124AFF
:1026700013603B6BDA6A114B1B68DB6A9A4208D91C
:102680007B6C002B02D07B6C01221A600C4B012268
:102690001A60FB6A3B613B6983F311887B6B1846C8
:1026A0003C37BD465DF8047B704700BF88F90020C9
:1026B00068F900208CF8002020F9002088F800201C
:1026C00074F9002080B48FB000AFF860B9607A6010
:1026D000FB687B63EFF311824FF0200383F31188D3
:1026E000BFF36F8FBFF34F8FFA61BB61FB693B6331
:1026F0007A6BBB68134450331B7887F82F307A6BA2
:10270000BB681344503302221A707A6BBB681233D1
:102710009B0013445B685A1C796BBB6812339B00A7
:102720000B445A6097F82F30012B40F08F804D4BAF
:102730001B68002B5ED17B6B5B69BB627B6B9B680C
:102740007A6BD2689A607B6BDB687A6B92685A60AE
:10275000BB6A5A687B6B04339A4203D17B6BDA689D
:10276000BB6A5A607B6B00225A61BB6A1B685A1EA7
:10277000BB6A1A607B6BDB6A01229A403A4B1B688A
:102780001343394A13607B6BDA6A384913469B005E
:1027900013449B000B4404331B687B627B6B7A6A97
:1027A0009A607B6A9A687B6BDA607B6A9B687A6B5B
:1027B00004325A607B6B1A1D7B6A9A607B6BDA6A03
:1027C00013469B0013449B00284A1A447B6B5A61B2
:1027D0007B6BDA6A254913469B0013449B000B442C
:1027E0001B68591C214813469B0013449B0003445B
:1027F00019601BE01E4B5B683B627B6B3A6ADA61D7
:102800003B6A9A687B6B1A623B6A9B687A6B1832E8
:102810005A607B6B03F118023B6A9A607B6B144A27
:102820009A62134B1B680133114A13607B6BDA6A9F
:10283000104B1B68DB6A9A4208D97B68002B02D0D8
:102840007B6801221A600C4B01221A603B6B7B6192
:102850007B6983F3118800BF3C37BD465DF8047B7C
:10286000704700BF88F9002068F900208CF800202C
:1028700020F9002088F8002074F9002080B584B089
:1028800000AF786039607B68002B02D1104B1B6869
:1028900000E07B68BB6009F094F9BA683B681344B8
:1028A00050331B78DBB2022B08D1BA683B68134463
:1028B000503300221A700123FB6001E00023FB600B
:1028C00009F098F9FB6818461037BD4680BD00BF77
:1028D00088F8002080B586B000AFF860B9607A60F3
:1028E000FB68002B02D1124B1B6800E0FB687B6188
:1028F00009F067F97A69BB6812339B0013445B687F
:102900003B617A69BB6812339B0013445A687B6849
:10291000DB431A407969BB6812339B000B445A6051
:1029200009F068F93B6918461837BD4680BD00BFFD
:1029300088F8002080B586B000AF78603960384BE9
:102940001B687B61374B1B68002283F85120354B95
:102950001B680433184611F02BFA0346002B0BD1E9
:10296000304B1B68DB6A012202FA03F3DA432E4B79
:102970001B6813402C4A13607B68B3F1FF3F24D1DE
:102980003B68002B21D0294B5B683B61254B1B68C2
:102990003A699A60234B1B683A699268DA60214B66
:1029A0001A683B699B6804325A601E4B1B681A1DEB
:1029B0003B699A601B4B1B681C4A5A611B4B1B6886
:1029C00001331A4A136000BF26E07A697B6813441A
:1029D000FB60144B1B68FA685A60FA687B699A427C
:1029E00009D2134B1A680F4B1B6804331946104663
:1029F00011F0A5F910E00F4B1A680A4B1B6804335D
:102A00001946104611F09BF90B4B1B68FA689A4265
:102A100002D2094AFB68136000BF1837BD4680BD6B
:102A200064F9002088F8002068F900204CF90020A3
:102A30001CF9002018F9002080F9002080B584B02E
:102A400000AF786039600123FB607B68BB60BB68C6
:102A5000002B5DD0BB68DB6B002B59D0BB681A6CB8
:102A6000BB68DB6B0021A3FB0223002B00D00121FC
:102A70000B46002B4CD109F0A4F8BB681A68BB6860
:102A8000DB6BB968096C01FB03F31A44BB689A60FD
:102A9000BB6800229A63BB681A68BB685A60BB684F
:102AA0001A68BB68DB6B013BB968096C01FB03F377
:102AB0001A44BB68DA60BB68FF2283F84420BB6815
:102AC000FF2283F845203B68002B14D1BB681B69AB
:102AD000002B1AD0BB6810331846FEF707FE0346DA
:102AE000002B12D00E4B4FF080521A60BFF34F8F65
:102AF000BFF36F8F09E0BB681033184611F0CEF8B2
:102B0000BB682433184611F0C9F809F073F801E0E6
:102B10000023FB60FB6818461037BD4680BD00BF30
:102B200004ED00E080B58AB002AFF860B9601346EA
:102B3000FB710023FB61FB68002B2DD00021BA68DC
:102B4000FB68A3FB0223002B00D001210B46002BC6
:102B500022D1FB68BA6802FB03F313F14D0F1BD8B7
:102B6000FB68BA6802FB03F3BB61BB694C331846D0
:102B700008F0FEFAF861FB69002B0DD0FB697B6160
:102B80007B694C337B61FA79FB69009313467A6960
:102B9000B968F86800F005F8FB6918462037BD46AB
:102BA00080BD80B584B000AFF860B9607A60FB701A
:102BB000BB68002B03D1BB69BA691A6002E0BB692C
:102BC0007A681A60BB69FA68DA63BB69BA681A6422
:102BD0000121B869FFF732FFBB6900229A6400BF88
:102BE0001037BD4680BD80B582B000AF78607B688D
:102BF000002B0ED07B6800229A607B6800221A604E
:102C00007B680022DA60002300220021786800F04F
:102C10003BF800BF0837BD4680BD80B586B000AF29
:102C20000346FB7101237B6100233B61FB791A465C
:102C300039697869FFF776FFF860F868FFF7D3FF26
:102C4000FB6818461837BD4680BD80B584B000AF1C
:102C5000786039600023FB607B68002B0FD03A68F6
:102C60007B689A420BD8022200217868FFF75AFF4E
:102C7000F860FB68002B02D0FB683A689A63FB6837
:102C800018461037BD4680BD80B58AB000AFF860E9
:102C9000B9607A603B6000237B62FB683B6208F0AE
:102CA00090FF3B6A9A6B3B6ADB6B9A4202D33B68AC
:102CB000022B45D13B6A9B6BFB613A68B968386A65
:102CC00000F08AFCB8613B6A9B6C002B14D03B6817
:102CD000022B02D1FB69002B2ED1386A00F074FE62
:102CE0000346002B28D04A4B4FF080521A60BFF3A6
:102CF0004F8FBFF36F8F1FE03B6A5B6A002B10D0D2
:102D00003B6A24331846FEF7F1FC0346002B13D030
:102D10003F4B4FF080521A60BFF34F8FBFF36F8F5E
:102D20000AE0BB69002B07D0394B4FF080521A6084
:102D3000BFF34F8FBFF36F8F08F05CFF012363E099
:102D40007B68002B03D108F055FF00235CE07B6A11
:102D5000002B06D107F110031846FEF749FE0123A8
:102D60007B6208F047FFFEF785F808F02AFF3B6A10
:102D700093F844305BB2B3F1FF3F03D13B6A0022CA
:102D800083F844203B6A93F845305BB2B3F1FF3FD0
:102D900003D13B6A002283F8452008F02BFF3A1D3F
:102DA00007F1100311461846FEF738FE0346002BC4
:102DB00024D1386A00F02BFD0346002B18D03B6A63
:102DC00010337A6811461846FEF70AFC386A00F09C
:102DD00093FCFEF797F80346002B7FF460AF0C4B93
:102DE0004FF080521A60BFF34F8FBFF36F8F56E7DB
:102DF000386A00F081FCFEF785F850E7386A00F089
:102E00007BFCFEF77FF8002318462837BD4680BDBF
:102E100004ED00E080B58EB000AFF860B9607A6074
:102E20003B60FB683B63EFF311824FF0200383F3B9
:102E30001188BFF36F8FBFF34F8FFA61BB61FB69DE
:102E4000FB623B6B9A6B3B6BDB6B9A4202D33B683A
:102E5000022B4ED13B6B93F8453087F82B303B6B00
:102E60009B6B7B623A68B968386B00F0B5FB97F9E9
:102E70002B30B3F1FF3F29D13B6B9B6C002B12D061
:102E80003B68022B02D17B6A002B2FD1386B00F0FC
:102E90009BFD0346002B29D07B68002B26D07B6846
:102EA00001221A6022E03B6B5B6A002B1ED03B6B59
:102EB00024331846FEF71AFC0346002B16D07B6815
:102EC000002B13D07B6801221A600FE0FEF728F96F
:102ED000386297F92B303A6A9A4207D997F82B3023
:102EE0000133DBB25AB23B6B83F8452001237B638D
:102EF00001E000237B63FB6A7B617B6983F31188BC
:102F00007B6B18463837BD4680BD80B58CB000AFAE
:102F1000786039607B68BB62EFF311824FF0200369
:102F200083F31188BFF36F8FBFF34F8F7A613B61DB
:102F30007B697B62BB6A9B6B3B62BB6ADB6B3A6AF9
:102F40009A4242D2BB6A93F84530FB773B6A5A1CDF
:102F5000BB6A9A6397F91F30B3F1FF3F23D1BB6A75
:102F60009B6C002B0CD0B86A00F02EFD0346002BA2
:102F700028D03B68002B25D03B6801221A6021E055
:102F8000BB6A5B6A002B1DD0BB6A24331846FEF770
:102F9000ADFB0346002B15D03B68002B12D03B68DD
:102FA00001221A600EE0FEF7BBF8B86197F91F30F6
:102FB000BA699A4206D9FB7F0133DBB25AB2BB6AC7
:102FC00083F845200123FB6201E00023FB627B6A5A
:102FD000FB60FB6883F31188FB6A18463037BD46F7
:102FE00080BD80B58AB000AFF860B9607A60002318
:102FF0007B62FB683B6208F0E4FD3B6A9B6BFB6114
:10300000FB69002B1FD0B968386A00F04FFBFB69E1
:103010005A1E3B6A9A633B6A1B69002B0FD03B6ABE
:1030200010331846FEF762FB0346002B07D03D4BDA
:103030004FF080521A60BFF34F8FBFF36F8F08F0CD
:10304000D9FD012369E07B68002B03D108F0D2FD94
:10305000002362E07B6A002B06D107F114031846B7
:10306000FEF7C6FC01237B6208F0C4FDFDF702FFFA
:1030700008F0A7FD3B6A93F844305BB2B3F1FF3F21
:1030800003D13B6A002283F844203B6A93F8453021
:103090005BB2B3F1FF3F03D13B6A002283F84520C6
:1030A00008F0A8FD3A1D07F1140311461846FEF773
:1030B000B5FC0346002B23D1386A00F07CFB0346A5
:1030C000002B17D03B6A24337A6811461846FEF766
:1030D00087FA386A00F010FBFDF714FF0346002B57
:1030E00089D1104B4FF080521A60BFF34F8FBFF35E
:1030F0006F8F80E7386A00F0FFFAFDF703FF7AE789
:10310000386A00F0F9FAFDF7FDFE386A00F053FB6B
:103110000346002B3FF46FAF002318462837BD4607
:1031200080BD00BF04ED00E080B58AB000AF7860DC
:10313000396000237B627B68FB6100233B6208F0FF
:1031400040FDFB699B6BBB61BB69002B24D0BB6955
:103150005A1EFB699A63FB691B68002B04D1FEF7BA
:10316000BBFF0246FB699A60FB691B69002B0FD00D
:10317000FB6910331846FEF7B9FA0346002B07D057
:103180004C4B4FF080521A60BFF34F8FBFF36F8FDD
:1031900008F030FD012389E03B68002B03D108F0E3
:1031A00029FD002382E07B6A002B06D107F10C0386
:1031B0001846FEF71DFC01237B6208F01BFDFDF79E
:1031C00059FE08F0FEFCFB6993F844305BB2B3F1A2
:1031D000FF3F03D1FB69002283F84420FB6993F889
:1031E00045305BB2B3F1FF3F03D1FB69002283F8A6
:1031F000452008F0FFFC3A4607F10C03114618463B
:10320000FEF70CFC0346002B32D1F86900F0D3FA2C
:103210000346002B26D0FB691B68002B09D108F060
:10322000D0FCFB699B681846FEF788FD386208F001
:10323000E1FCFB6924333A6811461846FEF7D0F9E1
:10324000F86900F059FAFDF75DFE0346002B7FF4A4
:1032500076AF184B4FF080521A60BFF34F8FBFF319
:103260006F8F6CE7F86900F047FAFDF74BFE66E7F1
:10327000F86900F041FAFDF745FEF86900F09BFAA5
:103280000346002B3FF45BAF3B6A002B0DD008F0E8
:1032900098FCF86900F088F97861FB699B687969A6
:1032A0001846FEF76BFE08F0A5FC002318462837E9
:1032B000BD4680BD04ED00E080B58AB000AFF86087
:1032C000B9607A6000237B62FB683B6208F079FC9E
:1032D0003B6A9B6BFB61FB69002B21D03B6ADB687F
:1032E000BB61B968386A00F0E1F93B6ABA69DA6033
:1032F0003B6A5B6A002B0FD03B6A24331846FEF70B
:10330000F5F90346002B07D03C4B4FF080521A6072
:10331000BFF34F8FBFF36F8F08F06CFC012369E0A0
:103320007B68002B03D108F065FC002362E07B6A18
:10333000002B06D107F110031846FEF759FB0123B5
:103340007B6208F057FCFDF795FD08F03AFC3B6AFC
:1033500093F844305BB2B3F1FF3F03D13B6A0022E4
:1033600083F844203B6A93F845305BB2B3F1FF3FEA
:1033700003D13B6A002283F8452008F03BFC3A1D4C
:1033800007F1100311461846FEF748FB0346002BD1
:1033900023D1386A00F00FFA0346002B17D03B6A9E
:1033A00024337A6811461846FEF71AF9386A00F095
:1033B000A3F9FDF7A7FD0346002B87D10F4B4FF074
:1033C00080521A60BFF34F8FBFF36F8F7EE7386A6A
:1033D00000F092F9FDF796FD78E7386A00F08CF975
:1033E000FDF790FD386A00F0E6F90346002B3FF444
:1033F0006DAF002318462837BD4680BD04ED00E0C0
:1034000080B58EB000AFF860B9607A60FB683B634E
:10341000EFF311824FF0200383F31188BFF36F8F16
:10342000BFF34F8FFA61BB61FB69FB623B6B9B6B28
:10343000BB62BB6A002B37D03B6B93F8443087F8F4
:103440002730B968386B00F031F9BB6A5A1E3B6B04
:103450009A6397F92730B3F1FF3F12D13B6B1B6999
:10346000002B1ED03B6B10331846FEF73FF9034686
:10347000002B16D07B68002B13D07B6801221A60CA
:103480000FE0FDF74DFE386297F927303A6A9A420D
:1034900007D997F827300133DBB25AB23B6B83F878
:1034A000442001237B6301E000237B63FB6A7B6193
:1034B0007B6983F311887B6B18463837BD4680BD26
:1034C00080B58AB000AF786039607B683B62EFF30B
:1034D00011824FF0200383F31188BFF36F8FBFF386
:1034E0004F8F7A613B617B69FB613B6A9B6B002B71
:1034F0000CD03B6ADB68BB613968386A00F0D6F8EB
:103500003B6ABA69DA6001237B6201E000237B62D7
:10351000FB69FB60FB6883F311887B6A18462837D8
:10352000BD4680BD80B584B000AF786008F049FB2F
:103530007B689B6BFB6008F05DFBFB6818461037EF
:10354000BD4680BD80B584B000AF78607B68FB600D
:1035500008F037FBFB68DA6BFB689B6BD31ABB6028
:1035600008F048FBBB6818461037BD4680BD80B4E4
:1035700085B000AF78607B68FB60FB689B6BBB60CD
:10358000BB6818461437BD465DF8047B704780B5AC
:1035900084B000AF78607B68FB60F86807F086FE57
:1035A00000BF1037BD4680BD80B485B000AF7860E5
:1035B0007B685B6A002B06D07B681B6B1B68C3F1C2
:1035C0000503FB6001E00023FB60FB68184614372D
:1035D000BD465DF8047B704780B586B000AFF860EB
:1035E000B9607A6000237B61FB689B6B3B61FB6881
:1035F0001B6C002B0DD1FB681B68002B4DD1FB68A9
:103600009B681846FEF738FC7861FB6800229A60D8
:1036100043E07B68002B19D1FB685868FB681B6C82
:103620001A46B9682CF088FCFB685A68FB681B6C6A
:103630001A44FB685A60FB685A68FB689B689A42A8
:103640002BD3FB681A68FB685A6026E0FB68D868D1
:10365000FB681B6C1A46B9682CF06EFCFB68DA68D4
:10366000FB681B6C5B421A44FB68DA60FB68DA6833
:10367000FB681B689A4207D2FB689A68FB681B6C60
:103680005B421A44FB68DA607B68022B05D13B6918
:10369000002B02D03B69013B3B613B695A1CFB6834
:1036A0009A637B6918461837BD4680BD80B582B0E5
:1036B00000AF786039607B681B6C002B18D07B688A
:1036C000DA687B681B6C1A447B68DA607B68DA68AE
:1036D0007B689B689A4203D37B681A687B68DA60D0
:1036E0007B68D9687B681B6C1A4638682CF024FC10
:1036F00000BF0837BD4680BD80B584B000AF78609C
:1037000008F05FFA7B6893F84530FB731EE07B6836
:103710009B6C002B08D0786800F056F90346002B0C
:1037200010D0FEF7D5F90DE07B685B6A002B12D054
:103730007B6824331846FDF7D9FF0346002B01D0E0
:10374000FEF7C6F9FB7B013BDBB2FB7397F90F3049
:10375000002BDCDC00E000BF7B68FF2283F8452003
:1037600008F048FA08F02DFA7B6893F84430BB73F0
:1037700011E07B681B69002B12D07B681033184660
:10378000FDF7B4FF0346002B01D0FEF7A1F9BB7B88
:10379000013BDBB2BB7397F90E30002BE9DC00E094
:1037A00000BF7B68FF2283F8442008F023FA00BFA3
:1037B0001037BD4680BD80B584B000AF786008F09A
:1037C00000FA7B689B6B002B02D10123FB6001E0B8
:1037D0000023FB6008F00EFAFB6818461037BD4660
:1037E00080BD80B485B000AF78607B68BB60BB688B
:1037F0009B6B002B02D10123FB6001E00023FB60E7
:10380000FB6818461437BD465DF8047B704780B5E9
:1038100084B000AF786008F0D4F97B689A6B7B685D
:10382000DB6B9A4202D10123FB6001E00023FB60C5
:1038300008F0E0F9FB6818461037BD4680BD80B43B
:1038400085B000AF78607B68BB60BB689A6BBB6873
:10385000DB6B9A4202D10123FB6001E00023FB6095
:10386000FB6818461437BD465DF8047B704780B589
:1038700086B000AFF860B9607A60FB687B6108F0E1
:10388000A0F97B6993F844305BB2B3F1FF3F03D1F9
:103890007B69002283F844207B6993F845305BB252
:1038A000B3F1FF3F03D17B69002283F8452008F084
:1038B000A1F97B699B6B002B06D17B6924337A6865
:1038C000B9681846FDF7DAFE7869FFF715FF00BF03
:1038D0001837BD4680BD80B584B000AF7860002247
:1038E00004217868FFF71EF9F860FB681846103766
:1038F000BD4680BD80B584B000AF7860396008F007
:1039000060F97B689B6C002B02D00023FB600BE00E
:103910007B689B6B002B02D00023FB6004E07B687C
:103920003A689A640123FB6008F064F9FB68184662
:103930001037BD4680BD80B584B000AF7860396077
:103940007B68BB60BB689B6C3A689A4202D00023DC
:10395000FB600FE0BB689B6B002B02D00023FB6079
:1039600008E008F02EF9BB6800229A6408F042F9DA
:103970000123FB60FB6818461037BD4680BD80B54B
:1039800084B000AF786039600023FB6007F10C035E
:103990003A6819467868FFF724FBFB681846103729
:1039A000BD4680BD80B584B000AF78600023FB6069
:1039B00007F10C03002219467868FFF721FDFB6828
:1039C00018461037BD4680BD80B586B000AF786020
:1039D0007B689B6C3B6100237B613B699A6B3B6915
:1039E000DB6B9A422DD23B6993F84530FB733B1D4C
:1039F000002219463869FFF7EFFD786197F90F301B
:103A0000B3F1FF3F0ED13B695B6A002B19D03B69D4
:103A100024331846FDF76AFE0346002B11D001231C
:103A20007B610EE0FDF77CFBB86097F90F30BA6858
:103A30009A4206D9FB7B0133DBB25AB23B6983F869
:103A400045207B6918461837BD4680BD80B584B0D7
:103A500000AF78607B681B68002B04D07B681B6814
:103A6000184609F0C8FF0023FB7319E0104B1B68D0
:103A7000FA7B53F822307A689A420ED10C4B1B68BD
:103A8000FA7B53F82230184609F0B5FF084B1B6843
:103A9000FA7B002143F8221005E0FB7B0133FB7326
:103AA000FB7B072BE2D900BF1037BD4680BD00BFAE
:103AB000A0FE0020B0B582B000AF0023FB7130E063
:103AC0001C4B1B68FA7953F82230002B26D1194B76
:103AD0001C68FD79102009F082FF034644F8253068
:103AE000144B1B68FA7953F82230002B10D0114B7D
:103AF0001B68FA7953F822301022002118462DF065
:103B000065F80C4B1B68FA7953F82230FA799A72EF
:103B1000084B1B68FA7953F8223006E0FB79013331
:103B2000FB71FB79072BCBD9002318460837BD461C
:103B3000B0BD00BFA0FE002080B485B000AF03463A
:103B4000FB800023FB731FE0144B1B68FA7B53F8C8
:103B50002230002B15D0114B1B68FA7B53F8223012
:103B60001B89FA889A420CD10C4B1B68FA7B53F8DC
:103B70002230FA7B9A72094B1B68FA7B53F8223089
:103B800006E0FB7B0133FB73FB7B072BDCD90023B7
:103B900018461437BD465DF8047B7047A0FE002030
:103BA00080B584B000AF7860094B1B68002B0AD049
:103BB00000233B737B681B89FB81054B1B6807F166
:103BC0000C021046984700BF1037BD4680BD00BFAD
:103BD0009CFE002080B588B000AF78603A4B1A6830
:103BE0007B681B7B19460B46DB000B449B00134490
:103BF0003C331A687B689B7ADB0013445A687B6805
:103C00005A607B685868304B1A687B681B7B194682
:103C10000B46DB000B449B00134440331B781A46D1
:103C200013465B0013445B001A4600212CF0CEFFC4
:103C30007B681B680822002118462CF0C7FF01236F
:103C40003B814FF6FF737B811F4B1A687B681B7BA0
:103C500019460B46DB000B449B00134430331B78A2
:103C60003B73194B1A687B681B7B19460B46DB00BC
:103C70000B449B002033D018134B1A687B681B7BC6
:103C800019460B46DB000B449B00134430331B7872
:103C90001A4607F108030533014618462CF04CF983
:103CA0007B681B8907F108021146184627F00CF8BB
:103CB0000346072B03D17B681B6806225A7100BF9D
:103CC0002037BD4680BD00BFA0FE002080B582B079
:103CD00000AF78607B681B7B0133DAB27B681A73B4
:103CE0007B681A7B094B1B6893F8F8309A4203D221
:103CF0007868FFF76FFF05E07B6800225A737868E9
:103D0000FFF74EFF00BF0837BD4680BDA0FE002074
:103D100080B584B000AF786000237B81224B1A68A5
:103D20007B681B7B19460B46DB000B449B0013444E
:103D300038331B68FB6000237B7221E0FB681B6843
:103D40001B7903F00103002B14D07B6818897B6872
:103D50001B6819887B681B685B881A4624F0A6FFDD
:103D60000346072B03D17B681B6804225A71012389
:103D70007B8114E07B7A01337B72FB680433FB6048
:103D8000094B1A687B681B7B19460B46DB000B440A
:103D90009B00134440331B787A7A9A42CED37B89B6
:103DA00018461037BD4680BDA0FE002090B587B0F4
:103DB00000AF7860396000237B823B689B79152BCC
:103DC00002D110237B748FE002237B748CE07B8A0A
:103DD00005333A6813440A33FB6000233B74474BB6
:103DE0001A687B681B7B19460B46DB000B449B0063
:103DF000134438331B687B6161E07B691B681B7966
:103E000003F00103002B54D17B691B681B681B7CEA
:103E10007A7C9A424DD17B691B681B6818467B7C73
:103E20001A46F9682CF07AF80346002B41D17B8AB8
:103E30003A6813449B7A98B27B8A3A6813440A33EF
:103E400001331B789BB21B0299B27B685C683A7C99
:103E500013465B0013445B002344421892B29A80DD
:103E60007B8A03333A6813449B7A98B27B8A033384
:103E70003A6813440A3301331B789BB21B0299B290
:103E80007B685C683A7C13465B0013445B00234408
:103E9000421892B21A807B8A991C7B6858683A7CD7
:103EA00013465B0013445B0003443A680A44927A69
:103EB0009A703B7C01333B747B6904337B610F4B0D
:103EC0001A687B681B7B19460B46DB000B449B0082
:103ED000134440331B783A7C9A428ED33B689B79DB
:103EE0009AB27B8A13447B823B681B897A8A9A4206
:103EF000FFF46DAF00BF1C37BD4690BDA0FE002093
:103F000090B587B000AF7860396000237B820223D0
:103F1000FB8171E07B8A02333A6813440A33BB6049
:103F200000233B82394B1A687B681B7B19460B4682
:103F3000DB000B449B00134438331B687B6145E076
:103F40007B691B681B7903F00103002B38D07B6869
:103F500059683A8A13465B0013445B000B441B8884
:103F6000002B2DD17B691B681B681B7C9BB2FA89D7
:103F70009A4225D17B691B681B681846FB891A4643
:103F8000B9682BF0CBFF0346002B19D17B8A3A6826
:103F900013449B7A98B27B8A3A6813440A330133FC
:103FA0001B789BB21B0299B27B685C683A8A134605
:103FB0005B0013445B002344421892B21A8015E060
:103FC0003B8A01333B827B6904337B610F4B1A6868
:103FD0007B681B7B19460B46DB000B449B0013449C
:103FE00040331B789BB23A8A9A42A9D37A8AFB89DA
:103FF00013449BB202337B823B681B897A8A9A42C4
:1040000088D300BF1C37BD4690BD00BFA0FE002076
:1040100080B588B000AF786039603B681B78012BB1
:1040200000F08B80032B00F0A180002B40F0288152
:104030003B689B78002B40F02581FFF73BFDB86182
:10404000BB69002B00F01E813B689A88BB691A810E
:10405000BB6900221A733B689A79BB69DA7208203F
:1040600009F0BDFC0246BB691A600023FB7713E030
:10407000894B1968FA7F1346DB0013449B000B44FD
:104080003C331A68BB699B7ADB0013443A68928818
:104090001A80FB7F0133FB777F4B1B6893F8F83066
:1040A000FA7F9A42E4D3BB691B68002B39D0BB6905
:1040B0001B680822002118462CF088FD7B681B78BD
:1040C00003F00803DBB2002B23D17B681B7803F0DD
:1040D0000203DBB2002B03D0BB69DB7A002B0AD0D2
:1040E0007B681B7803F00403DBB2002B19D0BB699B
:1040F000DB7A012B15D17B681B7803F00103DBB25F
:10410000002B0ED1BB6901225A73B869FFF762FD1B
:1041100007E07A6813786FF3C3031370BB69012259
:104120009A7302233B73BB691B89FB815B4B1B6842
:1041300007F10C0210469847A4E03B685B881846DC
:10414000FFF7FAFC78617B69002B00F09D807869AD
:10415000FFF77CFC03233B723B685B887B814F4B02
:104160001B6807F10802104698478DE03B681B79F1
:10417000002B40F08B803B685B881846FFF7DCFC27
:1041800038613B69002B00F081803B691B68002B84
:1041900041D03B691B689B79002B3CD03B691B6875
:1041A0009B79062B03D13869FFF714FD2EE03B699C
:1041B0001B689B79082B12D13B6918893B691B68E6
:1041C00019883B691B685B881A4624F04DFD03463D
:1041D000072B1BD13B691B6808225A7116E03B690B
:1041E0001B689B79042B11D13B6918893B691B68BB
:1041F00019883B691B685B881A4624F057FD034603
:10420000072B03D13B691B6804225A713B691B6869
:1042100000229A713AE07B681B7803F00103DBB25D
:10422000002B33D01C4B1B6893F8F830002B2DD09B
:104230003B691B68002B29D03B699B7B83F0010302
:10424000DBB2002B22D07B681B7803F00203DBB2C9
:10425000002B03D03B69DB7A002B0AD07B681B78EC
:1042600003F00403DBB2002B10D03B69DB7A012B97
:104270000CD13B6901225A733869FFF7ABFC05E0AA
:1042800000BF04E000BF02E000BF00E000BF00BFCD
:104290002037BD4680BD00BFA0FE00209CFE002050
:1042A00080B58AB000AF78607B681B78132B00F272
:1042B000B58101A252F823F0094300011D46000117
:1042C000DF430001D7440001294500011D460001DC
:1042D0001D4600011D4600011D4600011D4600014E
:1042E0001D4600011D4600011D4600011D4600013E
:1042F0001D4600011D4600011D4600011D4600012E
:104300001D4600016B4500017B689B881846FFF73E
:1043100013FC78627B6A002B00F082817B6A5B7BF6
:1043200083F00103DBB2002B40F07C817B689B7A39
:104330000F2B03D07B689B7A052B15D17B6A1B68FA
:104340007A6892799A71A54B1B68002B00F06C81FA
:1043500001233B727B6A1B897B81A04B1B6807F1A1
:104360000802104698475FE17B689B79062B1CD1B9
:104370007B6A1B681B79002B13D07B6A18897B6AC8
:104380001B6819887B6A1B685B881A4624F06CFCE2
:104390000346072B40F044817B6A1B6808225A7150
:1043A0003EE1786AFFF792FC3AE17B689B79082B43
:1043B0000CD1786AFFF7ACFC03467B847B8C002B26
:1043C00040F02E81786AFFF781FC29E17B689B79B8
:1043D000042B40F02581786AFFF778FC20E17B68A8
:1043E0009B881846FFF7A8FBF861FB695B7B83F0AD
:1043F0000103DBB2002B40F01981FB69002B00F0B8
:1044000017817B681B7A99B27B68083301331B786C
:104410009BB21B029AB2FB691B680A4492B21A80D3
:104420007B689B7A99B27B680A3301331B789BB215
:104430001B029AB2FB691B680A4492B25A80684B0D
:104440001A68FB691B7B19460B46DB000B449B007B
:10445000134434331B68002B1FD0FB691A68604B70
:104460001968FB691B7B18460346DB0003449B006D
:104470000B4434331B6812881A80FB691A68584B46
:104480001968FB691B7B18460346DB0003449B004D
:104490000B4434331B6852885A80FB691B68012225
:1044A0001A717B6893F8FE30012B40F0C180FB69E4
:1044B0001889FB691B681988FB691B685B881A46A9
:1044C00024F0D2FB0346072B40F0B280FB691B6847
:1044D00008225A71ACE07B689B881846FFF72CFBDA
:1044E000B861BB695B7B83F00103DBB2002B40F05A
:1044F000A180BB69002B00F09F807968B869FFF745
:1045000055FC7B6893F8FF30012B40F09580B8692B
:10451000FFF7FEFB0346FB82FB8A002B40F08C80FA
:10452000B869FFF7D3FB87E07B689B881846FFF7E5
:1045300003FB38613B695B7B83F00103DBB2002B3B
:104540007CD13B69002B7BD07B681B89002B03D07F
:1045500079683869FFF7D4FC7B6893F8FF30012B4A
:104560006ED13869FFF7B2FB6AE07B689B8818461A
:10457000FFF7E2FAF860FB685B7B83F00103DBB2D4
:10458000002B5FD1FB68002B5ED0FB681B685B795A
:10459000062B07D1FB681B6800225A71F868FFF7E9
:1045A00019FB51E0FB681B685B79082B1AD1FB688B
:1045B0001B6800225A71FB681889FB681B68198800
:1045C000FB681B685B881A4624F04EFB0346072BEA
:1045D0003AD1FB681B6808225A7135E09CFE002026
:1045E000A0FE0020FB681B685B79042B2CD1FB68C4
:1045F0001B6800225A71FB681889FB681B681988C0
:10460000FB681B685B881A4624F050FB0346072BA7
:104610001AD1FB681B6804225A7115E000BF14E030
:1046200000BF12E000BF10E000BF0EE000BF0CE0D2
:1046300000BF0AE000BF08E000BF06E000BF04E0E2
:1046400000BF02E000BF00E000BF2837BD4680BDCC
:1046500080B582B000AF1A4B1B68002B0BD1FC2039
:1046600009F0BDF90246164B1A60154B1B68002B6A
:1046700019D100231FE00023FB7111E0104B1B68D0
:10468000FA7953F82230002B07D00D4B1B68FA79CA
:1046900053F822301846FFF7D9F9FB790133FB7143
:1046A000FB79072BEAD9064B1B68FC220021184630
:1046B0002CF08CFA012318460837BD4680BD00BF98
:1046C000A0FE002080B483B000AF7860044A7B680D
:1046D000136000BF0C37BD465DF8047B704700BF18
:1046E0009CFE002080B582B000AF7860144B1B6840
:1046F00093F8F830052B1DD8114B1A68104B1B6826
:1047000093F8F83019460B46DB000B449B0020332E
:1047100013442422796818462BF00EFC084B1B68C2
:1047200093F8F820064B1B680132D2B283F8F820C8
:10473000002300E0012318460837BD4680BD00BFB6
:10474000A0FE002080B582B000AF786039603B6881
:104750001B78012B02D0042B0AD010E07B68002BC1
:104760000CD03B685B6819467868FFF751FC05E0A0
:104770003B685B681846FFF793FD00E000BF00BF91
:104780000837BD4680BD80B584B000AF0346FB80CE
:10479000FB881846FFF7D0F9F860FB68002B17D0AC
:1047A000FB681B68002B11D0FB681B6808220021E6
:1047B00018462CF00BFAFB6800221A73FB680122E2
:1047C0005A73F868FFF706FA002302E0022300E0BC
:1047D000032318461037BD4680BD00BF08B5044B03
:1047E000186818B1804780F00100C0B208BD00BF52
:1047F0003CF2002009B91046704780B1037883EA83
:10480000122383EA131343EA022282EA033282EA82
:10481000431292B200B10130013989B2EAE7FF23B5
:10482000EDE72DE9F04F85B081460E9E8A46904611
:1048300006B11E4443449CB247465546A74203D1A5
:10484000012005B0BDE8F08F95B36A4610232946D4
:10485000484609F007F9BDF80420944208D9BDF88C
:10486000063013449BB29F4202D29C4203D91F469A
:10487000BDF80A50E8E79742A4EB020128BFE31B0A
:1048800089B234BF0B469BB2A4EB030432BFBDF820
:104890000AB04746D346A4B246B110352944F61AA9
:1048A000C91A324689B2484609F0DCF85D46C5E7C8
:1048B0002846C6E72DE9F74FD4889688DFF8588058
:1048C00082468B4644F307254FF6FF77002D03DA27
:1048D000384603B0BDE8F08F1AD0A4F580741FFAF3
:1048E00084F94FF48074CDF800802346324659464F
:1048F0005046FFF796FF38B13A4621464046FFF74B
:1049000079FF2644B6B20746013D6DB24C46DDE75D
:10491000002CDDD0A146E6E740F2002010B5094C9E
:1049200094F8040109F03CF94FF40052002194F886
:10493000040109F05FF918B14FF48073A4F806314F
:1049400010BD00BF3CF200202DE9F041094C0546A6
:104950000E46174613460A46014694F8040109F02C
:10496000B7F83B463246294694F80401BDE8F041C9
:1049700009F08EB93CF2002003292CD8DFE801F0C1
:1049800002091B23184BB3F806211044A3F80601B3
:104990007047154AB2F80631184480B2C11C4FF670
:1049A000FC730B40984203D90430A2F8060170470B
:1049B000A2F8063170470C4AB2F806310F3318449A
:1049C00020F00F00F1E7084AB2F806313F331844EF
:1049D00020F03F00E9E74FF0200383F31188BFF395
:1049E0006F8FBFF34F8FFEE73CF200204FF02003A4
:1049F00083F31188BFF36F8FBFF34F8FFEE770B55E
:104A00000C4A92F808410023D9B28C4201D8002008
:104A10000BE05D1C9B00D118B1F80961864207D1FB
:104A2000B1F80B2112B10448184470BDFFF7DEFF46
:104A30002B46E9E73CF2002045F3002008B5FFF7DC
:104A4000DEFF00B1408808BD10B50446FFF7D7FF70
:104A500040B14FF0200383F31188BFF36F8FBFF392
:104A60004F8FFEE7094B93F80801020601D5FFF7C7
:104A7000BDFF421C83F8082103EB800203F20913F7
:104A8000A2F8094103EB800010BD00BF3CF20020FA
:104A900008B5FFF7B4FF08B9FFF7A8FF064A92F878
:104AA0000831013BDBB282F8083102EB8303D3F813
:104AB0000931036008BD00BF3CF200202DE9F04140
:104AC000244CB4F80A33B4F80C6303449BB204F2E8
:104AD0000E37FF2B0546A4F80A3307EB060004F156
:104AE00004080AD82A46414635442BF025FA012607
:104AF000A4F80C533046BDE8F081C6F580724146FB
:104B00002BF01AFA4FF480723946B4F80601FFF719
:104B10001BFF06460028EDD000214FF48070FFF700
:104B20002BFFB4F80A53B4F80C13A5F580750023D5
:104B3000ADB2A4F80C33A4F80A53002DDAD0C1F5B5
:104B400080712A4618FA81F138462BF0F5F9A4F85D
:104B50000C53CFE73CF200207FB545F24143ADF85E
:104B600006300D4BCDE902300C4BC043B3F80E3488
:104B700004904FF6FF7210210DF10600ADF81430CD
:104B8000FFF738FE1222ADF8040001A90020FFF75C
:104B9000DBFE07B05DF804FB534E76323CF200209A
:104BA0002DE9F04F724C94F8047100258FB0122358
:104BB00009AA29463846A4F81054A4F81254A4F8B7
:104BC0000C53A4F80A5308F04DFF0B9B039394F881
:104BD00004310133DBB2012B94BF84F8043184F833
:104BE000045194F80431BB4208D14FF0200383F301
:104BF0001188BFF36F8FBFF34F8FFEE7FFF78EFE75
:104C00000028E4D04FF0000ADFF8708180E004EB68
:104C10008A091023B9F80BB105AA5946384608F09D
:104C200021FF0026BDF81C50ADF81A5005AA5946C0
:104C30003846ADF81860ADF81E60ADF82060FFF79B
:104C400039FE4FF6FF72ADF814000E2105A8FFF7EC
:104C5000D1FDF022ADF82200FF2146482BF0B6FF2F
:104C600005AB03CB1035C8F80000C8F80410B4F841
:104C70000C2303CBB4F80631C8F80800ADB21344D6
:104C8000B5F5807FC8F80C10A9F80B3119D8394B4D
:104C900000933246BDF81C3059463846FFF7C1FD37
:104CA00050B1B4F80631B4F80C231344A9F80B3111
:104CB0002846FFF703FF38BB002420460FB0BDE8AD
:104CC000F08F1023B5F5807F2A4628BF4FF48072FD
:104CD000A2EB03091FFA89F943440292009332467A
:104CE0004B4659463846FFF79CFD0028E4D0029811
:104CF000FFF7E4FE0028DFD0029BED1A4E44ADB270
:104D0000B6B20023002DDDD10AF101035FFA83FA68
:104D100094F8083153453FF67AAFB4F80A23FAB94C
:104D2000B4F80A030021FFF727FEB4F80631A4F80F
:104D30000E34039B581EFFF70FFF04460028BBD01C
:104D400002210020FFF718FE1222FF2109A82BF0F4
:104D50003DFF122309AA0021384608F0B9FEACE74E
:104D60000549B4F80601FFF7EFFD0028D8D1A3E705
:104D70003CF2002050F200204AF5002040F20020D2
:104D800008B50A4BB3F80631C3F500539BB2834212
:104D90000BD2FFF705FF40B94FF0200383F31188D2
:104DA000BFF36F8FBFF34F8FFEE708BD3CF20020CB
:104DB0002DE9F84F344E0446351D89464FF4807274
:104DC000FF2128462BF002FFE1884FF6FF7248468C
:104DD000FFF710FD4FF6FF7220800E212046FFF7EF
:104DE00009FD2346E08103CB7060696003CBA860B6
:104DF000E960E28802F11007BFB2B9F1000F07D0F5
:104E0000B7F5807F17D8494606F114002BF094F8C7
:104E1000E2881E49B6F80601F02A28BFF0221032B7
:104E200092B2FFF791FD8046E0881030022180B2F7
:104E3000FFF7A2FD25E04FF0000B1020B7F5807FB3
:104E40003C4628BF4FF48074A4EB000A524609EB9D
:104E50000B0128442BF070F822460C49B6F80601E5
:104E6000FFF772FD804660B1204602213F1BFFF72D
:104E700083FDBFB20BEB0A031FFA83FB0020002F58
:104E8000DCD14046BDE8F88F3CF2002040F2002023
:104E90002DE9F041674C00258EB084F808514FF0A1
:104EA000FF38FF27122304AA0021284608F0DAFD64
:104EB000DDE906637340013326D19DF81230412BA2
:104EC00022D19DF81330542B1ED19DF81430532B52
:104ED0001AD19DF815304E2B16D19DF81630762B31
:104EE00012D19DF81730322B0ED14FF6FF721021E0
:104EF0000DF11200FFF77EFCBDF81030834203D1A4
:104F000046453CBFB0462F46E5B1FF2F2CD10023CC
:104F100084F804314FF6FF766FF00105FFF7FEFCD1
:104F200090B994F804310133DBB2012B84F80431D9
:104F3000F4D94FF0200383F31188BFF36F8FBFF3D1
:104F40004F8FFEE70125ADE72846A4F80E64FFF772
:104F500003FE0028E5D0002384F80831012384F8FB
:104F600014340EB0BDE8F0814FF48073A4F806311C
:104F70003846122309AA002184F8047108F072FD52
:104F80004FF6FF77B4F80631B3F5005FE6D2BDF80F
:104F90003420BA4201D09A4217D802210020FFF7EC
:104FA000EBFC022510236A46B4F8061194F80401BC
:104FB00008F058FD6A46102312F8011BFF291ED184
:104FC000013B9BB2002BF7D1C8E70025EAE7294651
:104FD0001020FFF7D1FCD5E7BDF802603046FFF79F
:104FE0000EFD10B93046FFF72FFDB4F806314380AF
:104FF000BDF80830BBB93046FFF74AFD13E03A462A
:105000000E216846FFF7F6FBBDF80E608642DED142
:105010006A46B4F8061194F80401FFF74BFCBDF89A
:1050200000308342D8D0BDF806001030294680B247
:10503000CFE700BF3CF20020034B93F814340BB9C8
:10504000FFF726BF704700BF3CF200202DE9FF4765
:105050008A4616469846054630B12BB1FFF7BEFB8F
:10506000044650B1052045E04FF0200383F311883A
:10507000BFF36F8FBFF34F8FFEE706F1100080B2D2
:10508000FFF77EFE2846FFF7BAFC0746A8B3B0F844
:1050900002901D4D10236A46494695F8040108F018
:1050A000E1FCBDF808300AEB06029A4227D8B34269
:1050B00018BFBDF80C40ADF804A01CBF0134A4B269
:1050C00041466846ADF80C40ADF80660ADF80A9070
:1050D000B5F80641FFF76CFE98B1BDF80C307C8046
:1050E000642B4FF0000005D9BDF80230A5F810344C
:1050F000A5F8120404B0BDE8F0870320FAE7042005
:10510000F8E70120F6E700BF3CF2002073B50C463B
:1051100015461E46C0B1BBB1FFF790FC80B16319C4
:10512000B3F5803F09D201460C4800962B46224633
:1051300090F80401FFF775FB20B9042002B070BDA0
:105140000320FBE70020F9E74FF0200383F31188E9
:10515000BFF36F8FBFF34F8FFEE700BF3CF200201D
:105160001FB540B94FF0200383F31188BFF36F8F51
:10517000BFF34F8FFEE7FFF761FC48B101460648D9
:10518000102390F804016A4608F06CFCBDF8080092
:1051900005B05DF804FB00BF3CF200202DE9F04FA4
:1051A000431E14469BB24FF6FD7293428BB080466D
:1051B0000E461DD8B1F5006F1AD8FFF73FFC00BBB3
:1051C000FFF70CFB054648BB06F1100080B2FFF765
:1051D000D7FD8D4B93F90821002A80F2F7804FF01C
:1051E000200383F31188BFF36F8FBFF34F8FFEE768
:1051F0004FF0200383F31188BFF36F8FBFF34F8FFE
:10520000FEE74046FFF7ACFF86420FD07E4DA5F883
:105210001084A5F81264FFF7E1FA08B105200EE04A
:10522000B5F8120470B9B5F810347BB9002C00F051
:10523000E6802346324600214046FFF767FF0BB069
:10524000BDE8F08F103080B2FFF79AFDB5F810047A
:10525000FFF7D5FB81460028E8D0B0F802B095F8FA
:105260000401102306AA594608F0FCFBB5F81234D5
:10527000EBB9BDF82000103080B2FFF781FDB5F822
:105280001004FFF7BCFB814640B94FF0200383F3C5
:105290001188BFF36F8FBFF34F8FFEE7B0F802B0F6
:1052A00095F80401102306AA594608F0DBFBB5F86F
:1052B0001224B5F806310493BDF8203022B1934290
:1052C000ADF8202028BF13460022BDF82010ADF80D
:1052D0001C20ADF81E10ADF82220ADF824200DF1F1
:1052E000180CBCE80300DFF824A1686003F1100784
:1052F000CAF80410BCE80300BFB2B7F5807FCAF853
:105300000800CAF80C1030D80AF11001009195F885
:1053100004015946FFF785FA002872D006AB03CB8B
:10532000BDF81E206860CAF8041003CB1032CAF81A
:105330000800CAF80C1092B25146B5F80601FFF702
:1053400003FB00283FF472AFBDF81E0010300221AD
:1053500080B2FFF711FB2C4B0022A3F81024A3F816
:105360001224049BA9F8023060E715461023CDF8FB
:1053700014A0B7F5807FBA4628BF4FF4807AAAEB15
:10538000030292B20392059A1F48134400932A46DF
:10539000039B90F804015946FFF743FA88B31B4971
:1053A0005246B1F80201FFF7CFFA00283FF43EAFB2
:1053B00002215046FFF7E0FA039BA7EB0A072B44B4
:1053C000BFB29DB20023002FD3D1C4E7214606A867
:1053D000B3F80671ADF81A80ADF81C50ADF81E6038
:1053E000ADF82060ADF82250ADF82450FFF7E0FC96
:1053F00038B14046FFF728FB478002201FE72046D0
:105400001DE701201BE700BF3CF2002040F2002016
:10541000F0B5074685B040B94FF0200383F31188FB
:10542000BFF36F8FBFF34F8FFEE7FFF707FB002837
:105430003FD0FFF7D3F9044600283CD11020FFF7F6
:105440009FFC4FF6FF720E216846ADF80020ADF8C4
:105450000270CDE90144ADF80C40FFF7CBF96B4683
:10546000ADF80E0003CB154D6860A96003CB2E1D6F
:10547000E860296110223146B5F80601FFF764FAA9
:1054800068B91022B5F8061195F8040108F0B2FBCE
:1054900018B902211020FFF76FFA012007E002215E
:1054A0001020FFF769FA3846FFF7F2FA204605B0F8
:1054B000F0BD0320FBE70520F9E700BF3CF2002028
:1054C000F8B50446FFF78AF9054668BB64B108F0F1
:1054D00067FB012008F064FB4FF400722946134873
:1054E0002BF074FB002020E0114D95F80871E3B219
:1054F0009F420CD8FFF754FB0028F3D14FF0200354
:1055000083F31188BFF36F8FBFF34F8FFEE705EB77
:105510008403B3F80961304603F070FF10B93046D8
:10552000FFF7B6FA0134E2E70520F8BD45F30020A5
:105530003CF20020014B1860704700BF3CF2002095
:1055400008B5FFF77BFA003018BF012008BD08B589
:10555000FFF726FB40B94FF0200383F31188BFF318
:105560006F8FBFF34F8FFEE708BD00BF80B582B0DD
:1055700000AF0346FB71FB799B00054A13440422EC
:10558000002118462BF022FB00BF0837BD4680BD26
:1055900058F6002080B485B000AF0346FB8000239E
:1055A000FB7316E0FB7B104A9B0013445B78012BD6
:1055B0000CD1FB7B0C4A9B0013445B88FA889A420F
:1055C00004D1FB7B9B00084A134406E0FB7B0133BC
:1055D000FB73FB7B072BE5D9002318461437BD4628
:1055E0005DF8047B704700BF58F6002080B483B09C
:1055F00000AF0023FB7119E0FB79114A9B001344B3
:105600005B78002B0FD1FB790D4A9B0013440122DC
:105610005A70FB790A49FA7901F82320FB799B003B
:10562000074A134406E0FB790133FB71FB79072B32
:10563000E2D9002318460C37BD465DF8047B70475D
:1056400058F6002080B586B000AF03463960FB7184
:105650001346BB710B4B1B68002B0FD0FB793B72C1
:10566000BA7907F108030233396818462AF064FC56
:10567000044B1B6807F108021046984700BF183713
:10568000BD4680BD54F6002080B582B000AF034611
:10569000FB71FB799B00164A134404220021184633
:1056A0002BF094FAFB79DB00124A13440822002104
:1056B00018462BF08BFAFA7913465B0013445B0013
:1056C0000D4A13440622002118462BF07FFAFA797E
:1056D000F97913465B0013445B00074A1A440548F6
:1056E000CB0003445A6000BF0837BD4680BD00BFF1
:1056F00078F60020C8F7002098F6002080B582B028
:1057000000AF0346FB71FB799B00164A1344042249
:10571000002118462BF05AFAFB79DB00124A134499
:105720000822002118462BF051FAFA7913465B0043
:1057300013445B000D4A13440622002118462BF047
:1057400045FAFA79F97913465B0013445B00074A7E
:105750001A440548CB0003445A6000BF0837BD46D1
:1057600080BD00BFC8F6002008F80020E8F6002041
:1057700080B582B000AF0346FB71FB799B00164AEF
:1057800013440422002118462BF020FAFB79DB0099
:10579000124A13440822002118462BF017FAFA790E
:1057A0001346DB0013445B000D4A13441222002110
:1057B00018462BF00BFAFA79F9791346DB001344FB
:1057C0005B00074A1A440548CB0003445A6000BFF7
:1057D0000837BD4680BD00BF18F7002048F80020FC
:1057E00038F7002080B58CB000AF7860396007F1E1
:1057F0000C032422002118462BF0E8F902233B7702
:105800007B681B889BB2BB8107F10C031B8841F6A8
:105810000302934202D10B4B3B6201E00A4B3B6215
:105820000A4B7B623B68BB62012387F82C3007F18F
:105830000C031846FEF756FF034618463037BD46A0
:1058400080BD00BF78F60020C8F600207804012053
:1058500080B58CB000AF7860396002233B777B68FD
:105860001B889BB2BB81094B3B62094B7B623B6847
:10587000BB62032387F82C3007F10C031846FEF7B0
:1058800031FF034618463037BD4680BD18F700206B
:105890007C04012080B588B000AF78607B685B88AD
:1058A0001846FFF777FEF861FB69002B05D100224F
:1058B00000210420FFF7C6FE3EE0FB691B78204A6A
:1058C000DB0013445B681B88002B34D07B685B884B
:1058D000BB81FB691B781A461A4B33F82230FB81D7
:1058E000FB691B78174A9B0013445B883B82FB696A
:1058F0001B781A46144B33F822307B82FB691B78E5
:10590000114A9B0013445B88BB82FB691B781A46D3
:105910000E4B33F82230FB82FB691B780B4A9B004D
:1059200013445B883B8307F10C030E2219460020C9
:10593000FFF788FE00E000BF2037BD4680BD00BFF6
:10594000C8F7002078F60020C8F6002018F70020DD
:1059500080B588B000AF78607B689B881846FFF7F9
:1059600019FEF861FB69002B05D1002200210420FB
:10597000FFF768FE42E07B68B3F80021FB691B7803
:105980002049DB000B445B681B889A4216D17B6878
:105990000A33BB617B689B88BB82BA6907F1140339
:1059A000023312781A70BB690133BB6107F114032B
:1059B000042219460220FFF745FE1FE07B68B3F87A
:1059C0000021FB691B781049DB000B445B681B88D6
:1059D0009A4213D17B680A333B617B689B88BB8109
:1059E0003B691B785BB2BB733B6901333B6107F1D9
:1059F0000C03042219460320FFF724FE2037BD467E
:105A000080BD00BFC8F7002048F8002080B584B0F2
:105A100000AF78607B689B881846FFF7BBFDF86095
:105A2000FB68002B05D1002200210420FFF70AFEAD
:105A300016E07B681A89FB681B780B49DB000B4476
:105A40005B681B889A420BD17B689B883B81002353
:105A50007B8107F10803042219460120FFF7F2FDBC
:105A60001037BD4680BD00BFC8F7002080B584B0A8
:105A700000AF78607B689B881846FFF78BFDF86065
:105A8000FB68002B05D1002200210420FFF7DAFD7E
:105A900018E07B681A89FB681B780C49DB000B4413
:105AA0005B681B889A420DD17B689B883B817B6831
:105AB0009B7A9BB27B8107F10803042219460120DF
:105AC000FFF7C0FD1037BD4680BD00BFC8F70020FE
:105AD00080B582B000AF78607B681B78062B04D05D
:105AE000072B06D0002B08D00BE07868FFF730FFBB
:105AF00007E07868FFF78AFF03E07868FFF7B6FFF2
:105B000000BF00BF0837BD4680BD80B582B000AF82
:105B10000346FB71FB791846FFF728FDFB79184611
:105B2000FFF7B2FDFB791846FFF7E8FDFB79184651
:105B3000FFF71EFE00BF0837BD4680BD80B584B0AC
:105B400000AF78600023FB607B681B78002B02D0DD
:105B5000012B0FD020E07B689B78002B19D1FFF739
:105B600045FDF860FB68002B13D07B689A88FB68C2
:105B70005A800EE07B685B881846FFF70BFDF860E3
:105B8000FB68002B07D0FB681B781846FFF7BDFFAA
:105B900001E000BF00E000BF00BF1037BD4680BD80
:105BA00080B582B000AF184B00221A600023FB7151
:105BB00006E0FB791846FFF7A8FFFB790133FB717C
:105BC000FB79072BF5D911491148FFF70BFE034666
:105BD000002B01D0012312E00E490F48FFF702FE0F
:105BE0000346002B01D0012309E00C490C48FFF7C4
:105BF0002FFE0346002B01D0012300E000231846AE
:105C00000837BD4680BD00BF54F60020C8F700200D
:105C10002C59020108F800203059020148F80020F0
:105C20003459020180B483B000AF7860044A7B68C5
:105C3000136000BF0C37BD465DF8047B704700BFA2
:105C400054F6002080B586B000AF03460A46FB80BC
:105C500013467B71FB881846FFF79CFC78617B69D3
:105C6000002B08D07B691B781B4ADB0013445B6860
:105C70001B88002B01D103232AE0FE2007F0AFFE92
:105C800038613B69002B01D1022321E07B691B783D
:105C9000114ADB0013445B681A883B691A803B6930
:105CA00001225A803B697A791A713B69122283F882
:105CB000F8203B690022A3F8FA20FB8839691846CE
:105CC00025F072F80346FB81386907F094FEFB89E2
:105CD00018461837BD4680BDC8F7002080B586B08D
:105CE00000AF03460A46FB8013467B71FB881846CB
:105CF000FFF750FC78617B69002B08D07B691B782B
:105D00001B4ADB0013445B681B88002B01D1032373
:105D10002AE0FE2007F063FE38613B69002B01D1C9
:105D2000022321E07B691B78114ADB0013445B6886
:105D30001A883B691A803B6901225A803B697A794B
:105D40001A713B69522283F8F8203B690022A3F8BC
:105D5000FA20FB883969184625F026F80346FB81AE
:105D6000386907F048FEFB8918461837BD4680BDE4
:105D700008F8002080B584B000AF0346FB80FB88A4
:105D80001846FFF707FCF860FB68002B08D0FB689B
:105D90001B780D4ADB0013445B681B88002B01D184
:105DA00003230CE0FB681B78074ADB0013445B68A5
:105DB0001988FB880022184622F0BCFF03461846CB
:105DC0001037BD4680BD00BFC8F7002080B584B045
:105DD00000AF0346FB80FB881846FFF7DBFBF8604B
:105DE000FB68002B08D0FB681B780D4ADB001344CE
:105DF0005B681B88002B01D103230CE0FB681B7838
:105E0000074ADB0013445B681988FB8800221846A8
:105E100022F090FF034618461037BD4680BD00BFF4
:105E200048F8002080B588B000AF7B600346FB8156
:105E30000B46BB8113467B81FB891846FFF7AAFB03
:105E4000B861BB69002B16D07B68002B13D0BB89CF
:105E500041F6010293420ED9BB8941F604029342F6
:105E600009D87B8942F60522934204D97B8942F600
:105E70000722934201D9032320E1062200217868FA
:105E80002AF0A4FEBB8941F60302934262D041F698
:105E90000402934200F0B78041F60202934240F0C0
:105EA0000B810023FB7751E0FB7F864A52F82330B9
:105EB0001B681B789AB2FB7F824951F823301B681C
:105EC0005B789BB21B029BB213449BB2FB82FB8AA2
:105ED0007A899A4237D1FB7F7A4A52F823301B796C
:105EE00003F00103002B2ED1BB691B78764ADB003F
:105EF00013445968FA7F13465B0013445B000B445C
:105F00009A887B681A80BB691B786F4ADB00134450
:105F10005968FA7F13465B0013445B000B449A7880
:105F20007B689A70BB691B78674ADB001344596829
:105F3000FA7F13465B0013445B000B441A887B68AE
:105F40009A8000BFB9E0FB7F0133FB77FB7F002B1A
:105F5000AAD0B2E00023FB7751E0FB7F594A52F808
:105F600023301B681B789AB2FB7F564951F82330C7
:105F70001B685B789BB21B029BB213449BB2FB82F3
:105F8000FB8A7A899A4237D1FB7F4E4A52F82330F6
:105F90001B7903F00103002B2ED1BB691B784B4A00
:105FA000DB0013445968FA7F13465B0013445B001F
:105FB0000B449A887B681A80BB691B78434ADB00D4
:105FC00013445968FA7F13465B0013445B000B448B
:105FD0009A787B689A70BB691B783C4ADB00134453
:105FE0005968FA7F13465B0013445B000B441A8820
:105FF0007B689A8000BF60E0FB7F0133FB77FB7F0B
:10600000002BAAD059E00023FB7751E0FB7F304AF8
:1060100052F823301B681B789AB2FB7F2C4951F849
:1060200023301B685B789BB21B029BB213449BB26C
:10603000FB82FB8A7A899A4237D1FB7F244A52F845
:1060400023301B7903F00103002B2ED1BB691B7891
:10605000204ADB0013445968FA7F13465B0013445F
:106060005B000B449A887B681A80BB691B78194ACD
:10607000DB0013445968FA7F13465B0013445B004E
:106080000B449A787B689A70BB691B78114ADB00D5
:1060900013445968FA7F13465B0013445B000B44BA
:1060A0001A887B689A8000BF07E0FB7F0133FB778B
:1060B000FB7F022BAAD900E000BF0023184620373F
:1060C000BD4680BD7804012008F80020C8F70020F4
:1060D0007C04012048F8002080B584B000AF03465E
:1060E0003960FB800023BB73FB881846FFF752FA28
:1060F000B860BB68002B02D03B68002B01D10323A2
:1061000053E00A22002138682AF060FD0023FB7367
:1061100044E0FB7B274A52F823301B7903F001034C
:10612000002B38D0BB681B78234ADB001344596826
:10613000FA7B13465B0013445B000B441B88002B67
:1061400029D0BB681B781C4ADB0013445968FA7BD2
:1061500013465B0013445B00CA18BB7B11883A6886
:106160009B0013440A465A80BB7B9B003A68134449
:10617000181DFB7B0F4A52F823301B681946FB7B26
:106180000C4A52F823301B681B7C1A4629F0D4FEB7
:10619000BB7B0133BB73FB7B0133FB73FB7B022BAC
:1061A000B7D93B68BA7B1A70002318461037BD4632
:1061B00080BD00BF7C04012048F8002080B582B07B
:1061C00000AF78607B681B78002B03D17868FFF7FD
:1061D00061FB00E000BF00BF0837BD4680BD80B551
:1061E00082B000AF78607B681B78012B02D0042B53
:1061F00006D00BE07B685B681846FFF79FFC05E064
:106200007B685B681846FFF763FC00BF00BF083778
:10621000BD4680BDF4040120040000000100000020
:1062200000000000B0FD00201C0000000000000085
:1062300000000020040000000000000018FE002004
:10624000140000000000000000FB002060000000BF
:106250000000000004000020010000000000000019
:10626000E8FD0020180000000000000058FC00209D
:1062700040000000000000000800002003000000B3
:106280000000000060FB002058000000000000003B
:1062900051F6002001000000000000000CFF00206B
:1062A00004000000000000000C0000200C000000B2
:1062B0000000000010FF00200400000000000000AB
:1062C0009CFE00200800000000000000580401208F
:1062D00030000000010000003859020100000000F9
:1062E0004C59020100000000605902010100000049
:1062F00074590201010000005804012060040120CB
:10630000680401207004012054F6002034020000CB
:1063100000000000C0020120480000000100000051
:106320000200010022FD0101A80D0301C0020120AD
:10633000020000011AEF0101B00D0301B60D0301C7
:1063400005000001AC0D0301F8FF0020C20201208E
:106350000100009000000000C402012000000000C5
:10636000FA00FC0000000000F8FF0020010000001F
:1063700000000000080301204800000001000000A8
:106380000200010022FD0101B80D030108030120F4
:10639000020000011AEF0101C00D0301C60D030147
:1063A00005000001BC0D0301F4FF00200A030120D9
:1063B00001000291000000000C0301200000000019
:1063C000F000F20000000000F4FF002001000000D7
:1063D0000000000050030120480000000100000000
:1063E0000200010022FD0101C80D0301500301203C
:1063F000020000011AEF0101D00D0301D60D0301C7
:1064000005000001CC0D0301F0FF00205203012024
:106410000100020100000000540301200000000000
:1064200039013B0100000000F0FF002001000000E6
:1064300000000000A4FE0020080000000000000092
:10644000180000205000000000000000F8040120A7
:106450000400000001000000AAAAAAAA84FE0020ED
:106460000C00000000000000200200201CF00000D2
:1064700000000000FC0401200400000001000000F6
:106480000400000088F80020040100000000000063
:1064900098FC00203C000000000000006800002084
:1064A0000800000000000000CCFD00201C000000DF
:1064B0000000000014FF00200800000000000000A1
:1064C0003CF200201504000000000000F10401204F
:1064D0000200000001000000F80E000000FF002094
:1064E0000500000000000000700000200100000016
:1064F00000000000F3040120010000000100000082
:10650000FF000000780000202C00000000000000C8
:106510001CFF00200400000000000000A400002078
:106520000400000000000000EEFF00200100000059
:1065300000000000ACFE0020100000000000000081
:10654000A80000201000000000000000FEFE002057
:106550000200000000000000EFFF0020010000002A
:106560000000000005FF0020050000000000000002
:1065700050FD002020000000000000000AFF002065
:1065800002000000000000008CF9002090000000D4
:1065900000000000BCFE0020080000000000000019
:1065A0002CFE002014000000000000000E05012059
:1065B000010000000100000001000000EC040120C7
:1065C0000500000001000000020700A62A000000EC
:1065D00020FF00200400000000000000B8000020A0
:1065E000040000000000000024FF0020080000005C
:1065F00000000000BC000020260000000000000099
:106600002CFF00200C00000000000000C4FE002051
:10661000080000000000000038FF0020100000000B
:1066200000000000E400002018000000000000004E
:10663000F1FF00200100000000000000CCFE00205F
:10664000080000000000000070FD00202000000095
:1066500000000000F2FF0020010000000000000028
:1066600048FF00200C00000000000000F3FF0020A5
:10667000010000000000000054FF0020080000009E
:1066800000000000F5FF00200100000000000000F5
:106690005CFF00200400000000000000F6FF002066
:1066A0000200000000000000F9FF002001000000CF
:1066B0000000000052F60020020000000000000070
:1066C000E4FF002004000000000000009803012007
:1066D000C0000000010000005F1A03015F1A0301FF
:1066E0005F1A03015F1A03015F1A03015F1A0301B6
:1066F0005F1A03015F1A03015F1A03015F1A0301A6
:106700005F1A03015F1A03015F1A03015F1A030195
:106710005F1A03015F1A03015F1A03015F1A030185
:106720005F1A03015F1A03015F1A03015F1A030175
:106730005F1A03015F1A03015F1A03015F1A030165
:106740005F1A03015F1A03015F1A03015F1A030155
:106750005F1A03015F1A03015F1A03015F1A030145
:106760005F1A03015F1A03015F1A03015F1A030135
:106770005F1A03015F1A03015F1A03015F1A030125
:106780005F1A03015F1A03015F1A03015F1A030115
:106790005F1A03015F1A030154FE0020200000006D
:1067A00000000000FAFF00200100000000000000CF
:1067B000D4FE00200800000000000000FBFF0020C5
:1067C0000100000000000000FC00002008000000A4
:1067D00000000000FCFF002001000000000000009D
:1067E00060FF00200C00000000000000E8FF002017
:1067F0000400000000000000B8FB00205000000072
:1068000000000000FDFF002001000000000000006B
:10681000040100204E00000000000000DCFE00200B
:1068200008000000000000006CFF002004000000D1
:106830000000000090FE00200C000000000000009E
:10684000540100200C0000000000000070FF002038
:1068500010000000000000006001002004000000A3
:106860000000000080FF0020040000000000000085
:1068700090FD00202000000000000000FEFF00202E
:1068800001000000000000002CFD0020240000009A
:106890000000000084FF0020040000000000000051
:1068A0006401002039000000000000007C0101208C
:1068B000A40000000100000020200001FFFFFFFFF6
:1068C000FFFFFFFFFFFFFFFF0000000000000000D0
:1068D0000000000001000000FFFFFFFF512563FCE6
:1068E000C2CAB9F3849E17A7ADFAE6BCFFFFFFFF4B
:1068F000FFFFFFFF00000000FFFFFFFF96C298D8D8
:106900004539A1F4A033EB2D817D0377F240A463D8
:10691000E5E6BCF847422CE1F2D1176BF551BF37E1
:106920006840B6CBCE5E316B5733CE2B169E0F7CB4
:106930004AEBE78E9B7F1AFEE242E34F4B60D22781
:106940003E3CCE3BF6B053CCB0061D65BC86987677
:1069500055BDEBB3E7933AAAD835C65AA00100203B
:106960000C0000000000000088FF00200400000070
:10697000000000000C0501200200000001000000E2
:1069800070000000AC0100201000000000000000BA
:10699000E4FE002008000000000000008CFF002042
:1069A0000400000000000000BC0100200400000002
:1069B00000000000FFFF00200100000000000000B8
:1069C00074FE00201000000000000000ECFF00201A
:1069D00002000000000000001CFA002080000000FF
:1069E0000000000040FE0020140000000000000035
:1069F00090FF00200400000000000000C001002003
:106A00000400000000000000B80401202400000081
:106A10000100000024232221201F1E1D1C1B1A1907
:106A20001817161514131211100F0E0D0C0B0A095E
:106A30000807060504030201C40100201600000037
:106A40000000000094FF0020100000000000000083
:106A500000FE0020180000000000000000050120DA
:106A60000800000001000000831C0301831C0301D7
:106A7000DA0100200100000000000000A4FF002057
:106A80001000000000000000ECFE002006000000E6
:106A900000000000000001200100000000000000D4
:106AA000DC010020040000000000000004FD0020C4
:106AB000280000000000000001000120010000008B
:106AC00000000000B4FF00200C00000000000000E7
:106AD000020001200100000000000000C0FF0020B3
:106AE0000400000000000000F2FE0020060000008C
:106AF000000000009CFA002064000000000000007C
:106B0000030001200100000000000000E00100205F
:106B10000800000000000000D4FC0020300000004D
:106B200000000000F8FE0020060000000000000049
:106B3000E80100201100000000000000FC0100201E
:106B40001300000000000000C4FF00200C00000043
:106B500000000000100200200D00000000000000F6
:106B6000D0FF00200C000000000000001D020020EB
:106B70000100000000000000DCFF00200400000015
:106B80000000000008FC0020500000000000000091
:106B9000E0FF0020040000000000000008050120C4
:106BA00004000000010000000000000000000000E0
:106BB0000000000080B58AB004AFF860B9607A6068
:106BC0003B607B68012B02D10123FB7401E00023B1
:106BD000FB74BB68002B01D10123BB60FB6813F180
:106BE000220F09D8FB680133FB60FB68203318468D
:106BF00004F0BEFA786101E000237B617B69002B21
:106C00000DD07B6903F120013B6A02933B6801933D
:106C1000FB7C0093BB68FA68786900F02FFC7B6905
:106C200018461837BD4680BD80B584B000AF786087
:106C30007B68FB60FB681B7F03F00203002B03D122
:106C4000F86804F033FB04E020220021F86829F002
:106C5000BDFF00BF1037BD4680BD90B58BB004AFFF
:106C600078607B683B6100237B610023FB6000232D
:106C7000BB6004F0A6FF3B691B69002B17D13B6981
:106C80005B69002B13D13B6999693B6998683B6943
:106C9000DC683B691B7FBA680292FA680192009334
:106CA00023460246386900F0E9FB01237B6104F0CA
:106CB000A1FF7B6918461C37BD4690BD80B485B0E6
:106CC00000AF786039607B68BB603B68002B01D106
:106CD00001233B60BB689B683A689A4205D2BB6857
:106CE0003A68DA600123FB6001E00023FB60FB6887
:106CF00018461437BD465DF8047B704780B487B0F2
:106D000000AF78607B683B613B691B68FB603B6957
:106D10009A683B691B6813447B613B695B687A69CD
:106D2000D31A7B613B691B68FA689A42ECD17B6994
:106D3000013B7B613B699B687A699A4204D33B695A
:106D40009B687A69D31A7B617B6918461C37BD46FC
:106D50005DF8047B704780B584B000AF78607B68D5
:106D6000FB60F86800F06AFBB860BB681846103733
:106D7000BD4680BD80B58EB002AFF860B9607A6064
:106D80003B60FB687B620023FB627B68BB62002385
:106D90003B627B6A9B68013B3B627B6A1B7F03F023
:106DA0000103002B09D0BB6A0433BB62BA6A3B6A99
:106DB0009A4208D900233B6005E0BA6A3B6A9A42CE
:106DC00001D93B6ABB623B68002B32D007F1140348
:106DD0001846FAF7F5FD04F0F4FE786AFFF78EFF27
:106DE000F862FA6ABB6A9A4209D200210020FBF7D6
:106DF00045FDFAF775FF02467B6A5A6102E004F02E
:106E0000F9FE16E004F0F6FE3B6800930023002232
:106E100000210020FBF7D2F97B6A00225A613A4632
:106E200007F1140311461846FAF7F8FD0346002B44
:106E3000D1D0FB6A002B03D1786AFFF75FFFF862BD
:106E4000BB6A0093FB6A7A68B968786A00F07BF8DD
:106E5000F861FB69002B1BD0786A00F0EFFA02465C
:106E60007B6ADB689A4213D3FAF704F87B6A1B69E2
:106E7000002B0BD07B6A18690023009300230022AB
:106E80000021FBF711FA7B6A00221A61FAF73AF83F
:106E9000FB6918463037BD4680BD80B58EB002AF65
:106EA000F860B9607A603B60FB68BB627B68FB623C
:106EB000BB6A1B7F03F00103002B02D0FB6A043383
:106EC000FB62B86AFFF71AFF7862FB6A00937B6A7D
:106ED0007A68B968B86A00F036F838623B6A002B05
:106EE0002CD0B86A00F0AAFA0246BB6ADB689A4264
:106EF00024D3EFF311824FF0200383F31188BFF303
:106F00006F8FBFF34F8FBA617B61BB69FB61BB6A57
:106F10001B69002B0DD0BB6A18693B6801930023E5
:106F20000093002300220021FBF7A8FABB6A00228D
:106F30001A61FB693B613B6983F311883B6A184620
:106F40003037BD4680BD80B586B000AFF860B9600F
:106F50007A603B60FB685B687B61FB681B7F03F0CA
:106F60000103002B11D07B683B613A683B6A9A426F
:106F700008D307F110017B690422F86800F0E8F9F2
:106F8000786108E000237B6005E07A683B68934203
:106F900028BF13467B607B68002B08D07B697A682A
:106FA000B968F86800F0D4F90246FB685A607B685B
:106FB00018461837BD4680BD80B58AB002AFF8606C
:106FC000B9607A603B60FB683B610023FB613B6911
:106FD0001B7F03F00103002B02D004237B6101E03F
:106FE00000237B613B68002B28D004F0EAFD386960
:106FF00000F024FAB861BA697B699A4208D8002186
:107000000020FBF73BFCFAF76BFE02463B691A6176
:1070100004F0F0FDBA697B699A4213D83B6800938B
:107020000023002200210020FBF7C8F83B69002262
:107030001A61386900F002FAB86103E0386900F0BB
:10704000FDF9B861BA697B699A421DD9BB697A6852
:10705000B968386900F097F8F861FB69002B13D024
:10706000F9F708FFFB685B69002B0BD0FB685869D8
:1070700000230093002300220021FBF715F9FB6891
:1070800000225A61F9F73EFFFB6918462037BD46DA
:1070900080BD80B586B000AF78607B683B613B699E
:1070A0001B7F03F00103002B14D0386900F0C6F9F0
:1070B000F860FB68042B0AD93B691B6807F10801DB
:1070C0000422386900F07FF9BB687B6104E000238B
:1070D0007B6101E000237B617B6918461837BD4660
:1070E00080BD80B58EB002AFF860B9607A603B6059
:1070F000FB687B620023FB627B6A1B7F03F001035A
:10710000002B02D00423BB6201E00023BB62786A3B
:1071100000F094F938623A6ABB6A9A422ED93B6A07
:107120007A68B968786A00F02EF8F862FB6A002B7A
:1071300024D0EFF311824FF0200383F31188BFF3C3
:107140006F8FBFF34F8FBA617B61BB69FB617B6A55
:107150005B69002B0DD07B6A58693B680193002363
:107160000093002300220021FBF788F97B6A0022AC
:107170005A61FB693B613B6983F31188FB6A1846DE
:107180003037BD4680BD80B588B000AFF860B960CB
:107190007A603B60FB681B68BB61FB681B7F03F088
:1071A0000103002B13D007F11001BB690422F8681A
:1071B00000F009F9B8613B69FB613B68043B3B6047
:1071C000FA697B689A4204D90023FB6101E07B687D
:1071D000FB613A68FB69934228BF13467B617B6978
:1071E000002B08D0BB697A69B968F86800F0EBF841
:1071F0000246FB681A607B6918462037BD4680BD91
:1072000080B487B000AF78607B683B613B691B68E6
:10721000FB603B695B68FA689A4202D101237B619B
:1072200001E000237B617B6918461C37BD465DF891
:10723000047B704780B586B000AF78607B68FB60E8
:10724000FB681B7F03F00103002B02D004233B618A
:1072500001E000233B617868FFF750FD02463B697F
:10726000934202D301237B6101E000237B617B69B0
:1072700018461837BD4680BD80B58AB002AF786029
:1072800039607B68BB61EFF311824FF0200383F319
:107290001188BFF36F8FBFF34F8F3A61FB603B697B
:1072A0007B61BB691B69002B10D0BB6918693B6807
:1072B000019300230093002300220021FBF7DEF856
:1072C000BB6900221A610123FB6101E00023FB611D
:1072D0007B69BB60BB6883F31188FB691846203764
:1072E000BD4680BD80B58AB002AF786039607B68EA
:1072F000BB61EFF311824FF0200383F31188BFF3DA
:107300006F8FBFF34F8F3A61FB603B697B61BB6955
:107310005B69002B10D0BB6958693B68019300235F
:107320000093002300220021FBF7A8F8BB6900228C
:107330005A610123FB6101E00023FB617B69BB60B3
:10734000BB6883F31188FB6918462037BD4680BDB2
:1073500080B586B000AFF860B9607A603B60FB68CA
:107360009A683B68D31A7A68934228BF13467B61B8
:10737000FB689A693B6813447A69B968184628F033
:10738000DBFD7A687B699A420AD9FB689869BA681A
:107390007B69D1187A687B69D31A1A4628F0CCFD2C
:1073A0003A687B6813443B60FB689B683A689A4282
:1073B00004D3FB689B683A68D31A3B603B68184665
:1073C0001837BD4680BD80B586B000AFF860B960A3
:1073D0007A603B60FB689A683B68D31A7A6893428C
:1073E00028BF13467B61FB689A693B6813447A693E
:1073F0001946B86828F0A0FD7A687B699A420AD9D4
:10740000BA687B69D018FB6899697A687B69D31A76
:107410001A4628F091FD3A687B6813443B60FB688C
:107420009B683A689A4204D3FB689B683A68D31A0F
:107430003B603B6818461837BD4680BD80B485B0B8
:1074400000AF78607B689A687B685B681344FB6078
:107450007B681B68FA68D31AFB607B689B68FA68D4
:107460009A4204D37B689B68FA68D31AFB60FB6876
:1074700018461437BD465DF8047B704780B584B06C
:1074800000AFF860B9607A603B6020220021F868A4
:1074900029F09CFBFB68BA689A61FB687A689A607D
:1074A000FB683A68DA60FB683A7E1A7700BF1037EB
:1074B000BD4680BD80B584B002AF00237B6000F084
:1074C00035FB0A4B1B68002B0BD0094B01930323A0
:1074D000009300234FF4807206490748F8F796FF9F
:1074E00078607B6818460837BD4680BDC8FC002020
:1074F000CCFC0020681A0301B977000180B588B080
:1075000002AFF860B9607A603B60282003F030FE7B
:1075100078617B69002B0DD07B69002283F82420E1
:107520007B6901933B6A00933B687A68B968F868A5
:1075300000F005F87B6918461837BD4680BD80B558
:1075400084B000AFF860B9607A603B6000F0EEFA9A
:10755000FB69FA681A60FB69BA689A61FB693A6864
:10756000DA61FB69BA691A62FB69043318460CF0E8
:10757000B5FB7B68002B08D0FB6993F8243043F0FF
:107580000403DAB2FB6983F8242000BF1037BD463C
:1075900080BD80B588B000AFF860B9607A603B60AC
:1075A0000023FB61194B1B68002B2AD0BB683B6191
:1075B0007B687B61FB68BB61BB68052B18DCFAF755
:1075C0009FFB0346022B09D1104B186807F11001ED
:1075D0000023BA6AFBF758FBF86112E00B4B1868FE
:1075E00007F1100100230022FBF74EFBF86108E0D1
:1075F000064B186807F1100100233A68FBF70AFCF4
:10760000F861FB6918462037BD4680BDC8FC0020E4
:1076100080B400AF034B1B681846BD465DF8047B81
:10762000704700BFCCFC002080B485B000AF78600C
:107630007B68FB60FB689B6918461437BD465DF8A4
:10764000047B704780B584B000AF786039607B6898
:10765000FB6004F0B6FA3B68002B09D0FB6893F896
:10766000243043F00403DAB2FB6883F8242008E0F6
:10767000FB6893F8243023F00403DAB2FB6883F844
:10768000242004F0B7FA00BF1037BD4680BD80B596
:1076900084B000AF78607B68BB6004F092FABB688E
:1076A00093F8243003F00403002B02D10023FB6085
:1076B00001E00123FB6004F09DFAFB6818461037D7
:1076C000BD4680BD80B582B000AF78607868FFF7B6
:1076D000DEFF034618460837BD4680BD80B485B03E
:1076E00000AF78607B68FB60FB685B68BB60BB6871
:1076F00018461437BD465DF8047B704780B485B0EA
:1077000000AF78607B68FB60FB681B681846143725
:10771000BD465DF8047B704780B584B000AFF8606B
:10772000B9607A6008E0FB689B69BA681344BB6083
:10773000FB681B6AF8689847FB689A69BB68D118B0
:10774000BB687A68F86800F0DBF80346002BEAD1E2
:1077500000BF1037BD4680BD80B584B000AF7860F3
:107760003960144B1B68DB68DB68FB60FB68043323
:1077700018460CF01DFBFB6893F8243003F004035B
:10778000002B05D03A687968F868FFF7C5FF08E074
:10779000FB6893F8243023F00103DAB2FB6883F826
:1077A0002420FB681B6AF868984700BF1037BD4665
:1077B00080BD00BFC0FC002080B584B000AF786001
:1077C00007F10803184600F057F8F860BB6819463F
:1077D000F86800F003F800F0D5F8F1E780B584B060
:1077E00000AF78603960F9F745FB07F108031846E8
:1077F00000F066F8F860BB68002B30D13B68002BC6
:107800000AD17A68FB689A4206D8F9F77BFBF968D7
:107810007868FFF7A1FF24E03B68002B08D0134BEA
:107820001B681B68002B01D1012300E000233B6093
:107830000F4B18687A68FB68D31A3A681946FCF748
:1078400016F8F9F75FFB0346002B0AD1094B4FF0FE
:1078500080521A60BFF34F8FBFF36F8F01E0F9F7CB
:1078600051FB00BF1037BD4680BD00BFC4FC0020E7
:10787000C8FC002004ED00E080B485B000AF786063
:107880000E4B1B681B68002B01D1012200E0002277
:107890007B681A607B681B68002B05D1074B1B684F
:1078A000DB681B68FB6001E00023FB60FB68184697
:1078B0001437BD465DF8047B704700BFC0FC002054
:1078C00080B584B000AF7860F9F708FCF8600B4B26
:1078D0001B68FA689A4205D200F002F97B6801221F
:1078E0001A6002E07B6800221A60044AFB68136099
:1078F000FB6818461037BD4680BD00BFD0FC002095
:1079000080B586B000AFF860B9607A603B60002354
:107910007B61FB68BA685A60FB68FA681A61BA68EA
:107920007B689A4212D87A683B68D21AFB689B69D6
:107930009A4202D301237B611BE0104B1A68FB685B
:107940000433194610460CF0FAF912E07A683B68E5
:107950009A4206D2BA683B689A4202D301237B61FD
:1079600007E0074B1A68FB680433194610460CF011
:10797000E6F97B6918461837BD4680BDC4FC002077
:10798000C0FC002080B586B000AF97E07B68002B7C
:10799000C0F29380FB687B617B695B69002B04D03C
:1079A0007B69043318460CF003FA3B461846FFF790
:1079B00087FF38617B68013B082B7FD801A252F812
:1079C00023F000BFE9790001E9790001517A000153
:1079D000657A0001917A0001E9790001E9790001F5
:1079E000517A0001657A00017B6993F8243043F0F5
:1079F0000103DAB27B6983F82420BA687B699B694A
:107A0000D118BB683A697869FFF77AFF0346002B03
:107A100054D07B6993F8243003F00403002B09D081
:107A2000BA687B699B6913443A6919467869FFF71C
:107A300073FE08E07B6993F8243023F00103DAB287
:107A40007B6983F824207B691B6A7869984735E055
:107A50007B6993F8243023F00103DAB27B6983F861
:107A600024202BE07B6993F8243043F00103DAB241
:107A70007B6983F82420BA687B699A617B699A697B
:107A80003B69D1183B693A697869FFF739FF15E01E
:107A90007B6993F8243003F00203002B03D178694B
:107AA00003F004FC0AE07B6993F8243023F001031F
:107AB000DAB27B6983F8242000E000BF074B1B6823
:107AC000391D00221846FBF78CFA0346002B7FF481
:107AD0005DAF00BF1837BD4680BD00BFC8FC0020A9
:107AE00080B582B000AF09E00E4B1B68DB681B68F5
:107AF0007B604FF0FF317868FFF72EFE094B1B6863
:107B00001B68002BF0D1074B1B683B60064B1B68C2
:107B1000044A1360044A3B68136000BF0837BD463F
:107B200080BD00BFC0FC0020C4FC002080B500AFB9
:107B300004F047F80D4B1B68002B13D10C480CF0D8
:107B4000ADF80C480CF0AAF80B4B094A1A600B4B25
:107B5000084A1A6000220C210A20FAF7E3FF0246C5
:107B6000024B1A6004F046F800BF80BDC8FC00203C
:107B700098FC0020ACFC0020C0FC0020C4FC0020CD
:107B800080B584B000AF78607B68BB6004F019F802
:107B9000BB6893F8243003F00103002B02D10023CB
:107BA000FB6001E00123FB6004F024F8FB68184649
:107BB0001037BD4680BD80B584B000AF78607B686B
:107BC000FB6003F0FEFFFB68DB69BB6004F012F8AA
:107BD000BB6818461037BD4680BD80B584B000AF85
:107BE000786039607B68FB6003F0EBFFFB683A6804
:107BF000DA6103F0FFFF00BF1037BD4680BD00BF54
:107C0000044B5A6842F480025A605A6822F40062B7
:107C10005A60704700400141174B184A1A60184AD1
:107C20001A61184A5A61184A9A61184A5A624FF4FE
:107C300014029A62164ADA62164A174B1749136001
:107C40005160174991601749D1601749116117496F
:107C5000174A0A6043F6424048600020C860154851
:107C600048618A61144A154911605360144B154AE2
:107C70001A60154A5A607047006001412122008055
:107C80000A14260610320D121C28402006421E3E01
:107C90000600030E3060014154760C0E1A2700389E
:107CA000F7FF4C463832D44E324000304460014138
:107CB000544E4C46514B383260600141383256CEFA
:107CC000686001411A27544E4C463832C82300BF21
:107CD00000BF00BF00BF00BF00BF00BF00BF00BFAC
:107CE00000BF00BF00BF00BF00BF00BF00BF00BF9C
:107CF00000BF00BF00BF00BF00BF013B13F0FF0388
:107D0000E5D1704708B541F2440103200DF052FD62
:107D100043F6FF4152200DF04DFD47F2080154207B
:107D20000DF048FD48F24E515E200DF043FD47F244
:107D3000824160200DF03EFD4CF6170161200DF0F0
:107D400039FD4CF6170163200DF034FD41F2073187
:107D500065200DF02FFD49F2072167200DF02AFD67
:107D600047F2824168200DF025FD4BF21561692034
:107D70000DF020FD4BF215616B200DF01BFD41F263
:107D800005316D200DF016FD49F205216F200DF033
:107D900011FD48F2070177200DF00CFD49F61E6138
:107DA000E9200DF007FD4FF60171EF200DF002FD07
:107DB00040F68321F920BDE808400DF0FBBC704778
:107DC0002DE9F74302221146012333200DF020FD57
:107DD0000C221146012319200DF01AFD0022114634
:107DE000012315200DF014FD0822104600230A215E
:107DF0000DF00EFD07221146012309200DF008FDAC
:107E000001231A46194609200DF002FD00231A46E7
:107E1000194609200DF0FCFC0F2211460123002019
:107E200020F012FE00230D221146184620F00CFE11
:107E30000122114600234C2020F006FE03221146A9
:107E400000234C2020F000FE0422114601234C2088
:107E500020F0FAFD4FF4007300220C2126200DF0D3
:107E6000D7FC14200DF010FD04240025002201236E
:107E700011464C2020F0E8FD002211464C2020F055
:107E8000F6FD02460028F7D10F214E2020F0EFFD2D
:107E9000013C14F0FF040544E8D1284628F05AF8C4
:107EA0000022534B0EF006FA0022524B04460D46B8
:107EB00023F0DAFB0022002800F089804E4B204698
:107EC000294629F01DFE4D4B00220EF0F3F942A386
:107ED000D3E900230EF0EEF90022494B494C08F09B
:107EE0004BFAD4E9042306460F463DA1D1E900012F
:107EF00008F042FAD4E902238046894630463946E2
:107F000029F0FEFD02460B46404649460EF0D2F9E6
:107F1000D4E9002329F0F4FD33A3D3E9002308F0CA
:107F20002BFA1FF083FF002301901A460C21262014
:107F30000DF06EFC02221146002333200DF068FC88
:107F40000C221146002319200DF062FC00231A4672
:107F5000194615200DF05CFC0822104605230A2165
:107F60000DF056FC07221146002309200DF050FCAD
:107F700001221146002309200DF04AFC00231A4675
:107F8000194609200DF044FC00230F221146184623
:107F900020F05AFD0D2211460123002020F054FD4F
:107FA0000122114600234C2020F04EFD03221146F1
:107FB00000234C2020F048FD0422002311464C20D1
:107FC00020F042FD9DED010A03B0BDE8F0830B4BAC
:107FD0002046294679E700BF666666666666E63F24
:107FE0003D0AD7A3703DDA3FBC5983F755B9603FCE
:107FF0000000D03F0000E0400000F0400000503F93
:108000000000F83F8000002070B5A4B00446742240
:108010000E4607A8002128F0D9FD5F4B06930A936E
:108020005E4B0C935E4B5F4A5F486049604D0E9318
:10803000129303F14643CDE90420CDE9081003F67D
:108040000D730138CDE910500D90149359485A4BD7
:1080500020925A4A5A4D1C91CDE9150359495A4864
:108060001A93CDE92123594ACDE91D13CDE91850C2
:10807000516810686B4603C39068D168272C03C30E
:108080006BDC0A2C75DA14F10B0F74DC1934B4BFF5
:10809000002001204E4B1A7882427AD018700501D8
:1080A00024AB002E69D15C190B2214F8803C0F21FF
:1080B000E5200DF0ADFB14F87F3C0B220F21E720EB
:1080C0000DF0A6FB24AB1D44072215F87E3C0821C9
:1080D000FC200DF09DFB15F87D3C04220521E120DC
:1080E0000DF096FB15F87C3C06220721E1200DF0EF
:1080F0008FFB15F87B3C02220321E5200DF088FB65
:1081000015F87A3C00220321E7200DF081FB15F8D9
:10811000793C04220721E7200DF07AFB15F8783C22
:1081200001220321E2200DF073FB15F8773C0322B6
:1081300004210A200DF06CFB15F8763C0E220F216D
:1081400051200DF065FB15F8753C08220E215220D8
:1081500024B0BDE870400DF05BBB4F2C04DC3B2C21
:10816000CCBF0520042095E7632CCCBF0720062058
:1081700090E703208EE702208CE703EB40040B22FC
:1081800014F8903C0F21E5200DF042FB14F88F3CD1
:1081900093E724B070BD00BF0603033C1212020235
:1081A0000502023C141403030301010A1313030321
:1081B000111102020201030B050202460301070E20
:1081C000131203030301060D0301050CF80D03014F
:1081D000F304012047F6FF73984207D000F307032A
:1081E0009BB2002207215A200DF012BB7047704746
:1081F000094A41F62863D358084A12689B1A084A6C
:1082000023F07043934205D8064B1878003018BF0E
:10821000012070470020704700200141A00000208D
:10822000FEFFFF077800002010B5FFF7C9FDBDEE87
:10823000C00A10EE103A1CB22046FFF7CBFF094BE4
:108240001978204601F00101FFF7DEFE064A41F6EB
:108250002863D358054A03F5403323F07043136075
:1082600010BD00BF9800002000200141A0000020A8
:1082700037B5204A1178002363F3000111701E4ABC
:108280008DF807301370044628B1FFF73BFDFFF768
:10829000B7FCFFF7C1FC22460DF10701072001F0F2
:1082A000F1FE1CB3154D28460BF092FAD5E90001FA
:1082B0000022002324F043F9114BB0FA80F040096A
:1082C0001870104B4FF440321A604FF088430E4A3A
:1082D0001A650E4B40F27142012C9A600CBFFF22CE
:1082E0007F229A6113221A604022DA600BF086FA2C
:1082F00003B030BD980000207000002080000020F6
:1083000078000020A00000204C0040E00010014157
:1083100042F2780127200DF04DBA002112200DF015
:1083200049BA00BFB0B582B000AF0023FB7129E0AD
:10833000184B1B68FA7953F82230002B1FD1154BCC
:108340001C68FD79202005F04AFB034644F82530DF
:10835000104B1B68FA7953F82230002B09D00D4BD3
:108360001B68FA7953F8223020220021184628F0A1
:108370002DFC084B1B68FA7953F8223006E0FB7994
:108380000133FB71FB79072BD2D90023184608373C
:10839000BD46B0BD0CFF002080B485B000AF0346E1
:1083A000FB800023FB7320E0154B1B68FA7B53F81E
:1083B0002230002B16D0124B1B68FA7B53F8223068
:1083C000DB78012B0ED10E4B1B68FA7B53F8223061
:1083D0001B88FA889A4205D1094B1B68FA7B53F82F
:1083E000223006E0FB7B0133FB73FB7B072BDBD9E1
:1083F000002318461437BD465DF8047B704700BF64
:108400000CFF002080B584B000AF78607B68002B43
:108410001BD00023FB7314E00E4B1B68FA7B53F850
:1084200022307A689A4209D1786805F0E4FA094B5B
:108430001B68FA7B002143F8221007E0FB7B013325
:10844000FB73FB7B072BE7D900E000BF1037BD466D
:1084500080BD00BF0CFF002080B582B000AF164B7E
:108460001B68002B0BD12C2005F0B9FA0246124BE9
:108470001A60114B1B68002B12D1002318E0002357
:10848000FB710AE00C4B1B68FA7953F8223018464E
:10849000FFF7B8FFFB790133FB71FB79072BF1D9AB
:1084A000054B1B682C220021184628F08FFB012366
:1084B00018460837BD4680BD0CFF002080B59EB031
:1084C00000AF78607B681B78012B40F0B6807B683A
:1084D0005B683B673B6F1B78002B6FD13B6F9B78D2
:1084E000002B40F0AC80FFF71DFFF866FB6E002B01
:1084F00000F0A5803B6F9A88FB6E1A803B6F9A79DB
:10850000FB6E9A70FB6E3A6F043307321168196084
:108510009188927999809A71FB6E0122DA70FB6ED4
:108520000433184602F027FD03461A46FB6E9A777D
:10853000FB6E9B7F082B34D007F10C034C220021EB
:10854000184628F043FBFB6E9B7F07F10C02114697
:10855000184602F03FFC0346002B22D197F8543016
:10856000C3F30003DAB297F8603062F3410387F88F
:10857000603097F85430C3F34003DAB297F86030B4
:1085800062F3000387F86030FB6E188897F8543068
:10859000C3F38503DBB2194607F160031A4623F0E3
:1085A000D4FE3B6F9B88A7F86630012387F86430C0
:1085B00007F16403184606F0E9FD40E03B6F1B78C5
:1085C000012B3CD1002387F858303B6F5B88A7F81C
:1085D0005A303B6F5B881846FFF7DEFEF866FB6E8D
:1085E000002B07D0FB6E9B7F87F85C30F86EFFF79F
:1085F00009FF02E0082387F85C30002387F8773012
:1086000014E097F87730104A52F82330002B08D046
:1086100097F877300C4A52F8233007F15802104689
:10862000984797F87730013387F87730074B1B78F6
:1086300097F877209A42E4D301E000BF00E000BF42
:1086400000BF7837BD4680BD100000200C00002020
:1086500080B5A4B000AF03463960FB713B68002BC6
:1086600002D0FB79002B12D10021002022F0A4F9C6
:108670000346A7F88C30B7F88C30002B04D1344B6C
:108680001B68002283F82020B7F88C305CE0FB796F
:10869000082B01D9032357E0002387F88F3033E0FC
:1086A00097F88F303A6813441B7807F10802114697
:1086B000184602F08FFB0346A7F88C30B7F88C30D1
:1086C000002B02D0B7F88C303EE03B7A002B04D070
:1086D0003B7A012B01D0032336E097F88F20134615
:1086E000DB009B1A07F1900213443C3B1A4607F14A
:1086F00008031868106099889B799180937197F8A6
:108700008F30013387F88F3097F88F20FB799A42AA
:10871000C6D307F15402FB791146184622F04CF9F2
:108720000346A7F88C300A4B1B68213397F88F203B
:108730003968184627F000FC054B1B6897F88F2016
:1087400083F82020B7F88C3018469037BD4680BD9E
:108750000CFF002080B596B000AF78603960002330
:1087600087F8573026E01D4B1A6897F857301344A6
:1087700093F8213007F108021146184602F02AFB4F
:108780000346002B01D0012323E097F8572013461E
:10879000DB009B1A3A6813441A4607F1080318686D
:1087A000106099889B799180937197F857300133C5
:1087B00087F85730094B1B6893F8203097F85720FB
:1087C0009A42D0D3054B1B6893F820207B681A701F
:1087D000002318465837BD4680BD00BF0CFF00205F
:1087E000B0B5A0B000AF0346B9607A60FB73002358
:1087F000A7F87E30BB68002B05D0FB7B002B02D096
:108800007B68002B09D10021002022F0F1F80346FB
:10881000A7F87E30B7F87E30DAE0FB7B082B01D971
:108820000323D5E0FA7B13469B001344DB00184674
:1088300005F0D5F8B867BB6F002B01D10223C7E064
:1088400007F1600207F177031146184625F03EFA5A
:10885000002387F87D30A2E007F114034C220021A9
:10886000184628F0B3F997F87D30BA6813441B789E
:1088700007F114021146184602F0ACFA0346A7F8B5
:108880007E30B7F87E30002B40F090803B7D002B8F
:1088900002D03B7D012B06D197F87D307A681344D6
:1088A0001B78012B04D90323A7F87E3000BF7EE09C
:1088B00097F83230002B21D107F114031E33013316
:1088C00007F1140202F11E000F22194627F026FBC1
:1088D0000346002B12D197F87D2013469B001344CA
:1088E000DB001A46BB6F134417331D4607F16404BF
:1088F0000FCC28606960AA60EB6014E097F87D20D7
:1089000013469B001344DB001A46BB6F1344173316
:108910001A4607F132031C6858689968DB681460CE
:1089200050609160D36097F87D2013469B001344FC
:10893000DB001A46BB6F134407331A4607F11B03CB
:108940001C6858689968DB68146050609160D36057
:1089500097F87D2013469B001344DB001A46BB6F3B
:1089600013441A4607F114031868106099889B791C
:108970009180937197F87D307A68D11897F87D20AF
:1089800013469B001344DB001A46BB6F13440A785E
:1089900083F8272097F87D30013387F87D3097F8EA
:1089A0007D20FB7B9A42FFF457AF00E000BFB7F891
:1089B0007E30002B07D1FB7BB96F184622F018F8E8
:1089C0000346A7F87E30B86F05F015F8B7F87E308B
:1089D00018468037BD46B0BD80B485B000AF0346B1
:1089E0003960FB710123BB810023FB731DE0144B35
:1089F0001B68FA7B53F82230002B13D0104B1B68F6
:108A0000FA7B53F822309B7FFA799A420AD10C4BB9
:108A10001B68FA7B53F822301A883B681A800023BF
:108A2000BB8105E0FB7B0133FB73FB7B072BDED9AE
:108A3000BB8918461437BD465DF8047B704700BFFC
:108A40000CFF002080B584B000AF03460A46FB80CF
:108A500013467B7102233B72FB887B817B797B739E
:108A600007F10803184606F091FB00BF1037BD461A
:108A700080BD80B584B000AF0346FB800B467B71A0
:108A800013463B7103233B72FB887B817B797B73AD
:108A90003B79BB7307F10803184606F077FB00BF6C
:108AA0001037BD4680BD90B585B000AF044608467E
:108AB00011461A462346FB8003467B710B463B71E9
:108AC0001346FB7004233B72FB887B817B797B73AD
:108AD0003B79BB73FB78FB7307F10803184606F07C
:108AE00055FB00BF1437BD4690BD90B5A1B000AF97
:108AF00078607B681B78062B00F2A78101A252F8F0
:108B000023F000BF178C0001218B00014B8E000168
:108B10004B8E00014B8E0001878C0001C78B00013A
:108B20009D4B1B78002B00F092817B689B88184638
:108B3000FFF732FCB867BB6F002B00F08A81BB6F78
:108B40009B78002B40F08381BB6F9B7F07F108026D
:108B50001146184602F03EF90346002B1FD1BB6FA9
:108B6000188807F1080303F1380407F1080303F13B
:108B7000360207F1080303F12E0123461FF0A4FA81
:108B80000346A7F87630B7F87630002B40F05F81C7
:108B9000BB6F1B8801211846FFF754FF57E1BB6FDD
:108BA0001B88184622F08EFF0346A7F87630B7F8E8
:108BB0007630002B40F04B81BB6F1B88002118469C
:108BC000FFF740FF43E1744B1B78002B00F043811B
:108BD0007B689B881846FFF7DFFB38673B6F002BED
:108BE00000F03B813B6F9B78012B40F034817B6828
:108BF0009B88184622F080FF0346A7F86E30B7F82E
:108C00006E30002B40F027817B689B88002118463E
:108C1000FFF718FF1FE17B689B79002B29D17B6848
:108C20009B881846FFF7B8FBB866BB6E002B00F0B8
:108C300016817B6898887B681B7A1A460021FFF7AB
:108C400018FFBB6E0122DA72BB6E03F10C007B6869
:108C500009331022194627F06FF9BB6E9B78002B61
:108C600040F0FF80BB6E1B8801211846FFF7EAFE2B
:108C7000F7E07B6898887B689A797B68DB790021CC
:108C8000FFF711FFEDE07B689B881846FFF784FB38
:108C900078667B6E002B00F0E6804C2004F09FFE8F
:108CA00038663B6E002B00F0E0807B680833FB6584
:108CB0003B6EFA6D703292E803001860043319803D
:108CC00002330A0C1A703B6E184602F054F9034640
:108CD00087F87F3097F87F30082B24D102F02AF9EB
:108CE000034687F87F3097F87F30082B1BD1052388
:108CF00087F854307B6E1B88A7F85630082387F816
:108D0000593007F15403184606F040FA02F012F900
:108D1000034687F87F3097F87F30082B03D1386EF1
:108D200004F069FEA2E07B6E97F87F209A777B6E55
:108D30009B78002B32D1FB6D9B7E03F00103DBB2ED
:108D4000002B07D03B6E3833F96D1022184627F000
:108D5000F3F818E03B6E03F13800FB6D443310224A
:108D6000194627F0E9F83B6E03F12E00FB6D5633F0
:108D70000822194627F0E0F83B6E3633FA6D54327C
:108D8000128892B21A803B6ED81DFB6D60331022A0
:108D9000194627F0D1F817E051F600203B6E383322
:108DA000F96D1022184627F0C7F87B6E0C33F96D69
:108DB0001022184627F0C0F83B6ED81DFB6D6033BB
:108DC0001022194627F0B8F8FB6D9B7EC3F385038C
:108DD000D9B23A6E92F8483061F3870382F848308E
:108DE000FB6D9B7EC3F34003D9B23A6E92F84830D4
:108DF00061F3410382F84830FB6D9B7EC3F30003AF
:108E0000D9B23A6E92F8483061F3000382F84830E4
:108E10003B6E03F11E00FB6D1C331022194627F038
:108E20008BF83B6EFA6D17332C32106818609188FE
:108E3000927999809A7197F87F30396E184602F0CE
:108E400033F8386E04F0D7FD10E000BF0EE000BF2D
:108E50000CE000BF0AE000BF08E000BF06E000BF72
:108E600004E000BF02E000BF00E000BF8437BD4661
:108E700090BD80B598B000AF78607B681B78032BFD
:108E800005D17B685B681846FFF72FFE78E07B68AA
:108E90001B78012B74D17B685B68FB65FB6D1B78CD
:108EA000052B54D1FB6D5B881846FFF775FAB86542
:108EB000BB6D002B63D0BB6D1B8801211846FFF7EB
:108EC000C1FDBB6DDB7A83F00103DBB2002B2BD03D
:108ED000BB6D9B7F07F10C021146184601F07AFF2B
:108EE0000346002B13D1BB6D1A8807F10C033833EE
:108EF0001946104621F00CFD0346002B40D0FB6DB7
:108F00005888002300220121FFF7CDFD38E0BB6D1A
:108F10001B88184622F020FDFB6D58880023002294
:108F20000121FFF7C0FD2BE0BB6D1A88BB6D0C3330
:108F30001946104621F0ECFC0346002B20D0FB6DB7
:108F40005888002300220121FFF7ADFD18E0FB6DDA
:108F50001B78032B14D1FB6D1B79002B07D1FB6D04
:108F60005B88002201211846FFF783FD08E0FB6DB6
:108F70005888002300220121FFF795FD00E000BF83
:108F80006037BD4680BD80B483B000AF0346FB713F
:108F9000044AFB791370002318460C37BD465DF870
:108FA000047B704751F6002090B599B000AF03469E
:108FB0000A46FB8013467B71FB881846FFF7ECF9E5
:108FC000B865BB6D002B01D1032349E0BB6D9B78D5
:108FD000002B40D17B7983F00103DBB2002B27D03B
:108FE000BB6D9B7F07F10C021146184601F0F2FEA3
:108FF0000346002B1CD107F10C0303F1380407F1E1
:109000000C0303F1360207F10C0303F12E01F8887B
:1090100023461FF059F80346A7F85E30B7F85E30D4
:10902000002B15D1FB8801211846FFF70BFD0FE03F
:10903000FB88184622F046FD0346A7F85E30B7F8D5
:109040005E30002B04D1FB8800211846FFF7FAFCA4
:10905000B7F85E3004E0FB88184622F033FD034683
:1090600018466437BD4690BD80B400AF034B012263
:109070001A7000BFBD465DF8047B704751F60020B2
:1090800080B586B000AF0346FB7107F10E02FB7995
:1090900011461846FFF7A0FC0346002B08D1062313
:1090A0003B74FB897B8207F11003184606F06EF8CB
:1090B00000BF1837BD4680BD80B588B000AFB9602D
:1090C00011461A460346FB810B46BB811346FB80C3
:1090D000FB893B82BB687B61BB893B83FB887B83CD
:1090E0000E4B1B68FB6110E0FB691B6807F1100267
:1090F00010469847034683F00103DBB2002B01D0F2
:10910000002306E0FB695B68FB61FB69002BEBD188
:10911000012318462037BD4680BD00BFCCFD00208E
:109120001FB504466946008800F0ACF968B3BDF885
:109130000230ABB1019B9BB1029BD3B9A2882088BE
:10914000CAB1A368BBB16188FBF780FFD0B14FF013
:10915000200383F31188BFF36F8FBFF34F8FFEE7B8
:109160004FF0200383F31188BFF36F8FBFF34F8F4E
:10917000FEE79847E2E7019BBDF802200021FBF7DC
:1091800065FFE3E7208800F0C4F904B010BD7FB5A7
:109190006946054600F076F910B9002004B070BDAC
:1091A000BDF80230A3B1019B93B1029BCBB9284615
:1091B000FBF7D6FF019ABDF8021006462846FBF7DA
:1091C000EDFF022804460ED1B4FA84F04009E5E729
:1091D0004FF0200383F31188BFF36F8FBFF34F8FDE
:1091E000FEE79847E3E740B14FF0200383F311888F
:1091F000BFF36F8FBFF34F8FFEE73346BDF80220FA
:1092000001992846FFF758FF0028DDD1C5E71FB5B3
:1092100004466946008800F035F910B9002004B012
:1092200010BDBDF8023093B1019B83B1029B83B99D
:109230006188A288BDF8023088189842EEDCA368E5
:109240002088FBF763FFB0FA80F04009E7E700F001
:1092500029F89847ECE773B5104ADFF844C0054693
:109260000E4600236C46BCF80210994201D800203B
:109270000DE092E8030084E80300D1888D4208D114
:10928000ADF8065094E8030086E80300012002B020
:1092900070BD013308329BB2E5E700BFEC0300016B
:1092A000D0FD00204FF0200383F31188BFF36F8FB0
:1092B000BFF34F8FFEE72DE97F431B4D80462868A3
:1092C000FAF730F9002481462646A14509D836BB75
:1092D00032464146144808F039FA01281FD0FFF7FA
:1092E000E1FF002201A9284608F07AFA01280DD1F1
:1092F000019AD8F8003001A99A4208BF01262846F1
:109300000022013408F022FAE4B2DEE74FF0200335
:1093100083F31188BFF36F8FBFF34F8FFEE70120F8
:1093200004B0BDE8708300BF14FF002010B50446F0
:1093300088B1082001F01CFF40B94FF0200383F3EF
:109340001188BFF36F8FBFF34F8FFEE7024B0460AE
:109350001A694260186110BDD0FD002010B50446A6
:1093600088B1082001F004FF40B94FF0200383F3D7
:109370001188BFF36F8FBFF34F8FFEE7024B04607E
:109380001A684260186010BDCCFD002010B504467C
:10939000082001F0EDFE28B1034B04805A694260B9
:1093A0005861012010BD00BFD0FD002000F44063D3
:1093B000B3F5406F13B514D16946FFF74CFF70B990
:1093C000002002B010BD009B33F81400FCF720F819
:1093D0000134E4B2BDF80430A342F4D8F0E700242D
:1093E000F8E7FCF715F8EBE7034B00229880181D0F
:1093F000DA801A81DA605EE7D0FD0020054B5B69F8
:109400000BB9184670471A88824201D05B68F7E7AB
:1094100001207047D0FD00207FB5184B184D5E69C4
:1094200004464EB90120FCF74BF831462868F9F79D
:1094300005FB002004B070BDFCF742F824B1002108
:109440002868F9F7FBFAF4E72868FAF76BF806469C
:10945000A642EED9002201A9284608F0C1F9012848
:1094600009D1BDF80400FFF7C9FF20B1002201A90E
:10947000284608F06BF90134E4B2E9E7D0FD00209A
:1094800014FF00202DE97041DFF848C0DFF8488064
:1094900085B086460E4600256C46BCF80030AB42CF
:1094A00001D8002010E008EB05130FCB84E80F0073
:1094B000BDF8003073450AD1234603CB306071609C
:1094C00003CBB060F160012005B0BDE870810135CB
:1094D000E3E700BFD0FD0020EC0200011FB5044609
:1094E000008800F44063B3F5406F02D1002004B05F
:1094F00010BD6946FFF7C6FF0028F7D0A288638831
:109500001344BDF802209342F0DC2046FFF7D3FE5F
:10951000EDE738B5044B1C69054604B938BD23682E
:10952000284698476468F8E7D0FD002030B585B03C
:10953000044669460088FFF7A5FF002845D0BDF81E
:109540000230D3B1019BC3B1029BFBB92088FBF76A
:10955000F7FF2588E0B9019ABDF802102846FBF70D
:109560001DFE10F0FD0F2DD04FF0200383F3118866
:10957000BFF36F8FBFF34F8FFEE74FF0200383F3EE
:109580001188BFF36F8FBFF34F8FFEE79847DDE77A
:10959000A2887AB1A3686BB161882846FBF756FDB3
:1095A00080B14FF0200383F31188BFF36F8FBFF3B7
:1095B0004F8FFEE7019BBDF8022000212846FBF7F4
:1095C00045FDEDE72088FFF7A4FF05B030BD08B5E5
:1095D000024B1868F9F7A6FFC0B208BD14FF0020BF
:1095E00030B5184D89B0002202A9284608F0F8F8D5
:1095F000012801D009B030BDBDF8080000F4406377
:10960000B3F5406F19D16946FFF725FE0028EAD06F
:109610000024ADF81640ADF818400794BDF80430AA
:10962000A342E0D9009B05A833F81430ADF81430FC
:109630000134FFF77BFFE4B2F0E702A8FFF776FF03
:10964000D1E700BF14FF002030B50446008800F4C5
:109650004063B3F5406F85B003D10025284605B0BF
:1096600030BD6946FFF70EFF05460028F5D0A288F9
:1096700063881344BDF802209342EEDC2046FFF7D6
:1096800055FFEBE700F44063B3F5406F37B518D1F1
:109690006946FFF7E0FD054688B900250CE0009B10
:1096A00033F81400FBF74CFF0028F6D00134E4B285
:1096B000BDF80430A342F2D8284603B030BD0024E0
:1096C000F6E7FBF73DFF0546F6E700F44063B3F528
:1096D000406F13B516D16946FFF7BDFD80B9012073
:1096E00002B010BD009B33F81400FFF750FD0028B6
:1096F000F6D00134E4B2BDF80430A342F2D8EEE76C
:109700000024F8E7FFF743FDEAE7038803F440632A
:10971000B3F5406F00D07AE50020704780B582B085
:1097200000AF786004220021786827F04FFA00BF6C
:109730000837BD4680BD80B483B000AF0023FB7105
:1097400017E0114B1A68FB799B0013449B78002BA0
:109750000CD10D4B1A68FB799B00134401229A70BF
:10976000094B1A68FB799B00134406E0FB7901332F
:10977000FB71FB79072BE4D9002318460C37BD4653
:109780005DF8047B704700BF10FF002080B485B0F7
:1097900000AF0346FB800023FB7318E0114B1A68EF
:1097A000FB7B9B0013449B78012B0DD10D4B1B6859
:1097B000FA7B33F82230FA889A4205D1094B1A68AD
:1097C000FB7B9B00134406E0FB7B0133FB73FB7BBD
:1097D000072BE3D9002318461437BD465DF8047BF8
:1097E000704700BF10FF002080B582B000AF164B5D
:1097F0001B68002B0BD12C2004F0F1F80246124B11
:109800001A60114B1B68002B01D1002318E00E4B8E
:109810001B682C220021184627F0D8F90023FB7181
:109820000AE0094B1A68FB799B0013441846FFF7BE
:1098300075FFFB790133FB71FB79072BF1D901230C
:1098400018460837BD4680BD10FF002080B584B0A3
:1098500000AF78607B689B78002B09D1FFF76BFF26
:10986000F860FB68002B03D07B689A88FB681A803D
:1098700000BF1037BD4680BD80B584B000AF7860B2
:109880007B685B881846FFF781FFF860FB68002B58
:1098900002D0F868FFF742FF00BF1037BD4680BD19
:1098A00080B586B000AF78607B685B881846FFF7AC
:1098B0006DFF78617B69002B17D07B69DB78002B0B
:1098C00013D07B681B79002B02D107233B7301E087
:1098D00008233B737B685B88FB8107F10C03184608
:1098E00005F054FC7B690022DA7000BF1837BD46D2
:1098F00080BD90B484B000AF0446084611461A46B5
:109900002346FB800346BB800B467B8013463B808F
:10991000FB88052B19D9FB88B3F5486F15D8BB8890
:10992000052B12D9BB88B3F5486F0ED87B88B3F5E9
:10993000FA7F0AD23B88092B07D93B88B3F5486FD9
:1099400003D8FA88BB889A4201D900232AE07B8891
:1099500001339BB2BA8812FB03F39BB25B00FB811D
:109960003B88DA00FB899A4201D200231AE0104BAF
:109970001B685B8CFA889A4211D80D4B1B681B8CB4
:10998000BA889A420BD30A4B1B68DB8C7A889A42BE
:1099900005D8074B1B689B8C7A889A4201D200231A
:1099A00000E0012318461037BD4690BC704700BF49
:1099B00010FF002080B586B000AF7860194B1B689F
:1099C00093F82A30002B29D07B6898887B68D98847
:1099D0007B681A897B685B89FFF78BFF0346FB7501
:1099E000FB7D002B14D07B689B88BB817B68DB8868
:1099F000FB817B681B893B827B685B897B827B6800
:109A00005B8807F10C021146184620F0A1FE05E024
:109A10007B685B883B21184620F0B6FE00BF1837F4
:109A2000BD4680BD10FF002080B582B000AF7860D9
:109A30007B681B78062B21D801A252F823F000BFC7
:109A40005D9A0001659A00016D9A00017D9A0001FE
:109A50007D9A00017D9A0001759A00017868FFF7F0
:109A6000F5FE0CE07868FFF707FF08E07868FFF77D
:109A700017FF04E07868FFF79DFF00E000BF00BF1C
:109A80000837BD4680BD80B586B000AF78607B6882
:109A90005B881846FFF77AFE78617B69002B35D02A
:109AA0001C4B1B6893F82A30002B2FD07B689888BA
:109AB0007B68D9887B681A897B685B89FFF719FF07
:109AC0000346FB74FB7C002B1AD07B685B8800216B
:109AD000184621F035F87B689B883B817B68DB88E2
:109AE0007B817B681B89BB817B685B89FB817B6891
:109AF0005B8807F108021146184620F0F1FD05E0E9
:109B00007B685B880121184621F01AF800BF1837DE
:109B1000BD4680BD10FF002080B586B000AF7860E4
:109B20007B685B881846FFF731FE78617B69002B04
:109B300014D07B689B88002B10D07B69DB78002BCE
:109B40000CD008233B737B685B88FB8107F10C0317
:109B5000184605F01BFB7B690022DA7000BF18373E
:109B6000BD4680BD80B582B000AF78607B681B7851
:109B7000002B02D0012B04D007E07868FFF783FFA9
:109B800003E07868FFF7C8FF00BF00BF0837BD4695
:109B900080BD80B582B000AF78607B681B78012BF8
:109BA00002D0022B06D00BE07B685B681846FFF7FB
:109BB0003BFF05E07B685B681846FFF7D3FF00BFFB
:109BC00000BF0837BD4680BD80B483B000AF786069
:109BD0007B681B7A002B41D07B685A887B681B8886
:109BE0009A4213D37B68DA887B689B889A420DD3AC
:109BF0007B681B88052B09D97B685B88B3F5486FA8
:109C000004D87B68DB88B3F5FA7F06D3194B1B6851
:109C1000002283F82A20032326E0164B1B6801222A
:109C200083F82A20134B1B687A6812881A84114B18
:109C30001B687A6852885A840E4B1B687A6892882F
:109C40009A840C4B1B687A68D288DA84094B1B68AB
:109C50007A68127A83F82820002305E0054B1B68F8
:109C6000002283F82A20002318460C37BD465DF8F1
:109C7000047B704710FF002090B58BB002AF034605
:109C80003960FB80FB881846FFF780FDB861FB88D0
:109C90001846FEF781FB7861BB69002B35D07B69E4
:109CA000002B32D03B681B88BB813B685B88FB8103
:109CB0003B689B883B823B68DB887B8207F10C0218
:109CC000FB881146184620F00BFD0346FB83FB8BF7
:109CD000B3F58D7F12D17B699B78012B0ED13B6848
:109CE00019883B685A883B689C883B68DB88F88801
:109CF000009323461DF030FA0346FB83FB8B002BB9
:109D000006D1BB690122DA7002E00323FB8300E085
:109D100000BFFB8B18462437BD4690BD704770B519
:109D2000E9B101444FF6FF7348F2084589B210F8D3
:109D3000014B082284EA030616F0010F4FEA530391
:109D400002F1FF3214BF6B409BB212F0FF024FEAE8
:109D50005404EFD182B28A42E9D1DB4399B208467A
:109D600070BD10B51378ED2B144611D15378032B29
:109D70000ED1937853B1012B0AD1FFF7D0FF22798E
:109D8000E37803EB02231B1A18BF0123184610BD0A
:109D90000123FBE7F0B5034640780622B0FBF2F161
:109DA00002FB110212F0FF001FD1114E114FDFF81C
:109DB00048C0CDB20146A94200D1F0BDDC789A7806
:109DC00093F804E002EB042202F1824404F590349B
:109DD000013184F800E05C7994559C79D455DC79A4
:109DE00002F80C40C9B20633E5E70120E5E700BF01
:109DF0000120014102200141032001412DE9F043EE
:109E000043780622B3FBF2F602FB163212F0FF0291
:109E100037D102391C4FDFF874C0DFF874E0F6B2B6
:109E200003461546C9B2B54202D11046BDE8F083DB
:109E3000DC789878012900EB042080B212D800F178
:109E4000824404F5803893F8049088F8009004F177
:109E5000011493F8058084F800809C79C455DC795E
:109E600000F80C40A42808D1187900F01F00C4069F
:109E700048BF60F01F008EF800000135EDB20633D8
:109E8000D1E70122D1E700BF0200014103000141F7
:109E9000700000204078023818BF012070474378D6
:109EA000042B05D1034BD0F802201A6001221A714D
:109EB0000020704700FF0020F8B50F46044600263A
:109EC000A1F10805A54202D84FF0FF3406E023783F
:109ED000FF2B13D1230703D144F07F442046F8BD64
:109EE00024F003031C1DA742EED95A68013205D1A4
:109EF0005B69013302D114F00C0FEDD02378012BF4
:109F00000AD16378012B07D1A178621D0A44E01CB5
:109F1000FFF727FF0028E1D00EB1D3E70434A542B4
:109F2000D0D923680133CDD0234613F8012BEF2A73
:109F30000BD16378002BF1D1A378ED2BEED1E37830
:109F4000032BEBD107340126BCE71C46E7E72DE9DC
:109F5000F04785789DF8206004460F469046994664
:109F600003354FF0010A2378434508BF89F800A064
:109F70002378092B47D010D8072B2ED033D8022BAB
:109F800024D00020A74226D96378023DED1A2DB2D5
:109F90000233002D1C44E6DC1DE00D2B27D006D833
:109FA0000A2BEED131462046FFF728FF11E01A2B8D
:109FB00023D0552BE5D1A4F50003A3F5C043B3F599
:109FC000776FDED22046FFF76AFF02E02046FFF7F8
:109FD00061FF0128D6D1BDE8F087002ED1D0204600
:109FE00009F0B9FBF5E7204609F076FBF1E7002E12
:109FF000C7D0204609F096FBEBE7002EC1D02046E3
:10A0000009F0DCFBE5E7002EBBD02046FFF7C2FEDF
:10A01000DFE72DE9F7430F469046994630B3164BDC
:10A020001A7932B3186800F5776600250BE04346CD
:10A03000CDF800903A463146FFF789FF0546A078F3
:10A0400004F10A031844B0420CD23146FFF734FF42
:10A0500010F07F4F0446EAD0084B20F07F449C422A
:10A0600008BF0125284603B0BDE8F083044E03482D
:10A07000DBE78525F6E700BF00FF002000608000D9
:10A08000706F800013B5134614460A46014600203F
:10A09000FFF7BFFF054B1B7933B123460DF10702D4
:10A0A00000210120FFF7B5FF02B010BD00FF002026
:10A0B0002DE9F0478678089D9DF824A0894604463E
:10A0C000174698460336002123786278FF2FDBB2CB
:10A0D00008D1013BDBB2FD2B2ED828880232214665
:10A0E00040440AE0BB4227D1BAF1000FF5D0062F59
:10A0F0000CD1072A1CD1A11C404625F01DFF2B883E
:10A100009A1C637813442B80012115E00B2F01D199
:10A11000042AEFE70C2F01D1012AEBE7102F01D120
:10A12000182AE7E7152F01D1082AE3E7182FEFD007
:10A130002B8802331A442A806378023EF61A36B21C
:10A140000233002E1C4401DD4C45BDD3012914BF50
:10A1500080200020BDE8F0872DE9FF470746002456
:10A160001448154D154EADF80E4088464FF00109C4
:10A170002946FFF7A1FE10F07F4F824613D10DF163
:10A180000E030093CDF8049043463A462946FFF764
:10A190008FFF00289AF802000AF10A03184408BF4A
:10A1A0000124B042E4D9012C14BF8020002004B067
:10A1B000BDE8F08700608000706F80006F6F8000E6
:10A1C000014608B50620FFF7C7FFB0FA80F0400946
:10A1D00008BD014608B51520FFF7BEFFB0FA80F0B4
:10A1E000400908BD024B93F900300370012070470D
:10A1F0007000002013B5044601A90B20FFF7ACFF47
:10A2000028B9BDF804302380012002B010BD002021
:10A21000FBE713B5044601A90B20FFF79DFF28B902
:10A22000BDF806302380012002B010BD0020FBE7FE
:10A2300013B504460DF107010C20FFF78DFF28B977
:10A240009DF807302370012002B010BD0020FBE70D
:10A25000014B1879704700BF00FF0020014B1871B7
:10A26000704700BF00FF0020014B1868704700BF17
:10A2700000FF002080B582B000AF78607B681B09CA
:10A2800003F588032A3318027B6803F00F030122C9
:10A2900002FA03F319460CF0F5F800BF0837BD4683
:10A2A00080BD80B582B000AF78607B681B0903F584
:10A2B00088032A3318027B6803F00F03012202FA95
:10A2C00003F319460CF0ECF800BF0837BD4680BD1B
:10A2D00080B586B000AFB9607A601A460346FB814C
:10A2E00013467B73FB891B0A9BB2FB75FB89D9B2B2
:10A2F000F87D3B6ABA6802F097FF7B7B1A46796863
:10A30000386A02F0A9FF0346BB82BB8A1846183799
:10A31000BD4680BD80B582B000AF0346FB71FB79BE
:10A32000022B07D0032B09D0012B0BD11020FFF7F4
:10A33000B8FF08E01320FFF7B4FF04E01520FFF793
:10A34000B0FF00E000BF00BF0837BD4680BD80B54C
:10A3500082B000AF0346FB71FB79022B07D0032BC1
:10A3600009D0012B0BD11020FFF784FF08E0132048
:10A37000FFF780FF04E01520FFF77CFF00E000BF3F
:10A3800000BF0837BD4680BD80B586B002AF78609B
:10A390007B6801221A777B689A787B68DA707B6821
:10A3A000DB78013BDAB27B68DA707B681B891A467E
:10A3B0007B6810330093002379680220FFF788FF41
:10A3C0000346FB817B685B781846FFF7C0FF00BF40
:10A3D0001037BD4680BD80B584B000AF78607B6823
:10A3E0001B79002B12D07B685B79002B06D07B6831
:10A3F0005B79013BDAB27B685A7107E07B681B78B6
:10A40000184600F0F5F80346FB8102E07868FFF794
:10A41000BBFF1037BD4680BD80B582B000AF154B85
:10A420001B68144A23F029031360124B1B69114A5D
:10A4300023F0290313610F4B29225A626022002165
:10A440000D4826F0C3FB0023FB7108E0FB790A4AA4
:10A450005B011344FF221A70FB790133FB71FB7916
:10A46000022BF3D9054BFF221A7000BF0837BD46F7
:10A4700080BD00BF002B004400FB00200400002032
:10A4800080B586B002AF03463960FB713B681B7F25
:10A49000032B00F2A28001A252F823F0ADA4000128
:10A4A000A1A50001D9A40001D3A50001FB79012BCE
:10A4B00040F095803B681B79002B09D03B681A79E6
:10A4C0003B685A713B685B79013BDAB23B685A7171
:10A4D0003868FFF759FF82E0FB79022B40F081805A
:10A4E0003B68DB78002B1BD03B68DB78013BDAB2A2
:10A4F0003B68DA703B6801221A773B681B891A4671
:10A500003B6810330093002339680220FFF7E0FE18
:10A510000346BB813B685B781846FFF718FF60E095
:10A520003B6803221A773B68DB683A68D288114699
:10A530003A6812890A443968897801FB02F2934229
:10A5400002D80023FB8110E03B68DB689AB23B68CD
:10A55000D9883B681B890B4499B23B689B789BB2B6
:10A5600011FB03F39BB2D31AFB81FB89002B0BD0A9
:10A57000FA893B6810330093002339680220FFF703
:10A58000A7FE0346BB812FE03B68103300930023F6
:10A59000012239680220FFF79BFE0346BB8123E0BE
:10A5A000FB79022B1FD13B6802221A773B68DB88BC
:10A5B0001A463B6810330093002339680220FFF7E6
:10A5C00087FE0346BB813B685B781846FFF7A2FE17
:10A5D00009E03868FFF7FFFE06E000BF04E000BFB7
:10A5E00002E000BF00E000BF00BF1037BD4680BDE5
:10A5F00080B584B000AF0346FB710123FB81FB797A
:10A60000022B30D8FB795B01194A1344BB60BB684D
:10A610001B7F002B25D0BB685B781846FFF77AFEBE
:10A62000BB6800221A77BB681433184602F0A6FEF6
:10A630000346FB81BB68FF221A70BB6800225A7078
:10A64000BB6800229A70BB6800221A71BB680022A6
:10A65000DA80BB6800221A81BB680022DA60FB89BD
:10A6600002E0002300E0032318461037BD4680BDFA
:10A6700000FB002080B584B000AF78600023FB733E
:10A680007B68002B73D07B689B687A689288114640
:10A690007A68D2880A447968497801FB02F29342C9
:10A6A00001D2FF2364E00023FB731EE0FB7B324AF0
:10A6B0005B0113441C331B78002B13D0FB7B2E4A09
:10A6C0005B01134401331A787B681B789A4209D1E5
:10A6D000FB7B294A5B0113441B781846FFF788FF70
:10A6E0000346BB81FB7B0133FB73FB7B022BDDD974
:10A6F0000023FB730AE0FB7B1F4A5B0113441C33FE
:10A700001B78002B06D0FB7B0133FB73FB7B022BFA
:10A71000F1D900E000BFFB7B022B01D9FF2327E02A
:10A72000FB7B5B01144A1344BB60BB68FA7B1A7065
:10A730007B681A78BB685A707B685A78BB689A70D5
:10A740007B689A78BB681A717B689A88BB68DA80E4
:10A750007B689A88BB681A817B689A68BB68DA60F4
:10A76000B9680120FFF78CFEBB681B7800E0FF236F
:10A7700018461037BD4680BD00FB002080B584B070
:10A7800000AF0346FB71FA7913465B0013449B004C
:10A79000064A1344FB60F868FFF76CFF0346FB7240
:10A7A000FB7A18461037BD4680BD00BF00E60201A7
:10A7B00070B50378C4B004461F2B3AD8DFE813F015
:10A7C00020004B000E0239003900390039006E00BC
:10A7D00039004001390039006F016C02390039003D
:10A7E00039009C01E7019100150239003900390058
:10A7F00039003900390039001D0248023900C7010B
:10A80000C588284621F0FEFE0246A8B9B74B009342
:10A81000CDE9015004231021EE200FF095F800221D
:10A82000043401920094062305214FF4827022F033
:10A8300003FF012044B070BD21F040F8E388ADF87B
:10A840001230237A8DF8143004A801238DF81030CB
:10A850001CF05AFCE3E7C588284621F0D3FE0246E7
:10A8600080B90123CDE90153A04B009310210423AB
:10A87000EE200FF069F800220434019200940623C0
:10A880000821D2E703238DF8103004A82379ADF80E
:10A8900012508DF814301CF037FCECE7C5882846C0
:10A8A00021F0B0FE024680B90723CDE901538F4B5A
:10A8B000009310210423EE200FF046F80022043408
:10A8C0000192009404233021AFE703238DF8103068
:10A8D00004A82379ADF812508DF814301CF014FC44
:10A8E000ECE7037A824D012B60D1286800F5DA701D
:10A8F0000EF072FD2A681378002123F00103137013
:10A90000084622F0FFFD1EF0C1F82379002B40F02D
:10A910008480E388002861D12278CDE90132754B2B
:10A920000093024604231121EE200FF00DF8237945
:10A930008DF8123004F10A06E388ADF81430314680
:10A94000237A607A8DF8163023F0ABF9E389ADF8FD
:10A950001C30637D8DF8170003F0C003D4F80A00A3
:10A960000690402B5ED1234653F8102FCDF81E20C1
:10A970009B88ADF822302346002553F8160F099026
:10A980009B88ADF82830A38BADF82A3004A8D4F802
:10A990001E300B9304348DF810501CF0B5FB01955C
:10A9A000009420232A464FF49F713EE72A681378CB
:10A9B00023F0040313700221002022F0A3FD2B6872
:10A9C00003F5087203F5107352F8040B10B1C17847
:10A9D00001299AD09342F7D1002096E70380022301
:10A9E000C370237A8370A38B8381E38BC381238C11
:10A9F00003822B6893F821200271627D02F0C0026D
:10AA0000402A0ABF234653F8221F53F8101FC0F8EC
:10AA10000510421D9B88938089E7002887D020F08D
:10AA20004DFF84E72B6893F82120022A02D153F8C6
:10AA3000222F9BE70023CDF81E30ADF822309AE795
:10AA4000C588284621F0DEFD024688B90923CDE9F4
:10AA50000153264B009310210423EE200EF074FFC7
:10AA600000220434019200940A2340F23E31DCE6D5
:10AA70000023837402238DF81030E388ADF8123080
:10AA800023798DF814302389ADF81630A268A38994
:10AA9000069204A8ADF81C301CF036FBE0E7858870
:10AAA000284621F0AFFD024688B90C23CDE90153B9
:10AAB0000E4B009310210423EE200EF045FF0022E0
:10AAC0000434019200940A2340F23E61ADE606236D
:10AAD0008DF81030D4F80630059304A8D4F80A3065
:10AAE000ADF8125006931CF00FFBE8E7E04A0201B4
:10AAF000A4000020144B0201C588284621F082FDE5
:10AB000090B91123CDE90153674B0093024604230A
:10AB10001021EE200EF018FF002204340192009460
:10AB20000C2340F23E4180E62379002BF4D1237AB6
:10AB30009B0605D540F64802FB2100881BF06CFB04
:10AB4000172304A88DF810301CF0DEFAE4E785889E
:10AB5000284621F057FD024680B91F23CDE9015355
:10AB6000514B009310210423EE200EF0EDFE002245
:10AB70000434019200940223572156E60B2304A8C3
:10AB80008DF81030ADF812501CF0BEFAEFE7C58812
:10AB9000284621F037FD024688B91223CDE901533A
:10ABA000414B009310210423EE200EF0CDFE002235
:10ABB000043401920094062340F63E4135E60C230E
:10ABC0008DF8103023798DF8143004A82389ADF85E
:10ABD0001250ADF815301CF097FAE8E70022043463
:10ABE000019200940A230C211FE6002204340192F2
:10ABF0000094042341F23E4117E6C588284621F01F
:10AC000001FD024688B91C23CDE90153274B00936F
:10AC100011210423EE200EF097FE0022043401924D
:10AC200000940A2342F23E11FFE514238DF8103000
:10AC300023798DF81230A26894F90C30ADF81450D5
:10AC400004A8CDF816208DF81A301CF05DFAE4E760
:10AC50008588284621F0D6FC024688B91D23CDE917
:10AC60000153124B009311210423EE200EF06CFED1
:10AC70000022043401920094042342F23E01D4E500
:10AC800016238DF8103004A8E388ADF81250ADF803
:10AC900014301CF039FAEBE70022043401920094DE
:10ACA0000A2340F23E71C0E5E04A0201144B020162
:10ACB00080B5C6B000AF3B1D18603B46196000234D
:10ACC00087F8173113E097F81731C3F10F033A1DD6
:10ACD00012681A4497F81731127807F58C710B44F3
:10ACE00003F8242C97F81731013387F8173197F8B8
:10ACF00017310F2BE7D907F1F40207F10C031146C6
:10AD0000184606F018FE0346002B01D000235CE035
:10AD100007F582730D220021184625F057FF002306
:10AD200087F8173114E097F81731C3F105033A4655
:10AD300012681A4497F817310D33127807F58C71A1
:10AD40000B4403F8142C97F81731013387F81731A7
:10AD500097F81731022BE6D907F5827307F1F40251
:10AD600007F10C00102106F017FE0346002B01D05E
:10AD700000232AE0002387F8173113E097F81731F2
:10AD8000C3F102033A4612681A4497F81731127851
:10AD900007F58C710B4403F8142C97F81731013325
:10ADA00087F8173197F81731022BE7D907F1F40329
:10ADB0000D3307F582710322184625F0AFF80346DC
:10ADC000002B0CBF01230023DBB2184607F58C775C
:10ADD000BD4680BD80B582B000AF03463960FB71CF
:10ADE000FB79072B0DD8FB799BB203F500539BB27F
:10ADF0001846FEF747FC034683F00103DBB2002B45
:10AE000001D0032346E0FB799BB203F500539BB2CC
:10AE10001846FEF75AFC0346002B3AD0FB799BB24A
:10AE200003F5005308339BB21846FEF72BFC03468C
:10AE3000002B18D0FB799BB203F5005308339BB26B
:10AE40001846FEF742FC034683F00103DBB2002BF9
:10AE500001D001231EE03B68173317220F49184623
:10AE600025F06AF806E03B681733172200211846E0
:10AE700025F0ACFE3B6817220949184625F05CF81E
:10AE80003B682E331B220749184625F055F800234E
:10AE900000E0012318460837BD4680BD94FB002022
:10AEA00060FB002077FB002080B582B000AF034636
:10AEB0003960FB71FB79072B01D903232FE03B6835
:10AEC000173317221946184825F036F8FB799BB23C
:10AED00003F5005308339BB21846FEF785FA034684
:10AEE000002B1BD03B6817221946104825F024F888
:10AEF0003B682E331B2219460D4825F01DF8FB79BF
:10AF00009BB203F500539BB21846FEF76DFA034659
:10AF1000002B01D0002302E0012300E001231846AA
:10AF20000837BD4680BD00BF94FB002060FB0020B9
:10AF300077FB002080B582B000AF0023FB7110E0EA
:10AF4000FB799BB203F500539BB21846FEF79AFBC0
:10AF5000034683F00103DBB2002B06D1FB790133FA
:10AF6000FB71FB79072BEBD900E000BFFB7918469A
:10AF70000837BD4680BD80B586B000AF78607B687D
:10AF80001B78032B01D108236BE007F10C03184653
:10AF900020F04AFD0346BB82BB8A002B01D0082368
:10AFA0005FE00023FB7556E0FB7D9BB203F5005389
:10AFB0009BB21846FEF766FB0346002B48D0FB7D8C
:10AFC0009BB203F500539BB21846FEF77EFB034687
:10AFD000002B3DD0FB7D9BB203F5005308339BB2A1
:10AFE0001846FEF74FFB0346002B15D0FB7D9BB2A6
:10AFF00003F5005308339BB21846FEF766FB034681
:10B00000002B22D007F10C0307221946174824F021
:10B0100085FF0346002B1AD17B681B78022B09D1D0
:10B020007B68013319461248FFF742FE0346002BA6
:10B030000ED015E07B68013306220E49184624F035
:10B040006DFF0346002B0AD002E000BF00E000BF06
:10B05000FB7D0133FB75FB7D072BA5D900E000BF0D
:10B06000FB7D18461837BD4680BD00BF94FB00200D
:10B0700067FB002061FB002080B582B000AF034673
:10B08000FB71FB79072B01D903230DE0FB799BB200
:10B0900003F500539BB21846FEF788F90346002BD0
:10B0A00001D1002300E0012318460837BD4680BDCA
:10B0B00080B582B000AF0023FB710FE0FB799BB23B
:10B0C00003F500539BB21846FEF770F90346002BB8
:10B0D00001D0012306E0FB790133FB71FB79072BDB
:10B0E000ECD9002318460837BD4680BD80B582B034
:10B0F00000AF0346FB71FB799BB203F500539BB293
:10B100001846FEF7BFFA034618460837BD4680BD0D
:10B1100080B582B000AF0346FB80FB88B3F5005FCB
:10B120000ED3FB8842F20702934209D8064B1B68F4
:10B13000002B05D0044B1B68FA88D2B21046984702
:10B1400000BF0837BD4680BDB4FB002080B582B08B
:10B1500000AF7860044A7B6813600448FEF7E6F8A5
:10B1600000BF0837BD4680BDB4FB002011B100010F
:10B1700080B588B000AF786000237B61F5F77AFE78
:10B18000454B1B68002B01D100F01DF97B68002B9B
:10B1900012D008227B6803F00703D31A08333B61FF
:10B1A0003B69DB437A689A4204D87A683B69134466
:10B1B0007B6001E000237B607B68002B60DB7B68A9
:10B1C000002B5DD0354B1B687A689A4258D8344BB7
:10B1D000BB61334B1B68FB6104E0FB69BB61FB692E
:10B1E0001B68FB61FB695B687A689A4203D9FB695B
:10B1F0001B68002BF1D1284B1B68FA699A423FD09B
:10B20000BB691B68082213447B61FB691A68BB6930
:10B210001A60FB695A687B68D21A08235B009A425D
:10B220000FD9FA697B681344FB60FB695A687B6835
:10B23000D21AFB685A60FB697A685A60F86800F0B5
:10B240001FF9164B1A68FB695B68D31A134A13601F
:10B25000124B1A68134B1B689A4203D20F4B1B68A0
:10B26000104A1360FB695B6843F00042FB695A6057
:10B27000FB6900221A600C4B1B6801330A4A1360F9
:10B28000F5F740FE7B69002B01D117F088FA7B6946
:10B2900018462037BD4680BD28F200202CF2002041
:10B2A00020F2002030F2002034F2002080B584B07B
:10B2B00000AF78607B68FB607B68002B2BD0082395
:10B2C0005B42FA681344FB60FB68BB60BB685B6869
:10B2D000DB0F03F00103DBB2002B1CD0BB681B6843
:10B2E000002B18D1BB685B6823F00042BB685A6032
:10B2F000F5F7C0FDBB685A68094B1B681344084A40
:10B300001360B86800F0BCF8064B1B680133054AAF
:10B310001360F5F7F7FD00BF1037BD4680BD00BFD5
:10B320002CF2002038F2002080B400AF034B1B68E1
:10B330001846BD465DF8047B704700BF2CF2002024
:10B3400080B400AF034B1B681846BD465DF8047B14
:10B35000704700BF30F2002080B400AF00BFBD4690
:10B360005DF8047B704780B584B000AF78603960C9
:10B370000023FB607B68002B09D04FF0FF327B6815
:10B38000B2FBF3F33A689A4201D9012300E00023AB
:10B39000002B13D17B683A6802FB03F31846FFF7D2
:10B3A000E7FEF860FB68002B08D07B683A6802FB78
:10B3B00003F31A460021F86825F008FCFB681846DC
:10B3C0001037BD4680BD80B485B000AF4FF47043E8
:10B3D000BB60264BFB60FB6803F00703002B0CD01F
:10B3E000FB680733FB60FB6823F00703FB60BA6868
:10B3F000FB68D31A1D4A1344BB60FB687B601C4A80
:10B400007B6813601A4B00225A607B68BA68134449
:10B41000FB600822FB689B1AFB60FB6823F00703B4
:10B42000FB60FB68134A1360124B1B6800225A60D2
:10B43000104B1B6800221A607B683B603B68FA680F
:10B44000D21A3B685A600B4B1A683B681A603B681B
:10B450005B68094A13603B685B68084A136000BF79
:10B460001437BD465DF8047B704700BF2002002002
:10B4700020F2002028F2002030F200202CF20020E0
:10B4800080B485B000AF7860284BFB6002E0FB68B9
:10B490001B68FB60FB681B687A689A42F7D8FB68F8
:10B4A000BB60FB685B68BA6813447A689A4208D14B
:10B4B000FB685A687B685B681A44FB685A60FB68E3
:10B4C0007B607B68BB607B685B68BA681A44FB681A
:10B4D0001B689A4218D1FB681A68154B1B689A4280
:10B4E0000DD07B685A68FB681B685B681A447B68F0
:10B4F0005A60FB681B681A687B681A6008E00C4B8E
:10B500001A687B681A6003E0FB681A687B681A6037
:10B51000FA687B689A4202D0FB687A681A6000BFBA
:10B520001437BD465DF8047B704700BF20F2002051
:10B5300028F2002080B586B000AF786000233B6120
:10B540000023FB604FF0FF33BB60F5F793FC224B09
:10B550001B687B617B69002B1BD015E03B690133C5
:10B560003B617B695B68FA689A4202D27B695B68DF
:10B57000FB607B695B68BA689A4202D97B695B6849
:10B58000BB607B691B687B61144B1B687A699A42BC
:10B59000E4D1F5F7B7FC7B68FA685A607B68BA6853
:10B5A0009A607B683A69DA6000F00BFB0C4B1A6812
:10B5B0007B681A600B4B1A687B685A610A4B1A68E1
:10B5C0007B689A61094B1A687B681A6100F012FB6C
:10B5D00000BF1837BD4680BD20F2002028F20020B1
:10B5E0002CF2002034F2002038F2002030F200204B
:10B5F00080B58EB000AF786000233B637B681B781A
:10B60000162B00F2DC8001A252F823F0BFB7000134
:10B61000BFB70001BFB7000169B600019BB60001CA
:10B62000BFB70001BFB70001BFB70001BFB700013E
:10B63000BFB70001BFB70001BFB70001BFB700012E
:10B64000BFB70001BFB70001BFB70001BFB700011E
:10B65000BFB70001BFB700017DB70001BFB7000150
:10B66000BFB700018FB700017B681B79062B40F044
:10B67000A8807B685B880121184603F01FFE7B6869
:10B680005B88184600F04EFE38633B6B002B00F0E1
:10B690009A803B6B01229A7193E07B680B33FB62CB
:10B6A000002387F82B307B689B7A3B85494B1B78BE
:10B6B000012B00F08A800023FB8656E0FB8EFA6A9D
:10B6C00013441B7887F82B30FB8E0133FA6A13443E
:10B6D0001B7887F8273097F82730032B3DD1FB8E56
:10B6E0000233FA6A13441B789AB2FB8E0333F96A69
:10B6F0000B441B789BB21B029BB21344BB84BB8CD4
:10B7000041F60302934228D1324B1B78032B12D10E
:10B7100007F10C0207F10B031146184603F0F1FD87
:10B720007B68D91C07F10C030722184624F0F6FBAE
:10B730000346002B1ED17B680333184600F064FFDC
:10B7400003467B847B8C002B16D1224B01221A707E
:10B75000012000F014FF00BF0EE097F82B309AB2E2
:10B76000FB8E13449BB20133FB86FA8E3B8D9A42CB
:10B77000A4D32BE000BF29E000BF27E0154B002237
:10B780001A70154B1B781846FEF732FF1EE07B68D7
:10B790000233FB617B685B887B837B8B184600F000
:10B7A000C1FD7861FB69DA787B695A71FB691A8897
:10B7B0007B695B7919461046FAF790FA06E000BFFC
:10B7C00004E000BF02E000BF00E000BF3837BD4624
:10B7D00080BD00BF080000200400002080B483B0BA
:10B7E00000AF78607B681B78062B11D801A252F855
:10B7F00023F000BF11B8000111B8000111B8000119
:10B8000011B8000111B8000111B8000111B8000110
:10B8100000BF00BF0C37BD465DF8047B704780B5A4
:10B8200082B000AF78607B681B78142B41D801A2EE
:10B8300052F823F089B80001B3B80001B3B8000191
:10B84000B3B80001B3B80001B3B80001B3B8000148
:10B85000B3B80001B3B80001B3B80001B3B8000138
:10B86000B3B80001B3B80001B3B80001B3B8000128
:10B87000B3B80001B3B80001B3B80001A7B8000124
:10B88000B3B80001B3B800017B689B7A052B01D0E7
:10B890000F2B06D17B689B880021184603F00EFD14
:10B8A00000E000BF06E07B685B68184602F0A3F882
:10B8B00000E000BF00BF0837BD4680BD80B483B044
:10B8C00000AF78607B681B780A2B19D801A252F868
:10B8D00023F000BF01B9000101B9000101B9000165
:10B8E00001B9000101B9000101B9000101B900016C
:10B8F00001B9000101B9000101B9000101B900015C
:10B9000000BF00BF0C37BD465DF8047B704780B5B3
:10B9100086B000AF786000237B617B681B78082BC2
:10B9200000F2948001A252F823F000BF51B9000147
:10B93000C1B900014DBA0001F1B900014DBA0001D1
:10B940004DBA0001FFB900014DBA00014DBA000126
:10B950007B685B88184600F0E5FC78617B69002B0A
:10B9600076D07B699B78184600F0A9FD3D4B0022FC
:10B970001A7007F10B03184600F098FE0346FB749B
:10B98000FB7C002B02D0012000F0AEFD354B9B78F4
:10B99000002B05D1FB7C83F00103DBB2002B06D02A
:10B9A000002000F0C9FD042000F0E9FD05E00120C1
:10B9B00000F0C2FD032000F0E2FD02F0ABFC4EE01F
:10B9C00000F0DAFC78617B69002B43D07B685A88F1
:10B9D0007B691A80234B00229A70224B02221A7034
:10B9E0000220FEF7CBFE03461A461F4B1A7036E0C4
:10B9F0007B685B79012B2FD102F070FC2CE04C208E
:10BA000001F0EDFFF860FB68002B27D07B681B7905
:10BA1000F968184603F0A3FC0346002B12D1114B22
:10BA20005B78072B0AD80F4B5A787B681B799A42B0
:10BA300004D00C4B5B78184603F083FC7B681A79C2
:10BA4000084B5A70F86801F0D6FF07E000BF06E027
:10BA500000BF04E000BF02E000BF00E000BF1837F5
:10BA6000BD4680BD08000020040000200800000042
:10BA700080B485B000AFF860B9607A60FB68043BC1
:10BA8000FB60FB684FF080721A60FB68043BFB6050
:10BA9000BB6823F00102FB681A60FB68043BFB6093
:10BAA0000C4AFB681A60FB68143BFB607A68FB6811
:10BAB0001A60FB68043BFB60FB686FF002021A60CF
:10BAC000FB68203BFB60FB6818461437BD465DF8F9
:10BAD000047B7047D9BA000180B483B000AF002363
:10BAE0003B604FF0200383F31188BFF36F8FBFF3E8
:10BAF0004F8F7B6000BF3B68002BFCD000BF0C3732
:10BB0000BD465DF8047B7047094B19680868B0E8CA
:10BB1000F04F80F30988BFF36F8F4FF0000080F380
:10BB200011887047AFF30080AFF30080AFF300805F
:10BB300088F8002000BF08480068006880F3088883
:10BB40004FF0000080F3148862B661B6BFF34F8FE8
:10BB5000BFF36F8F00DF00BF08ED00E000BF80B5CE
:10BB600000AF114B1B68104A43F4600313600E4B87
:10BB70001B680D4A43F06043136000F077F90B4BEC
:10BB800000221A6000F0A2F9094B1B68084A43F032
:10BB900040431360FFF7CFFFF5F7B6FCFFF79CFFBC
:10BBA0000023184680BD00BF20ED00E0F80401200E
:10BBB00034EF00E080B400AF00BFBD465DF8047B09
:10BBC000704780B483B000AF4FF0200383F3118837
:10BBD000BFF36F8FBFF34F8F7B60054B1B68013343
:10BBE000034A136000BF0C37BD465DF8047B704705
:10BBF000F804012080B483B000AF0A4B1B68013BFE
:10BC0000084A1360074B1B68002B04D100237B609C
:10BC10007B6883F3118800BF0C37BD465DF8047B59
:10BC2000704700BFF8040120EFF30980BFF36F8F66
:10BC3000174B1A681EF0100F08BF20ED108A20E97C
:10BC4000F04F10602DE909004FF0200080F31188BB
:10BC5000BFF34F8FBFF36F8FF5F756FC4FF0000027
:10BC600080F3118809BC19680868B0E8F04F1EF02D
:10BC7000100F08BFB0EC108A80F30988BFF36F8FF4
:10BC8000704700BFAFF30080AFF30080AFF30080D8
:10BC900088F8002000BF80B582B000AF4FF02003CD
:10BCA00083F31188BFF36F8FBFF34F8F7B60F5F77E
:10BCB0001DFB0346002B03D0064B4FF080521A6049
:10BCC00000233B603B6883F3118800BF0837BD4603
:10BCD00080BD00BF04ED00E080B588B000AF7860A3
:10BCE0005B4B1B687A689A4202D9594B1B687B6090
:10BCF00072B6BFF34F8FBFF36F8FF5F721FF034687
:10BD0000002B01D162B69EE0524B06221A60524BC4
:10BD10001B687B617B69002B02D1504B1B687B61E8
:10BD20007B68013B4D4A126802FB03F37A691344B6
:10BD3000FB614B4B1B6803F08063002B08D0484B22
:10BD40004FF000721A60454B1B68FA69D31AFB6109
:10BD5000444B1B68FA699A4204D9424B1B68FA6942
:10BD6000D31AFB61404AFB6913603B4B00221A6007
:10BD7000384B1B68374A43F0010313607B68FB6054
:10BD8000FB68002B04D0BFF34F8F30BFBFF36F8F22
:10BD900062B6BFF34F8FBFF36F8F72B6BFF34F8F93
:10BDA000BFF36F8F2B4B06221A602A4B1B6803F4DC
:10BDB0008033002B1DD0294B1A68274B1968FB696B
:10BDC000CB1A1344013B3B61264B1B683A699A42EC
:10BDD00004D9224B1B683A699A4203D91F4B1B684E
:10BDE000013B3B61204A3B6913607B68013BBB61BF
:10BDF0001AE0194B1B687B61184B1B687A6802FBC1
:10BE000003F27B69D31ABB60144B1B68BA68B2FBA0
:10BE1000F3F3BB61BB690133104A126802FB03F202
:10BE20001149BB68D31A0B600B4B00221A60094BF7
:10BE300007221A60094B1B680B4A013B1360B86963
:10BE4000F5F790F962B600BF2037BD4680BD00BF50
:10BE500088FE002010E000E018E000E084FE0020F2
:10BE600004ED00E08CFE002014E000E080B400AFA0
:10BE7000104B4FF47A421A600E4B1B686FF07F42F2
:10BE8000B2FBF3F30C4A13600C4B5E221A600C4BAE
:10BE900000221A600B4B00221A600B4B4FF6FF1268
:10BEA0001A60074B07221A6000BFBD465DF8047B8D
:10BEB000704700BF84FE002088FE00208CFE00201A
:10BEC00010E000E018E000E014E000E0DFF80C0013
:10BED000016841F4700101607047000088ED00E0E6
:10BEE00000BF00BF80B582B000AF1820FFF740F957
:10BEF00078607B68002B07D07B6800221A607B6823
:10BF00000433184607F0CAFE7B6818460837BD465A
:10BF100080BD80B58AB000AFF860B9607A603B60E0
:10BF2000FB683B620023FB61F4F7A4FF3B6A1B68DC
:10BF3000BB61B968F86800F02CF9BA69BB681A43AC
:10BF40007B6813407A689A420DD1BA69BB68134383
:10BF50007B623B6A1A687B68DB431A403B6A1A6063
:10BF600000233B6013E03B68002B0BD03B6A181D9D
:10BF70007B6843F0A0633A681946F5F747FB002356
:10BF80007B6204E03B6A1B687B620123FB61F4F780
:10BF9000B9FF78613B68002B2CD07B69002B07D15F
:10BFA000174B4FF080521A60BFF34F8FBFF36F8F64
:10BFB000F6F77AF878627B6A03F00073002B15D1EC
:10BFC000FFF7FFFD3B6A1B687B627A6A7B68134060
:10BFD0007A689A4206D13B6A1A687B68DB431A404A
:10BFE0003B6A1A60FFF706FE0123FB617B6A23F0C0
:10BFF0007F437B627B6A18462837BD4680BD00BF01
:10C0000004ED00E080B58CB000AFF860B9607A60F4
:10C010003B60FB687B620023BB6200233B62F4F75A
:10C0200029FF7B6A1B68FB613A68B968F86900F010
:10C0300057F9B861BB69002B0ED0FB69FB62002386
:10C04000BB637B68002B28D07B6A1A68BB68DB4324
:10C050001A407B6A1A6020E0BB6B002B04D1FB699D
:10C06000FB6201233B6218E07B68002B03D0BB6AB4
:10C0700043F08073BB623B68002B03D0BB6A43F084
:10C080008063BB627B6A181DBA68BB6A1343BA6BD4
:10C090001946F5F7BBFA0023FB62F4F733FF78612A
:10C0A000BB6B002B31D07B69002B07D1194B4FF0B4
:10C0B00080521A60BFF34F8FBFF36F8FF5F7F4FF15
:10C0C000F862FB6A03F00073002B1AD1FFF779FDC9
:10C0D0007B6A1B68FB623A68B968F86A00F000F98D
:10C0E0000346002B09D07B68002B06D07B6A1A68B8
:10C0F000BB68DB431A407B6A1A6001233B62FFF78F
:10C1000079FDFB6A23F07F43FB62FB6A18463037F8
:10C11000BD4680BD04ED00E080B584B000AF78601E
:10C1200039607B68FB60FFF74CFDFB681B68BB60F8
:10C13000FB681A683B68DB431A40FB681A60FFF72C
:10C1400059FDBB6818461037BD4680BD80B489B024
:10C1500000AF78607B68FB61EFF311824FF0200342
:10C1600083F31188BFF36F8FBFF34F8FFA60BB600B
:10C17000FB68BB61FB691B687B61BB693B613B6919
:10C1800083F311887B6918462437BD465DF8047B2C
:10C19000704780B58CB000AF786039600023BB6217
:10C1A0007B683B6200237B623B6A0433FB61FB6973
:10C1B0000833BB61F4F75EFEFB69DB68FB623B6A38
:10C1C0001A683B681A433B6A1A603CE0FB6A5B688A
:10C1D0007B61FB6A1B683B6100237B623B6903F068
:10C1E0007F43FB603B6923F07F433B61FB6803F0C7
:10C1F0008063002B08D13B6A1A683B691340002B0F
:10C200000BD001237B6208E03B6A1A683B6913404C
:10C210003A699A4201D101237B627B6A002B10D0DC
:10C22000FB6803F08073002B03D0BA6A3B691343A9
:10C23000BB623B6A1B6843F000731946F86AF5F766
:10C240001DFB7B69FB62FA6ABB699A42BED13B6AFD
:10C250001A68BB6ADB431A403B6A1A60F4F752FE65
:10C260003B6A1B6818463037BD4680BD80B584B038
:10C2700000AF78607B68FB60FB680433BB60F4F759
:10C28000F9FD06E0BB68DB684FF000711846F5F772
:10C29000F5FABB681B68002BF4D1F4F733FEF8689D
:10C2A000FFF704F800BF1037BD4680BD80B582B0EF
:10C2B00000AF7860396039687868FFF76AFF00BFBF
:10C2C0000837BD4680BD80B582B000AF7860396068
:10C2D00039687868FFF720FF00BF0837BD4680BD8A
:10C2E00080B487B000AFF860B9607A6000237B61EA
:10C2F0007B68002B07D1FA68BB681340002B0AD07B
:10C3000001237B6107E0FA68BB681340BA689A4270
:10C3100001D101237B617B6918461C37BD465DF85E
:10C32000047B704780B485B000AF0346FB800023D8
:10C33000FB7315E0FB7B0F4ADB001344DB78002B1B
:10C340000BD0FB7B0B4A32F83330FA889A4204D187
:10C35000FB7BDB00074A134406E0FB7B0133FB73E6
:10C36000FB7B072BE6D9002318461437BD465DF842
:10C37000047B704758FC002080B483B000AF0023DA
:10C38000FB711DE0FB79134ADB001344DB7883F07B
:10C390000103DBB2002B10D0FB790E4ADB00134403
:10C3A000FA799A70FB790B4ADB0013440122DA70A8
:10C3B000FB79DB00074A134406E0FB790133FB718C
:10C3C000FB79072BDED9002318460C37BD465DF8F4
:10C3D000047B704758FC002080B584B000AF034652
:10C3E000FB71FB79022B03D0032B33D0012B32E0FE
:10C3F0001B4B1B78022B02D0032B1CD029E0184BBF
:10C4000001229A700023FB7311E0FB7B154ADB00CD
:10C410001344DB78002B07D0FB7B124A32F8333011
:10C42000132118461EF040F9FB7B0133FB73FB7BA5
:10C43000072BEAD90DE0002000F0A1F80346BB81EC
:10C44000002000F079F8042000F099F80346BB8141
:10C4500000BF00E000BF00BF1037BD4680BD00BF79
:10C460000800002058FC002080B586B000AF78603E
:10C470000023FB730023FB757B689B683B613B6972
:10C480005B8807F10F02114618461EF045F9034676
:10C49000002B10D13B6993F90030DAB297F90F30D5
:10C4A000DBB2D31ADBB2FB753B695B88FA7D1146C0
:10C4B000184601F039FF00BF1837BD4680BD80B572
:10C4C00082B000AF0346FB71FB79DB00054A1344E1
:10C4D00008220021184624F079FB0346002B083778
:10C4E000BD4680BD58FC002080B584B000AF034637
:10C4F000FB71FB79002B16D007F10E03184600F0F4
:10C50000D5F80346FB73FB7B002B11D0BB7B3B7341
:10C5100001233B7207F1080207F10C0319460120C1
:10C5200002F0FDFE04E000220021002002F0F7FEF0
:10C5300000BF1037BD4680BD80B584B000AF034654
:10C54000FB71FB79002B12D007F10E03184600F0A7
:10C55000ADF80346FB73FB7B002B0CD0BB7B3B731E
:10C5600007F10C031946012002F0BBFE03E0002195
:10C57000002002F0B6FE00BF1037BD4680BD80B57A
:10C5800084B000AF0346FB71FB79032B02D0042B70
:10C5900014D027E01A4AFB7913700120FEF7EEF859
:10C5A00003461A46174B1A704FF496730022002167
:10C5B00001201BF0F5FD0346FB811CE0104AFB79CE
:10C5C00013700020FEF7DAF803461A460D4B1A7076
:10C5D0004FF416730022002101201BF0E1FD0346F9
:10C5E000FB8108E000230022002100201BF0D8FD81
:10C5F0000346FB8100BFFB8918461037BD4680BD4E
:10C60000080000200400002080B588B000AF7860EA
:10C610002023BB812023FB8100233B747A6807F130
:10C620001103116819609188927999809A7107F1C4
:10C630000C030533002B01D104230EE00C233B83B4
:10C640000C237B830023BB834FF48073FB8307F1B0
:10C650000C0318461FF066F9034618462037BD46FE
:10C6600080BD80B582B000AF0F4800F01FF80346D0
:10C67000BB71BB79002B05D00120FFF75DFF0120C6
:10C68000FFF732FF0023FB7106E0FB791846FFF746
:10C6900016FFFB790133FB71FB79072BF5D900BF3E
:10C6A0000837BD4680BD00BF0900002080B586B0B8
:10C6B00000AF78600023FB750023FB73082001F0B6
:10C6C0008EF938613B69002B11D007F10F03194631
:10C6D000386902F05BFEFB7B002B05D03B691A78C2
:10C6E0007B681A700123FB75386901F084F9FB7DC2
:10C6F00018461837BD4680BD80B584B000AF78605D
:10C7000078681FF0F5F80346FB81FB89002B07D101
:10C710007B681B88012118461EF0DEF80346FB816A
:10C72000FB8918461037BD4680BD00BF80B5C8B034
:10C7300000AF3B1D18603B1D07F586700822196885
:10C7400023F0FAFB3B1D1B685B88184601F047F994
:10C750000346C7F81031D7F81031002B5DD0D7F859
:10C7600010013B1D1B6859683B1D1B685B881A46FE
:10C7700023F0E2FBD7F81031C7F810313B1D1B68DE
:10C780001B78042B26D1D7F81031C7F81C31D7F805
:10C790001C311B78122B1DD1D7F81C319B7A9B00C2
:10C7A000184601F01CF9C7F81801D7F81831002B0A
:10C7B00010D0D7F81C315968D7F81C319B7A9B00F0
:10C7C0001A46D7F8180123F0B7FBD7F81C31D7F871
:10C7D00018215A6007F1080300221A7007F10803B4
:10C7E00001333A1D126812781A7007F108030133F9
:10C7F0003A1D126852885A8007F108030133D7F8AE
:10C8000010215A6007F10803C7F814310022D7F845
:10C810001411044804F09AFF00E000BF07F5907778
:10C82000BD4680BD6C00002080B582B000AF78604E
:10C830007B681B78013B032B22D801A252F823F01E
:10C8400051C800015DC8000169C8000175C8000138
:10C850007B685B681846FEF7CBFE12E07B685B687E
:10C860001846FEF7BBFF0CE07B685B681846FFF7D5
:10C8700025F806E07B685B681846FEF7D0FF00E00D
:10C8800000BF786802F0F0FC79680748F7F75AFFB4
:10C890007868F9F7A4FC7B685B68184601F0ABF890
:10C8A00000BF0837BD4680BD0000002080B483B0C3
:10C8B00000AF786000BF0C37BD465DF8047B704761
:10C8C00080B582B000AF78607868F9F777FC00BF78
:10C8D0000837BD4680BD80B400AF00BFBD465DF8DF
:10C8E000047B704780B590B000AF3C4A07F1340339
:10C8F00007CA03C31A8007F1340319460A201EF041
:10C900003FF800233B7200237B8100233B7307F138
:10C91000080318461FF054F8002387F82430A0239A
:10C92000FB8420233B85002387F82A30002387F8E7
:10C930002B3007F1240318461FF0AAF8FB1D1946F7
:10C940000F201EF0A9F807F12C030522002118463C
:10C9500024F03CF9032387F82C3097F82D3043F06E
:10C960000103DBB287F82D3097F82D3043F0080330
:10C97000DBB287F82D3007F12C0318461EF0FCF8C7
:10C98000012387F82230012387F8203006233B83D8
:10C990004FF448637B830023BB8340F2F313FB8394
:10C9A00007F11803184602F070FC0D4A13786FF374
:10C9B000000313700A4A137843F002031370084A05
:10C9C00013786FF382031370054A13786FF3C30370
:10C9D000137000BF4037BD4680BD00BFAC140301DB
:10C9E0000000002080B500AF0EF0C2F800BF80BD8F
:10C9F00080B582B000AF0023FB800023BB801448C9
:10CA000024F0A2FD1BF0A8FB22F078FC13F0D2F971
:10CA1000FB88184623F004FFBB88184619F010F86D
:10CA200010F0AAFE02F0E6FB0A4802F0FBFBF7F763
:10CA30000FFE0948F7F746FEF9F7B2F80748F9F78D
:10CA4000F1F8FFF74FFF00BF0837BD4680BD00BFBC
:10CA50002DC700010FB90001C1C8000123E4000186
:10CA600080B500AFFFF7BEFFFFF735FFFFF7C0FF50
:10CA700000BF80BDF7B5046800260546ADF800602C
:10CA80001CF08AFA267521F0D5F9236EDA0505D552
:10CA900015F038FE14F0AAFBAFF30080B4F898301C
:10CAA0000133A4F8983094F86430012B64D1236EDC
:10CAB000DB0105D5D4F87831198FD86B22F070F8E6
:10CAC000D4F88831DF0109D5204620F093FA28B147
:10CAD000D4F87831198FD86B22F062F8206EE36EAB
:10CAE00010F0007700F0C3809B0040334FF6FC71DC
:10CAF0001940D4F87801276FA66F20F04BFAD4E9DB
:10CB00001B2140F272234B4303EB42032033E367C4
:10CB100000236367013ED4F87831F61B1E6694F853
:10CB20006430012B28D1E3681BB9236E23F48053B2
:10CB30002366236E13F4505F00F0F48018021BD5B7
:10CB400011F006FD226E031E22F4000214BF002124
:10CB50000721226681B9D4F878211160D4F87821B0
:10CB600059685160D4F878210A605A601B68002B1C
:10CB700000F00B8121F076FA1CF00EFA236E23F000
:10CB80003C5323F44C632366D4F8883123F080733C
:10CB9000C4F8883121F04EF9236E9B0715D51CF09F
:10CBA000FBF9236E23F0020343F00403236621F014
:10CBB00041F9D4F87821A36D126E1344A365284679
:10CBC00023F03CF90123C4F87C31236E9F0214D575
:10CBD0001CF0E2F9236E23F40013236621F02AF9F6
:10CBE00020461AF04FFED4F87831C2B25A61D4F818
:10CBF0007831400000F4FF705866236E9E0540F1C6
:10CC0000C780B4F84C30002B00F0D280B4F80A335F
:10CC1000002B00F0CD80013BA4F80A33002384F8F8
:10CC20009C311CF0B9F9236EDA0554BF23F4844318
:10CC300023F48643236621F0FDF894F89D304BB130
:10CC400001AB04225C490195012018F049F800234A
:10CC500084F89D3094F89E32D4F8780143F0400374
:10CC600084F89E32694624F0DDFF03B0F0BD10F079
:10CC7000010035D0E66F226F203640F2722106EBBC
:10CC8000430601FB0266617D59B10322B1FBF2F25A
:10CC900002EB42028A1A12F0FF0F04BF06F272265C
:10CCA0000746B6F5004FBFF43AAFB4F84A1040F269
:10CCB00071224A43963A9642BFF431AF9B0040330B
:10CCC0004FF6FC711940D4F8780120F063F9D4F8DC
:10CCD0007821E667136E216F5B1ADB1B13661EE774
:10CCE000626FD4F878019B0003F598734FF6FC71DE
:10CCF000022A01EA030194BF0026012620F04AF926
:10CD0000E26FE16E236F7A32334402EB410240F26C
:10CD1000722101FB0322D4F87811E2670A6ED31A5C
:10CD20000B66FCE699067FF527AFE27D012A7FF4CA
:10CD300023AFB4F84C20002A3FF41EAF1A023FF58F
:10CD40001BAF11F005FC226E031E42F400022266A6
:10CD500018BF0021B4F84C20A4F80A2308BF07210B
:10CD600000297FF409AFD4F878211160D4F8782134
:10CD700059685160D4F878210A605A601B6823B161
:10CD8000B4F84C1022F08AFBF6E612F013F9F3E641
:10CD900058040DD5190405D5204620F013F98DF857
:10CDA00000003BE7D4F878319B7A8DF8003035E706
:10CDB000204624F029FAF2E7A204010180B483B0EE
:10CDC00000AF78603960064A7B681360044A3B68AC
:10CDD000536000BF0C37BD465DF8047B704700BF51
:10CDE000A4FE002080B582B000AF074B1B68002B6B
:10CDF00006D0054B5B687B60034B1B6878689847DF
:10CE000000BF0837BD4680BDA4FE002080B400AF3F
:10CE1000064B00221A62054B054A1A62034B054A6B
:10CE20001A6200BFBD465DF8047B704700060044EF
:10CE3000556699AAAA99665580B586B000AF786004
:10CE40000B46FB70EFF31083FB60FB687B6172B6EF
:10CE5000104A7B6813630F4B4FF480425A600D4BAE
:10CE60000F225A60FB780B4A03F00F039360094BC3
:10CE70004FF480429A60FFF7C9FF064B4FF400421F
:10CE80009A607B693B613B6983F3108800BF183768
:10CE9000BD4680BD0006004480B500AF034B1B6B50
:10CEA00000211846FFF7C8FF00BF80BD0006004400
:10CEB00080B586B000AFF860B9607A607B687B614E
:10CEC000BA687969F86823F037F8012318461837EB
:10CED000BD4680BD80B582B000AF78603960064A3B
:10CEE0007B68136401213868FFF7A6FF0123184609
:10CEF0000837BD4680BD00BF0006004480B582B043
:10CF000000AF78603960124A7B681B6813647B68E5
:10CF100004337B600E4A7B681B6813657B680433AF
:10CF20007B600B4A7B681B6813667B6804337B60FD
:10CF3000074A7B681B6813677B6804337B600221A8
:10CF40003868FFF779FF012318460837BD4680BDD2
:10CF50000006004480B582B000AF78603960064AB0
:10CF60007B68C2F8C03003213868FFF765FF0123F2
:10CF700018460837BD4680BD0006004480B582B023
:10CF800000AF786004217868FFF756FF0123184648
:10CF90000837BD4680BD80B400AF044B1B6803F466
:10CFA00040531846BD465DF8047B704700060044B8
:10CFB00080B400AF064B1B6803F40043002B14BF82
:10CFC00001230023DBB21846BD465DF8047B7047A1
:10CFD0000006004480B586B000AF78603960EFF39A
:10CFE0001083FB60FB687B6172B6FFF70FFF114B8C
:10CFF0004FF00042C3F8D0200E4B4FF00042C3F870
:10D00000E8207B6823F07F430A4A43F00043C2F8DC
:10D01000D0303B6823F07F43064A43F00043C2F818
:10D02000E0307B693B613B6983F3108800BF1837B0
:10D03000BD4680BD0006004480B584B000AFEFF36C
:10D0400010837B607B68FB6072B6FFF7DFFE094BE5
:10D050004FF00042C3F8D420064B4FF00042C3F813
:10D06000E420FB68BB60BB6883F3108800BF103707
:10D07000BD4680BD0006004480B586B000AF786034
:10D08000EFF31083FB60FB687B6172B6FFF7BEFEB7
:10D09000074A7B6823F07F43C2F8F4307B693B6129
:10D0A0003B6983F3108800BF1837BD4680BD00BFC1
:10D0B0000006004480B586B000AF7860EFF31083BF
:10D0C000FB60FB687B6172B6FFF7A0FE074A7B68D6
:10D0D00023F07F43C2F8F8307B693B613B6983F3FF
:10D0E000108800BF1837BD4680BD00BF0006004451
:10D0F00080B5C4B000AF3B1D18603B1D1B68002B02
:10D1000038D03B1D1868FAF756FDC7F80C01D7F860
:10D110000C31002B2FD0D7F80C311B78002B04D109
:10D1200007F1080304221A7000E000BF07F10803AA
:10D130000133D7F80C2112781A7007F10803013374
:10D14000D7F80C2152785A7007F108030133D7F849
:10D150000C2152685A6007F108030133D7F80C21FB
:10D1600092689A6007F1080300221946044804F007
:10D17000EDFA00E000BF07F58877BD4680BD00BF2F
:10D180006C00002080B5C6B000AF3B1D18603B1D91
:10D190001B68002B40D03B1D1868FAF70CFDC7F840
:10D1A0001401D7F81431002B37D0D7F814311B787D
:10D1B000012B02D0022B05D009E007F10C03052258
:10D1C0001A7004E007F10C0306221A7000BF07F181
:10D1D0000C030133C7F81031D7F814311A78D7F897
:10D1E00010311A70D7F814315A78D7F810315A70B4
:10D1F000D7F814315A68D7F810315A60D7F814317B
:10D200009A68D7F810319A6007F10C03002219468A
:10D21000044804F09BFA00E000BF07F58C77BD4698
:10D2200080BD00BF6C00002080B485B000AFBA6044
:10D230007B600346FB730B46BB737B68FA7B1A70FB
:10D240007B68BA7B5A707B68BA689A6000BF1437F3
:10D25000BD465DF8047B704790B58BB002AFF860B7
:10D26000B9601346FB71FB68002B02D0BB68002B32
:10D2700001D1032377E0FB685B68002B1ED0FB68BD
:10D28000586800230093002300220321FAF781F954
:10D290000346012B01D0012365E0FB685868002399
:10D2A0000093002300220521FAF773F90346012BAE
:10D2B00001D0012357E0FB6800225A600923FB7765
:10D2C000FB7F0B2B1CD807F11003092228491846B5
:10D2D00022F032FEFB681A78FB7F3032D2B207F1BF
:10D2E00020010B4403F8102CFB7F013307F12002CF
:10D2F0001344002203F8102CFB79002B0FD001E01F
:10D30000012330E007F110001A4B0093FB68012263
:10D31000B968FAF7F3F80246FB685A600BE007F1C8
:10D320001000154B0093FB680022B968FAF7E6F885
:10D330000246FB685A60FB685B68002B12D0FB68F2
:10D340005C68F3F7CBFE0246002300930023012123
:10D350002046FAF71EF90346002B01D1012302E013
:10D36000002300E0042318462437BD4690BD00BFCB
:10D37000B814030185D10001F1D0000180B584B05B
:10D3800002AF78607B681B68002B01D103231FE08C
:10D390007B68186800230093002300220321FAF71A
:10D3A000F8F80346012B01D0012311E07B681868CF
:10D3B00000230093002300220521FAF7EAF8034630
:10D3C000012B01D0012303E07B6800221A600023B7
:10D3D00018460837BD4680BD80B584B002AF78607E
:10D3E0007B68002B01D103230FE0F3F777FE0246A1
:10D3F00000230093002302217868FAF7CAF8034655
:10D40000012B01D0012300E0002318460837BD4658
:10D4100080BD00BF2DE9F0478D78046898B00023E7
:10D42000012D05935BD9022D60D094F82E300E8823
:10D43000CF78CDE90153B34B0093022201238F2112
:10D44000EC200CF081FA04EB85039621D3F8EC3143
:10D45000D3F8B0200292D3F8AC300193AA4B0093DA
:10D4600002231A46EC200CF06FFA11F071F80590C7
:10D47000002800F04581A54B0093F6B202239221CB
:10D4800001961A46EC200CF05FFAB10640F1DA8002
:10D490009F4E94F86C9133689B699847336804F207
:10D4A0006D1A09F001098046DB69514648469847E4
:10D4B0000546B8F1000F40F0B980D0B1954B00930C
:10D4C000022201231821EC200CF03EFA0598046892
:10D4D000002C00F0128124F0BDFA002003E094F843
:10D4E00060010028A1D118B0BDE8F08794F861016F
:10D4F000F7E74FF44371052015F0D0FE8046002871
:10D50000E4D0C4F888010568336828881B6A52464D
:10D510004946984794F87330063B012B28D80123DD
:10D5200085F8A83094F87320072A07D80123934080
:10D5300013F0130F30D113F0C00F25D1336885F8E5
:10D54000F872DB6ED4F87C21D4F84011404698473D
:10D55000002F37D1012205A9204616F00FFE227CAC
:10D560000123A4F88031002AB0D0A4F88631ADE7B9
:10D57000D4F844311B789A0604D50E2022F000FB23
:10D580000028CCD10023CBE794F82D30022B08D013
:10D59000032B09D0012BD1D141F21113A5F866302C
:10D5A000CCE741F21223F9E794F83F3085F8683070
:10D5B0002122012B85F8662014BF2322222285F820
:10D5C0006720BBE70021204616F0E2F8B4F80031EE
:10D5D0003BB1D4F8FC0008B11EF078FB0023C4F87E
:10D5E000FC30B4F810313BB1D4F80C0108B11EF096
:10D5F0006DFB0023C4F80C31002684F860613046CE
:10D600001CF0E8FD32462988204611F033FF2A88B5
:10D6100095F8A8308DF81E3041F21401ADF81810BD
:10D62000ADF81C2006A81EF0D7FC4FE73A4B00933C
:10D63000022201231721EC200CF086F9002D3FF483
:10D6400045AF3BE7730609D5012205A9204616F030
:10D6500095FD43F60143A4F8803137E7237CBBB145
:10D6600094F87520A2B194F863318BB985B994F818
:10D6700074300133DBB29A4284F8743008D8012246
:10D6800005A9204616F07AFD44F20133A4F886314C
:10D6900094F87320012A07D105A9204616F06EFDE3
:10D6A00043F60143A4F88031002F3FF40FAF00216F
:10D6B000204616F06DF8B4F800313BB1D4F8FC0008
:10D6C00008B11EF003FB0023C4F8FC30B4F810319D
:10D6D0003BB1D4F80C0108B11EF0F8FA0023C4F8ED
:10D6E0000C31002584F8605128461CF073FD862318
:10D6F000ADF818308DF81C5094E711F05BFCECE6A7
:10D700000720F0E6BE520201D7520201F052020198
:10D71000FC010020FC5202010C53020180B582B0D2
:10D7200000AF0346FB71FB79002B02D0012B03D025
:10D7300005E0F3F79FFB02E0FEF743FA00BF00238A
:10D7400018460837BD4680BD80B582B000AF03469D
:10D750003960FB71FB79002B02D0012B03D005E06F
:10D76000F3F7D0FB02E0FEF745FA00BF00BF083731
:10D77000BD4680BD80B582B000AF786008461146D6
:10D780001A460346FB700B46BB7013467B70FB7852
:10D79000002B02D0012B22D02BE07B78012B1CD850
:10D7A000032200210120F5F7BDF902467B681A60CB
:10D7B0007B681B68002B22D07B78012B1FD17B68F4
:10D7C0001868002300220021F5F75EFA0346012BBA
:10D7D00001D101231BE0002319E0002317E0BB78EF
:10D7E0007A7811461846F5F730FA02467B681A60D7
:10D7F00006E07B6800221A604FF0FF3307E000BFAD
:10D800007B681B68002B01D1002300E00123184630
:10D810000837BD4680BD80B582B000AF78607B68B8
:10D820001B681846F5F7B3FE7B6800221A600123D7
:10D8300018460837BD4680BD80B584B000AF78601B
:10D8400039600023FB603B68B3F1FF3F03D14FF029
:10D85000FF33FB6001E03B68FB607B681B68F96895
:10D860001846F5F761FC0346012B01D1012300E0C6
:10D87000002318461037BD4680BD80B582B000AF8A
:10D8800078607B681868002300220021F5F7FCF916
:10D890000346012B01D1012300E00023184608377D
:10D8A000BD4680BD80B584B000AF78600023FB60CA
:10D8B0007B681B6807F10C0211461846F5F725FB3B
:10D8C0000346002B0CD0FB68002B07D0074B4FF012
:10D8D00080521A60BFF34F8FBFF36F8F012300E0B8
:10D8E000002318461037BD4680BD00BF04ED00E0A0
:10D8F00080B584B000AF78607B681B681846F5F788
:10D9000011FEF860FB68FF2B01D9FF23FB60FB6869
:10D91000DBB218461037BD4680BD80B582B000AF7F
:10D9200078607B681B68002B01D0002306E0012093
:10D93000F5F773F902467B681A6001231846083729
:10D94000BD4680BD80B582B000AF78607B681B6843
:10D95000002B01D1002308E07B681B681846F5F70F
:10D9600016FE7B6800221A60012318460837BD4660
:10D9700080BD80B584B000AF786039600023FB6063
:10D980003B68B3F1FF3F03D14FF0FF33FB6001E091
:10D990003B68FB607B681B68F9681846F5F7C4FBB9
:10D9A0000346012B01D1012300E000231846103764
:10D9B000BD4680BD80B582B000AF78607B681868D6
:10D9C000002300220021F5F75FF90346012B01D166
:10D9D000012300E0002318460837BD4680BD80B50E
:10D9E00082B000AF78607868FDF7C2FB0346184646
:10D9F0000837BD4680BD80B582B000AF78607868DA
:10DA0000FDF754FC00BF0837BD4680BD80B400AFB1
:10DA100001231846BD465DF8047B70470C4B13F09C
:10DA2000FF0F08D04FF0200383F31188BFF36F8FEF
:10DA3000BFF34F8FFEE7074A934208D04FF0200311
:10DA400083F31188BFF36F8FBFF34F8FFEE77047EB
:10DA500000C0070100C00701014B1860704700BFFC
:10DA600018FF002030B4184C1546184A0C4404EB3B
:10DA70004030541E844208D24FF0200383F31188B3
:10DA8000BFF36F8FBFF34F8FFEE71C18A24208D27F
:10DA90004FF0200383F31188BFF36F8FBFF34F8FD5
:10DAA000FEE71944B1F5005F08DD4FF0200383F372
:10DAB0001188BFF36F8FBFF34F8FFEE701461A4601
:10DAC000284630BC22F038BA00C007010000080127
:10DAD000F8B5304D0D4405EB403517462A071C4676
:10DAE00008D04FF0200383F31188BFF36F8FBFF38B
:10DAF0004F8FFEE743B94FF0200383F31188BFF344
:10DB00006F8FBFF34F8FFEE7234B5A1EAA4208D2F6
:10DB10004FF0200383F31188BFF36F8FBFF34F8F54
:10DB2000FEE76219934208D24FF0200383F3118875
:10DB3000BFF36F8FBFF34F8FFEE72144B1F5005F56
:10DB400008DD4FF0200383F31188BFF36F8FBFF31D
:10DB50004F8FFEE7114B1B6803B1984723071EBF89
:10DB600024F00F0310339CB24FF6F0732340FE18DD
:10DB7000ED1BBE4204D1FFF71BFA0028FBD1F8BD14
:10DB8000FFF716FA0028FBD179193846FFF7B6F9E6
:10DB90001037EEE700C007010000080118FF002061
:10DBA00010B5124C124B04EB4034A34214D3FFF7D0
:10DBB000FFF90028FBD12046FFF7E0F904F5805477
:10DBC000FFF7F6F90028FBD12046FFF7D7F9FFF75A
:10DBD000EFF90028FBD110BD4FF0200383F311882B
:10DBE000BFF36F8FBFF34F8FFEE700BF00C0070189
:10DBF000FFFF070137B542B94FF0200383F31188C7
:10DC0000BFF36F8FBFF34F8FFEE71F4C0C4404EB45
:10DC100040341E48431EA34208D24FF0200383F332
:10DC20001188BFF36F8FBFF34F8FFEE71319984230
:10DC300008D24FF0200383F31188BFF36F8FBFF337
:10DC40004F8FFEE71144B1F5005F08DD4FF0200370
:10DC500083F31188BFF36F8FBFF34F8FFEE74FF051
:10DC6000FF3201929DB204220DEB0201204622F008
:10DC700055F930B90434A3B29D42F4D1012003B068
:10DC800030BD0020FBE700BF00C007010000080115
:10DC900038B5154643B94FF0200383F31188BFF31D
:10DCA0006F8FBFF34F8FFEE7184C194A0C4404EBFB
:10DCB0004030541E844208D24FF0200383F3118871
:10DCC000BFF36F8FBFF34F8FFEE71C18A24208D23D
:10DCD0004FF0200383F31188BFF36F8FBFF34F8F93
:10DCE000FEE7CA18B2F5005F08DD4FF0200383F3AA
:10DCF0001188BFF36F8FBFF34F8FFEE71A46294697
:10DD000022F00CF9B0FA80F0400938BD00C00701DC
:10DD1000000008012DE9F04F89B000230746019368
:10DD20000E4629B94FF00008404609B0BDE8F08F13
:10DD3000D0F844904C6CA1458BBFB9FBF4F3B4FB15
:10DD4000F9F304FB139309FB13438BB121464846B7
:10DD500022F0ACF9B0FBF9F3DBB2092B019304D943
:10DD6000B0FBF4F0C0B20928DCD84FF0020801E0A3
:10DD70004FF00108FB7AD7F860B0356E726EB6F8D6
:10DD80007010012B02BFFB6BABEB0303C3F3160A4E
:10DD9000F37A18BFDA46012B08BFF06BB6F876307D
:10DDA00004BF2D1AC5F31605B8F1010F67D1AAEB10
:10DDB000050046021ED520468B4C0093CDE901217B
:10DDC0001FF058FD2668DFF824C23489768902994D
:10DDD000344440F23916B4FBF6F4A5EB0A06E443EA
:10DDE000044406EA0C06B442DDE900329CBF2D1A59
:10DDF00005EA0C0540F2391CB3FBFCF47B6EDFF83E
:10DE0000EC91B7F87660B6FBFCF62A44534402EA7C
:10DE1000090203EA09030134013614441E44B1FB2C
:10DE2000FCF2B7F87000B0FBFCF00132013004EAFC
:10DE3000090406EA0906AA1AAAEB0000234602EA28
:10DE40000902314600EA090022F066FF00283FF48B
:10DE500069AF331B5D024CBFA4EB0A0AA6EB0A0AAA
:10DE60000BF1030497F84F300AEA0909A144C9F3FA
:10DE7000160443F002033C6687F84F3054E75B48D2
:10DE8000AC1840F2391C0440B3FBFCF301332344CB
:10DE900003400393544BB1FBFCF101311B68009329
:10DEA000691A014012234FF0000802910493C24600
:10DEB000019B53457FF638AF049B013B13F0FF03F2
:10DEC00004933FF42FAF3B6E059309FB0AF01FF05C
:10DED000D1FC059BB7F870101844444B40F239123E
:10DEE00000EA030BB1FBF2F1786E0131ABEB0101FB
:10DEF0001940584406911840B7F87610B1FBF2F17A
:10DF000001310144194000BFA4EB0B0040020FD5C2
:10DF10000098B0F80AC0B0F808E00EEB0C00ABEBCC
:10DF2000040CB0FBF2F00CEA030C0130604535D371
:10DF3000DDE90223069822F0EFFE00284ED0009B78
:10DF4000009A1B895289059840F239111344274AD7
:10DF5000B3FBF1F3013323441340A3EB0B03134052
:10DF600000F1030B5B443B66356EB6F87030746E9F
:10DF7000B3FBF1F30133EB1A13402C44029314402A
:10DF8000B6F87630B3FBF1F10131214401EA020326
:10DF900003934FF0000A4FF0010889E7706C079176
:10DFA0001FF068FC114B746E05441D4040F239129D
:10DFB000B6F87000B0FBF2F00130281A2C4400EAE9
:10DFC00003011C40B6F87600B0FBF2F001302044AB
:10DFD000029100EA03010391079995E70AF1010A0A
:10DFE0005FFA8AFA64E700BFA4010020FFFF7F0008
:10DFF0002DE9F04F054685B041208B46904623F031
:10E00000E1FD044650B9A54B009302460423C2210A
:10E01000EE200BF099FC05B0BDE8F08FEB78C21D47
:10E0200005F1040A039205F10B0900F1110600F154
:10E030002107002B40F0B280DAF800300360BAF814
:10E04000043083809AF806308371D9F80030C0F824
:10E050000730B9F80430938099F806309371904BEB
:10E060001B681A7882735A79C2735B780374BBF1A8
:10E07000000F00F08D80DBF80030C0F81130DBF8C5
:10E0800004307360DBF80830B360DBF80C30F36009
:10E09000AA6D02F5C07204F1310B1368C4F8213087
:10E0A00053687B609368BB60D368FB60AA6D02F520
:10E0B000E07221461368C4F831305368CBF804305D
:10E0C0009368CBF80830D368CBF80C30A86D4122A8
:10E0D00000F5E873063002F049FED9F800302360FD
:10E0E000B9F80430A38099F80630A371DAF800304B
:10E0F000C4F80730BAF80430A4F80B30E21D9AF8DF
:10E1000006309371AB6D93F8E430A373AB6D93F865
:10E11000E530E373AB6D93F8E6302374B8F1000F8C
:10E1200000F0B580D8F80030C4F81130D8F80430C9
:10E130007360D8F80830B360D8F80C30F360AA6D7B
:10E1400002F5E07221461368C4F8213053687B6001
:10E150009368BB60D368FB60AA6D02F5C072136858
:10E16000C4F831305368CBF804309368CBF80830EA
:10E17000D368CBF80C30A86D412200F5C873063087
:10E1800002F0F4FD204605B0BDE8F04F23F01CBDC1
:10E1900010225946304622F019FD79E7D9F80030AF
:10E1A0000360B9F80430838099F806308371DAF897
:10E1B0000030C0F80730BAF80430A0F80B30C21DA8
:10E1C0009AF806309371AB6D93F8E4308373AB6DBE
:10E1D00093F8E530C373AB6D93F8E6300374BBF18D
:10E1E000000F4ED0DBF80030C0F81130DBF80430FF
:10E1F0007360DBF80830B360DBF80C30F360AA6DB5
:10E2000002F5C07204F1310B1368C4F82130536871
:10E210007B609368BB60D368FB60AA6D02F5E07217
:10E2200021461368C4F831305368CBF80430936842
:10E23000CBF80830D368CBF80C30A86D412200F53C
:10E24000E873063002F092FDDAF800302360BAF885
:10E250000430A3809AF80630A371D9F80030C4F8CE
:10E260000730B9F80430A4F80B30E21D99F80630F5
:10E2700093710B4B1B681A78A2735A79E2735B781F
:10E280004BE710225946304622F0A0FCB7E7102297
:10E290004146304622F09AFC51E700BF8C0A030148
:10E2A000B801002080B483B000AF78600B467B805B
:10E2B00013467B707B88002B08D0074A7B6813606D
:10E2C000054A7B789371044A7B88938000BF0C37A2
:10E2D000BD465DF8047B7047F8FD002080B500AFB7
:10E2E0000B4B9B88002B11D0094B1B68002B0DD0CA
:10E2F000074B1B68064A9088054A92791146984751
:10E30000034B00221A60024B00229A8000BF80BD9E
:10E31000F8FD002080B500AF0248FFF72FF800BFDE
:10E3200080BD00BFF0FD002080B584B000AF034683
:10E330000A46FB8013467B71FB881846FDF7F2FF07
:10E34000F860FB685B79012B12D0022B02D0002B06
:10E350002AD037E07B79502B38D8FB6801225A71DC
:10E36000FB685A79FB8811461846F7F7B7FC2DE091
:10E370007B793C2B0AD8FB6800225A71FB685A79DA
:10E38000FB8811461846F7F7A9FC21E07B79502B52
:10E390001ED9FB6802225A71FB685A79FB88114624
:10E3A0001846F7F79BFC13E07B793C2B12D9FB68EE
:10E3B00001225A71FB685A79FB8811461846F7F713
:10E3C0008DFC07E0FB6800225A7104E000BF02E008
:10E3D00000BF00E000BF00BF1037BD4680BD80B564
:10E3E00086B000AFB9607A601A460346FB811346D7
:10E3F0007B73FB891B0A9BB2FB75FB89D9B2F87D45
:10E400003B6ABA68FEF710FF7B7B1A467968386A68
:10E41000FEF722FF0346BB82BB8A18461837BD466B
:10E4200080BD80B58AB002AF78607B681B78042B12
:10E4300070D801A252F823F04DE400019BE40001E2
:10E4400015E50001A7E40001F5E400017B685B88A5
:10E45000FB83FB8B1846FDF765FFB861BB690022A3
:10E460001A7104220021314822F0B0FB0346002B30
:10E4700052D00C2200212E4822F0A8FB0346002B8C
:10E480004CD0FB8B022219462A48FFF70BFFFB8B6F
:10E4900002211846F7F7D6FB45E07B685B881846F3
:10E4A000F7F794FC3FE07B685B88FB82FB8A1846A9
:10E4B000FDF738FF38617B6893F90430DAB23B69C5
:10E4C0001A713B691B79002B2AD07B6893F90420D1
:10E4D000164B1A70154AFB8A5380154B0093012383
:10E4E0004FF47A7211494FF40070FFF778FF03463A
:10E4F000002B18E07B685B88FB81FB891846FDF7E1
:10E5000011FFB860BB681B79002B0BD00A48FEF7DF
:10E5100035FF07E000BF06E000BF04E000BF02E0F7
:10E5200000BF00E000BF2037BD4680BDE8FD0020F1
:10E53000ECFD0020455C0001F0FD002080B485B0BA
:10E5400000AF78607B6803F00703FB600C4BDB686F
:10E55000BB60BA684FF6FF031340BB60FB681A024A
:10E56000BB68134343F0BF6343F40033BB60044A0A
:10E57000BB68D36000BF1437BD465DF8047B7047AD
:10E5800000ED00E080B483B000AF0346FB7197F963
:10E590000730002B0BDBFB7903F01F02074997F9CB
:10E5A00007305B09012000FA02F241F8232000BF86
:10E5B0000C37BD465DF8047B704700BF00E100E00A
:10E5C00080B483B000AF0346FB7197F90730002B8E
:10E5D0000DDB0A4A97F907305B0952F82320FB79D3
:10E5E00003F01F0322FA03F303F0010300E000230A
:10E5F00018460C37BD465DF8047B704700E100E02B
:10E6000080B483B000AF0346FB7197F90730002B4D
:10E6100010DBFB7903F01F02094997F907305B090A
:10E62000012000FA02F2203341F82320BFF34F8F7C
:10E63000BFF36F8F00BF0C37BD465DF8047B70479A
:10E6400000E100E080B483B000AF03463960FB71A5
:10E6500097F90730002B0ADB3B68DAB20C4997F9CF
:10E6600007305201D2B20B4483F800230AE03B6822
:10E67000DAB20849FB7903F00F03043B5201D2B22E
:10E680000B441A7600BF0C37BD465DF8047B70471B
:10E6900000E100E000ED00E080B500AF0020FFF7F2
:10E6A0004DFFBFF35F8F62B607214FF0FF30FFF7DA
:10E6B000C9FF07210320FFF7C5FF0320FFF762FF13
:10E6C0000C4B5B6A0B4A43F480235362094B5B6932
:10E6D000084A43F010035361064B5B6A054A43F452
:10E6E00000335362034B5B6A024A43F48033536244
:10E6F00000BF80BD00ED00E080B400AFBFF35F8FCE
:10E7000062B600BFBD465DF8047B704780B483B03D
:10E7100000AFEFF310833B603B68002B0CBF01237D
:10E720000023FB7172B6BFF35F8FFB7918460C377D
:10E73000BD465DF8047B704780B483B000AF0346EC
:10E74000FB71FB79002B03D0BFF35F8F62B602E051
:10E7500072B6BFF35F8F00BF0C37BD465DF8047B18
:10E76000704780B584B000AF0346FB71FFF7CEFF62
:10E770000346FB7397F907301846FFF721FF03465E
:10E78000002B14BF01230023BB7397F907301846F1
:10E79000FFF736FFFB7B1846FFF7CEFFBB7B184623
:10E7A0001037BD4680BD80B582B000AF03460A4633
:10E7B000FB711346BB71BB79002B05D097F907306D
:10E7C0001846FFF7DFFE00BF00BF0837BD4680BD1B
:10E7D0002DE9F84F9F4E9046336800F1A6020D4692
:10E7E00053F822203AB192F84D20022A03D1BDE815
:10E7F000F84F21F0A4B8002840F08F8093F89432AD
:10E800007BB1DFF854820C27336803EBC703D3F8DE
:10E81000C43143B9336893F8943213B117F1FF3719
:10E82000F2D2BDE8F88F9C68D3F80090637AD8F8EC
:10E830000020012B13684FD143F002031360A37B28
:10E840005BB1D8F80020136823F0040313605DBBAC
:10E850002046BDE8F84F04F027B9236CA3421BD132
:10E86000204612F0A5FAA37B002BEAD1D8F80020AD
:10E87000136843F004031360A36C33B194F8503071
:10E88000DB07204622D513F0D5FA336893F894328B
:10E89000002BC6D04B46BCE794F85030DA07E5D5DC
:10E8A000204604F0CDF9DEE7AC42D1D095F84D30EA
:10E8B000012BCDD1284613F0BDFAAB6A13B128461F
:10E8C0001EF054FD28460EF04BFEC1E713F0B2FADD
:10E8D00020460EF045FED8E743F480431360E36D15
:10E8E00033F47F430AD0204613F0A4FAA36A13B18D
:10E8F00020461EF03BFD20460EF032FE94F85C30C0
:10E90000002BC2D1B4F85E30013B9BB2A4F85E305C
:10E91000002BBAD101236372B7E793F89532002B2D
:10E920003FF47FAF0C27336803EBC703D3F82C32D7
:10E930004BB9336893F89532002B3FF472AF17F15F
:10E94000FF37F0D26DE79C68D3F80090637A012B13
:10E950005AD194F84F30580714D4DFF8FCA0DAF8F5
:10E960000020536843F002035360236CA342D34654
:10E9700012D1A36C0BB1637F53B9414620460BF013
:10E98000B3FF09E022F00AFE0028E6D04B46CFE7AD
:10E9900094F85030D907F0D4A37BC3B1DBF8002042
:10E9A000536823F004035360002D3FF451AFA54298
:10E9B0003FF44EAF95F84D30012B7FF449AF95F8F9
:10E9C0005030DA077FF576AF0023AB7340E7DAF813
:10E9D0000020536843F004035360A36C73B194F8B0
:10E9E0005030DB070AD4204613F024FAA36A13B18F
:10E9F00020461EF0BBFC20460EF0B2FD336893F8B3
:10EA00009532002BC2D10CE7134B1A68536843F4BC
:10EA100080435360E36D33F47F430AD0204613F004
:10EA200009FAA36A13B120461EF0A0FC20460EF09E
:10EA300097FD94F85C30002BE0D1B4F85E30002BE9
:10EA4000DCD0013B9BB2A4F85E30002BD6D1012371
:10EA50006372D3E7A8010020A40100202DE9F04F44
:10EA60008FB00025072906468DF80B5001D01529D7
:10EA700042D10132A1F1050903A804A904921FFAA9
:10EA800089F921F06BFD04A90DF10E0021F066FD5E
:10EA90004A4604A90AA821F045FFBDF80C40002C05
:10EAA00000F0F580BDF80E30A342C0F0F480747A17
:10EAB000E00739D406AB01935FFA89F905AB0093FF
:10EAC0004A460AABBDF80E10BDF80C0011F018FD57
:10EAD0000446002800F0E280059B3088DA7B0121A3
:10EAE0000FF058F91FFA80F8B8F1000F4CD0ADF8CC
:10EAF0000C400024254604E0ADF80C502C464FF0A5
:10EB000004089DF80B3063B9B8F1000F40F0D080D5
:10EB10002A462146304620F021FF10B1284623F036
:10EB200041F80FB0BDE8F08FB37AD907C2D514F021
:10EB30000C0F10D0002474724FF4827023F042F84E
:10EB40000028B7D01022027032888280847104219C
:10EB50001FF0ECFAAEE75B4BB9F1020F1B88ADF882
:10EB60001C3009D14A4607A90AA821F0D7F918B9DB
:10EB700044F0080474729DE744F0040400257472A4
:10EB80004FF012082C46BCE7059B9A7B920769D48C
:10EB90009DF80B30002BACD1B08822F0C5FF0546A4
:10EBA00000287FD0059B9B68B3F800B00BF1020AE8
:10EBB00000F11003092104A81FFA8AFA049322F035
:10EBC00035FD5FFA8AF104A822F030FD214604A841
:10EBD00022F032FD059B9A685968128804A821F03A
:10EBE000ABFE0BF1040B2746069AD1894FF6FF7254
:10EBF00091421FFA8BF484D0B28804EB0A0B934540
:10EC00003FF77FAF06AB781C019305AB80B2009352
:10EC10004A460AABBDF80E10ADF80C0011F070FCBE
:10EC20000746002842D0059A917B8B073FF569AFD4
:10EC300091680988023151457FF463AFD27B3088F7
:10EC400001210FF0A7F800287FF45BAF394604A834
:10EC500022F0F2FC05998A684968128804A821F01C
:10EC60006BFEC1E707933388ADF820300DF10B013F
:10EC7000082307A8ADF82240ADF824808DF826308F
:10EC800015F022FC002883D04446804632E7254612
:10EC90004FF0010835E700252C46F9E705464FF00F
:10ECA0000A082EE704464FF011082AE7804628E7B5
:10ECB0005FFA88F3BDF80C20082130460FF0A8FF5A
:10ECC0002FE700BFB21B02012DE9F043046893B0A7
:10ECD000D4F8EC0122F0A8FF94F865310025D9079B
:10ECE000C4F8EC5144D523F0010384F8653104F5F0
:10ECF0000E700AF071FB94F88031002B47D094F825
:10ED0000812184F88051002A3BD1D4F888311D68D4
:10ED10008DB12988204610F0ADFB2A8895F8A830DF
:10ED2000ADF8042041F214016846ADF800108DF8EA
:10ED300006301DF051F994F886315BB1002384F858
:10ED40008631754B94F887211B681B680ABB29889C
:10ED5000204698470021204614F01AFD002384F82D
:10ED6000603121F0B1F818B90121022012F0C4FA83
:10ED700094F865319A070FD40025284613B0BDE8F2
:10ED8000F0834FF6FF71204610F074FBD3E71D4669
:10ED9000D1E74FF6FF71DBE723F0020384F865311A
:10EDA00094F86031012BE7D15B4E33685B6893B90F
:10EDB00094F87310204614F093FB21F01FFB81465A
:10EDC00021F01CFB80460FF0C3FB0746B9F1000F92
:10EDD00007D107250FE02046984705460028E7D0D1
:10EDE000CBE7B8F1000F4BD0002814BF0025072552
:10EDF000484622F019FFB8F1000F02D0404622F039
:10EE000013FF17B1384610F0D5F8002DB5D10FF02B
:10EE10009FFB074621F0F2FAA368C4F8EC010362F5
:10EE2000D4F8EC313D4A5A62D4F8EC313C4A9A624B
:10EE3000D4F8EC313B4ADA62D4F8EC313A4A1A633E
:10EE4000D4F8EC31394A5A632946D4F8EC0108F079
:10EE5000E7FBD4F8EC311D60D4F8EC317A685A60E5
:10EE6000D4F8EC3113607B60D4F8003253B9C4E9B4
:10EE700071553B683846002B4AD022F0E6FD7CE70E
:10EE80000725B5E7D4F890E1D4F8B03194F82CC058
:10EE9000D4F8A4010EEB0301BCF1000F27D101F25D
:10EEA000A2330EF2A232C01AC4F8C421C4F8C801B9
:10EEB00021F0A4FAA368C4F8F0010362D4E97B232B
:10EEC0001A64336820465B6998470121D4F8F00141
:10EED00008F0A6FBD4F8F03100221A60D4F8F03123
:10EEE0007A685A60D4F8F03113607B60C1E7A0F50E
:10EEF000A572521A520802F5A57300FB0CEC0CEB3C
:10EF000003020B44C31AC4F8C421C4F8C831CFE7C4
:10EF100010F050F831E700BFFC0100209588010196
:10EF2000511C0301E5D00201C9EC00015535020175
:10EF300070B5046894F86520132A054640D002D8BD
:10EF4000122A0ED070BD403A022AFBD8102901D0F7
:10EF50001229F7D1D4F878010021BDE8704022F0E1
:10EF600061BE112937D01BD81029EBD100262046CD
:10EF700084F82C6022F064FD284620F01CFD204619
:10EF800021F09CFB3146204601F008FC204621F090
:10EF9000E7FE284611F0D8FF132384F86530D1E747
:10EFA000122908D08129CDD1002281212846BDE82F
:10EFB000704010F08FBD2846BDE870400DF016BAC5
:10EFC000212900F0CC8016D81229F4D009D81029B4
:10EFD00046D01129B6D128460121BDE870401AF06B
:10EFE0009FBE1629AED31729E5D92029AAD1BDE89D
:10EFF000704016F0DBBB242900F0B18010D8222924
:10F0000058D023299ED120461FF0F4F828461FF03F
:10F01000ABFA002896D12846BDE870401DF0E0B854
:10F020008129C1D0822900F0AC8025298AD119F02C
:10F03000B3FF236E23F0400323661EF0FBFE284639
:10F0400019F0CAFA20461DF08DFF68B319F0A4FF2D
:10F05000236E23F480332366BDE870401EF0EABEC1
:10F06000494B002684F82C601A6866F39A621A608D
:10F070001A6866F359621A60204622F0E1FC2846BD
:10F080000FF0B6FA284620F096FC204618F034FB24
:10F090003146204601F082FB204621F061FE2846E1
:10F0A000BDE8704011F050BF19F076FF236E43F4B5
:10F0B0008033D0E7236E13F0100203D0D4F8FC2283
:10F0C000812174E784F808231A0709D519F064FF31
:10F0D000236E23F4005323F0080323661EF0AAFED8
:10F0E000D4E9BF21284605F021FC94F8AC31032B6C
:10F0F000284626D1E37D23BB1FF036FA00287FF493
:10F1000021AF237D1BB994F8092302B1E38228467D
:10F110001DF066F8236E5B067FF514AF00212046D4
:10F1200018F0C2FA80B119F037FF236E23F04003C4
:10F1300023661EF07FFE2846FDF79CFC0023E38239
:10F1400000E720F065F8DCE719F026FF236E23F4D2
:10F15000F81323F4006323661EF06CFEEEE719F04B
:10F160001BFF236E43F4806323661EF063FE284674
:10F170001FF0FAF900287FF4E5AE20461FF03AF8B8
:10F1800049E7002213E700BF3034014180B584B065
:10F1900000AF78607B685B881846F9F7FDF8B860C7
:10F1A000BB68002B04D0BB689A7F7B681A7102E0B1
:10F1B0007B6808221A710023FB730EE0FB7B0B4A6D
:10F1C00052F82330002B05D0FB7B084A52F823303D
:10F1D00078689847FB7B0133FB73054B1B78FA7B00
:10F1E0009A42EBD300BF1037BD4680BD100000200F
:10F1F0000C00002080B500AF0948FBF7A7FFF9F726
:10F2000033FFF9F729F9034683F00103DBB2002B42
:10F2100001D0002302E0FAF7E7FA0346184680BD62
:10F220008190000180B483B000AF78600C4B1B78F4
:10F23000012B01D904230DE0094B1B781946094A1B
:10F240007B6842F82130064B1B780133DAB2044B5D
:10F250001A70002318460C37BD465DF8047B7047D2
:10F260000C0000201000002080B582B000AF786054
:10F270007868F9F723F97868F9F7FBFD7868FAF709
:10F2800088FC00BF0837BD4680BD80B584B000AFA4
:10F2900078607B689B7A1846F9F775FE0346FB8118
:10F2A000FB89002B01D0FB8904E07B681846FAF744
:10F2B0008BFC034618461037BD4680BD80B582B032
:10F2C00000AF03460A46FB8013467B717A79FB88C0
:10F2D00011461846F9F768FE034618460837BD463A
:10F2E00080BD80B582B000AF03463960FB71FB7909
:10F2F00039681846F9F7ACF9034618460837BD4691
:10F3000080BD80B582B000AF7860396039687868B8
:10F31000F9F720FA034618460837BD4680BD80B588
:10F3200084B000AF0346B9607A60FB73FB7B7A68F8
:10F33000B9681846F9F754FA034618461037BD461F
:10F3400080BD80B582B000AF0346FB71FB791846E3
:10F35000FBF792FE034618460837BD4680BD80B5D0
:10F3600082B000AF03463960FB71FB7939681846FB
:10F37000FBF730FD034618460837BD4680BD80B513
:10F3800000AFFBF795FE0346184680BD80B584B0FC
:10F3900000AF786039603B6800221A700023FB736D
:10F3A00016E0FB7B1846FBF7A1FE0346002B0CD0B2
:10F3B0003B681B781A467B681344FA7B1A703B68DB
:10F3C0001B780133DAB23B681A70FB7B0133FB73A5
:10F3D000FB7B072BE5D900BF1037BD4680BD00BFC2
:10F3E0002DE9F04F0D4689B00821044691461CF0E6
:10F3F000C5FF8046002875D104F1540009F0ECFFE8
:10F40000032D6FD999F80170023DADB21FFA87FB49
:10F41000AB4567D894F84430F02B09F1020919D1B3
:10F42000204620F0A7FE4FF4827022F0CBFB064668
:10F43000002857D0052303702388838087710581B6
:10F440002A4649460A3020F077FD042130461EF056
:10F450006DFE47E0F52B40F09C80B5FBF7F64FF6CC
:10F46000FF7307FB1656ADF80630002E40F089807A
:10F47000284622F0A7FB8046002840F08080E28FDB
:10F48000BDF806309A4211D84FF4827022F09AFBF0
:10F4900060B1228882800F22027000228271028174
:10F4A000012280F8FF2004211EF040FEB8F1000F79
:10F4B00061D1BDF80630E28F9A4266D901339BB222
:10F4C000A387ADF8083042F6030102230DF10D00C9
:10F4D000ADF80A208DF80C3022F078FB02A9204606
:10F4E00010F0B0FC09B0BDE8F08FABF105020AF1F5
:10F4F000050192B2494402A822F06CFB0AF1030113
:10F5000049440DF1060022F085F87A1F216C02A80B
:10F5100020F004FD40B908EB06003A4609EB0A0169
:10F5200020F00AFD5E44B6B2DA441FFA8AFA0AEB0A
:10F5300007039D42D9DA002EA1D04FF4827022F049
:10F5400041FB0546B8B1238883800F230370877180
:10F550000681324641460A3020F0EEFCE38FBDF8CA
:10F56000062093428CBF0023012385F8FF3004213D
:10F5700028461EF0DBFD404622F026FB99E7B24606
:10F58000D5E7E38FADF8063079E7204620F0F2FDAD
:10F59000A8E7F12BA6D1B5FBF7F307FB1353002B1C
:10F5A00038D1E91B49440DF1060022F033F8E28F0F
:10F5B000BDF80630511E8B4232D201339BB2A38775
:10F5C000ADF8083042F6030102230DF10D00ADF84D
:10F5D0000A208DF80C3022F0F9FA02A9204610F02A
:10F5E00031FC4FF000084FF4827022F0EBFA06462F
:10F5F00000283FF477AF032303702388838087714B
:10F60000058125B12A4649460A3020F095FC86F846
:10F61000FF801AE7E38FADF8063045464746C6E758
:10F620000023E36384F844304FF00108DBE700BFB8
:10F6300038B5046894F86520132A054645D002D8E9
:10F64000122A0ED038BD403A022AFBD8102901D028
:10F650001229F7D1D4F878010021BDE8384022F012
:10F66000E1BA112925D019D81029EBD1002384F84B
:10F670002C30204622F0E4F9284620F09CF9132390
:10F6800084F8653094F8660018F0EEFF204621F00B
:10F6900067FB2846BDE8384011F09ABC12290FD00C
:10F6A0008129CFD1002281212846BDE8384010F0C1
:10F6B00011BA01211AF034FB132384F86530C1E735
:10F6C0002846BDE838400CF091BE212900F0BA80F0
:10F6D00030D81229F4D008D8102960D01129B1D11E
:10F6E0000121BDE838401AF01BBB1629AAD31729FF
:10F6F000E6D92029A6D1236E180616D519F04CFCA0
:10F70000D4F8883123F08073C4F888311EF092FB5E
:10F7100020461DF06FFC002894D019F03DFC236EAC
:10F7200043F0807323661EF085FB2846BDE8384011
:10F7300016F03CB8242900F085800ED8222949D043
:10F7400023297FF47FAF1EF00FFF00287FF47AAFEC
:10F75000237D002B3FF476AF6BE08129A2D0822974
:10F7600000F0878025297FF46DAF18F035FF28461B
:10F770001CF036FD236E5B067FF564AF20461DF05E
:10F78000F1FB10B319F008FC236E23F0400323664D
:10F790001EF050FB2846BDE838401CF021BD00217A
:10F7A000354B84F82C101A6861F39A621A6020466F
:10F7B00022F046F928460EF01BFF236E23F40003C7
:10F7C0002366284620F0F7F85CE72846BDE8384075
:10F7D00020F0F1B8236E13F0100203D0D4F8FC220D
:10F7E000812162E7190784F80823627509D519F0A9
:10F7F000D3FB236E23F4005323F0080323661EF08B
:10F8000019FBD4E9BF21284605F090F8236E5A066B
:10F810000CD50021204617F047FF38B119F0BCFB8A
:10F82000236E23F0400323661EF004FB28461FF0DE
:10F83000EFFC236E1B067FF505AF2846BDE8384078
:10F840001FF0D2B9637D0133637519F0A5FB236EF8
:10F8500023F0400343F4806323661EF0EBFA28464E
:10F860001EF082FE00287FF4EDAE20461EF0C2FCA2
:10F8700090E7002219E700BF303401412DE9F04341
:10F880000446C3788E4A806D617CA57A95B004AE3B
:10F89000002B63D112688DF82010012192F800909E
:10F8A00092F80580B2F801E0B0F8E470B0F82CC02E
:10F8B000D0F8E6208DF8221002218DF82150ADF805
:10F8C0002A708DF823908DF82480ADF825E0ADF8EE
:10F8D00027C08DF829100B9200F5C07708ADFA5CAF
:10F8E000595D4A40F2540133102BF8D10CAA31462D
:10F8F0006F300CF00FFAE178231D04F10B020029A0
:10F9000040F08A8018689B88ADF824301368CDF8E1
:10F9100026309388ADF82A300B9108900CAB08A9DB
:10F9200010251A7811F8010B013D424015F0FF0532
:10F9300003F8012BF5D1A06D10AA0CA96F300CF0C3
:10F94000E9F9A76D102207F5B87110A820F0E6FAC2
:10F9500090B30421204610F025FC5AE013688DF87E
:10F960002110012193F800E093F805C0B3F80120BD
:10F97000D0F8E470838DB0F8E8808DF82210022171
:10F980008DF82050CDF82370ADF82E30ADF82780DB
:10F990008DF829108DF82AE08DF82BC0ADF82C20B9
:10F9A000002300F5E07708ADFA5C595D4A40F25457
:10F9B0000133102BF8D199E707F5E0723346106850
:10F9C0005168ADF8045007F5C07203C31068516860
:10F9D00006AB03C307F17F02314607F16F00CDE9A3
:10F9E00002550CF097F9A16D20467F3119F0E4FB28
:10F9F000204607F02BFFA36D20887F3301AA02A9C0
:10FA00001DF0B7FBA36D2A467F33294620460FF031
:10FA1000B1F815B0BDE8F08310689288ADF82420E5
:10FA20001A689B88ADF82A300023CDF826200B9366
:10FA300008900CAA08AB1025117813F8010B013DB2
:10FA4000414015F0FF0502F8011BF5D1A06D10AA89
:10FA50000CA96F300CF05EF9A76D102207F5D87174
:10FA600010A820F05BFA00287FF473AF07F5E0726E
:10FA700033461068516807F5C07203C310685168B7
:10FA800006AB03C307F17F02314607F16F000CF0AC
:10FA900041F9A16D20467F3119F08EFBA36D2A46F6
:10FAA0007F33294620460FF065F8A16D204601F509
:10FAB000C07116F0FFFA204607F0C8FEA9E700BFA4
:10FAC000B801002030B591EA030F00F18280841A5A
:10FAD00071EB030C05D2121953EB0C03001B71EBF5
:10FAE0000C0140F2000CCFF6E07C1CEA430F52D030
:10FAF000BCEB410F5FD90C0DA4EB135E5FF0010C62
:10FB00006CF31F516CF31F53DEF1200C2AD303FA60
:10FB10000CF5401941F1000122FA0EF5401923FAC3
:10FB20000EF5694112FA0CF2CD0208D349085FEADA
:10FB300030005FEA320228BF42F001020134013C8A
:10FB40005FEA500C72F1004250F1000051EB045199
:10FB50004FF4001313EB410F38BF30BD6FF31301A7
:10FB6000002030BDBEF1200EBEF1200F1ED223FAC0
:10FB70000EF5401941F10001CEF1200C124218BFE0
:10FB8000012203FA0CF52A43CEE711EA5C0F04BF09
:10FB90000020002130BD1CEA410F04BF01F00041EC
:10FBA000002030BD01F00041002030BD21F4801163
:10FBB00001EB045130BD004218BF41F00101BCEB24
:10FBC000410F08BF30BD4FF0FE4141F478010020E5
:10FBD00030BD83F00043841A71EB030E07D28EF020
:10FBE000004E001B71EB0E01121953EB0E0340F295
:10FBF000000CCFF6E07C1CEA430FC6D0BCEB410FF3
:10FC000072D90C0DA4EB135EC90241EA5051C00237
:10FC100041F00041DB0243EA5253D20243F0004379
:10FC2000DEF1200C41D312FA0CF522FA0EF203FA9F
:10FC30000CF542EA050218BF42F0010223FA0EF366
:10FC4000801A9941E30AC4F30A0411F0404F03D427
:10FC500018D0013C40004941013C23D44205C00A70
:10FC600040EA4150C90A51EAC3715FEA500C72F18F
:10FC7000004250F1000051EB045130BD01002FD083
:10FC80000020203C0029F9D0B1FA81FCDCF1200EE3
:10FC900011FA0CF130FA0EF510FA0CF02943A4EB2E
:10FCA0000C04D9E70020D90730BDAEF1200EBEF11B
:10FCB000200F0DD2CEF1200C03FA0CF533FA0EF31F
:10FCC0002A4318BF43F00103C01A61F10001B9E7EC
:10FCD00021F00041C00A40EA4150C90A01EB045139
:10FCE00030BD0020002130BD004218BF41F00101AD
:10FCF000BCEB410F7FF467AFBCEB430F3FF463AF46
:10FD000030BDFEE72DE9F04F05468FB00F460026C7
:10FD1000BB5DAB550136202EFAD13C464FF00008B2
:10FD200054F82C0FCDF82080616809ABCDE9068826
:10FD300003C3A068E16803C306AA206918601146DE
:10FD4000334610461DF0F2FE06AA83462946284691
:10FD50001DF0ECFEBA4683445AF8300FDAF804106E
:10FD600009AB03C3DAF80800DAF80C1006AA03C3DB
:10FD7000334611461046CDF834801DF0D7FE5FFAA9
:10FD80008BFB834406AA294628461DF0CFFE3B463E
:10FD90005FFA8BFB834453F8200F01935968CDF829
:10FDA0002C800DF11809A9E803003A469868C9F8B3
:10FDB000000052F8380F049251680CABCDE9098865
:10FDC00006AA03C33346294628461DF0AFFE5FFA54
:10FDD0008BFB3A465844C3B252F8240F059351683E
:10FDE0000292BB4606AB03C39068C9F800005BF8FB
:10FDF000340FDBF8041009AB03C3DBF8080018600C
:10FE000003937B6B0C933B6A0D9306AA33462946FA
:10FE100028461DF08BFE059B6168CDF82C801844A8
:10FE2000C3B22068059306AB03C33B6AA0680C937A
:10FE3000BB6AC9F800000D9306AA33462946284636
:10FE4000CDE909881DF07BFA059BDAF80410181A31
:10FE5000C4B2DAF8000006AB03C3DAF80800DAF837
:10FE60000C1003C37B6A0C93FB6A0D9306AA3346FE
:10FE700029462846CDE90A881DF061FADBF804100E
:10FE8000019A241ADBF8000006AB03C3DBF8080074
:10FE90005168C9F80000106809AB03C3039B906860
:10FEA00018603B6B0D9306AA334629462846CDF8C9
:10FEB00030801DF044FA049AE4B25168241A1068A4
:10FEC000029A06AB03C310685168C9F8008009ABF9
:10FED00003C3039B906818607B6B0D9306AA33469F
:10FEE00029462846CDF830801DF029FAE4B2241ABC
:10FEF00064B244450F4E10DB34B920222946304607
:10FF00001EF0E6FA012812D0202332462946284660
:10FF10001DF015FA241A64B2EEE720233246294672
:10FF200028461DF003FE044464B2002CF5DB0FB03C
:10FF3000BDE8F08F8001012080B582B000AF78600D
:10FF40007B681B0903F588032A331B02184606F059
:10FF500069FA02467B6803F00F0322FA03F303F009
:10FF60000103002B14BF01230023DBB2184608371E
:10FF7000BD4680BD80B582B000AF78607B681B094C
:10FF800003F588032A3318027B6803F00F0301226C
:10FF900002FA03F3194606F09FFA00BF0837BD4680
:10FFA00080BD80B586B000AFB9607A601A4603465E
:10FFB000FB8113467B73FB891B0A9BB2FB75FB8994
:10FFC000D9B2F87D3B6ABA68FDF72EF97B7B1A46F9
:10FFD0007968386AFDF740F90346BB82BB8A184648
:10FFE0001837BD4680BD80B483B000AF7860044A46
:10FFF0007B68136000BF0C37BD465DF8047B70471B
:020000040101F8
:1000000028FE002080B584B002AF0E4B02225A6059
:100010001920FFF7AFFF022200210B4820F0D6FD88
:100020000A4B00930123322200214FF48070FFF726
:10003000B8FF0346FB80064B00221A6000BF08375A
:10004000BD4680BD002B004418FE00201CFE002091
:1000500028FE002080B582B000AF0023BB711920BC
:10006000FFF76AFF034683F00103DBB2002B02D0E7
:100070000123FB7101E00023FB71FB79012B25D1EA
:10008000354B5B780133DAB2334B5A70324B1B7805
:10009000002B03D1304B01221A704CE02E4B1B7801
:1000A000012B09D12C4B5B780A2B44D92A4B022215
:1000B0001A700223BB713EE0274B1B78032B3AD109
:1000C000254B04221A700323BB7134E0224B1B78AA
:1000D000002B05D0204B5B780133DAB21E4B5A70EF
:1000E0001D4B1B78012B07D11B4B5B78082B03D8CA
:1000F000194B03221A700DE0174B1B78012B07D008
:10010000154B5B78082B05D9134B1B78032B01D1BA
:100110000123BB71BB79002B07D10F4B1B78022B3E
:1001200003D00D4B1B78042B05D10B4B00221A700A
:10013000094B00225A70BB79002B08D0074B1B6873
:10014000002B04D0054B1B68BA791046984700BFB6
:100150000837BD4680BD00BF18FE002028FE0020E5
:100160002DE9FF470478012C054600F0A0802CB152
:10017000032C00F0E48004B0BDE8F0878478002C04
:10018000F9D1794ED6F800A00AF1100353F8247083
:100190005FFA84F977BB882021F014FD04F104088C
:1001A0004AF82800336853F82800B0B1882239464D
:1001B00020F00CFD3368A400234417211A699180B4
:1001C0001B6983F8029033681C440122236983F879
:1001D00085202369DF6423691F65336853F828404D
:1001E00064B9624B0093002204239221EE2009F0AF
:1001F000ABFBC0E70134082CC8D1F2E7AB88238001
:10020000AA79E378002A31D143F02103584FE370F3
:100210003A68D2F80080E37AB8F1000F29D198004B
:1002200043B121F0CFFCE06020B13B68196847463C
:1002300000293AD1B4F85C30A178216640F201423D
:1002400003F0F8031343A4F85C30B4F87430A167EA
:1002500003F0F8031A433368A4F87420DB68002B1A
:1002600089D0284604B0BDE8F047184743F0110391
:10027000CCE798F810201344E372D8F80080CAE75E
:1002800088689B0030F822C0E06820F803C0E0686E
:10029000034401325F80D2B2087C02EB0803904233
:1002A000DBB2EDD809689846C2E70022F4E745883A
:1002B00028461CF0DFFD064650B9CDE901542D4B10
:1002C0000093024604239321EE2009F03DFB52E700
:1002D000008821F0B3F860B34FF4827021F072FC13
:1002E00040B11122027032888280B27A8271042178
:1002F0001DF01CFF4FF4827021F064FC0446C0B175
:10030000F07A800021F05EFC054690B11223237044
:1003100033882381F37AA3726060F27AF1689200E5
:100320001FF00AFE204604211DF000FF284621F0A0
:100330004BFCB07804B0BDE8F0470EF087BE0379FF
:10034000002B7FF418AF458828461CF093FD024629
:1003500028B9084B0093CDE901540423B3E70123E6
:1003600080F8843007E700BFBC010020787E0201DE
:10037000B4000020927E0201F0B581EA030E0EF077
:10038000004E40F20007CFF6E07717EA41051EBFA6
:1003900095EA070F17EA430494EA070F00F0C580B7
:1003A0006D0DA5EB545707F580674FF0004646EA00
:1003B000C12444EA5054C00246EAC32343EA5253DC
:1003C000D202801A9C4104D20018644180185C411A
:1003D000013F5B084FEA32020025002140F0010096
:1003E0004FF0070604E0801A9C4136D34041644137
:1003F000801A9C4136D340416441801A9C4136D3D7
:1004000040416441801A9C4136D340416441801A86
:100410009C4136D340416441013E17D0801A9C4133
:1004200036D340416441801A9C4136D340416441F7
:10043000801A9C4136D340416441090201EB1561A9
:1004400090EA052520F0FF004540CCE7801A9C414A
:1004500056D335E080185C41C8D20018644180183A
:100460005C41C8D20018644180185C41C8D20018B1
:10047000644180185C41C8D20018644180185C4116
:10048000C8D200186441013E17D080185C41C8D220
:100490000018644180185C41C8D20018644180187B
:1004A0005C41C8D200186441090201EB156190EA71
:1004B000052520F0FF004540CCE780185C411FD3A4
:1004C000420918BF44F00104490101EBD56100F075
:1004D0001F0000EB451021F4801141EA0E010130AC
:1004E00041F10001244208BF20F00100B7F5006F80
:1004F0003EDA013F49DD01EB0751BDE8F0407047AE
:10050000490101EBD56100F01F0000EB451021F41B
:10051000801141EA0E01B7F5006F29DA013F34DDA1
:1005200001EB0751BDE8F0407047004218BF41F0B1
:100530000101124218BF43F00103B7EB410F2CBF7A
:10054000B7EB430F1CE0B7EB410F04BFB7EB430F12
:1005500016E017EA410F04BF17EA430F10E017EA4D
:10056000410F12D017EA430F02D0B7EB430F0CD064
:100570004EF0FE4141F470010020BDE8F0407047AC
:100580004FF0FE4141F47801F6E77146F4E70529A2
:100590002DE9F04FBBB0DFF800A20692126801927D
:1005A0008A6E1344019A12FA83F9031F029300F131
:1005B0002C038B4609930026029B53F8047F029379
:1005C000002F64D07B6E0593FB7AD7F86080BBF870
:1005D0007620B7F87040B7F87650012B04BFFB6B5C
:1005E000A8EB030840F23913B2FBF3F2B4FBF3F4C7
:1005F00002F1010204F1010414440392B5FBF3F586
:10060000BBF87020B2FBF3F205F1010502F1010223
:1006100015440492059A08BF08EA0A08424402EA0F
:100620000A021544BA6CA8EB040404EA0A0405EAB9
:100630000A05002A61D13A6C97425ED1786C1DF0B0
:1006400019F940F239130890079300BFA4EB09038E
:100650005B020BD484EA090313EA0A0F06D0182EB2
:1006600014D0099B029A9342A6D110E04B46019AFE
:100670002946204620F050FBE0B13AAB03EBC6031D
:100680000136F6B2182E43E9304513D11826449BA3
:10069000721E1E700AA800211DF0D0FC00230A98CB
:1006A0001A4644990978914237D8459A13703BB05D
:1006B000BDE8F08F7B7F002BD1D0089BB7F870404E
:1006C000B7F876509844079BB4FBF3F4039B0134CE
:1006D0001C44079BB5FBF3F5049B01351D44059BAA
:1006E00008EA0A08434403EA0A03A8EB04041D4489
:1006F00004EA0A0405EA0A05A8E74B46019A2946D6
:10070000204620F009FB0028A9D03AAB03EBC60332
:10071000013643E93045F6B2A1E75AB906990C68AB
:10072000211A4D0206D5469901EBC301C1E90040EB
:100730000133DBB24499097801398A4202F101049C
:1007400013DA3AA901EBC20151F8BC6C3AA901EBEA
:10075000C40151F8C05C711B490206D5469901EBF2
:10076000C301C1E900650133DBB24499097801395D
:100770008A420FD13AA901EBC20252F8BC1CA1EB8C
:100780000902520206D5469A02EBC302C2E90019D9
:100790000133DBB2E2B284E7FFFF7F00F8B5037EEE
:1007A0007E4D022B044621D120F05DFED4F8A0300E
:1007B0007BB92376236E23F0805323664FF000032A
:1007C000A4F829302B6923634FF48073A4F82330F5
:1007D00011E094F8A8214AB11B7903F03003102BE3
:1007E00004D100232376C4F8A030E3E7217E00295A
:1007F000E0D002295BD0204612F092FA94F86710FC
:1008000084F82B0094F82A0019F08EF8D4F8883078
:10081000D4F87811D4F894201844C4F8880094F8D7
:100820006430D1F8B010012B40F2712303FB01F3C7
:1008300040F09F809A4238BF9B1AD4F88C2028BF82
:1008400000239042226E80F09180984280F08E804A
:10085000D10040F18680012384F8293042F0400223
:10086000226618F099FB216BE8681BF09FFCEB688F
:1008700094F82B205A7094F8253094F82910EA68DF
:10088000DB0043EA011394F824100B4394F826107C
:1008900043EA810313701DF0CDFA236E13F020029A
:1008A00003D143F02003E27523660020F8BDD4F89D
:1008B000A02013895689F61A236E23F080532366ED
:1008C000002384F82930137903F03000102829D14F
:1008D00012891ABB03F00303012B1FD084F82410E4
:1008E000D4F8A020B4F89E1113890C331344B142FC
:1008F00023631ED3106820F0B7FBD4F8A0301B7917
:1009000003F03003102B07461ED1606820F0ACFBCB
:1009100027B3236E43F0805323660FE0012384F84E
:100920002430DDE7032384F8243020460EF0BEFC9B
:10093000D6E7236E43F0805323660E4684F82A6080
:10094000204620F089FD56E7A06820F08DFB94F842
:10095000A831002BDCD0002FDBD1EFE70028D8D165
:10096000ECE794F82130002B7FF478AF22F04002BE
:1009700076E79A4238BF9B1AD4F8902028BF00230C
:100980009042BFF46EAF9842BFF46BAF236EDB00B2
:1009900044BF012384F8293063E700BF00FE002034
:1009A000F7B54388042B044605D0082120460FF0F4
:1009B000F9FB03B0F0BD806D0191E43001A920F096
:1009C000FEFCA06D01A9E53020F0F9FCA06D01A9A5
:1009D000E63020F0F4FCA06D01A9E73020F0EFFC38
:1009E000A06D01A9E83020F0EAFCA06D01A9E93072
:1009F00020F0E5FCA36D93F8E72084F8522093F8EB
:100A0000E620D00704D55D4A12685278D10701D498
:100A100001225A71A26D92F8E730073B092B01D9E8
:100A20000621C3E792F8E630544D13F0080F2B6807
:100A300003D19B7923B10321B8E75B78C3F3C003EB
:100A400084F85530204610F0EBFE04F15C0717F0F7
:100A5000D8FF4B49384606F019FBA66D737813F1A1
:100A6000FF3218BF012284F8542094F85520002A40
:100A70004DD0012B07D096F8E7300F2B03D838461E
:100A800008F0AAFCCCE794F8533083B902201CF09C
:100A900049FF002837D12B68DA789AB139494022CA
:100AA00004F112001FF048FA022384F85330204664
:100AB00014F00CFF04F11201204617F07FFF0B2306
:100AC000A37076E77278032A06D1996821B191F86C
:100AD00050300BB14022E3E72B4820F065FB06467F
:100AE00000287FF462AF2868022384F85330103066
:100AF00008F072FC2B6883F828609B680BB183F8C0
:100B000050600A23DCE7012384F85330F9E72046DC
:100B100014F0DCFEA36D93F8E920D2075CBF01223C
:100B20005A71A16D4B78012B0AD120466F3102F02A
:100B3000FFFFA16D204601F5D87114F02BFB38E7BB
:100B4000022B13D12B681B78022B03D1204617F000
:100B5000B3FC2EE7042B05D191F8E430022B01D031
:100B6000042BF3D120461EF00FFB22E7032B7FF46A
:100B700020AF20461EF019FB1BE700BFB801002084
:100B8000A064D101E8980201859202012DE9FF419C
:100B900000230293ADF80430C37A012B044601A967
:100BA00002A82DD11CF0D4FE029AE36B218F1A44C7
:100BB000BDF804300B449BB240F2E1418B42C2F3DA
:100BC0001602029285BFA3F2E2430132ADF804306F
:100BD000ADF8043088BF0292A37B029E002B55D152
:100BE000276CBC423D6E43D0DFF87C81AB1B5B02BF
:100BF00009D5786C1CF03EFE054405EA0805F5E7CA
:100C00001CF0A6FEE8E7606C1CF034FE284400EA05
:100C10000800801B40F27125C0F31600BDF80430B7
:100C20006843B4F8705005EB9305237A012B4C4BC5
:100C30001A680BBF5368136843F4005343F400531E
:100C40000CBF53601360C5EB5005C4F884402946BF
:100C500004F1780006F01AFA424B1B68B3F820132F
:100C6000A94239D2691A04F1900006F00FFA33E074
:100C7000606C1CF0FFFD237A2844012BC0F31600A2
:100C8000C7D1A36C002BC4D02066C2E7206E801BA6
:100C900040F27123C0F316005843012888BFBDF805
:100CA00004304FEA500588BFA5EB9305B4F87030C7
:100CB00003F27122AA4212D9636D2BB193F84F202F
:100CC00042F0080283F84F2020461EF03BFA002233
:100CD0002146207A0FF01EFA04B0BDE8F081ED1A2B
:100CE000E37AC4F88440012B0DF1060103A833D147
:100CF0001CF02EFE039AE36B218F1A44BDF80630D8
:100D00000B449BB240F2E1418B42C2F316020392C4
:100D100085BFA3F2E2430132ADF80630ADF80630EC
:100D200088BF0392DDE902239A4204D1BDF8063060
:100D3000B3F5966F01D3A5F59C75237A012B084B6B
:100D40001A680BBF5368136843F4005343F400530D
:100D50000CBF536013607AE71CF0FAFDE2E700BFB6
:100D6000A4010020A8010020FFFF7F002DE9F04F23
:100D70001646A1B0102281460C460DEB0200002160
:100D800098461FF023FF304620F01CFF074600283E
:100D90007ED0A319421EA3427DD118AD102200219E
:100DA00028461FF013FF0DF1500A102200211CA845
:100DB0001FF00CFF87231022002150468DF87F3052
:100DC0001FF004FF10AA514648460AF0A3FF0CACDE
:100DD00010AA0023D17B19550133102B02F1FF32E9
:100DE000F8D19DF93030002B5ADB04A920461EF0C3
:100DF00081FE9DF91030002B5CDB08A904A81EF0D1
:100E000079FE06F10F00000906F00F065CD01FFA0C
:100E100080FB002E5AD100F18050013810AA04A99D
:100E200007EB00101FF04CFD1022002168461FF058
:100E3000CDFE00260BF1FF339E42224665D310A95A
:100E400068461FF03DFD0023E27BEA540133102B7E
:100E500004F1FF34F8D11CAA294648460AF05AFF8B
:100E60001CAB0022D97B0DF802100132102A03F1CD
:100E7000FF33F7D10DF10F02002300BF12F8011963
:100E800008F803100133102BF8D1384620F09CFEEF
:100E900021B0BDE8F08F13F8011D02F8011F7AE7B9
:100EA000294620461EF026FE04AA1CA928461FF04B
:100EB00007FD9EE7294604A81EF01CFE08AA1CA9EF
:100EC00028461FF0FDFC9CE74FF0010B0BF180530F
:100ED000013B1A010023B6B2194680201FFA83FC99
:100EE00066450CD907EB020C1CF803C00AF803C0D6
:100EF0000133102BF2D110AA08A9504692E70CBF7B
:100F00000AF803000AF80310F2E707EB0611684637
:100F10001FF0D6FC0023D17BE9540133102B02F1E2
:100F2000FF32F8D11CAA294648460AF0F3FE1CAA53
:100F30000023D17B0DF803100133102B02F1FF3297
:100F4000F7D10136B6B275E7F0B5612885B00D4628
:100F500017460E6850D013D841282DD006D8A0F1DE
:100F60001303012B40F2988000246DE0542834D004
:100F7000602845D05228F7D1084612F085FFF3E7E4
:100F8000A02800F09E8007D8802811D08128EBD1BE
:100F900008461EF01FFEE7E7A22800F0A380C0F07D
:100FA0009D80F128E0D130461CF06DF904464BE0FD
:100FB000304615F052F8D7E713685B8902933388FF
:100FC0000193544B0093022201233E21EC2008F0B0
:100FD000BBFC30461FF01CF8C6E7D6F8843113F08E
:100FE000010431D023F00103C6F8843196F8B3111F
:100FF00028461FF049FEB7E708461FF087F9B3E718
:1010000013681E68937A032B21D153681B780293CF
:1010100033880193404B0093022201233F21EC20AF
:1010200008F092FC384612F0F9FE044660B97B687D
:101030001B78022B02BFD6F8843143F00103C6F8B7
:101040008431284612F020FF204605B0F0BD537AC7
:10105000029333880193314B0093022201234021F4
:10106000EC2008F071FC384611F07AFC04460028A8
:10107000EAD196F8A93163B1294B18681EF0DEF960
:10108000336E43F0100333663D2128461FF0FCFD0C
:10109000DAE70EF067FFD7E796F86530403B022BA2
:1010A00007D8A0F1130359425941284615F0BCF95D
:1010B0005AE7346E14F00404C6D008460BF0A6FDBF
:1010C00052E7084620F008FD044600B301462846D2
:1010D00002F098FE20461EF0C2FF45E730880FF070
:1010E000E1FA41E796F8AC31112B3FF43DAF96F8A9
:1010F000AE31112B3FF438AFD6F8EC321BB11B796F
:10110000012B3FF431AF284615F096FC2CE707245D
:101110009AE700BF423D0201663D02018D3D02019A
:101120001001002080B58AB000AF7860F7F7F0F8C2
:1011300003F0B6FE4FF2D0231B681A46594B1B68CA
:1011400023F49F7323F0010343F0120318469047E2
:1011500005F048F920F017F9FBF79EFE1CF0A6F900
:101160000120F7F785F8504B504A1A604E4B504A11
:101170005A604D4B4F4A9A604B4B4F4ADA604A4B8C
:101180004E4A1A61484B4E4A5A61474B4D4A9A6142
:10119000454B4D4ADA61444B4C4A1A62424B4C4A29
:1011A0005A62414B4B4A9A623F4B4B4ADA623E4B82
:1011B0004A4A1A633C4B4A4A5A633B4B494A9A6330
:1011C000394B494ADA63384B484A1A6400211020E7
:1011D0000FF0DEFC04222021454800F057FA07F109
:1011E0001C030C22002118461FF0F0FC07F11C0321
:1011F00002331846F8F7E4FF03461A467B7F62F392
:1012000000037B7707F11C0309331846F8F7EAFF60
:1012100003461A467B7F62F341037B7707F11C0389
:101220001846F9F705F8034683F00103DBB2002BFB
:1012300001D003233B7707F11C0303F10B0207F1F5
:101240001C030A331146184602F0CFFA03461A4629
:101250007B7F62F382037B7707F10803142200216E
:1012600018461FF0B3FC3B7D6FF300033B754FF452
:10127000E043BB60BB681846FCF7B1FB0346FB606C
:101280000023BB6107F11C0307F108020649184857
:1012900004F032FB03F054FFFDF7FEF900BF2837DE
:1012A000BD4680BD00240144240000201DD700015C
:1012B00049D7000175D7000139D800017BD800015A
:1012C000A5D80001F1D800018D1601014D170101CB
:1012D00093170101E117010127180101BF16010150
:1012E000EB16010119170101DFD90001F7D900013F
:1012F0001C000020F7B590F84D3004460E4633B977
:1013000019B10B78837280F8523003B0F0BD032B13
:10131000FBD1684D2B68D3F8303303B1984794F86C
:101320005220A27294F851302A68237202EB830390
:10133000614FD3F89812A14204BF0021C3F898125C
:10134000D2F8A032A34204BF0023C2F8A032237A0D
:101350003A68012B15BF1368536843F4806343F464
:10136000806314BF13605360042384F84D3000235E
:101370008DF807305EB13378A372337884F8523039
:10138000737823B10DF10701204611F001F92B68A4
:101390000022C3F8A422637F13B120461EF0C0FAD6
:1013A0002A68D2F898320BB9D2F89C32C2F8A0322F
:1013B000002B5ED093F84D30022B5AD11EF0BFFAAD
:1013C00094F85030DE0748BF23F0010343F00203D6
:1013D00084F8503094F84F30D8070ED523F001032D
:1013E000002684F84F302046667212F05BFB3346CD
:1013F00032463249012013F073FC637F03B9A373B3
:101400003A68B4F87000118988420DD0A4F87010C1
:101410002968B1F82203A4F87200B1F82413A4F8E3
:1014200074105289A4F876204BB194F84E30D90745
:1014300005D420461DF07EFB2046FFF7A7FB94F85D
:101440004E30DA070FD523F0010384F84E30A36D38
:101450004BB9204612F026FBA36D23B91A46184952
:10146000012013F03DFC296819F05AFF81F834037C
:101470004BE792F8943223B1002211461046FDF753
:10148000A7F92B6893F89532002B99D0237A3A6804
:10149000012B0BBF5368136843F4805343F480530C
:1014A0000CBF536013600022114601200EF032FE83
:1014B00086E700BFA8010020A40100200B01000165
:1014C0000901000170B5856D86B00446002D00F05D
:1014D000DB8095F82E30DE0722D5112020F024FB8A
:1014E0000646E8B100F11003062104A8049320F099
:1014F0009DF82B46049953F8A02F0A605A684A6059
:101500009A688A60DA68CA6006230093324600232C
:10151000112120881AF000FF10B1304620F042FB64
:10152000A56D95F82E30980721D50B2020F0FCFAF8
:101530000646E0B100F11003072104A8049320F04F
:1015400075F8049BB5F8B0201A80049A55F8B23F9C
:1015500013606B68536006230093324600230B210F
:1015600020881AF0D9FE10B1304620F01BFBA56D83
:1015700095F82E30590722D5112020F0D5FA0646CD
:10158000E8B100F11003082104A8049320F04EF8FC
:101590002B46049953F8BC2F0A605A684A609A682F
:1015A0008A60DA68CA60062300933246002311215C
:1015B00020881AF0B1FE10B1304620F0F3FAA36D86
:1015C00093F82E301A0728D5082020F0ADFA0546EA
:1015D00018B300F11003092103A8039320F026F8A3
:1015E0000DF1110104A81DF0E9FE9DF8101003A8EB
:1015F00020F01CF8039BDDF811201A60BDF81520BF
:101600009A80062300932A460023082120881AF096
:1016100083FE10B1284620F0C5FAA56D95F82E304E
:10162000DB0622D5112020F07FFA0646E8B100F152
:1016300010030A2104A804931FF0F8FF2B46049915
:1016400053F8D32F0A605A684A609A688A60DA6849
:10165000CA600623009332460023112120881AF025
:101660005BFE10B1304620F09DFAA36D93F8EA209E
:1016700052B95B7913B920460CF0DEFCA06D18B1AD
:1016800020F0A2FA0023A36506B070BD80B584B037
:1016900000AFF860B9607A6000227968B868F1F745
:1016A00041FA0246FB681A60FB681B68002B01D1F7
:1016B000002300E0012318461037BD4680BD80B5E9
:1016C00082B000AF786039603868F2F704F90246FA
:1016D0007B681A607B681B68002B01D1002300E047
:1016E000012318460837BD4680BD80B582B000AFE3
:1016F000786039607B681A683B681B681946104639
:10170000F2F7F8F80346012B01D1012300E0002392
:1017100018460837BD4680BD80B584B000AFF8607C
:10172000B9607A60BB681B6879681846F2F727F9D8
:101730000246FB681A60FB681B68002B01D100237E
:1017400000E0012318461037BD4680BD80B586B045
:1017500000AFF860B9607A6000237B617B68B3F109
:10176000FF3F03D14FF0FF337B6101E07B687B617A
:10177000FB68186800237A69B968F1F785FA0346AF
:10178000012B01D1012300E0002318461837BD4684
:1017900080BD80B584B000AF786039600023FB6005
:1017A0007B68186807F10C0200233968F1F732FBF7
:1017B0000346012B0CD1FB68002B07D0074B4FF0E1
:1017C00080521A60BFF34F8FBFF36F8F012300E089
:1017D000002318461037BD4680BD00BF04ED00E071
:1017E00080B586B000AFF860B9607A6000237B6195
:1017F0007B68B3F1FF3F03D14FF0FF337B6101E022
:101800007B687B61FB681B687A69B9681846F1F7E9
:10181000E8FB0346012B01D1012300E00023184619
:101820001837BD4680BD80B582B000AF78607B6858
:101830001B681846F2F703F80346012B01D1012378
:1018400000E0002318460837BD4680BD90B58BB038
:1018500000AFF861B9617A614FF0864302221A60E5
:101860004FF2D0031B68FC693846BA6910219847CB
:1018700004F1DC033A4607CA83E807004FF24C0341
:101880001B681C46F869FB69DC337A691946A04776
:101890000346002B02D00123FB8401E00023FB84DC
:1018A0004FF0864300221A60FB8C18462C37BD4649
:1018B00090BD90B587B000AFF8607A603B600B4692
:1018C0007B814FF0864302221A604FF260031B684F
:1018D0001C46F8687A897B683968A04778617B691B
:1018E000002B06D14FF26C031B68FA68104698472C
:1018F00078617B69002B06D14FF270031B68FA6890
:101900001046984778617B69002B06D14FF2680337
:101910001B68FA681046984778614FF086430022AA
:101920001A607B69002B01D0012300E000231846D8
:101930001C37BD4690BD90B589B000AF7861396164
:101940004FF0864302221A604FF2D0031B687C6975
:1019500038463A691021984704F1DC033A4607CA31
:1019600083E807004FF240031B681A4678697B69D9
:10197000DC33194690470346002B02D00123FB833A
:1019800001E00023FB834FF0864300221A60FB8BAB
:1019900018462437BD4690BD90B587B000AFF860BB
:1019A0007A603B600B467B814FF0864302221A60CF
:1019B0004FF260031B681C46F8687A897B683968B7
:1019C000A04778617B69002B06D14FF264031B6846
:1019D000FA681046984778617B69002B06D14FF270
:1019E00070031B68FA681046984778614FF0864389
:1019F00000221A607B69002B01D0012300E0002344
:101A000018461C37BD4690BD2DE9F047C388172BFB
:101A10008CB0074640F0BD80837A0C2B07D003F0D2
:101A2000FD03082B03D080200CB0BDE8F0874FF4F5
:101A3000407020F0C7F880460028F4D01022002122
:101A400008A81FF0C3F85E4BCDF808801B681C681F
:101A500000250CBB284620F0B5F80646002800F00B
:101A600094802A4641461EF053FF404620F0ACF8D1
:101A700004AB2A46314608A8FFF778F9304620F033
:101A8000A3F83B685A6804AB03CB1060516003CBEA
:101A90009060D1600020C7E7A689E389B34201D2F4
:101AA0002468D6E7B4F80C906368A6EB090903EB49
:101AB000091999F80E305B074FD4D9F8001001A826
:101AC0001FF0A8FDBDF80430A3F52052032A02D967
:101AD000B3F5245F44D1D9F8083093F800A05544F9
:101AE0001FFA85FA0AF10405ADB2B5F5407F4CD86E
:101AF000314602A81FF0A0FDBDF8041002A81FF097
:101B00009BFDD9F80830D9F804101A7802A81EF005
:101B100013FFBDF8042042F602039A421DD1D9F802
:101B200008301B88042B18D1D9F804100DF10600D9
:101B30001FF070FD03AA04A9BDF806001AF03AFED2
:101B400058B10AF11405ADB2B5F5407F1DD8049B1C
:101B50001022596802A81EF0EFFE0136B6B29CE7CB
:101B600003F55643FF339BB2042BF6D80435ADB2D0
:101B7000B5F5407F09D8314602A81FF05DFDBDF8DC
:101B8000041002A81FF058FDE7E7404620F01CF8BB
:101B900049E7152B7FF447AF837A0C2B04D003F071
:101BA000FD03082B7FF43FAFB8881BF063F90028D2
:101BB0003FF439AF3B68827A5B681A706AE700BF0E
:101BC000B40000202DE9F04F002311F0010A87B086
:101BD000CDE904331FBF654B1B68D3F8A8320493CB
